{
	"contracts/ACB.sol": {
		"AcbCoin": {
			"abi": [
				{
					"inputs": [],
					"stateMutability": "nonpayable",
					"type": "constructor"
				},
				{
					"anonymous": false,
					"inputs": [
						{
							"indexed": true,
							"internalType": "address",
							"name": "owner",
							"type": "address"
						},
						{
							"indexed": true,
							"internalType": "address",
							"name": "spender",
							"type": "address"
						},
						{
							"indexed": false,
							"internalType": "uint256",
							"name": "value",
							"type": "uint256"
						}
					],
					"name": "Approval",
					"type": "event"
				},
				{
					"anonymous": false,
					"inputs": [
						{
							"indexed": true,
							"internalType": "address",
							"name": "from",
							"type": "address"
						},
						{
							"indexed": true,
							"internalType": "address",
							"name": "to",
							"type": "address"
						},
						{
							"indexed": false,
							"internalType": "uint256",
							"name": "value",
							"type": "uint256"
						}
					],
					"name": "Transfer",
					"type": "event"
				},
				{
					"inputs": [
						{
							"internalType": "address",
							"name": "",
							"type": "address"
						}
					],
					"name": "_LpBalances",
					"outputs": [
						{
							"internalType": "uint256",
							"name": "",
							"type": "uint256"
						}
					],
					"stateMutability": "view",
					"type": "function"
				},
				{
					"inputs": [
						{
							"internalType": "address",
							"name": "",
							"type": "address"
						}
					],
					"name": "_lastEth",
					"outputs": [
						{
							"internalType": "uint256",
							"name": "",
							"type": "uint256"
						}
					],
					"stateMutability": "view",
					"type": "function"
				},
				{
					"inputs": [
						{
							"internalType": "address",
							"name": "",
							"type": "address"
						}
					],
					"name": "_lastLpTime",
					"outputs": [
						{
							"internalType": "uint256",
							"name": "",
							"type": "uint256"
						}
					],
					"stateMutability": "view",
					"type": "function"
				},
				{
					"inputs": [
						{
							"internalType": "address",
							"name": "owner",
							"type": "address"
						},
						{
							"internalType": "address",
							"name": "spender",
							"type": "address"
						}
					],
					"name": "allowance",
					"outputs": [
						{
							"internalType": "uint256",
							"name": "",
							"type": "uint256"
						}
					],
					"stateMutability": "view",
					"type": "function"
				},
				{
					"inputs": [
						{
							"internalType": "address",
							"name": "spender",
							"type": "address"
						},
						{
							"internalType": "uint256",
							"name": "amount",
							"type": "uint256"
						}
					],
					"name": "approve",
					"outputs": [
						{
							"internalType": "bool",
							"name": "",
							"type": "bool"
						}
					],
					"stateMutability": "nonpayable",
					"type": "function"
				},
				{
					"inputs": [
						{
							"internalType": "address",
							"name": "account",
							"type": "address"
						}
					],
					"name": "balanceOf",
					"outputs": [
						{
							"internalType": "uint256",
							"name": "",
							"type": "uint256"
						}
					],
					"stateMutability": "view",
					"type": "function"
				},
				{
					"inputs": [],
					"name": "bnbPair",
					"outputs": [
						{
							"internalType": "address",
							"name": "",
							"type": "address"
						}
					],
					"stateMutability": "view",
					"type": "function"
				},
				{
					"inputs": [],
					"name": "currentLpIndex",
					"outputs": [
						{
							"internalType": "uint256",
							"name": "",
							"type": "uint256"
						}
					],
					"stateMutability": "view",
					"type": "function"
				},
				{
					"inputs": [],
					"name": "decimals",
					"outputs": [
						{
							"internalType": "uint8",
							"name": "",
							"type": "uint8"
						}
					],
					"stateMutability": "view",
					"type": "function"
				},
				{
					"inputs": [],
					"name": "dividendGas",
					"outputs": [
						{
							"internalType": "uint256",
							"name": "",
							"type": "uint256"
						}
					],
					"stateMutability": "view",
					"type": "function"
				},
				{
					"inputs": [],
					"name": "holderRewardCondition",
					"outputs": [
						{
							"internalType": "uint256",
							"name": "",
							"type": "uint256"
						}
					],
					"stateMutability": "view",
					"type": "function"
				},
				{
					"inputs": [],
					"name": "lpBonus",
					"outputs": [
						{
							"internalType": "uint256",
							"name": "",
							"type": "uint256"
						}
					],
					"stateMutability": "view",
					"type": "function"
				},
				{
					"inputs": [],
					"name": "lpBonusEd",
					"outputs": [
						{
							"internalType": "uint256",
							"name": "",
							"type": "uint256"
						}
					],
					"stateMutability": "view",
					"type": "function"
				},
				{
					"inputs": [
						{
							"internalType": "address",
							"name": "",
							"type": "address"
						}
					],
					"name": "lpHolderIndex",
					"outputs": [
						{
							"internalType": "uint256",
							"name": "",
							"type": "uint256"
						}
					],
					"stateMutability": "view",
					"type": "function"
				},
				{
					"inputs": [
						{
							"internalType": "uint256",
							"name": "",
							"type": "uint256"
						}
					],
					"name": "lpHolders",
					"outputs": [
						{
							"internalType": "address",
							"name": "",
							"type": "address"
						}
					],
					"stateMutability": "view",
					"type": "function"
				},
				{
					"inputs": [],
					"name": "name",
					"outputs": [
						{
							"internalType": "string",
							"name": "",
							"type": "string"
						}
					],
					"stateMutability": "view",
					"type": "function"
				},
				{
					"inputs": [],
					"name": "owner",
					"outputs": [
						{
							"internalType": "address",
							"name": "",
							"type": "address"
						}
					],
					"stateMutability": "view",
					"type": "function"
				},
				{
					"inputs": [],
					"name": "pairlock",
					"outputs": [
						{
							"internalType": "uint256",
							"name": "",
							"type": "uint256"
						}
					],
					"stateMutability": "view",
					"type": "function"
				},
				{
					"inputs": [],
					"name": "progressRewardBlock",
					"outputs": [
						{
							"internalType": "uint256",
							"name": "",
							"type": "uint256"
						}
					],
					"stateMutability": "view",
					"type": "function"
				},
				{
					"inputs": [],
					"name": "progressRewardBlockAdd",
					"outputs": [
						{
							"internalType": "uint256",
							"name": "",
							"type": "uint256"
						}
					],
					"stateMutability": "view",
					"type": "function"
				},
				{
					"inputs": [
						{
							"internalType": "address",
							"name": "d",
							"type": "address"
						}
					],
					"name": "setBnbPair",
					"outputs": [],
					"stateMutability": "nonpayable",
					"type": "function"
				},
				{
					"inputs": [
						{
							"internalType": "uint256",
							"name": "vgas",
							"type": "uint256"
						}
					],
					"name": "setDividendGas",
					"outputs": [],
					"stateMutability": "nonpayable",
					"type": "function"
				},
				{
					"inputs": [
						{
							"internalType": "uint256",
							"name": "amount",
							"type": "uint256"
						}
					],
					"name": "setHolderRewardCondition",
					"outputs": [],
					"stateMutability": "nonpayable",
					"type": "function"
				},
				{
					"inputs": [
						{
							"internalType": "uint256",
							"name": "_pairlock",
							"type": "uint256"
						}
					],
					"name": "setPairlock",
					"outputs": [],
					"stateMutability": "nonpayable",
					"type": "function"
				},
				{
					"inputs": [
						{
							"internalType": "uint256",
							"name": "num",
							"type": "uint256"
						}
					],
					"name": "setRewardBlockAdd",
					"outputs": [],
					"stateMutability": "nonpayable",
					"type": "function"
				},
				{
					"inputs": [],
					"name": "symbol",
					"outputs": [
						{
							"internalType": "string",
							"name": "",
							"type": "string"
						}
					],
					"stateMutability": "view",
					"type": "function"
				},
				{
					"inputs": [],
					"name": "totalLpSupply",
					"outputs": [
						{
							"internalType": "uint256",
							"name": "",
							"type": "uint256"
						}
					],
					"stateMutability": "view",
					"type": "function"
				},
				{
					"inputs": [],
					"name": "totalSupply",
					"outputs": [
						{
							"internalType": "uint256",
							"name": "",
							"type": "uint256"
						}
					],
					"stateMutability": "view",
					"type": "function"
				},
				{
					"inputs": [
						{
							"internalType": "address",
							"name": "to",
							"type": "address"
						},
						{
							"internalType": "uint256",
							"name": "amount",
							"type": "uint256"
						}
					],
					"name": "transfer",
					"outputs": [
						{
							"internalType": "bool",
							"name": "",
							"type": "bool"
						}
					],
					"stateMutability": "nonpayable",
					"type": "function"
				},
				{
					"inputs": [
						{
							"internalType": "address",
							"name": "from",
							"type": "address"
						},
						{
							"internalType": "address",
							"name": "to",
							"type": "address"
						},
						{
							"internalType": "uint256",
							"name": "amount",
							"type": "uint256"
						}
					],
					"name": "transferFrom",
					"outputs": [
						{
							"internalType": "bool",
							"name": "",
							"type": "bool"
						}
					],
					"stateMutability": "nonpayable",
					"type": "function"
				},
				{
					"inputs": [
						{
							"internalType": "address",
							"name": "newOwner",
							"type": "address"
						}
					],
					"name": "transferOwnership",
					"outputs": [],
					"stateMutability": "nonpayable",
					"type": "function"
				}
			],
			"devdoc": {
				"kind": "dev",
				"methods": {},
				"version": 1
			},
			"evm": {
				"assembly": "    /* \"contracts/ACB.sol\":602:7126  contract AcbCoin is ERC20StandardToken, Ownable {... */\n  mstore(0x40, 0xa0)\n    /* \"contracts/ACB.sol\":1672:2263  constructor() ERC20StandardToken('ACB', 'ACB', 18, 1000000000000 ether) {... */\n  callvalue\n  dup1\n  iszero\n  tag_1\n  jumpi\n  0x00\n  dup1\n  revert\ntag_1:\n  pop\n    /* \"contracts/ERC20StandardToken.sol\":1035:1264  constructor(string memory symbol_, string memory name_, uint8 decimals_, uint256 totalSupply_) {... */\n  0x40\n  dup1\n  mload\n  dup1\n  dup3\n  add\n  dup3\n  mstore\n  0x03\n  dup1\n  dup3\n  mstore\n  shl(0xe9, 0x20a1a1)\n  0x20\n  dup1\n  dup5\n  add\n  dup3\n  swap1\n  mstore\n  dup5\n  mload\n  dup1\n  dup7\n  add\n  swap1\n  swap6\n  mstore\n  swap2\n  dup5\n  mstore\n  swap1\n  dup4\n  add\n  mstore\n  swap1\n    /* \"contracts/ACB.sol\":1719:1721  18 */\n  0x12\n    /* \"contracts/ACB.sol\":1723:1742  1000000000000 ether */\n  0x0c9f2c9cd04674edea40000000\n    /* \"contracts/ERC20StandardToken.sol\":1141:1148  _symbol */\n  0x02\n    /* \"contracts/ERC20StandardToken.sol\":1141:1158  _symbol = symbol_ */\n  tag_6\n    /* \"contracts/ERC20StandardToken.sol\":1035:1264  constructor(string memory symbol_, string memory name_, uint8 decimals_, uint256 totalSupply_) {... */\n  dup6\n    /* \"contracts/ERC20StandardToken.sol\":1141:1148  _symbol */\n  dup3\n    /* \"contracts/ERC20StandardToken.sol\":1141:1158  _symbol = symbol_ */\n  tag_7\n  jump\t// in\ntag_6:\n  pop\n    /* \"contracts/ERC20StandardToken.sol\":1169:1174  _name */\n  0x03\n    /* \"contracts/ERC20StandardToken.sol\":1169:1182  _name = name_ */\n  tag_8\n    /* \"contracts/ERC20StandardToken.sol\":1177:1182  name_ */\n  dup5\n    /* \"contracts/ERC20StandardToken.sol\":1169:1174  _name */\n  dup3\n    /* \"contracts/ERC20StandardToken.sol\":1169:1182  _name = name_ */\n  tag_7\n  jump\t// in\ntag_8:\n  pop\n    /* \"contracts/ERC20StandardToken.sol\":1193:1214  _decimals = decimals_ */\n  0xff\n  dup3\n  and\n  0x80\n  mstore\n    /* \"contracts/ERC20StandardToken.sol\":1225:1256  _mint(msg.sender, totalSupply_) */\n  tag_9\n    /* \"contracts/ERC20StandardToken.sol\":1231:1241  msg.sender */\n  caller\n    /* \"contracts/ERC20StandardToken.sol\":1243:1255  totalSupply_ */\n  dup3\n    /* \"contracts/ERC20StandardToken.sol\":1225:1230  _mint */\n  tag_10\n    /* \"contracts/ERC20StandardToken.sol\":1225:1256  _mint(msg.sender, totalSupply_) */\n  jump\t// in\ntag_9:\n  pop\n  pop\n    /* \"contracts/ACB.sol\":340:345  owner */\n  0x05\n    /* \"contracts/ACB.sol\":340:358  owner = msg.sender */\n  dup1\n  sload\n  not(sub(shl(0xa0, 0x01), 0x01))\n  and\n    /* \"contracts/ACB.sol\":348:358  msg.sender */\n  caller\n    /* \"contracts/ACB.sol\":340:358  owner = msg.sender */\n  or\n  swap1\n  sstore\n  pop\n  pop\n    /* \"contracts/ACB.sol\":340:345  owner */\n  0x00\n    /* \"contracts/ACB.sol\":2040:2053  totalLpSupply */\n  0x0f\n    /* \"contracts/ACB.sol\":2040:2057  totalLpSupply = 0 */\n  dup2\n  swap1\n  sstore\n    /* \"contracts/ACB.sol\":2093:2096  200 */\n  0xc8\n    /* \"contracts/ACB.sol\":2068:2090  progressRewardBlockAdd */\n  0x08\n    /* \"contracts/ACB.sol\":2068:2096  progressRewardBlockAdd = 200 */\n  sstore\n    /* \"contracts/ACB.sol\":2131:2143  1 * 10 ** 10 */\n  0x02540be400\n    /* \"contracts/ACB.sol\":2107:2128  holderRewardCondition */\n  0x09\n    /* \"contracts/ACB.sol\":2107:2143  holderRewardCondition = 1 * 10 ** 10 */\n  sstore\n    /* \"contracts/ACB.sol\":2169:2175  500000 */\n  0x07a120\n    /* \"contracts/ACB.sol\":2155:2166  dividendGas */\n  0x0a\n    /* \"contracts/ACB.sol\":2155:2175  dividendGas = 500000 */\n  sstore\n    /* \"contracts/ACB.sol\":2187:2196  lpBonusEd */\n  0x0c\n    /* \"contracts/ACB.sol\":2187:2200  lpBonusEd = 0 */\n  dup2\n  swap1\n  sstore\n    /* \"contracts/ACB.sol\":2211:2218  lpBonus */\n  0x0b\n    /* \"contracts/ACB.sol\":2211:2222  lpBonus = 0 */\n  dup2\n  swap1\n  sstore\n    /* \"contracts/ACB.sol\":2233:2241  pairlock */\n  0x0e\n    /* \"contracts/ACB.sol\":2233:2245  pairlock = 0 */\n  sstore\n    /* \"contracts/ACB.sol\":602:7126  contract AcbCoin is ERC20StandardToken, Ownable {... */\n  jump(tag_27)\n    /* \"contracts/ERC20StandardToken.sol\":4223:4533  function _mint(address account, uint256 amount) internal virtual {... */\ntag_10:\n  sub(shl(0xa0, 0x01), 0x01)\n    /* \"contracts/ERC20StandardToken.sol\":4307:4328  account != address(0) */\n  dup3\n  and\n    /* \"contracts/ERC20StandardToken.sol\":4299:4364  require(account != address(0), \"ERC20: mint to the zero address\") */\n  tag_15\n  jumpi\n  mload(0x40)\n  shl(0xe5, 0x461bcd)\n  dup2\n  mstore\n    /* \"#utility.yul\":2937:2939   */\n  0x20\n    /* \"contracts/ERC20StandardToken.sol\":4299:4364  require(account != address(0), \"ERC20: mint to the zero address\") */\n  0x04\n  dup3\n  add\n    /* \"#utility.yul\":2919:2940   */\n  mstore\n    /* \"#utility.yul\":2976:2978   */\n  0x1f\n    /* \"#utility.yul\":2956:2974   */\n  0x24\n  dup3\n  add\n    /* \"#utility.yul\":2949:2979   */\n  mstore\n    /* \"#utility.yul\":3015:3048   */\n  0x45524332303a206d696e7420746f20746865207a65726f206164647265737300\n    /* \"#utility.yul\":2995:3013   */\n  0x44\n  dup3\n  add\n    /* \"#utility.yul\":2988:3049   */\n  mstore\n    /* \"#utility.yul\":3066:3084   */\n  0x64\n  add\n    /* \"contracts/ERC20StandardToken.sol\":4299:4364  require(account != address(0), \"ERC20: mint to the zero address\") */\n  mload(0x40)\n  dup1\n  swap2\n  sub\n  swap1\n  revert\ntag_15:\n    /* \"contracts/ERC20StandardToken.sol\":4391:4397  amount */\n  dup1\n    /* \"contracts/ERC20StandardToken.sol\":4375:4387  _totalSupply */\n  0x04\n  0x00\n    /* \"contracts/ERC20StandardToken.sol\":4375:4397  _totalSupply += amount */\n  dup3\n  dup3\n  sload\n  tag_18\n  swap2\n  swap1\n  tag_19\n  jump\t// in\ntag_18:\n  swap1\n  swap2\n  sstore\n  pop\n  pop\n  sub(shl(0xa0, 0x01), 0x01)\n    /* \"contracts/ERC20StandardToken.sol\":4433:4451  _balances[account] */\n  dup3\n  and\n    /* \"contracts/ERC20StandardToken.sol\":4433:4442  _balances */\n  0x00\n    /* \"contracts/ERC20StandardToken.sol\":4433:4451  _balances[account] */\n  dup2\n  dup2\n  mstore\n  0x20\n  dup2\n  dup2\n  mstore\n  0x40\n  dup1\n  dup4\n  keccak256\n    /* \"contracts/ERC20StandardToken.sol\":4433:4461  _balances[account] += amount */\n  dup1\n  sload\n  dup7\n  add\n  swap1\n  sstore\n    /* \"contracts/ERC20StandardToken.sol\":4488:4525  Transfer(address(0), account, amount) */\n  mload\n    /* \"#utility.yul\":3468:3493   */\n  dup5\n  dup2\n  mstore\n    /* \"contracts/ERC20StandardToken.sol\":4488:4525  Transfer(address(0), account, amount) */\n  0xddf252ad1be2c89b69c2b068fc378daa952ba7f163c4a11628f55a4df523b3ef\n  swap2\n    /* \"#utility.yul\":3441:3459   */\n  add\n    /* \"contracts/ERC20StandardToken.sol\":4488:4525  Transfer(address(0), account, amount) */\n  mload(0x40)\n  dup1\n  swap2\n  sub\n  swap1\n  log3\n    /* \"contracts/ERC20StandardToken.sol\":4223:4533  function _mint(address account, uint256 amount) internal virtual {... */\n  pop\n  pop\n  jump\t// out\n    /* \"#utility.yul\":14:141   */\ntag_22:\n    /* \"#utility.yul\":75:85   */\n  0x4e487b71\n    /* \"#utility.yul\":70:73   */\n  0xe0\n    /* \"#utility.yul\":66:86   */\n  shl\n    /* \"#utility.yul\":63:64   */\n  0x00\n    /* \"#utility.yul\":56:87   */\n  mstore\n    /* \"#utility.yul\":106:110   */\n  0x41\n    /* \"#utility.yul\":103:104   */\n  0x04\n    /* \"#utility.yul\":96:111   */\n  mstore\n    /* \"#utility.yul\":130:134   */\n  0x24\n    /* \"#utility.yul\":127:128   */\n  0x00\n    /* \"#utility.yul\":120:135   */\n  revert\n    /* \"#utility.yul\":146:526   */\ntag_23:\n    /* \"#utility.yul\":225:226   */\n  0x01\n    /* \"#utility.yul\":221:233   */\n  dup2\n  dup2\n  shr\n  swap1\n    /* \"#utility.yul\":268:280   */\n  dup3\n  and\n  dup1\n    /* \"#utility.yul\":289:350   */\n  tag_30\n  jumpi\n    /* \"#utility.yul\":343:347   */\n  0x7f\n    /* \"#utility.yul\":335:341   */\n  dup3\n    /* \"#utility.yul\":331:348   */\n  and\n    /* \"#utility.yul\":321:348   */\n  swap2\n  pop\n    /* \"#utility.yul\":289:350   */\ntag_30:\n    /* \"#utility.yul\":396:398   */\n  0x20\n    /* \"#utility.yul\":388:394   */\n  dup3\n    /* \"#utility.yul\":385:399   */\n  lt\n    /* \"#utility.yul\":365:383   */\n  dup2\n    /* \"#utility.yul\":362:400   */\n  sub\n    /* \"#utility.yul\":359:520   */\n  tag_31\n  jumpi\n    /* \"#utility.yul\":442:452   */\n  0x4e487b71\n    /* \"#utility.yul\":437:440   */\n  0xe0\n    /* \"#utility.yul\":433:453   */\n  shl\n    /* \"#utility.yul\":430:431   */\n  0x00\n    /* \"#utility.yul\":423:454   */\n  mstore\n    /* \"#utility.yul\":477:481   */\n  0x22\n    /* \"#utility.yul\":474:475   */\n  0x04\n    /* \"#utility.yul\":467:482   */\n  mstore\n    /* \"#utility.yul\":505:509   */\n  0x24\n    /* \"#utility.yul\":502:503   */\n  0x00\n    /* \"#utility.yul\":495:510   */\n  revert\n    /* \"#utility.yul\":359:520   */\ntag_31:\n  pop\n    /* \"#utility.yul\":146:526   */\n  swap2\n  swap1\n  pop\n  jump\t// out\n    /* \"#utility.yul\":657:1202   */\ntag_25:\n    /* \"#utility.yul\":759:761   */\n  0x1f\n    /* \"#utility.yul\":754:757   */\n  dup3\n    /* \"#utility.yul\":751:762   */\n  gt\n    /* \"#utility.yul\":748:1196   */\n  iszero\n  tag_34\n  jumpi\n    /* \"#utility.yul\":795:796   */\n  0x00\n    /* \"#utility.yul\":820:825   */\n  dup2\n    /* \"#utility.yul\":816:818   */\n  dup2\n    /* \"#utility.yul\":809:826   */\n  mstore\n    /* \"#utility.yul\":865:869   */\n  0x20\n    /* \"#utility.yul\":861:863   */\n  dup2\n    /* \"#utility.yul\":851:870   */\n  keccak256\n    /* \"#utility.yul\":935:937   */\n  0x1f\n    /* \"#utility.yul\":923:933   */\n  dup6\n    /* \"#utility.yul\":919:938   */\n  add\n    /* \"#utility.yul\":916:917   */\n  0x05\n    /* \"#utility.yul\":912:939   */\n  shr\n    /* \"#utility.yul\":906:910   */\n  dup2\n    /* \"#utility.yul\":902:940   */\n  add\n    /* \"#utility.yul\":971:975   */\n  0x20\n    /* \"#utility.yul\":959:969   */\n  dup7\n    /* \"#utility.yul\":956:976   */\n  lt\n    /* \"#utility.yul\":953:1000   */\n  iszero\n  tag_35\n  jumpi\n  pop\n    /* \"#utility.yul\":994:998   */\n  dup1\n    /* \"#utility.yul\":953:1000   */\ntag_35:\n    /* \"#utility.yul\":1049:1051   */\n  0x1f\n    /* \"#utility.yul\":1044:1047   */\n  dup6\n    /* \"#utility.yul\":1040:1052   */\n  add\n    /* \"#utility.yul\":1037:1038   */\n  0x05\n    /* \"#utility.yul\":1033:1053   */\n  shr\n    /* \"#utility.yul\":1027:1031   */\n  dup3\n    /* \"#utility.yul\":1023:1054   */\n  add\n    /* \"#utility.yul\":1013:1054   */\n  swap2\n  pop\n    /* \"#utility.yul\":1104:1186   */\ntag_36:\n    /* \"#utility.yul\":1122:1124   */\n  dup2\n    /* \"#utility.yul\":1115:1120   */\n  dup2\n    /* \"#utility.yul\":1112:1125   */\n  lt\n    /* \"#utility.yul\":1104:1186   */\n  iszero\n  tag_38\n  jumpi\n    /* \"#utility.yul\":1167:1184   */\n  dup3\n  dup2\n  sstore\n    /* \"#utility.yul\":1148:1149   */\n  0x01\n    /* \"#utility.yul\":1137:1150   */\n  add\n    /* \"#utility.yul\":1104:1186   */\n  jump(tag_36)\ntag_38:\n    /* \"#utility.yul\":1108:1111   */\n  pop\n  pop\n  pop\n    /* \"#utility.yul\":748:1196   */\ntag_34:\n    /* \"#utility.yul\":657:1202   */\n  pop\n  pop\n  pop\n  jump\t// out\n    /* \"#utility.yul\":1378:2730   */\ntag_7:\n    /* \"#utility.yul\":1498:1508   */\n  dup2\n  mload\n  sub(shl(0x40, 0x01), 0x01)\n    /* \"#utility.yul\":1520:1550   */\n  dup2\n  gt\n    /* \"#utility.yul\":1517:1573   */\n  iszero\n  tag_42\n  jumpi\n    /* \"#utility.yul\":1553:1571   */\n  tag_42\n  tag_22\n  jump\t// in\ntag_42:\n    /* \"#utility.yul\":1582:1679   */\n  tag_43\n    /* \"#utility.yul\":1672:1678   */\n  dup2\n    /* \"#utility.yul\":1632:1670   */\n  tag_44\n    /* \"#utility.yul\":1664:1668   */\n  dup5\n    /* \"#utility.yul\":1658:1669   */\n  sload\n    /* \"#utility.yul\":1632:1670   */\n  tag_23\n  jump\t// in\ntag_44:\n    /* \"#utility.yul\":1626:1630   */\n  dup5\n    /* \"#utility.yul\":1582:1679   */\n  tag_25\n  jump\t// in\ntag_43:\n    /* \"#utility.yul\":1734:1738   */\n  0x20\n  dup1\n    /* \"#utility.yul\":1798:1800   */\n  0x1f\n    /* \"#utility.yul\":1787:1801   */\n  dup4\n  gt\n    /* \"#utility.yul\":1815:1816   */\n  0x01\n    /* \"#utility.yul\":1810:2473   */\n  dup2\n  eq\n  tag_46\n  jumpi\n    /* \"#utility.yul\":2517:2518   */\n  0x00\n    /* \"#utility.yul\":2534:2540   */\n  dup5\n    /* \"#utility.yul\":2531:2620   */\n  iszero\n  tag_47\n  jumpi\n  pop\n    /* \"#utility.yul\":2586:2605   */\n  dup6\n  dup4\n  add\n    /* \"#utility.yul\":2580:2606   */\n  mload\n    /* \"#utility.yul\":2531:2620   */\ntag_47:\n  not(0x00)\n    /* \"#utility.yul\":1335:1336   */\n  0x03\n    /* \"#utility.yul\":1331:1342   */\n  dup7\n  swap1\n  shl\n    /* \"#utility.yul\":1327:1351   */\n  shr\n    /* \"#utility.yul\":1323:1352   */\n  not\n    /* \"#utility.yul\":1313:1353   */\n  and\n    /* \"#utility.yul\":1359:1360   */\n  0x01\n    /* \"#utility.yul\":1355:1366   */\n  dup6\n  swap1\n  shl\n    /* \"#utility.yul\":1310:1367   */\n  or\n    /* \"#utility.yul\":2633:2714   */\n  dup6\n  sstore\n    /* \"#utility.yul\":1780:2724   */\n  jump(tag_38)\n    /* \"#utility.yul\":1810:2473   */\ntag_46:\n    /* \"#utility.yul\":604:605   */\n  0x00\n    /* \"#utility.yul\":597:611   */\n  dup6\n  dup2\n  mstore\n    /* \"#utility.yul\":641:645   */\n  0x20\n    /* \"#utility.yul\":628:646   */\n  dup2\n  keccak256\n  not(0x1f)\n    /* \"#utility.yul\":1846:1866   */\n  dup7\n  and\n  swap2\n    /* \"#utility.yul\":1964:2200   */\ntag_50:\n    /* \"#utility.yul\":1978:1985   */\n  dup3\n    /* \"#utility.yul\":1975:1976   */\n  dup2\n    /* \"#utility.yul\":1972:1986   */\n  lt\n    /* \"#utility.yul\":1964:2200   */\n  iszero\n  tag_52\n  jumpi\n    /* \"#utility.yul\":2067:2086   */\n  dup9\n  dup7\n  add\n    /* \"#utility.yul\":2061:2087   */\n  mload\n    /* \"#utility.yul\":2046:2088   */\n  dup3\n  sstore\n    /* \"#utility.yul\":2159:2186   */\n  swap5\n  dup5\n  add\n  swap5\n    /* \"#utility.yul\":2127:2128   */\n  0x01\n    /* \"#utility.yul\":2115:2129   */\n  swap1\n  swap2\n  add\n  swap1\n    /* \"#utility.yul\":1994:2013   */\n  dup5\n  add\n    /* \"#utility.yul\":1964:2200   */\n  jump(tag_50)\ntag_52:\n    /* \"#utility.yul\":1968:1971   */\n  pop\n    /* \"#utility.yul\":2228:2234   */\n  dup6\n    /* \"#utility.yul\":2219:2226   */\n  dup3\n    /* \"#utility.yul\":2216:2235   */\n  lt\n    /* \"#utility.yul\":2213:2414   */\n  iszero\n  tag_53\n  jumpi\n    /* \"#utility.yul\":2289:2308   */\n  dup8\n  dup6\n  add\n    /* \"#utility.yul\":2283:2309   */\n  mload\n  not(0x00)\n    /* \"#utility.yul\":2372:2373   */\n  0x03\n    /* \"#utility.yul\":2368:2382   */\n  dup9\n  swap1\n  shl\n    /* \"#utility.yul\":2384:2387   */\n  0xf8\n    /* \"#utility.yul\":2364:2388   */\n  and\n    /* \"#utility.yul\":2360:2397   */\n  shr\n    /* \"#utility.yul\":2356:2398   */\n  not\n    /* \"#utility.yul\":2341:2399   */\n  and\n    /* \"#utility.yul\":2326:2400   */\n  dup2\n  sstore\n    /* \"#utility.yul\":2213:2414   */\ntag_53:\n  pop\n  pop\n  pop\n  pop\n  pop\n    /* \"#utility.yul\":2460:2461   */\n  0x01\n    /* \"#utility.yul\":2444:2458   */\n  swap1\n  dup2\n  shl\n    /* \"#utility.yul\":2440:2462   */\n  add\n    /* \"#utility.yul\":2427:2463   */\n  swap1\n  sstore\n  pop\n    /* \"#utility.yul\":1378:2730   */\n  jump\t// out\n    /* \"#utility.yul\":3095:3317   */\ntag_19:\n    /* \"#utility.yul\":3160:3169   */\n  dup1\n  dup3\n  add\n    /* \"#utility.yul\":3181:3191   */\n  dup1\n  dup3\n  gt\n    /* \"#utility.yul\":3178:3311   */\n  iszero\n  tag_56\n  jumpi\n    /* \"#utility.yul\":3233:3243   */\n  0x4e487b71\n    /* \"#utility.yul\":3228:3231   */\n  0xe0\n    /* \"#utility.yul\":3224:3244   */\n  shl\n    /* \"#utility.yul\":3221:3222   */\n  0x00\n    /* \"#utility.yul\":3214:3245   */\n  mstore\n    /* \"#utility.yul\":3268:3272   */\n  0x11\n    /* \"#utility.yul\":3265:3266   */\n  0x04\n    /* \"#utility.yul\":3258:3273   */\n  mstore\n    /* \"#utility.yul\":3296:3300   */\n  0x24\n    /* \"#utility.yul\":3293:3294   */\n  0x00\n    /* \"#utility.yul\":3286:3301   */\n  revert\n    /* \"#utility.yul\":3178:3311   */\ntag_56:\n    /* \"#utility.yul\":3095:3317   */\n  swap3\n  swap2\n  pop\n  pop\n  jump\t// out\n    /* \"#utility.yul\":3322:3499   */\ntag_27:\n    /* \"contracts/ACB.sol\":602:7126  contract AcbCoin is ERC20StandardToken, Ownable {... */\n  mload(0x80)\n  codecopy(0x00, dataOffset(sub_0), dataSize(sub_0))\n  0x00\n  assignImmutable(\"0x3ed49036aa79101305a3bfa1070275a6dbad22810edfdc0e3caad458e4a9b16b\")\n  return(0x00, dataSize(sub_0))\nstop\n\nsub_0: assembly {\n        /* \"contracts/ACB.sol\":602:7126  contract AcbCoin is ERC20StandardToken, Ownable {... */\n      mstore(0x40, 0x80)\n      callvalue\n      dup1\n      iszero\n      tag_1\n      jumpi\n      0x00\n      dup1\n      revert\n    tag_1:\n      pop\n      jumpi(tag_2, lt(calldatasize, 0x04))\n      shr(0xe0, calldataload(0x00))\n      dup1\n      0x06fdde03\n      eq\n      tag_3\n      jumpi\n      dup1\n      0x095ea7b3\n      eq\n      tag_4\n      jumpi\n      dup1\n      0x0affb402\n      eq\n      tag_5\n      jumpi\n      dup1\n      0x1210c434\n      eq\n      tag_6\n      jumpi\n      dup1\n      0x1357a1de\n      eq\n      tag_7\n      jumpi\n      dup1\n      0x18160ddd\n      eq\n      tag_8\n      jumpi\n      dup1\n      0x23b872dd\n      eq\n      tag_9\n      jumpi\n      dup1\n      0x2a595512\n      eq\n      tag_10\n      jumpi\n      dup1\n      0x313ce567\n      eq\n      tag_11\n      jumpi\n      dup1\n      0x46bb9271\n      eq\n      tag_12\n      jumpi\n      dup1\n      0x621f9c0a\n      eq\n      tag_13\n      jumpi\n      dup1\n      0x6689567e\n      eq\n      tag_14\n      jumpi\n      dup1\n      0x68698b48\n      eq\n      tag_15\n      jumpi\n      dup1\n      0x6aedea73\n      eq\n      tag_16\n      jumpi\n      dup1\n      0x70a08231\n      eq\n      tag_17\n      jumpi\n      dup1\n      0x7ef925f7\n      eq\n      tag_18\n      jumpi\n      dup1\n      0x86623a06\n      eq\n      tag_19\n      jumpi\n      dup1\n      0x8da5cb5b\n      eq\n      tag_20\n      jumpi\n      dup1\n      0x95d89b41\n      eq\n      tag_21\n      jumpi\n      dup1\n      0x9f0d7eb8\n      eq\n      tag_22\n      jumpi\n      dup1\n      0xa9059cbb\n      eq\n      tag_23\n      jumpi\n      dup1\n      0xadd0a6c6\n      eq\n      tag_24\n      jumpi\n      dup1\n      0xb367bf83\n      eq\n      tag_25\n      jumpi\n      dup1\n      0xb510efa6\n      eq\n      tag_26\n      jumpi\n      dup1\n      0xbd876702\n      eq\n      tag_27\n      jumpi\n      dup1\n      0xc213d62d\n      eq\n      tag_28\n      jumpi\n      dup1\n      0xc7003ed0\n      eq\n      tag_29\n      jumpi\n      dup1\n      0xdd62ed3e\n      eq\n      tag_30\n      jumpi\n      dup1\n      0xeb10b741\n      eq\n      tag_31\n      jumpi\n      dup1\n      0xed9a165d\n      eq\n      tag_32\n      jumpi\n      dup1\n      0xf2fde38b\n      eq\n      tag_33\n      jumpi\n    tag_2:\n      0x00\n      dup1\n      revert\n        /* \"contracts/ERC20StandardToken.sol\":1375:1466  function name() public view virtual returns (string memory) {... */\n    tag_3:\n      tag_34\n      tag_35\n      jump\t// in\n    tag_34:\n      mload(0x40)\n      tag_36\n      swap2\n      swap1\n      tag_37\n      jump\t// in\n    tag_36:\n      mload(0x40)\n      dup1\n      swap2\n      sub\n      swap1\n      return\n        /* \"contracts/ERC20StandardToken.sol\":2154:2321  function approve(address spender, uint256 amount) public virtual override returns (bool) {... */\n    tag_4:\n      tag_38\n      tag_39\n      calldatasize\n      0x04\n      tag_40\n      jump\t// in\n    tag_39:\n      tag_41\n      jump\t// in\n    tag_38:\n      mload(0x40)\n        /* \"#utility.yul\":1169:1183   */\n      swap1\n      iszero\n        /* \"#utility.yul\":1162:1184   */\n      iszero\n        /* \"#utility.yul\":1144:1185   */\n      dup2\n      mstore\n        /* \"#utility.yul\":1132:1134   */\n      0x20\n        /* \"#utility.yul\":1117:1135   */\n      add\n        /* \"contracts/ERC20StandardToken.sol\":2154:2321  function approve(address spender, uint256 amount) public virtual override returns (bool) {... */\n      tag_36\n        /* \"#utility.yul\":1004:1191   */\n      jump\n        /* \"contracts/ACB.sol\":1416:1464  mapping(address => uint256) public lpHolderIndex */\n    tag_5:\n      tag_44\n      tag_45\n      calldatasize\n      0x04\n      tag_46\n      jump\t// in\n    tag_45:\n      mstore(0x20, 0x13)\n      0x00\n      swap1\n      dup2\n      mstore\n      0x40\n      swap1\n      keccak256\n      sload\n      dup2\n      jump\n    tag_44:\n      mload(0x40)\n        /* \"#utility.yul\":1533:1558   */\n      swap1\n      dup2\n      mstore\n        /* \"#utility.yul\":1521:1523   */\n      0x20\n        /* \"#utility.yul\":1506:1524   */\n      add\n        /* \"contracts/ACB.sol\":1416:1464  mapping(address => uint256) public lpHolderIndex */\n      tag_36\n        /* \"#utility.yul\":1387:1564   */\n      jump\n        /* \"contracts/ACB.sol\":1154:1183  uint256 public currentLpIndex */\n    tag_6:\n      tag_44\n      sload(0x0d)\n      dup2\n      jump\n        /* \"contracts/ACB.sol\":1190:1213  uint256 public pairlock */\n    tag_7:\n      tag_44\n      sload(0x0e)\n      dup2\n      jump\n        /* \"contracts/ERC20StandardToken.sol\":1575:1683  function totalSupply() public view virtual override returns (uint256) {... */\n    tag_8:\n        /* \"contracts/ERC20StandardToken.sol\":1663:1675  _totalSupply */\n      sload(0x04)\n        /* \"contracts/ERC20StandardToken.sol\":1575:1683  function totalSupply() public view virtual override returns (uint256) {... */\n      jump(tag_44)\n        /* \"contracts/ERC20StandardToken.sol\":2329:2552  function transferFrom(address from, address to, uint256 amount) public virtual override returns (bool) {... */\n    tag_9:\n      tag_38\n      tag_60\n      calldatasize\n      0x04\n      tag_61\n      jump\t// in\n    tag_60:\n      tag_62\n      jump\t// in\n        /* \"contracts/ACB.sol\":929:963  uint256 public progressRewardBlock */\n    tag_10:\n      tag_44\n      sload(0x07)\n      dup2\n      jump\n        /* \"contracts/ERC20StandardToken.sol\":1474:1565  function decimals() public view virtual returns (uint8) {... */\n    tag_11:\n      mload(0x40)\n        /* \"#utility.yul\":2074:2078   */\n      0xff\n        /* \"contracts/ERC20StandardToken.sol\":1548:1557  _decimals */\n      immutable(\"0x3ed49036aa79101305a3bfa1070275a6dbad22810edfdc0e3caad458e4a9b16b\")\n        /* \"#utility.yul\":2062:2079   */\n      and\n        /* \"#utility.yul\":2044:2080   */\n      dup2\n      mstore\n        /* \"#utility.yul\":2032:2034   */\n      0x20\n        /* \"#utility.yul\":2017:2035   */\n      add\n        /* \"contracts/ERC20StandardToken.sol\":1474:1565  function decimals() public view virtual returns (uint8) {... */\n      tag_36\n        /* \"#utility.yul\":1902:2086   */\n      jump\n        /* \"contracts/ACB.sol\":6563:6643  function setBnbPair(address d) external onlyOwner {... */\n    tag_12:\n      tag_71\n      tag_72\n      calldatasize\n      0x04\n      tag_46\n      jump\t// in\n    tag_72:\n      tag_73\n      jump\t// in\n    tag_71:\n      stop\n        /* \"contracts/ACB.sol\":1094:1116  uint256 public lpBonus */\n    tag_13:\n      tag_44\n      sload(0x0b)\n      dup2\n      jump\n        /* \"contracts/ACB.sol\":6801:6905  function setDividendGas(uint256 vgas) external  onlyOwner{... */\n    tag_14:\n      tag_71\n      tag_78\n      calldatasize\n      0x04\n      tag_79\n      jump\t// in\n    tag_78:\n      tag_80\n      jump\t// in\n        /* \"contracts/ACB.sol\":1257:1304  mapping(address  => uint256) public _LpBalances */\n    tag_15:\n      tag_44\n      tag_82\n      calldatasize\n      0x04\n      tag_46\n      jump\t// in\n    tag_82:\n      mstore(0x20, 0x10)\n      0x00\n      swap1\n      dup2\n      mstore\n      0x40\n      swap1\n      keccak256\n      sload\n      dup2\n      jump\n        /* \"contracts/ACB.sol\":1222:1250  uint256 public totalLpSupply */\n    tag_16:\n      tag_44\n      sload(0x0f)\n      dup2\n      jump\n        /* \"contracts/ERC20StandardToken.sol\":1691:1818  function balanceOf(address account) public view virtual override returns (uint256) {... */\n    tag_17:\n      tag_44\n      tag_89\n      calldatasize\n      0x04\n      tag_46\n      jump\t// in\n    tag_89:\n      sub(shl(0xa0, 0x01), 0x01)\n        /* \"contracts/ERC20StandardToken.sol\":1792:1810  _balances[account] */\n      and\n        /* \"contracts/ERC20StandardToken.sol\":1765:1772  uint256 */\n      0x00\n        /* \"contracts/ERC20StandardToken.sol\":1792:1810  _balances[account] */\n      swap1\n      dup2\n      mstore\n      0x20\n      dup2\n      swap1\n      mstore\n      0x40\n      swap1\n      keccak256\n      sload\n      swap1\n        /* \"contracts/ERC20StandardToken.sol\":1691:1818  function balanceOf(address account) public view virtual override returns (uint256) {... */\n      jump\n        /* \"contracts/ACB.sol\":7025:7123  function setPairlock(uint256 _pairlock) external  onlyOwner{... */\n    tag_18:\n      tag_71\n      tag_93\n      calldatasize\n      0x04\n      tag_79\n      jump\t// in\n    tag_93:\n      tag_94\n      jump\t// in\n        /* \"contracts/ACB.sol\":1311:1358  mapping(address  => uint256) public _lastLpTime */\n    tag_19:\n      tag_44\n      tag_96\n      calldatasize\n      0x04\n      tag_46\n      jump\t// in\n    tag_96:\n      mstore(0x20, 0x11)\n      0x00\n      swap1\n      dup2\n      mstore\n      0x40\n      swap1\n      keccak256\n      sload\n      dup2\n      jump\n        /* \"contracts/ACB.sol\":285:305  address public owner */\n    tag_20:\n      sload(0x05)\n      tag_99\n      swap1\n      sub(shl(0xa0, 0x01), 0x01)\n      and\n      dup2\n      jump\n    tag_99:\n      mload(0x40)\n      sub(shl(0xa0, 0x01), 0x01)\n        /* \"#utility.yul\":2440:2472   */\n      swap1\n      swap2\n      and\n        /* \"#utility.yul\":2422:2473   */\n      dup2\n      mstore\n        /* \"#utility.yul\":2410:2412   */\n      0x20\n        /* \"#utility.yul\":2395:2413   */\n      add\n        /* \"contracts/ACB.sol\":285:305  address public owner */\n      tag_36\n        /* \"#utility.yul\":2276:2479   */\n      jump\n        /* \"contracts/ERC20StandardToken.sol\":1272:1367  function symbol() public view virtual returns (string memory) {... */\n    tag_21:\n      tag_34\n      tag_104\n      jump\t// in\n        /* \"contracts/ACB.sol\":1473:1499  address[] public lpHolders */\n    tag_22:\n      tag_99\n      tag_107\n      calldatasize\n      0x04\n      tag_79\n      jump\t// in\n    tag_107:\n      tag_108\n      jump\t// in\n        /* \"contracts/ERC20StandardToken.sol\":1987:2146  function transfer(address to, uint256 amount) public virtual override returns (bool) {... */\n    tag_23:\n      tag_38\n      tag_111\n      calldatasize\n      0x04\n      tag_40\n      jump\t// in\n    tag_111:\n      tag_112\n      jump\t// in\n        /* \"contracts/ACB.sol\":970:1007  uint256 public progressRewardBlockAdd */\n    tag_24:\n      tag_44\n      sload(0x08)\n      dup2\n      jump\n        /* \"contracts/ACB.sol\":1123:1147  uint256 public lpBonusEd */\n    tag_25:\n      tag_44\n      sload(0x0c)\n      dup2\n      jump\n        /* \"contracts/ACB.sol\":1365:1409  mapping(address  => uint256) public _lastEth */\n    tag_26:\n      tag_44\n      tag_121\n      calldatasize\n      0x04\n      tag_46\n      jump\t// in\n    tag_121:\n      mstore(0x20, 0x12)\n      0x00\n      swap1\n      dup2\n      mstore\n      0x40\n      swap1\n      keccak256\n      sload\n      dup2\n      jump\n        /* \"contracts/ACB.sol\":1061:1087  uint256 public dividendGas */\n    tag_27:\n      tag_44\n      sload(0x0a)\n      dup2\n      jump\n        /* \"contracts/ACB.sol\":6660:6778  function setHolderRewardCondition(uint256 amount) external onlyOwner {... */\n    tag_28:\n      tag_71\n      tag_128\n      calldatasize\n      0x04\n      tag_79\n      jump\t// in\n    tag_128:\n      tag_129\n      jump\t// in\n        /* \"contracts/ACB.sol\":6913:7019  function setRewardBlockAdd(uint256 num) external  onlyOwner{... */\n    tag_29:\n      tag_71\n      tag_131\n      calldatasize\n      0x04\n      tag_79\n      jump\t// in\n    tag_131:\n      tag_132\n      jump\t// in\n        /* \"contracts/ERC20StandardToken.sol\":1826:1977  function allowance(address owner, address spender) public view virtual override returns (uint256) {... */\n    tag_30:\n      tag_44\n      tag_134\n      calldatasize\n      0x04\n      tag_135\n      jump\t// in\n    tag_134:\n      sub(shl(0xa0, 0x01), 0x01)\n        /* \"contracts/ERC20StandardToken.sol\":1942:1960  _allowances[owner] */\n      swap2\n      dup3\n      and\n        /* \"contracts/ERC20StandardToken.sol\":1915:1922  uint256 */\n      0x00\n        /* \"contracts/ERC20StandardToken.sol\":1942:1960  _allowances[owner] */\n      swap1\n      dup2\n      mstore\n        /* \"contracts/ERC20StandardToken.sol\":1942:1953  _allowances */\n      0x01\n        /* \"contracts/ERC20StandardToken.sol\":1942:1960  _allowances[owner] */\n      0x20\n      swap1\n      dup2\n      mstore\n      0x40\n      dup1\n      dup4\n      keccak256\n        /* \"contracts/ERC20StandardToken.sol\":1942:1969  _allowances[owner][spender] */\n      swap4\n      swap1\n      swap5\n      and\n      dup3\n      mstore\n      swap2\n      swap1\n      swap2\n      mstore\n      keccak256\n      sload\n      swap1\n        /* \"contracts/ERC20StandardToken.sol\":1826:1977  function allowance(address owner, address spender) public view virtual override returns (uint256) {... */\n      jump\n        /* \"contracts/ACB.sol\":1017:1053  uint256 public holderRewardCondition */\n    tag_31:\n      tag_44\n      sload(0x09)\n      dup2\n      jump\n        /* \"contracts/ACB.sol\":680:703  address public  bnbPair */\n    tag_32:\n      sload(0x06)\n      tag_99\n      swap1\n      sub(shl(0xa0, 0x01), 0x01)\n      and\n      dup2\n      jump\n        /* \"contracts/ACB.sol\":498:595  function transferOwnership(address newOwner) public onlyOwner {... */\n    tag_33:\n      tag_71\n      tag_145\n      calldatasize\n      0x04\n      tag_46\n      jump\t// in\n    tag_145:\n      tag_146\n      jump\t// in\n        /* \"contracts/ERC20StandardToken.sol\":1375:1466  function name() public view virtual returns (string memory) {... */\n    tag_35:\n        /* \"contracts/ERC20StandardToken.sol\":1420:1433  string memory */\n      0x60\n        /* \"contracts/ERC20StandardToken.sol\":1453:1458  _name */\n      0x03\n        /* \"contracts/ERC20StandardToken.sol\":1446:1458  return _name */\n      dup1\n      sload\n      tag_148\n      swap1\n      tag_149\n      jump\t// in\n    tag_148:\n      dup1\n      0x1f\n      add\n      0x20\n      dup1\n      swap2\n      div\n      mul\n      0x20\n      add\n      mload(0x40)\n      swap1\n      dup2\n      add\n      0x40\n      mstore\n      dup1\n      swap3\n      swap2\n      swap1\n      dup2\n      dup2\n      mstore\n      0x20\n      add\n      dup3\n      dup1\n      sload\n      tag_150\n      swap1\n      tag_149\n      jump\t// in\n    tag_150:\n      dup1\n      iszero\n      tag_151\n      jumpi\n      dup1\n      0x1f\n      lt\n      tag_152\n      jumpi\n      0x0100\n      dup1\n      dup4\n      sload\n      div\n      mul\n      dup4\n      mstore\n      swap2\n      0x20\n      add\n      swap2\n      jump(tag_151)\n    tag_152:\n      dup3\n      add\n      swap2\n      swap1\n      0x00\n      mstore\n      keccak256(0x00, 0x20)\n      swap1\n    tag_153:\n      dup2\n      sload\n      dup2\n      mstore\n      swap1\n      0x01\n      add\n      swap1\n      0x20\n      add\n      dup1\n      dup4\n      gt\n      tag_153\n      jumpi\n      dup3\n      swap1\n      sub\n      0x1f\n      and\n      dup3\n      add\n      swap2\n    tag_151:\n      pop\n      pop\n      pop\n      pop\n      pop\n      swap1\n      pop\n        /* \"contracts/ERC20StandardToken.sol\":1375:1466  function name() public view virtual returns (string memory) {... */\n      swap1\n      jump\t// out\n        /* \"contracts/ERC20StandardToken.sol\":2154:2321  function approve(address spender, uint256 amount) public virtual override returns (bool) {... */\n    tag_41:\n        /* \"contracts/ERC20StandardToken.sol\":2237:2241  bool */\n      0x00\n        /* \"contracts/ERC20StandardToken.sol\":2254:2291  _approve(msg.sender, spender, amount) */\n      tag_155\n        /* \"contracts/ERC20StandardToken.sol\":2263:2273  msg.sender */\n      caller\n        /* \"contracts/ERC20StandardToken.sol\":2275:2282  spender */\n      dup5\n        /* \"contracts/ERC20StandardToken.sol\":2284:2290  amount */\n      dup5\n        /* \"contracts/ERC20StandardToken.sol\":2254:2262  _approve */\n      tag_156\n        /* \"contracts/ERC20StandardToken.sol\":2254:2291  _approve(msg.sender, spender, amount) */\n      jump\t// in\n    tag_155:\n      pop\n        /* \"contracts/ERC20StandardToken.sol\":2309:2313  true */\n      0x01\n        /* \"contracts/ERC20StandardToken.sol\":2154:2321  function approve(address spender, uint256 amount) public virtual override returns (bool) {... */\n    tag_154:\n      swap3\n      swap2\n      pop\n      pop\n      jump\t// out\n        /* \"contracts/ERC20StandardToken.sol\":2329:2552  function transferFrom(address from, address to, uint256 amount) public virtual override returns (bool) {... */\n    tag_62:\n        /* \"contracts/ERC20StandardToken.sol\":2426:2430  bool */\n      0x00\n        /* \"contracts/ERC20StandardToken.sol\":2443:2484  _spendAllowance(from, msg.sender, amount) */\n      tag_159\n        /* \"contracts/ERC20StandardToken.sol\":2459:2463  from */\n      dup5\n        /* \"contracts/ERC20StandardToken.sol\":2465:2475  msg.sender */\n      caller\n        /* \"contracts/ERC20StandardToken.sol\":2477:2483  amount */\n      dup5\n        /* \"contracts/ERC20StandardToken.sol\":2443:2458  _spendAllowance */\n      tag_160\n        /* \"contracts/ERC20StandardToken.sol\":2443:2484  _spendAllowance(from, msg.sender, amount) */\n      jump\t// in\n    tag_159:\n        /* \"contracts/ERC20StandardToken.sol\":2495:2522  _transfer(from, to, amount) */\n      tag_161\n        /* \"contracts/ERC20StandardToken.sol\":2505:2509  from */\n      dup5\n        /* \"contracts/ERC20StandardToken.sol\":2511:2513  to */\n      dup5\n        /* \"contracts/ERC20StandardToken.sol\":2515:2521  amount */\n      dup5\n        /* \"contracts/ERC20StandardToken.sol\":2495:2504  _transfer */\n      tag_162\n        /* \"contracts/ERC20StandardToken.sol\":2495:2522  _transfer(from, to, amount) */\n      jump\t// in\n    tag_161:\n      pop\n        /* \"contracts/ERC20StandardToken.sol\":2540:2544  true */\n      0x01\n        /* \"contracts/ERC20StandardToken.sol\":2329:2552  function transferFrom(address from, address to, uint256 amount) public virtual override returns (bool) {... */\n      swap4\n      swap3\n      pop\n      pop\n      pop\n      jump\t// out\n        /* \"contracts/ACB.sol\":6563:6643  function setBnbPair(address d) external onlyOwner {... */\n    tag_73:\n        /* \"contracts/ACB.sol\":414:419  owner */\n      and(sub(shl(0xa0, 0x01), 0x01), sload(0x05))\n        /* \"contracts/ACB.sol\":423:433  msg.sender */\n      caller\n        /* \"contracts/ACB.sol\":414:433  owner == msg.sender */\n      eq\n        /* \"contracts/ACB.sol\":406:470  require(owner == msg.sender, \"Ownable: caller is not the owner\") */\n      tag_165\n      jumpi\n      mload(0x40)\n      shl(0xe5, 0x461bcd)\n      dup2\n      mstore\n      0x04\n      add\n      tag_166\n      swap1\n      tag_167\n      jump\t// in\n    tag_166:\n      mload(0x40)\n      dup1\n      swap2\n      sub\n      swap1\n      revert\n    tag_165:\n        /* \"contracts/ACB.sol\":6624:6631  bnbPair */\n      0x06\n        /* \"contracts/ACB.sol\":6624:6635  bnbPair = d */\n      dup1\n      sload\n      not(sub(shl(0xa0, 0x01), 0x01))\n      and\n      sub(shl(0xa0, 0x01), 0x01)\n      swap3\n      swap1\n      swap3\n      and\n      swap2\n      swap1\n      swap2\n      or\n      swap1\n      sstore\n        /* \"contracts/ACB.sol\":6563:6643  function setBnbPair(address d) external onlyOwner {... */\n      jump\t// out\n        /* \"contracts/ACB.sol\":6801:6905  function setDividendGas(uint256 vgas) external  onlyOwner{... */\n    tag_80:\n        /* \"contracts/ACB.sol\":414:419  owner */\n      and(sub(shl(0xa0, 0x01), 0x01), sload(0x05))\n        /* \"contracts/ACB.sol\":423:433  msg.sender */\n      caller\n        /* \"contracts/ACB.sol\":414:433  owner == msg.sender */\n      eq\n        /* \"contracts/ACB.sol\":406:470  require(owner == msg.sender, \"Ownable: caller is not the owner\") */\n      tag_170\n      jumpi\n      mload(0x40)\n      shl(0xe5, 0x461bcd)\n      dup2\n      mstore\n      0x04\n      add\n      tag_166\n      swap1\n      tag_167\n      jump\t// in\n    tag_170:\n        /* \"contracts/ACB.sol\":6879:6890  dividendGas */\n      0x0a\n        /* \"contracts/ACB.sol\":6879:6897  dividendGas = vgas */\n      sstore\n        /* \"contracts/ACB.sol\":6801:6905  function setDividendGas(uint256 vgas) external  onlyOwner{... */\n      jump\t// out\n        /* \"contracts/ACB.sol\":7025:7123  function setPairlock(uint256 _pairlock) external  onlyOwner{... */\n    tag_94:\n        /* \"contracts/ACB.sol\":414:419  owner */\n      and(sub(shl(0xa0, 0x01), 0x01), sload(0x05))\n        /* \"contracts/ACB.sol\":423:433  msg.sender */\n      caller\n        /* \"contracts/ACB.sol\":414:433  owner == msg.sender */\n      eq\n        /* \"contracts/ACB.sol\":406:470  require(owner == msg.sender, \"Ownable: caller is not the owner\") */\n      tag_175\n      jumpi\n      mload(0x40)\n      shl(0xe5, 0x461bcd)\n      dup2\n      mstore\n      0x04\n      add\n      tag_166\n      swap1\n      tag_167\n      jump\t// in\n    tag_175:\n        /* \"contracts/ACB.sol\":7095:7103  pairlock */\n      0x0e\n        /* \"contracts/ACB.sol\":7095:7115  pairlock = _pairlock */\n      sstore\n        /* \"contracts/ACB.sol\":7025:7123  function setPairlock(uint256 _pairlock) external  onlyOwner{... */\n      jump\t// out\n        /* \"contracts/ERC20StandardToken.sol\":1272:1367  function symbol() public view virtual returns (string memory) {... */\n    tag_104:\n        /* \"contracts/ERC20StandardToken.sol\":1319:1332  string memory */\n      0x60\n        /* \"contracts/ERC20StandardToken.sol\":1352:1359  _symbol */\n      0x02\n        /* \"contracts/ERC20StandardToken.sol\":1345:1359  return _symbol */\n      dup1\n      sload\n      tag_148\n      swap1\n      tag_149\n      jump\t// in\n        /* \"contracts/ACB.sol\":1473:1499  address[] public lpHolders */\n    tag_108:\n      0x14\n      dup2\n      dup2\n      sload\n      dup2\n      lt\n      tag_184\n      jumpi\n      0x00\n      dup1\n      revert\n    tag_184:\n      0x00\n      swap2\n      dup3\n      mstore\n      0x20\n      swap1\n      swap2\n      keccak256\n      add\n      sload\n      sub(shl(0xa0, 0x01), 0x01)\n      and\n      swap1\n      pop\n      dup2\n      jump\t// out\n        /* \"contracts/ERC20StandardToken.sol\":1987:2146  function transfer(address to, uint256 amount) public virtual override returns (bool) {... */\n    tag_112:\n        /* \"contracts/ERC20StandardToken.sol\":2066:2070  bool */\n      0x00\n        /* \"contracts/ERC20StandardToken.sol\":2083:2116  _transfer(msg.sender, to, amount) */\n      tag_155\n        /* \"contracts/ERC20StandardToken.sol\":2093:2103  msg.sender */\n      caller\n        /* \"contracts/ERC20StandardToken.sol\":2105:2107  to */\n      dup5\n        /* \"contracts/ERC20StandardToken.sol\":2109:2115  amount */\n      dup5\n        /* \"contracts/ERC20StandardToken.sol\":2083:2092  _transfer */\n      tag_162\n        /* \"contracts/ERC20StandardToken.sol\":2083:2116  _transfer(msg.sender, to, amount) */\n      jump\t// in\n        /* \"contracts/ACB.sol\":6660:6778  function setHolderRewardCondition(uint256 amount) external onlyOwner {... */\n    tag_129:\n        /* \"contracts/ACB.sol\":414:419  owner */\n      and(sub(shl(0xa0, 0x01), 0x01), sload(0x05))\n        /* \"contracts/ACB.sol\":423:433  msg.sender */\n      caller\n        /* \"contracts/ACB.sol\":414:433  owner == msg.sender */\n      eq\n        /* \"contracts/ACB.sol\":406:470  require(owner == msg.sender, \"Ownable: caller is not the owner\") */\n      tag_189\n      jumpi\n      mload(0x40)\n      shl(0xe5, 0x461bcd)\n      dup2\n      mstore\n      0x04\n      add\n      tag_166\n      swap1\n      tag_167\n      jump\t// in\n    tag_189:\n        /* \"contracts/ACB.sol\":6740:6761  holderRewardCondition */\n      0x09\n        /* \"contracts/ACB.sol\":6740:6770  holderRewardCondition = amount */\n      sstore\n        /* \"contracts/ACB.sol\":6660:6778  function setHolderRewardCondition(uint256 amount) external onlyOwner {... */\n      jump\t// out\n        /* \"contracts/ACB.sol\":6913:7019  function setRewardBlockAdd(uint256 num) external  onlyOwner{... */\n    tag_132:\n        /* \"contracts/ACB.sol\":414:419  owner */\n      and(sub(shl(0xa0, 0x01), 0x01), sload(0x05))\n        /* \"contracts/ACB.sol\":423:433  msg.sender */\n      caller\n        /* \"contracts/ACB.sol\":414:433  owner == msg.sender */\n      eq\n        /* \"contracts/ACB.sol\":406:470  require(owner == msg.sender, \"Ownable: caller is not the owner\") */\n      tag_193\n      jumpi\n      mload(0x40)\n      shl(0xe5, 0x461bcd)\n      dup2\n      mstore\n      0x04\n      add\n      tag_166\n      swap1\n      tag_167\n      jump\t// in\n    tag_193:\n        /* \"contracts/ACB.sol\":6983:7005  progressRewardBlockAdd */\n      0x08\n        /* \"contracts/ACB.sol\":6983:7011  progressRewardBlockAdd = num */\n      sstore\n        /* \"contracts/ACB.sol\":6913:7019  function setRewardBlockAdd(uint256 num) external  onlyOwner{... */\n      jump\t// out\n        /* \"contracts/ACB.sol\":498:595  function transferOwnership(address newOwner) public onlyOwner {... */\n    tag_146:\n        /* \"contracts/ACB.sol\":414:419  owner */\n      and(sub(shl(0xa0, 0x01), 0x01), sload(0x05))\n        /* \"contracts/ACB.sol\":423:433  msg.sender */\n      caller\n        /* \"contracts/ACB.sol\":414:433  owner == msg.sender */\n      eq\n        /* \"contracts/ACB.sol\":406:470  require(owner == msg.sender, \"Ownable: caller is not the owner\") */\n      tag_198\n      jumpi\n      mload(0x40)\n      shl(0xe5, 0x461bcd)\n      dup2\n      mstore\n      0x04\n      add\n      tag_166\n      swap1\n      tag_167\n      jump\t// in\n    tag_198:\n        /* \"contracts/ACB.sol\":571:576  owner */\n      0x05\n        /* \"contracts/ACB.sol\":571:587  owner = newOwner */\n      dup1\n      sload\n      not(sub(shl(0xa0, 0x01), 0x01))\n      and\n      sub(shl(0xa0, 0x01), 0x01)\n      swap3\n      swap1\n      swap3\n      and\n      swap2\n      swap1\n      swap2\n      or\n      swap1\n      sstore\n        /* \"contracts/ACB.sol\":498:595  function transferOwnership(address newOwner) public onlyOwner {... */\n      jump\t// out\n        /* \"contracts/ERC20StandardToken.sol\":4029:4215  function _approve(address owner, address spender, uint256 amount) internal virtual {... */\n    tag_156:\n      sub(shl(0xa0, 0x01), 0x01)\n        /* \"contracts/ERC20StandardToken.sol\":4123:4141  _allowances[owner] */\n      dup4\n      dup2\n      and\n      0x00\n      dup2\n      dup2\n      mstore\n        /* \"contracts/ERC20StandardToken.sol\":4123:4134  _allowances */\n      0x01\n        /* \"contracts/ERC20StandardToken.sol\":4123:4141  _allowances[owner] */\n      0x20\n      swap1\n      dup2\n      mstore\n      0x40\n      dup1\n      dup4\n      keccak256\n        /* \"contracts/ERC20StandardToken.sol\":4123:4150  _allowances[owner][spender] */\n      swap5\n      dup8\n      and\n      dup1\n      dup5\n      mstore\n      swap5\n      dup3\n      mstore\n      swap2\n      dup3\n      swap1\n      keccak256\n        /* \"contracts/ERC20StandardToken.sol\":4123:4159  _allowances[owner][spender] = amount */\n      dup6\n      swap1\n      sstore\n        /* \"contracts/ERC20StandardToken.sol\":4175:4207  Approval(owner, spender, amount) */\n      swap1\n      mload\n        /* \"#utility.yul\":1533:1558   */\n      dup5\n      dup2\n      mstore\n        /* \"contracts/ERC20StandardToken.sol\":4175:4207  Approval(owner, spender, amount) */\n      0x8c5be1e5ebec7d5bd14f71427d1e84f3dd0314c0f7b2291e5b200ac8c7c3b925\n      swap2\n        /* \"#utility.yul\":1506:1524   */\n      add\n        /* \"contracts/ERC20StandardToken.sol\":4175:4207  Approval(owner, spender, amount) */\n    tag_202:\n      mload(0x40)\n      dup1\n      swap2\n      sub\n      swap1\n      log3\n        /* \"contracts/ERC20StandardToken.sol\":4029:4215  function _approve(address owner, address spender, uint256 amount) internal virtual {... */\n      pop\n      pop\n      pop\n      jump\t// out\n        /* \"contracts/ERC20StandardToken.sol\":3600:4021  function _spendAllowance(address owner, address spender, uint256 amount) internal virtual {... */\n    tag_160:\n      sub(shl(0xa0, 0x01), 0x01)\n        /* \"contracts/ERC20StandardToken.sol\":3728:3746  _allowances[owner] */\n      dup1\n      dup5\n      and\n        /* \"contracts/ERC20StandardToken.sol\":3701:3725  uint256 currentAllowance */\n      0x00\n        /* \"contracts/ERC20StandardToken.sol\":3728:3746  _allowances[owner] */\n      swap1\n      dup2\n      mstore\n        /* \"contracts/ERC20StandardToken.sol\":3728:3739  _allowances */\n      0x01\n        /* \"contracts/ERC20StandardToken.sol\":3728:3746  _allowances[owner] */\n      0x20\n      swap1\n      dup2\n      mstore\n      0x40\n      dup1\n      dup4\n      keccak256\n        /* \"contracts/ERC20StandardToken.sol\":3728:3755  _allowances[owner][spender] */\n      swap4\n      dup7\n      and\n      dup4\n      mstore\n      swap3\n      swap1\n      mstore\n      keccak256\n      sload\n      not(0x00)\n        /* \"contracts/ERC20StandardToken.sol\":3770:3807  currentAllowance != type(uint256).max */\n      dup2\n      eq\n        /* \"contracts/ERC20StandardToken.sol\":3766:4014  if (currentAllowance != type(uint256).max) {... */\n      tag_208\n      jumpi\n        /* \"contracts/ERC20StandardToken.sol\":3852:3858  amount */\n      dup2\n        /* \"contracts/ERC20StandardToken.sol\":3832:3848  currentAllowance */\n      dup2\n        /* \"contracts/ERC20StandardToken.sol\":3832:3858  currentAllowance >= amount */\n      lt\n      iszero\n        /* \"contracts/ERC20StandardToken.sol\":3824:3892  require(currentAllowance >= amount, \"ERC20: insufficient allowance\") */\n      tag_205\n      jumpi\n      mload(0x40)\n      shl(0xe5, 0x461bcd)\n      dup2\n      mstore\n        /* \"#utility.yul\":3697:3699   */\n      0x20\n        /* \"contracts/ERC20StandardToken.sol\":3824:3892  require(currentAllowance >= amount, \"ERC20: insufficient allowance\") */\n      0x04\n      dup3\n      add\n        /* \"#utility.yul\":3679:3700   */\n      mstore\n        /* \"#utility.yul\":3736:3738   */\n      0x1d\n        /* \"#utility.yul\":3716:3734   */\n      0x24\n      dup3\n      add\n        /* \"#utility.yul\":3709:3739   */\n      mstore\n        /* \"#utility.yul\":3775:3806   */\n      0x45524332303a20696e73756666696369656e7420616c6c6f77616e6365000000\n        /* \"#utility.yul\":3755:3773   */\n      0x44\n      dup3\n      add\n        /* \"#utility.yul\":3748:3807   */\n      mstore\n        /* \"#utility.yul\":3824:3842   */\n      0x64\n      add\n        /* \"contracts/ERC20StandardToken.sol\":3824:3892  require(currentAllowance >= amount, \"ERC20: insufficient allowance\") */\n      tag_166\n        /* \"#utility.yul\":3495:3848   */\n      jump\n        /* \"contracts/ERC20StandardToken.sol\":3824:3892  require(currentAllowance >= amount, \"ERC20: insufficient allowance\") */\n    tag_205:\n        /* \"contracts/ERC20StandardToken.sol\":3936:3987  _approve(owner, spender, currentAllowance - amount) */\n      tag_208\n        /* \"contracts/ERC20StandardToken.sol\":3945:3950  owner */\n      dup5\n        /* \"contracts/ERC20StandardToken.sol\":3952:3959  spender */\n      dup5\n        /* \"contracts/ERC20StandardToken.sol\":3980:3986  amount */\n      dup5\n        /* \"contracts/ERC20StandardToken.sol\":3961:3977  currentAllowance */\n      dup5\n        /* \"contracts/ERC20StandardToken.sol\":3961:3986  currentAllowance - amount */\n      sub\n        /* \"contracts/ERC20StandardToken.sol\":3936:3944  _approve */\n      tag_156\n        /* \"contracts/ERC20StandardToken.sol\":3936:3987  _approve(owner, spender, currentAllowance - amount) */\n      jump\t// in\n    tag_208:\n        /* \"contracts/ERC20StandardToken.sol\":3690:4021  {... */\n      pop\n        /* \"contracts/ERC20StandardToken.sol\":3600:4021  function _spendAllowance(address owner, address spender, uint256 amount) internal virtual {... */\n      pop\n      pop\n      pop\n      jump\t// out\n        /* \"contracts/ACB.sol\":2776:3920  function _transfer(address from, address to, uint256 amount) internal override {... */\n    tag_162:\n        /* \"contracts/ACB.sol\":2892:2899  bnbPair */\n      and(sub(shl(0xa0, 0x01), 0x01), sload(0x06))\n        /* \"contracts/ACB.sol\":2950:2965  extcodesize(to) */\n      dup3\n      extcodesize\n        /* \"contracts/ACB.sol\":2990:2998  size > 0 */\n      dup1\n      iszero\n      dup1\n      iszero\n      swap1\n        /* \"contracts/ACB.sol\":2990:3012  size > 0 && to !=pair_ */\n      tag_210\n      jumpi\n      pop\n        /* \"contracts/ACB.sol\":3007:3012  pair_ */\n      dup2\n      sub(shl(0xa0, 0x01), 0x01)\n        /* \"contracts/ACB.sol\":3002:3012  to !=pair_ */\n      and\n        /* \"contracts/ACB.sol\":3002:3004  to */\n      dup5\n      sub(shl(0xa0, 0x01), 0x01)\n        /* \"contracts/ACB.sol\":3002:3012  to !=pair_ */\n      and\n      eq\n      iszero\n        /* \"contracts/ACB.sol\":2990:3012  size > 0 && to !=pair_ */\n    tag_210:\n        /* \"contracts/ACB.sol\":2990:3028  size > 0 && to !=pair_ && pairlock ==1 */\n      dup1\n      iszero\n      tag_211\n      jumpi\n      pop\n        /* \"contracts/ACB.sol\":3016:3024  pairlock */\n      sload(0x0e)\n        /* \"contracts/ACB.sol\":3027:3028  1 */\n      0x01\n        /* \"contracts/ACB.sol\":3016:3028  pairlock ==1 */\n      eq\n        /* \"contracts/ACB.sol\":2990:3028  size > 0 && to !=pair_ && pairlock ==1 */\n    tag_211:\n        /* \"contracts/ACB.sol\":2987:3062  if(size > 0 && to !=pair_ && pairlock ==1){... */\n      iszero\n      tag_212\n      jumpi\n        /* \"contracts/ACB.sol\":3044:3051  return; */\n      pop\n      pop\n        /* \"contracts/ACB.sol\":2776:3920  function _transfer(address from, address to, uint256 amount) internal override {... */\n      pop\n      pop\n      pop\n      jump\t// out\n        /* \"contracts/ACB.sol\":2987:3062  if(size > 0 && to !=pair_ && pairlock ==1){... */\n    tag_212:\n        /* \"contracts/ACB.sol\":3150:3155  owner */\n      sload(0x05)\n      sub(shl(0xa0, 0x01), 0x01)\n      swap1\n      dup2\n      and\n        /* \"contracts/ACB.sol\":3142:3155  from == owner */\n      swap1\n      dup7\n      and\n      sub\n        /* \"contracts/ACB.sol\":3136:3239  if(   from == owner ) {... */\n      tag_213\n      jumpi\n        /* \"contracts/ACB.sol\":3173:3206  super._transfer(from, to, amount) */\n      tag_214\n        /* \"contracts/ACB.sol\":3189:3193  from */\n      dup6\n        /* \"contracts/ACB.sol\":3195:3197  to */\n      dup6\n        /* \"contracts/ACB.sol\":3199:3205  amount */\n      dup6\n        /* \"contracts/ACB.sol\":3173:3188  super._transfer */\n      tag_215\n        /* \"contracts/ACB.sol\":3173:3206  super._transfer(from, to, amount) */\n      jump\t// in\n    tag_214:\n        /* \"contracts/ACB.sol\":3221:3228  return; */\n      pop\n      pop\n        /* \"contracts/ACB.sol\":2776:3920  function _transfer(address from, address to, uint256 amount) internal override {... */\n      pop\n      pop\n      pop\n      jump\t// out\n        /* \"contracts/ACB.sol\":3136:3239  if(   from == owner ) {... */\n    tag_213:\n        /* \"contracts/ACB.sol\":3249:3280  _subSenderBalance(from, amount) */\n      tag_216\n        /* \"contracts/ACB.sol\":3267:3271  from */\n      dup6\n        /* \"contracts/ACB.sol\":3273:3279  amount */\n      dup5\n        /* \"contracts/ACB.sol\":3249:3266  _subSenderBalance */\n      tag_217\n        /* \"contracts/ACB.sol\":3249:3280  _subSenderBalance(from, amount) */\n      jump\t// in\n    tag_216:\n        /* \"contracts/ACB.sol\":3291:3300  uint256 o */\n      0x00\n        /* \"contracts/ACB.sol\":3313:3317  1000 */\n      0x03e8\n        /* \"contracts/ACB.sol\":3303:3312  amount*10 */\n      tag_218\n        /* \"contracts/ACB.sol\":3303:3309  amount */\n      dup6\n        /* \"contracts/ACB.sol\":3310:3312  10 */\n      0x0a\n        /* \"contracts/ACB.sol\":3303:3312  amount*10 */\n      tag_219\n      jump\t// in\n    tag_218:\n        /* \"contracts/ACB.sol\":3303:3317  amount*10/1000 */\n      tag_220\n      swap2\n      swap1\n      tag_221\n      jump\t// in\n    tag_220:\n        /* \"contracts/ACB.sol\":3291:3317  uint256 o = amount*10/1000 */\n      swap1\n      pop\n        /* \"contracts/ACB.sol\":3365:3411  _addReceiverBalance(from, operationAddress, o) */\n      tag_222\n        /* \"contracts/ACB.sol\":3385:3389  from */\n      dup7\n        /* \"contracts/ACB.sol\":772:814  0xbF1c5C87b4b0F37443819CBB956215982D9F8A4b */\n      0xbf1c5c87b4b0f37443819cbb956215982d9f8a4b\n        /* \"contracts/ACB.sol\":3409:3410  o */\n      dup4\n        /* \"contracts/ACB.sol\":3365:3384  _addReceiverBalance */\n      tag_223\n        /* \"contracts/ACB.sol\":3365:3411  _addReceiverBalance(from, operationAddress, o) */\n      jump\t// in\n    tag_222:\n        /* \"contracts/ACB.sol\":3426:3467  _addReceiverBalance(from, nodeAddress, o) */\n      tag_224\n        /* \"contracts/ACB.sol\":3446:3450  from */\n      dup7\n        /* \"contracts/ACB.sol\":869:911  0x000000000000000000000000000000000000dEaD */\n      0xdead\n        /* \"contracts/ACB.sol\":3465:3466  o */\n      dup4\n        /* \"contracts/ACB.sol\":3426:3445  _addReceiverBalance */\n      tag_223\n        /* \"contracts/ACB.sol\":3426:3467  _addReceiverBalance(from, nodeAddress, o) */\n      jump\t// in\n    tag_224:\n        /* \"contracts/ACB.sol\":3491:3534  _addReceiverBalance(from, address(this), o) */\n      tag_225\n        /* \"contracts/ACB.sol\":3511:3515  from */\n      dup7\n        /* \"contracts/ACB.sol\":3525:3529  this */\n      address\n        /* \"contracts/ACB.sol\":3532:3533  o */\n      dup4\n        /* \"contracts/ACB.sol\":3491:3510  _addReceiverBalance */\n      tag_223\n        /* \"contracts/ACB.sol\":3491:3534  _addReceiverBalance(from, address(this), o) */\n      jump\t// in\n    tag_225:\n        /* \"contracts/ACB.sol\":3549:3592  _addReceiverBalance(from, to, amount - 3*o) */\n      tag_226\n        /* \"contracts/ACB.sol\":3569:3573  from */\n      dup7\n        /* \"contracts/ACB.sol\":3575:3577  to */\n      dup7\n        /* \"contracts/ACB.sol\":3590:3591  o */\n      dup4\n        /* \"contracts/ACB.sol\":3588:3589  3 */\n      0x03\n        /* \"contracts/ACB.sol\":3588:3591  3*o */\n      mul\n        /* \"contracts/ACB.sol\":3579:3585  amount */\n      dup8\n        /* \"contracts/ACB.sol\":3579:3591  amount - 3*o */\n      sub\n        /* \"contracts/ACB.sol\":3549:3568  _addReceiverBalance */\n      tag_223\n        /* \"contracts/ACB.sol\":3549:3592  _addReceiverBalance(from, to, amount - 3*o) */\n      jump\t// in\n    tag_226:\n        /* \"contracts/ACB.sol\":3890:3911  processReward(o,from) */\n      tag_227\n        /* \"contracts/ACB.sol\":3904:3905  o */\n      dup2\n        /* \"contracts/ACB.sol\":3906:3910  from */\n      dup8\n        /* \"contracts/ACB.sol\":3890:3903  processReward */\n      tag_228\n        /* \"contracts/ACB.sol\":3890:3911  processReward(o,from) */\n      jump\t// in\n    tag_227:\n      pop\n        /* \"contracts/ACB.sol\":2855:3920  {... */\n      pop\n      pop\n      pop\n        /* \"contracts/ACB.sol\":2776:3920  function _transfer(address from, address to, uint256 amount) internal override {... */\n      pop\n      pop\n      pop\n      jump\t// out\n        /* \"contracts/ERC20StandardToken.sol\":2562:2944  function _transfer(address from, address to, uint256 amount) internal virtual {... */\n    tag_215:\n      sub(shl(0xa0, 0x01), 0x01)\n        /* \"contracts/ERC20StandardToken.sol\":2673:2688  _balances[from] */\n      dup4\n      and\n        /* \"contracts/ERC20StandardToken.sol\":2651:2670  uint256 fromBalance */\n      0x00\n        /* \"contracts/ERC20StandardToken.sol\":2673:2688  _balances[from] */\n      swap1\n      dup2\n      mstore\n      0x20\n      dup2\n      swap1\n      mstore\n      0x40\n      swap1\n      keccak256\n      sload\n        /* \"contracts/ERC20StandardToken.sol\":2707:2728  fromBalance >= amount */\n      dup2\n      dup2\n      lt\n      iszero\n        /* \"contracts/ERC20StandardToken.sol\":2699:2771  require(fromBalance >= amount, \"ERC20: transfer amount exceeds balance\") */\n      tag_230\n      jumpi\n      mload(0x40)\n      shl(0xe5, 0x461bcd)\n      dup2\n      mstore\n      0x04\n      add\n      tag_166\n      swap1\n      tag_232\n      jump\t// in\n    tag_230:\n      sub(shl(0xa0, 0x01), 0x01)\n        /* \"contracts/ERC20StandardToken.sol\":2807:2822  _balances[from] */\n      dup5\n      dup2\n      and\n        /* \"contracts/ERC20StandardToken.sol\":2807:2816  _balances */\n      0x00\n        /* \"contracts/ERC20StandardToken.sol\":2807:2822  _balances[from] */\n      dup2\n      dup2\n      mstore\n      0x20\n      dup2\n      dup2\n      mstore\n      0x40\n      dup1\n      dup4\n      keccak256\n        /* \"contracts/ERC20StandardToken.sol\":2825:2845  fromBalance - amount */\n      dup8\n      dup8\n      sub\n        /* \"contracts/ERC20StandardToken.sol\":2807:2845  _balances[from] = fromBalance - amount */\n      swap1\n      sstore\n        /* \"contracts/ERC20StandardToken.sol\":2860:2873  _balances[to] */\n      swap4\n      dup8\n      and\n      dup1\n      dup4\n      mstore\n      swap2\n      dup5\n      swap1\n      keccak256\n        /* \"contracts/ERC20StandardToken.sol\":2860:2883  _balances[to] += amount */\n      dup1\n      sload\n      dup8\n      add\n      swap1\n      sstore\n        /* \"contracts/ERC20StandardToken.sol\":2910:2936  Transfer(from, to, amount) */\n      swap3\n      mload\n        /* \"#utility.yul\":1533:1558   */\n      dup6\n      dup2\n      mstore\n        /* \"contracts/ERC20StandardToken.sol\":2860:2873  _balances[to] */\n      swap1\n      swap3\n      0x00\n      dup1\n      mload\n      0x20\n      data_ada389e1fc24a8587c776340efb91b36e675792ab631816100d55df0b5cf3cbc\n      dup4\n      codecopy\n      dup2\n      mload\n      swap2\n      mstore\n        /* \"contracts/ERC20StandardToken.sol\":2910:2936  Transfer(from, to, amount) */\n      swap2\n        /* \"#utility.yul\":1506:1524   */\n      add\n        /* \"contracts/ERC20StandardToken.sol\":2910:2936  Transfer(from, to, amount) */\n      mload(0x40)\n      dup1\n      swap2\n      sub\n      swap1\n      log3\n        /* \"contracts/ERC20StandardToken.sol\":2640:2944  {... */\n      pop\n        /* \"contracts/ERC20StandardToken.sol\":2562:2944  function _transfer(address from, address to, uint256 amount) internal virtual {... */\n      pop\n      pop\n      pop\n      jump\t// out\n        /* \"contracts/ERC20StandardToken.sol\":3078:3376  function _subSenderBalance(address from, uint256 amount) internal virtual {... */\n    tag_217:\n      sub(shl(0xa0, 0x01), 0x01)\n        /* \"contracts/ERC20StandardToken.sol\":3185:3200  _balances[from] */\n      dup3\n      and\n        /* \"contracts/ERC20StandardToken.sol\":3163:3182  uint256 fromBalance */\n      0x00\n        /* \"contracts/ERC20StandardToken.sol\":3185:3200  _balances[from] */\n      swap1\n      dup2\n      mstore\n      0x20\n      dup2\n      swap1\n      mstore\n      0x40\n      swap1\n      keccak256\n      sload\n        /* \"contracts/ERC20StandardToken.sol\":3219:3240  fromBalance >= amount */\n      dup2\n      dup2\n      lt\n      iszero\n        /* \"contracts/ERC20StandardToken.sol\":3211:3283  require(fromBalance >= amount, \"ERC20: transfer amount exceeds balance\") */\n      tag_235\n      jumpi\n      mload(0x40)\n      shl(0xe5, 0x461bcd)\n      dup2\n      mstore\n      0x04\n      add\n      tag_166\n      swap1\n      tag_232\n      jump\t// in\n    tag_235:\n      sub(shl(0xa0, 0x01), 0x01)\n        /* \"contracts/ERC20StandardToken.sol\":3319:3334  _balances[from] */\n      swap1\n      swap3\n      and\n        /* \"contracts/ERC20StandardToken.sol\":3319:3328  _balances */\n      0x00\n        /* \"contracts/ERC20StandardToken.sol\":3319:3334  _balances[from] */\n      swap1\n      dup2\n      mstore\n      0x20\n      dup2\n      swap1\n      mstore\n      0x40\n      swap1\n      keccak256\n        /* \"contracts/ERC20StandardToken.sol\":3337:3357  fromBalance - amount */\n      swap2\n      sub\n        /* \"contracts/ERC20StandardToken.sol\":3319:3357  _balances[from] = fromBalance - amount */\n      swap1\n      sstore\n        /* \"contracts/ERC20StandardToken.sol\":3078:3376  function _subSenderBalance(address from, uint256 amount) internal virtual {... */\n      jump\t// out\n        /* \"contracts/ERC20StandardToken.sol\":3384:3592  function _addReceiverBalance(address from, address to, uint256 amount) internal virtual {... */\n    tag_223:\n      sub(shl(0xa0, 0x01), 0x01)\n        /* \"contracts/ERC20StandardToken.sol\":3508:3521  _balances[to] */\n      dup3\n      dup2\n      and\n        /* \"contracts/ERC20StandardToken.sol\":3508:3517  _balances */\n      0x00\n        /* \"contracts/ERC20StandardToken.sol\":3508:3521  _balances[to] */\n      dup2\n      dup2\n      mstore\n      0x20\n      dup2\n      dup2\n      mstore\n      0x40\n      swap2\n      dup3\n      swap1\n      keccak256\n        /* \"contracts/ERC20StandardToken.sol\":3508:3531  _balances[to] += amount */\n      dup1\n      sload\n      dup7\n      add\n      swap1\n      sstore\n        /* \"contracts/ERC20StandardToken.sol\":3558:3584  Transfer(from, to, amount) */\n      swap1\n      mload\n        /* \"#utility.yul\":1533:1558   */\n      dup5\n      dup2\n      mstore\n        /* \"contracts/ERC20StandardToken.sol\":3508:3521  _balances[to] */\n      swap2\n      swap3\n        /* \"contracts/ERC20StandardToken.sol\":3558:3584  Transfer(from, to, amount) */\n      dup7\n      and\n      swap2\n      0x00\n      dup1\n      mload\n      0x20\n      data_ada389e1fc24a8587c776340efb91b36e675792ab631816100d55df0b5cf3cbc\n      dup4\n      codecopy\n      dup2\n      mload\n      swap2\n      mstore\n      swap2\n        /* \"#utility.yul\":1506:1524   */\n      add\n        /* \"contracts/ERC20StandardToken.sol\":3558:3584  Transfer(from, to, amount) */\n      tag_202\n        /* \"#utility.yul\":1387:1564   */\n      jump\n        /* \"contracts/ACB.sol\":3932:5907  function processReward(uint256 tfmount,address user)internal returns (uint256) {... */\n    tag_228:\n        /* \"contracts/ACB.sol\":4002:4009  uint256 */\n      0x00\n        /* \"contracts/ACB.sol\":4053:4060  tfmount */\n      dup3\n        /* \"contracts/ACB.sol\":4042:4049  lpBonus */\n      0x0b\n      0x00\n        /* \"contracts/ACB.sol\":4042:4060  lpBonus += tfmount */\n      dup3\n      dup3\n      sload\n      tag_240\n      swap2\n      swap1\n      tag_241\n      jump\t// in\n    tag_240:\n      swap1\n      swap2\n      sstore\n      pop\n      pop\n        /* \"contracts/ACB.sol\":4335:4342  lpBonus */\n      sload(0x0b)\n        /* \"contracts/ACB.sol\":4322:4331  lpBonusEd */\n      sload(0x0c)\n        /* \"contracts/ACB.sol\":4322:4342  lpBonusEd >= lpBonus */\n      lt\n        /* \"contracts/ACB.sol\":4318:4376  if (lpBonusEd >= lpBonus){... */\n      tag_242\n      jumpi\n      pop\n        /* \"contracts/ACB.sol\":4363:4364  0 */\n      0x00\n        /* \"contracts/ACB.sol\":4356:4364  return 0 */\n      jump(tag_154)\n        /* \"contracts/ACB.sol\":4318:4376  if (lpBonusEd >= lpBonus){... */\n    tag_242:\n        /* \"contracts/ACB.sol\":4386:4401  uint256 balance */\n      0x00\n        /* \"contracts/ACB.sol\":4414:4423  lpBonusEd */\n      sload(0x0c)\n        /* \"contracts/ACB.sol\":4404:4411  lpBonus */\n      sload(0x0b)\n        /* \"contracts/ACB.sol\":4404:4423  lpBonus - lpBonusEd */\n      tag_243\n      swap2\n      swap1\n      tag_244\n      jump\t// in\n    tag_243:\n        /* \"contracts/ACB.sol\":4386:4423  uint256 balance = lpBonus - lpBonusEd */\n      swap1\n      pop\n        /* \"contracts/ACB.sol\":4459:4480  holderRewardCondition */\n      sload(0x09)\n        /* \"contracts/ACB.sol\":4449:4456  balance */\n      dup2\n        /* \"contracts/ACB.sol\":4449:4480  balance < holderRewardCondition */\n      lt\n        /* \"contracts/ACB.sol\":4445:4527  if (balance < holderRewardCondition  ) {... */\n      iszero\n      tag_245\n      jumpi\n        /* \"contracts/ACB.sol\":4514:4515  0 */\n      0x00\n        /* \"contracts/ACB.sol\":4507:4515  return 0 */\n      swap2\n      pop\n      pop\n      jump(tag_154)\n        /* \"contracts/ACB.sol\":4445:4527  if (balance < holderRewardCondition  ) {... */\n    tag_245:\n        /* \"contracts/ACB.sol\":4657:4666  lpHolders */\n      0x14\n        /* \"contracts/ACB.sol\":4657:4673  lpHolders.length */\n      sload\n        /* \"contracts/ACB.sol\":4551:4567  address lpHolder */\n      0x00\n      swap1\n      dup2\n      swap1\n      dup2\n      swap1\n      dup2\n      dup1\n      dup1\n        /* \"contracts/ACB.sol\":4767:4776  gasleft() */\n      gas\n        /* \"contracts/ACB.sol\":4749:4776  uint256 gasLeft = gasleft() */\n      swap1\n      pop\n        /* \"contracts/ACB.sol\":4797:5790  while (gasUsed < dividendGas && iterations < lpHolderCount) {... */\n    tag_246:\n        /* \"contracts/ACB.sol\":4814:4825  dividendGas */\n      sload(0x0a)\n        /* \"contracts/ACB.sol\":4804:4811  gasUsed */\n      dup4\n        /* \"contracts/ACB.sol\":4804:4825  gasUsed < dividendGas */\n      lt\n        /* \"contracts/ACB.sol\":4804:4855  gasUsed < dividendGas && iterations < lpHolderCount */\n      dup1\n      iszero\n      tag_248\n      jumpi\n      pop\n        /* \"contracts/ACB.sol\":4842:4855  lpHolderCount */\n      dup4\n        /* \"contracts/ACB.sol\":4829:4839  iterations */\n      dup3\n        /* \"contracts/ACB.sol\":4829:4855  iterations < lpHolderCount */\n      lt\n        /* \"contracts/ACB.sol\":4804:4855  gasUsed < dividendGas && iterations < lpHolderCount */\n    tag_248:\n        /* \"contracts/ACB.sol\":4797:5790  while (gasUsed < dividendGas && iterations < lpHolderCount) {... */\n      iszero\n      tag_247\n      jumpi\n        /* \"contracts/ACB.sol\":4894:4907  lpHolderCount */\n      dup4\n        /* \"contracts/ACB.sol\":4876:4890  currentLpIndex */\n      sload(0x0d)\n        /* \"contracts/ACB.sol\":4876:4907  currentLpIndex >= lpHolderCount */\n      lt\n        /* \"contracts/ACB.sol\":4872:4962  if (currentLpIndex >= lpHolderCount) {... */\n      tag_249\n      jumpi\n        /* \"contracts/ACB.sol\":4945:4946  0 */\n      0x00\n        /* \"contracts/ACB.sol\":4928:4942  currentLpIndex */\n      0x0d\n        /* \"contracts/ACB.sol\":4928:4946  currentLpIndex = 0 */\n      sstore\n        /* \"contracts/ACB.sol\":4872:4962  if (currentLpIndex >= lpHolderCount) {... */\n    tag_249:\n        /* \"contracts/ACB.sol\":5001:5010  lpHolders */\n      0x14\n        /* \"contracts/ACB.sol\":5011:5025  currentLpIndex */\n      sload(0x0d)\n        /* \"contracts/ACB.sol\":5001:5026  lpHolders[currentLpIndex] */\n      dup2\n      sload\n      dup2\n      lt\n      tag_251\n      jumpi\n      tag_251\n      tag_252\n      jump\t// in\n    tag_251:\n      0x00\n      swap2\n      dup3\n      mstore\n      0x20\n      dup1\n      dup4\n      keccak256\n      swap1\n      swap2\n      add\n      sload\n      sub(shl(0xa0, 0x01), 0x01)\n      and\n        /* \"contracts/ACB.sol\":5053:5074  _LpBalances[lpHolder] */\n      dup1\n      dup4\n      mstore\n        /* \"contracts/ACB.sol\":5053:5064  _LpBalances */\n      0x10\n        /* \"contracts/ACB.sol\":5053:5074  _LpBalances[lpHolder] */\n      swap1\n      swap2\n      mstore\n      0x40\n      swap1\n      swap2\n      keccak256\n      sload\n        /* \"contracts/ACB.sol\":5001:5026  lpHolders[currentLpIndex] */\n      swap1\n      swap8\n      pop\n        /* \"contracts/ACB.sol\":5053:5074  _LpBalances[lpHolder] */\n      swap6\n      pop\n        /* \"contracts/ACB.sol\":5106:5118  lpBalance >0 */\n      dup6\n      iszero\n      dup1\n      iszero\n      swap1\n        /* \"contracts/ACB.sol\":5106:5145  lpBalance >0 && lpHolder != nodeAddress */\n      tag_254\n      jumpi\n      pop\n      sub(shl(0xa0, 0x01), 0x01)\n        /* \"contracts/ACB.sol\":5122:5145  lpHolder != nodeAddress */\n      dup8\n      and\n        /* \"contracts/ACB.sol\":869:911  0x000000000000000000000000000000000000dEaD */\n      0xdead\n        /* \"contracts/ACB.sol\":5122:5145  lpHolder != nodeAddress */\n      eq\n      iszero\n        /* \"contracts/ACB.sol\":5106:5145  lpBalance >0 && lpHolder != nodeAddress */\n    tag_254:\n        /* \"contracts/ACB.sol\":5103:5597  if(lpBalance >0 && lpHolder != nodeAddress){... */\n      iszero\n      tag_258\n      jumpi\n        /* \"contracts/ACB.sol\":5289:5302  totalLpSupply */\n      sload(0x0f)\n        /* \"contracts/ACB.sol\":5265:5284  balance * lpBalance */\n      tag_256\n        /* \"contracts/ACB.sol\":5275:5284  lpBalance */\n      dup8\n        /* \"contracts/ACB.sol\":5265:5272  balance */\n      dup11\n        /* \"contracts/ACB.sol\":5265:5284  balance * lpBalance */\n      tag_219\n      jump\t// in\n    tag_256:\n        /* \"contracts/ACB.sol\":5264:5304  (balance * lpBalance) / (totalLpSupply ) */\n      tag_257\n      swap2\n      swap1\n      tag_221\n      jump\t// in\n    tag_257:\n        /* \"contracts/ACB.sol\":5255:5304  amount = (balance * lpBalance) / (totalLpSupply ) */\n      swap5\n      pop\n        /* \"contracts/ACB.sol\":5327:5337  amount > 0 */\n      dup5\n      iszero\n        /* \"contracts/ACB.sol\":5323:5582  if (amount > 0) {... */\n      tag_258\n      jumpi\n        /* \"contracts/ACB.sol\":5385:5433  super._transfer(address(this), lpHolder, amount) */\n      tag_259\n        /* \"contracts/ACB.sol\":5409:5413  this */\n      address\n        /* \"contracts/ACB.sol\":5416:5424  lpHolder */\n      dup9\n        /* \"contracts/ACB.sol\":5426:5432  amount */\n      dup8\n        /* \"contracts/ACB.sol\":5385:5400  super._transfer */\n      tag_215\n        /* \"contracts/ACB.sol\":5385:5433  super._transfer(address(this), lpHolder, amount) */\n      jump\t// in\n    tag_259:\n        /* \"contracts/ACB.sol\":5512:5518  amount */\n      dup5\n        /* \"contracts/ACB.sol\":5499:5508  lpBonusEd */\n      0x0c\n      0x00\n        /* \"contracts/ACB.sol\":5499:5518  lpBonusEd += amount */\n      dup3\n      dup3\n      sload\n      tag_260\n      swap2\n      swap1\n      tag_241\n      jump\t// in\n    tag_260:\n      swap1\n      swap2\n      sstore\n      pop\n      pop\n        /* \"contracts/ACB.sol\":5323:5582  if (amount > 0) {... */\n    tag_258:\n        /* \"contracts/ACB.sol\":5676:5685  gasleft() */\n      gas\n        /* \"contracts/ACB.sol\":5666:5685  gasLeft - gasleft() */\n      tag_261\n      swap1\n        /* \"contracts/ACB.sol\":5666:5673  gasLeft */\n      dup3\n        /* \"contracts/ACB.sol\":5666:5685  gasLeft - gasleft() */\n      tag_244\n      jump\t// in\n    tag_261:\n        /* \"contracts/ACB.sol\":5655:5686  gasUsed + (gasLeft - gasleft()) */\n      tag_262\n      swap1\n        /* \"contracts/ACB.sol\":5655:5662  gasUsed */\n      dup5\n        /* \"contracts/ACB.sol\":5655:5686  gasUsed + (gasLeft - gasleft()) */\n      tag_241\n      jump\t// in\n    tag_262:\n        /* \"contracts/ACB.sol\":5645:5686  gasUsed = gasUsed + (gasLeft - gasleft()) */\n      swap3\n      pop\n        /* \"contracts/ACB.sol\":5711:5720  gasleft() */\n      gas\n        /* \"contracts/ACB.sol\":5735:5749  currentLpIndex */\n      0x0d\n        /* \"contracts/ACB.sol\":5735:5751  currentLpIndex++ */\n      dup1\n      sload\n        /* \"contracts/ACB.sol\":5701:5720  gasLeft = gasleft() */\n      swap2\n      swap3\n      pop\n        /* \"contracts/ACB.sol\":5735:5749  currentLpIndex */\n      0x00\n        /* \"contracts/ACB.sol\":5735:5751  currentLpIndex++ */\n      tag_263\n      dup4\n      tag_264\n      jump\t// in\n    tag_263:\n      swap2\n      swap1\n      pop\n      sstore\n      pop\n        /* \"contracts/ACB.sol\":5766:5778  iterations++ */\n      dup2\n      dup1\n      tag_265\n      swap1\n      tag_264\n      jump\t// in\n    tag_265:\n      swap3\n      pop\n      pop\n        /* \"contracts/ACB.sol\":4797:5790  while (gasUsed < dividendGas && iterations < lpHolderCount) {... */\n      jump(tag_246)\n    tag_247:\n        /* \"contracts/ACB.sol\":5832:5844  block.number */\n      number\n        /* \"contracts/ACB.sol\":5810:5829  progressRewardBlock */\n      0x07\n        /* \"contracts/ACB.sol\":5810:5844  progressRewardBlock = block.number */\n      sstore\n        /* \"contracts/ACB.sol\":5855:5875  ariver(tfmount,user) */\n      tag_266\n        /* \"contracts/ACB.sol\":5862:5869  tfmount */\n      dup12\n        /* \"contracts/ACB.sol\":5870:5874  user */\n      dup12\n        /* \"contracts/ACB.sol\":5855:5861  ariver */\n      tag_267\n        /* \"contracts/ACB.sol\":5855:5875  ariver(tfmount,user) */\n      jump\t// in\n    tag_266:\n      pop\n        /* \"contracts/ACB.sol\":5893:5899  amount */\n      swap3\n      swap10\n        /* \"contracts/ACB.sol\":3932:5907  function processReward(uint256 tfmount,address user)internal returns (uint256) {... */\n      swap9\n      pop\n      pop\n      pop\n      pop\n      pop\n      pop\n      pop\n      pop\n      pop\n      jump\t// out\n        /* \"contracts/ACB.sol\":5915:6554  function ariver(uint256 amount,address sender)internal {... */\n    tag_267:\n        /* \"contracts/ACB.sol\":6029:6035  amount */\n      dup2\n        /* \"contracts/ACB.sol\":6012:6025  totalLpSupply */\n      0x0f\n      0x00\n        /* \"contracts/ACB.sol\":6012:6035  totalLpSupply += amount */\n      dup3\n      dup3\n      sload\n      tag_269\n      swap2\n      swap1\n      tag_241\n      jump\t// in\n    tag_269:\n      swap1\n      swap2\n      sstore\n      pop\n      pop\n      sub(shl(0xa0, 0x01), 0x01)\n        /* \"contracts/ACB.sol\":6053:6074  lpHolderIndex[sender] */\n      dup2\n      and\n      0x00\n      swap1\n      dup2\n      mstore\n        /* \"contracts/ACB.sol\":6053:6066  lpHolderIndex */\n      0x13\n        /* \"contracts/ACB.sol\":6053:6074  lpHolderIndex[sender] */\n      0x20\n      mstore\n      0x40\n      swap1\n      keccak256\n      sload\n        /* \"contracts/ACB.sol\":6048:6074  0 == lpHolderIndex[sender] */\n      iszero\n        /* \"contracts/ACB.sol\":6048:6095  0 == lpHolderIndex[sender] && sender != bnbPair */\n      dup1\n      iszero\n      tag_270\n      jumpi\n      pop\n        /* \"contracts/ACB.sol\":6088:6095  bnbPair */\n      sload(0x06)\n      sub(shl(0xa0, 0x01), 0x01)\n        /* \"contracts/ACB.sol\":6078:6095  sender != bnbPair */\n      dup3\n      dup2\n      and\n        /* \"contracts/ACB.sol\":6088:6095  bnbPair */\n      swap2\n      and\n        /* \"contracts/ACB.sol\":6078:6095  sender != bnbPair */\n      eq\n      iszero\n        /* \"contracts/ACB.sol\":6048:6095  0 == lpHolderIndex[sender] && sender != bnbPair */\n    tag_270:\n        /* \"contracts/ACB.sol\":6044:6529  if (0 == lpHolderIndex[sender] && sender != bnbPair) {... */\n      iszero\n      tag_271\n      jumpi\n      sub(shl(0xa0, 0x01), 0x01)\n        /* \"contracts/ACB.sol\":6108:6127  _LpBalances[sender] */\n      dup2\n      and\n      0x00\n      swap1\n      dup2\n      mstore\n        /* \"contracts/ACB.sol\":6108:6119  _LpBalances */\n      0x10\n        /* \"contracts/ACB.sol\":6108:6127  _LpBalances[sender] */\n      0x20\n      mstore\n      0x40\n      dup2\n      keccak256\n        /* \"contracts/ACB.sol\":6108:6137  _LpBalances[sender] += amount */\n      dup1\n      sload\n        /* \"contracts/ACB.sol\":6131:6137  amount */\n      dup5\n      swap3\n        /* \"contracts/ACB.sol\":6108:6127  _LpBalances[sender] */\n      swap1\n        /* \"contracts/ACB.sol\":6108:6137  _LpBalances[sender] += amount */\n      tag_272\n      swap1\n        /* \"contracts/ACB.sol\":6131:6137  amount */\n      dup5\n      swap1\n        /* \"contracts/ACB.sol\":6108:6137  _LpBalances[sender] += amount */\n      tag_241\n      jump\t// in\n    tag_272:\n      swap1\n      swap2\n      sstore\n      pop\n      pop\n      sub(shl(0xa0, 0x01), 0x01)\n        /* \"contracts/ACB.sol\":6148:6167  _lastLpTime[sender] */\n      dup2\n      and\n      0x00\n      swap1\n      dup2\n      mstore\n        /* \"contracts/ACB.sol\":6148:6159  _lastLpTime */\n      0x11\n        /* \"contracts/ACB.sol\":6148:6167  _lastLpTime[sender] */\n      0x20\n      swap1\n      dup2\n      mstore\n      0x40\n      dup1\n      dup4\n      keccak256\n        /* \"contracts/ACB.sol\":6170:6185  block.timestamp */\n      timestamp\n        /* \"contracts/ACB.sol\":6148:6185  _lastLpTime[sender] = block.timestamp */\n      swap1\n      sstore\n        /* \"contracts/ACB.sol\":6196:6204  _lastEth */\n      0x12\n        /* \"contracts/ACB.sol\":6196:6212  _lastEth[sender] */\n      swap1\n      swap2\n      mstore\n      dup2\n      keccak256\n        /* \"contracts/ACB.sol\":6196:6225  _lastEth[sender] += msg.value */\n      dup1\n      sload\n        /* \"contracts/ACB.sol\":6216:6225  msg.value */\n      callvalue\n      swap3\n        /* \"contracts/ACB.sol\":6148:6167  _lastLpTime[sender] */\n      swap1\n        /* \"contracts/ACB.sol\":6196:6225  _lastEth[sender] += msg.value */\n      tag_273\n      swap1\n        /* \"contracts/ACB.sol\":6216:6225  msg.value */\n      dup5\n      swap1\n        /* \"contracts/ACB.sol\":6196:6225  _lastEth[sender] += msg.value */\n      tag_241\n      jump\t// in\n    tag_273:\n      swap1\n      swap2\n      sstore\n      pop\n      pop\n        /* \"contracts/ACB.sol\":6466:6475  lpHolders */\n      0x14\n        /* \"contracts/ACB.sol\":6466:6482  lpHolders.length */\n      dup1\n      sload\n      sub(shl(0xa0, 0x01), 0x01)\n        /* \"contracts/ACB.sol\":6442:6463  lpHolderIndex[sender] */\n      dup4\n      and\n      0x00\n      dup2\n      dup2\n      mstore\n        /* \"contracts/ACB.sol\":6442:6455  lpHolderIndex */\n      0x13\n        /* \"contracts/ACB.sol\":6442:6463  lpHolderIndex[sender] */\n      0x20\n      mstore\n      0x40\n      dup2\n      keccak256\n        /* \"contracts/ACB.sol\":6442:6482  lpHolderIndex[sender] = lpHolders.length */\n      dup4\n      swap1\n      sstore\n        /* \"contracts/ACB.sol\":6495:6517  lpHolders.push(sender) */\n      0x01\n      dup4\n      add\n      dup5\n      sstore\n      swap3\n      swap1\n      swap3\n      mstore\n      0xce6d7b5282bd9a3661ae061feed1dbda4e52ab073b1f9285be6e155d9c38d4ec\n      add\n      dup1\n      sload\n      not(sub(shl(0xa0, 0x01), 0x01))\n      and\n      swap1\n      swap2\n      or\n      swap1\n      sstore\n        /* \"contracts/ACB.sol\":6044:6529  if (0 == lpHolderIndex[sender] && sender != bnbPair) {... */\n    tag_271:\n        /* \"contracts/ACB.sol\":5915:6554  function ariver(uint256 amount,address sender)internal {... */\n      pop\n      pop\n      jump\t// out\n        /* \"#utility.yul\":14:562   */\n    tag_37:\n        /* \"#utility.yul\":126:130   */\n      0x00\n        /* \"#utility.yul\":155:157   */\n      0x20\n        /* \"#utility.yul\":184:186   */\n      dup1\n        /* \"#utility.yul\":173:182   */\n      dup4\n        /* \"#utility.yul\":166:187   */\n      mstore\n        /* \"#utility.yul\":216:222   */\n      dup4\n        /* \"#utility.yul\":210:223   */\n      mload\n        /* \"#utility.yul\":259:265   */\n      dup1\n        /* \"#utility.yul\":254:256   */\n      dup3\n        /* \"#utility.yul\":243:252   */\n      dup6\n        /* \"#utility.yul\":239:257   */\n      add\n        /* \"#utility.yul\":232:266   */\n      mstore\n        /* \"#utility.yul\":284:285   */\n      0x00\n        /* \"#utility.yul\":294:434   */\n    tag_279:\n        /* \"#utility.yul\":308:314   */\n      dup2\n        /* \"#utility.yul\":305:306   */\n      dup2\n        /* \"#utility.yul\":302:315   */\n      lt\n        /* \"#utility.yul\":294:434   */\n      iszero\n      tag_281\n      jumpi\n        /* \"#utility.yul\":403:417   */\n      dup6\n      dup2\n      add\n        /* \"#utility.yul\":399:422   */\n      dup4\n      add\n        /* \"#utility.yul\":393:423   */\n      mload\n        /* \"#utility.yul\":369:386   */\n      dup6\n      dup3\n      add\n        /* \"#utility.yul\":388:390   */\n      0x40\n        /* \"#utility.yul\":365:391   */\n      add\n        /* \"#utility.yul\":358:424   */\n      mstore\n        /* \"#utility.yul\":323:333   */\n      dup3\n      add\n        /* \"#utility.yul\":294:434   */\n      jump(tag_279)\n    tag_281:\n        /* \"#utility.yul\":298:301   */\n      pop\n        /* \"#utility.yul\":483:484   */\n      0x00\n        /* \"#utility.yul\":478:480   */\n      0x40\n        /* \"#utility.yul\":469:475   */\n      dup3\n        /* \"#utility.yul\":458:467   */\n      dup7\n        /* \"#utility.yul\":454:476   */\n      add\n        /* \"#utility.yul\":450:481   */\n      add\n        /* \"#utility.yul\":443:485   */\n      mstore\n        /* \"#utility.yul\":553:555   */\n      0x40\n        /* \"#utility.yul\":546:548   */\n      0x1f\n        /* \"#utility.yul\":542:549   */\n      not\n        /* \"#utility.yul\":537:539   */\n      0x1f\n        /* \"#utility.yul\":529:535   */\n      dup4\n        /* \"#utility.yul\":525:540   */\n      add\n        /* \"#utility.yul\":521:550   */\n      and\n        /* \"#utility.yul\":510:519   */\n      dup6\n        /* \"#utility.yul\":506:551   */\n      add\n        /* \"#utility.yul\":502:556   */\n      add\n        /* \"#utility.yul\":494:556   */\n      swap3\n      pop\n      pop\n      pop\n        /* \"#utility.yul\":14:562   */\n      swap3\n      swap2\n      pop\n      pop\n      jump\t// out\n        /* \"#utility.yul\":567:740   */\n    tag_275:\n        /* \"#utility.yul\":635:655   */\n      dup1\n      calldataload\n      sub(shl(0xa0, 0x01), 0x01)\n        /* \"#utility.yul\":684:715   */\n      dup2\n      and\n        /* \"#utility.yul\":674:716   */\n      dup2\n      eq\n        /* \"#utility.yul\":664:734   */\n      tag_283\n      jumpi\n        /* \"#utility.yul\":730:731   */\n      0x00\n        /* \"#utility.yul\":727:728   */\n      dup1\n        /* \"#utility.yul\":720:732   */\n      revert\n        /* \"#utility.yul\":664:734   */\n    tag_283:\n        /* \"#utility.yul\":567:740   */\n      swap2\n      swap1\n      pop\n      jump\t// out\n        /* \"#utility.yul\":745:999   */\n    tag_40:\n        /* \"#utility.yul\":813:819   */\n      0x00\n        /* \"#utility.yul\":821:827   */\n      dup1\n        /* \"#utility.yul\":874:876   */\n      0x40\n        /* \"#utility.yul\":862:871   */\n      dup4\n        /* \"#utility.yul\":853:860   */\n      dup6\n        /* \"#utility.yul\":849:872   */\n      sub\n        /* \"#utility.yul\":845:877   */\n      slt\n        /* \"#utility.yul\":842:894   */\n      iszero\n      tag_285\n      jumpi\n        /* \"#utility.yul\":890:891   */\n      0x00\n        /* \"#utility.yul\":887:888   */\n      dup1\n        /* \"#utility.yul\":880:892   */\n      revert\n        /* \"#utility.yul\":842:894   */\n    tag_285:\n        /* \"#utility.yul\":913:942   */\n      tag_286\n        /* \"#utility.yul\":932:941   */\n      dup4\n        /* \"#utility.yul\":913:942   */\n      tag_275\n      jump\t// in\n    tag_286:\n        /* \"#utility.yul\":903:942   */\n      swap5\n        /* \"#utility.yul\":989:991   */\n      0x20\n        /* \"#utility.yul\":974:992   */\n      swap4\n      swap1\n      swap4\n      add\n        /* \"#utility.yul\":961:993   */\n      calldataload\n      swap4\n      pop\n      pop\n      pop\n        /* \"#utility.yul\":745:999   */\n      jump\t// out\n        /* \"#utility.yul\":1196:1382   */\n    tag_46:\n        /* \"#utility.yul\":1255:1261   */\n      0x00\n        /* \"#utility.yul\":1308:1310   */\n      0x20\n        /* \"#utility.yul\":1296:1305   */\n      dup3\n        /* \"#utility.yul\":1287:1294   */\n      dup5\n        /* \"#utility.yul\":1283:1306   */\n      sub\n        /* \"#utility.yul\":1279:1311   */\n      slt\n        /* \"#utility.yul\":1276:1328   */\n      iszero\n      tag_289\n      jumpi\n        /* \"#utility.yul\":1324:1325   */\n      0x00\n        /* \"#utility.yul\":1321:1322   */\n      dup1\n        /* \"#utility.yul\":1314:1326   */\n      revert\n        /* \"#utility.yul\":1276:1328   */\n    tag_289:\n        /* \"#utility.yul\":1347:1376   */\n      tag_290\n        /* \"#utility.yul\":1366:1375   */\n      dup3\n        /* \"#utility.yul\":1347:1376   */\n      tag_275\n      jump\t// in\n    tag_290:\n        /* \"#utility.yul\":1337:1376   */\n      swap4\n        /* \"#utility.yul\":1196:1382   */\n      swap3\n      pop\n      pop\n      pop\n      jump\t// out\n        /* \"#utility.yul\":1569:1897   */\n    tag_61:\n        /* \"#utility.yul\":1646:1652   */\n      0x00\n        /* \"#utility.yul\":1654:1660   */\n      dup1\n        /* \"#utility.yul\":1662:1668   */\n      0x00\n        /* \"#utility.yul\":1715:1717   */\n      0x60\n        /* \"#utility.yul\":1703:1712   */\n      dup5\n        /* \"#utility.yul\":1694:1701   */\n      dup7\n        /* \"#utility.yul\":1690:1713   */\n      sub\n        /* \"#utility.yul\":1686:1718   */\n      slt\n        /* \"#utility.yul\":1683:1735   */\n      iszero\n      tag_293\n      jumpi\n        /* \"#utility.yul\":1731:1732   */\n      0x00\n        /* \"#utility.yul\":1728:1729   */\n      dup1\n        /* \"#utility.yul\":1721:1733   */\n      revert\n        /* \"#utility.yul\":1683:1735   */\n    tag_293:\n        /* \"#utility.yul\":1754:1783   */\n      tag_294\n        /* \"#utility.yul\":1773:1782   */\n      dup5\n        /* \"#utility.yul\":1754:1783   */\n      tag_275\n      jump\t// in\n    tag_294:\n        /* \"#utility.yul\":1744:1783   */\n      swap3\n      pop\n        /* \"#utility.yul\":1802:1840   */\n      tag_295\n        /* \"#utility.yul\":1836:1838   */\n      0x20\n        /* \"#utility.yul\":1825:1834   */\n      dup6\n        /* \"#utility.yul\":1821:1839   */\n      add\n        /* \"#utility.yul\":1802:1840   */\n      tag_275\n      jump\t// in\n    tag_295:\n        /* \"#utility.yul\":1792:1840   */\n      swap2\n      pop\n        /* \"#utility.yul\":1887:1889   */\n      0x40\n        /* \"#utility.yul\":1876:1885   */\n      dup5\n        /* \"#utility.yul\":1872:1890   */\n      add\n        /* \"#utility.yul\":1859:1891   */\n      calldataload\n        /* \"#utility.yul\":1849:1891   */\n      swap1\n      pop\n        /* \"#utility.yul\":1569:1897   */\n      swap3\n      pop\n      swap3\n      pop\n      swap3\n      jump\t// out\n        /* \"#utility.yul\":2091:2271   */\n    tag_79:\n        /* \"#utility.yul\":2150:2156   */\n      0x00\n        /* \"#utility.yul\":2203:2205   */\n      0x20\n        /* \"#utility.yul\":2191:2200   */\n      dup3\n        /* \"#utility.yul\":2182:2189   */\n      dup5\n        /* \"#utility.yul\":2178:2201   */\n      sub\n        /* \"#utility.yul\":2174:2206   */\n      slt\n        /* \"#utility.yul\":2171:2223   */\n      iszero\n      tag_298\n      jumpi\n        /* \"#utility.yul\":2219:2220   */\n      0x00\n        /* \"#utility.yul\":2216:2217   */\n      dup1\n        /* \"#utility.yul\":2209:2221   */\n      revert\n        /* \"#utility.yul\":2171:2223   */\n    tag_298:\n      pop\n        /* \"#utility.yul\":2242:2265   */\n      calldataload\n      swap2\n        /* \"#utility.yul\":2091:2271   */\n      swap1\n      pop\n      jump\t// out\n        /* \"#utility.yul\":2484:2744   */\n    tag_135:\n        /* \"#utility.yul\":2552:2558   */\n      0x00\n        /* \"#utility.yul\":2560:2566   */\n      dup1\n        /* \"#utility.yul\":2613:2615   */\n      0x40\n        /* \"#utility.yul\":2601:2610   */\n      dup4\n        /* \"#utility.yul\":2592:2599   */\n      dup6\n        /* \"#utility.yul\":2588:2611   */\n      sub\n        /* \"#utility.yul\":2584:2616   */\n      slt\n        /* \"#utility.yul\":2581:2633   */\n      iszero\n      tag_301\n      jumpi\n        /* \"#utility.yul\":2629:2630   */\n      0x00\n        /* \"#utility.yul\":2626:2627   */\n      dup1\n        /* \"#utility.yul\":2619:2631   */\n      revert\n        /* \"#utility.yul\":2581:2633   */\n    tag_301:\n        /* \"#utility.yul\":2652:2681   */\n      tag_302\n        /* \"#utility.yul\":2671:2680   */\n      dup4\n        /* \"#utility.yul\":2652:2681   */\n      tag_275\n      jump\t// in\n    tag_302:\n        /* \"#utility.yul\":2642:2681   */\n      swap2\n      pop\n        /* \"#utility.yul\":2700:2738   */\n      tag_303\n        /* \"#utility.yul\":2734:2736   */\n      0x20\n        /* \"#utility.yul\":2723:2732   */\n      dup5\n        /* \"#utility.yul\":2719:2737   */\n      add\n        /* \"#utility.yul\":2700:2738   */\n      tag_275\n      jump\t// in\n    tag_303:\n        /* \"#utility.yul\":2690:2738   */\n      swap1\n      pop\n        /* \"#utility.yul\":2484:2744   */\n      swap3\n      pop\n      swap3\n      swap1\n      pop\n      jump\t// out\n        /* \"#utility.yul\":2749:3129   */\n    tag_149:\n        /* \"#utility.yul\":2828:2829   */\n      0x01\n        /* \"#utility.yul\":2824:2836   */\n      dup2\n      dup2\n      shr\n      swap1\n        /* \"#utility.yul\":2871:2883   */\n      dup3\n      and\n      dup1\n        /* \"#utility.yul\":2892:2953   */\n      tag_305\n      jumpi\n        /* \"#utility.yul\":2946:2950   */\n      0x7f\n        /* \"#utility.yul\":2938:2944   */\n      dup3\n        /* \"#utility.yul\":2934:2951   */\n      and\n        /* \"#utility.yul\":2924:2951   */\n      swap2\n      pop\n        /* \"#utility.yul\":2892:2953   */\n    tag_305:\n        /* \"#utility.yul\":2999:3001   */\n      0x20\n        /* \"#utility.yul\":2991:2997   */\n      dup3\n        /* \"#utility.yul\":2988:3002   */\n      lt\n        /* \"#utility.yul\":2968:2986   */\n      dup2\n        /* \"#utility.yul\":2965:3003   */\n      sub\n        /* \"#utility.yul\":2962:3123   */\n      tag_306\n      jumpi\n        /* \"#utility.yul\":3045:3055   */\n      0x4e487b71\n        /* \"#utility.yul\":3040:3043   */\n      0xe0\n        /* \"#utility.yul\":3036:3056   */\n      shl\n        /* \"#utility.yul\":3033:3034   */\n      0x00\n        /* \"#utility.yul\":3026:3057   */\n      mstore\n        /* \"#utility.yul\":3080:3084   */\n      0x22\n        /* \"#utility.yul\":3077:3078   */\n      0x04\n        /* \"#utility.yul\":3070:3085   */\n      mstore\n        /* \"#utility.yul\":3108:3112   */\n      0x24\n        /* \"#utility.yul\":3105:3106   */\n      0x00\n        /* \"#utility.yul\":3098:3113   */\n      revert\n        /* \"#utility.yul\":2962:3123   */\n    tag_306:\n      pop\n        /* \"#utility.yul\":2749:3129   */\n      swap2\n      swap1\n      pop\n      jump\t// out\n        /* \"#utility.yul\":3134:3490   */\n    tag_167:\n        /* \"#utility.yul\":3336:3338   */\n      0x20\n        /* \"#utility.yul\":3318:3339   */\n      dup1\n      dup3\n      mstore\n        /* \"#utility.yul\":3355:3373   */\n      dup2\n      dup2\n      add\n        /* \"#utility.yul\":3348:3378   */\n      mstore\n        /* \"#utility.yul\":3414:3448   */\n      0x4f776e61626c653a2063616c6c6572206973206e6f7420746865206f776e6572\n        /* \"#utility.yul\":3409:3411   */\n      0x40\n        /* \"#utility.yul\":3394:3412   */\n      dup3\n      add\n        /* \"#utility.yul\":3387:3449   */\n      mstore\n        /* \"#utility.yul\":3481:3483   */\n      0x60\n        /* \"#utility.yul\":3466:3484   */\n      add\n      swap1\n        /* \"#utility.yul\":3134:3490   */\n      jump\t// out\n        /* \"#utility.yul\":3853:3980   */\n    tag_276:\n        /* \"#utility.yul\":3914:3924   */\n      0x4e487b71\n        /* \"#utility.yul\":3909:3912   */\n      0xe0\n        /* \"#utility.yul\":3905:3925   */\n      shl\n        /* \"#utility.yul\":3902:3903   */\n      0x00\n        /* \"#utility.yul\":3895:3926   */\n      mstore\n        /* \"#utility.yul\":3945:3949   */\n      0x11\n        /* \"#utility.yul\":3942:3943   */\n      0x04\n        /* \"#utility.yul\":3935:3950   */\n      mstore\n        /* \"#utility.yul\":3969:3973   */\n      0x24\n        /* \"#utility.yul\":3966:3967   */\n      0x00\n        /* \"#utility.yul\":3959:3974   */\n      revert\n        /* \"#utility.yul\":3985:4153   */\n    tag_219:\n        /* \"#utility.yul\":4058:4067   */\n      dup1\n      dup3\n      mul\n        /* \"#utility.yul\":4089:4098   */\n      dup2\n      iszero\n        /* \"#utility.yul\":4106:4121   */\n      dup3\n      dup3\n      div\n        /* \"#utility.yul\":4100:4122   */\n      dup5\n      eq\n        /* \"#utility.yul\":4086:4123   */\n      or\n        /* \"#utility.yul\":4076:4147   */\n      tag_154\n      jumpi\n        /* \"#utility.yul\":4127:4145   */\n      tag_154\n      tag_276\n      jump\t// in\n        /* \"#utility.yul\":4158:4375   */\n    tag_221:\n        /* \"#utility.yul\":4198:4199   */\n      0x00\n        /* \"#utility.yul\":4224:4225   */\n      dup3\n        /* \"#utility.yul\":4214:4346   */\n      tag_314\n      jumpi\n        /* \"#utility.yul\":4268:4278   */\n      0x4e487b71\n        /* \"#utility.yul\":4263:4266   */\n      0xe0\n        /* \"#utility.yul\":4259:4279   */\n      shl\n        /* \"#utility.yul\":4256:4257   */\n      0x00\n        /* \"#utility.yul\":4249:4280   */\n      mstore\n        /* \"#utility.yul\":4303:4307   */\n      0x12\n        /* \"#utility.yul\":4300:4301   */\n      0x04\n        /* \"#utility.yul\":4293:4308   */\n      mstore\n        /* \"#utility.yul\":4331:4335   */\n      0x24\n        /* \"#utility.yul\":4328:4329   */\n      0x00\n        /* \"#utility.yul\":4321:4336   */\n      revert\n        /* \"#utility.yul\":4214:4346   */\n    tag_314:\n      pop\n        /* \"#utility.yul\":4360:4369   */\n      div\n      swap1\n        /* \"#utility.yul\":4158:4375   */\n      jump\t// out\n        /* \"#utility.yul\":4380:4782   */\n    tag_232:\n        /* \"#utility.yul\":4582:4584   */\n      0x20\n        /* \"#utility.yul\":4564:4585   */\n      dup1\n      dup3\n      mstore\n        /* \"#utility.yul\":4621:4623   */\n      0x26\n        /* \"#utility.yul\":4601:4619   */\n      swap1\n      dup3\n      add\n        /* \"#utility.yul\":4594:4624   */\n      mstore\n        /* \"#utility.yul\":4660:4694   */\n      0x45524332303a207472616e7366657220616d6f756e7420657863656564732062\n        /* \"#utility.yul\":4655:4657   */\n      0x40\n        /* \"#utility.yul\":4640:4658   */\n      dup3\n      add\n        /* \"#utility.yul\":4633:4695   */\n      mstore\n      shl(0xd0, 0x616c616e6365)\n        /* \"#utility.yul\":4726:4728   */\n      0x60\n        /* \"#utility.yul\":4711:4729   */\n      dup3\n      add\n        /* \"#utility.yul\":4704:4740   */\n      mstore\n        /* \"#utility.yul\":4772:4775   */\n      0x80\n        /* \"#utility.yul\":4757:4776   */\n      add\n      swap1\n        /* \"#utility.yul\":4380:4782   */\n      jump\t// out\n        /* \"#utility.yul\":4787:4912   */\n    tag_241:\n        /* \"#utility.yul\":4852:4861   */\n      dup1\n      dup3\n      add\n        /* \"#utility.yul\":4873:4883   */\n      dup1\n      dup3\n      gt\n        /* \"#utility.yul\":4870:4906   */\n      iszero\n      tag_154\n      jumpi\n        /* \"#utility.yul\":4886:4904   */\n      tag_154\n      tag_276\n      jump\t// in\n        /* \"#utility.yul\":4917:5045   */\n    tag_244:\n        /* \"#utility.yul\":4984:4993   */\n      dup2\n      dup2\n      sub\n        /* \"#utility.yul\":5005:5016   */\n      dup2\n      dup2\n      gt\n        /* \"#utility.yul\":5002:5039   */\n      iszero\n      tag_154\n      jumpi\n        /* \"#utility.yul\":5019:5037   */\n      tag_154\n      tag_276\n      jump\t// in\n        /* \"#utility.yul\":5050:5177   */\n    tag_252:\n        /* \"#utility.yul\":5111:5121   */\n      0x4e487b71\n        /* \"#utility.yul\":5106:5109   */\n      0xe0\n        /* \"#utility.yul\":5102:5122   */\n      shl\n        /* \"#utility.yul\":5099:5100   */\n      0x00\n        /* \"#utility.yul\":5092:5123   */\n      mstore\n        /* \"#utility.yul\":5142:5146   */\n      0x32\n        /* \"#utility.yul\":5139:5140   */\n      0x04\n        /* \"#utility.yul\":5132:5147   */\n      mstore\n        /* \"#utility.yul\":5166:5170   */\n      0x24\n        /* \"#utility.yul\":5163:5164   */\n      0x00\n        /* \"#utility.yul\":5156:5171   */\n      revert\n        /* \"#utility.yul\":5182:5317   */\n    tag_264:\n        /* \"#utility.yul\":5221:5224   */\n      0x00\n        /* \"#utility.yul\":5242:5259   */\n      0x01\n      dup3\n      add\n        /* \"#utility.yul\":5239:5282   */\n      tag_325\n      jumpi\n        /* \"#utility.yul\":5262:5280   */\n      tag_325\n      tag_276\n      jump\t// in\n    tag_325:\n      pop\n        /* \"#utility.yul\":5309:5310   */\n      0x01\n        /* \"#utility.yul\":5298:5311   */\n      add\n      swap1\n        /* \"#utility.yul\":5182:5317   */\n      jump\t// out\n    stop\n    data_ada389e1fc24a8587c776340efb91b36e675792ab631816100d55df0b5cf3cbc ddf252ad1be2c89b69c2b068fc378daa952ba7f163c4a11628f55a4df523b3ef\n\n    auxdata: 0xa2646970667358221220343fc313f6bf9a03694870ed0851b99377157b5bf55b5e75b7f73274bb5ab5a064736f6c63430008140033\n}\n",
				"bytecode": {
					"linkReferences": {},
					"object": "60a060405234801562000010575f80fd5b5060408051808201825260038082526220a1a160e91b60208084018290528451808601909552918452908301529060126c0c9f2c9cd04674edea4000000060026200005c858262000227565b5060036200006b848262000227565b5060ff82166080526200007f3382620000c3565b5050600580546001600160a01b0319163317905550505f600f81905560c86008556402540be4006009556207a120600a55600c819055600b819055600e5562000315565b6001600160a01b0382166200011e5760405162461bcd60e51b815260206004820152601f60248201527f45524332303a206d696e7420746f20746865207a65726f206164647265737300604482015260640160405180910390fd5b8060045f828254620001319190620002ef565b90915550506001600160a01b0382165f81815260208181526040808320805486019055518481527fddf252ad1be2c89b69c2b068fc378daa952ba7f163c4a11628f55a4df523b3ef910160405180910390a35050565b634e487b7160e01b5f52604160045260245ffd5b600181811c90821680620001b057607f821691505b602082108103620001cf57634e487b7160e01b5f52602260045260245ffd5b50919050565b601f82111562000222575f81815260208120601f850160051c81016020861015620001fd5750805b601f850160051c820191505b818110156200021e5782815560010162000209565b5050505b505050565b81516001600160401b0381111562000243576200024362000187565b6200025b816200025484546200019b565b84620001d5565b602080601f83116001811462000291575f8415620002795750858301515b5f19600386901b1c1916600185901b1785556200021e565b5f85815260208120601f198616915b82811015620002c157888601518255948401946001909101908401620002a0565b5085821015620002df57878501515f19600388901b60f8161c191681555b5050505050600190811b01905550565b808201808211156200030f57634e487b7160e01b5f52601160045260245ffd5b92915050565b608051610eec6200032e5f395f6102220152610eec5ff3fe608060405234801561000f575f80fd5b5060043610610173575f3560e01c806306fdde0314610177578063095ea7b3146101955780630affb402146101b85780631210c434146101e55780631357a1de146101ee57806318160ddd146101f757806323b872dd146101ff5780632a59551214610212578063313ce5671461021b57806346bb92711461024c578063621f9c0a146102615780636689567e1461026a57806368698b481461027d5780636aedea731461029c57806370a08231146102a55780637ef925f7146102cd57806386623a06146102e05780638da5cb5b146102ff57806395d89b411461032a5780639f0d7eb814610332578063a9059cbb14610345578063add0a6c614610358578063b367bf8314610361578063b510efa61461036a578063bd87670214610389578063c213d62d14610392578063c7003ed0146103a5578063dd62ed3e146103b8578063eb10b741146103f0578063ed9a165d146103f9578063f2fde38b1461040c575b5f80fd5b61017f61041f565b60405161018c9190610c18565b60405180910390f35b6101a86101a3366004610c7e565b6104af565b604051901515815260200161018c565b6101d76101c6366004610ca6565b60136020525f908152604090205481565b60405190815260200161018c565b6101d7600d5481565b6101d7600e5481565b6004546101d7565b6101a861020d366004610cc6565b6104c5565b6101d760075481565b60405160ff7f000000000000000000000000000000000000000000000000000000000000000016815260200161018c565b61025f61025a366004610ca6565b6104e6565b005b6101d7600b5481565b61025f610278366004610cff565b61053b565b6101d761028b366004610ca6565b60106020525f908152604090205481565b6101d7600f5481565b6101d76102b3366004610ca6565b6001600160a01b03165f9081526020819052604090205490565b61025f6102db366004610cff565b61056a565b6101d76102ee366004610ca6565b60116020525f908152604090205481565b600554610312906001600160a01b031681565b6040516001600160a01b03909116815260200161018c565b61017f610599565b610312610340366004610cff565b6105a8565b6101a8610353366004610c7e565b6105d0565b6101d760085481565b6101d7600c5481565b6101d7610378366004610ca6565b60126020525f908152604090205481565b6101d7600a5481565b61025f6103a0366004610cff565b6105dc565b61025f6103b3366004610cff565b61060b565b6101d76103c6366004610d16565b6001600160a01b039182165f90815260016020908152604080832093909416825291909152205490565b6101d760095481565b600654610312906001600160a01b031681565b61025f61041a366004610ca6565b61063a565b60606003805461042e90610d47565b80601f016020809104026020016040519081016040528092919081815260200182805461045a90610d47565b80156104a55780601f1061047c576101008083540402835291602001916104a5565b820191905f5260205f20905b81548152906001019060200180831161048857829003601f168201915b5050505050905090565b5f6104bb338484610686565b5060015b92915050565b5f6104d18433846106e7565b6104dc848484610777565b5060019392505050565b6005546001600160a01b031633146105195760405162461bcd60e51b815260040161051090610d7f565b60405180910390fd5b600680546001600160a01b0319166001600160a01b0392909216919091179055565b6005546001600160a01b031633146105655760405162461bcd60e51b815260040161051090610d7f565b600a55565b6005546001600160a01b031633146105945760405162461bcd60e51b815260040161051090610d7f565b600e55565b60606002805461042e90610d47565b601481815481106105b7575f80fd5b5f918252602090912001546001600160a01b0316905081565b5f6104bb338484610777565b6005546001600160a01b031633146106065760405162461bcd60e51b815260040161051090610d7f565b600955565b6005546001600160a01b031633146106355760405162461bcd60e51b815260040161051090610d7f565b600855565b6005546001600160a01b031633146106645760405162461bcd60e51b815260040161051090610d7f565b600580546001600160a01b0319166001600160a01b0392909216919091179055565b6001600160a01b038381165f8181526001602090815260408083209487168084529482529182902085905590518481527f8c5be1e5ebec7d5bd14f71427d1e84f3dd0314c0f7b2291e5b200ac8c7c3b92591015b60405180910390a3505050565b6001600160a01b038084165f908152600160209081526040808320938616835292905220545f19811461077157818110156107645760405162461bcd60e51b815260206004820152601d60248201527f45524332303a20696e73756666696369656e7420616c6c6f77616e63650000006044820152606401610510565b6107718484848403610686565b50505050565b6006546001600160a01b0316823b80158015906107a65750816001600160a01b0316846001600160a01b031614155b80156107b45750600e546001145b156107c0575050505050565b6005546001600160a01b03908116908616036107e8576107e1858585610867565b5050505050565b6107f285846108f2565b5f6103e861080185600a610dc8565b61080b9190610ddf565b905061082c8673bf1c5c87b4b0f37443819cbb956215982d9f8a4b83610948565b6108398661dead83610948565b610844863083610948565b6108548686836003028703610948565b61085e8187610987565b50505050505050565b6001600160a01b0383165f908152602081905260409020548181101561089f5760405162461bcd60e51b815260040161051090610dfe565b6001600160a01b038481165f81815260208181526040808320878703905593871680835291849020805487019055925185815290925f80516020610e97833981519152910160405180910390a350505050565b6001600160a01b0382165f908152602081905260409020548181101561092a5760405162461bcd60e51b815260040161051090610dfe565b6001600160a01b039092165f90815260208190526040902091039055565b6001600160a01b038281165f8181526020818152604091829020805486019055905184815291928616915f80516020610e9783398151915291016106da565b5f82600b5f8282546109999190610e44565b9091555050600b54600c54106109b057505f6104bf565b5f600c54600b546109c19190610e57565b90506009548110156109d6575f9150506104bf565b6014545f90819081908180805a90505b600a54831080156109f657508382105b15610ae85783600d5410610a09575f600d555b6014600d5481548110610a1e57610a1e610e6a565b5f9182526020808320909101546001600160a01b0316808352601090915260409091205490975095508515801590610a6157506001600160a01b03871661dead14155b15610aa757600f54610a73878a610dc8565b610a7d9190610ddf565b94508415610aa757610a90308887610867565b84600c5f828254610aa19190610e44565b90915550505b5a610ab29082610e57565b610abc9084610e44565b92505a600d80549192505f610ad083610e7e565b91905055508180610ae090610e7e565b9250506109e6565b43600755610af68b8b610b05565b50929998505050505050505050565b81600f5f828254610b169190610e44565b90915550506001600160a01b0381165f90815260136020526040902054158015610b4e57506006546001600160a01b03828116911614155b15610c14576001600160a01b0381165f9081526010602052604081208054849290610b7a908490610e44565b90915550506001600160a01b0381165f908152601160209081526040808320429055601290915281208054349290610bb3908490610e44565b9091555050601480546001600160a01b0383165f818152601360205260408120839055600183018455929092527fce6d7b5282bd9a3661ae061feed1dbda4e52ab073b1f9285be6e155d9c38d4ec0180546001600160a01b03191690911790555b5050565b5f6020808352835180828501525f5b81811015610c4357858101830151858201604001528201610c27565b505f604082860101526040601f19601f8301168501019250505092915050565b80356001600160a01b0381168114610c79575f80fd5b919050565b5f8060408385031215610c8f575f80fd5b610c9883610c63565b946020939093013593505050565b5f60208284031215610cb6575f80fd5b610cbf82610c63565b9392505050565b5f805f60608486031215610cd8575f80fd5b610ce184610c63565b9250610cef60208501610c63565b9150604084013590509250925092565b5f60208284031215610d0f575f80fd5b5035919050565b5f8060408385031215610d27575f80fd5b610d3083610c63565b9150610d3e60208401610c63565b90509250929050565b600181811c90821680610d5b57607f821691505b602082108103610d7957634e487b7160e01b5f52602260045260245ffd5b50919050565b6020808252818101527f4f776e61626c653a2063616c6c6572206973206e6f7420746865206f776e6572604082015260600190565b634e487b7160e01b5f52601160045260245ffd5b80820281158282048414176104bf576104bf610db4565b5f82610df957634e487b7160e01b5f52601260045260245ffd5b500490565b60208082526026908201527f45524332303a207472616e7366657220616d6f756e7420657863656564732062604082015265616c616e636560d01b606082015260800190565b808201808211156104bf576104bf610db4565b818103818111156104bf576104bf610db4565b634e487b7160e01b5f52603260045260245ffd5b5f60018201610e8f57610e8f610db4565b506001019056feddf252ad1be2c89b69c2b068fc378daa952ba7f163c4a11628f55a4df523b3efa2646970667358221220343fc313f6bf9a03694870ed0851b99377157b5bf55b5e75b7f73274bb5ab5a064736f6c63430008140033",
					"opcodes": "PUSH1 0xA0 PUSH1 0x40 MSTORE CALLVALUE DUP1 ISZERO PUSH3 0x10 JUMPI PUSH0 DUP1 REVERT JUMPDEST POP PUSH1 0x40 DUP1 MLOAD DUP1 DUP3 ADD DUP3 MSTORE PUSH1 0x3 DUP1 DUP3 MSTORE PUSH3 0x20A1A1 PUSH1 0xE9 SHL PUSH1 0x20 DUP1 DUP5 ADD DUP3 SWAP1 MSTORE DUP5 MLOAD DUP1 DUP7 ADD SWAP1 SWAP6 MSTORE SWAP2 DUP5 MSTORE SWAP1 DUP4 ADD MSTORE SWAP1 PUSH1 0x12 PUSH13 0xC9F2C9CD04674EDEA40000000 PUSH1 0x2 PUSH3 0x5C DUP6 DUP3 PUSH3 0x227 JUMP JUMPDEST POP PUSH1 0x3 PUSH3 0x6B DUP5 DUP3 PUSH3 0x227 JUMP JUMPDEST POP PUSH1 0xFF DUP3 AND PUSH1 0x80 MSTORE PUSH3 0x7F CALLER DUP3 PUSH3 0xC3 JUMP JUMPDEST POP POP PUSH1 0x5 DUP1 SLOAD PUSH1 0x1 PUSH1 0x1 PUSH1 0xA0 SHL SUB NOT AND CALLER OR SWAP1 SSTORE POP POP PUSH0 PUSH1 0xF DUP2 SWAP1 SSTORE PUSH1 0xC8 PUSH1 0x8 SSTORE PUSH5 0x2540BE400 PUSH1 0x9 SSTORE PUSH3 0x7A120 PUSH1 0xA SSTORE PUSH1 0xC DUP2 SWAP1 SSTORE PUSH1 0xB DUP2 SWAP1 SSTORE PUSH1 0xE SSTORE PUSH3 0x315 JUMP JUMPDEST PUSH1 0x1 PUSH1 0x1 PUSH1 0xA0 SHL SUB DUP3 AND PUSH3 0x11E JUMPI PUSH1 0x40 MLOAD PUSH3 0x461BCD PUSH1 0xE5 SHL DUP2 MSTORE PUSH1 0x20 PUSH1 0x4 DUP3 ADD MSTORE PUSH1 0x1F PUSH1 0x24 DUP3 ADD MSTORE PUSH32 0x45524332303A206D696E7420746F20746865207A65726F206164647265737300 PUSH1 0x44 DUP3 ADD MSTORE PUSH1 0x64 ADD PUSH1 0x40 MLOAD DUP1 SWAP2 SUB SWAP1 REVERT JUMPDEST DUP1 PUSH1 0x4 PUSH0 DUP3 DUP3 SLOAD PUSH3 0x131 SWAP2 SWAP1 PUSH3 0x2EF JUMP JUMPDEST SWAP1 SWAP2 SSTORE POP POP PUSH1 0x1 PUSH1 0x1 PUSH1 0xA0 SHL SUB DUP3 AND PUSH0 DUP2 DUP2 MSTORE PUSH1 0x20 DUP2 DUP2 MSTORE PUSH1 0x40 DUP1 DUP4 KECCAK256 DUP1 SLOAD DUP7 ADD SWAP1 SSTORE MLOAD DUP5 DUP2 MSTORE PUSH32 0xDDF252AD1BE2C89B69C2B068FC378DAA952BA7F163C4A11628F55A4DF523B3EF SWAP2 ADD PUSH1 0x40 MLOAD DUP1 SWAP2 SUB SWAP1 LOG3 POP POP JUMP JUMPDEST PUSH4 0x4E487B71 PUSH1 0xE0 SHL PUSH0 MSTORE PUSH1 0x41 PUSH1 0x4 MSTORE PUSH1 0x24 PUSH0 REVERT JUMPDEST PUSH1 0x1 DUP2 DUP2 SHR SWAP1 DUP3 AND DUP1 PUSH3 0x1B0 JUMPI PUSH1 0x7F DUP3 AND SWAP2 POP JUMPDEST PUSH1 0x20 DUP3 LT DUP2 SUB PUSH3 0x1CF JUMPI PUSH4 0x4E487B71 PUSH1 0xE0 SHL PUSH0 MSTORE PUSH1 0x22 PUSH1 0x4 MSTORE PUSH1 0x24 PUSH0 REVERT JUMPDEST POP SWAP2 SWAP1 POP JUMP JUMPDEST PUSH1 0x1F DUP3 GT ISZERO PUSH3 0x222 JUMPI PUSH0 DUP2 DUP2 MSTORE PUSH1 0x20 DUP2 KECCAK256 PUSH1 0x1F DUP6 ADD PUSH1 0x5 SHR DUP2 ADD PUSH1 0x20 DUP7 LT ISZERO PUSH3 0x1FD JUMPI POP DUP1 JUMPDEST PUSH1 0x1F DUP6 ADD PUSH1 0x5 SHR DUP3 ADD SWAP2 POP JUMPDEST DUP2 DUP2 LT ISZERO PUSH3 0x21E JUMPI DUP3 DUP2 SSTORE PUSH1 0x1 ADD PUSH3 0x209 JUMP JUMPDEST POP POP POP JUMPDEST POP POP POP JUMP JUMPDEST DUP2 MLOAD PUSH1 0x1 PUSH1 0x1 PUSH1 0x40 SHL SUB DUP2 GT ISZERO PUSH3 0x243 JUMPI PUSH3 0x243 PUSH3 0x187 JUMP JUMPDEST PUSH3 0x25B DUP2 PUSH3 0x254 DUP5 SLOAD PUSH3 0x19B JUMP JUMPDEST DUP5 PUSH3 0x1D5 JUMP JUMPDEST PUSH1 0x20 DUP1 PUSH1 0x1F DUP4 GT PUSH1 0x1 DUP2 EQ PUSH3 0x291 JUMPI PUSH0 DUP5 ISZERO PUSH3 0x279 JUMPI POP DUP6 DUP4 ADD MLOAD JUMPDEST PUSH0 NOT PUSH1 0x3 DUP7 SWAP1 SHL SHR NOT AND PUSH1 0x1 DUP6 SWAP1 SHL OR DUP6 SSTORE PUSH3 0x21E JUMP JUMPDEST PUSH0 DUP6 DUP2 MSTORE PUSH1 0x20 DUP2 KECCAK256 PUSH1 0x1F NOT DUP7 AND SWAP2 JUMPDEST DUP3 DUP2 LT ISZERO PUSH3 0x2C1 JUMPI DUP9 DUP7 ADD MLOAD DUP3 SSTORE SWAP5 DUP5 ADD SWAP5 PUSH1 0x1 SWAP1 SWAP2 ADD SWAP1 DUP5 ADD PUSH3 0x2A0 JUMP JUMPDEST POP DUP6 DUP3 LT ISZERO PUSH3 0x2DF JUMPI DUP8 DUP6 ADD MLOAD PUSH0 NOT PUSH1 0x3 DUP9 SWAP1 SHL PUSH1 0xF8 AND SHR NOT AND DUP2 SSTORE JUMPDEST POP POP POP POP POP PUSH1 0x1 SWAP1 DUP2 SHL ADD SWAP1 SSTORE POP JUMP JUMPDEST DUP1 DUP3 ADD DUP1 DUP3 GT ISZERO PUSH3 0x30F JUMPI PUSH4 0x4E487B71 PUSH1 0xE0 SHL PUSH0 MSTORE PUSH1 0x11 PUSH1 0x4 MSTORE PUSH1 0x24 PUSH0 REVERT JUMPDEST SWAP3 SWAP2 POP POP JUMP JUMPDEST PUSH1 0x80 MLOAD PUSH2 0xEEC PUSH3 0x32E PUSH0 CODECOPY PUSH0 PUSH2 0x222 ADD MSTORE PUSH2 0xEEC PUSH0 RETURN INVALID PUSH1 0x80 PUSH1 0x40 MSTORE CALLVALUE DUP1 ISZERO PUSH2 0xF JUMPI PUSH0 DUP1 REVERT JUMPDEST POP PUSH1 0x4 CALLDATASIZE LT PUSH2 0x173 JUMPI PUSH0 CALLDATALOAD PUSH1 0xE0 SHR DUP1 PUSH4 0x6FDDE03 EQ PUSH2 0x177 JUMPI DUP1 PUSH4 0x95EA7B3 EQ PUSH2 0x195 JUMPI DUP1 PUSH4 0xAFFB402 EQ PUSH2 0x1B8 JUMPI DUP1 PUSH4 0x1210C434 EQ PUSH2 0x1E5 JUMPI DUP1 PUSH4 0x1357A1DE EQ PUSH2 0x1EE JUMPI DUP1 PUSH4 0x18160DDD EQ PUSH2 0x1F7 JUMPI DUP1 PUSH4 0x23B872DD EQ PUSH2 0x1FF JUMPI DUP1 PUSH4 0x2A595512 EQ PUSH2 0x212 JUMPI DUP1 PUSH4 0x313CE567 EQ PUSH2 0x21B JUMPI DUP1 PUSH4 0x46BB9271 EQ PUSH2 0x24C JUMPI DUP1 PUSH4 0x621F9C0A EQ PUSH2 0x261 JUMPI DUP1 PUSH4 0x6689567E EQ PUSH2 0x26A JUMPI DUP1 PUSH4 0x68698B48 EQ PUSH2 0x27D JUMPI DUP1 PUSH4 0x6AEDEA73 EQ PUSH2 0x29C JUMPI DUP1 PUSH4 0x70A08231 EQ PUSH2 0x2A5 JUMPI DUP1 PUSH4 0x7EF925F7 EQ PUSH2 0x2CD JUMPI DUP1 PUSH4 0x86623A06 EQ PUSH2 0x2E0 JUMPI DUP1 PUSH4 0x8DA5CB5B EQ PUSH2 0x2FF JUMPI DUP1 PUSH4 0x95D89B41 EQ PUSH2 0x32A JUMPI DUP1 PUSH4 0x9F0D7EB8 EQ PUSH2 0x332 JUMPI DUP1 PUSH4 0xA9059CBB EQ PUSH2 0x345 JUMPI DUP1 PUSH4 0xADD0A6C6 EQ PUSH2 0x358 JUMPI DUP1 PUSH4 0xB367BF83 EQ PUSH2 0x361 JUMPI DUP1 PUSH4 0xB510EFA6 EQ PUSH2 0x36A JUMPI DUP1 PUSH4 0xBD876702 EQ PUSH2 0x389 JUMPI DUP1 PUSH4 0xC213D62D EQ PUSH2 0x392 JUMPI DUP1 PUSH4 0xC7003ED0 EQ PUSH2 0x3A5 JUMPI DUP1 PUSH4 0xDD62ED3E EQ PUSH2 0x3B8 JUMPI DUP1 PUSH4 0xEB10B741 EQ PUSH2 0x3F0 JUMPI DUP1 PUSH4 0xED9A165D EQ PUSH2 0x3F9 JUMPI DUP1 PUSH4 0xF2FDE38B EQ PUSH2 0x40C JUMPI JUMPDEST PUSH0 DUP1 REVERT JUMPDEST PUSH2 0x17F PUSH2 0x41F JUMP JUMPDEST PUSH1 0x40 MLOAD PUSH2 0x18C SWAP2 SWAP1 PUSH2 0xC18 JUMP JUMPDEST PUSH1 0x40 MLOAD DUP1 SWAP2 SUB SWAP1 RETURN JUMPDEST PUSH2 0x1A8 PUSH2 0x1A3 CALLDATASIZE PUSH1 0x4 PUSH2 0xC7E JUMP JUMPDEST PUSH2 0x4AF JUMP JUMPDEST PUSH1 0x40 MLOAD SWAP1 ISZERO ISZERO DUP2 MSTORE PUSH1 0x20 ADD PUSH2 0x18C JUMP JUMPDEST PUSH2 0x1D7 PUSH2 0x1C6 CALLDATASIZE PUSH1 0x4 PUSH2 0xCA6 JUMP JUMPDEST PUSH1 0x13 PUSH1 0x20 MSTORE PUSH0 SWAP1 DUP2 MSTORE PUSH1 0x40 SWAP1 KECCAK256 SLOAD DUP2 JUMP JUMPDEST PUSH1 0x40 MLOAD SWAP1 DUP2 MSTORE PUSH1 0x20 ADD PUSH2 0x18C JUMP JUMPDEST PUSH2 0x1D7 PUSH1 0xD SLOAD DUP2 JUMP JUMPDEST PUSH2 0x1D7 PUSH1 0xE SLOAD DUP2 JUMP JUMPDEST PUSH1 0x4 SLOAD PUSH2 0x1D7 JUMP JUMPDEST PUSH2 0x1A8 PUSH2 0x20D CALLDATASIZE PUSH1 0x4 PUSH2 0xCC6 JUMP JUMPDEST PUSH2 0x4C5 JUMP JUMPDEST PUSH2 0x1D7 PUSH1 0x7 SLOAD DUP2 JUMP JUMPDEST PUSH1 0x40 MLOAD PUSH1 0xFF PUSH32 0x0 AND DUP2 MSTORE PUSH1 0x20 ADD PUSH2 0x18C JUMP JUMPDEST PUSH2 0x25F PUSH2 0x25A CALLDATASIZE PUSH1 0x4 PUSH2 0xCA6 JUMP JUMPDEST PUSH2 0x4E6 JUMP JUMPDEST STOP JUMPDEST PUSH2 0x1D7 PUSH1 0xB SLOAD DUP2 JUMP JUMPDEST PUSH2 0x25F PUSH2 0x278 CALLDATASIZE PUSH1 0x4 PUSH2 0xCFF JUMP JUMPDEST PUSH2 0x53B JUMP JUMPDEST PUSH2 0x1D7 PUSH2 0x28B CALLDATASIZE PUSH1 0x4 PUSH2 0xCA6 JUMP JUMPDEST PUSH1 0x10 PUSH1 0x20 MSTORE PUSH0 SWAP1 DUP2 MSTORE PUSH1 0x40 SWAP1 KECCAK256 SLOAD DUP2 JUMP JUMPDEST PUSH2 0x1D7 PUSH1 0xF SLOAD DUP2 JUMP JUMPDEST PUSH2 0x1D7 PUSH2 0x2B3 CALLDATASIZE PUSH1 0x4 PUSH2 0xCA6 JUMP JUMPDEST PUSH1 0x1 PUSH1 0x1 PUSH1 0xA0 SHL SUB AND PUSH0 SWAP1 DUP2 MSTORE PUSH1 0x20 DUP2 SWAP1 MSTORE PUSH1 0x40 SWAP1 KECCAK256 SLOAD SWAP1 JUMP JUMPDEST PUSH2 0x25F PUSH2 0x2DB CALLDATASIZE PUSH1 0x4 PUSH2 0xCFF JUMP JUMPDEST PUSH2 0x56A JUMP JUMPDEST PUSH2 0x1D7 PUSH2 0x2EE CALLDATASIZE PUSH1 0x4 PUSH2 0xCA6 JUMP JUMPDEST PUSH1 0x11 PUSH1 0x20 MSTORE PUSH0 SWAP1 DUP2 MSTORE PUSH1 0x40 SWAP1 KECCAK256 SLOAD DUP2 JUMP JUMPDEST PUSH1 0x5 SLOAD PUSH2 0x312 SWAP1 PUSH1 0x1 PUSH1 0x1 PUSH1 0xA0 SHL SUB AND DUP2 JUMP JUMPDEST PUSH1 0x40 MLOAD PUSH1 0x1 PUSH1 0x1 PUSH1 0xA0 SHL SUB SWAP1 SWAP2 AND DUP2 MSTORE PUSH1 0x20 ADD PUSH2 0x18C JUMP JUMPDEST PUSH2 0x17F PUSH2 0x599 JUMP JUMPDEST PUSH2 0x312 PUSH2 0x340 CALLDATASIZE PUSH1 0x4 PUSH2 0xCFF JUMP JUMPDEST PUSH2 0x5A8 JUMP JUMPDEST PUSH2 0x1A8 PUSH2 0x353 CALLDATASIZE PUSH1 0x4 PUSH2 0xC7E JUMP JUMPDEST PUSH2 0x5D0 JUMP JUMPDEST PUSH2 0x1D7 PUSH1 0x8 SLOAD DUP2 JUMP JUMPDEST PUSH2 0x1D7 PUSH1 0xC SLOAD DUP2 JUMP JUMPDEST PUSH2 0x1D7 PUSH2 0x378 CALLDATASIZE PUSH1 0x4 PUSH2 0xCA6 JUMP JUMPDEST PUSH1 0x12 PUSH1 0x20 MSTORE PUSH0 SWAP1 DUP2 MSTORE PUSH1 0x40 SWAP1 KECCAK256 SLOAD DUP2 JUMP JUMPDEST PUSH2 0x1D7 PUSH1 0xA SLOAD DUP2 JUMP JUMPDEST PUSH2 0x25F PUSH2 0x3A0 CALLDATASIZE PUSH1 0x4 PUSH2 0xCFF JUMP JUMPDEST PUSH2 0x5DC JUMP JUMPDEST PUSH2 0x25F PUSH2 0x3B3 CALLDATASIZE PUSH1 0x4 PUSH2 0xCFF JUMP JUMPDEST PUSH2 0x60B JUMP JUMPDEST PUSH2 0x1D7 PUSH2 0x3C6 CALLDATASIZE PUSH1 0x4 PUSH2 0xD16 JUMP JUMPDEST PUSH1 0x1 PUSH1 0x1 PUSH1 0xA0 SHL SUB SWAP2 DUP3 AND PUSH0 SWAP1 DUP2 MSTORE PUSH1 0x1 PUSH1 0x20 SWAP1 DUP2 MSTORE PUSH1 0x40 DUP1 DUP4 KECCAK256 SWAP4 SWAP1 SWAP5 AND DUP3 MSTORE SWAP2 SWAP1 SWAP2 MSTORE KECCAK256 SLOAD SWAP1 JUMP JUMPDEST PUSH2 0x1D7 PUSH1 0x9 SLOAD DUP2 JUMP JUMPDEST PUSH1 0x6 SLOAD PUSH2 0x312 SWAP1 PUSH1 0x1 PUSH1 0x1 PUSH1 0xA0 SHL SUB AND DUP2 JUMP JUMPDEST PUSH2 0x25F PUSH2 0x41A CALLDATASIZE PUSH1 0x4 PUSH2 0xCA6 JUMP JUMPDEST PUSH2 0x63A JUMP JUMPDEST PUSH1 0x60 PUSH1 0x3 DUP1 SLOAD PUSH2 0x42E SWAP1 PUSH2 0xD47 JUMP JUMPDEST DUP1 PUSH1 0x1F ADD PUSH1 0x20 DUP1 SWAP2 DIV MUL PUSH1 0x20 ADD PUSH1 0x40 MLOAD SWAP1 DUP2 ADD PUSH1 0x40 MSTORE DUP1 SWAP3 SWAP2 SWAP1 DUP2 DUP2 MSTORE PUSH1 0x20 ADD DUP3 DUP1 SLOAD PUSH2 0x45A SWAP1 PUSH2 0xD47 JUMP JUMPDEST DUP1 ISZERO PUSH2 0x4A5 JUMPI DUP1 PUSH1 0x1F LT PUSH2 0x47C JUMPI PUSH2 0x100 DUP1 DUP4 SLOAD DIV MUL DUP4 MSTORE SWAP2 PUSH1 0x20 ADD SWAP2 PUSH2 0x4A5 JUMP JUMPDEST DUP3 ADD SWAP2 SWAP1 PUSH0 MSTORE PUSH1 0x20 PUSH0 KECCAK256 SWAP1 JUMPDEST DUP2 SLOAD DUP2 MSTORE SWAP1 PUSH1 0x1 ADD SWAP1 PUSH1 0x20 ADD DUP1 DUP4 GT PUSH2 0x488 JUMPI DUP3 SWAP1 SUB PUSH1 0x1F AND DUP3 ADD SWAP2 JUMPDEST POP POP POP POP POP SWAP1 POP SWAP1 JUMP JUMPDEST PUSH0 PUSH2 0x4BB CALLER DUP5 DUP5 PUSH2 0x686 JUMP JUMPDEST POP PUSH1 0x1 JUMPDEST SWAP3 SWAP2 POP POP JUMP JUMPDEST PUSH0 PUSH2 0x4D1 DUP5 CALLER DUP5 PUSH2 0x6E7 JUMP JUMPDEST PUSH2 0x4DC DUP5 DUP5 DUP5 PUSH2 0x777 JUMP JUMPDEST POP PUSH1 0x1 SWAP4 SWAP3 POP POP POP JUMP JUMPDEST PUSH1 0x5 SLOAD PUSH1 0x1 PUSH1 0x1 PUSH1 0xA0 SHL SUB AND CALLER EQ PUSH2 0x519 JUMPI PUSH1 0x40 MLOAD PUSH3 0x461BCD PUSH1 0xE5 SHL DUP2 MSTORE PUSH1 0x4 ADD PUSH2 0x510 SWAP1 PUSH2 0xD7F JUMP JUMPDEST PUSH1 0x40 MLOAD DUP1 SWAP2 SUB SWAP1 REVERT JUMPDEST PUSH1 0x6 DUP1 SLOAD PUSH1 0x1 PUSH1 0x1 PUSH1 0xA0 SHL SUB NOT AND PUSH1 0x1 PUSH1 0x1 PUSH1 0xA0 SHL SUB SWAP3 SWAP1 SWAP3 AND SWAP2 SWAP1 SWAP2 OR SWAP1 SSTORE JUMP JUMPDEST PUSH1 0x5 SLOAD PUSH1 0x1 PUSH1 0x1 PUSH1 0xA0 SHL SUB AND CALLER EQ PUSH2 0x565 JUMPI PUSH1 0x40 MLOAD PUSH3 0x461BCD PUSH1 0xE5 SHL DUP2 MSTORE PUSH1 0x4 ADD PUSH2 0x510 SWAP1 PUSH2 0xD7F JUMP JUMPDEST PUSH1 0xA SSTORE JUMP JUMPDEST PUSH1 0x5 SLOAD PUSH1 0x1 PUSH1 0x1 PUSH1 0xA0 SHL SUB AND CALLER EQ PUSH2 0x594 JUMPI PUSH1 0x40 MLOAD PUSH3 0x461BCD PUSH1 0xE5 SHL DUP2 MSTORE PUSH1 0x4 ADD PUSH2 0x510 SWAP1 PUSH2 0xD7F JUMP JUMPDEST PUSH1 0xE SSTORE JUMP JUMPDEST PUSH1 0x60 PUSH1 0x2 DUP1 SLOAD PUSH2 0x42E SWAP1 PUSH2 0xD47 JUMP JUMPDEST PUSH1 0x14 DUP2 DUP2 SLOAD DUP2 LT PUSH2 0x5B7 JUMPI PUSH0 DUP1 REVERT JUMPDEST PUSH0 SWAP2 DUP3 MSTORE PUSH1 0x20 SWAP1 SWAP2 KECCAK256 ADD SLOAD PUSH1 0x1 PUSH1 0x1 PUSH1 0xA0 SHL SUB AND SWAP1 POP DUP2 JUMP JUMPDEST PUSH0 PUSH2 0x4BB CALLER DUP5 DUP5 PUSH2 0x777 JUMP JUMPDEST PUSH1 0x5 SLOAD PUSH1 0x1 PUSH1 0x1 PUSH1 0xA0 SHL SUB AND CALLER EQ PUSH2 0x606 JUMPI PUSH1 0x40 MLOAD PUSH3 0x461BCD PUSH1 0xE5 SHL DUP2 MSTORE PUSH1 0x4 ADD PUSH2 0x510 SWAP1 PUSH2 0xD7F JUMP JUMPDEST PUSH1 0x9 SSTORE JUMP JUMPDEST PUSH1 0x5 SLOAD PUSH1 0x1 PUSH1 0x1 PUSH1 0xA0 SHL SUB AND CALLER EQ PUSH2 0x635 JUMPI PUSH1 0x40 MLOAD PUSH3 0x461BCD PUSH1 0xE5 SHL DUP2 MSTORE PUSH1 0x4 ADD PUSH2 0x510 SWAP1 PUSH2 0xD7F JUMP JUMPDEST PUSH1 0x8 SSTORE JUMP JUMPDEST PUSH1 0x5 SLOAD PUSH1 0x1 PUSH1 0x1 PUSH1 0xA0 SHL SUB AND CALLER EQ PUSH2 0x664 JUMPI PUSH1 0x40 MLOAD PUSH3 0x461BCD PUSH1 0xE5 SHL DUP2 MSTORE PUSH1 0x4 ADD PUSH2 0x510 SWAP1 PUSH2 0xD7F JUMP JUMPDEST PUSH1 0x5 DUP1 SLOAD PUSH1 0x1 PUSH1 0x1 PUSH1 0xA0 SHL SUB NOT AND PUSH1 0x1 PUSH1 0x1 PUSH1 0xA0 SHL SUB SWAP3 SWAP1 SWAP3 AND SWAP2 SWAP1 SWAP2 OR SWAP1 SSTORE JUMP JUMPDEST PUSH1 0x1 PUSH1 0x1 PUSH1 0xA0 SHL SUB DUP4 DUP2 AND PUSH0 DUP2 DUP2 MSTORE PUSH1 0x1 PUSH1 0x20 SWAP1 DUP2 MSTORE PUSH1 0x40 DUP1 DUP4 KECCAK256 SWAP5 DUP8 AND DUP1 DUP5 MSTORE SWAP5 DUP3 MSTORE SWAP2 DUP3 SWAP1 KECCAK256 DUP6 SWAP1 SSTORE SWAP1 MLOAD DUP5 DUP2 MSTORE PUSH32 0x8C5BE1E5EBEC7D5BD14F71427D1E84F3DD0314C0F7B2291E5B200AC8C7C3B925 SWAP2 ADD JUMPDEST PUSH1 0x40 MLOAD DUP1 SWAP2 SUB SWAP1 LOG3 POP POP POP JUMP JUMPDEST PUSH1 0x1 PUSH1 0x1 PUSH1 0xA0 SHL SUB DUP1 DUP5 AND PUSH0 SWAP1 DUP2 MSTORE PUSH1 0x1 PUSH1 0x20 SWAP1 DUP2 MSTORE PUSH1 0x40 DUP1 DUP4 KECCAK256 SWAP4 DUP7 AND DUP4 MSTORE SWAP3 SWAP1 MSTORE KECCAK256 SLOAD PUSH0 NOT DUP2 EQ PUSH2 0x771 JUMPI DUP2 DUP2 LT ISZERO PUSH2 0x764 JUMPI PUSH1 0x40 MLOAD PUSH3 0x461BCD PUSH1 0xE5 SHL DUP2 MSTORE PUSH1 0x20 PUSH1 0x4 DUP3 ADD MSTORE PUSH1 0x1D PUSH1 0x24 DUP3 ADD MSTORE PUSH32 0x45524332303A20696E73756666696369656E7420616C6C6F77616E6365000000 PUSH1 0x44 DUP3 ADD MSTORE PUSH1 0x64 ADD PUSH2 0x510 JUMP JUMPDEST PUSH2 0x771 DUP5 DUP5 DUP5 DUP5 SUB PUSH2 0x686 JUMP JUMPDEST POP POP POP POP JUMP JUMPDEST PUSH1 0x6 SLOAD PUSH1 0x1 PUSH1 0x1 PUSH1 0xA0 SHL SUB AND DUP3 EXTCODESIZE DUP1 ISZERO DUP1 ISZERO SWAP1 PUSH2 0x7A6 JUMPI POP DUP2 PUSH1 0x1 PUSH1 0x1 PUSH1 0xA0 SHL SUB AND DUP5 PUSH1 0x1 PUSH1 0x1 PUSH1 0xA0 SHL SUB AND EQ ISZERO JUMPDEST DUP1 ISZERO PUSH2 0x7B4 JUMPI POP PUSH1 0xE SLOAD PUSH1 0x1 EQ JUMPDEST ISZERO PUSH2 0x7C0 JUMPI POP POP POP POP POP JUMP JUMPDEST PUSH1 0x5 SLOAD PUSH1 0x1 PUSH1 0x1 PUSH1 0xA0 SHL SUB SWAP1 DUP2 AND SWAP1 DUP7 AND SUB PUSH2 0x7E8 JUMPI PUSH2 0x7E1 DUP6 DUP6 DUP6 PUSH2 0x867 JUMP JUMPDEST POP POP POP POP POP JUMP JUMPDEST PUSH2 0x7F2 DUP6 DUP5 PUSH2 0x8F2 JUMP JUMPDEST PUSH0 PUSH2 0x3E8 PUSH2 0x801 DUP6 PUSH1 0xA PUSH2 0xDC8 JUMP JUMPDEST PUSH2 0x80B SWAP2 SWAP1 PUSH2 0xDDF JUMP JUMPDEST SWAP1 POP PUSH2 0x82C DUP7 PUSH20 0xBF1C5C87B4B0F37443819CBB956215982D9F8A4B DUP4 PUSH2 0x948 JUMP JUMPDEST PUSH2 0x839 DUP7 PUSH2 0xDEAD DUP4 PUSH2 0x948 JUMP JUMPDEST PUSH2 0x844 DUP7 ADDRESS DUP4 PUSH2 0x948 JUMP JUMPDEST PUSH2 0x854 DUP7 DUP7 DUP4 PUSH1 0x3 MUL DUP8 SUB PUSH2 0x948 JUMP JUMPDEST PUSH2 0x85E DUP2 DUP8 PUSH2 0x987 JUMP JUMPDEST POP POP POP POP POP POP POP JUMP JUMPDEST PUSH1 0x1 PUSH1 0x1 PUSH1 0xA0 SHL SUB DUP4 AND PUSH0 SWAP1 DUP2 MSTORE PUSH1 0x20 DUP2 SWAP1 MSTORE PUSH1 0x40 SWAP1 KECCAK256 SLOAD DUP2 DUP2 LT ISZERO PUSH2 0x89F JUMPI PUSH1 0x40 MLOAD PUSH3 0x461BCD PUSH1 0xE5 SHL DUP2 MSTORE PUSH1 0x4 ADD PUSH2 0x510 SWAP1 PUSH2 0xDFE JUMP JUMPDEST PUSH1 0x1 PUSH1 0x1 PUSH1 0xA0 SHL SUB DUP5 DUP2 AND PUSH0 DUP2 DUP2 MSTORE PUSH1 0x20 DUP2 DUP2 MSTORE PUSH1 0x40 DUP1 DUP4 KECCAK256 DUP8 DUP8 SUB SWAP1 SSTORE SWAP4 DUP8 AND DUP1 DUP4 MSTORE SWAP2 DUP5 SWAP1 KECCAK256 DUP1 SLOAD DUP8 ADD SWAP1 SSTORE SWAP3 MLOAD DUP6 DUP2 MSTORE SWAP1 SWAP3 PUSH0 DUP1 MLOAD PUSH1 0x20 PUSH2 0xE97 DUP4 CODECOPY DUP2 MLOAD SWAP2 MSTORE SWAP2 ADD PUSH1 0x40 MLOAD DUP1 SWAP2 SUB SWAP1 LOG3 POP POP POP POP JUMP JUMPDEST PUSH1 0x1 PUSH1 0x1 PUSH1 0xA0 SHL SUB DUP3 AND PUSH0 SWAP1 DUP2 MSTORE PUSH1 0x20 DUP2 SWAP1 MSTORE PUSH1 0x40 SWAP1 KECCAK256 SLOAD DUP2 DUP2 LT ISZERO PUSH2 0x92A JUMPI PUSH1 0x40 MLOAD PUSH3 0x461BCD PUSH1 0xE5 SHL DUP2 MSTORE PUSH1 0x4 ADD PUSH2 0x510 SWAP1 PUSH2 0xDFE JUMP JUMPDEST PUSH1 0x1 PUSH1 0x1 PUSH1 0xA0 SHL SUB SWAP1 SWAP3 AND PUSH0 SWAP1 DUP2 MSTORE PUSH1 0x20 DUP2 SWAP1 MSTORE PUSH1 0x40 SWAP1 KECCAK256 SWAP2 SUB SWAP1 SSTORE JUMP JUMPDEST PUSH1 0x1 PUSH1 0x1 PUSH1 0xA0 SHL SUB DUP3 DUP2 AND PUSH0 DUP2 DUP2 MSTORE PUSH1 0x20 DUP2 DUP2 MSTORE PUSH1 0x40 SWAP2 DUP3 SWAP1 KECCAK256 DUP1 SLOAD DUP7 ADD SWAP1 SSTORE SWAP1 MLOAD DUP5 DUP2 MSTORE SWAP2 SWAP3 DUP7 AND SWAP2 PUSH0 DUP1 MLOAD PUSH1 0x20 PUSH2 0xE97 DUP4 CODECOPY DUP2 MLOAD SWAP2 MSTORE SWAP2 ADD PUSH2 0x6DA JUMP JUMPDEST PUSH0 DUP3 PUSH1 0xB PUSH0 DUP3 DUP3 SLOAD PUSH2 0x999 SWAP2 SWAP1 PUSH2 0xE44 JUMP JUMPDEST SWAP1 SWAP2 SSTORE POP POP PUSH1 0xB SLOAD PUSH1 0xC SLOAD LT PUSH2 0x9B0 JUMPI POP PUSH0 PUSH2 0x4BF JUMP JUMPDEST PUSH0 PUSH1 0xC SLOAD PUSH1 0xB SLOAD PUSH2 0x9C1 SWAP2 SWAP1 PUSH2 0xE57 JUMP JUMPDEST SWAP1 POP PUSH1 0x9 SLOAD DUP2 LT ISZERO PUSH2 0x9D6 JUMPI PUSH0 SWAP2 POP POP PUSH2 0x4BF JUMP JUMPDEST PUSH1 0x14 SLOAD PUSH0 SWAP1 DUP2 SWAP1 DUP2 SWAP1 DUP2 DUP1 DUP1 GAS SWAP1 POP JUMPDEST PUSH1 0xA SLOAD DUP4 LT DUP1 ISZERO PUSH2 0x9F6 JUMPI POP DUP4 DUP3 LT JUMPDEST ISZERO PUSH2 0xAE8 JUMPI DUP4 PUSH1 0xD SLOAD LT PUSH2 0xA09 JUMPI PUSH0 PUSH1 0xD SSTORE JUMPDEST PUSH1 0x14 PUSH1 0xD SLOAD DUP2 SLOAD DUP2 LT PUSH2 0xA1E JUMPI PUSH2 0xA1E PUSH2 0xE6A JUMP JUMPDEST PUSH0 SWAP2 DUP3 MSTORE PUSH1 0x20 DUP1 DUP4 KECCAK256 SWAP1 SWAP2 ADD SLOAD PUSH1 0x1 PUSH1 0x1 PUSH1 0xA0 SHL SUB AND DUP1 DUP4 MSTORE PUSH1 0x10 SWAP1 SWAP2 MSTORE PUSH1 0x40 SWAP1 SWAP2 KECCAK256 SLOAD SWAP1 SWAP8 POP SWAP6 POP DUP6 ISZERO DUP1 ISZERO SWAP1 PUSH2 0xA61 JUMPI POP PUSH1 0x1 PUSH1 0x1 PUSH1 0xA0 SHL SUB DUP8 AND PUSH2 0xDEAD EQ ISZERO JUMPDEST ISZERO PUSH2 0xAA7 JUMPI PUSH1 0xF SLOAD PUSH2 0xA73 DUP8 DUP11 PUSH2 0xDC8 JUMP JUMPDEST PUSH2 0xA7D SWAP2 SWAP1 PUSH2 0xDDF JUMP JUMPDEST SWAP5 POP DUP5 ISZERO PUSH2 0xAA7 JUMPI PUSH2 0xA90 ADDRESS DUP9 DUP8 PUSH2 0x867 JUMP JUMPDEST DUP5 PUSH1 0xC PUSH0 DUP3 DUP3 SLOAD PUSH2 0xAA1 SWAP2 SWAP1 PUSH2 0xE44 JUMP JUMPDEST SWAP1 SWAP2 SSTORE POP POP JUMPDEST GAS PUSH2 0xAB2 SWAP1 DUP3 PUSH2 0xE57 JUMP JUMPDEST PUSH2 0xABC SWAP1 DUP5 PUSH2 0xE44 JUMP JUMPDEST SWAP3 POP GAS PUSH1 0xD DUP1 SLOAD SWAP2 SWAP3 POP PUSH0 PUSH2 0xAD0 DUP4 PUSH2 0xE7E JUMP JUMPDEST SWAP2 SWAP1 POP SSTORE POP DUP2 DUP1 PUSH2 0xAE0 SWAP1 PUSH2 0xE7E JUMP JUMPDEST SWAP3 POP POP PUSH2 0x9E6 JUMP JUMPDEST NUMBER PUSH1 0x7 SSTORE PUSH2 0xAF6 DUP12 DUP12 PUSH2 0xB05 JUMP JUMPDEST POP SWAP3 SWAP10 SWAP9 POP POP POP POP POP POP POP POP POP JUMP JUMPDEST DUP2 PUSH1 0xF PUSH0 DUP3 DUP3 SLOAD PUSH2 0xB16 SWAP2 SWAP1 PUSH2 0xE44 JUMP JUMPDEST SWAP1 SWAP2 SSTORE POP POP PUSH1 0x1 PUSH1 0x1 PUSH1 0xA0 SHL SUB DUP2 AND PUSH0 SWAP1 DUP2 MSTORE PUSH1 0x13 PUSH1 0x20 MSTORE PUSH1 0x40 SWAP1 KECCAK256 SLOAD ISZERO DUP1 ISZERO PUSH2 0xB4E JUMPI POP PUSH1 0x6 SLOAD PUSH1 0x1 PUSH1 0x1 PUSH1 0xA0 SHL SUB DUP3 DUP2 AND SWAP2 AND EQ ISZERO JUMPDEST ISZERO PUSH2 0xC14 JUMPI PUSH1 0x1 PUSH1 0x1 PUSH1 0xA0 SHL SUB DUP2 AND PUSH0 SWAP1 DUP2 MSTORE PUSH1 0x10 PUSH1 0x20 MSTORE PUSH1 0x40 DUP2 KECCAK256 DUP1 SLOAD DUP5 SWAP3 SWAP1 PUSH2 0xB7A SWAP1 DUP5 SWAP1 PUSH2 0xE44 JUMP JUMPDEST SWAP1 SWAP2 SSTORE POP POP PUSH1 0x1 PUSH1 0x1 PUSH1 0xA0 SHL SUB DUP2 AND PUSH0 SWAP1 DUP2 MSTORE PUSH1 0x11 PUSH1 0x20 SWAP1 DUP2 MSTORE PUSH1 0x40 DUP1 DUP4 KECCAK256 TIMESTAMP SWAP1 SSTORE PUSH1 0x12 SWAP1 SWAP2 MSTORE DUP2 KECCAK256 DUP1 SLOAD CALLVALUE SWAP3 SWAP1 PUSH2 0xBB3 SWAP1 DUP5 SWAP1 PUSH2 0xE44 JUMP JUMPDEST SWAP1 SWAP2 SSTORE POP POP PUSH1 0x14 DUP1 SLOAD PUSH1 0x1 PUSH1 0x1 PUSH1 0xA0 SHL SUB DUP4 AND PUSH0 DUP2 DUP2 MSTORE PUSH1 0x13 PUSH1 0x20 MSTORE PUSH1 0x40 DUP2 KECCAK256 DUP4 SWAP1 SSTORE PUSH1 0x1 DUP4 ADD DUP5 SSTORE SWAP3 SWAP1 SWAP3 MSTORE PUSH32 0xCE6D7B5282BD9A3661AE061FEED1DBDA4E52AB073B1F9285BE6E155D9C38D4EC ADD DUP1 SLOAD PUSH1 0x1 PUSH1 0x1 PUSH1 0xA0 SHL SUB NOT AND SWAP1 SWAP2 OR SWAP1 SSTORE JUMPDEST POP POP JUMP JUMPDEST PUSH0 PUSH1 0x20 DUP1 DUP4 MSTORE DUP4 MLOAD DUP1 DUP3 DUP6 ADD MSTORE PUSH0 JUMPDEST DUP2 DUP2 LT ISZERO PUSH2 0xC43 JUMPI DUP6 DUP2 ADD DUP4 ADD MLOAD DUP6 DUP3 ADD PUSH1 0x40 ADD MSTORE DUP3 ADD PUSH2 0xC27 JUMP JUMPDEST POP PUSH0 PUSH1 0x40 DUP3 DUP7 ADD ADD MSTORE PUSH1 0x40 PUSH1 0x1F NOT PUSH1 0x1F DUP4 ADD AND DUP6 ADD ADD SWAP3 POP POP POP SWAP3 SWAP2 POP POP JUMP JUMPDEST DUP1 CALLDATALOAD PUSH1 0x1 PUSH1 0x1 PUSH1 0xA0 SHL SUB DUP2 AND DUP2 EQ PUSH2 0xC79 JUMPI PUSH0 DUP1 REVERT JUMPDEST SWAP2 SWAP1 POP JUMP JUMPDEST PUSH0 DUP1 PUSH1 0x40 DUP4 DUP6 SUB SLT ISZERO PUSH2 0xC8F JUMPI PUSH0 DUP1 REVERT JUMPDEST PUSH2 0xC98 DUP4 PUSH2 0xC63 JUMP JUMPDEST SWAP5 PUSH1 0x20 SWAP4 SWAP1 SWAP4 ADD CALLDATALOAD SWAP4 POP POP POP JUMP JUMPDEST PUSH0 PUSH1 0x20 DUP3 DUP5 SUB SLT ISZERO PUSH2 0xCB6 JUMPI PUSH0 DUP1 REVERT JUMPDEST PUSH2 0xCBF DUP3 PUSH2 0xC63 JUMP JUMPDEST SWAP4 SWAP3 POP POP POP JUMP JUMPDEST PUSH0 DUP1 PUSH0 PUSH1 0x60 DUP5 DUP7 SUB SLT ISZERO PUSH2 0xCD8 JUMPI PUSH0 DUP1 REVERT JUMPDEST PUSH2 0xCE1 DUP5 PUSH2 0xC63 JUMP JUMPDEST SWAP3 POP PUSH2 0xCEF PUSH1 0x20 DUP6 ADD PUSH2 0xC63 JUMP JUMPDEST SWAP2 POP PUSH1 0x40 DUP5 ADD CALLDATALOAD SWAP1 POP SWAP3 POP SWAP3 POP SWAP3 JUMP JUMPDEST PUSH0 PUSH1 0x20 DUP3 DUP5 SUB SLT ISZERO PUSH2 0xD0F JUMPI PUSH0 DUP1 REVERT JUMPDEST POP CALLDATALOAD SWAP2 SWAP1 POP JUMP JUMPDEST PUSH0 DUP1 PUSH1 0x40 DUP4 DUP6 SUB SLT ISZERO PUSH2 0xD27 JUMPI PUSH0 DUP1 REVERT JUMPDEST PUSH2 0xD30 DUP4 PUSH2 0xC63 JUMP JUMPDEST SWAP2 POP PUSH2 0xD3E PUSH1 0x20 DUP5 ADD PUSH2 0xC63 JUMP JUMPDEST SWAP1 POP SWAP3 POP SWAP3 SWAP1 POP JUMP JUMPDEST PUSH1 0x1 DUP2 DUP2 SHR SWAP1 DUP3 AND DUP1 PUSH2 0xD5B JUMPI PUSH1 0x7F DUP3 AND SWAP2 POP JUMPDEST PUSH1 0x20 DUP3 LT DUP2 SUB PUSH2 0xD79 JUMPI PUSH4 0x4E487B71 PUSH1 0xE0 SHL PUSH0 MSTORE PUSH1 0x22 PUSH1 0x4 MSTORE PUSH1 0x24 PUSH0 REVERT JUMPDEST POP SWAP2 SWAP1 POP JUMP JUMPDEST PUSH1 0x20 DUP1 DUP3 MSTORE DUP2 DUP2 ADD MSTORE PUSH32 0x4F776E61626C653A2063616C6C6572206973206E6F7420746865206F776E6572 PUSH1 0x40 DUP3 ADD MSTORE PUSH1 0x60 ADD SWAP1 JUMP JUMPDEST PUSH4 0x4E487B71 PUSH1 0xE0 SHL PUSH0 MSTORE PUSH1 0x11 PUSH1 0x4 MSTORE PUSH1 0x24 PUSH0 REVERT JUMPDEST DUP1 DUP3 MUL DUP2 ISZERO DUP3 DUP3 DIV DUP5 EQ OR PUSH2 0x4BF JUMPI PUSH2 0x4BF PUSH2 0xDB4 JUMP JUMPDEST PUSH0 DUP3 PUSH2 0xDF9 JUMPI PUSH4 0x4E487B71 PUSH1 0xE0 SHL PUSH0 MSTORE PUSH1 0x12 PUSH1 0x4 MSTORE PUSH1 0x24 PUSH0 REVERT JUMPDEST POP DIV SWAP1 JUMP JUMPDEST PUSH1 0x20 DUP1 DUP3 MSTORE PUSH1 0x26 SWAP1 DUP3 ADD MSTORE PUSH32 0x45524332303A207472616E7366657220616D6F756E7420657863656564732062 PUSH1 0x40 DUP3 ADD MSTORE PUSH6 0x616C616E6365 PUSH1 0xD0 SHL PUSH1 0x60 DUP3 ADD MSTORE PUSH1 0x80 ADD SWAP1 JUMP JUMPDEST DUP1 DUP3 ADD DUP1 DUP3 GT ISZERO PUSH2 0x4BF JUMPI PUSH2 0x4BF PUSH2 0xDB4 JUMP JUMPDEST DUP2 DUP2 SUB DUP2 DUP2 GT ISZERO PUSH2 0x4BF JUMPI PUSH2 0x4BF PUSH2 0xDB4 JUMP JUMPDEST PUSH4 0x4E487B71 PUSH1 0xE0 SHL PUSH0 MSTORE PUSH1 0x32 PUSH1 0x4 MSTORE PUSH1 0x24 PUSH0 REVERT JUMPDEST PUSH0 PUSH1 0x1 DUP3 ADD PUSH2 0xE8F JUMPI PUSH2 0xE8F PUSH2 0xDB4 JUMP JUMPDEST POP PUSH1 0x1 ADD SWAP1 JUMP INVALID 0xDD CALLCODE MSTORE 0xAD SHL 0xE2 0xC8 SWAP12 PUSH10 0xC2B068FC378DAA952BA7 CALL PUSH4 0xC4A11628 CREATE2 GAS 0x4D CREATE2 0x23 0xB3 0xEF LOG2 PUSH5 0x6970667358 0x22 SLT KECCAK256 CALLVALUE EXTCODEHASH 0xC3 SGT 0xF6 0xBF SWAP11 SUB PUSH10 0x4870ED0851B99377157B JUMPDEST CREATE2 JUMPDEST 0x5E PUSH22 0xB7F73274BB5AB5A064736F6C63430008140033000000 "
				},
				"gasEstimates": {
					"creation": {
						"codeDepositCost": "764000",
						"executionCost": "infinite",
						"totalCost": "infinite"
					},
					"external": {
						"_LpBalances(address)": "2758",
						"_lastEth(address)": "3000",
						"_lastLpTime(address)": "2846",
						"allowance(address,address)": "infinite",
						"approve(address,uint256)": "24524",
						"balanceOf(address)": "2823",
						"bnbPair()": "2952",
						"currentLpIndex()": "2338",
						"decimals()": "infinite",
						"dividendGas()": "2800",
						"holderRewardCondition()": "2888",
						"lpBonus()": "2492",
						"lpBonusEd()": "2756",
						"lpHolderIndex(address)": "2538",
						"lpHolders(uint256)": "5007",
						"name()": "infinite",
						"owner()": "2688",
						"pairlock()": "2360",
						"progressRewardBlock()": "2426",
						"progressRewardBlockAdd()": "2734",
						"setBnbPair(address)": "26885",
						"setDividendGas(uint256)": "24682",
						"setHolderRewardCondition(uint256)": "24990",
						"setPairlock(uint256)": "24770",
						"setRewardBlockAdd(uint256)": "25012",
						"symbol()": "infinite",
						"totalLpSupply()": "2558",
						"totalSupply()": "2379",
						"transfer(address,uint256)": "infinite",
						"transferFrom(address,address,uint256)": "infinite",
						"transferOwnership(address)": "27347"
					},
					"internal": {
						"_transfer(address,address,uint256)": "infinite",
						"ariver(uint256,address)": "infinite",
						"pairFor(address,address,address)": "infinite",
						"processReward(uint256,address)": "infinite"
					}
				},
				"methodIdentifiers": {
					"_LpBalances(address)": "68698b48",
					"_lastEth(address)": "b510efa6",
					"_lastLpTime(address)": "86623a06",
					"allowance(address,address)": "dd62ed3e",
					"approve(address,uint256)": "095ea7b3",
					"balanceOf(address)": "70a08231",
					"bnbPair()": "ed9a165d",
					"currentLpIndex()": "1210c434",
					"decimals()": "313ce567",
					"dividendGas()": "bd876702",
					"holderRewardCondition()": "eb10b741",
					"lpBonus()": "621f9c0a",
					"lpBonusEd()": "b367bf83",
					"lpHolderIndex(address)": "0affb402",
					"lpHolders(uint256)": "9f0d7eb8",
					"name()": "06fdde03",
					"owner()": "8da5cb5b",
					"pairlock()": "1357a1de",
					"progressRewardBlock()": "2a595512",
					"progressRewardBlockAdd()": "add0a6c6",
					"setBnbPair(address)": "46bb9271",
					"setDividendGas(uint256)": "6689567e",
					"setHolderRewardCondition(uint256)": "c213d62d",
					"setPairlock(uint256)": "7ef925f7",
					"setRewardBlockAdd(uint256)": "c7003ed0",
					"symbol()": "95d89b41",
					"totalLpSupply()": "6aedea73",
					"totalSupply()": "18160ddd",
					"transfer(address,uint256)": "a9059cbb",
					"transferFrom(address,address,uint256)": "23b872dd",
					"transferOwnership(address)": "f2fde38b"
				}
			},
			"storageLayout": {
				"storage": [
					{
						"astId": 651,
						"contract": "contracts/ACB.sol:AcbCoin",
						"label": "_balances",
						"offset": 0,
						"slot": "0",
						"type": "t_mapping(t_address,t_uint256)"
					},
					{
						"astId": 657,
						"contract": "contracts/ACB.sol:AcbCoin",
						"label": "_allowances",
						"offset": 0,
						"slot": "1",
						"type": "t_mapping(t_address,t_mapping(t_address,t_uint256))"
					},
					{
						"astId": 659,
						"contract": "contracts/ACB.sol:AcbCoin",
						"label": "_symbol",
						"offset": 0,
						"slot": "2",
						"type": "t_string_storage"
					},
					{
						"astId": 661,
						"contract": "contracts/ACB.sol:AcbCoin",
						"label": "_name",
						"offset": 0,
						"slot": "3",
						"type": "t_string_storage"
					},
					{
						"astId": 665,
						"contract": "contracts/ACB.sol:AcbCoin",
						"label": "_totalSupply",
						"offset": 0,
						"slot": "4",
						"type": "t_uint256"
					},
					{
						"astId": 17,
						"contract": "contracts/ACB.sol:AcbCoin",
						"label": "owner",
						"offset": 0,
						"slot": "5",
						"type": "t_address"
					},
					{
						"astId": 57,
						"contract": "contracts/ACB.sol:AcbCoin",
						"label": "bnbPair",
						"offset": 0,
						"slot": "6",
						"type": "t_address"
					},
					{
						"astId": 68,
						"contract": "contracts/ACB.sol:AcbCoin",
						"label": "progressRewardBlock",
						"offset": 0,
						"slot": "7",
						"type": "t_uint256"
					},
					{
						"astId": 70,
						"contract": "contracts/ACB.sol:AcbCoin",
						"label": "progressRewardBlockAdd",
						"offset": 0,
						"slot": "8",
						"type": "t_uint256"
					},
					{
						"astId": 72,
						"contract": "contracts/ACB.sol:AcbCoin",
						"label": "holderRewardCondition",
						"offset": 0,
						"slot": "9",
						"type": "t_uint256"
					},
					{
						"astId": 74,
						"contract": "contracts/ACB.sol:AcbCoin",
						"label": "dividendGas",
						"offset": 0,
						"slot": "10",
						"type": "t_uint256"
					},
					{
						"astId": 76,
						"contract": "contracts/ACB.sol:AcbCoin",
						"label": "lpBonus",
						"offset": 0,
						"slot": "11",
						"type": "t_uint256"
					},
					{
						"astId": 78,
						"contract": "contracts/ACB.sol:AcbCoin",
						"label": "lpBonusEd",
						"offset": 0,
						"slot": "12",
						"type": "t_uint256"
					},
					{
						"astId": 80,
						"contract": "contracts/ACB.sol:AcbCoin",
						"label": "currentLpIndex",
						"offset": 0,
						"slot": "13",
						"type": "t_uint256"
					},
					{
						"astId": 82,
						"contract": "contracts/ACB.sol:AcbCoin",
						"label": "pairlock",
						"offset": 0,
						"slot": "14",
						"type": "t_uint256"
					},
					{
						"astId": 84,
						"contract": "contracts/ACB.sol:AcbCoin",
						"label": "totalLpSupply",
						"offset": 0,
						"slot": "15",
						"type": "t_uint256"
					},
					{
						"astId": 88,
						"contract": "contracts/ACB.sol:AcbCoin",
						"label": "_LpBalances",
						"offset": 0,
						"slot": "16",
						"type": "t_mapping(t_address,t_uint256)"
					},
					{
						"astId": 92,
						"contract": "contracts/ACB.sol:AcbCoin",
						"label": "_lastLpTime",
						"offset": 0,
						"slot": "17",
						"type": "t_mapping(t_address,t_uint256)"
					},
					{
						"astId": 96,
						"contract": "contracts/ACB.sol:AcbCoin",
						"label": "_lastEth",
						"offset": 0,
						"slot": "18",
						"type": "t_mapping(t_address,t_uint256)"
					},
					{
						"astId": 100,
						"contract": "contracts/ACB.sol:AcbCoin",
						"label": "lpHolderIndex",
						"offset": 0,
						"slot": "19",
						"type": "t_mapping(t_address,t_uint256)"
					},
					{
						"astId": 103,
						"contract": "contracts/ACB.sol:AcbCoin",
						"label": "lpHolders",
						"offset": 0,
						"slot": "20",
						"type": "t_array(t_address)dyn_storage"
					}
				],
				"types": {
					"t_address": {
						"encoding": "inplace",
						"label": "address",
						"numberOfBytes": "20"
					},
					"t_array(t_address)dyn_storage": {
						"base": "t_address",
						"encoding": "dynamic_array",
						"label": "address[]",
						"numberOfBytes": "32"
					},
					"t_mapping(t_address,t_mapping(t_address,t_uint256))": {
						"encoding": "mapping",
						"key": "t_address",
						"label": "mapping(address => mapping(address => uint256))",
						"numberOfBytes": "32",
						"value": "t_mapping(t_address,t_uint256)"
					},
					"t_mapping(t_address,t_uint256)": {
						"encoding": "mapping",
						"key": "t_address",
						"label": "mapping(address => uint256)",
						"numberOfBytes": "32",
						"value": "t_uint256"
					},
					"t_string_storage": {
						"encoding": "bytes",
						"label": "string",
						"numberOfBytes": "32"
					},
					"t_uint256": {
						"encoding": "inplace",
						"label": "uint256",
						"numberOfBytes": "32"
					}
				}
			},
			"userdoc": {
				"kind": "user",
				"methods": {},
				"version": 1
			}
		}
	}
}