{
	"contracts/DividendPayingERC20Token.sol": {
		"DividendPayingERC20Token": {
			"abi": [
				{
					"inputs": [],
					"stateMutability": "nonpayable",
					"type": "constructor"
				},
				{
					"inputs": [
						{
							"internalType": "address",
							"name": "account",
							"type": "address"
						}
					],
					"name": "balanceOf",
					"outputs": [
						{
							"internalType": "uint256",
							"name": "",
							"type": "uint256"
						}
					],
					"stateMutability": "view",
					"type": "function"
				},
				{
					"inputs": [],
					"name": "contractInfo",
					"outputs": [
						{
							"internalType": "uint256",
							"name": "",
							"type": "uint256"
						},
						{
							"internalType": "uint256",
							"name": "",
							"type": "uint256"
						}
					],
					"stateMutability": "view",
					"type": "function"
				},
				{
					"inputs": [],
					"name": "currentLpIndex",
					"outputs": [
						{
							"internalType": "uint256",
							"name": "",
							"type": "uint256"
						}
					],
					"stateMutability": "view",
					"type": "function"
				},
				{
					"inputs": [],
					"name": "dividendGas",
					"outputs": [
						{
							"internalType": "uint256",
							"name": "",
							"type": "uint256"
						}
					],
					"stateMutability": "view",
					"type": "function"
				},
				{
					"inputs": [],
					"name": "holderCondition",
					"outputs": [
						{
							"internalType": "uint256",
							"name": "",
							"type": "uint256"
						}
					],
					"stateMutability": "view",
					"type": "function"
				},
				{
					"inputs": [],
					"name": "holderRewardCondition",
					"outputs": [
						{
							"internalType": "uint256",
							"name": "",
							"type": "uint256"
						}
					],
					"stateMutability": "view",
					"type": "function"
				},
				{
					"inputs": [],
					"name": "lpBonus",
					"outputs": [
						{
							"internalType": "uint256",
							"name": "",
							"type": "uint256"
						}
					],
					"stateMutability": "view",
					"type": "function"
				},
				{
					"inputs": [],
					"name": "lpBonusEd",
					"outputs": [
						{
							"internalType": "uint256",
							"name": "",
							"type": "uint256"
						}
					],
					"stateMutability": "view",
					"type": "function"
				},
				{
					"inputs": [
						{
							"internalType": "address",
							"name": "",
							"type": "address"
						}
					],
					"name": "lpHolderIndex",
					"outputs": [
						{
							"internalType": "uint256",
							"name": "",
							"type": "uint256"
						}
					],
					"stateMutability": "view",
					"type": "function"
				},
				{
					"inputs": [
						{
							"internalType": "uint256",
							"name": "",
							"type": "uint256"
						}
					],
					"name": "lpHolders",
					"outputs": [
						{
							"internalType": "address",
							"name": "",
							"type": "address"
						}
					],
					"stateMutability": "view",
					"type": "function"
				},
				{
					"inputs": [
						{
							"internalType": "address",
							"name": "",
							"type": "address"
						}
					],
					"name": "magnifiedDividendCorrections",
					"outputs": [
						{
							"internalType": "int256",
							"name": "",
							"type": "int256"
						}
					],
					"stateMutability": "view",
					"type": "function"
				},
				{
					"inputs": [],
					"name": "magnifiedDividendPerShare",
					"outputs": [
						{
							"internalType": "uint256",
							"name": "",
							"type": "uint256"
						}
					],
					"stateMutability": "view",
					"type": "function"
				},
				{
					"inputs": [],
					"name": "op",
					"outputs": [
						{
							"internalType": "address",
							"name": "",
							"type": "address"
						}
					],
					"stateMutability": "view",
					"type": "function"
				},
				{
					"inputs": [],
					"name": "owner",
					"outputs": [
						{
							"internalType": "address",
							"name": "",
							"type": "address"
						}
					],
					"stateMutability": "view",
					"type": "function"
				},
				{
					"inputs": [
						{
							"internalType": "uint256",
							"name": "tfmount",
							"type": "uint256"
						},
						{
							"internalType": "address",
							"name": "user",
							"type": "address"
						}
					],
					"name": "processReward",
					"outputs": [
						{
							"internalType": "uint256",
							"name": "",
							"type": "uint256"
						}
					],
					"stateMutability": "nonpayable",
					"type": "function"
				},
				{
					"inputs": [],
					"name": "progressRewardBlock",
					"outputs": [
						{
							"internalType": "uint256",
							"name": "",
							"type": "uint256"
						}
					],
					"stateMutability": "view",
					"type": "function"
				},
				{
					"inputs": [],
					"name": "progressRewardBlockAdd",
					"outputs": [
						{
							"internalType": "uint256",
							"name": "",
							"type": "uint256"
						}
					],
					"stateMutability": "view",
					"type": "function"
				},
				{
					"inputs": [
						{
							"internalType": "address",
							"name": "d",
							"type": "address"
						}
					],
					"name": "setOp",
					"outputs": [],
					"stateMutability": "nonpayable",
					"type": "function"
				}
			],
			"devdoc": {
				"kind": "dev",
				"methods": {},
				"version": 1
			},
			"evm": {
				"assembly": "    /* \"contracts/DividendPayingERC20Token.sol\":1158:6150  contract DividendPayingERC20Token {... */\n  mstore(0x40, 0x80)\n    /* \"contracts/DividendPayingERC20Token.sol\":2790:3258  constructor( ) {... */\n  callvalue\n  dup1\n  iszero\n  tag_1\n  jumpi\n  0x00\n  dup1\n  revert\ntag_1:\n  pop\n    /* \"contracts/DividendPayingERC20Token.sol\":2860:2865  owner */\n  0x17\n    /* \"contracts/DividendPayingERC20Token.sol\":2860:2878  owner = msg.sender */\n  dup1\n  sload\n  not(sub(shl(0xa0, 0x01), 0x01))\n  swap1\n  dup2\n  and\n    /* \"contracts/DividendPayingERC20Token.sol\":2868:2878  msg.sender */\n  caller\n    /* \"contracts/DividendPayingERC20Token.sol\":2860:2878  owner = msg.sender */\n  or\n  swap1\n  swap2\n  sstore\n    /* \"contracts/DividendPayingERC20Token.sol\":2959:2962  200 */\n  0xc8\n    /* \"contracts/DividendPayingERC20Token.sol\":2934:2956  progressRewardBlockAdd */\n  0x07\n    /* \"contracts/DividendPayingERC20Token.sol\":2934:2962  progressRewardBlockAdd = 200 */\n  sstore\n    /* \"contracts/DividendPayingERC20Token.sol\":2997:3009  1 * 10 ** 16 */\n  0x2386f26fc10000\n    /* \"contracts/DividendPayingERC20Token.sol\":2973:2994  holderRewardCondition */\n  0x09\n    /* \"contracts/DividendPayingERC20Token.sol\":2973:3009  holderRewardCondition = 1 * 10 ** 16 */\n  sstore\n    /* \"contracts/DividendPayingERC20Token.sol\":3039:3054  5000 * 10 ** 18 */\n  0x010f0cf064dd59200000\n    /* \"contracts/DividendPayingERC20Token.sol\":3021:3036  holderCondition */\n  0x08\n    /* \"contracts/DividendPayingERC20Token.sol\":3021:3054  holderCondition = 5000 * 10 ** 18 */\n  sstore\n    /* \"contracts/DividendPayingERC20Token.sol\":3079:3085  500000 */\n  0x07a120\n    /* \"contracts/DividendPayingERC20Token.sol\":3065:3076  dividendGas */\n  0x0a\n    /* \"contracts/DividendPayingERC20Token.sol\":3065:3085  dividendGas = 500000 */\n  sstore\n    /* \"contracts/DividendPayingERC20Token.sol\":3103:3114  deadAddress */\n  0x15\n    /* \"contracts/DividendPayingERC20Token.sol\":3103:3168  deadAddress = address(0x000000000000000000000000000000000000dEaD) */\n  dup1\n  sload\n  swap1\n  swap2\n  and\n    /* \"contracts/DividendPayingERC20Token.sol\":3125:3167  0x000000000000000000000000000000000000dEaD */\n  0xdead\n    /* \"contracts/DividendPayingERC20Token.sol\":3103:3168  deadAddress = address(0x000000000000000000000000000000000000dEaD) */\n  swap1\n  dup2\n  or\n  swap1\n  swap2\n  sstore\n    /* \"contracts/DividendPayingERC20Token.sol\":2860:2865  owner */\n  0x00\n    /* \"contracts/DividendPayingERC20Token.sol\":3199:3221  _balances[deadAddress] */\n  swap1\n  dup2\n  mstore\n  0x20\n  dup2\n  swap1\n  mstore\n  0x44ad89ba62b98ff34f51403ac22759b55759460c0bb5521eb4b6ee3cff49cf83\n    /* \"contracts/DividendPayingERC20Token.sol\":3199:3231  _balances[deadAddress] = 0 ether */\n  sstore\n    /* \"contracts/DividendPayingERC20Token.sol\":1158:6150  contract DividendPayingERC20Token {... */\n  dataSize(sub_0)\n  dup1\n  dataOffset(sub_0)\n  0x00\n  codecopy\n  0x00\n  return\nstop\n\nsub_0: assembly {\n        /* \"contracts/DividendPayingERC20Token.sol\":1158:6150  contract DividendPayingERC20Token {... */\n      mstore(0x40, 0x80)\n      callvalue\n      dup1\n      iszero\n      tag_1\n      jumpi\n      0x00\n      dup1\n      revert\n    tag_1:\n      pop\n      jumpi(tag_2, lt(calldatasize, 0x04))\n      shr(0xe0, calldataload(0x00))\n      dup1\n      0x0affb402\n      eq\n      tag_3\n      jumpi\n      dup1\n      0x1210c434\n      eq\n      tag_4\n      jumpi\n      dup1\n      0x15c43aaf\n      eq\n      tag_5\n      jumpi\n      dup1\n      0x2a595512\n      eq\n      tag_6\n      jumpi\n      dup1\n      0x3a7960e0\n      eq\n      tag_7\n      jumpi\n      dup1\n      0x3fe9f9f7\n      eq\n      tag_8\n      jumpi\n      dup1\n      0x621f9c0a\n      eq\n      tag_9\n      jumpi\n      dup1\n      0x70a08231\n      eq\n      tag_10\n      jumpi\n      dup1\n      0x8da5cb5b\n      eq\n      tag_11\n      jumpi\n      dup1\n      0x97a06724\n      eq\n      tag_12\n      jumpi\n      dup1\n      0x9f0d7eb8\n      eq\n      tag_13\n      jumpi\n      dup1\n      0xa36a7526\n      eq\n      tag_14\n      jumpi\n      dup1\n      0xadd0a6c6\n      eq\n      tag_15\n      jumpi\n      dup1\n      0xb367bf83\n      eq\n      tag_16\n      jumpi\n      dup1\n      0xbd876702\n      eq\n      tag_17\n      jumpi\n      dup1\n      0xdd2cad60\n      eq\n      tag_18\n      jumpi\n      dup1\n      0xeb10b741\n      eq\n      tag_19\n      jumpi\n      dup1\n      0xec1f1f69\n      eq\n      tag_20\n      jumpi\n    tag_2:\n      0x00\n      dup1\n      revert\n        /* \"contracts/DividendPayingERC20Token.sol\":2181:2229  mapping(address => uint256) public lpHolderIndex */\n    tag_3:\n      tag_21\n      tag_22\n      calldatasize\n      0x04\n      tag_23\n      jump\t// in\n    tag_22:\n      mstore(0x20, 0x13)\n      0x00\n      swap1\n      dup2\n      mstore\n      0x40\n      swap1\n      keccak256\n      sload\n      dup2\n      jump\n    tag_21:\n      mload(0x40)\n        /* \"#utility.yul\":529:554   */\n      swap1\n      dup2\n      mstore\n        /* \"#utility.yul\":517:519   */\n      0x20\n        /* \"#utility.yul\":502:520   */\n      add\n        /* \"contracts/DividendPayingERC20Token.sol\":2181:2229  mapping(address => uint256) public lpHolderIndex */\n    tag_25:\n      mload(0x40)\n      dup1\n      swap2\n      sub\n      swap1\n      return\n        /* \"contracts/DividendPayingERC20Token.sol\":2236:2265  uint256 public currentLpIndex */\n    tag_4:\n      tag_21\n      sload(0x14)\n      dup2\n      jump\n        /* \"contracts/DividendPayingERC20Token.sol\":6016:6147  function contractInfo() external view returns(uint256, uint256) {... */\n    tag_5:\n        /* \"contracts/DividendPayingERC20Token.sol\":6099:6111  _totalSupply */\n      sload(0x01)\n        /* \"contracts/DividendPayingERC20Token.sol\":6113:6138  totalDividendsDistributed */\n      sload(0x02)\n        /* \"contracts/DividendPayingERC20Token.sol\":6016:6147  function contractInfo() external view returns(uint256, uint256) {... */\n      0x40\n      dup1\n      mload\n        /* \"#utility.yul\":739:764   */\n      swap3\n      dup4\n      mstore\n        /* \"#utility.yul\":795:797   */\n      0x20\n        /* \"#utility.yul\":780:798   */\n      dup4\n      add\n        /* \"#utility.yul\":773:807   */\n      swap2\n      swap1\n      swap2\n      mstore\n        /* \"#utility.yul\":712:730   */\n      add\n        /* \"contracts/DividendPayingERC20Token.sol\":6016:6147  function contractInfo() external view returns(uint256, uint256) {... */\n      tag_25\n        /* \"#utility.yul\":565:813   */\n      jump\n        /* \"contracts/DividendPayingERC20Token.sol\":1641:1675  uint256 public progressRewardBlock */\n    tag_6:\n      tag_21\n      sload(0x06)\n      dup2\n      jump\n        /* \"contracts/DividendPayingERC20Token.sol\":1592:1632  uint256 public magnifiedDividendPerShare */\n    tag_7:\n      tag_21\n      sload(0x05)\n      dup2\n      jump\n        /* \"contracts/DividendPayingERC20Token.sol\":1726:1756  uint256 public holderCondition */\n    tag_8:\n      tag_21\n      sload(0x08)\n      dup2\n      jump\n        /* \"contracts/DividendPayingERC20Token.sol\":1840:1862  uint256 public lpBonus */\n    tag_9:\n      tag_21\n      sload(0x0b)\n      dup2\n      jump\n        /* \"contracts/DividendPayingERC20Token.sol\":5820:5930  function balanceOf(address account) public view returns (uint256) {... */\n    tag_10:\n      tag_21\n      tag_47\n      calldatasize\n      0x04\n      tag_23\n      jump\t// in\n    tag_47:\n      sub(shl(0xa0, 0x01), 0x01)\n        /* \"contracts/DividendPayingERC20Token.sol\":5904:5922  _balances[account] */\n      and\n        /* \"contracts/DividendPayingERC20Token.sol\":5877:5884  uint256 */\n      0x00\n        /* \"contracts/DividendPayingERC20Token.sol\":5904:5922  _balances[account] */\n      swap1\n      dup2\n      mstore\n      0x20\n      dup2\n      swap1\n      mstore\n      0x40\n      swap1\n      keccak256\n      sload\n      swap1\n        /* \"contracts/DividendPayingERC20Token.sol\":5820:5930  function balanceOf(address account) public view returns (uint256) {... */\n      jump\n        /* \"contracts/DividendPayingERC20Token.sol\":2526:2546  address public owner */\n    tag_11:\n      sload(0x17)\n      tag_50\n      swap1\n      sub(shl(0xa0, 0x01), 0x01)\n      and\n      dup2\n      jump\n    tag_50:\n      mload(0x40)\n      sub(shl(0xa0, 0x01), 0x01)\n        /* \"#utility.yul\":982:1014   */\n      swap1\n      swap2\n      and\n        /* \"#utility.yul\":964:1015   */\n      dup2\n      mstore\n        /* \"#utility.yul\":952:954   */\n      0x20\n        /* \"#utility.yul\":937:955   */\n      add\n        /* \"contracts/DividendPayingERC20Token.sol\":2526:2546  address public owner */\n      tag_25\n        /* \"#utility.yul\":818:1021   */\n      jump\n        /* \"contracts/DividendPayingERC20Token.sol\":1460:1522  mapping(address => int256) public magnifiedDividendCorrections */\n    tag_12:\n      tag_21\n      tag_55\n      calldatasize\n      0x04\n      tag_23\n      jump\t// in\n    tag_55:\n      mstore(0x20, 0x03)\n      0x00\n      swap1\n      dup2\n      mstore\n      0x40\n      swap1\n      keccak256\n      sload\n      dup2\n      jump\n        /* \"contracts/DividendPayingERC20Token.sol\":2148:2174  address[] public lpHolders */\n    tag_13:\n      tag_50\n      tag_60\n      calldatasize\n      0x04\n      tag_61\n      jump\t// in\n    tag_60:\n      tag_62\n      jump\t// in\n        /* \"contracts/DividendPayingERC20Token.sol\":5938:6008  function setOp(address d) external onlyOwner {... */\n    tag_14:\n      tag_64\n      tag_65\n      calldatasize\n      0x04\n      tag_23\n      jump\t// in\n    tag_65:\n      tag_66\n      jump\t// in\n    tag_64:\n      stop\n        /* \"contracts/DividendPayingERC20Token.sol\":1682:1719  uint256 public progressRewardBlockAdd */\n    tag_15:\n      tag_21\n      sload(0x07)\n      dup2\n      jump\n        /* \"contracts/DividendPayingERC20Token.sol\":1869:1893  uint256 public lpBonusEd */\n    tag_16:\n      tag_21\n      sload(0x0c)\n      dup2\n      jump\n        /* \"contracts/DividendPayingERC20Token.sol\":1807:1833  uint256 public dividendGas */\n    tag_17:\n      tag_21\n      sload(0x0a)\n      dup2\n      jump\n        /* \"contracts/DividendPayingERC20Token.sol\":3268:5207  function processReward(uint256 tfmount,address user)    external onlyOp returns (uint256) {... */\n    tag_18:\n      tag_21\n      tag_77\n      calldatasize\n      0x04\n      tag_78\n      jump\t// in\n    tag_77:\n      tag_79\n      jump\t// in\n        /* \"contracts/DividendPayingERC20Token.sol\":1763:1799  uint256 public holderRewardCondition */\n    tag_19:\n      tag_21\n      sload(0x09)\n      dup2\n      jump\n        /* \"contracts/DividendPayingERC20Token.sol\":2502:2519  address public op */\n    tag_20:\n      sload(0x16)\n      tag_50\n      swap1\n      sub(shl(0xa0, 0x01), 0x01)\n      and\n      dup2\n      jump\n        /* \"contracts/DividendPayingERC20Token.sol\":2148:2174  address[] public lpHolders */\n    tag_62:\n      0x12\n      dup2\n      dup2\n      sload\n      dup2\n      lt\n      tag_89\n      jumpi\n      0x00\n      dup1\n      revert\n    tag_89:\n      0x00\n      swap2\n      dup3\n      mstore\n      0x20\n      swap1\n      swap2\n      keccak256\n      add\n      sload\n      sub(shl(0xa0, 0x01), 0x01)\n      and\n      swap1\n      pop\n      dup2\n      jump\t// out\n        /* \"contracts/DividendPayingERC20Token.sol\":5938:6008  function setOp(address d) external onlyOwner {... */\n    tag_66:\n        /* \"contracts/DividendPayingERC20Token.sol\":2706:2711  owner */\n      and(sub(shl(0xa0, 0x01), 0x01), sload(0x17))\n        /* \"contracts/DividendPayingERC20Token.sol\":2715:2725  msg.sender */\n      caller\n        /* \"contracts/DividendPayingERC20Token.sol\":2706:2725  owner == msg.sender */\n      eq\n        /* \"contracts/DividendPayingERC20Token.sol\":2698:2762  require(owner == msg.sender, \"Ownable: caller is not the owner\") */\n      tag_92\n      jumpi\n      mload(0x40)\n      shl(0xe5, 0x461bcd)\n      dup2\n      mstore\n        /* \"#utility.yul\":1852:1854   */\n      0x20\n        /* \"contracts/DividendPayingERC20Token.sol\":2698:2762  require(owner == msg.sender, \"Ownable: caller is not the owner\") */\n      0x04\n      dup3\n      add\n        /* \"#utility.yul\":1834:1855   */\n      dup2\n      swap1\n      mstore\n        /* \"#utility.yul\":1871:1889   */\n      0x24\n      dup3\n      add\n        /* \"#utility.yul\":1864:1894   */\n      mstore\n        /* \"#utility.yul\":1930:1964   */\n      0x4f776e61626c653a2063616c6c6572206973206e6f7420746865206f776e6572\n        /* \"#utility.yul\":1910:1928   */\n      0x44\n      dup3\n      add\n        /* \"#utility.yul\":1903:1965   */\n      mstore\n        /* \"#utility.yul\":1982:2000   */\n      0x64\n      add\n        /* \"contracts/DividendPayingERC20Token.sol\":2698:2762  require(owner == msg.sender, \"Ownable: caller is not the owner\") */\n    tag_93:\n      mload(0x40)\n      dup1\n      swap2\n      sub\n      swap1\n      revert\n    tag_92:\n        /* \"contracts/DividendPayingERC20Token.sol\":5994:5996  op */\n      0x16\n        /* \"contracts/DividendPayingERC20Token.sol\":5994:6000  op = d */\n      dup1\n      sload\n      not(sub(shl(0xa0, 0x01), 0x01))\n      and\n      sub(shl(0xa0, 0x01), 0x01)\n      swap3\n      swap1\n      swap3\n      and\n      swap2\n      swap1\n      swap2\n      or\n      swap1\n      sstore\n        /* \"contracts/DividendPayingERC20Token.sol\":5938:6008  function setOp(address d) external onlyOwner {... */\n      jump\t// out\n        /* \"contracts/DividendPayingERC20Token.sol\":3268:5207  function processReward(uint256 tfmount,address user)    external onlyOp returns (uint256) {... */\n    tag_79:\n        /* \"contracts/DividendPayingERC20Token.sol\":2590:2592  op */\n      sload(0x16)\n        /* \"contracts/DividendPayingERC20Token.sol\":3349:3356  uint256 */\n      0x00\n      swap1\n      sub(shl(0xa0, 0x01), 0x01)\n        /* \"contracts/DividendPayingERC20Token.sol\":2590:2592  op */\n      and\n        /* \"contracts/DividendPayingERC20Token.sol\":2596:2606  msg.sender */\n      caller\n        /* \"contracts/DividendPayingERC20Token.sol\":2590:2606  op == msg.sender */\n      eq\n        /* \"contracts/DividendPayingERC20Token.sol\":2582:2640  require(op == msg.sender, \"Ownable: caller is not the op\") */\n      tag_97\n      jumpi\n      mload(0x40)\n      shl(0xe5, 0x461bcd)\n      dup2\n      mstore\n        /* \"#utility.yul\":2213:2215   */\n      0x20\n        /* \"contracts/DividendPayingERC20Token.sol\":2582:2640  require(op == msg.sender, \"Ownable: caller is not the op\") */\n      0x04\n      dup3\n      add\n        /* \"#utility.yul\":2195:2216   */\n      mstore\n        /* \"#utility.yul\":2252:2254   */\n      0x1d\n        /* \"#utility.yul\":2232:2250   */\n      0x24\n      dup3\n      add\n        /* \"#utility.yul\":2225:2255   */\n      mstore\n        /* \"#utility.yul\":2291:2322   */\n      0x4f776e61626c653a2063616c6c6572206973206e6f7420746865206f70000000\n        /* \"#utility.yul\":2271:2289   */\n      0x44\n      dup3\n      add\n        /* \"#utility.yul\":2264:2323   */\n      mstore\n        /* \"#utility.yul\":2340:2358   */\n      0x64\n      add\n        /* \"contracts/DividendPayingERC20Token.sol\":2582:2640  require(op == msg.sender, \"Ownable: caller is not the op\") */\n      tag_93\n        /* \"#utility.yul\":2011:2364   */\n      jump\n        /* \"contracts/DividendPayingERC20Token.sol\":2582:2640  require(op == msg.sender, \"Ownable: caller is not the op\") */\n    tag_97:\n        /* \"contracts/DividendPayingERC20Token.sol\":3379:3399  ariver(tfmount,user) */\n      tag_101\n        /* \"contracts/DividendPayingERC20Token.sol\":3386:3393  tfmount */\n      dup4\n        /* \"contracts/DividendPayingERC20Token.sol\":3394:3398  user */\n      dup4\n        /* \"contracts/DividendPayingERC20Token.sol\":3379:3385  ariver */\n      tag_102\n        /* \"contracts/DividendPayingERC20Token.sol\":3379:3399  ariver(tfmount,user) */\n      jump\t// in\n    tag_101:\n        /* \"contracts/DividendPayingERC20Token.sol\":3471:3483  block.number */\n      number\n        /* \"contracts/DividendPayingERC20Token.sol\":3446:3468  progressRewardBlockAdd */\n      sload(0x07)\n        /* \"contracts/DividendPayingERC20Token.sol\":3424:3443  progressRewardBlock */\n      sload(0x06)\n        /* \"contracts/DividendPayingERC20Token.sol\":3424:3468  progressRewardBlock + progressRewardBlockAdd */\n      tag_103\n      swap2\n      swap1\n      tag_104\n      jump\t// in\n    tag_103:\n        /* \"contracts/DividendPayingERC20Token.sol\":3424:3483  progressRewardBlock + progressRewardBlockAdd > block.number */\n      gt\n        /* \"contracts/DividendPayingERC20Token.sol\":3420:3520  if (progressRewardBlock + progressRewardBlockAdd > block.number) {... */\n      iszero\n      tag_105\n      jumpi\n      pop\n        /* \"contracts/DividendPayingERC20Token.sol\":3507:3508  0 */\n      0x00\n        /* \"contracts/DividendPayingERC20Token.sol\":3500:3508  return 0 */\n      jump(tag_100)\n        /* \"contracts/DividendPayingERC20Token.sol\":3420:3520  if (progressRewardBlock + progressRewardBlockAdd > block.number) {... */\n    tag_105:\n        /* \"contracts/DividendPayingERC20Token.sol\":3536:3549  totalLpSupply */\n      sload(0x0d)\n        /* \"contracts/DividendPayingERC20Token.sol\":3536:3554  totalLpSupply == 0 */\n      iszero\n      dup1\n        /* \"contracts/DividendPayingERC20Token.sol\":3536:3599  totalLpSupply == 0 || totalLpSupply <= _LpBalances[deadAddress] */\n      tag_106\n      jumpi\n      pop\n        /* \"contracts/DividendPayingERC20Token.sol\":3587:3598  deadAddress */\n      and(sub(shl(0xa0, 0x01), 0x01), sload(0x15))\n        /* \"contracts/DividendPayingERC20Token.sol\":3575:3599  _LpBalances[deadAddress] */\n      0x00\n      swap1\n      dup2\n      mstore\n        /* \"contracts/DividendPayingERC20Token.sol\":3575:3586  _LpBalances */\n      0x0e\n        /* \"contracts/DividendPayingERC20Token.sol\":3575:3599  _LpBalances[deadAddress] */\n      0x20\n      mstore\n      0x40\n      swap1\n      keccak256\n      sload\n        /* \"contracts/DividendPayingERC20Token.sol\":3558:3571  totalLpSupply */\n      sload(0x0d)\n        /* \"contracts/DividendPayingERC20Token.sol\":3558:3599  totalLpSupply <= _LpBalances[deadAddress] */\n      gt\n      iszero\n        /* \"contracts/DividendPayingERC20Token.sol\":3536:3599  totalLpSupply == 0 || totalLpSupply <= _LpBalances[deadAddress] */\n    tag_106:\n        /* \"contracts/DividendPayingERC20Token.sol\":3532:3633  if (totalLpSupply == 0 || totalLpSupply <= _LpBalances[deadAddress]){... */\n      iszero\n      tag_107\n      jumpi\n      pop\n        /* \"contracts/DividendPayingERC20Token.sol\":3620:3621  0 */\n      0x00\n        /* \"contracts/DividendPayingERC20Token.sol\":3613:3621  return 0 */\n      jump(tag_100)\n        /* \"contracts/DividendPayingERC20Token.sol\":3532:3633  if (totalLpSupply == 0 || totalLpSupply <= _LpBalances[deadAddress]){... */\n    tag_107:\n        /* \"contracts/DividendPayingERC20Token.sol\":3662:3669  lpBonus */\n      sload(0x0b)\n        /* \"contracts/DividendPayingERC20Token.sol\":3649:3658  lpBonusEd */\n      sload(0x0c)\n        /* \"contracts/DividendPayingERC20Token.sol\":3649:3669  lpBonusEd >= lpBonus */\n      lt\n        /* \"contracts/DividendPayingERC20Token.sol\":3645:3703  if (lpBonusEd >= lpBonus){... */\n      tag_108\n      jumpi\n      pop\n        /* \"contracts/DividendPayingERC20Token.sol\":3690:3691  0 */\n      0x00\n        /* \"contracts/DividendPayingERC20Token.sol\":3683:3691  return 0 */\n      jump(tag_100)\n        /* \"contracts/DividendPayingERC20Token.sol\":3645:3703  if (lpBonusEd >= lpBonus){... */\n    tag_108:\n        /* \"contracts/DividendPayingERC20Token.sol\":3713:3728  uint256 balance */\n      0x00\n        /* \"contracts/DividendPayingERC20Token.sol\":3741:3750  lpBonusEd */\n      sload(0x0c)\n        /* \"contracts/DividendPayingERC20Token.sol\":3731:3738  lpBonus */\n      sload(0x0b)\n        /* \"contracts/DividendPayingERC20Token.sol\":3731:3750  lpBonus - lpBonusEd */\n      tag_109\n      swap2\n      swap1\n      tag_110\n      jump\t// in\n    tag_109:\n        /* \"contracts/DividendPayingERC20Token.sol\":3713:3750  uint256 balance = lpBonus - lpBonusEd */\n      swap1\n      pop\n        /* \"contracts/DividendPayingERC20Token.sol\":3775:3796  holderRewardCondition */\n      sload(0x09)\n        /* \"contracts/DividendPayingERC20Token.sol\":3765:3772  balance */\n      dup2\n        /* \"contracts/DividendPayingERC20Token.sol\":3765:3796  balance < holderRewardCondition */\n      lt\n        /* \"contracts/DividendPayingERC20Token.sol\":3765:3845  balance < holderRewardCondition || address(this).balance < holderRewardCondition */\n      dup1\n      tag_111\n      jumpi\n      pop\n        /* \"contracts/DividendPayingERC20Token.sol\":3824:3845  holderRewardCondition */\n      sload(0x09)\n        /* \"contracts/DividendPayingERC20Token.sol\":3800:3821  address(this).balance */\n      selfbalance\n        /* \"contracts/DividendPayingERC20Token.sol\":3800:3845  address(this).balance < holderRewardCondition */\n      lt\n        /* \"contracts/DividendPayingERC20Token.sol\":3765:3845  balance < holderRewardCondition || address(this).balance < holderRewardCondition */\n    tag_111:\n        /* \"contracts/DividendPayingERC20Token.sol\":3761:3882  if (balance < holderRewardCondition || address(this).balance < holderRewardCondition) {... */\n      iszero\n      tag_112\n      jumpi\n        /* \"contracts/DividendPayingERC20Token.sol\":3869:3870  0 */\n      0x00\n        /* \"contracts/DividendPayingERC20Token.sol\":3862:3870  return 0 */\n      swap2\n      pop\n      pop\n      jump(tag_100)\n        /* \"contracts/DividendPayingERC20Token.sol\":3761:3882  if (balance < holderRewardCondition || address(this).balance < holderRewardCondition) {... */\n    tag_112:\n        /* \"contracts/DividendPayingERC20Token.sol\":4012:4021  lpHolders */\n      0x12\n        /* \"contracts/DividendPayingERC20Token.sol\":4012:4028  lpHolders.length */\n      sload\n        /* \"contracts/DividendPayingERC20Token.sol\":3906:3922  address lpHolder */\n      0x00\n      swap1\n      dup2\n      swap1\n      dup2\n      swap1\n      dup2\n      dup1\n      dup1\n        /* \"contracts/DividendPayingERC20Token.sol\":4122:4131  gasleft() */\n      gas\n        /* \"contracts/DividendPayingERC20Token.sol\":4104:4131  uint256 gasLeft = gasleft() */\n      swap1\n      pop\n        /* \"contracts/DividendPayingERC20Token.sol\":4152:5129  while (gasUsed < dividendGas && iterations < lpHolderCount) {... */\n    tag_113:\n        /* \"contracts/DividendPayingERC20Token.sol\":4169:4180  dividendGas */\n      sload(0x0a)\n        /* \"contracts/DividendPayingERC20Token.sol\":4159:4166  gasUsed */\n      dup4\n        /* \"contracts/DividendPayingERC20Token.sol\":4159:4180  gasUsed < dividendGas */\n      lt\n        /* \"contracts/DividendPayingERC20Token.sol\":4159:4210  gasUsed < dividendGas && iterations < lpHolderCount */\n      dup1\n      iszero\n      tag_115\n      jumpi\n      pop\n        /* \"contracts/DividendPayingERC20Token.sol\":4197:4210  lpHolderCount */\n      dup4\n        /* \"contracts/DividendPayingERC20Token.sol\":4184:4194  iterations */\n      dup3\n        /* \"contracts/DividendPayingERC20Token.sol\":4184:4210  iterations < lpHolderCount */\n      lt\n        /* \"contracts/DividendPayingERC20Token.sol\":4159:4210  gasUsed < dividendGas && iterations < lpHolderCount */\n    tag_115:\n        /* \"contracts/DividendPayingERC20Token.sol\":4152:5129  while (gasUsed < dividendGas && iterations < lpHolderCount) {... */\n      iszero\n      tag_114\n      jumpi\n        /* \"contracts/DividendPayingERC20Token.sol\":4249:4262  lpHolderCount */\n      dup4\n        /* \"contracts/DividendPayingERC20Token.sol\":4231:4245  currentLpIndex */\n      sload(0x14)\n        /* \"contracts/DividendPayingERC20Token.sol\":4231:4262  currentLpIndex >= lpHolderCount */\n      lt\n        /* \"contracts/DividendPayingERC20Token.sol\":4227:4317  if (currentLpIndex >= lpHolderCount) {... */\n      tag_116\n      jumpi\n        /* \"contracts/DividendPayingERC20Token.sol\":4300:4301  0 */\n      0x00\n        /* \"contracts/DividendPayingERC20Token.sol\":4283:4297  currentLpIndex */\n      0x14\n        /* \"contracts/DividendPayingERC20Token.sol\":4283:4301  currentLpIndex = 0 */\n      sstore\n        /* \"contracts/DividendPayingERC20Token.sol\":4227:4317  if (currentLpIndex >= lpHolderCount) {... */\n    tag_116:\n        /* \"contracts/DividendPayingERC20Token.sol\":4356:4365  lpHolders */\n      0x12\n        /* \"contracts/DividendPayingERC20Token.sol\":4366:4380  currentLpIndex */\n      sload(0x14)\n        /* \"contracts/DividendPayingERC20Token.sol\":4356:4381  lpHolders[currentLpIndex] */\n      dup2\n      sload\n      dup2\n      lt\n      tag_118\n      jumpi\n      tag_118\n      tag_119\n      jump\t// in\n    tag_118:\n      0x00\n      swap2\n      dup3\n      mstore\n      0x20\n      dup1\n      dup4\n      keccak256\n      swap1\n      swap2\n      add\n      sload\n      sub(shl(0xa0, 0x01), 0x01)\n      and\n        /* \"contracts/DividendPayingERC20Token.sol\":4408:4429  _LpBalances[lpHolder] */\n      dup1\n      dup4\n      mstore\n        /* \"contracts/DividendPayingERC20Token.sol\":4408:4419  _LpBalances */\n      0x0e\n        /* \"contracts/DividendPayingERC20Token.sol\":4408:4429  _LpBalances[lpHolder] */\n      swap1\n      swap2\n      mstore\n      0x40\n      swap1\n      swap2\n      keccak256\n      sload\n        /* \"contracts/DividendPayingERC20Token.sol\":4356:4381  lpHolders[currentLpIndex] */\n      swap1\n      swap8\n      pop\n        /* \"contracts/DividendPayingERC20Token.sol\":4408:4429  _LpBalances[lpHolder] */\n      swap6\n      pop\n        /* \"contracts/DividendPayingERC20Token.sol\":4461:4473  lpBalance >0 */\n      dup6\n      iszero\n      dup1\n      iszero\n      swap1\n        /* \"contracts/DividendPayingERC20Token.sol\":4461:4500  lpBalance >0 && lpHolder != deadAddress */\n      tag_121\n      jumpi\n      pop\n        /* \"contracts/DividendPayingERC20Token.sol\":4489:4500  deadAddress */\n      sload(0x15)\n      sub(shl(0xa0, 0x01), 0x01)\n        /* \"contracts/DividendPayingERC20Token.sol\":4477:4500  lpHolder != deadAddress */\n      dup9\n      dup2\n      and\n        /* \"contracts/DividendPayingERC20Token.sol\":4489:4500  deadAddress */\n      swap2\n      and\n        /* \"contracts/DividendPayingERC20Token.sol\":4477:4500  lpHolder != deadAddress */\n      eq\n      iszero\n        /* \"contracts/DividendPayingERC20Token.sol\":4461:4500  lpBalance >0 && lpHolder != deadAddress */\n    tag_121:\n        /* \"contracts/DividendPayingERC20Token.sol\":4458:4936  if(lpBalance >0 && lpHolder != deadAddress){... */\n      iszero\n      tag_128\n      jumpi\n        /* \"contracts/DividendPayingERC20Token.sol\":4578:4589  deadAddress */\n      and(sub(shl(0xa0, 0x01), 0x01), sload(0x15))\n        /* \"contracts/DividendPayingERC20Token.sol\":4566:4590  _LpBalances[deadAddress] */\n      0x00\n      swap1\n      dup2\n      mstore\n        /* \"contracts/DividendPayingERC20Token.sol\":4566:4577  _LpBalances */\n      0x0e\n        /* \"contracts/DividendPayingERC20Token.sol\":4566:4590  _LpBalances[deadAddress] */\n      0x20\n      mstore\n      0x40\n      swap1\n      keccak256\n      sload\n        /* \"contracts/DividendPayingERC20Token.sol\":4552:4565  totalLpSupply */\n      sload(0x0d)\n        /* \"contracts/DividendPayingERC20Token.sol\":4552:4590  totalLpSupply-_LpBalances[deadAddress] */\n      tag_123\n      swap2\n        /* \"contracts/DividendPayingERC20Token.sol\":4566:4590  _LpBalances[deadAddress] */\n      swap1\n        /* \"contracts/DividendPayingERC20Token.sol\":4552:4590  totalLpSupply-_LpBalances[deadAddress] */\n      tag_110\n      jump\t// in\n    tag_123:\n        /* \"contracts/DividendPayingERC20Token.sol\":4528:4547  balance * lpBalance */\n      tag_124\n        /* \"contracts/DividendPayingERC20Token.sol\":4538:4547  lpBalance */\n      dup8\n        /* \"contracts/DividendPayingERC20Token.sol\":4528:4535  balance */\n      dup11\n        /* \"contracts/DividendPayingERC20Token.sol\":4528:4547  balance * lpBalance */\n      tag_125\n      jump\t// in\n    tag_124:\n        /* \"contracts/DividendPayingERC20Token.sol\":4527:4591  (balance * lpBalance) / (totalLpSupply-_LpBalances[deadAddress]) */\n      tag_126\n      swap2\n      swap1\n      tag_127\n      jump\t// in\n    tag_126:\n        /* \"contracts/DividendPayingERC20Token.sol\":4518:4591  amount = (balance * lpBalance) / (totalLpSupply-_LpBalances[deadAddress]) */\n      swap5\n      pop\n        /* \"contracts/DividendPayingERC20Token.sol\":4614:4624  amount > 0 */\n      dup5\n      iszero\n        /* \"contracts/DividendPayingERC20Token.sol\":4610:4921  if (amount > 0) {... */\n      tag_128\n      jumpi\n        /* \"contracts/DividendPayingERC20Token.sol\":4725:4769  IERC20(msg.sender).transfer(lpHolder,amount) */\n      mload(0x40)\n      shl(0xe0, 0xa9059cbb)\n      dup2\n      mstore\n      sub(shl(0xa0, 0x01), 0x01)\n        /* \"#utility.yul\":3483:3515   */\n      dup9\n      and\n        /* \"contracts/DividendPayingERC20Token.sol\":4725:4769  IERC20(msg.sender).transfer(lpHolder,amount) */\n      0x04\n      dup3\n      add\n        /* \"#utility.yul\":3465:3516   */\n      mstore\n        /* \"#utility.yul\":3532:3550   */\n      0x24\n      dup2\n      add\n        /* \"#utility.yul\":3525:3559   */\n      dup7\n      swap1\n      mstore\n        /* \"contracts/DividendPayingERC20Token.sol\":4732:4742  msg.sender */\n      caller\n      swap1\n        /* \"contracts/DividendPayingERC20Token.sol\":4725:4752  IERC20(msg.sender).transfer */\n      0xa9059cbb\n      swap1\n        /* \"#utility.yul\":3438:3456   */\n      0x44\n      add\n        /* \"contracts/DividendPayingERC20Token.sol\":4725:4769  IERC20(msg.sender).transfer(lpHolder,amount) */\n      0x20\n      mload(0x40)\n      dup1\n      dup4\n      sub\n      dup2\n      0x00\n      dup8\n      gas\n      call\n      iszero\n      dup1\n      iszero\n      tag_132\n      jumpi\n      returndatasize\n      0x00\n      dup1\n      returndatacopy\n      revert(0x00, returndatasize)\n    tag_132:\n      pop\n      pop\n      pop\n      pop\n      mload(0x40)\n      returndatasize\n      not(0x1f)\n      0x1f\n      dup3\n      add\n      and\n      dup3\n      add\n      dup1\n      0x40\n      mstore\n      pop\n      dup2\n      add\n      swap1\n      tag_133\n      swap2\n      swap1\n      tag_134\n      jump\t// in\n    tag_133:\n      pop\n        /* \"contracts/DividendPayingERC20Token.sol\":4848:4854  amount */\n      dup5\n        /* \"contracts/DividendPayingERC20Token.sol\":4835:4844  lpBonusEd */\n      0x0c\n      0x00\n        /* \"contracts/DividendPayingERC20Token.sol\":4835:4854  lpBonusEd += amount */\n      dup3\n      dup3\n      sload\n      tag_135\n      swap2\n      swap1\n      tag_104\n      jump\t// in\n    tag_135:\n      swap1\n      swap2\n      sstore\n      pop\n      pop\n        /* \"contracts/DividendPayingERC20Token.sol\":4610:4921  if (amount > 0) {... */\n    tag_128:\n        /* \"contracts/DividendPayingERC20Token.sol\":5015:5024  gasleft() */\n      gas\n        /* \"contracts/DividendPayingERC20Token.sol\":5005:5024  gasLeft - gasleft() */\n      tag_136\n      swap1\n        /* \"contracts/DividendPayingERC20Token.sol\":5005:5012  gasLeft */\n      dup3\n        /* \"contracts/DividendPayingERC20Token.sol\":5005:5024  gasLeft - gasleft() */\n      tag_110\n      jump\t// in\n    tag_136:\n        /* \"contracts/DividendPayingERC20Token.sol\":4994:5025  gasUsed + (gasLeft - gasleft()) */\n      tag_137\n      swap1\n        /* \"contracts/DividendPayingERC20Token.sol\":4994:5001  gasUsed */\n      dup5\n        /* \"contracts/DividendPayingERC20Token.sol\":4994:5025  gasUsed + (gasLeft - gasleft()) */\n      tag_104\n      jump\t// in\n    tag_137:\n        /* \"contracts/DividendPayingERC20Token.sol\":4984:5025  gasUsed = gasUsed + (gasLeft - gasleft()) */\n      swap3\n      pop\n        /* \"contracts/DividendPayingERC20Token.sol\":5050:5059  gasleft() */\n      gas\n        /* \"contracts/DividendPayingERC20Token.sol\":5074:5088  currentLpIndex */\n      0x14\n        /* \"contracts/DividendPayingERC20Token.sol\":5074:5090  currentLpIndex++ */\n      dup1\n      sload\n        /* \"contracts/DividendPayingERC20Token.sol\":5040:5059  gasLeft = gasleft() */\n      swap2\n      swap3\n      pop\n        /* \"contracts/DividendPayingERC20Token.sol\":5074:5088  currentLpIndex */\n      0x00\n        /* \"contracts/DividendPayingERC20Token.sol\":5074:5090  currentLpIndex++ */\n      tag_138\n      dup4\n      tag_139\n      jump\t// in\n    tag_138:\n      swap2\n      swap1\n      pop\n      sstore\n      pop\n        /* \"contracts/DividendPayingERC20Token.sol\":5105:5117  iterations++ */\n      dup2\n      dup1\n      tag_140\n      swap1\n      tag_139\n      jump\t// in\n    tag_140:\n      swap3\n      pop\n      pop\n        /* \"contracts/DividendPayingERC20Token.sol\":4152:5129  while (gasUsed < dividendGas && iterations < lpHolderCount) {... */\n      jump(tag_113)\n    tag_114:\n      pop\n      pop\n        /* \"contracts/DividendPayingERC20Token.sol\":5163:5175  block.number */\n      number\n        /* \"contracts/DividendPayingERC20Token.sol\":5141:5160  progressRewardBlock */\n      0x06\n        /* \"contracts/DividendPayingERC20Token.sol\":5141:5175  progressRewardBlock = block.number */\n      sstore\n      pop\n        /* \"contracts/DividendPayingERC20Token.sol\":5193:5199  amount */\n      swap1\n      swap5\n      pop\n      pop\n      pop\n      pop\n      pop\n        /* \"contracts/DividendPayingERC20Token.sol\":2651:2652  _ */\n    tag_100:\n        /* \"contracts/DividendPayingERC20Token.sol\":3268:5207  function processReward(uint256 tfmount,address user)    external onlyOp returns (uint256) {... */\n      swap3\n      swap2\n      pop\n      pop\n      jump\t// out\n        /* \"contracts/DividendPayingERC20Token.sol\":5215:5808  function ariver(uint256 amount,address sender)internal virtual   {... */\n    tag_102:\n        /* \"contracts/DividendPayingERC20Token.sol\":5339:5345  amount */\n      dup2\n        /* \"contracts/DividendPayingERC20Token.sol\":5322:5335  totalLpSupply */\n      0x0d\n      0x00\n        /* \"contracts/DividendPayingERC20Token.sol\":5322:5345  totalLpSupply += amount */\n      dup3\n      dup3\n      sload\n      tag_142\n      swap2\n      swap1\n      tag_104\n      jump\t// in\n    tag_142:\n      swap1\n      swap2\n      sstore\n      pop\n      pop\n      sub(shl(0xa0, 0x01), 0x01)\n        /* \"contracts/DividendPayingERC20Token.sol\":5354:5373  _LpBalances[sender] */\n      dup2\n      and\n      0x00\n      swap1\n      dup2\n      mstore\n        /* \"contracts/DividendPayingERC20Token.sol\":5354:5365  _LpBalances */\n      0x0e\n        /* \"contracts/DividendPayingERC20Token.sol\":5354:5373  _LpBalances[sender] */\n      0x20\n      mstore\n      0x40\n      dup2\n      keccak256\n        /* \"contracts/DividendPayingERC20Token.sol\":5354:5383  _LpBalances[sender] += amount */\n      dup1\n      sload\n        /* \"contracts/DividendPayingERC20Token.sol\":5377:5383  amount */\n      dup5\n      swap3\n        /* \"contracts/DividendPayingERC20Token.sol\":5354:5373  _LpBalances[sender] */\n      swap1\n        /* \"contracts/DividendPayingERC20Token.sol\":5354:5383  _LpBalances[sender] += amount */\n      tag_143\n      swap1\n        /* \"contracts/DividendPayingERC20Token.sol\":5377:5383  amount */\n      dup5\n      swap1\n        /* \"contracts/DividendPayingERC20Token.sol\":5354:5383  _LpBalances[sender] += amount */\n      tag_104\n      jump\t// in\n    tag_143:\n      swap1\n      swap2\n      sstore\n      pop\n      pop\n      sub(shl(0xa0, 0x01), 0x01)\n        /* \"contracts/DividendPayingERC20Token.sol\":5392:5411  _lastLpTime[sender] */\n      dup2\n      and\n      0x00\n      swap1\n      dup2\n      mstore\n        /* \"contracts/DividendPayingERC20Token.sol\":5392:5403  _lastLpTime */\n      0x0f\n        /* \"contracts/DividendPayingERC20Token.sol\":5392:5411  _lastLpTime[sender] */\n      0x20\n      swap1\n      dup2\n      mstore\n      0x40\n      dup1\n      dup4\n      keccak256\n        /* \"contracts/DividendPayingERC20Token.sol\":5414:5429  block.timestamp */\n      timestamp\n        /* \"contracts/DividendPayingERC20Token.sol\":5392:5429  _lastLpTime[sender] = block.timestamp */\n      swap1\n      sstore\n        /* \"contracts/DividendPayingERC20Token.sol\":5439:5447  _lastEth */\n      0x10\n        /* \"contracts/DividendPayingERC20Token.sol\":5439:5455  _lastEth[sender] */\n      swap1\n      swap2\n      mstore\n      dup2\n      keccak256\n        /* \"contracts/DividendPayingERC20Token.sol\":5439:5468  _lastEth[sender] += msg.value */\n      dup1\n      sload\n        /* \"contracts/DividendPayingERC20Token.sol\":5459:5468  msg.value */\n      callvalue\n      swap3\n        /* \"contracts/DividendPayingERC20Token.sol\":5392:5411  _lastLpTime[sender] */\n      swap1\n        /* \"contracts/DividendPayingERC20Token.sol\":5439:5468  _lastEth[sender] += msg.value */\n      tag_144\n      swap1\n        /* \"contracts/DividendPayingERC20Token.sol\":5459:5468  msg.value */\n      dup5\n      swap1\n        /* \"contracts/DividendPayingERC20Token.sol\":5439:5468  _lastEth[sender] += msg.value */\n      tag_104\n      jump\t// in\n    tag_144:\n      swap1\n      swap2\n      sstore\n      pop\n      pop\n        /* \"contracts/DividendPayingERC20Token.sol\":5511:5522  deadAddress */\n      and(sub(shl(0xa0, 0x01), 0x01), sload(0x15))\n        /* \"contracts/DividendPayingERC20Token.sol\":5497:5523  lpHolderIndex[deadAddress] */\n      0x00\n      swap1\n      dup2\n      mstore\n        /* \"contracts/DividendPayingERC20Token.sol\":5497:5510  lpHolderIndex */\n      0x13\n        /* \"contracts/DividendPayingERC20Token.sol\":5497:5523  lpHolderIndex[deadAddress] */\n      0x20\n      mstore\n      0x40\n      dup2\n      keccak256\n      sload\n        /* \"contracts/DividendPayingERC20Token.sol\":5492:5523  0 == lpHolderIndex[deadAddress] */\n      swap1\n      sub\n        /* \"contracts/DividendPayingERC20Token.sol\":5488:5635  if (0 == lpHolderIndex[deadAddress]) {... */\n      tag_145\n      jumpi\n        /* \"contracts/DividendPayingERC20Token.sol\":5567:5576  lpHolders */\n      0x12\n        /* \"contracts/DividendPayingERC20Token.sol\":5567:5583  lpHolders.length */\n      dup1\n      sload\n        /* \"contracts/DividendPayingERC20Token.sol\":5552:5563  deadAddress */\n      0x15\n      dup1\n      sload\n      sub(shl(0xa0, 0x01), 0x01)\n      swap1\n      dup2\n      and\n        /* \"contracts/DividendPayingERC20Token.sol\":5538:5564  lpHolderIndex[deadAddress] */\n      0x00\n      swap1\n      dup2\n      mstore\n        /* \"contracts/DividendPayingERC20Token.sol\":5538:5551  lpHolderIndex */\n      0x13\n        /* \"contracts/DividendPayingERC20Token.sol\":5538:5564  lpHolderIndex[deadAddress] */\n      0x20\n      mstore\n      0x40\n      dup2\n      keccak256\n        /* \"contracts/DividendPayingERC20Token.sol\":5538:5583  lpHolderIndex[deadAddress] = lpHolders.length */\n      dup5\n      swap1\n      sstore\n        /* \"contracts/DividendPayingERC20Token.sol\":5611:5622  deadAddress */\n      swap2\n      sload\n        /* \"contracts/DividendPayingERC20Token.sol\":5552:5563  deadAddress */\n      0x01\n        /* \"contracts/DividendPayingERC20Token.sol\":5596:5623  lpHolders.push(deadAddress) */\n      dup5\n      add\n      dup6\n      sstore\n      swap4\n      swap1\n      swap2\n      mstore\n      0x00\n      dup1\n      mload\n      0x20\n      data_2aae2886df6780c9b9d8fffa80836b2a0bdc3f69298294d45045d94457f72ca2\n      dup4\n      codecopy\n      dup2\n      mload\n      swap2\n      mstore\n      swap1\n      swap2\n      add\n      dup1\n      sload\n      not(sub(shl(0xa0, 0x01), 0x01))\n      and\n        /* \"contracts/DividendPayingERC20Token.sol\":5611:5622  deadAddress */\n      swap3\n      swap1\n      swap2\n      and\n        /* \"contracts/DividendPayingERC20Token.sol\":5596:5623  lpHolders.push(deadAddress) */\n      swap2\n      swap1\n      swap2\n      or\n      swap1\n      sstore\n        /* \"contracts/DividendPayingERC20Token.sol\":5488:5635  if (0 == lpHolderIndex[deadAddress]) {... */\n    tag_145:\n      sub(shl(0xa0, 0x01), 0x01)\n        /* \"contracts/DividendPayingERC20Token.sol\":5660:5681  lpHolderIndex[sender] */\n      dup2\n      and\n      0x00\n      swap1\n      dup2\n      mstore\n        /* \"contracts/DividendPayingERC20Token.sol\":5660:5673  lpHolderIndex */\n      0x13\n        /* \"contracts/DividendPayingERC20Token.sol\":5660:5681  lpHolderIndex[sender] */\n      0x20\n      mstore\n      0x40\n      dup2\n      keccak256\n      sload\n        /* \"contracts/DividendPayingERC20Token.sol\":5655:5681  0 == lpHolderIndex[sender] */\n      swap1\n      sub\n        /* \"contracts/DividendPayingERC20Token.sol\":5651:5783  if (0 == lpHolderIndex[sender]) {... */\n      tag_147\n      jumpi\n        /* \"contracts/DividendPayingERC20Token.sol\":5720:5729  lpHolders */\n      0x12\n        /* \"contracts/DividendPayingERC20Token.sol\":5720:5736  lpHolders.length */\n      dup1\n      sload\n      sub(shl(0xa0, 0x01), 0x01)\n        /* \"contracts/DividendPayingERC20Token.sol\":5696:5717  lpHolderIndex[sender] */\n      dup4\n      and\n      0x00\n      dup2\n      dup2\n      mstore\n        /* \"contracts/DividendPayingERC20Token.sol\":5696:5709  lpHolderIndex */\n      0x13\n        /* \"contracts/DividendPayingERC20Token.sol\":5696:5717  lpHolderIndex[sender] */\n      0x20\n      mstore\n      0x40\n      dup2\n      keccak256\n        /* \"contracts/DividendPayingERC20Token.sol\":5696:5736  lpHolderIndex[sender] = lpHolders.length */\n      dup4\n      swap1\n      sstore\n        /* \"contracts/DividendPayingERC20Token.sol\":5749:5771  lpHolders.push(sender) */\n      0x01\n      dup4\n      add\n      dup5\n      sstore\n      swap3\n      swap1\n      swap3\n      mstore\n      0x00\n      dup1\n      mload\n      0x20\n      data_2aae2886df6780c9b9d8fffa80836b2a0bdc3f69298294d45045d94457f72ca2\n      dup4\n      codecopy\n      dup2\n      mload\n      swap2\n      mstore\n      add\n      dup1\n      sload\n      not(sub(shl(0xa0, 0x01), 0x01))\n      and\n      swap1\n      swap2\n      or\n      swap1\n      sstore\n        /* \"contracts/DividendPayingERC20Token.sol\":5651:5783  if (0 == lpHolderIndex[sender]) {... */\n    tag_147:\n        /* \"contracts/DividendPayingERC20Token.sol\":5215:5808  function ariver(uint256 amount,address sender)internal virtual   {... */\n      pop\n      pop\n      jump\t// out\n        /* \"#utility.yul\":14:187   */\n    tag_149:\n        /* \"#utility.yul\":82:102   */\n      dup1\n      calldataload\n      sub(shl(0xa0, 0x01), 0x01)\n        /* \"#utility.yul\":131:162   */\n      dup2\n      and\n        /* \"#utility.yul\":121:163   */\n      dup2\n      eq\n        /* \"#utility.yul\":111:181   */\n      tag_153\n      jumpi\n        /* \"#utility.yul\":177:178   */\n      0x00\n        /* \"#utility.yul\":174:175   */\n      dup1\n        /* \"#utility.yul\":167:179   */\n      revert\n        /* \"#utility.yul\":111:181   */\n    tag_153:\n        /* \"#utility.yul\":14:187   */\n      swap2\n      swap1\n      pop\n      jump\t// out\n        /* \"#utility.yul\":192:378   */\n    tag_23:\n        /* \"#utility.yul\":251:257   */\n      0x00\n        /* \"#utility.yul\":304:306   */\n      0x20\n        /* \"#utility.yul\":292:301   */\n      dup3\n        /* \"#utility.yul\":283:290   */\n      dup5\n        /* \"#utility.yul\":279:302   */\n      sub\n        /* \"#utility.yul\":275:307   */\n      slt\n        /* \"#utility.yul\":272:324   */\n      iszero\n      tag_155\n      jumpi\n        /* \"#utility.yul\":320:321   */\n      0x00\n        /* \"#utility.yul\":317:318   */\n      dup1\n        /* \"#utility.yul\":310:322   */\n      revert\n        /* \"#utility.yul\":272:324   */\n    tag_155:\n        /* \"#utility.yul\":343:372   */\n      tag_156\n        /* \"#utility.yul\":362:371   */\n      dup3\n        /* \"#utility.yul\":343:372   */\n      tag_149\n      jump\t// in\n    tag_156:\n        /* \"#utility.yul\":333:372   */\n      swap4\n        /* \"#utility.yul\":192:378   */\n      swap3\n      pop\n      pop\n      pop\n      jump\t// out\n        /* \"#utility.yul\":1206:1386   */\n    tag_61:\n        /* \"#utility.yul\":1265:1271   */\n      0x00\n        /* \"#utility.yul\":1318:1320   */\n      0x20\n        /* \"#utility.yul\":1306:1315   */\n      dup3\n        /* \"#utility.yul\":1297:1304   */\n      dup5\n        /* \"#utility.yul\":1293:1316   */\n      sub\n        /* \"#utility.yul\":1289:1321   */\n      slt\n        /* \"#utility.yul\":1286:1338   */\n      iszero\n      tag_162\n      jumpi\n        /* \"#utility.yul\":1334:1335   */\n      0x00\n        /* \"#utility.yul\":1331:1332   */\n      dup1\n        /* \"#utility.yul\":1324:1336   */\n      revert\n        /* \"#utility.yul\":1286:1338   */\n    tag_162:\n      pop\n        /* \"#utility.yul\":1357:1380   */\n      calldataload\n      swap2\n        /* \"#utility.yul\":1206:1386   */\n      swap1\n      pop\n      jump\t// out\n        /* \"#utility.yul\":1391:1645   */\n    tag_78:\n        /* \"#utility.yul\":1459:1465   */\n      0x00\n        /* \"#utility.yul\":1467:1473   */\n      dup1\n        /* \"#utility.yul\":1520:1522   */\n      0x40\n        /* \"#utility.yul\":1508:1517   */\n      dup4\n        /* \"#utility.yul\":1499:1506   */\n      dup6\n        /* \"#utility.yul\":1495:1518   */\n      sub\n        /* \"#utility.yul\":1491:1523   */\n      slt\n        /* \"#utility.yul\":1488:1540   */\n      iszero\n      tag_164\n      jumpi\n        /* \"#utility.yul\":1536:1537   */\n      0x00\n        /* \"#utility.yul\":1533:1534   */\n      dup1\n        /* \"#utility.yul\":1526:1538   */\n      revert\n        /* \"#utility.yul\":1488:1540   */\n    tag_164:\n        /* \"#utility.yul\":1572:1581   */\n      dup3\n        /* \"#utility.yul\":1559:1582   */\n      calldataload\n        /* \"#utility.yul\":1549:1582   */\n      swap2\n      pop\n        /* \"#utility.yul\":1601:1639   */\n      tag_165\n        /* \"#utility.yul\":1635:1637   */\n      0x20\n        /* \"#utility.yul\":1624:1633   */\n      dup5\n        /* \"#utility.yul\":1620:1638   */\n      add\n        /* \"#utility.yul\":1601:1639   */\n      tag_149\n      jump\t// in\n    tag_165:\n        /* \"#utility.yul\":1591:1639   */\n      swap1\n      pop\n        /* \"#utility.yul\":1391:1645   */\n      swap3\n      pop\n      swap3\n      swap1\n      pop\n      jump\t// out\n        /* \"#utility.yul\":2369:2496   */\n    tag_150:\n        /* \"#utility.yul\":2430:2440   */\n      0x4e487b71\n        /* \"#utility.yul\":2425:2428   */\n      0xe0\n        /* \"#utility.yul\":2421:2441   */\n      shl\n        /* \"#utility.yul\":2418:2419   */\n      0x00\n        /* \"#utility.yul\":2411:2442   */\n      mstore\n        /* \"#utility.yul\":2461:2465   */\n      0x11\n        /* \"#utility.yul\":2458:2459   */\n      0x04\n        /* \"#utility.yul\":2451:2466   */\n      mstore\n        /* \"#utility.yul\":2485:2489   */\n      0x24\n        /* \"#utility.yul\":2482:2483   */\n      0x00\n        /* \"#utility.yul\":2475:2490   */\n      revert\n        /* \"#utility.yul\":2501:2626   */\n    tag_104:\n        /* \"#utility.yul\":2566:2575   */\n      dup1\n      dup3\n      add\n        /* \"#utility.yul\":2587:2597   */\n      dup1\n      dup3\n      gt\n        /* \"#utility.yul\":2584:2620   */\n      iszero\n      tag_100\n      jumpi\n        /* \"#utility.yul\":2600:2618   */\n      tag_100\n      tag_150\n      jump\t// in\n        /* \"#utility.yul\":2631:2759   */\n    tag_110:\n        /* \"#utility.yul\":2698:2707   */\n      dup2\n      dup2\n      sub\n        /* \"#utility.yul\":2719:2730   */\n      dup2\n      dup2\n      gt\n        /* \"#utility.yul\":2716:2753   */\n      iszero\n      tag_100\n      jumpi\n        /* \"#utility.yul\":2733:2751   */\n      tag_100\n      tag_150\n      jump\t// in\n        /* \"#utility.yul\":2764:2891   */\n    tag_119:\n        /* \"#utility.yul\":2825:2835   */\n      0x4e487b71\n        /* \"#utility.yul\":2820:2823   */\n      0xe0\n        /* \"#utility.yul\":2816:2836   */\n      shl\n        /* \"#utility.yul\":2813:2814   */\n      0x00\n        /* \"#utility.yul\":2806:2837   */\n      mstore\n        /* \"#utility.yul\":2856:2860   */\n      0x32\n        /* \"#utility.yul\":2853:2854   */\n      0x04\n        /* \"#utility.yul\":2846:2861   */\n      mstore\n        /* \"#utility.yul\":2880:2884   */\n      0x24\n        /* \"#utility.yul\":2877:2878   */\n      0x00\n        /* \"#utility.yul\":2870:2885   */\n      revert\n        /* \"#utility.yul\":2896:3064   */\n    tag_125:\n        /* \"#utility.yul\":2969:2978   */\n      dup1\n      dup3\n      mul\n        /* \"#utility.yul\":3000:3009   */\n      dup2\n      iszero\n        /* \"#utility.yul\":3017:3032   */\n      dup3\n      dup3\n      div\n        /* \"#utility.yul\":3011:3033   */\n      dup5\n      eq\n        /* \"#utility.yul\":2997:3034   */\n      or\n        /* \"#utility.yul\":2987:3058   */\n      tag_100\n      jumpi\n        /* \"#utility.yul\":3038:3056   */\n      tag_100\n      tag_150\n      jump\t// in\n        /* \"#utility.yul\":3069:3286   */\n    tag_127:\n        /* \"#utility.yul\":3109:3110   */\n      0x00\n        /* \"#utility.yul\":3135:3136   */\n      dup3\n        /* \"#utility.yul\":3125:3257   */\n      tag_180\n      jumpi\n        /* \"#utility.yul\":3179:3189   */\n      0x4e487b71\n        /* \"#utility.yul\":3174:3177   */\n      0xe0\n        /* \"#utility.yul\":3170:3190   */\n      shl\n        /* \"#utility.yul\":3167:3168   */\n      0x00\n        /* \"#utility.yul\":3160:3191   */\n      mstore\n        /* \"#utility.yul\":3214:3218   */\n      0x12\n        /* \"#utility.yul\":3211:3212   */\n      0x04\n        /* \"#utility.yul\":3204:3219   */\n      mstore\n        /* \"#utility.yul\":3242:3246   */\n      0x24\n        /* \"#utility.yul\":3239:3240   */\n      0x00\n        /* \"#utility.yul\":3232:3247   */\n      revert\n        /* \"#utility.yul\":3125:3257   */\n    tag_180:\n      pop\n        /* \"#utility.yul\":3271:3280   */\n      div\n      swap1\n        /* \"#utility.yul\":3069:3286   */\n      jump\t// out\n        /* \"#utility.yul\":3570:3847   */\n    tag_134:\n        /* \"#utility.yul\":3637:3643   */\n      0x00\n        /* \"#utility.yul\":3690:3692   */\n      0x20\n        /* \"#utility.yul\":3678:3687   */\n      dup3\n        /* \"#utility.yul\":3669:3676   */\n      dup5\n        /* \"#utility.yul\":3665:3688   */\n      sub\n        /* \"#utility.yul\":3661:3693   */\n      slt\n        /* \"#utility.yul\":3658:3710   */\n      iszero\n      tag_183\n      jumpi\n        /* \"#utility.yul\":3706:3707   */\n      0x00\n        /* \"#utility.yul\":3703:3704   */\n      dup1\n        /* \"#utility.yul\":3696:3708   */\n      revert\n        /* \"#utility.yul\":3658:3710   */\n    tag_183:\n        /* \"#utility.yul\":3738:3747   */\n      dup2\n        /* \"#utility.yul\":3732:3748   */\n      mload\n        /* \"#utility.yul\":3791:3796   */\n      dup1\n        /* \"#utility.yul\":3784:3797   */\n      iszero\n        /* \"#utility.yul\":3777:3798   */\n      iszero\n        /* \"#utility.yul\":3770:3775   */\n      dup2\n        /* \"#utility.yul\":3767:3799   */\n      eq\n        /* \"#utility.yul\":3757:3817   */\n      tag_156\n      jumpi\n        /* \"#utility.yul\":3813:3814   */\n      0x00\n        /* \"#utility.yul\":3810:3811   */\n      dup1\n        /* \"#utility.yul\":3803:3815   */\n      revert\n        /* \"#utility.yul\":3852:3987   */\n    tag_139:\n        /* \"#utility.yul\":3891:3894   */\n      0x00\n        /* \"#utility.yul\":3912:3929   */\n      0x01\n      dup3\n      add\n        /* \"#utility.yul\":3909:3952   */\n      tag_187\n      jumpi\n        /* \"#utility.yul\":3932:3950   */\n      tag_187\n      tag_150\n      jump\t// in\n    tag_187:\n      pop\n        /* \"#utility.yul\":3979:3980   */\n      0x01\n        /* \"#utility.yul\":3968:3981   */\n      add\n      swap1\n        /* \"#utility.yul\":3852:3987   */\n      jump\t// out\n    stop\n    data_2aae2886df6780c9b9d8fffa80836b2a0bdc3f69298294d45045d94457f72ca2 bb8a6a4669ba250d26cd7a459eca9d215f8307e33aebe50379bc5a3617ec3444\n\n    auxdata: 0xa2646970667358221220627fd2be6fdf50c2f950902765a954562daa58332ddfa84b3dee1463227171da64736f6c63430008140033\n}\n",
				"bytecode": {
					"linkReferences": {},
					"object": "608060405234801561000f575f80fd5b50601780546001600160a01b0319908116331790915560c8600755662386f26fc1000060095569010f0cf064dd592000006008556207a120600a556015805490911661dead9081179091555f90815260208190527f44ad89ba62b98ff34f51403ac22759b55759460c0bb5521eb4b6ee3cff49cf8355610889806100925f395ff3fe608060405234801561000f575f80fd5b50600436106100e4575f3560e01c80630affb402146100e85780631210c4341461011a57806315c43aaf146101235780632a5955121461013e5780633a7960e0146101475780633fe9f9f714610150578063621f9c0a1461015957806370a08231146101625780638da5cb5b1461018a57806397a06724146101b55780639f0d7eb8146101d4578063a36a7526146101e7578063add0a6c6146101fc578063b367bf8314610205578063bd8767021461020e578063dd2cad6014610217578063eb10b7411461022a578063ec1f1f6914610233575b5f80fd5b6101076100f6366004610717565b60136020525f908152604090205481565b6040519081526020015b60405180910390f35b61010760145481565b60015460025460408051928352602083019190915201610111565b61010760065481565b61010760055481565b61010760085481565b610107600b5481565b610107610170366004610717565b6001600160a01b03165f9081526020819052604090205490565b60175461019d906001600160a01b031681565b6040516001600160a01b039091168152602001610111565b6101076101c3366004610717565b60036020525f908152604090205481565b61019d6101e2366004610737565b610246565b6101fa6101f5366004610717565b61026e565b005b61010760075481565b610107600c5481565b610107600a5481565b61010761022536600461074e565b6102ef565b61010760095481565b60165461019d906001600160a01b031681565b60128181548110610255575f80fd5b5f918252602090912001546001600160a01b0316905081565b6017546001600160a01b031633146102cd5760405162461bcd60e51b815260206004820181905260248201527f4f776e61626c653a2063616c6c6572206973206e6f7420746865206f776e657260448201526064015b60405180910390fd5b601680546001600160a01b0319166001600160a01b0392909216919091179055565b6016545f906001600160a01b0316331461034b5760405162461bcd60e51b815260206004820152601d60248201527f4f776e61626c653a2063616c6c6572206973206e6f7420746865206f7000000060448201526064016102c4565b610355838361059f565b43600754600654610366919061078c565b111561037357505f610599565b600d54158061039d57506015546001600160a01b03165f908152600e6020526040902054600d5411155b156103a957505f610599565b600b54600c54106103bb57505f610599565b5f600c54600b546103cc919061079f565b90506009548110806103df575060095447105b156103ed575f915050610599565b6012545f90819081908180805a90505b600a548310801561040d57508382105b1561058a578360145410610420575f6014555b601260145481548110610435576104356107b2565b5f9182526020808320909101546001600160a01b0316808352600e9091526040909120549097509550851580159061047b57506015546001600160a01b03888116911614155b15610549576015546001600160a01b03165f908152600e6020526040902054600d546104a7919061079f565b6104b1878a6107c6565b6104bb91906107dd565b945084156105495760405163a9059cbb60e01b81526001600160a01b038816600482015260248101869052339063a9059cbb906044016020604051808303815f875af115801561050d573d5f803e3d5ffd5b505050506040513d601f19601f8201168201806040525081019061053191906107fc565b5084600c5f828254610543919061078c565b90915550505b5a610554908261079f565b61055e908461078c565b92505a601480549192505f6105728361081b565b919050555081806105829061081b565b9250506103fd565b50504360065550909450505050505b92915050565b81600d5f8282546105b0919061078c565b90915550506001600160a01b0381165f908152600e6020526040812080548492906105dc90849061078c565b90915550506001600160a01b0381165f908152600f6020908152604080832042905560109091528120805434929061061590849061078c565b90915550506015546001600160a01b03165f9081526013602052604081205490036106915760128054601580546001600160a01b039081165f9081526013602052604081208490559154600184018555939091525f8051602061083483398151915290910180546001600160a01b031916929091169190911790555b6001600160a01b0381165f9081526013602052604081205490036106f857601280546001600160a01b0383165f818152601360205260408120839055600183018455929092525f805160206108348339815191520180546001600160a01b03191690911790555b5050565b80356001600160a01b0381168114610712575f80fd5b919050565b5f60208284031215610727575f80fd5b610730826106fc565b9392505050565b5f60208284031215610747575f80fd5b5035919050565b5f806040838503121561075f575f80fd5b8235915061076f602084016106fc565b90509250929050565b634e487b7160e01b5f52601160045260245ffd5b8082018082111561059957610599610778565b8181038181111561059957610599610778565b634e487b7160e01b5f52603260045260245ffd5b808202811582820484141761059957610599610778565b5f826107f757634e487b7160e01b5f52601260045260245ffd5b500490565b5f6020828403121561080c575f80fd5b81518015158114610730575f80fd5b5f6001820161082c5761082c610778565b506001019056febb8a6a4669ba250d26cd7a459eca9d215f8307e33aebe50379bc5a3617ec3444a2646970667358221220627fd2be6fdf50c2f950902765a954562daa58332ddfa84b3dee1463227171da64736f6c63430008140033",
					"opcodes": "PUSH1 0x80 PUSH1 0x40 MSTORE CALLVALUE DUP1 ISZERO PUSH2 0xF JUMPI PUSH0 DUP1 REVERT JUMPDEST POP PUSH1 0x17 DUP1 SLOAD PUSH1 0x1 PUSH1 0x1 PUSH1 0xA0 SHL SUB NOT SWAP1 DUP2 AND CALLER OR SWAP1 SWAP2 SSTORE PUSH1 0xC8 PUSH1 0x7 SSTORE PUSH7 0x2386F26FC10000 PUSH1 0x9 SSTORE PUSH10 0x10F0CF064DD59200000 PUSH1 0x8 SSTORE PUSH3 0x7A120 PUSH1 0xA SSTORE PUSH1 0x15 DUP1 SLOAD SWAP1 SWAP2 AND PUSH2 0xDEAD SWAP1 DUP2 OR SWAP1 SWAP2 SSTORE PUSH0 SWAP1 DUP2 MSTORE PUSH1 0x20 DUP2 SWAP1 MSTORE PUSH32 0x44AD89BA62B98FF34F51403AC22759B55759460C0BB5521EB4B6EE3CFF49CF83 SSTORE PUSH2 0x889 DUP1 PUSH2 0x92 PUSH0 CODECOPY PUSH0 RETURN INVALID PUSH1 0x80 PUSH1 0x40 MSTORE CALLVALUE DUP1 ISZERO PUSH2 0xF JUMPI PUSH0 DUP1 REVERT JUMPDEST POP PUSH1 0x4 CALLDATASIZE LT PUSH2 0xE4 JUMPI PUSH0 CALLDATALOAD PUSH1 0xE0 SHR DUP1 PUSH4 0xAFFB402 EQ PUSH2 0xE8 JUMPI DUP1 PUSH4 0x1210C434 EQ PUSH2 0x11A JUMPI DUP1 PUSH4 0x15C43AAF EQ PUSH2 0x123 JUMPI DUP1 PUSH4 0x2A595512 EQ PUSH2 0x13E JUMPI DUP1 PUSH4 0x3A7960E0 EQ PUSH2 0x147 JUMPI DUP1 PUSH4 0x3FE9F9F7 EQ PUSH2 0x150 JUMPI DUP1 PUSH4 0x621F9C0A EQ PUSH2 0x159 JUMPI DUP1 PUSH4 0x70A08231 EQ PUSH2 0x162 JUMPI DUP1 PUSH4 0x8DA5CB5B EQ PUSH2 0x18A JUMPI DUP1 PUSH4 0x97A06724 EQ PUSH2 0x1B5 JUMPI DUP1 PUSH4 0x9F0D7EB8 EQ PUSH2 0x1D4 JUMPI DUP1 PUSH4 0xA36A7526 EQ PUSH2 0x1E7 JUMPI DUP1 PUSH4 0xADD0A6C6 EQ PUSH2 0x1FC JUMPI DUP1 PUSH4 0xB367BF83 EQ PUSH2 0x205 JUMPI DUP1 PUSH4 0xBD876702 EQ PUSH2 0x20E JUMPI DUP1 PUSH4 0xDD2CAD60 EQ PUSH2 0x217 JUMPI DUP1 PUSH4 0xEB10B741 EQ PUSH2 0x22A JUMPI DUP1 PUSH4 0xEC1F1F69 EQ PUSH2 0x233 JUMPI JUMPDEST PUSH0 DUP1 REVERT JUMPDEST PUSH2 0x107 PUSH2 0xF6 CALLDATASIZE PUSH1 0x4 PUSH2 0x717 JUMP JUMPDEST PUSH1 0x13 PUSH1 0x20 MSTORE PUSH0 SWAP1 DUP2 MSTORE PUSH1 0x40 SWAP1 KECCAK256 SLOAD DUP2 JUMP JUMPDEST PUSH1 0x40 MLOAD SWAP1 DUP2 MSTORE PUSH1 0x20 ADD JUMPDEST PUSH1 0x40 MLOAD DUP1 SWAP2 SUB SWAP1 RETURN JUMPDEST PUSH2 0x107 PUSH1 0x14 SLOAD DUP2 JUMP JUMPDEST PUSH1 0x1 SLOAD PUSH1 0x2 SLOAD PUSH1 0x40 DUP1 MLOAD SWAP3 DUP4 MSTORE PUSH1 0x20 DUP4 ADD SWAP2 SWAP1 SWAP2 MSTORE ADD PUSH2 0x111 JUMP JUMPDEST PUSH2 0x107 PUSH1 0x6 SLOAD DUP2 JUMP JUMPDEST PUSH2 0x107 PUSH1 0x5 SLOAD DUP2 JUMP JUMPDEST PUSH2 0x107 PUSH1 0x8 SLOAD DUP2 JUMP JUMPDEST PUSH2 0x107 PUSH1 0xB SLOAD DUP2 JUMP JUMPDEST PUSH2 0x107 PUSH2 0x170 CALLDATASIZE PUSH1 0x4 PUSH2 0x717 JUMP JUMPDEST PUSH1 0x1 PUSH1 0x1 PUSH1 0xA0 SHL SUB AND PUSH0 SWAP1 DUP2 MSTORE PUSH1 0x20 DUP2 SWAP1 MSTORE PUSH1 0x40 SWAP1 KECCAK256 SLOAD SWAP1 JUMP JUMPDEST PUSH1 0x17 SLOAD PUSH2 0x19D SWAP1 PUSH1 0x1 PUSH1 0x1 PUSH1 0xA0 SHL SUB AND DUP2 JUMP JUMPDEST PUSH1 0x40 MLOAD PUSH1 0x1 PUSH1 0x1 PUSH1 0xA0 SHL SUB SWAP1 SWAP2 AND DUP2 MSTORE PUSH1 0x20 ADD PUSH2 0x111 JUMP JUMPDEST PUSH2 0x107 PUSH2 0x1C3 CALLDATASIZE PUSH1 0x4 PUSH2 0x717 JUMP JUMPDEST PUSH1 0x3 PUSH1 0x20 MSTORE PUSH0 SWAP1 DUP2 MSTORE PUSH1 0x40 SWAP1 KECCAK256 SLOAD DUP2 JUMP JUMPDEST PUSH2 0x19D PUSH2 0x1E2 CALLDATASIZE PUSH1 0x4 PUSH2 0x737 JUMP JUMPDEST PUSH2 0x246 JUMP JUMPDEST PUSH2 0x1FA PUSH2 0x1F5 CALLDATASIZE PUSH1 0x4 PUSH2 0x717 JUMP JUMPDEST PUSH2 0x26E JUMP JUMPDEST STOP JUMPDEST PUSH2 0x107 PUSH1 0x7 SLOAD DUP2 JUMP JUMPDEST PUSH2 0x107 PUSH1 0xC SLOAD DUP2 JUMP JUMPDEST PUSH2 0x107 PUSH1 0xA SLOAD DUP2 JUMP JUMPDEST PUSH2 0x107 PUSH2 0x225 CALLDATASIZE PUSH1 0x4 PUSH2 0x74E JUMP JUMPDEST PUSH2 0x2EF JUMP JUMPDEST PUSH2 0x107 PUSH1 0x9 SLOAD DUP2 JUMP JUMPDEST PUSH1 0x16 SLOAD PUSH2 0x19D SWAP1 PUSH1 0x1 PUSH1 0x1 PUSH1 0xA0 SHL SUB AND DUP2 JUMP JUMPDEST PUSH1 0x12 DUP2 DUP2 SLOAD DUP2 LT PUSH2 0x255 JUMPI PUSH0 DUP1 REVERT JUMPDEST PUSH0 SWAP2 DUP3 MSTORE PUSH1 0x20 SWAP1 SWAP2 KECCAK256 ADD SLOAD PUSH1 0x1 PUSH1 0x1 PUSH1 0xA0 SHL SUB AND SWAP1 POP DUP2 JUMP JUMPDEST PUSH1 0x17 SLOAD PUSH1 0x1 PUSH1 0x1 PUSH1 0xA0 SHL SUB AND CALLER EQ PUSH2 0x2CD JUMPI PUSH1 0x40 MLOAD PUSH3 0x461BCD PUSH1 0xE5 SHL DUP2 MSTORE PUSH1 0x20 PUSH1 0x4 DUP3 ADD DUP2 SWAP1 MSTORE PUSH1 0x24 DUP3 ADD MSTORE PUSH32 0x4F776E61626C653A2063616C6C6572206973206E6F7420746865206F776E6572 PUSH1 0x44 DUP3 ADD MSTORE PUSH1 0x64 ADD JUMPDEST PUSH1 0x40 MLOAD DUP1 SWAP2 SUB SWAP1 REVERT JUMPDEST PUSH1 0x16 DUP1 SLOAD PUSH1 0x1 PUSH1 0x1 PUSH1 0xA0 SHL SUB NOT AND PUSH1 0x1 PUSH1 0x1 PUSH1 0xA0 SHL SUB SWAP3 SWAP1 SWAP3 AND SWAP2 SWAP1 SWAP2 OR SWAP1 SSTORE JUMP JUMPDEST PUSH1 0x16 SLOAD PUSH0 SWAP1 PUSH1 0x1 PUSH1 0x1 PUSH1 0xA0 SHL SUB AND CALLER EQ PUSH2 0x34B JUMPI PUSH1 0x40 MLOAD PUSH3 0x461BCD PUSH1 0xE5 SHL DUP2 MSTORE PUSH1 0x20 PUSH1 0x4 DUP3 ADD MSTORE PUSH1 0x1D PUSH1 0x24 DUP3 ADD MSTORE PUSH32 0x4F776E61626C653A2063616C6C6572206973206E6F7420746865206F70000000 PUSH1 0x44 DUP3 ADD MSTORE PUSH1 0x64 ADD PUSH2 0x2C4 JUMP JUMPDEST PUSH2 0x355 DUP4 DUP4 PUSH2 0x59F JUMP JUMPDEST NUMBER PUSH1 0x7 SLOAD PUSH1 0x6 SLOAD PUSH2 0x366 SWAP2 SWAP1 PUSH2 0x78C JUMP JUMPDEST GT ISZERO PUSH2 0x373 JUMPI POP PUSH0 PUSH2 0x599 JUMP JUMPDEST PUSH1 0xD SLOAD ISZERO DUP1 PUSH2 0x39D JUMPI POP PUSH1 0x15 SLOAD PUSH1 0x1 PUSH1 0x1 PUSH1 0xA0 SHL SUB AND PUSH0 SWAP1 DUP2 MSTORE PUSH1 0xE PUSH1 0x20 MSTORE PUSH1 0x40 SWAP1 KECCAK256 SLOAD PUSH1 0xD SLOAD GT ISZERO JUMPDEST ISZERO PUSH2 0x3A9 JUMPI POP PUSH0 PUSH2 0x599 JUMP JUMPDEST PUSH1 0xB SLOAD PUSH1 0xC SLOAD LT PUSH2 0x3BB JUMPI POP PUSH0 PUSH2 0x599 JUMP JUMPDEST PUSH0 PUSH1 0xC SLOAD PUSH1 0xB SLOAD PUSH2 0x3CC SWAP2 SWAP1 PUSH2 0x79F JUMP JUMPDEST SWAP1 POP PUSH1 0x9 SLOAD DUP2 LT DUP1 PUSH2 0x3DF JUMPI POP PUSH1 0x9 SLOAD SELFBALANCE LT JUMPDEST ISZERO PUSH2 0x3ED JUMPI PUSH0 SWAP2 POP POP PUSH2 0x599 JUMP JUMPDEST PUSH1 0x12 SLOAD PUSH0 SWAP1 DUP2 SWAP1 DUP2 SWAP1 DUP2 DUP1 DUP1 GAS SWAP1 POP JUMPDEST PUSH1 0xA SLOAD DUP4 LT DUP1 ISZERO PUSH2 0x40D JUMPI POP DUP4 DUP3 LT JUMPDEST ISZERO PUSH2 0x58A JUMPI DUP4 PUSH1 0x14 SLOAD LT PUSH2 0x420 JUMPI PUSH0 PUSH1 0x14 SSTORE JUMPDEST PUSH1 0x12 PUSH1 0x14 SLOAD DUP2 SLOAD DUP2 LT PUSH2 0x435 JUMPI PUSH2 0x435 PUSH2 0x7B2 JUMP JUMPDEST PUSH0 SWAP2 DUP3 MSTORE PUSH1 0x20 DUP1 DUP4 KECCAK256 SWAP1 SWAP2 ADD SLOAD PUSH1 0x1 PUSH1 0x1 PUSH1 0xA0 SHL SUB AND DUP1 DUP4 MSTORE PUSH1 0xE SWAP1 SWAP2 MSTORE PUSH1 0x40 SWAP1 SWAP2 KECCAK256 SLOAD SWAP1 SWAP8 POP SWAP6 POP DUP6 ISZERO DUP1 ISZERO SWAP1 PUSH2 0x47B JUMPI POP PUSH1 0x15 SLOAD PUSH1 0x1 PUSH1 0x1 PUSH1 0xA0 SHL SUB DUP9 DUP2 AND SWAP2 AND EQ ISZERO JUMPDEST ISZERO PUSH2 0x549 JUMPI PUSH1 0x15 SLOAD PUSH1 0x1 PUSH1 0x1 PUSH1 0xA0 SHL SUB AND PUSH0 SWAP1 DUP2 MSTORE PUSH1 0xE PUSH1 0x20 MSTORE PUSH1 0x40 SWAP1 KECCAK256 SLOAD PUSH1 0xD SLOAD PUSH2 0x4A7 SWAP2 SWAP1 PUSH2 0x79F JUMP JUMPDEST PUSH2 0x4B1 DUP8 DUP11 PUSH2 0x7C6 JUMP JUMPDEST PUSH2 0x4BB SWAP2 SWAP1 PUSH2 0x7DD JUMP JUMPDEST SWAP5 POP DUP5 ISZERO PUSH2 0x549 JUMPI PUSH1 0x40 MLOAD PUSH4 0xA9059CBB PUSH1 0xE0 SHL DUP2 MSTORE PUSH1 0x1 PUSH1 0x1 PUSH1 0xA0 SHL SUB DUP9 AND PUSH1 0x4 DUP3 ADD MSTORE PUSH1 0x24 DUP2 ADD DUP7 SWAP1 MSTORE CALLER SWAP1 PUSH4 0xA9059CBB SWAP1 PUSH1 0x44 ADD PUSH1 0x20 PUSH1 0x40 MLOAD DUP1 DUP4 SUB DUP2 PUSH0 DUP8 GAS CALL ISZERO DUP1 ISZERO PUSH2 0x50D JUMPI RETURNDATASIZE PUSH0 DUP1 RETURNDATACOPY RETURNDATASIZE PUSH0 REVERT JUMPDEST POP POP POP POP PUSH1 0x40 MLOAD RETURNDATASIZE PUSH1 0x1F NOT PUSH1 0x1F DUP3 ADD AND DUP3 ADD DUP1 PUSH1 0x40 MSTORE POP DUP2 ADD SWAP1 PUSH2 0x531 SWAP2 SWAP1 PUSH2 0x7FC JUMP JUMPDEST POP DUP5 PUSH1 0xC PUSH0 DUP3 DUP3 SLOAD PUSH2 0x543 SWAP2 SWAP1 PUSH2 0x78C JUMP JUMPDEST SWAP1 SWAP2 SSTORE POP POP JUMPDEST GAS PUSH2 0x554 SWAP1 DUP3 PUSH2 0x79F JUMP JUMPDEST PUSH2 0x55E SWAP1 DUP5 PUSH2 0x78C JUMP JUMPDEST SWAP3 POP GAS PUSH1 0x14 DUP1 SLOAD SWAP2 SWAP3 POP PUSH0 PUSH2 0x572 DUP4 PUSH2 0x81B JUMP JUMPDEST SWAP2 SWAP1 POP SSTORE POP DUP2 DUP1 PUSH2 0x582 SWAP1 PUSH2 0x81B JUMP JUMPDEST SWAP3 POP POP PUSH2 0x3FD JUMP JUMPDEST POP POP NUMBER PUSH1 0x6 SSTORE POP SWAP1 SWAP5 POP POP POP POP POP JUMPDEST SWAP3 SWAP2 POP POP JUMP JUMPDEST DUP2 PUSH1 0xD PUSH0 DUP3 DUP3 SLOAD PUSH2 0x5B0 SWAP2 SWAP1 PUSH2 0x78C JUMP JUMPDEST SWAP1 SWAP2 SSTORE POP POP PUSH1 0x1 PUSH1 0x1 PUSH1 0xA0 SHL SUB DUP2 AND PUSH0 SWAP1 DUP2 MSTORE PUSH1 0xE PUSH1 0x20 MSTORE PUSH1 0x40 DUP2 KECCAK256 DUP1 SLOAD DUP5 SWAP3 SWAP1 PUSH2 0x5DC SWAP1 DUP5 SWAP1 PUSH2 0x78C JUMP JUMPDEST SWAP1 SWAP2 SSTORE POP POP PUSH1 0x1 PUSH1 0x1 PUSH1 0xA0 SHL SUB DUP2 AND PUSH0 SWAP1 DUP2 MSTORE PUSH1 0xF PUSH1 0x20 SWAP1 DUP2 MSTORE PUSH1 0x40 DUP1 DUP4 KECCAK256 TIMESTAMP SWAP1 SSTORE PUSH1 0x10 SWAP1 SWAP2 MSTORE DUP2 KECCAK256 DUP1 SLOAD CALLVALUE SWAP3 SWAP1 PUSH2 0x615 SWAP1 DUP5 SWAP1 PUSH2 0x78C JUMP JUMPDEST SWAP1 SWAP2 SSTORE POP POP PUSH1 0x15 SLOAD PUSH1 0x1 PUSH1 0x1 PUSH1 0xA0 SHL SUB AND PUSH0 SWAP1 DUP2 MSTORE PUSH1 0x13 PUSH1 0x20 MSTORE PUSH1 0x40 DUP2 KECCAK256 SLOAD SWAP1 SUB PUSH2 0x691 JUMPI PUSH1 0x12 DUP1 SLOAD PUSH1 0x15 DUP1 SLOAD PUSH1 0x1 PUSH1 0x1 PUSH1 0xA0 SHL SUB SWAP1 DUP2 AND PUSH0 SWAP1 DUP2 MSTORE PUSH1 0x13 PUSH1 0x20 MSTORE PUSH1 0x40 DUP2 KECCAK256 DUP5 SWAP1 SSTORE SWAP2 SLOAD PUSH1 0x1 DUP5 ADD DUP6 SSTORE SWAP4 SWAP1 SWAP2 MSTORE PUSH0 DUP1 MLOAD PUSH1 0x20 PUSH2 0x834 DUP4 CODECOPY DUP2 MLOAD SWAP2 MSTORE SWAP1 SWAP2 ADD DUP1 SLOAD PUSH1 0x1 PUSH1 0x1 PUSH1 0xA0 SHL SUB NOT AND SWAP3 SWAP1 SWAP2 AND SWAP2 SWAP1 SWAP2 OR SWAP1 SSTORE JUMPDEST PUSH1 0x1 PUSH1 0x1 PUSH1 0xA0 SHL SUB DUP2 AND PUSH0 SWAP1 DUP2 MSTORE PUSH1 0x13 PUSH1 0x20 MSTORE PUSH1 0x40 DUP2 KECCAK256 SLOAD SWAP1 SUB PUSH2 0x6F8 JUMPI PUSH1 0x12 DUP1 SLOAD PUSH1 0x1 PUSH1 0x1 PUSH1 0xA0 SHL SUB DUP4 AND PUSH0 DUP2 DUP2 MSTORE PUSH1 0x13 PUSH1 0x20 MSTORE PUSH1 0x40 DUP2 KECCAK256 DUP4 SWAP1 SSTORE PUSH1 0x1 DUP4 ADD DUP5 SSTORE SWAP3 SWAP1 SWAP3 MSTORE PUSH0 DUP1 MLOAD PUSH1 0x20 PUSH2 0x834 DUP4 CODECOPY DUP2 MLOAD SWAP2 MSTORE ADD DUP1 SLOAD PUSH1 0x1 PUSH1 0x1 PUSH1 0xA0 SHL SUB NOT AND SWAP1 SWAP2 OR SWAP1 SSTORE JUMPDEST POP POP JUMP JUMPDEST DUP1 CALLDATALOAD PUSH1 0x1 PUSH1 0x1 PUSH1 0xA0 SHL SUB DUP2 AND DUP2 EQ PUSH2 0x712 JUMPI PUSH0 DUP1 REVERT JUMPDEST SWAP2 SWAP1 POP JUMP JUMPDEST PUSH0 PUSH1 0x20 DUP3 DUP5 SUB SLT ISZERO PUSH2 0x727 JUMPI PUSH0 DUP1 REVERT JUMPDEST PUSH2 0x730 DUP3 PUSH2 0x6FC JUMP JUMPDEST SWAP4 SWAP3 POP POP POP JUMP JUMPDEST PUSH0 PUSH1 0x20 DUP3 DUP5 SUB SLT ISZERO PUSH2 0x747 JUMPI PUSH0 DUP1 REVERT JUMPDEST POP CALLDATALOAD SWAP2 SWAP1 POP JUMP JUMPDEST PUSH0 DUP1 PUSH1 0x40 DUP4 DUP6 SUB SLT ISZERO PUSH2 0x75F JUMPI PUSH0 DUP1 REVERT JUMPDEST DUP3 CALLDATALOAD SWAP2 POP PUSH2 0x76F PUSH1 0x20 DUP5 ADD PUSH2 0x6FC JUMP JUMPDEST SWAP1 POP SWAP3 POP SWAP3 SWAP1 POP JUMP JUMPDEST PUSH4 0x4E487B71 PUSH1 0xE0 SHL PUSH0 MSTORE PUSH1 0x11 PUSH1 0x4 MSTORE PUSH1 0x24 PUSH0 REVERT JUMPDEST DUP1 DUP3 ADD DUP1 DUP3 GT ISZERO PUSH2 0x599 JUMPI PUSH2 0x599 PUSH2 0x778 JUMP JUMPDEST DUP2 DUP2 SUB DUP2 DUP2 GT ISZERO PUSH2 0x599 JUMPI PUSH2 0x599 PUSH2 0x778 JUMP JUMPDEST PUSH4 0x4E487B71 PUSH1 0xE0 SHL PUSH0 MSTORE PUSH1 0x32 PUSH1 0x4 MSTORE PUSH1 0x24 PUSH0 REVERT JUMPDEST DUP1 DUP3 MUL DUP2 ISZERO DUP3 DUP3 DIV DUP5 EQ OR PUSH2 0x599 JUMPI PUSH2 0x599 PUSH2 0x778 JUMP JUMPDEST PUSH0 DUP3 PUSH2 0x7F7 JUMPI PUSH4 0x4E487B71 PUSH1 0xE0 SHL PUSH0 MSTORE PUSH1 0x12 PUSH1 0x4 MSTORE PUSH1 0x24 PUSH0 REVERT JUMPDEST POP DIV SWAP1 JUMP JUMPDEST PUSH0 PUSH1 0x20 DUP3 DUP5 SUB SLT ISZERO PUSH2 0x80C JUMPI PUSH0 DUP1 REVERT JUMPDEST DUP2 MLOAD DUP1 ISZERO ISZERO DUP2 EQ PUSH2 0x730 JUMPI PUSH0 DUP1 REVERT JUMPDEST PUSH0 PUSH1 0x1 DUP3 ADD PUSH2 0x82C JUMPI PUSH2 0x82C PUSH2 0x778 JUMP JUMPDEST POP PUSH1 0x1 ADD SWAP1 JUMP INVALID 0xBB DUP11 PUSH11 0x4669BA250D26CD7A459ECA SWAP14 0x21 PUSH0 DUP4 SMOD 0xE3 GASPRICE 0xEB 0xE5 SUB PUSH26 0xBC5A3617EC3444A2646970667358221220627FD2BE6FDF50C2F9 POP SWAP1 0x27 PUSH6 0xA954562DAA58 CALLER 0x2D 0xDF 0xA8 0x4B RETURNDATASIZE 0xEE EQ PUSH4 0x227171DA PUSH5 0x736F6C6343 STOP ADDMOD EQ STOP CALLER "
				},
				"gasEstimates": {
					"creation": {
						"codeDepositCost": "437000",
						"executionCost": "142399",
						"totalCost": "579399"
					},
					"external": {
						"balanceOf(address)": "2658",
						"contractInfo()": "4428",
						"currentLpIndex()": "2283",
						"dividendGas()": "2569",
						"holderCondition()": "2371",
						"holderRewardCondition()": "2613",
						"lpBonus()": "2393",
						"lpBonusEd()": "2547",
						"lpHolderIndex(address)": "2483",
						"lpHolders(uint256)": "4809",
						"magnifiedDividendCorrections(address)": "2681",
						"magnifiedDividendPerShare()": "2349",
						"op()": "2688",
						"owner()": "2490",
						"processReward(uint256,address)": "infinite",
						"progressRewardBlock()": "2327",
						"progressRewardBlockAdd()": "2525",
						"setOp(address)": "26929"
					},
					"internal": {
						"ariver(uint256,address)": "infinite"
					}
				},
				"methodIdentifiers": {
					"balanceOf(address)": "70a08231",
					"contractInfo()": "15c43aaf",
					"currentLpIndex()": "1210c434",
					"dividendGas()": "bd876702",
					"holderCondition()": "3fe9f9f7",
					"holderRewardCondition()": "eb10b741",
					"lpBonus()": "621f9c0a",
					"lpBonusEd()": "b367bf83",
					"lpHolderIndex(address)": "0affb402",
					"lpHolders(uint256)": "9f0d7eb8",
					"magnifiedDividendCorrections(address)": "97a06724",
					"magnifiedDividendPerShare()": "3a7960e0",
					"op()": "ec1f1f69",
					"owner()": "8da5cb5b",
					"processReward(uint256,address)": "dd2cad60",
					"progressRewardBlock()": "2a595512",
					"progressRewardBlockAdd()": "add0a6c6",
					"setOp(address)": "a36a7526"
				}
			},
			"storageLayout": {
				"storage": [
					{
						"astId": 122,
						"contract": "contracts/DividendPayingERC20Token.sol:DividendPayingERC20Token",
						"label": "_balances",
						"offset": 0,
						"slot": "0",
						"type": "t_mapping(t_address,t_uint256)"
					},
					{
						"astId": 124,
						"contract": "contracts/DividendPayingERC20Token.sol:DividendPayingERC20Token",
						"label": "_totalSupply",
						"offset": 0,
						"slot": "1",
						"type": "t_uint256"
					},
					{
						"astId": 126,
						"contract": "contracts/DividendPayingERC20Token.sol:DividendPayingERC20Token",
						"label": "totalDividendsDistributed",
						"offset": 0,
						"slot": "2",
						"type": "t_uint256"
					},
					{
						"astId": 135,
						"contract": "contracts/DividendPayingERC20Token.sol:DividendPayingERC20Token",
						"label": "magnifiedDividendCorrections",
						"offset": 0,
						"slot": "3",
						"type": "t_mapping(t_address,t_int256)"
					},
					{
						"astId": 139,
						"contract": "contracts/DividendPayingERC20Token.sol:DividendPayingERC20Token",
						"label": "withdrawnDividends",
						"offset": 0,
						"slot": "4",
						"type": "t_mapping(t_address,t_uint256)"
					},
					{
						"astId": 141,
						"contract": "contracts/DividendPayingERC20Token.sol:DividendPayingERC20Token",
						"label": "magnifiedDividendPerShare",
						"offset": 0,
						"slot": "5",
						"type": "t_uint256"
					},
					{
						"astId": 143,
						"contract": "contracts/DividendPayingERC20Token.sol:DividendPayingERC20Token",
						"label": "progressRewardBlock",
						"offset": 0,
						"slot": "6",
						"type": "t_uint256"
					},
					{
						"astId": 145,
						"contract": "contracts/DividendPayingERC20Token.sol:DividendPayingERC20Token",
						"label": "progressRewardBlockAdd",
						"offset": 0,
						"slot": "7",
						"type": "t_uint256"
					},
					{
						"astId": 147,
						"contract": "contracts/DividendPayingERC20Token.sol:DividendPayingERC20Token",
						"label": "holderCondition",
						"offset": 0,
						"slot": "8",
						"type": "t_uint256"
					},
					{
						"astId": 149,
						"contract": "contracts/DividendPayingERC20Token.sol:DividendPayingERC20Token",
						"label": "holderRewardCondition",
						"offset": 0,
						"slot": "9",
						"type": "t_uint256"
					},
					{
						"astId": 151,
						"contract": "contracts/DividendPayingERC20Token.sol:DividendPayingERC20Token",
						"label": "dividendGas",
						"offset": 0,
						"slot": "10",
						"type": "t_uint256"
					},
					{
						"astId": 153,
						"contract": "contracts/DividendPayingERC20Token.sol:DividendPayingERC20Token",
						"label": "lpBonus",
						"offset": 0,
						"slot": "11",
						"type": "t_uint256"
					},
					{
						"astId": 155,
						"contract": "contracts/DividendPayingERC20Token.sol:DividendPayingERC20Token",
						"label": "lpBonusEd",
						"offset": 0,
						"slot": "12",
						"type": "t_uint256"
					},
					{
						"astId": 157,
						"contract": "contracts/DividendPayingERC20Token.sol:DividendPayingERC20Token",
						"label": "totalLpSupply",
						"offset": 0,
						"slot": "13",
						"type": "t_uint256"
					},
					{
						"astId": 161,
						"contract": "contracts/DividendPayingERC20Token.sol:DividendPayingERC20Token",
						"label": "_LpBalances",
						"offset": 0,
						"slot": "14",
						"type": "t_mapping(t_address,t_uint256)"
					},
					{
						"astId": 165,
						"contract": "contracts/DividendPayingERC20Token.sol:DividendPayingERC20Token",
						"label": "_lastLpTime",
						"offset": 0,
						"slot": "15",
						"type": "t_mapping(t_address,t_uint256)"
					},
					{
						"astId": 169,
						"contract": "contracts/DividendPayingERC20Token.sol:DividendPayingERC20Token",
						"label": "_lastEth",
						"offset": 0,
						"slot": "16",
						"type": "t_mapping(t_address,t_uint256)"
					},
					{
						"astId": 173,
						"contract": "contracts/DividendPayingERC20Token.sol:DividendPayingERC20Token",
						"label": "_lastToken",
						"offset": 0,
						"slot": "17",
						"type": "t_mapping(t_address,t_uint256)"
					},
					{
						"astId": 176,
						"contract": "contracts/DividendPayingERC20Token.sol:DividendPayingERC20Token",
						"label": "lpHolders",
						"offset": 0,
						"slot": "18",
						"type": "t_array(t_address)dyn_storage"
					},
					{
						"astId": 180,
						"contract": "contracts/DividendPayingERC20Token.sol:DividendPayingERC20Token",
						"label": "lpHolderIndex",
						"offset": 0,
						"slot": "19",
						"type": "t_mapping(t_address,t_uint256)"
					},
					{
						"astId": 182,
						"contract": "contracts/DividendPayingERC20Token.sol:DividendPayingERC20Token",
						"label": "currentLpIndex",
						"offset": 0,
						"slot": "20",
						"type": "t_uint256"
					},
					{
						"astId": 196,
						"contract": "contracts/DividendPayingERC20Token.sol:DividendPayingERC20Token",
						"label": "deadAddress",
						"offset": 0,
						"slot": "21",
						"type": "t_address"
					},
					{
						"astId": 198,
						"contract": "contracts/DividendPayingERC20Token.sol:DividendPayingERC20Token",
						"label": "op",
						"offset": 0,
						"slot": "22",
						"type": "t_address"
					},
					{
						"astId": 200,
						"contract": "contracts/DividendPayingERC20Token.sol:DividendPayingERC20Token",
						"label": "owner",
						"offset": 0,
						"slot": "23",
						"type": "t_address"
					}
				],
				"types": {
					"t_address": {
						"encoding": "inplace",
						"label": "address",
						"numberOfBytes": "20"
					},
					"t_array(t_address)dyn_storage": {
						"base": "t_address",
						"encoding": "dynamic_array",
						"label": "address[]",
						"numberOfBytes": "32"
					},
					"t_int256": {
						"encoding": "inplace",
						"label": "int256",
						"numberOfBytes": "32"
					},
					"t_mapping(t_address,t_int256)": {
						"encoding": "mapping",
						"key": "t_address",
						"label": "mapping(address => int256)",
						"numberOfBytes": "32",
						"value": "t_int256"
					},
					"t_mapping(t_address,t_uint256)": {
						"encoding": "mapping",
						"key": "t_address",
						"label": "mapping(address => uint256)",
						"numberOfBytes": "32",
						"value": "t_uint256"
					},
					"t_uint256": {
						"encoding": "inplace",
						"label": "uint256",
						"numberOfBytes": "32"
					}
				}
			},
			"userdoc": {
				"kind": "user",
				"methods": {},
				"version": 1
			}
		}
	}
}