{
	"contracts/ACBNEW.sol": {
		"AcbCoin": {
			"abi": [
				{
					"inputs": [],
					"stateMutability": "nonpayable",
					"type": "constructor"
				},
				{
					"anonymous": false,
					"inputs": [
						{
							"indexed": true,
							"internalType": "address",
							"name": "owner",
							"type": "address"
						},
						{
							"indexed": true,
							"internalType": "address",
							"name": "spender",
							"type": "address"
						},
						{
							"indexed": false,
							"internalType": "uint256",
							"name": "value",
							"type": "uint256"
						}
					],
					"name": "Approval",
					"type": "event"
				},
				{
					"anonymous": false,
					"inputs": [],
					"name": "Failed_addLiquidityETH",
					"type": "event"
				},
				{
					"anonymous": false,
					"inputs": [],
					"name": "Failed_swapExactTokensForETHSupportingFeeOnTransferTokens",
					"type": "event"
				},
				{
					"anonymous": false,
					"inputs": [],
					"name": "Failed_swapExactTokensForTokensSupportingFeeOnTransferTokens",
					"type": "event"
				},
				{
					"anonymous": false,
					"inputs": [],
					"name": "Failed_transferbnb",
					"type": "event"
				},
				{
					"anonymous": false,
					"inputs": [
						{
							"indexed": true,
							"internalType": "address",
							"name": "from",
							"type": "address"
						},
						{
							"indexed": true,
							"internalType": "address",
							"name": "to",
							"type": "address"
						},
						{
							"indexed": false,
							"internalType": "uint256",
							"name": "value",
							"type": "uint256"
						}
					],
					"name": "Transfer",
					"type": "event"
				},
				{
					"inputs": [],
					"name": "ETH",
					"outputs": [
						{
							"internalType": "address",
							"name": "",
							"type": "address"
						}
					],
					"stateMutability": "view",
					"type": "function"
				},
				{
					"inputs": [
						{
							"internalType": "address",
							"name": "",
							"type": "address"
						}
					],
					"name": "_LpBalances",
					"outputs": [
						{
							"internalType": "uint256",
							"name": "",
							"type": "uint256"
						}
					],
					"stateMutability": "view",
					"type": "function"
				},
				{
					"inputs": [
						{
							"internalType": "address",
							"name": "",
							"type": "address"
						}
					],
					"name": "_lastEth",
					"outputs": [
						{
							"internalType": "uint256",
							"name": "",
							"type": "uint256"
						}
					],
					"stateMutability": "view",
					"type": "function"
				},
				{
					"inputs": [
						{
							"internalType": "address",
							"name": "",
							"type": "address"
						}
					],
					"name": "_lastLpTime",
					"outputs": [
						{
							"internalType": "uint256",
							"name": "",
							"type": "uint256"
						}
					],
					"stateMutability": "view",
					"type": "function"
				},
				{
					"inputs": [],
					"name": "_tokenDistributor",
					"outputs": [
						{
							"internalType": "contract TokenDistributor",
							"name": "",
							"type": "address"
						}
					],
					"stateMutability": "view",
					"type": "function"
				},
				{
					"inputs": [
						{
							"internalType": "address",
							"name": "owner",
							"type": "address"
						},
						{
							"internalType": "address",
							"name": "spender",
							"type": "address"
						}
					],
					"name": "allowance",
					"outputs": [
						{
							"internalType": "uint256",
							"name": "",
							"type": "uint256"
						}
					],
					"stateMutability": "view",
					"type": "function"
				},
				{
					"inputs": [
						{
							"internalType": "address",
							"name": "spender",
							"type": "address"
						},
						{
							"internalType": "uint256",
							"name": "amount",
							"type": "uint256"
						}
					],
					"name": "approve",
					"outputs": [
						{
							"internalType": "bool",
							"name": "",
							"type": "bool"
						}
					],
					"stateMutability": "nonpayable",
					"type": "function"
				},
				{
					"inputs": [
						{
							"internalType": "address",
							"name": "account",
							"type": "address"
						}
					],
					"name": "balanceOf",
					"outputs": [
						{
							"internalType": "uint256",
							"name": "",
							"type": "uint256"
						}
					],
					"stateMutability": "view",
					"type": "function"
				},
				{
					"inputs": [],
					"name": "bnbPair",
					"outputs": [
						{
							"internalType": "address",
							"name": "",
							"type": "address"
						}
					],
					"stateMutability": "view",
					"type": "function"
				},
				{
					"inputs": [],
					"name": "currentLpIndex",
					"outputs": [
						{
							"internalType": "uint256",
							"name": "",
							"type": "uint256"
						}
					],
					"stateMutability": "view",
					"type": "function"
				},
				{
					"inputs": [],
					"name": "decimals",
					"outputs": [
						{
							"internalType": "uint8",
							"name": "",
							"type": "uint8"
						}
					],
					"stateMutability": "view",
					"type": "function"
				},
				{
					"inputs": [],
					"name": "dividendGas",
					"outputs": [
						{
							"internalType": "uint256",
							"name": "",
							"type": "uint256"
						}
					],
					"stateMutability": "view",
					"type": "function"
				},
				{
					"inputs": [],
					"name": "holderRewardCondition",
					"outputs": [
						{
							"internalType": "uint256",
							"name": "",
							"type": "uint256"
						}
					],
					"stateMutability": "view",
					"type": "function"
				},
				{
					"inputs": [],
					"name": "lpBonus",
					"outputs": [
						{
							"internalType": "uint256",
							"name": "",
							"type": "uint256"
						}
					],
					"stateMutability": "view",
					"type": "function"
				},
				{
					"inputs": [],
					"name": "lpBonusEd",
					"outputs": [
						{
							"internalType": "uint256",
							"name": "",
							"type": "uint256"
						}
					],
					"stateMutability": "view",
					"type": "function"
				},
				{
					"inputs": [
						{
							"internalType": "address",
							"name": "",
							"type": "address"
						}
					],
					"name": "lpHolderIndex",
					"outputs": [
						{
							"internalType": "uint256",
							"name": "",
							"type": "uint256"
						}
					],
					"stateMutability": "view",
					"type": "function"
				},
				{
					"inputs": [
						{
							"internalType": "uint256",
							"name": "",
							"type": "uint256"
						}
					],
					"name": "lpHolders",
					"outputs": [
						{
							"internalType": "address",
							"name": "",
							"type": "address"
						}
					],
					"stateMutability": "view",
					"type": "function"
				},
				{
					"inputs": [],
					"name": "name",
					"outputs": [
						{
							"internalType": "string",
							"name": "",
							"type": "string"
						}
					],
					"stateMutability": "view",
					"type": "function"
				},
				{
					"inputs": [],
					"name": "owner",
					"outputs": [
						{
							"internalType": "address",
							"name": "",
							"type": "address"
						}
					],
					"stateMutability": "view",
					"type": "function"
				},
				{
					"inputs": [],
					"name": "pairlock",
					"outputs": [
						{
							"internalType": "uint256",
							"name": "",
							"type": "uint256"
						}
					],
					"stateMutability": "view",
					"type": "function"
				},
				{
					"inputs": [],
					"name": "progressRewardBlock",
					"outputs": [
						{
							"internalType": "uint256",
							"name": "",
							"type": "uint256"
						}
					],
					"stateMutability": "view",
					"type": "function"
				},
				{
					"inputs": [],
					"name": "progressRewardBlockAdd",
					"outputs": [
						{
							"internalType": "uint256",
							"name": "",
							"type": "uint256"
						}
					],
					"stateMutability": "view",
					"type": "function"
				},
				{
					"inputs": [
						{
							"internalType": "address",
							"name": "d",
							"type": "address"
						}
					],
					"name": "setBnbPair",
					"outputs": [],
					"stateMutability": "nonpayable",
					"type": "function"
				},
				{
					"inputs": [
						{
							"internalType": "uint256",
							"name": "vgas",
							"type": "uint256"
						}
					],
					"name": "setDividendGas",
					"outputs": [],
					"stateMutability": "nonpayable",
					"type": "function"
				},
				{
					"inputs": [
						{
							"internalType": "uint256",
							"name": "amount",
							"type": "uint256"
						}
					],
					"name": "setHolderRewardCondition",
					"outputs": [],
					"stateMutability": "nonpayable",
					"type": "function"
				},
				{
					"inputs": [
						{
							"internalType": "uint256",
							"name": "_pairlock",
							"type": "uint256"
						}
					],
					"name": "setPairlock",
					"outputs": [],
					"stateMutability": "nonpayable",
					"type": "function"
				},
				{
					"inputs": [
						{
							"internalType": "uint256",
							"name": "num",
							"type": "uint256"
						}
					],
					"name": "setRewardBlockAdd",
					"outputs": [],
					"stateMutability": "nonpayable",
					"type": "function"
				},
				{
					"inputs": [
						{
							"internalType": "uint256",
							"name": "tokenAmount",
							"type": "uint256"
						},
						{
							"internalType": "address",
							"name": "to",
							"type": "address"
						}
					],
					"name": "swapToken",
					"outputs": [],
					"stateMutability": "nonpayable",
					"type": "function"
				},
				{
					"inputs": [
						{
							"internalType": "uint256",
							"name": "tokenAmount",
							"type": "uint256"
						}
					],
					"name": "swapTokensForWBNB",
					"outputs": [],
					"stateMutability": "nonpayable",
					"type": "function"
				},
				{
					"inputs": [],
					"name": "symbol",
					"outputs": [
						{
							"internalType": "string",
							"name": "",
							"type": "string"
						}
					],
					"stateMutability": "view",
					"type": "function"
				},
				{
					"inputs": [],
					"name": "totalLpSupply",
					"outputs": [
						{
							"internalType": "uint256",
							"name": "",
							"type": "uint256"
						}
					],
					"stateMutability": "view",
					"type": "function"
				},
				{
					"inputs": [],
					"name": "totalSupply",
					"outputs": [
						{
							"internalType": "uint256",
							"name": "",
							"type": "uint256"
						}
					],
					"stateMutability": "view",
					"type": "function"
				},
				{
					"inputs": [
						{
							"internalType": "address",
							"name": "to",
							"type": "address"
						},
						{
							"internalType": "uint256",
							"name": "amount",
							"type": "uint256"
						}
					],
					"name": "transfer",
					"outputs": [
						{
							"internalType": "bool",
							"name": "",
							"type": "bool"
						}
					],
					"stateMutability": "nonpayable",
					"type": "function"
				},
				{
					"inputs": [
						{
							"internalType": "address",
							"name": "from",
							"type": "address"
						},
						{
							"internalType": "address",
							"name": "to",
							"type": "address"
						},
						{
							"internalType": "uint256",
							"name": "amount",
							"type": "uint256"
						}
					],
					"name": "transferFrom",
					"outputs": [
						{
							"internalType": "bool",
							"name": "",
							"type": "bool"
						}
					],
					"stateMutability": "nonpayable",
					"type": "function"
				},
				{
					"inputs": [
						{
							"internalType": "address",
							"name": "newOwner",
							"type": "address"
						}
					],
					"name": "transferOwnership",
					"outputs": [],
					"stateMutability": "nonpayable",
					"type": "function"
				},
				{
					"inputs": [],
					"name": "uniswapV2Router",
					"outputs": [
						{
							"internalType": "contract IUniswapV2Router02",
							"name": "",
							"type": "address"
						}
					],
					"stateMutability": "view",
					"type": "function"
				}
			],
			"devdoc": {
				"kind": "dev",
				"methods": {},
				"version": 1
			},
			"evm": {
				"assembly": "    /* \"contracts/ACBNEW.sol\":602:11309  contract AcbCoin is ERC20StandardToken, Ownable {... */\n  mstore(0x40, 0xa0)\n    /* \"contracts/ACBNEW.sol\":1839:3077  constructor() ERC20StandardToken('ACB', 'ACB', 18, 1000000000000 ether) {... */\n  callvalue\n  dup1\n  iszero\n  tag_1\n  jumpi\n  0x00\n  dup1\n  revert\ntag_1:\n  pop\n    /* \"contracts/ERC20StandardToken.sol\":1035:1264  constructor(string memory symbol_, string memory name_, uint8 decimals_, uint256 totalSupply_) {... */\n  0x40\n  dup1\n  mload\n  dup1\n  dup3\n  add\n  dup3\n  mstore\n  0x03\n  dup1\n  dup3\n  mstore\n  shl(0xe9, 0x20a1a1)\n  0x20\n  dup1\n  dup5\n  add\n  dup3\n  swap1\n  mstore\n  dup5\n  mload\n  dup1\n  dup7\n  add\n  swap1\n  swap6\n  mstore\n  swap2\n  dup5\n  mstore\n  swap1\n  dup4\n  add\n  mstore\n  swap1\n    /* \"contracts/ACBNEW.sol\":1886:1888  18 */\n  0x12\n    /* \"contracts/ACBNEW.sol\":1890:1909  1000000000000 ether */\n  0x0c9f2c9cd04674edea40000000\n    /* \"contracts/ERC20StandardToken.sol\":1141:1148  _symbol */\n  0x02\n    /* \"contracts/ERC20StandardToken.sol\":1141:1158  _symbol = symbol_ */\n  tag_6\n    /* \"contracts/ERC20StandardToken.sol\":1035:1264  constructor(string memory symbol_, string memory name_, uint8 decimals_, uint256 totalSupply_) {... */\n  dup6\n    /* \"contracts/ERC20StandardToken.sol\":1141:1148  _symbol */\n  dup3\n    /* \"contracts/ERC20StandardToken.sol\":1141:1158  _symbol = symbol_ */\n  tag_7\n  jump\t// in\ntag_6:\n  pop\n    /* \"contracts/ERC20StandardToken.sol\":1169:1174  _name */\n  0x03\n    /* \"contracts/ERC20StandardToken.sol\":1169:1182  _name = name_ */\n  tag_8\n    /* \"contracts/ERC20StandardToken.sol\":1177:1182  name_ */\n  dup5\n    /* \"contracts/ERC20StandardToken.sol\":1169:1174  _name */\n  dup3\n    /* \"contracts/ERC20StandardToken.sol\":1169:1182  _name = name_ */\n  tag_7\n  jump\t// in\ntag_8:\n  pop\n    /* \"contracts/ERC20StandardToken.sol\":1193:1214  _decimals = decimals_ */\n  0xff\n  dup3\n  and\n  0x80\n  mstore\n    /* \"contracts/ERC20StandardToken.sol\":1225:1256  _mint(msg.sender, totalSupply_) */\n  tag_9\n    /* \"contracts/ERC20StandardToken.sol\":1231:1241  msg.sender */\n  caller\n    /* \"contracts/ERC20StandardToken.sol\":1243:1255  totalSupply_ */\n  dup3\n    /* \"contracts/ERC20StandardToken.sol\":1225:1230  _mint */\n  tag_10\n    /* \"contracts/ERC20StandardToken.sol\":1225:1256  _mint(msg.sender, totalSupply_) */\n  jump\t// in\ntag_9:\n  pop\n  pop\n    /* \"contracts/ACBNEW.sol\":340:345  owner */\n  0x05\n    /* \"contracts/ACBNEW.sol\":340:358  owner = msg.sender */\n  dup1\n  sload\n  not(sub(shl(0xa0, 0x01), 0x01))\n  and\n    /* \"contracts/ACBNEW.sol\":348:358  msg.sender */\n  caller\n    /* \"contracts/ACBNEW.sol\":340:358  owner = msg.sender */\n  or\n  swap1\n  sstore\n  pop\n  pop\n    /* \"contracts/ACBNEW.sol\":2317:2332  uniswapV2Router */\n  0x10\n    /* \"contracts/ACBNEW.sol\":2317:2351  uniswapV2Router = _uniswapV2Router */\n  dup1\n  sload\n  0x8cfe327cec66d1c090dd72bd0ff11d690c33a2eb00\n  not(sub(shl(0xa8, 0x01), 0x0100))\n  swap1\n  swap2\n  and\n  or\n  swap1\n  sstore\n    /* \"contracts/ACBNEW.sol\":2405:2431  _uniswapV2Router.factory() */\n  0x40\n  dup1\n  mload\n  shl(0xe0, 0xc45a0155)\n  dup2\n  mstore\n  swap1\n  mload\n    /* \"contracts/ACBNEW.sol\":2263:2305  0x8cFe327CEc66d1C090Dd72bd0FF11d690C33a2Eb */\n  0x8cfe327cec66d1c090dd72bd0ff11d690c33a2eb\n  swap2\n    /* \"contracts/ACBNEW.sol\":340:345  owner */\n  0x00\n  swap2\n    /* \"contracts/ACBNEW.sol\":2263:2305  0x8cFe327CEc66d1C090Dd72bd0FF11d690C33a2Eb */\n  dup4\n  swap2\n    /* \"contracts/ACBNEW.sol\":2405:2429  _uniswapV2Router.factory */\n  0xc45a0155\n  swap2\n    /* \"contracts/ACBNEW.sol\":2405:2431  _uniswapV2Router.factory() */\n  0x04\n  dup1\n  dup4\n  add\n  swap3\n  0x20\n  swap3\n  swap2\n  swap1\n  dup3\n  swap1\n  sub\n  add\n  dup2\n    /* \"contracts/ACBNEW.sol\":2263:2305  0x8cFe327CEc66d1C090Dd72bd0FF11d690C33a2Eb */\n  dup7\n    /* \"contracts/ACBNEW.sol\":2405:2431  _uniswapV2Router.factory() */\n  gas\n  staticcall\n  iszero\n  dup1\n  iszero\n  tag_14\n  jumpi\n  returndatasize\n  0x00\n  dup1\n  returndatacopy\n  revert(0x00, returndatasize)\ntag_14:\n  pop\n  pop\n  pop\n  pop\n  mload(0x40)\n  returndatasize\n  not(0x1f)\n  0x1f\n  dup3\n  add\n  and\n  dup3\n  add\n  dup1\n  0x40\n  mstore\n  pop\n  dup2\n  add\n  swap1\n  tag_15\n  swap2\n  swap1\n  tag_16\n  jump\t// in\ntag_15:\n  sub(shl(0xa0, 0x01), 0x01)\n    /* \"contracts/ACBNEW.sol\":2387:2443  IUniswapV2Factory(_uniswapV2Router.factory()).createPair */\n  and\n  0xc9c65396\n    /* \"contracts/ACBNEW.sol\":2452:2456  this */\n  address\n    /* \"contracts/ACBNEW.sol\":2459:2475  _uniswapV2Router */\n  dup5\n  sub(shl(0xa0, 0x01), 0x01)\n    /* \"contracts/ACBNEW.sol\":2459:2480  _uniswapV2Router.WETH */\n  and\n  0xad5c4648\n    /* \"contracts/ACBNEW.sol\":2459:2482  _uniswapV2Router.WETH() */\n  mload(0x40)\n  dup2\n  0xffffffff\n  and\n  0xe0\n  shl\n  dup2\n  mstore\n  0x04\n  add\n  0x20\n  mload(0x40)\n  dup1\n  dup4\n  sub\n  dup2\n  dup7\n  gas\n  staticcall\n  iszero\n  dup1\n  iszero\n  tag_18\n  jumpi\n  returndatasize\n  0x00\n  dup1\n  returndatacopy\n  revert(0x00, returndatasize)\ntag_18:\n  pop\n  pop\n  pop\n  pop\n  mload(0x40)\n  returndatasize\n  not(0x1f)\n  0x1f\n  dup3\n  add\n  and\n  dup3\n  add\n  dup1\n  0x40\n  mstore\n  pop\n  dup2\n  add\n  swap1\n  tag_19\n  swap2\n  swap1\n  tag_16\n  jump\t// in\ntag_19:\n    /* \"contracts/ACBNEW.sol\":2387:2483  IUniswapV2Factory(_uniswapV2Router.factory()).createPair(address(this), _uniswapV2Router.WETH()) */\n  mload(0x40)\n  not(sub(shl(0xe0, 0x01), 0x01))\n  0xe0\n  dup6\n  swap1\n  shl\n  and\n  dup2\n  mstore\n  sub(shl(0xa0, 0x01), 0x01)\n    /* \"#utility.yul\":3260:3275   */\n  swap3\n  dup4\n  and\n    /* \"contracts/ACBNEW.sol\":2387:2483  IUniswapV2Factory(_uniswapV2Router.factory()).createPair(address(this), _uniswapV2Router.WETH()) */\n  0x04\n  dup3\n  add\n    /* \"#utility.yul\":3242:3276   */\n  mstore\n    /* \"#utility.yul\":3312:3327   */\n  swap2\n  and\n    /* \"#utility.yul\":3292:3310   */\n  0x24\n  dup3\n  add\n    /* \"#utility.yul\":3285:3328   */\n  mstore\n    /* \"#utility.yul\":3177:3195   */\n  0x44\n  add\n    /* \"contracts/ACBNEW.sol\":2387:2483  IUniswapV2Factory(_uniswapV2Router.factory()).createPair(address(this), _uniswapV2Router.WETH()) */\n  0x20\n  mload(0x40)\n  dup1\n  dup4\n  sub\n  dup2\n  0x00\n  dup8\n  gas\n  call\n  iszero\n  dup1\n  iszero\n  tag_23\n  jumpi\n  returndatasize\n  0x00\n  dup1\n  returndatacopy\n  revert(0x00, returndatasize)\ntag_23:\n  pop\n  pop\n  pop\n  pop\n  mload(0x40)\n  returndatasize\n  not(0x1f)\n  0x1f\n  dup3\n  add\n  and\n  dup3\n  add\n  dup1\n  0x40\n  mstore\n  pop\n  dup2\n  add\n  swap1\n  tag_24\n  swap2\n  swap1\n  tag_16\n  jump\t// in\ntag_24:\n    /* \"contracts/ACBNEW.sol\":2496:2511  uniswapV2Router */\n  0x10\n    /* \"contracts/ACBNEW.sol\":2496:2530  uniswapV2Router = _uniswapV2Router */\n  dup1\n  sload\n  sub(shl(0xa0, 0x01), 0x01)\n  dup1\n  dup7\n  and\n  0x0100\n  mul\n  not(sub(shl(0xa8, 0x01), 0x0100))\n  swap1\n  swap3\n  and\n  swap2\n  swap1\n  swap2\n  or\n  swap1\n  swap2\n  sstore\n    /* \"contracts/ACBNEW.sol\":2541:2548  bnbPair */\n  0x06\n    /* \"contracts/ACBNEW.sol\":2541:2565  bnbPair = _uniswapV2Pair */\n  dup1\n  sload\n  swap2\n  dup4\n  and\n  not(sub(shl(0xa0, 0x01), 0x01))\n  swap3\n  dup4\n  and\n  or\n  swap1\n  sstore\n  0x00\n    /* \"contracts/ACBNEW.sol\":2647:2660  totalLpSupply */\n  0x11\n    /* \"contracts/ACBNEW.sol\":2647:2664  totalLpSupply = 0 */\n  dup2\n  swap1\n  sstore\n    /* \"contracts/ACBNEW.sol\":2700:2703  200 */\n  0xc8\n    /* \"contracts/ACBNEW.sol\":2675:2697  progressRewardBlockAdd */\n  0x09\n    /* \"contracts/ACBNEW.sol\":2675:2703  progressRewardBlockAdd = 200 */\n  sstore\n    /* \"contracts/ACBNEW.sol\":2738:2750  1 * 10 ** 16 */\n  0x2386f26fc10000\n  0x0a\n    /* \"contracts/ACBNEW.sol\":2714:2750  holderRewardCondition = 1 * 10 ** 16 */\n  sstore\n    /* \"contracts/ACBNEW.sol\":2776:2782  500000 */\n  0x07a120\n    /* \"contracts/ACBNEW.sol\":2762:2773  dividendGas */\n  0x0b\n    /* \"contracts/ACBNEW.sol\":2762:2782  dividendGas = 500000 */\n  sstore\n    /* \"contracts/ACBNEW.sol\":2794:2803  lpBonusEd */\n  0x0d\n    /* \"contracts/ACBNEW.sol\":2794:2807  lpBonusEd = 0 */\n  dup2\n  swap1\n  sstore\n    /* \"contracts/ACBNEW.sol\":2818:2825  lpBonus */\n  0x0c\n    /* \"contracts/ACBNEW.sol\":2818:2829  lpBonus = 0 */\n  dup2\n  swap1\n  sstore\n    /* \"contracts/ACBNEW.sol\":2840:2848  pairlock */\n  0x0f\n    /* \"contracts/ACBNEW.sol\":2840:2852  pairlock = 0 */\n  sstore\n  0x07\n    /* \"contracts/ACBNEW.sol\":2863:2912  ETH =  0x4200000000000000000000000000000000000006 */\n  dup1\n  sload\n  swap1\n  swap2\n  and\n    /* \"contracts/ACBNEW.sol\":2870:2912  0x4200000000000000000000000000000000000006 */\n  0x4200000000000000000000000000000000000006\n    /* \"contracts/ACBNEW.sol\":2863:2912  ETH =  0x4200000000000000000000000000000000000006 */\n  swap1\n  dup2\n  or\n  swap1\n  swap2\n  sstore\n    /* \"contracts/ACBNEW.sol\":3034:3059  new TokenDistributor(ETH) */\n  mload(0x40)\n    /* \"contracts/ACBNEW.sol\":2362:2483  address _uniswapV2Pair = IUniswapV2Factory(_uniswapV2Router.factory()).createPair(address(this), _uniswapV2Router.WETH()) */\n  swap2\n  swap3\n  pop\n    /* \"contracts/ACBNEW.sol\":2870:2912  0x4200000000000000000000000000000000000006 */\n  swap1\n    /* \"contracts/ACBNEW.sol\":3034:3059  new TokenDistributor(ETH) */\n  tag_25\n  swap1\n  tag_26\n  jump\t// in\ntag_25:\n  sub(shl(0xa0, 0x01), 0x01)\n    /* \"#utility.yul\":3503:3535   */\n  swap1\n  swap2\n  and\n    /* \"#utility.yul\":3485:3536   */\n  dup2\n  mstore\n    /* \"#utility.yul\":3473:3475   */\n  0x20\n    /* \"#utility.yul\":3458:3476   */\n  add\n    /* \"contracts/ACBNEW.sol\":3034:3059  new TokenDistributor(ETH) */\n  mload(0x40)\n  dup1\n  swap2\n  sub\n  swap1\n  0x00\n  create\n  dup1\n  iszero\n  dup1\n  iszero\n  tag_29\n  jumpi\n  returndatasize\n  0x00\n  dup1\n  returndatacopy\n  revert(0x00, returndatasize)\ntag_29:\n  pop\n    /* \"contracts/ACBNEW.sol\":3014:3031  _tokenDistributor */\n  0x17\n    /* \"contracts/ACBNEW.sol\":3014:3059  _tokenDistributor = new TokenDistributor(ETH) */\n  dup1\n  sload\n  not(sub(shl(0xa0, 0x01), 0x01))\n  and\n  sub(shl(0xa0, 0x01), 0x01)\n  swap3\n  swap1\n  swap3\n  and\n  swap2\n  swap1\n  swap2\n  or\n  swap1\n  sstore\n  pop\n    /* \"contracts/ACBNEW.sol\":602:11309  contract AcbCoin is ERC20StandardToken, Ownable {... */\n  tag_44\n  swap1\n  pop\n  jump\n    /* \"contracts/ERC20StandardToken.sol\":4223:4533  function _mint(address account, uint256 amount) internal virtual {... */\ntag_10:\n  sub(shl(0xa0, 0x01), 0x01)\n    /* \"contracts/ERC20StandardToken.sol\":4307:4328  account != address(0) */\n  dup3\n  and\n    /* \"contracts/ERC20StandardToken.sol\":4299:4364  require(account != address(0), \"ERC20: mint to the zero address\") */\n  tag_32\n  jumpi\n  mload(0x40)\n  shl(0xe5, 0x461bcd)\n  dup2\n  mstore\n    /* \"#utility.yul\":3749:3751   */\n  0x20\n    /* \"contracts/ERC20StandardToken.sol\":4299:4364  require(account != address(0), \"ERC20: mint to the zero address\") */\n  0x04\n  dup3\n  add\n    /* \"#utility.yul\":3731:3752   */\n  mstore\n    /* \"#utility.yul\":3788:3790   */\n  0x1f\n    /* \"#utility.yul\":3768:3786   */\n  0x24\n  dup3\n  add\n    /* \"#utility.yul\":3761:3791   */\n  mstore\n    /* \"#utility.yul\":3827:3860   */\n  0x45524332303a206d696e7420746f20746865207a65726f206164647265737300\n    /* \"#utility.yul\":3807:3825   */\n  0x44\n  dup3\n  add\n    /* \"#utility.yul\":3800:3861   */\n  mstore\n    /* \"#utility.yul\":3878:3896   */\n  0x64\n  add\n    /* \"contracts/ERC20StandardToken.sol\":4299:4364  require(account != address(0), \"ERC20: mint to the zero address\") */\n  mload(0x40)\n  dup1\n  swap2\n  sub\n  swap1\n  revert\ntag_32:\n    /* \"contracts/ERC20StandardToken.sol\":4391:4397  amount */\n  dup1\n    /* \"contracts/ERC20StandardToken.sol\":4375:4387  _totalSupply */\n  0x04\n  0x00\n    /* \"contracts/ERC20StandardToken.sol\":4375:4397  _totalSupply += amount */\n  dup3\n  dup3\n  sload\n  tag_35\n  swap2\n  swap1\n  tag_36\n  jump\t// in\ntag_35:\n  swap1\n  swap2\n  sstore\n  pop\n  pop\n  sub(shl(0xa0, 0x01), 0x01)\n    /* \"contracts/ERC20StandardToken.sol\":4433:4451  _balances[account] */\n  dup3\n  and\n    /* \"contracts/ERC20StandardToken.sol\":4433:4442  _balances */\n  0x00\n    /* \"contracts/ERC20StandardToken.sol\":4433:4451  _balances[account] */\n  dup2\n  dup2\n  mstore\n  0x20\n  dup2\n  dup2\n  mstore\n  0x40\n  dup1\n  dup4\n  keccak256\n    /* \"contracts/ERC20StandardToken.sol\":4433:4461  _balances[account] += amount */\n  dup1\n  sload\n  dup7\n  add\n  swap1\n  sstore\n    /* \"contracts/ERC20StandardToken.sol\":4488:4525  Transfer(address(0), account, amount) */\n  mload\n    /* \"#utility.yul\":4280:4305   */\n  dup5\n  dup2\n  mstore\n    /* \"contracts/ERC20StandardToken.sol\":4488:4525  Transfer(address(0), account, amount) */\n  0xddf252ad1be2c89b69c2b068fc378daa952ba7f163c4a11628f55a4df523b3ef\n  swap2\n    /* \"#utility.yul\":4253:4271   */\n  add\n    /* \"contracts/ERC20StandardToken.sol\":4488:4525  Transfer(address(0), account, amount) */\n  mload(0x40)\n  dup1\n  swap2\n  sub\n  swap1\n  log3\n    /* \"contracts/ERC20StandardToken.sol\":4223:4533  function _mint(address account, uint256 amount) internal virtual {... */\n  pop\n  pop\n  jump\t// out\n    /* \"contracts/ACBNEW.sol\":602:11309  contract AcbCoin is ERC20StandardToken, Ownable {... */\ntag_26:\n  dataSize(sub_1)\n  dup1\n  dataOffset(sub_1)\n  dup4\n  codecopy\n  add\n  swap1\n  jump\t// out\n    /* \"#utility.yul\":14:141   */\ntag_39:\n    /* \"#utility.yul\":75:85   */\n  0x4e487b71\n    /* \"#utility.yul\":70:73   */\n  0xe0\n    /* \"#utility.yul\":66:86   */\n  shl\n    /* \"#utility.yul\":63:64   */\n  0x00\n    /* \"#utility.yul\":56:87   */\n  mstore\n    /* \"#utility.yul\":106:110   */\n  0x41\n    /* \"#utility.yul\":103:104   */\n  0x04\n    /* \"#utility.yul\":96:111   */\n  mstore\n    /* \"#utility.yul\":130:134   */\n  0x24\n    /* \"#utility.yul\":127:128   */\n  0x00\n    /* \"#utility.yul\":120:135   */\n  revert\n    /* \"#utility.yul\":146:526   */\ntag_40:\n    /* \"#utility.yul\":225:226   */\n  0x01\n    /* \"#utility.yul\":221:233   */\n  dup2\n  dup2\n  shr\n  swap1\n    /* \"#utility.yul\":268:280   */\n  dup3\n  and\n  dup1\n    /* \"#utility.yul\":289:350   */\n  tag_47\n  jumpi\n    /* \"#utility.yul\":343:347   */\n  0x7f\n    /* \"#utility.yul\":335:341   */\n  dup3\n    /* \"#utility.yul\":331:348   */\n  and\n    /* \"#utility.yul\":321:348   */\n  swap2\n  pop\n    /* \"#utility.yul\":289:350   */\ntag_47:\n    /* \"#utility.yul\":396:398   */\n  0x20\n    /* \"#utility.yul\":388:394   */\n  dup3\n    /* \"#utility.yul\":385:399   */\n  lt\n    /* \"#utility.yul\":365:383   */\n  dup2\n    /* \"#utility.yul\":362:400   */\n  sub\n    /* \"#utility.yul\":359:520   */\n  tag_48\n  jumpi\n    /* \"#utility.yul\":442:452   */\n  0x4e487b71\n    /* \"#utility.yul\":437:440   */\n  0xe0\n    /* \"#utility.yul\":433:453   */\n  shl\n    /* \"#utility.yul\":430:431   */\n  0x00\n    /* \"#utility.yul\":423:454   */\n  mstore\n    /* \"#utility.yul\":477:481   */\n  0x22\n    /* \"#utility.yul\":474:475   */\n  0x04\n    /* \"#utility.yul\":467:482   */\n  mstore\n    /* \"#utility.yul\":505:509   */\n  0x24\n    /* \"#utility.yul\":502:503   */\n  0x00\n    /* \"#utility.yul\":495:510   */\n  revert\n    /* \"#utility.yul\":359:520   */\ntag_48:\n  pop\n    /* \"#utility.yul\":146:526   */\n  swap2\n  swap1\n  pop\n  jump\t// out\n    /* \"#utility.yul\":657:1202   */\ntag_42:\n    /* \"#utility.yul\":759:761   */\n  0x1f\n    /* \"#utility.yul\":754:757   */\n  dup3\n    /* \"#utility.yul\":751:762   */\n  gt\n    /* \"#utility.yul\":748:1196   */\n  iszero\n  tag_51\n  jumpi\n    /* \"#utility.yul\":795:796   */\n  0x00\n    /* \"#utility.yul\":820:825   */\n  dup2\n    /* \"#utility.yul\":816:818   */\n  dup2\n    /* \"#utility.yul\":809:826   */\n  mstore\n    /* \"#utility.yul\":865:869   */\n  0x20\n    /* \"#utility.yul\":861:863   */\n  dup2\n    /* \"#utility.yul\":851:870   */\n  keccak256\n    /* \"#utility.yul\":935:937   */\n  0x1f\n    /* \"#utility.yul\":923:933   */\n  dup6\n    /* \"#utility.yul\":919:938   */\n  add\n    /* \"#utility.yul\":916:917   */\n  0x05\n    /* \"#utility.yul\":912:939   */\n  shr\n    /* \"#utility.yul\":906:910   */\n  dup2\n    /* \"#utility.yul\":902:940   */\n  add\n    /* \"#utility.yul\":971:975   */\n  0x20\n    /* \"#utility.yul\":959:969   */\n  dup7\n    /* \"#utility.yul\":956:976   */\n  lt\n    /* \"#utility.yul\":953:1000   */\n  iszero\n  tag_52\n  jumpi\n  pop\n    /* \"#utility.yul\":994:998   */\n  dup1\n    /* \"#utility.yul\":953:1000   */\ntag_52:\n    /* \"#utility.yul\":1049:1051   */\n  0x1f\n    /* \"#utility.yul\":1044:1047   */\n  dup6\n    /* \"#utility.yul\":1040:1052   */\n  add\n    /* \"#utility.yul\":1037:1038   */\n  0x05\n    /* \"#utility.yul\":1033:1053   */\n  shr\n    /* \"#utility.yul\":1027:1031   */\n  dup3\n    /* \"#utility.yul\":1023:1054   */\n  add\n    /* \"#utility.yul\":1013:1054   */\n  swap2\n  pop\n    /* \"#utility.yul\":1104:1186   */\ntag_53:\n    /* \"#utility.yul\":1122:1124   */\n  dup2\n    /* \"#utility.yul\":1115:1120   */\n  dup2\n    /* \"#utility.yul\":1112:1125   */\n  lt\n    /* \"#utility.yul\":1104:1186   */\n  iszero\n  tag_55\n  jumpi\n    /* \"#utility.yul\":1167:1184   */\n  dup3\n  dup2\n  sstore\n    /* \"#utility.yul\":1148:1149   */\n  0x01\n    /* \"#utility.yul\":1137:1150   */\n  add\n    /* \"#utility.yul\":1104:1186   */\n  jump(tag_53)\ntag_55:\n    /* \"#utility.yul\":1108:1111   */\n  pop\n  pop\n  pop\n    /* \"#utility.yul\":748:1196   */\ntag_51:\n    /* \"#utility.yul\":657:1202   */\n  pop\n  pop\n  pop\n  jump\t// out\n    /* \"#utility.yul\":1378:2730   */\ntag_7:\n    /* \"#utility.yul\":1498:1508   */\n  dup2\n  mload\n  sub(shl(0x40, 0x01), 0x01)\n    /* \"#utility.yul\":1520:1550   */\n  dup2\n  gt\n    /* \"#utility.yul\":1517:1573   */\n  iszero\n  tag_59\n  jumpi\n    /* \"#utility.yul\":1553:1571   */\n  tag_59\n  tag_39\n  jump\t// in\ntag_59:\n    /* \"#utility.yul\":1582:1679   */\n  tag_60\n    /* \"#utility.yul\":1672:1678   */\n  dup2\n    /* \"#utility.yul\":1632:1670   */\n  tag_61\n    /* \"#utility.yul\":1664:1668   */\n  dup5\n    /* \"#utility.yul\":1658:1669   */\n  sload\n    /* \"#utility.yul\":1632:1670   */\n  tag_40\n  jump\t// in\ntag_61:\n    /* \"#utility.yul\":1626:1630   */\n  dup5\n    /* \"#utility.yul\":1582:1679   */\n  tag_42\n  jump\t// in\ntag_60:\n    /* \"#utility.yul\":1734:1738   */\n  0x20\n  dup1\n    /* \"#utility.yul\":1798:1800   */\n  0x1f\n    /* \"#utility.yul\":1787:1801   */\n  dup4\n  gt\n    /* \"#utility.yul\":1815:1816   */\n  0x01\n    /* \"#utility.yul\":1810:2473   */\n  dup2\n  eq\n  tag_63\n  jumpi\n    /* \"#utility.yul\":2517:2518   */\n  0x00\n    /* \"#utility.yul\":2534:2540   */\n  dup5\n    /* \"#utility.yul\":2531:2620   */\n  iszero\n  tag_64\n  jumpi\n  pop\n    /* \"#utility.yul\":2586:2605   */\n  dup6\n  dup4\n  add\n    /* \"#utility.yul\":2580:2606   */\n  mload\n    /* \"#utility.yul\":2531:2620   */\ntag_64:\n  not(0x00)\n    /* \"#utility.yul\":1335:1336   */\n  0x03\n    /* \"#utility.yul\":1331:1342   */\n  dup7\n  swap1\n  shl\n    /* \"#utility.yul\":1327:1351   */\n  shr\n    /* \"#utility.yul\":1323:1352   */\n  not\n    /* \"#utility.yul\":1313:1353   */\n  and\n    /* \"#utility.yul\":1359:1360   */\n  0x01\n    /* \"#utility.yul\":1355:1366   */\n  dup6\n  swap1\n  shl\n    /* \"#utility.yul\":1310:1367   */\n  or\n    /* \"#utility.yul\":2633:2714   */\n  dup6\n  sstore\n    /* \"#utility.yul\":1780:2724   */\n  jump(tag_55)\n    /* \"#utility.yul\":1810:2473   */\ntag_63:\n    /* \"#utility.yul\":604:605   */\n  0x00\n    /* \"#utility.yul\":597:611   */\n  dup6\n  dup2\n  mstore\n    /* \"#utility.yul\":641:645   */\n  0x20\n    /* \"#utility.yul\":628:646   */\n  dup2\n  keccak256\n  not(0x1f)\n    /* \"#utility.yul\":1846:1866   */\n  dup7\n  and\n  swap2\n    /* \"#utility.yul\":1964:2200   */\ntag_67:\n    /* \"#utility.yul\":1978:1985   */\n  dup3\n    /* \"#utility.yul\":1975:1976   */\n  dup2\n    /* \"#utility.yul\":1972:1986   */\n  lt\n    /* \"#utility.yul\":1964:2200   */\n  iszero\n  tag_69\n  jumpi\n    /* \"#utility.yul\":2067:2086   */\n  dup9\n  dup7\n  add\n    /* \"#utility.yul\":2061:2087   */\n  mload\n    /* \"#utility.yul\":2046:2088   */\n  dup3\n  sstore\n    /* \"#utility.yul\":2159:2186   */\n  swap5\n  dup5\n  add\n  swap5\n    /* \"#utility.yul\":2127:2128   */\n  0x01\n    /* \"#utility.yul\":2115:2129   */\n  swap1\n  swap2\n  add\n  swap1\n    /* \"#utility.yul\":1994:2013   */\n  dup5\n  add\n    /* \"#utility.yul\":1964:2200   */\n  jump(tag_67)\ntag_69:\n    /* \"#utility.yul\":1968:1971   */\n  pop\n    /* \"#utility.yul\":2228:2234   */\n  dup6\n    /* \"#utility.yul\":2219:2226   */\n  dup3\n    /* \"#utility.yul\":2216:2235   */\n  lt\n    /* \"#utility.yul\":2213:2414   */\n  iszero\n  tag_70\n  jumpi\n    /* \"#utility.yul\":2289:2308   */\n  dup8\n  dup6\n  add\n    /* \"#utility.yul\":2283:2309   */\n  mload\n  not(0x00)\n    /* \"#utility.yul\":2372:2373   */\n  0x03\n    /* \"#utility.yul\":2368:2382   */\n  dup9\n  swap1\n  shl\n    /* \"#utility.yul\":2384:2387   */\n  0xf8\n    /* \"#utility.yul\":2364:2388   */\n  and\n    /* \"#utility.yul\":2360:2397   */\n  shr\n    /* \"#utility.yul\":2356:2398   */\n  not\n    /* \"#utility.yul\":2341:2399   */\n  and\n    /* \"#utility.yul\":2326:2400   */\n  dup2\n  sstore\n    /* \"#utility.yul\":2213:2414   */\ntag_70:\n  pop\n  pop\n  pop\n  pop\n  pop\n    /* \"#utility.yul\":2460:2461   */\n  0x01\n    /* \"#utility.yul\":2444:2458   */\n  swap1\n  dup2\n  shl\n    /* \"#utility.yul\":2440:2462   */\n  add\n    /* \"#utility.yul\":2427:2463   */\n  swap1\n  sstore\n  pop\n    /* \"#utility.yul\":1378:2730   */\n  jump\t// out\n    /* \"#utility.yul\":2735:3025   */\ntag_16:\n    /* \"#utility.yul\":2805:2811   */\n  0x00\n    /* \"#utility.yul\":2858:2860   */\n  0x20\n    /* \"#utility.yul\":2846:2855   */\n  dup3\n    /* \"#utility.yul\":2837:2844   */\n  dup5\n    /* \"#utility.yul\":2833:2856   */\n  sub\n    /* \"#utility.yul\":2829:2861   */\n  slt\n    /* \"#utility.yul\":2826:2878   */\n  iszero\n  tag_72\n  jumpi\n    /* \"#utility.yul\":2874:2875   */\n  0x00\n    /* \"#utility.yul\":2871:2872   */\n  dup1\n    /* \"#utility.yul\":2864:2876   */\n  revert\n    /* \"#utility.yul\":2826:2878   */\ntag_72:\n    /* \"#utility.yul\":2900:2916   */\n  dup2\n  mload\n  sub(shl(0xa0, 0x01), 0x01)\n    /* \"#utility.yul\":2945:2976   */\n  dup2\n  and\n    /* \"#utility.yul\":2935:2977   */\n  dup2\n  eq\n    /* \"#utility.yul\":2925:2995   */\n  tag_73\n  jumpi\n    /* \"#utility.yul\":2991:2992   */\n  0x00\n    /* \"#utility.yul\":2988:2989   */\n  dup1\n    /* \"#utility.yul\":2981:2993   */\n  revert\n    /* \"#utility.yul\":2925:2995   */\ntag_73:\n    /* \"#utility.yul\":3014:3019   */\n  swap4\n    /* \"#utility.yul\":2735:3025   */\n  swap3\n  pop\n  pop\n  pop\n  jump\t// out\n    /* \"#utility.yul\":3907:4129   */\ntag_36:\n    /* \"#utility.yul\":3972:3981   */\n  dup1\n  dup3\n  add\n    /* \"#utility.yul\":3993:4003   */\n  dup1\n  dup3\n  gt\n    /* \"#utility.yul\":3990:4123   */\n  iszero\n  tag_78\n  jumpi\n    /* \"#utility.yul\":4045:4055   */\n  0x4e487b71\n    /* \"#utility.yul\":4040:4043   */\n  0xe0\n    /* \"#utility.yul\":4036:4056   */\n  shl\n    /* \"#utility.yul\":4033:4034   */\n  0x00\n    /* \"#utility.yul\":4026:4057   */\n  mstore\n    /* \"#utility.yul\":4080:4084   */\n  0x11\n    /* \"#utility.yul\":4077:4078   */\n  0x04\n    /* \"#utility.yul\":4070:4085   */\n  mstore\n    /* \"#utility.yul\":4108:4112   */\n  0x24\n    /* \"#utility.yul\":4105:4106   */\n  0x00\n    /* \"#utility.yul\":4098:4113   */\n  revert\n    /* \"#utility.yul\":3990:4123   */\ntag_78:\n    /* \"#utility.yul\":3907:4129   */\n  swap3\n  swap2\n  pop\n  pop\n  jump\t// out\n    /* \"#utility.yul\":4134:4311   */\ntag_44:\n    /* \"contracts/ACBNEW.sol\":602:11309  contract AcbCoin is ERC20StandardToken, Ownable {... */\n  mload(0x80)\n  codecopy(0x00, dataOffset(sub_0), dataSize(sub_0))\n  0x00\n  assignImmutable(\"0xd28890be762f499946cbe5c973d7574b40b34800c52cf06f23bfd0c81b3d4615\")\n  return(0x00, dataSize(sub_0))\nstop\n\nsub_0: assembly {\n        /* \"contracts/ACBNEW.sol\":602:11309  contract AcbCoin is ERC20StandardToken, Ownable {... */\n      mstore(0x40, 0x80)\n      callvalue\n      dup1\n      iszero\n      tag_1\n      jumpi\n      0x00\n      dup1\n      revert\n    tag_1:\n      pop\n      jumpi(tag_2, lt(calldatasize, 0x04))\n      shr(0xe0, calldataload(0x00))\n      dup1\n      0x06fdde03\n      eq\n      tag_3\n      jumpi\n      dup1\n      0x095ea7b3\n      eq\n      tag_4\n      jumpi\n      dup1\n      0x0affb402\n      eq\n      tag_5\n      jumpi\n      dup1\n      0x1210c434\n      eq\n      tag_6\n      jumpi\n      dup1\n      0x1357a1de\n      eq\n      tag_7\n      jumpi\n      dup1\n      0x1694505e\n      eq\n      tag_8\n      jumpi\n      dup1\n      0x18160ddd\n      eq\n      tag_9\n      jumpi\n      dup1\n      0x23b872dd\n      eq\n      tag_10\n      jumpi\n      dup1\n      0x2a595512\n      eq\n      tag_11\n      jumpi\n      dup1\n      0x313ce567\n      eq\n      tag_12\n      jumpi\n      dup1\n      0x46bb9271\n      eq\n      tag_13\n      jumpi\n      dup1\n      0x4c2516de\n      eq\n      tag_14\n      jumpi\n      dup1\n      0x621f9c0a\n      eq\n      tag_15\n      jumpi\n      dup1\n      0x6689567e\n      eq\n      tag_16\n      jumpi\n      dup1\n      0x68698b48\n      eq\n      tag_17\n      jumpi\n      dup1\n      0x6aedea73\n      eq\n      tag_18\n      jumpi\n      dup1\n      0x70a08231\n      eq\n      tag_19\n      jumpi\n      dup1\n      0x7ef925f7\n      eq\n      tag_20\n      jumpi\n      dup1\n      0x8322fff2\n      eq\n      tag_21\n      jumpi\n      dup1\n      0x86623a06\n      eq\n      tag_22\n      jumpi\n      dup1\n      0x8718b24f\n      eq\n      tag_23\n      jumpi\n      dup1\n      0x8da5cb5b\n      eq\n      tag_24\n      jumpi\n      dup1\n      0x95d89b41\n      eq\n      tag_25\n      jumpi\n      dup1\n      0x9f0d7eb8\n      eq\n      tag_26\n      jumpi\n      dup1\n      0xa9059cbb\n      eq\n      tag_27\n      jumpi\n      dup1\n      0xadd0a6c6\n      eq\n      tag_28\n      jumpi\n      dup1\n      0xb367bf83\n      eq\n      tag_29\n      jumpi\n      dup1\n      0xb510efa6\n      eq\n      tag_30\n      jumpi\n      dup1\n      0xbd876702\n      eq\n      tag_31\n      jumpi\n      dup1\n      0xc213d62d\n      eq\n      tag_32\n      jumpi\n      dup1\n      0xc7003ed0\n      eq\n      tag_33\n      jumpi\n      dup1\n      0xdd62ed3e\n      eq\n      tag_34\n      jumpi\n      dup1\n      0xe8c60137\n      eq\n      tag_35\n      jumpi\n      dup1\n      0xeb10b741\n      eq\n      tag_36\n      jumpi\n      dup1\n      0xed9a165d\n      eq\n      tag_37\n      jumpi\n      dup1\n      0xf2fde38b\n      eq\n      tag_38\n      jumpi\n    tag_2:\n      0x00\n      dup1\n      revert\n        /* \"contracts/ERC20StandardToken.sol\":1375:1466  function name() public view virtual returns (string memory) {... */\n    tag_3:\n      tag_39\n      tag_40\n      jump\t// in\n    tag_39:\n      mload(0x40)\n      tag_41\n      swap2\n      swap1\n      tag_42\n      jump\t// in\n    tag_41:\n      mload(0x40)\n      dup1\n      swap2\n      sub\n      swap1\n      return\n        /* \"contracts/ERC20StandardToken.sol\":2154:2321  function approve(address spender, uint256 amount) public virtual override returns (bool) {... */\n    tag_4:\n      tag_43\n      tag_44\n      calldatasize\n      0x04\n      tag_45\n      jump\t// in\n    tag_44:\n      tag_46\n      jump\t// in\n    tag_43:\n      mload(0x40)\n        /* \"#utility.yul\":1188:1202   */\n      swap1\n      iszero\n        /* \"#utility.yul\":1181:1203   */\n      iszero\n        /* \"#utility.yul\":1163:1204   */\n      dup2\n      mstore\n        /* \"#utility.yul\":1151:1153   */\n      0x20\n        /* \"#utility.yul\":1136:1154   */\n      add\n        /* \"contracts/ERC20StandardToken.sol\":2154:2321  function approve(address spender, uint256 amount) public virtual override returns (bool) {... */\n      tag_41\n        /* \"#utility.yul\":1023:1210   */\n      jump\n        /* \"contracts/ACBNEW.sol\":1535:1583  mapping(address => uint256) public lpHolderIndex */\n    tag_5:\n      tag_49\n      tag_50\n      calldatasize\n      0x04\n      tag_51\n      jump\t// in\n    tag_50:\n      mstore(0x20, 0x15)\n      0x00\n      swap1\n      dup2\n      mstore\n      0x40\n      swap1\n      keccak256\n      sload\n      dup2\n      jump\n    tag_49:\n      mload(0x40)\n        /* \"#utility.yul\":1613:1638   */\n      swap1\n      dup2\n      mstore\n        /* \"#utility.yul\":1601:1603   */\n      0x20\n        /* \"#utility.yul\":1586:1604   */\n      add\n        /* \"contracts/ACBNEW.sol\":1535:1583  mapping(address => uint256) public lpHolderIndex */\n      tag_41\n        /* \"#utility.yul\":1467:1644   */\n      jump\n        /* \"contracts/ACBNEW.sol\":1197:1226  uint256 public currentLpIndex */\n    tag_6:\n      tag_49\n      sload(0x0e)\n      dup2\n      jump\n        /* \"contracts/ACBNEW.sol\":1233:1256  uint256 public pairlock */\n    tag_7:\n      tag_49\n      sload(0x0f)\n      dup2\n      jump\n        /* \"contracts/ACBNEW.sol\":1291:1332  IUniswapV2Router02 public uniswapV2Router */\n    tag_8:\n      sload(0x10)\n      tag_61\n      swap1\n      0x0100\n      swap1\n      div\n      sub(shl(0xa0, 0x01), 0x01)\n      and\n      dup2\n      jump\n    tag_61:\n      mload(0x40)\n      tag_41\n      swap2\n      swap1\n      tag_64\n      jump\t// in\n        /* \"contracts/ERC20StandardToken.sol\":1575:1683  function totalSupply() public view virtual override returns (uint256) {... */\n    tag_9:\n        /* \"contracts/ERC20StandardToken.sol\":1663:1675  _totalSupply */\n      sload(0x04)\n        /* \"contracts/ERC20StandardToken.sol\":1575:1683  function totalSupply() public view virtual override returns (uint256) {... */\n      jump(tag_49)\n        /* \"contracts/ERC20StandardToken.sol\":2329:2552  function transferFrom(address from, address to, uint256 amount) public virtual override returns (bool) {... */\n    tag_10:\n      tag_43\n      tag_69\n      calldatasize\n      0x04\n      tag_70\n      jump\t// in\n    tag_69:\n      tag_71\n      jump\t// in\n        /* \"contracts/ACBNEW.sol\":972:1006  uint256 public progressRewardBlock */\n    tag_11:\n      tag_49\n      sload(0x08)\n      dup2\n      jump\n        /* \"contracts/ERC20StandardToken.sol\":1474:1565  function decimals() public view virtual returns (uint8) {... */\n    tag_12:\n      mload(0x40)\n        /* \"#utility.yul\":2517:2521   */\n      0xff\n        /* \"contracts/ERC20StandardToken.sol\":1548:1557  _decimals */\n      immutable(\"0xd28890be762f499946cbe5c973d7574b40b34800c52cf06f23bfd0c81b3d4615\")\n        /* \"#utility.yul\":2505:2522   */\n      and\n        /* \"#utility.yul\":2487:2523   */\n      dup2\n      mstore\n        /* \"#utility.yul\":2475:2477   */\n      0x20\n        /* \"#utility.yul\":2460:2478   */\n      add\n        /* \"contracts/ERC20StandardToken.sol\":1474:1565  function decimals() public view virtual returns (uint8) {... */\n      tag_41\n        /* \"#utility.yul\":2345:2529   */\n      jump\n        /* \"contracts/ACBNEW.sol\":10746:10826  function setBnbPair(address d) external onlyOwner {... */\n    tag_13:\n      tag_80\n      tag_81\n      calldatasize\n      0x04\n      tag_51\n      jump\t// in\n    tag_81:\n      tag_82\n      jump\t// in\n    tag_80:\n      stop\n        /* \"contracts/ACBNEW.sol\":3400:4073  function swapToken(uint256 tokenAmount,address to) public  lockTheSwap {... */\n    tag_14:\n      tag_80\n      tag_84\n      calldatasize\n      0x04\n      tag_85\n      jump\t// in\n    tag_84:\n      tag_86\n      jump\t// in\n        /* \"contracts/ACBNEW.sol\":1137:1159  uint256 public lpBonus */\n    tag_15:\n      tag_49\n      sload(0x0c)\n      dup2\n      jump\n        /* \"contracts/ACBNEW.sol\":10984:11088  function setDividendGas(uint256 vgas) external  onlyOwner{... */\n    tag_16:\n      tag_80\n      tag_91\n      calldatasize\n      0x04\n      tag_92\n      jump\t// in\n    tag_91:\n      tag_93\n      jump\t// in\n        /* \"contracts/ACBNEW.sol\":1376:1423  mapping(address  => uint256) public _LpBalances */\n    tag_17:\n      tag_49\n      tag_95\n      calldatasize\n      0x04\n      tag_51\n      jump\t// in\n    tag_95:\n      mstore(0x20, 0x12)\n      0x00\n      swap1\n      dup2\n      mstore\n      0x40\n      swap1\n      keccak256\n      sload\n      dup2\n      jump\n        /* \"contracts/ACBNEW.sol\":1341:1369  uint256 public totalLpSupply */\n    tag_18:\n      tag_49\n      sload(0x11)\n      dup2\n      jump\n        /* \"contracts/ERC20StandardToken.sol\":1691:1818  function balanceOf(address account) public view virtual override returns (uint256) {... */\n    tag_19:\n      tag_49\n      tag_102\n      calldatasize\n      0x04\n      tag_51\n      jump\t// in\n    tag_102:\n      sub(shl(0xa0, 0x01), 0x01)\n        /* \"contracts/ERC20StandardToken.sol\":1792:1810  _balances[account] */\n      and\n        /* \"contracts/ERC20StandardToken.sol\":1765:1772  uint256 */\n      0x00\n        /* \"contracts/ERC20StandardToken.sol\":1792:1810  _balances[account] */\n      swap1\n      dup2\n      mstore\n      0x20\n      dup2\n      swap1\n      mstore\n      0x40\n      swap1\n      keccak256\n      sload\n      swap1\n        /* \"contracts/ERC20StandardToken.sol\":1691:1818  function balanceOf(address account) public view virtual override returns (uint256) {... */\n      jump\n        /* \"contracts/ACBNEW.sol\":11208:11306  function setPairlock(uint256 _pairlock) external  onlyOwner{... */\n    tag_20:\n      tag_80\n      tag_106\n      calldatasize\n      0x04\n      tag_92\n      jump\t// in\n    tag_106:\n      tag_107\n      jump\t// in\n        /* \"contracts/ACBNEW.sol\":722:741  address public  ETH */\n    tag_21:\n      sload(0x07)\n      tag_61\n      swap1\n      sub(shl(0xa0, 0x01), 0x01)\n      and\n      dup2\n      jump\n        /* \"contracts/ACBNEW.sol\":1430:1477  mapping(address  => uint256) public _lastLpTime */\n    tag_22:\n      tag_49\n      tag_113\n      calldatasize\n      0x04\n      tag_51\n      jump\t// in\n    tag_113:\n      mstore(0x20, 0x13)\n      0x00\n      swap1\n      dup2\n      mstore\n      0x40\n      swap1\n      keccak256\n      sload\n      dup2\n      jump\n        /* \"contracts/ACBNEW.sol\":1625:1666  TokenDistributor public _tokenDistributor */\n    tag_23:\n      sload(0x17)\n      tag_61\n      swap1\n      sub(shl(0xa0, 0x01), 0x01)\n      and\n      dup2\n      jump\n        /* \"contracts/ACBNEW.sol\":285:305  address public owner */\n    tag_24:\n      sload(0x05)\n      tag_61\n      swap1\n      sub(shl(0xa0, 0x01), 0x01)\n      and\n      dup2\n      jump\n        /* \"contracts/ERC20StandardToken.sol\":1272:1367  function symbol() public view virtual returns (string memory) {... */\n    tag_25:\n      tag_39\n      tag_124\n      jump\t// in\n        /* \"contracts/ACBNEW.sol\":1592:1618  address[] public lpHolders */\n    tag_26:\n      tag_61\n      tag_127\n      calldatasize\n      0x04\n      tag_92\n      jump\t// in\n    tag_127:\n      tag_128\n      jump\t// in\n        /* \"contracts/ERC20StandardToken.sol\":1987:2146  function transfer(address to, uint256 amount) public virtual override returns (bool) {... */\n    tag_27:\n      tag_43\n      tag_131\n      calldatasize\n      0x04\n      tag_45\n      jump\t// in\n    tag_131:\n      tag_132\n      jump\t// in\n        /* \"contracts/ACBNEW.sol\":1013:1050  uint256 public progressRewardBlockAdd */\n    tag_28:\n      tag_49\n      sload(0x09)\n      dup2\n      jump\n        /* \"contracts/ACBNEW.sol\":1166:1190  uint256 public lpBonusEd */\n    tag_29:\n      tag_49\n      sload(0x0d)\n      dup2\n      jump\n        /* \"contracts/ACBNEW.sol\":1484:1528  mapping(address  => uint256) public _lastEth */\n    tag_30:\n      tag_49\n      tag_141\n      calldatasize\n      0x04\n      tag_51\n      jump\t// in\n    tag_141:\n      mstore(0x20, 0x14)\n      0x00\n      swap1\n      dup2\n      mstore\n      0x40\n      swap1\n      keccak256\n      sload\n      dup2\n      jump\n        /* \"contracts/ACBNEW.sol\":1104:1130  uint256 public dividendGas */\n    tag_31:\n      tag_49\n      sload(0x0b)\n      dup2\n      jump\n        /* \"contracts/ACBNEW.sol\":10843:10961  function setHolderRewardCondition(uint256 amount) external onlyOwner {... */\n    tag_32:\n      tag_80\n      tag_148\n      calldatasize\n      0x04\n      tag_92\n      jump\t// in\n    tag_148:\n      tag_149\n      jump\t// in\n        /* \"contracts/ACBNEW.sol\":11096:11202  function setRewardBlockAdd(uint256 num) external  onlyOwner{... */\n    tag_33:\n      tag_80\n      tag_151\n      calldatasize\n      0x04\n      tag_92\n      jump\t// in\n    tag_151:\n      tag_152\n      jump\t// in\n        /* \"contracts/ERC20StandardToken.sol\":1826:1977  function allowance(address owner, address spender) public view virtual override returns (uint256) {... */\n    tag_34:\n      tag_49\n      tag_154\n      calldatasize\n      0x04\n      tag_155\n      jump\t// in\n    tag_154:\n      sub(shl(0xa0, 0x01), 0x01)\n        /* \"contracts/ERC20StandardToken.sol\":1942:1960  _allowances[owner] */\n      swap2\n      dup3\n      and\n        /* \"contracts/ERC20StandardToken.sol\":1915:1922  uint256 */\n      0x00\n        /* \"contracts/ERC20StandardToken.sol\":1942:1960  _allowances[owner] */\n      swap1\n      dup2\n      mstore\n        /* \"contracts/ERC20StandardToken.sol\":1942:1953  _allowances */\n      0x01\n        /* \"contracts/ERC20StandardToken.sol\":1942:1960  _allowances[owner] */\n      0x20\n      swap1\n      dup2\n      mstore\n      0x40\n      dup1\n      dup4\n      keccak256\n        /* \"contracts/ERC20StandardToken.sol\":1942:1969  _allowances[owner][spender] */\n      swap4\n      swap1\n      swap5\n      and\n      dup3\n      mstore\n      swap2\n      swap1\n      swap2\n      mstore\n      keccak256\n      sload\n      swap1\n        /* \"contracts/ERC20StandardToken.sol\":1826:1977  function allowance(address owner, address spender) public view virtual override returns (uint256) {... */\n      jump\n        /* \"contracts/ACBNEW.sol\":4079:4913  function swapTokensForWBNB(uint256 tokenAmount) public {... */\n    tag_35:\n      tag_80\n      tag_159\n      calldatasize\n      0x04\n      tag_92\n      jump\t// in\n    tag_159:\n      tag_160\n      jump\t// in\n        /* \"contracts/ACBNEW.sol\":1060:1096  uint256 public holderRewardCondition */\n    tag_36:\n      tag_49\n      sload(0x0a)\n      dup2\n      jump\n        /* \"contracts/ACBNEW.sol\":680:703  address public  bnbPair */\n    tag_37:\n      sload(0x06)\n      tag_61\n      swap1\n      sub(shl(0xa0, 0x01), 0x01)\n      and\n      dup2\n      jump\n        /* \"contracts/ACBNEW.sol\":498:595  function transferOwnership(address newOwner) public onlyOwner {... */\n    tag_38:\n      tag_80\n      tag_168\n      calldatasize\n      0x04\n      tag_51\n      jump\t// in\n    tag_168:\n      tag_169\n      jump\t// in\n        /* \"contracts/ERC20StandardToken.sol\":1375:1466  function name() public view virtual returns (string memory) {... */\n    tag_40:\n        /* \"contracts/ERC20StandardToken.sol\":1420:1433  string memory */\n      0x60\n        /* \"contracts/ERC20StandardToken.sol\":1453:1458  _name */\n      0x03\n        /* \"contracts/ERC20StandardToken.sol\":1446:1458  return _name */\n      dup1\n      sload\n      tag_171\n      swap1\n      tag_172\n      jump\t// in\n    tag_171:\n      dup1\n      0x1f\n      add\n      0x20\n      dup1\n      swap2\n      div\n      mul\n      0x20\n      add\n      mload(0x40)\n      swap1\n      dup2\n      add\n      0x40\n      mstore\n      dup1\n      swap3\n      swap2\n      swap1\n      dup2\n      dup2\n      mstore\n      0x20\n      add\n      dup3\n      dup1\n      sload\n      tag_173\n      swap1\n      tag_172\n      jump\t// in\n    tag_173:\n      dup1\n      iszero\n      tag_174\n      jumpi\n      dup1\n      0x1f\n      lt\n      tag_175\n      jumpi\n      0x0100\n      dup1\n      dup4\n      sload\n      div\n      mul\n      dup4\n      mstore\n      swap2\n      0x20\n      add\n      swap2\n      jump(tag_174)\n    tag_175:\n      dup3\n      add\n      swap2\n      swap1\n      0x00\n      mstore\n      keccak256(0x00, 0x20)\n      swap1\n    tag_176:\n      dup2\n      sload\n      dup2\n      mstore\n      swap1\n      0x01\n      add\n      swap1\n      0x20\n      add\n      dup1\n      dup4\n      gt\n      tag_176\n      jumpi\n      dup3\n      swap1\n      sub\n      0x1f\n      and\n      dup3\n      add\n      swap2\n    tag_174:\n      pop\n      pop\n      pop\n      pop\n      pop\n      swap1\n      pop\n        /* \"contracts/ERC20StandardToken.sol\":1375:1466  function name() public view virtual returns (string memory) {... */\n      swap1\n      jump\t// out\n        /* \"contracts/ERC20StandardToken.sol\":2154:2321  function approve(address spender, uint256 amount) public virtual override returns (bool) {... */\n    tag_46:\n        /* \"contracts/ERC20StandardToken.sol\":2237:2241  bool */\n      0x00\n        /* \"contracts/ERC20StandardToken.sol\":2254:2291  _approve(msg.sender, spender, amount) */\n      tag_178\n        /* \"contracts/ERC20StandardToken.sol\":2263:2273  msg.sender */\n      caller\n        /* \"contracts/ERC20StandardToken.sol\":2275:2282  spender */\n      dup5\n        /* \"contracts/ERC20StandardToken.sol\":2284:2290  amount */\n      dup5\n        /* \"contracts/ERC20StandardToken.sol\":2254:2262  _approve */\n      tag_179\n        /* \"contracts/ERC20StandardToken.sol\":2254:2291  _approve(msg.sender, spender, amount) */\n      jump\t// in\n    tag_178:\n      pop\n        /* \"contracts/ERC20StandardToken.sol\":2309:2313  true */\n      0x01\n        /* \"contracts/ERC20StandardToken.sol\":2154:2321  function approve(address spender, uint256 amount) public virtual override returns (bool) {... */\n    tag_177:\n      swap3\n      swap2\n      pop\n      pop\n      jump\t// out\n        /* \"contracts/ERC20StandardToken.sol\":2329:2552  function transferFrom(address from, address to, uint256 amount) public virtual override returns (bool) {... */\n    tag_71:\n        /* \"contracts/ERC20StandardToken.sol\":2426:2430  bool */\n      0x00\n        /* \"contracts/ERC20StandardToken.sol\":2443:2484  _spendAllowance(from, msg.sender, amount) */\n      tag_182\n        /* \"contracts/ERC20StandardToken.sol\":2459:2463  from */\n      dup5\n        /* \"contracts/ERC20StandardToken.sol\":2465:2475  msg.sender */\n      caller\n        /* \"contracts/ERC20StandardToken.sol\":2477:2483  amount */\n      dup5\n        /* \"contracts/ERC20StandardToken.sol\":2443:2458  _spendAllowance */\n      tag_183\n        /* \"contracts/ERC20StandardToken.sol\":2443:2484  _spendAllowance(from, msg.sender, amount) */\n      jump\t// in\n    tag_182:\n        /* \"contracts/ERC20StandardToken.sol\":2495:2522  _transfer(from, to, amount) */\n      tag_184\n        /* \"contracts/ERC20StandardToken.sol\":2505:2509  from */\n      dup5\n        /* \"contracts/ERC20StandardToken.sol\":2511:2513  to */\n      dup5\n        /* \"contracts/ERC20StandardToken.sol\":2515:2521  amount */\n      dup5\n        /* \"contracts/ERC20StandardToken.sol\":2495:2504  _transfer */\n      tag_185\n        /* \"contracts/ERC20StandardToken.sol\":2495:2522  _transfer(from, to, amount) */\n      jump\t// in\n    tag_184:\n      pop\n        /* \"contracts/ERC20StandardToken.sol\":2540:2544  true */\n      0x01\n        /* \"contracts/ERC20StandardToken.sol\":2329:2552  function transferFrom(address from, address to, uint256 amount) public virtual override returns (bool) {... */\n      swap4\n      swap3\n      pop\n      pop\n      pop\n      jump\t// out\n        /* \"contracts/ACBNEW.sol\":10746:10826  function setBnbPair(address d) external onlyOwner {... */\n    tag_82:\n        /* \"contracts/ACBNEW.sol\":414:419  owner */\n      and(sub(shl(0xa0, 0x01), 0x01), sload(0x05))\n        /* \"contracts/ACBNEW.sol\":423:433  msg.sender */\n      caller\n        /* \"contracts/ACBNEW.sol\":414:433  owner == msg.sender */\n      eq\n        /* \"contracts/ACBNEW.sol\":406:470  require(owner == msg.sender, \"Ownable: caller is not the owner\") */\n      tag_188\n      jumpi\n      mload(0x40)\n      shl(0xe5, 0x461bcd)\n      dup2\n      mstore\n      0x04\n      add\n      tag_189\n      swap1\n      tag_190\n      jump\t// in\n    tag_189:\n      mload(0x40)\n      dup1\n      swap2\n      sub\n      swap1\n      revert\n    tag_188:\n        /* \"contracts/ACBNEW.sol\":10807:10814  bnbPair */\n      0x06\n        /* \"contracts/ACBNEW.sol\":10807:10818  bnbPair = d */\n      dup1\n      sload\n      not(sub(shl(0xa0, 0x01), 0x01))\n      and\n      sub(shl(0xa0, 0x01), 0x01)\n      swap3\n      swap1\n      swap3\n      and\n      swap2\n      swap1\n      swap2\n      or\n      swap1\n      sstore\n        /* \"contracts/ACBNEW.sol\":10746:10826  function setBnbPair(address d) external onlyOwner {... */\n      jump\t// out\n        /* \"contracts/ACBNEW.sol\":3400:4073  function swapToken(uint256 tokenAmount,address to) public  lockTheSwap {... */\n    tag_86:\n        /* \"contracts/ACBNEW.sol\":3332:3340  swapping */\n      0x10\n        /* \"contracts/ACBNEW.sol\":3332:3347  swapping = true */\n      dup1\n      sload\n      not(0xff)\n      and\n        /* \"contracts/ACBNEW.sol\":3343:3347  true */\n      0x01\n        /* \"contracts/ACBNEW.sol\":3332:3347  swapping = true */\n      or\n      swap1\n      dup2\n      swap1\n      sstore\n        /* \"contracts/ACBNEW.sol\":3497:3519  uniswapV2Router.WETH() */\n      0x40\n      dup1\n      mload\n      shl(0xe3, 0x15ab88c9)\n      dup2\n      mstore\n      swap1\n      mload\n        /* \"contracts/ACBNEW.sol\":3332:3340  swapping */\n      0x00\n      swap3\n      sub(shl(0xa0, 0x01), 0x01)\n        /* \"contracts/ACBNEW.sol\":3332:3347  swapping = true */\n      0x0100\n        /* \"contracts/ACBNEW.sol\":3497:3512  uniswapV2Router */\n      swap1\n      swap2\n      div\n      and\n      swap2\n        /* \"contracts/ACBNEW.sol\":3497:3517  uniswapV2Router.WETH */\n      0xad5c4648\n      swap2\n        /* \"contracts/ACBNEW.sol\":3497:3519  uniswapV2Router.WETH() */\n      0x04\n      dup1\n      dup4\n      add\n      swap3\n      0x20\n      swap3\n      swap2\n      swap1\n      dup3\n      swap1\n      sub\n      add\n      dup2\n        /* \"contracts/ACBNEW.sol\":3497:3512  uniswapV2Router */\n      dup7\n        /* \"contracts/ACBNEW.sol\":3497:3519  uniswapV2Router.WETH() */\n      gas\n      staticcall\n      iszero\n      dup1\n      iszero\n      tag_195\n      jumpi\n      returndatasize\n      0x00\n      dup1\n      returndatacopy\n      revert(0x00, returndatasize)\n    tag_195:\n      pop\n      pop\n      pop\n      pop\n      mload(0x40)\n      returndatasize\n      not(0x1f)\n      0x1f\n      dup3\n      add\n      and\n      dup3\n      add\n      dup1\n      0x40\n      mstore\n      pop\n      dup2\n      add\n      swap1\n      tag_196\n      swap2\n      swap1\n      tag_197\n      jump\t// in\n    tag_196:\n        /* \"contracts/ACBNEW.sol\":3554:3570  new address[](2) */\n      0x40\n      dup1\n      mload\n        /* \"contracts/ACBNEW.sol\":3568:3569  2 */\n      0x02\n        /* \"contracts/ACBNEW.sol\":3554:3570  new address[](2) */\n      dup1\n      dup3\n      mstore\n      0x60\n      dup3\n      add\n      dup4\n      mstore\n        /* \"contracts/ACBNEW.sol\":3482:3519  address weth = uniswapV2Router.WETH() */\n      swap3\n      swap4\n      pop\n        /* \"contracts/ACBNEW.sol\":3530:3551  address[] memory path */\n      0x00\n      swap3\n        /* \"contracts/ACBNEW.sol\":3554:3570  new address[](2) */\n      swap1\n      swap2\n      0x20\n      dup4\n      add\n      swap1\n      dup1\n      calldatasize\n      dup4\n      calldatacopy\n      add\n      swap1\n      pop\n      pop\n        /* \"contracts/ACBNEW.sol\":3530:3570  address[] memory path = new address[](2) */\n      swap1\n      pop\n        /* \"contracts/ACBNEW.sol\":3599:3603  weth */\n      dup2\n        /* \"contracts/ACBNEW.sol\":3581:3585  path */\n      dup2\n        /* \"contracts/ACBNEW.sol\":3586:3587  0 */\n      0x00\n        /* \"contracts/ACBNEW.sol\":3581:3588  path[0] */\n      dup2\n      mload\n      dup2\n      lt\n      tag_203\n      jumpi\n      tag_203\n      tag_204\n      jump\t// in\n    tag_203:\n      0x20\n      mul\n      0x20\n      add\n      add\n        /* \"contracts/ACBNEW.sol\":3581:3604  path[0] = address(weth) */\n      swap1\n      sub(shl(0xa0, 0x01), 0x01)\n      and\n      swap1\n      dup2\n      sub(shl(0xa0, 0x01), 0x01)\n      and\n      dup2\n      mstore\n      pop\n      pop\n        /* \"contracts/ACBNEW.sol\":3633:3637  this */\n      address\n        /* \"contracts/ACBNEW.sol\":3615:3619  path */\n      dup2\n        /* \"contracts/ACBNEW.sol\":3620:3621  1 */\n      0x01\n        /* \"contracts/ACBNEW.sol\":3615:3622  path[1] */\n      dup2\n      mload\n      dup2\n      lt\n      tag_206\n      jumpi\n      tag_206\n      tag_204\n      jump\t// in\n    tag_206:\n      sub(shl(0xa0, 0x01), 0x01)\n        /* \"contracts/ACBNEW.sol\":3615:3638  path[1] = address(this) */\n      swap3\n      dup4\n      and\n        /* \"contracts/ACBNEW.sol\":3615:3622  path[1] */\n      0x20\n      swap2\n      dup3\n      mul\n      swap3\n      swap1\n      swap3\n      add\n      add\n        /* \"contracts/ACBNEW.sol\":3615:3638  path[1] = address(this) */\n      mstore\n        /* \"contracts/ACBNEW.sol\":3664:3701  IERC20(weth).balanceOf(address(this)) */\n      mload(0x40)\n      shl(0xe0, 0x70a08231)\n      dup2\n      mstore\n        /* \"contracts/ACBNEW.sol\":3649:3661  uint256 _bal */\n      0x00\n      swap2\n        /* \"contracts/ACBNEW.sol\":3664:3686  IERC20(weth).balanceOf */\n      dup5\n      and\n      swap1\n      0x70a08231\n      swap1\n        /* \"contracts/ACBNEW.sol\":3664:3701  IERC20(weth).balanceOf(address(this)) */\n      tag_207\n      swap1\n        /* \"contracts/ACBNEW.sol\":3695:3699  this */\n      address\n      swap1\n        /* \"contracts/ACBNEW.sol\":3664:3701  IERC20(weth).balanceOf(address(this)) */\n      0x04\n      add\n      tag_64\n      jump\t// in\n    tag_207:\n      0x20\n      mload(0x40)\n      dup1\n      dup4\n      sub\n      dup2\n      dup7\n      gas\n      staticcall\n      iszero\n      dup1\n      iszero\n      tag_209\n      jumpi\n      returndatasize\n      0x00\n      dup1\n      returndatacopy\n      revert(0x00, returndatasize)\n    tag_209:\n      pop\n      pop\n      pop\n      pop\n      mload(0x40)\n      returndatasize\n      not(0x1f)\n      0x1f\n      dup3\n      add\n      and\n      dup3\n      add\n      dup1\n      0x40\n      mstore\n      pop\n      dup2\n      add\n      swap1\n      tag_210\n      swap2\n      swap1\n      tag_211\n      jump\t// in\n    tag_210:\n        /* \"contracts/ACBNEW.sol\":3649:3701  uint256 _bal = IERC20(weth).balanceOf(address(this)) */\n      swap1\n      pop\n        /* \"contracts/ACBNEW.sol\":3740:3744  _bal */\n      dup1\n        /* \"contracts/ACBNEW.sol\":3726:3737  tokenAmount */\n      dup6\n        /* \"contracts/ACBNEW.sol\":3726:3744  tokenAmount > _bal */\n      gt\n        /* \"contracts/ACBNEW.sol\":3726:3765  tokenAmount > _bal ? _bal : tokenAmount */\n      tag_212\n      jumpi\n        /* \"contracts/ACBNEW.sol\":3754:3765  tokenAmount */\n      dup5\n        /* \"contracts/ACBNEW.sol\":3726:3765  tokenAmount > _bal ? _bal : tokenAmount */\n      jump(tag_213)\n    tag_212:\n        /* \"contracts/ACBNEW.sol\":3747:3751  _bal */\n      dup1\n        /* \"contracts/ACBNEW.sol\":3726:3765  tokenAmount > _bal ? _bal : tokenAmount */\n    tag_213:\n        /* \"contracts/ACBNEW.sol\":3712:3765  tokenAmount = tokenAmount > _bal ? _bal : tokenAmount */\n      swap5\n      pop\n        /* \"contracts/ACBNEW.sol\":3780:3791  tokenAmount */\n      dup5\n        /* \"contracts/ACBNEW.sol\":3795:3796  0 */\n      0x00\n        /* \"contracts/ACBNEW.sol\":3780:3796  tokenAmount == 0 */\n      sub\n        /* \"contracts/ACBNEW.sol\":3776:3805  if (tokenAmount == 0) return; */\n      tag_214\n      jumpi\n        /* \"contracts/ACBNEW.sol\":3798:3805  return; */\n      pop\n      pop\n      pop\n      jump(tag_193)\n        /* \"contracts/ACBNEW.sol\":3776:3805  if (tokenAmount == 0) return; */\n    tag_214:\n        /* \"contracts/ACBNEW.sol\":3841:3856  uniswapV2Router */\n      sload(0x10)\n        /* \"contracts/ACBNEW.sol\":3841:4065  uniswapV2Router.swapExactTokensForTokensSupportingFeeOnTransferTokens(... */\n      mload(0x40)\n      shl(0xe0, 0x5c11d795)\n      dup2\n      mstore\n        /* \"contracts/ACBNEW.sol\":3841:3856  uniswapV2Router */\n      0x0100\n      swap1\n      swap2\n      div\n      sub(shl(0xa0, 0x01), 0x01)\n      and\n      swap1\n        /* \"contracts/ACBNEW.sol\":3841:3910  uniswapV2Router.swapExactTokensForTokensSupportingFeeOnTransferTokens */\n      0x5c11d795\n      swap1\n        /* \"contracts/ACBNEW.sol\":3841:4065  uniswapV2Router.swapExactTokensForTokensSupportingFeeOnTransferTokens(... */\n      tag_215\n      swap1\n        /* \"contracts/ACBNEW.sol\":3925:3936  tokenAmount */\n      dup9\n      swap1\n        /* \"contracts/ACBNEW.sol\":3951:3952  0 */\n      0x00\n      swap1\n        /* \"contracts/ACBNEW.sol\":3994:3998  path */\n      dup8\n      swap1\n        /* \"contracts/ACBNEW.sol\":4021:4023  to */\n      dup11\n      swap1\n        /* \"contracts/ACBNEW.sol\":4039:4054  block.timestamp */\n      timestamp\n      swap1\n        /* \"contracts/ACBNEW.sol\":3841:4065  uniswapV2Router.swapExactTokensForTokensSupportingFeeOnTransferTokens(... */\n      0x04\n      add\n      tag_216\n      jump\t// in\n    tag_215:\n      0x00\n      mload(0x40)\n      dup1\n      dup4\n      sub\n      dup2\n      0x00\n      dup8\n      dup1\n      extcodesize\n      iszero\n      dup1\n      iszero\n      tag_217\n      jumpi\n      0x00\n      dup1\n      revert\n    tag_217:\n      pop\n      gas\n      call\n      iszero\n      dup1\n      iszero\n      tag_219\n      jumpi\n      returndatasize\n      0x00\n      dup1\n      returndatacopy\n      revert(0x00, returndatasize)\n    tag_219:\n      pop\n      pop\n      pop\n      pop\n        /* \"contracts/ACBNEW.sol\":3471:4073  {... */\n      pop\n      pop\n      pop\n        /* \"contracts/ACBNEW.sol\":3358:3359  _ */\n    tag_193:\n      pop\n      pop\n        /* \"contracts/ACBNEW.sol\":3370:3378  swapping */\n      0x10\n        /* \"contracts/ACBNEW.sol\":3370:3386  swapping = false */\n      dup1\n      sload\n      not(0xff)\n      and\n      swap1\n      sstore\n        /* \"contracts/ACBNEW.sol\":3400:4073  function swapToken(uint256 tokenAmount,address to) public  lockTheSwap {... */\n      jump\t// out\n        /* \"contracts/ACBNEW.sol\":10984:11088  function setDividendGas(uint256 vgas) external  onlyOwner{... */\n    tag_93:\n        /* \"contracts/ACBNEW.sol\":414:419  owner */\n      and(sub(shl(0xa0, 0x01), 0x01), sload(0x05))\n        /* \"contracts/ACBNEW.sol\":423:433  msg.sender */\n      caller\n        /* \"contracts/ACBNEW.sol\":414:433  owner == msg.sender */\n      eq\n        /* \"contracts/ACBNEW.sol\":406:470  require(owner == msg.sender, \"Ownable: caller is not the owner\") */\n      tag_221\n      jumpi\n      mload(0x40)\n      shl(0xe5, 0x461bcd)\n      dup2\n      mstore\n      0x04\n      add\n      tag_189\n      swap1\n      tag_190\n      jump\t// in\n    tag_221:\n        /* \"contracts/ACBNEW.sol\":11062:11073  dividendGas */\n      0x0b\n        /* \"contracts/ACBNEW.sol\":11062:11080  dividendGas = vgas */\n      sstore\n        /* \"contracts/ACBNEW.sol\":10984:11088  function setDividendGas(uint256 vgas) external  onlyOwner{... */\n      jump\t// out\n        /* \"contracts/ACBNEW.sol\":11208:11306  function setPairlock(uint256 _pairlock) external  onlyOwner{... */\n    tag_107:\n        /* \"contracts/ACBNEW.sol\":414:419  owner */\n      and(sub(shl(0xa0, 0x01), 0x01), sload(0x05))\n        /* \"contracts/ACBNEW.sol\":423:433  msg.sender */\n      caller\n        /* \"contracts/ACBNEW.sol\":414:433  owner == msg.sender */\n      eq\n        /* \"contracts/ACBNEW.sol\":406:470  require(owner == msg.sender, \"Ownable: caller is not the owner\") */\n      tag_226\n      jumpi\n      mload(0x40)\n      shl(0xe5, 0x461bcd)\n      dup2\n      mstore\n      0x04\n      add\n      tag_189\n      swap1\n      tag_190\n      jump\t// in\n    tag_226:\n        /* \"contracts/ACBNEW.sol\":11278:11286  pairlock */\n      0x0f\n        /* \"contracts/ACBNEW.sol\":11278:11298  pairlock = _pairlock */\n      sstore\n        /* \"contracts/ACBNEW.sol\":11208:11306  function setPairlock(uint256 _pairlock) external  onlyOwner{... */\n      jump\t// out\n        /* \"contracts/ERC20StandardToken.sol\":1272:1367  function symbol() public view virtual returns (string memory) {... */\n    tag_124:\n        /* \"contracts/ERC20StandardToken.sol\":1319:1332  string memory */\n      0x60\n        /* \"contracts/ERC20StandardToken.sol\":1352:1359  _symbol */\n      0x02\n        /* \"contracts/ERC20StandardToken.sol\":1345:1359  return _symbol */\n      dup1\n      sload\n      tag_171\n      swap1\n      tag_172\n      jump\t// in\n        /* \"contracts/ACBNEW.sol\":1592:1618  address[] public lpHolders */\n    tag_128:\n      0x16\n      dup2\n      dup2\n      sload\n      dup2\n      lt\n      tag_235\n      jumpi\n      0x00\n      dup1\n      revert\n    tag_235:\n      0x00\n      swap2\n      dup3\n      mstore\n      0x20\n      swap1\n      swap2\n      keccak256\n      add\n      sload\n      sub(shl(0xa0, 0x01), 0x01)\n      and\n      swap1\n      pop\n      dup2\n      jump\t// out\n        /* \"contracts/ERC20StandardToken.sol\":1987:2146  function transfer(address to, uint256 amount) public virtual override returns (bool) {... */\n    tag_132:\n        /* \"contracts/ERC20StandardToken.sol\":2066:2070  bool */\n      0x00\n        /* \"contracts/ERC20StandardToken.sol\":2083:2116  _transfer(msg.sender, to, amount) */\n      tag_178\n        /* \"contracts/ERC20StandardToken.sol\":2093:2103  msg.sender */\n      caller\n        /* \"contracts/ERC20StandardToken.sol\":2105:2107  to */\n      dup5\n        /* \"contracts/ERC20StandardToken.sol\":2109:2115  amount */\n      dup5\n        /* \"contracts/ERC20StandardToken.sol\":2083:2092  _transfer */\n      tag_185\n        /* \"contracts/ERC20StandardToken.sol\":2083:2116  _transfer(msg.sender, to, amount) */\n      jump\t// in\n        /* \"contracts/ACBNEW.sol\":10843:10961  function setHolderRewardCondition(uint256 amount) external onlyOwner {... */\n    tag_149:\n        /* \"contracts/ACBNEW.sol\":414:419  owner */\n      and(sub(shl(0xa0, 0x01), 0x01), sload(0x05))\n        /* \"contracts/ACBNEW.sol\":423:433  msg.sender */\n      caller\n        /* \"contracts/ACBNEW.sol\":414:433  owner == msg.sender */\n      eq\n        /* \"contracts/ACBNEW.sol\":406:470  require(owner == msg.sender, \"Ownable: caller is not the owner\") */\n      tag_240\n      jumpi\n      mload(0x40)\n      shl(0xe5, 0x461bcd)\n      dup2\n      mstore\n      0x04\n      add\n      tag_189\n      swap1\n      tag_190\n      jump\t// in\n    tag_240:\n        /* \"contracts/ACBNEW.sol\":10923:10944  holderRewardCondition */\n      0x0a\n        /* \"contracts/ACBNEW.sol\":10923:10953  holderRewardCondition = amount */\n      sstore\n        /* \"contracts/ACBNEW.sol\":10843:10961  function setHolderRewardCondition(uint256 amount) external onlyOwner {... */\n      jump\t// out\n        /* \"contracts/ACBNEW.sol\":11096:11202  function setRewardBlockAdd(uint256 num) external  onlyOwner{... */\n    tag_152:\n        /* \"contracts/ACBNEW.sol\":414:419  owner */\n      and(sub(shl(0xa0, 0x01), 0x01), sload(0x05))\n        /* \"contracts/ACBNEW.sol\":423:433  msg.sender */\n      caller\n        /* \"contracts/ACBNEW.sol\":414:433  owner == msg.sender */\n      eq\n        /* \"contracts/ACBNEW.sol\":406:470  require(owner == msg.sender, \"Ownable: caller is not the owner\") */\n      tag_244\n      jumpi\n      mload(0x40)\n      shl(0xe5, 0x461bcd)\n      dup2\n      mstore\n      0x04\n      add\n      tag_189\n      swap1\n      tag_190\n      jump\t// in\n    tag_244:\n        /* \"contracts/ACBNEW.sol\":11166:11188  progressRewardBlockAdd */\n      0x09\n        /* \"contracts/ACBNEW.sol\":11166:11194  progressRewardBlockAdd = num */\n      sstore\n        /* \"contracts/ACBNEW.sol\":11096:11202  function setRewardBlockAdd(uint256 num) external  onlyOwner{... */\n      jump\t// out\n        /* \"contracts/ACBNEW.sol\":4079:4913  function swapTokensForWBNB(uint256 tokenAmount) public {... */\n    tag_160:\n        /* \"contracts/ACBNEW.sol\":4169:4185  new address[](2) */\n      0x40\n      dup1\n      mload\n        /* \"contracts/ACBNEW.sol\":4183:4184  2 */\n      0x02\n        /* \"contracts/ACBNEW.sol\":4169:4185  new address[](2) */\n      dup1\n      dup3\n      mstore\n      0x60\n      dup3\n      add\n      dup4\n      mstore\n        /* \"contracts/ACBNEW.sol\":4145:4166  address[] memory path */\n      0x00\n      swap3\n        /* \"contracts/ACBNEW.sol\":4169:4185  new address[](2) */\n      0x20\n      dup4\n      add\n      swap1\n      dup1\n      calldatasize\n      dup4\n      calldatacopy\n      add\n      swap1\n      pop\n      pop\n        /* \"contracts/ACBNEW.sol\":4145:4185  address[] memory path = new address[](2) */\n      swap1\n      pop\n        /* \"contracts/ACBNEW.sol\":4214:4218  this */\n      address\n        /* \"contracts/ACBNEW.sol\":4196:4200  path */\n      dup2\n        /* \"contracts/ACBNEW.sol\":4201:4202  0 */\n      0x00\n        /* \"contracts/ACBNEW.sol\":4196:4203  path[0] */\n      dup2\n      mload\n      dup2\n      lt\n      tag_253\n      jumpi\n      tag_253\n      tag_204\n      jump\t// in\n    tag_253:\n      sub(shl(0xa0, 0x01), 0x01)\n        /* \"contracts/ACBNEW.sol\":4196:4219  path[0] = address(this) */\n      swap3\n      dup4\n      and\n        /* \"contracts/ACBNEW.sol\":4196:4203  path[0] */\n      0x20\n      swap2\n      dup3\n      mul\n      swap3\n      swap1\n      swap3\n      add\n      add\n        /* \"contracts/ACBNEW.sol\":4196:4219  path[0] = address(this) */\n      mstore\n        /* \"contracts/ACBNEW.sol\":4240:4243  ETH */\n      sload(0x07)\n        /* \"contracts/ACBNEW.sol\":4230:4237  path[1] */\n      dup3\n      mload\n        /* \"contracts/ACBNEW.sol\":4240:4243  ETH */\n      swap2\n      and\n      swap1\n        /* \"contracts/ACBNEW.sol\":4230:4234  path */\n      dup3\n      swap1\n        /* \"contracts/ACBNEW.sol\":4240:4243  ETH */\n      0x01\n      swap1\n        /* \"contracts/ACBNEW.sol\":4230:4237  path[1] */\n      dup2\n      lt\n      tag_255\n      jumpi\n      tag_255\n      tag_204\n      jump\t// in\n    tag_255:\n      sub(shl(0xa0, 0x01), 0x01)\n        /* \"contracts/ACBNEW.sol\":4230:4243  path[1] = ETH */\n      swap3\n      dup4\n      and\n        /* \"contracts/ACBNEW.sol\":4230:4237  path[1] */\n      0x20\n      swap2\n      dup3\n      mul\n      swap3\n      swap1\n      swap3\n      add\n      add\n        /* \"contracts/ACBNEW.sol\":4230:4243  path[1] = ETH */\n      mstore\n        /* \"contracts/ACBNEW.sol\":4288:4303  uniswapV2Router */\n      sload(0x10)\n        /* \"contracts/ACBNEW.sol\":4256:4318  _approve(address(this), address(uniswapV2Router), tokenAmount) */\n      tag_256\n      swap2\n        /* \"contracts/ACBNEW.sol\":4273:4277  this */\n      address\n      swap2\n        /* \"contracts/ACBNEW.sol\":4288:4303  uniswapV2Router */\n      0x0100\n      swap1\n      div\n      and\n        /* \"contracts/ACBNEW.sol\":4306:4317  tokenAmount */\n      dup5\n        /* \"contracts/ACBNEW.sol\":4256:4264  _approve */\n      tag_179\n        /* \"contracts/ACBNEW.sol\":4256:4318  _approve(address(this), address(uniswapV2Router), tokenAmount) */\n      jump\t// in\n    tag_256:\n        /* \"contracts/ACBNEW.sol\":4374:4389  uniswapV2Router */\n      sload(0x10)\n        /* \"contracts/ACBNEW.sol\":4543:4560  _tokenDistributor */\n      sload(0x17)\n        /* \"contracts/ACBNEW.sol\":4374:4610  uniswapV2Router.swapExactTokensForTokensSupportingFeeOnTransferTokens(... */\n      mload(0x40)\n      shl(0xe0, 0x5c11d795)\n      dup2\n      mstore\n      sub(shl(0xa0, 0x01), 0x01)\n        /* \"contracts/ACBNEW.sol\":4374:4389  uniswapV2Router */\n      0x0100\n      swap1\n      swap4\n      div\n      dup4\n      and\n      swap3\n        /* \"contracts/ACBNEW.sol\":4374:4443  uniswapV2Router.swapExactTokensForTokensSupportingFeeOnTransferTokens */\n      0x5c11d795\n      swap3\n        /* \"contracts/ACBNEW.sol\":4374:4610  uniswapV2Router.swapExactTokensForTokensSupportingFeeOnTransferTokens(... */\n      tag_257\n      swap3\n        /* \"contracts/ACBNEW.sol\":4462:4473  tokenAmount */\n      dup8\n      swap3\n        /* \"contracts/ACBNEW.sol\":4492:4493  0 */\n      0x00\n      swap3\n        /* \"contracts/ACBNEW.sol\":4512:4516  path */\n      dup9\n      swap3\n        /* \"contracts/ACBNEW.sol\":4543:4560  _tokenDistributor */\n      swap2\n      and\n      swap1\n        /* \"contracts/ACBNEW.sol\":4580:4595  block.timestamp */\n      timestamp\n      swap1\n        /* \"contracts/ACBNEW.sol\":4374:4610  uniswapV2Router.swapExactTokensForTokensSupportingFeeOnTransferTokens(... */\n      0x04\n      add\n      tag_216\n      jump\t// in\n    tag_257:\n      0x00\n      mload(0x40)\n      dup1\n      dup4\n      sub\n      dup2\n      0x00\n      dup8\n      dup1\n      extcodesize\n      iszero\n      dup1\n      iszero\n      tag_258\n      jumpi\n      0x00\n      dup1\n      revert\n    tag_258:\n      pop\n      gas\n      call\n      swap3\n      pop\n      pop\n      pop\n      dup1\n      iszero\n      tag_259\n      jumpi\n      pop\n      0x01\n    tag_259:\n        /* \"contracts/ACBNEW.sol\":4357:4723  try... */\n      tag_260\n      jumpi\n        /* \"contracts/ACBNEW.sol\":4649:4711  Failed_swapExactTokensForTokensSupportingFeeOnTransferTokens() */\n      mload(0x40)\n      0xfa4626fc78df02cb8fdea85a8af60ad29e2c95f22e2a91c79d99631c288a8b6c\n      swap1\n      0x00\n      swap1\n      log1\n        /* \"contracts/ACBNEW.sol\":4357:4723  try... */\n    tag_260:\n        /* \"contracts/ACBNEW.sol\":4742:4745  ETH */\n      sload(0x07)\n        /* \"contracts/ACBNEW.sol\":4782:4799  _tokenDistributor */\n      sload(0x17)\n        /* \"contracts/ACBNEW.sol\":4843:4892  IERC20(ETH).balanceOf(address(_tokenDistributor)) */\n      mload(0x40)\n      shl(0xe0, 0x70a08231)\n      dup2\n      mstore\n      sub(shl(0xa0, 0x01), 0x01)\n        /* \"contracts/ACBNEW.sol\":4742:4745  ETH */\n      swap3\n      dup4\n      and\n      swap3\n        /* \"contracts/ACBNEW.sol\":4735:4759  IERC20(ETH).transferFrom */\n      0x23b872dd\n      swap3\n        /* \"contracts/ACBNEW.sol\":4782:4799  _tokenDistributor */\n      and\n      swap1\n        /* \"contracts/ACBNEW.sol\":4823:4827  this */\n      address\n      swap1\n        /* \"contracts/ACBNEW.sol\":4742:4745  ETH */\n      dup5\n      swap1\n        /* \"contracts/ACBNEW.sol\":4843:4864  IERC20(ETH).balanceOf */\n      0x70a08231\n      swap1\n        /* \"contracts/ACBNEW.sol\":4843:4892  IERC20(ETH).balanceOf(address(_tokenDistributor)) */\n      tag_265\n      swap1\n        /* \"contracts/ACBNEW.sol\":4782:4799  _tokenDistributor */\n      dup6\n      swap1\n        /* \"contracts/ACBNEW.sol\":4843:4892  IERC20(ETH).balanceOf(address(_tokenDistributor)) */\n      0x04\n      add\n      tag_64\n      jump\t// in\n    tag_265:\n      0x20\n      mload(0x40)\n      dup1\n      dup4\n      sub\n      dup2\n      dup7\n      gas\n      staticcall\n      iszero\n      dup1\n      iszero\n      tag_267\n      jumpi\n      returndatasize\n      0x00\n      dup1\n      returndatacopy\n      revert(0x00, returndatasize)\n    tag_267:\n      pop\n      pop\n      pop\n      pop\n      mload(0x40)\n      returndatasize\n      not(0x1f)\n      0x1f\n      dup3\n      add\n      and\n      dup3\n      add\n      dup1\n      0x40\n      mstore\n      pop\n      dup2\n      add\n      swap1\n      tag_268\n      swap2\n      swap1\n      tag_211\n      jump\t// in\n    tag_268:\n        /* \"contracts/ACBNEW.sol\":4735:4903  IERC20(ETH).transferFrom(... */\n      mload(0x40)\n      not(sub(shl(0xe0, 0x01), 0x01))\n      0xe0\n      dup7\n      swap1\n      shl\n      and\n      dup2\n      mstore\n      sub(shl(0xa0, 0x01), 0x01)\n        /* \"#utility.yul\":6570:6585   */\n      swap4\n      dup5\n      and\n        /* \"contracts/ACBNEW.sol\":4735:4903  IERC20(ETH).transferFrom(... */\n      0x04\n      dup3\n      add\n        /* \"#utility.yul\":6552:6586   */\n      mstore\n        /* \"#utility.yul\":6622:6637   */\n      swap3\n      swap1\n      swap2\n      and\n        /* \"#utility.yul\":6602:6620   */\n      0x24\n      dup4\n      add\n        /* \"#utility.yul\":6595:6638   */\n      mstore\n        /* \"#utility.yul\":6654:6672   */\n      0x44\n      dup3\n      add\n        /* \"#utility.yul\":6647:6681   */\n      mstore\n        /* \"#utility.yul\":6487:6505   */\n      0x64\n      add\n        /* \"contracts/ACBNEW.sol\":4735:4903  IERC20(ETH).transferFrom(... */\n      0x20\n      mload(0x40)\n      dup1\n      dup4\n      sub\n      dup2\n      0x00\n      dup8\n      gas\n      call\n      iszero\n      dup1\n      iszero\n      tag_272\n      jumpi\n      returndatasize\n      0x00\n      dup1\n      returndatacopy\n      revert(0x00, returndatasize)\n    tag_272:\n      pop\n      pop\n      pop\n      pop\n      mload(0x40)\n      returndatasize\n      not(0x1f)\n      0x1f\n      dup3\n      add\n      and\n      dup3\n      add\n      dup1\n      0x40\n      mstore\n      pop\n      dup2\n      add\n      swap1\n      tag_273\n      swap2\n      swap1\n      tag_274\n      jump\t// in\n    tag_273:\n      pop\n        /* \"contracts/ACBNEW.sol\":4134:4913  {... */\n      pop\n        /* \"contracts/ACBNEW.sol\":4079:4913  function swapTokensForWBNB(uint256 tokenAmount) public {... */\n      pop\n      jump\t// out\n        /* \"contracts/ACBNEW.sol\":498:595  function transferOwnership(address newOwner) public onlyOwner {... */\n    tag_169:\n        /* \"contracts/ACBNEW.sol\":414:419  owner */\n      and(sub(shl(0xa0, 0x01), 0x01), sload(0x05))\n        /* \"contracts/ACBNEW.sol\":423:433  msg.sender */\n      caller\n        /* \"contracts/ACBNEW.sol\":414:433  owner == msg.sender */\n      eq\n        /* \"contracts/ACBNEW.sol\":406:470  require(owner == msg.sender, \"Ownable: caller is not the owner\") */\n      tag_276\n      jumpi\n      mload(0x40)\n      shl(0xe5, 0x461bcd)\n      dup2\n      mstore\n      0x04\n      add\n      tag_189\n      swap1\n      tag_190\n      jump\t// in\n    tag_276:\n        /* \"contracts/ACBNEW.sol\":571:576  owner */\n      0x05\n        /* \"contracts/ACBNEW.sol\":571:587  owner = newOwner */\n      dup1\n      sload\n      not(sub(shl(0xa0, 0x01), 0x01))\n      and\n      sub(shl(0xa0, 0x01), 0x01)\n      swap3\n      swap1\n      swap3\n      and\n      swap2\n      swap1\n      swap2\n      or\n      swap1\n      sstore\n        /* \"contracts/ACBNEW.sol\":498:595  function transferOwnership(address newOwner) public onlyOwner {... */\n      jump\t// out\n        /* \"contracts/ERC20StandardToken.sol\":4029:4215  function _approve(address owner, address spender, uint256 amount) internal virtual {... */\n    tag_179:\n      sub(shl(0xa0, 0x01), 0x01)\n        /* \"contracts/ERC20StandardToken.sol\":4123:4141  _allowances[owner] */\n      dup4\n      dup2\n      and\n      0x00\n      dup2\n      dup2\n      mstore\n        /* \"contracts/ERC20StandardToken.sol\":4123:4134  _allowances */\n      0x01\n        /* \"contracts/ERC20StandardToken.sol\":4123:4141  _allowances[owner] */\n      0x20\n      swap1\n      dup2\n      mstore\n      0x40\n      dup1\n      dup4\n      keccak256\n        /* \"contracts/ERC20StandardToken.sol\":4123:4150  _allowances[owner][spender] */\n      swap5\n      dup8\n      and\n      dup1\n      dup5\n      mstore\n      swap5\n      dup3\n      mstore\n      swap2\n      dup3\n      swap1\n      keccak256\n        /* \"contracts/ERC20StandardToken.sol\":4123:4159  _allowances[owner][spender] = amount */\n      dup6\n      swap1\n      sstore\n        /* \"contracts/ERC20StandardToken.sol\":4175:4207  Approval(owner, spender, amount) */\n      swap1\n      mload\n        /* \"#utility.yul\":1613:1638   */\n      dup5\n      dup2\n      mstore\n        /* \"contracts/ERC20StandardToken.sol\":4175:4207  Approval(owner, spender, amount) */\n      0x8c5be1e5ebec7d5bd14f71427d1e84f3dd0314c0f7b2291e5b200ac8c7c3b925\n      swap2\n        /* \"#utility.yul\":1586:1604   */\n      add\n        /* \"contracts/ERC20StandardToken.sol\":4175:4207  Approval(owner, spender, amount) */\n    tag_280:\n      mload(0x40)\n      dup1\n      swap2\n      sub\n      swap1\n      log3\n        /* \"contracts/ERC20StandardToken.sol\":4029:4215  function _approve(address owner, address spender, uint256 amount) internal virtual {... */\n      pop\n      pop\n      pop\n      jump\t// out\n        /* \"contracts/ERC20StandardToken.sol\":3600:4021  function _spendAllowance(address owner, address spender, uint256 amount) internal virtual {... */\n    tag_183:\n      sub(shl(0xa0, 0x01), 0x01)\n        /* \"contracts/ERC20StandardToken.sol\":3728:3746  _allowances[owner] */\n      dup1\n      dup5\n      and\n        /* \"contracts/ERC20StandardToken.sol\":3701:3725  uint256 currentAllowance */\n      0x00\n        /* \"contracts/ERC20StandardToken.sol\":3728:3746  _allowances[owner] */\n      swap1\n      dup2\n      mstore\n        /* \"contracts/ERC20StandardToken.sol\":3728:3739  _allowances */\n      0x01\n        /* \"contracts/ERC20StandardToken.sol\":3728:3746  _allowances[owner] */\n      0x20\n      swap1\n      dup2\n      mstore\n      0x40\n      dup1\n      dup4\n      keccak256\n        /* \"contracts/ERC20StandardToken.sol\":3728:3755  _allowances[owner][spender] */\n      swap4\n      dup7\n      and\n      dup4\n      mstore\n      swap3\n      swap1\n      mstore\n      keccak256\n      sload\n      not(0x00)\n        /* \"contracts/ERC20StandardToken.sol\":3770:3807  currentAllowance != type(uint256).max */\n      dup2\n      eq\n        /* \"contracts/ERC20StandardToken.sol\":3766:4014  if (currentAllowance != type(uint256).max) {... */\n      tag_286\n      jumpi\n        /* \"contracts/ERC20StandardToken.sol\":3852:3858  amount */\n      dup2\n        /* \"contracts/ERC20StandardToken.sol\":3832:3848  currentAllowance */\n      dup2\n        /* \"contracts/ERC20StandardToken.sol\":3832:3858  currentAllowance >= amount */\n      lt\n      iszero\n        /* \"contracts/ERC20StandardToken.sol\":3824:3892  require(currentAllowance >= amount, \"ERC20: insufficient allowance\") */\n      tag_283\n      jumpi\n      mload(0x40)\n      shl(0xe5, 0x461bcd)\n      dup2\n      mstore\n        /* \"#utility.yul\":7176:7178   */\n      0x20\n        /* \"contracts/ERC20StandardToken.sol\":3824:3892  require(currentAllowance >= amount, \"ERC20: insufficient allowance\") */\n      0x04\n      dup3\n      add\n        /* \"#utility.yul\":7158:7179   */\n      mstore\n        /* \"#utility.yul\":7215:7217   */\n      0x1d\n        /* \"#utility.yul\":7195:7213   */\n      0x24\n      dup3\n      add\n        /* \"#utility.yul\":7188:7218   */\n      mstore\n        /* \"#utility.yul\":7254:7285   */\n      0x45524332303a20696e73756666696369656e7420616c6c6f77616e6365000000\n        /* \"#utility.yul\":7234:7252   */\n      0x44\n      dup3\n      add\n        /* \"#utility.yul\":7227:7286   */\n      mstore\n        /* \"#utility.yul\":7303:7321   */\n      0x64\n      add\n        /* \"contracts/ERC20StandardToken.sol\":3824:3892  require(currentAllowance >= amount, \"ERC20: insufficient allowance\") */\n      tag_189\n        /* \"#utility.yul\":6974:7327   */\n      jump\n        /* \"contracts/ERC20StandardToken.sol\":3824:3892  require(currentAllowance >= amount, \"ERC20: insufficient allowance\") */\n    tag_283:\n        /* \"contracts/ERC20StandardToken.sol\":3936:3987  _approve(owner, spender, currentAllowance - amount) */\n      tag_286\n        /* \"contracts/ERC20StandardToken.sol\":3945:3950  owner */\n      dup5\n        /* \"contracts/ERC20StandardToken.sol\":3952:3959  spender */\n      dup5\n        /* \"contracts/ERC20StandardToken.sol\":3980:3986  amount */\n      dup5\n        /* \"contracts/ERC20StandardToken.sol\":3961:3977  currentAllowance */\n      dup5\n        /* \"contracts/ERC20StandardToken.sol\":3961:3986  currentAllowance - amount */\n      sub\n        /* \"contracts/ERC20StandardToken.sol\":3936:3944  _approve */\n      tag_179\n        /* \"contracts/ERC20StandardToken.sol\":3936:3987  _approve(owner, spender, currentAllowance - amount) */\n      jump\t// in\n    tag_286:\n        /* \"contracts/ERC20StandardToken.sol\":3690:4021  {... */\n      pop\n        /* \"contracts/ERC20StandardToken.sol\":3600:4021  function _spendAllowance(address owner, address spender, uint256 amount) internal virtual {... */\n      pop\n      pop\n      pop\n      jump\t// out\n        /* \"contracts/ACBNEW.sol\":6207:7682  function _transfer(address from, address to, uint256 amount) internal override {... */\n    tag_185:\n        /* \"contracts/ACBNEW.sol\":6323:6330  bnbPair */\n      and(sub(shl(0xa0, 0x01), 0x01), sload(0x06))\n        /* \"contracts/ACBNEW.sol\":6381:6396  extcodesize(to) */\n      dup3\n      extcodesize\n        /* \"contracts/ACBNEW.sol\":6421:6429  size > 0 */\n      dup1\n      iszero\n      dup1\n      iszero\n      swap1\n        /* \"contracts/ACBNEW.sol\":6421:6443  size > 0 && to !=pair_ */\n      tag_288\n      jumpi\n      pop\n        /* \"contracts/ACBNEW.sol\":6438:6443  pair_ */\n      dup2\n      sub(shl(0xa0, 0x01), 0x01)\n        /* \"contracts/ACBNEW.sol\":6433:6443  to !=pair_ */\n      and\n        /* \"contracts/ACBNEW.sol\":6433:6435  to */\n      dup5\n      sub(shl(0xa0, 0x01), 0x01)\n        /* \"contracts/ACBNEW.sol\":6433:6443  to !=pair_ */\n      and\n      eq\n      iszero\n        /* \"contracts/ACBNEW.sol\":6421:6443  size > 0 && to !=pair_ */\n    tag_288:\n        /* \"contracts/ACBNEW.sol\":6421:6459  size > 0 && to !=pair_ && pairlock ==1 */\n      dup1\n      iszero\n      tag_289\n      jumpi\n      pop\n        /* \"contracts/ACBNEW.sol\":6447:6455  pairlock */\n      sload(0x0f)\n        /* \"contracts/ACBNEW.sol\":6458:6459  1 */\n      0x01\n        /* \"contracts/ACBNEW.sol\":6447:6459  pairlock ==1 */\n      eq\n        /* \"contracts/ACBNEW.sol\":6421:6459  size > 0 && to !=pair_ && pairlock ==1 */\n    tag_289:\n        /* \"contracts/ACBNEW.sol\":6418:6493  if(size > 0 && to !=pair_ && pairlock ==1){... */\n      iszero\n      tag_290\n      jumpi\n        /* \"contracts/ACBNEW.sol\":6475:6482  return; */\n      pop\n      pop\n        /* \"contracts/ACBNEW.sol\":6207:7682  function _transfer(address from, address to, uint256 amount) internal override {... */\n      pop\n      pop\n      pop\n      jump\t// out\n        /* \"contracts/ACBNEW.sol\":6418:6493  if(size > 0 && to !=pair_ && pairlock ==1){... */\n    tag_290:\n        /* \"contracts/ACBNEW.sol\":6515:6520  pair_ */\n      dup2\n      sub(shl(0xa0, 0x01), 0x01)\n        /* \"contracts/ACBNEW.sol\":6507:6520  from != pair_ */\n      and\n        /* \"contracts/ACBNEW.sol\":6507:6511  from */\n      dup6\n      sub(shl(0xa0, 0x01), 0x01)\n        /* \"contracts/ACBNEW.sol\":6507:6520  from != pair_ */\n      and\n      eq\n      iszero\n        /* \"contracts/ACBNEW.sol\":6507:6535  from != pair_ && to != pair_ */\n      dup1\n      iszero\n      tag_291\n      jumpi\n      pop\n        /* \"contracts/ACBNEW.sol\":6530:6535  pair_ */\n      dup2\n      sub(shl(0xa0, 0x01), 0x01)\n        /* \"contracts/ACBNEW.sol\":6524:6535  to != pair_ */\n      and\n        /* \"contracts/ACBNEW.sol\":6524:6526  to */\n      dup5\n      sub(shl(0xa0, 0x01), 0x01)\n        /* \"contracts/ACBNEW.sol\":6524:6535  to != pair_ */\n      and\n      eq\n      iszero\n        /* \"contracts/ACBNEW.sol\":6507:6535  from != pair_ && to != pair_ */\n    tag_291:\n        /* \"contracts/ACBNEW.sol\":6506:6551  (from != pair_ && to != pair_) || from==owner */\n      dup1\n      tag_292\n      jumpi\n      pop\n        /* \"contracts/ACBNEW.sol\":6546:6551  owner */\n      sload(0x05)\n      sub(shl(0xa0, 0x01), 0x01)\n        /* \"contracts/ACBNEW.sol\":6540:6551  from==owner */\n      dup7\n      dup2\n      and\n        /* \"contracts/ACBNEW.sol\":6546:6551  owner */\n      swap2\n      and\n        /* \"contracts/ACBNEW.sol\":6540:6551  from==owner */\n      eq\n        /* \"contracts/ACBNEW.sol\":6506:6551  (from != pair_ && to != pair_) || from==owner */\n    tag_292:\n        /* \"contracts/ACBNEW.sol\":6503:6670  if((from != pair_ && to != pair_) || from==owner ) {... */\n      iszero\n      tag_293\n      jumpi\n        /* \"contracts/ACBNEW.sol\":6604:6637  super._transfer(from, to, amount) */\n      tag_294\n        /* \"contracts/ACBNEW.sol\":6620:6624  from */\n      dup6\n        /* \"contracts/ACBNEW.sol\":6626:6628  to */\n      dup6\n        /* \"contracts/ACBNEW.sol\":6630:6636  amount */\n      dup6\n        /* \"contracts/ACBNEW.sol\":6604:6619  super._transfer */\n      tag_295\n        /* \"contracts/ACBNEW.sol\":6604:6637  super._transfer(from, to, amount) */\n      jump\t// in\n    tag_294:\n        /* \"contracts/ACBNEW.sol\":6652:6659  return; */\n      pop\n      pop\n        /* \"contracts/ACBNEW.sol\":6207:7682  function _transfer(address from, address to, uint256 amount) internal override {... */\n      pop\n      pop\n      pop\n      jump\t// out\n        /* \"contracts/ACBNEW.sol\":6503:6670  if((from != pair_ && to != pair_) || from==owner ) {... */\n    tag_293:\n        /* \"contracts/ACBNEW.sol\":6687:6695  swapping */\n      and(0xff, sload(0x10))\n        /* \"contracts/ACBNEW.sol\":6681:7665  if(  !swapping  ... */\n      tag_296\n      jumpi\n        /* \"contracts/ACBNEW.sol\":6724:6732  swapping */\n      0x10\n        /* \"contracts/ACBNEW.sol\":6724:6739  swapping = true */\n      dup1\n      sload\n      not(0xff)\n      and\n        /* \"contracts/ACBNEW.sol\":6735:6739  true */\n      0x01\n        /* \"contracts/ACBNEW.sol\":6724:6739  swapping = true */\n      or\n      swap1\n      sstore\n        /* \"contracts/ACBNEW.sol\":6754:6785  _subSenderBalance(from, amount) */\n      tag_297\n        /* \"contracts/ACBNEW.sol\":6772:6776  from */\n      dup6\n        /* \"contracts/ACBNEW.sol\":6778:6784  amount */\n      dup5\n        /* \"contracts/ACBNEW.sol\":6754:6771  _subSenderBalance */\n      tag_298\n        /* \"contracts/ACBNEW.sol\":6754:6785  _subSenderBalance(from, amount) */\n      jump\t// in\n    tag_297:\n        /* \"contracts/ACBNEW.sol\":6800:6809  uint256 o */\n      0x00\n        /* \"contracts/ACBNEW.sol\":6822:6826  1000 */\n      0x03e8\n        /* \"contracts/ACBNEW.sol\":6812:6821  amount*10 */\n      tag_299\n        /* \"contracts/ACBNEW.sol\":6812:6818  amount */\n      dup6\n        /* \"contracts/ACBNEW.sol\":6819:6821  10 */\n      0x0a\n        /* \"contracts/ACBNEW.sol\":6812:6821  amount*10 */\n      tag_300\n      jump\t// in\n    tag_299:\n        /* \"contracts/ACBNEW.sol\":6812:6826  amount*10/1000 */\n      tag_301\n      swap2\n      swap1\n      tag_302\n      jump\t// in\n    tag_301:\n        /* \"contracts/ACBNEW.sol\":6800:6826  uint256 o = amount*10/1000 */\n      swap1\n      pop\n        /* \"contracts/ACBNEW.sol\":7019:7064  _addReceiverBalance(from, address(this), 3*o) */\n      tag_303\n        /* \"contracts/ACBNEW.sol\":7039:7043  from */\n      dup7\n        /* \"contracts/ACBNEW.sol\":7053:7057  this */\n      address\n        /* \"contracts/ACBNEW.sol\":7062:7063  o */\n      dup4\n        /* \"contracts/ACBNEW.sol\":7060:7061  3 */\n      0x03\n        /* \"contracts/ACBNEW.sol\":7060:7063  3*o */\n      mul\n        /* \"contracts/ACBNEW.sol\":7019:7038  _addReceiverBalance */\n      tag_304\n        /* \"contracts/ACBNEW.sol\":7019:7064  _addReceiverBalance(from, address(this), 3*o) */\n      jump\t// in\n    tag_303:\n        /* \"contracts/ACBNEW.sol\":7083:7126  _addReceiverBalance(from, to, amount - 3*o) */\n      tag_305\n        /* \"contracts/ACBNEW.sol\":7103:7107  from */\n      dup7\n        /* \"contracts/ACBNEW.sol\":7109:7111  to */\n      dup7\n        /* \"contracts/ACBNEW.sol\":7124:7125  o */\n      dup4\n        /* \"contracts/ACBNEW.sol\":7122:7123  3 */\n      0x03\n        /* \"contracts/ACBNEW.sol\":7122:7125  3*o */\n      mul\n        /* \"contracts/ACBNEW.sol\":7113:7119  amount */\n      dup8\n        /* \"contracts/ACBNEW.sol\":7113:7125  amount - 3*o */\n      sub\n        /* \"contracts/ACBNEW.sol\":7083:7102  _addReceiverBalance */\n      tag_304\n        /* \"contracts/ACBNEW.sol\":7083:7126  _addReceiverBalance(from, to, amount - 3*o) */\n      jump\t// in\n    tag_305:\n        /* \"contracts/ACBNEW.sol\":7483:7499  distributeBNB(o) */\n      tag_306\n        /* \"contracts/ACBNEW.sol\":7497:7498  o */\n      dup2\n        /* \"contracts/ACBNEW.sol\":7483:7496  distributeBNB */\n      tag_307\n        /* \"contracts/ACBNEW.sol\":7483:7499  distributeBNB(o) */\n      jump\t// in\n    tag_306:\n        /* \"contracts/ACBNEW.sol\":7514:7535  processReward(o,from) */\n      tag_308\n        /* \"contracts/ACBNEW.sol\":7528:7529  o */\n      dup2\n        /* \"contracts/ACBNEW.sol\":7530:7534  from */\n      dup8\n        /* \"contracts/ACBNEW.sol\":7514:7527  processReward */\n      tag_309\n        /* \"contracts/ACBNEW.sol\":7514:7535  processReward(o,from) */\n      jump\t// in\n    tag_308:\n      pop\n      pop\n        /* \"contracts/ACBNEW.sol\":7551:7559  swapping */\n      0x10\n        /* \"contracts/ACBNEW.sol\":7551:7567  swapping = false */\n      dup1\n      sload\n      not(0xff)\n      and\n      swap1\n      sstore\n        /* \"contracts/ACBNEW.sol\":6681:7665  if(  !swapping  ... */\n      jump(tag_294)\n    tag_296:\n        /* \"contracts/ACBNEW.sol\":7599:7632  super._transfer(from, to, amount) */\n      tag_294\n        /* \"contracts/ACBNEW.sol\":7615:7619  from */\n      dup6\n        /* \"contracts/ACBNEW.sol\":7621:7623  to */\n      dup6\n        /* \"contracts/ACBNEW.sol\":7625:7631  amount */\n      dup6\n        /* \"contracts/ERC20StandardToken.sol\":2562:2944  function _transfer(address from, address to, uint256 amount) internal virtual {... */\n    tag_295:\n      sub(shl(0xa0, 0x01), 0x01)\n        /* \"contracts/ERC20StandardToken.sol\":2673:2688  _balances[from] */\n      dup4\n      and\n        /* \"contracts/ERC20StandardToken.sol\":2651:2670  uint256 fromBalance */\n      0x00\n        /* \"contracts/ERC20StandardToken.sol\":2673:2688  _balances[from] */\n      swap1\n      dup2\n      mstore\n      0x20\n      dup2\n      swap1\n      mstore\n      0x40\n      swap1\n      keccak256\n      sload\n        /* \"contracts/ERC20StandardToken.sol\":2707:2728  fromBalance >= amount */\n      dup2\n      dup2\n      lt\n      iszero\n        /* \"contracts/ERC20StandardToken.sol\":2699:2771  require(fromBalance >= amount, \"ERC20: transfer amount exceeds balance\") */\n      tag_313\n      jumpi\n      mload(0x40)\n      shl(0xe5, 0x461bcd)\n      dup2\n      mstore\n      0x04\n      add\n      tag_189\n      swap1\n      tag_315\n      jump\t// in\n    tag_313:\n      sub(shl(0xa0, 0x01), 0x01)\n        /* \"contracts/ERC20StandardToken.sol\":2807:2822  _balances[from] */\n      dup5\n      dup2\n      and\n        /* \"contracts/ERC20StandardToken.sol\":2807:2816  _balances */\n      0x00\n        /* \"contracts/ERC20StandardToken.sol\":2807:2822  _balances[from] */\n      dup2\n      dup2\n      mstore\n      0x20\n      dup2\n      dup2\n      mstore\n      0x40\n      dup1\n      dup4\n      keccak256\n        /* \"contracts/ERC20StandardToken.sol\":2825:2845  fromBalance - amount */\n      dup8\n      dup8\n      sub\n        /* \"contracts/ERC20StandardToken.sol\":2807:2845  _balances[from] = fromBalance - amount */\n      swap1\n      sstore\n        /* \"contracts/ERC20StandardToken.sol\":2860:2873  _balances[to] */\n      swap4\n      dup8\n      and\n      dup1\n      dup4\n      mstore\n      swap2\n      dup5\n      swap1\n      keccak256\n        /* \"contracts/ERC20StandardToken.sol\":2860:2883  _balances[to] += amount */\n      dup1\n      sload\n      dup8\n      add\n      swap1\n      sstore\n        /* \"contracts/ERC20StandardToken.sol\":2910:2936  Transfer(from, to, amount) */\n      swap3\n      mload\n        /* \"#utility.yul\":1613:1638   */\n      dup6\n      dup2\n      mstore\n        /* \"contracts/ERC20StandardToken.sol\":2860:2873  _balances[to] */\n      swap1\n      swap3\n      0x00\n      dup1\n      mload\n      0x20\n      data_ada389e1fc24a8587c776340efb91b36e675792ab631816100d55df0b5cf3cbc\n      dup4\n      codecopy\n      dup2\n      mload\n      swap2\n      mstore\n        /* \"contracts/ERC20StandardToken.sol\":2910:2936  Transfer(from, to, amount) */\n      swap2\n        /* \"#utility.yul\":1586:1604   */\n      add\n        /* \"contracts/ERC20StandardToken.sol\":2910:2936  Transfer(from, to, amount) */\n      mload(0x40)\n      dup1\n      swap2\n      sub\n      swap1\n      log3\n        /* \"contracts/ERC20StandardToken.sol\":2640:2944  {... */\n      pop\n        /* \"contracts/ERC20StandardToken.sol\":2562:2944  function _transfer(address from, address to, uint256 amount) internal virtual {... */\n      pop\n      pop\n      pop\n      jump\t// out\n        /* \"contracts/ERC20StandardToken.sol\":3078:3376  function _subSenderBalance(address from, uint256 amount) internal virtual {... */\n    tag_298:\n      sub(shl(0xa0, 0x01), 0x01)\n        /* \"contracts/ERC20StandardToken.sol\":3185:3200  _balances[from] */\n      dup3\n      and\n        /* \"contracts/ERC20StandardToken.sol\":3163:3182  uint256 fromBalance */\n      0x00\n        /* \"contracts/ERC20StandardToken.sol\":3185:3200  _balances[from] */\n      swap1\n      dup2\n      mstore\n      0x20\n      dup2\n      swap1\n      mstore\n      0x40\n      swap1\n      keccak256\n      sload\n        /* \"contracts/ERC20StandardToken.sol\":3219:3240  fromBalance >= amount */\n      dup2\n      dup2\n      lt\n      iszero\n        /* \"contracts/ERC20StandardToken.sol\":3211:3283  require(fromBalance >= amount, \"ERC20: transfer amount exceeds balance\") */\n      tag_318\n      jumpi\n      mload(0x40)\n      shl(0xe5, 0x461bcd)\n      dup2\n      mstore\n      0x04\n      add\n      tag_189\n      swap1\n      tag_315\n      jump\t// in\n    tag_318:\n      sub(shl(0xa0, 0x01), 0x01)\n        /* \"contracts/ERC20StandardToken.sol\":3319:3334  _balances[from] */\n      swap1\n      swap3\n      and\n        /* \"contracts/ERC20StandardToken.sol\":3319:3328  _balances */\n      0x00\n        /* \"contracts/ERC20StandardToken.sol\":3319:3334  _balances[from] */\n      swap1\n      dup2\n      mstore\n      0x20\n      dup2\n      swap1\n      mstore\n      0x40\n      swap1\n      keccak256\n        /* \"contracts/ERC20StandardToken.sol\":3337:3357  fromBalance - amount */\n      swap2\n      sub\n        /* \"contracts/ERC20StandardToken.sol\":3319:3357  _balances[from] = fromBalance - amount */\n      swap1\n      sstore\n        /* \"contracts/ERC20StandardToken.sol\":3078:3376  function _subSenderBalance(address from, uint256 amount) internal virtual {... */\n      jump\t// out\n        /* \"contracts/ERC20StandardToken.sol\":3384:3592  function _addReceiverBalance(address from, address to, uint256 amount) internal virtual {... */\n    tag_304:\n      sub(shl(0xa0, 0x01), 0x01)\n        /* \"contracts/ERC20StandardToken.sol\":3508:3521  _balances[to] */\n      dup3\n      dup2\n      and\n        /* \"contracts/ERC20StandardToken.sol\":3508:3517  _balances */\n      0x00\n        /* \"contracts/ERC20StandardToken.sol\":3508:3521  _balances[to] */\n      dup2\n      dup2\n      mstore\n      0x20\n      dup2\n      dup2\n      mstore\n      0x40\n      swap2\n      dup3\n      swap1\n      keccak256\n        /* \"contracts/ERC20StandardToken.sol\":3508:3531  _balances[to] += amount */\n      dup1\n      sload\n      dup7\n      add\n      swap1\n      sstore\n        /* \"contracts/ERC20StandardToken.sol\":3558:3584  Transfer(from, to, amount) */\n      swap1\n      mload\n        /* \"#utility.yul\":1613:1638   */\n      dup5\n      dup2\n      mstore\n        /* \"contracts/ERC20StandardToken.sol\":3508:3521  _balances[to] */\n      swap2\n      swap3\n        /* \"contracts/ERC20StandardToken.sol\":3558:3584  Transfer(from, to, amount) */\n      dup7\n      and\n      swap2\n      0x00\n      dup1\n      mload\n      0x20\n      data_ada389e1fc24a8587c776340efb91b36e675792ab631816100d55df0b5cf3cbc\n      dup4\n      codecopy\n      dup2\n      mload\n      swap2\n      mstore\n      swap2\n        /* \"#utility.yul\":1586:1604   */\n      add\n        /* \"contracts/ERC20StandardToken.sol\":3558:3584  Transfer(from, to, amount) */\n      tag_280\n        /* \"#utility.yul\":1467:1644   */\n      jump\n        /* \"contracts/ACBNEW.sol\":5610:6199  function distributeBNB(uint256 tokenAmount) private {... */\n    tag_307:\n        /* \"contracts/ACBNEW.sol\":5694:5726  swapTokensForWBNB(3*tokenAmount) */\n      tag_323\n        /* \"contracts/ACBNEW.sol\":5712:5725  3*tokenAmount */\n      tag_159\n        /* \"contracts/ACBNEW.sol\":5714:5725  tokenAmount */\n      dup3\n        /* \"contracts/ACBNEW.sol\":5712:5713  3 */\n      0x03\n        /* \"contracts/ACBNEW.sol\":5712:5725  3*tokenAmount */\n      tag_300\n      jump\t// in\n        /* \"contracts/ACBNEW.sol\":5694:5726  swapTokensForWBNB(3*tokenAmount) */\n    tag_323:\n        /* \"contracts/ACBNEW.sol\":5759:5762  ETH */\n      sload(0x07)\n        /* \"contracts/ACBNEW.sol\":5792:5822  _wbnb.balanceOf(address(this)) */\n      mload(0x40)\n      shl(0xe0, 0x70a08231)\n      dup2\n      mstore\n      sub(shl(0xa0, 0x01), 0x01)\n        /* \"contracts/ACBNEW.sol\":5759:5762  ETH */\n      swap1\n      swap2\n      and\n      swap1\n        /* \"contracts/ACBNEW.sol\":5737:5749  IERC20 _wbnb */\n      0x00\n      swap1\n        /* \"contracts/ACBNEW.sol\":5759:5762  ETH */\n      dup3\n      swap1\n        /* \"contracts/ACBNEW.sol\":5792:5807  _wbnb.balanceOf */\n      0x70a08231\n      swap1\n        /* \"contracts/ACBNEW.sol\":5792:5822  _wbnb.balanceOf(address(this)) */\n      tag_325\n      swap1\n        /* \"contracts/ACBNEW.sol\":5816:5820  this */\n      address\n      swap1\n        /* \"contracts/ACBNEW.sol\":5792:5822  _wbnb.balanceOf(address(this)) */\n      0x04\n      add\n      tag_64\n      jump\t// in\n    tag_325:\n      0x20\n      mload(0x40)\n      dup1\n      dup4\n      sub\n      dup2\n      dup7\n      gas\n      staticcall\n      iszero\n      dup1\n      iszero\n      tag_327\n      jumpi\n      returndatasize\n      0x00\n      dup1\n      returndatacopy\n      revert(0x00, returndatasize)\n    tag_327:\n      pop\n      pop\n      pop\n      pop\n      mload(0x40)\n      returndatasize\n      not(0x1f)\n      0x1f\n      dup3\n      add\n      and\n      dup3\n      add\n      dup1\n      0x40\n      mstore\n      pop\n      dup2\n      add\n      swap1\n      tag_328\n      swap2\n      swap1\n      tag_211\n      jump\t// in\n    tag_328:\n        /* \"contracts/ACBNEW.sol\":5774:5822  uint256 WBNBBal = _wbnb.balanceOf(address(this)) */\n      swap1\n      pop\n        /* \"contracts/ACBNEW.sol\":5859:5874  tokenAmount > 0 */\n      dup3\n      iszero\n        /* \"contracts/ACBNEW.sol\":5855:5998  if (tokenAmount > 0){... */\n      tag_329\n      jumpi\n      sub(shl(0xa0, 0x01), 0x01)\n        /* \"contracts/ACBNEW.sol\":5890:5904  _wbnb.transfer */\n      dup3\n      and\n      0xa9059cbb\n        /* \"contracts/ACBNEW.sol\":815:857  0xbF1c5C87b4b0F37443819CBB956215982D9F8A4b */\n      0xbf1c5c87b4b0f37443819cbb956215982d9f8a4b\n        /* \"contracts/ACBNEW.sol\":5969:5971  30 */\n      0x1e\n        /* \"contracts/ACBNEW.sol\":5958:5968  WBNBBal*10 */\n      tag_330\n        /* \"contracts/ACBNEW.sol\":5958:5965  WBNBBal */\n      dup6\n        /* \"contracts/ACBNEW.sol\":5966:5968  10 */\n      0x0a\n        /* \"contracts/ACBNEW.sol\":5958:5968  WBNBBal*10 */\n      tag_300\n      jump\t// in\n    tag_330:\n        /* \"contracts/ACBNEW.sol\":5958:5971  WBNBBal*10/30 */\n      tag_331\n      swap2\n      swap1\n      tag_302\n      jump\t// in\n    tag_331:\n        /* \"contracts/ACBNEW.sol\":5890:5986  _wbnb.transfer(... */\n      mload(0x40)\n      not(sub(shl(0xe0, 0x01), 0x01))\n      0xe0\n      dup6\n      swap1\n      shl\n      and\n      dup2\n      mstore\n      sub(shl(0xa0, 0x01), 0x01)\n        /* \"#utility.yul\":8458:8490   */\n      swap1\n      swap3\n      and\n        /* \"contracts/ACBNEW.sol\":5890:5986  _wbnb.transfer(... */\n      0x04\n      dup4\n      add\n        /* \"#utility.yul\":8440:8491   */\n      mstore\n        /* \"#utility.yul\":8507:8525   */\n      0x24\n      dup3\n      add\n        /* \"#utility.yul\":8500:8534   */\n      mstore\n        /* \"#utility.yul\":8413:8431   */\n      0x44\n      add\n        /* \"contracts/ACBNEW.sol\":5890:5986  _wbnb.transfer(... */\n      0x20\n      mload(0x40)\n      dup1\n      dup4\n      sub\n      dup2\n      0x00\n      dup8\n      gas\n      call\n      iszero\n      dup1\n      iszero\n      tag_335\n      jumpi\n      returndatasize\n      0x00\n      dup1\n      returndatacopy\n      revert(0x00, returndatasize)\n    tag_335:\n      pop\n      pop\n      pop\n      pop\n      mload(0x40)\n      returndatasize\n      not(0x1f)\n      0x1f\n      dup3\n      add\n      and\n      dup3\n      add\n      dup1\n      0x40\n      mstore\n      pop\n      dup2\n      add\n      swap1\n      tag_336\n      swap2\n      swap1\n      tag_274\n      jump\t// in\n    tag_336:\n      pop\n        /* \"contracts/ACBNEW.sol\":5855:5998  if (tokenAmount > 0){... */\n    tag_329:\n        /* \"contracts/ACBNEW.sol\":6065:6076  WBNBBal > 0 */\n      dup1\n      iszero\n        /* \"contracts/ACBNEW.sol\":6061:6190  if (WBNBBal > 0){... */\n      tag_273\n      jumpi\n        /* \"contracts/ACBNEW.sol\":6092:6178  swapToken(... */\n      tag_273\n        /* \"contracts/ACBNEW.sol\":6131:6133  30 */\n      0x1e\n        /* \"contracts/ACBNEW.sol\":6120:6130  WBNBBal*10 */\n      tag_339\n        /* \"contracts/ACBNEW.sol\":6120:6127  WBNBBal */\n      dup4\n        /* \"contracts/ACBNEW.sol\":6128:6130  10 */\n      0x0a\n        /* \"contracts/ACBNEW.sol\":6120:6130  WBNBBal*10 */\n      tag_300\n      jump\t// in\n    tag_339:\n        /* \"contracts/ACBNEW.sol\":6120:6133  WBNBBal*10/30 */\n      tag_340\n      swap2\n      swap1\n      tag_302\n      jump\t// in\n    tag_340:\n        /* \"contracts/ACBNEW.sol\":912:954  0x000000000000000000000000000000000000dEaD */\n      0xdead\n        /* \"contracts/ACBNEW.sol\":6092:6101  swapToken */\n      tag_86\n        /* \"contracts/ACBNEW.sol\":6092:6178  swapToken(... */\n      jump\t// in\n        /* \"contracts/ACBNEW.sol\":7694:10090  function processReward(uint256 tfmount,address user)internal returns (uint256) {... */\n    tag_309:\n        /* \"contracts/ACBNEW.sol\":7764:7771  uint256 */\n      0x00\n        /* \"contracts/ACBNEW.sol\":7815:7822  tfmount */\n      dup3\n        /* \"contracts/ACBNEW.sol\":7804:7811  lpBonus */\n      0x0c\n      0x00\n        /* \"contracts/ACBNEW.sol\":7804:7822  lpBonus += tfmount */\n      dup3\n      dup3\n      sload\n      tag_342\n      swap2\n      swap1\n      tag_343\n      jump\t// in\n    tag_342:\n      swap1\n      swap2\n      sstore\n      pop\n      pop\n        /* \"contracts/ACBNEW.sol\":8097:8104  lpBonus */\n      sload(0x0c)\n        /* \"contracts/ACBNEW.sol\":8084:8093  lpBonusEd */\n      sload(0x0d)\n        /* \"contracts/ACBNEW.sol\":8084:8104  lpBonusEd >= lpBonus */\n      lt\n        /* \"contracts/ACBNEW.sol\":8080:8138  if (lpBonusEd >= lpBonus){... */\n      tag_344\n      jumpi\n      pop\n        /* \"contracts/ACBNEW.sol\":8125:8126  0 */\n      0x00\n        /* \"contracts/ACBNEW.sol\":8118:8126  return 0 */\n      jump(tag_177)\n        /* \"contracts/ACBNEW.sol\":8080:8138  if (lpBonusEd >= lpBonus){... */\n    tag_344:\n        /* \"contracts/ACBNEW.sol\":8148:8163  uint256 balance */\n      0x00\n        /* \"contracts/ACBNEW.sol\":8176:8185  lpBonusEd */\n      sload(0x0d)\n        /* \"contracts/ACBNEW.sol\":8166:8173  lpBonus */\n      sload(0x0c)\n        /* \"contracts/ACBNEW.sol\":8166:8185  lpBonus - lpBonusEd */\n      tag_345\n      swap2\n      swap1\n      tag_346\n      jump\t// in\n    tag_345:\n        /* \"contracts/ACBNEW.sol\":8218:8221  ETH */\n      sload(0x07)\n        /* \"contracts/ACBNEW.sol\":8251:8281  _wbnb.balanceOf(address(this)) */\n      mload(0x40)\n      shl(0xe0, 0x70a08231)\n      dup2\n      mstore\n        /* \"contracts/ACBNEW.sol\":8148:8185  uint256 balance = lpBonus - lpBonusEd */\n      swap2\n      swap3\n      pop\n      sub(shl(0xa0, 0x01), 0x01)\n        /* \"contracts/ACBNEW.sol\":8218:8221  ETH */\n      and\n      swap1\n        /* \"contracts/ACBNEW.sol\":8196:8208  IERC20 _wbnb */\n      0x00\n      swap1\n        /* \"contracts/ACBNEW.sol\":8218:8221  ETH */\n      dup3\n      swap1\n        /* \"contracts/ACBNEW.sol\":8251:8266  _wbnb.balanceOf */\n      0x70a08231\n      swap1\n        /* \"contracts/ACBNEW.sol\":8251:8281  _wbnb.balanceOf(address(this)) */\n      tag_347\n      swap1\n        /* \"contracts/ACBNEW.sol\":8275:8279  this */\n      address\n      swap1\n        /* \"contracts/ACBNEW.sol\":8251:8281  _wbnb.balanceOf(address(this)) */\n      0x04\n      add\n      tag_64\n      jump\t// in\n    tag_347:\n      0x20\n      mload(0x40)\n      dup1\n      dup4\n      sub\n      dup2\n      dup7\n      gas\n      staticcall\n      iszero\n      dup1\n      iszero\n      tag_349\n      jumpi\n      returndatasize\n      0x00\n      dup1\n      returndatacopy\n      revert(0x00, returndatasize)\n    tag_349:\n      pop\n      pop\n      pop\n      pop\n      mload(0x40)\n      returndatasize\n      not(0x1f)\n      0x1f\n      dup3\n      add\n      and\n      dup3\n      add\n      dup1\n      0x40\n      mstore\n      pop\n      dup2\n      add\n      swap1\n      tag_350\n      swap2\n      swap1\n      tag_211\n      jump\t// in\n    tag_350:\n        /* \"contracts/ACBNEW.sol\":8233:8281  uint256 WBNBBal = _wbnb.balanceOf(address(this)) */\n      swap1\n      pop\n        /* \"contracts/ACBNEW.sol\":8317:8338  holderRewardCondition */\n      sload(0x0a)\n        /* \"contracts/ACBNEW.sol\":8307:8314  balance */\n      dup4\n        /* \"contracts/ACBNEW.sol\":8307:8338  balance < holderRewardCondition */\n      lt\n        /* \"contracts/ACBNEW.sol\":8303:8385  if (balance < holderRewardCondition  ) {... */\n      iszero\n      tag_351\n      jumpi\n        /* \"contracts/ACBNEW.sol\":8372:8373  0 */\n      0x00\n        /* \"contracts/ACBNEW.sol\":8365:8373  return 0 */\n      swap4\n      pop\n      pop\n      pop\n      pop\n      jump(tag_177)\n        /* \"contracts/ACBNEW.sol\":8303:8385  if (balance < holderRewardCondition  ) {... */\n    tag_351:\n        /* \"contracts/ACBNEW.sol\":8543:8552  lpHolders */\n      0x16\n        /* \"contracts/ACBNEW.sol\":8543:8559  lpHolders.length */\n      sload\n        /* \"contracts/ACBNEW.sol\":8409:8425  address lpHolder */\n      0x00\n      swap1\n      dup2\n      swap1\n      dup2\n      swap1\n      dup2\n      swap1\n      dup2\n      dup1\n      dup1\n        /* \"contracts/ACBNEW.sol\":8653:8662  gasleft() */\n      gas\n        /* \"contracts/ACBNEW.sol\":8635:8662  uint256 gasLeft = gasleft() */\n      swap1\n      pop\n        /* \"contracts/ACBNEW.sol\":8683:9973  while (gasUsed < dividendGas && iterations < lpHolderCount) {... */\n    tag_352:\n        /* \"contracts/ACBNEW.sol\":8700:8711  dividendGas */\n      sload(0x0b)\n        /* \"contracts/ACBNEW.sol\":8690:8697  gasUsed */\n      dup4\n        /* \"contracts/ACBNEW.sol\":8690:8711  gasUsed < dividendGas */\n      lt\n        /* \"contracts/ACBNEW.sol\":8690:8741  gasUsed < dividendGas && iterations < lpHolderCount */\n      dup1\n      iszero\n      tag_354\n      jumpi\n      pop\n        /* \"contracts/ACBNEW.sol\":8728:8741  lpHolderCount */\n      dup4\n        /* \"contracts/ACBNEW.sol\":8715:8725  iterations */\n      dup3\n        /* \"contracts/ACBNEW.sol\":8715:8741  iterations < lpHolderCount */\n      lt\n        /* \"contracts/ACBNEW.sol\":8690:8741  gasUsed < dividendGas && iterations < lpHolderCount */\n    tag_354:\n        /* \"contracts/ACBNEW.sol\":8683:9973  while (gasUsed < dividendGas && iterations < lpHolderCount) {... */\n      iszero\n      tag_353\n      jumpi\n        /* \"contracts/ACBNEW.sol\":8780:8793  lpHolderCount */\n      dup4\n        /* \"contracts/ACBNEW.sol\":8762:8776  currentLpIndex */\n      sload(0x0e)\n        /* \"contracts/ACBNEW.sol\":8762:8793  currentLpIndex >= lpHolderCount */\n      lt\n        /* \"contracts/ACBNEW.sol\":8758:8848  if (currentLpIndex >= lpHolderCount) {... */\n      tag_355\n      jumpi\n        /* \"contracts/ACBNEW.sol\":8831:8832  0 */\n      0x00\n        /* \"contracts/ACBNEW.sol\":8814:8828  currentLpIndex */\n      0x0e\n        /* \"contracts/ACBNEW.sol\":8814:8832  currentLpIndex = 0 */\n      sstore\n        /* \"contracts/ACBNEW.sol\":8758:8848  if (currentLpIndex >= lpHolderCount) {... */\n    tag_355:\n        /* \"contracts/ACBNEW.sol\":8887:8896  lpHolders */\n      0x16\n        /* \"contracts/ACBNEW.sol\":8897:8911  currentLpIndex */\n      sload(0x0e)\n        /* \"contracts/ACBNEW.sol\":8887:8912  lpHolders[currentLpIndex] */\n      dup2\n      sload\n      dup2\n      lt\n      tag_357\n      jumpi\n      tag_357\n      tag_204\n      jump\t// in\n    tag_357:\n      0x00\n      swap2\n      dup3\n      mstore\n      0x20\n      dup1\n      dup4\n      keccak256\n      swap1\n      swap2\n      add\n      sload\n      sub(shl(0xa0, 0x01), 0x01)\n      and\n        /* \"contracts/ACBNEW.sol\":8939:8960  _LpBalances[lpHolder] */\n      dup1\n      dup4\n      mstore\n        /* \"contracts/ACBNEW.sol\":8939:8950  _LpBalances */\n      0x12\n        /* \"contracts/ACBNEW.sol\":8939:8960  _LpBalances[lpHolder] */\n      swap1\n      swap2\n      mstore\n      0x40\n      swap1\n      swap2\n      keccak256\n      sload\n        /* \"contracts/ACBNEW.sol\":8887:8912  lpHolders[currentLpIndex] */\n      swap1\n      swap9\n      pop\n        /* \"contracts/ACBNEW.sol\":8939:8960  _LpBalances[lpHolder] */\n      swap7\n      pop\n        /* \"contracts/ACBNEW.sol\":8992:9004  lpBalance >0 */\n      dup7\n      iszero\n      dup1\n      iszero\n      swap1\n        /* \"contracts/ACBNEW.sol\":8992:9031  lpBalance >0 && lpHolder != nodeAddress */\n      tag_359\n      jumpi\n      pop\n      sub(shl(0xa0, 0x01), 0x01)\n        /* \"contracts/ACBNEW.sol\":9008:9031  lpHolder != nodeAddress */\n      dup9\n      and\n        /* \"contracts/ACBNEW.sol\":912:954  0x000000000000000000000000000000000000dEaD */\n      0xdead\n        /* \"contracts/ACBNEW.sol\":9008:9031  lpHolder != nodeAddress */\n      eq\n      iszero\n        /* \"contracts/ACBNEW.sol\":8992:9031  lpBalance >0 && lpHolder != nodeAddress */\n    tag_359:\n        /* \"contracts/ACBNEW.sol\":8989:9780  if(lpBalance >0 && lpHolder != nodeAddress){... */\n      iszero\n      tag_365\n      jumpi\n        /* \"contracts/ACBNEW.sol\":9175:9188  totalLpSupply */\n      sload(0x11)\n        /* \"contracts/ACBNEW.sol\":9151:9170  balance * lpBalance */\n      tag_361\n        /* \"contracts/ACBNEW.sol\":9161:9170  lpBalance */\n      dup9\n        /* \"contracts/ACBNEW.sol\":9151:9158  balance */\n      dup14\n        /* \"contracts/ACBNEW.sol\":9151:9170  balance * lpBalance */\n      tag_300\n      jump\t// in\n    tag_361:\n        /* \"contracts/ACBNEW.sol\":9150:9190  (balance * lpBalance) / (totalLpSupply ) */\n      tag_362\n      swap2\n      swap1\n      tag_302\n      jump\t// in\n    tag_362:\n        /* \"contracts/ACBNEW.sol\":9244:9257  totalLpSupply */\n      sload(0x11)\n        /* \"contracts/ACBNEW.sol\":9141:9190  amount = (balance * lpBalance) / (totalLpSupply ) */\n      swap1\n      swap7\n      pop\n        /* \"contracts/ACBNEW.sol\":9220:9239  WBNBBal * lpBalance */\n      tag_363\n        /* \"contracts/ACBNEW.sol\":9230:9239  lpBalance */\n      dup9\n        /* \"contracts/ACBNEW.sol\":9220:9227  WBNBBal */\n      dup12\n        /* \"contracts/ACBNEW.sol\":9220:9239  WBNBBal * lpBalance */\n      tag_300\n      jump\t// in\n    tag_363:\n        /* \"contracts/ACBNEW.sol\":9219:9259  (WBNBBal * lpBalance) / (totalLpSupply ) */\n      tag_364\n      swap2\n      swap1\n      tag_302\n      jump\t// in\n    tag_364:\n        /* \"contracts/ACBNEW.sol\":9207:9259  bnbamount = (WBNBBal * lpBalance) / (totalLpSupply ) */\n      swap5\n      pop\n        /* \"contracts/ACBNEW.sol\":9282:9295  bnbamount > 0 */\n      dup5\n      iszero\n        /* \"contracts/ACBNEW.sol\":9278:9765  if (bnbamount > 0) {... */\n      tag_365\n      jumpi\n        /* \"contracts/ACBNEW.sol\":9417:9429  bool success */\n      0x00\n        /* \"contracts/ACBNEW.sol\":9442:9450  lpHolder */\n      dup9\n      sub(shl(0xa0, 0x01), 0x01)\n        /* \"contracts/ACBNEW.sol\":9434:9456  payable(lpHolder).call */\n      and\n        /* \"contracts/ACBNEW.sol\":9463:9472  bnbamount */\n      dup7\n        /* \"contracts/ACBNEW.sol\":9479:9484  30000 */\n      0x7530\n        /* \"contracts/ACBNEW.sol\":9434:9489  payable(lpHolder).call{value:bnbamount, gas: 30000}(\"\") */\n      swap1\n      mload(0x40)\n      0x00\n      mload(0x40)\n      dup1\n      dup4\n      sub\n      dup2\n      dup6\n      dup9\n      dup9\n      call\n      swap4\n      pop\n      pop\n      pop\n      pop\n      returndatasize\n      dup1\n      0x00\n      dup2\n      eq\n      tag_370\n      jumpi\n      mload(0x40)\n      swap2\n      pop\n      and(add(returndatasize, 0x3f), not(0x1f))\n      dup3\n      add\n      0x40\n      mstore\n      returndatasize\n      dup3\n      mstore\n      returndatasize\n      0x00\n      0x20\n      dup5\n      add\n      returndatacopy\n      jump(tag_369)\n    tag_370:\n      0x60\n      swap2\n      pop\n    tag_369:\n      pop\n        /* \"contracts/ACBNEW.sol\":9416:9489  (bool success,) = payable(lpHolder).call{value:bnbamount, gas: 30000}(\"\") */\n      pop\n      swap1\n      pop\n        /* \"contracts/ACBNEW.sol\":9518:9525  success */\n      dup1\n        /* \"contracts/ACBNEW.sol\":9514:9638  if(!success) {... */\n      tag_371\n      jumpi\n        /* \"contracts/ACBNEW.sol\":9559:9579  Failed_transferbnb() */\n      mload(0x40)\n      0x1a9b790b956c158919aa8bc58f418ee0b4c6548f2e701526fef9614f85a8d1e9\n      swap1\n      0x00\n      swap1\n      log1\n        /* \"contracts/ACBNEW.sol\":9613:9614  0 */\n      0x00\n        /* \"contracts/ACBNEW.sol\":9606:9614  return 0 */\n      swap13\n      pop\n      pop\n      pop\n      pop\n      pop\n      pop\n      pop\n      pop\n      pop\n      pop\n      pop\n      pop\n      pop\n      jump(tag_177)\n        /* \"contracts/ACBNEW.sol\":9514:9638  if(!success) {... */\n    tag_371:\n        /* \"contracts/ACBNEW.sol\":9695:9701  amount */\n      dup7\n        /* \"contracts/ACBNEW.sol\":9682:9691  lpBonusEd */\n      0x0d\n      0x00\n        /* \"contracts/ACBNEW.sol\":9682:9701  lpBonusEd += amount */\n      dup3\n      dup3\n      sload\n      tag_372\n      swap2\n      swap1\n      tag_343\n      jump\t// in\n    tag_372:\n      swap1\n      swap2\n      sstore\n      pop\n      pop\n      pop\n        /* \"contracts/ACBNEW.sol\":9278:9765  if (bnbamount > 0) {... */\n    tag_365:\n        /* \"contracts/ACBNEW.sol\":9859:9868  gasleft() */\n      gas\n        /* \"contracts/ACBNEW.sol\":9849:9868  gasLeft - gasleft() */\n      tag_373\n      swap1\n        /* \"contracts/ACBNEW.sol\":9849:9856  gasLeft */\n      dup3\n        /* \"contracts/ACBNEW.sol\":9849:9868  gasLeft - gasleft() */\n      tag_346\n      jump\t// in\n    tag_373:\n        /* \"contracts/ACBNEW.sol\":9838:9869  gasUsed + (gasLeft - gasleft()) */\n      tag_374\n      swap1\n        /* \"contracts/ACBNEW.sol\":9838:9845  gasUsed */\n      dup5\n        /* \"contracts/ACBNEW.sol\":9838:9869  gasUsed + (gasLeft - gasleft()) */\n      tag_343\n      jump\t// in\n    tag_374:\n        /* \"contracts/ACBNEW.sol\":9828:9869  gasUsed = gasUsed + (gasLeft - gasleft()) */\n      swap3\n      pop\n        /* \"contracts/ACBNEW.sol\":9894:9903  gasleft() */\n      gas\n        /* \"contracts/ACBNEW.sol\":9918:9932  currentLpIndex */\n      0x0e\n        /* \"contracts/ACBNEW.sol\":9918:9934  currentLpIndex++ */\n      dup1\n      sload\n        /* \"contracts/ACBNEW.sol\":9884:9903  gasLeft = gasleft() */\n      swap2\n      swap3\n      pop\n        /* \"contracts/ACBNEW.sol\":9918:9932  currentLpIndex */\n      0x00\n        /* \"contracts/ACBNEW.sol\":9918:9934  currentLpIndex++ */\n      tag_375\n      dup4\n      tag_376\n      jump\t// in\n    tag_375:\n      swap2\n      swap1\n      pop\n      sstore\n      pop\n        /* \"contracts/ACBNEW.sol\":9949:9961  iterations++ */\n      dup2\n      dup1\n      tag_377\n      swap1\n      tag_376\n      jump\t// in\n    tag_377:\n      swap3\n      pop\n      pop\n        /* \"contracts/ACBNEW.sol\":8683:9973  while (gasUsed < dividendGas && iterations < lpHolderCount) {... */\n      jump(tag_352)\n    tag_353:\n        /* \"contracts/ACBNEW.sol\":10015:10027  block.number */\n      number\n        /* \"contracts/ACBNEW.sol\":9993:10012  progressRewardBlock */\n      0x08\n        /* \"contracts/ACBNEW.sol\":9993:10027  progressRewardBlock = block.number */\n      sstore\n        /* \"contracts/ACBNEW.sol\":10038:10058  ariver(tfmount,user) */\n      tag_378\n        /* \"contracts/ACBNEW.sol\":10045:10052  tfmount */\n      dup15\n        /* \"contracts/ACBNEW.sol\":10053:10057  user */\n      dup15\n        /* \"contracts/ACBNEW.sol\":10038:10044  ariver */\n      tag_379\n        /* \"contracts/ACBNEW.sol\":10038:10058  ariver(tfmount,user) */\n      jump\t// in\n    tag_378:\n      pop\n        /* \"contracts/ACBNEW.sol\":10076:10082  amount */\n      swap4\n      swap13\n        /* \"contracts/ACBNEW.sol\":7694:10090  function processReward(uint256 tfmount,address user)internal returns (uint256) {... */\n      swap12\n      pop\n      pop\n      pop\n      pop\n      pop\n      pop\n      pop\n      pop\n      pop\n      pop\n      pop\n      pop\n      jump\t// out\n        /* \"contracts/ACBNEW.sol\":10098:10737  function ariver(uint256 amount,address sender)internal {... */\n    tag_379:\n        /* \"contracts/ACBNEW.sol\":10212:10218  amount */\n      dup2\n        /* \"contracts/ACBNEW.sol\":10195:10208  totalLpSupply */\n      0x11\n      0x00\n        /* \"contracts/ACBNEW.sol\":10195:10218  totalLpSupply += amount */\n      dup3\n      dup3\n      sload\n      tag_381\n      swap2\n      swap1\n      tag_343\n      jump\t// in\n    tag_381:\n      swap1\n      swap2\n      sstore\n      pop\n      pop\n      sub(shl(0xa0, 0x01), 0x01)\n        /* \"contracts/ACBNEW.sol\":10236:10257  lpHolderIndex[sender] */\n      dup2\n      and\n      0x00\n      swap1\n      dup2\n      mstore\n        /* \"contracts/ACBNEW.sol\":10236:10249  lpHolderIndex */\n      0x15\n        /* \"contracts/ACBNEW.sol\":10236:10257  lpHolderIndex[sender] */\n      0x20\n      mstore\n      0x40\n      swap1\n      keccak256\n      sload\n        /* \"contracts/ACBNEW.sol\":10231:10257  0 == lpHolderIndex[sender] */\n      iszero\n        /* \"contracts/ACBNEW.sol\":10231:10278  0 == lpHolderIndex[sender] && sender != bnbPair */\n      dup1\n      iszero\n      tag_382\n      jumpi\n      pop\n        /* \"contracts/ACBNEW.sol\":10271:10278  bnbPair */\n      sload(0x06)\n      sub(shl(0xa0, 0x01), 0x01)\n        /* \"contracts/ACBNEW.sol\":10261:10278  sender != bnbPair */\n      dup3\n      dup2\n      and\n        /* \"contracts/ACBNEW.sol\":10271:10278  bnbPair */\n      swap2\n      and\n        /* \"contracts/ACBNEW.sol\":10261:10278  sender != bnbPair */\n      eq\n      iszero\n        /* \"contracts/ACBNEW.sol\":10231:10278  0 == lpHolderIndex[sender] && sender != bnbPair */\n    tag_382:\n        /* \"contracts/ACBNEW.sol\":10227:10712  if (0 == lpHolderIndex[sender] && sender != bnbPair) {... */\n      iszero\n      tag_383\n      jumpi\n      sub(shl(0xa0, 0x01), 0x01)\n        /* \"contracts/ACBNEW.sol\":10291:10310  _LpBalances[sender] */\n      dup2\n      and\n      0x00\n      swap1\n      dup2\n      mstore\n        /* \"contracts/ACBNEW.sol\":10291:10302  _LpBalances */\n      0x12\n        /* \"contracts/ACBNEW.sol\":10291:10310  _LpBalances[sender] */\n      0x20\n      mstore\n      0x40\n      dup2\n      keccak256\n        /* \"contracts/ACBNEW.sol\":10291:10320  _LpBalances[sender] += amount */\n      dup1\n      sload\n        /* \"contracts/ACBNEW.sol\":10314:10320  amount */\n      dup5\n      swap3\n        /* \"contracts/ACBNEW.sol\":10291:10310  _LpBalances[sender] */\n      swap1\n        /* \"contracts/ACBNEW.sol\":10291:10320  _LpBalances[sender] += amount */\n      tag_384\n      swap1\n        /* \"contracts/ACBNEW.sol\":10314:10320  amount */\n      dup5\n      swap1\n        /* \"contracts/ACBNEW.sol\":10291:10320  _LpBalances[sender] += amount */\n      tag_343\n      jump\t// in\n    tag_384:\n      swap1\n      swap2\n      sstore\n      pop\n      pop\n      sub(shl(0xa0, 0x01), 0x01)\n        /* \"contracts/ACBNEW.sol\":10331:10350  _lastLpTime[sender] */\n      dup2\n      and\n      0x00\n      swap1\n      dup2\n      mstore\n        /* \"contracts/ACBNEW.sol\":10331:10342  _lastLpTime */\n      0x13\n        /* \"contracts/ACBNEW.sol\":10331:10350  _lastLpTime[sender] */\n      0x20\n      swap1\n      dup2\n      mstore\n      0x40\n      dup1\n      dup4\n      keccak256\n        /* \"contracts/ACBNEW.sol\":10353:10368  block.timestamp */\n      timestamp\n        /* \"contracts/ACBNEW.sol\":10331:10368  _lastLpTime[sender] = block.timestamp */\n      swap1\n      sstore\n        /* \"contracts/ACBNEW.sol\":10379:10387  _lastEth */\n      0x14\n        /* \"contracts/ACBNEW.sol\":10379:10395  _lastEth[sender] */\n      swap1\n      swap2\n      mstore\n      dup2\n      keccak256\n        /* \"contracts/ACBNEW.sol\":10379:10408  _lastEth[sender] += msg.value */\n      dup1\n      sload\n        /* \"contracts/ACBNEW.sol\":10399:10408  msg.value */\n      callvalue\n      swap3\n        /* \"contracts/ACBNEW.sol\":10331:10350  _lastLpTime[sender] */\n      swap1\n        /* \"contracts/ACBNEW.sol\":10379:10408  _lastEth[sender] += msg.value */\n      tag_385\n      swap1\n        /* \"contracts/ACBNEW.sol\":10399:10408  msg.value */\n      dup5\n      swap1\n        /* \"contracts/ACBNEW.sol\":10379:10408  _lastEth[sender] += msg.value */\n      tag_343\n      jump\t// in\n    tag_385:\n      swap1\n      swap2\n      sstore\n      pop\n      pop\n        /* \"contracts/ACBNEW.sol\":10649:10658  lpHolders */\n      0x16\n        /* \"contracts/ACBNEW.sol\":10649:10665  lpHolders.length */\n      dup1\n      sload\n      sub(shl(0xa0, 0x01), 0x01)\n        /* \"contracts/ACBNEW.sol\":10625:10646  lpHolderIndex[sender] */\n      dup4\n      and\n      0x00\n      dup2\n      dup2\n      mstore\n        /* \"contracts/ACBNEW.sol\":10625:10638  lpHolderIndex */\n      0x15\n        /* \"contracts/ACBNEW.sol\":10625:10646  lpHolderIndex[sender] */\n      0x20\n      mstore\n      0x40\n      dup2\n      keccak256\n        /* \"contracts/ACBNEW.sol\":10625:10665  lpHolderIndex[sender] = lpHolders.length */\n      dup4\n      swap1\n      sstore\n        /* \"contracts/ACBNEW.sol\":10678:10700  lpHolders.push(sender) */\n      0x01\n      dup4\n      add\n      dup5\n      sstore\n      swap3\n      swap1\n      swap3\n      mstore\n      0xd833147d7dc355ba459fc788f669e58cfaf9dc25ddcd0702e87d69c7b5124289\n      add\n      dup1\n      sload\n      not(sub(shl(0xa0, 0x01), 0x01))\n      and\n      swap1\n      swap2\n      or\n      swap1\n      sstore\n        /* \"contracts/ACBNEW.sol\":10227:10712  if (0 == lpHolderIndex[sender] && sender != bnbPair) {... */\n    tag_383:\n        /* \"contracts/ACBNEW.sol\":10098:10737  function ariver(uint256 amount,address sender)internal {... */\n      pop\n      pop\n      jump\t// out\n        /* \"#utility.yul\":14:562   */\n    tag_42:\n        /* \"#utility.yul\":126:130   */\n      0x00\n        /* \"#utility.yul\":155:157   */\n      0x20\n        /* \"#utility.yul\":184:186   */\n      dup1\n        /* \"#utility.yul\":173:182   */\n      dup4\n        /* \"#utility.yul\":166:187   */\n      mstore\n        /* \"#utility.yul\":216:222   */\n      dup4\n        /* \"#utility.yul\":210:223   */\n      mload\n        /* \"#utility.yul\":259:265   */\n      dup1\n        /* \"#utility.yul\":254:256   */\n      dup3\n        /* \"#utility.yul\":243:252   */\n      dup6\n        /* \"#utility.yul\":239:257   */\n      add\n        /* \"#utility.yul\":232:266   */\n      mstore\n        /* \"#utility.yul\":284:285   */\n      0x00\n        /* \"#utility.yul\":294:434   */\n    tag_391:\n        /* \"#utility.yul\":308:314   */\n      dup2\n        /* \"#utility.yul\":305:306   */\n      dup2\n        /* \"#utility.yul\":302:315   */\n      lt\n        /* \"#utility.yul\":294:434   */\n      iszero\n      tag_393\n      jumpi\n        /* \"#utility.yul\":403:417   */\n      dup6\n      dup2\n      add\n        /* \"#utility.yul\":399:422   */\n      dup4\n      add\n        /* \"#utility.yul\":393:423   */\n      mload\n        /* \"#utility.yul\":369:386   */\n      dup6\n      dup3\n      add\n        /* \"#utility.yul\":388:390   */\n      0x40\n        /* \"#utility.yul\":365:391   */\n      add\n        /* \"#utility.yul\":358:424   */\n      mstore\n        /* \"#utility.yul\":323:333   */\n      dup3\n      add\n        /* \"#utility.yul\":294:434   */\n      jump(tag_391)\n    tag_393:\n        /* \"#utility.yul\":298:301   */\n      pop\n        /* \"#utility.yul\":483:484   */\n      0x00\n        /* \"#utility.yul\":478:480   */\n      0x40\n        /* \"#utility.yul\":469:475   */\n      dup3\n        /* \"#utility.yul\":458:467   */\n      dup7\n        /* \"#utility.yul\":454:476   */\n      add\n        /* \"#utility.yul\":450:481   */\n      add\n        /* \"#utility.yul\":443:485   */\n      mstore\n        /* \"#utility.yul\":553:555   */\n      0x40\n        /* \"#utility.yul\":546:548   */\n      0x1f\n        /* \"#utility.yul\":542:549   */\n      not\n        /* \"#utility.yul\":537:539   */\n      0x1f\n        /* \"#utility.yul\":529:535   */\n      dup4\n        /* \"#utility.yul\":525:540   */\n      add\n        /* \"#utility.yul\":521:550   */\n      and\n        /* \"#utility.yul\":510:519   */\n      dup6\n        /* \"#utility.yul\":506:551   */\n      add\n        /* \"#utility.yul\":502:556   */\n      add\n        /* \"#utility.yul\":494:556   */\n      swap3\n      pop\n      pop\n      pop\n        /* \"#utility.yul\":14:562   */\n      swap3\n      swap2\n      pop\n      pop\n      jump\t// out\n        /* \"#utility.yul\":567:698   */\n    tag_387:\n      sub(shl(0xa0, 0x01), 0x01)\n        /* \"#utility.yul\":642:673   */\n      dup2\n      and\n        /* \"#utility.yul\":632:674   */\n      dup2\n      eq\n        /* \"#utility.yul\":622:692   */\n      tag_395\n      jumpi\n        /* \"#utility.yul\":688:689   */\n      0x00\n        /* \"#utility.yul\":685:686   */\n      dup1\n        /* \"#utility.yul\":678:690   */\n      revert\n        /* \"#utility.yul\":622:692   */\n    tag_395:\n        /* \"#utility.yul\":567:698   */\n      pop\n      jump\t// out\n        /* \"#utility.yul\":703:1018   */\n    tag_45:\n        /* \"#utility.yul\":771:777   */\n      0x00\n        /* \"#utility.yul\":779:785   */\n      dup1\n        /* \"#utility.yul\":832:834   */\n      0x40\n        /* \"#utility.yul\":820:829   */\n      dup4\n        /* \"#utility.yul\":811:818   */\n      dup6\n        /* \"#utility.yul\":807:830   */\n      sub\n        /* \"#utility.yul\":803:835   */\n      slt\n        /* \"#utility.yul\":800:852   */\n      iszero\n      tag_397\n      jumpi\n        /* \"#utility.yul\":848:849   */\n      0x00\n        /* \"#utility.yul\":845:846   */\n      dup1\n        /* \"#utility.yul\":838:850   */\n      revert\n        /* \"#utility.yul\":800:852   */\n    tag_397:\n        /* \"#utility.yul\":887:896   */\n      dup3\n        /* \"#utility.yul\":874:897   */\n      calldataload\n        /* \"#utility.yul\":906:937   */\n      tag_398\n        /* \"#utility.yul\":931:936   */\n      dup2\n        /* \"#utility.yul\":906:937   */\n      tag_387\n      jump\t// in\n    tag_398:\n        /* \"#utility.yul\":956:961   */\n      swap5\n        /* \"#utility.yul\":1008:1010   */\n      0x20\n        /* \"#utility.yul\":993:1011   */\n      swap4\n      swap1\n      swap4\n      add\n        /* \"#utility.yul\":980:1012   */\n      calldataload\n      swap4\n      pop\n      pop\n      pop\n        /* \"#utility.yul\":703:1018   */\n      jump\t// out\n        /* \"#utility.yul\":1215:1462   */\n    tag_51:\n        /* \"#utility.yul\":1274:1280   */\n      0x00\n        /* \"#utility.yul\":1327:1329   */\n      0x20\n        /* \"#utility.yul\":1315:1324   */\n      dup3\n        /* \"#utility.yul\":1306:1313   */\n      dup5\n        /* \"#utility.yul\":1302:1325   */\n      sub\n        /* \"#utility.yul\":1298:1330   */\n      slt\n        /* \"#utility.yul\":1295:1347   */\n      iszero\n      tag_401\n      jumpi\n        /* \"#utility.yul\":1343:1344   */\n      0x00\n        /* \"#utility.yul\":1340:1341   */\n      dup1\n        /* \"#utility.yul\":1333:1345   */\n      revert\n        /* \"#utility.yul\":1295:1347   */\n    tag_401:\n        /* \"#utility.yul\":1382:1391   */\n      dup2\n        /* \"#utility.yul\":1369:1392   */\n      calldataload\n        /* \"#utility.yul\":1401:1432   */\n      tag_402\n        /* \"#utility.yul\":1426:1431   */\n      dup2\n        /* \"#utility.yul\":1401:1432   */\n      tag_387\n      jump\t// in\n    tag_402:\n        /* \"#utility.yul\":1451:1456   */\n      swap4\n        /* \"#utility.yul\":1215:1462   */\n      swap3\n      pop\n      pop\n      pop\n      jump\t// out\n        /* \"#utility.yul\":1649:1879   */\n    tag_64:\n      sub(shl(0xa0, 0x01), 0x01)\n        /* \"#utility.yul\":1840:1872   */\n      swap2\n      swap1\n      swap2\n      and\n        /* \"#utility.yul\":1822:1873   */\n      dup2\n      mstore\n        /* \"#utility.yul\":1810:1812   */\n      0x20\n        /* \"#utility.yul\":1795:1813   */\n      add\n      swap1\n        /* \"#utility.yul\":1649:1879   */\n      jump\t// out\n        /* \"#utility.yul\":1884:2340   */\n    tag_70:\n        /* \"#utility.yul\":1961:1967   */\n      0x00\n        /* \"#utility.yul\":1969:1975   */\n      dup1\n        /* \"#utility.yul\":1977:1983   */\n      0x00\n        /* \"#utility.yul\":2030:2032   */\n      0x60\n        /* \"#utility.yul\":2018:2027   */\n      dup5\n        /* \"#utility.yul\":2009:2016   */\n      dup7\n        /* \"#utility.yul\":2005:2028   */\n      sub\n        /* \"#utility.yul\":2001:2033   */\n      slt\n        /* \"#utility.yul\":1998:2050   */\n      iszero\n      tag_406\n      jumpi\n        /* \"#utility.yul\":2046:2047   */\n      0x00\n        /* \"#utility.yul\":2043:2044   */\n      dup1\n        /* \"#utility.yul\":2036:2048   */\n      revert\n        /* \"#utility.yul\":1998:2050   */\n    tag_406:\n        /* \"#utility.yul\":2085:2094   */\n      dup4\n        /* \"#utility.yul\":2072:2095   */\n      calldataload\n        /* \"#utility.yul\":2104:2135   */\n      tag_407\n        /* \"#utility.yul\":2129:2134   */\n      dup2\n        /* \"#utility.yul\":2104:2135   */\n      tag_387\n      jump\t// in\n    tag_407:\n        /* \"#utility.yul\":2154:2159   */\n      swap3\n      pop\n        /* \"#utility.yul\":2211:2213   */\n      0x20\n        /* \"#utility.yul\":2196:2214   */\n      dup5\n      add\n        /* \"#utility.yul\":2183:2215   */\n      calldataload\n        /* \"#utility.yul\":2224:2257   */\n      tag_408\n        /* \"#utility.yul\":2183:2215   */\n      dup2\n        /* \"#utility.yul\":2224:2257   */\n      tag_387\n      jump\t// in\n    tag_408:\n        /* \"#utility.yul\":1884:2340   */\n      swap3\n      swap6\n        /* \"#utility.yul\":2276:2283   */\n      swap3\n      swap5\n      pop\n      pop\n      pop\n        /* \"#utility.yul\":2330:2332   */\n      0x40\n        /* \"#utility.yul\":2315:2333   */\n      swap2\n      swap1\n      swap2\n      add\n        /* \"#utility.yul\":2302:2334   */\n      calldataload\n      swap1\n        /* \"#utility.yul\":1884:2340   */\n      jump\t// out\n        /* \"#utility.yul\":2534:2849   */\n    tag_85:\n        /* \"#utility.yul\":2602:2608   */\n      0x00\n        /* \"#utility.yul\":2610:2616   */\n      dup1\n        /* \"#utility.yul\":2663:2665   */\n      0x40\n        /* \"#utility.yul\":2651:2660   */\n      dup4\n        /* \"#utility.yul\":2642:2649   */\n      dup6\n        /* \"#utility.yul\":2638:2661   */\n      sub\n        /* \"#utility.yul\":2634:2666   */\n      slt\n        /* \"#utility.yul\":2631:2683   */\n      iszero\n      tag_411\n      jumpi\n        /* \"#utility.yul\":2679:2680   */\n      0x00\n        /* \"#utility.yul\":2676:2677   */\n      dup1\n        /* \"#utility.yul\":2669:2681   */\n      revert\n        /* \"#utility.yul\":2631:2683   */\n    tag_411:\n        /* \"#utility.yul\":2715:2724   */\n      dup3\n        /* \"#utility.yul\":2702:2725   */\n      calldataload\n        /* \"#utility.yul\":2692:2725   */\n      swap2\n      pop\n        /* \"#utility.yul\":2775:2777   */\n      0x20\n        /* \"#utility.yul\":2764:2773   */\n      dup4\n        /* \"#utility.yul\":2760:2778   */\n      add\n        /* \"#utility.yul\":2747:2779   */\n      calldataload\n        /* \"#utility.yul\":2788:2819   */\n      tag_412\n        /* \"#utility.yul\":2813:2818   */\n      dup2\n        /* \"#utility.yul\":2788:2819   */\n      tag_387\n      jump\t// in\n    tag_412:\n        /* \"#utility.yul\":2838:2843   */\n      dup1\n        /* \"#utility.yul\":2828:2843   */\n      swap2\n      pop\n      pop\n        /* \"#utility.yul\":2534:2849   */\n      swap3\n      pop\n      swap3\n      swap1\n      pop\n      jump\t// out\n        /* \"#utility.yul\":2854:3034   */\n    tag_92:\n        /* \"#utility.yul\":2913:2919   */\n      0x00\n        /* \"#utility.yul\":2966:2968   */\n      0x20\n        /* \"#utility.yul\":2954:2963   */\n      dup3\n        /* \"#utility.yul\":2945:2952   */\n      dup5\n        /* \"#utility.yul\":2941:2964   */\n      sub\n        /* \"#utility.yul\":2937:2969   */\n      slt\n        /* \"#utility.yul\":2934:2986   */\n      iszero\n      tag_414\n      jumpi\n        /* \"#utility.yul\":2982:2983   */\n      0x00\n        /* \"#utility.yul\":2979:2980   */\n      dup1\n        /* \"#utility.yul\":2972:2984   */\n      revert\n        /* \"#utility.yul\":2934:2986   */\n    tag_414:\n      pop\n        /* \"#utility.yul\":3005:3028   */\n      calldataload\n      swap2\n        /* \"#utility.yul\":2854:3034   */\n      swap1\n      pop\n      jump\t// out\n        /* \"#utility.yul\":3479:3867   */\n    tag_155:\n        /* \"#utility.yul\":3547:3553   */\n      0x00\n        /* \"#utility.yul\":3555:3561   */\n      dup1\n        /* \"#utility.yul\":3608:3610   */\n      0x40\n        /* \"#utility.yul\":3596:3605   */\n      dup4\n        /* \"#utility.yul\":3587:3594   */\n      dup6\n        /* \"#utility.yul\":3583:3606   */\n      sub\n        /* \"#utility.yul\":3579:3611   */\n      slt\n        /* \"#utility.yul\":3576:3628   */\n      iszero\n      tag_418\n      jumpi\n        /* \"#utility.yul\":3624:3625   */\n      0x00\n        /* \"#utility.yul\":3621:3622   */\n      dup1\n        /* \"#utility.yul\":3614:3626   */\n      revert\n        /* \"#utility.yul\":3576:3628   */\n    tag_418:\n        /* \"#utility.yul\":3663:3672   */\n      dup3\n        /* \"#utility.yul\":3650:3673   */\n      calldataload\n        /* \"#utility.yul\":3682:3713   */\n      tag_419\n        /* \"#utility.yul\":3707:3712   */\n      dup2\n        /* \"#utility.yul\":3682:3713   */\n      tag_387\n      jump\t// in\n    tag_419:\n        /* \"#utility.yul\":3732:3737   */\n      swap2\n      pop\n        /* \"#utility.yul\":3789:3791   */\n      0x20\n        /* \"#utility.yul\":3774:3792   */\n      dup4\n      add\n        /* \"#utility.yul\":3761:3793   */\n      calldataload\n        /* \"#utility.yul\":3802:3835   */\n      tag_412\n        /* \"#utility.yul\":3761:3793   */\n      dup2\n        /* \"#utility.yul\":3802:3835   */\n      tag_387\n      jump\t// in\n        /* \"#utility.yul\":3872:4252   */\n    tag_172:\n        /* \"#utility.yul\":3951:3952   */\n      0x01\n        /* \"#utility.yul\":3947:3959   */\n      dup2\n      dup2\n      shr\n      swap1\n        /* \"#utility.yul\":3994:4006   */\n      dup3\n      and\n      dup1\n        /* \"#utility.yul\":4015:4076   */\n      tag_422\n      jumpi\n        /* \"#utility.yul\":4069:4073   */\n      0x7f\n        /* \"#utility.yul\":4061:4067   */\n      dup3\n        /* \"#utility.yul\":4057:4074   */\n      and\n        /* \"#utility.yul\":4047:4074   */\n      swap2\n      pop\n        /* \"#utility.yul\":4015:4076   */\n    tag_422:\n        /* \"#utility.yul\":4122:4124   */\n      0x20\n        /* \"#utility.yul\":4114:4120   */\n      dup3\n        /* \"#utility.yul\":4111:4125   */\n      lt\n        /* \"#utility.yul\":4091:4109   */\n      dup2\n        /* \"#utility.yul\":4088:4126   */\n      sub\n        /* \"#utility.yul\":4085:4246   */\n      tag_423\n      jumpi\n        /* \"#utility.yul\":4168:4178   */\n      0x4e487b71\n        /* \"#utility.yul\":4163:4166   */\n      0xe0\n        /* \"#utility.yul\":4159:4179   */\n      shl\n        /* \"#utility.yul\":4156:4157   */\n      0x00\n        /* \"#utility.yul\":4149:4180   */\n      mstore\n        /* \"#utility.yul\":4203:4207   */\n      0x22\n        /* \"#utility.yul\":4200:4201   */\n      0x04\n        /* \"#utility.yul\":4193:4208   */\n      mstore\n        /* \"#utility.yul\":4231:4235   */\n      0x24\n        /* \"#utility.yul\":4228:4229   */\n      0x00\n        /* \"#utility.yul\":4221:4236   */\n      revert\n        /* \"#utility.yul\":4085:4246   */\n    tag_423:\n      pop\n        /* \"#utility.yul\":3872:4252   */\n      swap2\n      swap1\n      pop\n      jump\t// out\n        /* \"#utility.yul\":4257:4613   */\n    tag_190:\n        /* \"#utility.yul\":4459:4461   */\n      0x20\n        /* \"#utility.yul\":4441:4462   */\n      dup1\n      dup3\n      mstore\n        /* \"#utility.yul\":4478:4496   */\n      dup2\n      dup2\n      add\n        /* \"#utility.yul\":4471:4501   */\n      mstore\n        /* \"#utility.yul\":4537:4571   */\n      0x4f776e61626c653a2063616c6c6572206973206e6f7420746865206f776e6572\n        /* \"#utility.yul\":4532:4534   */\n      0x40\n        /* \"#utility.yul\":4517:4535   */\n      dup3\n      add\n        /* \"#utility.yul\":4510:4572   */\n      mstore\n        /* \"#utility.yul\":4604:4606   */\n      0x60\n        /* \"#utility.yul\":4589:4607   */\n      add\n      swap1\n        /* \"#utility.yul\":4257:4613   */\n      jump\t// out\n        /* \"#utility.yul\":4618:4869   */\n    tag_197:\n        /* \"#utility.yul\":4688:4694   */\n      0x00\n        /* \"#utility.yul\":4741:4743   */\n      0x20\n        /* \"#utility.yul\":4729:4738   */\n      dup3\n        /* \"#utility.yul\":4720:4727   */\n      dup5\n        /* \"#utility.yul\":4716:4739   */\n      sub\n        /* \"#utility.yul\":4712:4744   */\n      slt\n        /* \"#utility.yul\":4709:4761   */\n      iszero\n      tag_426\n      jumpi\n        /* \"#utility.yul\":4757:4758   */\n      0x00\n        /* \"#utility.yul\":4754:4755   */\n      dup1\n        /* \"#utility.yul\":4747:4759   */\n      revert\n        /* \"#utility.yul\":4709:4761   */\n    tag_426:\n        /* \"#utility.yul\":4789:4798   */\n      dup2\n        /* \"#utility.yul\":4783:4799   */\n      mload\n        /* \"#utility.yul\":4808:4839   */\n      tag_402\n        /* \"#utility.yul\":4833:4838   */\n      dup2\n        /* \"#utility.yul\":4808:4839   */\n      tag_387\n      jump\t// in\n        /* \"#utility.yul\":5006:5133   */\n    tag_204:\n        /* \"#utility.yul\":5067:5077   */\n      0x4e487b71\n        /* \"#utility.yul\":5062:5065   */\n      0xe0\n        /* \"#utility.yul\":5058:5078   */\n      shl\n        /* \"#utility.yul\":5055:5056   */\n      0x00\n        /* \"#utility.yul\":5048:5079   */\n      mstore\n        /* \"#utility.yul\":5098:5102   */\n      0x32\n        /* \"#utility.yul\":5095:5096   */\n      0x04\n        /* \"#utility.yul\":5088:5103   */\n      mstore\n        /* \"#utility.yul\":5122:5126   */\n      0x24\n        /* \"#utility.yul\":5119:5120   */\n      0x00\n        /* \"#utility.yul\":5112:5127   */\n      revert\n        /* \"#utility.yul\":5138:5322   */\n    tag_211:\n        /* \"#utility.yul\":5208:5214   */\n      0x00\n        /* \"#utility.yul\":5261:5263   */\n      0x20\n        /* \"#utility.yul\":5249:5258   */\n      dup3\n        /* \"#utility.yul\":5240:5247   */\n      dup5\n        /* \"#utility.yul\":5236:5259   */\n      sub\n        /* \"#utility.yul\":5232:5264   */\n      slt\n        /* \"#utility.yul\":5229:5281   */\n      iszero\n      tag_431\n      jumpi\n        /* \"#utility.yul\":5277:5278   */\n      0x00\n        /* \"#utility.yul\":5274:5275   */\n      dup1\n        /* \"#utility.yul\":5267:5279   */\n      revert\n        /* \"#utility.yul\":5229:5281   */\n    tag_431:\n      pop\n        /* \"#utility.yul\":5300:5316   */\n      mload\n      swap2\n        /* \"#utility.yul\":5138:5322   */\n      swap1\n      pop\n      jump\t// out\n        /* \"#utility.yul\":5327:6307   */\n    tag_216:\n        /* \"#utility.yul\":5589:5593   */\n      0x00\n        /* \"#utility.yul\":5637:5640   */\n      0xa0\n        /* \"#utility.yul\":5626:5635   */\n      dup3\n        /* \"#utility.yul\":5622:5641   */\n      add\n        /* \"#utility.yul\":5668:5674   */\n      dup8\n        /* \"#utility.yul\":5657:5666   */\n      dup4\n        /* \"#utility.yul\":5650:5675   */\n      mstore\n        /* \"#utility.yul\":5694:5696   */\n      0x20\n        /* \"#utility.yul\":5732:5738   */\n      dup8\n        /* \"#utility.yul\":5727:5729   */\n      dup2\n        /* \"#utility.yul\":5716:5725   */\n      dup6\n        /* \"#utility.yul\":5712:5730   */\n      add\n        /* \"#utility.yul\":5705:5739   */\n      mstore\n        /* \"#utility.yul\":5775:5778   */\n      0xa0\n        /* \"#utility.yul\":5770:5772   */\n      0x40\n        /* \"#utility.yul\":5759:5768   */\n      dup6\n        /* \"#utility.yul\":5755:5773   */\n      add\n        /* \"#utility.yul\":5748:5779   */\n      mstore\n        /* \"#utility.yul\":5799:5805   */\n      dup2\n        /* \"#utility.yul\":5834:5840   */\n      dup8\n        /* \"#utility.yul\":5828:5841   */\n      mload\n        /* \"#utility.yul\":5865:5871   */\n      dup1\n        /* \"#utility.yul\":5857:5863   */\n      dup5\n        /* \"#utility.yul\":5850:5872   */\n      mstore\n        /* \"#utility.yul\":5903:5906   */\n      0xc0\n        /* \"#utility.yul\":5892:5901   */\n      dup7\n        /* \"#utility.yul\":5888:5907   */\n      add\n        /* \"#utility.yul\":5881:5907   */\n      swap2\n      pop\n        /* \"#utility.yul\":5942:5944   */\n      dup3\n        /* \"#utility.yul\":5934:5940   */\n      dup10\n        /* \"#utility.yul\":5930:5945   */\n      add\n        /* \"#utility.yul\":5916:5945   */\n      swap4\n      pop\n        /* \"#utility.yul\":5963:5964   */\n      0x00\n        /* \"#utility.yul\":5973:6168   */\n    tag_433:\n        /* \"#utility.yul\":5987:5993   */\n      dup2\n        /* \"#utility.yul\":5984:5985   */\n      dup2\n        /* \"#utility.yul\":5981:5994   */\n      lt\n        /* \"#utility.yul\":5973:6168   */\n      iszero\n      tag_435\n      jumpi\n        /* \"#utility.yul\":6052:6065   */\n      dup5\n      mload\n      sub(shl(0xa0, 0x01), 0x01)\n        /* \"#utility.yul\":6048:6087   */\n      and\n        /* \"#utility.yul\":6036:6088   */\n      dup4\n      mstore\n        /* \"#utility.yul\":6143:6158   */\n      swap4\n      dup4\n      add\n      swap4\n        /* \"#utility.yul\":6108:6120   */\n      swap2\n      dup4\n      add\n      swap2\n        /* \"#utility.yul\":6084:6085   */\n      0x01\n        /* \"#utility.yul\":6002:6011   */\n      add\n        /* \"#utility.yul\":5973:6168   */\n      jump(tag_433)\n    tag_435:\n      pop\n      pop\n      sub(shl(0xa0, 0x01), 0x01)\n        /* \"#utility.yul\":6224:6256   */\n      swap7\n      swap1\n      swap7\n      and\n        /* \"#utility.yul\":6219:6221   */\n      0x60\n        /* \"#utility.yul\":6204:6222   */\n      dup6\n      add\n        /* \"#utility.yul\":6197:6257   */\n      mstore\n      pop\n      pop\n      pop\n        /* \"#utility.yul\":6288:6291   */\n      0x80\n        /* \"#utility.yul\":6273:6292   */\n      add\n        /* \"#utility.yul\":6266:6301   */\n      mstore\n        /* \"#utility.yul\":6185:6188   */\n      swap4\n        /* \"#utility.yul\":5327:6307   */\n      swap3\n      pop\n      pop\n      pop\n      jump\t// out\n        /* \"#utility.yul\":6692:6969   */\n    tag_274:\n        /* \"#utility.yul\":6759:6765   */\n      0x00\n        /* \"#utility.yul\":6812:6814   */\n      0x20\n        /* \"#utility.yul\":6800:6809   */\n      dup3\n        /* \"#utility.yul\":6791:6798   */\n      dup5\n        /* \"#utility.yul\":6787:6810   */\n      sub\n        /* \"#utility.yul\":6783:6815   */\n      slt\n        /* \"#utility.yul\":6780:6832   */\n      iszero\n      tag_438\n      jumpi\n        /* \"#utility.yul\":6828:6829   */\n      0x00\n        /* \"#utility.yul\":6825:6826   */\n      dup1\n        /* \"#utility.yul\":6818:6830   */\n      revert\n        /* \"#utility.yul\":6780:6832   */\n    tag_438:\n        /* \"#utility.yul\":6860:6869   */\n      dup2\n        /* \"#utility.yul\":6854:6870   */\n      mload\n        /* \"#utility.yul\":6913:6918   */\n      dup1\n        /* \"#utility.yul\":6906:6919   */\n      iszero\n        /* \"#utility.yul\":6899:6920   */\n      iszero\n        /* \"#utility.yul\":6892:6897   */\n      dup2\n        /* \"#utility.yul\":6889:6921   */\n      eq\n        /* \"#utility.yul\":6879:6939   */\n      tag_402\n      jumpi\n        /* \"#utility.yul\":6935:6936   */\n      0x00\n        /* \"#utility.yul\":6932:6933   */\n      dup1\n        /* \"#utility.yul\":6925:6937   */\n      revert\n        /* \"#utility.yul\":7332:7459   */\n    tag_388:\n        /* \"#utility.yul\":7393:7403   */\n      0x4e487b71\n        /* \"#utility.yul\":7388:7391   */\n      0xe0\n        /* \"#utility.yul\":7384:7404   */\n      shl\n        /* \"#utility.yul\":7381:7382   */\n      0x00\n        /* \"#utility.yul\":7374:7405   */\n      mstore\n        /* \"#utility.yul\":7424:7428   */\n      0x11\n        /* \"#utility.yul\":7421:7422   */\n      0x04\n        /* \"#utility.yul\":7414:7429   */\n      mstore\n        /* \"#utility.yul\":7448:7452   */\n      0x24\n        /* \"#utility.yul\":7445:7446   */\n      0x00\n        /* \"#utility.yul\":7438:7453   */\n      revert\n        /* \"#utility.yul\":7464:7632   */\n    tag_300:\n        /* \"#utility.yul\":7537:7546   */\n      dup1\n      dup3\n      mul\n        /* \"#utility.yul\":7568:7577   */\n      dup2\n      iszero\n        /* \"#utility.yul\":7585:7600   */\n      dup3\n      dup3\n      div\n        /* \"#utility.yul\":7579:7601   */\n      dup5\n      eq\n        /* \"#utility.yul\":7565:7602   */\n      or\n        /* \"#utility.yul\":7555:7626   */\n      tag_177\n      jumpi\n        /* \"#utility.yul\":7606:7624   */\n      tag_177\n      tag_388\n      jump\t// in\n        /* \"#utility.yul\":7637:7854   */\n    tag_302:\n        /* \"#utility.yul\":7677:7678   */\n      0x00\n        /* \"#utility.yul\":7703:7704   */\n      dup3\n        /* \"#utility.yul\":7693:7825   */\n      tag_446\n      jumpi\n        /* \"#utility.yul\":7747:7757   */\n      0x4e487b71\n        /* \"#utility.yul\":7742:7745   */\n      0xe0\n        /* \"#utility.yul\":7738:7758   */\n      shl\n        /* \"#utility.yul\":7735:7736   */\n      0x00\n        /* \"#utility.yul\":7728:7759   */\n      mstore\n        /* \"#utility.yul\":7782:7786   */\n      0x12\n        /* \"#utility.yul\":7779:7780   */\n      0x04\n        /* \"#utility.yul\":7772:7787   */\n      mstore\n        /* \"#utility.yul\":7810:7814   */\n      0x24\n        /* \"#utility.yul\":7807:7808   */\n      0x00\n        /* \"#utility.yul\":7800:7815   */\n      revert\n        /* \"#utility.yul\":7693:7825   */\n    tag_446:\n      pop\n        /* \"#utility.yul\":7839:7848   */\n      div\n      swap1\n        /* \"#utility.yul\":7637:7854   */\n      jump\t// out\n        /* \"#utility.yul\":7859:8261   */\n    tag_315:\n        /* \"#utility.yul\":8061:8063   */\n      0x20\n        /* \"#utility.yul\":8043:8064   */\n      dup1\n      dup3\n      mstore\n        /* \"#utility.yul\":8100:8102   */\n      0x26\n        /* \"#utility.yul\":8080:8098   */\n      swap1\n      dup3\n      add\n        /* \"#utility.yul\":8073:8103   */\n      mstore\n        /* \"#utility.yul\":8139:8173   */\n      0x45524332303a207472616e7366657220616d6f756e7420657863656564732062\n        /* \"#utility.yul\":8134:8136   */\n      0x40\n        /* \"#utility.yul\":8119:8137   */\n      dup3\n      add\n        /* \"#utility.yul\":8112:8174   */\n      mstore\n      shl(0xd0, 0x616c616e6365)\n        /* \"#utility.yul\":8205:8207   */\n      0x60\n        /* \"#utility.yul\":8190:8208   */\n      dup3\n      add\n        /* \"#utility.yul\":8183:8219   */\n      mstore\n        /* \"#utility.yul\":8251:8254   */\n      0x80\n        /* \"#utility.yul\":8236:8255   */\n      add\n      swap1\n        /* \"#utility.yul\":7859:8261   */\n      jump\t// out\n        /* \"#utility.yul\":8545:8670   */\n    tag_343:\n        /* \"#utility.yul\":8610:8619   */\n      dup1\n      dup3\n      add\n        /* \"#utility.yul\":8631:8641   */\n      dup1\n      dup3\n      gt\n        /* \"#utility.yul\":8628:8664   */\n      iszero\n      tag_177\n      jumpi\n        /* \"#utility.yul\":8644:8662   */\n      tag_177\n      tag_388\n      jump\t// in\n        /* \"#utility.yul\":8675:8803   */\n    tag_346:\n        /* \"#utility.yul\":8742:8751   */\n      dup2\n      dup2\n      sub\n        /* \"#utility.yul\":8763:8774   */\n      dup2\n      dup2\n      gt\n        /* \"#utility.yul\":8760:8797   */\n      iszero\n      tag_177\n      jumpi\n        /* \"#utility.yul\":8777:8795   */\n      tag_177\n      tag_388\n      jump\t// in\n        /* \"#utility.yul\":9018:9153   */\n    tag_376:\n        /* \"#utility.yul\":9057:9060   */\n      0x00\n        /* \"#utility.yul\":9078:9095   */\n      0x01\n      dup3\n      add\n        /* \"#utility.yul\":9075:9118   */\n      tag_458\n      jumpi\n        /* \"#utility.yul\":9098:9116   */\n      tag_458\n      tag_388\n      jump\t// in\n    tag_458:\n      pop\n        /* \"#utility.yul\":9145:9146   */\n      0x01\n        /* \"#utility.yul\":9134:9147   */\n      add\n      swap1\n        /* \"#utility.yul\":9018:9153   */\n      jump\t// out\n    stop\n    data_ada389e1fc24a8587c776340efb91b36e675792ab631816100d55df0b5cf3cbc ddf252ad1be2c89b69c2b068fc378daa952ba7f163c4a11628f55a4df523b3ef\n\n    auxdata: 0xa2646970667358221220addb2fa23f7e92a321ba48d19790e42363ecef9603f64aa7d2859f8a0e72605f64736f6c63430008140033\n}\n\nsub_1: assembly {\n        /* \"contracts/ACBNEW.sol\":11315:11443  contract TokenDistributor {... */\n      mstore(0x40, 0x80)\n        /* \"contracts/ACBNEW.sol\":11348:11440  constructor(address token) {... */\n      callvalue\n      dup1\n      iszero\n      tag_1\n      jumpi\n      0x00\n      dup1\n      revert\n    tag_1:\n      pop\n      mload(0x40)\n      sub(codesize, bytecodeSize)\n      dup1\n      bytecodeSize\n      dup4\n      codecopy\n      dup2\n      add\n      0x40\n      dup2\n      swap1\n      mstore\n      tag_2\n      swap2\n      tag_3\n      jump\t// in\n    tag_2:\n        /* \"contracts/ACBNEW.sol\":11386:11432  IERC20(token).approve(msg.sender, ~uint256(0)) */\n      mload(0x40)\n      shl(0xe0, 0x095ea7b3)\n      dup2\n      mstore\n        /* \"contracts/ACBNEW.sol\":11408:11418  msg.sender */\n      caller\n        /* \"contracts/ACBNEW.sol\":11386:11432  IERC20(token).approve(msg.sender, ~uint256(0)) */\n      0x04\n      dup3\n      add\n        /* \"#utility.yul\":483:534   */\n      mstore\n      not(0x00)\n        /* \"#utility.yul\":550:568   */\n      0x24\n      dup3\n      add\n        /* \"#utility.yul\":543:577   */\n      mstore\n      sub(shl(0xa0, 0x01), 0x01)\n        /* \"contracts/ACBNEW.sol\":11386:11407  IERC20(token).approve */\n      dup3\n      and\n      swap1\n      0x095ea7b3\n      swap1\n        /* \"#utility.yul\":456:474   */\n      0x44\n      add\n        /* \"contracts/ACBNEW.sol\":11386:11432  IERC20(token).approve(msg.sender, ~uint256(0)) */\n      0x20\n      mload(0x40)\n      dup1\n      dup4\n      sub\n      dup2\n      0x00\n      dup8\n      gas\n      call\n      iszero\n      dup1\n      iszero\n      tag_9\n      jumpi\n      returndatasize\n      0x00\n      dup1\n      returndatacopy\n      revert(0x00, returndatasize)\n    tag_9:\n      pop\n      pop\n      pop\n      pop\n      mload(0x40)\n      returndatasize\n      not(0x1f)\n      0x1f\n      dup3\n      add\n      and\n      dup3\n      add\n      dup1\n      0x40\n      mstore\n      pop\n      dup2\n      add\n      swap1\n      tag_10\n      swap2\n      swap1\n      tag_11\n      jump\t// in\n    tag_10:\n      pop\n        /* \"contracts/ACBNEW.sol\":11348:11440  constructor(address token) {... */\n      pop\n        /* \"contracts/ACBNEW.sol\":11315:11443  contract TokenDistributor {... */\n      jump(tag_13)\n        /* \"#utility.yul\":14:304   */\n    tag_3:\n        /* \"#utility.yul\":84:90   */\n      0x00\n        /* \"#utility.yul\":137:139   */\n      0x20\n        /* \"#utility.yul\":125:134   */\n      dup3\n        /* \"#utility.yul\":116:123   */\n      dup5\n        /* \"#utility.yul\":112:135   */\n      sub\n        /* \"#utility.yul\":108:140   */\n      slt\n        /* \"#utility.yul\":105:157   */\n      iszero\n      tag_15\n      jumpi\n        /* \"#utility.yul\":153:154   */\n      0x00\n        /* \"#utility.yul\":150:151   */\n      dup1\n        /* \"#utility.yul\":143:155   */\n      revert\n        /* \"#utility.yul\":105:157   */\n    tag_15:\n        /* \"#utility.yul\":179:195   */\n      dup2\n      mload\n      sub(shl(0xa0, 0x01), 0x01)\n        /* \"#utility.yul\":224:255   */\n      dup2\n      and\n        /* \"#utility.yul\":214:256   */\n      dup2\n      eq\n        /* \"#utility.yul\":204:274   */\n      tag_16\n      jumpi\n        /* \"#utility.yul\":270:271   */\n      0x00\n        /* \"#utility.yul\":267:268   */\n      dup1\n        /* \"#utility.yul\":260:272   */\n      revert\n        /* \"#utility.yul\":204:274   */\n    tag_16:\n        /* \"#utility.yul\":293:298   */\n      swap4\n        /* \"#utility.yul\":14:304   */\n      swap3\n      pop\n      pop\n      pop\n      jump\t// out\n        /* \"#utility.yul\":588:865   */\n    tag_11:\n        /* \"#utility.yul\":655:661   */\n      0x00\n        /* \"#utility.yul\":708:710   */\n      0x20\n        /* \"#utility.yul\":696:705   */\n      dup3\n        /* \"#utility.yul\":687:694   */\n      dup5\n        /* \"#utility.yul\":683:706   */\n      sub\n        /* \"#utility.yul\":679:711   */\n      slt\n        /* \"#utility.yul\":676:728   */\n      iszero\n      tag_19\n      jumpi\n        /* \"#utility.yul\":724:725   */\n      0x00\n        /* \"#utility.yul\":721:722   */\n      dup1\n        /* \"#utility.yul\":714:726   */\n      revert\n        /* \"#utility.yul\":676:728   */\n    tag_19:\n        /* \"#utility.yul\":756:765   */\n      dup2\n        /* \"#utility.yul\":750:766   */\n      mload\n        /* \"#utility.yul\":809:814   */\n      dup1\n        /* \"#utility.yul\":802:815   */\n      iszero\n        /* \"#utility.yul\":795:816   */\n      iszero\n        /* \"#utility.yul\":788:793   */\n      dup2\n        /* \"#utility.yul\":785:817   */\n      eq\n        /* \"#utility.yul\":775:835   */\n      tag_16\n      jumpi\n        /* \"#utility.yul\":831:832   */\n      0x00\n        /* \"#utility.yul\":828:829   */\n      dup1\n        /* \"#utility.yul\":821:833   */\n      revert\n        /* \"#utility.yul\":588:865   */\n    tag_13:\n        /* \"contracts/ACBNEW.sol\":11315:11443  contract TokenDistributor {... */\n      dataSize(sub_0)\n      dup1\n      dataOffset(sub_0)\n      0x00\n      codecopy\n      0x00\n      return\n    stop\n\n    sub_0: assembly {\n            /* \"contracts/ACBNEW.sol\":11315:11443  contract TokenDistributor {... */\n          mstore(0x40, 0x80)\n          0x00\n          dup1\n          revert\n\n        auxdata: 0xa264697066735822122069799dfd453671dfd2026061795896f4f6ee21f12cf2c97112b4e506357d6eea64736f6c63430008140033\n    }\n}\n",
				"bytecode": {
					"linkReferences": {},
					"object": "60a06040523480156200001157600080fd5b5060408051808201825260038082526220a1a160e91b60208084018290528451808601909552918452908301529060126c0c9f2c9cd04674edea4000000060026200005d858262000490565b5060036200006c848262000490565b5060ff821660805262000080338262000317565b5050600580546001600160a01b03191633179055505060108054748cfe327cec66d1c090dd72bd0ff11d690c33a2eb00610100600160a81b03199091161790556040805163c45a015560e01b81529051738cfe327cec66d1c090dd72bd0ff11d690c33a2eb91600091839163c45a01559160048083019260209291908290030181865afa15801562000116573d6000803e3d6000fd5b505050506040513d601f19601f820116820180604052508101906200013c91906200055c565b6001600160a01b031663c9c6539630846001600160a01b031663ad5c46486040518163ffffffff1660e01b8152600401602060405180830381865afa1580156200018a573d6000803e3d6000fd5b505050506040513d601f19601f82011682018060405250810190620001b091906200055c565b6040516001600160e01b031960e085901b1681526001600160a01b039283166004820152911660248201526044016020604051808303816000875af1158015620001fe573d6000803e3d6000fd5b505050506040513d601f19601f820116820180604052508101906200022491906200055c565b601080546001600160a01b0380861661010002610100600160a81b031990921691909117909155600680549183166001600160a01b03199283161790556000601181905560c8600955662386f26fc10000600a556207a120600b55600d819055600c819055600f556007805490911673420000000000000000000000000000000000000690811790915560405191925090620002c090620003dd565b6001600160a01b039091168152602001604051809103906000f080158015620002ed573d6000803e3d6000fd5b50601780546001600160a01b0319166001600160a01b039290921691909117905550620005b69050565b6001600160a01b038216620003725760405162461bcd60e51b815260206004820152601f60248201527f45524332303a206d696e7420746f20746865207a65726f206164647265737300604482015260640160405180910390fd5b80600460008282546200038691906200058e565b90915550506001600160a01b038216600081815260208181526040808320805486019055518481527fddf252ad1be2c89b69c2b068fc378daa952ba7f163c4a11628f55a4df523b3ef910160405180910390a35050565b6101478062001da483390190565b634e487b7160e01b600052604160045260246000fd5b600181811c908216806200041657607f821691505b6020821081036200043757634e487b7160e01b600052602260045260246000fd5b50919050565b601f8211156200048b57600081815260208120601f850160051c81016020861015620004665750805b601f850160051c820191505b81811015620004875782815560010162000472565b5050505b505050565b81516001600160401b03811115620004ac57620004ac620003eb565b620004c481620004bd845462000401565b846200043d565b602080601f831160018114620004fc5760008415620004e35750858301515b600019600386901b1c1916600185901b17855562000487565b600085815260208120601f198616915b828110156200052d578886015182559484019460019091019084016200050c565b50858210156200054c5787850151600019600388901b60f8161c191681555b5050505050600190811b01905550565b6000602082840312156200056f57600080fd5b81516001600160a01b03811681146200058757600080fd5b9392505050565b80820180821115620005b057634e487b7160e01b600052601160045260246000fd5b92915050565b6080516117d2620005d2600039600061028201526117d26000f3fe608060405234801561001057600080fd5b50600436106101ac5760003560e01c806306fdde03146101b1578063095ea7b3146101cf5780630affb402146101f25780631210c434146102205780631357a1de146102295780631694505e1461023257806318160ddd1461025757806323b872dd1461025f5780632a59551214610272578063313ce5671461027b57806346bb9271146102ac5780634c2516de146102c1578063621f9c0a146102d45780636689567e146102dd57806368698b48146102f05780636aedea731461031057806370a08231146103195780637ef925f7146103425780638322fff21461035557806386623a06146103685780638718b24f146103885780638da5cb5b1461039b57806395d89b41146103ae5780639f0d7eb8146103b6578063a9059cbb146103c9578063add0a6c6146103dc578063b367bf83146103e5578063b510efa6146103ee578063bd8767021461040e578063c213d62d14610417578063c7003ed01461042a578063dd62ed3e1461043d578063e8c6013714610476578063eb10b74114610489578063ed9a165d14610492578063f2fde38b146104a5575b600080fd5b6101b96104b8565b6040516101c691906113d8565b60405180910390f35b6101e26101dd36600461143e565b61054a565b60405190151581526020016101c6565b61021261020036600461146a565b60156020526000908152604090205481565b6040519081526020016101c6565b610212600e5481565b610212600f5481565b60105461024a9061010090046001600160a01b031681565b6040516101c6919061148e565b600454610212565b6101e261026d3660046114a2565b610561565b61021260085481565b60405160ff7f00000000000000000000000000000000000000000000000000000000000000001681526020016101c6565b6102bf6102ba36600461146a565b610583565b005b6102bf6102cf3660046114e3565b6105d8565b610212600c5481565b6102bf6102eb366004611513565b6107e8565b6102126102fe36600461146a565b60126020526000908152604090205481565b61021260115481565b61021261032736600461146a565b6001600160a01b031660009081526020819052604090205490565b6102bf610350366004611513565b610817565b60075461024a906001600160a01b031681565b61021261037636600461146a565b60136020526000908152604090205481565b60175461024a906001600160a01b031681565b60055461024a906001600160a01b031681565b6101b9610846565b61024a6103c4366004611513565b610855565b6101e26103d736600461143e565b61087f565b61021260095481565b610212600d5481565b6102126103fc36600461146a565b60146020526000908152604090205481565b610212600b5481565b6102bf610425366004611513565b61088c565b6102bf610438366004611513565b6108bb565b61021261044b36600461152c565b6001600160a01b03918216600090815260016020908152604080832093909416825291909152205490565b6102bf610484366004611513565b6108ea565b610212600a5481565b60065461024a906001600160a01b031681565b6102bf6104b336600461146a565b610b13565b6060600380546104c79061155a565b80601f01602080910402602001604051908101604052809291908181526020018280546104f39061155a565b80156105405780601f1061051557610100808354040283529160200191610540565b820191906000526020600020905b81548152906001019060200180831161052357829003601f168201915b5050505050905090565b6000610557338484610b5f565b5060015b92915050565b600061056e843384610bc1565b610579848484610c53565b5060019392505050565b6005546001600160a01b031633146105b65760405162461bcd60e51b81526004016105ad90611594565b60405180910390fd5b600680546001600160a01b0319166001600160a01b0392909216919091179055565b6010805460ff191660011790819055604080516315ab88c960e31b815290516000926001600160a01b03610100909104169163ad5c46489160048083019260209291908290030181865afa158015610634573d6000803e3d6000fd5b505050506040513d601f19601f8201168201806040525081019061065891906115c9565b60408051600280825260608201835292935060009290916020830190803683370190505090508181600081518110610692576106926115e6565b60200260200101906001600160a01b031690816001600160a01b03168152505030816001815181106106c6576106c66115e6565b6001600160a01b0392831660209182029290920101526040516370a0823160e01b81526000918416906370a082319061070390309060040161148e565b602060405180830381865afa158015610720573d6000803e3d6000fd5b505050506040513d601f19601f8201168201806040525081019061074491906115fc565b90508085116107535784610755565b805b945084600003610767575050506107da565b601054604051635c11d79560e01b81526101009091046001600160a01b031690635c11d795906107a490889060009087908a904290600401611615565b600060405180830381600087803b1580156107be57600080fd5b505af11580156107d2573d6000803e3d6000fd5b505050505050505b50506010805460ff19169055565b6005546001600160a01b031633146108125760405162461bcd60e51b81526004016105ad90611594565b600b55565b6005546001600160a01b031633146108415760405162461bcd60e51b81526004016105ad90611594565b600f55565b6060600280546104c79061155a565b6016818154811061086557600080fd5b6000918252602090912001546001600160a01b0316905081565b6000610557338484610c53565b6005546001600160a01b031633146108b65760405162461bcd60e51b81526004016105ad90611594565b600a55565b6005546001600160a01b031633146108e55760405162461bcd60e51b81526004016105ad90611594565b600955565b604080516002808252606082018352600092602083019080368337019050509050308160008151811061091f5761091f6115e6565b6001600160a01b039283166020918202929092010152600754825191169082906001908110610950576109506115e6565b6001600160a01b03928316602091820292909201015260105461097b91309161010090041684610b5f565b601054601754604051635c11d79560e01b81526001600160a01b03610100909304831692635c11d795926109bd92879260009288929116904290600401611615565b600060405180830381600087803b1580156109d757600080fd5b505af19250505080156109e8575060015b610a16576040517ffa4626fc78df02cb8fdea85a8af60ad29e2c95f22e2a91c79d99631c288a8b6c90600090a15b6007546017546040516370a0823160e01b81526001600160a01b03928316926323b872dd921690309084906370a0823190610a5590859060040161148e565b602060405180830381865afa158015610a72573d6000803e3d6000fd5b505050506040513d601f19601f82011682018060405250810190610a9691906115fc565b6040516001600160e01b031960e086901b1681526001600160a01b03938416600482015292909116602483015260448201526064016020604051808303816000875af1158015610aea573d6000803e3d6000fd5b505050506040513d601f19601f82011682018060405250810190610b0e9190611686565b505050565b6005546001600160a01b03163314610b3d5760405162461bcd60e51b81526004016105ad90611594565b600580546001600160a01b0319166001600160a01b0392909216919091179055565b6001600160a01b0383811660008181526001602090815260408083209487168084529482529182902085905590518481527f8c5be1e5ebec7d5bd14f71427d1e84f3dd0314c0f7b2291e5b200ac8c7c3b92591015b60405180910390a3505050565b6001600160a01b038084166000908152600160209081526040808320938616835292905220546000198114610c4d5781811015610c405760405162461bcd60e51b815260206004820152601d60248201527f45524332303a20696e73756666696369656e7420616c6c6f77616e636500000060448201526064016105ad565b610c4d8484848403610b5f565b50505050565b6006546001600160a01b0316823b8015801590610c825750816001600160a01b0316846001600160a01b031614155b8015610c905750600f546001145b15610c9c575050505050565b816001600160a01b0316856001600160a01b031614158015610cd05750816001600160a01b0316846001600160a01b031614155b80610ce857506005546001600160a01b038681169116145b15610cff57610cf8858585610d85565b5050505050565b60105460ff16610d7e576010805460ff19166001179055610d208584610e13565b60006103e8610d3085600a6116be565b610d3a91906116d5565b9050610d4a863083600302610e6b565b610d5a8686836003028703610e6b565b610d6381610eac565b610d6d818761100c565b50506010805460ff19169055610cf8565b610cf88585855b6001600160a01b03831660009081526020819052604090205481811015610dbe5760405162461bcd60e51b81526004016105ad906116f7565b6001600160a01b038481166000818152602081815260408083208787039055938716808352918490208054870190559251858152909260008051602061177d833981519152910160405180910390a350505050565b6001600160a01b03821660009081526020819052604090205481811015610e4c5760405162461bcd60e51b81526004016105ad906116f7565b6001600160a01b03909216600090815260208190526040902091039055565b6001600160a01b03828116600081815260208181526040918290208054860190559051848152919286169160008051602061177d8339815191529101610bb4565b610eba6104848260036116be565b6007546040516370a0823160e01b81526001600160a01b039091169060009082906370a0823190610eef90309060040161148e565b602060405180830381865afa158015610f0c573d6000803e3d6000fd5b505050506040513d601f19601f82011682018060405250810190610f3091906115fc565b90508215610fe4576001600160a01b03821663a9059cbb73bf1c5c87b4b0f37443819cbb956215982d9f8a4b601e610f6985600a6116be565b610f7391906116d5565b6040516001600160e01b031960e085901b1681526001600160a01b03909216600483015260248201526044016020604051808303816000875af1158015610fbe573d6000803e3d6000fd5b505050506040513d601f19601f82011682018060405250810190610fe29190611686565b505b8015610b0e57610b0e601e610ffa83600a6116be565b61100491906116d5565b61dead6105d8565b600082600c6000828254611020919061173d565b9091555050600c54600d54106110385750600061055b565b6000600d54600c5461104a9190611750565b6007546040516370a0823160e01b81529192506001600160a01b03169060009082906370a082319061108090309060040161148e565b602060405180830381865afa15801561109d573d6000803e3d6000fd5b505050506040513d601f19601f820116820180604052508101906110c191906115fc565b9050600a548310156110d9576000935050505061055b565b6016546000908190819081908180805a90505b600b54831080156110fc57508382105b156112a05783600e5410611110576000600e555b6016600e5481548110611125576111256115e6565b60009182526020808320909101546001600160a01b031680835260129091526040909120549098509650861580159061116957506001600160a01b03881661dead14155b1561125e5760115461117b888d6116be565b61118591906116d5565b601154909650611195888b6116be565b61119f91906116d5565b9450841561125e576000886001600160a01b03168661753090604051600060405180830381858888f193505050503d80600081146111f9576040519150601f19603f3d011682016040523d82523d6000602084013e6111fe565b606091505b5050905080611245576040517f1a9b790b956c158919aa8bc58f418ee0b4c6548f2e701526fef9614f85a8d1e990600090a160009c5050505050505050505050505061055b565b86600d6000828254611257919061173d565b9091555050505b5a6112699082611750565b611273908461173d565b92505a600e8054919250600061128883611763565b9190505550818061129890611763565b9250506110ec565b436008556112ae8e8e6112c0565b50939c9b505050505050505050505050565b81601160008282546112d2919061173d565b90915550506001600160a01b03811660009081526015602052604090205415801561130b57506006546001600160a01b03828116911614155b156113d4576001600160a01b0381166000908152601260205260408120805484929061133890849061173d565b90915550506001600160a01b038116600090815260136020908152604080832042905560149091528120805434929061137290849061173d565b9091555050601680546001600160a01b0383166000818152601560205260408120839055600183018455929092527fd833147d7dc355ba459fc788f669e58cfaf9dc25ddcd0702e87d69c7b51242890180546001600160a01b03191690911790555b5050565b600060208083528351808285015260005b81811015611405578581018301518582016040015282016113e9565b506000604082860101526040601f19601f8301168501019250505092915050565b6001600160a01b038116811461143b57600080fd5b50565b6000806040838503121561145157600080fd5b823561145c81611426565b946020939093013593505050565b60006020828403121561147c57600080fd5b813561148781611426565b9392505050565b6001600160a01b0391909116815260200190565b6000806000606084860312156114b757600080fd5b83356114c281611426565b925060208401356114d281611426565b929592945050506040919091013590565b600080604083850312156114f657600080fd5b82359150602083013561150881611426565b809150509250929050565b60006020828403121561152557600080fd5b5035919050565b6000806040838503121561153f57600080fd5b823561154a81611426565b9150602083013561150881611426565b600181811c9082168061156e57607f821691505b60208210810361158e57634e487b7160e01b600052602260045260246000fd5b50919050565b6020808252818101527f4f776e61626c653a2063616c6c6572206973206e6f7420746865206f776e6572604082015260600190565b6000602082840312156115db57600080fd5b815161148781611426565b634e487b7160e01b600052603260045260246000fd5b60006020828403121561160e57600080fd5b5051919050565b600060a082018783526020878185015260a0604085015281875180845260c086019150828901935060005b818110156116655784516001600160a01b031683529383019391830191600101611640565b50506001600160a01b03969096166060850152505050608001529392505050565b60006020828403121561169857600080fd5b8151801515811461148757600080fd5b634e487b7160e01b600052601160045260246000fd5b808202811582820484141761055b5761055b6116a8565b6000826116f257634e487b7160e01b600052601260045260246000fd5b500490565b60208082526026908201527f45524332303a207472616e7366657220616d6f756e7420657863656564732062604082015265616c616e636560d01b606082015260800190565b8082018082111561055b5761055b6116a8565b8181038181111561055b5761055b6116a8565b600060018201611775576117756116a8565b506001019056feddf252ad1be2c89b69c2b068fc378daa952ba7f163c4a11628f55a4df523b3efa2646970667358221220addb2fa23f7e92a321ba48d19790e42363ecef9603f64aa7d2859f8a0e72605f64736f6c63430008140033608060405234801561001057600080fd5b5060405161014738038061014783398101604081905261002f916100a8565b60405163095ea7b360e01b815233600482015260001960248201526001600160a01b0382169063095ea7b3906044016020604051808303816000875af115801561007d573d6000803e3d6000fd5b505050506040513d601f19601f820116820180604052508101906100a191906100d8565b50506100fa565b6000602082840312156100ba57600080fd5b81516001600160a01b03811681146100d157600080fd5b9392505050565b6000602082840312156100ea57600080fd5b815180151581146100d157600080fd5b603f806101086000396000f3fe6080604052600080fdfea264697066735822122069799dfd453671dfd2026061795896f4f6ee21f12cf2c97112b4e506357d6eea64736f6c63430008140033",
					"opcodes": "PUSH1 0xA0 PUSH1 0x40 MSTORE CALLVALUE DUP1 ISZERO PUSH3 0x11 JUMPI PUSH1 0x0 DUP1 REVERT JUMPDEST POP PUSH1 0x40 DUP1 MLOAD DUP1 DUP3 ADD DUP3 MSTORE PUSH1 0x3 DUP1 DUP3 MSTORE PUSH3 0x20A1A1 PUSH1 0xE9 SHL PUSH1 0x20 DUP1 DUP5 ADD DUP3 SWAP1 MSTORE DUP5 MLOAD DUP1 DUP7 ADD SWAP1 SWAP6 MSTORE SWAP2 DUP5 MSTORE SWAP1 DUP4 ADD MSTORE SWAP1 PUSH1 0x12 PUSH13 0xC9F2C9CD04674EDEA40000000 PUSH1 0x2 PUSH3 0x5D DUP6 DUP3 PUSH3 0x490 JUMP JUMPDEST POP PUSH1 0x3 PUSH3 0x6C DUP5 DUP3 PUSH3 0x490 JUMP JUMPDEST POP PUSH1 0xFF DUP3 AND PUSH1 0x80 MSTORE PUSH3 0x80 CALLER DUP3 PUSH3 0x317 JUMP JUMPDEST POP POP PUSH1 0x5 DUP1 SLOAD PUSH1 0x1 PUSH1 0x1 PUSH1 0xA0 SHL SUB NOT AND CALLER OR SWAP1 SSTORE POP POP PUSH1 0x10 DUP1 SLOAD PUSH21 0x8CFE327CEC66D1C090DD72BD0FF11D690C33A2EB00 PUSH2 0x100 PUSH1 0x1 PUSH1 0xA8 SHL SUB NOT SWAP1 SWAP2 AND OR SWAP1 SSTORE PUSH1 0x40 DUP1 MLOAD PUSH4 0xC45A0155 PUSH1 0xE0 SHL DUP2 MSTORE SWAP1 MLOAD PUSH20 0x8CFE327CEC66D1C090DD72BD0FF11D690C33A2EB SWAP2 PUSH1 0x0 SWAP2 DUP4 SWAP2 PUSH4 0xC45A0155 SWAP2 PUSH1 0x4 DUP1 DUP4 ADD SWAP3 PUSH1 0x20 SWAP3 SWAP2 SWAP1 DUP3 SWAP1 SUB ADD DUP2 DUP7 GAS STATICCALL ISZERO DUP1 ISZERO PUSH3 0x116 JUMPI RETURNDATASIZE PUSH1 0x0 DUP1 RETURNDATACOPY RETURNDATASIZE PUSH1 0x0 REVERT JUMPDEST POP POP POP POP PUSH1 0x40 MLOAD RETURNDATASIZE PUSH1 0x1F NOT PUSH1 0x1F DUP3 ADD AND DUP3 ADD DUP1 PUSH1 0x40 MSTORE POP DUP2 ADD SWAP1 PUSH3 0x13C SWAP2 SWAP1 PUSH3 0x55C JUMP JUMPDEST PUSH1 0x1 PUSH1 0x1 PUSH1 0xA0 SHL SUB AND PUSH4 0xC9C65396 ADDRESS DUP5 PUSH1 0x1 PUSH1 0x1 PUSH1 0xA0 SHL SUB AND PUSH4 0xAD5C4648 PUSH1 0x40 MLOAD DUP2 PUSH4 0xFFFFFFFF AND PUSH1 0xE0 SHL DUP2 MSTORE PUSH1 0x4 ADD PUSH1 0x20 PUSH1 0x40 MLOAD DUP1 DUP4 SUB DUP2 DUP7 GAS STATICCALL ISZERO DUP1 ISZERO PUSH3 0x18A JUMPI RETURNDATASIZE PUSH1 0x0 DUP1 RETURNDATACOPY RETURNDATASIZE PUSH1 0x0 REVERT JUMPDEST POP POP POP POP PUSH1 0x40 MLOAD RETURNDATASIZE PUSH1 0x1F NOT PUSH1 0x1F DUP3 ADD AND DUP3 ADD DUP1 PUSH1 0x40 MSTORE POP DUP2 ADD SWAP1 PUSH3 0x1B0 SWAP2 SWAP1 PUSH3 0x55C JUMP JUMPDEST PUSH1 0x40 MLOAD PUSH1 0x1 PUSH1 0x1 PUSH1 0xE0 SHL SUB NOT PUSH1 0xE0 DUP6 SWAP1 SHL AND DUP2 MSTORE PUSH1 0x1 PUSH1 0x1 PUSH1 0xA0 SHL SUB SWAP3 DUP4 AND PUSH1 0x4 DUP3 ADD MSTORE SWAP2 AND PUSH1 0x24 DUP3 ADD MSTORE PUSH1 0x44 ADD PUSH1 0x20 PUSH1 0x40 MLOAD DUP1 DUP4 SUB DUP2 PUSH1 0x0 DUP8 GAS CALL ISZERO DUP1 ISZERO PUSH3 0x1FE JUMPI RETURNDATASIZE PUSH1 0x0 DUP1 RETURNDATACOPY RETURNDATASIZE PUSH1 0x0 REVERT JUMPDEST POP POP POP POP PUSH1 0x40 MLOAD RETURNDATASIZE PUSH1 0x1F NOT PUSH1 0x1F DUP3 ADD AND DUP3 ADD DUP1 PUSH1 0x40 MSTORE POP DUP2 ADD SWAP1 PUSH3 0x224 SWAP2 SWAP1 PUSH3 0x55C JUMP JUMPDEST PUSH1 0x10 DUP1 SLOAD PUSH1 0x1 PUSH1 0x1 PUSH1 0xA0 SHL SUB DUP1 DUP7 AND PUSH2 0x100 MUL PUSH2 0x100 PUSH1 0x1 PUSH1 0xA8 SHL SUB NOT SWAP1 SWAP3 AND SWAP2 SWAP1 SWAP2 OR SWAP1 SWAP2 SSTORE PUSH1 0x6 DUP1 SLOAD SWAP2 DUP4 AND PUSH1 0x1 PUSH1 0x1 PUSH1 0xA0 SHL SUB NOT SWAP3 DUP4 AND OR SWAP1 SSTORE PUSH1 0x0 PUSH1 0x11 DUP2 SWAP1 SSTORE PUSH1 0xC8 PUSH1 0x9 SSTORE PUSH7 0x2386F26FC10000 PUSH1 0xA SSTORE PUSH3 0x7A120 PUSH1 0xB SSTORE PUSH1 0xD DUP2 SWAP1 SSTORE PUSH1 0xC DUP2 SWAP1 SSTORE PUSH1 0xF SSTORE PUSH1 0x7 DUP1 SLOAD SWAP1 SWAP2 AND PUSH20 0x4200000000000000000000000000000000000006 SWAP1 DUP2 OR SWAP1 SWAP2 SSTORE PUSH1 0x40 MLOAD SWAP2 SWAP3 POP SWAP1 PUSH3 0x2C0 SWAP1 PUSH3 0x3DD JUMP JUMPDEST PUSH1 0x1 PUSH1 0x1 PUSH1 0xA0 SHL SUB SWAP1 SWAP2 AND DUP2 MSTORE PUSH1 0x20 ADD PUSH1 0x40 MLOAD DUP1 SWAP2 SUB SWAP1 PUSH1 0x0 CREATE DUP1 ISZERO DUP1 ISZERO PUSH3 0x2ED JUMPI RETURNDATASIZE PUSH1 0x0 DUP1 RETURNDATACOPY RETURNDATASIZE PUSH1 0x0 REVERT JUMPDEST POP PUSH1 0x17 DUP1 SLOAD PUSH1 0x1 PUSH1 0x1 PUSH1 0xA0 SHL SUB NOT AND PUSH1 0x1 PUSH1 0x1 PUSH1 0xA0 SHL SUB SWAP3 SWAP1 SWAP3 AND SWAP2 SWAP1 SWAP2 OR SWAP1 SSTORE POP PUSH3 0x5B6 SWAP1 POP JUMP JUMPDEST PUSH1 0x1 PUSH1 0x1 PUSH1 0xA0 SHL SUB DUP3 AND PUSH3 0x372 JUMPI PUSH1 0x40 MLOAD PUSH3 0x461BCD PUSH1 0xE5 SHL DUP2 MSTORE PUSH1 0x20 PUSH1 0x4 DUP3 ADD MSTORE PUSH1 0x1F PUSH1 0x24 DUP3 ADD MSTORE PUSH32 0x45524332303A206D696E7420746F20746865207A65726F206164647265737300 PUSH1 0x44 DUP3 ADD MSTORE PUSH1 0x64 ADD PUSH1 0x40 MLOAD DUP1 SWAP2 SUB SWAP1 REVERT JUMPDEST DUP1 PUSH1 0x4 PUSH1 0x0 DUP3 DUP3 SLOAD PUSH3 0x386 SWAP2 SWAP1 PUSH3 0x58E JUMP JUMPDEST SWAP1 SWAP2 SSTORE POP POP PUSH1 0x1 PUSH1 0x1 PUSH1 0xA0 SHL SUB DUP3 AND PUSH1 0x0 DUP2 DUP2 MSTORE PUSH1 0x20 DUP2 DUP2 MSTORE PUSH1 0x40 DUP1 DUP4 KECCAK256 DUP1 SLOAD DUP7 ADD SWAP1 SSTORE MLOAD DUP5 DUP2 MSTORE PUSH32 0xDDF252AD1BE2C89B69C2B068FC378DAA952BA7F163C4A11628F55A4DF523B3EF SWAP2 ADD PUSH1 0x40 MLOAD DUP1 SWAP2 SUB SWAP1 LOG3 POP POP JUMP JUMPDEST PUSH2 0x147 DUP1 PUSH3 0x1DA4 DUP4 CODECOPY ADD SWAP1 JUMP JUMPDEST PUSH4 0x4E487B71 PUSH1 0xE0 SHL PUSH1 0x0 MSTORE PUSH1 0x41 PUSH1 0x4 MSTORE PUSH1 0x24 PUSH1 0x0 REVERT JUMPDEST PUSH1 0x1 DUP2 DUP2 SHR SWAP1 DUP3 AND DUP1 PUSH3 0x416 JUMPI PUSH1 0x7F DUP3 AND SWAP2 POP JUMPDEST PUSH1 0x20 DUP3 LT DUP2 SUB PUSH3 0x437 JUMPI PUSH4 0x4E487B71 PUSH1 0xE0 SHL PUSH1 0x0 MSTORE PUSH1 0x22 PUSH1 0x4 MSTORE PUSH1 0x24 PUSH1 0x0 REVERT JUMPDEST POP SWAP2 SWAP1 POP JUMP JUMPDEST PUSH1 0x1F DUP3 GT ISZERO PUSH3 0x48B JUMPI PUSH1 0x0 DUP2 DUP2 MSTORE PUSH1 0x20 DUP2 KECCAK256 PUSH1 0x1F DUP6 ADD PUSH1 0x5 SHR DUP2 ADD PUSH1 0x20 DUP7 LT ISZERO PUSH3 0x466 JUMPI POP DUP1 JUMPDEST PUSH1 0x1F DUP6 ADD PUSH1 0x5 SHR DUP3 ADD SWAP2 POP JUMPDEST DUP2 DUP2 LT ISZERO PUSH3 0x487 JUMPI DUP3 DUP2 SSTORE PUSH1 0x1 ADD PUSH3 0x472 JUMP JUMPDEST POP POP POP JUMPDEST POP POP POP JUMP JUMPDEST DUP2 MLOAD PUSH1 0x1 PUSH1 0x1 PUSH1 0x40 SHL SUB DUP2 GT ISZERO PUSH3 0x4AC JUMPI PUSH3 0x4AC PUSH3 0x3EB JUMP JUMPDEST PUSH3 0x4C4 DUP2 PUSH3 0x4BD DUP5 SLOAD PUSH3 0x401 JUMP JUMPDEST DUP5 PUSH3 0x43D JUMP JUMPDEST PUSH1 0x20 DUP1 PUSH1 0x1F DUP4 GT PUSH1 0x1 DUP2 EQ PUSH3 0x4FC JUMPI PUSH1 0x0 DUP5 ISZERO PUSH3 0x4E3 JUMPI POP DUP6 DUP4 ADD MLOAD JUMPDEST PUSH1 0x0 NOT PUSH1 0x3 DUP7 SWAP1 SHL SHR NOT AND PUSH1 0x1 DUP6 SWAP1 SHL OR DUP6 SSTORE PUSH3 0x487 JUMP JUMPDEST PUSH1 0x0 DUP6 DUP2 MSTORE PUSH1 0x20 DUP2 KECCAK256 PUSH1 0x1F NOT DUP7 AND SWAP2 JUMPDEST DUP3 DUP2 LT ISZERO PUSH3 0x52D JUMPI DUP9 DUP7 ADD MLOAD DUP3 SSTORE SWAP5 DUP5 ADD SWAP5 PUSH1 0x1 SWAP1 SWAP2 ADD SWAP1 DUP5 ADD PUSH3 0x50C JUMP JUMPDEST POP DUP6 DUP3 LT ISZERO PUSH3 0x54C JUMPI DUP8 DUP6 ADD MLOAD PUSH1 0x0 NOT PUSH1 0x3 DUP9 SWAP1 SHL PUSH1 0xF8 AND SHR NOT AND DUP2 SSTORE JUMPDEST POP POP POP POP POP PUSH1 0x1 SWAP1 DUP2 SHL ADD SWAP1 SSTORE POP JUMP JUMPDEST PUSH1 0x0 PUSH1 0x20 DUP3 DUP5 SUB SLT ISZERO PUSH3 0x56F JUMPI PUSH1 0x0 DUP1 REVERT JUMPDEST DUP2 MLOAD PUSH1 0x1 PUSH1 0x1 PUSH1 0xA0 SHL SUB DUP2 AND DUP2 EQ PUSH3 0x587 JUMPI PUSH1 0x0 DUP1 REVERT JUMPDEST SWAP4 SWAP3 POP POP POP JUMP JUMPDEST DUP1 DUP3 ADD DUP1 DUP3 GT ISZERO PUSH3 0x5B0 JUMPI PUSH4 0x4E487B71 PUSH1 0xE0 SHL PUSH1 0x0 MSTORE PUSH1 0x11 PUSH1 0x4 MSTORE PUSH1 0x24 PUSH1 0x0 REVERT JUMPDEST SWAP3 SWAP2 POP POP JUMP JUMPDEST PUSH1 0x80 MLOAD PUSH2 0x17D2 PUSH3 0x5D2 PUSH1 0x0 CODECOPY PUSH1 0x0 PUSH2 0x282 ADD MSTORE PUSH2 0x17D2 PUSH1 0x0 RETURN INVALID PUSH1 0x80 PUSH1 0x40 MSTORE CALLVALUE DUP1 ISZERO PUSH2 0x10 JUMPI PUSH1 0x0 DUP1 REVERT JUMPDEST POP PUSH1 0x4 CALLDATASIZE LT PUSH2 0x1AC JUMPI PUSH1 0x0 CALLDATALOAD PUSH1 0xE0 SHR DUP1 PUSH4 0x6FDDE03 EQ PUSH2 0x1B1 JUMPI DUP1 PUSH4 0x95EA7B3 EQ PUSH2 0x1CF JUMPI DUP1 PUSH4 0xAFFB402 EQ PUSH2 0x1F2 JUMPI DUP1 PUSH4 0x1210C434 EQ PUSH2 0x220 JUMPI DUP1 PUSH4 0x1357A1DE EQ PUSH2 0x229 JUMPI DUP1 PUSH4 0x1694505E EQ PUSH2 0x232 JUMPI DUP1 PUSH4 0x18160DDD EQ PUSH2 0x257 JUMPI DUP1 PUSH4 0x23B872DD EQ PUSH2 0x25F JUMPI DUP1 PUSH4 0x2A595512 EQ PUSH2 0x272 JUMPI DUP1 PUSH4 0x313CE567 EQ PUSH2 0x27B JUMPI DUP1 PUSH4 0x46BB9271 EQ PUSH2 0x2AC JUMPI DUP1 PUSH4 0x4C2516DE EQ PUSH2 0x2C1 JUMPI DUP1 PUSH4 0x621F9C0A EQ PUSH2 0x2D4 JUMPI DUP1 PUSH4 0x6689567E EQ PUSH2 0x2DD JUMPI DUP1 PUSH4 0x68698B48 EQ PUSH2 0x2F0 JUMPI DUP1 PUSH4 0x6AEDEA73 EQ PUSH2 0x310 JUMPI DUP1 PUSH4 0x70A08231 EQ PUSH2 0x319 JUMPI DUP1 PUSH4 0x7EF925F7 EQ PUSH2 0x342 JUMPI DUP1 PUSH4 0x8322FFF2 EQ PUSH2 0x355 JUMPI DUP1 PUSH4 0x86623A06 EQ PUSH2 0x368 JUMPI DUP1 PUSH4 0x8718B24F EQ PUSH2 0x388 JUMPI DUP1 PUSH4 0x8DA5CB5B EQ PUSH2 0x39B JUMPI DUP1 PUSH4 0x95D89B41 EQ PUSH2 0x3AE JUMPI DUP1 PUSH4 0x9F0D7EB8 EQ PUSH2 0x3B6 JUMPI DUP1 PUSH4 0xA9059CBB EQ PUSH2 0x3C9 JUMPI DUP1 PUSH4 0xADD0A6C6 EQ PUSH2 0x3DC JUMPI DUP1 PUSH4 0xB367BF83 EQ PUSH2 0x3E5 JUMPI DUP1 PUSH4 0xB510EFA6 EQ PUSH2 0x3EE JUMPI DUP1 PUSH4 0xBD876702 EQ PUSH2 0x40E JUMPI DUP1 PUSH4 0xC213D62D EQ PUSH2 0x417 JUMPI DUP1 PUSH4 0xC7003ED0 EQ PUSH2 0x42A JUMPI DUP1 PUSH4 0xDD62ED3E EQ PUSH2 0x43D JUMPI DUP1 PUSH4 0xE8C60137 EQ PUSH2 0x476 JUMPI DUP1 PUSH4 0xEB10B741 EQ PUSH2 0x489 JUMPI DUP1 PUSH4 0xED9A165D EQ PUSH2 0x492 JUMPI DUP1 PUSH4 0xF2FDE38B EQ PUSH2 0x4A5 JUMPI JUMPDEST PUSH1 0x0 DUP1 REVERT JUMPDEST PUSH2 0x1B9 PUSH2 0x4B8 JUMP JUMPDEST PUSH1 0x40 MLOAD PUSH2 0x1C6 SWAP2 SWAP1 PUSH2 0x13D8 JUMP JUMPDEST PUSH1 0x40 MLOAD DUP1 SWAP2 SUB SWAP1 RETURN JUMPDEST PUSH2 0x1E2 PUSH2 0x1DD CALLDATASIZE PUSH1 0x4 PUSH2 0x143E JUMP JUMPDEST PUSH2 0x54A JUMP JUMPDEST PUSH1 0x40 MLOAD SWAP1 ISZERO ISZERO DUP2 MSTORE PUSH1 0x20 ADD PUSH2 0x1C6 JUMP JUMPDEST PUSH2 0x212 PUSH2 0x200 CALLDATASIZE PUSH1 0x4 PUSH2 0x146A JUMP JUMPDEST PUSH1 0x15 PUSH1 0x20 MSTORE PUSH1 0x0 SWAP1 DUP2 MSTORE PUSH1 0x40 SWAP1 KECCAK256 SLOAD DUP2 JUMP JUMPDEST PUSH1 0x40 MLOAD SWAP1 DUP2 MSTORE PUSH1 0x20 ADD PUSH2 0x1C6 JUMP JUMPDEST PUSH2 0x212 PUSH1 0xE SLOAD DUP2 JUMP JUMPDEST PUSH2 0x212 PUSH1 0xF SLOAD DUP2 JUMP JUMPDEST PUSH1 0x10 SLOAD PUSH2 0x24A SWAP1 PUSH2 0x100 SWAP1 DIV PUSH1 0x1 PUSH1 0x1 PUSH1 0xA0 SHL SUB AND DUP2 JUMP JUMPDEST PUSH1 0x40 MLOAD PUSH2 0x1C6 SWAP2 SWAP1 PUSH2 0x148E JUMP JUMPDEST PUSH1 0x4 SLOAD PUSH2 0x212 JUMP JUMPDEST PUSH2 0x1E2 PUSH2 0x26D CALLDATASIZE PUSH1 0x4 PUSH2 0x14A2 JUMP JUMPDEST PUSH2 0x561 JUMP JUMPDEST PUSH2 0x212 PUSH1 0x8 SLOAD DUP2 JUMP JUMPDEST PUSH1 0x40 MLOAD PUSH1 0xFF PUSH32 0x0 AND DUP2 MSTORE PUSH1 0x20 ADD PUSH2 0x1C6 JUMP JUMPDEST PUSH2 0x2BF PUSH2 0x2BA CALLDATASIZE PUSH1 0x4 PUSH2 0x146A JUMP JUMPDEST PUSH2 0x583 JUMP JUMPDEST STOP JUMPDEST PUSH2 0x2BF PUSH2 0x2CF CALLDATASIZE PUSH1 0x4 PUSH2 0x14E3 JUMP JUMPDEST PUSH2 0x5D8 JUMP JUMPDEST PUSH2 0x212 PUSH1 0xC SLOAD DUP2 JUMP JUMPDEST PUSH2 0x2BF PUSH2 0x2EB CALLDATASIZE PUSH1 0x4 PUSH2 0x1513 JUMP JUMPDEST PUSH2 0x7E8 JUMP JUMPDEST PUSH2 0x212 PUSH2 0x2FE CALLDATASIZE PUSH1 0x4 PUSH2 0x146A JUMP JUMPDEST PUSH1 0x12 PUSH1 0x20 MSTORE PUSH1 0x0 SWAP1 DUP2 MSTORE PUSH1 0x40 SWAP1 KECCAK256 SLOAD DUP2 JUMP JUMPDEST PUSH2 0x212 PUSH1 0x11 SLOAD DUP2 JUMP JUMPDEST PUSH2 0x212 PUSH2 0x327 CALLDATASIZE PUSH1 0x4 PUSH2 0x146A JUMP JUMPDEST PUSH1 0x1 PUSH1 0x1 PUSH1 0xA0 SHL SUB AND PUSH1 0x0 SWAP1 DUP2 MSTORE PUSH1 0x20 DUP2 SWAP1 MSTORE PUSH1 0x40 SWAP1 KECCAK256 SLOAD SWAP1 JUMP JUMPDEST PUSH2 0x2BF PUSH2 0x350 CALLDATASIZE PUSH1 0x4 PUSH2 0x1513 JUMP JUMPDEST PUSH2 0x817 JUMP JUMPDEST PUSH1 0x7 SLOAD PUSH2 0x24A SWAP1 PUSH1 0x1 PUSH1 0x1 PUSH1 0xA0 SHL SUB AND DUP2 JUMP JUMPDEST PUSH2 0x212 PUSH2 0x376 CALLDATASIZE PUSH1 0x4 PUSH2 0x146A JUMP JUMPDEST PUSH1 0x13 PUSH1 0x20 MSTORE PUSH1 0x0 SWAP1 DUP2 MSTORE PUSH1 0x40 SWAP1 KECCAK256 SLOAD DUP2 JUMP JUMPDEST PUSH1 0x17 SLOAD PUSH2 0x24A SWAP1 PUSH1 0x1 PUSH1 0x1 PUSH1 0xA0 SHL SUB AND DUP2 JUMP JUMPDEST PUSH1 0x5 SLOAD PUSH2 0x24A SWAP1 PUSH1 0x1 PUSH1 0x1 PUSH1 0xA0 SHL SUB AND DUP2 JUMP JUMPDEST PUSH2 0x1B9 PUSH2 0x846 JUMP JUMPDEST PUSH2 0x24A PUSH2 0x3C4 CALLDATASIZE PUSH1 0x4 PUSH2 0x1513 JUMP JUMPDEST PUSH2 0x855 JUMP JUMPDEST PUSH2 0x1E2 PUSH2 0x3D7 CALLDATASIZE PUSH1 0x4 PUSH2 0x143E JUMP JUMPDEST PUSH2 0x87F JUMP JUMPDEST PUSH2 0x212 PUSH1 0x9 SLOAD DUP2 JUMP JUMPDEST PUSH2 0x212 PUSH1 0xD SLOAD DUP2 JUMP JUMPDEST PUSH2 0x212 PUSH2 0x3FC CALLDATASIZE PUSH1 0x4 PUSH2 0x146A JUMP JUMPDEST PUSH1 0x14 PUSH1 0x20 MSTORE PUSH1 0x0 SWAP1 DUP2 MSTORE PUSH1 0x40 SWAP1 KECCAK256 SLOAD DUP2 JUMP JUMPDEST PUSH2 0x212 PUSH1 0xB SLOAD DUP2 JUMP JUMPDEST PUSH2 0x2BF PUSH2 0x425 CALLDATASIZE PUSH1 0x4 PUSH2 0x1513 JUMP JUMPDEST PUSH2 0x88C JUMP JUMPDEST PUSH2 0x2BF PUSH2 0x438 CALLDATASIZE PUSH1 0x4 PUSH2 0x1513 JUMP JUMPDEST PUSH2 0x8BB JUMP JUMPDEST PUSH2 0x212 PUSH2 0x44B CALLDATASIZE PUSH1 0x4 PUSH2 0x152C JUMP JUMPDEST PUSH1 0x1 PUSH1 0x1 PUSH1 0xA0 SHL SUB SWAP2 DUP3 AND PUSH1 0x0 SWAP1 DUP2 MSTORE PUSH1 0x1 PUSH1 0x20 SWAP1 DUP2 MSTORE PUSH1 0x40 DUP1 DUP4 KECCAK256 SWAP4 SWAP1 SWAP5 AND DUP3 MSTORE SWAP2 SWAP1 SWAP2 MSTORE KECCAK256 SLOAD SWAP1 JUMP JUMPDEST PUSH2 0x2BF PUSH2 0x484 CALLDATASIZE PUSH1 0x4 PUSH2 0x1513 JUMP JUMPDEST PUSH2 0x8EA JUMP JUMPDEST PUSH2 0x212 PUSH1 0xA SLOAD DUP2 JUMP JUMPDEST PUSH1 0x6 SLOAD PUSH2 0x24A SWAP1 PUSH1 0x1 PUSH1 0x1 PUSH1 0xA0 SHL SUB AND DUP2 JUMP JUMPDEST PUSH2 0x2BF PUSH2 0x4B3 CALLDATASIZE PUSH1 0x4 PUSH2 0x146A JUMP JUMPDEST PUSH2 0xB13 JUMP JUMPDEST PUSH1 0x60 PUSH1 0x3 DUP1 SLOAD PUSH2 0x4C7 SWAP1 PUSH2 0x155A JUMP JUMPDEST DUP1 PUSH1 0x1F ADD PUSH1 0x20 DUP1 SWAP2 DIV MUL PUSH1 0x20 ADD PUSH1 0x40 MLOAD SWAP1 DUP2 ADD PUSH1 0x40 MSTORE DUP1 SWAP3 SWAP2 SWAP1 DUP2 DUP2 MSTORE PUSH1 0x20 ADD DUP3 DUP1 SLOAD PUSH2 0x4F3 SWAP1 PUSH2 0x155A JUMP JUMPDEST DUP1 ISZERO PUSH2 0x540 JUMPI DUP1 PUSH1 0x1F LT PUSH2 0x515 JUMPI PUSH2 0x100 DUP1 DUP4 SLOAD DIV MUL DUP4 MSTORE SWAP2 PUSH1 0x20 ADD SWAP2 PUSH2 0x540 JUMP JUMPDEST DUP3 ADD SWAP2 SWAP1 PUSH1 0x0 MSTORE PUSH1 0x20 PUSH1 0x0 KECCAK256 SWAP1 JUMPDEST DUP2 SLOAD DUP2 MSTORE SWAP1 PUSH1 0x1 ADD SWAP1 PUSH1 0x20 ADD DUP1 DUP4 GT PUSH2 0x523 JUMPI DUP3 SWAP1 SUB PUSH1 0x1F AND DUP3 ADD SWAP2 JUMPDEST POP POP POP POP POP SWAP1 POP SWAP1 JUMP JUMPDEST PUSH1 0x0 PUSH2 0x557 CALLER DUP5 DUP5 PUSH2 0xB5F JUMP JUMPDEST POP PUSH1 0x1 JUMPDEST SWAP3 SWAP2 POP POP JUMP JUMPDEST PUSH1 0x0 PUSH2 0x56E DUP5 CALLER DUP5 PUSH2 0xBC1 JUMP JUMPDEST PUSH2 0x579 DUP5 DUP5 DUP5 PUSH2 0xC53 JUMP JUMPDEST POP PUSH1 0x1 SWAP4 SWAP3 POP POP POP JUMP JUMPDEST PUSH1 0x5 SLOAD PUSH1 0x1 PUSH1 0x1 PUSH1 0xA0 SHL SUB AND CALLER EQ PUSH2 0x5B6 JUMPI PUSH1 0x40 MLOAD PUSH3 0x461BCD PUSH1 0xE5 SHL DUP2 MSTORE PUSH1 0x4 ADD PUSH2 0x5AD SWAP1 PUSH2 0x1594 JUMP JUMPDEST PUSH1 0x40 MLOAD DUP1 SWAP2 SUB SWAP1 REVERT JUMPDEST PUSH1 0x6 DUP1 SLOAD PUSH1 0x1 PUSH1 0x1 PUSH1 0xA0 SHL SUB NOT AND PUSH1 0x1 PUSH1 0x1 PUSH1 0xA0 SHL SUB SWAP3 SWAP1 SWAP3 AND SWAP2 SWAP1 SWAP2 OR SWAP1 SSTORE JUMP JUMPDEST PUSH1 0x10 DUP1 SLOAD PUSH1 0xFF NOT AND PUSH1 0x1 OR SWAP1 DUP2 SWAP1 SSTORE PUSH1 0x40 DUP1 MLOAD PUSH4 0x15AB88C9 PUSH1 0xE3 SHL DUP2 MSTORE SWAP1 MLOAD PUSH1 0x0 SWAP3 PUSH1 0x1 PUSH1 0x1 PUSH1 0xA0 SHL SUB PUSH2 0x100 SWAP1 SWAP2 DIV AND SWAP2 PUSH4 0xAD5C4648 SWAP2 PUSH1 0x4 DUP1 DUP4 ADD SWAP3 PUSH1 0x20 SWAP3 SWAP2 SWAP1 DUP3 SWAP1 SUB ADD DUP2 DUP7 GAS STATICCALL ISZERO DUP1 ISZERO PUSH2 0x634 JUMPI RETURNDATASIZE PUSH1 0x0 DUP1 RETURNDATACOPY RETURNDATASIZE PUSH1 0x0 REVERT JUMPDEST POP POP POP POP PUSH1 0x40 MLOAD RETURNDATASIZE PUSH1 0x1F NOT PUSH1 0x1F DUP3 ADD AND DUP3 ADD DUP1 PUSH1 0x40 MSTORE POP DUP2 ADD SWAP1 PUSH2 0x658 SWAP2 SWAP1 PUSH2 0x15C9 JUMP JUMPDEST PUSH1 0x40 DUP1 MLOAD PUSH1 0x2 DUP1 DUP3 MSTORE PUSH1 0x60 DUP3 ADD DUP4 MSTORE SWAP3 SWAP4 POP PUSH1 0x0 SWAP3 SWAP1 SWAP2 PUSH1 0x20 DUP4 ADD SWAP1 DUP1 CALLDATASIZE DUP4 CALLDATACOPY ADD SWAP1 POP POP SWAP1 POP DUP2 DUP2 PUSH1 0x0 DUP2 MLOAD DUP2 LT PUSH2 0x692 JUMPI PUSH2 0x692 PUSH2 0x15E6 JUMP JUMPDEST PUSH1 0x20 MUL PUSH1 0x20 ADD ADD SWAP1 PUSH1 0x1 PUSH1 0x1 PUSH1 0xA0 SHL SUB AND SWAP1 DUP2 PUSH1 0x1 PUSH1 0x1 PUSH1 0xA0 SHL SUB AND DUP2 MSTORE POP POP ADDRESS DUP2 PUSH1 0x1 DUP2 MLOAD DUP2 LT PUSH2 0x6C6 JUMPI PUSH2 0x6C6 PUSH2 0x15E6 JUMP JUMPDEST PUSH1 0x1 PUSH1 0x1 PUSH1 0xA0 SHL SUB SWAP3 DUP4 AND PUSH1 0x20 SWAP2 DUP3 MUL SWAP3 SWAP1 SWAP3 ADD ADD MSTORE PUSH1 0x40 MLOAD PUSH4 0x70A08231 PUSH1 0xE0 SHL DUP2 MSTORE PUSH1 0x0 SWAP2 DUP5 AND SWAP1 PUSH4 0x70A08231 SWAP1 PUSH2 0x703 SWAP1 ADDRESS SWAP1 PUSH1 0x4 ADD PUSH2 0x148E JUMP JUMPDEST PUSH1 0x20 PUSH1 0x40 MLOAD DUP1 DUP4 SUB DUP2 DUP7 GAS STATICCALL ISZERO DUP1 ISZERO PUSH2 0x720 JUMPI RETURNDATASIZE PUSH1 0x0 DUP1 RETURNDATACOPY RETURNDATASIZE PUSH1 0x0 REVERT JUMPDEST POP POP POP POP PUSH1 0x40 MLOAD RETURNDATASIZE PUSH1 0x1F NOT PUSH1 0x1F DUP3 ADD AND DUP3 ADD DUP1 PUSH1 0x40 MSTORE POP DUP2 ADD SWAP1 PUSH2 0x744 SWAP2 SWAP1 PUSH2 0x15FC JUMP JUMPDEST SWAP1 POP DUP1 DUP6 GT PUSH2 0x753 JUMPI DUP5 PUSH2 0x755 JUMP JUMPDEST DUP1 JUMPDEST SWAP5 POP DUP5 PUSH1 0x0 SUB PUSH2 0x767 JUMPI POP POP POP PUSH2 0x7DA JUMP JUMPDEST PUSH1 0x10 SLOAD PUSH1 0x40 MLOAD PUSH4 0x5C11D795 PUSH1 0xE0 SHL DUP2 MSTORE PUSH2 0x100 SWAP1 SWAP2 DIV PUSH1 0x1 PUSH1 0x1 PUSH1 0xA0 SHL SUB AND SWAP1 PUSH4 0x5C11D795 SWAP1 PUSH2 0x7A4 SWAP1 DUP9 SWAP1 PUSH1 0x0 SWAP1 DUP8 SWAP1 DUP11 SWAP1 TIMESTAMP SWAP1 PUSH1 0x4 ADD PUSH2 0x1615 JUMP JUMPDEST PUSH1 0x0 PUSH1 0x40 MLOAD DUP1 DUP4 SUB DUP2 PUSH1 0x0 DUP8 DUP1 EXTCODESIZE ISZERO DUP1 ISZERO PUSH2 0x7BE JUMPI PUSH1 0x0 DUP1 REVERT JUMPDEST POP GAS CALL ISZERO DUP1 ISZERO PUSH2 0x7D2 JUMPI RETURNDATASIZE PUSH1 0x0 DUP1 RETURNDATACOPY RETURNDATASIZE PUSH1 0x0 REVERT JUMPDEST POP POP POP POP POP POP POP JUMPDEST POP POP PUSH1 0x10 DUP1 SLOAD PUSH1 0xFF NOT AND SWAP1 SSTORE JUMP JUMPDEST PUSH1 0x5 SLOAD PUSH1 0x1 PUSH1 0x1 PUSH1 0xA0 SHL SUB AND CALLER EQ PUSH2 0x812 JUMPI PUSH1 0x40 MLOAD PUSH3 0x461BCD PUSH1 0xE5 SHL DUP2 MSTORE PUSH1 0x4 ADD PUSH2 0x5AD SWAP1 PUSH2 0x1594 JUMP JUMPDEST PUSH1 0xB SSTORE JUMP JUMPDEST PUSH1 0x5 SLOAD PUSH1 0x1 PUSH1 0x1 PUSH1 0xA0 SHL SUB AND CALLER EQ PUSH2 0x841 JUMPI PUSH1 0x40 MLOAD PUSH3 0x461BCD PUSH1 0xE5 SHL DUP2 MSTORE PUSH1 0x4 ADD PUSH2 0x5AD SWAP1 PUSH2 0x1594 JUMP JUMPDEST PUSH1 0xF SSTORE JUMP JUMPDEST PUSH1 0x60 PUSH1 0x2 DUP1 SLOAD PUSH2 0x4C7 SWAP1 PUSH2 0x155A JUMP JUMPDEST PUSH1 0x16 DUP2 DUP2 SLOAD DUP2 LT PUSH2 0x865 JUMPI PUSH1 0x0 DUP1 REVERT JUMPDEST PUSH1 0x0 SWAP2 DUP3 MSTORE PUSH1 0x20 SWAP1 SWAP2 KECCAK256 ADD SLOAD PUSH1 0x1 PUSH1 0x1 PUSH1 0xA0 SHL SUB AND SWAP1 POP DUP2 JUMP JUMPDEST PUSH1 0x0 PUSH2 0x557 CALLER DUP5 DUP5 PUSH2 0xC53 JUMP JUMPDEST PUSH1 0x5 SLOAD PUSH1 0x1 PUSH1 0x1 PUSH1 0xA0 SHL SUB AND CALLER EQ PUSH2 0x8B6 JUMPI PUSH1 0x40 MLOAD PUSH3 0x461BCD PUSH1 0xE5 SHL DUP2 MSTORE PUSH1 0x4 ADD PUSH2 0x5AD SWAP1 PUSH2 0x1594 JUMP JUMPDEST PUSH1 0xA SSTORE JUMP JUMPDEST PUSH1 0x5 SLOAD PUSH1 0x1 PUSH1 0x1 PUSH1 0xA0 SHL SUB AND CALLER EQ PUSH2 0x8E5 JUMPI PUSH1 0x40 MLOAD PUSH3 0x461BCD PUSH1 0xE5 SHL DUP2 MSTORE PUSH1 0x4 ADD PUSH2 0x5AD SWAP1 PUSH2 0x1594 JUMP JUMPDEST PUSH1 0x9 SSTORE JUMP JUMPDEST PUSH1 0x40 DUP1 MLOAD PUSH1 0x2 DUP1 DUP3 MSTORE PUSH1 0x60 DUP3 ADD DUP4 MSTORE PUSH1 0x0 SWAP3 PUSH1 0x20 DUP4 ADD SWAP1 DUP1 CALLDATASIZE DUP4 CALLDATACOPY ADD SWAP1 POP POP SWAP1 POP ADDRESS DUP2 PUSH1 0x0 DUP2 MLOAD DUP2 LT PUSH2 0x91F JUMPI PUSH2 0x91F PUSH2 0x15E6 JUMP JUMPDEST PUSH1 0x1 PUSH1 0x1 PUSH1 0xA0 SHL SUB SWAP3 DUP4 AND PUSH1 0x20 SWAP2 DUP3 MUL SWAP3 SWAP1 SWAP3 ADD ADD MSTORE PUSH1 0x7 SLOAD DUP3 MLOAD SWAP2 AND SWAP1 DUP3 SWAP1 PUSH1 0x1 SWAP1 DUP2 LT PUSH2 0x950 JUMPI PUSH2 0x950 PUSH2 0x15E6 JUMP JUMPDEST PUSH1 0x1 PUSH1 0x1 PUSH1 0xA0 SHL SUB SWAP3 DUP4 AND PUSH1 0x20 SWAP2 DUP3 MUL SWAP3 SWAP1 SWAP3 ADD ADD MSTORE PUSH1 0x10 SLOAD PUSH2 0x97B SWAP2 ADDRESS SWAP2 PUSH2 0x100 SWAP1 DIV AND DUP5 PUSH2 0xB5F JUMP JUMPDEST PUSH1 0x10 SLOAD PUSH1 0x17 SLOAD PUSH1 0x40 MLOAD PUSH4 0x5C11D795 PUSH1 0xE0 SHL DUP2 MSTORE PUSH1 0x1 PUSH1 0x1 PUSH1 0xA0 SHL SUB PUSH2 0x100 SWAP1 SWAP4 DIV DUP4 AND SWAP3 PUSH4 0x5C11D795 SWAP3 PUSH2 0x9BD SWAP3 DUP8 SWAP3 PUSH1 0x0 SWAP3 DUP9 SWAP3 SWAP2 AND SWAP1 TIMESTAMP SWAP1 PUSH1 0x4 ADD PUSH2 0x1615 JUMP JUMPDEST PUSH1 0x0 PUSH1 0x40 MLOAD DUP1 DUP4 SUB DUP2 PUSH1 0x0 DUP8 DUP1 EXTCODESIZE ISZERO DUP1 ISZERO PUSH2 0x9D7 JUMPI PUSH1 0x0 DUP1 REVERT JUMPDEST POP GAS CALL SWAP3 POP POP POP DUP1 ISZERO PUSH2 0x9E8 JUMPI POP PUSH1 0x1 JUMPDEST PUSH2 0xA16 JUMPI PUSH1 0x40 MLOAD PUSH32 0xFA4626FC78DF02CB8FDEA85A8AF60AD29E2C95F22E2A91C79D99631C288A8B6C SWAP1 PUSH1 0x0 SWAP1 LOG1 JUMPDEST PUSH1 0x7 SLOAD PUSH1 0x17 SLOAD PUSH1 0x40 MLOAD PUSH4 0x70A08231 PUSH1 0xE0 SHL DUP2 MSTORE PUSH1 0x1 PUSH1 0x1 PUSH1 0xA0 SHL SUB SWAP3 DUP4 AND SWAP3 PUSH4 0x23B872DD SWAP3 AND SWAP1 ADDRESS SWAP1 DUP5 SWAP1 PUSH4 0x70A08231 SWAP1 PUSH2 0xA55 SWAP1 DUP6 SWAP1 PUSH1 0x4 ADD PUSH2 0x148E JUMP JUMPDEST PUSH1 0x20 PUSH1 0x40 MLOAD DUP1 DUP4 SUB DUP2 DUP7 GAS STATICCALL ISZERO DUP1 ISZERO PUSH2 0xA72 JUMPI RETURNDATASIZE PUSH1 0x0 DUP1 RETURNDATACOPY RETURNDATASIZE PUSH1 0x0 REVERT JUMPDEST POP POP POP POP PUSH1 0x40 MLOAD RETURNDATASIZE PUSH1 0x1F NOT PUSH1 0x1F DUP3 ADD AND DUP3 ADD DUP1 PUSH1 0x40 MSTORE POP DUP2 ADD SWAP1 PUSH2 0xA96 SWAP2 SWAP1 PUSH2 0x15FC JUMP JUMPDEST PUSH1 0x40 MLOAD PUSH1 0x1 PUSH1 0x1 PUSH1 0xE0 SHL SUB NOT PUSH1 0xE0 DUP7 SWAP1 SHL AND DUP2 MSTORE PUSH1 0x1 PUSH1 0x1 PUSH1 0xA0 SHL SUB SWAP4 DUP5 AND PUSH1 0x4 DUP3 ADD MSTORE SWAP3 SWAP1 SWAP2 AND PUSH1 0x24 DUP4 ADD MSTORE PUSH1 0x44 DUP3 ADD MSTORE PUSH1 0x64 ADD PUSH1 0x20 PUSH1 0x40 MLOAD DUP1 DUP4 SUB DUP2 PUSH1 0x0 DUP8 GAS CALL ISZERO DUP1 ISZERO PUSH2 0xAEA JUMPI RETURNDATASIZE PUSH1 0x0 DUP1 RETURNDATACOPY RETURNDATASIZE PUSH1 0x0 REVERT JUMPDEST POP POP POP POP PUSH1 0x40 MLOAD RETURNDATASIZE PUSH1 0x1F NOT PUSH1 0x1F DUP3 ADD AND DUP3 ADD DUP1 PUSH1 0x40 MSTORE POP DUP2 ADD SWAP1 PUSH2 0xB0E SWAP2 SWAP1 PUSH2 0x1686 JUMP JUMPDEST POP POP POP JUMP JUMPDEST PUSH1 0x5 SLOAD PUSH1 0x1 PUSH1 0x1 PUSH1 0xA0 SHL SUB AND CALLER EQ PUSH2 0xB3D JUMPI PUSH1 0x40 MLOAD PUSH3 0x461BCD PUSH1 0xE5 SHL DUP2 MSTORE PUSH1 0x4 ADD PUSH2 0x5AD SWAP1 PUSH2 0x1594 JUMP JUMPDEST PUSH1 0x5 DUP1 SLOAD PUSH1 0x1 PUSH1 0x1 PUSH1 0xA0 SHL SUB NOT AND PUSH1 0x1 PUSH1 0x1 PUSH1 0xA0 SHL SUB SWAP3 SWAP1 SWAP3 AND SWAP2 SWAP1 SWAP2 OR SWAP1 SSTORE JUMP JUMPDEST PUSH1 0x1 PUSH1 0x1 PUSH1 0xA0 SHL SUB DUP4 DUP2 AND PUSH1 0x0 DUP2 DUP2 MSTORE PUSH1 0x1 PUSH1 0x20 SWAP1 DUP2 MSTORE PUSH1 0x40 DUP1 DUP4 KECCAK256 SWAP5 DUP8 AND DUP1 DUP5 MSTORE SWAP5 DUP3 MSTORE SWAP2 DUP3 SWAP1 KECCAK256 DUP6 SWAP1 SSTORE SWAP1 MLOAD DUP5 DUP2 MSTORE PUSH32 0x8C5BE1E5EBEC7D5BD14F71427D1E84F3DD0314C0F7B2291E5B200AC8C7C3B925 SWAP2 ADD JUMPDEST PUSH1 0x40 MLOAD DUP1 SWAP2 SUB SWAP1 LOG3 POP POP POP JUMP JUMPDEST PUSH1 0x1 PUSH1 0x1 PUSH1 0xA0 SHL SUB DUP1 DUP5 AND PUSH1 0x0 SWAP1 DUP2 MSTORE PUSH1 0x1 PUSH1 0x20 SWAP1 DUP2 MSTORE PUSH1 0x40 DUP1 DUP4 KECCAK256 SWAP4 DUP7 AND DUP4 MSTORE SWAP3 SWAP1 MSTORE KECCAK256 SLOAD PUSH1 0x0 NOT DUP2 EQ PUSH2 0xC4D JUMPI DUP2 DUP2 LT ISZERO PUSH2 0xC40 JUMPI PUSH1 0x40 MLOAD PUSH3 0x461BCD PUSH1 0xE5 SHL DUP2 MSTORE PUSH1 0x20 PUSH1 0x4 DUP3 ADD MSTORE PUSH1 0x1D PUSH1 0x24 DUP3 ADD MSTORE PUSH32 0x45524332303A20696E73756666696369656E7420616C6C6F77616E6365000000 PUSH1 0x44 DUP3 ADD MSTORE PUSH1 0x64 ADD PUSH2 0x5AD JUMP JUMPDEST PUSH2 0xC4D DUP5 DUP5 DUP5 DUP5 SUB PUSH2 0xB5F JUMP JUMPDEST POP POP POP POP JUMP JUMPDEST PUSH1 0x6 SLOAD PUSH1 0x1 PUSH1 0x1 PUSH1 0xA0 SHL SUB AND DUP3 EXTCODESIZE DUP1 ISZERO DUP1 ISZERO SWAP1 PUSH2 0xC82 JUMPI POP DUP2 PUSH1 0x1 PUSH1 0x1 PUSH1 0xA0 SHL SUB AND DUP5 PUSH1 0x1 PUSH1 0x1 PUSH1 0xA0 SHL SUB AND EQ ISZERO JUMPDEST DUP1 ISZERO PUSH2 0xC90 JUMPI POP PUSH1 0xF SLOAD PUSH1 0x1 EQ JUMPDEST ISZERO PUSH2 0xC9C JUMPI POP POP POP POP POP JUMP JUMPDEST DUP2 PUSH1 0x1 PUSH1 0x1 PUSH1 0xA0 SHL SUB AND DUP6 PUSH1 0x1 PUSH1 0x1 PUSH1 0xA0 SHL SUB AND EQ ISZERO DUP1 ISZERO PUSH2 0xCD0 JUMPI POP DUP2 PUSH1 0x1 PUSH1 0x1 PUSH1 0xA0 SHL SUB AND DUP5 PUSH1 0x1 PUSH1 0x1 PUSH1 0xA0 SHL SUB AND EQ ISZERO JUMPDEST DUP1 PUSH2 0xCE8 JUMPI POP PUSH1 0x5 SLOAD PUSH1 0x1 PUSH1 0x1 PUSH1 0xA0 SHL SUB DUP7 DUP2 AND SWAP2 AND EQ JUMPDEST ISZERO PUSH2 0xCFF JUMPI PUSH2 0xCF8 DUP6 DUP6 DUP6 PUSH2 0xD85 JUMP JUMPDEST POP POP POP POP POP JUMP JUMPDEST PUSH1 0x10 SLOAD PUSH1 0xFF AND PUSH2 0xD7E JUMPI PUSH1 0x10 DUP1 SLOAD PUSH1 0xFF NOT AND PUSH1 0x1 OR SWAP1 SSTORE PUSH2 0xD20 DUP6 DUP5 PUSH2 0xE13 JUMP JUMPDEST PUSH1 0x0 PUSH2 0x3E8 PUSH2 0xD30 DUP6 PUSH1 0xA PUSH2 0x16BE JUMP JUMPDEST PUSH2 0xD3A SWAP2 SWAP1 PUSH2 0x16D5 JUMP JUMPDEST SWAP1 POP PUSH2 0xD4A DUP7 ADDRESS DUP4 PUSH1 0x3 MUL PUSH2 0xE6B JUMP JUMPDEST PUSH2 0xD5A DUP7 DUP7 DUP4 PUSH1 0x3 MUL DUP8 SUB PUSH2 0xE6B JUMP JUMPDEST PUSH2 0xD63 DUP2 PUSH2 0xEAC JUMP JUMPDEST PUSH2 0xD6D DUP2 DUP8 PUSH2 0x100C JUMP JUMPDEST POP POP PUSH1 0x10 DUP1 SLOAD PUSH1 0xFF NOT AND SWAP1 SSTORE PUSH2 0xCF8 JUMP JUMPDEST PUSH2 0xCF8 DUP6 DUP6 DUP6 JUMPDEST PUSH1 0x1 PUSH1 0x1 PUSH1 0xA0 SHL SUB DUP4 AND PUSH1 0x0 SWAP1 DUP2 MSTORE PUSH1 0x20 DUP2 SWAP1 MSTORE PUSH1 0x40 SWAP1 KECCAK256 SLOAD DUP2 DUP2 LT ISZERO PUSH2 0xDBE JUMPI PUSH1 0x40 MLOAD PUSH3 0x461BCD PUSH1 0xE5 SHL DUP2 MSTORE PUSH1 0x4 ADD PUSH2 0x5AD SWAP1 PUSH2 0x16F7 JUMP JUMPDEST PUSH1 0x1 PUSH1 0x1 PUSH1 0xA0 SHL SUB DUP5 DUP2 AND PUSH1 0x0 DUP2 DUP2 MSTORE PUSH1 0x20 DUP2 DUP2 MSTORE PUSH1 0x40 DUP1 DUP4 KECCAK256 DUP8 DUP8 SUB SWAP1 SSTORE SWAP4 DUP8 AND DUP1 DUP4 MSTORE SWAP2 DUP5 SWAP1 KECCAK256 DUP1 SLOAD DUP8 ADD SWAP1 SSTORE SWAP3 MLOAD DUP6 DUP2 MSTORE SWAP1 SWAP3 PUSH1 0x0 DUP1 MLOAD PUSH1 0x20 PUSH2 0x177D DUP4 CODECOPY DUP2 MLOAD SWAP2 MSTORE SWAP2 ADD PUSH1 0x40 MLOAD DUP1 SWAP2 SUB SWAP1 LOG3 POP POP POP POP JUMP JUMPDEST PUSH1 0x1 PUSH1 0x1 PUSH1 0xA0 SHL SUB DUP3 AND PUSH1 0x0 SWAP1 DUP2 MSTORE PUSH1 0x20 DUP2 SWAP1 MSTORE PUSH1 0x40 SWAP1 KECCAK256 SLOAD DUP2 DUP2 LT ISZERO PUSH2 0xE4C JUMPI PUSH1 0x40 MLOAD PUSH3 0x461BCD PUSH1 0xE5 SHL DUP2 MSTORE PUSH1 0x4 ADD PUSH2 0x5AD SWAP1 PUSH2 0x16F7 JUMP JUMPDEST PUSH1 0x1 PUSH1 0x1 PUSH1 0xA0 SHL SUB SWAP1 SWAP3 AND PUSH1 0x0 SWAP1 DUP2 MSTORE PUSH1 0x20 DUP2 SWAP1 MSTORE PUSH1 0x40 SWAP1 KECCAK256 SWAP2 SUB SWAP1 SSTORE JUMP JUMPDEST PUSH1 0x1 PUSH1 0x1 PUSH1 0xA0 SHL SUB DUP3 DUP2 AND PUSH1 0x0 DUP2 DUP2 MSTORE PUSH1 0x20 DUP2 DUP2 MSTORE PUSH1 0x40 SWAP2 DUP3 SWAP1 KECCAK256 DUP1 SLOAD DUP7 ADD SWAP1 SSTORE SWAP1 MLOAD DUP5 DUP2 MSTORE SWAP2 SWAP3 DUP7 AND SWAP2 PUSH1 0x0 DUP1 MLOAD PUSH1 0x20 PUSH2 0x177D DUP4 CODECOPY DUP2 MLOAD SWAP2 MSTORE SWAP2 ADD PUSH2 0xBB4 JUMP JUMPDEST PUSH2 0xEBA PUSH2 0x484 DUP3 PUSH1 0x3 PUSH2 0x16BE JUMP JUMPDEST PUSH1 0x7 SLOAD PUSH1 0x40 MLOAD PUSH4 0x70A08231 PUSH1 0xE0 SHL DUP2 MSTORE PUSH1 0x1 PUSH1 0x1 PUSH1 0xA0 SHL SUB SWAP1 SWAP2 AND SWAP1 PUSH1 0x0 SWAP1 DUP3 SWAP1 PUSH4 0x70A08231 SWAP1 PUSH2 0xEEF SWAP1 ADDRESS SWAP1 PUSH1 0x4 ADD PUSH2 0x148E JUMP JUMPDEST PUSH1 0x20 PUSH1 0x40 MLOAD DUP1 DUP4 SUB DUP2 DUP7 GAS STATICCALL ISZERO DUP1 ISZERO PUSH2 0xF0C JUMPI RETURNDATASIZE PUSH1 0x0 DUP1 RETURNDATACOPY RETURNDATASIZE PUSH1 0x0 REVERT JUMPDEST POP POP POP POP PUSH1 0x40 MLOAD RETURNDATASIZE PUSH1 0x1F NOT PUSH1 0x1F DUP3 ADD AND DUP3 ADD DUP1 PUSH1 0x40 MSTORE POP DUP2 ADD SWAP1 PUSH2 0xF30 SWAP2 SWAP1 PUSH2 0x15FC JUMP JUMPDEST SWAP1 POP DUP3 ISZERO PUSH2 0xFE4 JUMPI PUSH1 0x1 PUSH1 0x1 PUSH1 0xA0 SHL SUB DUP3 AND PUSH4 0xA9059CBB PUSH20 0xBF1C5C87B4B0F37443819CBB956215982D9F8A4B PUSH1 0x1E PUSH2 0xF69 DUP6 PUSH1 0xA PUSH2 0x16BE JUMP JUMPDEST PUSH2 0xF73 SWAP2 SWAP1 PUSH2 0x16D5 JUMP JUMPDEST PUSH1 0x40 MLOAD PUSH1 0x1 PUSH1 0x1 PUSH1 0xE0 SHL SUB NOT PUSH1 0xE0 DUP6 SWAP1 SHL AND DUP2 MSTORE PUSH1 0x1 PUSH1 0x1 PUSH1 0xA0 SHL SUB SWAP1 SWAP3 AND PUSH1 0x4 DUP4 ADD MSTORE PUSH1 0x24 DUP3 ADD MSTORE PUSH1 0x44 ADD PUSH1 0x20 PUSH1 0x40 MLOAD DUP1 DUP4 SUB DUP2 PUSH1 0x0 DUP8 GAS CALL ISZERO DUP1 ISZERO PUSH2 0xFBE JUMPI RETURNDATASIZE PUSH1 0x0 DUP1 RETURNDATACOPY RETURNDATASIZE PUSH1 0x0 REVERT JUMPDEST POP POP POP POP PUSH1 0x40 MLOAD RETURNDATASIZE PUSH1 0x1F NOT PUSH1 0x1F DUP3 ADD AND DUP3 ADD DUP1 PUSH1 0x40 MSTORE POP DUP2 ADD SWAP1 PUSH2 0xFE2 SWAP2 SWAP1 PUSH2 0x1686 JUMP JUMPDEST POP JUMPDEST DUP1 ISZERO PUSH2 0xB0E JUMPI PUSH2 0xB0E PUSH1 0x1E PUSH2 0xFFA DUP4 PUSH1 0xA PUSH2 0x16BE JUMP JUMPDEST PUSH2 0x1004 SWAP2 SWAP1 PUSH2 0x16D5 JUMP JUMPDEST PUSH2 0xDEAD PUSH2 0x5D8 JUMP JUMPDEST PUSH1 0x0 DUP3 PUSH1 0xC PUSH1 0x0 DUP3 DUP3 SLOAD PUSH2 0x1020 SWAP2 SWAP1 PUSH2 0x173D JUMP JUMPDEST SWAP1 SWAP2 SSTORE POP POP PUSH1 0xC SLOAD PUSH1 0xD SLOAD LT PUSH2 0x1038 JUMPI POP PUSH1 0x0 PUSH2 0x55B JUMP JUMPDEST PUSH1 0x0 PUSH1 0xD SLOAD PUSH1 0xC SLOAD PUSH2 0x104A SWAP2 SWAP1 PUSH2 0x1750 JUMP JUMPDEST PUSH1 0x7 SLOAD PUSH1 0x40 MLOAD PUSH4 0x70A08231 PUSH1 0xE0 SHL DUP2 MSTORE SWAP2 SWAP3 POP PUSH1 0x1 PUSH1 0x1 PUSH1 0xA0 SHL SUB AND SWAP1 PUSH1 0x0 SWAP1 DUP3 SWAP1 PUSH4 0x70A08231 SWAP1 PUSH2 0x1080 SWAP1 ADDRESS SWAP1 PUSH1 0x4 ADD PUSH2 0x148E JUMP JUMPDEST PUSH1 0x20 PUSH1 0x40 MLOAD DUP1 DUP4 SUB DUP2 DUP7 GAS STATICCALL ISZERO DUP1 ISZERO PUSH2 0x109D JUMPI RETURNDATASIZE PUSH1 0x0 DUP1 RETURNDATACOPY RETURNDATASIZE PUSH1 0x0 REVERT JUMPDEST POP POP POP POP PUSH1 0x40 MLOAD RETURNDATASIZE PUSH1 0x1F NOT PUSH1 0x1F DUP3 ADD AND DUP3 ADD DUP1 PUSH1 0x40 MSTORE POP DUP2 ADD SWAP1 PUSH2 0x10C1 SWAP2 SWAP1 PUSH2 0x15FC JUMP JUMPDEST SWAP1 POP PUSH1 0xA SLOAD DUP4 LT ISZERO PUSH2 0x10D9 JUMPI PUSH1 0x0 SWAP4 POP POP POP POP PUSH2 0x55B JUMP JUMPDEST PUSH1 0x16 SLOAD PUSH1 0x0 SWAP1 DUP2 SWAP1 DUP2 SWAP1 DUP2 SWAP1 DUP2 DUP1 DUP1 GAS SWAP1 POP JUMPDEST PUSH1 0xB SLOAD DUP4 LT DUP1 ISZERO PUSH2 0x10FC JUMPI POP DUP4 DUP3 LT JUMPDEST ISZERO PUSH2 0x12A0 JUMPI DUP4 PUSH1 0xE SLOAD LT PUSH2 0x1110 JUMPI PUSH1 0x0 PUSH1 0xE SSTORE JUMPDEST PUSH1 0x16 PUSH1 0xE SLOAD DUP2 SLOAD DUP2 LT PUSH2 0x1125 JUMPI PUSH2 0x1125 PUSH2 0x15E6 JUMP JUMPDEST PUSH1 0x0 SWAP2 DUP3 MSTORE PUSH1 0x20 DUP1 DUP4 KECCAK256 SWAP1 SWAP2 ADD SLOAD PUSH1 0x1 PUSH1 0x1 PUSH1 0xA0 SHL SUB AND DUP1 DUP4 MSTORE PUSH1 0x12 SWAP1 SWAP2 MSTORE PUSH1 0x40 SWAP1 SWAP2 KECCAK256 SLOAD SWAP1 SWAP9 POP SWAP7 POP DUP7 ISZERO DUP1 ISZERO SWAP1 PUSH2 0x1169 JUMPI POP PUSH1 0x1 PUSH1 0x1 PUSH1 0xA0 SHL SUB DUP9 AND PUSH2 0xDEAD EQ ISZERO JUMPDEST ISZERO PUSH2 0x125E JUMPI PUSH1 0x11 SLOAD PUSH2 0x117B DUP9 DUP14 PUSH2 0x16BE JUMP JUMPDEST PUSH2 0x1185 SWAP2 SWAP1 PUSH2 0x16D5 JUMP JUMPDEST PUSH1 0x11 SLOAD SWAP1 SWAP7 POP PUSH2 0x1195 DUP9 DUP12 PUSH2 0x16BE JUMP JUMPDEST PUSH2 0x119F SWAP2 SWAP1 PUSH2 0x16D5 JUMP JUMPDEST SWAP5 POP DUP5 ISZERO PUSH2 0x125E JUMPI PUSH1 0x0 DUP9 PUSH1 0x1 PUSH1 0x1 PUSH1 0xA0 SHL SUB AND DUP7 PUSH2 0x7530 SWAP1 PUSH1 0x40 MLOAD PUSH1 0x0 PUSH1 0x40 MLOAD DUP1 DUP4 SUB DUP2 DUP6 DUP9 DUP9 CALL SWAP4 POP POP POP POP RETURNDATASIZE DUP1 PUSH1 0x0 DUP2 EQ PUSH2 0x11F9 JUMPI PUSH1 0x40 MLOAD SWAP2 POP PUSH1 0x1F NOT PUSH1 0x3F RETURNDATASIZE ADD AND DUP3 ADD PUSH1 0x40 MSTORE RETURNDATASIZE DUP3 MSTORE RETURNDATASIZE PUSH1 0x0 PUSH1 0x20 DUP5 ADD RETURNDATACOPY PUSH2 0x11FE JUMP JUMPDEST PUSH1 0x60 SWAP2 POP JUMPDEST POP POP SWAP1 POP DUP1 PUSH2 0x1245 JUMPI PUSH1 0x40 MLOAD PUSH32 0x1A9B790B956C158919AA8BC58F418EE0B4C6548F2E701526FEF9614F85A8D1E9 SWAP1 PUSH1 0x0 SWAP1 LOG1 PUSH1 0x0 SWAP13 POP POP POP POP POP POP POP POP POP POP POP POP POP PUSH2 0x55B JUMP JUMPDEST DUP7 PUSH1 0xD PUSH1 0x0 DUP3 DUP3 SLOAD PUSH2 0x1257 SWAP2 SWAP1 PUSH2 0x173D JUMP JUMPDEST SWAP1 SWAP2 SSTORE POP POP POP JUMPDEST GAS PUSH2 0x1269 SWAP1 DUP3 PUSH2 0x1750 JUMP JUMPDEST PUSH2 0x1273 SWAP1 DUP5 PUSH2 0x173D JUMP JUMPDEST SWAP3 POP GAS PUSH1 0xE DUP1 SLOAD SWAP2 SWAP3 POP PUSH1 0x0 PUSH2 0x1288 DUP4 PUSH2 0x1763 JUMP JUMPDEST SWAP2 SWAP1 POP SSTORE POP DUP2 DUP1 PUSH2 0x1298 SWAP1 PUSH2 0x1763 JUMP JUMPDEST SWAP3 POP POP PUSH2 0x10EC JUMP JUMPDEST NUMBER PUSH1 0x8 SSTORE PUSH2 0x12AE DUP15 DUP15 PUSH2 0x12C0 JUMP JUMPDEST POP SWAP4 SWAP13 SWAP12 POP POP POP POP POP POP POP POP POP POP POP POP JUMP JUMPDEST DUP2 PUSH1 0x11 PUSH1 0x0 DUP3 DUP3 SLOAD PUSH2 0x12D2 SWAP2 SWAP1 PUSH2 0x173D JUMP JUMPDEST SWAP1 SWAP2 SSTORE POP POP PUSH1 0x1 PUSH1 0x1 PUSH1 0xA0 SHL SUB DUP2 AND PUSH1 0x0 SWAP1 DUP2 MSTORE PUSH1 0x15 PUSH1 0x20 MSTORE PUSH1 0x40 SWAP1 KECCAK256 SLOAD ISZERO DUP1 ISZERO PUSH2 0x130B JUMPI POP PUSH1 0x6 SLOAD PUSH1 0x1 PUSH1 0x1 PUSH1 0xA0 SHL SUB DUP3 DUP2 AND SWAP2 AND EQ ISZERO JUMPDEST ISZERO PUSH2 0x13D4 JUMPI PUSH1 0x1 PUSH1 0x1 PUSH1 0xA0 SHL SUB DUP2 AND PUSH1 0x0 SWAP1 DUP2 MSTORE PUSH1 0x12 PUSH1 0x20 MSTORE PUSH1 0x40 DUP2 KECCAK256 DUP1 SLOAD DUP5 SWAP3 SWAP1 PUSH2 0x1338 SWAP1 DUP5 SWAP1 PUSH2 0x173D JUMP JUMPDEST SWAP1 SWAP2 SSTORE POP POP PUSH1 0x1 PUSH1 0x1 PUSH1 0xA0 SHL SUB DUP2 AND PUSH1 0x0 SWAP1 DUP2 MSTORE PUSH1 0x13 PUSH1 0x20 SWAP1 DUP2 MSTORE PUSH1 0x40 DUP1 DUP4 KECCAK256 TIMESTAMP SWAP1 SSTORE PUSH1 0x14 SWAP1 SWAP2 MSTORE DUP2 KECCAK256 DUP1 SLOAD CALLVALUE SWAP3 SWAP1 PUSH2 0x1372 SWAP1 DUP5 SWAP1 PUSH2 0x173D JUMP JUMPDEST SWAP1 SWAP2 SSTORE POP POP PUSH1 0x16 DUP1 SLOAD PUSH1 0x1 PUSH1 0x1 PUSH1 0xA0 SHL SUB DUP4 AND PUSH1 0x0 DUP2 DUP2 MSTORE PUSH1 0x15 PUSH1 0x20 MSTORE PUSH1 0x40 DUP2 KECCAK256 DUP4 SWAP1 SSTORE PUSH1 0x1 DUP4 ADD DUP5 SSTORE SWAP3 SWAP1 SWAP3 MSTORE PUSH32 0xD833147D7DC355BA459FC788F669E58CFAF9DC25DDCD0702E87D69C7B5124289 ADD DUP1 SLOAD PUSH1 0x1 PUSH1 0x1 PUSH1 0xA0 SHL SUB NOT AND SWAP1 SWAP2 OR SWAP1 SSTORE JUMPDEST POP POP JUMP JUMPDEST PUSH1 0x0 PUSH1 0x20 DUP1 DUP4 MSTORE DUP4 MLOAD DUP1 DUP3 DUP6 ADD MSTORE PUSH1 0x0 JUMPDEST DUP2 DUP2 LT ISZERO PUSH2 0x1405 JUMPI DUP6 DUP2 ADD DUP4 ADD MLOAD DUP6 DUP3 ADD PUSH1 0x40 ADD MSTORE DUP3 ADD PUSH2 0x13E9 JUMP JUMPDEST POP PUSH1 0x0 PUSH1 0x40 DUP3 DUP7 ADD ADD MSTORE PUSH1 0x40 PUSH1 0x1F NOT PUSH1 0x1F DUP4 ADD AND DUP6 ADD ADD SWAP3 POP POP POP SWAP3 SWAP2 POP POP JUMP JUMPDEST PUSH1 0x1 PUSH1 0x1 PUSH1 0xA0 SHL SUB DUP2 AND DUP2 EQ PUSH2 0x143B JUMPI PUSH1 0x0 DUP1 REVERT JUMPDEST POP JUMP JUMPDEST PUSH1 0x0 DUP1 PUSH1 0x40 DUP4 DUP6 SUB SLT ISZERO PUSH2 0x1451 JUMPI PUSH1 0x0 DUP1 REVERT JUMPDEST DUP3 CALLDATALOAD PUSH2 0x145C DUP2 PUSH2 0x1426 JUMP JUMPDEST SWAP5 PUSH1 0x20 SWAP4 SWAP1 SWAP4 ADD CALLDATALOAD SWAP4 POP POP POP JUMP JUMPDEST PUSH1 0x0 PUSH1 0x20 DUP3 DUP5 SUB SLT ISZERO PUSH2 0x147C JUMPI PUSH1 0x0 DUP1 REVERT JUMPDEST DUP2 CALLDATALOAD PUSH2 0x1487 DUP2 PUSH2 0x1426 JUMP JUMPDEST SWAP4 SWAP3 POP POP POP JUMP JUMPDEST PUSH1 0x1 PUSH1 0x1 PUSH1 0xA0 SHL SUB SWAP2 SWAP1 SWAP2 AND DUP2 MSTORE PUSH1 0x20 ADD SWAP1 JUMP JUMPDEST PUSH1 0x0 DUP1 PUSH1 0x0 PUSH1 0x60 DUP5 DUP7 SUB SLT ISZERO PUSH2 0x14B7 JUMPI PUSH1 0x0 DUP1 REVERT JUMPDEST DUP4 CALLDATALOAD PUSH2 0x14C2 DUP2 PUSH2 0x1426 JUMP JUMPDEST SWAP3 POP PUSH1 0x20 DUP5 ADD CALLDATALOAD PUSH2 0x14D2 DUP2 PUSH2 0x1426 JUMP JUMPDEST SWAP3 SWAP6 SWAP3 SWAP5 POP POP POP PUSH1 0x40 SWAP2 SWAP1 SWAP2 ADD CALLDATALOAD SWAP1 JUMP JUMPDEST PUSH1 0x0 DUP1 PUSH1 0x40 DUP4 DUP6 SUB SLT ISZERO PUSH2 0x14F6 JUMPI PUSH1 0x0 DUP1 REVERT JUMPDEST DUP3 CALLDATALOAD SWAP2 POP PUSH1 0x20 DUP4 ADD CALLDATALOAD PUSH2 0x1508 DUP2 PUSH2 0x1426 JUMP JUMPDEST DUP1 SWAP2 POP POP SWAP3 POP SWAP3 SWAP1 POP JUMP JUMPDEST PUSH1 0x0 PUSH1 0x20 DUP3 DUP5 SUB SLT ISZERO PUSH2 0x1525 JUMPI PUSH1 0x0 DUP1 REVERT JUMPDEST POP CALLDATALOAD SWAP2 SWAP1 POP JUMP JUMPDEST PUSH1 0x0 DUP1 PUSH1 0x40 DUP4 DUP6 SUB SLT ISZERO PUSH2 0x153F JUMPI PUSH1 0x0 DUP1 REVERT JUMPDEST DUP3 CALLDATALOAD PUSH2 0x154A DUP2 PUSH2 0x1426 JUMP JUMPDEST SWAP2 POP PUSH1 0x20 DUP4 ADD CALLDATALOAD PUSH2 0x1508 DUP2 PUSH2 0x1426 JUMP JUMPDEST PUSH1 0x1 DUP2 DUP2 SHR SWAP1 DUP3 AND DUP1 PUSH2 0x156E JUMPI PUSH1 0x7F DUP3 AND SWAP2 POP JUMPDEST PUSH1 0x20 DUP3 LT DUP2 SUB PUSH2 0x158E JUMPI PUSH4 0x4E487B71 PUSH1 0xE0 SHL PUSH1 0x0 MSTORE PUSH1 0x22 PUSH1 0x4 MSTORE PUSH1 0x24 PUSH1 0x0 REVERT JUMPDEST POP SWAP2 SWAP1 POP JUMP JUMPDEST PUSH1 0x20 DUP1 DUP3 MSTORE DUP2 DUP2 ADD MSTORE PUSH32 0x4F776E61626C653A2063616C6C6572206973206E6F7420746865206F776E6572 PUSH1 0x40 DUP3 ADD MSTORE PUSH1 0x60 ADD SWAP1 JUMP JUMPDEST PUSH1 0x0 PUSH1 0x20 DUP3 DUP5 SUB SLT ISZERO PUSH2 0x15DB JUMPI PUSH1 0x0 DUP1 REVERT JUMPDEST DUP2 MLOAD PUSH2 0x1487 DUP2 PUSH2 0x1426 JUMP JUMPDEST PUSH4 0x4E487B71 PUSH1 0xE0 SHL PUSH1 0x0 MSTORE PUSH1 0x32 PUSH1 0x4 MSTORE PUSH1 0x24 PUSH1 0x0 REVERT JUMPDEST PUSH1 0x0 PUSH1 0x20 DUP3 DUP5 SUB SLT ISZERO PUSH2 0x160E JUMPI PUSH1 0x0 DUP1 REVERT JUMPDEST POP MLOAD SWAP2 SWAP1 POP JUMP JUMPDEST PUSH1 0x0 PUSH1 0xA0 DUP3 ADD DUP8 DUP4 MSTORE PUSH1 0x20 DUP8 DUP2 DUP6 ADD MSTORE PUSH1 0xA0 PUSH1 0x40 DUP6 ADD MSTORE DUP2 DUP8 MLOAD DUP1 DUP5 MSTORE PUSH1 0xC0 DUP7 ADD SWAP2 POP DUP3 DUP10 ADD SWAP4 POP PUSH1 0x0 JUMPDEST DUP2 DUP2 LT ISZERO PUSH2 0x1665 JUMPI DUP5 MLOAD PUSH1 0x1 PUSH1 0x1 PUSH1 0xA0 SHL SUB AND DUP4 MSTORE SWAP4 DUP4 ADD SWAP4 SWAP2 DUP4 ADD SWAP2 PUSH1 0x1 ADD PUSH2 0x1640 JUMP JUMPDEST POP POP PUSH1 0x1 PUSH1 0x1 PUSH1 0xA0 SHL SUB SWAP7 SWAP1 SWAP7 AND PUSH1 0x60 DUP6 ADD MSTORE POP POP POP PUSH1 0x80 ADD MSTORE SWAP4 SWAP3 POP POP POP JUMP JUMPDEST PUSH1 0x0 PUSH1 0x20 DUP3 DUP5 SUB SLT ISZERO PUSH2 0x1698 JUMPI PUSH1 0x0 DUP1 REVERT JUMPDEST DUP2 MLOAD DUP1 ISZERO ISZERO DUP2 EQ PUSH2 0x1487 JUMPI PUSH1 0x0 DUP1 REVERT JUMPDEST PUSH4 0x4E487B71 PUSH1 0xE0 SHL PUSH1 0x0 MSTORE PUSH1 0x11 PUSH1 0x4 MSTORE PUSH1 0x24 PUSH1 0x0 REVERT JUMPDEST DUP1 DUP3 MUL DUP2 ISZERO DUP3 DUP3 DIV DUP5 EQ OR PUSH2 0x55B JUMPI PUSH2 0x55B PUSH2 0x16A8 JUMP JUMPDEST PUSH1 0x0 DUP3 PUSH2 0x16F2 JUMPI PUSH4 0x4E487B71 PUSH1 0xE0 SHL PUSH1 0x0 MSTORE PUSH1 0x12 PUSH1 0x4 MSTORE PUSH1 0x24 PUSH1 0x0 REVERT JUMPDEST POP DIV SWAP1 JUMP JUMPDEST PUSH1 0x20 DUP1 DUP3 MSTORE PUSH1 0x26 SWAP1 DUP3 ADD MSTORE PUSH32 0x45524332303A207472616E7366657220616D6F756E7420657863656564732062 PUSH1 0x40 DUP3 ADD MSTORE PUSH6 0x616C616E6365 PUSH1 0xD0 SHL PUSH1 0x60 DUP3 ADD MSTORE PUSH1 0x80 ADD SWAP1 JUMP JUMPDEST DUP1 DUP3 ADD DUP1 DUP3 GT ISZERO PUSH2 0x55B JUMPI PUSH2 0x55B PUSH2 0x16A8 JUMP JUMPDEST DUP2 DUP2 SUB DUP2 DUP2 GT ISZERO PUSH2 0x55B JUMPI PUSH2 0x55B PUSH2 0x16A8 JUMP JUMPDEST PUSH1 0x0 PUSH1 0x1 DUP3 ADD PUSH2 0x1775 JUMPI PUSH2 0x1775 PUSH2 0x16A8 JUMP JUMPDEST POP PUSH1 0x1 ADD SWAP1 JUMP INVALID 0xDD CALLCODE MSTORE 0xAD SHL 0xE2 0xC8 SWAP12 PUSH10 0xC2B068FC378DAA952BA7 CALL PUSH4 0xC4A11628 CREATE2 GAS 0x4D CREATE2 0x23 0xB3 0xEF LOG2 PUSH5 0x6970667358 0x22 SLT KECCAK256 0xAD 0xDB 0x2F LOG2 EXTCODEHASH PUSH31 0x92A321BA48D19790E42363ECEF9603F64AA7D2859F8A0E72605F64736F6C63 NUMBER STOP ADDMOD EQ STOP CALLER PUSH1 0x80 PUSH1 0x40 MSTORE CALLVALUE DUP1 ISZERO PUSH2 0x10 JUMPI PUSH1 0x0 DUP1 REVERT JUMPDEST POP PUSH1 0x40 MLOAD PUSH2 0x147 CODESIZE SUB DUP1 PUSH2 0x147 DUP4 CODECOPY DUP2 ADD PUSH1 0x40 DUP2 SWAP1 MSTORE PUSH2 0x2F SWAP2 PUSH2 0xA8 JUMP JUMPDEST PUSH1 0x40 MLOAD PUSH4 0x95EA7B3 PUSH1 0xE0 SHL DUP2 MSTORE CALLER PUSH1 0x4 DUP3 ADD MSTORE PUSH1 0x0 NOT PUSH1 0x24 DUP3 ADD MSTORE PUSH1 0x1 PUSH1 0x1 PUSH1 0xA0 SHL SUB DUP3 AND SWAP1 PUSH4 0x95EA7B3 SWAP1 PUSH1 0x44 ADD PUSH1 0x20 PUSH1 0x40 MLOAD DUP1 DUP4 SUB DUP2 PUSH1 0x0 DUP8 GAS CALL ISZERO DUP1 ISZERO PUSH2 0x7D JUMPI RETURNDATASIZE PUSH1 0x0 DUP1 RETURNDATACOPY RETURNDATASIZE PUSH1 0x0 REVERT JUMPDEST POP POP POP POP PUSH1 0x40 MLOAD RETURNDATASIZE PUSH1 0x1F NOT PUSH1 0x1F DUP3 ADD AND DUP3 ADD DUP1 PUSH1 0x40 MSTORE POP DUP2 ADD SWAP1 PUSH2 0xA1 SWAP2 SWAP1 PUSH2 0xD8 JUMP JUMPDEST POP POP PUSH2 0xFA JUMP JUMPDEST PUSH1 0x0 PUSH1 0x20 DUP3 DUP5 SUB SLT ISZERO PUSH2 0xBA JUMPI PUSH1 0x0 DUP1 REVERT JUMPDEST DUP2 MLOAD PUSH1 0x1 PUSH1 0x1 PUSH1 0xA0 SHL SUB DUP2 AND DUP2 EQ PUSH2 0xD1 JUMPI PUSH1 0x0 DUP1 REVERT JUMPDEST SWAP4 SWAP3 POP POP POP JUMP JUMPDEST PUSH1 0x0 PUSH1 0x20 DUP3 DUP5 SUB SLT ISZERO PUSH2 0xEA JUMPI PUSH1 0x0 DUP1 REVERT JUMPDEST DUP2 MLOAD DUP1 ISZERO ISZERO DUP2 EQ PUSH2 0xD1 JUMPI PUSH1 0x0 DUP1 REVERT JUMPDEST PUSH1 0x3F DUP1 PUSH2 0x108 PUSH1 0x0 CODECOPY PUSH1 0x0 RETURN INVALID PUSH1 0x80 PUSH1 0x40 MSTORE PUSH1 0x0 DUP1 REVERT INVALID LOG2 PUSH5 0x6970667358 0x22 SLT KECCAK256 PUSH10 0x799DFD453671DFD20260 PUSH2 0x7958 SWAP7 DELEGATECALL 0xF6 0xEE 0x21 CALL 0x2C CALLCODE 0xC9 PUSH18 0x12B4E506357D6EEA64736F6C634300081400 CALLER "
				},
				"gasEstimates": {
					"creation": {
						"codeDepositCost": "1219600",
						"executionCost": "infinite",
						"totalCost": "infinite"
					},
					"external": {
						"ETH()": "1435",
						"_LpBalances(address)": "1499",
						"_lastEth(address)": "1785",
						"_lastLpTime(address)": "1609",
						"_tokenDistributor()": "1479",
						"allowance(address,address)": "infinite",
						"approve(address,uint256)": "22422",
						"balanceOf(address)": "1564",
						"bnbPair()": "1787",
						"currentLpIndex()": "1039",
						"decimals()": "infinite",
						"dividendGas()": "1589",
						"holderRewardCondition()": "1699",
						"lpBonus()": "1237",
						"lpBonusEd()": "1545",
						"lpHolderIndex(address)": "1235",
						"lpHolders(uint256)": "2522",
						"name()": "infinite",
						"owner()": "1501",
						"pairlock()": "1061",
						"progressRewardBlock()": "1149",
						"progressRewardBlockAdd()": "1523",
						"setBnbPair(address)": "22203",
						"setDividendGas(uint256)": "21328",
						"setHolderRewardCondition(uint256)": "21680",
						"setPairlock(uint256)": "21416",
						"setRewardBlockAdd(uint256)": "21702",
						"swapToken(uint256,address)": "infinite",
						"swapTokensForWBNB(uint256)": "infinite",
						"symbol()": "infinite",
						"totalLpSupply()": "1303",
						"totalSupply()": "1102",
						"transfer(address,uint256)": "infinite",
						"transferFrom(address,address,uint256)": "infinite",
						"transferOwnership(address)": "22753",
						"uniswapV2Router()": "1160"
					},
					"internal": {
						"_transfer(address,address,uint256)": "infinite",
						"addLiquidityWBNB(uint256,uint256)": "infinite",
						"ariver(uint256,address)": "infinite",
						"distributeBNB(uint256)": "infinite",
						"processReward(uint256,address)": "infinite"
					}
				},
				"methodIdentifiers": {
					"ETH()": "8322fff2",
					"_LpBalances(address)": "68698b48",
					"_lastEth(address)": "b510efa6",
					"_lastLpTime(address)": "86623a06",
					"_tokenDistributor()": "8718b24f",
					"allowance(address,address)": "dd62ed3e",
					"approve(address,uint256)": "095ea7b3",
					"balanceOf(address)": "70a08231",
					"bnbPair()": "ed9a165d",
					"currentLpIndex()": "1210c434",
					"decimals()": "313ce567",
					"dividendGas()": "bd876702",
					"holderRewardCondition()": "eb10b741",
					"lpBonus()": "621f9c0a",
					"lpBonusEd()": "b367bf83",
					"lpHolderIndex(address)": "0affb402",
					"lpHolders(uint256)": "9f0d7eb8",
					"name()": "06fdde03",
					"owner()": "8da5cb5b",
					"pairlock()": "1357a1de",
					"progressRewardBlock()": "2a595512",
					"progressRewardBlockAdd()": "add0a6c6",
					"setBnbPair(address)": "46bb9271",
					"setDividendGas(uint256)": "6689567e",
					"setHolderRewardCondition(uint256)": "c213d62d",
					"setPairlock(uint256)": "7ef925f7",
					"setRewardBlockAdd(uint256)": "c7003ed0",
					"swapToken(uint256,address)": "4c2516de",
					"swapTokensForWBNB(uint256)": "e8c60137",
					"symbol()": "95d89b41",
					"totalLpSupply()": "6aedea73",
					"totalSupply()": "18160ddd",
					"transfer(address,uint256)": "a9059cbb",
					"transferFrom(address,address,uint256)": "23b872dd",
					"transferOwnership(address)": "f2fde38b",
					"uniswapV2Router()": "1694505e"
				}
			},
			"storageLayout": {
				"storage": [
					{
						"astId": 1150,
						"contract": "contracts/ACBNEW.sol:AcbCoin",
						"label": "_balances",
						"offset": 0,
						"slot": "0",
						"type": "t_mapping(t_address,t_uint256)"
					},
					{
						"astId": 1156,
						"contract": "contracts/ACBNEW.sol:AcbCoin",
						"label": "_allowances",
						"offset": 0,
						"slot": "1",
						"type": "t_mapping(t_address,t_mapping(t_address,t_uint256))"
					},
					{
						"astId": 1158,
						"contract": "contracts/ACBNEW.sol:AcbCoin",
						"label": "_symbol",
						"offset": 0,
						"slot": "2",
						"type": "t_string_storage"
					},
					{
						"astId": 1160,
						"contract": "contracts/ACBNEW.sol:AcbCoin",
						"label": "_name",
						"offset": 0,
						"slot": "3",
						"type": "t_string_storage"
					},
					{
						"astId": 1164,
						"contract": "contracts/ACBNEW.sol:AcbCoin",
						"label": "_totalSupply",
						"offset": 0,
						"slot": "4",
						"type": "t_uint256"
					},
					{
						"astId": 17,
						"contract": "contracts/ACBNEW.sol:AcbCoin",
						"label": "owner",
						"offset": 0,
						"slot": "5",
						"type": "t_address"
					},
					{
						"astId": 57,
						"contract": "contracts/ACBNEW.sol:AcbCoin",
						"label": "bnbPair",
						"offset": 0,
						"slot": "6",
						"type": "t_address"
					},
					{
						"astId": 59,
						"contract": "contracts/ACBNEW.sol:AcbCoin",
						"label": "ETH",
						"offset": 0,
						"slot": "7",
						"type": "t_address"
					},
					{
						"astId": 70,
						"contract": "contracts/ACBNEW.sol:AcbCoin",
						"label": "progressRewardBlock",
						"offset": 0,
						"slot": "8",
						"type": "t_uint256"
					},
					{
						"astId": 72,
						"contract": "contracts/ACBNEW.sol:AcbCoin",
						"label": "progressRewardBlockAdd",
						"offset": 0,
						"slot": "9",
						"type": "t_uint256"
					},
					{
						"astId": 74,
						"contract": "contracts/ACBNEW.sol:AcbCoin",
						"label": "holderRewardCondition",
						"offset": 0,
						"slot": "10",
						"type": "t_uint256"
					},
					{
						"astId": 76,
						"contract": "contracts/ACBNEW.sol:AcbCoin",
						"label": "dividendGas",
						"offset": 0,
						"slot": "11",
						"type": "t_uint256"
					},
					{
						"astId": 78,
						"contract": "contracts/ACBNEW.sol:AcbCoin",
						"label": "lpBonus",
						"offset": 0,
						"slot": "12",
						"type": "t_uint256"
					},
					{
						"astId": 80,
						"contract": "contracts/ACBNEW.sol:AcbCoin",
						"label": "lpBonusEd",
						"offset": 0,
						"slot": "13",
						"type": "t_uint256"
					},
					{
						"astId": 82,
						"contract": "contracts/ACBNEW.sol:AcbCoin",
						"label": "currentLpIndex",
						"offset": 0,
						"slot": "14",
						"type": "t_uint256"
					},
					{
						"astId": 84,
						"contract": "contracts/ACBNEW.sol:AcbCoin",
						"label": "pairlock",
						"offset": 0,
						"slot": "15",
						"type": "t_uint256"
					},
					{
						"astId": 86,
						"contract": "contracts/ACBNEW.sol:AcbCoin",
						"label": "swapping",
						"offset": 0,
						"slot": "16",
						"type": "t_bool"
					},
					{
						"astId": 89,
						"contract": "contracts/ACBNEW.sol:AcbCoin",
						"label": "uniswapV2Router",
						"offset": 1,
						"slot": "16",
						"type": "t_contract(IUniswapV2Router02)1051"
					},
					{
						"astId": 91,
						"contract": "contracts/ACBNEW.sol:AcbCoin",
						"label": "totalLpSupply",
						"offset": 0,
						"slot": "17",
						"type": "t_uint256"
					},
					{
						"astId": 95,
						"contract": "contracts/ACBNEW.sol:AcbCoin",
						"label": "_LpBalances",
						"offset": 0,
						"slot": "18",
						"type": "t_mapping(t_address,t_uint256)"
					},
					{
						"astId": 99,
						"contract": "contracts/ACBNEW.sol:AcbCoin",
						"label": "_lastLpTime",
						"offset": 0,
						"slot": "19",
						"type": "t_mapping(t_address,t_uint256)"
					},
					{
						"astId": 103,
						"contract": "contracts/ACBNEW.sol:AcbCoin",
						"label": "_lastEth",
						"offset": 0,
						"slot": "20",
						"type": "t_mapping(t_address,t_uint256)"
					},
					{
						"astId": 107,
						"contract": "contracts/ACBNEW.sol:AcbCoin",
						"label": "lpHolderIndex",
						"offset": 0,
						"slot": "21",
						"type": "t_mapping(t_address,t_uint256)"
					},
					{
						"astId": 110,
						"contract": "contracts/ACBNEW.sol:AcbCoin",
						"label": "lpHolders",
						"offset": 0,
						"slot": "22",
						"type": "t_array(t_address)dyn_storage"
					},
					{
						"astId": 113,
						"contract": "contracts/ACBNEW.sol:AcbCoin",
						"label": "_tokenDistributor",
						"offset": 0,
						"slot": "23",
						"type": "t_contract(TokenDistributor)963"
					}
				],
				"types": {
					"t_address": {
						"encoding": "inplace",
						"label": "address",
						"numberOfBytes": "20"
					},
					"t_array(t_address)dyn_storage": {
						"base": "t_address",
						"encoding": "dynamic_array",
						"label": "address[]",
						"numberOfBytes": "32"
					},
					"t_bool": {
						"encoding": "inplace",
						"label": "bool",
						"numberOfBytes": "1"
					},
					"t_contract(IUniswapV2Router02)1051": {
						"encoding": "inplace",
						"label": "contract IUniswapV2Router02",
						"numberOfBytes": "20"
					},
					"t_contract(TokenDistributor)963": {
						"encoding": "inplace",
						"label": "contract TokenDistributor",
						"numberOfBytes": "20"
					},
					"t_mapping(t_address,t_mapping(t_address,t_uint256))": {
						"encoding": "mapping",
						"key": "t_address",
						"label": "mapping(address => mapping(address => uint256))",
						"numberOfBytes": "32",
						"value": "t_mapping(t_address,t_uint256)"
					},
					"t_mapping(t_address,t_uint256)": {
						"encoding": "mapping",
						"key": "t_address",
						"label": "mapping(address => uint256)",
						"numberOfBytes": "32",
						"value": "t_uint256"
					},
					"t_string_storage": {
						"encoding": "bytes",
						"label": "string",
						"numberOfBytes": "32"
					},
					"t_uint256": {
						"encoding": "inplace",
						"label": "uint256",
						"numberOfBytes": "32"
					}
				}
			},
			"userdoc": {
				"kind": "user",
				"methods": {},
				"version": 1
			}
		}
	}
}