{
	"contracts/ACB.sol": {
		"SteamCoin": {
			"abi": [
				{
					"inputs": [],
					"stateMutability": "nonpayable",
					"type": "constructor"
				},
				{
					"anonymous": false,
					"inputs": [
						{
							"indexed": true,
							"internalType": "address",
							"name": "owner",
							"type": "address"
						},
						{
							"indexed": true,
							"internalType": "address",
							"name": "spender",
							"type": "address"
						},
						{
							"indexed": false,
							"internalType": "uint256",
							"name": "value",
							"type": "uint256"
						}
					],
					"name": "Approval",
					"type": "event"
				},
				{
					"anonymous": false,
					"inputs": [
						{
							"indexed": true,
							"internalType": "address",
							"name": "from",
							"type": "address"
						},
						{
							"indexed": true,
							"internalType": "address",
							"name": "to",
							"type": "address"
						},
						{
							"indexed": false,
							"internalType": "uint256",
							"name": "value",
							"type": "uint256"
						}
					],
					"name": "Transfer",
					"type": "event"
				},
				{
					"inputs": [
						{
							"internalType": "address",
							"name": "",
							"type": "address"
						}
					],
					"name": "_LpBalances",
					"outputs": [
						{
							"internalType": "uint256",
							"name": "",
							"type": "uint256"
						}
					],
					"stateMutability": "view",
					"type": "function"
				},
				{
					"inputs": [
						{
							"internalType": "address",
							"name": "",
							"type": "address"
						}
					],
					"name": "_lastEth",
					"outputs": [
						{
							"internalType": "uint256",
							"name": "",
							"type": "uint256"
						}
					],
					"stateMutability": "view",
					"type": "function"
				},
				{
					"inputs": [
						{
							"internalType": "address",
							"name": "",
							"type": "address"
						}
					],
					"name": "_lastLpTime",
					"outputs": [
						{
							"internalType": "uint256",
							"name": "",
							"type": "uint256"
						}
					],
					"stateMutability": "view",
					"type": "function"
				},
				{
					"inputs": [
						{
							"internalType": "address",
							"name": "owner",
							"type": "address"
						},
						{
							"internalType": "address",
							"name": "spender",
							"type": "address"
						}
					],
					"name": "allowance",
					"outputs": [
						{
							"internalType": "uint256",
							"name": "",
							"type": "uint256"
						}
					],
					"stateMutability": "view",
					"type": "function"
				},
				{
					"inputs": [
						{
							"internalType": "address",
							"name": "spender",
							"type": "address"
						},
						{
							"internalType": "uint256",
							"name": "amount",
							"type": "uint256"
						}
					],
					"name": "approve",
					"outputs": [
						{
							"internalType": "bool",
							"name": "",
							"type": "bool"
						}
					],
					"stateMutability": "nonpayable",
					"type": "function"
				},
				{
					"inputs": [
						{
							"internalType": "address",
							"name": "account",
							"type": "address"
						}
					],
					"name": "balanceOf",
					"outputs": [
						{
							"internalType": "uint256",
							"name": "",
							"type": "uint256"
						}
					],
					"stateMutability": "view",
					"type": "function"
				},
				{
					"inputs": [],
					"name": "bnbPair",
					"outputs": [
						{
							"internalType": "address",
							"name": "",
							"type": "address"
						}
					],
					"stateMutability": "view",
					"type": "function"
				},
				{
					"inputs": [],
					"name": "currentLpIndex",
					"outputs": [
						{
							"internalType": "uint256",
							"name": "",
							"type": "uint256"
						}
					],
					"stateMutability": "view",
					"type": "function"
				},
				{
					"inputs": [],
					"name": "decimals",
					"outputs": [
						{
							"internalType": "uint8",
							"name": "",
							"type": "uint8"
						}
					],
					"stateMutability": "view",
					"type": "function"
				},
				{
					"inputs": [],
					"name": "dividendGas",
					"outputs": [
						{
							"internalType": "uint256",
							"name": "",
							"type": "uint256"
						}
					],
					"stateMutability": "view",
					"type": "function"
				},
				{
					"inputs": [],
					"name": "holderRewardCondition",
					"outputs": [
						{
							"internalType": "uint256",
							"name": "",
							"type": "uint256"
						}
					],
					"stateMutability": "view",
					"type": "function"
				},
				{
					"inputs": [],
					"name": "lpBonus",
					"outputs": [
						{
							"internalType": "uint256",
							"name": "",
							"type": "uint256"
						}
					],
					"stateMutability": "view",
					"type": "function"
				},
				{
					"inputs": [],
					"name": "lpBonusEd",
					"outputs": [
						{
							"internalType": "uint256",
							"name": "",
							"type": "uint256"
						}
					],
					"stateMutability": "view",
					"type": "function"
				},
				{
					"inputs": [
						{
							"internalType": "address",
							"name": "",
							"type": "address"
						}
					],
					"name": "lpHolderIndex",
					"outputs": [
						{
							"internalType": "uint256",
							"name": "",
							"type": "uint256"
						}
					],
					"stateMutability": "view",
					"type": "function"
				},
				{
					"inputs": [
						{
							"internalType": "uint256",
							"name": "",
							"type": "uint256"
						}
					],
					"name": "lpHolders",
					"outputs": [
						{
							"internalType": "address",
							"name": "",
							"type": "address"
						}
					],
					"stateMutability": "view",
					"type": "function"
				},
				{
					"inputs": [],
					"name": "name",
					"outputs": [
						{
							"internalType": "string",
							"name": "",
							"type": "string"
						}
					],
					"stateMutability": "view",
					"type": "function"
				},
				{
					"inputs": [],
					"name": "op",
					"outputs": [
						{
							"internalType": "address",
							"name": "",
							"type": "address"
						}
					],
					"stateMutability": "view",
					"type": "function"
				},
				{
					"inputs": [],
					"name": "owner",
					"outputs": [
						{
							"internalType": "address",
							"name": "",
							"type": "address"
						}
					],
					"stateMutability": "view",
					"type": "function"
				},
				{
					"inputs": [],
					"name": "progressRewardBlock",
					"outputs": [
						{
							"internalType": "uint256",
							"name": "",
							"type": "uint256"
						}
					],
					"stateMutability": "view",
					"type": "function"
				},
				{
					"inputs": [],
					"name": "progressRewardBlockAdd",
					"outputs": [
						{
							"internalType": "uint256",
							"name": "",
							"type": "uint256"
						}
					],
					"stateMutability": "view",
					"type": "function"
				},
				{
					"inputs": [
						{
							"internalType": "address",
							"name": "d",
							"type": "address"
						}
					],
					"name": "setBnbPair",
					"outputs": [],
					"stateMutability": "nonpayable",
					"type": "function"
				},
				{
					"inputs": [
						{
							"internalType": "uint256",
							"name": "vgas",
							"type": "uint256"
						}
					],
					"name": "setDividendGas",
					"outputs": [],
					"stateMutability": "nonpayable",
					"type": "function"
				},
				{
					"inputs": [
						{
							"internalType": "uint256",
							"name": "amount",
							"type": "uint256"
						}
					],
					"name": "setHolderRewardCondition",
					"outputs": [],
					"stateMutability": "nonpayable",
					"type": "function"
				},
				{
					"inputs": [
						{
							"internalType": "uint256",
							"name": "num",
							"type": "uint256"
						}
					],
					"name": "setRewardBlockAdd",
					"outputs": [],
					"stateMutability": "nonpayable",
					"type": "function"
				},
				{
					"inputs": [],
					"name": "symbol",
					"outputs": [
						{
							"internalType": "string",
							"name": "",
							"type": "string"
						}
					],
					"stateMutability": "view",
					"type": "function"
				},
				{
					"inputs": [],
					"name": "totalLpSupply",
					"outputs": [
						{
							"internalType": "uint256",
							"name": "",
							"type": "uint256"
						}
					],
					"stateMutability": "view",
					"type": "function"
				},
				{
					"inputs": [],
					"name": "totalSupply",
					"outputs": [
						{
							"internalType": "uint256",
							"name": "",
							"type": "uint256"
						}
					],
					"stateMutability": "view",
					"type": "function"
				},
				{
					"inputs": [
						{
							"internalType": "address",
							"name": "to",
							"type": "address"
						},
						{
							"internalType": "uint256",
							"name": "amount",
							"type": "uint256"
						}
					],
					"name": "transfer",
					"outputs": [
						{
							"internalType": "bool",
							"name": "",
							"type": "bool"
						}
					],
					"stateMutability": "nonpayable",
					"type": "function"
				},
				{
					"inputs": [
						{
							"internalType": "address",
							"name": "from",
							"type": "address"
						},
						{
							"internalType": "address",
							"name": "to",
							"type": "address"
						},
						{
							"internalType": "uint256",
							"name": "amount",
							"type": "uint256"
						}
					],
					"name": "transferFrom",
					"outputs": [
						{
							"internalType": "bool",
							"name": "",
							"type": "bool"
						}
					],
					"stateMutability": "nonpayable",
					"type": "function"
				},
				{
					"inputs": [
						{
							"internalType": "address",
							"name": "newOwner",
							"type": "address"
						}
					],
					"name": "transferOwnership",
					"outputs": [],
					"stateMutability": "nonpayable",
					"type": "function"
				}
			],
			"devdoc": {
				"kind": "dev",
				"methods": {},
				"version": 1
			},
			"evm": {
				"assembly": "    /* \"contracts/ACB.sol\":794:7750  contract SteamCoin is ERC20StandardToken, Ownable {... */\n  mstore(0x40, 0xa0)\n    /* \"contracts/ACB.sol\":1852:2420  constructor() ERC20StandardToken('ACB', 'ACB', 18, 1000000000000 ether) {... */\n  callvalue\n  dup1\n  iszero\n  tag_1\n  jumpi\n  0x00\n  dup1\n  revert\ntag_1:\n  pop\n    /* \"contracts/ERC20StandardToken.sol\":1035:1264  constructor(string memory symbol_, string memory name_, uint8 decimals_, uint256 totalSupply_) {... */\n  0x40\n  dup1\n  mload\n  dup1\n  dup3\n  add\n  dup3\n  mstore\n  0x03\n  dup1\n  dup3\n  mstore\n  shl(0xe9, 0x20a1a1)\n  0x20\n  dup1\n  dup5\n  add\n  dup3\n  swap1\n  mstore\n  dup5\n  mload\n  dup1\n  dup7\n  add\n  swap1\n  swap6\n  mstore\n  swap2\n  dup5\n  mstore\n  swap1\n  dup4\n  add\n  mstore\n  swap1\n    /* \"contracts/ACB.sol\":1899:1901  18 */\n  0x12\n    /* \"contracts/ACB.sol\":1903:1922  1000000000000 ether */\n  0x0c9f2c9cd04674edea40000000\n    /* \"contracts/ERC20StandardToken.sol\":1141:1148  _symbol */\n  0x02\n    /* \"contracts/ERC20StandardToken.sol\":1141:1158  _symbol = symbol_ */\n  tag_6\n    /* \"contracts/ERC20StandardToken.sol\":1035:1264  constructor(string memory symbol_, string memory name_, uint8 decimals_, uint256 totalSupply_) {... */\n  dup6\n    /* \"contracts/ERC20StandardToken.sol\":1141:1148  _symbol */\n  dup3\n    /* \"contracts/ERC20StandardToken.sol\":1141:1158  _symbol = symbol_ */\n  tag_7\n  jump\t// in\ntag_6:\n  pop\n    /* \"contracts/ERC20StandardToken.sol\":1169:1174  _name */\n  0x03\n    /* \"contracts/ERC20StandardToken.sol\":1169:1182  _name = name_ */\n  tag_8\n    /* \"contracts/ERC20StandardToken.sol\":1177:1182  name_ */\n  dup5\n    /* \"contracts/ERC20StandardToken.sol\":1169:1174  _name */\n  dup3\n    /* \"contracts/ERC20StandardToken.sol\":1169:1182  _name = name_ */\n  tag_7\n  jump\t// in\ntag_8:\n  pop\n    /* \"contracts/ERC20StandardToken.sol\":1193:1214  _decimals = decimals_ */\n  0xff\n  dup3\n  and\n  0x80\n  mstore\n    /* \"contracts/ERC20StandardToken.sol\":1225:1256  _mint(msg.sender, totalSupply_) */\n  tag_9\n    /* \"contracts/ERC20StandardToken.sol\":1231:1241  msg.sender */\n  caller\n    /* \"contracts/ERC20StandardToken.sol\":1243:1255  totalSupply_ */\n  dup3\n    /* \"contracts/ERC20StandardToken.sol\":1225:1230  _mint */\n  tag_10\n    /* \"contracts/ERC20StandardToken.sol\":1225:1256  _mint(msg.sender, totalSupply_) */\n  jump\t// in\ntag_9:\n  pop\n  pop\n    /* \"contracts/ACB.sol\":532:537  owner */\n  0x05\n    /* \"contracts/ACB.sol\":532:550  owner = msg.sender */\n  dup1\n  sload\n  not(sub(shl(0xa0, 0x01), 0x01))\n  and\n    /* \"contracts/ACB.sol\":540:550  msg.sender */\n  caller\n    /* \"contracts/ACB.sol\":532:550  owner = msg.sender */\n  or\n  swap1\n  sstore\n  pop\n  pop\n    /* \"contracts/ACB.sol\":532:537  owner */\n  0x00\n    /* \"contracts/ACB.sol\":2220:2233  totalLpSupply */\n  0x0e\n    /* \"contracts/ACB.sol\":2220:2237  totalLpSupply = 0 */\n  dup2\n  swap1\n  sstore\n    /* \"contracts/ACB.sol\":2273:2276  200 */\n  0xc8\n    /* \"contracts/ACB.sol\":2248:2270  progressRewardBlockAdd */\n  0x08\n    /* \"contracts/ACB.sol\":2248:2276  progressRewardBlockAdd = 200 */\n  sstore\n    /* \"contracts/ACB.sol\":2311:2323  1 * 10 ** 10 */\n  0x02540be400\n    /* \"contracts/ACB.sol\":2287:2308  holderRewardCondition */\n  0x09\n    /* \"contracts/ACB.sol\":2287:2323  holderRewardCondition = 1 * 10 ** 10 */\n  sstore\n    /* \"contracts/ACB.sol\":2349:2355  500000 */\n  0x07a120\n    /* \"contracts/ACB.sol\":2335:2346  dividendGas */\n  0x0a\n    /* \"contracts/ACB.sol\":2335:2355  dividendGas = 500000 */\n  sstore\n    /* \"contracts/ACB.sol\":2367:2376  lpBonusEd */\n  0x0c\n    /* \"contracts/ACB.sol\":2367:2380  lpBonusEd = 0 */\n  dup2\n  swap1\n  sstore\n    /* \"contracts/ACB.sol\":2391:2398  lpBonus */\n  0x0b\n    /* \"contracts/ACB.sol\":2391:2402  lpBonus = 0 */\n  sstore\n    /* \"contracts/ACB.sol\":794:7750  contract SteamCoin is ERC20StandardToken, Ownable {... */\n  jump(tag_27)\n    /* \"contracts/ERC20StandardToken.sol\":4223:4533  function _mint(address account, uint256 amount) internal virtual {... */\ntag_10:\n  sub(shl(0xa0, 0x01), 0x01)\n    /* \"contracts/ERC20StandardToken.sol\":4307:4328  account != address(0) */\n  dup3\n  and\n    /* \"contracts/ERC20StandardToken.sol\":4299:4364  require(account != address(0), \"ERC20: mint to the zero address\") */\n  tag_15\n  jumpi\n  mload(0x40)\n  shl(0xe5, 0x461bcd)\n  dup2\n  mstore\n    /* \"#utility.yul\":2937:2939   */\n  0x20\n    /* \"contracts/ERC20StandardToken.sol\":4299:4364  require(account != address(0), \"ERC20: mint to the zero address\") */\n  0x04\n  dup3\n  add\n    /* \"#utility.yul\":2919:2940   */\n  mstore\n    /* \"#utility.yul\":2976:2978   */\n  0x1f\n    /* \"#utility.yul\":2956:2974   */\n  0x24\n  dup3\n  add\n    /* \"#utility.yul\":2949:2979   */\n  mstore\n    /* \"#utility.yul\":3015:3048   */\n  0x45524332303a206d696e7420746f20746865207a65726f206164647265737300\n    /* \"#utility.yul\":2995:3013   */\n  0x44\n  dup3\n  add\n    /* \"#utility.yul\":2988:3049   */\n  mstore\n    /* \"#utility.yul\":3066:3084   */\n  0x64\n  add\n    /* \"contracts/ERC20StandardToken.sol\":4299:4364  require(account != address(0), \"ERC20: mint to the zero address\") */\n  mload(0x40)\n  dup1\n  swap2\n  sub\n  swap1\n  revert\ntag_15:\n    /* \"contracts/ERC20StandardToken.sol\":4391:4397  amount */\n  dup1\n    /* \"contracts/ERC20StandardToken.sol\":4375:4387  _totalSupply */\n  0x04\n  0x00\n    /* \"contracts/ERC20StandardToken.sol\":4375:4397  _totalSupply += amount */\n  dup3\n  dup3\n  sload\n  tag_18\n  swap2\n  swap1\n  tag_19\n  jump\t// in\ntag_18:\n  swap1\n  swap2\n  sstore\n  pop\n  pop\n  sub(shl(0xa0, 0x01), 0x01)\n    /* \"contracts/ERC20StandardToken.sol\":4433:4451  _balances[account] */\n  dup3\n  and\n    /* \"contracts/ERC20StandardToken.sol\":4433:4442  _balances */\n  0x00\n    /* \"contracts/ERC20StandardToken.sol\":4433:4451  _balances[account] */\n  dup2\n  dup2\n  mstore\n  0x20\n  dup2\n  dup2\n  mstore\n  0x40\n  dup1\n  dup4\n  keccak256\n    /* \"contracts/ERC20StandardToken.sol\":4433:4461  _balances[account] += amount */\n  dup1\n  sload\n  dup7\n  add\n  swap1\n  sstore\n    /* \"contracts/ERC20StandardToken.sol\":4488:4525  Transfer(address(0), account, amount) */\n  mload\n    /* \"#utility.yul\":3468:3493   */\n  dup5\n  dup2\n  mstore\n    /* \"contracts/ERC20StandardToken.sol\":4488:4525  Transfer(address(0), account, amount) */\n  0xddf252ad1be2c89b69c2b068fc378daa952ba7f163c4a11628f55a4df523b3ef\n  swap2\n    /* \"#utility.yul\":3441:3459   */\n  add\n    /* \"contracts/ERC20StandardToken.sol\":4488:4525  Transfer(address(0), account, amount) */\n  mload(0x40)\n  dup1\n  swap2\n  sub\n  swap1\n  log3\n    /* \"contracts/ERC20StandardToken.sol\":4223:4533  function _mint(address account, uint256 amount) internal virtual {... */\n  pop\n  pop\n  jump\t// out\n    /* \"#utility.yul\":14:141   */\ntag_22:\n    /* \"#utility.yul\":75:85   */\n  0x4e487b71\n    /* \"#utility.yul\":70:73   */\n  0xe0\n    /* \"#utility.yul\":66:86   */\n  shl\n    /* \"#utility.yul\":63:64   */\n  0x00\n    /* \"#utility.yul\":56:87   */\n  mstore\n    /* \"#utility.yul\":106:110   */\n  0x41\n    /* \"#utility.yul\":103:104   */\n  0x04\n    /* \"#utility.yul\":96:111   */\n  mstore\n    /* \"#utility.yul\":130:134   */\n  0x24\n    /* \"#utility.yul\":127:128   */\n  0x00\n    /* \"#utility.yul\":120:135   */\n  revert\n    /* \"#utility.yul\":146:526   */\ntag_23:\n    /* \"#utility.yul\":225:226   */\n  0x01\n    /* \"#utility.yul\":221:233   */\n  dup2\n  dup2\n  shr\n  swap1\n    /* \"#utility.yul\":268:280   */\n  dup3\n  and\n  dup1\n    /* \"#utility.yul\":289:350   */\n  tag_30\n  jumpi\n    /* \"#utility.yul\":343:347   */\n  0x7f\n    /* \"#utility.yul\":335:341   */\n  dup3\n    /* \"#utility.yul\":331:348   */\n  and\n    /* \"#utility.yul\":321:348   */\n  swap2\n  pop\n    /* \"#utility.yul\":289:350   */\ntag_30:\n    /* \"#utility.yul\":396:398   */\n  0x20\n    /* \"#utility.yul\":388:394   */\n  dup3\n    /* \"#utility.yul\":385:399   */\n  lt\n    /* \"#utility.yul\":365:383   */\n  dup2\n    /* \"#utility.yul\":362:400   */\n  sub\n    /* \"#utility.yul\":359:520   */\n  tag_31\n  jumpi\n    /* \"#utility.yul\":442:452   */\n  0x4e487b71\n    /* \"#utility.yul\":437:440   */\n  0xe0\n    /* \"#utility.yul\":433:453   */\n  shl\n    /* \"#utility.yul\":430:431   */\n  0x00\n    /* \"#utility.yul\":423:454   */\n  mstore\n    /* \"#utility.yul\":477:481   */\n  0x22\n    /* \"#utility.yul\":474:475   */\n  0x04\n    /* \"#utility.yul\":467:482   */\n  mstore\n    /* \"#utility.yul\":505:509   */\n  0x24\n    /* \"#utility.yul\":502:503   */\n  0x00\n    /* \"#utility.yul\":495:510   */\n  revert\n    /* \"#utility.yul\":359:520   */\ntag_31:\n  pop\n    /* \"#utility.yul\":146:526   */\n  swap2\n  swap1\n  pop\n  jump\t// out\n    /* \"#utility.yul\":657:1202   */\ntag_25:\n    /* \"#utility.yul\":759:761   */\n  0x1f\n    /* \"#utility.yul\":754:757   */\n  dup3\n    /* \"#utility.yul\":751:762   */\n  gt\n    /* \"#utility.yul\":748:1196   */\n  iszero\n  tag_34\n  jumpi\n    /* \"#utility.yul\":795:796   */\n  0x00\n    /* \"#utility.yul\":820:825   */\n  dup2\n    /* \"#utility.yul\":816:818   */\n  dup2\n    /* \"#utility.yul\":809:826   */\n  mstore\n    /* \"#utility.yul\":865:869   */\n  0x20\n    /* \"#utility.yul\":861:863   */\n  dup2\n    /* \"#utility.yul\":851:870   */\n  keccak256\n    /* \"#utility.yul\":935:937   */\n  0x1f\n    /* \"#utility.yul\":923:933   */\n  dup6\n    /* \"#utility.yul\":919:938   */\n  add\n    /* \"#utility.yul\":916:917   */\n  0x05\n    /* \"#utility.yul\":912:939   */\n  shr\n    /* \"#utility.yul\":906:910   */\n  dup2\n    /* \"#utility.yul\":902:940   */\n  add\n    /* \"#utility.yul\":971:975   */\n  0x20\n    /* \"#utility.yul\":959:969   */\n  dup7\n    /* \"#utility.yul\":956:976   */\n  lt\n    /* \"#utility.yul\":953:1000   */\n  iszero\n  tag_35\n  jumpi\n  pop\n    /* \"#utility.yul\":994:998   */\n  dup1\n    /* \"#utility.yul\":953:1000   */\ntag_35:\n    /* \"#utility.yul\":1049:1051   */\n  0x1f\n    /* \"#utility.yul\":1044:1047   */\n  dup6\n    /* \"#utility.yul\":1040:1052   */\n  add\n    /* \"#utility.yul\":1037:1038   */\n  0x05\n    /* \"#utility.yul\":1033:1053   */\n  shr\n    /* \"#utility.yul\":1027:1031   */\n  dup3\n    /* \"#utility.yul\":1023:1054   */\n  add\n    /* \"#utility.yul\":1013:1054   */\n  swap2\n  pop\n    /* \"#utility.yul\":1104:1186   */\ntag_36:\n    /* \"#utility.yul\":1122:1124   */\n  dup2\n    /* \"#utility.yul\":1115:1120   */\n  dup2\n    /* \"#utility.yul\":1112:1125   */\n  lt\n    /* \"#utility.yul\":1104:1186   */\n  iszero\n  tag_38\n  jumpi\n    /* \"#utility.yul\":1167:1184   */\n  dup3\n  dup2\n  sstore\n    /* \"#utility.yul\":1148:1149   */\n  0x01\n    /* \"#utility.yul\":1137:1150   */\n  add\n    /* \"#utility.yul\":1104:1186   */\n  jump(tag_36)\ntag_38:\n    /* \"#utility.yul\":1108:1111   */\n  pop\n  pop\n  pop\n    /* \"#utility.yul\":748:1196   */\ntag_34:\n    /* \"#utility.yul\":657:1202   */\n  pop\n  pop\n  pop\n  jump\t// out\n    /* \"#utility.yul\":1378:2730   */\ntag_7:\n    /* \"#utility.yul\":1498:1508   */\n  dup2\n  mload\n  sub(shl(0x40, 0x01), 0x01)\n    /* \"#utility.yul\":1520:1550   */\n  dup2\n  gt\n    /* \"#utility.yul\":1517:1573   */\n  iszero\n  tag_42\n  jumpi\n    /* \"#utility.yul\":1553:1571   */\n  tag_42\n  tag_22\n  jump\t// in\ntag_42:\n    /* \"#utility.yul\":1582:1679   */\n  tag_43\n    /* \"#utility.yul\":1672:1678   */\n  dup2\n    /* \"#utility.yul\":1632:1670   */\n  tag_44\n    /* \"#utility.yul\":1664:1668   */\n  dup5\n    /* \"#utility.yul\":1658:1669   */\n  sload\n    /* \"#utility.yul\":1632:1670   */\n  tag_23\n  jump\t// in\ntag_44:\n    /* \"#utility.yul\":1626:1630   */\n  dup5\n    /* \"#utility.yul\":1582:1679   */\n  tag_25\n  jump\t// in\ntag_43:\n    /* \"#utility.yul\":1734:1738   */\n  0x20\n  dup1\n    /* \"#utility.yul\":1798:1800   */\n  0x1f\n    /* \"#utility.yul\":1787:1801   */\n  dup4\n  gt\n    /* \"#utility.yul\":1815:1816   */\n  0x01\n    /* \"#utility.yul\":1810:2473   */\n  dup2\n  eq\n  tag_46\n  jumpi\n    /* \"#utility.yul\":2517:2518   */\n  0x00\n    /* \"#utility.yul\":2534:2540   */\n  dup5\n    /* \"#utility.yul\":2531:2620   */\n  iszero\n  tag_47\n  jumpi\n  pop\n    /* \"#utility.yul\":2586:2605   */\n  dup6\n  dup4\n  add\n    /* \"#utility.yul\":2580:2606   */\n  mload\n    /* \"#utility.yul\":2531:2620   */\ntag_47:\n  not(0x00)\n    /* \"#utility.yul\":1335:1336   */\n  0x03\n    /* \"#utility.yul\":1331:1342   */\n  dup7\n  swap1\n  shl\n    /* \"#utility.yul\":1327:1351   */\n  shr\n    /* \"#utility.yul\":1323:1352   */\n  not\n    /* \"#utility.yul\":1313:1353   */\n  and\n    /* \"#utility.yul\":1359:1360   */\n  0x01\n    /* \"#utility.yul\":1355:1366   */\n  dup6\n  swap1\n  shl\n    /* \"#utility.yul\":1310:1367   */\n  or\n    /* \"#utility.yul\":2633:2714   */\n  dup6\n  sstore\n    /* \"#utility.yul\":1780:2724   */\n  jump(tag_38)\n    /* \"#utility.yul\":1810:2473   */\ntag_46:\n    /* \"#utility.yul\":604:605   */\n  0x00\n    /* \"#utility.yul\":597:611   */\n  dup6\n  dup2\n  mstore\n    /* \"#utility.yul\":641:645   */\n  0x20\n    /* \"#utility.yul\":628:646   */\n  dup2\n  keccak256\n  not(0x1f)\n    /* \"#utility.yul\":1846:1866   */\n  dup7\n  and\n  swap2\n    /* \"#utility.yul\":1964:2200   */\ntag_50:\n    /* \"#utility.yul\":1978:1985   */\n  dup3\n    /* \"#utility.yul\":1975:1976   */\n  dup2\n    /* \"#utility.yul\":1972:1986   */\n  lt\n    /* \"#utility.yul\":1964:2200   */\n  iszero\n  tag_52\n  jumpi\n    /* \"#utility.yul\":2067:2086   */\n  dup9\n  dup7\n  add\n    /* \"#utility.yul\":2061:2087   */\n  mload\n    /* \"#utility.yul\":2046:2088   */\n  dup3\n  sstore\n    /* \"#utility.yul\":2159:2186   */\n  swap5\n  dup5\n  add\n  swap5\n    /* \"#utility.yul\":2127:2128   */\n  0x01\n    /* \"#utility.yul\":2115:2129   */\n  swap1\n  swap2\n  add\n  swap1\n    /* \"#utility.yul\":1994:2013   */\n  dup5\n  add\n    /* \"#utility.yul\":1964:2200   */\n  jump(tag_50)\ntag_52:\n    /* \"#utility.yul\":1968:1971   */\n  pop\n    /* \"#utility.yul\":2228:2234   */\n  dup6\n    /* \"#utility.yul\":2219:2226   */\n  dup3\n    /* \"#utility.yul\":2216:2235   */\n  lt\n    /* \"#utility.yul\":2213:2414   */\n  iszero\n  tag_53\n  jumpi\n    /* \"#utility.yul\":2289:2308   */\n  dup8\n  dup6\n  add\n    /* \"#utility.yul\":2283:2309   */\n  mload\n  not(0x00)\n    /* \"#utility.yul\":2372:2373   */\n  0x03\n    /* \"#utility.yul\":2368:2382   */\n  dup9\n  swap1\n  shl\n    /* \"#utility.yul\":2384:2387   */\n  0xf8\n    /* \"#utility.yul\":2364:2388   */\n  and\n    /* \"#utility.yul\":2360:2397   */\n  shr\n    /* \"#utility.yul\":2356:2398   */\n  not\n    /* \"#utility.yul\":2341:2399   */\n  and\n    /* \"#utility.yul\":2326:2400   */\n  dup2\n  sstore\n    /* \"#utility.yul\":2213:2414   */\ntag_53:\n  pop\n  pop\n  pop\n  pop\n  pop\n    /* \"#utility.yul\":2460:2461   */\n  0x01\n    /* \"#utility.yul\":2444:2458   */\n  swap1\n  dup2\n  shl\n    /* \"#utility.yul\":2440:2462   */\n  add\n    /* \"#utility.yul\":2427:2463   */\n  swap1\n  sstore\n  pop\n    /* \"#utility.yul\":1378:2730   */\n  jump\t// out\n    /* \"#utility.yul\":3095:3317   */\ntag_19:\n    /* \"#utility.yul\":3160:3169   */\n  dup1\n  dup3\n  add\n    /* \"#utility.yul\":3181:3191   */\n  dup1\n  dup3\n  gt\n    /* \"#utility.yul\":3178:3311   */\n  iszero\n  tag_56\n  jumpi\n    /* \"#utility.yul\":3233:3243   */\n  0x4e487b71\n    /* \"#utility.yul\":3228:3231   */\n  0xe0\n    /* \"#utility.yul\":3224:3244   */\n  shl\n    /* \"#utility.yul\":3221:3222   */\n  0x00\n    /* \"#utility.yul\":3214:3245   */\n  mstore\n    /* \"#utility.yul\":3268:3272   */\n  0x11\n    /* \"#utility.yul\":3265:3266   */\n  0x04\n    /* \"#utility.yul\":3258:3273   */\n  mstore\n    /* \"#utility.yul\":3296:3300   */\n  0x24\n    /* \"#utility.yul\":3293:3294   */\n  0x00\n    /* \"#utility.yul\":3286:3301   */\n  revert\n    /* \"#utility.yul\":3178:3311   */\ntag_56:\n    /* \"#utility.yul\":3095:3317   */\n  swap3\n  swap2\n  pop\n  pop\n  jump\t// out\n    /* \"#utility.yul\":3322:3499   */\ntag_27:\n    /* \"contracts/ACB.sol\":794:7750  contract SteamCoin is ERC20StandardToken, Ownable {... */\n  mload(0x80)\n  codecopy(0x00, dataOffset(sub_0), dataSize(sub_0))\n  0x00\n  assignImmutable(\"0xb2f7ec079805c1e604295599f19cbf6191b8a697343d3ec0f3aa9a3a984f21b3\")\n  return(0x00, dataSize(sub_0))\nstop\n\nsub_0: assembly {\n        /* \"contracts/ACB.sol\":794:7750  contract SteamCoin is ERC20StandardToken, Ownable {... */\n      mstore(0x40, 0x80)\n      callvalue\n      dup1\n      iszero\n      tag_1\n      jumpi\n      0x00\n      dup1\n      revert\n    tag_1:\n      pop\n      jumpi(tag_2, lt(calldatasize, 0x04))\n      shr(0xe0, calldataload(0x00))\n      dup1\n      0x06fdde03\n      eq\n      tag_3\n      jumpi\n      dup1\n      0x095ea7b3\n      eq\n      tag_4\n      jumpi\n      dup1\n      0x0affb402\n      eq\n      tag_5\n      jumpi\n      dup1\n      0x1210c434\n      eq\n      tag_6\n      jumpi\n      dup1\n      0x18160ddd\n      eq\n      tag_7\n      jumpi\n      dup1\n      0x23b872dd\n      eq\n      tag_8\n      jumpi\n      dup1\n      0x2a595512\n      eq\n      tag_9\n      jumpi\n      dup1\n      0x313ce567\n      eq\n      tag_10\n      jumpi\n      dup1\n      0x46bb9271\n      eq\n      tag_11\n      jumpi\n      dup1\n      0x621f9c0a\n      eq\n      tag_12\n      jumpi\n      dup1\n      0x6689567e\n      eq\n      tag_13\n      jumpi\n      dup1\n      0x68698b48\n      eq\n      tag_14\n      jumpi\n      dup1\n      0x6aedea73\n      eq\n      tag_15\n      jumpi\n      dup1\n      0x70a08231\n      eq\n      tag_16\n      jumpi\n      dup1\n      0x86623a06\n      eq\n      tag_17\n      jumpi\n      dup1\n      0x8da5cb5b\n      eq\n      tag_18\n      jumpi\n      dup1\n      0x95d89b41\n      eq\n      tag_19\n      jumpi\n      dup1\n      0x9f0d7eb8\n      eq\n      tag_20\n      jumpi\n      dup1\n      0xa9059cbb\n      eq\n      tag_21\n      jumpi\n      dup1\n      0xadd0a6c6\n      eq\n      tag_22\n      jumpi\n      dup1\n      0xb367bf83\n      eq\n      tag_23\n      jumpi\n      dup1\n      0xb510efa6\n      eq\n      tag_24\n      jumpi\n      dup1\n      0xbd876702\n      eq\n      tag_25\n      jumpi\n      dup1\n      0xc213d62d\n      eq\n      tag_26\n      jumpi\n      dup1\n      0xc7003ed0\n      eq\n      tag_27\n      jumpi\n      dup1\n      0xdd62ed3e\n      eq\n      tag_28\n      jumpi\n      dup1\n      0xeb10b741\n      eq\n      tag_29\n      jumpi\n      dup1\n      0xec1f1f69\n      eq\n      tag_30\n      jumpi\n      dup1\n      0xed9a165d\n      eq\n      tag_31\n      jumpi\n      dup1\n      0xf2fde38b\n      eq\n      tag_32\n      jumpi\n    tag_2:\n      0x00\n      dup1\n      revert\n        /* \"contracts/ERC20StandardToken.sol\":1375:1466  function name() public view virtual returns (string memory) {... */\n    tag_3:\n      tag_33\n      tag_34\n      jump\t// in\n    tag_33:\n      mload(0x40)\n      tag_35\n      swap2\n      swap1\n      tag_36\n      jump\t// in\n    tag_35:\n      mload(0x40)\n      dup1\n      swap2\n      sub\n      swap1\n      return\n        /* \"contracts/ERC20StandardToken.sol\":2154:2321  function approve(address spender, uint256 amount) public virtual override returns (bool) {... */\n    tag_4:\n      tag_37\n      tag_38\n      calldatasize\n      0x04\n      tag_39\n      jump\t// in\n    tag_38:\n      tag_40\n      jump\t// in\n    tag_37:\n      mload(0x40)\n        /* \"#utility.yul\":1169:1183   */\n      swap1\n      iszero\n        /* \"#utility.yul\":1162:1184   */\n      iszero\n        /* \"#utility.yul\":1144:1185   */\n      dup2\n      mstore\n        /* \"#utility.yul\":1132:1134   */\n      0x20\n        /* \"#utility.yul\":1117:1135   */\n      add\n        /* \"contracts/ERC20StandardToken.sol\":2154:2321  function approve(address spender, uint256 amount) public virtual override returns (bool) {... */\n      tag_35\n        /* \"#utility.yul\":1004:1191   */\n      jump\n        /* \"contracts/ACB.sol\":1574:1622  mapping(address => uint256) public lpHolderIndex */\n    tag_5:\n      tag_43\n      tag_44\n      calldatasize\n      0x04\n      tag_45\n      jump\t// in\n    tag_44:\n      mstore(0x20, 0x12)\n      0x00\n      swap1\n      dup2\n      mstore\n      0x40\n      swap1\n      keccak256\n      sload\n      dup2\n      jump\n    tag_43:\n      mload(0x40)\n        /* \"#utility.yul\":1533:1558   */\n      swap1\n      dup2\n      mstore\n        /* \"#utility.yul\":1521:1523   */\n      0x20\n        /* \"#utility.yul\":1506:1524   */\n      add\n        /* \"contracts/ACB.sol\":1574:1622  mapping(address => uint256) public lpHolderIndex */\n      tag_35\n        /* \"#utility.yul\":1387:1564   */\n      jump\n        /* \"contracts/ACB.sol\":1342:1371  uint256 public currentLpIndex */\n    tag_6:\n      tag_43\n      sload(0x0d)\n      dup2\n      jump\n        /* \"contracts/ERC20StandardToken.sol\":1575:1683  function totalSupply() public view virtual override returns (uint256) {... */\n    tag_7:\n        /* \"contracts/ERC20StandardToken.sol\":1663:1675  _totalSupply */\n      sload(0x04)\n        /* \"contracts/ERC20StandardToken.sol\":1575:1683  function totalSupply() public view virtual override returns (uint256) {... */\n      jump(tag_43)\n        /* \"contracts/ERC20StandardToken.sol\":2329:2552  function transferFrom(address from, address to, uint256 amount) public virtual override returns (bool) {... */\n    tag_8:\n      tag_37\n      tag_56\n      calldatasize\n      0x04\n      tag_57\n      jump\t// in\n    tag_56:\n      tag_58\n      jump\t// in\n        /* \"contracts/ACB.sol\":1117:1151  uint256 public progressRewardBlock */\n    tag_9:\n      tag_43\n      sload(0x07)\n      dup2\n      jump\n        /* \"contracts/ERC20StandardToken.sol\":1474:1565  function decimals() public view virtual returns (uint8) {... */\n    tag_10:\n      mload(0x40)\n        /* \"#utility.yul\":2074:2078   */\n      0xff\n        /* \"contracts/ERC20StandardToken.sol\":1548:1557  _decimals */\n      immutable(\"0xb2f7ec079805c1e604295599f19cbf6191b8a697343d3ec0f3aa9a3a984f21b3\")\n        /* \"#utility.yul\":2062:2079   */\n      and\n        /* \"#utility.yul\":2044:2080   */\n      dup2\n      mstore\n        /* \"#utility.yul\":2032:2034   */\n      0x20\n        /* \"#utility.yul\":2017:2035   */\n      add\n        /* \"contracts/ERC20StandardToken.sol\":1474:1565  function decimals() public view virtual returns (uint8) {... */\n      tag_35\n        /* \"#utility.yul\":1902:2086   */\n      jump\n        /* \"contracts/ACB.sol\":7145:7225  function setBnbPair(address d) external onlyOwner {... */\n    tag_11:\n      tag_67\n      tag_68\n      calldatasize\n      0x04\n      tag_45\n      jump\t// in\n    tag_68:\n      tag_69\n      jump\t// in\n    tag_67:\n      stop\n        /* \"contracts/ACB.sol\":1282:1304  uint256 public lpBonus */\n    tag_12:\n      tag_43\n      sload(0x0b)\n      dup2\n      jump\n        /* \"contracts/ACB.sol\":7529:7633  function setDividendGas(uint256 vgas) external  onlyOwner{... */\n    tag_13:\n      tag_67\n      tag_74\n      calldatasize\n      0x04\n      tag_75\n      jump\t// in\n    tag_74:\n      tag_76\n      jump\t// in\n        /* \"contracts/ACB.sol\":1415:1462  mapping(address  => uint256) public _LpBalances */\n    tag_14:\n      tag_43\n      tag_78\n      calldatasize\n      0x04\n      tag_45\n      jump\t// in\n    tag_78:\n      mstore(0x20, 0x0f)\n      0x00\n      swap1\n      dup2\n      mstore\n      0x40\n      swap1\n      keccak256\n      sload\n      dup2\n      jump\n        /* \"contracts/ACB.sol\":1380:1408  uint256 public totalLpSupply */\n    tag_15:\n      tag_43\n      sload(0x0e)\n      dup2\n      jump\n        /* \"contracts/ERC20StandardToken.sol\":1691:1818  function balanceOf(address account) public view virtual override returns (uint256) {... */\n    tag_16:\n      tag_43\n      tag_85\n      calldatasize\n      0x04\n      tag_45\n      jump\t// in\n    tag_85:\n      sub(shl(0xa0, 0x01), 0x01)\n        /* \"contracts/ERC20StandardToken.sol\":1792:1810  _balances[account] */\n      and\n        /* \"contracts/ERC20StandardToken.sol\":1765:1772  uint256 */\n      0x00\n        /* \"contracts/ERC20StandardToken.sol\":1792:1810  _balances[account] */\n      swap1\n      dup2\n      mstore\n      0x20\n      dup2\n      swap1\n      mstore\n      0x40\n      swap1\n      keccak256\n      sload\n      swap1\n        /* \"contracts/ERC20StandardToken.sol\":1691:1818  function balanceOf(address account) public view virtual override returns (uint256) {... */\n      jump\n        /* \"contracts/ACB.sol\":1469:1516  mapping(address  => uint256) public _lastLpTime */\n    tag_17:\n      tag_43\n      tag_89\n      calldatasize\n      0x04\n      tag_45\n      jump\t// in\n    tag_89:\n      mstore(0x20, 0x10)\n      0x00\n      swap1\n      dup2\n      mstore\n      0x40\n      swap1\n      keccak256\n      sload\n      dup2\n      jump\n        /* \"contracts/ACB.sol\":477:497  address public owner */\n    tag_18:\n      sload(0x05)\n      tag_92\n      swap1\n      sub(shl(0xa0, 0x01), 0x01)\n      and\n      dup2\n      jump\n    tag_92:\n      mload(0x40)\n      sub(shl(0xa0, 0x01), 0x01)\n        /* \"#utility.yul\":2440:2472   */\n      swap1\n      swap2\n      and\n        /* \"#utility.yul\":2422:2473   */\n      dup2\n      mstore\n        /* \"#utility.yul\":2410:2412   */\n      0x20\n        /* \"#utility.yul\":2395:2413   */\n      add\n        /* \"contracts/ACB.sol\":477:497  address public owner */\n      tag_35\n        /* \"#utility.yul\":2276:2479   */\n      jump\n        /* \"contracts/ERC20StandardToken.sol\":1272:1367  function symbol() public view virtual returns (string memory) {... */\n    tag_19:\n      tag_33\n      tag_97\n      jump\t// in\n        /* \"contracts/ACB.sol\":1631:1657  address[] public lpHolders */\n    tag_20:\n      tag_92\n      tag_100\n      calldatasize\n      0x04\n      tag_75\n      jump\t// in\n    tag_100:\n      tag_101\n      jump\t// in\n        /* \"contracts/ERC20StandardToken.sol\":1987:2146  function transfer(address to, uint256 amount) public virtual override returns (bool) {... */\n    tag_21:\n      tag_37\n      tag_104\n      calldatasize\n      0x04\n      tag_39\n      jump\t// in\n    tag_104:\n      tag_105\n      jump\t// in\n        /* \"contracts/ACB.sol\":1158:1195  uint256 public progressRewardBlockAdd */\n    tag_22:\n      tag_43\n      sload(0x08)\n      dup2\n      jump\n        /* \"contracts/ACB.sol\":1311:1335  uint256 public lpBonusEd */\n    tag_23:\n      tag_43\n      sload(0x0c)\n      dup2\n      jump\n        /* \"contracts/ACB.sol\":1523:1567  mapping(address  => uint256) public _lastEth */\n    tag_24:\n      tag_43\n      tag_114\n      calldatasize\n      0x04\n      tag_45\n      jump\t// in\n    tag_114:\n      mstore(0x20, 0x11)\n      0x00\n      swap1\n      dup2\n      mstore\n      0x40\n      swap1\n      keccak256\n      sload\n      dup2\n      jump\n        /* \"contracts/ACB.sol\":1249:1275  uint256 public dividendGas */\n    tag_25:\n      tag_43\n      sload(0x0a)\n      dup2\n      jump\n        /* \"contracts/ACB.sol\":7388:7506  function setHolderRewardCondition(uint256 amount) external onlyOwner {... */\n    tag_26:\n      tag_67\n      tag_121\n      calldatasize\n      0x04\n      tag_75\n      jump\t// in\n    tag_121:\n      tag_122\n      jump\t// in\n        /* \"contracts/ACB.sol\":7641:7747  function setRewardBlockAdd(uint256 num) external  onlyOwner{... */\n    tag_27:\n      tag_67\n      tag_124\n      calldatasize\n      0x04\n      tag_75\n      jump\t// in\n    tag_124:\n      tag_125\n      jump\t// in\n        /* \"contracts/ERC20StandardToken.sol\":1826:1977  function allowance(address owner, address spender) public view virtual override returns (uint256) {... */\n    tag_28:\n      tag_43\n      tag_127\n      calldatasize\n      0x04\n      tag_128\n      jump\t// in\n    tag_127:\n      sub(shl(0xa0, 0x01), 0x01)\n        /* \"contracts/ERC20StandardToken.sol\":1942:1960  _allowances[owner] */\n      swap2\n      dup3\n      and\n        /* \"contracts/ERC20StandardToken.sol\":1915:1922  uint256 */\n      0x00\n        /* \"contracts/ERC20StandardToken.sol\":1942:1960  _allowances[owner] */\n      swap1\n      dup2\n      mstore\n        /* \"contracts/ERC20StandardToken.sol\":1942:1953  _allowances */\n      0x01\n        /* \"contracts/ERC20StandardToken.sol\":1942:1960  _allowances[owner] */\n      0x20\n      swap1\n      dup2\n      mstore\n      0x40\n      dup1\n      dup4\n      keccak256\n        /* \"contracts/ERC20StandardToken.sol\":1942:1969  _allowances[owner][spender] */\n      swap4\n      swap1\n      swap5\n      and\n      dup3\n      mstore\n      swap2\n      swap1\n      swap2\n      mstore\n      keccak256\n      sload\n      swap1\n        /* \"contracts/ERC20StandardToken.sol\":1826:1977  function allowance(address owner, address spender) public view virtual override returns (uint256) {... */\n      jump\n        /* \"contracts/ACB.sol\":1205:1241  uint256 public holderRewardCondition */\n    tag_29:\n      tag_43\n      sload(0x09)\n      dup2\n      jump\n        /* \"contracts/ACB.sol\":1664:1681  address public op */\n    tag_30:\n      sload(0x14)\n      tag_92\n      swap1\n      sub(shl(0xa0, 0x01), 0x01)\n      and\n      dup2\n      jump\n        /* \"contracts/ACB.sol\":874:897  address public  bnbPair */\n    tag_31:\n      sload(0x06)\n      tag_92\n      swap1\n      sub(shl(0xa0, 0x01), 0x01)\n      and\n      dup2\n      jump\n        /* \"contracts/ACB.sol\":690:787  function transferOwnership(address newOwner) public onlyOwner {... */\n    tag_32:\n      tag_67\n      tag_141\n      calldatasize\n      0x04\n      tag_45\n      jump\t// in\n    tag_141:\n      tag_142\n      jump\t// in\n        /* \"contracts/ERC20StandardToken.sol\":1375:1466  function name() public view virtual returns (string memory) {... */\n    tag_34:\n        /* \"contracts/ERC20StandardToken.sol\":1420:1433  string memory */\n      0x60\n        /* \"contracts/ERC20StandardToken.sol\":1453:1458  _name */\n      0x03\n        /* \"contracts/ERC20StandardToken.sol\":1446:1458  return _name */\n      dup1\n      sload\n      tag_144\n      swap1\n      tag_145\n      jump\t// in\n    tag_144:\n      dup1\n      0x1f\n      add\n      0x20\n      dup1\n      swap2\n      div\n      mul\n      0x20\n      add\n      mload(0x40)\n      swap1\n      dup2\n      add\n      0x40\n      mstore\n      dup1\n      swap3\n      swap2\n      swap1\n      dup2\n      dup2\n      mstore\n      0x20\n      add\n      dup3\n      dup1\n      sload\n      tag_146\n      swap1\n      tag_145\n      jump\t// in\n    tag_146:\n      dup1\n      iszero\n      tag_147\n      jumpi\n      dup1\n      0x1f\n      lt\n      tag_148\n      jumpi\n      0x0100\n      dup1\n      dup4\n      sload\n      div\n      mul\n      dup4\n      mstore\n      swap2\n      0x20\n      add\n      swap2\n      jump(tag_147)\n    tag_148:\n      dup3\n      add\n      swap2\n      swap1\n      0x00\n      mstore\n      keccak256(0x00, 0x20)\n      swap1\n    tag_149:\n      dup2\n      sload\n      dup2\n      mstore\n      swap1\n      0x01\n      add\n      swap1\n      0x20\n      add\n      dup1\n      dup4\n      gt\n      tag_149\n      jumpi\n      dup3\n      swap1\n      sub\n      0x1f\n      and\n      dup3\n      add\n      swap2\n    tag_147:\n      pop\n      pop\n      pop\n      pop\n      pop\n      swap1\n      pop\n        /* \"contracts/ERC20StandardToken.sol\":1375:1466  function name() public view virtual returns (string memory) {... */\n      swap1\n      jump\t// out\n        /* \"contracts/ERC20StandardToken.sol\":2154:2321  function approve(address spender, uint256 amount) public virtual override returns (bool) {... */\n    tag_40:\n        /* \"contracts/ERC20StandardToken.sol\":2237:2241  bool */\n      0x00\n        /* \"contracts/ERC20StandardToken.sol\":2254:2291  _approve(msg.sender, spender, amount) */\n      tag_151\n        /* \"contracts/ERC20StandardToken.sol\":2263:2273  msg.sender */\n      caller\n        /* \"contracts/ERC20StandardToken.sol\":2275:2282  spender */\n      dup5\n        /* \"contracts/ERC20StandardToken.sol\":2284:2290  amount */\n      dup5\n        /* \"contracts/ERC20StandardToken.sol\":2254:2262  _approve */\n      tag_152\n        /* \"contracts/ERC20StandardToken.sol\":2254:2291  _approve(msg.sender, spender, amount) */\n      jump\t// in\n    tag_151:\n      pop\n        /* \"contracts/ERC20StandardToken.sol\":2309:2313  true */\n      0x01\n        /* \"contracts/ERC20StandardToken.sol\":2154:2321  function approve(address spender, uint256 amount) public virtual override returns (bool) {... */\n    tag_150:\n      swap3\n      swap2\n      pop\n      pop\n      jump\t// out\n        /* \"contracts/ERC20StandardToken.sol\":2329:2552  function transferFrom(address from, address to, uint256 amount) public virtual override returns (bool) {... */\n    tag_58:\n        /* \"contracts/ERC20StandardToken.sol\":2426:2430  bool */\n      0x00\n        /* \"contracts/ERC20StandardToken.sol\":2443:2484  _spendAllowance(from, msg.sender, amount) */\n      tag_155\n        /* \"contracts/ERC20StandardToken.sol\":2459:2463  from */\n      dup5\n        /* \"contracts/ERC20StandardToken.sol\":2465:2475  msg.sender */\n      caller\n        /* \"contracts/ERC20StandardToken.sol\":2477:2483  amount */\n      dup5\n        /* \"contracts/ERC20StandardToken.sol\":2443:2458  _spendAllowance */\n      tag_156\n        /* \"contracts/ERC20StandardToken.sol\":2443:2484  _spendAllowance(from, msg.sender, amount) */\n      jump\t// in\n    tag_155:\n        /* \"contracts/ERC20StandardToken.sol\":2495:2522  _transfer(from, to, amount) */\n      tag_157\n        /* \"contracts/ERC20StandardToken.sol\":2505:2509  from */\n      dup5\n        /* \"contracts/ERC20StandardToken.sol\":2511:2513  to */\n      dup5\n        /* \"contracts/ERC20StandardToken.sol\":2515:2521  amount */\n      dup5\n        /* \"contracts/ERC20StandardToken.sol\":2495:2504  _transfer */\n      tag_158\n        /* \"contracts/ERC20StandardToken.sol\":2495:2522  _transfer(from, to, amount) */\n      jump\t// in\n    tag_157:\n      pop\n        /* \"contracts/ERC20StandardToken.sol\":2540:2544  true */\n      0x01\n        /* \"contracts/ERC20StandardToken.sol\":2329:2552  function transferFrom(address from, address to, uint256 amount) public virtual override returns (bool) {... */\n      swap4\n      swap3\n      pop\n      pop\n      pop\n      jump\t// out\n        /* \"contracts/ACB.sol\":7145:7225  function setBnbPair(address d) external onlyOwner {... */\n    tag_69:\n        /* \"contracts/ACB.sol\":606:611  owner */\n      and(sub(shl(0xa0, 0x01), 0x01), sload(0x05))\n        /* \"contracts/ACB.sol\":615:625  msg.sender */\n      caller\n        /* \"contracts/ACB.sol\":606:625  owner == msg.sender */\n      eq\n        /* \"contracts/ACB.sol\":598:662  require(owner == msg.sender, \"Ownable: caller is not the owner\") */\n      tag_161\n      jumpi\n      mload(0x40)\n      shl(0xe5, 0x461bcd)\n      dup2\n      mstore\n      0x04\n      add\n      tag_162\n      swap1\n      tag_163\n      jump\t// in\n    tag_162:\n      mload(0x40)\n      dup1\n      swap2\n      sub\n      swap1\n      revert\n    tag_161:\n        /* \"contracts/ACB.sol\":7206:7213  bnbPair */\n      0x06\n        /* \"contracts/ACB.sol\":7206:7217  bnbPair = d */\n      dup1\n      sload\n      not(sub(shl(0xa0, 0x01), 0x01))\n      and\n      sub(shl(0xa0, 0x01), 0x01)\n      swap3\n      swap1\n      swap3\n      and\n      swap2\n      swap1\n      swap2\n      or\n      swap1\n      sstore\n        /* \"contracts/ACB.sol\":7145:7225  function setBnbPair(address d) external onlyOwner {... */\n      jump\t// out\n        /* \"contracts/ACB.sol\":7529:7633  function setDividendGas(uint256 vgas) external  onlyOwner{... */\n    tag_76:\n        /* \"contracts/ACB.sol\":606:611  owner */\n      and(sub(shl(0xa0, 0x01), 0x01), sload(0x05))\n        /* \"contracts/ACB.sol\":615:625  msg.sender */\n      caller\n        /* \"contracts/ACB.sol\":606:625  owner == msg.sender */\n      eq\n        /* \"contracts/ACB.sol\":598:662  require(owner == msg.sender, \"Ownable: caller is not the owner\") */\n      tag_166\n      jumpi\n      mload(0x40)\n      shl(0xe5, 0x461bcd)\n      dup2\n      mstore\n      0x04\n      add\n      tag_162\n      swap1\n      tag_163\n      jump\t// in\n    tag_166:\n        /* \"contracts/ACB.sol\":7607:7618  dividendGas */\n      0x0a\n        /* \"contracts/ACB.sol\":7607:7625  dividendGas = vgas */\n      sstore\n        /* \"contracts/ACB.sol\":7529:7633  function setDividendGas(uint256 vgas) external  onlyOwner{... */\n      jump\t// out\n        /* \"contracts/ERC20StandardToken.sol\":1272:1367  function symbol() public view virtual returns (string memory) {... */\n    tag_97:\n        /* \"contracts/ERC20StandardToken.sol\":1319:1332  string memory */\n      0x60\n        /* \"contracts/ERC20StandardToken.sol\":1352:1359  _symbol */\n      0x02\n        /* \"contracts/ERC20StandardToken.sol\":1345:1359  return _symbol */\n      dup1\n      sload\n      tag_144\n      swap1\n      tag_145\n      jump\t// in\n        /* \"contracts/ACB.sol\":1631:1657  address[] public lpHolders */\n    tag_101:\n      0x13\n      dup2\n      dup2\n      sload\n      dup2\n      lt\n      tag_176\n      jumpi\n      0x00\n      dup1\n      revert\n    tag_176:\n      0x00\n      swap2\n      dup3\n      mstore\n      0x20\n      swap1\n      swap2\n      keccak256\n      add\n      sload\n      sub(shl(0xa0, 0x01), 0x01)\n      and\n      swap1\n      pop\n      dup2\n      jump\t// out\n        /* \"contracts/ERC20StandardToken.sol\":1987:2146  function transfer(address to, uint256 amount) public virtual override returns (bool) {... */\n    tag_105:\n        /* \"contracts/ERC20StandardToken.sol\":2066:2070  bool */\n      0x00\n        /* \"contracts/ERC20StandardToken.sol\":2083:2116  _transfer(msg.sender, to, amount) */\n      tag_151\n        /* \"contracts/ERC20StandardToken.sol\":2093:2103  msg.sender */\n      caller\n        /* \"contracts/ERC20StandardToken.sol\":2105:2107  to */\n      dup5\n        /* \"contracts/ERC20StandardToken.sol\":2109:2115  amount */\n      dup5\n        /* \"contracts/ERC20StandardToken.sol\":2083:2092  _transfer */\n      tag_158\n        /* \"contracts/ERC20StandardToken.sol\":2083:2116  _transfer(msg.sender, to, amount) */\n      jump\t// in\n        /* \"contracts/ACB.sol\":7388:7506  function setHolderRewardCondition(uint256 amount) external onlyOwner {... */\n    tag_122:\n        /* \"contracts/ACB.sol\":606:611  owner */\n      and(sub(shl(0xa0, 0x01), 0x01), sload(0x05))\n        /* \"contracts/ACB.sol\":615:625  msg.sender */\n      caller\n        /* \"contracts/ACB.sol\":606:625  owner == msg.sender */\n      eq\n        /* \"contracts/ACB.sol\":598:662  require(owner == msg.sender, \"Ownable: caller is not the owner\") */\n      tag_181\n      jumpi\n      mload(0x40)\n      shl(0xe5, 0x461bcd)\n      dup2\n      mstore\n      0x04\n      add\n      tag_162\n      swap1\n      tag_163\n      jump\t// in\n    tag_181:\n        /* \"contracts/ACB.sol\":7468:7489  holderRewardCondition */\n      0x09\n        /* \"contracts/ACB.sol\":7468:7498  holderRewardCondition = amount */\n      sstore\n        /* \"contracts/ACB.sol\":7388:7506  function setHolderRewardCondition(uint256 amount) external onlyOwner {... */\n      jump\t// out\n        /* \"contracts/ACB.sol\":7641:7747  function setRewardBlockAdd(uint256 num) external  onlyOwner{... */\n    tag_125:\n        /* \"contracts/ACB.sol\":606:611  owner */\n      and(sub(shl(0xa0, 0x01), 0x01), sload(0x05))\n        /* \"contracts/ACB.sol\":615:625  msg.sender */\n      caller\n        /* \"contracts/ACB.sol\":606:625  owner == msg.sender */\n      eq\n        /* \"contracts/ACB.sol\":598:662  require(owner == msg.sender, \"Ownable: caller is not the owner\") */\n      tag_185\n      jumpi\n      mload(0x40)\n      shl(0xe5, 0x461bcd)\n      dup2\n      mstore\n      0x04\n      add\n      tag_162\n      swap1\n      tag_163\n      jump\t// in\n    tag_185:\n        /* \"contracts/ACB.sol\":7711:7733  progressRewardBlockAdd */\n      0x08\n        /* \"contracts/ACB.sol\":7711:7739  progressRewardBlockAdd = num */\n      sstore\n        /* \"contracts/ACB.sol\":7641:7747  function setRewardBlockAdd(uint256 num) external  onlyOwner{... */\n      jump\t// out\n        /* \"contracts/ACB.sol\":690:787  function transferOwnership(address newOwner) public onlyOwner {... */\n    tag_142:\n        /* \"contracts/ACB.sol\":606:611  owner */\n      and(sub(shl(0xa0, 0x01), 0x01), sload(0x05))\n        /* \"contracts/ACB.sol\":615:625  msg.sender */\n      caller\n        /* \"contracts/ACB.sol\":606:625  owner == msg.sender */\n      eq\n        /* \"contracts/ACB.sol\":598:662  require(owner == msg.sender, \"Ownable: caller is not the owner\") */\n      tag_190\n      jumpi\n      mload(0x40)\n      shl(0xe5, 0x461bcd)\n      dup2\n      mstore\n      0x04\n      add\n      tag_162\n      swap1\n      tag_163\n      jump\t// in\n    tag_190:\n        /* \"contracts/ACB.sol\":763:768  owner */\n      0x05\n        /* \"contracts/ACB.sol\":763:779  owner = newOwner */\n      dup1\n      sload\n      not(sub(shl(0xa0, 0x01), 0x01))\n      and\n      sub(shl(0xa0, 0x01), 0x01)\n      swap3\n      swap1\n      swap3\n      and\n      swap2\n      swap1\n      swap2\n      or\n      swap1\n      sstore\n        /* \"contracts/ACB.sol\":690:787  function transferOwnership(address newOwner) public onlyOwner {... */\n      jump\t// out\n        /* \"contracts/ERC20StandardToken.sol\":4029:4215  function _approve(address owner, address spender, uint256 amount) internal virtual {... */\n    tag_152:\n      sub(shl(0xa0, 0x01), 0x01)\n        /* \"contracts/ERC20StandardToken.sol\":4123:4141  _allowances[owner] */\n      dup4\n      dup2\n      and\n      0x00\n      dup2\n      dup2\n      mstore\n        /* \"contracts/ERC20StandardToken.sol\":4123:4134  _allowances */\n      0x01\n        /* \"contracts/ERC20StandardToken.sol\":4123:4141  _allowances[owner] */\n      0x20\n      swap1\n      dup2\n      mstore\n      0x40\n      dup1\n      dup4\n      keccak256\n        /* \"contracts/ERC20StandardToken.sol\":4123:4150  _allowances[owner][spender] */\n      swap5\n      dup8\n      and\n      dup1\n      dup5\n      mstore\n      swap5\n      dup3\n      mstore\n      swap2\n      dup3\n      swap1\n      keccak256\n        /* \"contracts/ERC20StandardToken.sol\":4123:4159  _allowances[owner][spender] = amount */\n      dup6\n      swap1\n      sstore\n        /* \"contracts/ERC20StandardToken.sol\":4175:4207  Approval(owner, spender, amount) */\n      swap1\n      mload\n        /* \"#utility.yul\":1533:1558   */\n      dup5\n      dup2\n      mstore\n        /* \"contracts/ERC20StandardToken.sol\":4175:4207  Approval(owner, spender, amount) */\n      0x8c5be1e5ebec7d5bd14f71427d1e84f3dd0314c0f7b2291e5b200ac8c7c3b925\n      swap2\n        /* \"#utility.yul\":1506:1524   */\n      add\n        /* \"contracts/ERC20StandardToken.sol\":4175:4207  Approval(owner, spender, amount) */\n    tag_194:\n      mload(0x40)\n      dup1\n      swap2\n      sub\n      swap1\n      log3\n        /* \"contracts/ERC20StandardToken.sol\":4029:4215  function _approve(address owner, address spender, uint256 amount) internal virtual {... */\n      pop\n      pop\n      pop\n      jump\t// out\n        /* \"contracts/ERC20StandardToken.sol\":3600:4021  function _spendAllowance(address owner, address spender, uint256 amount) internal virtual {... */\n    tag_156:\n      sub(shl(0xa0, 0x01), 0x01)\n        /* \"contracts/ERC20StandardToken.sol\":3728:3746  _allowances[owner] */\n      dup1\n      dup5\n      and\n        /* \"contracts/ERC20StandardToken.sol\":3701:3725  uint256 currentAllowance */\n      0x00\n        /* \"contracts/ERC20StandardToken.sol\":3728:3746  _allowances[owner] */\n      swap1\n      dup2\n      mstore\n        /* \"contracts/ERC20StandardToken.sol\":3728:3739  _allowances */\n      0x01\n        /* \"contracts/ERC20StandardToken.sol\":3728:3746  _allowances[owner] */\n      0x20\n      swap1\n      dup2\n      mstore\n      0x40\n      dup1\n      dup4\n      keccak256\n        /* \"contracts/ERC20StandardToken.sol\":3728:3755  _allowances[owner][spender] */\n      swap4\n      dup7\n      and\n      dup4\n      mstore\n      swap3\n      swap1\n      mstore\n      keccak256\n      sload\n      not(0x00)\n        /* \"contracts/ERC20StandardToken.sol\":3770:3807  currentAllowance != type(uint256).max */\n      dup2\n      eq\n        /* \"contracts/ERC20StandardToken.sol\":3766:4014  if (currentAllowance != type(uint256).max) {... */\n      tag_200\n      jumpi\n        /* \"contracts/ERC20StandardToken.sol\":3852:3858  amount */\n      dup2\n        /* \"contracts/ERC20StandardToken.sol\":3832:3848  currentAllowance */\n      dup2\n        /* \"contracts/ERC20StandardToken.sol\":3832:3858  currentAllowance >= amount */\n      lt\n      iszero\n        /* \"contracts/ERC20StandardToken.sol\":3824:3892  require(currentAllowance >= amount, \"ERC20: insufficient allowance\") */\n      tag_197\n      jumpi\n      mload(0x40)\n      shl(0xe5, 0x461bcd)\n      dup2\n      mstore\n        /* \"#utility.yul\":3697:3699   */\n      0x20\n        /* \"contracts/ERC20StandardToken.sol\":3824:3892  require(currentAllowance >= amount, \"ERC20: insufficient allowance\") */\n      0x04\n      dup3\n      add\n        /* \"#utility.yul\":3679:3700   */\n      mstore\n        /* \"#utility.yul\":3736:3738   */\n      0x1d\n        /* \"#utility.yul\":3716:3734   */\n      0x24\n      dup3\n      add\n        /* \"#utility.yul\":3709:3739   */\n      mstore\n        /* \"#utility.yul\":3775:3806   */\n      0x45524332303a20696e73756666696369656e7420616c6c6f77616e6365000000\n        /* \"#utility.yul\":3755:3773   */\n      0x44\n      dup3\n      add\n        /* \"#utility.yul\":3748:3807   */\n      mstore\n        /* \"#utility.yul\":3824:3842   */\n      0x64\n      add\n        /* \"contracts/ERC20StandardToken.sol\":3824:3892  require(currentAllowance >= amount, \"ERC20: insufficient allowance\") */\n      tag_162\n        /* \"#utility.yul\":3495:3848   */\n      jump\n        /* \"contracts/ERC20StandardToken.sol\":3824:3892  require(currentAllowance >= amount, \"ERC20: insufficient allowance\") */\n    tag_197:\n        /* \"contracts/ERC20StandardToken.sol\":3936:3987  _approve(owner, spender, currentAllowance - amount) */\n      tag_200\n        /* \"contracts/ERC20StandardToken.sol\":3945:3950  owner */\n      dup5\n        /* \"contracts/ERC20StandardToken.sol\":3952:3959  spender */\n      dup5\n        /* \"contracts/ERC20StandardToken.sol\":3980:3986  amount */\n      dup5\n        /* \"contracts/ERC20StandardToken.sol\":3961:3977  currentAllowance */\n      dup5\n        /* \"contracts/ERC20StandardToken.sol\":3961:3986  currentAllowance - amount */\n      sub\n        /* \"contracts/ERC20StandardToken.sol\":3936:3944  _approve */\n      tag_152\n        /* \"contracts/ERC20StandardToken.sol\":3936:3987  _approve(owner, spender, currentAllowance - amount) */\n      jump\t// in\n    tag_200:\n        /* \"contracts/ERC20StandardToken.sol\":3690:4021  {... */\n      pop\n        /* \"contracts/ERC20StandardToken.sol\":3600:4021  function _spendAllowance(address owner, address spender, uint256 amount) internal virtual {... */\n      pop\n      pop\n      pop\n      jump\t// out\n        /* \"contracts/ACB.sol\":2933:4280  function _transfer(address from, address to, uint256 amount) internal override {... */\n    tag_158:\n        /* \"contracts/ACB.sol\":3049:3056  bnbPair */\n      and(sub(shl(0xa0, 0x01), 0x01), sload(0x06))\n        /* \"contracts/ACB.sol\":3107:3122  extcodesize(to) */\n      dup3\n      extcodesize\n        /* \"contracts/ACB.sol\":3147:3155  size > 0 */\n      dup1\n      iszero\n      dup1\n      iszero\n      swap1\n        /* \"contracts/ACB.sol\":3147:3169  size > 0 && to !=pair_ */\n      tag_202\n      jumpi\n      pop\n        /* \"contracts/ACB.sol\":3164:3169  pair_ */\n      dup2\n      sub(shl(0xa0, 0x01), 0x01)\n        /* \"contracts/ACB.sol\":3159:3169  to !=pair_ */\n      and\n        /* \"contracts/ACB.sol\":3159:3161  to */\n      dup5\n      sub(shl(0xa0, 0x01), 0x01)\n        /* \"contracts/ACB.sol\":3159:3169  to !=pair_ */\n      and\n      eq\n      iszero\n        /* \"contracts/ACB.sol\":3147:3169  size > 0 && to !=pair_ */\n    tag_202:\n        /* \"contracts/ACB.sol\":3144:3204  if(size > 0 && to !=pair_){... */\n      iszero\n      tag_203\n      jumpi\n        /* \"contracts/ACB.sol\":3186:3193  return; */\n      pop\n      pop\n        /* \"contracts/ACB.sol\":2933:4280  function _transfer(address from, address to, uint256 amount) internal override {... */\n      pop\n      pop\n      pop\n      jump\t// out\n        /* \"contracts/ACB.sol\":3144:3204  if(size > 0 && to !=pair_){... */\n    tag_203:\n        /* \"contracts/ACB.sol\":3225:3230  pair_ */\n      dup2\n      sub(shl(0xa0, 0x01), 0x01)\n        /* \"contracts/ACB.sol\":3217:3230  from != pair_ */\n      and\n        /* \"contracts/ACB.sol\":3217:3221  from */\n      dup6\n      sub(shl(0xa0, 0x01), 0x01)\n        /* \"contracts/ACB.sol\":3217:3230  from != pair_ */\n      and\n      eq\n      iszero\n        /* \"contracts/ACB.sol\":3217:3245  from != pair_ && to != pair_ */\n      dup1\n      iszero\n      tag_204\n      jumpi\n      pop\n        /* \"contracts/ACB.sol\":3240:3245  pair_ */\n      dup2\n      sub(shl(0xa0, 0x01), 0x01)\n        /* \"contracts/ACB.sol\":3234:3245  to != pair_ */\n      and\n        /* \"contracts/ACB.sol\":3234:3236  to */\n      dup5\n      sub(shl(0xa0, 0x01), 0x01)\n        /* \"contracts/ACB.sol\":3234:3245  to != pair_ */\n      and\n      eq\n      iszero\n        /* \"contracts/ACB.sol\":3217:3245  from != pair_ && to != pair_ */\n    tag_204:\n        /* \"contracts/ACB.sol\":3214:3328  if(from != pair_ && to != pair_) {... */\n      iszero\n      tag_205\n      jumpi\n        /* \"contracts/ACB.sol\":3262:3295  super._transfer(from, to, amount) */\n      tag_206\n        /* \"contracts/ACB.sol\":3278:3282  from */\n      dup6\n        /* \"contracts/ACB.sol\":3284:3286  to */\n      dup6\n        /* \"contracts/ACB.sol\":3288:3294  amount */\n      dup6\n        /* \"contracts/ACB.sol\":3262:3277  super._transfer */\n      tag_207\n        /* \"contracts/ACB.sol\":3262:3295  super._transfer(from, to, amount) */\n      jump\t// in\n    tag_206:\n        /* \"contracts/ACB.sol\":3310:3317  return; */\n      pop\n      pop\n        /* \"contracts/ACB.sol\":2933:4280  function _transfer(address from, address to, uint256 amount) internal override {... */\n      pop\n      pop\n      pop\n      jump\t// out\n        /* \"contracts/ACB.sol\":3214:3328  if(from != pair_ && to != pair_) {... */\n    tag_205:\n        /* \"contracts/ACB.sol\":3338:3369  _subSenderBalance(from, amount) */\n      tag_208\n        /* \"contracts/ACB.sol\":3356:3360  from */\n      dup6\n        /* \"contracts/ACB.sol\":3362:3368  amount */\n      dup5\n        /* \"contracts/ACB.sol\":3338:3355  _subSenderBalance */\n      tag_209\n        /* \"contracts/ACB.sol\":3338:3369  _subSenderBalance(from, amount) */\n      jump\t// in\n    tag_208:\n        /* \"contracts/ACB.sol\":3423:3426  100 */\n      0x64\n        /* \"contracts/ACB.sol\":3416:3426  amount/100 */\n      dup4\n      div\n        /* \"contracts/ACB.sol\":3441:3487  _addReceiverBalance(from, operationAddress, o) */\n      tag_213\n        /* \"contracts/ACB.sol\":3461:3465  from */\n      dup7\n        /* \"contracts/ACB.sol\":960:1002  0xbF1c5C87b4b0F37443819CBB956215982D9F8A4b */\n      0xbf1c5c87b4b0f37443819cbb956215982d9f8a4b\n        /* \"contracts/ACB.sol\":3416:3426  amount/100 */\n      dup4\n        /* \"contracts/ACB.sol\":3441:3460  _addReceiverBalance */\n      tag_214\n        /* \"contracts/ACB.sol\":3441:3487  _addReceiverBalance(from, operationAddress, o) */\n      jump\t// in\n    tag_213:\n        /* \"contracts/ACB.sol\":3502:3543  _addReceiverBalance(from, nodeAddress, o) */\n      tag_215\n        /* \"contracts/ACB.sol\":3522:3526  from */\n      dup7\n        /* \"contracts/ACB.sol\":1057:1099  0x000000000000000000000000000000000000dEaD */\n      0xdead\n        /* \"contracts/ACB.sol\":3541:3542  o */\n      dup4\n        /* \"contracts/ACB.sol\":3502:3521  _addReceiverBalance */\n      tag_214\n        /* \"contracts/ACB.sol\":3502:3543  _addReceiverBalance(from, nodeAddress, o) */\n      jump\t// in\n    tag_215:\n        /* \"contracts/ACB.sol\":3696:3739  _addReceiverBalance(from, address(this), o) */\n      tag_216\n        /* \"contracts/ACB.sol\":3716:3720  from */\n      dup7\n        /* \"contracts/ACB.sol\":3730:3734  this */\n      address\n        /* \"contracts/ACB.sol\":3737:3738  o */\n      dup4\n        /* \"contracts/ACB.sol\":3696:3715  _addReceiverBalance */\n      tag_214\n        /* \"contracts/ACB.sol\":3696:3739  _addReceiverBalance(from, address(this), o) */\n      jump\t// in\n    tag_216:\n        /* \"contracts/ACB.sol\":3758:3801  _addReceiverBalance(from, to, amount - 3*o) */\n      tag_217\n        /* \"contracts/ACB.sol\":3778:3782  from */\n      dup7\n        /* \"contracts/ACB.sol\":3784:3786  to */\n      dup7\n        /* \"contracts/ACB.sol\":3799:3800  o */\n      dup4\n        /* \"contracts/ACB.sol\":3797:3798  3 */\n      0x03\n        /* \"contracts/ACB.sol\":3797:3800  3*o */\n      mul\n        /* \"contracts/ACB.sol\":3788:3794  amount */\n      dup8\n        /* \"contracts/ACB.sol\":3788:3800  amount - 3*o */\n      sub\n        /* \"contracts/ACB.sol\":3758:3777  _addReceiverBalance */\n      tag_214\n        /* \"contracts/ACB.sol\":3758:3801  _addReceiverBalance(from, to, amount - 3*o) */\n      jump\t// in\n    tag_217:\n        /* \"contracts/ACB.sol\":4015:4036  processReward(o,from) */\n      tag_218\n        /* \"contracts/ACB.sol\":4029:4030  o */\n      dup2\n        /* \"contracts/ACB.sol\":4031:4035  from */\n      dup8\n        /* \"contracts/ACB.sol\":4015:4028  processReward */\n      tag_219\n        /* \"contracts/ACB.sol\":4015:4036  processReward(o,from) */\n      jump\t// in\n    tag_218:\n        /* \"contracts/ACB.sol\":4015:4041  processReward(o,from) == 0 */\n      pop\n        /* \"contracts/ACB.sol\":3380:4273  unchecked{... */\n      pop\n        /* \"contracts/ACB.sol\":3012:4280  {... */\n      pop\n      pop\n        /* \"contracts/ACB.sol\":2933:4280  function _transfer(address from, address to, uint256 amount) internal override {... */\n      pop\n      pop\n      pop\n      jump\t// out\n        /* \"contracts/ERC20StandardToken.sol\":2562:2944  function _transfer(address from, address to, uint256 amount) internal virtual {... */\n    tag_207:\n      sub(shl(0xa0, 0x01), 0x01)\n        /* \"contracts/ERC20StandardToken.sol\":2673:2688  _balances[from] */\n      dup4\n      and\n        /* \"contracts/ERC20StandardToken.sol\":2651:2670  uint256 fromBalance */\n      0x00\n        /* \"contracts/ERC20StandardToken.sol\":2673:2688  _balances[from] */\n      swap1\n      dup2\n      mstore\n      0x20\n      dup2\n      swap1\n      mstore\n      0x40\n      swap1\n      keccak256\n      sload\n        /* \"contracts/ERC20StandardToken.sol\":2707:2728  fromBalance >= amount */\n      dup2\n      dup2\n      lt\n      iszero\n        /* \"contracts/ERC20StandardToken.sol\":2699:2771  require(fromBalance >= amount, \"ERC20: transfer amount exceeds balance\") */\n      tag_222\n      jumpi\n      mload(0x40)\n      shl(0xe5, 0x461bcd)\n      dup2\n      mstore\n      0x04\n      add\n      tag_162\n      swap1\n      tag_224\n      jump\t// in\n    tag_222:\n      sub(shl(0xa0, 0x01), 0x01)\n        /* \"contracts/ERC20StandardToken.sol\":2807:2822  _balances[from] */\n      dup5\n      dup2\n      and\n        /* \"contracts/ERC20StandardToken.sol\":2807:2816  _balances */\n      0x00\n        /* \"contracts/ERC20StandardToken.sol\":2807:2822  _balances[from] */\n      dup2\n      dup2\n      mstore\n      0x20\n      dup2\n      dup2\n      mstore\n      0x40\n      dup1\n      dup4\n      keccak256\n        /* \"contracts/ERC20StandardToken.sol\":2825:2845  fromBalance - amount */\n      dup8\n      dup8\n      sub\n        /* \"contracts/ERC20StandardToken.sol\":2807:2845  _balances[from] = fromBalance - amount */\n      swap1\n      sstore\n        /* \"contracts/ERC20StandardToken.sol\":2860:2873  _balances[to] */\n      swap4\n      dup8\n      and\n      dup1\n      dup4\n      mstore\n      swap2\n      dup5\n      swap1\n      keccak256\n        /* \"contracts/ERC20StandardToken.sol\":2860:2883  _balances[to] += amount */\n      dup1\n      sload\n      dup8\n      add\n      swap1\n      sstore\n        /* \"contracts/ERC20StandardToken.sol\":2910:2936  Transfer(from, to, amount) */\n      swap3\n      mload\n        /* \"#utility.yul\":1533:1558   */\n      dup6\n      dup2\n      mstore\n        /* \"contracts/ERC20StandardToken.sol\":2860:2873  _balances[to] */\n      swap1\n      swap3\n      0x00\n      dup1\n      mload\n      0x20\n      data_ada389e1fc24a8587c776340efb91b36e675792ab631816100d55df0b5cf3cbc\n      dup4\n      codecopy\n      dup2\n      mload\n      swap2\n      mstore\n        /* \"contracts/ERC20StandardToken.sol\":2910:2936  Transfer(from, to, amount) */\n      swap2\n        /* \"#utility.yul\":1506:1524   */\n      add\n        /* \"contracts/ERC20StandardToken.sol\":2910:2936  Transfer(from, to, amount) */\n      mload(0x40)\n      dup1\n      swap2\n      sub\n      swap1\n      log3\n        /* \"contracts/ERC20StandardToken.sol\":2640:2944  {... */\n      pop\n        /* \"contracts/ERC20StandardToken.sol\":2562:2944  function _transfer(address from, address to, uint256 amount) internal virtual {... */\n      pop\n      pop\n      pop\n      jump\t// out\n        /* \"contracts/ERC20StandardToken.sol\":3078:3376  function _subSenderBalance(address from, uint256 amount) internal virtual {... */\n    tag_209:\n      sub(shl(0xa0, 0x01), 0x01)\n        /* \"contracts/ERC20StandardToken.sol\":3185:3200  _balances[from] */\n      dup3\n      and\n        /* \"contracts/ERC20StandardToken.sol\":3163:3182  uint256 fromBalance */\n      0x00\n        /* \"contracts/ERC20StandardToken.sol\":3185:3200  _balances[from] */\n      swap1\n      dup2\n      mstore\n      0x20\n      dup2\n      swap1\n      mstore\n      0x40\n      swap1\n      keccak256\n      sload\n        /* \"contracts/ERC20StandardToken.sol\":3219:3240  fromBalance >= amount */\n      dup2\n      dup2\n      lt\n      iszero\n        /* \"contracts/ERC20StandardToken.sol\":3211:3283  require(fromBalance >= amount, \"ERC20: transfer amount exceeds balance\") */\n      tag_227\n      jumpi\n      mload(0x40)\n      shl(0xe5, 0x461bcd)\n      dup2\n      mstore\n      0x04\n      add\n      tag_162\n      swap1\n      tag_224\n      jump\t// in\n    tag_227:\n      sub(shl(0xa0, 0x01), 0x01)\n        /* \"contracts/ERC20StandardToken.sol\":3319:3334  _balances[from] */\n      swap1\n      swap3\n      and\n        /* \"contracts/ERC20StandardToken.sol\":3319:3328  _balances */\n      0x00\n        /* \"contracts/ERC20StandardToken.sol\":3319:3334  _balances[from] */\n      swap1\n      dup2\n      mstore\n      0x20\n      dup2\n      swap1\n      mstore\n      0x40\n      swap1\n      keccak256\n        /* \"contracts/ERC20StandardToken.sol\":3337:3357  fromBalance - amount */\n      swap2\n      sub\n        /* \"contracts/ERC20StandardToken.sol\":3319:3357  _balances[from] = fromBalance - amount */\n      swap1\n      sstore\n        /* \"contracts/ERC20StandardToken.sol\":3078:3376  function _subSenderBalance(address from, uint256 amount) internal virtual {... */\n      jump\t// out\n        /* \"contracts/ERC20StandardToken.sol\":3384:3592  function _addReceiverBalance(address from, address to, uint256 amount) internal virtual {... */\n    tag_214:\n      sub(shl(0xa0, 0x01), 0x01)\n        /* \"contracts/ERC20StandardToken.sol\":3508:3521  _balances[to] */\n      dup3\n      dup2\n      and\n        /* \"contracts/ERC20StandardToken.sol\":3508:3517  _balances */\n      0x00\n        /* \"contracts/ERC20StandardToken.sol\":3508:3521  _balances[to] */\n      dup2\n      dup2\n      mstore\n      0x20\n      dup2\n      dup2\n      mstore\n      0x40\n      swap2\n      dup3\n      swap1\n      keccak256\n        /* \"contracts/ERC20StandardToken.sol\":3508:3531  _balances[to] += amount */\n      dup1\n      sload\n      dup7\n      add\n      swap1\n      sstore\n        /* \"contracts/ERC20StandardToken.sol\":3558:3584  Transfer(from, to, amount) */\n      swap1\n      mload\n        /* \"#utility.yul\":1533:1558   */\n      dup5\n      dup2\n      mstore\n        /* \"contracts/ERC20StandardToken.sol\":3508:3521  _balances[to] */\n      swap2\n      swap3\n        /* \"contracts/ERC20StandardToken.sol\":3558:3584  Transfer(from, to, amount) */\n      dup7\n      and\n      swap2\n      0x00\n      dup1\n      mload\n      0x20\n      data_ada389e1fc24a8587c776340efb91b36e675792ab631816100d55df0b5cf3cbc\n      dup4\n      codecopy\n      dup2\n      mload\n      swap2\n      mstore\n      swap2\n        /* \"#utility.yul\":1506:1524   */\n      add\n        /* \"contracts/ERC20StandardToken.sol\":3558:3584  Transfer(from, to, amount) */\n      tag_194\n        /* \"#utility.yul\":1387:1564   */\n      jump\n        /* \"contracts/ACB.sol\":4292:6537  function processReward(uint256 tfmount,address user)internal returns (uint256) {... */\n    tag_219:\n        /* \"contracts/ACB.sol\":4362:4369  uint256 */\n      0x00\n        /* \"contracts/ACB.sol\":4413:4420  tfmount */\n      dup3\n        /* \"contracts/ACB.sol\":4402:4409  lpBonus */\n      0x0b\n      0x00\n        /* \"contracts/ACB.sol\":4402:4420  lpBonus += tfmount */\n      dup3\n      dup3\n      sload\n      tag_232\n      swap2\n      swap1\n      tag_233\n      jump\t// in\n    tag_232:\n      swap1\n      swap2\n      sstore\n      pop\n      pop\n        /* \"contracts/ACB.sol\":4695:4702  lpBonus */\n      sload(0x0b)\n        /* \"contracts/ACB.sol\":4682:4691  lpBonusEd */\n      sload(0x0c)\n        /* \"contracts/ACB.sol\":4682:4702  lpBonusEd >= lpBonus */\n      lt\n        /* \"contracts/ACB.sol\":4678:4736  if (lpBonusEd >= lpBonus){... */\n      tag_234\n      jumpi\n      pop\n        /* \"contracts/ACB.sol\":4723:4724  0 */\n      0x00\n        /* \"contracts/ACB.sol\":4716:4724  return 0 */\n      jump(tag_150)\n        /* \"contracts/ACB.sol\":4678:4736  if (lpBonusEd >= lpBonus){... */\n    tag_234:\n        /* \"contracts/ACB.sol\":4746:4761  uint256 balance */\n      0x00\n        /* \"contracts/ACB.sol\":4774:4783  lpBonusEd */\n      sload(0x0c)\n        /* \"contracts/ACB.sol\":4764:4771  lpBonus */\n      sload(0x0b)\n        /* \"contracts/ACB.sol\":4764:4783  lpBonus - lpBonusEd */\n      tag_235\n      swap2\n      swap1\n      tag_236\n      jump\t// in\n    tag_235:\n        /* \"contracts/ACB.sol\":4746:4783  uint256 balance = lpBonus - lpBonusEd */\n      swap1\n      pop\n        /* \"contracts/ACB.sol\":4928:4949  holderRewardCondition */\n      sload(0x09)\n        /* \"contracts/ACB.sol\":4918:4925  balance */\n      dup2\n        /* \"contracts/ACB.sol\":4918:4949  balance < holderRewardCondition */\n      lt\n        /* \"contracts/ACB.sol\":4914:4996  if (balance < holderRewardCondition  ) {... */\n      iszero\n      tag_237\n      jumpi\n        /* \"contracts/ACB.sol\":4983:4984  0 */\n      0x00\n        /* \"contracts/ACB.sol\":4976:4984  return 0 */\n      swap2\n      pop\n      pop\n      jump(tag_150)\n        /* \"contracts/ACB.sol\":4914:4996  if (balance < holderRewardCondition  ) {... */\n    tag_237:\n        /* \"contracts/ACB.sol\":5126:5135  lpHolders */\n      0x13\n        /* \"contracts/ACB.sol\":5126:5142  lpHolders.length */\n      sload\n        /* \"contracts/ACB.sol\":5020:5036  address lpHolder */\n      0x00\n      swap1\n      dup2\n      swap1\n      dup2\n      swap1\n      dup2\n      dup1\n      dup1\n        /* \"contracts/ACB.sol\":5236:5245  gasleft() */\n      gas\n        /* \"contracts/ACB.sol\":5218:5245  uint256 gasLeft = gasleft() */\n      swap1\n      pop\n        /* \"contracts/ACB.sol\":5266:6420  while (gasUsed < dividendGas && iterations < lpHolderCount) {... */\n    tag_238:\n        /* \"contracts/ACB.sol\":5283:5294  dividendGas */\n      sload(0x0a)\n        /* \"contracts/ACB.sol\":5273:5280  gasUsed */\n      dup4\n        /* \"contracts/ACB.sol\":5273:5294  gasUsed < dividendGas */\n      lt\n        /* \"contracts/ACB.sol\":5273:5324  gasUsed < dividendGas && iterations < lpHolderCount */\n      dup1\n      iszero\n      tag_240\n      jumpi\n      pop\n        /* \"contracts/ACB.sol\":5311:5324  lpHolderCount */\n      dup4\n        /* \"contracts/ACB.sol\":5298:5308  iterations */\n      dup3\n        /* \"contracts/ACB.sol\":5298:5324  iterations < lpHolderCount */\n      lt\n        /* \"contracts/ACB.sol\":5273:5324  gasUsed < dividendGas && iterations < lpHolderCount */\n    tag_240:\n        /* \"contracts/ACB.sol\":5266:6420  while (gasUsed < dividendGas && iterations < lpHolderCount) {... */\n      iszero\n      tag_239\n      jumpi\n        /* \"contracts/ACB.sol\":5363:5376  lpHolderCount */\n      dup4\n        /* \"contracts/ACB.sol\":5345:5359  currentLpIndex */\n      sload(0x0d)\n        /* \"contracts/ACB.sol\":5345:5376  currentLpIndex >= lpHolderCount */\n      lt\n        /* \"contracts/ACB.sol\":5341:5431  if (currentLpIndex >= lpHolderCount) {... */\n      tag_241\n      jumpi\n        /* \"contracts/ACB.sol\":5414:5415  0 */\n      0x00\n        /* \"contracts/ACB.sol\":5397:5411  currentLpIndex */\n      0x0d\n        /* \"contracts/ACB.sol\":5397:5415  currentLpIndex = 0 */\n      sstore\n        /* \"contracts/ACB.sol\":5341:5431  if (currentLpIndex >= lpHolderCount) {... */\n    tag_241:\n        /* \"contracts/ACB.sol\":5470:5479  lpHolders */\n      0x13\n        /* \"contracts/ACB.sol\":5480:5494  currentLpIndex */\n      sload(0x0d)\n        /* \"contracts/ACB.sol\":5470:5495  lpHolders[currentLpIndex] */\n      dup2\n      sload\n      dup2\n      lt\n      tag_243\n      jumpi\n      tag_243\n      tag_244\n      jump\t// in\n    tag_243:\n      0x00\n      swap2\n      dup3\n      mstore\n      0x20\n      dup1\n      dup4\n      keccak256\n      swap1\n      swap2\n      add\n      sload\n      sub(shl(0xa0, 0x01), 0x01)\n      and\n        /* \"contracts/ACB.sol\":5522:5543  _LpBalances[lpHolder] */\n      dup1\n      dup4\n      mstore\n        /* \"contracts/ACB.sol\":5522:5533  _LpBalances */\n      0x0f\n        /* \"contracts/ACB.sol\":5522:5543  _LpBalances[lpHolder] */\n      swap1\n      swap2\n      mstore\n      0x40\n      swap1\n      swap2\n      keccak256\n      sload\n        /* \"contracts/ACB.sol\":5470:5495  lpHolders[currentLpIndex] */\n      swap1\n      swap8\n      pop\n        /* \"contracts/ACB.sol\":5522:5543  _LpBalances[lpHolder] */\n      swap6\n      pop\n        /* \"contracts/ACB.sol\":5575:5587  lpBalance >0 */\n      dup6\n      iszero\n      dup1\n      iszero\n      swap1\n        /* \"contracts/ACB.sol\":5575:5614  lpBalance >0 && lpHolder != nodeAddress */\n      tag_246\n      jumpi\n      pop\n      sub(shl(0xa0, 0x01), 0x01)\n        /* \"contracts/ACB.sol\":5591:5614  lpHolder != nodeAddress */\n      dup8\n      and\n        /* \"contracts/ACB.sol\":1057:1099  0x000000000000000000000000000000000000dEaD */\n      0xdead\n        /* \"contracts/ACB.sol\":5591:5614  lpHolder != nodeAddress */\n      eq\n      iszero\n        /* \"contracts/ACB.sol\":5575:5614  lpBalance >0 && lpHolder != nodeAddress */\n    tag_246:\n        /* \"contracts/ACB.sol\":5572:6227  if(lpBalance >0 && lpHolder != nodeAddress){... */\n      iszero\n      tag_252\n      jumpi\n        /* \"contracts/ACB.sol\":5758:5771  totalLpSupply */\n      sload(0x0e)\n        /* \"contracts/ACB.sol\":5734:5753  balance * lpBalance */\n      tag_248\n        /* \"contracts/ACB.sol\":5744:5753  lpBalance */\n      dup8\n        /* \"contracts/ACB.sol\":5734:5741  balance */\n      dup11\n        /* \"contracts/ACB.sol\":5734:5753  balance * lpBalance */\n      tag_249\n      jump\t// in\n    tag_248:\n        /* \"contracts/ACB.sol\":5733:5773  (balance * lpBalance) / (totalLpSupply ) */\n      tag_250\n      swap2\n      swap1\n      tag_251\n      jump\t// in\n    tag_250:\n        /* \"contracts/ACB.sol\":5724:5773  amount = (balance * lpBalance) / (totalLpSupply ) */\n      swap5\n      pop\n        /* \"contracts/ACB.sol\":5796:5806  amount > 0 */\n      dup5\n      iszero\n        /* \"contracts/ACB.sol\":5792:6212  if (amount > 0) {... */\n      tag_252\n      jumpi\n        /* \"contracts/ACB.sol\":5992:6040  super._transfer(address(this), lpHolder, amount) */\n      tag_253\n        /* \"contracts/ACB.sol\":6016:6020  this */\n      address\n        /* \"contracts/ACB.sol\":6023:6031  lpHolder */\n      dup9\n        /* \"contracts/ACB.sol\":6033:6039  amount */\n      dup8\n        /* \"contracts/ACB.sol\":5992:6007  super._transfer */\n      tag_207\n        /* \"contracts/ACB.sol\":5992:6040  super._transfer(address(this), lpHolder, amount) */\n      jump\t// in\n    tag_253:\n        /* \"contracts/ACB.sol\":6139:6145  amount */\n      dup5\n        /* \"contracts/ACB.sol\":6126:6135  lpBonusEd */\n      0x0c\n      0x00\n        /* \"contracts/ACB.sol\":6126:6145  lpBonusEd += amount */\n      dup3\n      dup3\n      sload\n      tag_254\n      swap2\n      swap1\n      tag_233\n      jump\t// in\n    tag_254:\n      swap1\n      swap2\n      sstore\n      pop\n      pop\n        /* \"contracts/ACB.sol\":5792:6212  if (amount > 0) {... */\n    tag_252:\n        /* \"contracts/ACB.sol\":6306:6315  gasleft() */\n      gas\n        /* \"contracts/ACB.sol\":6296:6315  gasLeft - gasleft() */\n      tag_255\n      swap1\n        /* \"contracts/ACB.sol\":6296:6303  gasLeft */\n      dup3\n        /* \"contracts/ACB.sol\":6296:6315  gasLeft - gasleft() */\n      tag_236\n      jump\t// in\n    tag_255:\n        /* \"contracts/ACB.sol\":6285:6316  gasUsed + (gasLeft - gasleft()) */\n      tag_256\n      swap1\n        /* \"contracts/ACB.sol\":6285:6292  gasUsed */\n      dup5\n        /* \"contracts/ACB.sol\":6285:6316  gasUsed + (gasLeft - gasleft()) */\n      tag_233\n      jump\t// in\n    tag_256:\n        /* \"contracts/ACB.sol\":6275:6316  gasUsed = gasUsed + (gasLeft - gasleft()) */\n      swap3\n      pop\n        /* \"contracts/ACB.sol\":6341:6350  gasleft() */\n      gas\n        /* \"contracts/ACB.sol\":6365:6379  currentLpIndex */\n      0x0d\n        /* \"contracts/ACB.sol\":6365:6381  currentLpIndex++ */\n      dup1\n      sload\n        /* \"contracts/ACB.sol\":6331:6350  gasLeft = gasleft() */\n      swap2\n      swap3\n      pop\n        /* \"contracts/ACB.sol\":6365:6379  currentLpIndex */\n      0x00\n        /* \"contracts/ACB.sol\":6365:6381  currentLpIndex++ */\n      tag_257\n      dup4\n      tag_258\n      jump\t// in\n    tag_257:\n      swap2\n      swap1\n      pop\n      sstore\n      pop\n        /* \"contracts/ACB.sol\":6396:6408  iterations++ */\n      dup2\n      dup1\n      tag_259\n      swap1\n      tag_258\n      jump\t// in\n    tag_259:\n      swap3\n      pop\n      pop\n        /* \"contracts/ACB.sol\":5266:6420  while (gasUsed < dividendGas && iterations < lpHolderCount) {... */\n      jump(tag_238)\n    tag_239:\n        /* \"contracts/ACB.sol\":6462:6474  block.number */\n      number\n        /* \"contracts/ACB.sol\":6440:6459  progressRewardBlock */\n      0x07\n        /* \"contracts/ACB.sol\":6440:6474  progressRewardBlock = block.number */\n      sstore\n        /* \"contracts/ACB.sol\":6485:6505  ariver(tfmount,user) */\n      tag_260\n        /* \"contracts/ACB.sol\":6492:6499  tfmount */\n      dup12\n        /* \"contracts/ACB.sol\":6500:6504  user */\n      dup12\n        /* \"contracts/ACB.sol\":6485:6491  ariver */\n      tag_261\n        /* \"contracts/ACB.sol\":6485:6505  ariver(tfmount,user) */\n      jump\t// in\n    tag_260:\n      pop\n        /* \"contracts/ACB.sol\":6523:6529  amount */\n      swap3\n      swap10\n        /* \"contracts/ACB.sol\":4292:6537  function processReward(uint256 tfmount,address user)internal returns (uint256) {... */\n      swap9\n      pop\n      pop\n      pop\n      pop\n      pop\n      pop\n      pop\n      pop\n      pop\n      jump\t// out\n        /* \"contracts/ACB.sol\":6545:7136  function ariver(uint256 amount,address sender)internal {... */\n    tag_261:\n        /* \"contracts/ACB.sol\":6659:6665  amount */\n      dup2\n        /* \"contracts/ACB.sol\":6642:6655  totalLpSupply */\n      0x0e\n      0x00\n        /* \"contracts/ACB.sol\":6642:6665  totalLpSupply += amount */\n      dup3\n      dup3\n      sload\n      tag_263\n      swap2\n      swap1\n      tag_233\n      jump\t// in\n    tag_263:\n      swap1\n      swap2\n      sstore\n      pop\n      pop\n      sub(shl(0xa0, 0x01), 0x01)\n        /* \"contracts/ACB.sol\":6674:6693  _LpBalances[sender] */\n      dup2\n      and\n      0x00\n      swap1\n      dup2\n      mstore\n        /* \"contracts/ACB.sol\":6674:6685  _LpBalances */\n      0x0f\n        /* \"contracts/ACB.sol\":6674:6693  _LpBalances[sender] */\n      0x20\n      mstore\n      0x40\n      dup2\n      keccak256\n        /* \"contracts/ACB.sol\":6674:6703  _LpBalances[sender] += amount */\n      dup1\n      sload\n        /* \"contracts/ACB.sol\":6697:6703  amount */\n      dup5\n      swap3\n        /* \"contracts/ACB.sol\":6674:6693  _LpBalances[sender] */\n      swap1\n        /* \"contracts/ACB.sol\":6674:6703  _LpBalances[sender] += amount */\n      tag_264\n      swap1\n        /* \"contracts/ACB.sol\":6697:6703  amount */\n      dup5\n      swap1\n        /* \"contracts/ACB.sol\":6674:6703  _LpBalances[sender] += amount */\n      tag_233\n      jump\t// in\n    tag_264:\n      swap1\n      swap2\n      sstore\n      pop\n      pop\n      sub(shl(0xa0, 0x01), 0x01)\n        /* \"contracts/ACB.sol\":6712:6731  _lastLpTime[sender] */\n      dup2\n      and\n      0x00\n      swap1\n      dup2\n      mstore\n        /* \"contracts/ACB.sol\":6712:6723  _lastLpTime */\n      0x10\n        /* \"contracts/ACB.sol\":6712:6731  _lastLpTime[sender] */\n      0x20\n      swap1\n      dup2\n      mstore\n      0x40\n      dup1\n      dup4\n      keccak256\n        /* \"contracts/ACB.sol\":6734:6749  block.timestamp */\n      timestamp\n        /* \"contracts/ACB.sol\":6712:6749  _lastLpTime[sender] = block.timestamp */\n      swap1\n      sstore\n        /* \"contracts/ACB.sol\":6759:6767  _lastEth */\n      0x11\n        /* \"contracts/ACB.sol\":6759:6775  _lastEth[sender] */\n      swap1\n      swap2\n      mstore\n      dup2\n      keccak256\n        /* \"contracts/ACB.sol\":6759:6788  _lastEth[sender] += msg.value */\n      dup1\n      sload\n        /* \"contracts/ACB.sol\":6779:6788  msg.value */\n      callvalue\n      swap3\n        /* \"contracts/ACB.sol\":6712:6731  _lastLpTime[sender] */\n      swap1\n        /* \"contracts/ACB.sol\":6759:6788  _lastEth[sender] += msg.value */\n      tag_265\n      swap1\n        /* \"contracts/ACB.sol\":6779:6788  msg.value */\n      dup5\n      swap1\n        /* \"contracts/ACB.sol\":6759:6788  _lastEth[sender] += msg.value */\n      tag_233\n      jump\t// in\n    tag_265:\n      swap1\n      swap2\n      sstore\n      pop\n      pop\n      sub(shl(0xa0, 0x01), 0x01)\n        /* \"contracts/ACB.sol\":6988:7009  lpHolderIndex[sender] */\n      dup2\n      and\n      0x00\n      swap1\n      dup2\n      mstore\n        /* \"contracts/ACB.sol\":6988:7001  lpHolderIndex */\n      0x12\n        /* \"contracts/ACB.sol\":6988:7009  lpHolderIndex[sender] */\n      0x20\n      mstore\n      0x40\n      dup2\n      keccak256\n      sload\n        /* \"contracts/ACB.sol\":6983:7009  0 == lpHolderIndex[sender] */\n      swap1\n      sub\n        /* \"contracts/ACB.sol\":6979:7111  if (0 == lpHolderIndex[sender]) {... */\n      tag_266\n      jumpi\n        /* \"contracts/ACB.sol\":7048:7057  lpHolders */\n      0x13\n        /* \"contracts/ACB.sol\":7048:7064  lpHolders.length */\n      dup1\n      sload\n      sub(shl(0xa0, 0x01), 0x01)\n        /* \"contracts/ACB.sol\":7024:7045  lpHolderIndex[sender] */\n      dup4\n      and\n      0x00\n      dup2\n      dup2\n      mstore\n        /* \"contracts/ACB.sol\":7024:7037  lpHolderIndex */\n      0x12\n        /* \"contracts/ACB.sol\":7024:7045  lpHolderIndex[sender] */\n      0x20\n      mstore\n      0x40\n      dup2\n      keccak256\n        /* \"contracts/ACB.sol\":7024:7064  lpHolderIndex[sender] = lpHolders.length */\n      dup4\n      swap1\n      sstore\n        /* \"contracts/ACB.sol\":7077:7099  lpHolders.push(sender) */\n      0x01\n      dup4\n      add\n      dup5\n      sstore\n      swap3\n      swap1\n      swap3\n      mstore\n      0x66de8ffda797e3de9c05e8fc57b3bf0ec28a930d40b0d285d93c06501cf6a090\n      add\n      dup1\n      sload\n      not(sub(shl(0xa0, 0x01), 0x01))\n      and\n      swap1\n      swap2\n      or\n      swap1\n      sstore\n        /* \"contracts/ACB.sol\":6979:7111  if (0 == lpHolderIndex[sender]) {... */\n    tag_266:\n        /* \"contracts/ACB.sol\":6545:7136  function ariver(uint256 amount,address sender)internal {... */\n      pop\n      pop\n      jump\t// out\n        /* \"#utility.yul\":14:562   */\n    tag_36:\n        /* \"#utility.yul\":126:130   */\n      0x00\n        /* \"#utility.yul\":155:157   */\n      0x20\n        /* \"#utility.yul\":184:186   */\n      dup1\n        /* \"#utility.yul\":173:182   */\n      dup4\n        /* \"#utility.yul\":166:187   */\n      mstore\n        /* \"#utility.yul\":216:222   */\n      dup4\n        /* \"#utility.yul\":210:223   */\n      mload\n        /* \"#utility.yul\":259:265   */\n      dup1\n        /* \"#utility.yul\":254:256   */\n      dup3\n        /* \"#utility.yul\":243:252   */\n      dup6\n        /* \"#utility.yul\":239:257   */\n      add\n        /* \"#utility.yul\":232:266   */\n      mstore\n        /* \"#utility.yul\":284:285   */\n      0x00\n        /* \"#utility.yul\":294:434   */\n    tag_272:\n        /* \"#utility.yul\":308:314   */\n      dup2\n        /* \"#utility.yul\":305:306   */\n      dup2\n        /* \"#utility.yul\":302:315   */\n      lt\n        /* \"#utility.yul\":294:434   */\n      iszero\n      tag_274\n      jumpi\n        /* \"#utility.yul\":403:417   */\n      dup6\n      dup2\n      add\n        /* \"#utility.yul\":399:422   */\n      dup4\n      add\n        /* \"#utility.yul\":393:423   */\n      mload\n        /* \"#utility.yul\":369:386   */\n      dup6\n      dup3\n      add\n        /* \"#utility.yul\":388:390   */\n      0x40\n        /* \"#utility.yul\":365:391   */\n      add\n        /* \"#utility.yul\":358:424   */\n      mstore\n        /* \"#utility.yul\":323:333   */\n      dup3\n      add\n        /* \"#utility.yul\":294:434   */\n      jump(tag_272)\n    tag_274:\n        /* \"#utility.yul\":298:301   */\n      pop\n        /* \"#utility.yul\":483:484   */\n      0x00\n        /* \"#utility.yul\":478:480   */\n      0x40\n        /* \"#utility.yul\":469:475   */\n      dup3\n        /* \"#utility.yul\":458:467   */\n      dup7\n        /* \"#utility.yul\":454:476   */\n      add\n        /* \"#utility.yul\":450:481   */\n      add\n        /* \"#utility.yul\":443:485   */\n      mstore\n        /* \"#utility.yul\":553:555   */\n      0x40\n        /* \"#utility.yul\":546:548   */\n      0x1f\n        /* \"#utility.yul\":542:549   */\n      not\n        /* \"#utility.yul\":537:539   */\n      0x1f\n        /* \"#utility.yul\":529:535   */\n      dup4\n        /* \"#utility.yul\":525:540   */\n      add\n        /* \"#utility.yul\":521:550   */\n      and\n        /* \"#utility.yul\":510:519   */\n      dup6\n        /* \"#utility.yul\":506:551   */\n      add\n        /* \"#utility.yul\":502:556   */\n      add\n        /* \"#utility.yul\":494:556   */\n      swap3\n      pop\n      pop\n      pop\n        /* \"#utility.yul\":14:562   */\n      swap3\n      swap2\n      pop\n      pop\n      jump\t// out\n        /* \"#utility.yul\":567:740   */\n    tag_268:\n        /* \"#utility.yul\":635:655   */\n      dup1\n      calldataload\n      sub(shl(0xa0, 0x01), 0x01)\n        /* \"#utility.yul\":684:715   */\n      dup2\n      and\n        /* \"#utility.yul\":674:716   */\n      dup2\n      eq\n        /* \"#utility.yul\":664:734   */\n      tag_276\n      jumpi\n        /* \"#utility.yul\":730:731   */\n      0x00\n        /* \"#utility.yul\":727:728   */\n      dup1\n        /* \"#utility.yul\":720:732   */\n      revert\n        /* \"#utility.yul\":664:734   */\n    tag_276:\n        /* \"#utility.yul\":567:740   */\n      swap2\n      swap1\n      pop\n      jump\t// out\n        /* \"#utility.yul\":745:999   */\n    tag_39:\n        /* \"#utility.yul\":813:819   */\n      0x00\n        /* \"#utility.yul\":821:827   */\n      dup1\n        /* \"#utility.yul\":874:876   */\n      0x40\n        /* \"#utility.yul\":862:871   */\n      dup4\n        /* \"#utility.yul\":853:860   */\n      dup6\n        /* \"#utility.yul\":849:872   */\n      sub\n        /* \"#utility.yul\":845:877   */\n      slt\n        /* \"#utility.yul\":842:894   */\n      iszero\n      tag_278\n      jumpi\n        /* \"#utility.yul\":890:891   */\n      0x00\n        /* \"#utility.yul\":887:888   */\n      dup1\n        /* \"#utility.yul\":880:892   */\n      revert\n        /* \"#utility.yul\":842:894   */\n    tag_278:\n        /* \"#utility.yul\":913:942   */\n      tag_279\n        /* \"#utility.yul\":932:941   */\n      dup4\n        /* \"#utility.yul\":913:942   */\n      tag_268\n      jump\t// in\n    tag_279:\n        /* \"#utility.yul\":903:942   */\n      swap5\n        /* \"#utility.yul\":989:991   */\n      0x20\n        /* \"#utility.yul\":974:992   */\n      swap4\n      swap1\n      swap4\n      add\n        /* \"#utility.yul\":961:993   */\n      calldataload\n      swap4\n      pop\n      pop\n      pop\n        /* \"#utility.yul\":745:999   */\n      jump\t// out\n        /* \"#utility.yul\":1196:1382   */\n    tag_45:\n        /* \"#utility.yul\":1255:1261   */\n      0x00\n        /* \"#utility.yul\":1308:1310   */\n      0x20\n        /* \"#utility.yul\":1296:1305   */\n      dup3\n        /* \"#utility.yul\":1287:1294   */\n      dup5\n        /* \"#utility.yul\":1283:1306   */\n      sub\n        /* \"#utility.yul\":1279:1311   */\n      slt\n        /* \"#utility.yul\":1276:1328   */\n      iszero\n      tag_282\n      jumpi\n        /* \"#utility.yul\":1324:1325   */\n      0x00\n        /* \"#utility.yul\":1321:1322   */\n      dup1\n        /* \"#utility.yul\":1314:1326   */\n      revert\n        /* \"#utility.yul\":1276:1328   */\n    tag_282:\n        /* \"#utility.yul\":1347:1376   */\n      tag_283\n        /* \"#utility.yul\":1366:1375   */\n      dup3\n        /* \"#utility.yul\":1347:1376   */\n      tag_268\n      jump\t// in\n    tag_283:\n        /* \"#utility.yul\":1337:1376   */\n      swap4\n        /* \"#utility.yul\":1196:1382   */\n      swap3\n      pop\n      pop\n      pop\n      jump\t// out\n        /* \"#utility.yul\":1569:1897   */\n    tag_57:\n        /* \"#utility.yul\":1646:1652   */\n      0x00\n        /* \"#utility.yul\":1654:1660   */\n      dup1\n        /* \"#utility.yul\":1662:1668   */\n      0x00\n        /* \"#utility.yul\":1715:1717   */\n      0x60\n        /* \"#utility.yul\":1703:1712   */\n      dup5\n        /* \"#utility.yul\":1694:1701   */\n      dup7\n        /* \"#utility.yul\":1690:1713   */\n      sub\n        /* \"#utility.yul\":1686:1718   */\n      slt\n        /* \"#utility.yul\":1683:1735   */\n      iszero\n      tag_286\n      jumpi\n        /* \"#utility.yul\":1731:1732   */\n      0x00\n        /* \"#utility.yul\":1728:1729   */\n      dup1\n        /* \"#utility.yul\":1721:1733   */\n      revert\n        /* \"#utility.yul\":1683:1735   */\n    tag_286:\n        /* \"#utility.yul\":1754:1783   */\n      tag_287\n        /* \"#utility.yul\":1773:1782   */\n      dup5\n        /* \"#utility.yul\":1754:1783   */\n      tag_268\n      jump\t// in\n    tag_287:\n        /* \"#utility.yul\":1744:1783   */\n      swap3\n      pop\n        /* \"#utility.yul\":1802:1840   */\n      tag_288\n        /* \"#utility.yul\":1836:1838   */\n      0x20\n        /* \"#utility.yul\":1825:1834   */\n      dup6\n        /* \"#utility.yul\":1821:1839   */\n      add\n        /* \"#utility.yul\":1802:1840   */\n      tag_268\n      jump\t// in\n    tag_288:\n        /* \"#utility.yul\":1792:1840   */\n      swap2\n      pop\n        /* \"#utility.yul\":1887:1889   */\n      0x40\n        /* \"#utility.yul\":1876:1885   */\n      dup5\n        /* \"#utility.yul\":1872:1890   */\n      add\n        /* \"#utility.yul\":1859:1891   */\n      calldataload\n        /* \"#utility.yul\":1849:1891   */\n      swap1\n      pop\n        /* \"#utility.yul\":1569:1897   */\n      swap3\n      pop\n      swap3\n      pop\n      swap3\n      jump\t// out\n        /* \"#utility.yul\":2091:2271   */\n    tag_75:\n        /* \"#utility.yul\":2150:2156   */\n      0x00\n        /* \"#utility.yul\":2203:2205   */\n      0x20\n        /* \"#utility.yul\":2191:2200   */\n      dup3\n        /* \"#utility.yul\":2182:2189   */\n      dup5\n        /* \"#utility.yul\":2178:2201   */\n      sub\n        /* \"#utility.yul\":2174:2206   */\n      slt\n        /* \"#utility.yul\":2171:2223   */\n      iszero\n      tag_291\n      jumpi\n        /* \"#utility.yul\":2219:2220   */\n      0x00\n        /* \"#utility.yul\":2216:2217   */\n      dup1\n        /* \"#utility.yul\":2209:2221   */\n      revert\n        /* \"#utility.yul\":2171:2223   */\n    tag_291:\n      pop\n        /* \"#utility.yul\":2242:2265   */\n      calldataload\n      swap2\n        /* \"#utility.yul\":2091:2271   */\n      swap1\n      pop\n      jump\t// out\n        /* \"#utility.yul\":2484:2744   */\n    tag_128:\n        /* \"#utility.yul\":2552:2558   */\n      0x00\n        /* \"#utility.yul\":2560:2566   */\n      dup1\n        /* \"#utility.yul\":2613:2615   */\n      0x40\n        /* \"#utility.yul\":2601:2610   */\n      dup4\n        /* \"#utility.yul\":2592:2599   */\n      dup6\n        /* \"#utility.yul\":2588:2611   */\n      sub\n        /* \"#utility.yul\":2584:2616   */\n      slt\n        /* \"#utility.yul\":2581:2633   */\n      iszero\n      tag_294\n      jumpi\n        /* \"#utility.yul\":2629:2630   */\n      0x00\n        /* \"#utility.yul\":2626:2627   */\n      dup1\n        /* \"#utility.yul\":2619:2631   */\n      revert\n        /* \"#utility.yul\":2581:2633   */\n    tag_294:\n        /* \"#utility.yul\":2652:2681   */\n      tag_295\n        /* \"#utility.yul\":2671:2680   */\n      dup4\n        /* \"#utility.yul\":2652:2681   */\n      tag_268\n      jump\t// in\n    tag_295:\n        /* \"#utility.yul\":2642:2681   */\n      swap2\n      pop\n        /* \"#utility.yul\":2700:2738   */\n      tag_296\n        /* \"#utility.yul\":2734:2736   */\n      0x20\n        /* \"#utility.yul\":2723:2732   */\n      dup5\n        /* \"#utility.yul\":2719:2737   */\n      add\n        /* \"#utility.yul\":2700:2738   */\n      tag_268\n      jump\t// in\n    tag_296:\n        /* \"#utility.yul\":2690:2738   */\n      swap1\n      pop\n        /* \"#utility.yul\":2484:2744   */\n      swap3\n      pop\n      swap3\n      swap1\n      pop\n      jump\t// out\n        /* \"#utility.yul\":2749:3129   */\n    tag_145:\n        /* \"#utility.yul\":2828:2829   */\n      0x01\n        /* \"#utility.yul\":2824:2836   */\n      dup2\n      dup2\n      shr\n      swap1\n        /* \"#utility.yul\":2871:2883   */\n      dup3\n      and\n      dup1\n        /* \"#utility.yul\":2892:2953   */\n      tag_298\n      jumpi\n        /* \"#utility.yul\":2946:2950   */\n      0x7f\n        /* \"#utility.yul\":2938:2944   */\n      dup3\n        /* \"#utility.yul\":2934:2951   */\n      and\n        /* \"#utility.yul\":2924:2951   */\n      swap2\n      pop\n        /* \"#utility.yul\":2892:2953   */\n    tag_298:\n        /* \"#utility.yul\":2999:3001   */\n      0x20\n        /* \"#utility.yul\":2991:2997   */\n      dup3\n        /* \"#utility.yul\":2988:3002   */\n      lt\n        /* \"#utility.yul\":2968:2986   */\n      dup2\n        /* \"#utility.yul\":2965:3003   */\n      sub\n        /* \"#utility.yul\":2962:3123   */\n      tag_299\n      jumpi\n        /* \"#utility.yul\":3045:3055   */\n      0x4e487b71\n        /* \"#utility.yul\":3040:3043   */\n      0xe0\n        /* \"#utility.yul\":3036:3056   */\n      shl\n        /* \"#utility.yul\":3033:3034   */\n      0x00\n        /* \"#utility.yul\":3026:3057   */\n      mstore\n        /* \"#utility.yul\":3080:3084   */\n      0x22\n        /* \"#utility.yul\":3077:3078   */\n      0x04\n        /* \"#utility.yul\":3070:3085   */\n      mstore\n        /* \"#utility.yul\":3108:3112   */\n      0x24\n        /* \"#utility.yul\":3105:3106   */\n      0x00\n        /* \"#utility.yul\":3098:3113   */\n      revert\n        /* \"#utility.yul\":2962:3123   */\n    tag_299:\n      pop\n        /* \"#utility.yul\":2749:3129   */\n      swap2\n      swap1\n      pop\n      jump\t// out\n        /* \"#utility.yul\":3134:3490   */\n    tag_163:\n        /* \"#utility.yul\":3336:3338   */\n      0x20\n        /* \"#utility.yul\":3318:3339   */\n      dup1\n      dup3\n      mstore\n        /* \"#utility.yul\":3355:3373   */\n      dup2\n      dup2\n      add\n        /* \"#utility.yul\":3348:3378   */\n      mstore\n        /* \"#utility.yul\":3414:3448   */\n      0x4f776e61626c653a2063616c6c6572206973206e6f7420746865206f776e6572\n        /* \"#utility.yul\":3409:3411   */\n      0x40\n        /* \"#utility.yul\":3394:3412   */\n      dup3\n      add\n        /* \"#utility.yul\":3387:3449   */\n      mstore\n        /* \"#utility.yul\":3481:3483   */\n      0x60\n        /* \"#utility.yul\":3466:3484   */\n      add\n      swap1\n        /* \"#utility.yul\":3134:3490   */\n      jump\t// out\n        /* \"#utility.yul\":3985:4387   */\n    tag_224:\n        /* \"#utility.yul\":4187:4189   */\n      0x20\n        /* \"#utility.yul\":4169:4190   */\n      dup1\n      dup3\n      mstore\n        /* \"#utility.yul\":4226:4228   */\n      0x26\n        /* \"#utility.yul\":4206:4224   */\n      swap1\n      dup3\n      add\n        /* \"#utility.yul\":4199:4229   */\n      mstore\n        /* \"#utility.yul\":4265:4299   */\n      0x45524332303a207472616e7366657220616d6f756e7420657863656564732062\n        /* \"#utility.yul\":4260:4262   */\n      0x40\n        /* \"#utility.yul\":4245:4263   */\n      dup3\n      add\n        /* \"#utility.yul\":4238:4300   */\n      mstore\n      shl(0xd0, 0x616c616e6365)\n        /* \"#utility.yul\":4331:4333   */\n      0x60\n        /* \"#utility.yul\":4316:4334   */\n      dup3\n      add\n        /* \"#utility.yul\":4309:4345   */\n      mstore\n        /* \"#utility.yul\":4377:4380   */\n      0x80\n        /* \"#utility.yul\":4362:4381   */\n      add\n      swap1\n        /* \"#utility.yul\":3985:4387   */\n      jump\t// out\n        /* \"#utility.yul\":4392:4519   */\n    tag_269:\n        /* \"#utility.yul\":4453:4463   */\n      0x4e487b71\n        /* \"#utility.yul\":4448:4451   */\n      0xe0\n        /* \"#utility.yul\":4444:4464   */\n      shl\n        /* \"#utility.yul\":4441:4442   */\n      0x00\n        /* \"#utility.yul\":4434:4465   */\n      mstore\n        /* \"#utility.yul\":4484:4488   */\n      0x11\n        /* \"#utility.yul\":4481:4482   */\n      0x04\n        /* \"#utility.yul\":4474:4489   */\n      mstore\n        /* \"#utility.yul\":4508:4512   */\n      0x24\n        /* \"#utility.yul\":4505:4506   */\n      0x00\n        /* \"#utility.yul\":4498:4513   */\n      revert\n        /* \"#utility.yul\":4524:4649   */\n    tag_233:\n        /* \"#utility.yul\":4589:4598   */\n      dup1\n      dup3\n      add\n        /* \"#utility.yul\":4610:4620   */\n      dup1\n      dup3\n      gt\n        /* \"#utility.yul\":4607:4643   */\n      iszero\n      tag_150\n      jumpi\n        /* \"#utility.yul\":4623:4641   */\n      tag_150\n      tag_269\n      jump\t// in\n        /* \"#utility.yul\":4654:4782   */\n    tag_236:\n        /* \"#utility.yul\":4721:4730   */\n      dup2\n      dup2\n      sub\n        /* \"#utility.yul\":4742:4753   */\n      dup2\n      dup2\n      gt\n        /* \"#utility.yul\":4739:4776   */\n      iszero\n      tag_150\n      jumpi\n        /* \"#utility.yul\":4756:4774   */\n      tag_150\n      tag_269\n      jump\t// in\n        /* \"#utility.yul\":4787:4914   */\n    tag_244:\n        /* \"#utility.yul\":4848:4858   */\n      0x4e487b71\n        /* \"#utility.yul\":4843:4846   */\n      0xe0\n        /* \"#utility.yul\":4839:4859   */\n      shl\n        /* \"#utility.yul\":4836:4837   */\n      0x00\n        /* \"#utility.yul\":4829:4860   */\n      mstore\n        /* \"#utility.yul\":4879:4883   */\n      0x32\n        /* \"#utility.yul\":4876:4877   */\n      0x04\n        /* \"#utility.yul\":4869:4884   */\n      mstore\n        /* \"#utility.yul\":4903:4907   */\n      0x24\n        /* \"#utility.yul\":4900:4901   */\n      0x00\n        /* \"#utility.yul\":4893:4908   */\n      revert\n        /* \"#utility.yul\":4919:5087   */\n    tag_249:\n        /* \"#utility.yul\":4992:5001   */\n      dup1\n      dup3\n      mul\n        /* \"#utility.yul\":5023:5032   */\n      dup2\n      iszero\n        /* \"#utility.yul\":5040:5055   */\n      dup3\n      dup3\n      div\n        /* \"#utility.yul\":5034:5056   */\n      dup5\n      eq\n        /* \"#utility.yul\":5020:5057   */\n      or\n        /* \"#utility.yul\":5010:5081   */\n      tag_150\n      jumpi\n        /* \"#utility.yul\":5061:5079   */\n      tag_150\n      tag_269\n      jump\t// in\n        /* \"#utility.yul\":5092:5309   */\n    tag_251:\n        /* \"#utility.yul\":5132:5133   */\n      0x00\n        /* \"#utility.yul\":5158:5159   */\n      dup3\n        /* \"#utility.yul\":5148:5280   */\n      tag_316\n      jumpi\n        /* \"#utility.yul\":5202:5212   */\n      0x4e487b71\n        /* \"#utility.yul\":5197:5200   */\n      0xe0\n        /* \"#utility.yul\":5193:5213   */\n      shl\n        /* \"#utility.yul\":5190:5191   */\n      0x00\n        /* \"#utility.yul\":5183:5214   */\n      mstore\n        /* \"#utility.yul\":5237:5241   */\n      0x12\n        /* \"#utility.yul\":5234:5235   */\n      0x04\n        /* \"#utility.yul\":5227:5242   */\n      mstore\n        /* \"#utility.yul\":5265:5269   */\n      0x24\n        /* \"#utility.yul\":5262:5263   */\n      0x00\n        /* \"#utility.yul\":5255:5270   */\n      revert\n        /* \"#utility.yul\":5148:5280   */\n    tag_316:\n      pop\n        /* \"#utility.yul\":5294:5303   */\n      div\n      swap1\n        /* \"#utility.yul\":5092:5309   */\n      jump\t// out\n        /* \"#utility.yul\":5314:5449   */\n    tag_258:\n        /* \"#utility.yul\":5353:5356   */\n      0x00\n        /* \"#utility.yul\":5374:5391   */\n      0x01\n      dup3\n      add\n        /* \"#utility.yul\":5371:5414   */\n      tag_319\n      jumpi\n        /* \"#utility.yul\":5394:5412   */\n      tag_319\n      tag_269\n      jump\t// in\n    tag_319:\n      pop\n        /* \"#utility.yul\":5441:5442   */\n      0x01\n        /* \"#utility.yul\":5430:5443   */\n      add\n      swap1\n        /* \"#utility.yul\":5314:5449   */\n      jump\t// out\n    stop\n    data_ada389e1fc24a8587c776340efb91b36e675792ab631816100d55df0b5cf3cbc ddf252ad1be2c89b69c2b068fc378daa952ba7f163c4a11628f55a4df523b3ef\n\n    auxdata: 0xa2646970667358221220e8f7da2d4a5f5c85f0a9afb770e2d03d6632b1fc11abd053049b8dbaf3458e5d64736f6c63430008140033\n}\n",
				"bytecode": {
					"linkReferences": {},
					"object": "60a060405234801562000010575f80fd5b5060408051808201825260038082526220a1a160e91b60208084018290528451808601909552918452908301529060126c0c9f2c9cd04674edea4000000060026200005c858262000222565b5060036200006b848262000222565b5060ff82166080526200007f3382620000be565b5050600580546001600160a01b0319163317905550505f600e81905560c86008556402540be4006009556207a120600a55600c819055600b5562000310565b6001600160a01b038216620001195760405162461bcd60e51b815260206004820152601f60248201527f45524332303a206d696e7420746f20746865207a65726f206164647265737300604482015260640160405180910390fd5b8060045f8282546200012c9190620002ea565b90915550506001600160a01b0382165f81815260208181526040808320805486019055518481527fddf252ad1be2c89b69c2b068fc378daa952ba7f163c4a11628f55a4df523b3ef910160405180910390a35050565b634e487b7160e01b5f52604160045260245ffd5b600181811c90821680620001ab57607f821691505b602082108103620001ca57634e487b7160e01b5f52602260045260245ffd5b50919050565b601f8211156200021d575f81815260208120601f850160051c81016020861015620001f85750805b601f850160051c820191505b81811015620002195782815560010162000204565b5050505b505050565b81516001600160401b038111156200023e576200023e62000182565b62000256816200024f845462000196565b84620001d0565b602080601f8311600181146200028c575f8415620002745750858301515b5f19600386901b1c1916600185901b17855562000219565b5f85815260208120601f198616915b82811015620002bc578886015182559484019460019091019084016200029b565b5085821015620002da57878501515f19600388901b60f8161c191681555b5050505050600190811b01905550565b808201808211156200030a57634e487b7160e01b5f52601160045260245ffd5b92915050565b608051610e8d620003295f395f61020e0152610e8d5ff3fe608060405234801561000f575f80fd5b5060043610610168575f3560e01c806306fdde031461016c578063095ea7b31461018a5780630affb402146101ad5780631210c434146101da57806318160ddd146101e357806323b872dd146101eb5780632a595512146101fe578063313ce5671461020757806346bb927114610238578063621f9c0a1461024d5780636689567e1461025657806368698b48146102695780636aedea731461028857806370a082311461029157806386623a06146102b95780638da5cb5b146102d857806395d89b41146103035780639f0d7eb81461030b578063a9059cbb1461031e578063add0a6c614610331578063b367bf831461033a578063b510efa614610343578063bd87670214610362578063c213d62d1461036b578063c7003ed01461037e578063dd62ed3e14610391578063eb10b741146103c9578063ec1f1f69146103d2578063ed9a165d146103e5578063f2fde38b146103f8575b5f80fd5b61017461040b565b6040516101819190610bb9565b60405180910390f35b61019d610198366004610c1f565b61049b565b6040519015158152602001610181565b6101cc6101bb366004610c47565b60126020525f908152604090205481565b604051908152602001610181565b6101cc600d5481565b6004546101cc565b61019d6101f9366004610c67565b6104b1565b6101cc60075481565b60405160ff7f0000000000000000000000000000000000000000000000000000000000000000168152602001610181565b61024b610246366004610c47565b6104d2565b005b6101cc600b5481565b61024b610264366004610ca0565b610527565b6101cc610277366004610c47565b600f6020525f908152604090205481565b6101cc600e5481565b6101cc61029f366004610c47565b6001600160a01b03165f9081526020819052604090205490565b6101cc6102c7366004610c47565b60106020525f908152604090205481565b6005546102eb906001600160a01b031681565b6040516001600160a01b039091168152602001610181565b610174610556565b6102eb610319366004610ca0565b610565565b61019d61032c366004610c1f565b61058d565b6101cc60085481565b6101cc600c5481565b6101cc610351366004610c47565b60116020525f908152604090205481565b6101cc600a5481565b61024b610379366004610ca0565b610599565b61024b61038c366004610ca0565b6105c8565b6101cc61039f366004610cb7565b6001600160a01b039182165f90815260016020908152604080832093909416825291909152205490565b6101cc60095481565b6014546102eb906001600160a01b031681565b6006546102eb906001600160a01b031681565b61024b610406366004610c47565b6105f7565b60606003805461041a90610ce8565b80601f016020809104026020016040519081016040528092919081815260200182805461044690610ce8565b80156104915780601f1061046857610100808354040283529160200191610491565b820191905f5260205f20905b81548152906001019060200180831161047457829003601f168201915b5050505050905090565b5f6104a7338484610643565b5060015b92915050565b5f6104bd8433846106a4565b6104c8848484610734565b5060019392505050565b6005546001600160a01b031633146105055760405162461bcd60e51b81526004016104fc90610d20565b60405180910390fd5b600680546001600160a01b0319166001600160a01b0392909216919091179055565b6005546001600160a01b031633146105515760405162461bcd60e51b81526004016104fc90610d20565b600a55565b60606002805461041a90610ce8565b60138181548110610574575f80fd5b5f918252602090912001546001600160a01b0316905081565b5f6104a7338484610734565b6005546001600160a01b031633146105c35760405162461bcd60e51b81526004016104fc90610d20565b600955565b6005546001600160a01b031633146105f25760405162461bcd60e51b81526004016104fc90610d20565b600855565b6005546001600160a01b031633146106215760405162461bcd60e51b81526004016104fc90610d20565b600580546001600160a01b0319166001600160a01b0392909216919091179055565b6001600160a01b038381165f8181526001602090815260408083209487168084529482529182902085905590518481527f8c5be1e5ebec7d5bd14f71427d1e84f3dd0314c0f7b2291e5b200ac8c7c3b92591015b60405180910390a3505050565b6001600160a01b038084165f908152600160209081526040808320938616835292905220545f19811461072e57818110156107215760405162461bcd60e51b815260206004820152601d60248201527f45524332303a20696e73756666696369656e7420616c6c6f77616e636500000060448201526064016104fc565b61072e8484848403610643565b50505050565b6006546001600160a01b0316823b80158015906107635750816001600160a01b0316846001600160a01b031614155b1561076f575050505050565b816001600160a01b0316856001600160a01b0316141580156107a35750816001600160a01b0316846001600160a01b031614155b156107ba576107b3858585610822565b5050505050565b6107c485846108ad565b606483046107e78673bf1c5c87b4b0f37443819cbb956215982d9f8a4b83610903565b6107f48661dead83610903565b6107ff863083610903565b61080f8686836003028703610903565b6108198187610942565b50505050505050565b6001600160a01b0383165f908152602081905260409020548181101561085a5760405162461bcd60e51b81526004016104fc90610d55565b6001600160a01b038481165f81815260208181526040808320878703905593871680835291849020805487019055925185815290925f80516020610e38833981519152910160405180910390a350505050565b6001600160a01b0382165f90815260208190526040902054818110156108e55760405162461bcd60e51b81526004016104fc90610d55565b6001600160a01b039092165f90815260208190526040902091039055565b6001600160a01b038281165f8181526020818152604091829020805486019055905184815291928616915f80516020610e388339815191529101610697565b5f82600b5f8282546109549190610daf565b9091555050600b54600c541061096b57505f6104ab565b5f600c54600b5461097c9190610dc2565b9050600954811015610991575f9150506104ab565b6013545f90819081908180805a90505b600a54831080156109b157508382105b15610aa35783600d54106109c4575f600d555b6013600d54815481106109d9576109d9610dd5565b5f9182526020808320909101546001600160a01b0316808352600f90915260409091205490975095508515801590610a1c57506001600160a01b03871661dead14155b15610a6257600e54610a2e878a610de9565b610a389190610e00565b94508415610a6257610a4b308887610822565b84600c5f828254610a5c9190610daf565b90915550505b5a610a6d9082610dc2565b610a779084610daf565b92505a600d80549192505f610a8b83610e1f565b91905055508180610a9b90610e1f565b9250506109a1565b43600755610ab18b8b610ac0565b50929998505050505050505050565b81600e5f828254610ad19190610daf565b90915550506001600160a01b0381165f908152600f602052604081208054849290610afd908490610daf565b90915550506001600160a01b0381165f908152601060209081526040808320429055601190915281208054349290610b36908490610daf565b90915550506001600160a01b0381165f908152601260205260408120549003610bb557601380546001600160a01b0383165f818152601260205260408120839055600183018455929092527f66de8ffda797e3de9c05e8fc57b3bf0ec28a930d40b0d285d93c06501cf6a0900180546001600160a01b03191690911790555b5050565b5f6020808352835180828501525f5b81811015610be457858101830151858201604001528201610bc8565b505f604082860101526040601f19601f8301168501019250505092915050565b80356001600160a01b0381168114610c1a575f80fd5b919050565b5f8060408385031215610c30575f80fd5b610c3983610c04565b946020939093013593505050565b5f60208284031215610c57575f80fd5b610c6082610c04565b9392505050565b5f805f60608486031215610c79575f80fd5b610c8284610c04565b9250610c9060208501610c04565b9150604084013590509250925092565b5f60208284031215610cb0575f80fd5b5035919050565b5f8060408385031215610cc8575f80fd5b610cd183610c04565b9150610cdf60208401610c04565b90509250929050565b600181811c90821680610cfc57607f821691505b602082108103610d1a57634e487b7160e01b5f52602260045260245ffd5b50919050565b6020808252818101527f4f776e61626c653a2063616c6c6572206973206e6f7420746865206f776e6572604082015260600190565b60208082526026908201527f45524332303a207472616e7366657220616d6f756e7420657863656564732062604082015265616c616e636560d01b606082015260800190565b634e487b7160e01b5f52601160045260245ffd5b808201808211156104ab576104ab610d9b565b818103818111156104ab576104ab610d9b565b634e487b7160e01b5f52603260045260245ffd5b80820281158282048414176104ab576104ab610d9b565b5f82610e1a57634e487b7160e01b5f52601260045260245ffd5b500490565b5f60018201610e3057610e30610d9b565b506001019056feddf252ad1be2c89b69c2b068fc378daa952ba7f163c4a11628f55a4df523b3efa2646970667358221220e8f7da2d4a5f5c85f0a9afb770e2d03d6632b1fc11abd053049b8dbaf3458e5d64736f6c63430008140033",
					"opcodes": "PUSH1 0xA0 PUSH1 0x40 MSTORE CALLVALUE DUP1 ISZERO PUSH3 0x10 JUMPI PUSH0 DUP1 REVERT JUMPDEST POP PUSH1 0x40 DUP1 MLOAD DUP1 DUP3 ADD DUP3 MSTORE PUSH1 0x3 DUP1 DUP3 MSTORE PUSH3 0x20A1A1 PUSH1 0xE9 SHL PUSH1 0x20 DUP1 DUP5 ADD DUP3 SWAP1 MSTORE DUP5 MLOAD DUP1 DUP7 ADD SWAP1 SWAP6 MSTORE SWAP2 DUP5 MSTORE SWAP1 DUP4 ADD MSTORE SWAP1 PUSH1 0x12 PUSH13 0xC9F2C9CD04674EDEA40000000 PUSH1 0x2 PUSH3 0x5C DUP6 DUP3 PUSH3 0x222 JUMP JUMPDEST POP PUSH1 0x3 PUSH3 0x6B DUP5 DUP3 PUSH3 0x222 JUMP JUMPDEST POP PUSH1 0xFF DUP3 AND PUSH1 0x80 MSTORE PUSH3 0x7F CALLER DUP3 PUSH3 0xBE JUMP JUMPDEST POP POP PUSH1 0x5 DUP1 SLOAD PUSH1 0x1 PUSH1 0x1 PUSH1 0xA0 SHL SUB NOT AND CALLER OR SWAP1 SSTORE POP POP PUSH0 PUSH1 0xE DUP2 SWAP1 SSTORE PUSH1 0xC8 PUSH1 0x8 SSTORE PUSH5 0x2540BE400 PUSH1 0x9 SSTORE PUSH3 0x7A120 PUSH1 0xA SSTORE PUSH1 0xC DUP2 SWAP1 SSTORE PUSH1 0xB SSTORE PUSH3 0x310 JUMP JUMPDEST PUSH1 0x1 PUSH1 0x1 PUSH1 0xA0 SHL SUB DUP3 AND PUSH3 0x119 JUMPI PUSH1 0x40 MLOAD PUSH3 0x461BCD PUSH1 0xE5 SHL DUP2 MSTORE PUSH1 0x20 PUSH1 0x4 DUP3 ADD MSTORE PUSH1 0x1F PUSH1 0x24 DUP3 ADD MSTORE PUSH32 0x45524332303A206D696E7420746F20746865207A65726F206164647265737300 PUSH1 0x44 DUP3 ADD MSTORE PUSH1 0x64 ADD PUSH1 0x40 MLOAD DUP1 SWAP2 SUB SWAP1 REVERT JUMPDEST DUP1 PUSH1 0x4 PUSH0 DUP3 DUP3 SLOAD PUSH3 0x12C SWAP2 SWAP1 PUSH3 0x2EA JUMP JUMPDEST SWAP1 SWAP2 SSTORE POP POP PUSH1 0x1 PUSH1 0x1 PUSH1 0xA0 SHL SUB DUP3 AND PUSH0 DUP2 DUP2 MSTORE PUSH1 0x20 DUP2 DUP2 MSTORE PUSH1 0x40 DUP1 DUP4 KECCAK256 DUP1 SLOAD DUP7 ADD SWAP1 SSTORE MLOAD DUP5 DUP2 MSTORE PUSH32 0xDDF252AD1BE2C89B69C2B068FC378DAA952BA7F163C4A11628F55A4DF523B3EF SWAP2 ADD PUSH1 0x40 MLOAD DUP1 SWAP2 SUB SWAP1 LOG3 POP POP JUMP JUMPDEST PUSH4 0x4E487B71 PUSH1 0xE0 SHL PUSH0 MSTORE PUSH1 0x41 PUSH1 0x4 MSTORE PUSH1 0x24 PUSH0 REVERT JUMPDEST PUSH1 0x1 DUP2 DUP2 SHR SWAP1 DUP3 AND DUP1 PUSH3 0x1AB JUMPI PUSH1 0x7F DUP3 AND SWAP2 POP JUMPDEST PUSH1 0x20 DUP3 LT DUP2 SUB PUSH3 0x1CA JUMPI PUSH4 0x4E487B71 PUSH1 0xE0 SHL PUSH0 MSTORE PUSH1 0x22 PUSH1 0x4 MSTORE PUSH1 0x24 PUSH0 REVERT JUMPDEST POP SWAP2 SWAP1 POP JUMP JUMPDEST PUSH1 0x1F DUP3 GT ISZERO PUSH3 0x21D JUMPI PUSH0 DUP2 DUP2 MSTORE PUSH1 0x20 DUP2 KECCAK256 PUSH1 0x1F DUP6 ADD PUSH1 0x5 SHR DUP2 ADD PUSH1 0x20 DUP7 LT ISZERO PUSH3 0x1F8 JUMPI POP DUP1 JUMPDEST PUSH1 0x1F DUP6 ADD PUSH1 0x5 SHR DUP3 ADD SWAP2 POP JUMPDEST DUP2 DUP2 LT ISZERO PUSH3 0x219 JUMPI DUP3 DUP2 SSTORE PUSH1 0x1 ADD PUSH3 0x204 JUMP JUMPDEST POP POP POP JUMPDEST POP POP POP JUMP JUMPDEST DUP2 MLOAD PUSH1 0x1 PUSH1 0x1 PUSH1 0x40 SHL SUB DUP2 GT ISZERO PUSH3 0x23E JUMPI PUSH3 0x23E PUSH3 0x182 JUMP JUMPDEST PUSH3 0x256 DUP2 PUSH3 0x24F DUP5 SLOAD PUSH3 0x196 JUMP JUMPDEST DUP5 PUSH3 0x1D0 JUMP JUMPDEST PUSH1 0x20 DUP1 PUSH1 0x1F DUP4 GT PUSH1 0x1 DUP2 EQ PUSH3 0x28C JUMPI PUSH0 DUP5 ISZERO PUSH3 0x274 JUMPI POP DUP6 DUP4 ADD MLOAD JUMPDEST PUSH0 NOT PUSH1 0x3 DUP7 SWAP1 SHL SHR NOT AND PUSH1 0x1 DUP6 SWAP1 SHL OR DUP6 SSTORE PUSH3 0x219 JUMP JUMPDEST PUSH0 DUP6 DUP2 MSTORE PUSH1 0x20 DUP2 KECCAK256 PUSH1 0x1F NOT DUP7 AND SWAP2 JUMPDEST DUP3 DUP2 LT ISZERO PUSH3 0x2BC JUMPI DUP9 DUP7 ADD MLOAD DUP3 SSTORE SWAP5 DUP5 ADD SWAP5 PUSH1 0x1 SWAP1 SWAP2 ADD SWAP1 DUP5 ADD PUSH3 0x29B JUMP JUMPDEST POP DUP6 DUP3 LT ISZERO PUSH3 0x2DA JUMPI DUP8 DUP6 ADD MLOAD PUSH0 NOT PUSH1 0x3 DUP9 SWAP1 SHL PUSH1 0xF8 AND SHR NOT AND DUP2 SSTORE JUMPDEST POP POP POP POP POP PUSH1 0x1 SWAP1 DUP2 SHL ADD SWAP1 SSTORE POP JUMP JUMPDEST DUP1 DUP3 ADD DUP1 DUP3 GT ISZERO PUSH3 0x30A JUMPI PUSH4 0x4E487B71 PUSH1 0xE0 SHL PUSH0 MSTORE PUSH1 0x11 PUSH1 0x4 MSTORE PUSH1 0x24 PUSH0 REVERT JUMPDEST SWAP3 SWAP2 POP POP JUMP JUMPDEST PUSH1 0x80 MLOAD PUSH2 0xE8D PUSH3 0x329 PUSH0 CODECOPY PUSH0 PUSH2 0x20E ADD MSTORE PUSH2 0xE8D PUSH0 RETURN INVALID PUSH1 0x80 PUSH1 0x40 MSTORE CALLVALUE DUP1 ISZERO PUSH2 0xF JUMPI PUSH0 DUP1 REVERT JUMPDEST POP PUSH1 0x4 CALLDATASIZE LT PUSH2 0x168 JUMPI PUSH0 CALLDATALOAD PUSH1 0xE0 SHR DUP1 PUSH4 0x6FDDE03 EQ PUSH2 0x16C JUMPI DUP1 PUSH4 0x95EA7B3 EQ PUSH2 0x18A JUMPI DUP1 PUSH4 0xAFFB402 EQ PUSH2 0x1AD JUMPI DUP1 PUSH4 0x1210C434 EQ PUSH2 0x1DA JUMPI DUP1 PUSH4 0x18160DDD EQ PUSH2 0x1E3 JUMPI DUP1 PUSH4 0x23B872DD EQ PUSH2 0x1EB JUMPI DUP1 PUSH4 0x2A595512 EQ PUSH2 0x1FE JUMPI DUP1 PUSH4 0x313CE567 EQ PUSH2 0x207 JUMPI DUP1 PUSH4 0x46BB9271 EQ PUSH2 0x238 JUMPI DUP1 PUSH4 0x621F9C0A EQ PUSH2 0x24D JUMPI DUP1 PUSH4 0x6689567E EQ PUSH2 0x256 JUMPI DUP1 PUSH4 0x68698B48 EQ PUSH2 0x269 JUMPI DUP1 PUSH4 0x6AEDEA73 EQ PUSH2 0x288 JUMPI DUP1 PUSH4 0x70A08231 EQ PUSH2 0x291 JUMPI DUP1 PUSH4 0x86623A06 EQ PUSH2 0x2B9 JUMPI DUP1 PUSH4 0x8DA5CB5B EQ PUSH2 0x2D8 JUMPI DUP1 PUSH4 0x95D89B41 EQ PUSH2 0x303 JUMPI DUP1 PUSH4 0x9F0D7EB8 EQ PUSH2 0x30B JUMPI DUP1 PUSH4 0xA9059CBB EQ PUSH2 0x31E JUMPI DUP1 PUSH4 0xADD0A6C6 EQ PUSH2 0x331 JUMPI DUP1 PUSH4 0xB367BF83 EQ PUSH2 0x33A JUMPI DUP1 PUSH4 0xB510EFA6 EQ PUSH2 0x343 JUMPI DUP1 PUSH4 0xBD876702 EQ PUSH2 0x362 JUMPI DUP1 PUSH4 0xC213D62D EQ PUSH2 0x36B JUMPI DUP1 PUSH4 0xC7003ED0 EQ PUSH2 0x37E JUMPI DUP1 PUSH4 0xDD62ED3E EQ PUSH2 0x391 JUMPI DUP1 PUSH4 0xEB10B741 EQ PUSH2 0x3C9 JUMPI DUP1 PUSH4 0xEC1F1F69 EQ PUSH2 0x3D2 JUMPI DUP1 PUSH4 0xED9A165D EQ PUSH2 0x3E5 JUMPI DUP1 PUSH4 0xF2FDE38B EQ PUSH2 0x3F8 JUMPI JUMPDEST PUSH0 DUP1 REVERT JUMPDEST PUSH2 0x174 PUSH2 0x40B JUMP JUMPDEST PUSH1 0x40 MLOAD PUSH2 0x181 SWAP2 SWAP1 PUSH2 0xBB9 JUMP JUMPDEST PUSH1 0x40 MLOAD DUP1 SWAP2 SUB SWAP1 RETURN JUMPDEST PUSH2 0x19D PUSH2 0x198 CALLDATASIZE PUSH1 0x4 PUSH2 0xC1F JUMP JUMPDEST PUSH2 0x49B JUMP JUMPDEST PUSH1 0x40 MLOAD SWAP1 ISZERO ISZERO DUP2 MSTORE PUSH1 0x20 ADD PUSH2 0x181 JUMP JUMPDEST PUSH2 0x1CC PUSH2 0x1BB CALLDATASIZE PUSH1 0x4 PUSH2 0xC47 JUMP JUMPDEST PUSH1 0x12 PUSH1 0x20 MSTORE PUSH0 SWAP1 DUP2 MSTORE PUSH1 0x40 SWAP1 KECCAK256 SLOAD DUP2 JUMP JUMPDEST PUSH1 0x40 MLOAD SWAP1 DUP2 MSTORE PUSH1 0x20 ADD PUSH2 0x181 JUMP JUMPDEST PUSH2 0x1CC PUSH1 0xD SLOAD DUP2 JUMP JUMPDEST PUSH1 0x4 SLOAD PUSH2 0x1CC JUMP JUMPDEST PUSH2 0x19D PUSH2 0x1F9 CALLDATASIZE PUSH1 0x4 PUSH2 0xC67 JUMP JUMPDEST PUSH2 0x4B1 JUMP JUMPDEST PUSH2 0x1CC PUSH1 0x7 SLOAD DUP2 JUMP JUMPDEST PUSH1 0x40 MLOAD PUSH1 0xFF PUSH32 0x0 AND DUP2 MSTORE PUSH1 0x20 ADD PUSH2 0x181 JUMP JUMPDEST PUSH2 0x24B PUSH2 0x246 CALLDATASIZE PUSH1 0x4 PUSH2 0xC47 JUMP JUMPDEST PUSH2 0x4D2 JUMP JUMPDEST STOP JUMPDEST PUSH2 0x1CC PUSH1 0xB SLOAD DUP2 JUMP JUMPDEST PUSH2 0x24B PUSH2 0x264 CALLDATASIZE PUSH1 0x4 PUSH2 0xCA0 JUMP JUMPDEST PUSH2 0x527 JUMP JUMPDEST PUSH2 0x1CC PUSH2 0x277 CALLDATASIZE PUSH1 0x4 PUSH2 0xC47 JUMP JUMPDEST PUSH1 0xF PUSH1 0x20 MSTORE PUSH0 SWAP1 DUP2 MSTORE PUSH1 0x40 SWAP1 KECCAK256 SLOAD DUP2 JUMP JUMPDEST PUSH2 0x1CC PUSH1 0xE SLOAD DUP2 JUMP JUMPDEST PUSH2 0x1CC PUSH2 0x29F CALLDATASIZE PUSH1 0x4 PUSH2 0xC47 JUMP JUMPDEST PUSH1 0x1 PUSH1 0x1 PUSH1 0xA0 SHL SUB AND PUSH0 SWAP1 DUP2 MSTORE PUSH1 0x20 DUP2 SWAP1 MSTORE PUSH1 0x40 SWAP1 KECCAK256 SLOAD SWAP1 JUMP JUMPDEST PUSH2 0x1CC PUSH2 0x2C7 CALLDATASIZE PUSH1 0x4 PUSH2 0xC47 JUMP JUMPDEST PUSH1 0x10 PUSH1 0x20 MSTORE PUSH0 SWAP1 DUP2 MSTORE PUSH1 0x40 SWAP1 KECCAK256 SLOAD DUP2 JUMP JUMPDEST PUSH1 0x5 SLOAD PUSH2 0x2EB SWAP1 PUSH1 0x1 PUSH1 0x1 PUSH1 0xA0 SHL SUB AND DUP2 JUMP JUMPDEST PUSH1 0x40 MLOAD PUSH1 0x1 PUSH1 0x1 PUSH1 0xA0 SHL SUB SWAP1 SWAP2 AND DUP2 MSTORE PUSH1 0x20 ADD PUSH2 0x181 JUMP JUMPDEST PUSH2 0x174 PUSH2 0x556 JUMP JUMPDEST PUSH2 0x2EB PUSH2 0x319 CALLDATASIZE PUSH1 0x4 PUSH2 0xCA0 JUMP JUMPDEST PUSH2 0x565 JUMP JUMPDEST PUSH2 0x19D PUSH2 0x32C CALLDATASIZE PUSH1 0x4 PUSH2 0xC1F JUMP JUMPDEST PUSH2 0x58D JUMP JUMPDEST PUSH2 0x1CC PUSH1 0x8 SLOAD DUP2 JUMP JUMPDEST PUSH2 0x1CC PUSH1 0xC SLOAD DUP2 JUMP JUMPDEST PUSH2 0x1CC PUSH2 0x351 CALLDATASIZE PUSH1 0x4 PUSH2 0xC47 JUMP JUMPDEST PUSH1 0x11 PUSH1 0x20 MSTORE PUSH0 SWAP1 DUP2 MSTORE PUSH1 0x40 SWAP1 KECCAK256 SLOAD DUP2 JUMP JUMPDEST PUSH2 0x1CC PUSH1 0xA SLOAD DUP2 JUMP JUMPDEST PUSH2 0x24B PUSH2 0x379 CALLDATASIZE PUSH1 0x4 PUSH2 0xCA0 JUMP JUMPDEST PUSH2 0x599 JUMP JUMPDEST PUSH2 0x24B PUSH2 0x38C CALLDATASIZE PUSH1 0x4 PUSH2 0xCA0 JUMP JUMPDEST PUSH2 0x5C8 JUMP JUMPDEST PUSH2 0x1CC PUSH2 0x39F CALLDATASIZE PUSH1 0x4 PUSH2 0xCB7 JUMP JUMPDEST PUSH1 0x1 PUSH1 0x1 PUSH1 0xA0 SHL SUB SWAP2 DUP3 AND PUSH0 SWAP1 DUP2 MSTORE PUSH1 0x1 PUSH1 0x20 SWAP1 DUP2 MSTORE PUSH1 0x40 DUP1 DUP4 KECCAK256 SWAP4 SWAP1 SWAP5 AND DUP3 MSTORE SWAP2 SWAP1 SWAP2 MSTORE KECCAK256 SLOAD SWAP1 JUMP JUMPDEST PUSH2 0x1CC PUSH1 0x9 SLOAD DUP2 JUMP JUMPDEST PUSH1 0x14 SLOAD PUSH2 0x2EB SWAP1 PUSH1 0x1 PUSH1 0x1 PUSH1 0xA0 SHL SUB AND DUP2 JUMP JUMPDEST PUSH1 0x6 SLOAD PUSH2 0x2EB SWAP1 PUSH1 0x1 PUSH1 0x1 PUSH1 0xA0 SHL SUB AND DUP2 JUMP JUMPDEST PUSH2 0x24B PUSH2 0x406 CALLDATASIZE PUSH1 0x4 PUSH2 0xC47 JUMP JUMPDEST PUSH2 0x5F7 JUMP JUMPDEST PUSH1 0x60 PUSH1 0x3 DUP1 SLOAD PUSH2 0x41A SWAP1 PUSH2 0xCE8 JUMP JUMPDEST DUP1 PUSH1 0x1F ADD PUSH1 0x20 DUP1 SWAP2 DIV MUL PUSH1 0x20 ADD PUSH1 0x40 MLOAD SWAP1 DUP2 ADD PUSH1 0x40 MSTORE DUP1 SWAP3 SWAP2 SWAP1 DUP2 DUP2 MSTORE PUSH1 0x20 ADD DUP3 DUP1 SLOAD PUSH2 0x446 SWAP1 PUSH2 0xCE8 JUMP JUMPDEST DUP1 ISZERO PUSH2 0x491 JUMPI DUP1 PUSH1 0x1F LT PUSH2 0x468 JUMPI PUSH2 0x100 DUP1 DUP4 SLOAD DIV MUL DUP4 MSTORE SWAP2 PUSH1 0x20 ADD SWAP2 PUSH2 0x491 JUMP JUMPDEST DUP3 ADD SWAP2 SWAP1 PUSH0 MSTORE PUSH1 0x20 PUSH0 KECCAK256 SWAP1 JUMPDEST DUP2 SLOAD DUP2 MSTORE SWAP1 PUSH1 0x1 ADD SWAP1 PUSH1 0x20 ADD DUP1 DUP4 GT PUSH2 0x474 JUMPI DUP3 SWAP1 SUB PUSH1 0x1F AND DUP3 ADD SWAP2 JUMPDEST POP POP POP POP POP SWAP1 POP SWAP1 JUMP JUMPDEST PUSH0 PUSH2 0x4A7 CALLER DUP5 DUP5 PUSH2 0x643 JUMP JUMPDEST POP PUSH1 0x1 JUMPDEST SWAP3 SWAP2 POP POP JUMP JUMPDEST PUSH0 PUSH2 0x4BD DUP5 CALLER DUP5 PUSH2 0x6A4 JUMP JUMPDEST PUSH2 0x4C8 DUP5 DUP5 DUP5 PUSH2 0x734 JUMP JUMPDEST POP PUSH1 0x1 SWAP4 SWAP3 POP POP POP JUMP JUMPDEST PUSH1 0x5 SLOAD PUSH1 0x1 PUSH1 0x1 PUSH1 0xA0 SHL SUB AND CALLER EQ PUSH2 0x505 JUMPI PUSH1 0x40 MLOAD PUSH3 0x461BCD PUSH1 0xE5 SHL DUP2 MSTORE PUSH1 0x4 ADD PUSH2 0x4FC SWAP1 PUSH2 0xD20 JUMP JUMPDEST PUSH1 0x40 MLOAD DUP1 SWAP2 SUB SWAP1 REVERT JUMPDEST PUSH1 0x6 DUP1 SLOAD PUSH1 0x1 PUSH1 0x1 PUSH1 0xA0 SHL SUB NOT AND PUSH1 0x1 PUSH1 0x1 PUSH1 0xA0 SHL SUB SWAP3 SWAP1 SWAP3 AND SWAP2 SWAP1 SWAP2 OR SWAP1 SSTORE JUMP JUMPDEST PUSH1 0x5 SLOAD PUSH1 0x1 PUSH1 0x1 PUSH1 0xA0 SHL SUB AND CALLER EQ PUSH2 0x551 JUMPI PUSH1 0x40 MLOAD PUSH3 0x461BCD PUSH1 0xE5 SHL DUP2 MSTORE PUSH1 0x4 ADD PUSH2 0x4FC SWAP1 PUSH2 0xD20 JUMP JUMPDEST PUSH1 0xA SSTORE JUMP JUMPDEST PUSH1 0x60 PUSH1 0x2 DUP1 SLOAD PUSH2 0x41A SWAP1 PUSH2 0xCE8 JUMP JUMPDEST PUSH1 0x13 DUP2 DUP2 SLOAD DUP2 LT PUSH2 0x574 JUMPI PUSH0 DUP1 REVERT JUMPDEST PUSH0 SWAP2 DUP3 MSTORE PUSH1 0x20 SWAP1 SWAP2 KECCAK256 ADD SLOAD PUSH1 0x1 PUSH1 0x1 PUSH1 0xA0 SHL SUB AND SWAP1 POP DUP2 JUMP JUMPDEST PUSH0 PUSH2 0x4A7 CALLER DUP5 DUP5 PUSH2 0x734 JUMP JUMPDEST PUSH1 0x5 SLOAD PUSH1 0x1 PUSH1 0x1 PUSH1 0xA0 SHL SUB AND CALLER EQ PUSH2 0x5C3 JUMPI PUSH1 0x40 MLOAD PUSH3 0x461BCD PUSH1 0xE5 SHL DUP2 MSTORE PUSH1 0x4 ADD PUSH2 0x4FC SWAP1 PUSH2 0xD20 JUMP JUMPDEST PUSH1 0x9 SSTORE JUMP JUMPDEST PUSH1 0x5 SLOAD PUSH1 0x1 PUSH1 0x1 PUSH1 0xA0 SHL SUB AND CALLER EQ PUSH2 0x5F2 JUMPI PUSH1 0x40 MLOAD PUSH3 0x461BCD PUSH1 0xE5 SHL DUP2 MSTORE PUSH1 0x4 ADD PUSH2 0x4FC SWAP1 PUSH2 0xD20 JUMP JUMPDEST PUSH1 0x8 SSTORE JUMP JUMPDEST PUSH1 0x5 SLOAD PUSH1 0x1 PUSH1 0x1 PUSH1 0xA0 SHL SUB AND CALLER EQ PUSH2 0x621 JUMPI PUSH1 0x40 MLOAD PUSH3 0x461BCD PUSH1 0xE5 SHL DUP2 MSTORE PUSH1 0x4 ADD PUSH2 0x4FC SWAP1 PUSH2 0xD20 JUMP JUMPDEST PUSH1 0x5 DUP1 SLOAD PUSH1 0x1 PUSH1 0x1 PUSH1 0xA0 SHL SUB NOT AND PUSH1 0x1 PUSH1 0x1 PUSH1 0xA0 SHL SUB SWAP3 SWAP1 SWAP3 AND SWAP2 SWAP1 SWAP2 OR SWAP1 SSTORE JUMP JUMPDEST PUSH1 0x1 PUSH1 0x1 PUSH1 0xA0 SHL SUB DUP4 DUP2 AND PUSH0 DUP2 DUP2 MSTORE PUSH1 0x1 PUSH1 0x20 SWAP1 DUP2 MSTORE PUSH1 0x40 DUP1 DUP4 KECCAK256 SWAP5 DUP8 AND DUP1 DUP5 MSTORE SWAP5 DUP3 MSTORE SWAP2 DUP3 SWAP1 KECCAK256 DUP6 SWAP1 SSTORE SWAP1 MLOAD DUP5 DUP2 MSTORE PUSH32 0x8C5BE1E5EBEC7D5BD14F71427D1E84F3DD0314C0F7B2291E5B200AC8C7C3B925 SWAP2 ADD JUMPDEST PUSH1 0x40 MLOAD DUP1 SWAP2 SUB SWAP1 LOG3 POP POP POP JUMP JUMPDEST PUSH1 0x1 PUSH1 0x1 PUSH1 0xA0 SHL SUB DUP1 DUP5 AND PUSH0 SWAP1 DUP2 MSTORE PUSH1 0x1 PUSH1 0x20 SWAP1 DUP2 MSTORE PUSH1 0x40 DUP1 DUP4 KECCAK256 SWAP4 DUP7 AND DUP4 MSTORE SWAP3 SWAP1 MSTORE KECCAK256 SLOAD PUSH0 NOT DUP2 EQ PUSH2 0x72E JUMPI DUP2 DUP2 LT ISZERO PUSH2 0x721 JUMPI PUSH1 0x40 MLOAD PUSH3 0x461BCD PUSH1 0xE5 SHL DUP2 MSTORE PUSH1 0x20 PUSH1 0x4 DUP3 ADD MSTORE PUSH1 0x1D PUSH1 0x24 DUP3 ADD MSTORE PUSH32 0x45524332303A20696E73756666696369656E7420616C6C6F77616E6365000000 PUSH1 0x44 DUP3 ADD MSTORE PUSH1 0x64 ADD PUSH2 0x4FC JUMP JUMPDEST PUSH2 0x72E DUP5 DUP5 DUP5 DUP5 SUB PUSH2 0x643 JUMP JUMPDEST POP POP POP POP JUMP JUMPDEST PUSH1 0x6 SLOAD PUSH1 0x1 PUSH1 0x1 PUSH1 0xA0 SHL SUB AND DUP3 EXTCODESIZE DUP1 ISZERO DUP1 ISZERO SWAP1 PUSH2 0x763 JUMPI POP DUP2 PUSH1 0x1 PUSH1 0x1 PUSH1 0xA0 SHL SUB AND DUP5 PUSH1 0x1 PUSH1 0x1 PUSH1 0xA0 SHL SUB AND EQ ISZERO JUMPDEST ISZERO PUSH2 0x76F JUMPI POP POP POP POP POP JUMP JUMPDEST DUP2 PUSH1 0x1 PUSH1 0x1 PUSH1 0xA0 SHL SUB AND DUP6 PUSH1 0x1 PUSH1 0x1 PUSH1 0xA0 SHL SUB AND EQ ISZERO DUP1 ISZERO PUSH2 0x7A3 JUMPI POP DUP2 PUSH1 0x1 PUSH1 0x1 PUSH1 0xA0 SHL SUB AND DUP5 PUSH1 0x1 PUSH1 0x1 PUSH1 0xA0 SHL SUB AND EQ ISZERO JUMPDEST ISZERO PUSH2 0x7BA JUMPI PUSH2 0x7B3 DUP6 DUP6 DUP6 PUSH2 0x822 JUMP JUMPDEST POP POP POP POP POP JUMP JUMPDEST PUSH2 0x7C4 DUP6 DUP5 PUSH2 0x8AD JUMP JUMPDEST PUSH1 0x64 DUP4 DIV PUSH2 0x7E7 DUP7 PUSH20 0xBF1C5C87B4B0F37443819CBB956215982D9F8A4B DUP4 PUSH2 0x903 JUMP JUMPDEST PUSH2 0x7F4 DUP7 PUSH2 0xDEAD DUP4 PUSH2 0x903 JUMP JUMPDEST PUSH2 0x7FF DUP7 ADDRESS DUP4 PUSH2 0x903 JUMP JUMPDEST PUSH2 0x80F DUP7 DUP7 DUP4 PUSH1 0x3 MUL DUP8 SUB PUSH2 0x903 JUMP JUMPDEST PUSH2 0x819 DUP2 DUP8 PUSH2 0x942 JUMP JUMPDEST POP POP POP POP POP POP POP JUMP JUMPDEST PUSH1 0x1 PUSH1 0x1 PUSH1 0xA0 SHL SUB DUP4 AND PUSH0 SWAP1 DUP2 MSTORE PUSH1 0x20 DUP2 SWAP1 MSTORE PUSH1 0x40 SWAP1 KECCAK256 SLOAD DUP2 DUP2 LT ISZERO PUSH2 0x85A JUMPI PUSH1 0x40 MLOAD PUSH3 0x461BCD PUSH1 0xE5 SHL DUP2 MSTORE PUSH1 0x4 ADD PUSH2 0x4FC SWAP1 PUSH2 0xD55 JUMP JUMPDEST PUSH1 0x1 PUSH1 0x1 PUSH1 0xA0 SHL SUB DUP5 DUP2 AND PUSH0 DUP2 DUP2 MSTORE PUSH1 0x20 DUP2 DUP2 MSTORE PUSH1 0x40 DUP1 DUP4 KECCAK256 DUP8 DUP8 SUB SWAP1 SSTORE SWAP4 DUP8 AND DUP1 DUP4 MSTORE SWAP2 DUP5 SWAP1 KECCAK256 DUP1 SLOAD DUP8 ADD SWAP1 SSTORE SWAP3 MLOAD DUP6 DUP2 MSTORE SWAP1 SWAP3 PUSH0 DUP1 MLOAD PUSH1 0x20 PUSH2 0xE38 DUP4 CODECOPY DUP2 MLOAD SWAP2 MSTORE SWAP2 ADD PUSH1 0x40 MLOAD DUP1 SWAP2 SUB SWAP1 LOG3 POP POP POP POP JUMP JUMPDEST PUSH1 0x1 PUSH1 0x1 PUSH1 0xA0 SHL SUB DUP3 AND PUSH0 SWAP1 DUP2 MSTORE PUSH1 0x20 DUP2 SWAP1 MSTORE PUSH1 0x40 SWAP1 KECCAK256 SLOAD DUP2 DUP2 LT ISZERO PUSH2 0x8E5 JUMPI PUSH1 0x40 MLOAD PUSH3 0x461BCD PUSH1 0xE5 SHL DUP2 MSTORE PUSH1 0x4 ADD PUSH2 0x4FC SWAP1 PUSH2 0xD55 JUMP JUMPDEST PUSH1 0x1 PUSH1 0x1 PUSH1 0xA0 SHL SUB SWAP1 SWAP3 AND PUSH0 SWAP1 DUP2 MSTORE PUSH1 0x20 DUP2 SWAP1 MSTORE PUSH1 0x40 SWAP1 KECCAK256 SWAP2 SUB SWAP1 SSTORE JUMP JUMPDEST PUSH1 0x1 PUSH1 0x1 PUSH1 0xA0 SHL SUB DUP3 DUP2 AND PUSH0 DUP2 DUP2 MSTORE PUSH1 0x20 DUP2 DUP2 MSTORE PUSH1 0x40 SWAP2 DUP3 SWAP1 KECCAK256 DUP1 SLOAD DUP7 ADD SWAP1 SSTORE SWAP1 MLOAD DUP5 DUP2 MSTORE SWAP2 SWAP3 DUP7 AND SWAP2 PUSH0 DUP1 MLOAD PUSH1 0x20 PUSH2 0xE38 DUP4 CODECOPY DUP2 MLOAD SWAP2 MSTORE SWAP2 ADD PUSH2 0x697 JUMP JUMPDEST PUSH0 DUP3 PUSH1 0xB PUSH0 DUP3 DUP3 SLOAD PUSH2 0x954 SWAP2 SWAP1 PUSH2 0xDAF JUMP JUMPDEST SWAP1 SWAP2 SSTORE POP POP PUSH1 0xB SLOAD PUSH1 0xC SLOAD LT PUSH2 0x96B JUMPI POP PUSH0 PUSH2 0x4AB JUMP JUMPDEST PUSH0 PUSH1 0xC SLOAD PUSH1 0xB SLOAD PUSH2 0x97C SWAP2 SWAP1 PUSH2 0xDC2 JUMP JUMPDEST SWAP1 POP PUSH1 0x9 SLOAD DUP2 LT ISZERO PUSH2 0x991 JUMPI PUSH0 SWAP2 POP POP PUSH2 0x4AB JUMP JUMPDEST PUSH1 0x13 SLOAD PUSH0 SWAP1 DUP2 SWAP1 DUP2 SWAP1 DUP2 DUP1 DUP1 GAS SWAP1 POP JUMPDEST PUSH1 0xA SLOAD DUP4 LT DUP1 ISZERO PUSH2 0x9B1 JUMPI POP DUP4 DUP3 LT JUMPDEST ISZERO PUSH2 0xAA3 JUMPI DUP4 PUSH1 0xD SLOAD LT PUSH2 0x9C4 JUMPI PUSH0 PUSH1 0xD SSTORE JUMPDEST PUSH1 0x13 PUSH1 0xD SLOAD DUP2 SLOAD DUP2 LT PUSH2 0x9D9 JUMPI PUSH2 0x9D9 PUSH2 0xDD5 JUMP JUMPDEST PUSH0 SWAP2 DUP3 MSTORE PUSH1 0x20 DUP1 DUP4 KECCAK256 SWAP1 SWAP2 ADD SLOAD PUSH1 0x1 PUSH1 0x1 PUSH1 0xA0 SHL SUB AND DUP1 DUP4 MSTORE PUSH1 0xF SWAP1 SWAP2 MSTORE PUSH1 0x40 SWAP1 SWAP2 KECCAK256 SLOAD SWAP1 SWAP8 POP SWAP6 POP DUP6 ISZERO DUP1 ISZERO SWAP1 PUSH2 0xA1C JUMPI POP PUSH1 0x1 PUSH1 0x1 PUSH1 0xA0 SHL SUB DUP8 AND PUSH2 0xDEAD EQ ISZERO JUMPDEST ISZERO PUSH2 0xA62 JUMPI PUSH1 0xE SLOAD PUSH2 0xA2E DUP8 DUP11 PUSH2 0xDE9 JUMP JUMPDEST PUSH2 0xA38 SWAP2 SWAP1 PUSH2 0xE00 JUMP JUMPDEST SWAP5 POP DUP5 ISZERO PUSH2 0xA62 JUMPI PUSH2 0xA4B ADDRESS DUP9 DUP8 PUSH2 0x822 JUMP JUMPDEST DUP5 PUSH1 0xC PUSH0 DUP3 DUP3 SLOAD PUSH2 0xA5C SWAP2 SWAP1 PUSH2 0xDAF JUMP JUMPDEST SWAP1 SWAP2 SSTORE POP POP JUMPDEST GAS PUSH2 0xA6D SWAP1 DUP3 PUSH2 0xDC2 JUMP JUMPDEST PUSH2 0xA77 SWAP1 DUP5 PUSH2 0xDAF JUMP JUMPDEST SWAP3 POP GAS PUSH1 0xD DUP1 SLOAD SWAP2 SWAP3 POP PUSH0 PUSH2 0xA8B DUP4 PUSH2 0xE1F JUMP JUMPDEST SWAP2 SWAP1 POP SSTORE POP DUP2 DUP1 PUSH2 0xA9B SWAP1 PUSH2 0xE1F JUMP JUMPDEST SWAP3 POP POP PUSH2 0x9A1 JUMP JUMPDEST NUMBER PUSH1 0x7 SSTORE PUSH2 0xAB1 DUP12 DUP12 PUSH2 0xAC0 JUMP JUMPDEST POP SWAP3 SWAP10 SWAP9 POP POP POP POP POP POP POP POP POP JUMP JUMPDEST DUP2 PUSH1 0xE PUSH0 DUP3 DUP3 SLOAD PUSH2 0xAD1 SWAP2 SWAP1 PUSH2 0xDAF JUMP JUMPDEST SWAP1 SWAP2 SSTORE POP POP PUSH1 0x1 PUSH1 0x1 PUSH1 0xA0 SHL SUB DUP2 AND PUSH0 SWAP1 DUP2 MSTORE PUSH1 0xF PUSH1 0x20 MSTORE PUSH1 0x40 DUP2 KECCAK256 DUP1 SLOAD DUP5 SWAP3 SWAP1 PUSH2 0xAFD SWAP1 DUP5 SWAP1 PUSH2 0xDAF JUMP JUMPDEST SWAP1 SWAP2 SSTORE POP POP PUSH1 0x1 PUSH1 0x1 PUSH1 0xA0 SHL SUB DUP2 AND PUSH0 SWAP1 DUP2 MSTORE PUSH1 0x10 PUSH1 0x20 SWAP1 DUP2 MSTORE PUSH1 0x40 DUP1 DUP4 KECCAK256 TIMESTAMP SWAP1 SSTORE PUSH1 0x11 SWAP1 SWAP2 MSTORE DUP2 KECCAK256 DUP1 SLOAD CALLVALUE SWAP3 SWAP1 PUSH2 0xB36 SWAP1 DUP5 SWAP1 PUSH2 0xDAF JUMP JUMPDEST SWAP1 SWAP2 SSTORE POP POP PUSH1 0x1 PUSH1 0x1 PUSH1 0xA0 SHL SUB DUP2 AND PUSH0 SWAP1 DUP2 MSTORE PUSH1 0x12 PUSH1 0x20 MSTORE PUSH1 0x40 DUP2 KECCAK256 SLOAD SWAP1 SUB PUSH2 0xBB5 JUMPI PUSH1 0x13 DUP1 SLOAD PUSH1 0x1 PUSH1 0x1 PUSH1 0xA0 SHL SUB DUP4 AND PUSH0 DUP2 DUP2 MSTORE PUSH1 0x12 PUSH1 0x20 MSTORE PUSH1 0x40 DUP2 KECCAK256 DUP4 SWAP1 SSTORE PUSH1 0x1 DUP4 ADD DUP5 SSTORE SWAP3 SWAP1 SWAP3 MSTORE PUSH32 0x66DE8FFDA797E3DE9C05E8FC57B3BF0EC28A930D40B0D285D93C06501CF6A090 ADD DUP1 SLOAD PUSH1 0x1 PUSH1 0x1 PUSH1 0xA0 SHL SUB NOT AND SWAP1 SWAP2 OR SWAP1 SSTORE JUMPDEST POP POP JUMP JUMPDEST PUSH0 PUSH1 0x20 DUP1 DUP4 MSTORE DUP4 MLOAD DUP1 DUP3 DUP6 ADD MSTORE PUSH0 JUMPDEST DUP2 DUP2 LT ISZERO PUSH2 0xBE4 JUMPI DUP6 DUP2 ADD DUP4 ADD MLOAD DUP6 DUP3 ADD PUSH1 0x40 ADD MSTORE DUP3 ADD PUSH2 0xBC8 JUMP JUMPDEST POP PUSH0 PUSH1 0x40 DUP3 DUP7 ADD ADD MSTORE PUSH1 0x40 PUSH1 0x1F NOT PUSH1 0x1F DUP4 ADD AND DUP6 ADD ADD SWAP3 POP POP POP SWAP3 SWAP2 POP POP JUMP JUMPDEST DUP1 CALLDATALOAD PUSH1 0x1 PUSH1 0x1 PUSH1 0xA0 SHL SUB DUP2 AND DUP2 EQ PUSH2 0xC1A JUMPI PUSH0 DUP1 REVERT JUMPDEST SWAP2 SWAP1 POP JUMP JUMPDEST PUSH0 DUP1 PUSH1 0x40 DUP4 DUP6 SUB SLT ISZERO PUSH2 0xC30 JUMPI PUSH0 DUP1 REVERT JUMPDEST PUSH2 0xC39 DUP4 PUSH2 0xC04 JUMP JUMPDEST SWAP5 PUSH1 0x20 SWAP4 SWAP1 SWAP4 ADD CALLDATALOAD SWAP4 POP POP POP JUMP JUMPDEST PUSH0 PUSH1 0x20 DUP3 DUP5 SUB SLT ISZERO PUSH2 0xC57 JUMPI PUSH0 DUP1 REVERT JUMPDEST PUSH2 0xC60 DUP3 PUSH2 0xC04 JUMP JUMPDEST SWAP4 SWAP3 POP POP POP JUMP JUMPDEST PUSH0 DUP1 PUSH0 PUSH1 0x60 DUP5 DUP7 SUB SLT ISZERO PUSH2 0xC79 JUMPI PUSH0 DUP1 REVERT JUMPDEST PUSH2 0xC82 DUP5 PUSH2 0xC04 JUMP JUMPDEST SWAP3 POP PUSH2 0xC90 PUSH1 0x20 DUP6 ADD PUSH2 0xC04 JUMP JUMPDEST SWAP2 POP PUSH1 0x40 DUP5 ADD CALLDATALOAD SWAP1 POP SWAP3 POP SWAP3 POP SWAP3 JUMP JUMPDEST PUSH0 PUSH1 0x20 DUP3 DUP5 SUB SLT ISZERO PUSH2 0xCB0 JUMPI PUSH0 DUP1 REVERT JUMPDEST POP CALLDATALOAD SWAP2 SWAP1 POP JUMP JUMPDEST PUSH0 DUP1 PUSH1 0x40 DUP4 DUP6 SUB SLT ISZERO PUSH2 0xCC8 JUMPI PUSH0 DUP1 REVERT JUMPDEST PUSH2 0xCD1 DUP4 PUSH2 0xC04 JUMP JUMPDEST SWAP2 POP PUSH2 0xCDF PUSH1 0x20 DUP5 ADD PUSH2 0xC04 JUMP JUMPDEST SWAP1 POP SWAP3 POP SWAP3 SWAP1 POP JUMP JUMPDEST PUSH1 0x1 DUP2 DUP2 SHR SWAP1 DUP3 AND DUP1 PUSH2 0xCFC JUMPI PUSH1 0x7F DUP3 AND SWAP2 POP JUMPDEST PUSH1 0x20 DUP3 LT DUP2 SUB PUSH2 0xD1A JUMPI PUSH4 0x4E487B71 PUSH1 0xE0 SHL PUSH0 MSTORE PUSH1 0x22 PUSH1 0x4 MSTORE PUSH1 0x24 PUSH0 REVERT JUMPDEST POP SWAP2 SWAP1 POP JUMP JUMPDEST PUSH1 0x20 DUP1 DUP3 MSTORE DUP2 DUP2 ADD MSTORE PUSH32 0x4F776E61626C653A2063616C6C6572206973206E6F7420746865206F776E6572 PUSH1 0x40 DUP3 ADD MSTORE PUSH1 0x60 ADD SWAP1 JUMP JUMPDEST PUSH1 0x20 DUP1 DUP3 MSTORE PUSH1 0x26 SWAP1 DUP3 ADD MSTORE PUSH32 0x45524332303A207472616E7366657220616D6F756E7420657863656564732062 PUSH1 0x40 DUP3 ADD MSTORE PUSH6 0x616C616E6365 PUSH1 0xD0 SHL PUSH1 0x60 DUP3 ADD MSTORE PUSH1 0x80 ADD SWAP1 JUMP JUMPDEST PUSH4 0x4E487B71 PUSH1 0xE0 SHL PUSH0 MSTORE PUSH1 0x11 PUSH1 0x4 MSTORE PUSH1 0x24 PUSH0 REVERT JUMPDEST DUP1 DUP3 ADD DUP1 DUP3 GT ISZERO PUSH2 0x4AB JUMPI PUSH2 0x4AB PUSH2 0xD9B JUMP JUMPDEST DUP2 DUP2 SUB DUP2 DUP2 GT ISZERO PUSH2 0x4AB JUMPI PUSH2 0x4AB PUSH2 0xD9B JUMP JUMPDEST PUSH4 0x4E487B71 PUSH1 0xE0 SHL PUSH0 MSTORE PUSH1 0x32 PUSH1 0x4 MSTORE PUSH1 0x24 PUSH0 REVERT JUMPDEST DUP1 DUP3 MUL DUP2 ISZERO DUP3 DUP3 DIV DUP5 EQ OR PUSH2 0x4AB JUMPI PUSH2 0x4AB PUSH2 0xD9B JUMP JUMPDEST PUSH0 DUP3 PUSH2 0xE1A JUMPI PUSH4 0x4E487B71 PUSH1 0xE0 SHL PUSH0 MSTORE PUSH1 0x12 PUSH1 0x4 MSTORE PUSH1 0x24 PUSH0 REVERT JUMPDEST POP DIV SWAP1 JUMP JUMPDEST PUSH0 PUSH1 0x1 DUP3 ADD PUSH2 0xE30 JUMPI PUSH2 0xE30 PUSH2 0xD9B JUMP JUMPDEST POP PUSH1 0x1 ADD SWAP1 JUMP INVALID 0xDD CALLCODE MSTORE 0xAD SHL 0xE2 0xC8 SWAP12 PUSH10 0xC2B068FC378DAA952BA7 CALL PUSH4 0xC4A11628 CREATE2 GAS 0x4D CREATE2 0x23 0xB3 0xEF LOG2 PUSH5 0x6970667358 0x22 SLT KECCAK256 0xE8 0xF7 0xDA 0x2D 0x4A PUSH0 0x5C DUP6 CREATE 0xA9 0xAF 0xB7 PUSH17 0xE2D03D6632B1FC11ABD053049B8DBAF345 DUP15 0x5D PUSH5 0x736F6C6343 STOP ADDMOD EQ STOP CALLER "
				},
				"gasEstimates": {
					"creation": {
						"codeDepositCost": "745000",
						"executionCost": "infinite",
						"totalCost": "infinite"
					},
					"external": {
						"_LpBalances(address)": "2736",
						"_lastEth(address)": "2956",
						"_lastLpTime(address)": "2802",
						"allowance(address,address)": "infinite",
						"approve(address,uint256)": "24524",
						"balanceOf(address)": "2801",
						"bnbPair()": "2930",
						"currentLpIndex()": "2338",
						"decimals()": "infinite",
						"dividendGas()": "2756",
						"holderRewardCondition()": "2844",
						"lpBonus()": "2470",
						"lpBonusEd()": "2712",
						"lpHolderIndex(address)": "2538",
						"lpHolders(uint256)": "4963",
						"name()": "infinite",
						"op()": "2908",
						"owner()": "2644",
						"progressRewardBlock()": "2404",
						"progressRewardBlockAdd()": "2690",
						"setBnbPair(address)": "26863",
						"setDividendGas(uint256)": "24660",
						"setHolderRewardCondition(uint256)": "24946",
						"setRewardBlockAdd(uint256)": "24968",
						"symbol()": "infinite",
						"totalLpSupply()": "2536",
						"totalSupply()": "2357",
						"transfer(address,uint256)": "infinite",
						"transferFrom(address,address,uint256)": "infinite",
						"transferOwnership(address)": "27325"
					},
					"internal": {
						"_transfer(address,address,uint256)": "infinite",
						"ariver(uint256,address)": "infinite",
						"pairFor(address,address,address)": "infinite",
						"processReward(uint256,address)": "infinite"
					}
				},
				"methodIdentifiers": {
					"_LpBalances(address)": "68698b48",
					"_lastEth(address)": "b510efa6",
					"_lastLpTime(address)": "86623a06",
					"allowance(address,address)": "dd62ed3e",
					"approve(address,uint256)": "095ea7b3",
					"balanceOf(address)": "70a08231",
					"bnbPair()": "ed9a165d",
					"currentLpIndex()": "1210c434",
					"decimals()": "313ce567",
					"dividendGas()": "bd876702",
					"holderRewardCondition()": "eb10b741",
					"lpBonus()": "621f9c0a",
					"lpBonusEd()": "b367bf83",
					"lpHolderIndex(address)": "0affb402",
					"lpHolders(uint256)": "9f0d7eb8",
					"name()": "06fdde03",
					"op()": "ec1f1f69",
					"owner()": "8da5cb5b",
					"progressRewardBlock()": "2a595512",
					"progressRewardBlockAdd()": "add0a6c6",
					"setBnbPair(address)": "46bb9271",
					"setDividendGas(uint256)": "6689567e",
					"setHolderRewardCondition(uint256)": "c213d62d",
					"setRewardBlockAdd(uint256)": "c7003ed0",
					"symbol()": "95d89b41",
					"totalLpSupply()": "6aedea73",
					"totalSupply()": "18160ddd",
					"transfer(address,uint256)": "a9059cbb",
					"transferFrom(address,address,uint256)": "23b872dd",
					"transferOwnership(address)": "f2fde38b"
				}
			},
			"storageLayout": {
				"storage": [
					{
						"astId": 642,
						"contract": "contracts/ACB.sol:SteamCoin",
						"label": "_balances",
						"offset": 0,
						"slot": "0",
						"type": "t_mapping(t_address,t_uint256)"
					},
					{
						"astId": 648,
						"contract": "contracts/ACB.sol:SteamCoin",
						"label": "_allowances",
						"offset": 0,
						"slot": "1",
						"type": "t_mapping(t_address,t_mapping(t_address,t_uint256))"
					},
					{
						"astId": 650,
						"contract": "contracts/ACB.sol:SteamCoin",
						"label": "_symbol",
						"offset": 0,
						"slot": "2",
						"type": "t_string_storage"
					},
					{
						"astId": 652,
						"contract": "contracts/ACB.sol:SteamCoin",
						"label": "_name",
						"offset": 0,
						"slot": "3",
						"type": "t_string_storage"
					},
					{
						"astId": 656,
						"contract": "contracts/ACB.sol:SteamCoin",
						"label": "_totalSupply",
						"offset": 0,
						"slot": "4",
						"type": "t_uint256"
					},
					{
						"astId": 27,
						"contract": "contracts/ACB.sol:SteamCoin",
						"label": "owner",
						"offset": 0,
						"slot": "5",
						"type": "t_address"
					},
					{
						"astId": 67,
						"contract": "contracts/ACB.sol:SteamCoin",
						"label": "bnbPair",
						"offset": 0,
						"slot": "6",
						"type": "t_address"
					},
					{
						"astId": 78,
						"contract": "contracts/ACB.sol:SteamCoin",
						"label": "progressRewardBlock",
						"offset": 0,
						"slot": "7",
						"type": "t_uint256"
					},
					{
						"astId": 80,
						"contract": "contracts/ACB.sol:SteamCoin",
						"label": "progressRewardBlockAdd",
						"offset": 0,
						"slot": "8",
						"type": "t_uint256"
					},
					{
						"astId": 82,
						"contract": "contracts/ACB.sol:SteamCoin",
						"label": "holderRewardCondition",
						"offset": 0,
						"slot": "9",
						"type": "t_uint256"
					},
					{
						"astId": 84,
						"contract": "contracts/ACB.sol:SteamCoin",
						"label": "dividendGas",
						"offset": 0,
						"slot": "10",
						"type": "t_uint256"
					},
					{
						"astId": 86,
						"contract": "contracts/ACB.sol:SteamCoin",
						"label": "lpBonus",
						"offset": 0,
						"slot": "11",
						"type": "t_uint256"
					},
					{
						"astId": 88,
						"contract": "contracts/ACB.sol:SteamCoin",
						"label": "lpBonusEd",
						"offset": 0,
						"slot": "12",
						"type": "t_uint256"
					},
					{
						"astId": 90,
						"contract": "contracts/ACB.sol:SteamCoin",
						"label": "currentLpIndex",
						"offset": 0,
						"slot": "13",
						"type": "t_uint256"
					},
					{
						"astId": 92,
						"contract": "contracts/ACB.sol:SteamCoin",
						"label": "totalLpSupply",
						"offset": 0,
						"slot": "14",
						"type": "t_uint256"
					},
					{
						"astId": 96,
						"contract": "contracts/ACB.sol:SteamCoin",
						"label": "_LpBalances",
						"offset": 0,
						"slot": "15",
						"type": "t_mapping(t_address,t_uint256)"
					},
					{
						"astId": 100,
						"contract": "contracts/ACB.sol:SteamCoin",
						"label": "_lastLpTime",
						"offset": 0,
						"slot": "16",
						"type": "t_mapping(t_address,t_uint256)"
					},
					{
						"astId": 104,
						"contract": "contracts/ACB.sol:SteamCoin",
						"label": "_lastEth",
						"offset": 0,
						"slot": "17",
						"type": "t_mapping(t_address,t_uint256)"
					},
					{
						"astId": 108,
						"contract": "contracts/ACB.sol:SteamCoin",
						"label": "lpHolderIndex",
						"offset": 0,
						"slot": "18",
						"type": "t_mapping(t_address,t_uint256)"
					},
					{
						"astId": 111,
						"contract": "contracts/ACB.sol:SteamCoin",
						"label": "lpHolders",
						"offset": 0,
						"slot": "19",
						"type": "t_array(t_address)dyn_storage"
					},
					{
						"astId": 113,
						"contract": "contracts/ACB.sol:SteamCoin",
						"label": "op",
						"offset": 0,
						"slot": "20",
						"type": "t_address"
					}
				],
				"types": {
					"t_address": {
						"encoding": "inplace",
						"label": "address",
						"numberOfBytes": "20"
					},
					"t_array(t_address)dyn_storage": {
						"base": "t_address",
						"encoding": "dynamic_array",
						"label": "address[]",
						"numberOfBytes": "32"
					},
					"t_mapping(t_address,t_mapping(t_address,t_uint256))": {
						"encoding": "mapping",
						"key": "t_address",
						"label": "mapping(address => mapping(address => uint256))",
						"numberOfBytes": "32",
						"value": "t_mapping(t_address,t_uint256)"
					},
					"t_mapping(t_address,t_uint256)": {
						"encoding": "mapping",
						"key": "t_address",
						"label": "mapping(address => uint256)",
						"numberOfBytes": "32",
						"value": "t_uint256"
					},
					"t_string_storage": {
						"encoding": "bytes",
						"label": "string",
						"numberOfBytes": "32"
					},
					"t_uint256": {
						"encoding": "inplace",
						"label": "uint256",
						"numberOfBytes": "32"
					}
				}
			},
			"userdoc": {
				"kind": "user",
				"methods": {},
				"version": 1
			}
		}
	}
}