{
	"contracts/ACPair.sol": {
		"ACPair": {
			"abi": [
				{
					"inputs": [
						{
							"internalType": "address",
							"name": "tokenA",
							"type": "address"
						},
						{
							"internalType": "address",
							"name": "tokenB",
							"type": "address"
						},
						{
							"internalType": "address",
							"name": "_factory",
							"type": "address"
						}
					],
					"stateMutability": "nonpayable",
					"type": "constructor"
				},
				{
					"anonymous": false,
					"inputs": [
						{
							"indexed": true,
							"internalType": "address",
							"name": "owner",
							"type": "address"
						},
						{
							"indexed": true,
							"internalType": "address",
							"name": "spender",
							"type": "address"
						},
						{
							"indexed": false,
							"internalType": "uint256",
							"name": "value",
							"type": "uint256"
						}
					],
					"name": "Approval",
					"type": "event"
				},
				{
					"anonymous": false,
					"inputs": [
						{
							"indexed": true,
							"internalType": "address",
							"name": "sender",
							"type": "address"
						},
						{
							"indexed": false,
							"internalType": "uint256",
							"name": "amount0",
							"type": "uint256"
						},
						{
							"indexed": false,
							"internalType": "uint256",
							"name": "amount1",
							"type": "uint256"
						},
						{
							"indexed": true,
							"internalType": "address",
							"name": "to",
							"type": "address"
						}
					],
					"name": "Burn",
					"type": "event"
				},
				{
					"anonymous": false,
					"inputs": [
						{
							"indexed": true,
							"internalType": "address",
							"name": "sender",
							"type": "address"
						},
						{
							"indexed": false,
							"internalType": "uint256",
							"name": "amount0",
							"type": "uint256"
						},
						{
							"indexed": false,
							"internalType": "uint256",
							"name": "amount1",
							"type": "uint256"
						}
					],
					"name": "Mint",
					"type": "event"
				},
				{
					"anonymous": false,
					"inputs": [
						{
							"indexed": true,
							"internalType": "address",
							"name": "previousOwner",
							"type": "address"
						},
						{
							"indexed": true,
							"internalType": "address",
							"name": "newOwner",
							"type": "address"
						}
					],
					"name": "OwnershipTransferred",
					"type": "event"
				},
				{
					"anonymous": false,
					"inputs": [
						{
							"indexed": true,
							"internalType": "address",
							"name": "sender",
							"type": "address"
						},
						{
							"indexed": false,
							"internalType": "uint256",
							"name": "amount0In",
							"type": "uint256"
						},
						{
							"indexed": false,
							"internalType": "uint256",
							"name": "amount1In",
							"type": "uint256"
						},
						{
							"indexed": false,
							"internalType": "uint256",
							"name": "amount0Out",
							"type": "uint256"
						},
						{
							"indexed": false,
							"internalType": "uint256",
							"name": "amount1Out",
							"type": "uint256"
						},
						{
							"indexed": true,
							"internalType": "address",
							"name": "to",
							"type": "address"
						}
					],
					"name": "Swap",
					"type": "event"
				},
				{
					"anonymous": false,
					"inputs": [
						{
							"indexed": false,
							"internalType": "uint112",
							"name": "reserve0",
							"type": "uint112"
						},
						{
							"indexed": false,
							"internalType": "uint112",
							"name": "reserve1",
							"type": "uint112"
						}
					],
					"name": "Sync",
					"type": "event"
				},
				{
					"anonymous": false,
					"inputs": [
						{
							"indexed": true,
							"internalType": "address",
							"name": "from",
							"type": "address"
						},
						{
							"indexed": true,
							"internalType": "address",
							"name": "to",
							"type": "address"
						},
						{
							"indexed": false,
							"internalType": "uint256",
							"name": "value",
							"type": "uint256"
						}
					],
					"name": "Transfer",
					"type": "event"
				},
				{
					"inputs": [],
					"name": "DOMAIN_SEPARATOR",
					"outputs": [
						{
							"internalType": "bytes32",
							"name": "",
							"type": "bytes32"
						}
					],
					"stateMutability": "view",
					"type": "function"
				},
				{
					"inputs": [],
					"name": "MINIMUM_LIQUIDITY",
					"outputs": [
						{
							"internalType": "uint256",
							"name": "",
							"type": "uint256"
						}
					],
					"stateMutability": "view",
					"type": "function"
				},
				{
					"inputs": [],
					"name": "PERMIT_TYPEHASH",
					"outputs": [
						{
							"internalType": "bytes32",
							"name": "",
							"type": "bytes32"
						}
					],
					"stateMutability": "view",
					"type": "function"
				},
				{
					"inputs": [
						{
							"internalType": "address",
							"name": "",
							"type": "address"
						},
						{
							"internalType": "address",
							"name": "",
							"type": "address"
						}
					],
					"name": "allowance",
					"outputs": [
						{
							"internalType": "uint256",
							"name": "",
							"type": "uint256"
						}
					],
					"stateMutability": "view",
					"type": "function"
				},
				{
					"inputs": [
						{
							"internalType": "address",
							"name": "spender",
							"type": "address"
						},
						{
							"internalType": "uint256",
							"name": "value",
							"type": "uint256"
						}
					],
					"name": "approve",
					"outputs": [
						{
							"internalType": "bool",
							"name": "",
							"type": "bool"
						}
					],
					"stateMutability": "nonpayable",
					"type": "function"
				},
				{
					"inputs": [
						{
							"internalType": "address",
							"name": "",
							"type": "address"
						}
					],
					"name": "balanceOf",
					"outputs": [
						{
							"internalType": "uint256",
							"name": "",
							"type": "uint256"
						}
					],
					"stateMutability": "view",
					"type": "function"
				},
				{
					"inputs": [
						{
							"internalType": "address",
							"name": "to",
							"type": "address"
						}
					],
					"name": "burn",
					"outputs": [
						{
							"internalType": "uint256",
							"name": "amount0",
							"type": "uint256"
						},
						{
							"internalType": "uint256",
							"name": "amount1",
							"type": "uint256"
						}
					],
					"stateMutability": "nonpayable",
					"type": "function"
				},
				{
					"inputs": [
						{
							"internalType": "address",
							"name": "_factory",
							"type": "address"
						}
					],
					"name": "changeFactory",
					"outputs": [],
					"stateMutability": "nonpayable",
					"type": "function"
				},
				{
					"inputs": [],
					"name": "decimals",
					"outputs": [
						{
							"internalType": "uint8",
							"name": "",
							"type": "uint8"
						}
					],
					"stateMutability": "view",
					"type": "function"
				},
				{
					"inputs": [],
					"name": "factory",
					"outputs": [
						{
							"internalType": "address",
							"name": "",
							"type": "address"
						}
					],
					"stateMutability": "view",
					"type": "function"
				},
				{
					"inputs": [
						{
							"internalType": "uint256",
							"name": "amountIn",
							"type": "uint256"
						},
						{
							"internalType": "uint256",
							"name": "reserveIn",
							"type": "uint256"
						},
						{
							"internalType": "uint256",
							"name": "reserveOut",
							"type": "uint256"
						}
					],
					"name": "getAmountOut",
					"outputs": [
						{
							"internalType": "uint256",
							"name": "amountOut",
							"type": "uint256"
						}
					],
					"stateMutability": "pure",
					"type": "function"
				},
				{
					"inputs": [],
					"name": "getReserves",
					"outputs": [
						{
							"internalType": "uint112",
							"name": "_reserve0",
							"type": "uint112"
						},
						{
							"internalType": "uint112",
							"name": "_reserve1",
							"type": "uint112"
						},
						{
							"internalType": "uint32",
							"name": "_blockTimestampLast",
							"type": "uint32"
						}
					],
					"stateMutability": "view",
					"type": "function"
				},
				{
					"inputs": [],
					"name": "initPool",
					"outputs": [],
					"stateMutability": "nonpayable",
					"type": "function"
				},
				{
					"inputs": [
						{
							"internalType": "address",
							"name": "_token0",
							"type": "address"
						},
						{
							"internalType": "address",
							"name": "_token1",
							"type": "address"
						}
					],
					"name": "initialize",
					"outputs": [],
					"stateMutability": "nonpayable",
					"type": "function"
				},
				{
					"inputs": [],
					"name": "kLast",
					"outputs": [
						{
							"internalType": "uint256",
							"name": "",
							"type": "uint256"
						}
					],
					"stateMutability": "view",
					"type": "function"
				},
				{
					"inputs": [
						{
							"internalType": "address",
							"name": "to",
							"type": "address"
						}
					],
					"name": "mint",
					"outputs": [
						{
							"internalType": "uint256",
							"name": "liquidity",
							"type": "uint256"
						}
					],
					"stateMutability": "nonpayable",
					"type": "function"
				},
				{
					"inputs": [],
					"name": "name",
					"outputs": [
						{
							"internalType": "string",
							"name": "",
							"type": "string"
						}
					],
					"stateMutability": "view",
					"type": "function"
				},
				{
					"inputs": [
						{
							"internalType": "address",
							"name": "",
							"type": "address"
						}
					],
					"name": "nonces",
					"outputs": [
						{
							"internalType": "uint256",
							"name": "",
							"type": "uint256"
						}
					],
					"stateMutability": "view",
					"type": "function"
				},
				{
					"inputs": [],
					"name": "owner",
					"outputs": [
						{
							"internalType": "address",
							"name": "",
							"type": "address"
						}
					],
					"stateMutability": "view",
					"type": "function"
				},
				{
					"inputs": [
						{
							"internalType": "address",
							"name": "owner",
							"type": "address"
						},
						{
							"internalType": "address",
							"name": "spender",
							"type": "address"
						},
						{
							"internalType": "uint256",
							"name": "value",
							"type": "uint256"
						},
						{
							"internalType": "uint256",
							"name": "deadline",
							"type": "uint256"
						},
						{
							"internalType": "uint8",
							"name": "v",
							"type": "uint8"
						},
						{
							"internalType": "bytes32",
							"name": "r",
							"type": "bytes32"
						},
						{
							"internalType": "bytes32",
							"name": "s",
							"type": "bytes32"
						}
					],
					"name": "permit",
					"outputs": [],
					"stateMutability": "nonpayable",
					"type": "function"
				},
				{
					"inputs": [],
					"name": "price0CumulativeLast",
					"outputs": [
						{
							"internalType": "uint256",
							"name": "",
							"type": "uint256"
						}
					],
					"stateMutability": "view",
					"type": "function"
				},
				{
					"inputs": [],
					"name": "price1CumulativeLast",
					"outputs": [
						{
							"internalType": "uint256",
							"name": "",
							"type": "uint256"
						}
					],
					"stateMutability": "view",
					"type": "function"
				},
				{
					"inputs": [
						{
							"internalType": "uint256",
							"name": "amount0",
							"type": "uint256"
						},
						{
							"internalType": "uint256",
							"name": "amount1",
							"type": "uint256"
						},
						{
							"internalType": "address",
							"name": "to",
							"type": "address"
						}
					],
					"name": "remove",
					"outputs": [],
					"stateMutability": "nonpayable",
					"type": "function"
				},
				{
					"inputs": [],
					"name": "renounceOwnership",
					"outputs": [],
					"stateMutability": "nonpayable",
					"type": "function"
				},
				{
					"inputs": [
						{
							"internalType": "address",
							"name": "token",
							"type": "address"
						},
						{
							"internalType": "address",
							"name": "to",
							"type": "address"
						},
						{
							"internalType": "uint256",
							"name": "amountIn",
							"type": "uint256"
						}
					],
					"name": "simpleSwap",
					"outputs": [
						{
							"internalType": "uint256",
							"name": "amountOut",
							"type": "uint256"
						}
					],
					"stateMutability": "nonpayable",
					"type": "function"
				},
				{
					"inputs": [
						{
							"internalType": "address",
							"name": "to",
							"type": "address"
						}
					],
					"name": "skim",
					"outputs": [],
					"stateMutability": "nonpayable",
					"type": "function"
				},
				{
					"inputs": [
						{
							"internalType": "uint256",
							"name": "amount0Out",
							"type": "uint256"
						},
						{
							"internalType": "uint256",
							"name": "amount1Out",
							"type": "uint256"
						},
						{
							"internalType": "address",
							"name": "to",
							"type": "address"
						}
					],
					"name": "swap",
					"outputs": [],
					"stateMutability": "nonpayable",
					"type": "function"
				},
				{
					"inputs": [],
					"name": "symbol",
					"outputs": [
						{
							"internalType": "string",
							"name": "",
							"type": "string"
						}
					],
					"stateMutability": "view",
					"type": "function"
				},
				{
					"inputs": [],
					"name": "sync",
					"outputs": [],
					"stateMutability": "nonpayable",
					"type": "function"
				},
				{
					"inputs": [],
					"name": "token0",
					"outputs": [
						{
							"internalType": "address",
							"name": "",
							"type": "address"
						}
					],
					"stateMutability": "view",
					"type": "function"
				},
				{
					"inputs": [],
					"name": "token1",
					"outputs": [
						{
							"internalType": "address",
							"name": "",
							"type": "address"
						}
					],
					"stateMutability": "view",
					"type": "function"
				},
				{
					"inputs": [],
					"name": "totalSupply",
					"outputs": [
						{
							"internalType": "uint256",
							"name": "",
							"type": "uint256"
						}
					],
					"stateMutability": "view",
					"type": "function"
				},
				{
					"inputs": [
						{
							"internalType": "address",
							"name": "to",
							"type": "address"
						},
						{
							"internalType": "uint256",
							"name": "value",
							"type": "uint256"
						}
					],
					"name": "transfer",
					"outputs": [
						{
							"internalType": "bool",
							"name": "",
							"type": "bool"
						}
					],
					"stateMutability": "nonpayable",
					"type": "function"
				},
				{
					"inputs": [
						{
							"internalType": "address",
							"name": "from",
							"type": "address"
						},
						{
							"internalType": "address",
							"name": "to",
							"type": "address"
						},
						{
							"internalType": "uint256",
							"name": "value",
							"type": "uint256"
						}
					],
					"name": "transferFrom",
					"outputs": [
						{
							"internalType": "bool",
							"name": "",
							"type": "bool"
						}
					],
					"stateMutability": "nonpayable",
					"type": "function"
				},
				{
					"inputs": [
						{
							"internalType": "address",
							"name": "newOwner",
							"type": "address"
						}
					],
					"name": "transferOwnership",
					"outputs": [],
					"stateMutability": "nonpayable",
					"type": "function"
				}
			],
			"devdoc": {
				"kind": "dev",
				"methods": {
					"owner()": {
						"details": "Returns the address of the current owner."
					},
					"renounceOwnership()": {
						"details": "Leaves the contract without owner. It will not be possible to call `onlyOwner` functions. Can only be called by the current owner. NOTE: Renouncing ownership will leave the contract without an owner, thereby disabling any functionality that is only available to the owner."
					},
					"transferOwnership(address)": {
						"details": "Transfers ownership of the contract to a new account (`newOwner`). Can only be called by the current owner."
					}
				},
				"version": 1
			},
			"evm": {
				"assembly": "    /* \"contracts/ACPair.sol\":12019:21930  contract ACPair is BTBERC20 ,IBTBPair,Ownable{... */\n  mstore(0x40, 0x80)\n    /* \"contracts/ACPair.sol\":12859:12860  1 */\n  0x01\n    /* \"contracts/ACPair.sol\":12835:12860  uint private unlocked = 1 */\n  0x0d\n  sstore\n    /* \"contracts/ACPair.sol\":13780:14034  constructor(address tokenA, address tokenB, address _factory) {... */\n  callvalue\n  dup1\n  iszero\n  tag_1\n  jumpi\n  0x00\n  dup1\n  revert\ntag_1:\n  pop\n  mload(0x40)\n  sub(codesize, bytecodeSize)\n  dup1\n  bytecodeSize\n  dup4\n  codecopy\n  dup2\n  add\n  0x40\n  dup2\n  swap1\n  mstore\n  tag_2\n  swap2\n  tag_3\n  jump\t// in\ntag_2:\n    /* \"contracts/ACPair.sol\":2100:2104  name */\n  0x40\n  dup1\n  mload\n  dup1\n  dup3\n  add\n  dup3\n  mstore\n  0x06\n  dup2\n  mstore\n  shl(0xd0, 0x4143204c5073)\n  0x20\n  swap2\n  dup3\n  add\n  mstore\n    /* \"contracts/ACPair.sol\":2135:2145  bytes('1') */\n  dup2\n  mload\n  dup1\n  dup4\n  add\n  dup4\n  mstore\n  0x01\n  dup2\n  mstore\n  shl(0xf8, 0x31)\n  swap1\n  dup3\n  add\n  mstore\n    /* \"contracts/ACPair.sol\":1941:2225  abi.encode(... */\n  dup2\n  mload\n    /* \"contracts/ACPair.sol\":1970:2065  keccak256('EIP712Domain(string name,string version,uint256 chainId,address verifyingContract)') */\n  0x8b73c3c69bb8fe3d512ecc4cf759cc79239f7b179b0ffacaa9a75d522b39400f\n    /* \"contracts/ACPair.sol\":1941:2225  abi.encode(... */\n  dup2\n  dup4\n  add\n    /* \"#utility.yul\":838:863   */\n  mstore\n    /* \"contracts/ACPair.sol\":2084:2106  keccak256(bytes(name)) */\n  0xe95dfdeaafda5c67e59585f60bfd4b2de824d1c939d422829833a16a485abb54\n    /* \"#utility.yul\":879:897   */\n  dup2\n  dup5\n  add\n    /* \"#utility.yul\":872:906   */\n  mstore\n    /* \"contracts/ACPair.sol\":2125:2146  keccak256(bytes('1')) */\n  0xc89efdaa54c0f20c7adf612882df0950f5a951637e0307cdcb4c672f298b8bc6\n    /* \"#utility.yul\":922:940   */\n  0x60\n  dup3\n  add\n    /* \"#utility.yul\":915:949   */\n  mstore\n    /* \"contracts/ACPair.sol\":2165:2178  block.chainid */\n  chainid\n    /* \"#utility.yul\":965:983   */\n  0x80\n  dup3\n  add\n    /* \"#utility.yul\":958:992   */\n  mstore\n    /* \"contracts/ACPair.sol\":2205:2209  this */\n  address\n    /* \"#utility.yul\":1008:1027   */\n  0xa0\n  dup1\n  dup4\n  add\n    /* \"#utility.yul\":1001:1062   */\n  swap2\n  swap1\n  swap2\n  mstore\n    /* \"contracts/ACPair.sol\":1941:2225  abi.encode(... */\n  dup4\n  mload\n  dup1\n  dup4\n  sub\n  swap1\n  swap2\n  add\n  dup2\n  mstore\n    /* \"#utility.yul\":810:829   */\n  0xc0\n  swap1\n  swap2\n  add\n    /* \"contracts/ACPair.sol\":1941:2225  abi.encode(... */\n  swap1\n  swap3\n  mstore\n    /* \"contracts/ACPair.sol\":1917:2236  keccak256(... */\n  dup2\n  mload\n  swap2\n  add\n  keccak256\n    /* \"contracts/ACPair.sol\":1898:1914  DOMAIN_SEPARATOR */\n  0x03\n    /* \"contracts/ACPair.sol\":1898:2236  DOMAIN_SEPARATOR = keccak256(... */\n  sstore\n    /* \"contracts/ACPair.sol\":7672:7704  _transferOwnership(_msgSender()) */\n  tag_11\n    /* \"contracts/ACPair.sol\":7247:7257  msg.sender */\n  caller\n    /* \"contracts/ACPair.sol\":7672:7690  _transferOwnership */\n  tag_14\n    /* \"contracts/ACPair.sol\":7672:7704  _transferOwnership(_msgSender()) */\n  jump\t// in\ntag_11:\n    /* \"contracts/ACPair.sol\":13854:13869  address _token0 */\n  0x00\n    /* \"contracts/ACPair.sol\":13871:13886  address _token1 */\n  dup1\n    /* \"contracts/ACPair.sol\":13899:13905  tokenB */\n  dup4\n  sub(shl(0xa0, 0x01), 0x01)\n    /* \"contracts/ACPair.sol\":13890:13905  tokenA < tokenB */\n  and\n    /* \"contracts/ACPair.sol\":13890:13896  tokenA */\n  dup6\n  sub(shl(0xa0, 0x01), 0x01)\n    /* \"contracts/ACPair.sol\":13890:13905  tokenA < tokenB */\n  and\n  lt\n    /* \"contracts/ACPair.sol\":13890:13943  tokenA < tokenB ? (tokenA, tokenB) : (tokenB, tokenA) */\n  tag_16\n  jumpi\n    /* \"contracts/ACPair.sol\":13928:13934  tokenB */\n  dup4\n    /* \"contracts/ACPair.sol\":13936:13942  tokenA */\n  dup6\n    /* \"contracts/ACPair.sol\":13890:13943  tokenA < tokenB ? (tokenA, tokenB) : (tokenB, tokenA) */\n  jump(tag_17)\ntag_16:\n    /* \"contracts/ACPair.sol\":13909:13915  tokenA */\n  dup5\n    /* \"contracts/ACPair.sol\":13917:13923  tokenB */\n  dup5\n    /* \"contracts/ACPair.sol\":13890:13943  tokenA < tokenB ? (tokenA, tokenB) : (tokenB, tokenA) */\ntag_17:\n    /* \"contracts/ACPair.sol\":13954:13960  token0 */\n  0x07\n    /* \"contracts/ACPair.sol\":13954:13970  token0 = _token0 */\n  dup1\n  sload\n  sub(shl(0xa0, 0x01), 0x01)\n  swap4\n  dup5\n  and\n  not(sub(shl(0xa0, 0x01), 0x01))\n  swap2\n  dup3\n  and\n  or\n  swap1\n  swap2\n  sstore\n    /* \"contracts/ACPair.sol\":13981:13987  token1 */\n  0x08\n    /* \"contracts/ACPair.sol\":13981:13997  token1 = _token1 */\n  dup1\n  sload\n  swap3\n  dup5\n  and\n  swap3\n  dup3\n  and\n  swap3\n  swap1\n  swap3\n  or\n  swap1\n  swap2\n  sstore\n    /* \"contracts/ACPair.sol\":14008:14015  factory */\n  0x06\n    /* \"contracts/ACPair.sol\":14008:14026  factory = _factory */\n  dup1\n  sload\n  swap6\n  swap1\n  swap3\n  and\n  swap5\n  and\n  swap4\n  swap1\n  swap4\n  or\n  swap1\n  swap3\n  sstore\n  pop\n    /* \"contracts/ACPair.sol\":12019:21930  contract ACPair is BTBERC20 ,IBTBPair,Ownable{... */\n  tag_22\n  swap3\n  pop\n  pop\n  pop\n  jump\n    /* \"contracts/ACPair.sol\":9211:9402  function _transferOwnership(address newOwner) internal virtual {... */\ntag_14:\n    /* \"contracts/ACPair.sol\":9304:9310  _owner */\n  0x05\n  dup1\n  sload\n  sub(shl(0xa0, 0x01), 0x01)\n    /* \"contracts/ACPair.sol\":9321:9338  _owner = newOwner */\n  dup4\n  dup2\n  and\n  not(sub(shl(0xa0, 0x01), 0x01))\n  dup4\n  and\n  dup2\n  or\n  swap1\n  swap4\n  sstore\n    /* \"contracts/ACPair.sol\":9354:9394  OwnershipTransferred(oldOwner, newOwner) */\n  mload(0x40)\n    /* \"contracts/ACPair.sol\":9304:9310  _owner */\n  swap2\n  and\n  swap2\n    /* \"contracts/ACPair.sol\":9321:9338  _owner = newOwner */\n  swap1\n    /* \"contracts/ACPair.sol\":9304:9310  _owner */\n  dup3\n  swap1\n    /* \"contracts/ACPair.sol\":9354:9394  OwnershipTransferred(oldOwner, newOwner) */\n  0x8be0079c531659141344cd1fd0a4f28419497f9722a3daafe3b4186f6b6457e0\n  swap1\n    /* \"contracts/ACPair.sol\":9285:9301  address oldOwner */\n  0x00\n  swap1\n    /* \"contracts/ACPair.sol\":9354:9394  OwnershipTransferred(oldOwner, newOwner) */\n  log3\n    /* \"contracts/ACPair.sol\":9274:9402  {... */\n  pop\n    /* \"contracts/ACPair.sol\":9211:9402  function _transferOwnership(address newOwner) internal virtual {... */\n  pop\n  jump\t// out\n    /* \"#utility.yul\":14:191   */\ntag_21:\n    /* \"#utility.yul\":93:106   */\n  dup1\n  mload\n  sub(shl(0xa0, 0x01), 0x01)\n    /* \"#utility.yul\":135:166   */\n  dup2\n  and\n    /* \"#utility.yul\":125:167   */\n  dup2\n  eq\n    /* \"#utility.yul\":115:185   */\n  tag_24\n  jumpi\n    /* \"#utility.yul\":181:182   */\n  0x00\n    /* \"#utility.yul\":178:179   */\n  dup1\n    /* \"#utility.yul\":171:183   */\n  revert\n    /* \"#utility.yul\":115:185   */\ntag_24:\n    /* \"#utility.yul\":14:191   */\n  swap2\n  swap1\n  pop\n  jump\t// out\n    /* \"#utility.yul\":196:574   */\ntag_3:\n    /* \"#utility.yul\":284:290   */\n  0x00\n    /* \"#utility.yul\":292:298   */\n  dup1\n    /* \"#utility.yul\":300:306   */\n  0x00\n    /* \"#utility.yul\":353:355   */\n  0x60\n    /* \"#utility.yul\":341:350   */\n  dup5\n    /* \"#utility.yul\":332:339   */\n  dup7\n    /* \"#utility.yul\":328:351   */\n  sub\n    /* \"#utility.yul\":324:356   */\n  slt\n    /* \"#utility.yul\":321:373   */\n  iszero\n  tag_26\n  jumpi\n    /* \"#utility.yul\":369:370   */\n  0x00\n    /* \"#utility.yul\":366:367   */\n  dup1\n    /* \"#utility.yul\":359:371   */\n  revert\n    /* \"#utility.yul\":321:373   */\ntag_26:\n    /* \"#utility.yul\":392:432   */\n  tag_27\n    /* \"#utility.yul\":422:431   */\n  dup5\n    /* \"#utility.yul\":392:432   */\n  tag_21\n  jump\t// in\ntag_27:\n    /* \"#utility.yul\":382:432   */\n  swap3\n  pop\n    /* \"#utility.yul\":451:500   */\n  tag_28\n    /* \"#utility.yul\":496:498   */\n  0x20\n    /* \"#utility.yul\":485:494   */\n  dup6\n    /* \"#utility.yul\":481:499   */\n  add\n    /* \"#utility.yul\":451:500   */\n  tag_21\n  jump\t// in\ntag_28:\n    /* \"#utility.yul\":441:500   */\n  swap2\n  pop\n    /* \"#utility.yul\":519:568   */\n  tag_29\n    /* \"#utility.yul\":564:566   */\n  0x40\n    /* \"#utility.yul\":553:562   */\n  dup6\n    /* \"#utility.yul\":549:567   */\n  add\n    /* \"#utility.yul\":519:568   */\n  tag_21\n  jump\t// in\ntag_29:\n    /* \"#utility.yul\":509:568   */\n  swap1\n  pop\n    /* \"#utility.yul\":196:574   */\n  swap3\n  pop\n  swap3\n  pop\n  swap3\n  jump\t// out\n    /* \"#utility.yul\":579:1068   */\ntag_22:\n    /* \"contracts/ACPair.sol\":12019:21930  contract ACPair is BTBERC20 ,IBTBPair,Ownable{... */\n  dataSize(sub_0)\n  dup1\n  dataOffset(sub_0)\n  0x00\n  codecopy\n  0x00\n  return\nstop\n\nsub_0: assembly {\n        /* \"contracts/ACPair.sol\":12019:21930  contract ACPair is BTBERC20 ,IBTBPair,Ownable{... */\n      mstore(0x40, 0x80)\n      callvalue\n      dup1\n      iszero\n      tag_1\n      jumpi\n      0x00\n      dup1\n      revert\n    tag_1:\n      pop\n      jumpi(tag_2, lt(calldatasize, 0x04))\n      shr(0xe0, calldataload(0x00))\n      dup1\n      0x054d50d4\n      eq\n      tag_3\n      jumpi\n      dup1\n      0x06fdde03\n      eq\n      tag_4\n      jumpi\n      dup1\n      0x080ce2eb\n      eq\n      tag_5\n      jumpi\n      dup1\n      0x0902f1ac\n      eq\n      tag_6\n      jumpi\n      dup1\n      0x095ea7b3\n      eq\n      tag_7\n      jumpi\n      dup1\n      0x0dfe1681\n      eq\n      tag_8\n      jumpi\n      dup1\n      0x11c6e741\n      eq\n      tag_9\n      jumpi\n      dup1\n      0x18160ddd\n      eq\n      tag_10\n      jumpi\n      dup1\n      0x23b872dd\n      eq\n      tag_11\n      jumpi\n      dup1\n      0x30adf81f\n      eq\n      tag_12\n      jumpi\n      dup1\n      0x313ce567\n      eq\n      tag_13\n      jumpi\n      dup1\n      0x3644e515\n      eq\n      tag_14\n      jumpi\n      dup1\n      0x485cc955\n      eq\n      tag_15\n      jumpi\n      dup1\n      0x5909c0d5\n      eq\n      tag_16\n      jumpi\n      dup1\n      0x5a3d5493\n      eq\n      tag_17\n      jumpi\n      dup1\n      0x6a627842\n      eq\n      tag_18\n      jumpi\n      dup1\n      0x6d9a640a\n      eq\n      tag_19\n      jumpi\n      dup1\n      0x70a08231\n      eq\n      tag_20\n      jumpi\n      dup1\n      0x715018a6\n      eq\n      tag_21\n      jumpi\n      dup1\n      0x7464fc3d\n      eq\n      tag_22\n      jumpi\n      dup1\n      0x7ecebe00\n      eq\n      tag_23\n      jumpi\n      dup1\n      0x89afcb44\n      eq\n      tag_24\n      jumpi\n      dup1\n      0x8da5cb5b\n      eq\n      tag_25\n      jumpi\n      dup1\n      0x95d89b41\n      eq\n      tag_26\n      jumpi\n      dup1\n      0xa1e15411\n      eq\n      tag_27\n      jumpi\n      dup1\n      0xa9059cbb\n      eq\n      tag_28\n      jumpi\n      dup1\n      0xba9a7a56\n      eq\n      tag_29\n      jumpi\n      dup1\n      0xbc25cf77\n      eq\n      tag_30\n      jumpi\n      dup1\n      0xc45a0155\n      eq\n      tag_31\n      jumpi\n      dup1\n      0xd21220a7\n      eq\n      tag_32\n      jumpi\n      dup1\n      0xd505accf\n      eq\n      tag_33\n      jumpi\n      dup1\n      0xdd62ed3e\n      eq\n      tag_34\n      jumpi\n      dup1\n      0xe840427d\n      eq\n      tag_35\n      jumpi\n      dup1\n      0xf2fde38b\n      eq\n      tag_36\n      jumpi\n      dup1\n      0xfff6cae9\n      eq\n      tag_37\n      jumpi\n    tag_2:\n      0x00\n      dup1\n      revert\n        /* \"contracts/ACPair.sol\":21424:21923  function getAmountOut(uint amountIn, uint reserveIn, uint reserveOut) public pure returns (uint amountOut) {... */\n    tag_3:\n      tag_38\n      tag_39\n      calldatasize\n      0x04\n      tag_40\n      jump\t// in\n    tag_39:\n      tag_41\n      jump\t// in\n    tag_38:\n      mload(0x40)\n        /* \"#utility.yul\":481:506   */\n      swap1\n      dup2\n      mstore\n        /* \"#utility.yul\":469:471   */\n      0x20\n        /* \"#utility.yul\":454:472   */\n      add\n        /* \"contracts/ACPair.sol\":21424:21923  function getAmountOut(uint amountIn, uint reserveIn, uint reserveOut) public pure returns (uint amountOut) {... */\n    tag_42:\n      mload(0x40)\n      dup1\n      swap2\n      sub\n      swap1\n      return\n        /* \"contracts/ACPair.sol\":1285:1323  string public constant name = 'AC LPs' */\n    tag_4:\n      tag_44\n      mload(0x40)\n      dup1\n      0x40\n      add\n      0x40\n      mstore\n      dup1\n      0x06\n      dup2\n      mstore\n      0x20\n      add\n      shl(0xd0, 0x4143204c5073)\n      dup2\n      mstore\n      pop\n      dup2\n      jump\n    tag_44:\n      mload(0x40)\n      tag_42\n      swap2\n      swap1\n      tag_47\n      jump\t// in\n        /* \"contracts/ACPair.sol\":21364:21414  function initPool()onlyOperator external{... */\n    tag_5:\n      tag_48\n      tag_49\n      jump\t// in\n    tag_48:\n      stop\n        /* \"contracts/ACPair.sol\":13248:13479  function getReserves() public view returns (uint112 _reserve0, uint112 _reserve1, uint32 _blockTimestampLast) {... */\n    tag_6:\n      tag_50\n      tag_51\n      jump\t// in\n    tag_50:\n      0x40\n      dup1\n      mload\n      sub(shl(0x70, 0x01), 0x01)\n        /* \"#utility.yul\":1429:1444   */\n      swap5\n      dup6\n      and\n        /* \"#utility.yul\":1411:1445   */\n      dup2\n      mstore\n        /* \"#utility.yul\":1481:1496   */\n      swap4\n      swap1\n      swap3\n      and\n        /* \"#utility.yul\":1476:1478   */\n      0x20\n        /* \"#utility.yul\":1461:1479   */\n      dup5\n      add\n        /* \"#utility.yul\":1454:1497   */\n      mstore\n        /* \"#utility.yul\":1545:1555   */\n      0xffffffff\n        /* \"#utility.yul\":1533:1556   */\n      and\n        /* \"#utility.yul\":1513:1531   */\n      swap1\n      dup3\n      add\n        /* \"#utility.yul\":1506:1557   */\n      mstore\n        /* \"#utility.yul\":1361:1363   */\n      0x60\n        /* \"#utility.yul\":1346:1364   */\n      add\n        /* \"contracts/ACPair.sol\":13248:13479  function getReserves() public view returns (uint112 _reserve0, uint112 _reserve1, uint32 _blockTimestampLast) {... */\n      tag_42\n        /* \"#utility.yul\":1173:1563   */\n      jump\n        /* \"contracts/ACPair.sol\":2988:3135  function approve(address spender, uint value) external returns (bool) {... */\n    tag_7:\n      tag_54\n      tag_55\n      calldatasize\n      0x04\n      tag_56\n      jump\t// in\n    tag_55:\n      tag_57\n      jump\t// in\n    tag_54:\n      mload(0x40)\n        /* \"#utility.yul\":2170:2184   */\n      swap1\n      iszero\n        /* \"#utility.yul\":2163:2185   */\n      iszero\n        /* \"#utility.yul\":2145:2186   */\n      dup2\n      mstore\n        /* \"#utility.yul\":2133:2135   */\n      0x20\n        /* \"#utility.yul\":2118:2136   */\n      add\n        /* \"contracts/ACPair.sol\":2988:3135  function approve(address spender, uint value) external returns (bool) {... */\n      tag_42\n        /* \"#utility.yul\":2005:2192   */\n      jump\n        /* \"contracts/ACPair.sol\":12294:12315  address public token0 */\n    tag_8:\n      sload(0x07)\n      tag_60\n      swap1\n      sub(shl(0xa0, 0x01), 0x01)\n      and\n      dup2\n      jump\n    tag_60:\n      mload(0x40)\n      tag_42\n      swap2\n      swap1\n      tag_63\n      jump\t// in\n        /* \"contracts/ACPair.sol\":13145:13240  function changeFactory(address _factory)external onlyOwner{... */\n    tag_9:\n      tag_48\n      tag_65\n      calldatasize\n      0x04\n      tag_66\n      jump\t// in\n    tag_65:\n      tag_67\n      jump\t// in\n        /* \"contracts/ACPair.sol\":1418:1442  uint  public totalSupply */\n    tag_10:\n      tag_38\n      sload(0x00)\n      dup2\n      jump\n        /* \"contracts/ACPair.sol\":3290:3568  function transferFrom(address from, address to, uint value) external returns (bool) {... */\n    tag_11:\n      tag_54\n      tag_72\n      calldatasize\n      0x04\n      tag_73\n      jump\t// in\n    tag_72:\n      tag_74\n      jump\t// in\n        /* \"contracts/ACPair.sol\":1710:1818  bytes32 public constant PERMIT_TYPEHASH = 0x6e71edae12b1b97f4d1f60370fef10105fa2faae0126114a169c64845d6126c9 */\n    tag_12:\n      tag_38\n      0x00\n      dup1\n      mload\n      0x20\n      data_b4fed60c705733c5d216919d6d57abcd8c83f719cc1324758064e128f361d7e4\n      dup4\n      codecopy\n      dup2\n      mload\n      swap2\n      mstore\n      dup2\n      jump\n        /* \"contracts/ACPair.sol\":1376:1411  uint8 public constant decimals = 18 */\n    tag_13:\n      tag_80\n        /* \"contracts/ACPair.sol\":1409:1411  18 */\n      0x12\n        /* \"contracts/ACPair.sol\":1376:1411  uint8 public constant decimals = 18 */\n      dup2\n      jump\n    tag_80:\n      mload(0x40)\n        /* \"#utility.yul\":3283:3287   */\n      0xff\n        /* \"#utility.yul\":3271:3288   */\n      swap1\n      swap2\n      and\n        /* \"#utility.yul\":3253:3289   */\n      dup2\n      mstore\n        /* \"#utility.yul\":3241:3243   */\n      0x20\n        /* \"#utility.yul\":3226:3244   */\n      add\n        /* \"contracts/ACPair.sol\":1376:1411  uint8 public constant decimals = 18 */\n      tag_42\n        /* \"#utility.yul\":3111:3295   */\n      jump\n        /* \"contracts/ACPair.sol\":1567:1598  bytes32 public DOMAIN_SEPARATOR */\n    tag_14:\n      tag_38\n      sload(0x03)\n      dup2\n      jump\n        /* \"contracts/ACPair.sol\":14099:14316  function initialize(address _token0, address _token1) external onlyOwner{... */\n    tag_15:\n      tag_48\n      tag_88\n      calldatasize\n      0x04\n      tag_89\n      jump\t// in\n    tag_88:\n      tag_90\n      jump\t// in\n        /* \"contracts/ACPair.sol\":12645:12677  uint public price0CumulativeLast */\n    tag_16:\n      tag_38\n      sload(0x0a)\n      dup2\n      jump\n        /* \"contracts/ACPair.sol\":12684:12716  uint public price1CumulativeLast */\n    tag_17:\n      tag_38\n      sload(0x0b)\n      dup2\n      jump\n        /* \"contracts/ACPair.sol\":15385:16466  function mint(address to) external lock onlyOperator returns (uint liquidity) {... */\n    tag_18:\n      tag_38\n      tag_98\n      calldatasize\n      0x04\n      tag_66\n      jump\t// in\n    tag_98:\n      tag_99\n      jump\t// in\n        /* \"contracts/ACPair.sol\":18466:20216  function swap(uint amount0Out, uint amount1Out, address to) public onlyOperator lock {... */\n    tag_19:\n      tag_48\n      tag_102\n      calldatasize\n      0x04\n      tag_103\n      jump\t// in\n    tag_102:\n      tag_104\n      jump\t// in\n        /* \"contracts/ACPair.sol\":1449:1490  mapping(address => uint) public balanceOf */\n    tag_20:\n      tag_38\n      tag_106\n      calldatasize\n      0x04\n      tag_66\n      jump\t// in\n    tag_106:\n      mstore(0x20, 0x01)\n      0x00\n      swap1\n      dup2\n      mstore\n      0x40\n      swap1\n      keccak256\n      sload\n      dup2\n      jump\n        /* \"contracts/ACPair.sol\":8592:8695  function renounceOwnership() public virtual onlyOwner {... */\n    tag_21:\n      tag_48\n      tag_110\n      jump\t// in\n        /* \"contracts/ACPair.sol\":12723:12740  uint public kLast */\n    tag_22:\n      tag_38\n      sload(0x0c)\n      dup2\n      jump\n        /* \"contracts/ACPair.sol\":1825:1863  mapping(address => uint) public nonces */\n    tag_23:\n      tag_38\n      tag_115\n      calldatasize\n      0x04\n      tag_66\n      jump\t// in\n    tag_115:\n      mstore(0x20, 0x04)\n      0x00\n      swap1\n      dup2\n      mstore\n      0x40\n      swap1\n      keccak256\n      sload\n      dup2\n      jump\n        /* \"contracts/ACPair.sol\":16578:17897  function burn(address to) external lock onlyOperator returns (uint amount0, uint amount1) {... */\n    tag_24:\n      tag_118\n      tag_119\n      calldatasize\n      0x04\n      tag_66\n      jump\t// in\n    tag_119:\n      tag_120\n      jump\t// in\n    tag_118:\n      0x40\n      dup1\n      mload\n        /* \"#utility.yul\":4066:4091   */\n      swap3\n      dup4\n      mstore\n        /* \"#utility.yul\":4122:4124   */\n      0x20\n        /* \"#utility.yul\":4107:4125   */\n      dup4\n      add\n        /* \"#utility.yul\":4100:4134   */\n      swap2\n      swap1\n      swap2\n      mstore\n        /* \"#utility.yul\":4039:4057   */\n      add\n        /* \"contracts/ACPair.sol\":16578:17897  function burn(address to) external lock onlyOperator returns (uint amount0, uint amount1) {... */\n      tag_42\n        /* \"#utility.yul\":3892:4140   */\n      jump\n        /* \"contracts/ACPair.sol\":7951:8038  function owner() public view virtual returns (address) {... */\n    tag_25:\n      tag_60\n      tag_124\n      jump\t// in\n        /* \"contracts/ACPair.sol\":1330:1369  string public constant symbol = 'AC-LP' */\n    tag_26:\n      tag_44\n      mload(0x40)\n      dup1\n      0x40\n      add\n      0x40\n      mstore\n      dup1\n      0x05\n      dup2\n      mstore\n      0x20\n      add\n      shl(0xdc, 0x041432d4c5)\n      dup2\n      mstore\n      pop\n      dup2\n      jump\n        /* \"contracts/ACPair.sol\":20825:21356  function simpleSwap(address token,address to, uint256 amountIn) onlyOperator external returns(uint256 amountOut){... */\n    tag_27:\n      tag_38\n      tag_130\n      calldatasize\n      0x04\n      tag_73\n      jump\t// in\n    tag_130:\n      tag_131\n      jump\t// in\n        /* \"contracts/ACPair.sol\":3143:3282  function transfer(address to, uint value) external returns (bool) {... */\n    tag_28:\n      tag_54\n      tag_134\n      calldatasize\n      0x04\n      tag_56\n      jump\t// in\n    tag_134:\n      tag_135\n      jump\t// in\n        /* \"contracts/ACPair.sol\":12111:12157  uint public constant MINIMUM_LIQUIDITY = 10**3 */\n    tag_29:\n      tag_38\n        /* \"contracts/ACPair.sol\":12152:12157  10**3 */\n      0x03e8\n        /* \"contracts/ACPair.sol\":12111:12157  uint public constant MINIMUM_LIQUIDITY = 10**3 */\n      dup2\n      jump\n        /* \"contracts/ACPair.sol\":20265:20606  function skim(address to) external onlyOperator lock {... */\n    tag_30:\n      tag_48\n      tag_141\n      calldatasize\n      0x04\n      tag_66\n      jump\t// in\n    tag_141:\n      tag_142\n      jump\t// in\n        /* \"contracts/ACPair.sol\":12259:12281  address public factory */\n    tag_31:\n      sload(0x06)\n      tag_60\n      swap1\n      sub(shl(0xa0, 0x01), 0x01)\n      and\n      dup2\n      jump\n        /* \"contracts/ACPair.sol\":12322:12343  address public token1 */\n    tag_32:\n      sload(0x08)\n      tag_60\n      swap1\n      sub(shl(0xa0, 0x01), 0x01)\n      and\n      dup2\n      jump\n        /* \"contracts/ACPair.sol\":3576:4246  function permit(address owner, address spender, uint value, uint deadline, uint8 v, bytes32 r, bytes32 s) external {... */\n    tag_33:\n      tag_48\n      tag_150\n      calldatasize\n      0x04\n      tag_151\n      jump\t// in\n    tag_150:\n      tag_152\n      jump\t// in\n        /* \"contracts/ACPair.sol\":1497:1558  mapping(address => mapping(address => uint)) public allowance */\n    tag_34:\n      tag_38\n      tag_154\n      calldatasize\n      0x04\n      tag_89\n      jump\t// in\n    tag_154:\n      0x02\n      0x20\n      swap1\n      dup2\n      mstore\n      0x00\n      swap3\n      dup4\n      mstore\n      0x40\n      dup1\n      dup5\n      keccak256\n      swap1\n      swap2\n      mstore\n      swap1\n      dup3\n      mstore\n      swap1\n      keccak256\n      sload\n      dup2\n      jump\n        /* \"contracts/ACPair.sol\":17907:18354  function remove(uint256 amount0,uint256 amount1,address to) external lock onlyOperator {... */\n    tag_35:\n      tag_48\n      tag_158\n      calldatasize\n      0x04\n      tag_103\n      jump\t// in\n    tag_158:\n      tag_159\n      jump\t// in\n        /* \"contracts/ACPair.sol\":8850:9051  function transferOwnership(address newOwner) public virtual onlyOwner {... */\n    tag_36:\n      tag_48\n      tag_161\n      calldatasize\n      0x04\n      tag_66\n      jump\t// in\n    tag_161:\n      tag_162\n      jump\t// in\n        /* \"contracts/ACPair.sol\":20657:20815  function sync() external lock {... */\n    tag_37:\n      tag_48\n      tag_164\n      jump\t// in\n        /* \"contracts/ACPair.sol\":21424:21923  function getAmountOut(uint amountIn, uint reserveIn, uint reserveOut) public pure returns (uint amountOut) {... */\n    tag_41:\n        /* \"contracts/ACPair.sol\":21515:21529  uint amountOut */\n      0x00\n        /* \"contracts/ACPair.sol\":21561:21562  0 */\n      dup1\n        /* \"contracts/ACPair.sol\":21550:21558  amountIn */\n      dup5\n        /* \"contracts/ACPair.sol\":21550:21562  amountIn > 0 */\n      gt\n        /* \"contracts/ACPair.sol\":21542:21608  require(amountIn > 0, 'PancakeLibrary: INSUFFICIENT_INPUT_AMOUNT') */\n      tag_166\n      jumpi\n      mload(0x40)\n      shl(0xe5, 0x461bcd)\n      dup2\n      mstore\n        /* \"#utility.yul\":5045:5047   */\n      0x20\n        /* \"contracts/ACPair.sol\":21542:21608  require(amountIn > 0, 'PancakeLibrary: INSUFFICIENT_INPUT_AMOUNT') */\n      0x04\n      dup3\n      add\n        /* \"#utility.yul\":5027:5048   */\n      mstore\n        /* \"#utility.yul\":5084:5086   */\n      0x29\n        /* \"#utility.yul\":5064:5082   */\n      0x24\n      dup3\n      add\n        /* \"#utility.yul\":5057:5087   */\n      mstore\n        /* \"#utility.yul\":5123:5157   */\n      0x50616e63616b654c6962726172793a20494e53554646494349454e545f494e50\n        /* \"#utility.yul\":5103:5121   */\n      0x44\n      dup3\n      add\n        /* \"#utility.yul\":5096:5158   */\n      mstore\n      shl(0xba, 0x155517d05353d55395)\n        /* \"#utility.yul\":5174:5192   */\n      0x64\n      dup3\n      add\n        /* \"#utility.yul\":5167:5206   */\n      mstore\n        /* \"#utility.yul\":5223:5242   */\n      0x84\n      add\n        /* \"contracts/ACPair.sol\":21542:21608  require(amountIn > 0, 'PancakeLibrary: INSUFFICIENT_INPUT_AMOUNT') */\n    tag_167:\n      mload(0x40)\n      dup1\n      swap2\n      sub\n      swap1\n      revert\n    tag_166:\n        /* \"contracts/ACPair.sol\":21639:21640  0 */\n      0x00\n        /* \"contracts/ACPair.sol\":21627:21636  reserveIn */\n      dup4\n        /* \"contracts/ACPair.sol\":21627:21640  reserveIn > 0 */\n      gt\n        /* \"contracts/ACPair.sol\":21627:21658  reserveIn > 0 && reserveOut > 0 */\n      dup1\n      iszero\n      tag_169\n      jumpi\n      pop\n        /* \"contracts/ACPair.sol\":21657:21658  0 */\n      0x00\n        /* \"contracts/ACPair.sol\":21644:21654  reserveOut */\n      dup3\n        /* \"contracts/ACPair.sol\":21644:21658  reserveOut > 0 */\n      gt\n        /* \"contracts/ACPair.sol\":21627:21658  reserveIn > 0 && reserveOut > 0 */\n    tag_169:\n        /* \"contracts/ACPair.sol\":21619:21701  require(reserveIn > 0 && reserveOut > 0, 'PancakeLibrary: INSUFFICIENT_LIQUIDITY') */\n      tag_170\n      jumpi\n      mload(0x40)\n      shl(0xe5, 0x461bcd)\n      dup2\n      mstore\n        /* \"#utility.yul\":5455:5457   */\n      0x20\n        /* \"contracts/ACPair.sol\":21619:21701  require(reserveIn > 0 && reserveOut > 0, 'PancakeLibrary: INSUFFICIENT_LIQUIDITY') */\n      0x04\n      dup3\n      add\n        /* \"#utility.yul\":5437:5458   */\n      mstore\n        /* \"#utility.yul\":5494:5496   */\n      0x26\n        /* \"#utility.yul\":5474:5492   */\n      0x24\n      dup3\n      add\n        /* \"#utility.yul\":5467:5497   */\n      mstore\n        /* \"#utility.yul\":5533:5567   */\n      0x50616e63616b654c6962726172793a20494e53554646494349454e545f4c4951\n        /* \"#utility.yul\":5513:5531   */\n      0x44\n      dup3\n      add\n        /* \"#utility.yul\":5506:5568   */\n      mstore\n      shl(0xd0, 0x554944495459)\n        /* \"#utility.yul\":5584:5602   */\n      0x64\n      dup3\n      add\n        /* \"#utility.yul\":5577:5613   */\n      mstore\n        /* \"#utility.yul\":5630:5649   */\n      0x84\n      add\n        /* \"contracts/ACPair.sol\":21619:21701  require(reserveIn > 0 && reserveOut > 0, 'PancakeLibrary: INSUFFICIENT_LIQUIDITY') */\n      tag_167\n        /* \"#utility.yul\":5253:5655   */\n      jump\n        /* \"contracts/ACPair.sol\":21619:21701  require(reserveIn > 0 && reserveOut > 0, 'PancakeLibrary: INSUFFICIENT_LIQUIDITY') */\n    tag_170:\n        /* \"contracts/ACPair.sol\":21712:21732  uint amountInWithFee */\n      0x00\n        /* \"contracts/ACPair.sol\":21735:21749  amountIn * 998 */\n      tag_173\n        /* \"contracts/ACPair.sol\":21735:21743  amountIn */\n      dup6\n        /* \"contracts/ACPair.sol\":21746:21749  998 */\n      0x03e6\n        /* \"contracts/ACPair.sol\":21735:21749  amountIn * 998 */\n      tag_174\n      jump\t// in\n    tag_173:\n        /* \"contracts/ACPair.sol\":21712:21749  uint amountInWithFee = amountIn * 998 */\n      swap1\n      pop\n        /* \"contracts/ACPair.sol\":21760:21774  uint numerator */\n      0x00\n        /* \"contracts/ACPair.sol\":21777:21805  amountInWithFee * reserveOut */\n      tag_175\n        /* \"contracts/ACPair.sol\":21795:21805  reserveOut */\n      dup5\n        /* \"contracts/ACPair.sol\":21712:21749  uint amountInWithFee = amountIn * 998 */\n      dup4\n        /* \"contracts/ACPair.sol\":21777:21805  amountInWithFee * reserveOut */\n      tag_174\n      jump\t// in\n    tag_175:\n        /* \"contracts/ACPair.sol\":21760:21805  uint numerator = amountInWithFee * reserveOut */\n      swap1\n      pop\n        /* \"contracts/ACPair.sol\":21816:21832  uint denominator */\n      0x00\n        /* \"contracts/ACPair.sol\":21854:21869  amountInWithFee */\n      dup3\n        /* \"contracts/ACPair.sol\":21835:21851  reserveIn * 1000 */\n      tag_176\n        /* \"contracts/ACPair.sol\":21835:21844  reserveIn */\n      dup8\n        /* \"contracts/ACPair.sol\":21847:21851  1000 */\n      0x03e8\n        /* \"contracts/ACPair.sol\":21835:21851  reserveIn * 1000 */\n      tag_174\n      jump\t// in\n    tag_176:\n        /* \"contracts/ACPair.sol\":21835:21869  reserveIn * 1000 + amountInWithFee */\n      tag_177\n      swap2\n      swap1\n      tag_178\n      jump\t// in\n    tag_177:\n        /* \"contracts/ACPair.sol\":21816:21869  uint denominator = reserveIn * 1000 + amountInWithFee */\n      swap1\n      pop\n        /* \"contracts/ACPair.sol\":21892:21915  numerator / denominator */\n      tag_179\n        /* \"contracts/ACPair.sol\":21816:21869  uint denominator = reserveIn * 1000 + amountInWithFee */\n      dup2\n        /* \"contracts/ACPair.sol\":21892:21901  numerator */\n      dup4\n        /* \"contracts/ACPair.sol\":21892:21915  numerator / denominator */\n      tag_180\n      jump\t// in\n    tag_179:\n        /* \"contracts/ACPair.sol\":21880:21915  amountOut = numerator / denominator */\n      swap8\n        /* \"contracts/ACPair.sol\":21424:21923  function getAmountOut(uint amountIn, uint reserveIn, uint reserveOut) public pure returns (uint amountOut) {... */\n      swap7\n      pop\n      pop\n      pop\n      pop\n      pop\n      pop\n      pop\n      jump\t// out\n        /* \"contracts/ACPair.sol\":21364:21414  function initPool()onlyOperator external{... */\n    tag_49:\n        /* \"contracts/ACPair.sol\":13065:13072  owner() */\n      tag_182\n        /* \"contracts/ACPair.sol\":13065:13070  owner */\n      tag_124\n        /* \"contracts/ACPair.sol\":13065:13072  owner() */\n      jump\t// in\n    tag_182:\n      sub(shl(0xa0, 0x01), 0x01)\n        /* \"contracts/ACPair.sol\":13051:13072  msg.sender == owner() */\n      and\n        /* \"contracts/ACPair.sol\":13051:13061  msg.sender */\n      caller\n      sub(shl(0xa0, 0x01), 0x01)\n        /* \"contracts/ACPair.sol\":13051:13072  msg.sender == owner() */\n      and\n      eq\n        /* \"contracts/ACPair.sol\":13051:13097  msg.sender == owner() || msg.sender == factory */\n      dup1\n      tag_183\n      jumpi\n      pop\n        /* \"contracts/ACPair.sol\":13090:13097  factory */\n      and(sub(shl(0xa0, 0x01), 0x01), sload(0x06))\n        /* \"contracts/ACPair.sol\":13076:13086  msg.sender */\n      caller\n        /* \"contracts/ACPair.sol\":13076:13097  msg.sender == factory */\n      eq\n        /* \"contracts/ACPair.sol\":13051:13097  msg.sender == owner() || msg.sender == factory */\n    tag_183:\n        /* \"contracts/ACPair.sol\":13043:13117  require(msg.sender == owner() || msg.sender == factory,\"Require operator\") */\n      tag_184\n      jumpi\n      mload(0x40)\n      shl(0xe5, 0x461bcd)\n      dup2\n      mstore\n      0x04\n      add\n      tag_167\n      swap1\n      tag_186\n      jump\t// in\n    tag_184:\n        /* \"contracts/ACPair.sol\":21364:21414  function initPool()onlyOperator external{... */\n      jump\t// out\n        /* \"contracts/ACPair.sol\":13248:13479  function getReserves() public view returns (uint112 _reserve0, uint112 _reserve1, uint32 _blockTimestampLast) {... */\n    tag_51:\n        /* \"contracts/ACPair.sol\":13381:13389  reserve0 */\n      sload(0x09)\n      sub(shl(0x70, 0x01), 0x01)\n      dup1\n      dup3\n      and\n      swap3\n      shl(0x70, 0x01)\n        /* \"contracts/ACPair.sol\":13412:13420  reserve1 */\n      dup4\n      div\n      swap1\n      swap2\n      and\n      swap2\n      shl(0xe0, 0x01)\n        /* \"contracts/ACPair.sol\":13453:13471  blockTimestampLast */\n      swap1\n      div\n      0xffffffff\n      and\n      swap1\n        /* \"contracts/ACPair.sol\":13248:13479  function getReserves() public view returns (uint112 _reserve0, uint112 _reserve1, uint32 _blockTimestampLast) {... */\n      jump\t// out\n        /* \"contracts/ACPair.sol\":2988:3135  function approve(address spender, uint value) external returns (bool) {... */\n    tag_57:\n        /* \"contracts/ACPair.sol\":3052:3056  bool */\n      0x00\n        /* \"contracts/ACPair.sol\":3069:3105  _approve(msg.sender, spender, value) */\n      tag_190\n        /* \"contracts/ACPair.sol\":3078:3088  msg.sender */\n      caller\n        /* \"contracts/ACPair.sol\":3090:3097  spender */\n      dup5\n        /* \"contracts/ACPair.sol\":3099:3104  value */\n      dup5\n        /* \"contracts/ACPair.sol\":3069:3077  _approve */\n      tag_191\n        /* \"contracts/ACPair.sol\":3069:3105  _approve(msg.sender, spender, value) */\n      jump\t// in\n    tag_190:\n      pop\n        /* \"contracts/ACPair.sol\":3123:3127  true */\n      0x01\n        /* \"contracts/ACPair.sol\":2988:3135  function approve(address spender, uint value) external returns (bool) {... */\n    tag_189:\n      swap3\n      swap2\n      pop\n      pop\n      jump\t// out\n        /* \"contracts/ACPair.sol\":13145:13240  function changeFactory(address _factory)external onlyOwner{... */\n    tag_67:\n        /* \"contracts/ACPair.sol\":7837:7850  _checkOwner() */\n      tag_193\n        /* \"contracts/ACPair.sol\":7837:7848  _checkOwner */\n      tag_194\n        /* \"contracts/ACPair.sol\":7837:7850  _checkOwner() */\n      jump\t// in\n    tag_193:\n        /* \"contracts/ACPair.sol\":13214:13221  factory */\n      0x06\n        /* \"contracts/ACPair.sol\":13214:13232  factory = _factory */\n      dup1\n      sload\n      not(sub(shl(0xa0, 0x01), 0x01))\n      and\n      sub(shl(0xa0, 0x01), 0x01)\n      swap3\n      swap1\n      swap3\n      and\n      swap2\n      swap1\n      swap2\n      or\n      swap1\n      sstore\n        /* \"contracts/ACPair.sol\":13145:13240  function changeFactory(address _factory)external onlyOwner{... */\n      jump\t// out\n        /* \"contracts/ACPair.sol\":3290:3568  function transferFrom(address from, address to, uint value) external returns (bool) {... */\n    tag_74:\n      sub(shl(0xa0, 0x01), 0x01)\n        /* \"contracts/ACPair.sol\":3389:3404  allowance[from] */\n      dup4\n      and\n        /* \"contracts/ACPair.sol\":3368:3372  bool */\n      0x00\n        /* \"contracts/ACPair.sol\":3389:3404  allowance[from] */\n      swap1\n      dup2\n      mstore\n        /* \"contracts/ACPair.sol\":3389:3398  allowance */\n      0x02\n        /* \"contracts/ACPair.sol\":3389:3404  allowance[from] */\n      0x20\n      swap1\n      dup2\n      mstore\n      0x40\n      dup1\n      dup4\n      keccak256\n        /* \"contracts/ACPair.sol\":3405:3415  msg.sender */\n      caller\n        /* \"contracts/ACPair.sol\":3389:3416  allowance[from][msg.sender] */\n      dup5\n      mstore\n      swap1\n      swap2\n      mstore\n      dup2\n      keccak256\n      sload\n      not(0x00)\n        /* \"contracts/ACPair.sol\":3389:3437  allowance[from][msg.sender] != type(uint256).max */\n      eq\n        /* \"contracts/ACPair.sol\":3385:3502  if (allowance[from][msg.sender] != type(uint256).max) {... */\n      tag_197\n      jumpi\n      sub(shl(0xa0, 0x01), 0x01)\n        /* \"contracts/ACPair.sol\":3454:3469  allowance[from] */\n      dup5\n      and\n      0x00\n      swap1\n      dup2\n      mstore\n        /* \"contracts/ACPair.sol\":3454:3463  allowance */\n      0x02\n        /* \"contracts/ACPair.sol\":3454:3469  allowance[from] */\n      0x20\n      swap1\n      dup2\n      mstore\n      0x40\n      dup1\n      dup4\n      keccak256\n        /* \"contracts/ACPair.sol\":3470:3480  msg.sender */\n      caller\n        /* \"contracts/ACPair.sol\":3454:3481  allowance[from][msg.sender] */\n      dup5\n      mstore\n      swap1\n      swap2\n      mstore\n      dup2\n      keccak256\n        /* \"contracts/ACPair.sol\":3454:3490  allowance[from][msg.sender] -= value */\n      dup1\n      sload\n        /* \"contracts/ACPair.sol\":3485:3490  value */\n      dup5\n      swap3\n        /* \"contracts/ACPair.sol\":3454:3469  allowance[from] */\n      swap1\n        /* \"contracts/ACPair.sol\":3454:3490  allowance[from][msg.sender] -= value */\n      tag_198\n      swap1\n        /* \"contracts/ACPair.sol\":3485:3490  value */\n      dup5\n      swap1\n        /* \"contracts/ACPair.sol\":3454:3490  allowance[from][msg.sender] -= value */\n      tag_199\n      jump\t// in\n    tag_198:\n      swap1\n      swap2\n      sstore\n      pop\n      pop\n        /* \"contracts/ACPair.sol\":3385:3502  if (allowance[from][msg.sender] != type(uint256).max) {... */\n    tag_197:\n        /* \"contracts/ACPair.sol\":3512:3538  _transfer(from, to, value) */\n      tag_200\n        /* \"contracts/ACPair.sol\":3522:3526  from */\n      dup5\n        /* \"contracts/ACPair.sol\":3528:3530  to */\n      dup5\n        /* \"contracts/ACPair.sol\":3532:3537  value */\n      dup5\n        /* \"contracts/ACPair.sol\":3512:3521  _transfer */\n      tag_201\n        /* \"contracts/ACPair.sol\":3512:3538  _transfer(from, to, value) */\n      jump\t// in\n    tag_200:\n      pop\n        /* \"contracts/ACPair.sol\":3556:3560  true */\n      0x01\n        /* \"contracts/ACPair.sol\":3290:3568  function transferFrom(address from, address to, uint value) external returns (bool) {... */\n      swap4\n      swap3\n      pop\n      pop\n      pop\n      jump\t// out\n        /* \"contracts/ACPair.sol\":14099:14316  function initialize(address _token0, address _token1) external onlyOwner{... */\n    tag_90:\n        /* \"contracts/ACPair.sol\":7837:7850  _checkOwner() */\n      tag_203\n        /* \"contracts/ACPair.sol\":7837:7848  _checkOwner */\n      tag_194\n        /* \"contracts/ACPair.sol\":7837:7850  _checkOwner() */\n      jump\t// in\n    tag_203:\n        /* \"contracts/ACPair.sol\":14204:14211  factory */\n      and(sub(shl(0xa0, 0x01), 0x01), sload(0x06))\n        /* \"contracts/ACPair.sol\":14190:14200  msg.sender */\n      caller\n        /* \"contracts/ACPair.sol\":14190:14211  msg.sender == factory */\n      eq\n        /* \"contracts/ACPair.sol\":14182:14234  require(msg.sender == factory, 'Pancake: FORBIDDEN') */\n      tag_205\n      jumpi\n      mload(0x40)\n      shl(0xe5, 0x461bcd)\n      dup2\n      mstore\n        /* \"#utility.yul\":7032:7034   */\n      0x20\n        /* \"contracts/ACPair.sol\":14182:14234  require(msg.sender == factory, 'Pancake: FORBIDDEN') */\n      0x04\n      dup3\n      add\n        /* \"#utility.yul\":7014:7035   */\n      mstore\n        /* \"#utility.yul\":7071:7073   */\n      0x12\n        /* \"#utility.yul\":7051:7069   */\n      0x24\n      dup3\n      add\n        /* \"#utility.yul\":7044:7074   */\n      mstore\n      shl(0x71, 0x2830b731b0b5b29d102327a92124a22222a7)\n        /* \"#utility.yul\":7090:7108   */\n      0x44\n      dup3\n      add\n        /* \"#utility.yul\":7083:7131   */\n      mstore\n        /* \"#utility.yul\":7148:7166   */\n      0x64\n      add\n        /* \"contracts/ACPair.sol\":14182:14234  require(msg.sender == factory, 'Pancake: FORBIDDEN') */\n      tag_167\n        /* \"#utility.yul\":6830:7172   */\n      jump\n        /* \"contracts/ACPair.sol\":14182:14234  require(msg.sender == factory, 'Pancake: FORBIDDEN') */\n    tag_205:\n        /* \"contracts/ACPair.sol\":14265:14271  token0 */\n      0x07\n        /* \"contracts/ACPair.sol\":14265:14281  token0 = _token0 */\n      dup1\n      sload\n      sub(shl(0xa0, 0x01), 0x01)\n      swap4\n      dup5\n      and\n      not(sub(shl(0xa0, 0x01), 0x01))\n      swap2\n      dup3\n      and\n      or\n      swap1\n      swap2\n      sstore\n        /* \"contracts/ACPair.sol\":14292:14298  token1 */\n      0x08\n        /* \"contracts/ACPair.sol\":14292:14308  token1 = _token1 */\n      dup1\n      sload\n      swap3\n      swap1\n      swap4\n      and\n      swap2\n      and\n      or\n      swap1\n      sstore\n        /* \"contracts/ACPair.sol\":14099:14316  function initialize(address _token0, address _token1) external onlyOwner{... */\n      jump\t// out\n        /* \"contracts/ACPair.sol\":15385:16466  function mint(address to) external lock onlyOperator returns (uint liquidity) {... */\n    tag_99:\n        /* \"contracts/ACPair.sol\":15447:15461  uint liquidity */\n      0x00\n        /* \"contracts/ACPair.sol\":12902:12910  unlocked */\n      sload(0x0d)\n        /* \"contracts/ACPair.sol\":12914:12915  1 */\n      0x01\n        /* \"contracts/ACPair.sol\":12902:12915  unlocked == 1 */\n      eq\n        /* \"contracts/ACPair.sol\":12894:12935  require(unlocked == 1, 'Pancake: LOCKED') */\n      tag_209\n      jumpi\n      mload(0x40)\n      shl(0xe5, 0x461bcd)\n      dup2\n      mstore\n      0x04\n      add\n      tag_167\n      swap1\n      tag_211\n      jump\t// in\n    tag_209:\n        /* \"contracts/ACPair.sol\":12957:12958  0 */\n      0x00\n        /* \"contracts/ACPair.sol\":12946:12954  unlocked */\n      0x0d\n        /* \"contracts/ACPair.sol\":12946:12958  unlocked = 0 */\n      sstore\n        /* \"contracts/ACPair.sol\":13065:13072  owner() */\n      tag_213\n        /* \"contracts/ACPair.sol\":13065:13070  owner */\n      tag_124\n        /* \"contracts/ACPair.sol\":13065:13072  owner() */\n      jump\t// in\n    tag_213:\n      sub(shl(0xa0, 0x01), 0x01)\n        /* \"contracts/ACPair.sol\":13051:13072  msg.sender == owner() */\n      and\n        /* \"contracts/ACPair.sol\":13051:13061  msg.sender */\n      caller\n      sub(shl(0xa0, 0x01), 0x01)\n        /* \"contracts/ACPair.sol\":13051:13072  msg.sender == owner() */\n      and\n      eq\n        /* \"contracts/ACPair.sol\":13051:13097  msg.sender == owner() || msg.sender == factory */\n      dup1\n      tag_214\n      jumpi\n      pop\n        /* \"contracts/ACPair.sol\":13090:13097  factory */\n      and(sub(shl(0xa0, 0x01), 0x01), sload(0x06))\n        /* \"contracts/ACPair.sol\":13076:13086  msg.sender */\n      caller\n        /* \"contracts/ACPair.sol\":13076:13097  msg.sender == factory */\n      eq\n        /* \"contracts/ACPair.sol\":13051:13097  msg.sender == owner() || msg.sender == factory */\n    tag_214:\n        /* \"contracts/ACPair.sol\":13043:13117  require(msg.sender == owner() || msg.sender == factory,\"Require operator\") */\n      tag_215\n      jumpi\n      mload(0x40)\n      shl(0xe5, 0x461bcd)\n      dup2\n      mstore\n      0x04\n      add\n      tag_167\n      swap1\n      tag_186\n      jump\t// in\n    tag_215:\n        /* \"contracts/ACPair.sol\":15475:15492  uint112 _reserve0 */\n      0x00\n        /* \"contracts/ACPair.sol\":15494:15511  uint112 _reserve1 */\n      dup1\n        /* \"contracts/ACPair.sol\":15516:15529  getReserves() */\n      tag_218\n        /* \"contracts/ACPair.sol\":15516:15527  getReserves */\n      tag_51\n        /* \"contracts/ACPair.sol\":15516:15529  getReserves() */\n      jump\t// in\n    tag_218:\n      pop\n        /* \"contracts/ACPair.sol\":15578:15584  token0 */\n      sload(0x07)\n        /* \"contracts/ACPair.sol\":15571:15610  IERC20(token0).balanceOf(address(this)) */\n      mload(0x40)\n      shl(0xe0, 0x70a08231)\n      dup2\n      mstore\n        /* \"contracts/ACPair.sol\":15474:15529  (uint112 _reserve0, uint112 _reserve1,) = getReserves() */\n      swap3\n      swap5\n      pop\n      swap1\n      swap3\n      pop\n        /* \"contracts/ACPair.sol\":15555:15568  uint balance0 */\n      0x00\n      swap2\n      sub(shl(0xa0, 0x01), 0x01)\n        /* \"contracts/ACPair.sol\":15578:15584  token0 */\n      swap1\n      swap2\n      and\n      swap1\n        /* \"contracts/ACPair.sol\":15571:15595  IERC20(token0).balanceOf */\n      0x70a08231\n      swap1\n        /* \"contracts/ACPair.sol\":15571:15610  IERC20(token0).balanceOf(address(this)) */\n      tag_219\n      swap1\n        /* \"contracts/ACPair.sol\":15604:15608  this */\n      address\n      swap1\n        /* \"contracts/ACPair.sol\":15571:15610  IERC20(token0).balanceOf(address(this)) */\n      0x04\n      add\n      tag_63\n      jump\t// in\n    tag_219:\n      0x20\n      mload(0x40)\n      dup1\n      dup4\n      sub\n      dup2\n      dup7\n      gas\n      staticcall\n      iszero\n      dup1\n      iszero\n      tag_221\n      jumpi\n      returndatasize\n      0x00\n      dup1\n      returndatacopy\n      revert(0x00, returndatasize)\n    tag_221:\n      pop\n      pop\n      pop\n      pop\n      mload(0x40)\n      returndatasize\n      not(0x1f)\n      0x1f\n      dup3\n      add\n      and\n      dup3\n      add\n      dup1\n      0x40\n      mstore\n      pop\n      dup2\n      add\n      swap1\n      tag_222\n      swap2\n      swap1\n      tag_223\n      jump\t// in\n    tag_222:\n        /* \"contracts/ACPair.sol\":15644:15650  token1 */\n      sload(0x08)\n        /* \"contracts/ACPair.sol\":15637:15676  IERC20(token1).balanceOf(address(this)) */\n      mload(0x40)\n      shl(0xe0, 0x70a08231)\n      dup2\n      mstore\n        /* \"contracts/ACPair.sol\":15555:15610  uint balance0 = IERC20(token0).balanceOf(address(this)) */\n      swap2\n      swap3\n      pop\n        /* \"contracts/ACPair.sol\":15621:15634  uint balance1 */\n      0x00\n      swap2\n      sub(shl(0xa0, 0x01), 0x01)\n        /* \"contracts/ACPair.sol\":15644:15650  token1 */\n      swap1\n      swap2\n      and\n      swap1\n        /* \"contracts/ACPair.sol\":15637:15661  IERC20(token1).balanceOf */\n      0x70a08231\n      swap1\n        /* \"contracts/ACPair.sol\":15637:15676  IERC20(token1).balanceOf(address(this)) */\n      tag_224\n      swap1\n        /* \"contracts/ACPair.sol\":15670:15674  this */\n      address\n      swap1\n        /* \"contracts/ACPair.sol\":15637:15676  IERC20(token1).balanceOf(address(this)) */\n      0x04\n      add\n      tag_63\n      jump\t// in\n    tag_224:\n      0x20\n      mload(0x40)\n      dup1\n      dup4\n      sub\n      dup2\n      dup7\n      gas\n      staticcall\n      iszero\n      dup1\n      iszero\n      tag_226\n      jumpi\n      returndatasize\n      0x00\n      dup1\n      returndatacopy\n      revert(0x00, returndatasize)\n    tag_226:\n      pop\n      pop\n      pop\n      pop\n      mload(0x40)\n      returndatasize\n      not(0x1f)\n      0x1f\n      dup3\n      add\n      and\n      dup3\n      add\n      dup1\n      0x40\n      mstore\n      pop\n      dup2\n      add\n      swap1\n      tag_227\n      swap2\n      swap1\n      tag_223\n      jump\t// in\n    tag_227:\n        /* \"contracts/ACPair.sol\":15621:15676  uint balance1 = IERC20(token1).balanceOf(address(this)) */\n      swap1\n      pop\n        /* \"contracts/ACPair.sol\":15687:15699  uint amount0 */\n      0x00\n        /* \"contracts/ACPair.sol\":15702:15722  balance0 - _reserve0 */\n      tag_228\n      sub(shl(0x70, 0x01), 0x01)\n      dup7\n      and\n        /* \"contracts/ACPair.sol\":15702:15710  balance0 */\n      dup5\n        /* \"contracts/ACPair.sol\":15702:15722  balance0 - _reserve0 */\n      tag_199\n      jump\t// in\n    tag_228:\n        /* \"contracts/ACPair.sol\":15687:15722  uint amount0 = balance0 - _reserve0 */\n      swap1\n      pop\n        /* \"contracts/ACPair.sol\":15733:15745  uint amount1 */\n      0x00\n        /* \"contracts/ACPair.sol\":15748:15768  balance1 - _reserve1 */\n      tag_229\n      sub(shl(0x70, 0x01), 0x01)\n      dup7\n      and\n        /* \"contracts/ACPair.sol\":15748:15756  balance1 */\n      dup5\n        /* \"contracts/ACPair.sol\":15748:15768  balance1 - _reserve1 */\n      tag_199\n      jump\t// in\n    tag_229:\n        /* \"contracts/ACPair.sol\":15781:15798  uint _totalSupply */\n      0x00\n        /* \"contracts/ACPair.sol\":15801:15812  totalSupply */\n      dup1\n      sload\n        /* \"contracts/ACPair.sol\":15733:15768  uint amount1 = balance1 - _reserve1 */\n      swap2\n      swap3\n      pop\n        /* \"contracts/ACPair.sol\":15905:15922  _totalSupply == 0 */\n      dup2\n      swap1\n      sub\n        /* \"contracts/ACPair.sol\":15901:16241  if (_totalSupply == 0) {... */\n      tag_230\n      jumpi\n        /* \"contracts/ACPair.sol\":12152:12157  10**3 */\n      0x03e8\n        /* \"contracts/ACPair.sol\":15951:15979  Math.sqrt(amount0 * amount1) */\n      tag_231\n        /* \"contracts/ACPair.sol\":15961:15978  amount0 * amount1 */\n      tag_232\n        /* \"contracts/ACPair.sol\":15971:15978  amount1 */\n      dup5\n        /* \"contracts/ACPair.sol\":15961:15968  amount0 */\n      dup7\n        /* \"contracts/ACPair.sol\":15961:15978  amount0 * amount1 */\n      tag_174\n      jump\t// in\n    tag_232:\n        /* \"contracts/ACPair.sol\":15951:15960  Math.sqrt */\n      tag_233\n        /* \"contracts/ACPair.sol\":15951:15979  Math.sqrt(amount0 * amount1) */\n      jump\t// in\n    tag_231:\n        /* \"contracts/ACPair.sol\":15951:15999  Math.sqrt(amount0 * amount1) - MINIMUM_LIQUIDITY */\n      tag_234\n      swap2\n      swap1\n      tag_199\n      jump\t// in\n    tag_234:\n        /* \"contracts/ACPair.sol\":15939:15999  liquidity = Math.sqrt(amount0 * amount1) - MINIMUM_LIQUIDITY */\n      swap8\n      pop\n        /* \"contracts/ACPair.sol\":16013:16049  _mint(address(0), MINIMUM_LIQUIDITY) */\n      tag_235\n        /* \"contracts/ACPair.sol\":16027:16028  0 */\n      0x00\n        /* \"contracts/ACPair.sol\":12152:12157  10**3 */\n      0x03e8\n        /* \"contracts/ACPair.sol\":16013:16018  _mint */\n      tag_236\n        /* \"contracts/ACPair.sol\":16013:16049  _mint(address(0), MINIMUM_LIQUIDITY) */\n      jump\t// in\n    tag_235:\n        /* \"contracts/ACPair.sol\":15901:16241  if (_totalSupply == 0) {... */\n      jump(tag_237)\n    tag_230:\n        /* \"contracts/ACPair.sol\":16149:16229  Math.min(amount0 * _totalSupply / _reserve0, amount1 * _totalSupply / _reserve1) */\n      tag_238\n      sub(shl(0x70, 0x01), 0x01)\n        /* \"contracts/ACPair.sol\":16158:16192  amount0 * _totalSupply / _reserve0 */\n      dup9\n      and\n        /* \"contracts/ACPair.sol\":16158:16180  amount0 * _totalSupply */\n      tag_239\n        /* \"contracts/ACPair.sol\":16168:16180  _totalSupply */\n      dup4\n        /* \"contracts/ACPair.sol\":16158:16165  amount0 */\n      dup7\n        /* \"contracts/ACPair.sol\":16158:16180  amount0 * _totalSupply */\n      tag_174\n      jump\t// in\n    tag_239:\n        /* \"contracts/ACPair.sol\":16158:16192  amount0 * _totalSupply / _reserve0 */\n      tag_240\n      swap2\n      swap1\n      tag_180\n      jump\t// in\n    tag_240:\n      sub(shl(0x70, 0x01), 0x01)\n        /* \"contracts/ACPair.sol\":16194:16228  amount1 * _totalSupply / _reserve1 */\n      dup9\n      and\n        /* \"contracts/ACPair.sol\":16194:16216  amount1 * _totalSupply */\n      tag_241\n        /* \"contracts/ACPair.sol\":16204:16216  _totalSupply */\n      dup5\n        /* \"contracts/ACPair.sol\":16194:16201  amount1 */\n      dup7\n        /* \"contracts/ACPair.sol\":16194:16216  amount1 * _totalSupply */\n      tag_174\n      jump\t// in\n    tag_241:\n        /* \"contracts/ACPair.sol\":16194:16228  amount1 * _totalSupply / _reserve1 */\n      tag_242\n      swap2\n      swap1\n      tag_180\n      jump\t// in\n    tag_242:\n        /* \"contracts/ACPair.sol\":16149:16157  Math.min */\n      tag_243\n        /* \"contracts/ACPair.sol\":16149:16229  Math.min(amount0 * _totalSupply / _reserve0, amount1 * _totalSupply / _reserve1) */\n      jump\t// in\n    tag_238:\n        /* \"contracts/ACPair.sol\":16137:16229  liquidity = Math.min(amount0 * _totalSupply / _reserve0, amount1 * _totalSupply / _reserve1) */\n      swap8\n      pop\n        /* \"contracts/ACPair.sol\":15901:16241  if (_totalSupply == 0) {... */\n    tag_237:\n        /* \"contracts/ACPair.sol\":16271:16272  0 */\n      0x00\n        /* \"contracts/ACPair.sol\":16259:16268  liquidity */\n      dup9\n        /* \"contracts/ACPair.sol\":16259:16272  liquidity > 0 */\n      gt\n        /* \"contracts/ACPair.sol\":16251:16315  require(liquidity > 0, 'Pancake: INSUFFICIENT_LIQUIDITY_MINTED') */\n      tag_244\n      jumpi\n      mload(0x40)\n      shl(0xe5, 0x461bcd)\n      dup2\n      mstore\n        /* \"#utility.yul\":7912:7914   */\n      0x20\n        /* \"contracts/ACPair.sol\":16251:16315  require(liquidity > 0, 'Pancake: INSUFFICIENT_LIQUIDITY_MINTED') */\n      0x04\n      dup3\n      add\n        /* \"#utility.yul\":7894:7915   */\n      mstore\n        /* \"#utility.yul\":7951:7953   */\n      0x26\n        /* \"#utility.yul\":7931:7949   */\n      0x24\n      dup3\n      add\n        /* \"#utility.yul\":7924:7954   */\n      mstore\n      0x00\n      dup1\n      mload\n      0x20\n      data_8cff704e589f5cb9b76570ebadc5754a50c8bcdf8a70a74d00e0daec2756120b\n      dup4\n      codecopy\n      dup2\n      mload\n      swap2\n      mstore\n        /* \"#utility.yul\":7970:7988   */\n      0x44\n      dup3\n      add\n        /* \"#utility.yul\":7963:8025   */\n      mstore\n      shl(0xd2, 0x135253951151)\n        /* \"#utility.yul\":8041:8059   */\n      0x64\n      dup3\n      add\n        /* \"#utility.yul\":8034:8070   */\n      mstore\n        /* \"#utility.yul\":8087:8106   */\n      0x84\n      add\n        /* \"contracts/ACPair.sol\":16251:16315  require(liquidity > 0, 'Pancake: INSUFFICIENT_LIQUIDITY_MINTED') */\n      tag_167\n        /* \"#utility.yul\":7710:8112   */\n      jump\n        /* \"contracts/ACPair.sol\":16251:16315  require(liquidity > 0, 'Pancake: INSUFFICIENT_LIQUIDITY_MINTED') */\n    tag_244:\n        /* \"contracts/ACPair.sol\":16326:16346  _mint(to, liquidity) */\n      tag_247\n        /* \"contracts/ACPair.sol\":16332:16334  to */\n      dup10\n        /* \"contracts/ACPair.sol\":16336:16345  liquidity */\n      dup10\n        /* \"contracts/ACPair.sol\":16326:16331  _mint */\n      tag_236\n        /* \"contracts/ACPair.sol\":16326:16346  _mint(to, liquidity) */\n      jump\t// in\n    tag_247:\n        /* \"contracts/ACPair.sol\":16359:16408  _update(balance0, balance1, _reserve0, _reserve1) */\n      tag_248\n        /* \"contracts/ACPair.sol\":16367:16375  balance0 */\n      dup6\n        /* \"contracts/ACPair.sol\":16377:16385  balance1 */\n      dup6\n        /* \"contracts/ACPair.sol\":16387:16396  _reserve0 */\n      dup10\n        /* \"contracts/ACPair.sol\":16398:16407  _reserve1 */\n      dup10\n        /* \"contracts/ACPair.sol\":16359:16366  _update */\n      tag_249\n        /* \"contracts/ACPair.sol\":16359:16408  _update(balance0, balance1, _reserve0, _reserve1) */\n      jump\t// in\n    tag_248:\n        /* \"contracts/ACPair.sol\":16424:16458  Mint(msg.sender, amount0, amount1) */\n      0x40\n      dup1\n      mload\n        /* \"#utility.yul\":4066:4091   */\n      dup5\n      dup2\n      mstore\n        /* \"#utility.yul\":4122:4124   */\n      0x20\n        /* \"#utility.yul\":4107:4125   */\n      dup2\n      add\n        /* \"#utility.yul\":4100:4134   */\n      dup5\n      swap1\n      mstore\n        /* \"contracts/ACPair.sol\":16429:16439  msg.sender */\n      caller\n      swap2\n        /* \"contracts/ACPair.sol\":16424:16458  Mint(msg.sender, amount0, amount1) */\n      0x4c209b5fc8ad50758f13e2e1088ba56a560dff690a1c6fef26394f4c03821c4f\n      swap2\n        /* \"#utility.yul\":4039:4057   */\n      add\n        /* \"contracts/ACPair.sol\":16424:16458  Mint(msg.sender, amount0, amount1) */\n      mload(0x40)\n      dup1\n      swap2\n      sub\n      swap1\n      log2\n      pop\n      pop\n        /* \"contracts/ACPair.sol\":12992:12993  1 */\n      0x01\n        /* \"contracts/ACPair.sol\":12981:12989  unlocked */\n      0x0d\n        /* \"contracts/ACPair.sol\":12981:12993  unlocked = 1 */\n      sstore\n      pop\n        /* \"contracts/ACPair.sol\":15385:16466  function mint(address to) external lock onlyOperator returns (uint liquidity) {... */\n      swap4\n      swap6\n      swap5\n      pop\n      pop\n      pop\n      pop\n      pop\n      jump\t// out\n        /* \"contracts/ACPair.sol\":18466:20216  function swap(uint amount0Out, uint amount1Out, address to) public onlyOperator lock {... */\n    tag_104:\n        /* \"contracts/ACPair.sol\":13065:13072  owner() */\n      tag_252\n        /* \"contracts/ACPair.sol\":13065:13070  owner */\n      tag_124\n        /* \"contracts/ACPair.sol\":13065:13072  owner() */\n      jump\t// in\n    tag_252:\n      sub(shl(0xa0, 0x01), 0x01)\n        /* \"contracts/ACPair.sol\":13051:13072  msg.sender == owner() */\n      and\n        /* \"contracts/ACPair.sol\":13051:13061  msg.sender */\n      caller\n      sub(shl(0xa0, 0x01), 0x01)\n        /* \"contracts/ACPair.sol\":13051:13072  msg.sender == owner() */\n      and\n      eq\n        /* \"contracts/ACPair.sol\":13051:13097  msg.sender == owner() || msg.sender == factory */\n      dup1\n      tag_253\n      jumpi\n      pop\n        /* \"contracts/ACPair.sol\":13090:13097  factory */\n      and(sub(shl(0xa0, 0x01), 0x01), sload(0x06))\n        /* \"contracts/ACPair.sol\":13076:13086  msg.sender */\n      caller\n        /* \"contracts/ACPair.sol\":13076:13097  msg.sender == factory */\n      eq\n        /* \"contracts/ACPair.sol\":13051:13097  msg.sender == owner() || msg.sender == factory */\n    tag_253:\n        /* \"contracts/ACPair.sol\":13043:13117  require(msg.sender == owner() || msg.sender == factory,\"Require operator\") */\n      tag_254\n      jumpi\n      mload(0x40)\n      shl(0xe5, 0x461bcd)\n      dup2\n      mstore\n      0x04\n      add\n      tag_167\n      swap1\n      tag_186\n      jump\t// in\n    tag_254:\n        /* \"contracts/ACPair.sol\":12902:12910  unlocked */\n      sload(0x0d)\n        /* \"contracts/ACPair.sol\":12914:12915  1 */\n      0x01\n        /* \"contracts/ACPair.sol\":12902:12915  unlocked == 1 */\n      eq\n        /* \"contracts/ACPair.sol\":12894:12935  require(unlocked == 1, 'Pancake: LOCKED') */\n      tag_257\n      jumpi\n      mload(0x40)\n      shl(0xe5, 0x461bcd)\n      dup2\n      mstore\n      0x04\n      add\n      tag_167\n      swap1\n      tag_211\n      jump\t// in\n    tag_257:\n        /* \"contracts/ACPair.sol\":12957:12958  0 */\n      0x00\n        /* \"contracts/ACPair.sol\":12946:12954  unlocked */\n      0x0d\n        /* \"contracts/ACPair.sol\":12946:12958  unlocked = 0 */\n      sstore\n        /* \"contracts/ACPair.sol\":18570:18584  amount0Out > 0 */\n      dup3\n      iszero\n      iszero\n      dup1\n        /* \"contracts/ACPair.sol\":18570:18602  amount0Out > 0 || amount1Out > 0 */\n      tag_260\n      jumpi\n      pop\n        /* \"contracts/ACPair.sol\":18601:18602  0 */\n      0x00\n        /* \"contracts/ACPair.sol\":18588:18598  amount1Out */\n      dup3\n        /* \"contracts/ACPair.sol\":18588:18602  amount1Out > 0 */\n      gt\n        /* \"contracts/ACPair.sol\":18570:18602  amount0Out > 0 || amount1Out > 0 */\n    tag_260:\n        /* \"contracts/ACPair.sol\":18562:18642  require(amount0Out > 0 || amount1Out > 0, 'Pancake: INSUFFICIENT_OUTPUT_AMOUNT') */\n      tag_261\n      jumpi\n      mload(0x40)\n      shl(0xe5, 0x461bcd)\n      dup2\n      mstore\n        /* \"#utility.yul\":8319:8321   */\n      0x20\n        /* \"contracts/ACPair.sol\":18562:18642  require(amount0Out > 0 || amount1Out > 0, 'Pancake: INSUFFICIENT_OUTPUT_AMOUNT') */\n      0x04\n      dup3\n      add\n        /* \"#utility.yul\":8301:8322   */\n      mstore\n        /* \"#utility.yul\":8358:8360   */\n      0x23\n        /* \"#utility.yul\":8338:8356   */\n      0x24\n      dup3\n      add\n        /* \"#utility.yul\":8331:8361   */\n      mstore\n        /* \"#utility.yul\":8397:8431   */\n      0x50616e63616b653a20494e53554646494349454e545f4f55545055545f414d4f\n        /* \"#utility.yul\":8377:8395   */\n      0x44\n      dup3\n      add\n        /* \"#utility.yul\":8370:8432   */\n      mstore\n      shl(0xea, 0x155395)\n        /* \"#utility.yul\":8448:8466   */\n      0x64\n      dup3\n      add\n        /* \"#utility.yul\":8441:8474   */\n      mstore\n        /* \"#utility.yul\":8491:8510   */\n      0x84\n      add\n        /* \"contracts/ACPair.sol\":18562:18642  require(amount0Out > 0 || amount1Out > 0, 'Pancake: INSUFFICIENT_OUTPUT_AMOUNT') */\n      tag_167\n        /* \"#utility.yul\":8117:8516   */\n      jump\n        /* \"contracts/ACPair.sol\":18562:18642  require(amount0Out > 0 || amount1Out > 0, 'Pancake: INSUFFICIENT_OUTPUT_AMOUNT') */\n    tag_261:\n        /* \"contracts/ACPair.sol\":18654:18671  uint112 _reserve0 */\n      0x00\n        /* \"contracts/ACPair.sol\":18673:18690  uint112 _reserve1 */\n      dup1\n        /* \"contracts/ACPair.sol\":18695:18708  getReserves() */\n      tag_264\n        /* \"contracts/ACPair.sol\":18695:18706  getReserves */\n      tag_51\n        /* \"contracts/ACPair.sol\":18695:18708  getReserves() */\n      jump\t// in\n    tag_264:\n        /* \"contracts/ACPair.sol\":18653:18708  (uint112 _reserve0, uint112 _reserve1,) = getReserves() */\n      pop\n      swap2\n      pop\n      swap2\n      pop\n        /* \"contracts/ACPair.sol\":18755:18764  _reserve0 */\n      dup2\n      sub(shl(0x70, 0x01), 0x01)\n        /* \"contracts/ACPair.sol\":18742:18764  amount0Out < _reserve0 */\n      and\n        /* \"contracts/ACPair.sol\":18742:18752  amount0Out */\n      dup6\n        /* \"contracts/ACPair.sol\":18742:18764  amount0Out < _reserve0 */\n      lt\n        /* \"contracts/ACPair.sol\":18742:18790  amount0Out < _reserve0 && amount1Out < _reserve1 */\n      dup1\n      iszero\n      tag_265\n      jumpi\n      pop\n        /* \"contracts/ACPair.sol\":18781:18790  _reserve1 */\n      dup1\n      sub(shl(0x70, 0x01), 0x01)\n        /* \"contracts/ACPair.sol\":18768:18790  amount1Out < _reserve1 */\n      and\n        /* \"contracts/ACPair.sol\":18768:18778  amount1Out */\n      dup5\n        /* \"contracts/ACPair.sol\":18768:18790  amount1Out < _reserve1 */\n      lt\n        /* \"contracts/ACPair.sol\":18742:18790  amount0Out < _reserve0 && amount1Out < _reserve1 */\n    tag_265:\n        /* \"contracts/ACPair.sol\":18734:18826  require(amount0Out < _reserve0 && amount1Out < _reserve1, 'Pancake: INSUFFICIENT_LIQUIDITY') */\n      tag_266\n      jumpi\n      mload(0x40)\n      shl(0xe5, 0x461bcd)\n      dup2\n      mstore\n        /* \"#utility.yul\":8723:8725   */\n      0x20\n        /* \"contracts/ACPair.sol\":18734:18826  require(amount0Out < _reserve0 && amount1Out < _reserve1, 'Pancake: INSUFFICIENT_LIQUIDITY') */\n      0x04\n      dup3\n      add\n        /* \"#utility.yul\":8705:8726   */\n      mstore\n        /* \"#utility.yul\":8762:8764   */\n      0x1f\n        /* \"#utility.yul\":8742:8760   */\n      0x24\n      dup3\n      add\n        /* \"#utility.yul\":8735:8765   */\n      mstore\n        /* \"#utility.yul\":8801:8834   */\n      0x50616e63616b653a20494e53554646494349454e545f4c495155494449545900\n        /* \"#utility.yul\":8781:8799   */\n      0x44\n      dup3\n      add\n        /* \"#utility.yul\":8774:8835   */\n      mstore\n        /* \"#utility.yul\":8852:8870   */\n      0x64\n      add\n        /* \"contracts/ACPair.sol\":18734:18826  require(amount0Out < _reserve0 && amount1Out < _reserve1, 'Pancake: INSUFFICIENT_LIQUIDITY') */\n      tag_167\n        /* \"#utility.yul\":8521:8876   */\n      jump\n        /* \"contracts/ACPair.sol\":18734:18826  require(amount0Out < _reserve0 && amount1Out < _reserve1, 'Pancake: INSUFFICIENT_LIQUIDITY') */\n    tag_266:\n        /* \"contracts/ACPair.sol\":18969:18975  token0 */\n      sload(0x07)\n        /* \"contracts/ACPair.sol\":19004:19010  token1 */\n      sload(0x08)\n        /* \"contracts/ACPair.sol\":18837:18850  uint balance0 */\n      0x00\n      swap2\n      dup3\n      swap2\n      sub(shl(0xa0, 0x01), 0x01)\n        /* \"contracts/ACPair.sol\":18969:18975  token0 */\n      swap2\n      dup3\n      and\n      swap2\n        /* \"contracts/ACPair.sol\":19004:19010  token1 */\n      swap1\n      dup2\n      and\n      swap1\n        /* \"contracts/ACPair.sol\":19029:19042  to != _token0 */\n      dup8\n      and\n      dup3\n      eq\n      dup1\n      iszero\n      swap1\n        /* \"contracts/ACPair.sol\":19029:19059  to != _token0 && to != _token1 */\n      tag_269\n      jumpi\n      pop\n        /* \"contracts/ACPair.sol\":19052:19059  _token1 */\n      dup1\n      sub(shl(0xa0, 0x01), 0x01)\n        /* \"contracts/ACPair.sol\":19046:19059  to != _token1 */\n      and\n        /* \"contracts/ACPair.sol\":19046:19048  to */\n      dup8\n      sub(shl(0xa0, 0x01), 0x01)\n        /* \"contracts/ACPair.sol\":19046:19059  to != _token1 */\n      and\n      eq\n      iszero\n        /* \"contracts/ACPair.sol\":19029:19059  to != _token0 && to != _token1 */\n    tag_269:\n        /* \"contracts/ACPair.sol\":19021:19083  require(to != _token0 && to != _token1, 'Pancake: INVALID_TO') */\n      tag_270\n      jumpi\n      mload(0x40)\n      shl(0xe5, 0x461bcd)\n      dup2\n      mstore\n        /* \"#utility.yul\":9083:9085   */\n      0x20\n        /* \"contracts/ACPair.sol\":19021:19083  require(to != _token0 && to != _token1, 'Pancake: INVALID_TO') */\n      0x04\n      dup3\n      add\n        /* \"#utility.yul\":9065:9086   */\n      mstore\n        /* \"#utility.yul\":9122:9124   */\n      0x13\n        /* \"#utility.yul\":9102:9120   */\n      0x24\n      dup3\n      add\n        /* \"#utility.yul\":9095:9125   */\n      mstore\n      shl(0x68, 0x50616e63616b653a20494e56414c49445f544f)\n        /* \"#utility.yul\":9141:9159   */\n      0x44\n      dup3\n      add\n        /* \"#utility.yul\":9134:9183   */\n      mstore\n        /* \"#utility.yul\":9200:9218   */\n      0x64\n      add\n        /* \"contracts/ACPair.sol\":19021:19083  require(to != _token0 && to != _token1, 'Pancake: INVALID_TO') */\n      tag_167\n        /* \"#utility.yul\":8881:9224   */\n      jump\n        /* \"contracts/ACPair.sol\":19021:19083  require(to != _token0 && to != _token1, 'Pancake: INVALID_TO') */\n    tag_270:\n        /* \"contracts/ACPair.sol\":19100:19114  amount0Out > 0 */\n      dup9\n      iszero\n        /* \"contracts/ACPair.sol\":19096:19154  if (amount0Out > 0) _safeTransfer(_token0, to, amount0Out) */\n      tag_274\n      jumpi\n        /* \"contracts/ACPair.sol\":19116:19154  _safeTransfer(_token0, to, amount0Out) */\n      tag_274\n        /* \"contracts/ACPair.sol\":19130:19137  _token0 */\n      dup3\n        /* \"contracts/ACPair.sol\":19139:19141  to */\n      dup9\n        /* \"contracts/ACPair.sol\":19143:19153  amount0Out */\n      dup12\n        /* \"contracts/ACPair.sol\":19116:19129  _safeTransfer */\n      tag_275\n        /* \"contracts/ACPair.sol\":19116:19154  _safeTransfer(_token0, to, amount0Out) */\n      jump\t// in\n    tag_274:\n        /* \"contracts/ACPair.sol\":19203:19217  amount1Out > 0 */\n      dup8\n      iszero\n        /* \"contracts/ACPair.sol\":19199:19257  if (amount1Out > 0) _safeTransfer(_token1, to, amount1Out) */\n      tag_277\n      jumpi\n        /* \"contracts/ACPair.sol\":19219:19257  _safeTransfer(_token1, to, amount1Out) */\n      tag_277\n        /* \"contracts/ACPair.sol\":19233:19240  _token1 */\n      dup2\n        /* \"contracts/ACPair.sol\":19242:19244  to */\n      dup9\n        /* \"contracts/ACPair.sol\":19246:19256  amount1Out */\n      dup11\n        /* \"contracts/ACPair.sol\":19219:19232  _safeTransfer */\n      tag_275\n        /* \"contracts/ACPair.sol\":19219:19257  _safeTransfer(_token1, to, amount1Out) */\n      jump\t// in\n    tag_277:\n        /* \"contracts/ACPair.sol\":19315:19355  IERC20(_token0).balanceOf(address(this)) */\n      mload(0x40)\n      shl(0xe0, 0x70a08231)\n      dup2\n      mstore\n      sub(shl(0xa0, 0x01), 0x01)\n        /* \"contracts/ACPair.sol\":19315:19340  IERC20(_token0).balanceOf */\n      dup4\n      and\n      swap1\n      0x70a08231\n      swap1\n        /* \"contracts/ACPair.sol\":19315:19355  IERC20(_token0).balanceOf(address(this)) */\n      tag_278\n      swap1\n        /* \"contracts/ACPair.sol\":19349:19353  this */\n      address\n      swap1\n        /* \"contracts/ACPair.sol\":19315:19355  IERC20(_token0).balanceOf(address(this)) */\n      0x04\n      add\n      tag_63\n      jump\t// in\n    tag_278:\n      0x20\n      mload(0x40)\n      dup1\n      dup4\n      sub\n      dup2\n      dup7\n      gas\n      staticcall\n      iszero\n      dup1\n      iszero\n      tag_280\n      jumpi\n      returndatasize\n      0x00\n      dup1\n      returndatacopy\n      revert(0x00, returndatasize)\n    tag_280:\n      pop\n      pop\n      pop\n      pop\n      mload(0x40)\n      returndatasize\n      not(0x1f)\n      0x1f\n      dup3\n      add\n      and\n      dup3\n      add\n      dup1\n      0x40\n      mstore\n      pop\n      dup2\n      add\n      swap1\n      tag_281\n      swap2\n      swap1\n      tag_223\n      jump\t// in\n    tag_281:\n        /* \"contracts/ACPair.sol\":19377:19417  IERC20(_token1).balanceOf(address(this)) */\n      mload(0x40)\n      shl(0xe0, 0x70a08231)\n      dup2\n      mstore\n        /* \"contracts/ACPair.sol\":19304:19355  balance0 = IERC20(_token0).balanceOf(address(this)) */\n      swap1\n      swap5\n      pop\n      sub(shl(0xa0, 0x01), 0x01)\n        /* \"contracts/ACPair.sol\":19377:19402  IERC20(_token1).balanceOf */\n      dup3\n      and\n      swap1\n      0x70a08231\n      swap1\n        /* \"contracts/ACPair.sol\":19377:19417  IERC20(_token1).balanceOf(address(this)) */\n      tag_282\n      swap1\n        /* \"contracts/ACPair.sol\":19411:19415  this */\n      address\n      swap1\n        /* \"contracts/ACPair.sol\":19377:19417  IERC20(_token1).balanceOf(address(this)) */\n      0x04\n      add\n      tag_63\n      jump\t// in\n    tag_282:\n      0x20\n      mload(0x40)\n      dup1\n      dup4\n      sub\n      dup2\n      dup7\n      gas\n      staticcall\n      iszero\n      dup1\n      iszero\n      tag_284\n      jumpi\n      returndatasize\n      0x00\n      dup1\n      returndatacopy\n      revert(0x00, returndatasize)\n    tag_284:\n      pop\n      pop\n      pop\n      pop\n      mload(0x40)\n      returndatasize\n      not(0x1f)\n      0x1f\n      dup3\n      add\n      and\n      dup3\n      add\n      dup1\n      0x40\n      mstore\n      pop\n      dup2\n      add\n      swap1\n      tag_285\n      swap2\n      swap1\n      tag_223\n      jump\t// in\n    tag_285:\n        /* \"contracts/ACPair.sol\":19366:19417  balance1 = IERC20(_token1).balanceOf(address(this)) */\n      swap3\n      pop\n        /* \"contracts/ACPair.sol\":18885:19429  { // scope for _token{0,1}, avoids stack too deep errors... */\n      pop\n      pop\n        /* \"contracts/ACPair.sol\":19441:19455  uint amount0In */\n      0x00\n        /* \"contracts/ACPair.sol\":19481:19491  amount0Out */\n      dup8\n        /* \"contracts/ACPair.sol\":19469:19478  _reserve0 */\n      dup6\n      sub(shl(0x70, 0x01), 0x01)\n        /* \"contracts/ACPair.sol\":19469:19491  _reserve0 - amount0Out */\n      and\n      tag_286\n      swap2\n      swap1\n      tag_199\n      jump\t// in\n    tag_286:\n        /* \"contracts/ACPair.sol\":19458:19466  balance0 */\n      dup4\n        /* \"contracts/ACPair.sol\":19458:19491  balance0 > _reserve0 - amount0Out */\n      gt\n        /* \"contracts/ACPair.sol\":19458:19533  balance0 > _reserve0 - amount0Out ? balance0 - (_reserve0 - amount0Out) : 0 */\n      tag_287\n      jumpi\n        /* \"contracts/ACPair.sol\":19532:19533  0 */\n      0x00\n        /* \"contracts/ACPair.sol\":19458:19533  balance0 > _reserve0 - amount0Out ? balance0 - (_reserve0 - amount0Out) : 0 */\n      jump(tag_290)\n    tag_287:\n        /* \"contracts/ACPair.sol\":19506:19528  _reserve0 - amount0Out */\n      tag_289\n        /* \"contracts/ACPair.sol\":19518:19528  amount0Out */\n      dup9\n      sub(shl(0x70, 0x01), 0x01)\n        /* \"contracts/ACPair.sol\":19506:19528  _reserve0 - amount0Out */\n      dup8\n      and\n      tag_199\n      jump\t// in\n    tag_289:\n        /* \"contracts/ACPair.sol\":19494:19529  balance0 - (_reserve0 - amount0Out) */\n      tag_290\n      swap1\n        /* \"contracts/ACPair.sol\":19494:19502  balance0 */\n      dup5\n        /* \"contracts/ACPair.sol\":19494:19529  balance0 - (_reserve0 - amount0Out) */\n      tag_199\n      jump\t// in\n    tag_290:\n        /* \"contracts/ACPair.sol\":19441:19533  uint amount0In = balance0 > _reserve0 - amount0Out ? balance0 - (_reserve0 - amount0Out) : 0 */\n      swap1\n      pop\n        /* \"contracts/ACPair.sol\":19544:19558  uint amount1In */\n      0x00\n        /* \"contracts/ACPair.sol\":19572:19594  _reserve1 - amount1Out */\n      tag_291\n        /* \"contracts/ACPair.sol\":19584:19594  amount1Out */\n      dup9\n      sub(shl(0x70, 0x01), 0x01)\n        /* \"contracts/ACPair.sol\":19572:19594  _reserve1 - amount1Out */\n      dup8\n      and\n      tag_199\n      jump\t// in\n    tag_291:\n        /* \"contracts/ACPair.sol\":19561:19569  balance1 */\n      dup4\n        /* \"contracts/ACPair.sol\":19561:19594  balance1 > _reserve1 - amount1Out */\n      gt\n        /* \"contracts/ACPair.sol\":19561:19636  balance1 > _reserve1 - amount1Out ? balance1 - (_reserve1 - amount1Out) : 0 */\n      tag_292\n      jumpi\n        /* \"contracts/ACPair.sol\":19635:19636  0 */\n      0x00\n        /* \"contracts/ACPair.sol\":19561:19636  balance1 > _reserve1 - amount1Out ? balance1 - (_reserve1 - amount1Out) : 0 */\n      jump(tag_295)\n    tag_292:\n        /* \"contracts/ACPair.sol\":19609:19631  _reserve1 - amount1Out */\n      tag_294\n        /* \"contracts/ACPair.sol\":19621:19631  amount1Out */\n      dup9\n      sub(shl(0x70, 0x01), 0x01)\n        /* \"contracts/ACPair.sol\":19609:19631  _reserve1 - amount1Out */\n      dup8\n      and\n      tag_199\n      jump\t// in\n    tag_294:\n        /* \"contracts/ACPair.sol\":19597:19632  balance1 - (_reserve1 - amount1Out) */\n      tag_295\n      swap1\n        /* \"contracts/ACPair.sol\":19597:19605  balance1 */\n      dup5\n        /* \"contracts/ACPair.sol\":19597:19632  balance1 - (_reserve1 - amount1Out) */\n      tag_199\n      jump\t// in\n    tag_295:\n        /* \"contracts/ACPair.sol\":19544:19636  uint amount1In = balance1 > _reserve1 - amount1Out ? balance1 - (_reserve1 - amount1Out) : 0 */\n      swap1\n      pop\n        /* \"contracts/ACPair.sol\":19667:19668  0 */\n      0x00\n        /* \"contracts/ACPair.sol\":19655:19664  amount0In */\n      dup3\n        /* \"contracts/ACPair.sol\":19655:19668  amount0In > 0 */\n      gt\n        /* \"contracts/ACPair.sol\":19655:19685  amount0In > 0 || amount1In > 0 */\n      dup1\n      tag_296\n      jumpi\n      pop\n        /* \"contracts/ACPair.sol\":19684:19685  0 */\n      0x00\n        /* \"contracts/ACPair.sol\":19672:19681  amount1In */\n      dup2\n        /* \"contracts/ACPair.sol\":19672:19685  amount1In > 0 */\n      gt\n        /* \"contracts/ACPair.sol\":19655:19685  amount0In > 0 || amount1In > 0 */\n    tag_296:\n        /* \"contracts/ACPair.sol\":19647:19724  require(amount0In > 0 || amount1In > 0, 'Pancake: INSUFFICIENT_INPUT_AMOUNT') */\n      tag_297\n      jumpi\n      mload(0x40)\n      shl(0xe5, 0x461bcd)\n      dup2\n      mstore\n        /* \"#utility.yul\":9431:9433   */\n      0x20\n        /* \"contracts/ACPair.sol\":19647:19724  require(amount0In > 0 || amount1In > 0, 'Pancake: INSUFFICIENT_INPUT_AMOUNT') */\n      0x04\n      dup3\n      add\n        /* \"#utility.yul\":9413:9434   */\n      mstore\n        /* \"#utility.yul\":9470:9472   */\n      0x22\n        /* \"#utility.yul\":9450:9468   */\n      0x24\n      dup3\n      add\n        /* \"#utility.yul\":9443:9473   */\n      mstore\n        /* \"#utility.yul\":9509:9543   */\n      0x50616e63616b653a20494e53554646494349454e545f494e5055545f414d4f55\n        /* \"#utility.yul\":9489:9507   */\n      0x44\n      dup3\n      add\n        /* \"#utility.yul\":9482:9544   */\n      mstore\n      shl(0xf2, 0x1395)\n        /* \"#utility.yul\":9560:9578   */\n      0x64\n      dup3\n      add\n        /* \"#utility.yul\":9553:9585   */\n      mstore\n        /* \"#utility.yul\":9602:9621   */\n      0x84\n      add\n        /* \"contracts/ACPair.sol\":19647:19724  require(amount0In > 0 || amount1In > 0, 'Pancake: INSUFFICIENT_INPUT_AMOUNT') */\n      tag_167\n        /* \"#utility.yul\":9229:9627   */\n      jump\n        /* \"contracts/ACPair.sol\":19647:19724  require(amount0In > 0 || amount1In > 0, 'Pancake: INSUFFICIENT_INPUT_AMOUNT') */\n    tag_297:\n        /* \"contracts/ACPair.sol\":19810:19831  uint balance0Adjusted */\n      0x00\n        /* \"contracts/ACPair.sol\":19855:19868  amount0In * 2 */\n      tag_300\n        /* \"contracts/ACPair.sol\":19855:19864  amount0In */\n      dup4\n        /* \"contracts/ACPair.sol\":19867:19868  2 */\n      0x02\n        /* \"contracts/ACPair.sol\":19855:19868  amount0In * 2 */\n      tag_174\n      jump\t// in\n    tag_300:\n        /* \"contracts/ACPair.sol\":19835:19850  balance0 * 1000 */\n      tag_301\n        /* \"contracts/ACPair.sol\":19835:19843  balance0 */\n      dup7\n        /* \"contracts/ACPair.sol\":19846:19850  1000 */\n      0x03e8\n        /* \"contracts/ACPair.sol\":19835:19850  balance0 * 1000 */\n      tag_174\n      jump\t// in\n    tag_301:\n        /* \"contracts/ACPair.sol\":19834:19869  (balance0 * 1000) - (amount0In * 2) */\n      tag_302\n      swap2\n      swap1\n      tag_199\n      jump\t// in\n    tag_302:\n        /* \"contracts/ACPair.sol\":19810:19869  uint balance0Adjusted = (balance0 * 1000) - (amount0In * 2) */\n      swap1\n      pop\n        /* \"contracts/ACPair.sol\":19880:19901  uint balance1Adjusted */\n      0x00\n        /* \"contracts/ACPair.sol\":19925:19938  amount1In * 2 */\n      tag_303\n        /* \"contracts/ACPair.sol\":19925:19934  amount1In */\n      dup4\n        /* \"contracts/ACPair.sol\":19937:19938  2 */\n      0x02\n        /* \"contracts/ACPair.sol\":19925:19938  amount1In * 2 */\n      tag_174\n      jump\t// in\n    tag_303:\n        /* \"contracts/ACPair.sol\":19905:19920  balance1 * 1000 */\n      tag_304\n        /* \"contracts/ACPair.sol\":19905:19913  balance1 */\n      dup7\n        /* \"contracts/ACPair.sol\":19916:19920  1000 */\n      0x03e8\n        /* \"contracts/ACPair.sol\":19905:19920  balance1 * 1000 */\n      tag_174\n      jump\t// in\n    tag_304:\n        /* \"contracts/ACPair.sol\":19904:19939  (balance1 * 1000) - (amount1In * 2) */\n      tag_305\n      swap2\n      swap1\n      tag_199\n      jump\t// in\n    tag_305:\n        /* \"contracts/ACPair.sol\":19880:19939  uint balance1Adjusted = (balance1 * 1000) - (amount1In * 2) */\n      swap1\n      pop\n        /* \"contracts/ACPair.sol\":19997:20026  uint(_reserve0) * (_reserve1) */\n      tag_306\n      sub(shl(0x70, 0x01), 0x01)\n      dup1\n      dup10\n      and\n      swap1\n        /* \"contracts/ACPair.sol\":19997:20012  uint(_reserve0) */\n      dup11\n      and\n        /* \"contracts/ACPair.sol\":19997:20026  uint(_reserve0) * (_reserve1) */\n      tag_174\n      jump\t// in\n    tag_306:\n        /* \"contracts/ACPair.sol\":19997:20038  uint(_reserve0) * (_reserve1) * (1000**2) */\n      tag_307\n      swap1\n        /* \"contracts/ACPair.sol\":20030:20037  1000**2 */\n      0x0f4240\n        /* \"contracts/ACPair.sol\":19997:20038  uint(_reserve0) * (_reserve1) * (1000**2) */\n      tag_174\n      jump\t// in\n    tag_307:\n        /* \"contracts/ACPair.sol\":19958:19993  balance0Adjusted * balance1Adjusted */\n      tag_308\n        /* \"contracts/ACPair.sol\":19977:19993  balance1Adjusted */\n      dup3\n        /* \"contracts/ACPair.sol\":19958:19974  balance0Adjusted */\n      dup5\n        /* \"contracts/ACPair.sol\":19958:19993  balance0Adjusted * balance1Adjusted */\n      tag_174\n      jump\t// in\n    tag_308:\n        /* \"contracts/ACPair.sol\":19958:20038  balance0Adjusted * balance1Adjusted >= uint(_reserve0) * (_reserve1) * (1000**2) */\n      lt\n      iszero\n        /* \"contracts/ACPair.sol\":19950:20053  require(balance0Adjusted * balance1Adjusted >= uint(_reserve0) * (_reserve1) * (1000**2), 'Pancake: K') */\n      tag_309\n      jumpi\n      mload(0x40)\n      shl(0xe5, 0x461bcd)\n      dup2\n      mstore\n        /* \"#utility.yul\":9834:9836   */\n      0x20\n        /* \"contracts/ACPair.sol\":19950:20053  require(balance0Adjusted * balance1Adjusted >= uint(_reserve0) * (_reserve1) * (1000**2), 'Pancake: K') */\n      0x04\n      dup3\n      add\n        /* \"#utility.yul\":9816:9837   */\n      mstore\n        /* \"#utility.yul\":9873:9875   */\n      0x0a\n        /* \"#utility.yul\":9853:9871   */\n      0x24\n      dup3\n      add\n        /* \"#utility.yul\":9846:9876   */\n      mstore\n      shl(0xb0, 0x50616e63616b653a204b)\n        /* \"#utility.yul\":9892:9910   */\n      0x44\n      dup3\n      add\n        /* \"#utility.yul\":9885:9925   */\n      mstore\n        /* \"#utility.yul\":9942:9960   */\n      0x64\n      add\n        /* \"contracts/ACPair.sol\":19950:20053  require(balance0Adjusted * balance1Adjusted >= uint(_reserve0) * (_reserve1) * (1000**2), 'Pancake: K') */\n      tag_167\n        /* \"#utility.yul\":9632:9966   */\n      jump\n        /* \"contracts/ACPair.sol\":19950:20053  require(balance0Adjusted * balance1Adjusted >= uint(_reserve0) * (_reserve1) * (1000**2), 'Pancake: K') */\n    tag_309:\n        /* \"contracts/ACPair.sol\":19735:20065  { // scope for reserve{0,1}Adjusted, avoids stack too deep errors... */\n      pop\n      pop\n        /* \"contracts/ACPair.sol\":20077:20126  _update(balance0, balance1, _reserve0, _reserve1) */\n      tag_312\n        /* \"contracts/ACPair.sol\":20085:20093  balance0 */\n      dup5\n        /* \"contracts/ACPair.sol\":20095:20103  balance1 */\n      dup5\n        /* \"contracts/ACPair.sol\":20105:20114  _reserve0 */\n      dup9\n        /* \"contracts/ACPair.sol\":20116:20125  _reserve1 */\n      dup9\n        /* \"contracts/ACPair.sol\":20077:20084  _update */\n      tag_249\n        /* \"contracts/ACPair.sol\":20077:20126  _update(balance0, balance1, _reserve0, _reserve1) */\n      jump\t// in\n    tag_312:\n        /* \"contracts/ACPair.sol\":20142:20208  Swap(msg.sender, amount0In, amount1In, amount0Out, amount1Out, to) */\n      0x40\n      dup1\n      mload\n        /* \"#utility.yul\":10202:10227   */\n      dup4\n      dup2\n      mstore\n        /* \"#utility.yul\":10258:10260   */\n      0x20\n        /* \"#utility.yul\":10243:10261   */\n      dup2\n      add\n        /* \"#utility.yul\":10236:10270   */\n      dup4\n      swap1\n      mstore\n        /* \"#utility.yul\":10286:10304   */\n      swap1\n      dup2\n      add\n        /* \"#utility.yul\":10279:10313   */\n      dup11\n      swap1\n      mstore\n        /* \"#utility.yul\":10344:10346   */\n      0x60\n        /* \"#utility.yul\":10329:10347   */\n      dup2\n      add\n        /* \"#utility.yul\":10322:10356   */\n      dup10\n      swap1\n      mstore\n      sub(shl(0xa0, 0x01), 0x01)\n        /* \"contracts/ACPair.sol\":20142:20208  Swap(msg.sender, amount0In, amount1In, amount0Out, amount1Out, to) */\n      dup9\n      and\n      swap1\n        /* \"contracts/ACPair.sol\":20147:20157  msg.sender */\n      caller\n      swap1\n        /* \"contracts/ACPair.sol\":20142:20208  Swap(msg.sender, amount0In, amount1In, amount0Out, amount1Out, to) */\n      0xd78ad95fa46c994b6551d0da85fc275fe613ce37657fb8d5e3d130840159d822\n      swap1\n        /* \"#utility.yul\":10189:10192   */\n      0x80\n        /* \"#utility.yul\":10174:10193   */\n      add\n        /* \"contracts/ACPair.sol\":20142:20208  Swap(msg.sender, amount0In, amount1In, amount0Out, amount1Out, to) */\n      mload(0x40)\n      dup1\n      swap2\n      sub\n      swap1\n      log3\n      pop\n      pop\n        /* \"contracts/ACPair.sol\":12992:12993  1 */\n      0x01\n        /* \"contracts/ACPair.sol\":12981:12989  unlocked */\n      0x0d\n        /* \"contracts/ACPair.sol\":12981:12993  unlocked = 1 */\n      sstore\n      pop\n      pop\n      pop\n      pop\n      pop\n      pop\n      pop\n        /* \"contracts/ACPair.sol\":18466:20216  function swap(uint amount0Out, uint amount1Out, address to) public onlyOperator lock {... */\n      jump\t// out\n        /* \"contracts/ACPair.sol\":8592:8695  function renounceOwnership() public virtual onlyOwner {... */\n    tag_110:\n        /* \"contracts/ACPair.sol\":7837:7850  _checkOwner() */\n      tag_316\n        /* \"contracts/ACPair.sol\":7837:7848  _checkOwner */\n      tag_194\n        /* \"contracts/ACPair.sol\":7837:7850  _checkOwner() */\n      jump\t// in\n    tag_316:\n        /* \"contracts/ACPair.sol\":8657:8687  _transferOwnership(address(0)) */\n      tag_184\n        /* \"contracts/ACPair.sol\":8684:8685  0 */\n      0x00\n        /* \"contracts/ACPair.sol\":8657:8675  _transferOwnership */\n      tag_319\n        /* \"contracts/ACPair.sol\":8657:8687  _transferOwnership(address(0)) */\n      jump\t// in\n        /* \"contracts/ACPair.sol\":16578:17897  function burn(address to) external lock onlyOperator returns (uint amount0, uint amount1) {... */\n    tag_120:\n        /* \"contracts/ACPair.sol\":16640:16652  uint amount0 */\n      0x00\n        /* \"contracts/ACPair.sol\":16654:16666  uint amount1 */\n      dup1\n        /* \"contracts/ACPair.sol\":12902:12910  unlocked */\n      sload(0x0d)\n        /* \"contracts/ACPair.sol\":12914:12915  1 */\n      0x01\n        /* \"contracts/ACPair.sol\":12902:12915  unlocked == 1 */\n      eq\n        /* \"contracts/ACPair.sol\":12894:12935  require(unlocked == 1, 'Pancake: LOCKED') */\n      tag_321\n      jumpi\n      mload(0x40)\n      shl(0xe5, 0x461bcd)\n      dup2\n      mstore\n      0x04\n      add\n      tag_167\n      swap1\n      tag_211\n      jump\t// in\n    tag_321:\n        /* \"contracts/ACPair.sol\":12957:12958  0 */\n      0x00\n        /* \"contracts/ACPair.sol\":12946:12954  unlocked */\n      0x0d\n        /* \"contracts/ACPair.sol\":12946:12958  unlocked = 0 */\n      sstore\n        /* \"contracts/ACPair.sol\":13065:13072  owner() */\n      tag_324\n        /* \"contracts/ACPair.sol\":13065:13070  owner */\n      tag_124\n        /* \"contracts/ACPair.sol\":13065:13072  owner() */\n      jump\t// in\n    tag_324:\n      sub(shl(0xa0, 0x01), 0x01)\n        /* \"contracts/ACPair.sol\":13051:13072  msg.sender == owner() */\n      and\n        /* \"contracts/ACPair.sol\":13051:13061  msg.sender */\n      caller\n      sub(shl(0xa0, 0x01), 0x01)\n        /* \"contracts/ACPair.sol\":13051:13072  msg.sender == owner() */\n      and\n      eq\n        /* \"contracts/ACPair.sol\":13051:13097  msg.sender == owner() || msg.sender == factory */\n      dup1\n      tag_325\n      jumpi\n      pop\n        /* \"contracts/ACPair.sol\":13090:13097  factory */\n      and(sub(shl(0xa0, 0x01), 0x01), sload(0x06))\n        /* \"contracts/ACPair.sol\":13076:13086  msg.sender */\n      caller\n        /* \"contracts/ACPair.sol\":13076:13097  msg.sender == factory */\n      eq\n        /* \"contracts/ACPair.sol\":13051:13097  msg.sender == owner() || msg.sender == factory */\n    tag_325:\n        /* \"contracts/ACPair.sol\":13043:13117  require(msg.sender == owner() || msg.sender == factory,\"Require operator\") */\n      tag_326\n      jumpi\n      mload(0x40)\n      shl(0xe5, 0x461bcd)\n      dup2\n      mstore\n      0x04\n      add\n      tag_167\n      swap1\n      tag_186\n      jump\t// in\n    tag_326:\n        /* \"contracts/ACPair.sol\":16680:16697  uint112 _reserve0 */\n      0x00\n        /* \"contracts/ACPair.sol\":16699:16716  uint112 _reserve1 */\n      dup1\n        /* \"contracts/ACPair.sol\":16721:16734  getReserves() */\n      tag_329\n        /* \"contracts/ACPair.sol\":16721:16732  getReserves */\n      tag_51\n        /* \"contracts/ACPair.sol\":16721:16734  getReserves() */\n      jump\t// in\n    tag_329:\n      pop\n        /* \"contracts/ACPair.sol\":16778:16784  token0 */\n      sload(0x07)\n        /* \"contracts/ACPair.sol\":16859:16865  token1 */\n      sload(0x08)\n        /* \"contracts/ACPair.sol\":16938:16978  IERC20(_token0).balanceOf(address(this)) */\n      mload(0x40)\n      shl(0xe0, 0x70a08231)\n      dup2\n      mstore\n        /* \"contracts/ACPair.sol\":16679:16734  (uint112 _reserve0, uint112 _reserve1,) = getReserves() */\n      swap4\n      swap6\n      pop\n      swap2\n      swap4\n      pop\n      sub(shl(0xa0, 0x01), 0x01)\n        /* \"contracts/ACPair.sol\":16778:16784  token0 */\n      swap1\n      dup2\n      and\n      swap3\n        /* \"contracts/ACPair.sol\":16859:16865  token1 */\n      swap2\n      and\n      swap1\n        /* \"contracts/ACPair.sol\":16760:16775  address _token0 */\n      0x00\n      swap1\n        /* \"contracts/ACPair.sol\":16778:16784  token0 */\n      dup4\n      swap1\n        /* \"contracts/ACPair.sol\":16938:16963  IERC20(_token0).balanceOf */\n      0x70a08231\n      swap1\n        /* \"contracts/ACPair.sol\":16938:16978  IERC20(_token0).balanceOf(address(this)) */\n      tag_330\n      swap1\n        /* \"contracts/ACPair.sol\":16972:16976  this */\n      address\n      swap1\n        /* \"contracts/ACPair.sol\":16938:16978  IERC20(_token0).balanceOf(address(this)) */\n      0x04\n      add\n      tag_63\n      jump\t// in\n    tag_330:\n      0x20\n      mload(0x40)\n      dup1\n      dup4\n      sub\n      dup2\n      dup7\n      gas\n      staticcall\n      iszero\n      dup1\n      iszero\n      tag_332\n      jumpi\n      returndatasize\n      0x00\n      dup1\n      returndatacopy\n      revert(0x00, returndatasize)\n    tag_332:\n      pop\n      pop\n      pop\n      pop\n      mload(0x40)\n      returndatasize\n      not(0x1f)\n      0x1f\n      dup3\n      add\n      and\n      dup3\n      add\n      dup1\n      0x40\n      mstore\n      pop\n      dup2\n      add\n      swap1\n      tag_333\n      swap2\n      swap1\n      tag_223\n      jump\t// in\n    tag_333:\n        /* \"contracts/ACPair.sol\":16922:16978  uint balance0 = IERC20(_token0).balanceOf(address(this)) */\n      swap1\n      pop\n        /* \"contracts/ACPair.sol\":16989:17002  uint balance1 */\n      0x00\n        /* \"contracts/ACPair.sol\":17012:17019  _token1 */\n      dup3\n      sub(shl(0xa0, 0x01), 0x01)\n        /* \"contracts/ACPair.sol\":17005:17030  IERC20(_token1).balanceOf */\n      and\n      0x70a08231\n        /* \"contracts/ACPair.sol\":17039:17043  this */\n      address\n        /* \"contracts/ACPair.sol\":17005:17045  IERC20(_token1).balanceOf(address(this)) */\n      mload(0x40)\n      dup3\n      0xffffffff\n      and\n      0xe0\n      shl\n      dup2\n      mstore\n      0x04\n      add\n      tag_334\n      swap2\n      swap1\n      tag_63\n      jump\t// in\n    tag_334:\n      0x20\n      mload(0x40)\n      dup1\n      dup4\n      sub\n      dup2\n      dup7\n      gas\n      staticcall\n      iszero\n      dup1\n      iszero\n      tag_336\n      jumpi\n      returndatasize\n      0x00\n      dup1\n      returndatacopy\n      revert(0x00, returndatasize)\n    tag_336:\n      pop\n      pop\n      pop\n      pop\n      mload(0x40)\n      returndatasize\n      not(0x1f)\n      0x1f\n      dup3\n      add\n      and\n      dup3\n      add\n      dup1\n      0x40\n      mstore\n      pop\n      dup2\n      add\n      swap1\n      tag_337\n      swap2\n      swap1\n      tag_223\n      jump\t// in\n    tag_337:\n        /* \"contracts/ACPair.sol\":17091:17095  this */\n      address\n        /* \"contracts/ACPair.sol\":17056:17070  uint liquidity */\n      0x00\n        /* \"contracts/ACPair.sol\":17073:17097  balanceOf[address(this)] */\n      swap1\n      dup2\n      mstore\n        /* \"contracts/ACPair.sol\":17073:17082  balanceOf */\n      0x01\n        /* \"contracts/ACPair.sol\":17073:17097  balanceOf[address(this)] */\n      0x20\n      mstore\n      0x40\n      dup2\n      keccak256\n      sload\n        /* \"contracts/ACPair.sol\":17130:17141  totalSupply */\n      swap1\n      sload\n        /* \"contracts/ACPair.sol\":16989:17045  uint balance1 = IERC20(_token1).balanceOf(address(this)) */\n      swap2\n      swap3\n      pop\n        /* \"contracts/ACPair.sol\":17073:17097  balanceOf[address(this)] */\n      swap1\n        /* \"contracts/ACPair.sol\":17130:17141  totalSupply */\n      dup1\n        /* \"contracts/ACPair.sol\":17240:17260  liquidity * balance0 */\n      tag_338\n        /* \"contracts/ACPair.sol\":17252:17260  balance0 */\n      dup6\n        /* \"contracts/ACPair.sol\":17073:17097  balanceOf[address(this)] */\n      dup5\n        /* \"contracts/ACPair.sol\":17240:17260  liquidity * balance0 */\n      tag_174\n      jump\t// in\n    tag_338:\n        /* \"contracts/ACPair.sol\":17240:17275  liquidity * balance0 / _totalSupply */\n      tag_339\n      swap2\n      swap1\n      tag_180\n      jump\t// in\n    tag_339:\n        /* \"contracts/ACPair.sol\":17230:17275  amount0 = liquidity * balance0 / _totalSupply */\n      swap10\n      pop\n        /* \"contracts/ACPair.sol\":17367:17379  _totalSupply */\n      dup1\n        /* \"contracts/ACPair.sol\":17344:17364  liquidity * balance1 */\n      tag_340\n        /* \"contracts/ACPair.sol\":17356:17364  balance1 */\n      dup5\n        /* \"contracts/ACPair.sol\":17344:17353  liquidity */\n      dup5\n        /* \"contracts/ACPair.sol\":17344:17364  liquidity * balance1 */\n      tag_174\n      jump\t// in\n    tag_340:\n        /* \"contracts/ACPair.sol\":17344:17379  liquidity * balance1 / _totalSupply */\n      tag_341\n      swap2\n      swap1\n      tag_180\n      jump\t// in\n    tag_341:\n        /* \"contracts/ACPair.sol\":17334:17379  amount1 = liquidity * balance1 / _totalSupply */\n      swap9\n      pop\n        /* \"contracts/ACPair.sol\":17456:17457  0 */\n      0x00\n        /* \"contracts/ACPair.sol\":17446:17453  amount0 */\n      dup11\n        /* \"contracts/ACPair.sol\":17446:17457  amount0 > 0 */\n      gt\n        /* \"contracts/ACPair.sol\":17446:17472  amount0 > 0 && amount1 > 0 */\n      dup1\n      iszero\n      tag_342\n      jumpi\n      pop\n        /* \"contracts/ACPair.sol\":17471:17472  0 */\n      0x00\n        /* \"contracts/ACPair.sol\":17461:17468  amount1 */\n      dup10\n        /* \"contracts/ACPair.sol\":17461:17472  amount1 > 0 */\n      gt\n        /* \"contracts/ACPair.sol\":17446:17472  amount0 > 0 && amount1 > 0 */\n    tag_342:\n        /* \"contracts/ACPair.sol\":17438:17515  require(amount0 > 0 && amount1 > 0, 'Pancake: INSUFFICIENT_LIQUIDITY_BURNED') */\n      tag_343\n      jumpi\n      mload(0x40)\n      shl(0xe5, 0x461bcd)\n      dup2\n      mstore\n        /* \"#utility.yul\":10569:10571   */\n      0x20\n        /* \"contracts/ACPair.sol\":17438:17515  require(amount0 > 0 && amount1 > 0, 'Pancake: INSUFFICIENT_LIQUIDITY_BURNED') */\n      0x04\n      dup3\n      add\n        /* \"#utility.yul\":10551:10572   */\n      mstore\n        /* \"#utility.yul\":10608:10610   */\n      0x26\n        /* \"#utility.yul\":10588:10606   */\n      0x24\n      dup3\n      add\n        /* \"#utility.yul\":10581:10611   */\n      mstore\n      0x00\n      dup1\n      mload\n      0x20\n      data_8cff704e589f5cb9b76570ebadc5754a50c8bcdf8a70a74d00e0daec2756120b\n      dup4\n      codecopy\n      dup2\n      mload\n      swap2\n      mstore\n        /* \"#utility.yul\":10627:10645   */\n      0x44\n      dup3\n      add\n        /* \"#utility.yul\":10620:10682   */\n      mstore\n      shl(0xd2, 0x109554939151)\n        /* \"#utility.yul\":10698:10716   */\n      0x64\n      dup3\n      add\n        /* \"#utility.yul\":10691:10727   */\n      mstore\n        /* \"#utility.yul\":10744:10763   */\n      0x84\n      add\n        /* \"contracts/ACPair.sol\":17438:17515  require(amount0 > 0 && amount1 > 0, 'Pancake: INSUFFICIENT_LIQUIDITY_BURNED') */\n      tag_167\n        /* \"#utility.yul\":10367:10769   */\n      jump\n        /* \"contracts/ACPair.sol\":17438:17515  require(amount0 > 0 && amount1 > 0, 'Pancake: INSUFFICIENT_LIQUIDITY_BURNED') */\n    tag_343:\n        /* \"contracts/ACPair.sol\":17526:17557  _burn(address(this), liquidity) */\n      tag_346\n        /* \"contracts/ACPair.sol\":17540:17544  this */\n      address\n        /* \"contracts/ACPair.sol\":17547:17556  liquidity */\n      dup4\n        /* \"contracts/ACPair.sol\":17526:17531  _burn */\n      tag_347\n        /* \"contracts/ACPair.sol\":17526:17557  _burn(address(this), liquidity) */\n      jump\t// in\n    tag_346:\n        /* \"contracts/ACPair.sol\":17568:17603  _safeTransfer(_token0, to, amount0) */\n      tag_348\n        /* \"contracts/ACPair.sol\":17582:17589  _token0 */\n      dup7\n        /* \"contracts/ACPair.sol\":17591:17593  to */\n      dup13\n        /* \"contracts/ACPair.sol\":17595:17602  amount0 */\n      dup13\n        /* \"contracts/ACPair.sol\":17568:17581  _safeTransfer */\n      tag_275\n        /* \"contracts/ACPair.sol\":17568:17603  _safeTransfer(_token0, to, amount0) */\n      jump\t// in\n    tag_348:\n        /* \"contracts/ACPair.sol\":17614:17649  _safeTransfer(_token1, to, amount1) */\n      tag_349\n        /* \"contracts/ACPair.sol\":17628:17635  _token1 */\n      dup6\n        /* \"contracts/ACPair.sol\":17637:17639  to */\n      dup13\n        /* \"contracts/ACPair.sol\":17641:17648  amount1 */\n      dup12\n        /* \"contracts/ACPair.sol\":17614:17627  _safeTransfer */\n      tag_275\n        /* \"contracts/ACPair.sol\":17614:17649  _safeTransfer(_token1, to, amount1) */\n      jump\t// in\n    tag_349:\n        /* \"contracts/ACPair.sol\":17671:17711  IERC20(_token0).balanceOf(address(this)) */\n      mload(0x40)\n      shl(0xe0, 0x70a08231)\n      dup2\n      mstore\n      sub(shl(0xa0, 0x01), 0x01)\n        /* \"contracts/ACPair.sol\":17671:17696  IERC20(_token0).balanceOf */\n      dup8\n      and\n      swap1\n      0x70a08231\n      swap1\n        /* \"contracts/ACPair.sol\":17671:17711  IERC20(_token0).balanceOf(address(this)) */\n      tag_350\n      swap1\n        /* \"contracts/ACPair.sol\":17705:17709  this */\n      address\n      swap1\n        /* \"contracts/ACPair.sol\":17671:17711  IERC20(_token0).balanceOf(address(this)) */\n      0x04\n      add\n      tag_63\n      jump\t// in\n    tag_350:\n      0x20\n      mload(0x40)\n      dup1\n      dup4\n      sub\n      dup2\n      dup7\n      gas\n      staticcall\n      iszero\n      dup1\n      iszero\n      tag_352\n      jumpi\n      returndatasize\n      0x00\n      dup1\n      returndatacopy\n      revert(0x00, returndatasize)\n    tag_352:\n      pop\n      pop\n      pop\n      pop\n      mload(0x40)\n      returndatasize\n      not(0x1f)\n      0x1f\n      dup3\n      add\n      and\n      dup3\n      add\n      dup1\n      0x40\n      mstore\n      pop\n      dup2\n      add\n      swap1\n      tag_353\n      swap2\n      swap1\n      tag_223\n      jump\t// in\n    tag_353:\n        /* \"contracts/ACPair.sol\":17733:17773  IERC20(_token1).balanceOf(address(this)) */\n      mload(0x40)\n      shl(0xe0, 0x70a08231)\n      dup2\n      mstore\n        /* \"contracts/ACPair.sol\":17660:17711  balance0 = IERC20(_token0).balanceOf(address(this)) */\n      swap1\n      swap5\n      pop\n      sub(shl(0xa0, 0x01), 0x01)\n        /* \"contracts/ACPair.sol\":17733:17758  IERC20(_token1).balanceOf */\n      dup7\n      and\n      swap1\n      0x70a08231\n      swap1\n        /* \"contracts/ACPair.sol\":17733:17773  IERC20(_token1).balanceOf(address(this)) */\n      tag_354\n      swap1\n        /* \"contracts/ACPair.sol\":17767:17771  this */\n      address\n      swap1\n        /* \"contracts/ACPair.sol\":17733:17773  IERC20(_token1).balanceOf(address(this)) */\n      0x04\n      add\n      tag_63\n      jump\t// in\n    tag_354:\n      0x20\n      mload(0x40)\n      dup1\n      dup4\n      sub\n      dup2\n      dup7\n      gas\n      staticcall\n      iszero\n      dup1\n      iszero\n      tag_356\n      jumpi\n      returndatasize\n      0x00\n      dup1\n      returndatacopy\n      revert(0x00, returndatasize)\n    tag_356:\n      pop\n      pop\n      pop\n      pop\n      mload(0x40)\n      returndatasize\n      not(0x1f)\n      0x1f\n      dup3\n      add\n      and\n      dup3\n      add\n      dup1\n      0x40\n      mstore\n      pop\n      dup2\n      add\n      swap1\n      tag_357\n      swap2\n      swap1\n      tag_223\n      jump\t// in\n    tag_357:\n        /* \"contracts/ACPair.sol\":17722:17773  balance1 = IERC20(_token1).balanceOf(address(this)) */\n      swap3\n      pop\n        /* \"contracts/ACPair.sol\":17786:17835  _update(balance0, balance1, _reserve0, _reserve1) */\n      tag_358\n        /* \"contracts/ACPair.sol\":17794:17802  balance0 */\n      dup5\n        /* \"contracts/ACPair.sol\":17804:17812  balance1 */\n      dup5\n        /* \"contracts/ACPair.sol\":17814:17823  _reserve0 */\n      dup11\n        /* \"contracts/ACPair.sol\":17825:17834  _reserve1 */\n      dup11\n        /* \"contracts/ACPair.sol\":17786:17793  _update */\n      tag_249\n        /* \"contracts/ACPair.sol\":17786:17835  _update(balance0, balance1, _reserve0, _reserve1) */\n      jump\t// in\n    tag_358:\n        /* \"contracts/ACPair.sol\":17851:17889  Burn(msg.sender, amount0, amount1, to) */\n      0x40\n      dup1\n      mload\n        /* \"#utility.yul\":4066:4091   */\n      dup12\n      dup2\n      mstore\n        /* \"#utility.yul\":4122:4124   */\n      0x20\n        /* \"#utility.yul\":4107:4125   */\n      dup2\n      add\n        /* \"#utility.yul\":4100:4134   */\n      dup12\n      swap1\n      mstore\n      sub(shl(0xa0, 0x01), 0x01)\n        /* \"contracts/ACPair.sol\":17851:17889  Burn(msg.sender, amount0, amount1, to) */\n      dup14\n      and\n      swap2\n        /* \"contracts/ACPair.sol\":17856:17866  msg.sender */\n      caller\n      swap2\n      0x00\n      dup1\n      mload\n      0x20\n      data_a2c6638bd4e25e30f6e426bf2b943f7db693fc3820b21a30fe2c720fec0a3d65\n      dup4\n      codecopy\n      dup2\n      mload\n      swap2\n      mstore\n        /* \"contracts/ACPair.sol\":17851:17889  Burn(msg.sender, amount0, amount1, to) */\n      swap2\n        /* \"#utility.yul\":4039:4057   */\n      add\n        /* \"contracts/ACPair.sol\":17851:17889  Burn(msg.sender, amount0, amount1, to) */\n      mload(0x40)\n      dup1\n      swap2\n      sub\n      swap1\n      log3\n        /* \"contracts/ACPair.sol\":16668:17897  {... */\n      pop\n      pop\n      pop\n      pop\n      pop\n      pop\n      pop\n      pop\n        /* \"contracts/ACPair.sol\":12992:12993  1 */\n      0x01\n        /* \"contracts/ACPair.sol\":12981:12989  unlocked */\n      0x0d\n        /* \"contracts/ACPair.sol\":12981:12993  unlocked = 1 */\n      dup2\n      swap1\n      sstore\n      pop\n        /* \"contracts/ACPair.sol\":16578:17897  function burn(address to) external lock onlyOperator returns (uint amount0, uint amount1) {... */\n      swap2\n      pop\n      swap2\n      jump\t// out\n        /* \"contracts/ACPair.sol\":7951:8038  function owner() public view virtual returns (address) {... */\n    tag_124:\n        /* \"contracts/ACPair.sol\":8024:8030  _owner */\n      and(sub(shl(0xa0, 0x01), 0x01), sload(0x05))\n      swap1\n        /* \"contracts/ACPair.sol\":7951:8038  function owner() public view virtual returns (address) {... */\n      jump\t// out\n        /* \"contracts/ACPair.sol\":20825:21356  function simpleSwap(address token,address to, uint256 amountIn) onlyOperator external returns(uint256 amountOut){... */\n    tag_131:\n        /* \"contracts/ACPair.sol\":20919:20936  uint256 amountOut */\n      0x00\n        /* \"contracts/ACPair.sol\":13065:13072  owner() */\n      tag_362\n        /* \"contracts/ACPair.sol\":13065:13070  owner */\n      tag_124\n        /* \"contracts/ACPair.sol\":13065:13072  owner() */\n      jump\t// in\n    tag_362:\n      sub(shl(0xa0, 0x01), 0x01)\n        /* \"contracts/ACPair.sol\":13051:13072  msg.sender == owner() */\n      and\n        /* \"contracts/ACPair.sol\":13051:13061  msg.sender */\n      caller\n      sub(shl(0xa0, 0x01), 0x01)\n        /* \"contracts/ACPair.sol\":13051:13072  msg.sender == owner() */\n      and\n      eq\n        /* \"contracts/ACPair.sol\":13051:13097  msg.sender == owner() || msg.sender == factory */\n      dup1\n      tag_363\n      jumpi\n      pop\n        /* \"contracts/ACPair.sol\":13090:13097  factory */\n      and(sub(shl(0xa0, 0x01), 0x01), sload(0x06))\n        /* \"contracts/ACPair.sol\":13076:13086  msg.sender */\n      caller\n        /* \"contracts/ACPair.sol\":13076:13097  msg.sender == factory */\n      eq\n        /* \"contracts/ACPair.sol\":13051:13097  msg.sender == owner() || msg.sender == factory */\n    tag_363:\n        /* \"contracts/ACPair.sol\":13043:13117  require(msg.sender == owner() || msg.sender == factory,\"Require operator\") */\n      tag_364\n      jumpi\n      mload(0x40)\n      shl(0xe5, 0x461bcd)\n      dup2\n      mstore\n      0x04\n      add\n      tag_167\n      swap1\n      tag_186\n      jump\t// in\n    tag_364:\n        /* \"contracts/ACPair.sol\":20948:21011  IERC20(token).transferFrom(msg.sender, address(this), amountIn) */\n      mload(0x40)\n      shl(0xe0, 0x23b872dd)\n      dup2\n      mstore\n        /* \"contracts/ACPair.sol\":20975:20985  msg.sender */\n      caller\n        /* \"contracts/ACPair.sol\":20948:21011  IERC20(token).transferFrom(msg.sender, address(this), amountIn) */\n      0x04\n      dup3\n      add\n        /* \"#utility.yul\":11014:11048   */\n      mstore\n        /* \"contracts/ACPair.sol\":20995:20999  this */\n      address\n        /* \"#utility.yul\":11064:11082   */\n      0x24\n      dup3\n      add\n        /* \"#utility.yul\":11057:11100   */\n      mstore\n        /* \"#utility.yul\":11116:11134   */\n      0x44\n      dup2\n      add\n        /* \"#utility.yul\":11109:11143   */\n      dup4\n      swap1\n      mstore\n      sub(shl(0xa0, 0x01), 0x01)\n        /* \"contracts/ACPair.sol\":20948:20974  IERC20(token).transferFrom */\n      dup6\n      and\n      swap1\n      0x23b872dd\n      swap1\n        /* \"#utility.yul\":10949:10967   */\n      0x64\n      add\n        /* \"contracts/ACPair.sol\":20948:21011  IERC20(token).transferFrom(msg.sender, address(this), amountIn) */\n      0x20\n      mload(0x40)\n      dup1\n      dup4\n      sub\n      dup2\n      0x00\n      dup8\n      gas\n      call\n      iszero\n      dup1\n      iszero\n      tag_370\n      jumpi\n      returndatasize\n      0x00\n      dup1\n      returndatacopy\n      revert(0x00, returndatasize)\n    tag_370:\n      pop\n      pop\n      pop\n      pop\n      mload(0x40)\n      returndatasize\n      not(0x1f)\n      0x1f\n      dup3\n      add\n      and\n      dup3\n      add\n      dup1\n      0x40\n      mstore\n      pop\n      dup2\n      add\n      swap1\n      tag_371\n      swap2\n      swap1\n      tag_372\n      jump\t// in\n    tag_371:\n      pop\n        /* \"contracts/ACPair.sol\":21075:21081  token0 */\n      sload(0x07)\n        /* \"contracts/ACPair.sol\":21025:21042  uint256 reserveIn */\n      0x00\n      swap1\n      dup2\n      swap1\n      sub(shl(0xa0, 0x01), 0x01)\n        /* \"contracts/ACPair.sol\":21066:21081  token == token0 */\n      dup8\n      dup2\n      and\n        /* \"contracts/ACPair.sol\":21075:21081  token0 */\n      swap2\n      and\n        /* \"contracts/ACPair.sol\":21066:21081  token == token0 */\n      eq\n        /* \"contracts/ACPair.sol\":21066:21125  token == token0 ? (reserve0,reserve1) : (reserve1,reserve0) */\n      tag_373\n      jumpi\n        /* \"contracts/ACPair.sol\":21107:21115  reserve1 */\n      sload(0x09)\n      sub(shl(0x70, 0x01), 0x01)\n      shl(0x70, 0x01)\n      dup3\n      div\n      dup2\n      and\n      swap2\n        /* \"contracts/ACPair.sol\":21116:21124  reserve0 */\n      and\n        /* \"contracts/ACPair.sol\":21066:21125  token == token0 ? (reserve0,reserve1) : (reserve1,reserve0) */\n      jump(tag_374)\n    tag_373:\n        /* \"contracts/ACPair.sol\":21085:21093  reserve0 */\n      sload(0x09)\n      sub(shl(0x70, 0x01), 0x01)\n      dup1\n      dup3\n      and\n      swap2\n      shl(0x70, 0x01)\n        /* \"contracts/ACPair.sol\":21094:21102  reserve1 */\n      swap1\n      div\n      and\n        /* \"contracts/ACPair.sol\":21066:21125  token == token0 ? (reserve0,reserve1) : (reserve1,reserve0) */\n    tag_374:\n      sub(shl(0x70, 0x01), 0x01)\n        /* \"contracts/ACPair.sol\":21024:21125  (uint256 reserveIn, uint256 reserveOut) = token == token0 ? (reserve0,reserve1) : (reserve1,reserve0) */\n      and\n      swap2\n      pop\n      sub(shl(0x70, 0x01), 0x01)\n      and\n      swap2\n      pop\n        /* \"contracts/ACPair.sol\":21150:21195  getAmountOut(amountIn, reserveIn, reserveOut) */\n      tag_375\n        /* \"contracts/ACPair.sol\":21163:21171  amountIn */\n      dup5\n        /* \"contracts/ACPair.sol\":21173:21182  reserveIn */\n      dup4\n        /* \"contracts/ACPair.sol\":21184:21194  reserveOut */\n      dup4\n        /* \"contracts/ACPair.sol\":21150:21162  getAmountOut */\n      tag_41\n        /* \"contracts/ACPair.sol\":21150:21195  getAmountOut(amountIn, reserveIn, reserveOut) */\n      jump\t// in\n    tag_375:\n        /* \"contracts/ACPair.sol\":21260:21266  token0 */\n      sload(0x07)\n        /* \"contracts/ACPair.sol\":21138:21195  amountOut = getAmountOut(amountIn, reserveIn, reserveOut) */\n      swap1\n      swap4\n      pop\n        /* \"contracts/ACPair.sol\":21209:21227  uint256 amount0Out */\n      0x00\n      swap1\n      dup2\n      swap1\n      sub(shl(0xa0, 0x01), 0x01)\n        /* \"contracts/ACPair.sol\":21251:21266  token == token0 */\n      dup10\n      dup2\n      and\n        /* \"contracts/ACPair.sol\":21260:21266  token0 */\n      swap2\n      and\n        /* \"contracts/ACPair.sol\":21251:21266  token == token0 */\n      eq\n        /* \"contracts/ACPair.sol\":21251:21307  token == token0 ? (uint256(0),amountOut) : (amountOut,0) */\n      tag_376\n      jumpi\n        /* \"contracts/ACPair.sol\":21295:21304  amountOut */\n      dup5\n        /* \"contracts/ACPair.sol\":21305:21306  0 */\n      0x00\n        /* \"contracts/ACPair.sol\":21251:21307  token == token0 ? (uint256(0),amountOut) : (amountOut,0) */\n      jump(tag_377)\n    tag_376:\n        /* \"contracts/ACPair.sol\":21278:21279  0 */\n      0x00\n        /* \"contracts/ACPair.sol\":21281:21290  amountOut */\n      dup6\n        /* \"contracts/ACPair.sol\":21251:21307  token == token0 ? (uint256(0),amountOut) : (amountOut,0) */\n    tag_377:\n        /* \"contracts/ACPair.sol\":21208:21307  (uint256 amount0Out, uint256 amount1Out) = token == token0 ? (uint256(0),amountOut) : (amountOut,0) */\n      swap2\n      pop\n      swap2\n      pop\n        /* \"contracts/ACPair.sol\":21318:21348  swap(amount0Out,amount1Out,to) */\n      tag_378\n        /* \"contracts/ACPair.sol\":21323:21333  amount0Out */\n      dup3\n        /* \"contracts/ACPair.sol\":21334:21344  amount1Out */\n      dup3\n        /* \"contracts/ACPair.sol\":21345:21347  to */\n      dup10\n        /* \"contracts/ACPair.sol\":21318:21322  swap */\n      tag_104\n        /* \"contracts/ACPair.sol\":21318:21348  swap(amount0Out,amount1Out,to) */\n      jump\t// in\n    tag_378:\n        /* \"contracts/ACPair.sol\":20937:21356  {... */\n      pop\n      pop\n      pop\n      pop\n        /* \"contracts/ACPair.sol\":20825:21356  function simpleSwap(address token,address to, uint256 amountIn) onlyOperator external returns(uint256 amountOut){... */\n      swap4\n      swap3\n      pop\n      pop\n      pop\n      jump\t// out\n        /* \"contracts/ACPair.sol\":3143:3282  function transfer(address to, uint value) external returns (bool) {... */\n    tag_135:\n        /* \"contracts/ACPair.sol\":3203:3207  bool */\n      0x00\n        /* \"contracts/ACPair.sol\":3220:3252  _transfer(msg.sender, to, value) */\n      tag_190\n        /* \"contracts/ACPair.sol\":3230:3240  msg.sender */\n      caller\n        /* \"contracts/ACPair.sol\":3242:3244  to */\n      dup5\n        /* \"contracts/ACPair.sol\":3246:3251  value */\n      dup5\n        /* \"contracts/ACPair.sol\":3220:3229  _transfer */\n      tag_201\n        /* \"contracts/ACPair.sol\":3220:3252  _transfer(msg.sender, to, value) */\n      jump\t// in\n        /* \"contracts/ACPair.sol\":20265:20606  function skim(address to) external onlyOperator lock {... */\n    tag_142:\n        /* \"contracts/ACPair.sol\":13065:13072  owner() */\n      tag_382\n        /* \"contracts/ACPair.sol\":13065:13070  owner */\n      tag_124\n        /* \"contracts/ACPair.sol\":13065:13072  owner() */\n      jump\t// in\n    tag_382:\n      sub(shl(0xa0, 0x01), 0x01)\n        /* \"contracts/ACPair.sol\":13051:13072  msg.sender == owner() */\n      and\n        /* \"contracts/ACPair.sol\":13051:13061  msg.sender */\n      caller\n      sub(shl(0xa0, 0x01), 0x01)\n        /* \"contracts/ACPair.sol\":13051:13072  msg.sender == owner() */\n      and\n      eq\n        /* \"contracts/ACPair.sol\":13051:13097  msg.sender == owner() || msg.sender == factory */\n      dup1\n      tag_383\n      jumpi\n      pop\n        /* \"contracts/ACPair.sol\":13090:13097  factory */\n      and(sub(shl(0xa0, 0x01), 0x01), sload(0x06))\n        /* \"contracts/ACPair.sol\":13076:13086  msg.sender */\n      caller\n        /* \"contracts/ACPair.sol\":13076:13097  msg.sender == factory */\n      eq\n        /* \"contracts/ACPair.sol\":13051:13097  msg.sender == owner() || msg.sender == factory */\n    tag_383:\n        /* \"contracts/ACPair.sol\":13043:13117  require(msg.sender == owner() || msg.sender == factory,\"Require operator\") */\n      tag_384\n      jumpi\n      mload(0x40)\n      shl(0xe5, 0x461bcd)\n      dup2\n      mstore\n      0x04\n      add\n      tag_167\n      swap1\n      tag_186\n      jump\t// in\n    tag_384:\n        /* \"contracts/ACPair.sol\":12902:12910  unlocked */\n      sload(0x0d)\n        /* \"contracts/ACPair.sol\":12914:12915  1 */\n      0x01\n        /* \"contracts/ACPair.sol\":12902:12915  unlocked == 1 */\n      eq\n        /* \"contracts/ACPair.sol\":12894:12935  require(unlocked == 1, 'Pancake: LOCKED') */\n      tag_387\n      jumpi\n      mload(0x40)\n      shl(0xe5, 0x461bcd)\n      dup2\n      mstore\n      0x04\n      add\n      tag_167\n      swap1\n      tag_211\n      jump\t// in\n    tag_387:\n        /* \"contracts/ACPair.sol\":12957:12958  0 */\n      0x00\n        /* \"contracts/ACPair.sol\":12946:12954  unlocked */\n      0x0d\n        /* \"contracts/ACPair.sol\":12946:12958  unlocked = 0 */\n      sstore\n        /* \"contracts/ACPair.sol\":20347:20353  token0 */\n      sload(0x07)\n        /* \"contracts/ACPair.sol\":20397:20403  token1 */\n      sload(0x08)\n        /* \"contracts/ACPair.sol\":20499:20507  reserve0 */\n      sload(0x09)\n        /* \"contracts/ACPair.sol\":20456:20496  IERC20(_token0).balanceOf(address(this)) */\n      mload(0x40)\n      shl(0xe0, 0x70a08231)\n      dup2\n      mstore\n      sub(shl(0xa0, 0x01), 0x01)\n        /* \"contracts/ACPair.sol\":20347:20353  token0 */\n      swap4\n      dup5\n      and\n      swap4\n        /* \"contracts/ACPair.sol\":20397:20403  token1 */\n      swap1\n      swap3\n      and\n      swap2\n        /* \"contracts/ACPair.sol\":20429:20508  _safeTransfer(_token0, to, IERC20(_token0).balanceOf(address(this)) - reserve0) */\n      tag_390\n      swap2\n        /* \"contracts/ACPair.sol\":20347:20353  token0 */\n      dup5\n      swap2\n        /* \"contracts/ACPair.sol\":20452:20454  to */\n      dup7\n      swap2\n      sub(shl(0x70, 0x01), 0x01)\n        /* \"contracts/ACPair.sol\":20499:20507  reserve0 */\n      and\n      swap1\n        /* \"contracts/ACPair.sol\":20347:20353  token0 */\n      dup4\n      swap1\n        /* \"contracts/ACPair.sol\":20456:20481  IERC20(_token0).balanceOf */\n      0x70a08231\n      swap1\n        /* \"contracts/ACPair.sol\":20456:20496  IERC20(_token0).balanceOf(address(this)) */\n      tag_391\n      swap1\n        /* \"contracts/ACPair.sol\":20490:20494  this */\n      address\n      swap1\n        /* \"contracts/ACPair.sol\":20456:20496  IERC20(_token0).balanceOf(address(this)) */\n      0x04\n      add\n      tag_63\n      jump\t// in\n    tag_391:\n      0x20\n      mload(0x40)\n      dup1\n      dup4\n      sub\n      dup2\n      dup7\n      gas\n      staticcall\n      iszero\n      dup1\n      iszero\n      tag_393\n      jumpi\n      returndatasize\n      0x00\n      dup1\n      returndatacopy\n      revert(0x00, returndatasize)\n    tag_393:\n      pop\n      pop\n      pop\n      pop\n      mload(0x40)\n      returndatasize\n      not(0x1f)\n      0x1f\n      dup3\n      add\n      and\n      dup3\n      add\n      dup1\n      0x40\n      mstore\n      pop\n      dup2\n      add\n      swap1\n      tag_394\n      swap2\n      swap1\n      tag_223\n      jump\t// in\n    tag_394:\n        /* \"contracts/ACPair.sol\":20456:20507  IERC20(_token0).balanceOf(address(this)) - reserve0 */\n      tag_395\n      swap2\n      swap1\n      tag_199\n      jump\t// in\n    tag_395:\n        /* \"contracts/ACPair.sol\":20429:20442  _safeTransfer */\n      tag_275\n        /* \"contracts/ACPair.sol\":20429:20508  _safeTransfer(_token0, to, IERC20(_token0).balanceOf(address(this)) - reserve0) */\n      jump\t// in\n    tag_390:\n        /* \"contracts/ACPair.sol\":20589:20597  reserve1 */\n      sload(0x09)\n        /* \"contracts/ACPair.sol\":20546:20586  IERC20(_token1).balanceOf(address(this)) */\n      mload(0x40)\n      shl(0xe0, 0x70a08231)\n      dup2\n      mstore\n        /* \"contracts/ACPair.sol\":20519:20598  _safeTransfer(_token1, to, IERC20(_token1).balanceOf(address(this)) - reserve1) */\n      tag_396\n      swap2\n        /* \"contracts/ACPair.sol\":20533:20540  _token1 */\n      dup4\n      swap2\n        /* \"contracts/ACPair.sol\":20542:20544  to */\n      dup7\n      swap2\n      shl(0x70, 0x01)\n        /* \"contracts/ACPair.sol\":20589:20597  reserve1 */\n      swap1\n      div\n      sub(shl(0x70, 0x01), 0x01)\n      and\n      swap1\n      sub(shl(0xa0, 0x01), 0x01)\n        /* \"contracts/ACPair.sol\":20546:20571  IERC20(_token1).balanceOf */\n      dup5\n      and\n      swap1\n      0x70a08231\n      swap1\n        /* \"contracts/ACPair.sol\":20546:20586  IERC20(_token1).balanceOf(address(this)) */\n      tag_391\n      swap1\n        /* \"contracts/ACPair.sol\":20580:20584  this */\n      address\n      swap1\n        /* \"contracts/ACPair.sol\":20546:20586  IERC20(_token1).balanceOf(address(this)) */\n      0x04\n      add\n      tag_63\n      jump\t// in\n        /* \"contracts/ACPair.sol\":20519:20598  _safeTransfer(_token1, to, IERC20(_token1).balanceOf(address(this)) - reserve1) */\n    tag_396:\n      pop\n      pop\n        /* \"contracts/ACPair.sol\":12992:12993  1 */\n      0x01\n        /* \"contracts/ACPair.sol\":12981:12989  unlocked */\n      0x0d\n        /* \"contracts/ACPair.sol\":12981:12993  unlocked = 1 */\n      sstore\n      pop\n        /* \"contracts/ACPair.sol\":20265:20606  function skim(address to) external onlyOperator lock {... */\n      jump\t// out\n        /* \"contracts/ACPair.sol\":3576:4246  function permit(address owner, address spender, uint value, uint deadline, uint8 v, bytes32 r, bytes32 s) external {... */\n    tag_152:\n        /* \"contracts/ACPair.sol\":3722:3737  block.timestamp */\n      timestamp\n        /* \"contracts/ACPair.sol\":3710:3718  deadline */\n      dup5\n        /* \"contracts/ACPair.sol\":3710:3737  deadline >= block.timestamp */\n      lt\n      iszero\n        /* \"contracts/ACPair.sol\":3702:3758  require(deadline >= block.timestamp, 'Pancake: EXPIRED') */\n      tag_403\n      jumpi\n      mload(0x40)\n      shl(0xe5, 0x461bcd)\n      dup2\n      mstore\n        /* \"#utility.yul\":11638:11640   */\n      0x20\n        /* \"contracts/ACPair.sol\":3702:3758  require(deadline >= block.timestamp, 'Pancake: EXPIRED') */\n      0x04\n      dup3\n      add\n        /* \"#utility.yul\":11620:11641   */\n      mstore\n        /* \"#utility.yul\":11677:11679   */\n      0x10\n        /* \"#utility.yul\":11657:11675   */\n      0x24\n      dup3\n      add\n        /* \"#utility.yul\":11650:11680   */\n      mstore\n      shl(0x82, 0x14185b98d85ad94e8811561412549151)\n        /* \"#utility.yul\":11696:11714   */\n      0x44\n      dup3\n      add\n        /* \"#utility.yul\":11689:11735   */\n      mstore\n        /* \"#utility.yul\":11752:11770   */\n      0x64\n      add\n        /* \"contracts/ACPair.sol\":3702:3758  require(deadline >= block.timestamp, 'Pancake: EXPIRED') */\n      tag_167\n        /* \"#utility.yul\":11436:11776   */\n      jump\n        /* \"contracts/ACPair.sol\":3702:3758  require(deadline >= block.timestamp, 'Pancake: EXPIRED') */\n    tag_403:\n        /* \"contracts/ACPair.sol\":3874:3890  DOMAIN_SEPARATOR */\n      sload(0x03)\n      sub(shl(0xa0, 0x01), 0x01)\n        /* \"contracts/ACPair.sol\":3970:3983  nonces[owner] */\n      dup9\n      and\n        /* \"contracts/ACPair.sol\":3769:3783  bytes32 digest */\n      0x00\n        /* \"contracts/ACPair.sol\":3970:3983  nonces[owner] */\n      swap1\n      dup2\n      mstore\n        /* \"contracts/ACPair.sol\":3970:3976  nonces */\n      0x04\n        /* \"contracts/ACPair.sol\":3970:3983  nonces[owner] */\n      0x20\n      mstore\n      0x40\n      dup2\n      keccak256\n        /* \"contracts/ACPair.sol\":3970:3985  nonces[owner]++ */\n      dup1\n      sload\n        /* \"contracts/ACPair.sol\":3769:3783  bytes32 digest */\n      swap2\n      swap3\n        /* \"contracts/ACPair.sol\":3874:3890  DOMAIN_SEPARATOR */\n      swap2\n      0x00\n      dup1\n      mload\n      0x20\n      data_b4fed60c705733c5d216919d6d57abcd8c83f719cc1324758064e128f361d7e4\n      dup4\n      codecopy\n      dup2\n      mload\n      swap2\n      mstore\n        /* \"contracts/ACPair.sol\":1752:1818  0x6e71edae12b1b97f4d1f60370fef10105fa2faae0126114a169c64845d6126c9 */\n      swap2\n        /* \"contracts/ACPair.sol\":3947:3952  owner */\n      dup12\n      swap2\n        /* \"contracts/ACPair.sol\":3954:3961  spender */\n      dup12\n      swap2\n        /* \"contracts/ACPair.sol\":3963:3968  value */\n      dup12\n      swap2\n        /* \"contracts/ACPair.sol\":3970:3985  nonces[owner]++ */\n      swap1\n        /* \"contracts/ACPair.sol\":3769:3783  bytes32 digest */\n      dup8\n        /* \"contracts/ACPair.sol\":3970:3985  nonces[owner]++ */\n      tag_406\n      dup4\n      tag_407\n      jump\t// in\n    tag_406:\n      swap1\n      swap2\n      sstore\n      pop\n        /* \"contracts/ACPair.sol\":3919:3996  abi.encode(PERMIT_TYPEHASH, owner, spender, value, nonces[owner]++, deadline) */\n      0x40\n      dup1\n      mload\n      0x20\n      dup2\n      add\n        /* \"#utility.yul\":12208:12233   */\n      swap7\n      swap1\n      swap7\n      mstore\n      sub(shl(0xa0, 0x01), 0x01)\n        /* \"#utility.yul\":12307:12322   */\n      swap5\n      dup6\n      and\n        /* \"#utility.yul\":12287:12305   */\n      swap1\n      dup7\n      add\n        /* \"#utility.yul\":12280:12323   */\n      mstore\n        /* \"#utility.yul\":12359:12374   */\n      swap3\n      swap1\n      swap2\n      and\n        /* \"#utility.yul\":12339:12357   */\n      0x60\n      dup5\n      add\n        /* \"#utility.yul\":12332:12375   */\n      mstore\n        /* \"#utility.yul\":12391:12409   */\n      0x80\n      dup4\n      add\n        /* \"#utility.yul\":12384:12418   */\n      mstore\n        /* \"#utility.yul\":12434:12453   */\n      0xa0\n      dup3\n      add\n        /* \"#utility.yul\":12427:12462   */\n      mstore\n        /* \"#utility.yul\":12478:12497   */\n      0xc0\n      dup2\n      add\n        /* \"#utility.yul\":12471:12506   */\n      dup8\n      swap1\n      mstore\n        /* \"#utility.yul\":12180:12199   */\n      0xe0\n      add\n        /* \"contracts/ACPair.sol\":3919:3996  abi.encode(PERMIT_TYPEHASH, owner, spender, value, nonces[owner]++, deadline) */\n      mload(0x40)\n      0x20\n      dup2\n      dup4\n      sub\n      sub\n      dup2\n      mstore\n      swap1\n      0x40\n      mstore\n        /* \"contracts/ACPair.sol\":3909:3997  keccak256(abi.encode(PERMIT_TYPEHASH, owner, spender, value, nonces[owner]++, deadline)) */\n      dup1\n      mload\n      swap1\n      0x20\n      add\n      keccak256\n        /* \"contracts/ACPair.sol\":3810:4012  abi.encodePacked(... */\n      add(0x20, mload(0x40))\n      tag_410\n      swap3\n      swap2\n      swap1\n      shl(0xf0, 0x1901)\n        /* \"#utility.yul\":12775:12802   */\n      dup2\n      mstore\n        /* \"#utility.yul\":12827:12828   */\n      0x02\n        /* \"#utility.yul\":12818:12829   */\n      dup2\n      add\n        /* \"#utility.yul\":12811:12838   */\n      swap3\n      swap1\n      swap3\n      mstore\n        /* \"#utility.yul\":12863:12865   */\n      0x22\n        /* \"#utility.yul\":12854:12866   */\n      dup3\n      add\n        /* \"#utility.yul\":12847:12875   */\n      mstore\n        /* \"#utility.yul\":12900:12902   */\n      0x42\n        /* \"#utility.yul\":12891:12903   */\n      add\n      swap1\n        /* \"#utility.yul\":12517:12909   */\n      jump\n        /* \"contracts/ACPair.sol\":3810:4012  abi.encodePacked(... */\n    tag_410:\n      0x40\n      dup1\n      mload\n      not(0x1f)\n      dup2\n      dup5\n      sub\n      add\n      dup2\n      mstore\n      dup3\n      dup3\n      mstore\n        /* \"contracts/ACPair.sol\":3786:4023  keccak256(... */\n      dup1\n      mload\n        /* \"contracts/ACPair.sol\":3810:4012  abi.encodePacked(... */\n      0x20\n        /* \"contracts/ACPair.sol\":3786:4023  keccak256(... */\n      swap2\n      dup3\n      add\n      keccak256\n        /* \"contracts/ACPair.sol\":4034:4058  address recoveredAddress */\n      0x00\n        /* \"contracts/ACPair.sol\":4061:4087  ecrecover(digest, v, r, s) */\n      dup1\n      dup6\n      mstore\n      swap2\n      dup5\n      add\n      dup1\n      dup5\n      mstore\n        /* \"#utility.yul\":13141:13166   */\n      dup2\n      swap1\n      mstore\n        /* \"#utility.yul\":13214:13218   */\n      0xff\n        /* \"#utility.yul\":13202:13219   */\n      dup9\n      and\n        /* \"#utility.yul\":13182:13200   */\n      swap3\n      dup5\n      add\n        /* \"#utility.yul\":13175:13220   */\n      swap3\n      swap1\n      swap3\n      mstore\n        /* \"#utility.yul\":13236:13254   */\n      0x60\n      dup4\n      add\n        /* \"#utility.yul\":13229:13263   */\n      dup7\n      swap1\n      mstore\n        /* \"#utility.yul\":13279:13297   */\n      0x80\n      dup4\n      add\n        /* \"#utility.yul\":13272:13306   */\n      dup6\n      swap1\n      mstore\n        /* \"contracts/ACPair.sol\":3786:4023  keccak256(... */\n      swap1\n      swap3\n      pop\n        /* \"contracts/ACPair.sol\":4034:4058  address recoveredAddress */\n      swap1\n        /* \"contracts/ACPair.sol\":4061:4087  ecrecover(digest, v, r, s) */\n      0x01\n      swap1\n        /* \"#utility.yul\":13113:13132   */\n      0xa0\n      add\n        /* \"contracts/ACPair.sol\":4061:4087  ecrecover(digest, v, r, s) */\n      0x20\n      mload(0x40)\n      0x20\n      dup2\n      sub\n      swap1\n      dup1\n      dup5\n      sub\n      swap1\n      dup6\n      gas\n      staticcall\n      iszero\n      dup1\n      iszero\n      tag_415\n      jumpi\n      returndatasize\n      0x00\n      dup1\n      returndatacopy\n      revert(0x00, returndatasize)\n    tag_415:\n      pop\n      pop\n      mload(add(not(0x1f), mload(0x40)))\n      swap2\n      pop\n      pop\n      sub(shl(0xa0, 0x01), 0x01)\n        /* \"contracts/ACPair.sol\":4106:4136  recoveredAddress != address(0) */\n      dup2\n      and\n      iszero\n      dup1\n      iszero\n      swap1\n        /* \"contracts/ACPair.sol\":4106:4165  recoveredAddress != address(0) && recoveredAddress == owner */\n      tag_416\n      jumpi\n      pop\n        /* \"contracts/ACPair.sol\":4160:4165  owner */\n      dup9\n      sub(shl(0xa0, 0x01), 0x01)\n        /* \"contracts/ACPair.sol\":4140:4165  recoveredAddress == owner */\n      and\n        /* \"contracts/ACPair.sol\":4140:4156  recoveredAddress */\n      dup2\n      sub(shl(0xa0, 0x01), 0x01)\n        /* \"contracts/ACPair.sol\":4140:4165  recoveredAddress == owner */\n      and\n      eq\n        /* \"contracts/ACPair.sol\":4106:4165  recoveredAddress != address(0) && recoveredAddress == owner */\n    tag_416:\n        /* \"contracts/ACPair.sol\":4098:4196  require(recoveredAddress != address(0) && recoveredAddress == owner, 'Pancake: INVALID_SIGNATURE') */\n      tag_417\n      jumpi\n      mload(0x40)\n      shl(0xe5, 0x461bcd)\n      dup2\n      mstore\n        /* \"#utility.yul\":13519:13521   */\n      0x20\n        /* \"contracts/ACPair.sol\":4098:4196  require(recoveredAddress != address(0) && recoveredAddress == owner, 'Pancake: INVALID_SIGNATURE') */\n      0x04\n      dup3\n      add\n        /* \"#utility.yul\":13501:13522   */\n      mstore\n        /* \"#utility.yul\":13558:13560   */\n      0x1a\n        /* \"#utility.yul\":13538:13556   */\n      0x24\n      dup3\n      add\n        /* \"#utility.yul\":13531:13561   */\n      mstore\n      shl(0x30, 0x50616e63616b653a20494e56414c49445f5349474e4154555245)\n        /* \"#utility.yul\":13577:13595   */\n      0x44\n      dup3\n      add\n        /* \"#utility.yul\":13570:13626   */\n      mstore\n        /* \"#utility.yul\":13643:13661   */\n      0x64\n      add\n        /* \"contracts/ACPair.sol\":4098:4196  require(recoveredAddress != address(0) && recoveredAddress == owner, 'Pancake: INVALID_SIGNATURE') */\n      tag_167\n        /* \"#utility.yul\":13317:13667   */\n      jump\n        /* \"contracts/ACPair.sol\":4098:4196  require(recoveredAddress != address(0) && recoveredAddress == owner, 'Pancake: INVALID_SIGNATURE') */\n    tag_417:\n        /* \"contracts/ACPair.sol\":4207:4238  _approve(owner, spender, value) */\n      tag_420\n        /* \"contracts/ACPair.sol\":4216:4221  owner */\n      dup10\n        /* \"contracts/ACPair.sol\":4223:4230  spender */\n      dup10\n        /* \"contracts/ACPair.sol\":4232:4237  value */\n      dup10\n        /* \"contracts/ACPair.sol\":4207:4215  _approve */\n      tag_191\n        /* \"contracts/ACPair.sol\":4207:4238  _approve(owner, spender, value) */\n      jump\t// in\n    tag_420:\n        /* \"contracts/ACPair.sol\":3691:4246  {... */\n      pop\n      pop\n        /* \"contracts/ACPair.sol\":3576:4246  function permit(address owner, address spender, uint value, uint deadline, uint8 v, bytes32 r, bytes32 s) external {... */\n      pop\n      pop\n      pop\n      pop\n      pop\n      pop\n      pop\n      jump\t// out\n        /* \"contracts/ACPair.sol\":17907:18354  function remove(uint256 amount0,uint256 amount1,address to) external lock onlyOperator {... */\n    tag_159:\n        /* \"contracts/ACPair.sol\":12902:12910  unlocked */\n      sload(0x0d)\n        /* \"contracts/ACPair.sol\":12914:12915  1 */\n      0x01\n        /* \"contracts/ACPair.sol\":12902:12915  unlocked == 1 */\n      eq\n        /* \"contracts/ACPair.sol\":12894:12935  require(unlocked == 1, 'Pancake: LOCKED') */\n      tag_422\n      jumpi\n      mload(0x40)\n      shl(0xe5, 0x461bcd)\n      dup2\n      mstore\n      0x04\n      add\n      tag_167\n      swap1\n      tag_211\n      jump\t// in\n    tag_422:\n        /* \"contracts/ACPair.sol\":12957:12958  0 */\n      0x00\n        /* \"contracts/ACPair.sol\":12946:12954  unlocked */\n      0x0d\n        /* \"contracts/ACPair.sol\":12946:12958  unlocked = 0 */\n      sstore\n        /* \"contracts/ACPair.sol\":13065:13072  owner() */\n      tag_425\n        /* \"contracts/ACPair.sol\":13065:13070  owner */\n      tag_124\n        /* \"contracts/ACPair.sol\":13065:13072  owner() */\n      jump\t// in\n    tag_425:\n      sub(shl(0xa0, 0x01), 0x01)\n        /* \"contracts/ACPair.sol\":13051:13072  msg.sender == owner() */\n      and\n        /* \"contracts/ACPair.sol\":13051:13061  msg.sender */\n      caller\n      sub(shl(0xa0, 0x01), 0x01)\n        /* \"contracts/ACPair.sol\":13051:13072  msg.sender == owner() */\n      and\n      eq\n        /* \"contracts/ACPair.sol\":13051:13097  msg.sender == owner() || msg.sender == factory */\n      dup1\n      tag_426\n      jumpi\n      pop\n        /* \"contracts/ACPair.sol\":13090:13097  factory */\n      and(sub(shl(0xa0, 0x01), 0x01), sload(0x06))\n        /* \"contracts/ACPair.sol\":13076:13086  msg.sender */\n      caller\n        /* \"contracts/ACPair.sol\":13076:13097  msg.sender == factory */\n      eq\n        /* \"contracts/ACPair.sol\":13051:13097  msg.sender == owner() || msg.sender == factory */\n    tag_426:\n        /* \"contracts/ACPair.sol\":13043:13117  require(msg.sender == owner() || msg.sender == factory,\"Require operator\") */\n      tag_427\n      jumpi\n      mload(0x40)\n      shl(0xe5, 0x461bcd)\n      dup2\n      mstore\n      0x04\n      add\n      tag_167\n      swap1\n      tag_186\n      jump\t// in\n    tag_427:\n        /* \"contracts/ACPair.sol\":18009:18020  amount0 > 0 */\n      dup3\n      iszero\n        /* \"contracts/ACPair.sol\":18005:18084  if (amount0 > 0 ) {... */\n      tag_431\n      jumpi\n        /* \"contracts/ACPair.sol\":18052:18058  token0 */\n      sload(0x07)\n        /* \"contracts/ACPair.sol\":18038:18072  _safeTransfer(token0, to, amount0) */\n      tag_431\n      swap1\n      sub(shl(0xa0, 0x01), 0x01)\n        /* \"contracts/ACPair.sol\":18052:18058  token0 */\n      and\n        /* \"contracts/ACPair.sol\":18060:18062  to */\n      dup3\n        /* \"contracts/ACPair.sol\":18064:18071  amount0 */\n      dup6\n        /* \"contracts/ACPair.sol\":18038:18051  _safeTransfer */\n      tag_275\n        /* \"contracts/ACPair.sol\":18038:18072  _safeTransfer(token0, to, amount0) */\n      jump\t// in\n    tag_431:\n        /* \"contracts/ACPair.sol\":18098:18109  amount1 > 0 */\n      dup2\n      iszero\n        /* \"contracts/ACPair.sol\":18094:18173  if (amount1 > 0 ) {... */\n      tag_433\n      jumpi\n        /* \"contracts/ACPair.sol\":18141:18147  token1 */\n      sload(0x08)\n        /* \"contracts/ACPair.sol\":18127:18161  _safeTransfer(token1, to, amount1) */\n      tag_433\n      swap1\n      sub(shl(0xa0, 0x01), 0x01)\n        /* \"contracts/ACPair.sol\":18141:18147  token1 */\n      and\n        /* \"contracts/ACPair.sol\":18149:18151  to */\n      dup3\n        /* \"contracts/ACPair.sol\":18153:18160  amount1 */\n      dup5\n        /* \"contracts/ACPair.sol\":18127:18140  _safeTransfer */\n      tag_275\n        /* \"contracts/ACPair.sol\":18127:18161  _safeTransfer(token1, to, amount1) */\n      jump\t// in\n    tag_433:\n        /* \"contracts/ACPair.sol\":18198:18204  token0 */\n      sload(0x07)\n        /* \"contracts/ACPair.sol\":18191:18230  IERC20(token0).balanceOf(address(this)) */\n      mload(0x40)\n      shl(0xe0, 0x70a08231)\n      dup2\n      mstore\n        /* \"contracts/ACPair.sol\":18183:18292  _update(IERC20(token0).balanceOf(address(this)), IERC20(token1).balanceOf(address(this)), reserve0, reserve1) */\n      tag_434\n      swap2\n      sub(shl(0xa0, 0x01), 0x01)\n        /* \"contracts/ACPair.sol\":18198:18204  token0 */\n      and\n      swap1\n        /* \"contracts/ACPair.sol\":18191:18215  IERC20(token0).balanceOf */\n      0x70a08231\n      swap1\n        /* \"contracts/ACPair.sol\":18191:18230  IERC20(token0).balanceOf(address(this)) */\n      tag_435\n      swap1\n        /* \"contracts/ACPair.sol\":18224:18228  this */\n      address\n      swap1\n        /* \"contracts/ACPair.sol\":18191:18230  IERC20(token0).balanceOf(address(this)) */\n      0x04\n      add\n      tag_63\n      jump\t// in\n    tag_435:\n      0x20\n      mload(0x40)\n      dup1\n      dup4\n      sub\n      dup2\n      dup7\n      gas\n      staticcall\n      iszero\n      dup1\n      iszero\n      tag_437\n      jumpi\n      returndatasize\n      0x00\n      dup1\n      returndatacopy\n      revert(0x00, returndatasize)\n    tag_437:\n      pop\n      pop\n      pop\n      pop\n      mload(0x40)\n      returndatasize\n      not(0x1f)\n      0x1f\n      dup3\n      add\n      and\n      dup3\n      add\n      dup1\n      0x40\n      mstore\n      pop\n      dup2\n      add\n      swap1\n      tag_438\n      swap2\n      swap1\n      tag_223\n      jump\t// in\n    tag_438:\n        /* \"contracts/ACPair.sol\":18239:18245  token1 */\n      sload(0x08)\n        /* \"contracts/ACPair.sol\":18232:18271  IERC20(token1).balanceOf(address(this)) */\n      mload(0x40)\n      shl(0xe0, 0x70a08231)\n      dup2\n      mstore\n      sub(shl(0xa0, 0x01), 0x01)\n        /* \"contracts/ACPair.sol\":18239:18245  token1 */\n      swap1\n      swap2\n      and\n      swap1\n        /* \"contracts/ACPair.sol\":18232:18256  IERC20(token1).balanceOf */\n      0x70a08231\n      swap1\n        /* \"contracts/ACPair.sol\":18232:18271  IERC20(token1).balanceOf(address(this)) */\n      tag_439\n      swap1\n        /* \"contracts/ACPair.sol\":18265:18269  this */\n      address\n      swap1\n        /* \"contracts/ACPair.sol\":18232:18271  IERC20(token1).balanceOf(address(this)) */\n      0x04\n      add\n      tag_63\n      jump\t// in\n    tag_439:\n      0x20\n      mload(0x40)\n      dup1\n      dup4\n      sub\n      dup2\n      dup7\n      gas\n      staticcall\n      iszero\n      dup1\n      iszero\n      tag_441\n      jumpi\n      returndatasize\n      0x00\n      dup1\n      returndatacopy\n      revert(0x00, returndatasize)\n    tag_441:\n      pop\n      pop\n      pop\n      pop\n      mload(0x40)\n      returndatasize\n      not(0x1f)\n      0x1f\n      dup3\n      add\n      and\n      dup3\n      add\n      dup1\n      0x40\n      mstore\n      pop\n      dup2\n      add\n      swap1\n      tag_442\n      swap2\n      swap1\n      tag_223\n      jump\t// in\n    tag_442:\n        /* \"contracts/ACPair.sol\":18273:18281  reserve0 */\n      sload(0x09)\n      sub(shl(0x70, 0x01), 0x01)\n      dup1\n      dup3\n      and\n      swap2\n      shl(0x70, 0x01)\n        /* \"contracts/ACPair.sol\":18283:18291  reserve1 */\n      swap1\n      div\n      and\n        /* \"contracts/ACPair.sol\":18183:18190  _update */\n      tag_249\n        /* \"contracts/ACPair.sol\":18183:18292  _update(IERC20(token0).balanceOf(address(this)), IERC20(token1).balanceOf(address(this)), reserve0, reserve1) */\n      jump\t// in\n    tag_434:\n        /* \"contracts/ACPair.sol\":18308:18346  Burn(msg.sender, amount0, amount1, to) */\n      0x40\n      dup1\n      mload\n        /* \"#utility.yul\":4066:4091   */\n      dup5\n      dup2\n      mstore\n        /* \"#utility.yul\":4122:4124   */\n      0x20\n        /* \"#utility.yul\":4107:4125   */\n      dup2\n      add\n        /* \"#utility.yul\":4100:4134   */\n      dup5\n      swap1\n      mstore\n      sub(shl(0xa0, 0x01), 0x01)\n        /* \"contracts/ACPair.sol\":18308:18346  Burn(msg.sender, amount0, amount1, to) */\n      dup4\n      and\n      swap2\n        /* \"contracts/ACPair.sol\":18313:18323  msg.sender */\n      caller\n      swap2\n      0x00\n      dup1\n      mload\n      0x20\n      data_a2c6638bd4e25e30f6e426bf2b943f7db693fc3820b21a30fe2c720fec0a3d65\n      dup4\n      codecopy\n      dup2\n      mload\n      swap2\n      mstore\n        /* \"contracts/ACPair.sol\":18308:18346  Burn(msg.sender, amount0, amount1, to) */\n      swap2\n        /* \"#utility.yul\":4039:4057   */\n      add\n        /* \"contracts/ACPair.sol\":18308:18346  Burn(msg.sender, amount0, amount1, to) */\n      mload(0x40)\n      dup1\n      swap2\n      sub\n      swap1\n      log3\n      pop\n      pop\n        /* \"contracts/ACPair.sol\":12992:12993  1 */\n      0x01\n        /* \"contracts/ACPair.sol\":12981:12989  unlocked */\n      0x0d\n        /* \"contracts/ACPair.sol\":12981:12993  unlocked = 1 */\n      sstore\n      pop\n        /* \"contracts/ACPair.sol\":17907:18354  function remove(uint256 amount0,uint256 amount1,address to) external lock onlyOperator {... */\n      jump\t// out\n        /* \"contracts/ACPair.sol\":8850:9051  function transferOwnership(address newOwner) public virtual onlyOwner {... */\n    tag_162:\n        /* \"contracts/ACPair.sol\":7837:7850  _checkOwner() */\n      tag_445\n        /* \"contracts/ACPair.sol\":7837:7848  _checkOwner */\n      tag_194\n        /* \"contracts/ACPair.sol\":7837:7850  _checkOwner() */\n      jump\t// in\n    tag_445:\n      sub(shl(0xa0, 0x01), 0x01)\n        /* \"contracts/ACPair.sol\":8939:8961  newOwner != address(0) */\n      dup2\n      and\n        /* \"contracts/ACPair.sol\":8931:9004  require(newOwner != address(0), \"Ownable: new owner is the zero address\") */\n      tag_447\n      jumpi\n      mload(0x40)\n      shl(0xe5, 0x461bcd)\n      dup2\n      mstore\n        /* \"#utility.yul\":13874:13876   */\n      0x20\n        /* \"contracts/ACPair.sol\":8931:9004  require(newOwner != address(0), \"Ownable: new owner is the zero address\") */\n      0x04\n      dup3\n      add\n        /* \"#utility.yul\":13856:13877   */\n      mstore\n        /* \"#utility.yul\":13913:13915   */\n      0x26\n        /* \"#utility.yul\":13893:13911   */\n      0x24\n      dup3\n      add\n        /* \"#utility.yul\":13886:13916   */\n      mstore\n        /* \"#utility.yul\":13952:13986   */\n      0x4f776e61626c653a206e6577206f776e657220697320746865207a65726f2061\n        /* \"#utility.yul\":13932:13950   */\n      0x44\n      dup3\n      add\n        /* \"#utility.yul\":13925:13987   */\n      mstore\n      shl(0xd0, 0x646472657373)\n        /* \"#utility.yul\":14003:14021   */\n      0x64\n      dup3\n      add\n        /* \"#utility.yul\":13996:14032   */\n      mstore\n        /* \"#utility.yul\":14049:14068   */\n      0x84\n      add\n        /* \"contracts/ACPair.sol\":8931:9004  require(newOwner != address(0), \"Ownable: new owner is the zero address\") */\n      tag_167\n        /* \"#utility.yul\":13672:14074   */\n      jump\n        /* \"contracts/ACPair.sol\":8931:9004  require(newOwner != address(0), \"Ownable: new owner is the zero address\") */\n    tag_447:\n        /* \"contracts/ACPair.sol\":9015:9043  _transferOwnership(newOwner) */\n      tag_450\n        /* \"contracts/ACPair.sol\":9034:9042  newOwner */\n      dup2\n        /* \"contracts/ACPair.sol\":9015:9033  _transferOwnership */\n      tag_319\n        /* \"contracts/ACPair.sol\":9015:9043  _transferOwnership(newOwner) */\n      jump\t// in\n    tag_450:\n        /* \"contracts/ACPair.sol\":8850:9051  function transferOwnership(address newOwner) public virtual onlyOwner {... */\n      pop\n      jump\t// out\n        /* \"contracts/ACPair.sol\":20657:20815  function sync() external lock {... */\n    tag_164:\n        /* \"contracts/ACPair.sol\":12902:12910  unlocked */\n      sload(0x0d)\n        /* \"contracts/ACPair.sol\":12914:12915  1 */\n      0x01\n        /* \"contracts/ACPair.sol\":12902:12915  unlocked == 1 */\n      eq\n        /* \"contracts/ACPair.sol\":12894:12935  require(unlocked == 1, 'Pancake: LOCKED') */\n      tag_452\n      jumpi\n      mload(0x40)\n      shl(0xe5, 0x461bcd)\n      dup2\n      mstore\n      0x04\n      add\n      tag_167\n      swap1\n      tag_211\n      jump\t// in\n    tag_452:\n        /* \"contracts/ACPair.sol\":12957:12958  0 */\n      0x00\n        /* \"contracts/ACPair.sol\":12946:12954  unlocked */\n      0x0d\n        /* \"contracts/ACPair.sol\":12946:12958  unlocked = 0 */\n      sstore\n        /* \"contracts/ACPair.sol\":20713:20719  token0 */\n      sload(0x07)\n        /* \"contracts/ACPair.sol\":20706:20745  IERC20(token0).balanceOf(address(this)) */\n      mload(0x40)\n      shl(0xe0, 0x70a08231)\n      dup2\n      mstore\n        /* \"contracts/ACPair.sol\":20698:20807  _update(IERC20(token0).balanceOf(address(this)), IERC20(token1).balanceOf(address(this)), reserve0, reserve1) */\n      tag_455\n      swap2\n      sub(shl(0xa0, 0x01), 0x01)\n        /* \"contracts/ACPair.sol\":20713:20719  token0 */\n      and\n      swap1\n        /* \"contracts/ACPair.sol\":20706:20730  IERC20(token0).balanceOf */\n      0x70a08231\n      swap1\n        /* \"contracts/ACPair.sol\":20706:20745  IERC20(token0).balanceOf(address(this)) */\n      tag_435\n      swap1\n        /* \"contracts/ACPair.sol\":20739:20743  this */\n      address\n      swap1\n        /* \"contracts/ACPair.sol\":20706:20745  IERC20(token0).balanceOf(address(this)) */\n      0x04\n      add\n      tag_63\n      jump\t// in\n        /* \"contracts/ACPair.sol\":20698:20807  _update(IERC20(token0).balanceOf(address(this)), IERC20(token1).balanceOf(address(this)), reserve0, reserve1) */\n    tag_455:\n        /* \"contracts/ACPair.sol\":12992:12993  1 */\n      0x01\n        /* \"contracts/ACPair.sol\":12981:12989  unlocked */\n      0x0d\n        /* \"contracts/ACPair.sol\":12981:12993  unlocked = 1 */\n      sstore\n        /* \"contracts/ACPair.sol\":20657:20815  function sync() external lock {... */\n      jump\t// out\n        /* \"contracts/ACPair.sol\":2621:2790  function _approve(address owner, address spender, uint value) private {... */\n    tag_191:\n      sub(shl(0xa0, 0x01), 0x01)\n        /* \"contracts/ACPair.sol\":2702:2718  allowance[owner] */\n      dup4\n      dup2\n      and\n      0x00\n      dup2\n      dup2\n      mstore\n        /* \"contracts/ACPair.sol\":2702:2711  allowance */\n      0x02\n        /* \"contracts/ACPair.sol\":2702:2718  allowance[owner] */\n      0x20\n      swap1\n      dup2\n      mstore\n      0x40\n      dup1\n      dup4\n      keccak256\n        /* \"contracts/ACPair.sol\":2702:2727  allowance[owner][spender] */\n      swap5\n      dup8\n      and\n      dup1\n      dup5\n      mstore\n      swap5\n      dup3\n      mstore\n      swap2\n      dup3\n      swap1\n      keccak256\n        /* \"contracts/ACPair.sol\":2702:2735  allowance[owner][spender] = value */\n      dup6\n      swap1\n      sstore\n        /* \"contracts/ACPair.sol\":2751:2782  Approval(owner, spender, value) */\n      swap1\n      mload\n        /* \"#utility.yul\":481:506   */\n      dup5\n      dup2\n      mstore\n        /* \"contracts/ACPair.sol\":2751:2782  Approval(owner, spender, value) */\n      0x8c5be1e5ebec7d5bd14f71427d1e84f3dd0314c0f7b2291e5b200ac8c7c3b925\n      swap2\n        /* \"#utility.yul\":454:472   */\n      add\n        /* \"contracts/ACPair.sol\":2751:2782  Approval(owner, spender, value) */\n    tag_465:\n      mload(0x40)\n      dup1\n      swap2\n      sub\n      swap1\n      log3\n        /* \"contracts/ACPair.sol\":2621:2790  function _approve(address owner, address spender, uint value) private {... */\n      pop\n      pop\n      pop\n      jump\t// out\n        /* \"contracts/ACPair.sol\":8116:8248  function _checkOwner() internal view virtual {... */\n    tag_194:\n        /* \"contracts/ACPair.sol\":7247:7257  msg.sender */\n      caller\n        /* \"contracts/ACPair.sol\":8180:8187  owner() */\n      tag_469\n        /* \"contracts/ACPair.sol\":8180:8185  owner */\n      tag_124\n        /* \"contracts/ACPair.sol\":8180:8187  owner() */\n      jump\t// in\n    tag_469:\n      sub(shl(0xa0, 0x01), 0x01)\n        /* \"contracts/ACPair.sol\":8180:8203  owner() == _msgSender() */\n      and\n      eq\n        /* \"contracts/ACPair.sol\":8172:8240  require(owner() == _msgSender(), \"Ownable: caller is not the owner\") */\n      tag_184\n      jumpi\n      mload(0x40)\n      shl(0xe5, 0x461bcd)\n      dup2\n      mstore\n        /* \"#utility.yul\":14281:14283   */\n      0x20\n        /* \"contracts/ACPair.sol\":8172:8240  require(owner() == _msgSender(), \"Ownable: caller is not the owner\") */\n      0x04\n      dup3\n      add\n        /* \"#utility.yul\":14263:14284   */\n      dup2\n      swap1\n      mstore\n        /* \"#utility.yul\":14300:14318   */\n      0x24\n      dup3\n      add\n        /* \"#utility.yul\":14293:14323   */\n      mstore\n        /* \"#utility.yul\":14359:14393   */\n      0x4f776e61626c653a2063616c6c6572206973206e6f7420746865206f776e6572\n        /* \"#utility.yul\":14339:14357   */\n      0x44\n      dup3\n      add\n        /* \"#utility.yul\":14332:14394   */\n      mstore\n        /* \"#utility.yul\":14411:14429   */\n      0x64\n      add\n        /* \"contracts/ACPair.sol\":8172:8240  require(owner() == _msgSender(), \"Ownable: caller is not the owner\") */\n      tag_167\n        /* \"#utility.yul\":14079:14435   */\n      jump\n        /* \"contracts/ACPair.sol\":2798:2980  function _transfer(address from, address to, uint value) private {... */\n    tag_201:\n      sub(shl(0xa0, 0x01), 0x01)\n        /* \"contracts/ACPair.sol\":2874:2889  balanceOf[from] */\n      dup4\n      and\n      0x00\n      swap1\n      dup2\n      mstore\n        /* \"contracts/ACPair.sol\":2874:2883  balanceOf */\n      0x01\n        /* \"contracts/ACPair.sol\":2874:2889  balanceOf[from] */\n      0x20\n      mstore\n      0x40\n      dup2\n      keccak256\n        /* \"contracts/ACPair.sol\":2874:2898  balanceOf[from] -= value */\n      dup1\n      sload\n        /* \"contracts/ACPair.sol\":2893:2898  value */\n      dup4\n      swap3\n        /* \"contracts/ACPair.sol\":2874:2889  balanceOf[from] */\n      swap1\n        /* \"contracts/ACPair.sol\":2874:2898  balanceOf[from] -= value */\n      tag_474\n      swap1\n        /* \"contracts/ACPair.sol\":2893:2898  value */\n      dup5\n      swap1\n        /* \"contracts/ACPair.sol\":2874:2898  balanceOf[from] -= value */\n      tag_199\n      jump\t// in\n    tag_474:\n      swap1\n      swap2\n      sstore\n      pop\n      pop\n      sub(shl(0xa0, 0x01), 0x01)\n        /* \"contracts/ACPair.sol\":2909:2922  balanceOf[to] */\n      dup3\n      and\n      0x00\n      swap1\n      dup2\n      mstore\n        /* \"contracts/ACPair.sol\":2909:2918  balanceOf */\n      0x01\n        /* \"contracts/ACPair.sol\":2909:2922  balanceOf[to] */\n      0x20\n      mstore\n      0x40\n      dup2\n      keccak256\n        /* \"contracts/ACPair.sol\":2909:2931  balanceOf[to] += value */\n      dup1\n      sload\n        /* \"contracts/ACPair.sol\":2926:2931  value */\n      dup4\n      swap3\n        /* \"contracts/ACPair.sol\":2909:2922  balanceOf[to] */\n      swap1\n        /* \"contracts/ACPair.sol\":2909:2931  balanceOf[to] += value */\n      tag_475\n      swap1\n        /* \"contracts/ACPair.sol\":2926:2931  value */\n      dup5\n      swap1\n        /* \"contracts/ACPair.sol\":2909:2931  balanceOf[to] += value */\n      tag_178\n      jump\t// in\n    tag_475:\n      swap3\n      pop\n      pop\n      dup2\n      swap1\n      sstore\n      pop\n        /* \"contracts/ACPair.sol\":2962:2964  to */\n      dup2\n      sub(shl(0xa0, 0x01), 0x01)\n        /* \"contracts/ACPair.sol\":2947:2972  Transfer(from, to, value) */\n      and\n        /* \"contracts/ACPair.sol\":2956:2960  from */\n      dup4\n      sub(shl(0xa0, 0x01), 0x01)\n        /* \"contracts/ACPair.sol\":2947:2972  Transfer(from, to, value) */\n      and\n      0x00\n      dup1\n      mload\n      0x20\n      data_ada389e1fc24a8587c776340efb91b36e675792ab631816100d55df0b5cf3cbc\n      dup4\n      codecopy\n      dup2\n      mload\n      swap2\n      mstore\n        /* \"contracts/ACPair.sol\":2966:2971  value */\n      dup4\n        /* \"contracts/ACPair.sol\":2947:2972  Transfer(from, to, value) */\n      mload(0x40)\n      tag_465\n      swap2\n        /* \"#utility.yul\":481:506   */\n      dup2\n      mstore\n        /* \"#utility.yul\":469:471   */\n      0x20\n        /* \"#utility.yul\":454:472   */\n      add\n      swap1\n        /* \"#utility.yul\":335:512   */\n      jump\n        /* \"contracts/ACPair.sol\":6230:6533  function sqrt(uint y) internal pure returns (uint z) {... */\n    tag_233:\n        /* \"contracts/ACPair.sol\":6275:6281  uint z */\n      0x00\n        /* \"contracts/ACPair.sol\":6302:6303  3 */\n      0x03\n        /* \"contracts/ACPair.sol\":6298:6299  y */\n      dup3\n        /* \"contracts/ACPair.sol\":6298:6303  y > 3 */\n      gt\n        /* \"contracts/ACPair.sol\":6294:6526  if (y > 3) {... */\n      iszero\n      tag_478\n      jumpi\n      pop\n        /* \"contracts/ACPair.sol\":6324:6325  y */\n      dup1\n        /* \"contracts/ACPair.sol\":6340:6346  uint x */\n      0x00\n        /* \"contracts/ACPair.sol\":6349:6354  y / 2 */\n      tag_479\n        /* \"contracts/ACPair.sol\":6353:6354  2 */\n      0x02\n        /* \"contracts/ACPair.sol\":6324:6325  y */\n      dup4\n        /* \"contracts/ACPair.sol\":6349:6354  y / 2 */\n      tag_180\n      jump\t// in\n    tag_479:\n        /* \"contracts/ACPair.sol\":6349:6358  y / 2 + 1 */\n      tag_480\n      swap1\n        /* \"contracts/ACPair.sol\":6357:6358  1 */\n      0x01\n        /* \"contracts/ACPair.sol\":6349:6358  y / 2 + 1 */\n      tag_178\n      jump\t// in\n    tag_480:\n        /* \"contracts/ACPair.sol\":6340:6358  uint x = y / 2 + 1 */\n      swap1\n      pop\n        /* \"contracts/ACPair.sol\":6373:6465  while (x < z) {... */\n    tag_481:\n        /* \"contracts/ACPair.sol\":6384:6385  z */\n      dup2\n        /* \"contracts/ACPair.sol\":6380:6381  x */\n      dup2\n        /* \"contracts/ACPair.sol\":6380:6385  x < z */\n      lt\n        /* \"contracts/ACPair.sol\":6373:6465  while (x < z) {... */\n      iszero\n      tag_482\n      jumpi\n        /* \"contracts/ACPair.sol\":6410:6411  x */\n      swap1\n      pop\n      dup1\n        /* \"contracts/ACPair.sol\":6448:6449  2 */\n      0x02\n        /* \"contracts/ACPair.sol\":6410:6411  x */\n      dup2\n        /* \"contracts/ACPair.sol\":6435:6440  y / x */\n      tag_483\n        /* \"contracts/ACPair.sol\":6410:6411  x */\n      dup2\n        /* \"contracts/ACPair.sol\":6435:6436  y */\n      dup7\n        /* \"contracts/ACPair.sol\":6435:6440  y / x */\n      tag_180\n      jump\t// in\n    tag_483:\n        /* \"contracts/ACPair.sol\":6435:6444  y / x + x */\n      tag_484\n      swap2\n      swap1\n      tag_178\n      jump\t// in\n    tag_484:\n        /* \"contracts/ACPair.sol\":6434:6449  (y / x + x) / 2 */\n      tag_485\n      swap2\n      swap1\n      tag_180\n      jump\t// in\n    tag_485:\n        /* \"contracts/ACPair.sol\":6430:6449  x = (y / x + x) / 2 */\n      swap1\n      pop\n        /* \"contracts/ACPair.sol\":6373:6465  while (x < z) {... */\n      jump(tag_481)\n    tag_482:\n        /* \"contracts/ACPair.sol\":6305:6476  {... */\n      pop\n        /* \"contracts/ACPair.sol\":6230:6533  function sqrt(uint y) internal pure returns (uint z) {... */\n      swap2\n      swap1\n      pop\n      jump\t// out\n        /* \"contracts/ACPair.sol\":6294:6526  if (y > 3) {... */\n    tag_478:\n        /* \"contracts/ACPair.sol\":6486:6492  y != 0 */\n      dup2\n      iszero\n        /* \"contracts/ACPair.sol\":6482:6526  if (y != 0) {... */\n      tag_487\n      jumpi\n      pop\n        /* \"contracts/ACPair.sol\":6513:6514  1 */\n      0x01\n        /* \"contracts/ACPair.sol\":6482:6526  if (y != 0) {... */\n    tag_487:\n        /* \"contracts/ACPair.sol\":6230:6533  function sqrt(uint y) internal pure returns (uint z) {... */\n      swap2\n      swap1\n      pop\n      jump\t// out\n        /* \"contracts/ACPair.sol\":2252:2432  function _mint(address to, uint value) internal {... */\n    tag_236:\n        /* \"contracts/ACPair.sol\":2339:2344  value */\n      dup1\n        /* \"contracts/ACPair.sol\":2325:2336  totalSupply */\n      sload(0x00)\n        /* \"contracts/ACPair.sol\":2325:2344  totalSupply + value */\n      tag_489\n      swap2\n      swap1\n      tag_178\n      jump\t// in\n    tag_489:\n        /* \"contracts/ACPair.sol\":2311:2322  totalSupply */\n      0x00\n        /* \"contracts/ACPair.sol\":2311:2344  totalSupply = totalSupply + value */\n      swap1\n      dup2\n      sstore\n      sub(shl(0xa0, 0x01), 0x01)\n        /* \"contracts/ACPair.sol\":2355:2368  balanceOf[to] */\n      dup4\n      and\n      dup2\n      mstore\n        /* \"contracts/ACPair.sol\":2355:2364  balanceOf */\n      0x01\n        /* \"contracts/ACPair.sol\":2355:2368  balanceOf[to] */\n      0x20\n      mstore\n      0x40\n      dup2\n      keccak256\n        /* \"contracts/ACPair.sol\":2355:2377  balanceOf[to] += value */\n      dup1\n      sload\n        /* \"contracts/ACPair.sol\":2372:2377  value */\n      dup4\n      swap3\n        /* \"contracts/ACPair.sol\":2311:2322  totalSupply */\n      swap1\n        /* \"contracts/ACPair.sol\":2355:2377  balanceOf[to] += value */\n      tag_490\n      swap1\n        /* \"contracts/ACPair.sol\":2372:2377  value */\n      dup5\n      swap1\n        /* \"contracts/ACPair.sol\":2355:2377  balanceOf[to] += value */\n      tag_178\n      jump\t// in\n    tag_490:\n      swap1\n      swap2\n      sstore\n      pop\n      pop\n        /* \"contracts/ACPair.sol\":2393:2424  Transfer(address(0), to, value) */\n      mload(0x40)\n        /* \"#utility.yul\":481:506   */\n      dup2\n      dup2\n      mstore\n      sub(shl(0xa0, 0x01), 0x01)\n        /* \"contracts/ACPair.sol\":2393:2424  Transfer(address(0), to, value) */\n      dup4\n      and\n      swap1\n        /* \"contracts/ACPair.sol\":2410:2411  0 */\n      0x00\n      swap1\n      0x00\n      dup1\n      mload\n      0x20\n      data_ada389e1fc24a8587c776340efb91b36e675792ab631816100d55df0b5cf3cbc\n      dup4\n      codecopy\n      dup2\n      mload\n      swap2\n      mstore\n        /* \"contracts/ACPair.sol\":2393:2424  Transfer(address(0), to, value) */\n      swap1\n        /* \"#utility.yul\":469:471   */\n      0x20\n        /* \"#utility.yul\":454:472   */\n      add\n        /* \"contracts/ACPair.sol\":2393:2424  Transfer(address(0), to, value) */\n    tag_491:\n      mload(0x40)\n      dup1\n      swap2\n      sub\n      swap1\n      log3\n        /* \"contracts/ACPair.sol\":2252:2432  function _mint(address to, uint value) internal {... */\n      pop\n      pop\n      jump\t// out\n        /* \"contracts/ACPair.sol\":6016:6112  function min(uint x, uint y) internal pure returns (uint z) {... */\n    tag_243:\n        /* \"contracts/ACPair.sol\":6068:6074  uint z */\n      0x00\n        /* \"contracts/ACPair.sol\":6095:6096  y */\n      dup2\n        /* \"contracts/ACPair.sol\":6091:6092  x */\n      dup4\n        /* \"contracts/ACPair.sol\":6091:6096  x < y */\n      lt\n        /* \"contracts/ACPair.sol\":6091:6104  x < y ? x : y */\n      tag_493\n      jumpi\n        /* \"contracts/ACPair.sol\":6103:6104  y */\n      dup2\n        /* \"contracts/ACPair.sol\":6091:6104  x < y ? x : y */\n      jump(tag_494)\n    tag_493:\n        /* \"contracts/ACPair.sol\":6099:6100  x */\n      dup3\n        /* \"contracts/ACPair.sol\":6091:6104  x < y ? x : y */\n    tag_494:\n        /* \"contracts/ACPair.sol\":6087:6104  z = x < y ? x : y */\n      swap4\n        /* \"contracts/ACPair.sol\":6016:6112  function min(uint x, uint y) internal pure returns (uint z) {... */\n      swap3\n      pop\n      pop\n      pop\n      jump\t// out\n        /* \"contracts/ACPair.sol\":14401:15271  function _update(uint balance0, uint balance1, uint112 _reserve0, uint112 _reserve1) private {... */\n    tag_249:\n      sub(shl(0x70, 0x01), 0x01)\n        /* \"contracts/ACPair.sol\":14513:14542  balance0 <= type(uint112).max */\n      dup5\n      gt\n      dup1\n      iszero\n      swap1\n        /* \"contracts/ACPair.sol\":14513:14575  balance0 <= type(uint112).max && balance1 <= type(uint112).max */\n      tag_496\n      jumpi\n      pop\n      sub(shl(0x70, 0x01), 0x01)\n        /* \"contracts/ACPair.sol\":14546:14575  balance1 <= type(uint112).max */\n      dup4\n      gt\n      iszero\n        /* \"contracts/ACPair.sol\":14513:14575  balance0 <= type(uint112).max && balance1 <= type(uint112).max */\n    tag_496:\n        /* \"contracts/ACPair.sol\":14505:14597  require(balance0 <= type(uint112).max && balance1 <= type(uint112).max, 'Pancake: OVERFLOW') */\n      tag_497\n      jumpi\n      mload(0x40)\n      shl(0xe5, 0x461bcd)\n      dup2\n      mstore\n        /* \"#utility.yul\":14642:14644   */\n      0x20\n        /* \"contracts/ACPair.sol\":14505:14597  require(balance0 <= type(uint112).max && balance1 <= type(uint112).max, 'Pancake: OVERFLOW') */\n      0x04\n      dup3\n      add\n        /* \"#utility.yul\":14624:14645   */\n      mstore\n        /* \"#utility.yul\":14681:14683   */\n      0x11\n        /* \"#utility.yul\":14661:14679   */\n      0x24\n      dup3\n      add\n        /* \"#utility.yul\":14654:14684   */\n      mstore\n      shl(0x78, 0x50616e63616b653a204f564552464c4f57)\n        /* \"#utility.yul\":14700:14718   */\n      0x44\n      dup3\n      add\n        /* \"#utility.yul\":14693:14740   */\n      mstore\n        /* \"#utility.yul\":14757:14775   */\n      0x64\n      add\n        /* \"contracts/ACPair.sol\":14505:14597  require(balance0 <= type(uint112).max && balance1 <= type(uint112).max, 'Pancake: OVERFLOW') */\n      tag_167\n        /* \"#utility.yul\":14440:14781   */\n      jump\n        /* \"contracts/ACPair.sol\":14505:14597  require(balance0 <= type(uint112).max && balance1 <= type(uint112).max, 'Pancake: OVERFLOW') */\n    tag_497:\n        /* \"contracts/ACPair.sol\":14608:14629  uint32 blockTimestamp */\n      0x00\n        /* \"contracts/ACPair.sol\":14639:14662  block.timestamp % 2**32 */\n      tag_500\n      shl(0x20, 0x01)\n        /* \"contracts/ACPair.sol\":14639:14654  block.timestamp */\n      timestamp\n        /* \"contracts/ACPair.sol\":14639:14662  block.timestamp % 2**32 */\n      tag_501\n      jump\t// in\n    tag_500:\n        /* \"contracts/ACPair.sol\":14712:14730  blockTimestampLast */\n      sload(0x09)\n        /* \"contracts/ACPair.sol\":14608:14663  uint32 blockTimestamp = uint32(block.timestamp % 2**32) */\n      swap1\n      swap2\n      pop\n        /* \"contracts/ACPair.sol\":14674:14692  uint32 timeElapsed */\n      0x00\n      swap1\n        /* \"contracts/ACPair.sol\":14695:14730  blockTimestamp - blockTimestampLast */\n      tag_502\n      swap1\n      shl(0xe0, 0x01)\n        /* \"contracts/ACPair.sol\":14712:14730  blockTimestampLast */\n      swap1\n      div\n      0xffffffff\n      and\n        /* \"contracts/ACPair.sol\":14608:14663  uint32 blockTimestamp = uint32(block.timestamp % 2**32) */\n      dup4\n        /* \"contracts/ACPair.sol\":14695:14730  blockTimestamp - blockTimestampLast */\n      tag_503\n      jump\t// in\n    tag_502:\n        /* \"contracts/ACPair.sol\":14674:14730  uint32 timeElapsed = blockTimestamp - blockTimestampLast */\n      swap1\n      pop\n        /* \"contracts/ACPair.sol\":14782:14783  0 */\n      0x00\n        /* \"contracts/ACPair.sol\":14768:14779  timeElapsed */\n      dup2\n        /* \"contracts/ACPair.sol\":14768:14783  timeElapsed > 0 */\n      0xffffffff\n      and\n      gt\n        /* \"contracts/ACPair.sol\":14768:14801  timeElapsed > 0 && _reserve0 != 0 */\n      dup1\n      iszero\n      tag_504\n      jumpi\n      pop\n      sub(shl(0x70, 0x01), 0x01)\n        /* \"contracts/ACPair.sol\":14787:14801  _reserve0 != 0 */\n      dup5\n      and\n      iszero\n      iszero\n        /* \"contracts/ACPair.sol\":14768:14801  timeElapsed > 0 && _reserve0 != 0 */\n    tag_504:\n        /* \"contracts/ACPair.sol\":14768:14819  timeElapsed > 0 && _reserve0 != 0 && _reserve1 != 0 */\n      dup1\n      iszero\n      tag_505\n      jumpi\n      pop\n      sub(shl(0x70, 0x01), 0x01)\n        /* \"contracts/ACPair.sol\":14805:14819  _reserve1 != 0 */\n      dup4\n      and\n      iszero\n      iszero\n        /* \"contracts/ACPair.sol\":14768:14819  timeElapsed > 0 && _reserve0 != 0 && _reserve1 != 0 */\n    tag_505:\n        /* \"contracts/ACPair.sol\":14764:15100  if (timeElapsed > 0 && _reserve0 != 0 && _reserve1 != 0) {... */\n      iszero\n      tag_506\n      jumpi\n        /* \"contracts/ACPair.sol\":14974:14985  timeElapsed */\n      dup1\n        /* \"contracts/ACPair.sol\":14921:14985  uint(UQ112x112.encode(_reserve1).uqdiv(_reserve0)) * timeElapsed */\n      0xffffffff\n      and\n        /* \"contracts/ACPair.sol\":14926:14970  UQ112x112.encode(_reserve1).uqdiv(_reserve0) */\n      tag_507\n        /* \"contracts/ACPair.sol\":14960:14969  _reserve0 */\n      dup6\n        /* \"contracts/ACPair.sol\":14926:14953  UQ112x112.encode(_reserve1) */\n      tag_508\n        /* \"contracts/ACPair.sol\":14943:14952  _reserve1 */\n      dup7\n        /* \"contracts/ACPair.sol\":14926:14942  UQ112x112.encode */\n      tag_509\n        /* \"contracts/ACPair.sol\":14926:14953  UQ112x112.encode(_reserve1) */\n      jump\t// in\n    tag_508:\n      sub(shl(0xe0, 0x01), 0x01)\n        /* \"contracts/ACPair.sol\":14926:14959  UQ112x112.encode(_reserve1).uqdiv */\n      and\n      swap1\n      tag_510\n        /* \"contracts/ACPair.sol\":14926:14970  UQ112x112.encode(_reserve1).uqdiv(_reserve0) */\n      jump\t// in\n    tag_507:\n      sub(shl(0xe0, 0x01), 0x01)\n        /* \"contracts/ACPair.sol\":14921:14971  uint(UQ112x112.encode(_reserve1).uqdiv(_reserve0)) */\n      and\n        /* \"contracts/ACPair.sol\":14921:14985  uint(UQ112x112.encode(_reserve1).uqdiv(_reserve0)) * timeElapsed */\n      tag_511\n      swap2\n      swap1\n      tag_174\n      jump\t// in\n    tag_511:\n        /* \"contracts/ACPair.sol\":14897:14917  price0CumulativeLast */\n      0x0a\n      0x00\n        /* \"contracts/ACPair.sol\":14897:14985  price0CumulativeLast += uint(UQ112x112.encode(_reserve1).uqdiv(_reserve0)) * timeElapsed */\n      dup3\n      dup3\n      sload\n      tag_512\n      swap2\n      swap1\n      tag_178\n      jump\t// in\n    tag_512:\n      swap1\n      swap2\n      sstore\n      pop\n      pop\n        /* \"contracts/ACPair.sol\":15024:15088  uint(UQ112x112.encode(_reserve0).uqdiv(_reserve1)) * timeElapsed */\n      0xffffffff\n      dup2\n      and\n        /* \"contracts/ACPair.sol\":15029:15073  UQ112x112.encode(_reserve0).uqdiv(_reserve1) */\n      tag_513\n        /* \"contracts/ACPair.sol\":15063:15072  _reserve1 */\n      dup5\n        /* \"contracts/ACPair.sol\":15029:15056  UQ112x112.encode(_reserve0) */\n      tag_508\n        /* \"contracts/ACPair.sol\":15046:15055  _reserve0 */\n      dup8\n        /* \"contracts/ACPair.sol\":15029:15045  UQ112x112.encode */\n      tag_509\n        /* \"contracts/ACPair.sol\":15029:15056  UQ112x112.encode(_reserve0) */\n      jump\t// in\n        /* \"contracts/ACPair.sol\":15029:15073  UQ112x112.encode(_reserve0).uqdiv(_reserve1) */\n    tag_513:\n      sub(shl(0xe0, 0x01), 0x01)\n        /* \"contracts/ACPair.sol\":15024:15074  uint(UQ112x112.encode(_reserve0).uqdiv(_reserve1)) */\n      and\n        /* \"contracts/ACPair.sol\":15024:15088  uint(UQ112x112.encode(_reserve0).uqdiv(_reserve1)) * timeElapsed */\n      tag_515\n      swap2\n      swap1\n      tag_174\n      jump\t// in\n    tag_515:\n        /* \"contracts/ACPair.sol\":15000:15020  price1CumulativeLast */\n      0x0b\n      0x00\n        /* \"contracts/ACPair.sol\":15000:15088  price1CumulativeLast += uint(UQ112x112.encode(_reserve0).uqdiv(_reserve1)) * timeElapsed */\n      dup3\n      dup3\n      sload\n      tag_516\n      swap2\n      swap1\n      tag_178\n      jump\t// in\n    tag_516:\n      swap1\n      swap2\n      sstore\n      pop\n      pop\n        /* \"contracts/ACPair.sol\":14764:15100  if (timeElapsed > 0 && _reserve0 != 0 && _reserve1 != 0) {... */\n    tag_506:\n        /* \"contracts/ACPair.sol\":15110:15118  reserve0 */\n      0x09\n        /* \"contracts/ACPair.sol\":15110:15138  reserve0 = uint112(balance0) */\n      dup1\n      sload\n        /* \"contracts/ACPair.sol\":15188:15223  blockTimestampLast = blockTimestamp */\n      0xffffffff\n      dup5\n      and\n      shl(0xe0, 0x01)\n      mul\n      sub(shl(0xe0, 0x01), 0x01)\n      sub(shl(0x70, 0x01), 0x01)\n        /* \"contracts/ACPair.sol\":15149:15177  reserve1 = uint112(balance1) */\n      dup10\n      dup2\n      and\n      shl(0x70, 0x01)\n      swap1\n      dup2\n      mul\n      not(sub(shl(0xe0, 0x01), 0x01))\n      swap1\n      swap6\n      and\n        /* \"contracts/ACPair.sol\":15110:15138  reserve0 = uint112(balance0) */\n      dup13\n      dup4\n      and\n        /* \"contracts/ACPair.sol\":15149:15177  reserve1 = uint112(balance1) */\n      or\n      swap5\n      swap1\n      swap5\n      or\n        /* \"contracts/ACPair.sol\":15188:15223  blockTimestampLast = blockTimestamp */\n      swap2\n      dup3\n      and\n      dup4\n      or\n      swap5\n      dup6\n      swap1\n      sstore\n        /* \"contracts/ACPair.sol\":15239:15263  Sync(reserve0, reserve1) */\n      0x40\n      dup1\n      mload\n        /* \"contracts/ACPair.sol\":15244:15252  reserve0 */\n      swap4\n      dup3\n      and\n      swap3\n      dup3\n      and\n      swap3\n      swap1\n      swap3\n      or\n        /* \"#utility.yul\":15295:15329   */\n      dup4\n      mstore\n        /* \"contracts/ACPair.sol\":15254:15262  reserve1 */\n      swap3\n      swap1\n      swap4\n      div\n      swap1\n      swap2\n      and\n        /* \"#utility.yul\":15360:15362   */\n      0x20\n        /* \"#utility.yul\":15345:15363   */\n      dup3\n      add\n        /* \"#utility.yul\":15338:15381   */\n      mstore\n        /* \"contracts/ACPair.sol\":15239:15263  Sync(reserve0, reserve1) */\n      0x1c411e9a96e071241c2f21f7726b17ae89e3cab4c78be50e062b03a9fffbbad1\n      swap2\n        /* \"#utility.yul\":15230:15248   */\n      add\n        /* \"contracts/ACPair.sol\":15239:15263  Sync(reserve0, reserve1) */\n      mload(0x40)\n      dup1\n      swap2\n      sub\n      swap1\n      log1\n        /* \"contracts/ACPair.sol\":14494:15271  {... */\n      pop\n      pop\n        /* \"contracts/ACPair.sol\":14401:15271  function _update(uint balance0, uint balance1, uint112 _reserve0, uint112 _reserve1) private {... */\n      pop\n      pop\n      pop\n      pop\n      jump\t// out\n        /* \"contracts/ACPair.sol\":13487:13772  function _safeTransfer(address token, address to, uint value) private {... */\n    tag_275:\n        /* \"contracts/ACPair.sol\":12216:12250  bytes('transfer(address,uint256)') */\n      0x40\n      dup1\n      mload\n      dup1\n      dup3\n      add\n      dup3\n      mstore\n      0x19\n      dup2\n      mstore\n      shl(0x38, 0x7472616e7366657228616464726573732c75696e7432353629)\n      0x20\n      swap2\n      dup3\n      add\n      mstore\n        /* \"contracts/ACPair.sol\":13615:13658  abi.encodeWithSelector(SELECTOR, to, value) */\n      dup2\n      mload\n      sub(shl(0xa0, 0x01), 0x01)\n        /* \"#utility.yul\":15584:15616   */\n      dup6\n      dup2\n      and\n        /* \"contracts/ACPair.sol\":13615:13658  abi.encodeWithSelector(SELECTOR, to, value) */\n      0x24\n      dup4\n      add\n        /* \"#utility.yul\":15566:15617   */\n      mstore\n        /* \"#utility.yul\":15633:15651   */\n      0x44\n      dup1\n      dup4\n      add\n        /* \"#utility.yul\":15626:15660   */\n      dup7\n      swap1\n      mstore\n        /* \"contracts/ACPair.sol\":13615:13658  abi.encodeWithSelector(SELECTOR, to, value) */\n      dup5\n      mload\n      dup1\n      dup5\n      sub\n      swap1\n      swap2\n      add\n      dup2\n      mstore\n        /* \"#utility.yul\":15539:15557   */\n      0x64\n      swap1\n      swap3\n      add\n        /* \"contracts/ACPair.sol\":13615:13658  abi.encodeWithSelector(SELECTOR, to, value) */\n      dup5\n      mstore\n      swap2\n      dup2\n      add\n      dup1\n      mload\n      sub(shl(0xe0, 0x01), 0x01)\n      and\n      shl(0xe0, 0xa9059cbb)\n      or\n      swap1\n      mstore\n        /* \"contracts/ACPair.sol\":13604:13659  token.call(abi.encodeWithSelector(SELECTOR, to, value)) */\n      swap2\n      mload\n      0x00\n      swap3\n      dup4\n      swap3\n        /* \"contracts/ACPair.sol\":13604:13614  token.call */\n      dup8\n      and\n      swap2\n        /* \"contracts/ACPair.sol\":13604:13659  token.call(abi.encodeWithSelector(SELECTOR, to, value)) */\n      tag_522\n      swap2\n        /* \"contracts/ACPair.sol\":13615:13658  abi.encodeWithSelector(SELECTOR, to, value) */\n      swap1\n        /* \"contracts/ACPair.sol\":13604:13659  token.call(abi.encodeWithSelector(SELECTOR, to, value)) */\n      tag_523\n      jump\t// in\n    tag_522:\n      0x00\n      mload(0x40)\n      dup1\n      dup4\n      sub\n      dup2\n      0x00\n      dup7\n      gas\n      call\n      swap2\n      pop\n      pop\n      returndatasize\n      dup1\n      0x00\n      dup2\n      eq\n      tag_526\n      jumpi\n      mload(0x40)\n      swap2\n      pop\n      and(add(returndatasize, 0x3f), not(0x1f))\n      dup3\n      add\n      0x40\n      mstore\n      returndatasize\n      dup3\n      mstore\n      returndatasize\n      0x00\n      0x20\n      dup5\n      add\n      returndatacopy\n      jump(tag_525)\n    tag_526:\n      0x60\n      swap2\n      pop\n    tag_525:\n      pop\n        /* \"contracts/ACPair.sol\":13568:13659  (bool success, bytes memory data) = token.call(abi.encodeWithSelector(SELECTOR, to, value)) */\n      swap2\n      pop\n      swap2\n      pop\n        /* \"contracts/ACPair.sol\":13678:13685  success */\n      dup2\n        /* \"contracts/ACPair.sol\":13678:13735  success && (data.length == 0 || abi.decode(data, (bool))) */\n      dup1\n      iszero\n      tag_529\n      jumpi\n      pop\n        /* \"contracts/ACPair.sol\":13690:13701  data.length */\n      dup1\n      mload\n        /* \"contracts/ACPair.sol\":13690:13706  data.length == 0 */\n      iszero\n      dup1\n        /* \"contracts/ACPair.sol\":13690:13734  data.length == 0 || abi.decode(data, (bool)) */\n      tag_529\n      jumpi\n      pop\n        /* \"contracts/ACPair.sol\":13721:13725  data */\n      dup1\n        /* \"contracts/ACPair.sol\":13710:13734  abi.decode(data, (bool)) */\n      dup1\n      0x20\n      add\n      swap1\n      mload\n      dup2\n      add\n      swap1\n      tag_529\n      swap2\n      swap1\n      tag_372\n      jump\t// in\n    tag_529:\n        /* \"contracts/ACPair.sol\":13670:13764  require(success && (data.length == 0 || abi.decode(data, (bool))), 'Pancake: TRANSFER_FAILED') */\n      tag_530\n      jumpi\n      mload(0x40)\n      shl(0xe5, 0x461bcd)\n      dup2\n      mstore\n        /* \"#utility.yul\":16165:16167   */\n      0x20\n        /* \"contracts/ACPair.sol\":13670:13764  require(success && (data.length == 0 || abi.decode(data, (bool))), 'Pancake: TRANSFER_FAILED') */\n      0x04\n      dup3\n      add\n        /* \"#utility.yul\":16147:16168   */\n      mstore\n        /* \"#utility.yul\":16204:16206   */\n      0x18\n        /* \"#utility.yul\":16184:16202   */\n      0x24\n      dup3\n      add\n        /* \"#utility.yul\":16177:16207   */\n      mstore\n      shl(0x42, 0x14185b98d85ad94e881514905394d1915497d19052531151)\n        /* \"#utility.yul\":16223:16241   */\n      0x44\n      dup3\n      add\n        /* \"#utility.yul\":16216:16270   */\n      mstore\n        /* \"#utility.yul\":16287:16305   */\n      0x64\n      add\n        /* \"contracts/ACPair.sol\":13670:13764  require(success && (data.length == 0 || abi.decode(data, (bool))), 'Pancake: TRANSFER_FAILED') */\n      tag_167\n        /* \"#utility.yul\":15963:16311   */\n      jump\n        /* \"contracts/ACPair.sol\":13670:13764  require(success && (data.length == 0 || abi.decode(data, (bool))), 'Pancake: TRANSFER_FAILED') */\n    tag_530:\n        /* \"contracts/ACPair.sol\":13557:13772  {... */\n      pop\n      pop\n        /* \"contracts/ACPair.sol\":13487:13772  function _safeTransfer(address token, address to, uint value) private {... */\n      pop\n      pop\n      pop\n      jump\t// out\n        /* \"contracts/ACPair.sol\":9211:9402  function _transferOwnership(address newOwner) internal virtual {... */\n    tag_319:\n        /* \"contracts/ACPair.sol\":9304:9310  _owner */\n      0x05\n      dup1\n      sload\n      sub(shl(0xa0, 0x01), 0x01)\n        /* \"contracts/ACPair.sol\":9321:9338  _owner = newOwner */\n      dup4\n      dup2\n      and\n      not(sub(shl(0xa0, 0x01), 0x01))\n      dup4\n      and\n      dup2\n      or\n      swap1\n      swap4\n      sstore\n        /* \"contracts/ACPair.sol\":9354:9394  OwnershipTransferred(oldOwner, newOwner) */\n      mload(0x40)\n        /* \"contracts/ACPair.sol\":9304:9310  _owner */\n      swap2\n      and\n      swap2\n        /* \"contracts/ACPair.sol\":9321:9338  _owner = newOwner */\n      swap1\n        /* \"contracts/ACPair.sol\":9304:9310  _owner */\n      dup3\n      swap1\n        /* \"contracts/ACPair.sol\":9354:9394  OwnershipTransferred(oldOwner, newOwner) */\n      0x8be0079c531659141344cd1fd0a4f28419497f9722a3daafe3b4186f6b6457e0\n      swap1\n        /* \"contracts/ACPair.sol\":9285:9301  address oldOwner */\n      0x00\n      swap1\n        /* \"contracts/ACPair.sol\":9354:9394  OwnershipTransferred(oldOwner, newOwner) */\n      log3\n        /* \"contracts/ACPair.sol\":9274:9402  {... */\n      pop\n        /* \"contracts/ACPair.sol\":9211:9402  function _transferOwnership(address newOwner) internal virtual {... */\n      pop\n      jump\t// out\n        /* \"contracts/ACPair.sol\":2440:2613  function _burn(address from, uint value) internal {... */\n    tag_347:\n      sub(shl(0xa0, 0x01), 0x01)\n        /* \"contracts/ACPair.sol\":2501:2516  balanceOf[from] */\n      dup3\n      and\n      0x00\n      swap1\n      dup2\n      mstore\n        /* \"contracts/ACPair.sol\":2501:2510  balanceOf */\n      0x01\n        /* \"contracts/ACPair.sol\":2501:2516  balanceOf[from] */\n      0x20\n      mstore\n      0x40\n      dup2\n      keccak256\n        /* \"contracts/ACPair.sol\":2501:2525  balanceOf[from] -= value */\n      dup1\n      sload\n        /* \"contracts/ACPair.sol\":2520:2525  value */\n      dup4\n      swap3\n        /* \"contracts/ACPair.sol\":2501:2516  balanceOf[from] */\n      swap1\n        /* \"contracts/ACPair.sol\":2501:2525  balanceOf[from] -= value */\n      tag_535\n      swap1\n        /* \"contracts/ACPair.sol\":2520:2525  value */\n      dup5\n      swap1\n        /* \"contracts/ACPair.sol\":2501:2525  balanceOf[from] -= value */\n      tag_199\n      jump\t// in\n    tag_535:\n      swap3\n      pop\n      pop\n      dup2\n      swap1\n      sstore\n      pop\n        /* \"contracts/ACPair.sol\":2551:2556  value */\n      dup1\n        /* \"contracts/ACPair.sol\":2536:2547  totalSupply */\n      0x00\n      dup1\n        /* \"contracts/ACPair.sol\":2536:2556  totalSupply -= value */\n      dup3\n      dup3\n      sload\n      tag_536\n      swap2\n      swap1\n      tag_199\n      jump\t// in\n    tag_536:\n      swap1\n      swap2\n      sstore\n      pop\n      pop\n        /* \"contracts/ACPair.sol\":2572:2605  Transfer(from, address(0), value) */\n      mload(0x40)\n        /* \"#utility.yul\":481:506   */\n      dup2\n      dup2\n      mstore\n        /* \"contracts/ACPair.sol\":2595:2596  0 */\n      0x00\n      swap1\n      sub(shl(0xa0, 0x01), 0x01)\n        /* \"contracts/ACPair.sol\":2572:2605  Transfer(from, address(0), value) */\n      dup5\n      and\n      swap1\n      0x00\n      dup1\n      mload\n      0x20\n      data_ada389e1fc24a8587c776340efb91b36e675792ab631816100d55df0b5cf3cbc\n      dup4\n      codecopy\n      dup2\n      mload\n      swap2\n      mstore\n      swap1\n        /* \"#utility.yul\":469:471   */\n      0x20\n        /* \"#utility.yul\":454:472   */\n      add\n        /* \"contracts/ACPair.sol\":2572:2605  Transfer(from, address(0), value) */\n      tag_491\n        /* \"#utility.yul\":335:512   */\n      jump\n        /* \"contracts/ACPair.sol\":5634:5754  function encode(uint112 y) internal pure returns (uint224 z) {... */\n    tag_509:\n        /* \"contracts/ACPair.sol\":5684:5693  uint224 z */\n      0x00\n        /* \"contracts/ACPair.sol\":5710:5727  uint224(y) * Q112 */\n      tag_189\n      shl(0x70, 0x01)\n      sub(shl(0x70, 0x01), 0x01)\n        /* \"contracts/ACPair.sol\":5710:5720  uint224(y) */\n      dup5\n      and\n        /* \"contracts/ACPair.sol\":5710:5727  uint224(y) * Q112 */\n      tag_541\n      jump\t// in\n        /* \"contracts/ACPair.sol\":5825:5933  function uqdiv(uint224 x, uint112 y) internal pure returns (uint224 z) {... */\n    tag_510:\n        /* \"contracts/ACPair.sol\":5885:5894  uint224 z */\n      0x00\n        /* \"contracts/ACPair.sol\":5911:5925  x / uint224(y) */\n      tag_494\n      sub(shl(0x70, 0x01), 0x01)\n        /* \"contracts/ACPair.sol\":5915:5925  uint224(y) */\n      dup4\n      and\n        /* \"contracts/ACPair.sol\":5911:5912  x */\n      dup5\n        /* \"contracts/ACPair.sol\":5911:5925  x / uint224(y) */\n      tag_544\n      jump\t// in\n        /* \"#utility.yul\":14:330   */\n    tag_40:\n        /* \"#utility.yul\":91:97   */\n      0x00\n        /* \"#utility.yul\":99:105   */\n      dup1\n        /* \"#utility.yul\":107:113   */\n      0x00\n        /* \"#utility.yul\":160:162   */\n      0x60\n        /* \"#utility.yul\":148:157   */\n      dup5\n        /* \"#utility.yul\":139:146   */\n      dup7\n        /* \"#utility.yul\":135:158   */\n      sub\n        /* \"#utility.yul\":131:163   */\n      slt\n        /* \"#utility.yul\":128:180   */\n      iszero\n      tag_551\n      jumpi\n        /* \"#utility.yul\":176:177   */\n      0x00\n        /* \"#utility.yul\":173:174   */\n      dup1\n        /* \"#utility.yul\":166:178   */\n      revert\n        /* \"#utility.yul\":128:180   */\n    tag_551:\n      pop\n      pop\n        /* \"#utility.yul\":199:222   */\n      dup2\n      calldataload\n      swap4\n        /* \"#utility.yul\":269:271   */\n      0x20\n        /* \"#utility.yul\":254:272   */\n      dup4\n      add\n        /* \"#utility.yul\":241:273   */\n      calldataload\n      swap4\n      pop\n        /* \"#utility.yul\":320:322   */\n      0x40\n        /* \"#utility.yul\":305:323   */\n      swap1\n      swap3\n      add\n        /* \"#utility.yul\":292:324   */\n      calldataload\n      swap2\n        /* \"#utility.yul\":14:330   */\n      swap1\n      pop\n      jump\t// out\n        /* \"#utility.yul\":517:767   */\n    tag_545:\n        /* \"#utility.yul\":602:603   */\n      0x00\n        /* \"#utility.yul\":612:725   */\n    tag_554:\n        /* \"#utility.yul\":626:632   */\n      dup4\n        /* \"#utility.yul\":623:624   */\n      dup2\n        /* \"#utility.yul\":620:633   */\n      lt\n        /* \"#utility.yul\":612:725   */\n      iszero\n      tag_556\n      jumpi\n        /* \"#utility.yul\":702:713   */\n      dup2\n      dup2\n      add\n        /* \"#utility.yul\":696:714   */\n      mload\n        /* \"#utility.yul\":683:694   */\n      dup4\n      dup3\n      add\n        /* \"#utility.yul\":676:715   */\n      mstore\n        /* \"#utility.yul\":648:650   */\n      0x20\n        /* \"#utility.yul\":641:651   */\n      add\n        /* \"#utility.yul\":612:725   */\n      jump(tag_554)\n    tag_556:\n      pop\n      pop\n        /* \"#utility.yul\":759:760   */\n      0x00\n        /* \"#utility.yul\":741:757   */\n      swap2\n      add\n        /* \"#utility.yul\":734:761   */\n      mstore\n        /* \"#utility.yul\":517:767   */\n      jump\t// out\n        /* \"#utility.yul\":772:1168   */\n    tag_47:\n        /* \"#utility.yul\":921:923   */\n      0x20\n        /* \"#utility.yul\":910:919   */\n      dup2\n        /* \"#utility.yul\":903:924   */\n      mstore\n        /* \"#utility.yul\":884:888   */\n      0x00\n        /* \"#utility.yul\":953:959   */\n      dup3\n        /* \"#utility.yul\":947:960   */\n      mload\n        /* \"#utility.yul\":996:1002   */\n      dup1\n        /* \"#utility.yul\":991:993   */\n      0x20\n        /* \"#utility.yul\":980:989   */\n      dup5\n        /* \"#utility.yul\":976:994   */\n      add\n        /* \"#utility.yul\":969:1003   */\n      mstore\n        /* \"#utility.yul\":1012:1091   */\n      tag_558\n        /* \"#utility.yul\":1084:1090   */\n      dup2\n        /* \"#utility.yul\":1079:1081   */\n      0x40\n        /* \"#utility.yul\":1068:1077   */\n      dup6\n        /* \"#utility.yul\":1064:1082   */\n      add\n        /* \"#utility.yul\":1059:1061   */\n      0x20\n        /* \"#utility.yul\":1051:1057   */\n      dup8\n        /* \"#utility.yul\":1047:1062   */\n      add\n        /* \"#utility.yul\":1012:1091   */\n      tag_545\n      jump\t// in\n    tag_558:\n        /* \"#utility.yul\":1152:1154   */\n      0x1f\n        /* \"#utility.yul\":1131:1146   */\n      add\n      not(0x1f)\n        /* \"#utility.yul\":1127:1156   */\n      and\n        /* \"#utility.yul\":1112:1157   */\n      swap2\n      swap1\n      swap2\n      add\n        /* \"#utility.yul\":1159:1161   */\n      0x40\n        /* \"#utility.yul\":1108:1162   */\n      add\n      swap3\n        /* \"#utility.yul\":772:1168   */\n      swap2\n      pop\n      pop\n      jump\t// out\n        /* \"#utility.yul\":1568:1741   */\n    tag_546:\n        /* \"#utility.yul\":1636:1656   */\n      dup1\n      calldataload\n      sub(shl(0xa0, 0x01), 0x01)\n        /* \"#utility.yul\":1685:1716   */\n      dup2\n      and\n        /* \"#utility.yul\":1675:1717   */\n      dup2\n      eq\n        /* \"#utility.yul\":1665:1735   */\n      tag_487\n      jumpi\n        /* \"#utility.yul\":1731:1732   */\n      0x00\n        /* \"#utility.yul\":1728:1729   */\n      dup1\n        /* \"#utility.yul\":1721:1733   */\n      revert\n        /* \"#utility.yul\":1746:2000   */\n    tag_56:\n        /* \"#utility.yul\":1814:1820   */\n      0x00\n        /* \"#utility.yul\":1822:1828   */\n      dup1\n        /* \"#utility.yul\":1875:1877   */\n      0x40\n        /* \"#utility.yul\":1863:1872   */\n      dup4\n        /* \"#utility.yul\":1854:1861   */\n      dup6\n        /* \"#utility.yul\":1850:1873   */\n      sub\n        /* \"#utility.yul\":1846:1878   */\n      slt\n        /* \"#utility.yul\":1843:1895   */\n      iszero\n      tag_563\n      jumpi\n        /* \"#utility.yul\":1891:1892   */\n      0x00\n        /* \"#utility.yul\":1888:1889   */\n      dup1\n        /* \"#utility.yul\":1881:1893   */\n      revert\n        /* \"#utility.yul\":1843:1895   */\n    tag_563:\n        /* \"#utility.yul\":1914:1943   */\n      tag_564\n        /* \"#utility.yul\":1933:1942   */\n      dup4\n        /* \"#utility.yul\":1914:1943   */\n      tag_546\n      jump\t// in\n    tag_564:\n        /* \"#utility.yul\":1904:1943   */\n      swap5\n        /* \"#utility.yul\":1990:1992   */\n      0x20\n        /* \"#utility.yul\":1975:1993   */\n      swap4\n      swap1\n      swap4\n      add\n        /* \"#utility.yul\":1962:1994   */\n      calldataload\n      swap4\n      pop\n      pop\n      pop\n        /* \"#utility.yul\":1746:2000   */\n      jump\t// out\n        /* \"#utility.yul\":2197:2400   */\n    tag_63:\n      sub(shl(0xa0, 0x01), 0x01)\n        /* \"#utility.yul\":2361:2393   */\n      swap2\n      swap1\n      swap2\n      and\n        /* \"#utility.yul\":2343:2394   */\n      dup2\n      mstore\n        /* \"#utility.yul\":2331:2333   */\n      0x20\n        /* \"#utility.yul\":2316:2334   */\n      add\n      swap1\n        /* \"#utility.yul\":2197:2400   */\n      jump\t// out\n        /* \"#utility.yul\":2405:2591   */\n    tag_66:\n        /* \"#utility.yul\":2464:2470   */\n      0x00\n        /* \"#utility.yul\":2517:2519   */\n      0x20\n        /* \"#utility.yul\":2505:2514   */\n      dup3\n        /* \"#utility.yul\":2496:2503   */\n      dup5\n        /* \"#utility.yul\":2492:2515   */\n      sub\n        /* \"#utility.yul\":2488:2520   */\n      slt\n        /* \"#utility.yul\":2485:2537   */\n      iszero\n      tag_568\n      jumpi\n        /* \"#utility.yul\":2533:2534   */\n      0x00\n        /* \"#utility.yul\":2530:2531   */\n      dup1\n        /* \"#utility.yul\":2523:2535   */\n      revert\n        /* \"#utility.yul\":2485:2537   */\n    tag_568:\n        /* \"#utility.yul\":2556:2585   */\n      tag_494\n        /* \"#utility.yul\":2575:2584   */\n      dup3\n        /* \"#utility.yul\":2556:2585   */\n      tag_546\n      jump\t// in\n        /* \"#utility.yul\":2596:2924   */\n    tag_73:\n        /* \"#utility.yul\":2673:2679   */\n      0x00\n        /* \"#utility.yul\":2681:2687   */\n      dup1\n        /* \"#utility.yul\":2689:2695   */\n      0x00\n        /* \"#utility.yul\":2742:2744   */\n      0x60\n        /* \"#utility.yul\":2730:2739   */\n      dup5\n        /* \"#utility.yul\":2721:2728   */\n      dup7\n        /* \"#utility.yul\":2717:2740   */\n      sub\n        /* \"#utility.yul\":2713:2745   */\n      slt\n        /* \"#utility.yul\":2710:2762   */\n      iszero\n      tag_571\n      jumpi\n        /* \"#utility.yul\":2758:2759   */\n      0x00\n        /* \"#utility.yul\":2755:2756   */\n      dup1\n        /* \"#utility.yul\":2748:2760   */\n      revert\n        /* \"#utility.yul\":2710:2762   */\n    tag_571:\n        /* \"#utility.yul\":2781:2810   */\n      tag_572\n        /* \"#utility.yul\":2800:2809   */\n      dup5\n        /* \"#utility.yul\":2781:2810   */\n      tag_546\n      jump\t// in\n    tag_572:\n        /* \"#utility.yul\":2771:2810   */\n      swap3\n      pop\n        /* \"#utility.yul\":2829:2867   */\n      tag_573\n        /* \"#utility.yul\":2863:2865   */\n      0x20\n        /* \"#utility.yul\":2852:2861   */\n      dup6\n        /* \"#utility.yul\":2848:2866   */\n      add\n        /* \"#utility.yul\":2829:2867   */\n      tag_546\n      jump\t// in\n    tag_573:\n        /* \"#utility.yul\":2819:2867   */\n      swap2\n      pop\n        /* \"#utility.yul\":2914:2916   */\n      0x40\n        /* \"#utility.yul\":2903:2912   */\n      dup5\n        /* \"#utility.yul\":2899:2917   */\n      add\n        /* \"#utility.yul\":2886:2918   */\n      calldataload\n        /* \"#utility.yul\":2876:2918   */\n      swap1\n      pop\n        /* \"#utility.yul\":2596:2924   */\n      swap3\n      pop\n      swap3\n      pop\n      swap3\n      jump\t// out\n        /* \"#utility.yul\":3300:3560   */\n    tag_89:\n        /* \"#utility.yul\":3368:3374   */\n      0x00\n        /* \"#utility.yul\":3376:3382   */\n      dup1\n        /* \"#utility.yul\":3429:3431   */\n      0x40\n        /* \"#utility.yul\":3417:3426   */\n      dup4\n        /* \"#utility.yul\":3408:3415   */\n      dup6\n        /* \"#utility.yul\":3404:3427   */\n      sub\n        /* \"#utility.yul\":3400:3432   */\n      slt\n        /* \"#utility.yul\":3397:3449   */\n      iszero\n      tag_577\n      jumpi\n        /* \"#utility.yul\":3445:3446   */\n      0x00\n        /* \"#utility.yul\":3442:3443   */\n      dup1\n        /* \"#utility.yul\":3435:3447   */\n      revert\n        /* \"#utility.yul\":3397:3449   */\n    tag_577:\n        /* \"#utility.yul\":3468:3497   */\n      tag_578\n        /* \"#utility.yul\":3487:3496   */\n      dup4\n        /* \"#utility.yul\":3468:3497   */\n      tag_546\n      jump\t// in\n    tag_578:\n        /* \"#utility.yul\":3458:3497   */\n      swap2\n      pop\n        /* \"#utility.yul\":3516:3554   */\n      tag_579\n        /* \"#utility.yul\":3550:3552   */\n      0x20\n        /* \"#utility.yul\":3539:3548   */\n      dup5\n        /* \"#utility.yul\":3535:3553   */\n      add\n        /* \"#utility.yul\":3516:3554   */\n      tag_546\n      jump\t// in\n    tag_579:\n        /* \"#utility.yul\":3506:3554   */\n      swap1\n      pop\n        /* \"#utility.yul\":3300:3560   */\n      swap3\n      pop\n      swap3\n      swap1\n      pop\n      jump\t// out\n        /* \"#utility.yul\":3565:3887   */\n    tag_103:\n        /* \"#utility.yul\":3642:3648   */\n      0x00\n        /* \"#utility.yul\":3650:3656   */\n      dup1\n        /* \"#utility.yul\":3658:3664   */\n      0x00\n        /* \"#utility.yul\":3711:3713   */\n      0x60\n        /* \"#utility.yul\":3699:3708   */\n      dup5\n        /* \"#utility.yul\":3690:3697   */\n      dup7\n        /* \"#utility.yul\":3686:3709   */\n      sub\n        /* \"#utility.yul\":3682:3714   */\n      slt\n        /* \"#utility.yul\":3679:3731   */\n      iszero\n      tag_581\n      jumpi\n        /* \"#utility.yul\":3727:3728   */\n      0x00\n        /* \"#utility.yul\":3724:3725   */\n      dup1\n        /* \"#utility.yul\":3717:3729   */\n      revert\n        /* \"#utility.yul\":3679:3731   */\n    tag_581:\n        /* \"#utility.yul\":3763:3772   */\n      dup4\n        /* \"#utility.yul\":3750:3773   */\n      calldataload\n        /* \"#utility.yul\":3740:3773   */\n      swap3\n      pop\n        /* \"#utility.yul\":3820:3822   */\n      0x20\n        /* \"#utility.yul\":3809:3818   */\n      dup5\n        /* \"#utility.yul\":3805:3823   */\n      add\n        /* \"#utility.yul\":3792:3824   */\n      calldataload\n        /* \"#utility.yul\":3782:3824   */\n      swap2\n      pop\n        /* \"#utility.yul\":3843:3881   */\n      tag_582\n        /* \"#utility.yul\":3877:3879   */\n      0x40\n        /* \"#utility.yul\":3866:3875   */\n      dup6\n        /* \"#utility.yul\":3862:3880   */\n      add\n        /* \"#utility.yul\":3843:3881   */\n      tag_546\n      jump\t// in\n    tag_582:\n        /* \"#utility.yul\":3833:3881   */\n      swap1\n      pop\n        /* \"#utility.yul\":3565:3887   */\n      swap3\n      pop\n      swap3\n      pop\n      swap3\n      jump\t// out\n        /* \"#utility.yul\":4145:4838   */\n    tag_151:\n        /* \"#utility.yul\":4256:4262   */\n      0x00\n        /* \"#utility.yul\":4264:4270   */\n      dup1\n        /* \"#utility.yul\":4272:4278   */\n      0x00\n        /* \"#utility.yul\":4280:4286   */\n      dup1\n        /* \"#utility.yul\":4288:4294   */\n      0x00\n        /* \"#utility.yul\":4296:4302   */\n      dup1\n        /* \"#utility.yul\":4304:4310   */\n      0x00\n        /* \"#utility.yul\":4357:4360   */\n      0xe0\n        /* \"#utility.yul\":4345:4354   */\n      dup9\n        /* \"#utility.yul\":4336:4343   */\n      dup11\n        /* \"#utility.yul\":4332:4355   */\n      sub\n        /* \"#utility.yul\":4328:4361   */\n      slt\n        /* \"#utility.yul\":4325:4378   */\n      iszero\n      tag_585\n      jumpi\n        /* \"#utility.yul\":4374:4375   */\n      0x00\n        /* \"#utility.yul\":4371:4372   */\n      dup1\n        /* \"#utility.yul\":4364:4376   */\n      revert\n        /* \"#utility.yul\":4325:4378   */\n    tag_585:\n        /* \"#utility.yul\":4397:4426   */\n      tag_586\n        /* \"#utility.yul\":4416:4425   */\n      dup9\n        /* \"#utility.yul\":4397:4426   */\n      tag_546\n      jump\t// in\n    tag_586:\n        /* \"#utility.yul\":4387:4426   */\n      swap7\n      pop\n        /* \"#utility.yul\":4445:4483   */\n      tag_587\n        /* \"#utility.yul\":4479:4481   */\n      0x20\n        /* \"#utility.yul\":4468:4477   */\n      dup10\n        /* \"#utility.yul\":4464:4482   */\n      add\n        /* \"#utility.yul\":4445:4483   */\n      tag_546\n      jump\t// in\n    tag_587:\n        /* \"#utility.yul\":4435:4483   */\n      swap6\n      pop\n        /* \"#utility.yul\":4530:4532   */\n      0x40\n        /* \"#utility.yul\":4519:4528   */\n      dup9\n        /* \"#utility.yul\":4515:4533   */\n      add\n        /* \"#utility.yul\":4502:4534   */\n      calldataload\n        /* \"#utility.yul\":4492:4534   */\n      swap5\n      pop\n        /* \"#utility.yul\":4581:4583   */\n      0x60\n        /* \"#utility.yul\":4570:4579   */\n      dup9\n        /* \"#utility.yul\":4566:4584   */\n      add\n        /* \"#utility.yul\":4553:4585   */\n      calldataload\n        /* \"#utility.yul\":4543:4585   */\n      swap4\n      pop\n        /* \"#utility.yul\":4635:4638   */\n      0x80\n        /* \"#utility.yul\":4624:4633   */\n      dup9\n        /* \"#utility.yul\":4620:4639   */\n      add\n        /* \"#utility.yul\":4607:4640   */\n      calldataload\n        /* \"#utility.yul\":4680:4684   */\n      0xff\n        /* \"#utility.yul\":4673:4678   */\n      dup2\n        /* \"#utility.yul\":4669:4685   */\n      and\n        /* \"#utility.yul\":4662:4667   */\n      dup2\n        /* \"#utility.yul\":4659:4686   */\n      eq\n        /* \"#utility.yul\":4649:4704   */\n      tag_588\n      jumpi\n        /* \"#utility.yul\":4700:4701   */\n      0x00\n        /* \"#utility.yul\":4697:4698   */\n      dup1\n        /* \"#utility.yul\":4690:4702   */\n      revert\n        /* \"#utility.yul\":4649:4704   */\n    tag_588:\n        /* \"#utility.yul\":4145:4838   */\n      swap7\n      swap10\n      swap6\n      swap9\n      pop\n      swap4\n      swap7\n      swap3\n      swap6\n        /* \"#utility.yul\":4723:4728   */\n      swap5\n        /* \"#utility.yul\":4775:4778   */\n      0xa0\n        /* \"#utility.yul\":4760:4779   */\n      dup5\n      add\n        /* \"#utility.yul\":4747:4780   */\n      calldataload\n      swap5\n      pop\n        /* \"#utility.yul\":4827:4830   */\n      0xc0\n        /* \"#utility.yul\":4812:4831   */\n      swap1\n      swap4\n      add\n        /* \"#utility.yul\":4799:4832   */\n      calldataload\n      swap3\n        /* \"#utility.yul\":4145:4838   */\n      swap2\n      pop\n      pop\n      jump\t// out\n        /* \"#utility.yul\":5660:5787   */\n    tag_547:\n        /* \"#utility.yul\":5721:5731   */\n      0x4e487b71\n        /* \"#utility.yul\":5716:5719   */\n      0xe0\n        /* \"#utility.yul\":5712:5732   */\n      shl\n        /* \"#utility.yul\":5709:5710   */\n      0x00\n        /* \"#utility.yul\":5702:5733   */\n      mstore\n        /* \"#utility.yul\":5752:5756   */\n      0x11\n        /* \"#utility.yul\":5749:5750   */\n      0x04\n        /* \"#utility.yul\":5742:5757   */\n      mstore\n        /* \"#utility.yul\":5776:5780   */\n      0x24\n        /* \"#utility.yul\":5773:5774   */\n      0x00\n        /* \"#utility.yul\":5766:5781   */\n      revert\n        /* \"#utility.yul\":5792:5960   */\n    tag_174:\n        /* \"#utility.yul\":5865:5874   */\n      dup1\n      dup3\n      mul\n        /* \"#utility.yul\":5896:5905   */\n      dup2\n      iszero\n        /* \"#utility.yul\":5913:5928   */\n      dup3\n      dup3\n      div\n        /* \"#utility.yul\":5907:5929   */\n      dup5\n      eq\n        /* \"#utility.yul\":5893:5930   */\n      or\n        /* \"#utility.yul\":5883:5954   */\n      tag_189\n      jumpi\n        /* \"#utility.yul\":5934:5952   */\n      tag_189\n      tag_547\n      jump\t// in\n        /* \"#utility.yul\":5965:6090   */\n    tag_178:\n        /* \"#utility.yul\":6030:6039   */\n      dup1\n      dup3\n      add\n        /* \"#utility.yul\":6051:6061   */\n      dup1\n      dup3\n      gt\n        /* \"#utility.yul\":6048:6084   */\n      iszero\n      tag_189\n      jumpi\n        /* \"#utility.yul\":6064:6082   */\n      tag_189\n      tag_547\n      jump\t// in\n        /* \"#utility.yul\":6095:6222   */\n    tag_548:\n        /* \"#utility.yul\":6156:6166   */\n      0x4e487b71\n        /* \"#utility.yul\":6151:6154   */\n      0xe0\n        /* \"#utility.yul\":6147:6167   */\n      shl\n        /* \"#utility.yul\":6144:6145   */\n      0x00\n        /* \"#utility.yul\":6137:6168   */\n      mstore\n        /* \"#utility.yul\":6187:6191   */\n      0x12\n        /* \"#utility.yul\":6184:6185   */\n      0x04\n        /* \"#utility.yul\":6177:6192   */\n      mstore\n        /* \"#utility.yul\":6211:6215   */\n      0x24\n        /* \"#utility.yul\":6208:6209   */\n      0x00\n        /* \"#utility.yul\":6201:6216   */\n      revert\n        /* \"#utility.yul\":6227:6347   */\n    tag_180:\n        /* \"#utility.yul\":6267:6268   */\n      0x00\n        /* \"#utility.yul\":6293:6294   */\n      dup3\n        /* \"#utility.yul\":6283:6318   */\n      tag_601\n      jumpi\n        /* \"#utility.yul\":6298:6316   */\n      tag_601\n      tag_548\n      jump\t// in\n    tag_601:\n      pop\n        /* \"#utility.yul\":6332:6341   */\n      div\n      swap1\n        /* \"#utility.yul\":6227:6347   */\n      jump\t// out\n        /* \"#utility.yul\":6352:6692   */\n    tag_186:\n        /* \"#utility.yul\":6554:6556   */\n      0x20\n        /* \"#utility.yul\":6536:6557   */\n      dup1\n      dup3\n      mstore\n        /* \"#utility.yul\":6593:6595   */\n      0x10\n        /* \"#utility.yul\":6573:6591   */\n      swap1\n      dup3\n      add\n        /* \"#utility.yul\":6566:6596   */\n      mstore\n      shl(0x81, 0x2932b8bab4b9329037b832b930ba37b9)\n        /* \"#utility.yul\":6627:6629   */\n      0x40\n        /* \"#utility.yul\":6612:6630   */\n      dup3\n      add\n        /* \"#utility.yul\":6605:6651   */\n      mstore\n        /* \"#utility.yul\":6683:6685   */\n      0x60\n        /* \"#utility.yul\":6668:6686   */\n      add\n      swap1\n        /* \"#utility.yul\":6352:6692   */\n      jump\t// out\n        /* \"#utility.yul\":6697:6825   */\n    tag_199:\n        /* \"#utility.yul\":6764:6773   */\n      dup2\n      dup2\n      sub\n        /* \"#utility.yul\":6785:6796   */\n      dup2\n      dup2\n      gt\n        /* \"#utility.yul\":6782:6819   */\n      iszero\n      tag_189\n      jumpi\n        /* \"#utility.yul\":6799:6817   */\n      tag_189\n      tag_547\n      jump\t// in\n        /* \"#utility.yul\":7177:7516   */\n    tag_211:\n        /* \"#utility.yul\":7379:7381   */\n      0x20\n        /* \"#utility.yul\":7361:7382   */\n      dup1\n      dup3\n      mstore\n        /* \"#utility.yul\":7418:7420   */\n      0x0f\n        /* \"#utility.yul\":7398:7416   */\n      swap1\n      dup3\n      add\n        /* \"#utility.yul\":7391:7421   */\n      mstore\n      shl(0x8a, 0x14185b98d85ad94e881313d0d2d151)\n        /* \"#utility.yul\":7452:7454   */\n      0x40\n        /* \"#utility.yul\":7437:7455   */\n      dup3\n      add\n        /* \"#utility.yul\":7430:7475   */\n      mstore\n        /* \"#utility.yul\":7507:7509   */\n      0x60\n        /* \"#utility.yul\":7492:7510   */\n      add\n      swap1\n        /* \"#utility.yul\":7177:7516   */\n      jump\t// out\n        /* \"#utility.yul\":7521:7705   */\n    tag_223:\n        /* \"#utility.yul\":7591:7597   */\n      0x00\n        /* \"#utility.yul\":7644:7646   */\n      0x20\n        /* \"#utility.yul\":7632:7641   */\n      dup3\n        /* \"#utility.yul\":7623:7630   */\n      dup5\n        /* \"#utility.yul\":7619:7642   */\n      sub\n        /* \"#utility.yul\":7615:7647   */\n      slt\n        /* \"#utility.yul\":7612:7664   */\n      iszero\n      tag_609\n      jumpi\n        /* \"#utility.yul\":7660:7661   */\n      0x00\n        /* \"#utility.yul\":7657:7658   */\n      dup1\n        /* \"#utility.yul\":7650:7662   */\n      revert\n        /* \"#utility.yul\":7612:7664   */\n    tag_609:\n      pop\n        /* \"#utility.yul\":7683:7699   */\n      mload\n      swap2\n        /* \"#utility.yul\":7521:7705   */\n      swap1\n      pop\n      jump\t// out\n        /* \"#utility.yul\":11154:11431   */\n    tag_372:\n        /* \"#utility.yul\":11221:11227   */\n      0x00\n        /* \"#utility.yul\":11274:11276   */\n      0x20\n        /* \"#utility.yul\":11262:11271   */\n      dup3\n        /* \"#utility.yul\":11253:11260   */\n      dup5\n        /* \"#utility.yul\":11249:11272   */\n      sub\n        /* \"#utility.yul\":11245:11277   */\n      slt\n        /* \"#utility.yul\":11242:11294   */\n      iszero\n      tag_620\n      jumpi\n        /* \"#utility.yul\":11290:11291   */\n      0x00\n        /* \"#utility.yul\":11287:11288   */\n      dup1\n        /* \"#utility.yul\":11280:11292   */\n      revert\n        /* \"#utility.yul\":11242:11294   */\n    tag_620:\n        /* \"#utility.yul\":11322:11331   */\n      dup2\n        /* \"#utility.yul\":11316:11332   */\n      mload\n        /* \"#utility.yul\":11375:11380   */\n      dup1\n        /* \"#utility.yul\":11368:11381   */\n      iszero\n        /* \"#utility.yul\":11361:11382   */\n      iszero\n        /* \"#utility.yul\":11354:11359   */\n      dup2\n        /* \"#utility.yul\":11351:11383   */\n      eq\n        /* \"#utility.yul\":11341:11401   */\n      tag_494\n      jumpi\n        /* \"#utility.yul\":11397:11398   */\n      0x00\n        /* \"#utility.yul\":11394:11395   */\n      dup1\n        /* \"#utility.yul\":11387:11399   */\n      revert\n        /* \"#utility.yul\":11781:11916   */\n    tag_407:\n        /* \"#utility.yul\":11820:11823   */\n      0x00\n        /* \"#utility.yul\":11841:11858   */\n      0x01\n      dup3\n      add\n        /* \"#utility.yul\":11838:11881   */\n      tag_625\n      jumpi\n        /* \"#utility.yul\":11861:11879   */\n      tag_625\n      tag_547\n      jump\t// in\n    tag_625:\n      pop\n        /* \"#utility.yul\":11908:11909   */\n      0x01\n        /* \"#utility.yul\":11897:11910   */\n      add\n      swap1\n        /* \"#utility.yul\":11781:11916   */\n      jump\t// out\n        /* \"#utility.yul\":14786:14898   */\n    tag_501:\n        /* \"#utility.yul\":14818:14819   */\n      0x00\n        /* \"#utility.yul\":14844:14845   */\n      dup3\n        /* \"#utility.yul\":14834:14869   */\n      tag_635\n      jumpi\n        /* \"#utility.yul\":14849:14867   */\n      tag_635\n      tag_548\n      jump\t// in\n    tag_635:\n      pop\n        /* \"#utility.yul\":14883:14892   */\n      mod\n      swap1\n        /* \"#utility.yul\":14786:14898   */\n      jump\t// out\n        /* \"#utility.yul\":14903:15078   */\n    tag_503:\n        /* \"#utility.yul\":14971:14981   */\n      0xffffffff\n        /* \"#utility.yul\":15014:15024   */\n      dup3\n      dup2\n      and\n        /* \"#utility.yul\":15002:15012   */\n      dup3\n      dup3\n      and\n        /* \"#utility.yul\":14998:15025   */\n      sub\n      swap1\n        /* \"#utility.yul\":15037:15049   */\n      dup1\n      dup3\n      gt\n        /* \"#utility.yul\":15034:15072   */\n      iszero\n      tag_638\n      jumpi\n        /* \"#utility.yul\":15052:15070   */\n      tag_638\n      tag_547\n      jump\t// in\n    tag_638:\n        /* \"#utility.yul\":15034:15072   */\n      pop\n        /* \"#utility.yul\":14903:15078   */\n      swap3\n      swap2\n      pop\n      pop\n      jump\t// out\n        /* \"#utility.yul\":15671:15958   */\n    tag_523:\n        /* \"#utility.yul\":15800:15803   */\n      0x00\n        /* \"#utility.yul\":15838:15844   */\n      dup3\n        /* \"#utility.yul\":15832:15845   */\n      mload\n        /* \"#utility.yul\":15854:15920   */\n      tag_642\n        /* \"#utility.yul\":15913:15919   */\n      dup2\n        /* \"#utility.yul\":15908:15911   */\n      dup5\n        /* \"#utility.yul\":15901:15905   */\n      0x20\n        /* \"#utility.yul\":15893:15899   */\n      dup8\n        /* \"#utility.yul\":15889:15906   */\n      add\n        /* \"#utility.yul\":15854:15920   */\n      tag_545\n      jump\t// in\n    tag_642:\n        /* \"#utility.yul\":15936:15952   */\n      swap2\n      swap1\n      swap2\n      add\n      swap3\n        /* \"#utility.yul\":15671:15958   */\n      swap2\n      pop\n      pop\n      jump\t// out\n        /* \"#utility.yul\":16316:16601   */\n    tag_541:\n      sub(shl(0xe0, 0x01), 0x01)\n        /* \"#utility.yul\":16457:16467   */\n      dup3\n      dup2\n      and\n        /* \"#utility.yul\":16427:16437   */\n      dup3\n      dup3\n      and\n        /* \"#utility.yul\":16491:16504   */\n      dup2\n      dup2\n      mul\n        /* \"#utility.yul\":16487:16509   */\n      dup4\n      and\n      swap3\n        /* \"#utility.yul\":16388:16407   */\n      swap2\n        /* \"#utility.yul\":16531:16542   */\n      dup2\n      iszero\n        /* \"#utility.yul\":16552:16569   */\n      dup3\n      dup6\n      div\n        /* \"#utility.yul\":16544:16570   */\n      dup3\n      eq\n        /* \"#utility.yul\":16528:16571   */\n      or\n        /* \"#utility.yul\":16518:16595   */\n      tag_646\n      jumpi\n        /* \"#utility.yul\":16575:16593   */\n      tag_646\n      tag_547\n      jump\t// in\n    tag_646:\n        /* \"#utility.yul\":16518:16595   */\n      pop\n      pop\n      pop\n        /* \"#utility.yul\":16316:16601   */\n      swap3\n      swap2\n      pop\n      pop\n      jump\t// out\n        /* \"#utility.yul\":16606:16807   */\n    tag_544:\n        /* \"#utility.yul\":16646:16647   */\n      0x00\n      sub(shl(0xe0, 0x01), 0x01)\n        /* \"#utility.yul\":16711:16721   */\n      dup4\n      dup2\n      and\n      dup1\n        /* \"#utility.yul\":16730:16767   */\n      tag_649\n      jumpi\n        /* \"#utility.yul\":16747:16765   */\n      tag_649\n      tag_548\n      jump\t// in\n    tag_649:\n        /* \"#utility.yul\":16785:16795   */\n      swap3\n      and\n        /* \"#utility.yul\":16781:16801   */\n      swap2\n      swap1\n      swap2\n      div\n      swap3\n        /* \"#utility.yul\":16606:16807   */\n      swap2\n      pop\n      pop\n      jump\t// out\n    stop\n    data_8cff704e589f5cb9b76570ebadc5754a50c8bcdf8a70a74d00e0daec2756120b 50616e63616b653a20494e53554646494349454e545f4c49515549444954595f\n    data_a2c6638bd4e25e30f6e426bf2b943f7db693fc3820b21a30fe2c720fec0a3d65 dccd412f0b1252819cb1fd330b93224ca42612892bb3f4f789976e6d81936496\n    data_ada389e1fc24a8587c776340efb91b36e675792ab631816100d55df0b5cf3cbc ddf252ad1be2c89b69c2b068fc378daa952ba7f163c4a11628f55a4df523b3ef\n    data_b4fed60c705733c5d216919d6d57abcd8c83f719cc1324758064e128f361d7e4 6e71edae12b1b97f4d1f60370fef10105fa2faae0126114a169c64845d6126c9\n\n    auxdata: 0xa2646970667358221220e0e53b27763b72143fd899e9ab8a1076d2aa8ced637c4dd58837fa15ef3a802a64736f6c63430008140033\n}\n",
				"bytecode": {
					"linkReferences": {},
					"object": "60806040526001600d553480156200001657600080fd5b50604051620027bb380380620027bb8339810160408190526200003991620001f4565b60408051808201825260068152654143204c507360d01b6020918201528151808301835260018152603160f81b9082015281517f8b73c3c69bb8fe3d512ecc4cf759cc79239f7b179b0ffacaa9a75d522b39400f818301527fe95dfdeaafda5c67e59585f60bfd4b2de824d1c939d422829833a16a485abb54818401527fc89efdaa54c0f20c7adf612882df0950f5a951637e0307cdcb4c672f298b8bc660608201524660808201523060a0808301919091528351808303909101815260c09091019092528151910120600355620001113362000185565b600080836001600160a01b0316856001600160a01b0316106200013657838562000139565b84845b600780546001600160a01b039384166001600160a01b03199182161790915560088054928416928216929092179091556006805495909216941693909317909255506200023e92505050565b600580546001600160a01b038381166001600160a01b0319831681179093556040519116919082907f8be0079c531659141344cd1fd0a4f28419497f9722a3daafe3b4186f6b6457e090600090a35050565b80516001600160a01b0381168114620001ef57600080fd5b919050565b6000806000606084860312156200020a57600080fd5b6200021584620001d7565b92506200022560208501620001d7565b91506200023560408501620001d7565b90509250925092565b61256d806200024e6000396000f3fe608060405234801561001057600080fd5b50600436106101a15760003560e01c8063054d50d4146101a657806306fdde03146101cc578063080ce2eb146101fe5780630902f1ac14610208578063095ea7b31461023c5780630dfe16811461025f57806311c6e7411461027f57806318160ddd1461029257806323b872dd1461029b57806330adf81f146102ae578063313ce567146102c35780633644e515146102dd578063485cc955146102e65780635909c0d5146102f95780635a3d5493146103025780636a6278421461030b5780636d9a640a1461031e57806370a0823114610331578063715018a6146103515780637464fc3d146103595780637ecebe001461036257806389afcb44146103825780638da5cb5b146103aa57806395d89b41146103b2578063a1e15411146103d6578063a9059cbb146103e9578063ba9a7a56146103fc578063bc25cf7714610405578063c45a015514610418578063d21220a71461042b578063d505accf1461043e578063dd62ed3e14610451578063e840427d1461047c578063f2fde38b1461048f578063fff6cae9146104a2575b600080fd5b6101b96101b43660046120dd565b6104aa565b6040519081526020015b60405180910390f35b6101f1604051806040016040528060068152602001654143204c507360d01b81525081565b6040516101c3919061212d565b6102066105cb565b005b61021061061a565b604080516001600160701b03948516815293909216602084015263ffffffff16908201526060016101c3565b61024f61024a366004612177565b610644565b60405190151581526020016101c3565b600754610272906001600160a01b031681565b6040516101c391906121a1565b61020661028d3660046121b5565b61065b565b6101b960005481565b61024f6102a93660046121d0565b610685565b6101b960008051602061251883398151915281565b6102cb601281565b60405160ff90911681526020016101c3565b6101b960035481565b6102066102f436600461220c565b6106ff565b6101b9600a5481565b6101b9600b5481565b6101b96103193660046121b5565b610784565b61020661032c36600461223f565b610a5d565b6101b961033f3660046121b5565b60016020526000908152604090205481565b610206610f45565b6101b9600c5481565b6101b96103703660046121b5565b60046020526000908152604090205481565b6103956103903660046121b5565b610f57565b604080519283526020830191909152016101c3565b6102726112be565b6101f160405180604001604052806005815260200164041432d4c560dc1b81525081565b6101b96103e43660046121d0565b6112cd565b61024f6103f7366004612177565b611445565b6101b96103e881565b6102066104133660046121b5565b611452565b600654610272906001600160a01b031681565b600854610272906001600160a01b031681565b61020661044c366004612274565b6115b6565b6101b961045f36600461220c565b600260209081526000928352604080842090915290825290205481565b61020661048a36600461223f565b6117b3565b61020661049d3660046121b5565b61199f565b610206611a18565b60008084116105125760405162461bcd60e51b815260206004820152602960248201527f50616e63616b654c6962726172793a20494e53554646494349454e545f494e50604482015268155517d05353d5539560ba1b60648201526084015b60405180910390fd5b6000831180156105225750600082115b61057d5760405162461bcd60e51b815260206004820152602660248201527f50616e63616b654c6962726172793a20494e53554646494349454e545f4c495160448201526555494449545960d01b6064820152608401610509565b600061058b856103e66122fd565b9050600061059984836122fd565b90506000826105aa876103e86122fd565b6105b49190612314565b90506105c0818361233d565b979650505050505050565b6105d36112be565b6001600160a01b0316336001600160a01b031614806105fc57506006546001600160a01b031633145b6106185760405162461bcd60e51b815260040161050990612351565b565b6009546001600160701b0380821692600160701b830490911691600160e01b900463ffffffff1690565b6000610651338484611a78565b5060015b92915050565b610663611ada565b600680546001600160a01b0319166001600160a01b0392909216919091179055565b6001600160a01b0383166000908152600260209081526040808320338452909152812054600019146106ea576001600160a01b0384166000908152600260209081526040808320338452909152812080548492906106e490849061237b565b90915550505b6106f5848484611b39565b5060019392505050565b610707611ada565b6006546001600160a01b031633146107565760405162461bcd60e51b81526020600482015260126024820152712830b731b0b5b29d102327a92124a22222a760711b6044820152606401610509565b600780546001600160a01b039384166001600160a01b03199182161790915560088054929093169116179055565b6000600d546001146107a85760405162461bcd60e51b81526004016105099061238e565b6000600d556107b56112be565b6001600160a01b0316336001600160a01b031614806107de57506006546001600160a01b031633145b6107fa5760405162461bcd60e51b815260040161050990612351565b60008061080561061a565b506007546040516370a0823160e01b81529294509092506000916001600160a01b03909116906370a082319061083f9030906004016121a1565b602060405180830381865afa15801561085c573d6000803e3d6000fd5b505050506040513d601f19601f8201168201806040525081019061088091906123b7565b6008546040516370a0823160e01b81529192506000916001600160a01b03909116906370a08231906108b69030906004016121a1565b602060405180830381865afa1580156108d3573d6000803e3d6000fd5b505050506040513d601f19601f820116820180604052508101906108f791906123b7565b9050600061090e6001600160701b0386168461237b565b905060006109256001600160701b0386168461237b565b60008054919250819003610966576103e861094861094384866122fd565b611bc8565b610952919061237b565b975061096160006103e8611c38565b6109ad565b6109aa6001600160701b03881661097d83866122fd565b610987919061233d565b6001600160701b03881661099b84866122fd565b6109a5919061233d565b611ca9565b97505b600088116109fa5760405162461bcd60e51b815260206004820152602660248201526000805160206124b883398151915260448201526513525395115160d21b6064820152608401610509565b610a048989611c38565b610a1085858989611cc1565b604080518481526020810184905233917f4c209b5fc8ad50758f13e2e1088ba56a560dff690a1c6fef26394f4c03821c4f910160405180910390a250506001600d55509395945050505050565b610a656112be565b6001600160a01b0316336001600160a01b03161480610a8e57506006546001600160a01b031633145b610aaa5760405162461bcd60e51b815260040161050990612351565b600d54600114610acc5760405162461bcd60e51b81526004016105099061238e565b6000600d5582151580610adf5750600082115b610b375760405162461bcd60e51b815260206004820152602360248201527f50616e63616b653a20494e53554646494349454e545f4f55545055545f414d4f60448201526215539560ea1b6064820152608401610509565b600080610b4261061a565b5091509150816001600160701b031685108015610b675750806001600160701b031684105b610bb35760405162461bcd60e51b815260206004820152601f60248201527f50616e63616b653a20494e53554646494349454e545f4c4951554944495459006044820152606401610509565b60075460085460009182916001600160a01b03918216919081169087168214801590610bf15750806001600160a01b0316876001600160a01b031614155b610c335760405162461bcd60e51b815260206004820152601360248201527250616e63616b653a20494e56414c49445f544f60681b6044820152606401610509565b8815610c4457610c4482888b611eaa565b8715610c5557610c5581888a611eaa565b6040516370a0823160e01b81526001600160a01b038316906370a0823190610c819030906004016121a1565b602060405180830381865afa158015610c9e573d6000803e3d6000fd5b505050506040513d601f19601f82011682018060405250810190610cc291906123b7565b6040516370a0823160e01b81529094506001600160a01b038216906370a0823190610cf19030906004016121a1565b602060405180830381865afa158015610d0e573d6000803e3d6000fd5b505050506040513d601f19601f82011682018060405250810190610d3291906123b7565b92505050600087856001600160701b0316610d4d919061237b565b8311610d5a576000610d77565b610d6d886001600160701b03871661237b565b610d77908461237b565b90506000610d8e886001600160701b03871661237b565b8311610d9b576000610db8565b610dae886001600160701b03871661237b565b610db8908461237b565b90506000821180610dc95750600081115b610e205760405162461bcd60e51b815260206004820152602260248201527f50616e63616b653a20494e53554646494349454e545f494e5055545f414d4f55604482015261139560f21b6064820152608401610509565b6000610e2d8360026122fd565b610e39866103e86122fd565b610e43919061237b565b90506000610e528360026122fd565b610e5e866103e86122fd565b610e68919061237b565b9050610e806001600160701b03808916908a166122fd565b610e8d90620f42406122fd565b610e9782846122fd565b1015610ed25760405162461bcd60e51b815260206004820152600a60248201526950616e63616b653a204b60b01b6044820152606401610509565b5050610ee084848888611cc1565b60408051838152602081018390529081018a9052606081018990526001600160a01b0388169033907fd78ad95fa46c994b6551d0da85fc275fe613ce37657fb8d5e3d130840159d8229060800160405180910390a350506001600d5550505050505050565b610f4d611ada565b6106186000611fec565b600080600d54600114610f7c5760405162461bcd60e51b81526004016105099061238e565b6000600d55610f896112be565b6001600160a01b0316336001600160a01b03161480610fb257506006546001600160a01b031633145b610fce5760405162461bcd60e51b815260040161050990612351565b600080610fd961061a565b506007546008546040516370a0823160e01b81529395509193506001600160a01b039081169291169060009083906370a082319061101b9030906004016121a1565b602060405180830381865afa158015611038573d6000803e3d6000fd5b505050506040513d601f19601f8201168201806040525081019061105c91906123b7565b90506000826001600160a01b03166370a08231306040518263ffffffff1660e01b815260040161108c91906121a1565b602060405180830381865afa1580156110a9573d6000803e3d6000fd5b505050506040513d601f19601f820116820180604052508101906110cd91906123b7565b30600090815260016020526040812054905491925090806110ee85846122fd565b6110f8919061233d565b99508061110584846122fd565b61110f919061233d565b985060008a1180156111215750600089115b61116a5760405162461bcd60e51b815260206004820152602660248201526000805160206124b883398151915260448201526510955493915160d21b6064820152608401610509565b611174308361203e565b61117f868c8c611eaa565b61118a858c8b611eaa565b6040516370a0823160e01b81526001600160a01b038716906370a08231906111b69030906004016121a1565b602060405180830381865afa1580156111d3573d6000803e3d6000fd5b505050506040513d601f19601f820116820180604052508101906111f791906123b7565b6040516370a0823160e01b81529094506001600160a01b038616906370a08231906112269030906004016121a1565b602060405180830381865afa158015611243573d6000803e3d6000fd5b505050506040513d601f19601f8201168201806040525081019061126791906123b7565b925061127584848a8a611cc1565b604080518b8152602081018b90526001600160a01b038d169133916000805160206124d8833981519152910160405180910390a350505050505050506001600d81905550915091565b6005546001600160a01b031690565b60006112d76112be565b6001600160a01b0316336001600160a01b0316148061130057506006546001600160a01b031633145b61131c5760405162461bcd60e51b815260040161050990612351565b6040516323b872dd60e01b8152336004820152306024820152604481018390526001600160a01b038516906323b872dd906064016020604051808303816000875af115801561136f573d6000803e3d6000fd5b505050506040513d601f19601f8201168201806040525081019061139391906123d0565b5060075460009081906001600160a01b038781169116146113c9576009546001600160701b03600160701b8204811691166113e1565b6009546001600160701b0380821691600160701b9004165b6001600160701b031691506001600160701b031691506114028483836104aa565b60075490935060009081906001600160a01b038981169116146114275784600061142b565b6000855b9150915061143a828289610a5d565b505050509392505050565b6000610651338484611b39565b61145a6112be565b6001600160a01b0316336001600160a01b0316148061148357506006546001600160a01b031633145b61149f5760405162461bcd60e51b815260040161050990612351565b600d546001146114c15760405162461bcd60e51b81526004016105099061238e565b6000600d556007546008546009546040516370a0823160e01b81526001600160a01b03938416939092169161156491849186916001600160701b03169083906370a08231906115149030906004016121a1565b602060405180830381865afa158015611531573d6000803e3d6000fd5b505050506040513d601f19601f8201168201806040525081019061155591906123b7565b61155f919061237b565b611eaa565b6009546040516370a0823160e01b81526115ac9183918691600160701b90046001600160701b0316906001600160a01b038416906370a08231906115149030906004016121a1565b50506001600d5550565b428410156115f95760405162461bcd60e51b815260206004820152601060248201526f14185b98d85ad94e881156141254915160821b6044820152606401610509565b6003546001600160a01b03881660009081526004602052604081208054919291600080516020612518833981519152918b918b918b91908761163a836123f2565b909155506040805160208101969096526001600160a01b0394851690860152929091166060840152608083015260a082015260c0810187905260e001604051602081830303815290604052805190602001206040516020016116b392919061190160f01b81526002810192909252602282015260420190565b60408051601f198184030181528282528051602091820120600080855291840180845281905260ff88169284019290925260608301869052608083018590529092509060019060a0016020604051602081039080840390855afa15801561171e573d6000803e3d6000fd5b5050604051601f1901519150506001600160a01b038116158015906117545750886001600160a01b0316816001600160a01b0316145b61179d5760405162461bcd60e51b815260206004820152601a60248201527950616e63616b653a20494e56414c49445f5349474e415455524560301b6044820152606401610509565b6117a8898989611a78565b505050505050505050565b600d546001146117d55760405162461bcd60e51b81526004016105099061238e565b6000600d556117e26112be565b6001600160a01b0316336001600160a01b0316148061180b57506006546001600160a01b031633145b6118275760405162461bcd60e51b815260040161050990612351565b821561184457600754611844906001600160a01b03168285611eaa565b811561186157600854611861906001600160a01b03168284611eaa565b6007546040516370a0823160e01b8152611961916001600160a01b0316906370a08231906118939030906004016121a1565b602060405180830381865afa1580156118b0573d6000803e3d6000fd5b505050506040513d601f19601f820116820180604052508101906118d491906123b7565b6008546040516370a0823160e01b81526001600160a01b03909116906370a08231906119049030906004016121a1565b602060405180830381865afa158015611921573d6000803e3d6000fd5b505050506040513d601f19601f8201168201806040525081019061194591906123b7565b6009546001600160701b0380821691600160701b900416611cc1565b60408051848152602081018490526001600160a01b0383169133916000805160206124d8833981519152910160405180910390a350506001600d5550565b6119a7611ada565b6001600160a01b038116611a0c5760405162461bcd60e51b815260206004820152602660248201527f4f776e61626c653a206e6577206f776e657220697320746865207a65726f206160448201526564647265737360d01b6064820152608401610509565b611a1581611fec565b50565b600d54600114611a3a5760405162461bcd60e51b81526004016105099061238e565b6000600d556007546040516370a0823160e01b8152611a71916001600160a01b0316906370a08231906118939030906004016121a1565b6001600d55565b6001600160a01b0383811660008181526002602090815260408083209487168084529482529182902085905590518481527f8c5be1e5ebec7d5bd14f71427d1e84f3dd0314c0f7b2291e5b200ac8c7c3b92591015b60405180910390a3505050565b33611ae36112be565b6001600160a01b0316146106185760405162461bcd60e51b815260206004820181905260248201527f4f776e61626c653a2063616c6c6572206973206e6f7420746865206f776e65726044820152606401610509565b6001600160a01b03831660009081526001602052604081208054839290611b6190849061237b565b90915550506001600160a01b03821660009081526001602052604081208054839290611b8e908490612314565b92505081905550816001600160a01b0316836001600160a01b03166000805160206124f883398151915283604051611acd91815260200190565b60006003821115611c295750806000611be260028361233d565b611bed906001612314565b90505b81811015611c2357905080600281611c08818661233d565b611c129190612314565b611c1c919061233d565b9050611bf0565b50919050565b8115611c33575060015b919050565b80600054611c469190612314565b60009081556001600160a01b03831681526001602052604081208054839290611c70908490612314565b90915550506040518181526001600160a01b038316906000906000805160206124f8833981519152906020015b60405180910390a35050565b6000818310611cb85781611cba565b825b9392505050565b6001600160701b038411801590611cdf57506001600160701b038311155b611d1f5760405162461bcd60e51b815260206004820152601160248201527050616e63616b653a204f564552464c4f5760781b6044820152606401610509565b6000611d2f600160201b4261240b565b600954909150600090611d4f90600160e01b900463ffffffff168361241f565b905060008163ffffffff16118015611d6f57506001600160701b03841615155b8015611d8357506001600160701b03831615155b15611e12578063ffffffff16611dab85611d9c866120af565b6001600160e01b0316906120c8565b6001600160e01b0316611dbe91906122fd565b600a6000828254611dcf9190612314565b909155505063ffffffff8116611de884611d9c876120af565b6001600160e01b0316611dfb91906122fd565b600b6000828254611e0c9190612314565b90915550505b6009805463ffffffff8416600160e01b026001600160e01b036001600160701b03898116600160701b9081026001600160e01b03199095168c83161794909417918216831794859055604080519382169282169290921783529290930490911660208201527f1c411e9a96e071241c2f21f7726b17ae89e3cab4c78be50e062b03a9fffbbad1910160405180910390a1505050505050565b60408051808201825260198152787472616e7366657228616464726573732c75696e743235362960381b60209182015281516001600160a01b0385811660248301526044808301869052845180840390910181526064909201845291810180516001600160e01b031663a9059cbb60e01b17905291516000928392871691611f329190612443565b6000604051808303816000865af19150503d8060008114611f6f576040519150601f19603f3d011682016040523d82523d6000602084013e611f74565b606091505b5091509150818015611f9e575080511580611f9e575080806020019051810190611f9e91906123d0565b611fe55760405162461bcd60e51b815260206004820152601860248201527714185b98d85ad94e881514905394d1915497d1905253115160421b6044820152606401610509565b5050505050565b600580546001600160a01b038381166001600160a01b0319831681179093556040519116919082907f8be0079c531659141344cd1fd0a4f28419497f9722a3daafe3b4186f6b6457e090600090a35050565b6001600160a01b0382166000908152600160205260408120805483929061206690849061237b565b925050819055508060008082825461207e919061237b565b90915550506040518181526000906001600160a01b038416906000805160206124f883398151915290602001611c9d565b6000610655600160701b6001600160701b03841661245f565b6000611cba6001600160701b03831684612491565b6000806000606084860312156120f257600080fd5b505081359360208301359350604090920135919050565b60005b8381101561212457818101518382015260200161210c565b50506000910152565b602081526000825180602084015261214c816040850160208701612109565b601f01601f19169190910160400192915050565b80356001600160a01b0381168114611c3357600080fd5b6000806040838503121561218a57600080fd5b61219383612160565b946020939093013593505050565b6001600160a01b0391909116815260200190565b6000602082840312156121c757600080fd5b611cba82612160565b6000806000606084860312156121e557600080fd5b6121ee84612160565b92506121fc60208501612160565b9150604084013590509250925092565b6000806040838503121561221f57600080fd5b61222883612160565b915061223660208401612160565b90509250929050565b60008060006060848603121561225457600080fd5b833592506020840135915061226b60408501612160565b90509250925092565b600080600080600080600060e0888a03121561228f57600080fd5b61229888612160565b96506122a660208901612160565b95506040880135945060608801359350608088013560ff811681146122ca57600080fd5b9699959850939692959460a0840135945060c09093013592915050565b634e487b7160e01b600052601160045260246000fd5b8082028115828204841417610655576106556122e7565b80820180821115610655576106556122e7565b634e487b7160e01b600052601260045260246000fd5b60008261234c5761234c612327565b500490565b60208082526010908201526f2932b8bab4b9329037b832b930ba37b960811b604082015260600190565b81810381811115610655576106556122e7565b6020808252600f908201526e14185b98d85ad94e881313d0d2d151608a1b604082015260600190565b6000602082840312156123c957600080fd5b5051919050565b6000602082840312156123e257600080fd5b81518015158114611cba57600080fd5b600060018201612404576124046122e7565b5060010190565b60008261241a5761241a612327565b500690565b63ffffffff82811682821603908082111561243c5761243c6122e7565b5092915050565b60008251612455818460208701612109565b9190910192915050565b6001600160e01b03828116828216818102831692918115828504821417612488576124886122e7565b50505092915050565b60006001600160e01b03838116806124ab576124ab612327565b9216919091049291505056fe50616e63616b653a20494e53554646494349454e545f4c49515549444954595fdccd412f0b1252819cb1fd330b93224ca42612892bb3f4f789976e6d81936496ddf252ad1be2c89b69c2b068fc378daa952ba7f163c4a11628f55a4df523b3ef6e71edae12b1b97f4d1f60370fef10105fa2faae0126114a169c64845d6126c9a2646970667358221220e0e53b27763b72143fd899e9ab8a1076d2aa8ced637c4dd58837fa15ef3a802a64736f6c63430008140033",
					"opcodes": "PUSH1 0x80 PUSH1 0x40 MSTORE PUSH1 0x1 PUSH1 0xD SSTORE CALLVALUE DUP1 ISZERO PUSH3 0x16 JUMPI PUSH1 0x0 DUP1 REVERT JUMPDEST POP PUSH1 0x40 MLOAD PUSH3 0x27BB CODESIZE SUB DUP1 PUSH3 0x27BB DUP4 CODECOPY DUP2 ADD PUSH1 0x40 DUP2 SWAP1 MSTORE PUSH3 0x39 SWAP2 PUSH3 0x1F4 JUMP JUMPDEST PUSH1 0x40 DUP1 MLOAD DUP1 DUP3 ADD DUP3 MSTORE PUSH1 0x6 DUP2 MSTORE PUSH6 0x4143204C5073 PUSH1 0xD0 SHL PUSH1 0x20 SWAP2 DUP3 ADD MSTORE DUP2 MLOAD DUP1 DUP4 ADD DUP4 MSTORE PUSH1 0x1 DUP2 MSTORE PUSH1 0x31 PUSH1 0xF8 SHL SWAP1 DUP3 ADD MSTORE DUP2 MLOAD PUSH32 0x8B73C3C69BB8FE3D512ECC4CF759CC79239F7B179B0FFACAA9A75D522B39400F DUP2 DUP4 ADD MSTORE PUSH32 0xE95DFDEAAFDA5C67E59585F60BFD4B2DE824D1C939D422829833A16A485ABB54 DUP2 DUP5 ADD MSTORE PUSH32 0xC89EFDAA54C0F20C7ADF612882DF0950F5A951637E0307CDCB4C672F298B8BC6 PUSH1 0x60 DUP3 ADD MSTORE CHAINID PUSH1 0x80 DUP3 ADD MSTORE ADDRESS PUSH1 0xA0 DUP1 DUP4 ADD SWAP2 SWAP1 SWAP2 MSTORE DUP4 MLOAD DUP1 DUP4 SUB SWAP1 SWAP2 ADD DUP2 MSTORE PUSH1 0xC0 SWAP1 SWAP2 ADD SWAP1 SWAP3 MSTORE DUP2 MLOAD SWAP2 ADD KECCAK256 PUSH1 0x3 SSTORE PUSH3 0x111 CALLER PUSH3 0x185 JUMP JUMPDEST PUSH1 0x0 DUP1 DUP4 PUSH1 0x1 PUSH1 0x1 PUSH1 0xA0 SHL SUB AND DUP6 PUSH1 0x1 PUSH1 0x1 PUSH1 0xA0 SHL SUB AND LT PUSH3 0x136 JUMPI DUP4 DUP6 PUSH3 0x139 JUMP JUMPDEST DUP5 DUP5 JUMPDEST PUSH1 0x7 DUP1 SLOAD PUSH1 0x1 PUSH1 0x1 PUSH1 0xA0 SHL SUB SWAP4 DUP5 AND PUSH1 0x1 PUSH1 0x1 PUSH1 0xA0 SHL SUB NOT SWAP2 DUP3 AND OR SWAP1 SWAP2 SSTORE PUSH1 0x8 DUP1 SLOAD SWAP3 DUP5 AND SWAP3 DUP3 AND SWAP3 SWAP1 SWAP3 OR SWAP1 SWAP2 SSTORE PUSH1 0x6 DUP1 SLOAD SWAP6 SWAP1 SWAP3 AND SWAP5 AND SWAP4 SWAP1 SWAP4 OR SWAP1 SWAP3 SSTORE POP PUSH3 0x23E SWAP3 POP POP POP JUMP JUMPDEST PUSH1 0x5 DUP1 SLOAD PUSH1 0x1 PUSH1 0x1 PUSH1 0xA0 SHL SUB DUP4 DUP2 AND PUSH1 0x1 PUSH1 0x1 PUSH1 0xA0 SHL SUB NOT DUP4 AND DUP2 OR SWAP1 SWAP4 SSTORE PUSH1 0x40 MLOAD SWAP2 AND SWAP2 SWAP1 DUP3 SWAP1 PUSH32 0x8BE0079C531659141344CD1FD0A4F28419497F9722A3DAAFE3B4186F6B6457E0 SWAP1 PUSH1 0x0 SWAP1 LOG3 POP POP JUMP JUMPDEST DUP1 MLOAD PUSH1 0x1 PUSH1 0x1 PUSH1 0xA0 SHL SUB DUP2 AND DUP2 EQ PUSH3 0x1EF JUMPI PUSH1 0x0 DUP1 REVERT JUMPDEST SWAP2 SWAP1 POP JUMP JUMPDEST PUSH1 0x0 DUP1 PUSH1 0x0 PUSH1 0x60 DUP5 DUP7 SUB SLT ISZERO PUSH3 0x20A JUMPI PUSH1 0x0 DUP1 REVERT JUMPDEST PUSH3 0x215 DUP5 PUSH3 0x1D7 JUMP JUMPDEST SWAP3 POP PUSH3 0x225 PUSH1 0x20 DUP6 ADD PUSH3 0x1D7 JUMP JUMPDEST SWAP2 POP PUSH3 0x235 PUSH1 0x40 DUP6 ADD PUSH3 0x1D7 JUMP JUMPDEST SWAP1 POP SWAP3 POP SWAP3 POP SWAP3 JUMP JUMPDEST PUSH2 0x256D DUP1 PUSH3 0x24E PUSH1 0x0 CODECOPY PUSH1 0x0 RETURN INVALID PUSH1 0x80 PUSH1 0x40 MSTORE CALLVALUE DUP1 ISZERO PUSH2 0x10 JUMPI PUSH1 0x0 DUP1 REVERT JUMPDEST POP PUSH1 0x4 CALLDATASIZE LT PUSH2 0x1A1 JUMPI PUSH1 0x0 CALLDATALOAD PUSH1 0xE0 SHR DUP1 PUSH4 0x54D50D4 EQ PUSH2 0x1A6 JUMPI DUP1 PUSH4 0x6FDDE03 EQ PUSH2 0x1CC JUMPI DUP1 PUSH4 0x80CE2EB EQ PUSH2 0x1FE JUMPI DUP1 PUSH4 0x902F1AC EQ PUSH2 0x208 JUMPI DUP1 PUSH4 0x95EA7B3 EQ PUSH2 0x23C JUMPI DUP1 PUSH4 0xDFE1681 EQ PUSH2 0x25F JUMPI DUP1 PUSH4 0x11C6E741 EQ PUSH2 0x27F JUMPI DUP1 PUSH4 0x18160DDD EQ PUSH2 0x292 JUMPI DUP1 PUSH4 0x23B872DD EQ PUSH2 0x29B JUMPI DUP1 PUSH4 0x30ADF81F EQ PUSH2 0x2AE JUMPI DUP1 PUSH4 0x313CE567 EQ PUSH2 0x2C3 JUMPI DUP1 PUSH4 0x3644E515 EQ PUSH2 0x2DD JUMPI DUP1 PUSH4 0x485CC955 EQ PUSH2 0x2E6 JUMPI DUP1 PUSH4 0x5909C0D5 EQ PUSH2 0x2F9 JUMPI DUP1 PUSH4 0x5A3D5493 EQ PUSH2 0x302 JUMPI DUP1 PUSH4 0x6A627842 EQ PUSH2 0x30B JUMPI DUP1 PUSH4 0x6D9A640A EQ PUSH2 0x31E JUMPI DUP1 PUSH4 0x70A08231 EQ PUSH2 0x331 JUMPI DUP1 PUSH4 0x715018A6 EQ PUSH2 0x351 JUMPI DUP1 PUSH4 0x7464FC3D EQ PUSH2 0x359 JUMPI DUP1 PUSH4 0x7ECEBE00 EQ PUSH2 0x362 JUMPI DUP1 PUSH4 0x89AFCB44 EQ PUSH2 0x382 JUMPI DUP1 PUSH4 0x8DA5CB5B EQ PUSH2 0x3AA JUMPI DUP1 PUSH4 0x95D89B41 EQ PUSH2 0x3B2 JUMPI DUP1 PUSH4 0xA1E15411 EQ PUSH2 0x3D6 JUMPI DUP1 PUSH4 0xA9059CBB EQ PUSH2 0x3E9 JUMPI DUP1 PUSH4 0xBA9A7A56 EQ PUSH2 0x3FC JUMPI DUP1 PUSH4 0xBC25CF77 EQ PUSH2 0x405 JUMPI DUP1 PUSH4 0xC45A0155 EQ PUSH2 0x418 JUMPI DUP1 PUSH4 0xD21220A7 EQ PUSH2 0x42B JUMPI DUP1 PUSH4 0xD505ACCF EQ PUSH2 0x43E JUMPI DUP1 PUSH4 0xDD62ED3E EQ PUSH2 0x451 JUMPI DUP1 PUSH4 0xE840427D EQ PUSH2 0x47C JUMPI DUP1 PUSH4 0xF2FDE38B EQ PUSH2 0x48F JUMPI DUP1 PUSH4 0xFFF6CAE9 EQ PUSH2 0x4A2 JUMPI JUMPDEST PUSH1 0x0 DUP1 REVERT JUMPDEST PUSH2 0x1B9 PUSH2 0x1B4 CALLDATASIZE PUSH1 0x4 PUSH2 0x20DD JUMP JUMPDEST PUSH2 0x4AA JUMP JUMPDEST PUSH1 0x40 MLOAD SWAP1 DUP2 MSTORE PUSH1 0x20 ADD JUMPDEST PUSH1 0x40 MLOAD DUP1 SWAP2 SUB SWAP1 RETURN JUMPDEST PUSH2 0x1F1 PUSH1 0x40 MLOAD DUP1 PUSH1 0x40 ADD PUSH1 0x40 MSTORE DUP1 PUSH1 0x6 DUP2 MSTORE PUSH1 0x20 ADD PUSH6 0x4143204C5073 PUSH1 0xD0 SHL DUP2 MSTORE POP DUP2 JUMP JUMPDEST PUSH1 0x40 MLOAD PUSH2 0x1C3 SWAP2 SWAP1 PUSH2 0x212D JUMP JUMPDEST PUSH2 0x206 PUSH2 0x5CB JUMP JUMPDEST STOP JUMPDEST PUSH2 0x210 PUSH2 0x61A JUMP JUMPDEST PUSH1 0x40 DUP1 MLOAD PUSH1 0x1 PUSH1 0x1 PUSH1 0x70 SHL SUB SWAP5 DUP6 AND DUP2 MSTORE SWAP4 SWAP1 SWAP3 AND PUSH1 0x20 DUP5 ADD MSTORE PUSH4 0xFFFFFFFF AND SWAP1 DUP3 ADD MSTORE PUSH1 0x60 ADD PUSH2 0x1C3 JUMP JUMPDEST PUSH2 0x24F PUSH2 0x24A CALLDATASIZE PUSH1 0x4 PUSH2 0x2177 JUMP JUMPDEST PUSH2 0x644 JUMP JUMPDEST PUSH1 0x40 MLOAD SWAP1 ISZERO ISZERO DUP2 MSTORE PUSH1 0x20 ADD PUSH2 0x1C3 JUMP JUMPDEST PUSH1 0x7 SLOAD PUSH2 0x272 SWAP1 PUSH1 0x1 PUSH1 0x1 PUSH1 0xA0 SHL SUB AND DUP2 JUMP JUMPDEST PUSH1 0x40 MLOAD PUSH2 0x1C3 SWAP2 SWAP1 PUSH2 0x21A1 JUMP JUMPDEST PUSH2 0x206 PUSH2 0x28D CALLDATASIZE PUSH1 0x4 PUSH2 0x21B5 JUMP JUMPDEST PUSH2 0x65B JUMP JUMPDEST PUSH2 0x1B9 PUSH1 0x0 SLOAD DUP2 JUMP JUMPDEST PUSH2 0x24F PUSH2 0x2A9 CALLDATASIZE PUSH1 0x4 PUSH2 0x21D0 JUMP JUMPDEST PUSH2 0x685 JUMP JUMPDEST PUSH2 0x1B9 PUSH1 0x0 DUP1 MLOAD PUSH1 0x20 PUSH2 0x2518 DUP4 CODECOPY DUP2 MLOAD SWAP2 MSTORE DUP2 JUMP JUMPDEST PUSH2 0x2CB PUSH1 0x12 DUP2 JUMP JUMPDEST PUSH1 0x40 MLOAD PUSH1 0xFF SWAP1 SWAP2 AND DUP2 MSTORE PUSH1 0x20 ADD PUSH2 0x1C3 JUMP JUMPDEST PUSH2 0x1B9 PUSH1 0x3 SLOAD DUP2 JUMP JUMPDEST PUSH2 0x206 PUSH2 0x2F4 CALLDATASIZE PUSH1 0x4 PUSH2 0x220C JUMP JUMPDEST PUSH2 0x6FF JUMP JUMPDEST PUSH2 0x1B9 PUSH1 0xA SLOAD DUP2 JUMP JUMPDEST PUSH2 0x1B9 PUSH1 0xB SLOAD DUP2 JUMP JUMPDEST PUSH2 0x1B9 PUSH2 0x319 CALLDATASIZE PUSH1 0x4 PUSH2 0x21B5 JUMP JUMPDEST PUSH2 0x784 JUMP JUMPDEST PUSH2 0x206 PUSH2 0x32C CALLDATASIZE PUSH1 0x4 PUSH2 0x223F JUMP JUMPDEST PUSH2 0xA5D JUMP JUMPDEST PUSH2 0x1B9 PUSH2 0x33F CALLDATASIZE PUSH1 0x4 PUSH2 0x21B5 JUMP JUMPDEST PUSH1 0x1 PUSH1 0x20 MSTORE PUSH1 0x0 SWAP1 DUP2 MSTORE PUSH1 0x40 SWAP1 KECCAK256 SLOAD DUP2 JUMP JUMPDEST PUSH2 0x206 PUSH2 0xF45 JUMP JUMPDEST PUSH2 0x1B9 PUSH1 0xC SLOAD DUP2 JUMP JUMPDEST PUSH2 0x1B9 PUSH2 0x370 CALLDATASIZE PUSH1 0x4 PUSH2 0x21B5 JUMP JUMPDEST PUSH1 0x4 PUSH1 0x20 MSTORE PUSH1 0x0 SWAP1 DUP2 MSTORE PUSH1 0x40 SWAP1 KECCAK256 SLOAD DUP2 JUMP JUMPDEST PUSH2 0x395 PUSH2 0x390 CALLDATASIZE PUSH1 0x4 PUSH2 0x21B5 JUMP JUMPDEST PUSH2 0xF57 JUMP JUMPDEST PUSH1 0x40 DUP1 MLOAD SWAP3 DUP4 MSTORE PUSH1 0x20 DUP4 ADD SWAP2 SWAP1 SWAP2 MSTORE ADD PUSH2 0x1C3 JUMP JUMPDEST PUSH2 0x272 PUSH2 0x12BE JUMP JUMPDEST PUSH2 0x1F1 PUSH1 0x40 MLOAD DUP1 PUSH1 0x40 ADD PUSH1 0x40 MSTORE DUP1 PUSH1 0x5 DUP2 MSTORE PUSH1 0x20 ADD PUSH5 0x41432D4C5 PUSH1 0xDC SHL DUP2 MSTORE POP DUP2 JUMP JUMPDEST PUSH2 0x1B9 PUSH2 0x3E4 CALLDATASIZE PUSH1 0x4 PUSH2 0x21D0 JUMP JUMPDEST PUSH2 0x12CD JUMP JUMPDEST PUSH2 0x24F PUSH2 0x3F7 CALLDATASIZE PUSH1 0x4 PUSH2 0x2177 JUMP JUMPDEST PUSH2 0x1445 JUMP JUMPDEST PUSH2 0x1B9 PUSH2 0x3E8 DUP2 JUMP JUMPDEST PUSH2 0x206 PUSH2 0x413 CALLDATASIZE PUSH1 0x4 PUSH2 0x21B5 JUMP JUMPDEST PUSH2 0x1452 JUMP JUMPDEST PUSH1 0x6 SLOAD PUSH2 0x272 SWAP1 PUSH1 0x1 PUSH1 0x1 PUSH1 0xA0 SHL SUB AND DUP2 JUMP JUMPDEST PUSH1 0x8 SLOAD PUSH2 0x272 SWAP1 PUSH1 0x1 PUSH1 0x1 PUSH1 0xA0 SHL SUB AND DUP2 JUMP JUMPDEST PUSH2 0x206 PUSH2 0x44C CALLDATASIZE PUSH1 0x4 PUSH2 0x2274 JUMP JUMPDEST PUSH2 0x15B6 JUMP JUMPDEST PUSH2 0x1B9 PUSH2 0x45F CALLDATASIZE PUSH1 0x4 PUSH2 0x220C JUMP JUMPDEST PUSH1 0x2 PUSH1 0x20 SWAP1 DUP2 MSTORE PUSH1 0x0 SWAP3 DUP4 MSTORE PUSH1 0x40 DUP1 DUP5 KECCAK256 SWAP1 SWAP2 MSTORE SWAP1 DUP3 MSTORE SWAP1 KECCAK256 SLOAD DUP2 JUMP JUMPDEST PUSH2 0x206 PUSH2 0x48A CALLDATASIZE PUSH1 0x4 PUSH2 0x223F JUMP JUMPDEST PUSH2 0x17B3 JUMP JUMPDEST PUSH2 0x206 PUSH2 0x49D CALLDATASIZE PUSH1 0x4 PUSH2 0x21B5 JUMP JUMPDEST PUSH2 0x199F JUMP JUMPDEST PUSH2 0x206 PUSH2 0x1A18 JUMP JUMPDEST PUSH1 0x0 DUP1 DUP5 GT PUSH2 0x512 JUMPI PUSH1 0x40 MLOAD PUSH3 0x461BCD PUSH1 0xE5 SHL DUP2 MSTORE PUSH1 0x20 PUSH1 0x4 DUP3 ADD MSTORE PUSH1 0x29 PUSH1 0x24 DUP3 ADD MSTORE PUSH32 0x50616E63616B654C6962726172793A20494E53554646494349454E545F494E50 PUSH1 0x44 DUP3 ADD MSTORE PUSH9 0x155517D05353D55395 PUSH1 0xBA SHL PUSH1 0x64 DUP3 ADD MSTORE PUSH1 0x84 ADD JUMPDEST PUSH1 0x40 MLOAD DUP1 SWAP2 SUB SWAP1 REVERT JUMPDEST PUSH1 0x0 DUP4 GT DUP1 ISZERO PUSH2 0x522 JUMPI POP PUSH1 0x0 DUP3 GT JUMPDEST PUSH2 0x57D JUMPI PUSH1 0x40 MLOAD PUSH3 0x461BCD PUSH1 0xE5 SHL DUP2 MSTORE PUSH1 0x20 PUSH1 0x4 DUP3 ADD MSTORE PUSH1 0x26 PUSH1 0x24 DUP3 ADD MSTORE PUSH32 0x50616E63616B654C6962726172793A20494E53554646494349454E545F4C4951 PUSH1 0x44 DUP3 ADD MSTORE PUSH6 0x554944495459 PUSH1 0xD0 SHL PUSH1 0x64 DUP3 ADD MSTORE PUSH1 0x84 ADD PUSH2 0x509 JUMP JUMPDEST PUSH1 0x0 PUSH2 0x58B DUP6 PUSH2 0x3E6 PUSH2 0x22FD JUMP JUMPDEST SWAP1 POP PUSH1 0x0 PUSH2 0x599 DUP5 DUP4 PUSH2 0x22FD JUMP JUMPDEST SWAP1 POP PUSH1 0x0 DUP3 PUSH2 0x5AA DUP8 PUSH2 0x3E8 PUSH2 0x22FD JUMP JUMPDEST PUSH2 0x5B4 SWAP2 SWAP1 PUSH2 0x2314 JUMP JUMPDEST SWAP1 POP PUSH2 0x5C0 DUP2 DUP4 PUSH2 0x233D JUMP JUMPDEST SWAP8 SWAP7 POP POP POP POP POP POP POP JUMP JUMPDEST PUSH2 0x5D3 PUSH2 0x12BE JUMP JUMPDEST PUSH1 0x1 PUSH1 0x1 PUSH1 0xA0 SHL SUB AND CALLER PUSH1 0x1 PUSH1 0x1 PUSH1 0xA0 SHL SUB AND EQ DUP1 PUSH2 0x5FC JUMPI POP PUSH1 0x6 SLOAD PUSH1 0x1 PUSH1 0x1 PUSH1 0xA0 SHL SUB AND CALLER EQ JUMPDEST PUSH2 0x618 JUMPI PUSH1 0x40 MLOAD PUSH3 0x461BCD PUSH1 0xE5 SHL DUP2 MSTORE PUSH1 0x4 ADD PUSH2 0x509 SWAP1 PUSH2 0x2351 JUMP JUMPDEST JUMP JUMPDEST PUSH1 0x9 SLOAD PUSH1 0x1 PUSH1 0x1 PUSH1 0x70 SHL SUB DUP1 DUP3 AND SWAP3 PUSH1 0x1 PUSH1 0x70 SHL DUP4 DIV SWAP1 SWAP2 AND SWAP2 PUSH1 0x1 PUSH1 0xE0 SHL SWAP1 DIV PUSH4 0xFFFFFFFF AND SWAP1 JUMP JUMPDEST PUSH1 0x0 PUSH2 0x651 CALLER DUP5 DUP5 PUSH2 0x1A78 JUMP JUMPDEST POP PUSH1 0x1 JUMPDEST SWAP3 SWAP2 POP POP JUMP JUMPDEST PUSH2 0x663 PUSH2 0x1ADA JUMP JUMPDEST PUSH1 0x6 DUP1 SLOAD PUSH1 0x1 PUSH1 0x1 PUSH1 0xA0 SHL SUB NOT AND PUSH1 0x1 PUSH1 0x1 PUSH1 0xA0 SHL SUB SWAP3 SWAP1 SWAP3 AND SWAP2 SWAP1 SWAP2 OR SWAP1 SSTORE JUMP JUMPDEST PUSH1 0x1 PUSH1 0x1 PUSH1 0xA0 SHL SUB DUP4 AND PUSH1 0x0 SWAP1 DUP2 MSTORE PUSH1 0x2 PUSH1 0x20 SWAP1 DUP2 MSTORE PUSH1 0x40 DUP1 DUP4 KECCAK256 CALLER DUP5 MSTORE SWAP1 SWAP2 MSTORE DUP2 KECCAK256 SLOAD PUSH1 0x0 NOT EQ PUSH2 0x6EA JUMPI PUSH1 0x1 PUSH1 0x1 PUSH1 0xA0 SHL SUB DUP5 AND PUSH1 0x0 SWAP1 DUP2 MSTORE PUSH1 0x2 PUSH1 0x20 SWAP1 DUP2 MSTORE PUSH1 0x40 DUP1 DUP4 KECCAK256 CALLER DUP5 MSTORE SWAP1 SWAP2 MSTORE DUP2 KECCAK256 DUP1 SLOAD DUP5 SWAP3 SWAP1 PUSH2 0x6E4 SWAP1 DUP5 SWAP1 PUSH2 0x237B JUMP JUMPDEST SWAP1 SWAP2 SSTORE POP POP JUMPDEST PUSH2 0x6F5 DUP5 DUP5 DUP5 PUSH2 0x1B39 JUMP JUMPDEST POP PUSH1 0x1 SWAP4 SWAP3 POP POP POP JUMP JUMPDEST PUSH2 0x707 PUSH2 0x1ADA JUMP JUMPDEST PUSH1 0x6 SLOAD PUSH1 0x1 PUSH1 0x1 PUSH1 0xA0 SHL SUB AND CALLER EQ PUSH2 0x756 JUMPI PUSH1 0x40 MLOAD PUSH3 0x461BCD PUSH1 0xE5 SHL DUP2 MSTORE PUSH1 0x20 PUSH1 0x4 DUP3 ADD MSTORE PUSH1 0x12 PUSH1 0x24 DUP3 ADD MSTORE PUSH18 0x2830B731B0B5B29D102327A92124A22222A7 PUSH1 0x71 SHL PUSH1 0x44 DUP3 ADD MSTORE PUSH1 0x64 ADD PUSH2 0x509 JUMP JUMPDEST PUSH1 0x7 DUP1 SLOAD PUSH1 0x1 PUSH1 0x1 PUSH1 0xA0 SHL SUB SWAP4 DUP5 AND PUSH1 0x1 PUSH1 0x1 PUSH1 0xA0 SHL SUB NOT SWAP2 DUP3 AND OR SWAP1 SWAP2 SSTORE PUSH1 0x8 DUP1 SLOAD SWAP3 SWAP1 SWAP4 AND SWAP2 AND OR SWAP1 SSTORE JUMP JUMPDEST PUSH1 0x0 PUSH1 0xD SLOAD PUSH1 0x1 EQ PUSH2 0x7A8 JUMPI PUSH1 0x40 MLOAD PUSH3 0x461BCD PUSH1 0xE5 SHL DUP2 MSTORE PUSH1 0x4 ADD PUSH2 0x509 SWAP1 PUSH2 0x238E JUMP JUMPDEST PUSH1 0x0 PUSH1 0xD SSTORE PUSH2 0x7B5 PUSH2 0x12BE JUMP JUMPDEST PUSH1 0x1 PUSH1 0x1 PUSH1 0xA0 SHL SUB AND CALLER PUSH1 0x1 PUSH1 0x1 PUSH1 0xA0 SHL SUB AND EQ DUP1 PUSH2 0x7DE JUMPI POP PUSH1 0x6 SLOAD PUSH1 0x1 PUSH1 0x1 PUSH1 0xA0 SHL SUB AND CALLER EQ JUMPDEST PUSH2 0x7FA JUMPI PUSH1 0x40 MLOAD PUSH3 0x461BCD PUSH1 0xE5 SHL DUP2 MSTORE PUSH1 0x4 ADD PUSH2 0x509 SWAP1 PUSH2 0x2351 JUMP JUMPDEST PUSH1 0x0 DUP1 PUSH2 0x805 PUSH2 0x61A JUMP JUMPDEST POP PUSH1 0x7 SLOAD PUSH1 0x40 MLOAD PUSH4 0x70A08231 PUSH1 0xE0 SHL DUP2 MSTORE SWAP3 SWAP5 POP SWAP1 SWAP3 POP PUSH1 0x0 SWAP2 PUSH1 0x1 PUSH1 0x1 PUSH1 0xA0 SHL SUB SWAP1 SWAP2 AND SWAP1 PUSH4 0x70A08231 SWAP1 PUSH2 0x83F SWAP1 ADDRESS SWAP1 PUSH1 0x4 ADD PUSH2 0x21A1 JUMP JUMPDEST PUSH1 0x20 PUSH1 0x40 MLOAD DUP1 DUP4 SUB DUP2 DUP7 GAS STATICCALL ISZERO DUP1 ISZERO PUSH2 0x85C JUMPI RETURNDATASIZE PUSH1 0x0 DUP1 RETURNDATACOPY RETURNDATASIZE PUSH1 0x0 REVERT JUMPDEST POP POP POP POP PUSH1 0x40 MLOAD RETURNDATASIZE PUSH1 0x1F NOT PUSH1 0x1F DUP3 ADD AND DUP3 ADD DUP1 PUSH1 0x40 MSTORE POP DUP2 ADD SWAP1 PUSH2 0x880 SWAP2 SWAP1 PUSH2 0x23B7 JUMP JUMPDEST PUSH1 0x8 SLOAD PUSH1 0x40 MLOAD PUSH4 0x70A08231 PUSH1 0xE0 SHL DUP2 MSTORE SWAP2 SWAP3 POP PUSH1 0x0 SWAP2 PUSH1 0x1 PUSH1 0x1 PUSH1 0xA0 SHL SUB SWAP1 SWAP2 AND SWAP1 PUSH4 0x70A08231 SWAP1 PUSH2 0x8B6 SWAP1 ADDRESS SWAP1 PUSH1 0x4 ADD PUSH2 0x21A1 JUMP JUMPDEST PUSH1 0x20 PUSH1 0x40 MLOAD DUP1 DUP4 SUB DUP2 DUP7 GAS STATICCALL ISZERO DUP1 ISZERO PUSH2 0x8D3 JUMPI RETURNDATASIZE PUSH1 0x0 DUP1 RETURNDATACOPY RETURNDATASIZE PUSH1 0x0 REVERT JUMPDEST POP POP POP POP PUSH1 0x40 MLOAD RETURNDATASIZE PUSH1 0x1F NOT PUSH1 0x1F DUP3 ADD AND DUP3 ADD DUP1 PUSH1 0x40 MSTORE POP DUP2 ADD SWAP1 PUSH2 0x8F7 SWAP2 SWAP1 PUSH2 0x23B7 JUMP JUMPDEST SWAP1 POP PUSH1 0x0 PUSH2 0x90E PUSH1 0x1 PUSH1 0x1 PUSH1 0x70 SHL SUB DUP7 AND DUP5 PUSH2 0x237B JUMP JUMPDEST SWAP1 POP PUSH1 0x0 PUSH2 0x925 PUSH1 0x1 PUSH1 0x1 PUSH1 0x70 SHL SUB DUP7 AND DUP5 PUSH2 0x237B JUMP JUMPDEST PUSH1 0x0 DUP1 SLOAD SWAP2 SWAP3 POP DUP2 SWAP1 SUB PUSH2 0x966 JUMPI PUSH2 0x3E8 PUSH2 0x948 PUSH2 0x943 DUP5 DUP7 PUSH2 0x22FD JUMP JUMPDEST PUSH2 0x1BC8 JUMP JUMPDEST PUSH2 0x952 SWAP2 SWAP1 PUSH2 0x237B JUMP JUMPDEST SWAP8 POP PUSH2 0x961 PUSH1 0x0 PUSH2 0x3E8 PUSH2 0x1C38 JUMP JUMPDEST PUSH2 0x9AD JUMP JUMPDEST PUSH2 0x9AA PUSH1 0x1 PUSH1 0x1 PUSH1 0x70 SHL SUB DUP9 AND PUSH2 0x97D DUP4 DUP7 PUSH2 0x22FD JUMP JUMPDEST PUSH2 0x987 SWAP2 SWAP1 PUSH2 0x233D JUMP JUMPDEST PUSH1 0x1 PUSH1 0x1 PUSH1 0x70 SHL SUB DUP9 AND PUSH2 0x99B DUP5 DUP7 PUSH2 0x22FD JUMP JUMPDEST PUSH2 0x9A5 SWAP2 SWAP1 PUSH2 0x233D JUMP JUMPDEST PUSH2 0x1CA9 JUMP JUMPDEST SWAP8 POP JUMPDEST PUSH1 0x0 DUP9 GT PUSH2 0x9FA JUMPI PUSH1 0x40 MLOAD PUSH3 0x461BCD PUSH1 0xE5 SHL DUP2 MSTORE PUSH1 0x20 PUSH1 0x4 DUP3 ADD MSTORE PUSH1 0x26 PUSH1 0x24 DUP3 ADD MSTORE PUSH1 0x0 DUP1 MLOAD PUSH1 0x20 PUSH2 0x24B8 DUP4 CODECOPY DUP2 MLOAD SWAP2 MSTORE PUSH1 0x44 DUP3 ADD MSTORE PUSH6 0x135253951151 PUSH1 0xD2 SHL PUSH1 0x64 DUP3 ADD MSTORE PUSH1 0x84 ADD PUSH2 0x509 JUMP JUMPDEST PUSH2 0xA04 DUP10 DUP10 PUSH2 0x1C38 JUMP JUMPDEST PUSH2 0xA10 DUP6 DUP6 DUP10 DUP10 PUSH2 0x1CC1 JUMP JUMPDEST PUSH1 0x40 DUP1 MLOAD DUP5 DUP2 MSTORE PUSH1 0x20 DUP2 ADD DUP5 SWAP1 MSTORE CALLER SWAP2 PUSH32 0x4C209B5FC8AD50758F13E2E1088BA56A560DFF690A1C6FEF26394F4C03821C4F SWAP2 ADD PUSH1 0x40 MLOAD DUP1 SWAP2 SUB SWAP1 LOG2 POP POP PUSH1 0x1 PUSH1 0xD SSTORE POP SWAP4 SWAP6 SWAP5 POP POP POP POP POP JUMP JUMPDEST PUSH2 0xA65 PUSH2 0x12BE JUMP JUMPDEST PUSH1 0x1 PUSH1 0x1 PUSH1 0xA0 SHL SUB AND CALLER PUSH1 0x1 PUSH1 0x1 PUSH1 0xA0 SHL SUB AND EQ DUP1 PUSH2 0xA8E JUMPI POP PUSH1 0x6 SLOAD PUSH1 0x1 PUSH1 0x1 PUSH1 0xA0 SHL SUB AND CALLER EQ JUMPDEST PUSH2 0xAAA JUMPI PUSH1 0x40 MLOAD PUSH3 0x461BCD PUSH1 0xE5 SHL DUP2 MSTORE PUSH1 0x4 ADD PUSH2 0x509 SWAP1 PUSH2 0x2351 JUMP JUMPDEST PUSH1 0xD SLOAD PUSH1 0x1 EQ PUSH2 0xACC JUMPI PUSH1 0x40 MLOAD PUSH3 0x461BCD PUSH1 0xE5 SHL DUP2 MSTORE PUSH1 0x4 ADD PUSH2 0x509 SWAP1 PUSH2 0x238E JUMP JUMPDEST PUSH1 0x0 PUSH1 0xD SSTORE DUP3 ISZERO ISZERO DUP1 PUSH2 0xADF JUMPI POP PUSH1 0x0 DUP3 GT JUMPDEST PUSH2 0xB37 JUMPI PUSH1 0x40 MLOAD PUSH3 0x461BCD PUSH1 0xE5 SHL DUP2 MSTORE PUSH1 0x20 PUSH1 0x4 DUP3 ADD MSTORE PUSH1 0x23 PUSH1 0x24 DUP3 ADD MSTORE PUSH32 0x50616E63616B653A20494E53554646494349454E545F4F55545055545F414D4F PUSH1 0x44 DUP3 ADD MSTORE PUSH3 0x155395 PUSH1 0xEA SHL PUSH1 0x64 DUP3 ADD MSTORE PUSH1 0x84 ADD PUSH2 0x509 JUMP JUMPDEST PUSH1 0x0 DUP1 PUSH2 0xB42 PUSH2 0x61A JUMP JUMPDEST POP SWAP2 POP SWAP2 POP DUP2 PUSH1 0x1 PUSH1 0x1 PUSH1 0x70 SHL SUB AND DUP6 LT DUP1 ISZERO PUSH2 0xB67 JUMPI POP DUP1 PUSH1 0x1 PUSH1 0x1 PUSH1 0x70 SHL SUB AND DUP5 LT JUMPDEST PUSH2 0xBB3 JUMPI PUSH1 0x40 MLOAD PUSH3 0x461BCD PUSH1 0xE5 SHL DUP2 MSTORE PUSH1 0x20 PUSH1 0x4 DUP3 ADD MSTORE PUSH1 0x1F PUSH1 0x24 DUP3 ADD MSTORE PUSH32 0x50616E63616B653A20494E53554646494349454E545F4C495155494449545900 PUSH1 0x44 DUP3 ADD MSTORE PUSH1 0x64 ADD PUSH2 0x509 JUMP JUMPDEST PUSH1 0x7 SLOAD PUSH1 0x8 SLOAD PUSH1 0x0 SWAP2 DUP3 SWAP2 PUSH1 0x1 PUSH1 0x1 PUSH1 0xA0 SHL SUB SWAP2 DUP3 AND SWAP2 SWAP1 DUP2 AND SWAP1 DUP8 AND DUP3 EQ DUP1 ISZERO SWAP1 PUSH2 0xBF1 JUMPI POP DUP1 PUSH1 0x1 PUSH1 0x1 PUSH1 0xA0 SHL SUB AND DUP8 PUSH1 0x1 PUSH1 0x1 PUSH1 0xA0 SHL SUB AND EQ ISZERO JUMPDEST PUSH2 0xC33 JUMPI PUSH1 0x40 MLOAD PUSH3 0x461BCD PUSH1 0xE5 SHL DUP2 MSTORE PUSH1 0x20 PUSH1 0x4 DUP3 ADD MSTORE PUSH1 0x13 PUSH1 0x24 DUP3 ADD MSTORE PUSH19 0x50616E63616B653A20494E56414C49445F544F PUSH1 0x68 SHL PUSH1 0x44 DUP3 ADD MSTORE PUSH1 0x64 ADD PUSH2 0x509 JUMP JUMPDEST DUP9 ISZERO PUSH2 0xC44 JUMPI PUSH2 0xC44 DUP3 DUP9 DUP12 PUSH2 0x1EAA JUMP JUMPDEST DUP8 ISZERO PUSH2 0xC55 JUMPI PUSH2 0xC55 DUP2 DUP9 DUP11 PUSH2 0x1EAA JUMP JUMPDEST PUSH1 0x40 MLOAD PUSH4 0x70A08231 PUSH1 0xE0 SHL DUP2 MSTORE PUSH1 0x1 PUSH1 0x1 PUSH1 0xA0 SHL SUB DUP4 AND SWAP1 PUSH4 0x70A08231 SWAP1 PUSH2 0xC81 SWAP1 ADDRESS SWAP1 PUSH1 0x4 ADD PUSH2 0x21A1 JUMP JUMPDEST PUSH1 0x20 PUSH1 0x40 MLOAD DUP1 DUP4 SUB DUP2 DUP7 GAS STATICCALL ISZERO DUP1 ISZERO PUSH2 0xC9E JUMPI RETURNDATASIZE PUSH1 0x0 DUP1 RETURNDATACOPY RETURNDATASIZE PUSH1 0x0 REVERT JUMPDEST POP POP POP POP PUSH1 0x40 MLOAD RETURNDATASIZE PUSH1 0x1F NOT PUSH1 0x1F DUP3 ADD AND DUP3 ADD DUP1 PUSH1 0x40 MSTORE POP DUP2 ADD SWAP1 PUSH2 0xCC2 SWAP2 SWAP1 PUSH2 0x23B7 JUMP JUMPDEST PUSH1 0x40 MLOAD PUSH4 0x70A08231 PUSH1 0xE0 SHL DUP2 MSTORE SWAP1 SWAP5 POP PUSH1 0x1 PUSH1 0x1 PUSH1 0xA0 SHL SUB DUP3 AND SWAP1 PUSH4 0x70A08231 SWAP1 PUSH2 0xCF1 SWAP1 ADDRESS SWAP1 PUSH1 0x4 ADD PUSH2 0x21A1 JUMP JUMPDEST PUSH1 0x20 PUSH1 0x40 MLOAD DUP1 DUP4 SUB DUP2 DUP7 GAS STATICCALL ISZERO DUP1 ISZERO PUSH2 0xD0E JUMPI RETURNDATASIZE PUSH1 0x0 DUP1 RETURNDATACOPY RETURNDATASIZE PUSH1 0x0 REVERT JUMPDEST POP POP POP POP PUSH1 0x40 MLOAD RETURNDATASIZE PUSH1 0x1F NOT PUSH1 0x1F DUP3 ADD AND DUP3 ADD DUP1 PUSH1 0x40 MSTORE POP DUP2 ADD SWAP1 PUSH2 0xD32 SWAP2 SWAP1 PUSH2 0x23B7 JUMP JUMPDEST SWAP3 POP POP POP PUSH1 0x0 DUP8 DUP6 PUSH1 0x1 PUSH1 0x1 PUSH1 0x70 SHL SUB AND PUSH2 0xD4D SWAP2 SWAP1 PUSH2 0x237B JUMP JUMPDEST DUP4 GT PUSH2 0xD5A JUMPI PUSH1 0x0 PUSH2 0xD77 JUMP JUMPDEST PUSH2 0xD6D DUP9 PUSH1 0x1 PUSH1 0x1 PUSH1 0x70 SHL SUB DUP8 AND PUSH2 0x237B JUMP JUMPDEST PUSH2 0xD77 SWAP1 DUP5 PUSH2 0x237B JUMP JUMPDEST SWAP1 POP PUSH1 0x0 PUSH2 0xD8E DUP9 PUSH1 0x1 PUSH1 0x1 PUSH1 0x70 SHL SUB DUP8 AND PUSH2 0x237B JUMP JUMPDEST DUP4 GT PUSH2 0xD9B JUMPI PUSH1 0x0 PUSH2 0xDB8 JUMP JUMPDEST PUSH2 0xDAE DUP9 PUSH1 0x1 PUSH1 0x1 PUSH1 0x70 SHL SUB DUP8 AND PUSH2 0x237B JUMP JUMPDEST PUSH2 0xDB8 SWAP1 DUP5 PUSH2 0x237B JUMP JUMPDEST SWAP1 POP PUSH1 0x0 DUP3 GT DUP1 PUSH2 0xDC9 JUMPI POP PUSH1 0x0 DUP2 GT JUMPDEST PUSH2 0xE20 JUMPI PUSH1 0x40 MLOAD PUSH3 0x461BCD PUSH1 0xE5 SHL DUP2 MSTORE PUSH1 0x20 PUSH1 0x4 DUP3 ADD MSTORE PUSH1 0x22 PUSH1 0x24 DUP3 ADD MSTORE PUSH32 0x50616E63616B653A20494E53554646494349454E545F494E5055545F414D4F55 PUSH1 0x44 DUP3 ADD MSTORE PUSH2 0x1395 PUSH1 0xF2 SHL PUSH1 0x64 DUP3 ADD MSTORE PUSH1 0x84 ADD PUSH2 0x509 JUMP JUMPDEST PUSH1 0x0 PUSH2 0xE2D DUP4 PUSH1 0x2 PUSH2 0x22FD JUMP JUMPDEST PUSH2 0xE39 DUP7 PUSH2 0x3E8 PUSH2 0x22FD JUMP JUMPDEST PUSH2 0xE43 SWAP2 SWAP1 PUSH2 0x237B JUMP JUMPDEST SWAP1 POP PUSH1 0x0 PUSH2 0xE52 DUP4 PUSH1 0x2 PUSH2 0x22FD JUMP JUMPDEST PUSH2 0xE5E DUP7 PUSH2 0x3E8 PUSH2 0x22FD JUMP JUMPDEST PUSH2 0xE68 SWAP2 SWAP1 PUSH2 0x237B JUMP JUMPDEST SWAP1 POP PUSH2 0xE80 PUSH1 0x1 PUSH1 0x1 PUSH1 0x70 SHL SUB DUP1 DUP10 AND SWAP1 DUP11 AND PUSH2 0x22FD JUMP JUMPDEST PUSH2 0xE8D SWAP1 PUSH3 0xF4240 PUSH2 0x22FD JUMP JUMPDEST PUSH2 0xE97 DUP3 DUP5 PUSH2 0x22FD JUMP JUMPDEST LT ISZERO PUSH2 0xED2 JUMPI PUSH1 0x40 MLOAD PUSH3 0x461BCD PUSH1 0xE5 SHL DUP2 MSTORE PUSH1 0x20 PUSH1 0x4 DUP3 ADD MSTORE PUSH1 0xA PUSH1 0x24 DUP3 ADD MSTORE PUSH10 0x50616E63616B653A204B PUSH1 0xB0 SHL PUSH1 0x44 DUP3 ADD MSTORE PUSH1 0x64 ADD PUSH2 0x509 JUMP JUMPDEST POP POP PUSH2 0xEE0 DUP5 DUP5 DUP9 DUP9 PUSH2 0x1CC1 JUMP JUMPDEST PUSH1 0x40 DUP1 MLOAD DUP4 DUP2 MSTORE PUSH1 0x20 DUP2 ADD DUP4 SWAP1 MSTORE SWAP1 DUP2 ADD DUP11 SWAP1 MSTORE PUSH1 0x60 DUP2 ADD DUP10 SWAP1 MSTORE PUSH1 0x1 PUSH1 0x1 PUSH1 0xA0 SHL SUB DUP9 AND SWAP1 CALLER SWAP1 PUSH32 0xD78AD95FA46C994B6551D0DA85FC275FE613CE37657FB8D5E3D130840159D822 SWAP1 PUSH1 0x80 ADD PUSH1 0x40 MLOAD DUP1 SWAP2 SUB SWAP1 LOG3 POP POP PUSH1 0x1 PUSH1 0xD SSTORE POP POP POP POP POP POP POP JUMP JUMPDEST PUSH2 0xF4D PUSH2 0x1ADA JUMP JUMPDEST PUSH2 0x618 PUSH1 0x0 PUSH2 0x1FEC JUMP JUMPDEST PUSH1 0x0 DUP1 PUSH1 0xD SLOAD PUSH1 0x1 EQ PUSH2 0xF7C JUMPI PUSH1 0x40 MLOAD PUSH3 0x461BCD PUSH1 0xE5 SHL DUP2 MSTORE PUSH1 0x4 ADD PUSH2 0x509 SWAP1 PUSH2 0x238E JUMP JUMPDEST PUSH1 0x0 PUSH1 0xD SSTORE PUSH2 0xF89 PUSH2 0x12BE JUMP JUMPDEST PUSH1 0x1 PUSH1 0x1 PUSH1 0xA0 SHL SUB AND CALLER PUSH1 0x1 PUSH1 0x1 PUSH1 0xA0 SHL SUB AND EQ DUP1 PUSH2 0xFB2 JUMPI POP PUSH1 0x6 SLOAD PUSH1 0x1 PUSH1 0x1 PUSH1 0xA0 SHL SUB AND CALLER EQ JUMPDEST PUSH2 0xFCE JUMPI PUSH1 0x40 MLOAD PUSH3 0x461BCD PUSH1 0xE5 SHL DUP2 MSTORE PUSH1 0x4 ADD PUSH2 0x509 SWAP1 PUSH2 0x2351 JUMP JUMPDEST PUSH1 0x0 DUP1 PUSH2 0xFD9 PUSH2 0x61A JUMP JUMPDEST POP PUSH1 0x7 SLOAD PUSH1 0x8 SLOAD PUSH1 0x40 MLOAD PUSH4 0x70A08231 PUSH1 0xE0 SHL DUP2 MSTORE SWAP4 SWAP6 POP SWAP2 SWAP4 POP PUSH1 0x1 PUSH1 0x1 PUSH1 0xA0 SHL SUB SWAP1 DUP2 AND SWAP3 SWAP2 AND SWAP1 PUSH1 0x0 SWAP1 DUP4 SWAP1 PUSH4 0x70A08231 SWAP1 PUSH2 0x101B SWAP1 ADDRESS SWAP1 PUSH1 0x4 ADD PUSH2 0x21A1 JUMP JUMPDEST PUSH1 0x20 PUSH1 0x40 MLOAD DUP1 DUP4 SUB DUP2 DUP7 GAS STATICCALL ISZERO DUP1 ISZERO PUSH2 0x1038 JUMPI RETURNDATASIZE PUSH1 0x0 DUP1 RETURNDATACOPY RETURNDATASIZE PUSH1 0x0 REVERT JUMPDEST POP POP POP POP PUSH1 0x40 MLOAD RETURNDATASIZE PUSH1 0x1F NOT PUSH1 0x1F DUP3 ADD AND DUP3 ADD DUP1 PUSH1 0x40 MSTORE POP DUP2 ADD SWAP1 PUSH2 0x105C SWAP2 SWAP1 PUSH2 0x23B7 JUMP JUMPDEST SWAP1 POP PUSH1 0x0 DUP3 PUSH1 0x1 PUSH1 0x1 PUSH1 0xA0 SHL SUB AND PUSH4 0x70A08231 ADDRESS PUSH1 0x40 MLOAD DUP3 PUSH4 0xFFFFFFFF AND PUSH1 0xE0 SHL DUP2 MSTORE PUSH1 0x4 ADD PUSH2 0x108C SWAP2 SWAP1 PUSH2 0x21A1 JUMP JUMPDEST PUSH1 0x20 PUSH1 0x40 MLOAD DUP1 DUP4 SUB DUP2 DUP7 GAS STATICCALL ISZERO DUP1 ISZERO PUSH2 0x10A9 JUMPI RETURNDATASIZE PUSH1 0x0 DUP1 RETURNDATACOPY RETURNDATASIZE PUSH1 0x0 REVERT JUMPDEST POP POP POP POP PUSH1 0x40 MLOAD RETURNDATASIZE PUSH1 0x1F NOT PUSH1 0x1F DUP3 ADD AND DUP3 ADD DUP1 PUSH1 0x40 MSTORE POP DUP2 ADD SWAP1 PUSH2 0x10CD SWAP2 SWAP1 PUSH2 0x23B7 JUMP JUMPDEST ADDRESS PUSH1 0x0 SWAP1 DUP2 MSTORE PUSH1 0x1 PUSH1 0x20 MSTORE PUSH1 0x40 DUP2 KECCAK256 SLOAD SWAP1 SLOAD SWAP2 SWAP3 POP SWAP1 DUP1 PUSH2 0x10EE DUP6 DUP5 PUSH2 0x22FD JUMP JUMPDEST PUSH2 0x10F8 SWAP2 SWAP1 PUSH2 0x233D JUMP JUMPDEST SWAP10 POP DUP1 PUSH2 0x1105 DUP5 DUP5 PUSH2 0x22FD JUMP JUMPDEST PUSH2 0x110F SWAP2 SWAP1 PUSH2 0x233D JUMP JUMPDEST SWAP9 POP PUSH1 0x0 DUP11 GT DUP1 ISZERO PUSH2 0x1121 JUMPI POP PUSH1 0x0 DUP10 GT JUMPDEST PUSH2 0x116A JUMPI PUSH1 0x40 MLOAD PUSH3 0x461BCD PUSH1 0xE5 SHL DUP2 MSTORE PUSH1 0x20 PUSH1 0x4 DUP3 ADD MSTORE PUSH1 0x26 PUSH1 0x24 DUP3 ADD MSTORE PUSH1 0x0 DUP1 MLOAD PUSH1 0x20 PUSH2 0x24B8 DUP4 CODECOPY DUP2 MLOAD SWAP2 MSTORE PUSH1 0x44 DUP3 ADD MSTORE PUSH6 0x109554939151 PUSH1 0xD2 SHL PUSH1 0x64 DUP3 ADD MSTORE PUSH1 0x84 ADD PUSH2 0x509 JUMP JUMPDEST PUSH2 0x1174 ADDRESS DUP4 PUSH2 0x203E JUMP JUMPDEST PUSH2 0x117F DUP7 DUP13 DUP13 PUSH2 0x1EAA JUMP JUMPDEST PUSH2 0x118A DUP6 DUP13 DUP12 PUSH2 0x1EAA JUMP JUMPDEST PUSH1 0x40 MLOAD PUSH4 0x70A08231 PUSH1 0xE0 SHL DUP2 MSTORE PUSH1 0x1 PUSH1 0x1 PUSH1 0xA0 SHL SUB DUP8 AND SWAP1 PUSH4 0x70A08231 SWAP1 PUSH2 0x11B6 SWAP1 ADDRESS SWAP1 PUSH1 0x4 ADD PUSH2 0x21A1 JUMP JUMPDEST PUSH1 0x20 PUSH1 0x40 MLOAD DUP1 DUP4 SUB DUP2 DUP7 GAS STATICCALL ISZERO DUP1 ISZERO PUSH2 0x11D3 JUMPI RETURNDATASIZE PUSH1 0x0 DUP1 RETURNDATACOPY RETURNDATASIZE PUSH1 0x0 REVERT JUMPDEST POP POP POP POP PUSH1 0x40 MLOAD RETURNDATASIZE PUSH1 0x1F NOT PUSH1 0x1F DUP3 ADD AND DUP3 ADD DUP1 PUSH1 0x40 MSTORE POP DUP2 ADD SWAP1 PUSH2 0x11F7 SWAP2 SWAP1 PUSH2 0x23B7 JUMP JUMPDEST PUSH1 0x40 MLOAD PUSH4 0x70A08231 PUSH1 0xE0 SHL DUP2 MSTORE SWAP1 SWAP5 POP PUSH1 0x1 PUSH1 0x1 PUSH1 0xA0 SHL SUB DUP7 AND SWAP1 PUSH4 0x70A08231 SWAP1 PUSH2 0x1226 SWAP1 ADDRESS SWAP1 PUSH1 0x4 ADD PUSH2 0x21A1 JUMP JUMPDEST PUSH1 0x20 PUSH1 0x40 MLOAD DUP1 DUP4 SUB DUP2 DUP7 GAS STATICCALL ISZERO DUP1 ISZERO PUSH2 0x1243 JUMPI RETURNDATASIZE PUSH1 0x0 DUP1 RETURNDATACOPY RETURNDATASIZE PUSH1 0x0 REVERT JUMPDEST POP POP POP POP PUSH1 0x40 MLOAD RETURNDATASIZE PUSH1 0x1F NOT PUSH1 0x1F DUP3 ADD AND DUP3 ADD DUP1 PUSH1 0x40 MSTORE POP DUP2 ADD SWAP1 PUSH2 0x1267 SWAP2 SWAP1 PUSH2 0x23B7 JUMP JUMPDEST SWAP3 POP PUSH2 0x1275 DUP5 DUP5 DUP11 DUP11 PUSH2 0x1CC1 JUMP JUMPDEST PUSH1 0x40 DUP1 MLOAD DUP12 DUP2 MSTORE PUSH1 0x20 DUP2 ADD DUP12 SWAP1 MSTORE PUSH1 0x1 PUSH1 0x1 PUSH1 0xA0 SHL SUB DUP14 AND SWAP2 CALLER SWAP2 PUSH1 0x0 DUP1 MLOAD PUSH1 0x20 PUSH2 0x24D8 DUP4 CODECOPY DUP2 MLOAD SWAP2 MSTORE SWAP2 ADD PUSH1 0x40 MLOAD DUP1 SWAP2 SUB SWAP1 LOG3 POP POP POP POP POP POP POP POP PUSH1 0x1 PUSH1 0xD DUP2 SWAP1 SSTORE POP SWAP2 POP SWAP2 JUMP JUMPDEST PUSH1 0x5 SLOAD PUSH1 0x1 PUSH1 0x1 PUSH1 0xA0 SHL SUB AND SWAP1 JUMP JUMPDEST PUSH1 0x0 PUSH2 0x12D7 PUSH2 0x12BE JUMP JUMPDEST PUSH1 0x1 PUSH1 0x1 PUSH1 0xA0 SHL SUB AND CALLER PUSH1 0x1 PUSH1 0x1 PUSH1 0xA0 SHL SUB AND EQ DUP1 PUSH2 0x1300 JUMPI POP PUSH1 0x6 SLOAD PUSH1 0x1 PUSH1 0x1 PUSH1 0xA0 SHL SUB AND CALLER EQ JUMPDEST PUSH2 0x131C JUMPI PUSH1 0x40 MLOAD PUSH3 0x461BCD PUSH1 0xE5 SHL DUP2 MSTORE PUSH1 0x4 ADD PUSH2 0x509 SWAP1 PUSH2 0x2351 JUMP JUMPDEST PUSH1 0x40 MLOAD PUSH4 0x23B872DD PUSH1 0xE0 SHL DUP2 MSTORE CALLER PUSH1 0x4 DUP3 ADD MSTORE ADDRESS PUSH1 0x24 DUP3 ADD MSTORE PUSH1 0x44 DUP2 ADD DUP4 SWAP1 MSTORE PUSH1 0x1 PUSH1 0x1 PUSH1 0xA0 SHL SUB DUP6 AND SWAP1 PUSH4 0x23B872DD SWAP1 PUSH1 0x64 ADD PUSH1 0x20 PUSH1 0x40 MLOAD DUP1 DUP4 SUB DUP2 PUSH1 0x0 DUP8 GAS CALL ISZERO DUP1 ISZERO PUSH2 0x136F JUMPI RETURNDATASIZE PUSH1 0x0 DUP1 RETURNDATACOPY RETURNDATASIZE PUSH1 0x0 REVERT JUMPDEST POP POP POP POP PUSH1 0x40 MLOAD RETURNDATASIZE PUSH1 0x1F NOT PUSH1 0x1F DUP3 ADD AND DUP3 ADD DUP1 PUSH1 0x40 MSTORE POP DUP2 ADD SWAP1 PUSH2 0x1393 SWAP2 SWAP1 PUSH2 0x23D0 JUMP JUMPDEST POP PUSH1 0x7 SLOAD PUSH1 0x0 SWAP1 DUP2 SWAP1 PUSH1 0x1 PUSH1 0x1 PUSH1 0xA0 SHL SUB DUP8 DUP2 AND SWAP2 AND EQ PUSH2 0x13C9 JUMPI PUSH1 0x9 SLOAD PUSH1 0x1 PUSH1 0x1 PUSH1 0x70 SHL SUB PUSH1 0x1 PUSH1 0x70 SHL DUP3 DIV DUP2 AND SWAP2 AND PUSH2 0x13E1 JUMP JUMPDEST PUSH1 0x9 SLOAD PUSH1 0x1 PUSH1 0x1 PUSH1 0x70 SHL SUB DUP1 DUP3 AND SWAP2 PUSH1 0x1 PUSH1 0x70 SHL SWAP1 DIV AND JUMPDEST PUSH1 0x1 PUSH1 0x1 PUSH1 0x70 SHL SUB AND SWAP2 POP PUSH1 0x1 PUSH1 0x1 PUSH1 0x70 SHL SUB AND SWAP2 POP PUSH2 0x1402 DUP5 DUP4 DUP4 PUSH2 0x4AA JUMP JUMPDEST PUSH1 0x7 SLOAD SWAP1 SWAP4 POP PUSH1 0x0 SWAP1 DUP2 SWAP1 PUSH1 0x1 PUSH1 0x1 PUSH1 0xA0 SHL SUB DUP10 DUP2 AND SWAP2 AND EQ PUSH2 0x1427 JUMPI DUP5 PUSH1 0x0 PUSH2 0x142B JUMP JUMPDEST PUSH1 0x0 DUP6 JUMPDEST SWAP2 POP SWAP2 POP PUSH2 0x143A DUP3 DUP3 DUP10 PUSH2 0xA5D JUMP JUMPDEST POP POP POP POP SWAP4 SWAP3 POP POP POP JUMP JUMPDEST PUSH1 0x0 PUSH2 0x651 CALLER DUP5 DUP5 PUSH2 0x1B39 JUMP JUMPDEST PUSH2 0x145A PUSH2 0x12BE JUMP JUMPDEST PUSH1 0x1 PUSH1 0x1 PUSH1 0xA0 SHL SUB AND CALLER PUSH1 0x1 PUSH1 0x1 PUSH1 0xA0 SHL SUB AND EQ DUP1 PUSH2 0x1483 JUMPI POP PUSH1 0x6 SLOAD PUSH1 0x1 PUSH1 0x1 PUSH1 0xA0 SHL SUB AND CALLER EQ JUMPDEST PUSH2 0x149F JUMPI PUSH1 0x40 MLOAD PUSH3 0x461BCD PUSH1 0xE5 SHL DUP2 MSTORE PUSH1 0x4 ADD PUSH2 0x509 SWAP1 PUSH2 0x2351 JUMP JUMPDEST PUSH1 0xD SLOAD PUSH1 0x1 EQ PUSH2 0x14C1 JUMPI PUSH1 0x40 MLOAD PUSH3 0x461BCD PUSH1 0xE5 SHL DUP2 MSTORE PUSH1 0x4 ADD PUSH2 0x509 SWAP1 PUSH2 0x238E JUMP JUMPDEST PUSH1 0x0 PUSH1 0xD SSTORE PUSH1 0x7 SLOAD PUSH1 0x8 SLOAD PUSH1 0x9 SLOAD PUSH1 0x40 MLOAD PUSH4 0x70A08231 PUSH1 0xE0 SHL DUP2 MSTORE PUSH1 0x1 PUSH1 0x1 PUSH1 0xA0 SHL SUB SWAP4 DUP5 AND SWAP4 SWAP1 SWAP3 AND SWAP2 PUSH2 0x1564 SWAP2 DUP5 SWAP2 DUP7 SWAP2 PUSH1 0x1 PUSH1 0x1 PUSH1 0x70 SHL SUB AND SWAP1 DUP4 SWAP1 PUSH4 0x70A08231 SWAP1 PUSH2 0x1514 SWAP1 ADDRESS SWAP1 PUSH1 0x4 ADD PUSH2 0x21A1 JUMP JUMPDEST PUSH1 0x20 PUSH1 0x40 MLOAD DUP1 DUP4 SUB DUP2 DUP7 GAS STATICCALL ISZERO DUP1 ISZERO PUSH2 0x1531 JUMPI RETURNDATASIZE PUSH1 0x0 DUP1 RETURNDATACOPY RETURNDATASIZE PUSH1 0x0 REVERT JUMPDEST POP POP POP POP PUSH1 0x40 MLOAD RETURNDATASIZE PUSH1 0x1F NOT PUSH1 0x1F DUP3 ADD AND DUP3 ADD DUP1 PUSH1 0x40 MSTORE POP DUP2 ADD SWAP1 PUSH2 0x1555 SWAP2 SWAP1 PUSH2 0x23B7 JUMP JUMPDEST PUSH2 0x155F SWAP2 SWAP1 PUSH2 0x237B JUMP JUMPDEST PUSH2 0x1EAA JUMP JUMPDEST PUSH1 0x9 SLOAD PUSH1 0x40 MLOAD PUSH4 0x70A08231 PUSH1 0xE0 SHL DUP2 MSTORE PUSH2 0x15AC SWAP2 DUP4 SWAP2 DUP7 SWAP2 PUSH1 0x1 PUSH1 0x70 SHL SWAP1 DIV PUSH1 0x1 PUSH1 0x1 PUSH1 0x70 SHL SUB AND SWAP1 PUSH1 0x1 PUSH1 0x1 PUSH1 0xA0 SHL SUB DUP5 AND SWAP1 PUSH4 0x70A08231 SWAP1 PUSH2 0x1514 SWAP1 ADDRESS SWAP1 PUSH1 0x4 ADD PUSH2 0x21A1 JUMP JUMPDEST POP POP PUSH1 0x1 PUSH1 0xD SSTORE POP JUMP JUMPDEST TIMESTAMP DUP5 LT ISZERO PUSH2 0x15F9 JUMPI PUSH1 0x40 MLOAD PUSH3 0x461BCD PUSH1 0xE5 SHL DUP2 MSTORE PUSH1 0x20 PUSH1 0x4 DUP3 ADD MSTORE PUSH1 0x10 PUSH1 0x24 DUP3 ADD MSTORE PUSH16 0x14185B98D85AD94E8811561412549151 PUSH1 0x82 SHL PUSH1 0x44 DUP3 ADD MSTORE PUSH1 0x64 ADD PUSH2 0x509 JUMP JUMPDEST PUSH1 0x3 SLOAD PUSH1 0x1 PUSH1 0x1 PUSH1 0xA0 SHL SUB DUP9 AND PUSH1 0x0 SWAP1 DUP2 MSTORE PUSH1 0x4 PUSH1 0x20 MSTORE PUSH1 0x40 DUP2 KECCAK256 DUP1 SLOAD SWAP2 SWAP3 SWAP2 PUSH1 0x0 DUP1 MLOAD PUSH1 0x20 PUSH2 0x2518 DUP4 CODECOPY DUP2 MLOAD SWAP2 MSTORE SWAP2 DUP12 SWAP2 DUP12 SWAP2 DUP12 SWAP2 SWAP1 DUP8 PUSH2 0x163A DUP4 PUSH2 0x23F2 JUMP JUMPDEST SWAP1 SWAP2 SSTORE POP PUSH1 0x40 DUP1 MLOAD PUSH1 0x20 DUP2 ADD SWAP7 SWAP1 SWAP7 MSTORE PUSH1 0x1 PUSH1 0x1 PUSH1 0xA0 SHL SUB SWAP5 DUP6 AND SWAP1 DUP7 ADD MSTORE SWAP3 SWAP1 SWAP2 AND PUSH1 0x60 DUP5 ADD MSTORE PUSH1 0x80 DUP4 ADD MSTORE PUSH1 0xA0 DUP3 ADD MSTORE PUSH1 0xC0 DUP2 ADD DUP8 SWAP1 MSTORE PUSH1 0xE0 ADD PUSH1 0x40 MLOAD PUSH1 0x20 DUP2 DUP4 SUB SUB DUP2 MSTORE SWAP1 PUSH1 0x40 MSTORE DUP1 MLOAD SWAP1 PUSH1 0x20 ADD KECCAK256 PUSH1 0x40 MLOAD PUSH1 0x20 ADD PUSH2 0x16B3 SWAP3 SWAP2 SWAP1 PUSH2 0x1901 PUSH1 0xF0 SHL DUP2 MSTORE PUSH1 0x2 DUP2 ADD SWAP3 SWAP1 SWAP3 MSTORE PUSH1 0x22 DUP3 ADD MSTORE PUSH1 0x42 ADD SWAP1 JUMP JUMPDEST PUSH1 0x40 DUP1 MLOAD PUSH1 0x1F NOT DUP2 DUP5 SUB ADD DUP2 MSTORE DUP3 DUP3 MSTORE DUP1 MLOAD PUSH1 0x20 SWAP2 DUP3 ADD KECCAK256 PUSH1 0x0 DUP1 DUP6 MSTORE SWAP2 DUP5 ADD DUP1 DUP5 MSTORE DUP2 SWAP1 MSTORE PUSH1 0xFF DUP9 AND SWAP3 DUP5 ADD SWAP3 SWAP1 SWAP3 MSTORE PUSH1 0x60 DUP4 ADD DUP7 SWAP1 MSTORE PUSH1 0x80 DUP4 ADD DUP6 SWAP1 MSTORE SWAP1 SWAP3 POP SWAP1 PUSH1 0x1 SWAP1 PUSH1 0xA0 ADD PUSH1 0x20 PUSH1 0x40 MLOAD PUSH1 0x20 DUP2 SUB SWAP1 DUP1 DUP5 SUB SWAP1 DUP6 GAS STATICCALL ISZERO DUP1 ISZERO PUSH2 0x171E JUMPI RETURNDATASIZE PUSH1 0x0 DUP1 RETURNDATACOPY RETURNDATASIZE PUSH1 0x0 REVERT JUMPDEST POP POP PUSH1 0x40 MLOAD PUSH1 0x1F NOT ADD MLOAD SWAP2 POP POP PUSH1 0x1 PUSH1 0x1 PUSH1 0xA0 SHL SUB DUP2 AND ISZERO DUP1 ISZERO SWAP1 PUSH2 0x1754 JUMPI POP DUP9 PUSH1 0x1 PUSH1 0x1 PUSH1 0xA0 SHL SUB AND DUP2 PUSH1 0x1 PUSH1 0x1 PUSH1 0xA0 SHL SUB AND EQ JUMPDEST PUSH2 0x179D JUMPI PUSH1 0x40 MLOAD PUSH3 0x461BCD PUSH1 0xE5 SHL DUP2 MSTORE PUSH1 0x20 PUSH1 0x4 DUP3 ADD MSTORE PUSH1 0x1A PUSH1 0x24 DUP3 ADD MSTORE PUSH26 0x50616E63616B653A20494E56414C49445F5349474E4154555245 PUSH1 0x30 SHL PUSH1 0x44 DUP3 ADD MSTORE PUSH1 0x64 ADD PUSH2 0x509 JUMP JUMPDEST PUSH2 0x17A8 DUP10 DUP10 DUP10 PUSH2 0x1A78 JUMP JUMPDEST POP POP POP POP POP POP POP POP POP JUMP JUMPDEST PUSH1 0xD SLOAD PUSH1 0x1 EQ PUSH2 0x17D5 JUMPI PUSH1 0x40 MLOAD PUSH3 0x461BCD PUSH1 0xE5 SHL DUP2 MSTORE PUSH1 0x4 ADD PUSH2 0x509 SWAP1 PUSH2 0x238E JUMP JUMPDEST PUSH1 0x0 PUSH1 0xD SSTORE PUSH2 0x17E2 PUSH2 0x12BE JUMP JUMPDEST PUSH1 0x1 PUSH1 0x1 PUSH1 0xA0 SHL SUB AND CALLER PUSH1 0x1 PUSH1 0x1 PUSH1 0xA0 SHL SUB AND EQ DUP1 PUSH2 0x180B JUMPI POP PUSH1 0x6 SLOAD PUSH1 0x1 PUSH1 0x1 PUSH1 0xA0 SHL SUB AND CALLER EQ JUMPDEST PUSH2 0x1827 JUMPI PUSH1 0x40 MLOAD PUSH3 0x461BCD PUSH1 0xE5 SHL DUP2 MSTORE PUSH1 0x4 ADD PUSH2 0x509 SWAP1 PUSH2 0x2351 JUMP JUMPDEST DUP3 ISZERO PUSH2 0x1844 JUMPI PUSH1 0x7 SLOAD PUSH2 0x1844 SWAP1 PUSH1 0x1 PUSH1 0x1 PUSH1 0xA0 SHL SUB AND DUP3 DUP6 PUSH2 0x1EAA JUMP JUMPDEST DUP2 ISZERO PUSH2 0x1861 JUMPI PUSH1 0x8 SLOAD PUSH2 0x1861 SWAP1 PUSH1 0x1 PUSH1 0x1 PUSH1 0xA0 SHL SUB AND DUP3 DUP5 PUSH2 0x1EAA JUMP JUMPDEST PUSH1 0x7 SLOAD PUSH1 0x40 MLOAD PUSH4 0x70A08231 PUSH1 0xE0 SHL DUP2 MSTORE PUSH2 0x1961 SWAP2 PUSH1 0x1 PUSH1 0x1 PUSH1 0xA0 SHL SUB AND SWAP1 PUSH4 0x70A08231 SWAP1 PUSH2 0x1893 SWAP1 ADDRESS SWAP1 PUSH1 0x4 ADD PUSH2 0x21A1 JUMP JUMPDEST PUSH1 0x20 PUSH1 0x40 MLOAD DUP1 DUP4 SUB DUP2 DUP7 GAS STATICCALL ISZERO DUP1 ISZERO PUSH2 0x18B0 JUMPI RETURNDATASIZE PUSH1 0x0 DUP1 RETURNDATACOPY RETURNDATASIZE PUSH1 0x0 REVERT JUMPDEST POP POP POP POP PUSH1 0x40 MLOAD RETURNDATASIZE PUSH1 0x1F NOT PUSH1 0x1F DUP3 ADD AND DUP3 ADD DUP1 PUSH1 0x40 MSTORE POP DUP2 ADD SWAP1 PUSH2 0x18D4 SWAP2 SWAP1 PUSH2 0x23B7 JUMP JUMPDEST PUSH1 0x8 SLOAD PUSH1 0x40 MLOAD PUSH4 0x70A08231 PUSH1 0xE0 SHL DUP2 MSTORE PUSH1 0x1 PUSH1 0x1 PUSH1 0xA0 SHL SUB SWAP1 SWAP2 AND SWAP1 PUSH4 0x70A08231 SWAP1 PUSH2 0x1904 SWAP1 ADDRESS SWAP1 PUSH1 0x4 ADD PUSH2 0x21A1 JUMP JUMPDEST PUSH1 0x20 PUSH1 0x40 MLOAD DUP1 DUP4 SUB DUP2 DUP7 GAS STATICCALL ISZERO DUP1 ISZERO PUSH2 0x1921 JUMPI RETURNDATASIZE PUSH1 0x0 DUP1 RETURNDATACOPY RETURNDATASIZE PUSH1 0x0 REVERT JUMPDEST POP POP POP POP PUSH1 0x40 MLOAD RETURNDATASIZE PUSH1 0x1F NOT PUSH1 0x1F DUP3 ADD AND DUP3 ADD DUP1 PUSH1 0x40 MSTORE POP DUP2 ADD SWAP1 PUSH2 0x1945 SWAP2 SWAP1 PUSH2 0x23B7 JUMP JUMPDEST PUSH1 0x9 SLOAD PUSH1 0x1 PUSH1 0x1 PUSH1 0x70 SHL SUB DUP1 DUP3 AND SWAP2 PUSH1 0x1 PUSH1 0x70 SHL SWAP1 DIV AND PUSH2 0x1CC1 JUMP JUMPDEST PUSH1 0x40 DUP1 MLOAD DUP5 DUP2 MSTORE PUSH1 0x20 DUP2 ADD DUP5 SWAP1 MSTORE PUSH1 0x1 PUSH1 0x1 PUSH1 0xA0 SHL SUB DUP4 AND SWAP2 CALLER SWAP2 PUSH1 0x0 DUP1 MLOAD PUSH1 0x20 PUSH2 0x24D8 DUP4 CODECOPY DUP2 MLOAD SWAP2 MSTORE SWAP2 ADD PUSH1 0x40 MLOAD DUP1 SWAP2 SUB SWAP1 LOG3 POP POP PUSH1 0x1 PUSH1 0xD SSTORE POP JUMP JUMPDEST PUSH2 0x19A7 PUSH2 0x1ADA JUMP JUMPDEST PUSH1 0x1 PUSH1 0x1 PUSH1 0xA0 SHL SUB DUP2 AND PUSH2 0x1A0C JUMPI PUSH1 0x40 MLOAD PUSH3 0x461BCD PUSH1 0xE5 SHL DUP2 MSTORE PUSH1 0x20 PUSH1 0x4 DUP3 ADD MSTORE PUSH1 0x26 PUSH1 0x24 DUP3 ADD MSTORE PUSH32 0x4F776E61626C653A206E6577206F776E657220697320746865207A65726F2061 PUSH1 0x44 DUP3 ADD MSTORE PUSH6 0x646472657373 PUSH1 0xD0 SHL PUSH1 0x64 DUP3 ADD MSTORE PUSH1 0x84 ADD PUSH2 0x509 JUMP JUMPDEST PUSH2 0x1A15 DUP2 PUSH2 0x1FEC JUMP JUMPDEST POP JUMP JUMPDEST PUSH1 0xD SLOAD PUSH1 0x1 EQ PUSH2 0x1A3A JUMPI PUSH1 0x40 MLOAD PUSH3 0x461BCD PUSH1 0xE5 SHL DUP2 MSTORE PUSH1 0x4 ADD PUSH2 0x509 SWAP1 PUSH2 0x238E JUMP JUMPDEST PUSH1 0x0 PUSH1 0xD SSTORE PUSH1 0x7 SLOAD PUSH1 0x40 MLOAD PUSH4 0x70A08231 PUSH1 0xE0 SHL DUP2 MSTORE PUSH2 0x1A71 SWAP2 PUSH1 0x1 PUSH1 0x1 PUSH1 0xA0 SHL SUB AND SWAP1 PUSH4 0x70A08231 SWAP1 PUSH2 0x1893 SWAP1 ADDRESS SWAP1 PUSH1 0x4 ADD PUSH2 0x21A1 JUMP JUMPDEST PUSH1 0x1 PUSH1 0xD SSTORE JUMP JUMPDEST PUSH1 0x1 PUSH1 0x1 PUSH1 0xA0 SHL SUB DUP4 DUP2 AND PUSH1 0x0 DUP2 DUP2 MSTORE PUSH1 0x2 PUSH1 0x20 SWAP1 DUP2 MSTORE PUSH1 0x40 DUP1 DUP4 KECCAK256 SWAP5 DUP8 AND DUP1 DUP5 MSTORE SWAP5 DUP3 MSTORE SWAP2 DUP3 SWAP1 KECCAK256 DUP6 SWAP1 SSTORE SWAP1 MLOAD DUP5 DUP2 MSTORE PUSH32 0x8C5BE1E5EBEC7D5BD14F71427D1E84F3DD0314C0F7B2291E5B200AC8C7C3B925 SWAP2 ADD JUMPDEST PUSH1 0x40 MLOAD DUP1 SWAP2 SUB SWAP1 LOG3 POP POP POP JUMP JUMPDEST CALLER PUSH2 0x1AE3 PUSH2 0x12BE JUMP JUMPDEST PUSH1 0x1 PUSH1 0x1 PUSH1 0xA0 SHL SUB AND EQ PUSH2 0x618 JUMPI PUSH1 0x40 MLOAD PUSH3 0x461BCD PUSH1 0xE5 SHL DUP2 MSTORE PUSH1 0x20 PUSH1 0x4 DUP3 ADD DUP2 SWAP1 MSTORE PUSH1 0x24 DUP3 ADD MSTORE PUSH32 0x4F776E61626C653A2063616C6C6572206973206E6F7420746865206F776E6572 PUSH1 0x44 DUP3 ADD MSTORE PUSH1 0x64 ADD PUSH2 0x509 JUMP JUMPDEST PUSH1 0x1 PUSH1 0x1 PUSH1 0xA0 SHL SUB DUP4 AND PUSH1 0x0 SWAP1 DUP2 MSTORE PUSH1 0x1 PUSH1 0x20 MSTORE PUSH1 0x40 DUP2 KECCAK256 DUP1 SLOAD DUP4 SWAP3 SWAP1 PUSH2 0x1B61 SWAP1 DUP5 SWAP1 PUSH2 0x237B JUMP JUMPDEST SWAP1 SWAP2 SSTORE POP POP PUSH1 0x1 PUSH1 0x1 PUSH1 0xA0 SHL SUB DUP3 AND PUSH1 0x0 SWAP1 DUP2 MSTORE PUSH1 0x1 PUSH1 0x20 MSTORE PUSH1 0x40 DUP2 KECCAK256 DUP1 SLOAD DUP4 SWAP3 SWAP1 PUSH2 0x1B8E SWAP1 DUP5 SWAP1 PUSH2 0x2314 JUMP JUMPDEST SWAP3 POP POP DUP2 SWAP1 SSTORE POP DUP2 PUSH1 0x1 PUSH1 0x1 PUSH1 0xA0 SHL SUB AND DUP4 PUSH1 0x1 PUSH1 0x1 PUSH1 0xA0 SHL SUB AND PUSH1 0x0 DUP1 MLOAD PUSH1 0x20 PUSH2 0x24F8 DUP4 CODECOPY DUP2 MLOAD SWAP2 MSTORE DUP4 PUSH1 0x40 MLOAD PUSH2 0x1ACD SWAP2 DUP2 MSTORE PUSH1 0x20 ADD SWAP1 JUMP JUMPDEST PUSH1 0x0 PUSH1 0x3 DUP3 GT ISZERO PUSH2 0x1C29 JUMPI POP DUP1 PUSH1 0x0 PUSH2 0x1BE2 PUSH1 0x2 DUP4 PUSH2 0x233D JUMP JUMPDEST PUSH2 0x1BED SWAP1 PUSH1 0x1 PUSH2 0x2314 JUMP JUMPDEST SWAP1 POP JUMPDEST DUP2 DUP2 LT ISZERO PUSH2 0x1C23 JUMPI SWAP1 POP DUP1 PUSH1 0x2 DUP2 PUSH2 0x1C08 DUP2 DUP7 PUSH2 0x233D JUMP JUMPDEST PUSH2 0x1C12 SWAP2 SWAP1 PUSH2 0x2314 JUMP JUMPDEST PUSH2 0x1C1C SWAP2 SWAP1 PUSH2 0x233D JUMP JUMPDEST SWAP1 POP PUSH2 0x1BF0 JUMP JUMPDEST POP SWAP2 SWAP1 POP JUMP JUMPDEST DUP2 ISZERO PUSH2 0x1C33 JUMPI POP PUSH1 0x1 JUMPDEST SWAP2 SWAP1 POP JUMP JUMPDEST DUP1 PUSH1 0x0 SLOAD PUSH2 0x1C46 SWAP2 SWAP1 PUSH2 0x2314 JUMP JUMPDEST PUSH1 0x0 SWAP1 DUP2 SSTORE PUSH1 0x1 PUSH1 0x1 PUSH1 0xA0 SHL SUB DUP4 AND DUP2 MSTORE PUSH1 0x1 PUSH1 0x20 MSTORE PUSH1 0x40 DUP2 KECCAK256 DUP1 SLOAD DUP4 SWAP3 SWAP1 PUSH2 0x1C70 SWAP1 DUP5 SWAP1 PUSH2 0x2314 JUMP JUMPDEST SWAP1 SWAP2 SSTORE POP POP PUSH1 0x40 MLOAD DUP2 DUP2 MSTORE PUSH1 0x1 PUSH1 0x1 PUSH1 0xA0 SHL SUB DUP4 AND SWAP1 PUSH1 0x0 SWAP1 PUSH1 0x0 DUP1 MLOAD PUSH1 0x20 PUSH2 0x24F8 DUP4 CODECOPY DUP2 MLOAD SWAP2 MSTORE SWAP1 PUSH1 0x20 ADD JUMPDEST PUSH1 0x40 MLOAD DUP1 SWAP2 SUB SWAP1 LOG3 POP POP JUMP JUMPDEST PUSH1 0x0 DUP2 DUP4 LT PUSH2 0x1CB8 JUMPI DUP2 PUSH2 0x1CBA JUMP JUMPDEST DUP3 JUMPDEST SWAP4 SWAP3 POP POP POP JUMP JUMPDEST PUSH1 0x1 PUSH1 0x1 PUSH1 0x70 SHL SUB DUP5 GT DUP1 ISZERO SWAP1 PUSH2 0x1CDF JUMPI POP PUSH1 0x1 PUSH1 0x1 PUSH1 0x70 SHL SUB DUP4 GT ISZERO JUMPDEST PUSH2 0x1D1F JUMPI PUSH1 0x40 MLOAD PUSH3 0x461BCD PUSH1 0xE5 SHL DUP2 MSTORE PUSH1 0x20 PUSH1 0x4 DUP3 ADD MSTORE PUSH1 0x11 PUSH1 0x24 DUP3 ADD MSTORE PUSH17 0x50616E63616B653A204F564552464C4F57 PUSH1 0x78 SHL PUSH1 0x44 DUP3 ADD MSTORE PUSH1 0x64 ADD PUSH2 0x509 JUMP JUMPDEST PUSH1 0x0 PUSH2 0x1D2F PUSH1 0x1 PUSH1 0x20 SHL TIMESTAMP PUSH2 0x240B JUMP JUMPDEST PUSH1 0x9 SLOAD SWAP1 SWAP2 POP PUSH1 0x0 SWAP1 PUSH2 0x1D4F SWAP1 PUSH1 0x1 PUSH1 0xE0 SHL SWAP1 DIV PUSH4 0xFFFFFFFF AND DUP4 PUSH2 0x241F JUMP JUMPDEST SWAP1 POP PUSH1 0x0 DUP2 PUSH4 0xFFFFFFFF AND GT DUP1 ISZERO PUSH2 0x1D6F JUMPI POP PUSH1 0x1 PUSH1 0x1 PUSH1 0x70 SHL SUB DUP5 AND ISZERO ISZERO JUMPDEST DUP1 ISZERO PUSH2 0x1D83 JUMPI POP PUSH1 0x1 PUSH1 0x1 PUSH1 0x70 SHL SUB DUP4 AND ISZERO ISZERO JUMPDEST ISZERO PUSH2 0x1E12 JUMPI DUP1 PUSH4 0xFFFFFFFF AND PUSH2 0x1DAB DUP6 PUSH2 0x1D9C DUP7 PUSH2 0x20AF JUMP JUMPDEST PUSH1 0x1 PUSH1 0x1 PUSH1 0xE0 SHL SUB AND SWAP1 PUSH2 0x20C8 JUMP JUMPDEST PUSH1 0x1 PUSH1 0x1 PUSH1 0xE0 SHL SUB AND PUSH2 0x1DBE SWAP2 SWAP1 PUSH2 0x22FD JUMP JUMPDEST PUSH1 0xA PUSH1 0x0 DUP3 DUP3 SLOAD PUSH2 0x1DCF SWAP2 SWAP1 PUSH2 0x2314 JUMP JUMPDEST SWAP1 SWAP2 SSTORE POP POP PUSH4 0xFFFFFFFF DUP2 AND PUSH2 0x1DE8 DUP5 PUSH2 0x1D9C DUP8 PUSH2 0x20AF JUMP JUMPDEST PUSH1 0x1 PUSH1 0x1 PUSH1 0xE0 SHL SUB AND PUSH2 0x1DFB SWAP2 SWAP1 PUSH2 0x22FD JUMP JUMPDEST PUSH1 0xB PUSH1 0x0 DUP3 DUP3 SLOAD PUSH2 0x1E0C SWAP2 SWAP1 PUSH2 0x2314 JUMP JUMPDEST SWAP1 SWAP2 SSTORE POP POP JUMPDEST PUSH1 0x9 DUP1 SLOAD PUSH4 0xFFFFFFFF DUP5 AND PUSH1 0x1 PUSH1 0xE0 SHL MUL PUSH1 0x1 PUSH1 0x1 PUSH1 0xE0 SHL SUB PUSH1 0x1 PUSH1 0x1 PUSH1 0x70 SHL SUB DUP10 DUP2 AND PUSH1 0x1 PUSH1 0x70 SHL SWAP1 DUP2 MUL PUSH1 0x1 PUSH1 0x1 PUSH1 0xE0 SHL SUB NOT SWAP1 SWAP6 AND DUP13 DUP4 AND OR SWAP5 SWAP1 SWAP5 OR SWAP2 DUP3 AND DUP4 OR SWAP5 DUP6 SWAP1 SSTORE PUSH1 0x40 DUP1 MLOAD SWAP4 DUP3 AND SWAP3 DUP3 AND SWAP3 SWAP1 SWAP3 OR DUP4 MSTORE SWAP3 SWAP1 SWAP4 DIV SWAP1 SWAP2 AND PUSH1 0x20 DUP3 ADD MSTORE PUSH32 0x1C411E9A96E071241C2F21F7726B17AE89E3CAB4C78BE50E062B03A9FFFBBAD1 SWAP2 ADD PUSH1 0x40 MLOAD DUP1 SWAP2 SUB SWAP1 LOG1 POP POP POP POP POP POP JUMP JUMPDEST PUSH1 0x40 DUP1 MLOAD DUP1 DUP3 ADD DUP3 MSTORE PUSH1 0x19 DUP2 MSTORE PUSH25 0x7472616E7366657228616464726573732C75696E7432353629 PUSH1 0x38 SHL PUSH1 0x20 SWAP2 DUP3 ADD MSTORE DUP2 MLOAD PUSH1 0x1 PUSH1 0x1 PUSH1 0xA0 SHL SUB DUP6 DUP2 AND PUSH1 0x24 DUP4 ADD MSTORE PUSH1 0x44 DUP1 DUP4 ADD DUP7 SWAP1 MSTORE DUP5 MLOAD DUP1 DUP5 SUB SWAP1 SWAP2 ADD DUP2 MSTORE PUSH1 0x64 SWAP1 SWAP3 ADD DUP5 MSTORE SWAP2 DUP2 ADD DUP1 MLOAD PUSH1 0x1 PUSH1 0x1 PUSH1 0xE0 SHL SUB AND PUSH4 0xA9059CBB PUSH1 0xE0 SHL OR SWAP1 MSTORE SWAP2 MLOAD PUSH1 0x0 SWAP3 DUP4 SWAP3 DUP8 AND SWAP2 PUSH2 0x1F32 SWAP2 SWAP1 PUSH2 0x2443 JUMP JUMPDEST PUSH1 0x0 PUSH1 0x40 MLOAD DUP1 DUP4 SUB DUP2 PUSH1 0x0 DUP7 GAS CALL SWAP2 POP POP RETURNDATASIZE DUP1 PUSH1 0x0 DUP2 EQ PUSH2 0x1F6F JUMPI PUSH1 0x40 MLOAD SWAP2 POP PUSH1 0x1F NOT PUSH1 0x3F RETURNDATASIZE ADD AND DUP3 ADD PUSH1 0x40 MSTORE RETURNDATASIZE DUP3 MSTORE RETURNDATASIZE PUSH1 0x0 PUSH1 0x20 DUP5 ADD RETURNDATACOPY PUSH2 0x1F74 JUMP JUMPDEST PUSH1 0x60 SWAP2 POP JUMPDEST POP SWAP2 POP SWAP2 POP DUP2 DUP1 ISZERO PUSH2 0x1F9E JUMPI POP DUP1 MLOAD ISZERO DUP1 PUSH2 0x1F9E JUMPI POP DUP1 DUP1 PUSH1 0x20 ADD SWAP1 MLOAD DUP2 ADD SWAP1 PUSH2 0x1F9E SWAP2 SWAP1 PUSH2 0x23D0 JUMP JUMPDEST PUSH2 0x1FE5 JUMPI PUSH1 0x40 MLOAD PUSH3 0x461BCD PUSH1 0xE5 SHL DUP2 MSTORE PUSH1 0x20 PUSH1 0x4 DUP3 ADD MSTORE PUSH1 0x18 PUSH1 0x24 DUP3 ADD MSTORE PUSH24 0x14185B98D85AD94E881514905394D1915497D19052531151 PUSH1 0x42 SHL PUSH1 0x44 DUP3 ADD MSTORE PUSH1 0x64 ADD PUSH2 0x509 JUMP JUMPDEST POP POP POP POP POP JUMP JUMPDEST PUSH1 0x5 DUP1 SLOAD PUSH1 0x1 PUSH1 0x1 PUSH1 0xA0 SHL SUB DUP4 DUP2 AND PUSH1 0x1 PUSH1 0x1 PUSH1 0xA0 SHL SUB NOT DUP4 AND DUP2 OR SWAP1 SWAP4 SSTORE PUSH1 0x40 MLOAD SWAP2 AND SWAP2 SWAP1 DUP3 SWAP1 PUSH32 0x8BE0079C531659141344CD1FD0A4F28419497F9722A3DAAFE3B4186F6B6457E0 SWAP1 PUSH1 0x0 SWAP1 LOG3 POP POP JUMP JUMPDEST PUSH1 0x1 PUSH1 0x1 PUSH1 0xA0 SHL SUB DUP3 AND PUSH1 0x0 SWAP1 DUP2 MSTORE PUSH1 0x1 PUSH1 0x20 MSTORE PUSH1 0x40 DUP2 KECCAK256 DUP1 SLOAD DUP4 SWAP3 SWAP1 PUSH2 0x2066 SWAP1 DUP5 SWAP1 PUSH2 0x237B JUMP JUMPDEST SWAP3 POP POP DUP2 SWAP1 SSTORE POP DUP1 PUSH1 0x0 DUP1 DUP3 DUP3 SLOAD PUSH2 0x207E SWAP2 SWAP1 PUSH2 0x237B JUMP JUMPDEST SWAP1 SWAP2 SSTORE POP POP PUSH1 0x40 MLOAD DUP2 DUP2 MSTORE PUSH1 0x0 SWAP1 PUSH1 0x1 PUSH1 0x1 PUSH1 0xA0 SHL SUB DUP5 AND SWAP1 PUSH1 0x0 DUP1 MLOAD PUSH1 0x20 PUSH2 0x24F8 DUP4 CODECOPY DUP2 MLOAD SWAP2 MSTORE SWAP1 PUSH1 0x20 ADD PUSH2 0x1C9D JUMP JUMPDEST PUSH1 0x0 PUSH2 0x655 PUSH1 0x1 PUSH1 0x70 SHL PUSH1 0x1 PUSH1 0x1 PUSH1 0x70 SHL SUB DUP5 AND PUSH2 0x245F JUMP JUMPDEST PUSH1 0x0 PUSH2 0x1CBA PUSH1 0x1 PUSH1 0x1 PUSH1 0x70 SHL SUB DUP4 AND DUP5 PUSH2 0x2491 JUMP JUMPDEST PUSH1 0x0 DUP1 PUSH1 0x0 PUSH1 0x60 DUP5 DUP7 SUB SLT ISZERO PUSH2 0x20F2 JUMPI PUSH1 0x0 DUP1 REVERT JUMPDEST POP POP DUP2 CALLDATALOAD SWAP4 PUSH1 0x20 DUP4 ADD CALLDATALOAD SWAP4 POP PUSH1 0x40 SWAP1 SWAP3 ADD CALLDATALOAD SWAP2 SWAP1 POP JUMP JUMPDEST PUSH1 0x0 JUMPDEST DUP4 DUP2 LT ISZERO PUSH2 0x2124 JUMPI DUP2 DUP2 ADD MLOAD DUP4 DUP3 ADD MSTORE PUSH1 0x20 ADD PUSH2 0x210C JUMP JUMPDEST POP POP PUSH1 0x0 SWAP2 ADD MSTORE JUMP JUMPDEST PUSH1 0x20 DUP2 MSTORE PUSH1 0x0 DUP3 MLOAD DUP1 PUSH1 0x20 DUP5 ADD MSTORE PUSH2 0x214C DUP2 PUSH1 0x40 DUP6 ADD PUSH1 0x20 DUP8 ADD PUSH2 0x2109 JUMP JUMPDEST PUSH1 0x1F ADD PUSH1 0x1F NOT AND SWAP2 SWAP1 SWAP2 ADD PUSH1 0x40 ADD SWAP3 SWAP2 POP POP JUMP JUMPDEST DUP1 CALLDATALOAD PUSH1 0x1 PUSH1 0x1 PUSH1 0xA0 SHL SUB DUP2 AND DUP2 EQ PUSH2 0x1C33 JUMPI PUSH1 0x0 DUP1 REVERT JUMPDEST PUSH1 0x0 DUP1 PUSH1 0x40 DUP4 DUP6 SUB SLT ISZERO PUSH2 0x218A JUMPI PUSH1 0x0 DUP1 REVERT JUMPDEST PUSH2 0x2193 DUP4 PUSH2 0x2160 JUMP JUMPDEST SWAP5 PUSH1 0x20 SWAP4 SWAP1 SWAP4 ADD CALLDATALOAD SWAP4 POP POP POP JUMP JUMPDEST PUSH1 0x1 PUSH1 0x1 PUSH1 0xA0 SHL SUB SWAP2 SWAP1 SWAP2 AND DUP2 MSTORE PUSH1 0x20 ADD SWAP1 JUMP JUMPDEST PUSH1 0x0 PUSH1 0x20 DUP3 DUP5 SUB SLT ISZERO PUSH2 0x21C7 JUMPI PUSH1 0x0 DUP1 REVERT JUMPDEST PUSH2 0x1CBA DUP3 PUSH2 0x2160 JUMP JUMPDEST PUSH1 0x0 DUP1 PUSH1 0x0 PUSH1 0x60 DUP5 DUP7 SUB SLT ISZERO PUSH2 0x21E5 JUMPI PUSH1 0x0 DUP1 REVERT JUMPDEST PUSH2 0x21EE DUP5 PUSH2 0x2160 JUMP JUMPDEST SWAP3 POP PUSH2 0x21FC PUSH1 0x20 DUP6 ADD PUSH2 0x2160 JUMP JUMPDEST SWAP2 POP PUSH1 0x40 DUP5 ADD CALLDATALOAD SWAP1 POP SWAP3 POP SWAP3 POP SWAP3 JUMP JUMPDEST PUSH1 0x0 DUP1 PUSH1 0x40 DUP4 DUP6 SUB SLT ISZERO PUSH2 0x221F JUMPI PUSH1 0x0 DUP1 REVERT JUMPDEST PUSH2 0x2228 DUP4 PUSH2 0x2160 JUMP JUMPDEST SWAP2 POP PUSH2 0x2236 PUSH1 0x20 DUP5 ADD PUSH2 0x2160 JUMP JUMPDEST SWAP1 POP SWAP3 POP SWAP3 SWAP1 POP JUMP JUMPDEST PUSH1 0x0 DUP1 PUSH1 0x0 PUSH1 0x60 DUP5 DUP7 SUB SLT ISZERO PUSH2 0x2254 JUMPI PUSH1 0x0 DUP1 REVERT JUMPDEST DUP4 CALLDATALOAD SWAP3 POP PUSH1 0x20 DUP5 ADD CALLDATALOAD SWAP2 POP PUSH2 0x226B PUSH1 0x40 DUP6 ADD PUSH2 0x2160 JUMP JUMPDEST SWAP1 POP SWAP3 POP SWAP3 POP SWAP3 JUMP JUMPDEST PUSH1 0x0 DUP1 PUSH1 0x0 DUP1 PUSH1 0x0 DUP1 PUSH1 0x0 PUSH1 0xE0 DUP9 DUP11 SUB SLT ISZERO PUSH2 0x228F JUMPI PUSH1 0x0 DUP1 REVERT JUMPDEST PUSH2 0x2298 DUP9 PUSH2 0x2160 JUMP JUMPDEST SWAP7 POP PUSH2 0x22A6 PUSH1 0x20 DUP10 ADD PUSH2 0x2160 JUMP JUMPDEST SWAP6 POP PUSH1 0x40 DUP9 ADD CALLDATALOAD SWAP5 POP PUSH1 0x60 DUP9 ADD CALLDATALOAD SWAP4 POP PUSH1 0x80 DUP9 ADD CALLDATALOAD PUSH1 0xFF DUP2 AND DUP2 EQ PUSH2 0x22CA JUMPI PUSH1 0x0 DUP1 REVERT JUMPDEST SWAP7 SWAP10 SWAP6 SWAP9 POP SWAP4 SWAP7 SWAP3 SWAP6 SWAP5 PUSH1 0xA0 DUP5 ADD CALLDATALOAD SWAP5 POP PUSH1 0xC0 SWAP1 SWAP4 ADD CALLDATALOAD SWAP3 SWAP2 POP POP JUMP JUMPDEST PUSH4 0x4E487B71 PUSH1 0xE0 SHL PUSH1 0x0 MSTORE PUSH1 0x11 PUSH1 0x4 MSTORE PUSH1 0x24 PUSH1 0x0 REVERT JUMPDEST DUP1 DUP3 MUL DUP2 ISZERO DUP3 DUP3 DIV DUP5 EQ OR PUSH2 0x655 JUMPI PUSH2 0x655 PUSH2 0x22E7 JUMP JUMPDEST DUP1 DUP3 ADD DUP1 DUP3 GT ISZERO PUSH2 0x655 JUMPI PUSH2 0x655 PUSH2 0x22E7 JUMP JUMPDEST PUSH4 0x4E487B71 PUSH1 0xE0 SHL PUSH1 0x0 MSTORE PUSH1 0x12 PUSH1 0x4 MSTORE PUSH1 0x24 PUSH1 0x0 REVERT JUMPDEST PUSH1 0x0 DUP3 PUSH2 0x234C JUMPI PUSH2 0x234C PUSH2 0x2327 JUMP JUMPDEST POP DIV SWAP1 JUMP JUMPDEST PUSH1 0x20 DUP1 DUP3 MSTORE PUSH1 0x10 SWAP1 DUP3 ADD MSTORE PUSH16 0x2932B8BAB4B9329037B832B930BA37B9 PUSH1 0x81 SHL PUSH1 0x40 DUP3 ADD MSTORE PUSH1 0x60 ADD SWAP1 JUMP JUMPDEST DUP2 DUP2 SUB DUP2 DUP2 GT ISZERO PUSH2 0x655 JUMPI PUSH2 0x655 PUSH2 0x22E7 JUMP JUMPDEST PUSH1 0x20 DUP1 DUP3 MSTORE PUSH1 0xF SWAP1 DUP3 ADD MSTORE PUSH15 0x14185B98D85AD94E881313D0D2D151 PUSH1 0x8A SHL PUSH1 0x40 DUP3 ADD MSTORE PUSH1 0x60 ADD SWAP1 JUMP JUMPDEST PUSH1 0x0 PUSH1 0x20 DUP3 DUP5 SUB SLT ISZERO PUSH2 0x23C9 JUMPI PUSH1 0x0 DUP1 REVERT JUMPDEST POP MLOAD SWAP2 SWAP1 POP JUMP JUMPDEST PUSH1 0x0 PUSH1 0x20 DUP3 DUP5 SUB SLT ISZERO PUSH2 0x23E2 JUMPI PUSH1 0x0 DUP1 REVERT JUMPDEST DUP2 MLOAD DUP1 ISZERO ISZERO DUP2 EQ PUSH2 0x1CBA JUMPI PUSH1 0x0 DUP1 REVERT JUMPDEST PUSH1 0x0 PUSH1 0x1 DUP3 ADD PUSH2 0x2404 JUMPI PUSH2 0x2404 PUSH2 0x22E7 JUMP JUMPDEST POP PUSH1 0x1 ADD SWAP1 JUMP JUMPDEST PUSH1 0x0 DUP3 PUSH2 0x241A JUMPI PUSH2 0x241A PUSH2 0x2327 JUMP JUMPDEST POP MOD SWAP1 JUMP JUMPDEST PUSH4 0xFFFFFFFF DUP3 DUP2 AND DUP3 DUP3 AND SUB SWAP1 DUP1 DUP3 GT ISZERO PUSH2 0x243C JUMPI PUSH2 0x243C PUSH2 0x22E7 JUMP JUMPDEST POP SWAP3 SWAP2 POP POP JUMP JUMPDEST PUSH1 0x0 DUP3 MLOAD PUSH2 0x2455 DUP2 DUP5 PUSH1 0x20 DUP8 ADD PUSH2 0x2109 JUMP JUMPDEST SWAP2 SWAP1 SWAP2 ADD SWAP3 SWAP2 POP POP JUMP JUMPDEST PUSH1 0x1 PUSH1 0x1 PUSH1 0xE0 SHL SUB DUP3 DUP2 AND DUP3 DUP3 AND DUP2 DUP2 MUL DUP4 AND SWAP3 SWAP2 DUP2 ISZERO DUP3 DUP6 DIV DUP3 EQ OR PUSH2 0x2488 JUMPI PUSH2 0x2488 PUSH2 0x22E7 JUMP JUMPDEST POP POP POP SWAP3 SWAP2 POP POP JUMP JUMPDEST PUSH1 0x0 PUSH1 0x1 PUSH1 0x1 PUSH1 0xE0 SHL SUB DUP4 DUP2 AND DUP1 PUSH2 0x24AB JUMPI PUSH2 0x24AB PUSH2 0x2327 JUMP JUMPDEST SWAP3 AND SWAP2 SWAP1 SWAP2 DIV SWAP3 SWAP2 POP POP JUMP INVALID POP PUSH2 0x6E63 PUSH2 0x6B65 GASPRICE KECCAK256 0x49 0x4E MSTORE8 SSTORE CHAINID CHAINID 0x49 NUMBER 0x49 GASLIMIT 0x4E SLOAD PUSH0 0x4C 0x49 MLOAD SSTORE 0x49 DIFFICULTY 0x49 SLOAD MSIZE PUSH0 0xDC 0xCD COINBASE 0x2F SIGNEXTEND SLT MSTORE DUP2 SWAP13 0xB1 REVERT CALLER SIGNEXTEND SWAP4 0x22 0x4C LOG4 0x26 SLT DUP10 0x2B 0xB3 DELEGATECALL 0xF7 DUP10 SWAP8 PUSH15 0x6D81936496DDF252AD1BE2C89B69C2 0xB0 PUSH9 0xFC378DAA952BA7F163 0xC4 LOG1 AND 0x28 CREATE2 GAS 0x4D CREATE2 0x23 0xB3 0xEF PUSH15 0x71EDAE12B1B97F4D1F60370FEF1010 PUSH0 LOG2 STATICCALL 0xAE ADD 0x26 GT 0x4A AND SWAP13 PUSH5 0x845D6126C9 LOG2 PUSH5 0x6970667358 0x22 SLT KECCAK256 0xE0 0xE5 EXTCODESIZE 0x27 PUSH23 0x3B72143FD899E9AB8A1076D2AA8CED637C4DD58837FA15 0xEF GASPRICE DUP1 0x2A PUSH5 0x736F6C6343 STOP ADDMOD EQ STOP CALLER "
				},
				"gasEstimates": {
					"creation": {
						"codeDepositCost": "1916200",
						"executionCost": "infinite",
						"totalCost": "infinite"
					},
					"external": {
						"DOMAIN_SEPARATOR()": "1204",
						"MINIMUM_LIQUIDITY()": "734",
						"PERMIT_TYPEHASH()": "infinite",
						"allowance(address,address)": "infinite",
						"approve(address,uint256)": "22494",
						"balanceOf(address)": "1560",
						"burn(address)": "infinite",
						"changeFactory(address)": "22190",
						"decimals()": "402",
						"factory()": "1655",
						"getAmountOut(uint256,uint256,uint256)": "infinite",
						"getReserves()": "1202",
						"initPool()": "2048",
						"initialize(address,address)": "infinite",
						"kLast()": "1380",
						"mint(address)": "infinite",
						"name()": "infinite",
						"nonces(address)": "1626",
						"owner()": "1532",
						"permit(address,address,uint256,uint256,uint8,bytes32,bytes32)": "infinite",
						"price0CumulativeLast()": "1248",
						"price1CumulativeLast()": "1270",
						"remove(uint256,uint256,address)": "infinite",
						"renounceOwnership()": "infinite",
						"simpleSwap(address,address,uint256)": "infinite",
						"skim(address)": "infinite",
						"swap(uint256,uint256,address)": "infinite",
						"symbol()": "infinite",
						"sync()": "infinite",
						"token0()": "1149",
						"token1()": "1677",
						"totalSupply()": "1116",
						"transfer(address,uint256)": "infinite",
						"transferFrom(address,address,uint256)": "infinite",
						"transferOwnership(address)": "24385"
					},
					"internal": {
						"_safeTransfer(address,address,uint256)": "infinite",
						"_update(uint256,uint256,uint112,uint112)": "infinite"
					}
				},
				"methodIdentifiers": {
					"DOMAIN_SEPARATOR()": "3644e515",
					"MINIMUM_LIQUIDITY()": "ba9a7a56",
					"PERMIT_TYPEHASH()": "30adf81f",
					"allowance(address,address)": "dd62ed3e",
					"approve(address,uint256)": "095ea7b3",
					"balanceOf(address)": "70a08231",
					"burn(address)": "89afcb44",
					"changeFactory(address)": "11c6e741",
					"decimals()": "313ce567",
					"factory()": "c45a0155",
					"getAmountOut(uint256,uint256,uint256)": "054d50d4",
					"getReserves()": "0902f1ac",
					"initPool()": "080ce2eb",
					"initialize(address,address)": "485cc955",
					"kLast()": "7464fc3d",
					"mint(address)": "6a627842",
					"name()": "06fdde03",
					"nonces(address)": "7ecebe00",
					"owner()": "8da5cb5b",
					"permit(address,address,uint256,uint256,uint8,bytes32,bytes32)": "d505accf",
					"price0CumulativeLast()": "5909c0d5",
					"price1CumulativeLast()": "5a3d5493",
					"remove(uint256,uint256,address)": "e840427d",
					"renounceOwnership()": "715018a6",
					"simpleSwap(address,address,uint256)": "a1e15411",
					"skim(address)": "bc25cf77",
					"swap(uint256,uint256,address)": "6d9a640a",
					"symbol()": "95d89b41",
					"sync()": "fff6cae9",
					"token0()": "0dfe1681",
					"token1()": "d21220a7",
					"totalSupply()": "18160ddd",
					"transfer(address,uint256)": "a9059cbb",
					"transferFrom(address,address,uint256)": "23b872dd",
					"transferOwnership(address)": "f2fde38b"
				}
			},
			"storageLayout": {
				"storage": [
					{
						"astId": 130,
						"contract": "contracts/ACPair.sol:ACPair",
						"label": "totalSupply",
						"offset": 0,
						"slot": "0",
						"type": "t_uint256"
					},
					{
						"astId": 134,
						"contract": "contracts/ACPair.sol:ACPair",
						"label": "balanceOf",
						"offset": 0,
						"slot": "1",
						"type": "t_mapping(t_address,t_uint256)"
					},
					{
						"astId": 140,
						"contract": "contracts/ACPair.sol:ACPair",
						"label": "allowance",
						"offset": 0,
						"slot": "2",
						"type": "t_mapping(t_address,t_mapping(t_address,t_uint256))"
					},
					{
						"astId": 142,
						"contract": "contracts/ACPair.sol:ACPair",
						"label": "DOMAIN_SEPARATOR",
						"offset": 0,
						"slot": "3",
						"type": "t_bytes32"
					},
					{
						"astId": 149,
						"contract": "contracts/ACPair.sol:ACPair",
						"label": "nonces",
						"offset": 0,
						"slot": "4",
						"type": "t_mapping(t_address,t_uint256)"
					},
					{
						"astId": 692,
						"contract": "contracts/ACPair.sol:ACPair",
						"label": "_owner",
						"offset": 0,
						"slot": "5",
						"type": "t_address"
					},
					{
						"astId": 899,
						"contract": "contracts/ACPair.sol:ACPair",
						"label": "factory",
						"offset": 0,
						"slot": "6",
						"type": "t_address"
					},
					{
						"astId": 901,
						"contract": "contracts/ACPair.sol:ACPair",
						"label": "token0",
						"offset": 0,
						"slot": "7",
						"type": "t_address"
					},
					{
						"astId": 903,
						"contract": "contracts/ACPair.sol:ACPair",
						"label": "token1",
						"offset": 0,
						"slot": "8",
						"type": "t_address"
					},
					{
						"astId": 905,
						"contract": "contracts/ACPair.sol:ACPair",
						"label": "reserve0",
						"offset": 0,
						"slot": "9",
						"type": "t_uint112"
					},
					{
						"astId": 907,
						"contract": "contracts/ACPair.sol:ACPair",
						"label": "reserve1",
						"offset": 14,
						"slot": "9",
						"type": "t_uint112"
					},
					{
						"astId": 909,
						"contract": "contracts/ACPair.sol:ACPair",
						"label": "blockTimestampLast",
						"offset": 28,
						"slot": "9",
						"type": "t_uint32"
					},
					{
						"astId": 911,
						"contract": "contracts/ACPair.sol:ACPair",
						"label": "price0CumulativeLast",
						"offset": 0,
						"slot": "10",
						"type": "t_uint256"
					},
					{
						"astId": 913,
						"contract": "contracts/ACPair.sol:ACPair",
						"label": "price1CumulativeLast",
						"offset": 0,
						"slot": "11",
						"type": "t_uint256"
					},
					{
						"astId": 915,
						"contract": "contracts/ACPair.sol:ACPair",
						"label": "kLast",
						"offset": 0,
						"slot": "12",
						"type": "t_uint256"
					},
					{
						"astId": 918,
						"contract": "contracts/ACPair.sol:ACPair",
						"label": "unlocked",
						"offset": 0,
						"slot": "13",
						"type": "t_uint256"
					}
				],
				"types": {
					"t_address": {
						"encoding": "inplace",
						"label": "address",
						"numberOfBytes": "20"
					},
					"t_bytes32": {
						"encoding": "inplace",
						"label": "bytes32",
						"numberOfBytes": "32"
					},
					"t_mapping(t_address,t_mapping(t_address,t_uint256))": {
						"encoding": "mapping",
						"key": "t_address",
						"label": "mapping(address => mapping(address => uint256))",
						"numberOfBytes": "32",
						"value": "t_mapping(t_address,t_uint256)"
					},
					"t_mapping(t_address,t_uint256)": {
						"encoding": "mapping",
						"key": "t_address",
						"label": "mapping(address => uint256)",
						"numberOfBytes": "32",
						"value": "t_uint256"
					},
					"t_uint112": {
						"encoding": "inplace",
						"label": "uint112",
						"numberOfBytes": "14"
					},
					"t_uint256": {
						"encoding": "inplace",
						"label": "uint256",
						"numberOfBytes": "32"
					},
					"t_uint32": {
						"encoding": "inplace",
						"label": "uint32",
						"numberOfBytes": "4"
					}
				}
			},
			"userdoc": {
				"kind": "user",
				"methods": {},
				"version": 1
			}
		}
	}
}