{
	"contracts/ACB.sol": {
		"SteamCoin": {
			"abi": [
				{
					"inputs": [
						{
							"internalType": "string",
							"name": "symbol_",
							"type": "string"
						},
						{
							"internalType": "string",
							"name": "name_",
							"type": "string"
						},
						{
							"internalType": "uint8",
							"name": "decimals_",
							"type": "uint8"
						},
						{
							"internalType": "uint256",
							"name": "totalSupply_",
							"type": "uint256"
						}
					],
					"stateMutability": "nonpayable",
					"type": "constructor"
				},
				{
					"anonymous": false,
					"inputs": [
						{
							"indexed": true,
							"internalType": "address",
							"name": "owner",
							"type": "address"
						},
						{
							"indexed": true,
							"internalType": "address",
							"name": "spender",
							"type": "address"
						},
						{
							"indexed": false,
							"internalType": "uint256",
							"name": "value",
							"type": "uint256"
						}
					],
					"name": "Approval",
					"type": "event"
				},
				{
					"anonymous": false,
					"inputs": [
						{
							"indexed": true,
							"internalType": "address",
							"name": "from",
							"type": "address"
						},
						{
							"indexed": true,
							"internalType": "address",
							"name": "to",
							"type": "address"
						},
						{
							"indexed": false,
							"internalType": "uint256",
							"name": "value",
							"type": "uint256"
						}
					],
					"name": "Transfer",
					"type": "event"
				},
				{
					"inputs": [
						{
							"internalType": "address",
							"name": "owner",
							"type": "address"
						},
						{
							"internalType": "address",
							"name": "spender",
							"type": "address"
						}
					],
					"name": "allowance",
					"outputs": [
						{
							"internalType": "uint256",
							"name": "",
							"type": "uint256"
						}
					],
					"stateMutability": "view",
					"type": "function"
				},
				{
					"inputs": [
						{
							"internalType": "address",
							"name": "spender",
							"type": "address"
						},
						{
							"internalType": "uint256",
							"name": "amount",
							"type": "uint256"
						}
					],
					"name": "approve",
					"outputs": [
						{
							"internalType": "bool",
							"name": "",
							"type": "bool"
						}
					],
					"stateMutability": "nonpayable",
					"type": "function"
				},
				{
					"inputs": [
						{
							"internalType": "address",
							"name": "account",
							"type": "address"
						}
					],
					"name": "balanceOf",
					"outputs": [
						{
							"internalType": "uint256",
							"name": "",
							"type": "uint256"
						}
					],
					"stateMutability": "view",
					"type": "function"
				},
				{
					"inputs": [],
					"name": "bnbPair",
					"outputs": [
						{
							"internalType": "address",
							"name": "",
							"type": "address"
						}
					],
					"stateMutability": "view",
					"type": "function"
				},
				{
					"inputs": [],
					"name": "c_d",
					"outputs": [
						{
							"internalType": "contract D",
							"name": "",
							"type": "address"
						}
					],
					"stateMutability": "view",
					"type": "function"
				},
				{
					"inputs": [],
					"name": "decimals",
					"outputs": [
						{
							"internalType": "uint8",
							"name": "",
							"type": "uint8"
						}
					],
					"stateMutability": "view",
					"type": "function"
				},
				{
					"inputs": [],
					"name": "name",
					"outputs": [
						{
							"internalType": "string",
							"name": "",
							"type": "string"
						}
					],
					"stateMutability": "view",
					"type": "function"
				},
				{
					"inputs": [],
					"name": "owner",
					"outputs": [
						{
							"internalType": "address",
							"name": "",
							"type": "address"
						}
					],
					"stateMutability": "view",
					"type": "function"
				},
				{
					"inputs": [
						{
							"internalType": "address",
							"name": "d",
							"type": "address"
						}
					],
					"name": "setBnbPair",
					"outputs": [],
					"stateMutability": "nonpayable",
					"type": "function"
				},
				{
					"inputs": [
						{
							"internalType": "address",
							"name": "d",
							"type": "address"
						}
					],
					"name": "setD",
					"outputs": [],
					"stateMutability": "nonpayable",
					"type": "function"
				},
				{
					"inputs": [],
					"name": "symbol",
					"outputs": [
						{
							"internalType": "string",
							"name": "",
							"type": "string"
						}
					],
					"stateMutability": "view",
					"type": "function"
				},
				{
					"inputs": [],
					"name": "totalSupply",
					"outputs": [
						{
							"internalType": "uint256",
							"name": "",
							"type": "uint256"
						}
					],
					"stateMutability": "view",
					"type": "function"
				},
				{
					"inputs": [
						{
							"internalType": "address",
							"name": "to",
							"type": "address"
						},
						{
							"internalType": "uint256",
							"name": "amount",
							"type": "uint256"
						}
					],
					"name": "transfer",
					"outputs": [
						{
							"internalType": "bool",
							"name": "",
							"type": "bool"
						}
					],
					"stateMutability": "nonpayable",
					"type": "function"
				},
				{
					"inputs": [
						{
							"internalType": "address",
							"name": "from",
							"type": "address"
						},
						{
							"internalType": "address",
							"name": "to",
							"type": "address"
						},
						{
							"internalType": "uint256",
							"name": "amount",
							"type": "uint256"
						}
					],
					"name": "transferFrom",
					"outputs": [
						{
							"internalType": "bool",
							"name": "",
							"type": "bool"
						}
					],
					"stateMutability": "nonpayable",
					"type": "function"
				},
				{
					"inputs": [
						{
							"internalType": "address",
							"name": "newOwner",
							"type": "address"
						}
					],
					"name": "transferOwnership",
					"outputs": [],
					"stateMutability": "nonpayable",
					"type": "function"
				}
			],
			"devdoc": {
				"kind": "dev",
				"methods": {},
				"version": 1
			},
			"evm": {
				"assembly": "    /* \"contracts/ACB.sol\":695:3280  contract SteamCoin is ERC20StandardToken, Ownable {... */\n  mstore(0x40, 0xa0)\n    /* \"contracts/ACB.sol\":1018:1468  constructor(string memory symbol_, string memory name_, uint8 decimals_, uint256 totalSupply_) ERC20StandardToken('ACB', 'ACB', 18, 1000000000000 ether) {... */\n  callvalue\n  dup1\n  iszero\n  tag_1\n  jumpi\n  0x00\n  dup1\n  revert\ntag_1:\n  pop\n  mload(0x40)\n  sub(codesize, bytecodeSize)\n  dup1\n  bytecodeSize\n  dup4\n  codecopy\n  dup2\n  add\n  0x40\n  dup2\n  swap1\n  mstore\n  tag_2\n  swap2\n  tag_3\n  jump\t// in\ntag_2:\n    /* \"contracts/ERC20StandardToken.sol\":1035:1264  constructor(string memory symbol_, string memory name_, uint8 decimals_, uint256 totalSupply_) {... */\n  0x40\n  dup1\n  mload\n  dup1\n  dup3\n  add\n  dup3\n  mstore\n  0x03\n  dup1\n  dup3\n  mstore\n  shl(0xe9, 0x20a1a1)\n  0x20\n  dup1\n  dup5\n  add\n  dup3\n  swap1\n  mstore\n  dup5\n  mload\n  dup1\n  dup7\n  add\n  swap1\n  swap6\n  mstore\n  swap2\n  dup5\n  mstore\n  swap1\n  dup4\n  add\n  mstore\n  swap1\n    /* \"contracts/ACB.sol\":1146:1148  18 */\n  0x12\n    /* \"contracts/ACB.sol\":1150:1169  1000000000000 ether */\n  0x0c9f2c9cd04674edea40000000\n    /* \"contracts/ERC20StandardToken.sol\":1141:1148  _symbol */\n  0x02\n    /* \"contracts/ERC20StandardToken.sol\":1141:1158  _symbol = symbol_ */\n  tag_8\n    /* \"contracts/ERC20StandardToken.sol\":1035:1264  constructor(string memory symbol_, string memory name_, uint8 decimals_, uint256 totalSupply_) {... */\n  dup6\n    /* \"contracts/ERC20StandardToken.sol\":1141:1148  _symbol */\n  dup3\n    /* \"contracts/ERC20StandardToken.sol\":1141:1158  _symbol = symbol_ */\n  tag_9\n  jump\t// in\ntag_8:\n  pop\n    /* \"contracts/ERC20StandardToken.sol\":1169:1174  _name */\n  0x03\n    /* \"contracts/ERC20StandardToken.sol\":1169:1182  _name = name_ */\n  tag_10\n    /* \"contracts/ERC20StandardToken.sol\":1177:1182  name_ */\n  dup5\n    /* \"contracts/ERC20StandardToken.sol\":1169:1174  _name */\n  dup3\n    /* \"contracts/ERC20StandardToken.sol\":1169:1182  _name = name_ */\n  tag_9\n  jump\t// in\ntag_10:\n  pop\n    /* \"contracts/ERC20StandardToken.sol\":1193:1214  _decimals = decimals_ */\n  0xff\n  dup3\n  and\n  0x80\n  mstore\n    /* \"contracts/ERC20StandardToken.sol\":1225:1256  _mint(msg.sender, totalSupply_) */\n  tag_11\n    /* \"contracts/ERC20StandardToken.sol\":1231:1241  msg.sender */\n  caller\n    /* \"contracts/ERC20StandardToken.sol\":1243:1255  totalSupply_ */\n  dup3\n    /* \"contracts/ERC20StandardToken.sol\":1225:1230  _mint */\n  tag_12\n    /* \"contracts/ERC20StandardToken.sol\":1225:1256  _mint(msg.sender, totalSupply_) */\n  jump\t// in\ntag_11:\n  pop\n  pop\n    /* \"contracts/ACB.sol\":433:438  owner */\n  0x05\n    /* \"contracts/ACB.sol\":433:451  owner = msg.sender */\n  dup1\n  sload\n  not(sub(shl(0xa0, 0x01), 0x01))\n  and\n    /* \"contracts/ACB.sol\":441:451  msg.sender */\n  caller\n    /* \"contracts/ACB.sol\":433:451  owner = msg.sender */\n  or\n  swap1\n  sstore\n  pop\n  pop\n    /* \"contracts/ACB.sol\":1412:1428  router.factory() */\n  0x40\n  dup1\n  mload\n  shl(0xe0, 0xc45a0155)\n  dup2\n  mstore\n  swap1\n  mload\n    /* \"contracts/ACB.sol\":1272:1314  0x10ED43C718714eb63d5aA57B78B54704E256024E */\n  0x10ed43c718714eb63d5aa57b78b54704e256024e\n  swap2\n    /* \"contracts/ACB.sol\":1341:1383  0xbb4CdB9CBd36B01bD1cBaEBF2De08d9173bc095c */\n  0xbb4cdb9cbd36b01bd1cbaebf2de08d9173bc095c\n  swap2\n    /* \"contracts/ACB.sol\":1404:1450  pairFor(router.factory(), address(this), wbnb) */\n  tag_15\n  swap2\n    /* \"contracts/ACB.sol\":1272:1314  0x10ED43C718714eb63d5aA57B78B54704E256024E */\n  dup5\n  swap2\n    /* \"contracts/ACB.sol\":1412:1426  router.factory */\n  0xc45a0155\n  swap2\n    /* \"contracts/ACB.sol\":1412:1428  router.factory() */\n  0x04\n  dup1\n  dup3\n  add\n  swap3\n  0x20\n  swap3\n  swap1\n  swap2\n  swap1\n  dup3\n  swap1\n  sub\n  add\n  dup2\n    /* \"contracts/ACB.sol\":1272:1314  0x10ED43C718714eb63d5aA57B78B54704E256024E */\n  dup7\n    /* \"contracts/ACB.sol\":1412:1428  router.factory() */\n  gas\n  staticcall\n  iszero\n  dup1\n  iszero\n  tag_17\n  jumpi\n  returndatasize\n  0x00\n  dup1\n  returndatacopy\n  revert(0x00, returndatasize)\ntag_17:\n  pop\n  pop\n  pop\n  pop\n  mload(0x40)\n  returndatasize\n  not(0x1f)\n  0x1f\n  dup3\n  add\n  and\n  dup3\n  add\n  dup1\n  0x40\n  mstore\n  pop\n  dup2\n  add\n  swap1\n  tag_18\n  swap2\n  swap1\n  tag_19\n  jump\t// in\ntag_18:\n    /* \"contracts/ACB.sol\":1438:1442  this */\n  address\n    /* \"contracts/ACB.sol\":1445:1449  wbnb */\n  dup4\n    /* \"contracts/ACB.sol\":1404:1411  pairFor */\n  tag_20\n    /* \"contracts/ACB.sol\":1404:1450  pairFor(router.factory(), address(this), wbnb) */\n  jump\t// in\ntag_15:\n    /* \"contracts/ACB.sol\":1394:1401  bnbPair */\n  0x07\n    /* \"contracts/ACB.sol\":1394:1450  bnbPair = pairFor(router.factory(), address(this), wbnb) */\n  dup1\n  sload\n  not(sub(shl(0xa0, 0x01), 0x01))\n  and\n  sub(shl(0xa0, 0x01), 0x01)\n  swap3\n  swap1\n  swap3\n  and\n  swap2\n  swap1\n  swap2\n  or\n  swap1\n  sstore\n  pop\n    /* \"contracts/ACB.sol\":695:3280  contract SteamCoin is ERC20StandardToken, Ownable {... */\n  tag_43\n  swap5\n  pop\n  pop\n  pop\n  pop\n  pop\n  jump\n    /* \"contracts/ERC20StandardToken.sol\":4223:4533  function _mint(address account, uint256 amount) internal virtual {... */\ntag_12:\n  sub(shl(0xa0, 0x01), 0x01)\n    /* \"contracts/ERC20StandardToken.sol\":4307:4328  account != address(0) */\n  dup3\n  and\n    /* \"contracts/ERC20StandardToken.sol\":4299:4364  require(account != address(0), \"ERC20: mint to the zero address\") */\n  tag_23\n  jumpi\n  mload(0x40)\n  shl(0xe5, 0x461bcd)\n  dup2\n  mstore\n    /* \"#utility.yul\":4856:4858   */\n  0x20\n    /* \"contracts/ERC20StandardToken.sol\":4299:4364  require(account != address(0), \"ERC20: mint to the zero address\") */\n  0x04\n  dup3\n  add\n    /* \"#utility.yul\":4838:4859   */\n  mstore\n    /* \"#utility.yul\":4895:4897   */\n  0x1f\n    /* \"#utility.yul\":4875:4893   */\n  0x24\n  dup3\n  add\n    /* \"#utility.yul\":4868:4898   */\n  mstore\n    /* \"#utility.yul\":4934:4967   */\n  0x45524332303a206d696e7420746f20746865207a65726f206164647265737300\n    /* \"#utility.yul\":4914:4932   */\n  0x44\n  dup3\n  add\n    /* \"#utility.yul\":4907:4968   */\n  mstore\n    /* \"#utility.yul\":4985:5003   */\n  0x64\n  add\n    /* \"contracts/ERC20StandardToken.sol\":4299:4364  require(account != address(0), \"ERC20: mint to the zero address\") */\n  mload(0x40)\n  dup1\n  swap2\n  sub\n  swap1\n  revert\ntag_23:\n    /* \"contracts/ERC20StandardToken.sol\":4391:4397  amount */\n  dup1\n    /* \"contracts/ERC20StandardToken.sol\":4375:4387  _totalSupply */\n  0x04\n  0x00\n    /* \"contracts/ERC20StandardToken.sol\":4375:4397  _totalSupply += amount */\n  dup3\n  dup3\n  sload\n  tag_26\n  swap2\n  swap1\n  tag_27\n  jump\t// in\ntag_26:\n  swap1\n  swap2\n  sstore\n  pop\n  pop\n  sub(shl(0xa0, 0x01), 0x01)\n    /* \"contracts/ERC20StandardToken.sol\":4433:4451  _balances[account] */\n  dup3\n  and\n    /* \"contracts/ERC20StandardToken.sol\":4433:4442  _balances */\n  0x00\n    /* \"contracts/ERC20StandardToken.sol\":4433:4451  _balances[account] */\n  dup2\n  dup2\n  mstore\n  0x20\n  dup2\n  dup2\n  mstore\n  0x40\n  dup1\n  dup4\n  keccak256\n    /* \"contracts/ERC20StandardToken.sol\":4433:4461  _balances[account] += amount */\n  dup1\n  sload\n  dup7\n  add\n  swap1\n  sstore\n    /* \"contracts/ERC20StandardToken.sol\":4488:4525  Transfer(address(0), account, amount) */\n  mload\n    /* \"#utility.yul\":5387:5412   */\n  dup5\n  dup2\n  mstore\n    /* \"contracts/ERC20StandardToken.sol\":4488:4525  Transfer(address(0), account, amount) */\n  0xddf252ad1be2c89b69c2b068fc378daa952ba7f163c4a11628f55a4df523b3ef\n  swap2\n    /* \"#utility.yul\":5360:5378   */\n  add\n    /* \"contracts/ERC20StandardToken.sol\":4488:4525  Transfer(address(0), account, amount) */\n  mload(0x40)\n  dup1\n  swap2\n  sub\n  swap1\n  log3\n    /* \"contracts/ERC20StandardToken.sol\":4223:4533  function _mint(address account, uint256 amount) internal virtual {... */\n  pop\n  pop\n  jump\t// out\n    /* \"contracts/ACB.sol\":1476:1970  function pairFor(address factory, address tokenA, address tokenB) internal pure returns (address pair_) {... */\ntag_20:\n    /* \"contracts/ACB.sol\":1565:1578  address pair_ */\n  0x00\n    /* \"contracts/ACB.sol\":1592:1606  address token0 */\n  dup1\n    /* \"contracts/ACB.sol\":1608:1622  address token1 */\n  0x00\n    /* \"contracts/ACB.sol\":1635:1641  tokenB */\n  dup4\n  sub(shl(0xa0, 0x01), 0x01)\n    /* \"contracts/ACB.sol\":1626:1641  tokenA < tokenB */\n  and\n    /* \"contracts/ACB.sol\":1626:1632  tokenA */\n  dup6\n  sub(shl(0xa0, 0x01), 0x01)\n    /* \"contracts/ACB.sol\":1626:1641  tokenA < tokenB */\n  and\n  lt\n    /* \"contracts/ACB.sol\":1626:1679  tokenA < tokenB ? (tokenA, tokenB) : (tokenB, tokenA) */\n  tag_31\n  jumpi\n    /* \"contracts/ACB.sol\":1664:1670  tokenB */\n  dup4\n    /* \"contracts/ACB.sol\":1672:1678  tokenA */\n  dup6\n    /* \"contracts/ACB.sol\":1626:1679  tokenA < tokenB ? (tokenA, tokenB) : (tokenB, tokenA) */\n  jump(tag_32)\ntag_31:\n    /* \"contracts/ACB.sol\":1645:1651  tokenA */\n  dup5\n    /* \"contracts/ACB.sol\":1653:1659  tokenB */\n  dup5\n    /* \"contracts/ACB.sol\":1626:1679  tokenA < tokenB ? (tokenA, tokenB) : (tokenB, tokenA) */\ntag_32:\n    /* \"contracts/ACB.sol\":1826:1858  abi.encodePacked(token0, token1) */\n  mload(0x40)\n  not(sub(shl(0x60, 0x01), 0x01))\n    /* \"#utility.yul\":5602:5604   */\n  0x60\n    /* \"#utility.yul\":5638:5653   */\n  dup5\n  dup2\n  shl\n    /* \"#utility.yul\":5634:5658   */\n  dup3\n  and\n    /* \"contracts/ACB.sol\":1826:1858  abi.encodePacked(token0, token1) */\n  0x20\n  dup5\n  add\n    /* \"#utility.yul\":5622:5659   */\n  mstore\n    /* \"#utility.yul\":5693:5708   */\n  dup4\n  swap1\n  shl\n    /* \"#utility.yul\":5689:5713   */\n  and\n    /* \"#utility.yul\":5675:5687   */\n  0x34\n  dup3\n  add\n    /* \"#utility.yul\":5668:5714   */\n  mstore\n    /* \"contracts/ACB.sol\":1591:1679  (address token0, address token1) = tokenA < tokenB ? (tokenA, tokenB) : (tokenB, tokenA) */\n  swap2\n  swap4\n  pop\n  swap2\n  pop\n    /* \"contracts/ACB.sol\":1790:1797  factory */\n  dup7\n  swap1\n    /* \"#utility.yul\":5730:5742   */\n  0x48\n  add\n    /* \"contracts/ACB.sol\":1826:1858  abi.encodePacked(token0, token1) */\n  mload(0x40)\n  0x20\n  dup2\n  dup4\n  sub\n  sub\n  dup2\n  mstore\n  swap1\n  0x40\n  mstore\n    /* \"contracts/ACB.sol\":1816:1859  keccak256(abi.encodePacked(token0, token1)) */\n  dup1\n  mload\n  swap1\n  0x20\n  add\n  keccak256\n    /* \"contracts/ACB.sol\":1729:1958  abi.encodePacked(... */\n  add(0x20, mload(0x40))\n  tag_35\n  swap3\n  swap2\n  swap1\n    /* \"#utility.yul\":6124:6137   */\n  0xff00000000000000000000000000000000000000000000000000000000000000\n    /* \"#utility.yul\":6112:6138   */\n  dup2\n  mstore\n    /* \"#utility.yul\":6200:6202   */\n  0x60\n    /* \"#utility.yul\":6171:6186   */\n  swap3\n  swap1\n  swap3\n  shl\n  not(sub(shl(0x60, 0x01), 0x01))\n    /* \"#utility.yul\":6167:6212   */\n  and\n    /* \"#utility.yul\":6208:6209   */\n  0x01\n    /* \"#utility.yul\":6154:6165   */\n  dup4\n  add\n    /* \"#utility.yul\":6147:6213   */\n  mstore\n    /* \"#utility.yul\":6238:6240   */\n  0x15\n    /* \"#utility.yul\":6229:6241   */\n  dup3\n  add\n    /* \"#utility.yul\":6222:6250   */\n  mstore\n    /* \"#utility.yul\":6280:6346   */\n  0xfb7f630766e6a796048ea87d01acd3068e8ff67d078148a3fa3f4a84f69bd5\n    /* \"#utility.yul\":6275:6277   */\n  0x35\n    /* \"#utility.yul\":6266:6278   */\n  dup3\n  add\n    /* \"#utility.yul\":6259:6347   */\n  mstore\n    /* \"#utility.yul\":6372:6374   */\n  0x55\n    /* \"#utility.yul\":6363:6375   */\n  add\n  swap1\n    /* \"#utility.yul\":5753:6381   */\n  jump\n    /* \"contracts/ACB.sol\":1729:1958  abi.encodePacked(... */\ntag_35:\n  0x40\n  dup1\n  mload\n  not(0x1f)\n  dup2\n  dup5\n  sub\n  add\n  dup2\n  mstore\n  swap2\n  swap1\n  mstore\n    /* \"contracts/ACB.sol\":1719:1959  keccak256(abi.encodePacked(... */\n  dup1\n  mload\n    /* \"contracts/ACB.sol\":1729:1958  abi.encodePacked(... */\n  0x20\n    /* \"contracts/ACB.sol\":1719:1959  keccak256(abi.encodePacked(... */\n  swap1\n  swap2\n  add\n  keccak256\n  swap7\n    /* \"contracts/ACB.sol\":1476:1970  function pairFor(address factory, address tokenA, address tokenB) internal pure returns (address pair_) {... */\n  swap6\n  pop\n  pop\n  pop\n  pop\n  pop\n  pop\n  jump\t// out\n    /* \"#utility.yul\":14:141   */\ntag_37:\n    /* \"#utility.yul\":75:85   */\n  0x4e487b71\n    /* \"#utility.yul\":70:73   */\n  0xe0\n    /* \"#utility.yul\":66:86   */\n  shl\n    /* \"#utility.yul\":63:64   */\n  0x00\n    /* \"#utility.yul\":56:87   */\n  mstore\n    /* \"#utility.yul\":106:110   */\n  0x41\n    /* \"#utility.yul\":103:104   */\n  0x04\n    /* \"#utility.yul\":96:111   */\n  mstore\n    /* \"#utility.yul\":130:134   */\n  0x24\n    /* \"#utility.yul\":127:128   */\n  0x00\n    /* \"#utility.yul\":120:135   */\n  revert\n    /* \"#utility.yul\":146:986   */\ntag_38:\n    /* \"#utility.yul\":200:205   */\n  0x00\n    /* \"#utility.yul\":253:256   */\n  dup3\n    /* \"#utility.yul\":246:250   */\n  0x1f\n    /* \"#utility.yul\":238:244   */\n  dup4\n    /* \"#utility.yul\":234:251   */\n  add\n    /* \"#utility.yul\":230:257   */\n  slt\n    /* \"#utility.yul\":220:275   */\n  tag_46\n  jumpi\n    /* \"#utility.yul\":271:272   */\n  0x00\n    /* \"#utility.yul\":268:269   */\n  dup1\n    /* \"#utility.yul\":261:273   */\n  revert\n    /* \"#utility.yul\":220:275   */\ntag_46:\n    /* \"#utility.yul\":294:307   */\n  dup2\n  mload\n  sub(shl(0x40, 0x01), 0x01)\n    /* \"#utility.yul\":356:366   */\n  dup1\n  dup3\n  gt\n    /* \"#utility.yul\":353:389   */\n  iszero\n  tag_48\n  jumpi\n    /* \"#utility.yul\":369:387   */\n  tag_48\n  tag_37\n  jump\t// in\ntag_48:\n    /* \"#utility.yul\":444:446   */\n  0x40\n    /* \"#utility.yul\":438:447   */\n  mload\n    /* \"#utility.yul\":412:414   */\n  0x1f\n    /* \"#utility.yul\":498:511   */\n  dup4\n  add\n  not(0x1f)\n    /* \"#utility.yul\":494:516   */\n  swap1\n  dup2\n  and\n    /* \"#utility.yul\":518:520   */\n  0x3f\n    /* \"#utility.yul\":490:521   */\n  add\n    /* \"#utility.yul\":486:526   */\n  and\n    /* \"#utility.yul\":474:527   */\n  dup2\n  add\n  swap1\n    /* \"#utility.yul\":542:560   */\n  dup3\n  dup3\n  gt\n    /* \"#utility.yul\":562:584   */\n  dup2\n  dup4\n  lt\n    /* \"#utility.yul\":539:585   */\n  or\n    /* \"#utility.yul\":536:608   */\n  iszero\n  tag_50\n  jumpi\n    /* \"#utility.yul\":588:606   */\n  tag_50\n  tag_37\n  jump\t// in\ntag_50:\n    /* \"#utility.yul\":628:638   */\n  dup2\n    /* \"#utility.yul\":624:626   */\n  0x40\n    /* \"#utility.yul\":617:639   */\n  mstore\n    /* \"#utility.yul\":663:665   */\n  dup4\n    /* \"#utility.yul\":655:661   */\n  dup2\n    /* \"#utility.yul\":648:666   */\n  mstore\n    /* \"#utility.yul\":685:689   */\n  0x20\n    /* \"#utility.yul\":675:689   */\n  swap3\n  pop\n    /* \"#utility.yul\":730:733   */\n  dup7\n    /* \"#utility.yul\":725:727   */\n  dup4\n    /* \"#utility.yul\":720:722   */\n  dup6\n    /* \"#utility.yul\":712:718   */\n  dup9\n    /* \"#utility.yul\":708:723   */\n  add\n    /* \"#utility.yul\":704:728   */\n  add\n    /* \"#utility.yul\":701:734   */\n  gt\n    /* \"#utility.yul\":698:751   */\n  iszero\n  tag_51\n  jumpi\n    /* \"#utility.yul\":747:748   */\n  0x00\n    /* \"#utility.yul\":744:745   */\n  dup1\n    /* \"#utility.yul\":737:749   */\n  revert\n    /* \"#utility.yul\":698:751   */\ntag_51:\n    /* \"#utility.yul\":769:770   */\n  0x00\n    /* \"#utility.yul\":760:770   */\n  swap2\n  pop\n    /* \"#utility.yul\":779:912   */\ntag_52:\n    /* \"#utility.yul\":793:795   */\n  dup4\n    /* \"#utility.yul\":790:791   */\n  dup3\n    /* \"#utility.yul\":787:796   */\n  lt\n    /* \"#utility.yul\":779:912   */\n  iszero\n  tag_54\n  jumpi\n    /* \"#utility.yul\":881:895   */\n  dup6\n  dup3\n  add\n    /* \"#utility.yul\":877:900   */\n  dup4\n  add\n    /* \"#utility.yul\":871:901   */\n  mload\n    /* \"#utility.yul\":850:864   */\n  dup2\n  dup4\n  add\n    /* \"#utility.yul\":846:869   */\n  dup5\n  add\n    /* \"#utility.yul\":839:902   */\n  mstore\n    /* \"#utility.yul\":804:814   */\n  swap1\n  dup3\n  add\n  swap1\n    /* \"#utility.yul\":779:912   */\n  jump(tag_52)\ntag_54:\n    /* \"#utility.yul\":954:955   */\n  0x00\n    /* \"#utility.yul\":932:947   */\n  swap4\n  dup2\n  add\n    /* \"#utility.yul\":928:952   */\n  swap1\n  swap3\n  add\n    /* \"#utility.yul\":921:956   */\n  swap3\n  swap1\n  swap3\n  mstore\n    /* \"#utility.yul\":936:942   */\n  swap5\n    /* \"#utility.yul\":146:986   */\n  swap4\n  pop\n  pop\n  pop\n  pop\n  jump\t// out\n    /* \"#utility.yul\":991:1765   */\ntag_3:\n    /* \"#utility.yul\":1106:1112   */\n  0x00\n    /* \"#utility.yul\":1114:1120   */\n  dup1\n    /* \"#utility.yul\":1122:1128   */\n  0x00\n    /* \"#utility.yul\":1130:1136   */\n  dup1\n    /* \"#utility.yul\":1183:1186   */\n  0x80\n    /* \"#utility.yul\":1171:1180   */\n  dup6\n    /* \"#utility.yul\":1162:1169   */\n  dup8\n    /* \"#utility.yul\":1158:1181   */\n  sub\n    /* \"#utility.yul\":1154:1187   */\n  slt\n    /* \"#utility.yul\":1151:1204   */\n  iszero\n  tag_56\n  jumpi\n    /* \"#utility.yul\":1200:1201   */\n  0x00\n    /* \"#utility.yul\":1197:1198   */\n  dup1\n    /* \"#utility.yul\":1190:1202   */\n  revert\n    /* \"#utility.yul\":1151:1204   */\ntag_56:\n    /* \"#utility.yul\":1227:1243   */\n  dup5\n  mload\n  sub(shl(0x40, 0x01), 0x01)\n    /* \"#utility.yul\":1292:1306   */\n  dup1\n  dup3\n  gt\n    /* \"#utility.yul\":1289:1323   */\n  iszero\n  tag_57\n  jumpi\n    /* \"#utility.yul\":1319:1320   */\n  0x00\n    /* \"#utility.yul\":1316:1317   */\n  dup1\n    /* \"#utility.yul\":1309:1321   */\n  revert\n    /* \"#utility.yul\":1289:1323   */\ntag_57:\n    /* \"#utility.yul\":1342:1403   */\n  tag_58\n    /* \"#utility.yul\":1395:1402   */\n  dup9\n    /* \"#utility.yul\":1386:1392   */\n  dup4\n    /* \"#utility.yul\":1375:1384   */\n  dup10\n    /* \"#utility.yul\":1371:1393   */\n  add\n    /* \"#utility.yul\":1342:1403   */\n  tag_38\n  jump\t// in\ntag_58:\n    /* \"#utility.yul\":1332:1403   */\n  swap6\n  pop\n    /* \"#utility.yul\":1449:1451   */\n  0x20\n    /* \"#utility.yul\":1438:1447   */\n  dup8\n    /* \"#utility.yul\":1434:1452   */\n  add\n    /* \"#utility.yul\":1428:1453   */\n  mload\n    /* \"#utility.yul\":1412:1453   */\n  swap2\n  pop\n    /* \"#utility.yul\":1478:1480   */\n  dup1\n    /* \"#utility.yul\":1468:1476   */\n  dup3\n    /* \"#utility.yul\":1465:1481   */\n  gt\n    /* \"#utility.yul\":1462:1498   */\n  iszero\n  tag_59\n  jumpi\n    /* \"#utility.yul\":1494:1495   */\n  0x00\n    /* \"#utility.yul\":1491:1492   */\n  dup1\n    /* \"#utility.yul\":1484:1496   */\n  revert\n    /* \"#utility.yul\":1462:1498   */\ntag_59:\n  pop\n    /* \"#utility.yul\":1517:1580   */\n  tag_60\n    /* \"#utility.yul\":1572:1579   */\n  dup8\n    /* \"#utility.yul\":1561:1569   */\n  dup3\n    /* \"#utility.yul\":1550:1559   */\n  dup9\n    /* \"#utility.yul\":1546:1570   */\n  add\n    /* \"#utility.yul\":1517:1580   */\n  tag_38\n  jump\t// in\ntag_60:\n    /* \"#utility.yul\":1507:1580   */\n  swap4\n  pop\n  pop\n    /* \"#utility.yul\":1623:1625   */\n  0x40\n    /* \"#utility.yul\":1612:1621   */\n  dup6\n    /* \"#utility.yul\":1608:1626   */\n  add\n    /* \"#utility.yul\":1602:1627   */\n  mload\n    /* \"#utility.yul\":1667:1671   */\n  0xff\n    /* \"#utility.yul\":1660:1665   */\n  dup2\n    /* \"#utility.yul\":1656:1672   */\n  and\n    /* \"#utility.yul\":1649:1654   */\n  dup2\n    /* \"#utility.yul\":1646:1673   */\n  eq\n    /* \"#utility.yul\":1636:1691   */\n  tag_61\n  jumpi\n    /* \"#utility.yul\":1687:1688   */\n  0x00\n    /* \"#utility.yul\":1684:1685   */\n  dup1\n    /* \"#utility.yul\":1677:1689   */\n  revert\n    /* \"#utility.yul\":1636:1691   */\ntag_61:\n    /* \"#utility.yul\":1755:1757   */\n  0x60\n    /* \"#utility.yul\":1740:1758   */\n  swap6\n  swap1\n  swap6\n  add\n    /* \"#utility.yul\":1734:1759   */\n  mload\n    /* \"#utility.yul\":991:1765   */\n  swap4\n  swap7\n  swap3\n  swap6\n  pop\n  pop\n  pop\n  jump\t// out\n    /* \"#utility.yul\":1770:2150   */\ntag_39:\n    /* \"#utility.yul\":1849:1850   */\n  0x01\n    /* \"#utility.yul\":1845:1857   */\n  dup2\n  dup2\n  shr\n  swap1\n    /* \"#utility.yul\":1892:1904   */\n  dup3\n  and\n  dup1\n    /* \"#utility.yul\":1913:1974   */\n  tag_63\n  jumpi\n    /* \"#utility.yul\":1967:1971   */\n  0x7f\n    /* \"#utility.yul\":1959:1965   */\n  dup3\n    /* \"#utility.yul\":1955:1972   */\n  and\n    /* \"#utility.yul\":1945:1972   */\n  swap2\n  pop\n    /* \"#utility.yul\":1913:1974   */\ntag_63:\n    /* \"#utility.yul\":2020:2022   */\n  0x20\n    /* \"#utility.yul\":2012:2018   */\n  dup3\n    /* \"#utility.yul\":2009:2023   */\n  lt\n    /* \"#utility.yul\":1989:2007   */\n  dup2\n    /* \"#utility.yul\":1986:2024   */\n  sub\n    /* \"#utility.yul\":1983:2144   */\n  tag_64\n  jumpi\n    /* \"#utility.yul\":2066:2076   */\n  0x4e487b71\n    /* \"#utility.yul\":2061:2064   */\n  0xe0\n    /* \"#utility.yul\":2057:2077   */\n  shl\n    /* \"#utility.yul\":2054:2055   */\n  0x00\n    /* \"#utility.yul\":2047:2078   */\n  mstore\n    /* \"#utility.yul\":2101:2105   */\n  0x22\n    /* \"#utility.yul\":2098:2099   */\n  0x04\n    /* \"#utility.yul\":2091:2106   */\n  mstore\n    /* \"#utility.yul\":2129:2133   */\n  0x24\n    /* \"#utility.yul\":2126:2127   */\n  0x00\n    /* \"#utility.yul\":2119:2134   */\n  revert\n    /* \"#utility.yul\":1983:2144   */\ntag_64:\n  pop\n    /* \"#utility.yul\":1770:2150   */\n  swap2\n  swap1\n  pop\n  jump\t// out\n    /* \"#utility.yul\":2281:2826   */\ntag_41:\n    /* \"#utility.yul\":2383:2385   */\n  0x1f\n    /* \"#utility.yul\":2378:2381   */\n  dup3\n    /* \"#utility.yul\":2375:2386   */\n  gt\n    /* \"#utility.yul\":2372:2820   */\n  iszero\n  tag_67\n  jumpi\n    /* \"#utility.yul\":2419:2420   */\n  0x00\n    /* \"#utility.yul\":2444:2449   */\n  dup2\n    /* \"#utility.yul\":2440:2442   */\n  dup2\n    /* \"#utility.yul\":2433:2450   */\n  mstore\n    /* \"#utility.yul\":2489:2493   */\n  0x20\n    /* \"#utility.yul\":2485:2487   */\n  dup2\n    /* \"#utility.yul\":2475:2494   */\n  keccak256\n    /* \"#utility.yul\":2559:2561   */\n  0x1f\n    /* \"#utility.yul\":2547:2557   */\n  dup6\n    /* \"#utility.yul\":2543:2562   */\n  add\n    /* \"#utility.yul\":2540:2541   */\n  0x05\n    /* \"#utility.yul\":2536:2563   */\n  shr\n    /* \"#utility.yul\":2530:2534   */\n  dup2\n    /* \"#utility.yul\":2526:2564   */\n  add\n    /* \"#utility.yul\":2595:2599   */\n  0x20\n    /* \"#utility.yul\":2583:2593   */\n  dup7\n    /* \"#utility.yul\":2580:2600   */\n  lt\n    /* \"#utility.yul\":2577:2624   */\n  iszero\n  tag_68\n  jumpi\n  pop\n    /* \"#utility.yul\":2618:2622   */\n  dup1\n    /* \"#utility.yul\":2577:2624   */\ntag_68:\n    /* \"#utility.yul\":2673:2675   */\n  0x1f\n    /* \"#utility.yul\":2668:2671   */\n  dup6\n    /* \"#utility.yul\":2664:2676   */\n  add\n    /* \"#utility.yul\":2661:2662   */\n  0x05\n    /* \"#utility.yul\":2657:2677   */\n  shr\n    /* \"#utility.yul\":2651:2655   */\n  dup3\n    /* \"#utility.yul\":2647:2678   */\n  add\n    /* \"#utility.yul\":2637:2678   */\n  swap2\n  pop\n    /* \"#utility.yul\":2728:2810   */\ntag_69:\n    /* \"#utility.yul\":2746:2748   */\n  dup2\n    /* \"#utility.yul\":2739:2744   */\n  dup2\n    /* \"#utility.yul\":2736:2749   */\n  lt\n    /* \"#utility.yul\":2728:2810   */\n  iszero\n  tag_71\n  jumpi\n    /* \"#utility.yul\":2791:2808   */\n  dup3\n  dup2\n  sstore\n    /* \"#utility.yul\":2772:2773   */\n  0x01\n    /* \"#utility.yul\":2761:2774   */\n  add\n    /* \"#utility.yul\":2728:2810   */\n  jump(tag_69)\ntag_71:\n    /* \"#utility.yul\":2732:2735   */\n  pop\n  pop\n  pop\n    /* \"#utility.yul\":2372:2820   */\ntag_67:\n    /* \"#utility.yul\":2281:2826   */\n  pop\n  pop\n  pop\n  jump\t// out\n    /* \"#utility.yul\":3002:4354   */\ntag_9:\n    /* \"#utility.yul\":3122:3132   */\n  dup2\n  mload\n  sub(shl(0x40, 0x01), 0x01)\n    /* \"#utility.yul\":3144:3174   */\n  dup2\n  gt\n    /* \"#utility.yul\":3141:3197   */\n  iszero\n  tag_75\n  jumpi\n    /* \"#utility.yul\":3177:3195   */\n  tag_75\n  tag_37\n  jump\t// in\ntag_75:\n    /* \"#utility.yul\":3206:3303   */\n  tag_76\n    /* \"#utility.yul\":3296:3302   */\n  dup2\n    /* \"#utility.yul\":3256:3294   */\n  tag_77\n    /* \"#utility.yul\":3288:3292   */\n  dup5\n    /* \"#utility.yul\":3282:3293   */\n  sload\n    /* \"#utility.yul\":3256:3294   */\n  tag_39\n  jump\t// in\ntag_77:\n    /* \"#utility.yul\":3250:3254   */\n  dup5\n    /* \"#utility.yul\":3206:3303   */\n  tag_41\n  jump\t// in\ntag_76:\n    /* \"#utility.yul\":3358:3362   */\n  0x20\n  dup1\n    /* \"#utility.yul\":3422:3424   */\n  0x1f\n    /* \"#utility.yul\":3411:3425   */\n  dup4\n  gt\n    /* \"#utility.yul\":3439:3440   */\n  0x01\n    /* \"#utility.yul\":3434:4097   */\n  dup2\n  eq\n  tag_79\n  jumpi\n    /* \"#utility.yul\":4141:4142   */\n  0x00\n    /* \"#utility.yul\":4158:4164   */\n  dup5\n    /* \"#utility.yul\":4155:4244   */\n  iszero\n  tag_80\n  jumpi\n  pop\n    /* \"#utility.yul\":4210:4229   */\n  dup6\n  dup4\n  add\n    /* \"#utility.yul\":4204:4230   */\n  mload\n    /* \"#utility.yul\":4155:4244   */\ntag_80:\n  not(0x00)\n    /* \"#utility.yul\":2959:2960   */\n  0x03\n    /* \"#utility.yul\":2955:2966   */\n  dup7\n  swap1\n  shl\n    /* \"#utility.yul\":2951:2975   */\n  shr\n    /* \"#utility.yul\":2947:2976   */\n  not\n    /* \"#utility.yul\":2937:2977   */\n  and\n    /* \"#utility.yul\":2983:2984   */\n  0x01\n    /* \"#utility.yul\":2979:2990   */\n  dup6\n  swap1\n  shl\n    /* \"#utility.yul\":2934:2991   */\n  or\n    /* \"#utility.yul\":4257:4338   */\n  dup6\n  sstore\n    /* \"#utility.yul\":3404:4348   */\n  jump(tag_71)\n    /* \"#utility.yul\":3434:4097   */\ntag_79:\n    /* \"#utility.yul\":2228:2229   */\n  0x00\n    /* \"#utility.yul\":2221:2235   */\n  dup6\n  dup2\n  mstore\n    /* \"#utility.yul\":2265:2269   */\n  0x20\n    /* \"#utility.yul\":2252:2270   */\n  dup2\n  keccak256\n  not(0x1f)\n    /* \"#utility.yul\":3470:3490   */\n  dup7\n  and\n  swap2\n    /* \"#utility.yul\":3588:3824   */\ntag_83:\n    /* \"#utility.yul\":3602:3609   */\n  dup3\n    /* \"#utility.yul\":3599:3600   */\n  dup2\n    /* \"#utility.yul\":3596:3610   */\n  lt\n    /* \"#utility.yul\":3588:3824   */\n  iszero\n  tag_85\n  jumpi\n    /* \"#utility.yul\":3691:3710   */\n  dup9\n  dup7\n  add\n    /* \"#utility.yul\":3685:3711   */\n  mload\n    /* \"#utility.yul\":3670:3712   */\n  dup3\n  sstore\n    /* \"#utility.yul\":3783:3810   */\n  swap5\n  dup5\n  add\n  swap5\n    /* \"#utility.yul\":3751:3752   */\n  0x01\n    /* \"#utility.yul\":3739:3753   */\n  swap1\n  swap2\n  add\n  swap1\n    /* \"#utility.yul\":3618:3637   */\n  dup5\n  add\n    /* \"#utility.yul\":3588:3824   */\n  jump(tag_83)\ntag_85:\n    /* \"#utility.yul\":3592:3595   */\n  pop\n    /* \"#utility.yul\":3852:3858   */\n  dup6\n    /* \"#utility.yul\":3843:3850   */\n  dup3\n    /* \"#utility.yul\":3840:3859   */\n  lt\n    /* \"#utility.yul\":3837:4038   */\n  iszero\n  tag_86\n  jumpi\n    /* \"#utility.yul\":3913:3932   */\n  dup8\n  dup6\n  add\n    /* \"#utility.yul\":3907:3933   */\n  mload\n  not(0x00)\n    /* \"#utility.yul\":3996:3997   */\n  0x03\n    /* \"#utility.yul\":3992:4006   */\n  dup9\n  swap1\n  shl\n    /* \"#utility.yul\":4008:4011   */\n  0xf8\n    /* \"#utility.yul\":3988:4012   */\n  and\n    /* \"#utility.yul\":3984:4021   */\n  shr\n    /* \"#utility.yul\":3980:4022   */\n  not\n    /* \"#utility.yul\":3965:4023   */\n  and\n    /* \"#utility.yul\":3950:4024   */\n  dup2\n  sstore\n    /* \"#utility.yul\":3837:4038   */\ntag_86:\n  pop\n  pop\n  pop\n  pop\n  pop\n    /* \"#utility.yul\":4084:4085   */\n  0x01\n    /* \"#utility.yul\":4068:4082   */\n  swap1\n  dup2\n  shl\n    /* \"#utility.yul\":4064:4086   */\n  add\n    /* \"#utility.yul\":4051:4087   */\n  swap1\n  sstore\n  pop\n    /* \"#utility.yul\":3002:4354   */\n  jump\t// out\n    /* \"#utility.yul\":4359:4649   */\ntag_19:\n    /* \"#utility.yul\":4429:4435   */\n  0x00\n    /* \"#utility.yul\":4482:4484   */\n  0x20\n    /* \"#utility.yul\":4470:4479   */\n  dup3\n    /* \"#utility.yul\":4461:4468   */\n  dup5\n    /* \"#utility.yul\":4457:4480   */\n  sub\n    /* \"#utility.yul\":4453:4485   */\n  slt\n    /* \"#utility.yul\":4450:4502   */\n  iszero\n  tag_88\n  jumpi\n    /* \"#utility.yul\":4498:4499   */\n  0x00\n    /* \"#utility.yul\":4495:4496   */\n  dup1\n    /* \"#utility.yul\":4488:4500   */\n  revert\n    /* \"#utility.yul\":4450:4502   */\ntag_88:\n    /* \"#utility.yul\":4524:4540   */\n  dup2\n  mload\n  sub(shl(0xa0, 0x01), 0x01)\n    /* \"#utility.yul\":4569:4600   */\n  dup2\n  and\n    /* \"#utility.yul\":4559:4601   */\n  dup2\n  eq\n    /* \"#utility.yul\":4549:4619   */\n  tag_89\n  jumpi\n    /* \"#utility.yul\":4615:4616   */\n  0x00\n    /* \"#utility.yul\":4612:4613   */\n  dup1\n    /* \"#utility.yul\":4605:4617   */\n  revert\n    /* \"#utility.yul\":4549:4619   */\ntag_89:\n    /* \"#utility.yul\":4638:4643   */\n  swap4\n    /* \"#utility.yul\":4359:4649   */\n  swap3\n  pop\n  pop\n  pop\n  jump\t// out\n    /* \"#utility.yul\":5014:5236   */\ntag_27:\n    /* \"#utility.yul\":5079:5088   */\n  dup1\n  dup3\n  add\n    /* \"#utility.yul\":5100:5110   */\n  dup1\n  dup3\n  gt\n    /* \"#utility.yul\":5097:5230   */\n  iszero\n  tag_92\n  jumpi\n    /* \"#utility.yul\":5152:5162   */\n  0x4e487b71\n    /* \"#utility.yul\":5147:5150   */\n  0xe0\n    /* \"#utility.yul\":5143:5163   */\n  shl\n    /* \"#utility.yul\":5140:5141   */\n  0x00\n    /* \"#utility.yul\":5133:5164   */\n  mstore\n    /* \"#utility.yul\":5187:5191   */\n  0x11\n    /* \"#utility.yul\":5184:5185   */\n  0x04\n    /* \"#utility.yul\":5177:5192   */\n  mstore\n    /* \"#utility.yul\":5215:5219   */\n  0x24\n    /* \"#utility.yul\":5212:5213   */\n  0x00\n    /* \"#utility.yul\":5205:5220   */\n  revert\n    /* \"#utility.yul\":5097:5230   */\ntag_92:\n    /* \"#utility.yul\":5014:5236   */\n  swap3\n  swap2\n  pop\n  pop\n  jump\t// out\n    /* \"#utility.yul\":5753:6381   */\ntag_43:\n    /* \"contracts/ACB.sol\":695:3280  contract SteamCoin is ERC20StandardToken, Ownable {... */\n  mload(0x80)\n  codecopy(0x00, dataOffset(sub_0), dataSize(sub_0))\n  0x00\n  assignImmutable(\"0xccd68672d6f769e1076a41a883b1b79cd2ffe42afc01c80e02e0f47639ea513e\")\n  return(0x00, dataSize(sub_0))\nstop\n\nsub_0: assembly {\n        /* \"contracts/ACB.sol\":695:3280  contract SteamCoin is ERC20StandardToken, Ownable {... */\n      mstore(0x40, 0x80)\n      callvalue\n      dup1\n      iszero\n      tag_1\n      jumpi\n      0x00\n      dup1\n      revert\n    tag_1:\n      pop\n      jumpi(tag_2, lt(calldatasize, 0x04))\n      shr(0xe0, calldataload(0x00))\n      dup1\n      0x06fdde03\n      eq\n      tag_3\n      jumpi\n      dup1\n      0x095ea7b3\n      eq\n      tag_4\n      jumpi\n      dup1\n      0x18160ddd\n      eq\n      tag_5\n      jumpi\n      dup1\n      0x23b872dd\n      eq\n      tag_6\n      jumpi\n      dup1\n      0x313ce567\n      eq\n      tag_7\n      jumpi\n      dup1\n      0x46bb9271\n      eq\n      tag_8\n      jumpi\n      dup1\n      0x70a08231\n      eq\n      tag_9\n      jumpi\n      dup1\n      0x8da5cb5b\n      eq\n      tag_10\n      jumpi\n      dup1\n      0x95d89b41\n      eq\n      tag_11\n      jumpi\n      dup1\n      0xa64177fb\n      eq\n      tag_12\n      jumpi\n      dup1\n      0xa9059cbb\n      eq\n      tag_13\n      jumpi\n      dup1\n      0xc66780b4\n      eq\n      tag_14\n      jumpi\n      dup1\n      0xdd62ed3e\n      eq\n      tag_15\n      jumpi\n      dup1\n      0xed9a165d\n      eq\n      tag_16\n      jumpi\n      dup1\n      0xf2fde38b\n      eq\n      tag_17\n      jumpi\n    tag_2:\n      0x00\n      dup1\n      revert\n        /* \"contracts/ERC20StandardToken.sol\":1375:1466  function name() public view virtual returns (string memory) {... */\n    tag_3:\n      tag_18\n      tag_19\n      jump\t// in\n    tag_18:\n      mload(0x40)\n      tag_20\n      swap2\n      swap1\n      tag_21\n      jump\t// in\n    tag_20:\n      mload(0x40)\n      dup1\n      swap2\n      sub\n      swap1\n      return\n        /* \"contracts/ERC20StandardToken.sol\":2154:2321  function approve(address spender, uint256 amount) public virtual override returns (bool) {... */\n    tag_4:\n      tag_22\n      tag_23\n      calldatasize\n      0x04\n      tag_24\n      jump\t// in\n    tag_23:\n      tag_25\n      jump\t// in\n    tag_22:\n      mload(0x40)\n        /* \"#utility.yul\":1169:1183   */\n      swap1\n      iszero\n        /* \"#utility.yul\":1162:1184   */\n      iszero\n        /* \"#utility.yul\":1144:1185   */\n      dup2\n      mstore\n        /* \"#utility.yul\":1132:1134   */\n      0x20\n        /* \"#utility.yul\":1117:1135   */\n      add\n        /* \"contracts/ERC20StandardToken.sol\":2154:2321  function approve(address spender, uint256 amount) public virtual override returns (bool) {... */\n      tag_20\n        /* \"#utility.yul\":1004:1191   */\n      jump\n        /* \"contracts/ERC20StandardToken.sol\":1575:1683  function totalSupply() public view virtual override returns (uint256) {... */\n    tag_5:\n        /* \"contracts/ERC20StandardToken.sol\":1663:1675  _totalSupply */\n      sload(0x04)\n        /* \"contracts/ERC20StandardToken.sol\":1575:1683  function totalSupply() public view virtual override returns (uint256) {... */\n    tag_28:\n      mload(0x40)\n        /* \"#utility.yul\":1342:1367   */\n      swap1\n      dup2\n      mstore\n        /* \"#utility.yul\":1330:1332   */\n      0x20\n        /* \"#utility.yul\":1315:1333   */\n      add\n        /* \"contracts/ERC20StandardToken.sol\":1575:1683  function totalSupply() public view virtual override returns (uint256) {... */\n      tag_20\n        /* \"#utility.yul\":1196:1373   */\n      jump\n        /* \"contracts/ERC20StandardToken.sol\":2329:2552  function transferFrom(address from, address to, uint256 amount) public virtual override returns (bool) {... */\n    tag_6:\n      tag_22\n      tag_33\n      calldatasize\n      0x04\n      tag_34\n      jump\t// in\n    tag_33:\n      tag_35\n      jump\t// in\n        /* \"contracts/ERC20StandardToken.sol\":1474:1565  function decimals() public view virtual returns (uint8) {... */\n    tag_7:\n      mload(0x40)\n        /* \"#utility.yul\":1883:1887   */\n      0xff\n        /* \"contracts/ERC20StandardToken.sol\":1548:1557  _decimals */\n      immutable(\"0xccd68672d6f769e1076a41a883b1b79cd2ffe42afc01c80e02e0f47639ea513e\")\n        /* \"#utility.yul\":1871:1888   */\n      and\n        /* \"#utility.yul\":1853:1889   */\n      dup2\n      mstore\n        /* \"#utility.yul\":1841:1843   */\n      0x20\n        /* \"#utility.yul\":1826:1844   */\n      add\n        /* \"contracts/ERC20StandardToken.sol\":1474:1565  function decimals() public view virtual returns (uint8) {... */\n      tag_20\n        /* \"#utility.yul\":1711:1895   */\n      jump\n        /* \"contracts/ACB.sol\":3060:3140  function setBnbPair(address d) external onlyOwner {... */\n    tag_8:\n      tag_41\n      tag_42\n      calldatasize\n      0x04\n      tag_43\n      jump\t// in\n    tag_42:\n      tag_44\n      jump\t// in\n    tag_41:\n      stop\n        /* \"contracts/ERC20StandardToken.sol\":1691:1818  function balanceOf(address account) public view virtual override returns (uint256) {... */\n    tag_9:\n      tag_28\n      tag_46\n      calldatasize\n      0x04\n      tag_43\n      jump\t// in\n    tag_46:\n      tag_47\n      jump\t// in\n        /* \"contracts/ACB.sol\":378:398  address public owner */\n    tag_10:\n      sload(0x05)\n      tag_49\n      swap1\n      sub(shl(0xa0, 0x01), 0x01)\n      and\n      dup2\n      jump\n    tag_49:\n      mload(0x40)\n      sub(shl(0xa0, 0x01), 0x01)\n        /* \"#utility.yul\":2255:2287   */\n      swap1\n      swap2\n      and\n        /* \"#utility.yul\":2237:2288   */\n      dup2\n      mstore\n        /* \"#utility.yul\":2225:2227   */\n      0x20\n        /* \"#utility.yul\":2210:2228   */\n      add\n        /* \"contracts/ACB.sol\":378:398  address public owner */\n      tag_20\n        /* \"#utility.yul\":2091:2294   */\n      jump\n        /* \"contracts/ERC20StandardToken.sol\":1272:1367  function symbol() public view virtual returns (string memory) {... */\n    tag_11:\n      tag_18\n      tag_54\n      jump\t// in\n        /* \"contracts/ACB.sol\":3148:3277  function setD(address d) external onlyOwner {... */\n    tag_12:\n      tag_41\n      tag_57\n      calldatasize\n      0x04\n      tag_43\n      jump\t// in\n    tag_57:\n      tag_58\n      jump\t// in\n        /* \"contracts/ERC20StandardToken.sol\":1987:2146  function transfer(address to, uint256 amount) public virtual override returns (bool) {... */\n    tag_13:\n      tag_22\n      tag_60\n      calldatasize\n      0x04\n      tag_24\n      jump\t// in\n    tag_60:\n      tag_61\n      jump\t// in\n        /* \"contracts/ACB.sol\":752:764  D public c_d */\n    tag_14:\n      sload(0x06)\n      tag_49\n      swap1\n      sub(shl(0xa0, 0x01), 0x01)\n      and\n      dup2\n      jump\n        /* \"contracts/ERC20StandardToken.sol\":1826:1977  function allowance(address owner, address spender) public view virtual override returns (uint256) {... */\n    tag_15:\n      tag_28\n      tag_68\n      calldatasize\n      0x04\n      tag_69\n      jump\t// in\n    tag_68:\n      sub(shl(0xa0, 0x01), 0x01)\n        /* \"contracts/ERC20StandardToken.sol\":1942:1960  _allowances[owner] */\n      swap2\n      dup3\n      and\n        /* \"contracts/ERC20StandardToken.sol\":1915:1922  uint256 */\n      0x00\n        /* \"contracts/ERC20StandardToken.sol\":1942:1960  _allowances[owner] */\n      swap1\n      dup2\n      mstore\n        /* \"contracts/ERC20StandardToken.sol\":1942:1953  _allowances */\n      0x01\n        /* \"contracts/ERC20StandardToken.sol\":1942:1960  _allowances[owner] */\n      0x20\n      swap1\n      dup2\n      mstore\n      0x40\n      dup1\n      dup4\n      keccak256\n        /* \"contracts/ERC20StandardToken.sol\":1942:1969  _allowances[owner][spender] */\n      swap4\n      swap1\n      swap5\n      and\n      dup3\n      mstore\n      swap2\n      swap1\n      swap2\n      mstore\n      keccak256\n      sload\n      swap1\n        /* \"contracts/ERC20StandardToken.sol\":1826:1977  function allowance(address owner, address spender) public view virtual override returns (uint256) {... */\n      jump\n        /* \"contracts/ACB.sol\":773:796  address public  bnbPair */\n    tag_16:\n      sload(0x07)\n      tag_49\n      swap1\n      sub(shl(0xa0, 0x01), 0x01)\n      and\n      dup2\n      jump\n        /* \"contracts/ACB.sol\":591:688  function transferOwnership(address newOwner) public onlyOwner {... */\n    tag_17:\n      tag_41\n      tag_76\n      calldatasize\n      0x04\n      tag_43\n      jump\t// in\n    tag_76:\n      tag_77\n      jump\t// in\n        /* \"contracts/ERC20StandardToken.sol\":1375:1466  function name() public view virtual returns (string memory) {... */\n    tag_19:\n        /* \"contracts/ERC20StandardToken.sol\":1420:1433  string memory */\n      0x60\n        /* \"contracts/ERC20StandardToken.sol\":1453:1458  _name */\n      0x03\n        /* \"contracts/ERC20StandardToken.sol\":1446:1458  return _name */\n      dup1\n      sload\n      tag_79\n      swap1\n      tag_80\n      jump\t// in\n    tag_79:\n      dup1\n      0x1f\n      add\n      0x20\n      dup1\n      swap2\n      div\n      mul\n      0x20\n      add\n      mload(0x40)\n      swap1\n      dup2\n      add\n      0x40\n      mstore\n      dup1\n      swap3\n      swap2\n      swap1\n      dup2\n      dup2\n      mstore\n      0x20\n      add\n      dup3\n      dup1\n      sload\n      tag_81\n      swap1\n      tag_80\n      jump\t// in\n    tag_81:\n      dup1\n      iszero\n      tag_82\n      jumpi\n      dup1\n      0x1f\n      lt\n      tag_83\n      jumpi\n      0x0100\n      dup1\n      dup4\n      sload\n      div\n      mul\n      dup4\n      mstore\n      swap2\n      0x20\n      add\n      swap2\n      jump(tag_82)\n    tag_83:\n      dup3\n      add\n      swap2\n      swap1\n      0x00\n      mstore\n      keccak256(0x00, 0x20)\n      swap1\n    tag_84:\n      dup2\n      sload\n      dup2\n      mstore\n      swap1\n      0x01\n      add\n      swap1\n      0x20\n      add\n      dup1\n      dup4\n      gt\n      tag_84\n      jumpi\n      dup3\n      swap1\n      sub\n      0x1f\n      and\n      dup3\n      add\n      swap2\n    tag_82:\n      pop\n      pop\n      pop\n      pop\n      pop\n      swap1\n      pop\n        /* \"contracts/ERC20StandardToken.sol\":1375:1466  function name() public view virtual returns (string memory) {... */\n      swap1\n      jump\t// out\n        /* \"contracts/ERC20StandardToken.sol\":2154:2321  function approve(address spender, uint256 amount) public virtual override returns (bool) {... */\n    tag_25:\n        /* \"contracts/ERC20StandardToken.sol\":2237:2241  bool */\n      0x00\n        /* \"contracts/ERC20StandardToken.sol\":2254:2291  _approve(msg.sender, spender, amount) */\n      tag_86\n        /* \"contracts/ERC20StandardToken.sol\":2263:2273  msg.sender */\n      caller\n        /* \"contracts/ERC20StandardToken.sol\":2275:2282  spender */\n      dup5\n        /* \"contracts/ERC20StandardToken.sol\":2284:2290  amount */\n      dup5\n        /* \"contracts/ERC20StandardToken.sol\":2254:2262  _approve */\n      tag_87\n        /* \"contracts/ERC20StandardToken.sol\":2254:2291  _approve(msg.sender, spender, amount) */\n      jump\t// in\n    tag_86:\n      pop\n        /* \"contracts/ERC20StandardToken.sol\":2309:2313  true */\n      0x01\n        /* \"contracts/ERC20StandardToken.sol\":2154:2321  function approve(address spender, uint256 amount) public virtual override returns (bool) {... */\n      swap3\n      swap2\n      pop\n      pop\n      jump\t// out\n        /* \"contracts/ERC20StandardToken.sol\":2329:2552  function transferFrom(address from, address to, uint256 amount) public virtual override returns (bool) {... */\n    tag_35:\n        /* \"contracts/ERC20StandardToken.sol\":2426:2430  bool */\n      0x00\n        /* \"contracts/ERC20StandardToken.sol\":2443:2484  _spendAllowance(from, msg.sender, amount) */\n      tag_90\n        /* \"contracts/ERC20StandardToken.sol\":2459:2463  from */\n      dup5\n        /* \"contracts/ERC20StandardToken.sol\":2465:2475  msg.sender */\n      caller\n        /* \"contracts/ERC20StandardToken.sol\":2477:2483  amount */\n      dup5\n        /* \"contracts/ERC20StandardToken.sol\":2443:2458  _spendAllowance */\n      tag_91\n        /* \"contracts/ERC20StandardToken.sol\":2443:2484  _spendAllowance(from, msg.sender, amount) */\n      jump\t// in\n    tag_90:\n        /* \"contracts/ERC20StandardToken.sol\":2495:2522  _transfer(from, to, amount) */\n      tag_92\n        /* \"contracts/ERC20StandardToken.sol\":2505:2509  from */\n      dup5\n        /* \"contracts/ERC20StandardToken.sol\":2511:2513  to */\n      dup5\n        /* \"contracts/ERC20StandardToken.sol\":2515:2521  amount */\n      dup5\n        /* \"contracts/ERC20StandardToken.sol\":2495:2504  _transfer */\n      tag_93\n        /* \"contracts/ERC20StandardToken.sol\":2495:2522  _transfer(from, to, amount) */\n      jump\t// in\n    tag_92:\n      pop\n        /* \"contracts/ERC20StandardToken.sol\":2540:2544  true */\n      0x01\n        /* \"contracts/ERC20StandardToken.sol\":2329:2552  function transferFrom(address from, address to, uint256 amount) public virtual override returns (bool) {... */\n      swap4\n      swap3\n      pop\n      pop\n      pop\n      jump\t// out\n        /* \"contracts/ACB.sol\":3060:3140  function setBnbPair(address d) external onlyOwner {... */\n    tag_44:\n        /* \"contracts/ACB.sol\":507:512  owner */\n      and(sub(shl(0xa0, 0x01), 0x01), sload(0x05))\n        /* \"contracts/ACB.sol\":516:526  msg.sender */\n      caller\n        /* \"contracts/ACB.sol\":507:526  owner == msg.sender */\n      eq\n        /* \"contracts/ACB.sol\":499:563  require(owner == msg.sender, \"Ownable: caller is not the owner\") */\n      tag_96\n      jumpi\n      mload(0x40)\n      shl(0xe5, 0x461bcd)\n      dup2\n      mstore\n      0x04\n      add\n      tag_97\n      swap1\n      tag_98\n      jump\t// in\n    tag_97:\n      mload(0x40)\n      dup1\n      swap2\n      sub\n      swap1\n      revert\n    tag_96:\n        /* \"contracts/ACB.sol\":3121:3128  bnbPair */\n      0x07\n        /* \"contracts/ACB.sol\":3121:3132  bnbPair = d */\n      dup1\n      sload\n      not(sub(shl(0xa0, 0x01), 0x01))\n      and\n      sub(shl(0xa0, 0x01), 0x01)\n      swap3\n      swap1\n      swap3\n      and\n      swap2\n      swap1\n      swap2\n      or\n      swap1\n      sstore\n        /* \"contracts/ACB.sol\":3060:3140  function setBnbPair(address d) external onlyOwner {... */\n      jump\t// out\n        /* \"contracts/ERC20StandardToken.sol\":1691:1818  function balanceOf(address account) public view virtual override returns (uint256) {... */\n    tag_47:\n      sub(shl(0xa0, 0x01), 0x01)\n        /* \"contracts/ERC20StandardToken.sol\":1792:1810  _balances[account] */\n      and\n        /* \"contracts/ERC20StandardToken.sol\":1765:1772  uint256 */\n      0x00\n        /* \"contracts/ERC20StandardToken.sol\":1792:1810  _balances[account] */\n      swap1\n      dup2\n      mstore\n      0x20\n      dup2\n      swap1\n      mstore\n      0x40\n      swap1\n      keccak256\n      sload\n      swap1\n        /* \"contracts/ERC20StandardToken.sol\":1691:1818  function balanceOf(address account) public view virtual override returns (uint256) {... */\n      jump\t// out\n        /* \"contracts/ERC20StandardToken.sol\":1272:1367  function symbol() public view virtual returns (string memory) {... */\n    tag_54:\n        /* \"contracts/ERC20StandardToken.sol\":1319:1332  string memory */\n      0x60\n        /* \"contracts/ERC20StandardToken.sol\":1352:1359  _symbol */\n      0x02\n        /* \"contracts/ERC20StandardToken.sol\":1345:1359  return _symbol */\n      dup1\n      sload\n      tag_79\n      swap1\n      tag_80\n      jump\t// in\n        /* \"contracts/ACB.sol\":3148:3277  function setD(address d) external onlyOwner {... */\n    tag_58:\n        /* \"contracts/ACB.sol\":507:512  owner */\n      and(sub(shl(0xa0, 0x01), 0x01), sload(0x05))\n        /* \"contracts/ACB.sol\":516:526  msg.sender */\n      caller\n        /* \"contracts/ACB.sol\":507:526  owner == msg.sender */\n      eq\n        /* \"contracts/ACB.sol\":499:563  require(owner == msg.sender, \"Ownable: caller is not the owner\") */\n      tag_108\n      jumpi\n      mload(0x40)\n      shl(0xe5, 0x461bcd)\n      dup2\n      mstore\n      0x04\n      add\n      tag_97\n      swap1\n      tag_98\n      jump\t// in\n    tag_108:\n        /* \"contracts/ACB.sol\":3203:3206  c_d */\n      0x06\n        /* \"contracts/ACB.sol\":3203:3213  c_d = D(d) */\n      dup1\n      sload\n      not(sub(shl(0xa0, 0x01), 0x01))\n      and\n      sub(shl(0xa0, 0x01), 0x01)\n      dup4\n      and\n      or\n      swap1\n      sstore\n        /* \"contracts/ACB.sol\":3224:3269  _approve(address(this), d, type(uint256).max) */\n      tag_111\n        /* \"contracts/ACB.sol\":3241:3245  this */\n      address\n        /* \"contracts/ACB.sol\":3203:3213  c_d = D(d) */\n      dup3\n      not(0x00)\n        /* \"contracts/ACB.sol\":3224:3232  _approve */\n      tag_87\n        /* \"contracts/ACB.sol\":3224:3269  _approve(address(this), d, type(uint256).max) */\n      jump\t// in\n    tag_111:\n        /* \"contracts/ACB.sol\":3148:3277  function setD(address d) external onlyOwner {... */\n      pop\n      jump\t// out\n        /* \"contracts/ERC20StandardToken.sol\":1987:2146  function transfer(address to, uint256 amount) public virtual override returns (bool) {... */\n    tag_61:\n        /* \"contracts/ERC20StandardToken.sol\":2066:2070  bool */\n      0x00\n        /* \"contracts/ERC20StandardToken.sol\":2083:2116  _transfer(msg.sender, to, amount) */\n      tag_86\n        /* \"contracts/ERC20StandardToken.sol\":2093:2103  msg.sender */\n      caller\n        /* \"contracts/ERC20StandardToken.sol\":2105:2107  to */\n      dup5\n        /* \"contracts/ERC20StandardToken.sol\":2109:2115  amount */\n      dup5\n        /* \"contracts/ERC20StandardToken.sol\":2083:2092  _transfer */\n      tag_93\n        /* \"contracts/ERC20StandardToken.sol\":2083:2116  _transfer(msg.sender, to, amount) */\n      jump\t// in\n        /* \"contracts/ACB.sol\":591:688  function transferOwnership(address newOwner) public onlyOwner {... */\n    tag_77:\n        /* \"contracts/ACB.sol\":507:512  owner */\n      and(sub(shl(0xa0, 0x01), 0x01), sload(0x05))\n        /* \"contracts/ACB.sol\":516:526  msg.sender */\n      caller\n        /* \"contracts/ACB.sol\":507:526  owner == msg.sender */\n      eq\n        /* \"contracts/ACB.sol\":499:563  require(owner == msg.sender, \"Ownable: caller is not the owner\") */\n      tag_116\n      jumpi\n      mload(0x40)\n      shl(0xe5, 0x461bcd)\n      dup2\n      mstore\n      0x04\n      add\n      tag_97\n      swap1\n      tag_98\n      jump\t// in\n    tag_116:\n        /* \"contracts/ACB.sol\":664:669  owner */\n      0x05\n        /* \"contracts/ACB.sol\":664:680  owner = newOwner */\n      dup1\n      sload\n      not(sub(shl(0xa0, 0x01), 0x01))\n      and\n      sub(shl(0xa0, 0x01), 0x01)\n      swap3\n      swap1\n      swap3\n      and\n      swap2\n      swap1\n      swap2\n      or\n      swap1\n      sstore\n        /* \"contracts/ACB.sol\":591:688  function transferOwnership(address newOwner) public onlyOwner {... */\n      jump\t// out\n        /* \"contracts/ERC20StandardToken.sol\":4029:4215  function _approve(address owner, address spender, uint256 amount) internal virtual {... */\n    tag_87:\n      sub(shl(0xa0, 0x01), 0x01)\n        /* \"contracts/ERC20StandardToken.sol\":4123:4141  _allowances[owner] */\n      dup4\n      dup2\n      and\n      0x00\n      dup2\n      dup2\n      mstore\n        /* \"contracts/ERC20StandardToken.sol\":4123:4134  _allowances */\n      0x01\n        /* \"contracts/ERC20StandardToken.sol\":4123:4141  _allowances[owner] */\n      0x20\n      swap1\n      dup2\n      mstore\n      0x40\n      dup1\n      dup4\n      keccak256\n        /* \"contracts/ERC20StandardToken.sol\":4123:4150  _allowances[owner][spender] */\n      swap5\n      dup8\n      and\n      dup1\n      dup5\n      mstore\n      swap5\n      dup3\n      mstore\n      swap2\n      dup3\n      swap1\n      keccak256\n        /* \"contracts/ERC20StandardToken.sol\":4123:4159  _allowances[owner][spender] = amount */\n      dup6\n      swap1\n      sstore\n        /* \"contracts/ERC20StandardToken.sol\":4175:4207  Approval(owner, spender, amount) */\n      swap1\n      mload\n        /* \"#utility.yul\":1342:1367   */\n      dup5\n      dup2\n      mstore\n        /* \"contracts/ERC20StandardToken.sol\":4175:4207  Approval(owner, spender, amount) */\n      0x8c5be1e5ebec7d5bd14f71427d1e84f3dd0314c0f7b2291e5b200ac8c7c3b925\n      swap2\n        /* \"#utility.yul\":1315:1333   */\n      add\n        /* \"contracts/ERC20StandardToken.sol\":4175:4207  Approval(owner, spender, amount) */\n    tag_120:\n      mload(0x40)\n      dup1\n      swap2\n      sub\n      swap1\n      log3\n        /* \"contracts/ERC20StandardToken.sol\":4029:4215  function _approve(address owner, address spender, uint256 amount) internal virtual {... */\n      pop\n      pop\n      pop\n      jump\t// out\n        /* \"contracts/ERC20StandardToken.sol\":3600:4021  function _spendAllowance(address owner, address spender, uint256 amount) internal virtual {... */\n    tag_91:\n      sub(shl(0xa0, 0x01), 0x01)\n        /* \"contracts/ERC20StandardToken.sol\":3728:3746  _allowances[owner] */\n      dup1\n      dup5\n      and\n        /* \"contracts/ERC20StandardToken.sol\":3701:3725  uint256 currentAllowance */\n      0x00\n        /* \"contracts/ERC20StandardToken.sol\":3728:3746  _allowances[owner] */\n      swap1\n      dup2\n      mstore\n        /* \"contracts/ERC20StandardToken.sol\":3728:3739  _allowances */\n      0x01\n        /* \"contracts/ERC20StandardToken.sol\":3728:3746  _allowances[owner] */\n      0x20\n      swap1\n      dup2\n      mstore\n      0x40\n      dup1\n      dup4\n      keccak256\n        /* \"contracts/ERC20StandardToken.sol\":3728:3755  _allowances[owner][spender] */\n      swap4\n      dup7\n      and\n      dup4\n      mstore\n      swap3\n      swap1\n      mstore\n      keccak256\n      sload\n      not(0x00)\n        /* \"contracts/ERC20StandardToken.sol\":3770:3807  currentAllowance != type(uint256).max */\n      dup2\n      eq\n        /* \"contracts/ERC20StandardToken.sol\":3766:4014  if (currentAllowance != type(uint256).max) {... */\n      tag_126\n      jumpi\n        /* \"contracts/ERC20StandardToken.sol\":3852:3858  amount */\n      dup2\n        /* \"contracts/ERC20StandardToken.sol\":3832:3848  currentAllowance */\n      dup2\n        /* \"contracts/ERC20StandardToken.sol\":3832:3858  currentAllowance >= amount */\n      lt\n      iszero\n        /* \"contracts/ERC20StandardToken.sol\":3824:3892  require(currentAllowance >= amount, \"ERC20: insufficient allowance\") */\n      tag_123\n      jumpi\n      mload(0x40)\n      shl(0xe5, 0x461bcd)\n      dup2\n      mstore\n        /* \"#utility.yul\":3728:3730   */\n      0x20\n        /* \"contracts/ERC20StandardToken.sol\":3824:3892  require(currentAllowance >= amount, \"ERC20: insufficient allowance\") */\n      0x04\n      dup3\n      add\n        /* \"#utility.yul\":3710:3731   */\n      mstore\n        /* \"#utility.yul\":3767:3769   */\n      0x1d\n        /* \"#utility.yul\":3747:3765   */\n      0x24\n      dup3\n      add\n        /* \"#utility.yul\":3740:3770   */\n      mstore\n        /* \"#utility.yul\":3806:3837   */\n      0x45524332303a20696e73756666696369656e7420616c6c6f77616e6365000000\n        /* \"#utility.yul\":3786:3804   */\n      0x44\n      dup3\n      add\n        /* \"#utility.yul\":3779:3838   */\n      mstore\n        /* \"#utility.yul\":3855:3873   */\n      0x64\n      add\n        /* \"contracts/ERC20StandardToken.sol\":3824:3892  require(currentAllowance >= amount, \"ERC20: insufficient allowance\") */\n      tag_97\n        /* \"#utility.yul\":3526:3879   */\n      jump\n        /* \"contracts/ERC20StandardToken.sol\":3824:3892  require(currentAllowance >= amount, \"ERC20: insufficient allowance\") */\n    tag_123:\n        /* \"contracts/ERC20StandardToken.sol\":3936:3987  _approve(owner, spender, currentAllowance - amount) */\n      tag_126\n        /* \"contracts/ERC20StandardToken.sol\":3945:3950  owner */\n      dup5\n        /* \"contracts/ERC20StandardToken.sol\":3952:3959  spender */\n      dup5\n        /* \"contracts/ERC20StandardToken.sol\":3980:3986  amount */\n      dup5\n        /* \"contracts/ERC20StandardToken.sol\":3961:3977  currentAllowance */\n      dup5\n        /* \"contracts/ERC20StandardToken.sol\":3961:3986  currentAllowance - amount */\n      sub\n        /* \"contracts/ERC20StandardToken.sol\":3936:3944  _approve */\n      tag_87\n        /* \"contracts/ERC20StandardToken.sol\":3936:3987  _approve(owner, spender, currentAllowance - amount) */\n      jump\t// in\n    tag_126:\n        /* \"contracts/ERC20StandardToken.sol\":3690:4021  {... */\n      pop\n        /* \"contracts/ERC20StandardToken.sol\":3600:4021  function _spendAllowance(address owner, address spender, uint256 amount) internal virtual {... */\n      pop\n      pop\n      pop\n      jump\t// out\n        /* \"contracts/ACB.sol\":1981:3054  function _transfer(address from, address to, uint256 amount) internal override {... */\n    tag_93:\n        /* \"contracts/ACB.sol\":2097:2104  bnbPair */\n      sload(0x07)\n      sub(shl(0xa0, 0x01), 0x01)\n      swap1\n      dup2\n      and\n      swap1\n        /* \"contracts/ACB.sol\":2118:2131  from != pair_ */\n      dup5\n      and\n      dup2\n      eq\n      dup1\n      iszero\n      swap1\n        /* \"contracts/ACB.sol\":2118:2146  from != pair_ && to != pair_ */\n      tag_128\n      jumpi\n      pop\n        /* \"contracts/ACB.sol\":2141:2146  pair_ */\n      dup1\n      sub(shl(0xa0, 0x01), 0x01)\n        /* \"contracts/ACB.sol\":2135:2146  to != pair_ */\n      and\n        /* \"contracts/ACB.sol\":2135:2137  to */\n      dup4\n      sub(shl(0xa0, 0x01), 0x01)\n        /* \"contracts/ACB.sol\":2135:2146  to != pair_ */\n      and\n      eq\n      iszero\n        /* \"contracts/ACB.sol\":2118:2146  from != pair_ && to != pair_ */\n    tag_128:\n        /* \"contracts/ACB.sol\":2115:2229  if(from != pair_ && to != pair_) {... */\n      iszero\n      tag_129\n      jumpi\n        /* \"contracts/ACB.sol\":2163:2196  super._transfer(from, to, amount) */\n      tag_126\n        /* \"contracts/ACB.sol\":2179:2183  from */\n      dup5\n        /* \"contracts/ACB.sol\":2185:2187  to */\n      dup5\n        /* \"contracts/ACB.sol\":2189:2195  amount */\n      dup5\n        /* \"contracts/ACB.sol\":2163:2178  super._transfer */\n      tag_131\n        /* \"contracts/ACB.sol\":2163:2196  super._transfer(from, to, amount) */\n      jump\t// in\n        /* \"contracts/ACB.sol\":2115:2229  if(from != pair_ && to != pair_) {... */\n    tag_129:\n        /* \"contracts/ACB.sol\":2239:2270  _subSenderBalance(from, amount) */\n      tag_132\n        /* \"contracts/ACB.sol\":2257:2261  from */\n      dup5\n        /* \"contracts/ACB.sol\":2263:2269  amount */\n      dup4\n        /* \"contracts/ACB.sol\":2239:2256  _subSenderBalance */\n      tag_133\n        /* \"contracts/ACB.sol\":2239:2270  _subSenderBalance(from, amount) */\n      jump\t// in\n    tag_132:\n        /* \"contracts/ACB.sol\":2324:2327  100 */\n      0x64\n        /* \"contracts/ACB.sol\":2317:2327  amount/100 */\n      dup3\n      div\n        /* \"contracts/ACB.sol\":2342:2388  _addReceiverBalance(from, operationAddress, o) */\n      tag_137\n        /* \"contracts/ACB.sol\":2362:2366  from */\n      dup6\n        /* \"contracts/ACB.sol\":859:901  0xf51446f195D697ED51235e7B382Fc170503E1976 */\n      0xf51446f195d697ed51235e7b382fc170503e1976\n        /* \"contracts/ACB.sol\":2317:2327  amount/100 */\n      dup4\n        /* \"contracts/ACB.sol\":2342:2361  _addReceiverBalance */\n      tag_138\n        /* \"contracts/ACB.sol\":2342:2388  _addReceiverBalance(from, operationAddress, o) */\n      jump\t// in\n    tag_137:\n        /* \"contracts/ACB.sol\":2403:2444  _addReceiverBalance(from, nodeAddress, o) */\n      tag_139\n        /* \"contracts/ACB.sol\":2423:2427  from */\n      dup6\n        /* \"contracts/ACB.sol\":956:998  0x000000000000000000000000000000000000dEaD */\n      0xdead\n        /* \"contracts/ACB.sol\":2442:2443  o */\n      dup4\n        /* \"contracts/ACB.sol\":2403:2422  _addReceiverBalance */\n      tag_138\n        /* \"contracts/ACB.sol\":2403:2444  _addReceiverBalance(from, nodeAddress, o) */\n      jump\t// in\n    tag_139:\n        /* \"contracts/ACB.sol\":2470:2473  c_d */\n      and(sub(shl(0xa0, 0x01), 0x01), sload(0x06))\n        /* \"contracts/ACB.sol\":2459:3036  if(address(c_d) == address(0)) {... */\n      tag_140\n      jumpi\n        /* \"contracts/ACB.sol\":2509:2552  _addReceiverBalance(from, to, amount - 2*o) */\n      tag_141\n        /* \"contracts/ACB.sol\":2529:2533  from */\n      dup6\n        /* \"contracts/ACB.sol\":2535:2537  to */\n      dup6\n        /* \"contracts/ACB.sol\":2550:2551  o */\n      dup4\n        /* \"contracts/ACB.sol\":2548:2549  2 */\n      0x02\n        /* \"contracts/ACB.sol\":2548:2551  2*o */\n      mul\n        /* \"contracts/ACB.sol\":2539:2545  amount */\n      dup7\n        /* \"contracts/ACB.sol\":2539:2551  amount - 2*o */\n      sub\n        /* \"contracts/ACB.sol\":2509:2528  _addReceiverBalance */\n      tag_138\n        /* \"contracts/ACB.sol\":2509:2552  _addReceiverBalance(from, to, amount - 2*o) */\n      jump\t// in\n    tag_141:\n        /* \"contracts/ACB.sol\":2459:3036  if(address(c_d) == address(0)) {... */\n      jump(tag_155)\n    tag_140:\n        /* \"contracts/ACB.sol\":2591:2634  _addReceiverBalance(from, address(this), o) */\n      tag_143\n        /* \"contracts/ACB.sol\":2611:2615  from */\n      dup6\n        /* \"contracts/ACB.sol\":2625:2629  this */\n      address\n        /* \"contracts/ACB.sol\":2632:2633  o */\n      dup4\n        /* \"contracts/ACB.sol\":2591:2610  _addReceiverBalance */\n      tag_138\n        /* \"contracts/ACB.sol\":2591:2634  _addReceiverBalance(from, address(this), o) */\n      jump\t// in\n    tag_143:\n        /* \"contracts/ACB.sol\":2653:2696  _addReceiverBalance(from, to, amount - 3*o) */\n      tag_144\n        /* \"contracts/ACB.sol\":2673:2677  from */\n      dup6\n        /* \"contracts/ACB.sol\":2679:2681  to */\n      dup6\n        /* \"contracts/ACB.sol\":2694:2695  o */\n      dup4\n        /* \"contracts/ACB.sol\":2692:2693  3 */\n      0x03\n        /* \"contracts/ACB.sol\":2692:2695  3*o */\n      mul\n        /* \"contracts/ACB.sol\":2683:2689  amount */\n      dup7\n        /* \"contracts/ACB.sol\":2683:2695  amount - 3*o */\n      sub\n        /* \"contracts/ACB.sol\":2653:2672  _addReceiverBalance */\n      tag_138\n        /* \"contracts/ACB.sol\":2653:2696  _addReceiverBalance(from, to, amount - 3*o) */\n      jump\t// in\n    tag_144:\n        /* \"contracts/ACB.sol\":2719:2722  c_d */\n      and(sub(shl(0xa0, 0x01), 0x01), sload(0x06))\n        /* \"contracts/ACB.sol\":2719:2742  c_d.distributeDividends */\n      0x3243c791\n        /* \"contracts/ACB.sol\":2743:2767  balanceOf(address(this)) */\n      tag_145\n        /* \"contracts/ACB.sol\":2761:2765  this */\n      address\n        /* \"contracts/ACB.sol\":2743:2752  balanceOf */\n      tag_47\n        /* \"contracts/ACB.sol\":2743:2767  balanceOf(address(this)) */\n      jump\t// in\n    tag_145:\n        /* \"contracts/ACB.sol\":2719:2768  c_d.distributeDividends(balanceOf(address(this))) */\n      mload(0x40)\n      dup3\n      0xffffffff\n      and\n      0xe0\n      shl\n      dup2\n      mstore\n      0x04\n      add\n      tag_146\n      swap2\n        /* \"#utility.yul\":1342:1367   */\n      dup2\n      mstore\n        /* \"#utility.yul\":1330:1332   */\n      0x20\n        /* \"#utility.yul\":1315:1333   */\n      add\n      swap1\n        /* \"#utility.yul\":1196:1373   */\n      jump\n        /* \"contracts/ACB.sol\":2719:2768  c_d.distributeDividends(balanceOf(address(this))) */\n    tag_146:\n      0x20\n      mload(0x40)\n      dup1\n      dup4\n      sub\n      dup2\n      0x00\n      dup8\n      gas\n      call\n      swap3\n      pop\n      pop\n      pop\n      dup1\n      iszero\n      tag_147\n      jumpi\n      pop\n      0x40\n      dup1\n      mload\n      0x1f\n      returndatasize\n      swap1\n      dup2\n      add\n      not(0x1f)\n      and\n      dup3\n      add\n      swap1\n      swap3\n      mstore\n      tag_148\n      swap2\n      dup2\n      add\n      swap1\n      tag_149\n      jump\t// in\n    tag_148:\n      0x01\n    tag_147:\n        /* \"contracts/ACB.sol\":2715:3021  try c_d.distributeDividends(balanceOf(address(this))) returns (uint256 res) {... */\n      tag_150\n      jumpi\n        /* \"contracts/ACB.sol\":2964:3001  super._transfer(address(this), to, o) */\n      tag_141\n        /* \"contracts/ACB.sol\":2988:2992  this */\n      address\n        /* \"contracts/ACB.sol\":2995:2997  to */\n      dup6\n        /* \"contracts/ACB.sol\":2999:3000  o */\n      dup4\n        /* \"contracts/ACB.sol\":2964:2979  super._transfer */\n      tag_131\n        /* \"contracts/ACB.sol\":2964:3001  super._transfer(address(this), to, o) */\n      jump\t// in\n        /* \"contracts/ACB.sol\":2715:3021  try c_d.distributeDividends(balanceOf(address(this))) returns (uint256 res) {... */\n    tag_150:\n        /* \"contracts/ACB.sol\":2817:2820  res */\n      dup1\n        /* \"contracts/ACB.sol\":2824:2825  0 */\n      0x00\n        /* \"contracts/ACB.sol\":2817:2825  res == 0 */\n      sub\n        /* \"contracts/ACB.sol\":2814:2915  if(res == 0) {... */\n      tag_157\n      jumpi\n        /* \"contracts/ACB.sol\":2854:2891  super._transfer(address(this), to, o) */\n      tag_157\n        /* \"contracts/ACB.sol\":2878:2882  this */\n      address\n        /* \"contracts/ACB.sol\":2885:2887  to */\n      dup7\n        /* \"contracts/ACB.sol\":2889:2890  o */\n      dup5\n        /* \"contracts/ACB.sol\":2854:2869  super._transfer */\n      tag_131\n        /* \"contracts/ACB.sol\":2854:2891  super._transfer(address(this), to, o) */\n      jump\t// in\n    tag_157:\n        /* \"contracts/ACB.sol\":2769:2934  returns (uint256 res) {... */\n      pop\n        /* \"contracts/ACB.sol\":2715:3021  try c_d.distributeDividends(balanceOf(address(this))) returns (uint256 res) {... */\n    tag_155:\n        /* \"contracts/ACB.sol\":2281:3047  unchecked{... */\n      pop\n        /* \"contracts/ACB.sol\":2060:3054  {... */\n      pop\n        /* \"contracts/ACB.sol\":1981:3054  function _transfer(address from, address to, uint256 amount) internal override {... */\n      pop\n      pop\n      pop\n      jump\t// out\n        /* \"contracts/ERC20StandardToken.sol\":2562:2944  function _transfer(address from, address to, uint256 amount) internal virtual {... */\n    tag_131:\n      sub(shl(0xa0, 0x01), 0x01)\n        /* \"contracts/ERC20StandardToken.sol\":2673:2688  _balances[from] */\n      dup4\n      and\n        /* \"contracts/ERC20StandardToken.sol\":2651:2670  uint256 fromBalance */\n      0x00\n        /* \"contracts/ERC20StandardToken.sol\":2673:2688  _balances[from] */\n      swap1\n      dup2\n      mstore\n      0x20\n      dup2\n      swap1\n      mstore\n      0x40\n      swap1\n      keccak256\n      sload\n        /* \"contracts/ERC20StandardToken.sol\":2707:2728  fromBalance >= amount */\n      dup2\n      dup2\n      lt\n      iszero\n        /* \"contracts/ERC20StandardToken.sol\":2699:2771  require(fromBalance >= amount, \"ERC20: transfer amount exceeds balance\") */\n      tag_159\n      jumpi\n      mload(0x40)\n      shl(0xe5, 0x461bcd)\n      dup2\n      mstore\n      0x04\n      add\n      tag_97\n      swap1\n      tag_161\n      jump\t// in\n    tag_159:\n      sub(shl(0xa0, 0x01), 0x01)\n        /* \"contracts/ERC20StandardToken.sol\":2807:2822  _balances[from] */\n      dup5\n      dup2\n      and\n        /* \"contracts/ERC20StandardToken.sol\":2807:2816  _balances */\n      0x00\n        /* \"contracts/ERC20StandardToken.sol\":2807:2822  _balances[from] */\n      dup2\n      dup2\n      mstore\n      0x20\n      dup2\n      dup2\n      mstore\n      0x40\n      dup1\n      dup4\n      keccak256\n        /* \"contracts/ERC20StandardToken.sol\":2825:2845  fromBalance - amount */\n      dup8\n      dup8\n      sub\n        /* \"contracts/ERC20StandardToken.sol\":2807:2845  _balances[from] = fromBalance - amount */\n      swap1\n      sstore\n        /* \"contracts/ERC20StandardToken.sol\":2860:2873  _balances[to] */\n      swap4\n      dup8\n      and\n      dup1\n      dup4\n      mstore\n      swap2\n      dup5\n      swap1\n      keccak256\n        /* \"contracts/ERC20StandardToken.sol\":2860:2883  _balances[to] += amount */\n      dup1\n      sload\n      dup8\n      add\n      swap1\n      sstore\n        /* \"contracts/ERC20StandardToken.sol\":2910:2936  Transfer(from, to, amount) */\n      swap3\n      mload\n        /* \"#utility.yul\":1342:1367   */\n      dup6\n      dup2\n      mstore\n        /* \"contracts/ERC20StandardToken.sol\":2860:2873  _balances[to] */\n      swap1\n      swap3\n      0x00\n      dup1\n      mload\n      0x20\n      data_ada389e1fc24a8587c776340efb91b36e675792ab631816100d55df0b5cf3cbc\n      dup4\n      codecopy\n      dup2\n      mload\n      swap2\n      mstore\n        /* \"contracts/ERC20StandardToken.sol\":2910:2936  Transfer(from, to, amount) */\n      swap2\n        /* \"#utility.yul\":1315:1333   */\n      add\n        /* \"contracts/ERC20StandardToken.sol\":2910:2936  Transfer(from, to, amount) */\n      mload(0x40)\n      dup1\n      swap2\n      sub\n      swap1\n      log3\n        /* \"contracts/ERC20StandardToken.sol\":2640:2944  {... */\n      pop\n        /* \"contracts/ERC20StandardToken.sol\":2562:2944  function _transfer(address from, address to, uint256 amount) internal virtual {... */\n      pop\n      pop\n      pop\n      jump\t// out\n        /* \"contracts/ERC20StandardToken.sol\":3078:3376  function _subSenderBalance(address from, uint256 amount) internal virtual {... */\n    tag_133:\n      sub(shl(0xa0, 0x01), 0x01)\n        /* \"contracts/ERC20StandardToken.sol\":3185:3200  _balances[from] */\n      dup3\n      and\n        /* \"contracts/ERC20StandardToken.sol\":3163:3182  uint256 fromBalance */\n      0x00\n        /* \"contracts/ERC20StandardToken.sol\":3185:3200  _balances[from] */\n      swap1\n      dup2\n      mstore\n      0x20\n      dup2\n      swap1\n      mstore\n      0x40\n      swap1\n      keccak256\n      sload\n        /* \"contracts/ERC20StandardToken.sol\":3219:3240  fromBalance >= amount */\n      dup2\n      dup2\n      lt\n      iszero\n        /* \"contracts/ERC20StandardToken.sol\":3211:3283  require(fromBalance >= amount, \"ERC20: transfer amount exceeds balance\") */\n      tag_164\n      jumpi\n      mload(0x40)\n      shl(0xe5, 0x461bcd)\n      dup2\n      mstore\n      0x04\n      add\n      tag_97\n      swap1\n      tag_161\n      jump\t// in\n    tag_164:\n      sub(shl(0xa0, 0x01), 0x01)\n        /* \"contracts/ERC20StandardToken.sol\":3319:3334  _balances[from] */\n      swap1\n      swap3\n      and\n        /* \"contracts/ERC20StandardToken.sol\":3319:3328  _balances */\n      0x00\n        /* \"contracts/ERC20StandardToken.sol\":3319:3334  _balances[from] */\n      swap1\n      dup2\n      mstore\n      0x20\n      dup2\n      swap1\n      mstore\n      0x40\n      swap1\n      keccak256\n        /* \"contracts/ERC20StandardToken.sol\":3337:3357  fromBalance - amount */\n      swap2\n      sub\n        /* \"contracts/ERC20StandardToken.sol\":3319:3357  _balances[from] = fromBalance - amount */\n      swap1\n      sstore\n        /* \"contracts/ERC20StandardToken.sol\":3078:3376  function _subSenderBalance(address from, uint256 amount) internal virtual {... */\n      jump\t// out\n        /* \"contracts/ERC20StandardToken.sol\":3384:3592  function _addReceiverBalance(address from, address to, uint256 amount) internal virtual {... */\n    tag_138:\n      sub(shl(0xa0, 0x01), 0x01)\n        /* \"contracts/ERC20StandardToken.sol\":3508:3521  _balances[to] */\n      dup3\n      dup2\n      and\n        /* \"contracts/ERC20StandardToken.sol\":3508:3517  _balances */\n      0x00\n        /* \"contracts/ERC20StandardToken.sol\":3508:3521  _balances[to] */\n      dup2\n      dup2\n      mstore\n      0x20\n      dup2\n      dup2\n      mstore\n      0x40\n      swap2\n      dup3\n      swap1\n      keccak256\n        /* \"contracts/ERC20StandardToken.sol\":3508:3531  _balances[to] += amount */\n      dup1\n      sload\n      dup7\n      add\n      swap1\n      sstore\n        /* \"contracts/ERC20StandardToken.sol\":3558:3584  Transfer(from, to, amount) */\n      swap1\n      mload\n        /* \"#utility.yul\":1342:1367   */\n      dup5\n      dup2\n      mstore\n        /* \"contracts/ERC20StandardToken.sol\":3508:3521  _balances[to] */\n      swap2\n      swap3\n        /* \"contracts/ERC20StandardToken.sol\":3558:3584  Transfer(from, to, amount) */\n      dup7\n      and\n      swap2\n      0x00\n      dup1\n      mload\n      0x20\n      data_ada389e1fc24a8587c776340efb91b36e675792ab631816100d55df0b5cf3cbc\n      dup4\n      codecopy\n      dup2\n      mload\n      swap2\n      mstore\n      swap2\n        /* \"#utility.yul\":1315:1333   */\n      add\n        /* \"contracts/ERC20StandardToken.sol\":3558:3584  Transfer(from, to, amount) */\n      tag_120\n        /* \"#utility.yul\":1196:1373   */\n      jump\n        /* \"#utility.yul\":14:562   */\n    tag_21:\n        /* \"#utility.yul\":126:130   */\n      0x00\n        /* \"#utility.yul\":155:157   */\n      0x20\n        /* \"#utility.yul\":184:186   */\n      dup1\n        /* \"#utility.yul\":173:182   */\n      dup4\n        /* \"#utility.yul\":166:187   */\n      mstore\n        /* \"#utility.yul\":216:222   */\n      dup4\n        /* \"#utility.yul\":210:223   */\n      mload\n        /* \"#utility.yul\":259:265   */\n      dup1\n        /* \"#utility.yul\":254:256   */\n      dup3\n        /* \"#utility.yul\":243:252   */\n      dup6\n        /* \"#utility.yul\":239:257   */\n      add\n        /* \"#utility.yul\":232:266   */\n      mstore\n        /* \"#utility.yul\":284:285   */\n      0x00\n        /* \"#utility.yul\":294:434   */\n    tag_171:\n        /* \"#utility.yul\":308:314   */\n      dup2\n        /* \"#utility.yul\":305:306   */\n      dup2\n        /* \"#utility.yul\":302:315   */\n      lt\n        /* \"#utility.yul\":294:434   */\n      iszero\n      tag_173\n      jumpi\n        /* \"#utility.yul\":403:417   */\n      dup6\n      dup2\n      add\n        /* \"#utility.yul\":399:422   */\n      dup4\n      add\n        /* \"#utility.yul\":393:423   */\n      mload\n        /* \"#utility.yul\":369:386   */\n      dup6\n      dup3\n      add\n        /* \"#utility.yul\":388:390   */\n      0x40\n        /* \"#utility.yul\":365:391   */\n      add\n        /* \"#utility.yul\":358:424   */\n      mstore\n        /* \"#utility.yul\":323:333   */\n      dup3\n      add\n        /* \"#utility.yul\":294:434   */\n      jump(tag_171)\n    tag_173:\n        /* \"#utility.yul\":298:301   */\n      pop\n        /* \"#utility.yul\":483:484   */\n      0x00\n        /* \"#utility.yul\":478:480   */\n      0x40\n        /* \"#utility.yul\":469:475   */\n      dup3\n        /* \"#utility.yul\":458:467   */\n      dup7\n        /* \"#utility.yul\":454:476   */\n      add\n        /* \"#utility.yul\":450:481   */\n      add\n        /* \"#utility.yul\":443:485   */\n      mstore\n        /* \"#utility.yul\":553:555   */\n      0x40\n        /* \"#utility.yul\":546:548   */\n      0x1f\n        /* \"#utility.yul\":542:549   */\n      not\n        /* \"#utility.yul\":537:539   */\n      0x1f\n        /* \"#utility.yul\":529:535   */\n      dup4\n        /* \"#utility.yul\":525:540   */\n      add\n        /* \"#utility.yul\":521:550   */\n      and\n        /* \"#utility.yul\":510:519   */\n      dup6\n        /* \"#utility.yul\":506:551   */\n      add\n        /* \"#utility.yul\":502:556   */\n      add\n        /* \"#utility.yul\":494:556   */\n      swap3\n      pop\n      pop\n      pop\n        /* \"#utility.yul\":14:562   */\n      swap3\n      swap2\n      pop\n      pop\n      jump\t// out\n        /* \"#utility.yul\":567:740   */\n    tag_168:\n        /* \"#utility.yul\":635:655   */\n      dup1\n      calldataload\n      sub(shl(0xa0, 0x01), 0x01)\n        /* \"#utility.yul\":684:715   */\n      dup2\n      and\n        /* \"#utility.yul\":674:716   */\n      dup2\n      eq\n        /* \"#utility.yul\":664:734   */\n      tag_175\n      jumpi\n        /* \"#utility.yul\":730:731   */\n      0x00\n        /* \"#utility.yul\":727:728   */\n      dup1\n        /* \"#utility.yul\":720:732   */\n      revert\n        /* \"#utility.yul\":664:734   */\n    tag_175:\n        /* \"#utility.yul\":567:740   */\n      swap2\n      swap1\n      pop\n      jump\t// out\n        /* \"#utility.yul\":745:999   */\n    tag_24:\n        /* \"#utility.yul\":813:819   */\n      0x00\n        /* \"#utility.yul\":821:827   */\n      dup1\n        /* \"#utility.yul\":874:876   */\n      0x40\n        /* \"#utility.yul\":862:871   */\n      dup4\n        /* \"#utility.yul\":853:860   */\n      dup6\n        /* \"#utility.yul\":849:872   */\n      sub\n        /* \"#utility.yul\":845:877   */\n      slt\n        /* \"#utility.yul\":842:894   */\n      iszero\n      tag_177\n      jumpi\n        /* \"#utility.yul\":890:891   */\n      0x00\n        /* \"#utility.yul\":887:888   */\n      dup1\n        /* \"#utility.yul\":880:892   */\n      revert\n        /* \"#utility.yul\":842:894   */\n    tag_177:\n        /* \"#utility.yul\":913:942   */\n      tag_178\n        /* \"#utility.yul\":932:941   */\n      dup4\n        /* \"#utility.yul\":913:942   */\n      tag_168\n      jump\t// in\n    tag_178:\n        /* \"#utility.yul\":903:942   */\n      swap5\n        /* \"#utility.yul\":989:991   */\n      0x20\n        /* \"#utility.yul\":974:992   */\n      swap4\n      swap1\n      swap4\n      add\n        /* \"#utility.yul\":961:993   */\n      calldataload\n      swap4\n      pop\n      pop\n      pop\n        /* \"#utility.yul\":745:999   */\n      jump\t// out\n        /* \"#utility.yul\":1378:1706   */\n    tag_34:\n        /* \"#utility.yul\":1455:1461   */\n      0x00\n        /* \"#utility.yul\":1463:1469   */\n      dup1\n        /* \"#utility.yul\":1471:1477   */\n      0x00\n        /* \"#utility.yul\":1524:1526   */\n      0x60\n        /* \"#utility.yul\":1512:1521   */\n      dup5\n        /* \"#utility.yul\":1503:1510   */\n      dup7\n        /* \"#utility.yul\":1499:1522   */\n      sub\n        /* \"#utility.yul\":1495:1527   */\n      slt\n        /* \"#utility.yul\":1492:1544   */\n      iszero\n      tag_182\n      jumpi\n        /* \"#utility.yul\":1540:1541   */\n      0x00\n        /* \"#utility.yul\":1537:1538   */\n      dup1\n        /* \"#utility.yul\":1530:1542   */\n      revert\n        /* \"#utility.yul\":1492:1544   */\n    tag_182:\n        /* \"#utility.yul\":1563:1592   */\n      tag_183\n        /* \"#utility.yul\":1582:1591   */\n      dup5\n        /* \"#utility.yul\":1563:1592   */\n      tag_168\n      jump\t// in\n    tag_183:\n        /* \"#utility.yul\":1553:1592   */\n      swap3\n      pop\n        /* \"#utility.yul\":1611:1649   */\n      tag_184\n        /* \"#utility.yul\":1645:1647   */\n      0x20\n        /* \"#utility.yul\":1634:1643   */\n      dup6\n        /* \"#utility.yul\":1630:1648   */\n      add\n        /* \"#utility.yul\":1611:1649   */\n      tag_168\n      jump\t// in\n    tag_184:\n        /* \"#utility.yul\":1601:1649   */\n      swap2\n      pop\n        /* \"#utility.yul\":1696:1698   */\n      0x40\n        /* \"#utility.yul\":1685:1694   */\n      dup5\n        /* \"#utility.yul\":1681:1699   */\n      add\n        /* \"#utility.yul\":1668:1700   */\n      calldataload\n        /* \"#utility.yul\":1658:1700   */\n      swap1\n      pop\n        /* \"#utility.yul\":1378:1706   */\n      swap3\n      pop\n      swap3\n      pop\n      swap3\n      jump\t// out\n        /* \"#utility.yul\":1900:2086   */\n    tag_43:\n        /* \"#utility.yul\":1959:1965   */\n      0x00\n        /* \"#utility.yul\":2012:2014   */\n      0x20\n        /* \"#utility.yul\":2000:2009   */\n      dup3\n        /* \"#utility.yul\":1991:1998   */\n      dup5\n        /* \"#utility.yul\":1987:2010   */\n      sub\n        /* \"#utility.yul\":1983:2015   */\n      slt\n        /* \"#utility.yul\":1980:2032   */\n      iszero\n      tag_187\n      jumpi\n        /* \"#utility.yul\":2028:2029   */\n      0x00\n        /* \"#utility.yul\":2025:2026   */\n      dup1\n        /* \"#utility.yul\":2018:2030   */\n      revert\n        /* \"#utility.yul\":1980:2032   */\n    tag_187:\n        /* \"#utility.yul\":2051:2080   */\n      tag_188\n        /* \"#utility.yul\":2070:2079   */\n      dup3\n        /* \"#utility.yul\":2051:2080   */\n      tag_168\n      jump\t// in\n    tag_188:\n        /* \"#utility.yul\":2041:2080   */\n      swap4\n        /* \"#utility.yul\":1900:2086   */\n      swap3\n      pop\n      pop\n      pop\n      jump\t// out\n        /* \"#utility.yul\":2515:2775   */\n    tag_69:\n        /* \"#utility.yul\":2583:2589   */\n      0x00\n        /* \"#utility.yul\":2591:2597   */\n      dup1\n        /* \"#utility.yul\":2644:2646   */\n      0x40\n        /* \"#utility.yul\":2632:2641   */\n      dup4\n        /* \"#utility.yul\":2623:2630   */\n      dup6\n        /* \"#utility.yul\":2619:2642   */\n      sub\n        /* \"#utility.yul\":2615:2647   */\n      slt\n        /* \"#utility.yul\":2612:2664   */\n      iszero\n      tag_192\n      jumpi\n        /* \"#utility.yul\":2660:2661   */\n      0x00\n        /* \"#utility.yul\":2657:2658   */\n      dup1\n        /* \"#utility.yul\":2650:2662   */\n      revert\n        /* \"#utility.yul\":2612:2664   */\n    tag_192:\n        /* \"#utility.yul\":2683:2712   */\n      tag_193\n        /* \"#utility.yul\":2702:2711   */\n      dup4\n        /* \"#utility.yul\":2683:2712   */\n      tag_168\n      jump\t// in\n    tag_193:\n        /* \"#utility.yul\":2673:2712   */\n      swap2\n      pop\n        /* \"#utility.yul\":2731:2769   */\n      tag_194\n        /* \"#utility.yul\":2765:2767   */\n      0x20\n        /* \"#utility.yul\":2754:2763   */\n      dup5\n        /* \"#utility.yul\":2750:2768   */\n      add\n        /* \"#utility.yul\":2731:2769   */\n      tag_168\n      jump\t// in\n    tag_194:\n        /* \"#utility.yul\":2721:2769   */\n      swap1\n      pop\n        /* \"#utility.yul\":2515:2775   */\n      swap3\n      pop\n      swap3\n      swap1\n      pop\n      jump\t// out\n        /* \"#utility.yul\":2780:3160   */\n    tag_80:\n        /* \"#utility.yul\":2859:2860   */\n      0x01\n        /* \"#utility.yul\":2855:2867   */\n      dup2\n      dup2\n      shr\n      swap1\n        /* \"#utility.yul\":2902:2914   */\n      dup3\n      and\n      dup1\n        /* \"#utility.yul\":2923:2984   */\n      tag_196\n      jumpi\n        /* \"#utility.yul\":2977:2981   */\n      0x7f\n        /* \"#utility.yul\":2969:2975   */\n      dup3\n        /* \"#utility.yul\":2965:2982   */\n      and\n        /* \"#utility.yul\":2955:2982   */\n      swap2\n      pop\n        /* \"#utility.yul\":2923:2984   */\n    tag_196:\n        /* \"#utility.yul\":3030:3032   */\n      0x20\n        /* \"#utility.yul\":3022:3028   */\n      dup3\n        /* \"#utility.yul\":3019:3033   */\n      lt\n        /* \"#utility.yul\":2999:3017   */\n      dup2\n        /* \"#utility.yul\":2996:3034   */\n      sub\n        /* \"#utility.yul\":2993:3154   */\n      tag_197\n      jumpi\n        /* \"#utility.yul\":3076:3086   */\n      0x4e487b71\n        /* \"#utility.yul\":3071:3074   */\n      0xe0\n        /* \"#utility.yul\":3067:3087   */\n      shl\n        /* \"#utility.yul\":3064:3065   */\n      0x00\n        /* \"#utility.yul\":3057:3088   */\n      mstore\n        /* \"#utility.yul\":3111:3115   */\n      0x22\n        /* \"#utility.yul\":3108:3109   */\n      0x04\n        /* \"#utility.yul\":3101:3116   */\n      mstore\n        /* \"#utility.yul\":3139:3143   */\n      0x24\n        /* \"#utility.yul\":3136:3137   */\n      0x00\n        /* \"#utility.yul\":3129:3144   */\n      revert\n        /* \"#utility.yul\":2993:3154   */\n    tag_197:\n      pop\n        /* \"#utility.yul\":2780:3160   */\n      swap2\n      swap1\n      pop\n      jump\t// out\n        /* \"#utility.yul\":3165:3521   */\n    tag_98:\n        /* \"#utility.yul\":3367:3369   */\n      0x20\n        /* \"#utility.yul\":3349:3370   */\n      dup1\n      dup3\n      mstore\n        /* \"#utility.yul\":3386:3404   */\n      dup2\n      dup2\n      add\n        /* \"#utility.yul\":3379:3409   */\n      mstore\n        /* \"#utility.yul\":3445:3479   */\n      0x4f776e61626c653a2063616c6c6572206973206e6f7420746865206f776e6572\n        /* \"#utility.yul\":3440:3442   */\n      0x40\n        /* \"#utility.yul\":3425:3443   */\n      dup3\n      add\n        /* \"#utility.yul\":3418:3480   */\n      mstore\n        /* \"#utility.yul\":3512:3514   */\n      0x60\n        /* \"#utility.yul\":3497:3515   */\n      add\n      swap1\n        /* \"#utility.yul\":3165:3521   */\n      jump\t// out\n        /* \"#utility.yul\":4016:4200   */\n    tag_149:\n        /* \"#utility.yul\":4086:4092   */\n      0x00\n        /* \"#utility.yul\":4139:4141   */\n      0x20\n        /* \"#utility.yul\":4127:4136   */\n      dup3\n        /* \"#utility.yul\":4118:4125   */\n      dup5\n        /* \"#utility.yul\":4114:4137   */\n      sub\n        /* \"#utility.yul\":4110:4142   */\n      slt\n        /* \"#utility.yul\":4107:4159   */\n      iszero\n      tag_202\n      jumpi\n        /* \"#utility.yul\":4155:4156   */\n      0x00\n        /* \"#utility.yul\":4152:4153   */\n      dup1\n        /* \"#utility.yul\":4145:4157   */\n      revert\n        /* \"#utility.yul\":4107:4159   */\n    tag_202:\n      pop\n        /* \"#utility.yul\":4178:4194   */\n      mload\n      swap2\n        /* \"#utility.yul\":4016:4200   */\n      swap1\n      pop\n      jump\t// out\n        /* \"#utility.yul\":4205:4607   */\n    tag_161:\n        /* \"#utility.yul\":4407:4409   */\n      0x20\n        /* \"#utility.yul\":4389:4410   */\n      dup1\n      dup3\n      mstore\n        /* \"#utility.yul\":4446:4448   */\n      0x26\n        /* \"#utility.yul\":4426:4444   */\n      swap1\n      dup3\n      add\n        /* \"#utility.yul\":4419:4449   */\n      mstore\n        /* \"#utility.yul\":4485:4519   */\n      0x45524332303a207472616e7366657220616d6f756e7420657863656564732062\n        /* \"#utility.yul\":4480:4482   */\n      0x40\n        /* \"#utility.yul\":4465:4483   */\n      dup3\n      add\n        /* \"#utility.yul\":4458:4520   */\n      mstore\n      shl(0xd0, 0x616c616e6365)\n        /* \"#utility.yul\":4551:4553   */\n      0x60\n        /* \"#utility.yul\":4536:4554   */\n      dup3\n      add\n        /* \"#utility.yul\":4529:4565   */\n      mstore\n        /* \"#utility.yul\":4597:4600   */\n      0x80\n        /* \"#utility.yul\":4582:4601   */\n      add\n      swap1\n        /* \"#utility.yul\":4205:4607   */\n      jump\t// out\n    stop\n    data_ada389e1fc24a8587c776340efb91b36e675792ab631816100d55df0b5cf3cbc ddf252ad1be2c89b69c2b068fc378daa952ba7f163c4a11628f55a4df523b3ef\n\n    auxdata: 0xa2646970667358221220b864baa1e8fc43a14dcc2481fc70a8a9bec5af89528b513a8ad669a8421f3bbd64736f6c63430008140033\n}\n",
				"bytecode": {
					"linkReferences": {},
					"object": "60a060405234801562000010575f80fd5b506040516200102938038062001029833981016040819052620000339162000401565b60408051808201825260038082526220a1a160e91b60208084018290528451808601909552918452908301529060126c0c9f2c9cd04674edea4000000060026200007e858262000512565b5060036200008d848262000512565b5060ff8216608052620000a133826200017f565b5050600580546001600160a01b0319163317905550506040805163c45a015560e01b815290517310ed43c718714eb63d5aa57b78b54704e256024e9173bb4cdb9cbd36b01bd1cbaebf2de08d9173bc095c916200015291849163c45a0155916004808201926020929091908290030181865afa15801562000124573d5f803e3d5ffd5b505050506040513d601f19601f820116820180604052508101906200014a9190620005da565b308362000243565b600780546001600160a01b0319166001600160a01b0392909216919091179055506200062f945050505050565b6001600160a01b038216620001da5760405162461bcd60e51b815260206004820152601f60248201527f45524332303a206d696e7420746f20746865207a65726f206164647265737300604482015260640160405180910390fd5b8060045f828254620001ed919062000609565b90915550506001600160a01b0382165f81815260208181526040808320805486019055518481527fddf252ad1be2c89b69c2b068fc378daa952ba7f163c4a11628f55a4df523b3ef910160405180910390a35050565b5f805f836001600160a01b0316856001600160a01b031610620002685783856200026b565b84845b6040516001600160601b0319606084811b8216602084015283901b1660348201529193509150869060480160405160208183030381529060405280519060200120604051602001620003219291907fff00000000000000000000000000000000000000000000000000000000000000815260609290921b6001600160601b031916600183015260158201527efb7f630766e6a796048ea87d01acd3068e8ff67d078148a3fa3f4a84f69bd5603582015260550190565b60408051601f1981840301815291905280516020909101209695505050505050565b634e487b7160e01b5f52604160045260245ffd5b5f82601f83011262000367575f80fd5b81516001600160401b038082111562000384576200038462000343565b604051601f8301601f19908116603f01168101908282118183101715620003af57620003af62000343565b81604052838152602092508683858801011115620003cb575f80fd5b5f91505b83821015620003ee5785820183015181830184015290820190620003cf565b5f93810190920192909252949350505050565b5f805f806080858703121562000415575f80fd5b84516001600160401b03808211156200042c575f80fd5b6200043a8883890162000357565b9550602087015191508082111562000450575f80fd5b506200045f8782880162000357565b935050604085015160ff8116811462000476575f80fd5b6060959095015193969295505050565b600181811c908216806200049b57607f821691505b602082108103620004ba57634e487b7160e01b5f52602260045260245ffd5b50919050565b601f8211156200050d575f81815260208120601f850160051c81016020861015620004e85750805b601f850160051c820191505b818110156200050957828155600101620004f4565b5050505b505050565b81516001600160401b038111156200052e576200052e62000343565b62000546816200053f845462000486565b84620004c0565b602080601f8311600181146200057c575f8415620005645750858301515b5f19600386901b1c1916600185901b17855562000509565b5f85815260208120601f198616915b82811015620005ac578886015182559484019460019091019084016200058b565b5085821015620005ca57878501515f19600388901b60f8161c191681555b5050505050600190811b01905550565b5f60208284031215620005eb575f80fd5b81516001600160a01b038116811462000602575f80fd5b9392505050565b808201808211156200062957634e487b7160e01b5f52601160045260245ffd5b92915050565b6080516109e1620006485f395f61013401526109e15ff3fe608060405234801561000f575f80fd5b50600436106100c3575f3560e01c806306fdde03146100c7578063095ea7b3146100e557806318160ddd1461010857806323b872dd1461011a578063313ce5671461012d57806346bb92711461015e57806370a08231146101735780638da5cb5b1461018657806395d89b41146101b1578063a64177fb146101b9578063a9059cbb146101cc578063c66780b4146101df578063dd62ed3e146101f2578063ed9a165d1461022a578063f2fde38b1461023d575b5f80fd5b6100cf610250565b6040516100dc91906107a9565b60405180910390f35b6100f86100f336600461080f565b6102e0565b60405190151581526020016100dc565b6004545b6040519081526020016100dc565b6100f8610128366004610837565b6102f5565b60405160ff7f00000000000000000000000000000000000000000000000000000000000000001681526020016100dc565b61017161016c366004610870565b610316565b005b61010c610181366004610870565b61036b565b600554610199906001600160a01b031681565b6040516001600160a01b0390911681526020016100dc565b6100cf610385565b6101716101c7366004610870565b610394565b6100f86101da36600461080f565b6103e8565b600654610199906001600160a01b031681565b61010c610200366004610890565b6001600160a01b039182165f90815260016020908152604080832093909416825291909152205490565b600754610199906001600160a01b031681565b61017161024b366004610870565b6103f4565b60606003805461025f906108c1565b80601f016020809104026020016040519081016040528092919081815260200182805461028b906108c1565b80156102d65780601f106102ad576101008083540402835291602001916102d6565b820191905f5260205f20905b8154815290600101906020018083116102b957829003601f168201915b5050505050905090565b5f6102ec338484610440565b50600192915050565b5f6103018433846104a1565b61030c848484610531565b5060019392505050565b6005546001600160a01b031633146103495760405162461bcd60e51b8152600401610340906108f9565b60405180910390fd5b600780546001600160a01b0319166001600160a01b0392909216919091179055565b6001600160a01b03165f9081526020819052604090205490565b60606002805461025f906108c1565b6005546001600160a01b031633146103be5760405162461bcd60e51b8152600401610340906108f9565b600680546001600160a01b0319166001600160a01b0383161790556103e530825f19610440565b50565b5f6102ec338484610531565b6005546001600160a01b0316331461041e5760405162461bcd60e51b8152600401610340906108f9565b600580546001600160a01b0319166001600160a01b0392909216919091179055565b6001600160a01b038381165f8181526001602090815260408083209487168084529482529182902085905590518481527f8c5be1e5ebec7d5bd14f71427d1e84f3dd0314c0f7b2291e5b200ac8c7c3b92591015b60405180910390a3505050565b6001600160a01b038084165f908152600160209081526040808320938616835292905220545f19811461052b578181101561051e5760405162461bcd60e51b815260206004820152601d60248201527f45524332303a20696e73756666696369656e7420616c6c6f77616e63650000006044820152606401610340565b61052b8484848403610440565b50505050565b6007546001600160a01b0390811690841681148015906105635750806001600160a01b0316836001600160a01b031614155b156105735761052b848484610689565b61057d8483610714565b606482046105a08573f51446f195d697ed51235e7b382fc170503e19768361076a565b6105ad8561dead8361076a565b6006546001600160a01b03166105d2576105cd858583600202860361076a565b610682565b6105dd85308361076a565b6105ed858583600302860361076a565b6006546001600160a01b0316633243c7916106073061036b565b6040518263ffffffff1660e01b815260040161062591815260200190565b6020604051808303815f875af192505050801561065f575060408051601f3d908101601f1916820190925261065c9181019061092e565b60015b61066e576105cd308583610689565b805f0361068057610680308684610689565b505b5050505050565b6001600160a01b0383165f90815260208190526040902054818110156106c15760405162461bcd60e51b815260040161034090610945565b6001600160a01b038481165f81815260208181526040808320878703905593871680835291849020805487019055925185815290925f8051602061098c833981519152910160405180910390a350505050565b6001600160a01b0382165f908152602081905260409020548181101561074c5760405162461bcd60e51b815260040161034090610945565b6001600160a01b039092165f90815260208190526040902091039055565b6001600160a01b038281165f8181526020818152604091829020805486019055905184815291928616915f8051602061098c8339815191529101610494565b5f6020808352835180828501525f5b818110156107d4578581018301518582016040015282016107b8565b505f604082860101526040601f19601f8301168501019250505092915050565b80356001600160a01b038116811461080a575f80fd5b919050565b5f8060408385031215610820575f80fd5b610829836107f4565b946020939093013593505050565b5f805f60608486031215610849575f80fd5b610852846107f4565b9250610860602085016107f4565b9150604084013590509250925092565b5f60208284031215610880575f80fd5b610889826107f4565b9392505050565b5f80604083850312156108a1575f80fd5b6108aa836107f4565b91506108b8602084016107f4565b90509250929050565b600181811c908216806108d557607f821691505b6020821081036108f357634e487b7160e01b5f52602260045260245ffd5b50919050565b6020808252818101527f4f776e61626c653a2063616c6c6572206973206e6f7420746865206f776e6572604082015260600190565b5f6020828403121561093e575f80fd5b5051919050565b60208082526026908201527f45524332303a207472616e7366657220616d6f756e7420657863656564732062604082015265616c616e636560d01b60608201526080019056feddf252ad1be2c89b69c2b068fc378daa952ba7f163c4a11628f55a4df523b3efa2646970667358221220b864baa1e8fc43a14dcc2481fc70a8a9bec5af89528b513a8ad669a8421f3bbd64736f6c63430008140033",
					"opcodes": "PUSH1 0xA0 PUSH1 0x40 MSTORE CALLVALUE DUP1 ISZERO PUSH3 0x10 JUMPI PUSH0 DUP1 REVERT JUMPDEST POP PUSH1 0x40 MLOAD PUSH3 0x1029 CODESIZE SUB DUP1 PUSH3 0x1029 DUP4 CODECOPY DUP2 ADD PUSH1 0x40 DUP2 SWAP1 MSTORE PUSH3 0x33 SWAP2 PUSH3 0x401 JUMP JUMPDEST PUSH1 0x40 DUP1 MLOAD DUP1 DUP3 ADD DUP3 MSTORE PUSH1 0x3 DUP1 DUP3 MSTORE PUSH3 0x20A1A1 PUSH1 0xE9 SHL PUSH1 0x20 DUP1 DUP5 ADD DUP3 SWAP1 MSTORE DUP5 MLOAD DUP1 DUP7 ADD SWAP1 SWAP6 MSTORE SWAP2 DUP5 MSTORE SWAP1 DUP4 ADD MSTORE SWAP1 PUSH1 0x12 PUSH13 0xC9F2C9CD04674EDEA40000000 PUSH1 0x2 PUSH3 0x7E DUP6 DUP3 PUSH3 0x512 JUMP JUMPDEST POP PUSH1 0x3 PUSH3 0x8D DUP5 DUP3 PUSH3 0x512 JUMP JUMPDEST POP PUSH1 0xFF DUP3 AND PUSH1 0x80 MSTORE PUSH3 0xA1 CALLER DUP3 PUSH3 0x17F JUMP JUMPDEST POP POP PUSH1 0x5 DUP1 SLOAD PUSH1 0x1 PUSH1 0x1 PUSH1 0xA0 SHL SUB NOT AND CALLER OR SWAP1 SSTORE POP POP PUSH1 0x40 DUP1 MLOAD PUSH4 0xC45A0155 PUSH1 0xE0 SHL DUP2 MSTORE SWAP1 MLOAD PUSH20 0x10ED43C718714EB63D5AA57B78B54704E256024E SWAP2 PUSH20 0xBB4CDB9CBD36B01BD1CBAEBF2DE08D9173BC095C SWAP2 PUSH3 0x152 SWAP2 DUP5 SWAP2 PUSH4 0xC45A0155 SWAP2 PUSH1 0x4 DUP1 DUP3 ADD SWAP3 PUSH1 0x20 SWAP3 SWAP1 SWAP2 SWAP1 DUP3 SWAP1 SUB ADD DUP2 DUP7 GAS STATICCALL ISZERO DUP1 ISZERO PUSH3 0x124 JUMPI RETURNDATASIZE PUSH0 DUP1 RETURNDATACOPY RETURNDATASIZE PUSH0 REVERT JUMPDEST POP POP POP POP PUSH1 0x40 MLOAD RETURNDATASIZE PUSH1 0x1F NOT PUSH1 0x1F DUP3 ADD AND DUP3 ADD DUP1 PUSH1 0x40 MSTORE POP DUP2 ADD SWAP1 PUSH3 0x14A SWAP2 SWAP1 PUSH3 0x5DA JUMP JUMPDEST ADDRESS DUP4 PUSH3 0x243 JUMP JUMPDEST PUSH1 0x7 DUP1 SLOAD PUSH1 0x1 PUSH1 0x1 PUSH1 0xA0 SHL SUB NOT AND PUSH1 0x1 PUSH1 0x1 PUSH1 0xA0 SHL SUB SWAP3 SWAP1 SWAP3 AND SWAP2 SWAP1 SWAP2 OR SWAP1 SSTORE POP PUSH3 0x62F SWAP5 POP POP POP POP POP JUMP JUMPDEST PUSH1 0x1 PUSH1 0x1 PUSH1 0xA0 SHL SUB DUP3 AND PUSH3 0x1DA JUMPI PUSH1 0x40 MLOAD PUSH3 0x461BCD PUSH1 0xE5 SHL DUP2 MSTORE PUSH1 0x20 PUSH1 0x4 DUP3 ADD MSTORE PUSH1 0x1F PUSH1 0x24 DUP3 ADD MSTORE PUSH32 0x45524332303A206D696E7420746F20746865207A65726F206164647265737300 PUSH1 0x44 DUP3 ADD MSTORE PUSH1 0x64 ADD PUSH1 0x40 MLOAD DUP1 SWAP2 SUB SWAP1 REVERT JUMPDEST DUP1 PUSH1 0x4 PUSH0 DUP3 DUP3 SLOAD PUSH3 0x1ED SWAP2 SWAP1 PUSH3 0x609 JUMP JUMPDEST SWAP1 SWAP2 SSTORE POP POP PUSH1 0x1 PUSH1 0x1 PUSH1 0xA0 SHL SUB DUP3 AND PUSH0 DUP2 DUP2 MSTORE PUSH1 0x20 DUP2 DUP2 MSTORE PUSH1 0x40 DUP1 DUP4 KECCAK256 DUP1 SLOAD DUP7 ADD SWAP1 SSTORE MLOAD DUP5 DUP2 MSTORE PUSH32 0xDDF252AD1BE2C89B69C2B068FC378DAA952BA7F163C4A11628F55A4DF523B3EF SWAP2 ADD PUSH1 0x40 MLOAD DUP1 SWAP2 SUB SWAP1 LOG3 POP POP JUMP JUMPDEST PUSH0 DUP1 PUSH0 DUP4 PUSH1 0x1 PUSH1 0x1 PUSH1 0xA0 SHL SUB AND DUP6 PUSH1 0x1 PUSH1 0x1 PUSH1 0xA0 SHL SUB AND LT PUSH3 0x268 JUMPI DUP4 DUP6 PUSH3 0x26B JUMP JUMPDEST DUP5 DUP5 JUMPDEST PUSH1 0x40 MLOAD PUSH1 0x1 PUSH1 0x1 PUSH1 0x60 SHL SUB NOT PUSH1 0x60 DUP5 DUP2 SHL DUP3 AND PUSH1 0x20 DUP5 ADD MSTORE DUP4 SWAP1 SHL AND PUSH1 0x34 DUP3 ADD MSTORE SWAP2 SWAP4 POP SWAP2 POP DUP7 SWAP1 PUSH1 0x48 ADD PUSH1 0x40 MLOAD PUSH1 0x20 DUP2 DUP4 SUB SUB DUP2 MSTORE SWAP1 PUSH1 0x40 MSTORE DUP1 MLOAD SWAP1 PUSH1 0x20 ADD KECCAK256 PUSH1 0x40 MLOAD PUSH1 0x20 ADD PUSH3 0x321 SWAP3 SWAP2 SWAP1 PUSH32 0xFF00000000000000000000000000000000000000000000000000000000000000 DUP2 MSTORE PUSH1 0x60 SWAP3 SWAP1 SWAP3 SHL PUSH1 0x1 PUSH1 0x1 PUSH1 0x60 SHL SUB NOT AND PUSH1 0x1 DUP4 ADD MSTORE PUSH1 0x15 DUP3 ADD MSTORE PUSH31 0xFB7F630766E6A796048EA87D01ACD3068E8FF67D078148A3FA3F4A84F69BD5 PUSH1 0x35 DUP3 ADD MSTORE PUSH1 0x55 ADD SWAP1 JUMP JUMPDEST PUSH1 0x40 DUP1 MLOAD PUSH1 0x1F NOT DUP2 DUP5 SUB ADD DUP2 MSTORE SWAP2 SWAP1 MSTORE DUP1 MLOAD PUSH1 0x20 SWAP1 SWAP2 ADD KECCAK256 SWAP7 SWAP6 POP POP POP POP POP POP JUMP JUMPDEST PUSH4 0x4E487B71 PUSH1 0xE0 SHL PUSH0 MSTORE PUSH1 0x41 PUSH1 0x4 MSTORE PUSH1 0x24 PUSH0 REVERT JUMPDEST PUSH0 DUP3 PUSH1 0x1F DUP4 ADD SLT PUSH3 0x367 JUMPI PUSH0 DUP1 REVERT JUMPDEST DUP2 MLOAD PUSH1 0x1 PUSH1 0x1 PUSH1 0x40 SHL SUB DUP1 DUP3 GT ISZERO PUSH3 0x384 JUMPI PUSH3 0x384 PUSH3 0x343 JUMP JUMPDEST PUSH1 0x40 MLOAD PUSH1 0x1F DUP4 ADD PUSH1 0x1F NOT SWAP1 DUP2 AND PUSH1 0x3F ADD AND DUP2 ADD SWAP1 DUP3 DUP3 GT DUP2 DUP4 LT OR ISZERO PUSH3 0x3AF JUMPI PUSH3 0x3AF PUSH3 0x343 JUMP JUMPDEST DUP2 PUSH1 0x40 MSTORE DUP4 DUP2 MSTORE PUSH1 0x20 SWAP3 POP DUP7 DUP4 DUP6 DUP9 ADD ADD GT ISZERO PUSH3 0x3CB JUMPI PUSH0 DUP1 REVERT JUMPDEST PUSH0 SWAP2 POP JUMPDEST DUP4 DUP3 LT ISZERO PUSH3 0x3EE JUMPI DUP6 DUP3 ADD DUP4 ADD MLOAD DUP2 DUP4 ADD DUP5 ADD MSTORE SWAP1 DUP3 ADD SWAP1 PUSH3 0x3CF JUMP JUMPDEST PUSH0 SWAP4 DUP2 ADD SWAP1 SWAP3 ADD SWAP3 SWAP1 SWAP3 MSTORE SWAP5 SWAP4 POP POP POP POP JUMP JUMPDEST PUSH0 DUP1 PUSH0 DUP1 PUSH1 0x80 DUP6 DUP8 SUB SLT ISZERO PUSH3 0x415 JUMPI PUSH0 DUP1 REVERT JUMPDEST DUP5 MLOAD PUSH1 0x1 PUSH1 0x1 PUSH1 0x40 SHL SUB DUP1 DUP3 GT ISZERO PUSH3 0x42C JUMPI PUSH0 DUP1 REVERT JUMPDEST PUSH3 0x43A DUP9 DUP4 DUP10 ADD PUSH3 0x357 JUMP JUMPDEST SWAP6 POP PUSH1 0x20 DUP8 ADD MLOAD SWAP2 POP DUP1 DUP3 GT ISZERO PUSH3 0x450 JUMPI PUSH0 DUP1 REVERT JUMPDEST POP PUSH3 0x45F DUP8 DUP3 DUP9 ADD PUSH3 0x357 JUMP JUMPDEST SWAP4 POP POP PUSH1 0x40 DUP6 ADD MLOAD PUSH1 0xFF DUP2 AND DUP2 EQ PUSH3 0x476 JUMPI PUSH0 DUP1 REVERT JUMPDEST PUSH1 0x60 SWAP6 SWAP1 SWAP6 ADD MLOAD SWAP4 SWAP7 SWAP3 SWAP6 POP POP POP JUMP JUMPDEST PUSH1 0x1 DUP2 DUP2 SHR SWAP1 DUP3 AND DUP1 PUSH3 0x49B JUMPI PUSH1 0x7F DUP3 AND SWAP2 POP JUMPDEST PUSH1 0x20 DUP3 LT DUP2 SUB PUSH3 0x4BA JUMPI PUSH4 0x4E487B71 PUSH1 0xE0 SHL PUSH0 MSTORE PUSH1 0x22 PUSH1 0x4 MSTORE PUSH1 0x24 PUSH0 REVERT JUMPDEST POP SWAP2 SWAP1 POP JUMP JUMPDEST PUSH1 0x1F DUP3 GT ISZERO PUSH3 0x50D JUMPI PUSH0 DUP2 DUP2 MSTORE PUSH1 0x20 DUP2 KECCAK256 PUSH1 0x1F DUP6 ADD PUSH1 0x5 SHR DUP2 ADD PUSH1 0x20 DUP7 LT ISZERO PUSH3 0x4E8 JUMPI POP DUP1 JUMPDEST PUSH1 0x1F DUP6 ADD PUSH1 0x5 SHR DUP3 ADD SWAP2 POP JUMPDEST DUP2 DUP2 LT ISZERO PUSH3 0x509 JUMPI DUP3 DUP2 SSTORE PUSH1 0x1 ADD PUSH3 0x4F4 JUMP JUMPDEST POP POP POP JUMPDEST POP POP POP JUMP JUMPDEST DUP2 MLOAD PUSH1 0x1 PUSH1 0x1 PUSH1 0x40 SHL SUB DUP2 GT ISZERO PUSH3 0x52E JUMPI PUSH3 0x52E PUSH3 0x343 JUMP JUMPDEST PUSH3 0x546 DUP2 PUSH3 0x53F DUP5 SLOAD PUSH3 0x486 JUMP JUMPDEST DUP5 PUSH3 0x4C0 JUMP JUMPDEST PUSH1 0x20 DUP1 PUSH1 0x1F DUP4 GT PUSH1 0x1 DUP2 EQ PUSH3 0x57C JUMPI PUSH0 DUP5 ISZERO PUSH3 0x564 JUMPI POP DUP6 DUP4 ADD MLOAD JUMPDEST PUSH0 NOT PUSH1 0x3 DUP7 SWAP1 SHL SHR NOT AND PUSH1 0x1 DUP6 SWAP1 SHL OR DUP6 SSTORE PUSH3 0x509 JUMP JUMPDEST PUSH0 DUP6 DUP2 MSTORE PUSH1 0x20 DUP2 KECCAK256 PUSH1 0x1F NOT DUP7 AND SWAP2 JUMPDEST DUP3 DUP2 LT ISZERO PUSH3 0x5AC JUMPI DUP9 DUP7 ADD MLOAD DUP3 SSTORE SWAP5 DUP5 ADD SWAP5 PUSH1 0x1 SWAP1 SWAP2 ADD SWAP1 DUP5 ADD PUSH3 0x58B JUMP JUMPDEST POP DUP6 DUP3 LT ISZERO PUSH3 0x5CA JUMPI DUP8 DUP6 ADD MLOAD PUSH0 NOT PUSH1 0x3 DUP9 SWAP1 SHL PUSH1 0xF8 AND SHR NOT AND DUP2 SSTORE JUMPDEST POP POP POP POP POP PUSH1 0x1 SWAP1 DUP2 SHL ADD SWAP1 SSTORE POP JUMP JUMPDEST PUSH0 PUSH1 0x20 DUP3 DUP5 SUB SLT ISZERO PUSH3 0x5EB JUMPI PUSH0 DUP1 REVERT JUMPDEST DUP2 MLOAD PUSH1 0x1 PUSH1 0x1 PUSH1 0xA0 SHL SUB DUP2 AND DUP2 EQ PUSH3 0x602 JUMPI PUSH0 DUP1 REVERT JUMPDEST SWAP4 SWAP3 POP POP POP JUMP JUMPDEST DUP1 DUP3 ADD DUP1 DUP3 GT ISZERO PUSH3 0x629 JUMPI PUSH4 0x4E487B71 PUSH1 0xE0 SHL PUSH0 MSTORE PUSH1 0x11 PUSH1 0x4 MSTORE PUSH1 0x24 PUSH0 REVERT JUMPDEST SWAP3 SWAP2 POP POP JUMP JUMPDEST PUSH1 0x80 MLOAD PUSH2 0x9E1 PUSH3 0x648 PUSH0 CODECOPY PUSH0 PUSH2 0x134 ADD MSTORE PUSH2 0x9E1 PUSH0 RETURN INVALID PUSH1 0x80 PUSH1 0x40 MSTORE CALLVALUE DUP1 ISZERO PUSH2 0xF JUMPI PUSH0 DUP1 REVERT JUMPDEST POP PUSH1 0x4 CALLDATASIZE LT PUSH2 0xC3 JUMPI PUSH0 CALLDATALOAD PUSH1 0xE0 SHR DUP1 PUSH4 0x6FDDE03 EQ PUSH2 0xC7 JUMPI DUP1 PUSH4 0x95EA7B3 EQ PUSH2 0xE5 JUMPI DUP1 PUSH4 0x18160DDD EQ PUSH2 0x108 JUMPI DUP1 PUSH4 0x23B872DD EQ PUSH2 0x11A JUMPI DUP1 PUSH4 0x313CE567 EQ PUSH2 0x12D JUMPI DUP1 PUSH4 0x46BB9271 EQ PUSH2 0x15E JUMPI DUP1 PUSH4 0x70A08231 EQ PUSH2 0x173 JUMPI DUP1 PUSH4 0x8DA5CB5B EQ PUSH2 0x186 JUMPI DUP1 PUSH4 0x95D89B41 EQ PUSH2 0x1B1 JUMPI DUP1 PUSH4 0xA64177FB EQ PUSH2 0x1B9 JUMPI DUP1 PUSH4 0xA9059CBB EQ PUSH2 0x1CC JUMPI DUP1 PUSH4 0xC66780B4 EQ PUSH2 0x1DF JUMPI DUP1 PUSH4 0xDD62ED3E EQ PUSH2 0x1F2 JUMPI DUP1 PUSH4 0xED9A165D EQ PUSH2 0x22A JUMPI DUP1 PUSH4 0xF2FDE38B EQ PUSH2 0x23D JUMPI JUMPDEST PUSH0 DUP1 REVERT JUMPDEST PUSH2 0xCF PUSH2 0x250 JUMP JUMPDEST PUSH1 0x40 MLOAD PUSH2 0xDC SWAP2 SWAP1 PUSH2 0x7A9 JUMP JUMPDEST PUSH1 0x40 MLOAD DUP1 SWAP2 SUB SWAP1 RETURN JUMPDEST PUSH2 0xF8 PUSH2 0xF3 CALLDATASIZE PUSH1 0x4 PUSH2 0x80F JUMP JUMPDEST PUSH2 0x2E0 JUMP JUMPDEST PUSH1 0x40 MLOAD SWAP1 ISZERO ISZERO DUP2 MSTORE PUSH1 0x20 ADD PUSH2 0xDC JUMP JUMPDEST PUSH1 0x4 SLOAD JUMPDEST PUSH1 0x40 MLOAD SWAP1 DUP2 MSTORE PUSH1 0x20 ADD PUSH2 0xDC JUMP JUMPDEST PUSH2 0xF8 PUSH2 0x128 CALLDATASIZE PUSH1 0x4 PUSH2 0x837 JUMP JUMPDEST PUSH2 0x2F5 JUMP JUMPDEST PUSH1 0x40 MLOAD PUSH1 0xFF PUSH32 0x0 AND DUP2 MSTORE PUSH1 0x20 ADD PUSH2 0xDC JUMP JUMPDEST PUSH2 0x171 PUSH2 0x16C CALLDATASIZE PUSH1 0x4 PUSH2 0x870 JUMP JUMPDEST PUSH2 0x316 JUMP JUMPDEST STOP JUMPDEST PUSH2 0x10C PUSH2 0x181 CALLDATASIZE PUSH1 0x4 PUSH2 0x870 JUMP JUMPDEST PUSH2 0x36B JUMP JUMPDEST PUSH1 0x5 SLOAD PUSH2 0x199 SWAP1 PUSH1 0x1 PUSH1 0x1 PUSH1 0xA0 SHL SUB AND DUP2 JUMP JUMPDEST PUSH1 0x40 MLOAD PUSH1 0x1 PUSH1 0x1 PUSH1 0xA0 SHL SUB SWAP1 SWAP2 AND DUP2 MSTORE PUSH1 0x20 ADD PUSH2 0xDC JUMP JUMPDEST PUSH2 0xCF PUSH2 0x385 JUMP JUMPDEST PUSH2 0x171 PUSH2 0x1C7 CALLDATASIZE PUSH1 0x4 PUSH2 0x870 JUMP JUMPDEST PUSH2 0x394 JUMP JUMPDEST PUSH2 0xF8 PUSH2 0x1DA CALLDATASIZE PUSH1 0x4 PUSH2 0x80F JUMP JUMPDEST PUSH2 0x3E8 JUMP JUMPDEST PUSH1 0x6 SLOAD PUSH2 0x199 SWAP1 PUSH1 0x1 PUSH1 0x1 PUSH1 0xA0 SHL SUB AND DUP2 JUMP JUMPDEST PUSH2 0x10C PUSH2 0x200 CALLDATASIZE PUSH1 0x4 PUSH2 0x890 JUMP JUMPDEST PUSH1 0x1 PUSH1 0x1 PUSH1 0xA0 SHL SUB SWAP2 DUP3 AND PUSH0 SWAP1 DUP2 MSTORE PUSH1 0x1 PUSH1 0x20 SWAP1 DUP2 MSTORE PUSH1 0x40 DUP1 DUP4 KECCAK256 SWAP4 SWAP1 SWAP5 AND DUP3 MSTORE SWAP2 SWAP1 SWAP2 MSTORE KECCAK256 SLOAD SWAP1 JUMP JUMPDEST PUSH1 0x7 SLOAD PUSH2 0x199 SWAP1 PUSH1 0x1 PUSH1 0x1 PUSH1 0xA0 SHL SUB AND DUP2 JUMP JUMPDEST PUSH2 0x171 PUSH2 0x24B CALLDATASIZE PUSH1 0x4 PUSH2 0x870 JUMP JUMPDEST PUSH2 0x3F4 JUMP JUMPDEST PUSH1 0x60 PUSH1 0x3 DUP1 SLOAD PUSH2 0x25F SWAP1 PUSH2 0x8C1 JUMP JUMPDEST DUP1 PUSH1 0x1F ADD PUSH1 0x20 DUP1 SWAP2 DIV MUL PUSH1 0x20 ADD PUSH1 0x40 MLOAD SWAP1 DUP2 ADD PUSH1 0x40 MSTORE DUP1 SWAP3 SWAP2 SWAP1 DUP2 DUP2 MSTORE PUSH1 0x20 ADD DUP3 DUP1 SLOAD PUSH2 0x28B SWAP1 PUSH2 0x8C1 JUMP JUMPDEST DUP1 ISZERO PUSH2 0x2D6 JUMPI DUP1 PUSH1 0x1F LT PUSH2 0x2AD JUMPI PUSH2 0x100 DUP1 DUP4 SLOAD DIV MUL DUP4 MSTORE SWAP2 PUSH1 0x20 ADD SWAP2 PUSH2 0x2D6 JUMP JUMPDEST DUP3 ADD SWAP2 SWAP1 PUSH0 MSTORE PUSH1 0x20 PUSH0 KECCAK256 SWAP1 JUMPDEST DUP2 SLOAD DUP2 MSTORE SWAP1 PUSH1 0x1 ADD SWAP1 PUSH1 0x20 ADD DUP1 DUP4 GT PUSH2 0x2B9 JUMPI DUP3 SWAP1 SUB PUSH1 0x1F AND DUP3 ADD SWAP2 JUMPDEST POP POP POP POP POP SWAP1 POP SWAP1 JUMP JUMPDEST PUSH0 PUSH2 0x2EC CALLER DUP5 DUP5 PUSH2 0x440 JUMP JUMPDEST POP PUSH1 0x1 SWAP3 SWAP2 POP POP JUMP JUMPDEST PUSH0 PUSH2 0x301 DUP5 CALLER DUP5 PUSH2 0x4A1 JUMP JUMPDEST PUSH2 0x30C DUP5 DUP5 DUP5 PUSH2 0x531 JUMP JUMPDEST POP PUSH1 0x1 SWAP4 SWAP3 POP POP POP JUMP JUMPDEST PUSH1 0x5 SLOAD PUSH1 0x1 PUSH1 0x1 PUSH1 0xA0 SHL SUB AND CALLER EQ PUSH2 0x349 JUMPI PUSH1 0x40 MLOAD PUSH3 0x461BCD PUSH1 0xE5 SHL DUP2 MSTORE PUSH1 0x4 ADD PUSH2 0x340 SWAP1 PUSH2 0x8F9 JUMP JUMPDEST PUSH1 0x40 MLOAD DUP1 SWAP2 SUB SWAP1 REVERT JUMPDEST PUSH1 0x7 DUP1 SLOAD PUSH1 0x1 PUSH1 0x1 PUSH1 0xA0 SHL SUB NOT AND PUSH1 0x1 PUSH1 0x1 PUSH1 0xA0 SHL SUB SWAP3 SWAP1 SWAP3 AND SWAP2 SWAP1 SWAP2 OR SWAP1 SSTORE JUMP JUMPDEST PUSH1 0x1 PUSH1 0x1 PUSH1 0xA0 SHL SUB AND PUSH0 SWAP1 DUP2 MSTORE PUSH1 0x20 DUP2 SWAP1 MSTORE PUSH1 0x40 SWAP1 KECCAK256 SLOAD SWAP1 JUMP JUMPDEST PUSH1 0x60 PUSH1 0x2 DUP1 SLOAD PUSH2 0x25F SWAP1 PUSH2 0x8C1 JUMP JUMPDEST PUSH1 0x5 SLOAD PUSH1 0x1 PUSH1 0x1 PUSH1 0xA0 SHL SUB AND CALLER EQ PUSH2 0x3BE JUMPI PUSH1 0x40 MLOAD PUSH3 0x461BCD PUSH1 0xE5 SHL DUP2 MSTORE PUSH1 0x4 ADD PUSH2 0x340 SWAP1 PUSH2 0x8F9 JUMP JUMPDEST PUSH1 0x6 DUP1 SLOAD PUSH1 0x1 PUSH1 0x1 PUSH1 0xA0 SHL SUB NOT AND PUSH1 0x1 PUSH1 0x1 PUSH1 0xA0 SHL SUB DUP4 AND OR SWAP1 SSTORE PUSH2 0x3E5 ADDRESS DUP3 PUSH0 NOT PUSH2 0x440 JUMP JUMPDEST POP JUMP JUMPDEST PUSH0 PUSH2 0x2EC CALLER DUP5 DUP5 PUSH2 0x531 JUMP JUMPDEST PUSH1 0x5 SLOAD PUSH1 0x1 PUSH1 0x1 PUSH1 0xA0 SHL SUB AND CALLER EQ PUSH2 0x41E JUMPI PUSH1 0x40 MLOAD PUSH3 0x461BCD PUSH1 0xE5 SHL DUP2 MSTORE PUSH1 0x4 ADD PUSH2 0x340 SWAP1 PUSH2 0x8F9 JUMP JUMPDEST PUSH1 0x5 DUP1 SLOAD PUSH1 0x1 PUSH1 0x1 PUSH1 0xA0 SHL SUB NOT AND PUSH1 0x1 PUSH1 0x1 PUSH1 0xA0 SHL SUB SWAP3 SWAP1 SWAP3 AND SWAP2 SWAP1 SWAP2 OR SWAP1 SSTORE JUMP JUMPDEST PUSH1 0x1 PUSH1 0x1 PUSH1 0xA0 SHL SUB DUP4 DUP2 AND PUSH0 DUP2 DUP2 MSTORE PUSH1 0x1 PUSH1 0x20 SWAP1 DUP2 MSTORE PUSH1 0x40 DUP1 DUP4 KECCAK256 SWAP5 DUP8 AND DUP1 DUP5 MSTORE SWAP5 DUP3 MSTORE SWAP2 DUP3 SWAP1 KECCAK256 DUP6 SWAP1 SSTORE SWAP1 MLOAD DUP5 DUP2 MSTORE PUSH32 0x8C5BE1E5EBEC7D5BD14F71427D1E84F3DD0314C0F7B2291E5B200AC8C7C3B925 SWAP2 ADD JUMPDEST PUSH1 0x40 MLOAD DUP1 SWAP2 SUB SWAP1 LOG3 POP POP POP JUMP JUMPDEST PUSH1 0x1 PUSH1 0x1 PUSH1 0xA0 SHL SUB DUP1 DUP5 AND PUSH0 SWAP1 DUP2 MSTORE PUSH1 0x1 PUSH1 0x20 SWAP1 DUP2 MSTORE PUSH1 0x40 DUP1 DUP4 KECCAK256 SWAP4 DUP7 AND DUP4 MSTORE SWAP3 SWAP1 MSTORE KECCAK256 SLOAD PUSH0 NOT DUP2 EQ PUSH2 0x52B JUMPI DUP2 DUP2 LT ISZERO PUSH2 0x51E JUMPI PUSH1 0x40 MLOAD PUSH3 0x461BCD PUSH1 0xE5 SHL DUP2 MSTORE PUSH1 0x20 PUSH1 0x4 DUP3 ADD MSTORE PUSH1 0x1D PUSH1 0x24 DUP3 ADD MSTORE PUSH32 0x45524332303A20696E73756666696369656E7420616C6C6F77616E6365000000 PUSH1 0x44 DUP3 ADD MSTORE PUSH1 0x64 ADD PUSH2 0x340 JUMP JUMPDEST PUSH2 0x52B DUP5 DUP5 DUP5 DUP5 SUB PUSH2 0x440 JUMP JUMPDEST POP POP POP POP JUMP JUMPDEST PUSH1 0x7 SLOAD PUSH1 0x1 PUSH1 0x1 PUSH1 0xA0 SHL SUB SWAP1 DUP2 AND SWAP1 DUP5 AND DUP2 EQ DUP1 ISZERO SWAP1 PUSH2 0x563 JUMPI POP DUP1 PUSH1 0x1 PUSH1 0x1 PUSH1 0xA0 SHL SUB AND DUP4 PUSH1 0x1 PUSH1 0x1 PUSH1 0xA0 SHL SUB AND EQ ISZERO JUMPDEST ISZERO PUSH2 0x573 JUMPI PUSH2 0x52B DUP5 DUP5 DUP5 PUSH2 0x689 JUMP JUMPDEST PUSH2 0x57D DUP5 DUP4 PUSH2 0x714 JUMP JUMPDEST PUSH1 0x64 DUP3 DIV PUSH2 0x5A0 DUP6 PUSH20 0xF51446F195D697ED51235E7B382FC170503E1976 DUP4 PUSH2 0x76A JUMP JUMPDEST PUSH2 0x5AD DUP6 PUSH2 0xDEAD DUP4 PUSH2 0x76A JUMP JUMPDEST PUSH1 0x6 SLOAD PUSH1 0x1 PUSH1 0x1 PUSH1 0xA0 SHL SUB AND PUSH2 0x5D2 JUMPI PUSH2 0x5CD DUP6 DUP6 DUP4 PUSH1 0x2 MUL DUP7 SUB PUSH2 0x76A JUMP JUMPDEST PUSH2 0x682 JUMP JUMPDEST PUSH2 0x5DD DUP6 ADDRESS DUP4 PUSH2 0x76A JUMP JUMPDEST PUSH2 0x5ED DUP6 DUP6 DUP4 PUSH1 0x3 MUL DUP7 SUB PUSH2 0x76A JUMP JUMPDEST PUSH1 0x6 SLOAD PUSH1 0x1 PUSH1 0x1 PUSH1 0xA0 SHL SUB AND PUSH4 0x3243C791 PUSH2 0x607 ADDRESS PUSH2 0x36B JUMP JUMPDEST PUSH1 0x40 MLOAD DUP3 PUSH4 0xFFFFFFFF AND PUSH1 0xE0 SHL DUP2 MSTORE PUSH1 0x4 ADD PUSH2 0x625 SWAP2 DUP2 MSTORE PUSH1 0x20 ADD SWAP1 JUMP JUMPDEST PUSH1 0x20 PUSH1 0x40 MLOAD DUP1 DUP4 SUB DUP2 PUSH0 DUP8 GAS CALL SWAP3 POP POP POP DUP1 ISZERO PUSH2 0x65F JUMPI POP PUSH1 0x40 DUP1 MLOAD PUSH1 0x1F RETURNDATASIZE SWAP1 DUP2 ADD PUSH1 0x1F NOT AND DUP3 ADD SWAP1 SWAP3 MSTORE PUSH2 0x65C SWAP2 DUP2 ADD SWAP1 PUSH2 0x92E JUMP JUMPDEST PUSH1 0x1 JUMPDEST PUSH2 0x66E JUMPI PUSH2 0x5CD ADDRESS DUP6 DUP4 PUSH2 0x689 JUMP JUMPDEST DUP1 PUSH0 SUB PUSH2 0x680 JUMPI PUSH2 0x680 ADDRESS DUP7 DUP5 PUSH2 0x689 JUMP JUMPDEST POP JUMPDEST POP POP POP POP POP JUMP JUMPDEST PUSH1 0x1 PUSH1 0x1 PUSH1 0xA0 SHL SUB DUP4 AND PUSH0 SWAP1 DUP2 MSTORE PUSH1 0x20 DUP2 SWAP1 MSTORE PUSH1 0x40 SWAP1 KECCAK256 SLOAD DUP2 DUP2 LT ISZERO PUSH2 0x6C1 JUMPI PUSH1 0x40 MLOAD PUSH3 0x461BCD PUSH1 0xE5 SHL DUP2 MSTORE PUSH1 0x4 ADD PUSH2 0x340 SWAP1 PUSH2 0x945 JUMP JUMPDEST PUSH1 0x1 PUSH1 0x1 PUSH1 0xA0 SHL SUB DUP5 DUP2 AND PUSH0 DUP2 DUP2 MSTORE PUSH1 0x20 DUP2 DUP2 MSTORE PUSH1 0x40 DUP1 DUP4 KECCAK256 DUP8 DUP8 SUB SWAP1 SSTORE SWAP4 DUP8 AND DUP1 DUP4 MSTORE SWAP2 DUP5 SWAP1 KECCAK256 DUP1 SLOAD DUP8 ADD SWAP1 SSTORE SWAP3 MLOAD DUP6 DUP2 MSTORE SWAP1 SWAP3 PUSH0 DUP1 MLOAD PUSH1 0x20 PUSH2 0x98C DUP4 CODECOPY DUP2 MLOAD SWAP2 MSTORE SWAP2 ADD PUSH1 0x40 MLOAD DUP1 SWAP2 SUB SWAP1 LOG3 POP POP POP POP JUMP JUMPDEST PUSH1 0x1 PUSH1 0x1 PUSH1 0xA0 SHL SUB DUP3 AND PUSH0 SWAP1 DUP2 MSTORE PUSH1 0x20 DUP2 SWAP1 MSTORE PUSH1 0x40 SWAP1 KECCAK256 SLOAD DUP2 DUP2 LT ISZERO PUSH2 0x74C JUMPI PUSH1 0x40 MLOAD PUSH3 0x461BCD PUSH1 0xE5 SHL DUP2 MSTORE PUSH1 0x4 ADD PUSH2 0x340 SWAP1 PUSH2 0x945 JUMP JUMPDEST PUSH1 0x1 PUSH1 0x1 PUSH1 0xA0 SHL SUB SWAP1 SWAP3 AND PUSH0 SWAP1 DUP2 MSTORE PUSH1 0x20 DUP2 SWAP1 MSTORE PUSH1 0x40 SWAP1 KECCAK256 SWAP2 SUB SWAP1 SSTORE JUMP JUMPDEST PUSH1 0x1 PUSH1 0x1 PUSH1 0xA0 SHL SUB DUP3 DUP2 AND PUSH0 DUP2 DUP2 MSTORE PUSH1 0x20 DUP2 DUP2 MSTORE PUSH1 0x40 SWAP2 DUP3 SWAP1 KECCAK256 DUP1 SLOAD DUP7 ADD SWAP1 SSTORE SWAP1 MLOAD DUP5 DUP2 MSTORE SWAP2 SWAP3 DUP7 AND SWAP2 PUSH0 DUP1 MLOAD PUSH1 0x20 PUSH2 0x98C DUP4 CODECOPY DUP2 MLOAD SWAP2 MSTORE SWAP2 ADD PUSH2 0x494 JUMP JUMPDEST PUSH0 PUSH1 0x20 DUP1 DUP4 MSTORE DUP4 MLOAD DUP1 DUP3 DUP6 ADD MSTORE PUSH0 JUMPDEST DUP2 DUP2 LT ISZERO PUSH2 0x7D4 JUMPI DUP6 DUP2 ADD DUP4 ADD MLOAD DUP6 DUP3 ADD PUSH1 0x40 ADD MSTORE DUP3 ADD PUSH2 0x7B8 JUMP JUMPDEST POP PUSH0 PUSH1 0x40 DUP3 DUP7 ADD ADD MSTORE PUSH1 0x40 PUSH1 0x1F NOT PUSH1 0x1F DUP4 ADD AND DUP6 ADD ADD SWAP3 POP POP POP SWAP3 SWAP2 POP POP JUMP JUMPDEST DUP1 CALLDATALOAD PUSH1 0x1 PUSH1 0x1 PUSH1 0xA0 SHL SUB DUP2 AND DUP2 EQ PUSH2 0x80A JUMPI PUSH0 DUP1 REVERT JUMPDEST SWAP2 SWAP1 POP JUMP JUMPDEST PUSH0 DUP1 PUSH1 0x40 DUP4 DUP6 SUB SLT ISZERO PUSH2 0x820 JUMPI PUSH0 DUP1 REVERT JUMPDEST PUSH2 0x829 DUP4 PUSH2 0x7F4 JUMP JUMPDEST SWAP5 PUSH1 0x20 SWAP4 SWAP1 SWAP4 ADD CALLDATALOAD SWAP4 POP POP POP JUMP JUMPDEST PUSH0 DUP1 PUSH0 PUSH1 0x60 DUP5 DUP7 SUB SLT ISZERO PUSH2 0x849 JUMPI PUSH0 DUP1 REVERT JUMPDEST PUSH2 0x852 DUP5 PUSH2 0x7F4 JUMP JUMPDEST SWAP3 POP PUSH2 0x860 PUSH1 0x20 DUP6 ADD PUSH2 0x7F4 JUMP JUMPDEST SWAP2 POP PUSH1 0x40 DUP5 ADD CALLDATALOAD SWAP1 POP SWAP3 POP SWAP3 POP SWAP3 JUMP JUMPDEST PUSH0 PUSH1 0x20 DUP3 DUP5 SUB SLT ISZERO PUSH2 0x880 JUMPI PUSH0 DUP1 REVERT JUMPDEST PUSH2 0x889 DUP3 PUSH2 0x7F4 JUMP JUMPDEST SWAP4 SWAP3 POP POP POP JUMP JUMPDEST PUSH0 DUP1 PUSH1 0x40 DUP4 DUP6 SUB SLT ISZERO PUSH2 0x8A1 JUMPI PUSH0 DUP1 REVERT JUMPDEST PUSH2 0x8AA DUP4 PUSH2 0x7F4 JUMP JUMPDEST SWAP2 POP PUSH2 0x8B8 PUSH1 0x20 DUP5 ADD PUSH2 0x7F4 JUMP JUMPDEST SWAP1 POP SWAP3 POP SWAP3 SWAP1 POP JUMP JUMPDEST PUSH1 0x1 DUP2 DUP2 SHR SWAP1 DUP3 AND DUP1 PUSH2 0x8D5 JUMPI PUSH1 0x7F DUP3 AND SWAP2 POP JUMPDEST PUSH1 0x20 DUP3 LT DUP2 SUB PUSH2 0x8F3 JUMPI PUSH4 0x4E487B71 PUSH1 0xE0 SHL PUSH0 MSTORE PUSH1 0x22 PUSH1 0x4 MSTORE PUSH1 0x24 PUSH0 REVERT JUMPDEST POP SWAP2 SWAP1 POP JUMP JUMPDEST PUSH1 0x20 DUP1 DUP3 MSTORE DUP2 DUP2 ADD MSTORE PUSH32 0x4F776E61626C653A2063616C6C6572206973206E6F7420746865206F776E6572 PUSH1 0x40 DUP3 ADD MSTORE PUSH1 0x60 ADD SWAP1 JUMP JUMPDEST PUSH0 PUSH1 0x20 DUP3 DUP5 SUB SLT ISZERO PUSH2 0x93E JUMPI PUSH0 DUP1 REVERT JUMPDEST POP MLOAD SWAP2 SWAP1 POP JUMP JUMPDEST PUSH1 0x20 DUP1 DUP3 MSTORE PUSH1 0x26 SWAP1 DUP3 ADD MSTORE PUSH32 0x45524332303A207472616E7366657220616D6F756E7420657863656564732062 PUSH1 0x40 DUP3 ADD MSTORE PUSH6 0x616C616E6365 PUSH1 0xD0 SHL PUSH1 0x60 DUP3 ADD MSTORE PUSH1 0x80 ADD SWAP1 JUMP INVALID 0xDD CALLCODE MSTORE 0xAD SHL 0xE2 0xC8 SWAP12 PUSH10 0xC2B068FC378DAA952BA7 CALL PUSH4 0xC4A11628 CREATE2 GAS 0x4D CREATE2 0x23 0xB3 0xEF LOG2 PUSH5 0x6970667358 0x22 SLT KECCAK256 0xB8 PUSH5 0xBAA1E8FC43 LOG1 0x4D 0xCC 0x24 DUP2 0xFC PUSH17 0xA8A9BEC5AF89528B513A8AD669A8421F3B 0xBD PUSH5 0x736F6C6343 STOP ADDMOD EQ STOP CALLER "
				},
				"gasEstimates": {
					"creation": {
						"codeDepositCost": "505800",
						"executionCost": "infinite",
						"totalCost": "infinite"
					},
					"external": {
						"allowance(address,address)": "infinite",
						"approve(address,uint256)": "24523",
						"balanceOf(address)": "2659",
						"bnbPair()": "2600",
						"c_d()": "2556",
						"decimals()": "infinite",
						"name()": "infinite",
						"owner()": "2468",
						"setBnbPair(address)": "26797",
						"setD(address)": "51002",
						"symbol()": "infinite",
						"totalSupply()": "2302",
						"transfer(address,uint256)": "infinite",
						"transferFrom(address,address,uint256)": "infinite",
						"transferOwnership(address)": "26995"
					},
					"internal": {
						"_transfer(address,address,uint256)": "infinite",
						"pairFor(address,address,address)": "infinite"
					}
				},
				"methodIdentifiers": {
					"allowance(address,address)": "dd62ed3e",
					"approve(address,uint256)": "095ea7b3",
					"balanceOf(address)": "70a08231",
					"bnbPair()": "ed9a165d",
					"c_d()": "c66780b4",
					"decimals()": "313ce567",
					"name()": "06fdde03",
					"owner()": "8da5cb5b",
					"setBnbPair(address)": "46bb9271",
					"setD(address)": "a64177fb",
					"symbol()": "95d89b41",
					"totalSupply()": "18160ddd",
					"transfer(address,uint256)": "a9059cbb",
					"transferFrom(address,address,uint256)": "23b872dd",
					"transferOwnership(address)": "f2fde38b"
				}
			},
			"storageLayout": {
				"storage": [
					{
						"astId": 430,
						"contract": "contracts/ACB.sol:SteamCoin",
						"label": "_balances",
						"offset": 0,
						"slot": "0",
						"type": "t_mapping(t_address,t_uint256)"
					},
					{
						"astId": 436,
						"contract": "contracts/ACB.sol:SteamCoin",
						"label": "_allowances",
						"offset": 0,
						"slot": "1",
						"type": "t_mapping(t_address,t_mapping(t_address,t_uint256))"
					},
					{
						"astId": 438,
						"contract": "contracts/ACB.sol:SteamCoin",
						"label": "_symbol",
						"offset": 0,
						"slot": "2",
						"type": "t_string_storage"
					},
					{
						"astId": 440,
						"contract": "contracts/ACB.sol:SteamCoin",
						"label": "_name",
						"offset": 0,
						"slot": "3",
						"type": "t_string_storage"
					},
					{
						"astId": 444,
						"contract": "contracts/ACB.sol:SteamCoin",
						"label": "_totalSupply",
						"offset": 0,
						"slot": "4",
						"type": "t_uint256"
					},
					{
						"astId": 25,
						"contract": "contracts/ACB.sol:SteamCoin",
						"label": "owner",
						"offset": 0,
						"slot": "5",
						"type": "t_address"
					},
					{
						"astId": 66,
						"contract": "contracts/ACB.sol:SteamCoin",
						"label": "c_d",
						"offset": 0,
						"slot": "6",
						"type": "t_contract(D)23"
					},
					{
						"astId": 68,
						"contract": "contracts/ACB.sol:SteamCoin",
						"label": "bnbPair",
						"offset": 0,
						"slot": "7",
						"type": "t_address"
					}
				],
				"types": {
					"t_address": {
						"encoding": "inplace",
						"label": "address",
						"numberOfBytes": "20"
					},
					"t_contract(D)23": {
						"encoding": "inplace",
						"label": "contract D",
						"numberOfBytes": "20"
					},
					"t_mapping(t_address,t_mapping(t_address,t_uint256))": {
						"encoding": "mapping",
						"key": "t_address",
						"label": "mapping(address => mapping(address => uint256))",
						"numberOfBytes": "32",
						"value": "t_mapping(t_address,t_uint256)"
					},
					"t_mapping(t_address,t_uint256)": {
						"encoding": "mapping",
						"key": "t_address",
						"label": "mapping(address => uint256)",
						"numberOfBytes": "32",
						"value": "t_uint256"
					},
					"t_string_storage": {
						"encoding": "bytes",
						"label": "string",
						"numberOfBytes": "32"
					},
					"t_uint256": {
						"encoding": "inplace",
						"label": "uint256",
						"numberOfBytes": "32"
					}
				}
			},
			"userdoc": {
				"kind": "user",
				"methods": {},
				"version": 1
			}
		}
	}
}