{
	"contracts/ACB.sol": {
		"SteamCoin": {
			"abi": [
				{
					"inputs": [],
					"stateMutability": "nonpayable",
					"type": "constructor"
				},
				{
					"anonymous": false,
					"inputs": [
						{
							"indexed": true,
							"internalType": "address",
							"name": "owner",
							"type": "address"
						},
						{
							"indexed": true,
							"internalType": "address",
							"name": "spender",
							"type": "address"
						},
						{
							"indexed": false,
							"internalType": "uint256",
							"name": "value",
							"type": "uint256"
						}
					],
					"name": "Approval",
					"type": "event"
				},
				{
					"anonymous": false,
					"inputs": [
						{
							"indexed": true,
							"internalType": "address",
							"name": "from",
							"type": "address"
						},
						{
							"indexed": true,
							"internalType": "address",
							"name": "to",
							"type": "address"
						},
						{
							"indexed": false,
							"internalType": "uint256",
							"name": "value",
							"type": "uint256"
						}
					],
					"name": "Transfer",
					"type": "event"
				},
				{
					"inputs": [
						{
							"internalType": "address",
							"name": "owner",
							"type": "address"
						},
						{
							"internalType": "address",
							"name": "spender",
							"type": "address"
						}
					],
					"name": "allowance",
					"outputs": [
						{
							"internalType": "uint256",
							"name": "",
							"type": "uint256"
						}
					],
					"stateMutability": "view",
					"type": "function"
				},
				{
					"inputs": [
						{
							"internalType": "address",
							"name": "spender",
							"type": "address"
						},
						{
							"internalType": "uint256",
							"name": "amount",
							"type": "uint256"
						}
					],
					"name": "approve",
					"outputs": [
						{
							"internalType": "bool",
							"name": "",
							"type": "bool"
						}
					],
					"stateMutability": "nonpayable",
					"type": "function"
				},
				{
					"inputs": [
						{
							"internalType": "address",
							"name": "account",
							"type": "address"
						}
					],
					"name": "balanceOf",
					"outputs": [
						{
							"internalType": "uint256",
							"name": "",
							"type": "uint256"
						}
					],
					"stateMutability": "view",
					"type": "function"
				},
				{
					"inputs": [],
					"name": "bnbPair",
					"outputs": [
						{
							"internalType": "address",
							"name": "",
							"type": "address"
						}
					],
					"stateMutability": "view",
					"type": "function"
				},
				{
					"inputs": [],
					"name": "c_d",
					"outputs": [
						{
							"internalType": "contract D",
							"name": "",
							"type": "address"
						}
					],
					"stateMutability": "view",
					"type": "function"
				},
				{
					"inputs": [],
					"name": "decimals",
					"outputs": [
						{
							"internalType": "uint8",
							"name": "",
							"type": "uint8"
						}
					],
					"stateMutability": "view",
					"type": "function"
				},
				{
					"inputs": [],
					"name": "name",
					"outputs": [
						{
							"internalType": "string",
							"name": "",
							"type": "string"
						}
					],
					"stateMutability": "view",
					"type": "function"
				},
				{
					"inputs": [],
					"name": "owner",
					"outputs": [
						{
							"internalType": "address",
							"name": "",
							"type": "address"
						}
					],
					"stateMutability": "view",
					"type": "function"
				},
				{
					"inputs": [
						{
							"internalType": "address",
							"name": "d",
							"type": "address"
						}
					],
					"name": "setBnbPair",
					"outputs": [],
					"stateMutability": "nonpayable",
					"type": "function"
				},
				{
					"inputs": [
						{
							"internalType": "address",
							"name": "d",
							"type": "address"
						}
					],
					"name": "setD",
					"outputs": [],
					"stateMutability": "nonpayable",
					"type": "function"
				},
				{
					"inputs": [],
					"name": "symbol",
					"outputs": [
						{
							"internalType": "string",
							"name": "",
							"type": "string"
						}
					],
					"stateMutability": "view",
					"type": "function"
				},
				{
					"inputs": [],
					"name": "totalSupply",
					"outputs": [
						{
							"internalType": "uint256",
							"name": "",
							"type": "uint256"
						}
					],
					"stateMutability": "view",
					"type": "function"
				},
				{
					"inputs": [
						{
							"internalType": "address",
							"name": "to",
							"type": "address"
						},
						{
							"internalType": "uint256",
							"name": "amount",
							"type": "uint256"
						}
					],
					"name": "transfer",
					"outputs": [
						{
							"internalType": "bool",
							"name": "",
							"type": "bool"
						}
					],
					"stateMutability": "nonpayable",
					"type": "function"
				},
				{
					"inputs": [
						{
							"internalType": "address",
							"name": "from",
							"type": "address"
						},
						{
							"internalType": "address",
							"name": "to",
							"type": "address"
						},
						{
							"internalType": "uint256",
							"name": "amount",
							"type": "uint256"
						}
					],
					"name": "transferFrom",
					"outputs": [
						{
							"internalType": "bool",
							"name": "",
							"type": "bool"
						}
					],
					"stateMutability": "nonpayable",
					"type": "function"
				},
				{
					"inputs": [
						{
							"internalType": "address",
							"name": "newOwner",
							"type": "address"
						}
					],
					"name": "transferOwnership",
					"outputs": [],
					"stateMutability": "nonpayable",
					"type": "function"
				}
			],
			"devdoc": {
				"kind": "dev",
				"methods": {},
				"version": 1
			},
			"evm": {
				"assembly": "    /* \"contracts/ACB.sol\":794:3540  contract SteamCoin is ERC20StandardToken, Ownable {... */\n  mstore(0x40, 0xa0)\n    /* \"contracts/ACB.sol\":1279:1654  constructor() ERC20StandardToken('ACB', 'ACB', 18, 1000000000000 ether) {... */\n  callvalue\n  dup1\n  iszero\n  tag_1\n  jumpi\n  0x00\n  dup1\n  revert\ntag_1:\n  pop\n    /* \"contracts/ERC20StandardToken.sol\":1035:1264  constructor(string memory symbol_, string memory name_, uint8 decimals_, uint256 totalSupply_) {... */\n  0x40\n  dup1\n  mload\n  dup1\n  dup3\n  add\n  dup3\n  mstore\n  0x03\n  dup1\n  dup3\n  mstore\n  shl(0xe9, 0x20a1a1)\n  0x20\n  dup1\n  dup5\n  add\n  dup3\n  swap1\n  mstore\n  dup5\n  mload\n  dup1\n  dup7\n  add\n  swap1\n  swap6\n  mstore\n  swap2\n  dup5\n  mstore\n  swap1\n  dup4\n  add\n  mstore\n  swap1\n    /* \"contracts/ACB.sol\":1326:1328  18 */\n  0x12\n    /* \"contracts/ACB.sol\":1330:1349  1000000000000 ether */\n  0x0c9f2c9cd04674edea40000000\n    /* \"contracts/ERC20StandardToken.sol\":1141:1148  _symbol */\n  0x02\n    /* \"contracts/ERC20StandardToken.sol\":1141:1158  _symbol = symbol_ */\n  tag_6\n    /* \"contracts/ERC20StandardToken.sol\":1035:1264  constructor(string memory symbol_, string memory name_, uint8 decimals_, uint256 totalSupply_) {... */\n  dup6\n    /* \"contracts/ERC20StandardToken.sol\":1141:1148  _symbol */\n  dup3\n    /* \"contracts/ERC20StandardToken.sol\":1141:1158  _symbol = symbol_ */\n  tag_7\n  jump\t// in\ntag_6:\n  pop\n    /* \"contracts/ERC20StandardToken.sol\":1169:1174  _name */\n  0x03\n    /* \"contracts/ERC20StandardToken.sol\":1169:1182  _name = name_ */\n  tag_8\n    /* \"contracts/ERC20StandardToken.sol\":1177:1182  name_ */\n  dup5\n    /* \"contracts/ERC20StandardToken.sol\":1169:1174  _name */\n  dup3\n    /* \"contracts/ERC20StandardToken.sol\":1169:1182  _name = name_ */\n  tag_7\n  jump\t// in\ntag_8:\n  pop\n    /* \"contracts/ERC20StandardToken.sol\":1193:1214  _decimals = decimals_ */\n  0xff\n  dup3\n  and\n  0x80\n  mstore\n    /* \"contracts/ERC20StandardToken.sol\":1225:1256  _mint(msg.sender, totalSupply_) */\n  tag_9\n    /* \"contracts/ERC20StandardToken.sol\":1231:1241  msg.sender */\n  caller\n    /* \"contracts/ERC20StandardToken.sol\":1243:1255  totalSupply_ */\n  dup3\n    /* \"contracts/ERC20StandardToken.sol\":1225:1230  _mint */\n  tag_10\n    /* \"contracts/ERC20StandardToken.sol\":1225:1256  _mint(msg.sender, totalSupply_) */\n  jump\t// in\ntag_9:\n  pop\n  pop\n    /* \"contracts/ACB.sol\":532:537  owner */\n  0x05\n    /* \"contracts/ACB.sol\":532:550  owner = msg.sender */\n  dup1\n  sload\n  not(sub(shl(0xa0, 0x01), 0x01))\n  and\n    /* \"contracts/ACB.sol\":540:550  msg.sender */\n  caller\n    /* \"contracts/ACB.sol\":532:550  owner = msg.sender */\n  or\n  swap1\n  sstore\n  pop\n    /* \"contracts/ACB.sol\":794:3540  contract SteamCoin is ERC20StandardToken, Ownable {... */\n  tag_27\n  swap1\n  pop\n  jump\n    /* \"contracts/ERC20StandardToken.sol\":4223:4533  function _mint(address account, uint256 amount) internal virtual {... */\ntag_10:\n  sub(shl(0xa0, 0x01), 0x01)\n    /* \"contracts/ERC20StandardToken.sol\":4307:4328  account != address(0) */\n  dup3\n  and\n    /* \"contracts/ERC20StandardToken.sol\":4299:4364  require(account != address(0), \"ERC20: mint to the zero address\") */\n  tag_15\n  jumpi\n  mload(0x40)\n  shl(0xe5, 0x461bcd)\n  dup2\n  mstore\n    /* \"#utility.yul\":2937:2939   */\n  0x20\n    /* \"contracts/ERC20StandardToken.sol\":4299:4364  require(account != address(0), \"ERC20: mint to the zero address\") */\n  0x04\n  dup3\n  add\n    /* \"#utility.yul\":2919:2940   */\n  mstore\n    /* \"#utility.yul\":2976:2978   */\n  0x1f\n    /* \"#utility.yul\":2956:2974   */\n  0x24\n  dup3\n  add\n    /* \"#utility.yul\":2949:2979   */\n  mstore\n    /* \"#utility.yul\":3015:3048   */\n  0x45524332303a206d696e7420746f20746865207a65726f206164647265737300\n    /* \"#utility.yul\":2995:3013   */\n  0x44\n  dup3\n  add\n    /* \"#utility.yul\":2988:3049   */\n  mstore\n    /* \"#utility.yul\":3066:3084   */\n  0x64\n  add\n    /* \"contracts/ERC20StandardToken.sol\":4299:4364  require(account != address(0), \"ERC20: mint to the zero address\") */\n  mload(0x40)\n  dup1\n  swap2\n  sub\n  swap1\n  revert\ntag_15:\n    /* \"contracts/ERC20StandardToken.sol\":4391:4397  amount */\n  dup1\n    /* \"contracts/ERC20StandardToken.sol\":4375:4387  _totalSupply */\n  0x04\n  0x00\n    /* \"contracts/ERC20StandardToken.sol\":4375:4397  _totalSupply += amount */\n  dup3\n  dup3\n  sload\n  tag_18\n  swap2\n  swap1\n  tag_19\n  jump\t// in\ntag_18:\n  swap1\n  swap2\n  sstore\n  pop\n  pop\n  sub(shl(0xa0, 0x01), 0x01)\n    /* \"contracts/ERC20StandardToken.sol\":4433:4451  _balances[account] */\n  dup3\n  and\n    /* \"contracts/ERC20StandardToken.sol\":4433:4442  _balances */\n  0x00\n    /* \"contracts/ERC20StandardToken.sol\":4433:4451  _balances[account] */\n  dup2\n  dup2\n  mstore\n  0x20\n  dup2\n  dup2\n  mstore\n  0x40\n  dup1\n  dup4\n  keccak256\n    /* \"contracts/ERC20StandardToken.sol\":4433:4461  _balances[account] += amount */\n  dup1\n  sload\n  dup7\n  add\n  swap1\n  sstore\n    /* \"contracts/ERC20StandardToken.sol\":4488:4525  Transfer(address(0), account, amount) */\n  mload\n    /* \"#utility.yul\":3468:3493   */\n  dup5\n  dup2\n  mstore\n    /* \"contracts/ERC20StandardToken.sol\":4488:4525  Transfer(address(0), account, amount) */\n  0xddf252ad1be2c89b69c2b068fc378daa952ba7f163c4a11628f55a4df523b3ef\n  swap2\n    /* \"#utility.yul\":3441:3459   */\n  add\n    /* \"contracts/ERC20StandardToken.sol\":4488:4525  Transfer(address(0), account, amount) */\n  mload(0x40)\n  dup1\n  swap2\n  sub\n  swap1\n  log3\n    /* \"contracts/ERC20StandardToken.sol\":4223:4533  function _mint(address account, uint256 amount) internal virtual {... */\n  pop\n  pop\n  jump\t// out\n    /* \"#utility.yul\":14:141   */\ntag_22:\n    /* \"#utility.yul\":75:85   */\n  0x4e487b71\n    /* \"#utility.yul\":70:73   */\n  0xe0\n    /* \"#utility.yul\":66:86   */\n  shl\n    /* \"#utility.yul\":63:64   */\n  0x00\n    /* \"#utility.yul\":56:87   */\n  mstore\n    /* \"#utility.yul\":106:110   */\n  0x41\n    /* \"#utility.yul\":103:104   */\n  0x04\n    /* \"#utility.yul\":96:111   */\n  mstore\n    /* \"#utility.yul\":130:134   */\n  0x24\n    /* \"#utility.yul\":127:128   */\n  0x00\n    /* \"#utility.yul\":120:135   */\n  revert\n    /* \"#utility.yul\":146:526   */\ntag_23:\n    /* \"#utility.yul\":225:226   */\n  0x01\n    /* \"#utility.yul\":221:233   */\n  dup2\n  dup2\n  shr\n  swap1\n    /* \"#utility.yul\":268:280   */\n  dup3\n  and\n  dup1\n    /* \"#utility.yul\":289:350   */\n  tag_30\n  jumpi\n    /* \"#utility.yul\":343:347   */\n  0x7f\n    /* \"#utility.yul\":335:341   */\n  dup3\n    /* \"#utility.yul\":331:348   */\n  and\n    /* \"#utility.yul\":321:348   */\n  swap2\n  pop\n    /* \"#utility.yul\":289:350   */\ntag_30:\n    /* \"#utility.yul\":396:398   */\n  0x20\n    /* \"#utility.yul\":388:394   */\n  dup3\n    /* \"#utility.yul\":385:399   */\n  lt\n    /* \"#utility.yul\":365:383   */\n  dup2\n    /* \"#utility.yul\":362:400   */\n  sub\n    /* \"#utility.yul\":359:520   */\n  tag_31\n  jumpi\n    /* \"#utility.yul\":442:452   */\n  0x4e487b71\n    /* \"#utility.yul\":437:440   */\n  0xe0\n    /* \"#utility.yul\":433:453   */\n  shl\n    /* \"#utility.yul\":430:431   */\n  0x00\n    /* \"#utility.yul\":423:454   */\n  mstore\n    /* \"#utility.yul\":477:481   */\n  0x22\n    /* \"#utility.yul\":474:475   */\n  0x04\n    /* \"#utility.yul\":467:482   */\n  mstore\n    /* \"#utility.yul\":505:509   */\n  0x24\n    /* \"#utility.yul\":502:503   */\n  0x00\n    /* \"#utility.yul\":495:510   */\n  revert\n    /* \"#utility.yul\":359:520   */\ntag_31:\n  pop\n    /* \"#utility.yul\":146:526   */\n  swap2\n  swap1\n  pop\n  jump\t// out\n    /* \"#utility.yul\":657:1202   */\ntag_25:\n    /* \"#utility.yul\":759:761   */\n  0x1f\n    /* \"#utility.yul\":754:757   */\n  dup3\n    /* \"#utility.yul\":751:762   */\n  gt\n    /* \"#utility.yul\":748:1196   */\n  iszero\n  tag_34\n  jumpi\n    /* \"#utility.yul\":795:796   */\n  0x00\n    /* \"#utility.yul\":820:825   */\n  dup2\n    /* \"#utility.yul\":816:818   */\n  dup2\n    /* \"#utility.yul\":809:826   */\n  mstore\n    /* \"#utility.yul\":865:869   */\n  0x20\n    /* \"#utility.yul\":861:863   */\n  dup2\n    /* \"#utility.yul\":851:870   */\n  keccak256\n    /* \"#utility.yul\":935:937   */\n  0x1f\n    /* \"#utility.yul\":923:933   */\n  dup6\n    /* \"#utility.yul\":919:938   */\n  add\n    /* \"#utility.yul\":916:917   */\n  0x05\n    /* \"#utility.yul\":912:939   */\n  shr\n    /* \"#utility.yul\":906:910   */\n  dup2\n    /* \"#utility.yul\":902:940   */\n  add\n    /* \"#utility.yul\":971:975   */\n  0x20\n    /* \"#utility.yul\":959:969   */\n  dup7\n    /* \"#utility.yul\":956:976   */\n  lt\n    /* \"#utility.yul\":953:1000   */\n  iszero\n  tag_35\n  jumpi\n  pop\n    /* \"#utility.yul\":994:998   */\n  dup1\n    /* \"#utility.yul\":953:1000   */\ntag_35:\n    /* \"#utility.yul\":1049:1051   */\n  0x1f\n    /* \"#utility.yul\":1044:1047   */\n  dup6\n    /* \"#utility.yul\":1040:1052   */\n  add\n    /* \"#utility.yul\":1037:1038   */\n  0x05\n    /* \"#utility.yul\":1033:1053   */\n  shr\n    /* \"#utility.yul\":1027:1031   */\n  dup3\n    /* \"#utility.yul\":1023:1054   */\n  add\n    /* \"#utility.yul\":1013:1054   */\n  swap2\n  pop\n    /* \"#utility.yul\":1104:1186   */\ntag_36:\n    /* \"#utility.yul\":1122:1124   */\n  dup2\n    /* \"#utility.yul\":1115:1120   */\n  dup2\n    /* \"#utility.yul\":1112:1125   */\n  lt\n    /* \"#utility.yul\":1104:1186   */\n  iszero\n  tag_38\n  jumpi\n    /* \"#utility.yul\":1167:1184   */\n  dup3\n  dup2\n  sstore\n    /* \"#utility.yul\":1148:1149   */\n  0x01\n    /* \"#utility.yul\":1137:1150   */\n  add\n    /* \"#utility.yul\":1104:1186   */\n  jump(tag_36)\ntag_38:\n    /* \"#utility.yul\":1108:1111   */\n  pop\n  pop\n  pop\n    /* \"#utility.yul\":748:1196   */\ntag_34:\n    /* \"#utility.yul\":657:1202   */\n  pop\n  pop\n  pop\n  jump\t// out\n    /* \"#utility.yul\":1378:2730   */\ntag_7:\n    /* \"#utility.yul\":1498:1508   */\n  dup2\n  mload\n  sub(shl(0x40, 0x01), 0x01)\n    /* \"#utility.yul\":1520:1550   */\n  dup2\n  gt\n    /* \"#utility.yul\":1517:1573   */\n  iszero\n  tag_42\n  jumpi\n    /* \"#utility.yul\":1553:1571   */\n  tag_42\n  tag_22\n  jump\t// in\ntag_42:\n    /* \"#utility.yul\":1582:1679   */\n  tag_43\n    /* \"#utility.yul\":1672:1678   */\n  dup2\n    /* \"#utility.yul\":1632:1670   */\n  tag_44\n    /* \"#utility.yul\":1664:1668   */\n  dup5\n    /* \"#utility.yul\":1658:1669   */\n  sload\n    /* \"#utility.yul\":1632:1670   */\n  tag_23\n  jump\t// in\ntag_44:\n    /* \"#utility.yul\":1626:1630   */\n  dup5\n    /* \"#utility.yul\":1582:1679   */\n  tag_25\n  jump\t// in\ntag_43:\n    /* \"#utility.yul\":1734:1738   */\n  0x20\n  dup1\n    /* \"#utility.yul\":1798:1800   */\n  0x1f\n    /* \"#utility.yul\":1787:1801   */\n  dup4\n  gt\n    /* \"#utility.yul\":1815:1816   */\n  0x01\n    /* \"#utility.yul\":1810:2473   */\n  dup2\n  eq\n  tag_46\n  jumpi\n    /* \"#utility.yul\":2517:2518   */\n  0x00\n    /* \"#utility.yul\":2534:2540   */\n  dup5\n    /* \"#utility.yul\":2531:2620   */\n  iszero\n  tag_47\n  jumpi\n  pop\n    /* \"#utility.yul\":2586:2605   */\n  dup6\n  dup4\n  add\n    /* \"#utility.yul\":2580:2606   */\n  mload\n    /* \"#utility.yul\":2531:2620   */\ntag_47:\n  not(0x00)\n    /* \"#utility.yul\":1335:1336   */\n  0x03\n    /* \"#utility.yul\":1331:1342   */\n  dup7\n  swap1\n  shl\n    /* \"#utility.yul\":1327:1351   */\n  shr\n    /* \"#utility.yul\":1323:1352   */\n  not\n    /* \"#utility.yul\":1313:1353   */\n  and\n    /* \"#utility.yul\":1359:1360   */\n  0x01\n    /* \"#utility.yul\":1355:1366   */\n  dup6\n  swap1\n  shl\n    /* \"#utility.yul\":1310:1367   */\n  or\n    /* \"#utility.yul\":2633:2714   */\n  dup6\n  sstore\n    /* \"#utility.yul\":1780:2724   */\n  jump(tag_38)\n    /* \"#utility.yul\":1810:2473   */\ntag_46:\n    /* \"#utility.yul\":604:605   */\n  0x00\n    /* \"#utility.yul\":597:611   */\n  dup6\n  dup2\n  mstore\n    /* \"#utility.yul\":641:645   */\n  0x20\n    /* \"#utility.yul\":628:646   */\n  dup2\n  keccak256\n  not(0x1f)\n    /* \"#utility.yul\":1846:1866   */\n  dup7\n  and\n  swap2\n    /* \"#utility.yul\":1964:2200   */\ntag_50:\n    /* \"#utility.yul\":1978:1985   */\n  dup3\n    /* \"#utility.yul\":1975:1976   */\n  dup2\n    /* \"#utility.yul\":1972:1986   */\n  lt\n    /* \"#utility.yul\":1964:2200   */\n  iszero\n  tag_52\n  jumpi\n    /* \"#utility.yul\":2067:2086   */\n  dup9\n  dup7\n  add\n    /* \"#utility.yul\":2061:2087   */\n  mload\n    /* \"#utility.yul\":2046:2088   */\n  dup3\n  sstore\n    /* \"#utility.yul\":2159:2186   */\n  swap5\n  dup5\n  add\n  swap5\n    /* \"#utility.yul\":2127:2128   */\n  0x01\n    /* \"#utility.yul\":2115:2129   */\n  swap1\n  swap2\n  add\n  swap1\n    /* \"#utility.yul\":1994:2013   */\n  dup5\n  add\n    /* \"#utility.yul\":1964:2200   */\n  jump(tag_50)\ntag_52:\n    /* \"#utility.yul\":1968:1971   */\n  pop\n    /* \"#utility.yul\":2228:2234   */\n  dup6\n    /* \"#utility.yul\":2219:2226   */\n  dup3\n    /* \"#utility.yul\":2216:2235   */\n  lt\n    /* \"#utility.yul\":2213:2414   */\n  iszero\n  tag_53\n  jumpi\n    /* \"#utility.yul\":2289:2308   */\n  dup8\n  dup6\n  add\n    /* \"#utility.yul\":2283:2309   */\n  mload\n  not(0x00)\n    /* \"#utility.yul\":2372:2373   */\n  0x03\n    /* \"#utility.yul\":2368:2382   */\n  dup9\n  swap1\n  shl\n    /* \"#utility.yul\":2384:2387   */\n  0xf8\n    /* \"#utility.yul\":2364:2388   */\n  and\n    /* \"#utility.yul\":2360:2397   */\n  shr\n    /* \"#utility.yul\":2356:2398   */\n  not\n    /* \"#utility.yul\":2341:2399   */\n  and\n    /* \"#utility.yul\":2326:2400   */\n  dup2\n  sstore\n    /* \"#utility.yul\":2213:2414   */\ntag_53:\n  pop\n  pop\n  pop\n  pop\n  pop\n    /* \"#utility.yul\":2460:2461   */\n  0x01\n    /* \"#utility.yul\":2444:2458   */\n  swap1\n  dup2\n  shl\n    /* \"#utility.yul\":2440:2462   */\n  add\n    /* \"#utility.yul\":2427:2463   */\n  swap1\n  sstore\n  pop\n    /* \"#utility.yul\":1378:2730   */\n  jump\t// out\n    /* \"#utility.yul\":3095:3317   */\ntag_19:\n    /* \"#utility.yul\":3160:3169   */\n  dup1\n  dup3\n  add\n    /* \"#utility.yul\":3181:3191   */\n  dup1\n  dup3\n  gt\n    /* \"#utility.yul\":3178:3311   */\n  iszero\n  tag_56\n  jumpi\n    /* \"#utility.yul\":3233:3243   */\n  0x4e487b71\n    /* \"#utility.yul\":3228:3231   */\n  0xe0\n    /* \"#utility.yul\":3224:3244   */\n  shl\n    /* \"#utility.yul\":3221:3222   */\n  0x00\n    /* \"#utility.yul\":3214:3245   */\n  mstore\n    /* \"#utility.yul\":3268:3272   */\n  0x11\n    /* \"#utility.yul\":3265:3266   */\n  0x04\n    /* \"#utility.yul\":3258:3273   */\n  mstore\n    /* \"#utility.yul\":3296:3300   */\n  0x24\n    /* \"#utility.yul\":3293:3294   */\n  0x00\n    /* \"#utility.yul\":3286:3301   */\n  revert\n    /* \"#utility.yul\":3178:3311   */\ntag_56:\n    /* \"#utility.yul\":3095:3317   */\n  swap3\n  swap2\n  pop\n  pop\n  jump\t// out\n    /* \"#utility.yul\":3322:3499   */\ntag_27:\n    /* \"contracts/ACB.sol\":794:3540  contract SteamCoin is ERC20StandardToken, Ownable {... */\n  mload(0x80)\n  codecopy(0x00, dataOffset(sub_0), dataSize(sub_0))\n  0x00\n  assignImmutable(\"0xde42dd6962fc6b7bedcd85491f0895cbe3cd0447b5121243c2e08009c0e8a450\")\n  return(0x00, dataSize(sub_0))\nstop\n\nsub_0: assembly {\n        /* \"contracts/ACB.sol\":794:3540  contract SteamCoin is ERC20StandardToken, Ownable {... */\n      mstore(0x40, 0x80)\n      callvalue\n      dup1\n      iszero\n      tag_1\n      jumpi\n      0x00\n      dup1\n      revert\n    tag_1:\n      pop\n      jumpi(tag_2, lt(calldatasize, 0x04))\n      shr(0xe0, calldataload(0x00))\n      dup1\n      0x06fdde03\n      eq\n      tag_3\n      jumpi\n      dup1\n      0x095ea7b3\n      eq\n      tag_4\n      jumpi\n      dup1\n      0x18160ddd\n      eq\n      tag_5\n      jumpi\n      dup1\n      0x23b872dd\n      eq\n      tag_6\n      jumpi\n      dup1\n      0x313ce567\n      eq\n      tag_7\n      jumpi\n      dup1\n      0x46bb9271\n      eq\n      tag_8\n      jumpi\n      dup1\n      0x70a08231\n      eq\n      tag_9\n      jumpi\n      dup1\n      0x8da5cb5b\n      eq\n      tag_10\n      jumpi\n      dup1\n      0x95d89b41\n      eq\n      tag_11\n      jumpi\n      dup1\n      0xa64177fb\n      eq\n      tag_12\n      jumpi\n      dup1\n      0xa9059cbb\n      eq\n      tag_13\n      jumpi\n      dup1\n      0xc66780b4\n      eq\n      tag_14\n      jumpi\n      dup1\n      0xdd62ed3e\n      eq\n      tag_15\n      jumpi\n      dup1\n      0xed9a165d\n      eq\n      tag_16\n      jumpi\n      dup1\n      0xf2fde38b\n      eq\n      tag_17\n      jumpi\n    tag_2:\n      0x00\n      dup1\n      revert\n        /* \"contracts/ERC20StandardToken.sol\":1375:1466  function name() public view virtual returns (string memory) {... */\n    tag_3:\n      tag_18\n      tag_19\n      jump\t// in\n    tag_18:\n      mload(0x40)\n      tag_20\n      swap2\n      swap1\n      tag_21\n      jump\t// in\n    tag_20:\n      mload(0x40)\n      dup1\n      swap2\n      sub\n      swap1\n      return\n        /* \"contracts/ERC20StandardToken.sol\":2154:2321  function approve(address spender, uint256 amount) public virtual override returns (bool) {... */\n    tag_4:\n      tag_22\n      tag_23\n      calldatasize\n      0x04\n      tag_24\n      jump\t// in\n    tag_23:\n      tag_25\n      jump\t// in\n    tag_22:\n      mload(0x40)\n        /* \"#utility.yul\":1169:1183   */\n      swap1\n      iszero\n        /* \"#utility.yul\":1162:1184   */\n      iszero\n        /* \"#utility.yul\":1144:1185   */\n      dup2\n      mstore\n        /* \"#utility.yul\":1132:1134   */\n      0x20\n        /* \"#utility.yul\":1117:1135   */\n      add\n        /* \"contracts/ERC20StandardToken.sol\":2154:2321  function approve(address spender, uint256 amount) public virtual override returns (bool) {... */\n      tag_20\n        /* \"#utility.yul\":1004:1191   */\n      jump\n        /* \"contracts/ERC20StandardToken.sol\":1575:1683  function totalSupply() public view virtual override returns (uint256) {... */\n    tag_5:\n        /* \"contracts/ERC20StandardToken.sol\":1663:1675  _totalSupply */\n      sload(0x04)\n        /* \"contracts/ERC20StandardToken.sol\":1575:1683  function totalSupply() public view virtual override returns (uint256) {... */\n    tag_28:\n      mload(0x40)\n        /* \"#utility.yul\":1342:1367   */\n      swap1\n      dup2\n      mstore\n        /* \"#utility.yul\":1330:1332   */\n      0x20\n        /* \"#utility.yul\":1315:1333   */\n      add\n        /* \"contracts/ERC20StandardToken.sol\":1575:1683  function totalSupply() public view virtual override returns (uint256) {... */\n      tag_20\n        /* \"#utility.yul\":1196:1373   */\n      jump\n        /* \"contracts/ERC20StandardToken.sol\":2329:2552  function transferFrom(address from, address to, uint256 amount) public virtual override returns (bool) {... */\n    tag_6:\n      tag_22\n      tag_33\n      calldatasize\n      0x04\n      tag_34\n      jump\t// in\n    tag_33:\n      tag_35\n      jump\t// in\n        /* \"contracts/ERC20StandardToken.sol\":1474:1565  function decimals() public view virtual returns (uint8) {... */\n    tag_7:\n      mload(0x40)\n        /* \"#utility.yul\":1883:1887   */\n      0xff\n        /* \"contracts/ERC20StandardToken.sol\":1548:1557  _decimals */\n      immutable(\"0xde42dd6962fc6b7bedcd85491f0895cbe3cd0447b5121243c2e08009c0e8a450\")\n        /* \"#utility.yul\":1871:1888   */\n      and\n        /* \"#utility.yul\":1853:1889   */\n      dup2\n      mstore\n        /* \"#utility.yul\":1841:1843   */\n      0x20\n        /* \"#utility.yul\":1826:1844   */\n      add\n        /* \"contracts/ERC20StandardToken.sol\":1474:1565  function decimals() public view virtual returns (uint8) {... */\n      tag_20\n        /* \"#utility.yul\":1711:1895   */\n      jump\n        /* \"contracts/ACB.sol\":3320:3400  function setBnbPair(address d) external onlyOwner {... */\n    tag_8:\n      tag_41\n      tag_42\n      calldatasize\n      0x04\n      tag_43\n      jump\t// in\n    tag_42:\n      tag_44\n      jump\t// in\n    tag_41:\n      stop\n        /* \"contracts/ERC20StandardToken.sol\":1691:1818  function balanceOf(address account) public view virtual override returns (uint256) {... */\n    tag_9:\n      tag_28\n      tag_46\n      calldatasize\n      0x04\n      tag_43\n      jump\t// in\n    tag_46:\n      sub(shl(0xa0, 0x01), 0x01)\n        /* \"contracts/ERC20StandardToken.sol\":1792:1810  _balances[account] */\n      and\n        /* \"contracts/ERC20StandardToken.sol\":1765:1772  uint256 */\n      0x00\n        /* \"contracts/ERC20StandardToken.sol\":1792:1810  _balances[account] */\n      swap1\n      dup2\n      mstore\n      0x20\n      dup2\n      swap1\n      mstore\n      0x40\n      swap1\n      keccak256\n      sload\n      swap1\n        /* \"contracts/ERC20StandardToken.sol\":1691:1818  function balanceOf(address account) public view virtual override returns (uint256) {... */\n      jump\n        /* \"contracts/ACB.sol\":477:497  address public owner */\n    tag_10:\n      sload(0x05)\n      tag_49\n      swap1\n      sub(shl(0xa0, 0x01), 0x01)\n      and\n      dup2\n      jump\n    tag_49:\n      mload(0x40)\n      sub(shl(0xa0, 0x01), 0x01)\n        /* \"#utility.yul\":2255:2287   */\n      swap1\n      swap2\n      and\n        /* \"#utility.yul\":2237:2288   */\n      dup2\n      mstore\n        /* \"#utility.yul\":2225:2227   */\n      0x20\n        /* \"#utility.yul\":2210:2228   */\n      add\n        /* \"contracts/ACB.sol\":477:497  address public owner */\n      tag_20\n        /* \"#utility.yul\":2091:2294   */\n      jump\n        /* \"contracts/ERC20StandardToken.sol\":1272:1367  function symbol() public view virtual returns (string memory) {... */\n    tag_11:\n      tag_18\n      tag_54\n      jump\t// in\n        /* \"contracts/ACB.sol\":3408:3537  function setD(address d) external onlyOwner {... */\n    tag_12:\n      tag_41\n      tag_57\n      calldatasize\n      0x04\n      tag_43\n      jump\t// in\n    tag_57:\n      tag_58\n      jump\t// in\n        /* \"contracts/ERC20StandardToken.sol\":1987:2146  function transfer(address to, uint256 amount) public virtual override returns (bool) {... */\n    tag_13:\n      tag_22\n      tag_60\n      calldatasize\n      0x04\n      tag_24\n      jump\t// in\n    tag_60:\n      tag_61\n      jump\t// in\n        /* \"contracts/ACB.sol\":851:863  D public c_d */\n    tag_14:\n      sload(0x06)\n      tag_49\n      swap1\n      sub(shl(0xa0, 0x01), 0x01)\n      and\n      dup2\n      jump\n        /* \"contracts/ERC20StandardToken.sol\":1826:1977  function allowance(address owner, address spender) public view virtual override returns (uint256) {... */\n    tag_15:\n      tag_28\n      tag_68\n      calldatasize\n      0x04\n      tag_69\n      jump\t// in\n    tag_68:\n      sub(shl(0xa0, 0x01), 0x01)\n        /* \"contracts/ERC20StandardToken.sol\":1942:1960  _allowances[owner] */\n      swap2\n      dup3\n      and\n        /* \"contracts/ERC20StandardToken.sol\":1915:1922  uint256 */\n      0x00\n        /* \"contracts/ERC20StandardToken.sol\":1942:1960  _allowances[owner] */\n      swap1\n      dup2\n      mstore\n        /* \"contracts/ERC20StandardToken.sol\":1942:1953  _allowances */\n      0x01\n        /* \"contracts/ERC20StandardToken.sol\":1942:1960  _allowances[owner] */\n      0x20\n      swap1\n      dup2\n      mstore\n      0x40\n      dup1\n      dup4\n      keccak256\n        /* \"contracts/ERC20StandardToken.sol\":1942:1969  _allowances[owner][spender] */\n      swap4\n      swap1\n      swap5\n      and\n      dup3\n      mstore\n      swap2\n      swap1\n      swap2\n      mstore\n      keccak256\n      sload\n      swap1\n        /* \"contracts/ERC20StandardToken.sol\":1826:1977  function allowance(address owner, address spender) public view virtual override returns (uint256) {... */\n      jump\n        /* \"contracts/ACB.sol\":872:895  address public  bnbPair */\n    tag_16:\n      sload(0x07)\n      tag_49\n      swap1\n      sub(shl(0xa0, 0x01), 0x01)\n      and\n      dup2\n      jump\n        /* \"contracts/ACB.sol\":690:787  function transferOwnership(address newOwner) public onlyOwner {... */\n    tag_17:\n      tag_41\n      tag_76\n      calldatasize\n      0x04\n      tag_43\n      jump\t// in\n    tag_76:\n      tag_77\n      jump\t// in\n        /* \"contracts/ERC20StandardToken.sol\":1375:1466  function name() public view virtual returns (string memory) {... */\n    tag_19:\n        /* \"contracts/ERC20StandardToken.sol\":1420:1433  string memory */\n      0x60\n        /* \"contracts/ERC20StandardToken.sol\":1453:1458  _name */\n      0x03\n        /* \"contracts/ERC20StandardToken.sol\":1446:1458  return _name */\n      dup1\n      sload\n      tag_79\n      swap1\n      tag_80\n      jump\t// in\n    tag_79:\n      dup1\n      0x1f\n      add\n      0x20\n      dup1\n      swap2\n      div\n      mul\n      0x20\n      add\n      mload(0x40)\n      swap1\n      dup2\n      add\n      0x40\n      mstore\n      dup1\n      swap3\n      swap2\n      swap1\n      dup2\n      dup2\n      mstore\n      0x20\n      add\n      dup3\n      dup1\n      sload\n      tag_81\n      swap1\n      tag_80\n      jump\t// in\n    tag_81:\n      dup1\n      iszero\n      tag_82\n      jumpi\n      dup1\n      0x1f\n      lt\n      tag_83\n      jumpi\n      0x0100\n      dup1\n      dup4\n      sload\n      div\n      mul\n      dup4\n      mstore\n      swap2\n      0x20\n      add\n      swap2\n      jump(tag_82)\n    tag_83:\n      dup3\n      add\n      swap2\n      swap1\n      0x00\n      mstore\n      keccak256(0x00, 0x20)\n      swap1\n    tag_84:\n      dup2\n      sload\n      dup2\n      mstore\n      swap1\n      0x01\n      add\n      swap1\n      0x20\n      add\n      dup1\n      dup4\n      gt\n      tag_84\n      jumpi\n      dup3\n      swap1\n      sub\n      0x1f\n      and\n      dup3\n      add\n      swap2\n    tag_82:\n      pop\n      pop\n      pop\n      pop\n      pop\n      swap1\n      pop\n        /* \"contracts/ERC20StandardToken.sol\":1375:1466  function name() public view virtual returns (string memory) {... */\n      swap1\n      jump\t// out\n        /* \"contracts/ERC20StandardToken.sol\":2154:2321  function approve(address spender, uint256 amount) public virtual override returns (bool) {... */\n    tag_25:\n        /* \"contracts/ERC20StandardToken.sol\":2237:2241  bool */\n      0x00\n        /* \"contracts/ERC20StandardToken.sol\":2254:2291  _approve(msg.sender, spender, amount) */\n      tag_86\n        /* \"contracts/ERC20StandardToken.sol\":2263:2273  msg.sender */\n      caller\n        /* \"contracts/ERC20StandardToken.sol\":2275:2282  spender */\n      dup5\n        /* \"contracts/ERC20StandardToken.sol\":2284:2290  amount */\n      dup5\n        /* \"contracts/ERC20StandardToken.sol\":2254:2262  _approve */\n      tag_87\n        /* \"contracts/ERC20StandardToken.sol\":2254:2291  _approve(msg.sender, spender, amount) */\n      jump\t// in\n    tag_86:\n      pop\n        /* \"contracts/ERC20StandardToken.sol\":2309:2313  true */\n      0x01\n        /* \"contracts/ERC20StandardToken.sol\":2154:2321  function approve(address spender, uint256 amount) public virtual override returns (bool) {... */\n      swap3\n      swap2\n      pop\n      pop\n      jump\t// out\n        /* \"contracts/ERC20StandardToken.sol\":2329:2552  function transferFrom(address from, address to, uint256 amount) public virtual override returns (bool) {... */\n    tag_35:\n        /* \"contracts/ERC20StandardToken.sol\":2426:2430  bool */\n      0x00\n        /* \"contracts/ERC20StandardToken.sol\":2443:2484  _spendAllowance(from, msg.sender, amount) */\n      tag_90\n        /* \"contracts/ERC20StandardToken.sol\":2459:2463  from */\n      dup5\n        /* \"contracts/ERC20StandardToken.sol\":2465:2475  msg.sender */\n      caller\n        /* \"contracts/ERC20StandardToken.sol\":2477:2483  amount */\n      dup5\n        /* \"contracts/ERC20StandardToken.sol\":2443:2458  _spendAllowance */\n      tag_91\n        /* \"contracts/ERC20StandardToken.sol\":2443:2484  _spendAllowance(from, msg.sender, amount) */\n      jump\t// in\n    tag_90:\n        /* \"contracts/ERC20StandardToken.sol\":2495:2522  _transfer(from, to, amount) */\n      tag_92\n        /* \"contracts/ERC20StandardToken.sol\":2505:2509  from */\n      dup5\n        /* \"contracts/ERC20StandardToken.sol\":2511:2513  to */\n      dup5\n        /* \"contracts/ERC20StandardToken.sol\":2515:2521  amount */\n      dup5\n        /* \"contracts/ERC20StandardToken.sol\":2495:2504  _transfer */\n      tag_93\n        /* \"contracts/ERC20StandardToken.sol\":2495:2522  _transfer(from, to, amount) */\n      jump\t// in\n    tag_92:\n      pop\n        /* \"contracts/ERC20StandardToken.sol\":2540:2544  true */\n      0x01\n        /* \"contracts/ERC20StandardToken.sol\":2329:2552  function transferFrom(address from, address to, uint256 amount) public virtual override returns (bool) {... */\n      swap4\n      swap3\n      pop\n      pop\n      pop\n      jump\t// out\n        /* \"contracts/ACB.sol\":3320:3400  function setBnbPair(address d) external onlyOwner {... */\n    tag_44:\n        /* \"contracts/ACB.sol\":606:611  owner */\n      and(sub(shl(0xa0, 0x01), 0x01), sload(0x05))\n        /* \"contracts/ACB.sol\":615:625  msg.sender */\n      caller\n        /* \"contracts/ACB.sol\":606:625  owner == msg.sender */\n      eq\n        /* \"contracts/ACB.sol\":598:662  require(owner == msg.sender, \"Ownable: caller is not the owner\") */\n      tag_96\n      jumpi\n      mload(0x40)\n      shl(0xe5, 0x461bcd)\n      dup2\n      mstore\n      0x04\n      add\n      tag_97\n      swap1\n      tag_98\n      jump\t// in\n    tag_97:\n      mload(0x40)\n      dup1\n      swap2\n      sub\n      swap1\n      revert\n    tag_96:\n        /* \"contracts/ACB.sol\":3381:3388  bnbPair */\n      0x07\n        /* \"contracts/ACB.sol\":3381:3392  bnbPair = d */\n      dup1\n      sload\n      not(sub(shl(0xa0, 0x01), 0x01))\n      and\n      sub(shl(0xa0, 0x01), 0x01)\n      swap3\n      swap1\n      swap3\n      and\n      swap2\n      swap1\n      swap2\n      or\n      swap1\n      sstore\n        /* \"contracts/ACB.sol\":3320:3400  function setBnbPair(address d) external onlyOwner {... */\n      jump\t// out\n        /* \"contracts/ERC20StandardToken.sol\":1272:1367  function symbol() public view virtual returns (string memory) {... */\n    tag_54:\n        /* \"contracts/ERC20StandardToken.sol\":1319:1332  string memory */\n      0x60\n        /* \"contracts/ERC20StandardToken.sol\":1352:1359  _symbol */\n      0x02\n        /* \"contracts/ERC20StandardToken.sol\":1345:1359  return _symbol */\n      dup1\n      sload\n      tag_79\n      swap1\n      tag_80\n      jump\t// in\n        /* \"contracts/ACB.sol\":3408:3537  function setD(address d) external onlyOwner {... */\n    tag_58:\n        /* \"contracts/ACB.sol\":606:611  owner */\n      and(sub(shl(0xa0, 0x01), 0x01), sload(0x05))\n        /* \"contracts/ACB.sol\":615:625  msg.sender */\n      caller\n        /* \"contracts/ACB.sol\":606:625  owner == msg.sender */\n      eq\n        /* \"contracts/ACB.sol\":598:662  require(owner == msg.sender, \"Ownable: caller is not the owner\") */\n      tag_108\n      jumpi\n      mload(0x40)\n      shl(0xe5, 0x461bcd)\n      dup2\n      mstore\n      0x04\n      add\n      tag_97\n      swap1\n      tag_98\n      jump\t// in\n    tag_108:\n        /* \"contracts/ACB.sol\":3463:3466  c_d */\n      0x06\n        /* \"contracts/ACB.sol\":3463:3473  c_d = D(d) */\n      dup1\n      sload\n      not(sub(shl(0xa0, 0x01), 0x01))\n      and\n      sub(shl(0xa0, 0x01), 0x01)\n      dup4\n      and\n      or\n      swap1\n      sstore\n        /* \"contracts/ACB.sol\":3484:3529  _approve(address(this), d, type(uint256).max) */\n      tag_111\n        /* \"contracts/ACB.sol\":3501:3505  this */\n      address\n        /* \"contracts/ACB.sol\":3463:3473  c_d = D(d) */\n      dup3\n      not(0x00)\n        /* \"contracts/ACB.sol\":3484:3492  _approve */\n      tag_87\n        /* \"contracts/ACB.sol\":3484:3529  _approve(address(this), d, type(uint256).max) */\n      jump\t// in\n    tag_111:\n        /* \"contracts/ACB.sol\":3408:3537  function setD(address d) external onlyOwner {... */\n      pop\n      jump\t// out\n        /* \"contracts/ERC20StandardToken.sol\":1987:2146  function transfer(address to, uint256 amount) public virtual override returns (bool) {... */\n    tag_61:\n        /* \"contracts/ERC20StandardToken.sol\":2066:2070  bool */\n      0x00\n        /* \"contracts/ERC20StandardToken.sol\":2083:2116  _transfer(msg.sender, to, amount) */\n      tag_86\n        /* \"contracts/ERC20StandardToken.sol\":2093:2103  msg.sender */\n      caller\n        /* \"contracts/ERC20StandardToken.sol\":2105:2107  to */\n      dup5\n        /* \"contracts/ERC20StandardToken.sol\":2109:2115  amount */\n      dup5\n        /* \"contracts/ERC20StandardToken.sol\":2083:2092  _transfer */\n      tag_93\n        /* \"contracts/ERC20StandardToken.sol\":2083:2116  _transfer(msg.sender, to, amount) */\n      jump\t// in\n        /* \"contracts/ACB.sol\":690:787  function transferOwnership(address newOwner) public onlyOwner {... */\n    tag_77:\n        /* \"contracts/ACB.sol\":606:611  owner */\n      and(sub(shl(0xa0, 0x01), 0x01), sload(0x05))\n        /* \"contracts/ACB.sol\":615:625  msg.sender */\n      caller\n        /* \"contracts/ACB.sol\":606:625  owner == msg.sender */\n      eq\n        /* \"contracts/ACB.sol\":598:662  require(owner == msg.sender, \"Ownable: caller is not the owner\") */\n      tag_116\n      jumpi\n      mload(0x40)\n      shl(0xe5, 0x461bcd)\n      dup2\n      mstore\n      0x04\n      add\n      tag_97\n      swap1\n      tag_98\n      jump\t// in\n    tag_116:\n        /* \"contracts/ACB.sol\":763:768  owner */\n      0x05\n        /* \"contracts/ACB.sol\":763:779  owner = newOwner */\n      dup1\n      sload\n      not(sub(shl(0xa0, 0x01), 0x01))\n      and\n      sub(shl(0xa0, 0x01), 0x01)\n      swap3\n      swap1\n      swap3\n      and\n      swap2\n      swap1\n      swap2\n      or\n      swap1\n      sstore\n        /* \"contracts/ACB.sol\":690:787  function transferOwnership(address newOwner) public onlyOwner {... */\n      jump\t// out\n        /* \"contracts/ERC20StandardToken.sol\":4029:4215  function _approve(address owner, address spender, uint256 amount) internal virtual {... */\n    tag_87:\n      sub(shl(0xa0, 0x01), 0x01)\n        /* \"contracts/ERC20StandardToken.sol\":4123:4141  _allowances[owner] */\n      dup4\n      dup2\n      and\n      0x00\n      dup2\n      dup2\n      mstore\n        /* \"contracts/ERC20StandardToken.sol\":4123:4134  _allowances */\n      0x01\n        /* \"contracts/ERC20StandardToken.sol\":4123:4141  _allowances[owner] */\n      0x20\n      swap1\n      dup2\n      mstore\n      0x40\n      dup1\n      dup4\n      keccak256\n        /* \"contracts/ERC20StandardToken.sol\":4123:4150  _allowances[owner][spender] */\n      swap5\n      dup8\n      and\n      dup1\n      dup5\n      mstore\n      swap5\n      dup3\n      mstore\n      swap2\n      dup3\n      swap1\n      keccak256\n        /* \"contracts/ERC20StandardToken.sol\":4123:4159  _allowances[owner][spender] = amount */\n      dup6\n      swap1\n      sstore\n        /* \"contracts/ERC20StandardToken.sol\":4175:4207  Approval(owner, spender, amount) */\n      swap1\n      mload\n        /* \"#utility.yul\":1342:1367   */\n      dup5\n      dup2\n      mstore\n        /* \"contracts/ERC20StandardToken.sol\":4175:4207  Approval(owner, spender, amount) */\n      0x8c5be1e5ebec7d5bd14f71427d1e84f3dd0314c0f7b2291e5b200ac8c7c3b925\n      swap2\n        /* \"#utility.yul\":1315:1333   */\n      add\n        /* \"contracts/ERC20StandardToken.sol\":4175:4207  Approval(owner, spender, amount) */\n    tag_120:\n      mload(0x40)\n      dup1\n      swap2\n      sub\n      swap1\n      log3\n        /* \"contracts/ERC20StandardToken.sol\":4029:4215  function _approve(address owner, address spender, uint256 amount) internal virtual {... */\n      pop\n      pop\n      pop\n      jump\t// out\n        /* \"contracts/ERC20StandardToken.sol\":3600:4021  function _spendAllowance(address owner, address spender, uint256 amount) internal virtual {... */\n    tag_91:\n      sub(shl(0xa0, 0x01), 0x01)\n        /* \"contracts/ERC20StandardToken.sol\":3728:3746  _allowances[owner] */\n      dup1\n      dup5\n      and\n        /* \"contracts/ERC20StandardToken.sol\":3701:3725  uint256 currentAllowance */\n      0x00\n        /* \"contracts/ERC20StandardToken.sol\":3728:3746  _allowances[owner] */\n      swap1\n      dup2\n      mstore\n        /* \"contracts/ERC20StandardToken.sol\":3728:3739  _allowances */\n      0x01\n        /* \"contracts/ERC20StandardToken.sol\":3728:3746  _allowances[owner] */\n      0x20\n      swap1\n      dup2\n      mstore\n      0x40\n      dup1\n      dup4\n      keccak256\n        /* \"contracts/ERC20StandardToken.sol\":3728:3755  _allowances[owner][spender] */\n      swap4\n      dup7\n      and\n      dup4\n      mstore\n      swap3\n      swap1\n      mstore\n      keccak256\n      sload\n      not(0x00)\n        /* \"contracts/ERC20StandardToken.sol\":3770:3807  currentAllowance != type(uint256).max */\n      dup2\n      eq\n        /* \"contracts/ERC20StandardToken.sol\":3766:4014  if (currentAllowance != type(uint256).max) {... */\n      tag_126\n      jumpi\n        /* \"contracts/ERC20StandardToken.sol\":3852:3858  amount */\n      dup2\n        /* \"contracts/ERC20StandardToken.sol\":3832:3848  currentAllowance */\n      dup2\n        /* \"contracts/ERC20StandardToken.sol\":3832:3858  currentAllowance >= amount */\n      lt\n      iszero\n        /* \"contracts/ERC20StandardToken.sol\":3824:3892  require(currentAllowance >= amount, \"ERC20: insufficient allowance\") */\n      tag_123\n      jumpi\n      mload(0x40)\n      shl(0xe5, 0x461bcd)\n      dup2\n      mstore\n        /* \"#utility.yul\":3728:3730   */\n      0x20\n        /* \"contracts/ERC20StandardToken.sol\":3824:3892  require(currentAllowance >= amount, \"ERC20: insufficient allowance\") */\n      0x04\n      dup3\n      add\n        /* \"#utility.yul\":3710:3731   */\n      mstore\n        /* \"#utility.yul\":3767:3769   */\n      0x1d\n        /* \"#utility.yul\":3747:3765   */\n      0x24\n      dup3\n      add\n        /* \"#utility.yul\":3740:3770   */\n      mstore\n        /* \"#utility.yul\":3806:3837   */\n      0x45524332303a20696e73756666696369656e7420616c6c6f77616e6365000000\n        /* \"#utility.yul\":3786:3804   */\n      0x44\n      dup3\n      add\n        /* \"#utility.yul\":3779:3838   */\n      mstore\n        /* \"#utility.yul\":3855:3873   */\n      0x64\n      add\n        /* \"contracts/ERC20StandardToken.sol\":3824:3892  require(currentAllowance >= amount, \"ERC20: insufficient allowance\") */\n      tag_97\n        /* \"#utility.yul\":3526:3879   */\n      jump\n        /* \"contracts/ERC20StandardToken.sol\":3824:3892  require(currentAllowance >= amount, \"ERC20: insufficient allowance\") */\n    tag_123:\n        /* \"contracts/ERC20StandardToken.sol\":3936:3987  _approve(owner, spender, currentAllowance - amount) */\n      tag_126\n        /* \"contracts/ERC20StandardToken.sol\":3945:3950  owner */\n      dup5\n        /* \"contracts/ERC20StandardToken.sol\":3952:3959  spender */\n      dup5\n        /* \"contracts/ERC20StandardToken.sol\":3980:3986  amount */\n      dup5\n        /* \"contracts/ERC20StandardToken.sol\":3961:3977  currentAllowance */\n      dup5\n        /* \"contracts/ERC20StandardToken.sol\":3961:3986  currentAllowance - amount */\n      sub\n        /* \"contracts/ERC20StandardToken.sol\":3936:3944  _approve */\n      tag_87\n        /* \"contracts/ERC20StandardToken.sol\":3936:3987  _approve(owner, spender, currentAllowance - amount) */\n      jump\t// in\n    tag_126:\n        /* \"contracts/ERC20StandardToken.sol\":3690:4021  {... */\n      pop\n        /* \"contracts/ERC20StandardToken.sol\":3600:4021  function _spendAllowance(address owner, address spender, uint256 amount) internal virtual {... */\n      pop\n      pop\n      pop\n      jump\t// out\n        /* \"contracts/ACB.sol\":2167:3314  function _transfer(address from, address to, uint256 amount) internal override {... */\n    tag_93:\n        /* \"contracts/ACB.sol\":2283:2290  bnbPair */\n      sload(0x07)\n      sub(shl(0xa0, 0x01), 0x01)\n      swap1\n      dup2\n      and\n      swap1\n        /* \"contracts/ACB.sol\":2304:2317  from != pair_ */\n      dup5\n      and\n      dup2\n      eq\n      dup1\n      iszero\n      swap1\n        /* \"contracts/ACB.sol\":2304:2332  from != pair_ && to != pair_ */\n      tag_128\n      jumpi\n      pop\n        /* \"contracts/ACB.sol\":2327:2332  pair_ */\n      dup1\n      sub(shl(0xa0, 0x01), 0x01)\n        /* \"contracts/ACB.sol\":2321:2332  to != pair_ */\n      and\n        /* \"contracts/ACB.sol\":2321:2323  to */\n      dup4\n      sub(shl(0xa0, 0x01), 0x01)\n        /* \"contracts/ACB.sol\":2321:2332  to != pair_ */\n      and\n      eq\n      iszero\n        /* \"contracts/ACB.sol\":2304:2332  from != pair_ && to != pair_ */\n    tag_128:\n        /* \"contracts/ACB.sol\":2301:2415  if(from != pair_ && to != pair_) {... */\n      iszero\n      tag_129\n      jumpi\n        /* \"contracts/ACB.sol\":2349:2382  super._transfer(from, to, amount) */\n      tag_126\n        /* \"contracts/ACB.sol\":2365:2369  from */\n      dup5\n        /* \"contracts/ACB.sol\":2371:2373  to */\n      dup5\n        /* \"contracts/ACB.sol\":2375:2381  amount */\n      dup5\n        /* \"contracts/ACB.sol\":2349:2364  super._transfer */\n      tag_131\n        /* \"contracts/ACB.sol\":2349:2382  super._transfer(from, to, amount) */\n      jump\t// in\n        /* \"contracts/ACB.sol\":2301:2415  if(from != pair_ && to != pair_) {... */\n    tag_129:\n        /* \"contracts/ACB.sol\":2425:2456  _subSenderBalance(from, amount) */\n      tag_132\n        /* \"contracts/ACB.sol\":2443:2447  from */\n      dup5\n        /* \"contracts/ACB.sol\":2449:2455  amount */\n      dup4\n        /* \"contracts/ACB.sol\":2425:2442  _subSenderBalance */\n      tag_133\n        /* \"contracts/ACB.sol\":2425:2456  _subSenderBalance(from, amount) */\n      jump\t// in\n    tag_132:\n        /* \"contracts/ACB.sol\":2510:2513  100 */\n      0x64\n        /* \"contracts/ACB.sol\":2503:2513  amount/100 */\n      dup3\n      div\n        /* \"contracts/ACB.sol\":2528:2574  _addReceiverBalance(from, operationAddress, o) */\n      tag_137\n        /* \"contracts/ACB.sol\":2548:2552  from */\n      dup6\n        /* \"contracts/ACB.sol\":958:1000  0xbF1c5C87b4b0F37443819CBB956215982D9F8A4b */\n      0xbf1c5c87b4b0f37443819cbb956215982d9f8a4b\n        /* \"contracts/ACB.sol\":2503:2513  amount/100 */\n      dup4\n        /* \"contracts/ACB.sol\":2528:2547  _addReceiverBalance */\n      tag_138\n        /* \"contracts/ACB.sol\":2528:2574  _addReceiverBalance(from, operationAddress, o) */\n      jump\t// in\n    tag_137:\n        /* \"contracts/ACB.sol\":2589:2630  _addReceiverBalance(from, nodeAddress, o) */\n      tag_139\n        /* \"contracts/ACB.sol\":2609:2613  from */\n      dup6\n        /* \"contracts/ACB.sol\":1055:1097  0x000000000000000000000000000000000000dEaD */\n      0xdead\n        /* \"contracts/ACB.sol\":2628:2629  o */\n      dup4\n        /* \"contracts/ACB.sol\":2589:2608  _addReceiverBalance */\n      tag_138\n        /* \"contracts/ACB.sol\":2589:2630  _addReceiverBalance(from, nodeAddress, o) */\n      jump\t// in\n    tag_139:\n        /* \"contracts/ACB.sol\":2656:2659  c_d */\n      and(sub(shl(0xa0, 0x01), 0x01), sload(0x06))\n        /* \"contracts/ACB.sol\":2645:3296  if(address(c_d) == address(0)) {... */\n      tag_140\n      jumpi\n        /* \"contracts/ACB.sol\":2695:2738  _addReceiverBalance(from, to, amount - 2*o) */\n      tag_141\n        /* \"contracts/ACB.sol\":2715:2719  from */\n      dup6\n        /* \"contracts/ACB.sol\":2721:2723  to */\n      dup6\n        /* \"contracts/ACB.sol\":2736:2737  o */\n      dup4\n        /* \"contracts/ACB.sol\":2734:2735  2 */\n      0x02\n        /* \"contracts/ACB.sol\":2734:2737  2*o */\n      mul\n        /* \"contracts/ACB.sol\":2725:2731  amount */\n      dup7\n        /* \"contracts/ACB.sol\":2725:2737  amount - 2*o */\n      sub\n        /* \"contracts/ACB.sol\":2695:2714  _addReceiverBalance */\n      tag_138\n        /* \"contracts/ACB.sol\":2695:2738  _addReceiverBalance(from, to, amount - 2*o) */\n      jump\t// in\n    tag_141:\n        /* \"contracts/ACB.sol\":2645:3296  if(address(c_d) == address(0)) {... */\n      jump(tag_154)\n    tag_140:\n        /* \"contracts/ACB.sol\":2777:2820  _addReceiverBalance(from, address(this), o) */\n      tag_143\n        /* \"contracts/ACB.sol\":2797:2801  from */\n      dup6\n        /* \"contracts/ACB.sol\":2811:2815  this */\n      address\n        /* \"contracts/ACB.sol\":2818:2819  o */\n      dup4\n        /* \"contracts/ACB.sol\":2777:2796  _addReceiverBalance */\n      tag_138\n        /* \"contracts/ACB.sol\":2777:2820  _addReceiverBalance(from, address(this), o) */\n      jump\t// in\n    tag_143:\n        /* \"contracts/ACB.sol\":2839:2882  _addReceiverBalance(from, to, amount - 3*o) */\n      tag_144\n        /* \"contracts/ACB.sol\":2859:2863  from */\n      dup6\n        /* \"contracts/ACB.sol\":2865:2867  to */\n      dup6\n        /* \"contracts/ACB.sol\":2880:2881  o */\n      dup4\n        /* \"contracts/ACB.sol\":2878:2879  3 */\n      0x03\n        /* \"contracts/ACB.sol\":2878:2881  3*o */\n      mul\n        /* \"contracts/ACB.sol\":2869:2875  amount */\n      dup7\n        /* \"contracts/ACB.sol\":2869:2881  amount - 3*o */\n      sub\n        /* \"contracts/ACB.sol\":2839:2858  _addReceiverBalance */\n      tag_138\n        /* \"contracts/ACB.sol\":2839:2882  _addReceiverBalance(from, to, amount - 3*o) */\n      jump\t// in\n    tag_144:\n        /* \"contracts/ACB.sol\":3002:3005  c_d */\n      sload(0x06)\n        /* \"contracts/ACB.sol\":3002:3027  c_d.processReward(o,from) */\n      mload(0x40)\n      shl(0xe5, 0x06e9656b)\n      dup2\n      mstore\n      0x04\n      dup2\n      add\n        /* \"#utility.yul\":4190:4215   */\n      dup4\n      swap1\n      mstore\n      sub(shl(0xa0, 0x01), 0x01)\n        /* \"#utility.yul\":4251:4283   */\n      dup8\n      dup2\n      and\n        /* \"#utility.yul\":4231:4249   */\n      0x24\n      dup4\n      add\n        /* \"#utility.yul\":4224:4284   */\n      mstore\n        /* \"contracts/ACB.sol\":3002:3005  c_d */\n      swap1\n      swap2\n      and\n      swap1\n        /* \"contracts/ACB.sol\":3002:3019  c_d.processReward */\n      0xdd2cad60\n      swap1\n        /* \"#utility.yul\":4163:4181   */\n      0x44\n      add\n        /* \"contracts/ACB.sol\":3002:3027  c_d.processReward(o,from) */\n      0x20\n      mload(0x40)\n      dup1\n      dup4\n      sub\n      dup2\n      0x00\n      dup8\n      gas\n      call\n      swap3\n      pop\n      pop\n      pop\n      dup1\n      iszero\n      tag_147\n      jumpi\n      pop\n      0x40\n      dup1\n      mload\n      0x1f\n      returndatasize\n      swap1\n      dup2\n      add\n      not(0x1f)\n      and\n      dup3\n      add\n      swap1\n      swap3\n      mstore\n      tag_148\n      swap2\n      dup2\n      add\n      swap1\n      tag_149\n      jump\t// in\n    tag_148:\n      0x01\n    tag_147:\n        /* \"contracts/ACB.sol\":2998:3281  try c_d.processReward(o,from)returns (uint256 res) {... */\n      iszero\n      tag_154\n      jumpi\n        /* \"contracts/ACB.sol\":3075:3078  res */\n      dup1\n        /* \"contracts/ACB.sol\":3082:3083  0 */\n      0x00\n        /* \"contracts/ACB.sol\":3075:3083  res == 0 */\n      sub\n        /* \"contracts/ACB.sol\":3072:3173  if(res == 0) {... */\n      tag_156\n      jumpi\n        /* \"contracts/ACB.sol\":3112:3149  super._transfer(address(this), to, o) */\n      tag_156\n        /* \"contracts/ACB.sol\":3136:3140  this */\n      address\n        /* \"contracts/ACB.sol\":3143:3145  to */\n      dup7\n        /* \"contracts/ACB.sol\":3147:3148  o */\n      dup5\n        /* \"contracts/ACB.sol\":3112:3127  super._transfer */\n      tag_131\n        /* \"contracts/ACB.sol\":3112:3149  super._transfer(address(this), to, o) */\n      jump\t// in\n    tag_156:\n        /* \"contracts/ACB.sol\":3027:3192  returns (uint256 res) {... */\n      pop\n        /* \"contracts/ACB.sol\":2998:3281  try c_d.processReward(o,from)returns (uint256 res) {... */\n    tag_154:\n        /* \"contracts/ACB.sol\":2467:3307  unchecked{... */\n      pop\n        /* \"contracts/ACB.sol\":2246:3314  {... */\n      pop\n        /* \"contracts/ACB.sol\":2167:3314  function _transfer(address from, address to, uint256 amount) internal override {... */\n      pop\n      pop\n      pop\n      jump\t// out\n        /* \"contracts/ERC20StandardToken.sol\":2562:2944  function _transfer(address from, address to, uint256 amount) internal virtual {... */\n    tag_131:\n      sub(shl(0xa0, 0x01), 0x01)\n        /* \"contracts/ERC20StandardToken.sol\":2673:2688  _balances[from] */\n      dup4\n      and\n        /* \"contracts/ERC20StandardToken.sol\":2651:2670  uint256 fromBalance */\n      0x00\n        /* \"contracts/ERC20StandardToken.sol\":2673:2688  _balances[from] */\n      swap1\n      dup2\n      mstore\n      0x20\n      dup2\n      swap1\n      mstore\n      0x40\n      swap1\n      keccak256\n      sload\n        /* \"contracts/ERC20StandardToken.sol\":2707:2728  fromBalance >= amount */\n      dup2\n      dup2\n      lt\n      iszero\n        /* \"contracts/ERC20StandardToken.sol\":2699:2771  require(fromBalance >= amount, \"ERC20: transfer amount exceeds balance\") */\n      tag_158\n      jumpi\n      mload(0x40)\n      shl(0xe5, 0x461bcd)\n      dup2\n      mstore\n      0x04\n      add\n      tag_97\n      swap1\n      tag_160\n      jump\t// in\n    tag_158:\n      sub(shl(0xa0, 0x01), 0x01)\n        /* \"contracts/ERC20StandardToken.sol\":2807:2822  _balances[from] */\n      dup5\n      dup2\n      and\n        /* \"contracts/ERC20StandardToken.sol\":2807:2816  _balances */\n      0x00\n        /* \"contracts/ERC20StandardToken.sol\":2807:2822  _balances[from] */\n      dup2\n      dup2\n      mstore\n      0x20\n      dup2\n      dup2\n      mstore\n      0x40\n      dup1\n      dup4\n      keccak256\n        /* \"contracts/ERC20StandardToken.sol\":2825:2845  fromBalance - amount */\n      dup8\n      dup8\n      sub\n        /* \"contracts/ERC20StandardToken.sol\":2807:2845  _balances[from] = fromBalance - amount */\n      swap1\n      sstore\n        /* \"contracts/ERC20StandardToken.sol\":2860:2873  _balances[to] */\n      swap4\n      dup8\n      and\n      dup1\n      dup4\n      mstore\n      swap2\n      dup5\n      swap1\n      keccak256\n        /* \"contracts/ERC20StandardToken.sol\":2860:2883  _balances[to] += amount */\n      dup1\n      sload\n      dup8\n      add\n      swap1\n      sstore\n        /* \"contracts/ERC20StandardToken.sol\":2910:2936  Transfer(from, to, amount) */\n      swap3\n      mload\n        /* \"#utility.yul\":1342:1367   */\n      dup6\n      dup2\n      mstore\n        /* \"contracts/ERC20StandardToken.sol\":2860:2873  _balances[to] */\n      swap1\n      swap3\n      0x00\n      dup1\n      mload\n      0x20\n      data_ada389e1fc24a8587c776340efb91b36e675792ab631816100d55df0b5cf3cbc\n      dup4\n      codecopy\n      dup2\n      mload\n      swap2\n      mstore\n        /* \"contracts/ERC20StandardToken.sol\":2910:2936  Transfer(from, to, amount) */\n      swap2\n        /* \"#utility.yul\":1315:1333   */\n      add\n        /* \"contracts/ERC20StandardToken.sol\":2910:2936  Transfer(from, to, amount) */\n      mload(0x40)\n      dup1\n      swap2\n      sub\n      swap1\n      log3\n        /* \"contracts/ERC20StandardToken.sol\":2640:2944  {... */\n      pop\n        /* \"contracts/ERC20StandardToken.sol\":2562:2944  function _transfer(address from, address to, uint256 amount) internal virtual {... */\n      pop\n      pop\n      pop\n      jump\t// out\n        /* \"contracts/ERC20StandardToken.sol\":3078:3376  function _subSenderBalance(address from, uint256 amount) internal virtual {... */\n    tag_133:\n      sub(shl(0xa0, 0x01), 0x01)\n        /* \"contracts/ERC20StandardToken.sol\":3185:3200  _balances[from] */\n      dup3\n      and\n        /* \"contracts/ERC20StandardToken.sol\":3163:3182  uint256 fromBalance */\n      0x00\n        /* \"contracts/ERC20StandardToken.sol\":3185:3200  _balances[from] */\n      swap1\n      dup2\n      mstore\n      0x20\n      dup2\n      swap1\n      mstore\n      0x40\n      swap1\n      keccak256\n      sload\n        /* \"contracts/ERC20StandardToken.sol\":3219:3240  fromBalance >= amount */\n      dup2\n      dup2\n      lt\n      iszero\n        /* \"contracts/ERC20StandardToken.sol\":3211:3283  require(fromBalance >= amount, \"ERC20: transfer amount exceeds balance\") */\n      tag_163\n      jumpi\n      mload(0x40)\n      shl(0xe5, 0x461bcd)\n      dup2\n      mstore\n      0x04\n      add\n      tag_97\n      swap1\n      tag_160\n      jump\t// in\n    tag_163:\n      sub(shl(0xa0, 0x01), 0x01)\n        /* \"contracts/ERC20StandardToken.sol\":3319:3334  _balances[from] */\n      swap1\n      swap3\n      and\n        /* \"contracts/ERC20StandardToken.sol\":3319:3328  _balances */\n      0x00\n        /* \"contracts/ERC20StandardToken.sol\":3319:3334  _balances[from] */\n      swap1\n      dup2\n      mstore\n      0x20\n      dup2\n      swap1\n      mstore\n      0x40\n      swap1\n      keccak256\n        /* \"contracts/ERC20StandardToken.sol\":3337:3357  fromBalance - amount */\n      swap2\n      sub\n        /* \"contracts/ERC20StandardToken.sol\":3319:3357  _balances[from] = fromBalance - amount */\n      swap1\n      sstore\n        /* \"contracts/ERC20StandardToken.sol\":3078:3376  function _subSenderBalance(address from, uint256 amount) internal virtual {... */\n      jump\t// out\n        /* \"contracts/ERC20StandardToken.sol\":3384:3592  function _addReceiverBalance(address from, address to, uint256 amount) internal virtual {... */\n    tag_138:\n      sub(shl(0xa0, 0x01), 0x01)\n        /* \"contracts/ERC20StandardToken.sol\":3508:3521  _balances[to] */\n      dup3\n      dup2\n      and\n        /* \"contracts/ERC20StandardToken.sol\":3508:3517  _balances */\n      0x00\n        /* \"contracts/ERC20StandardToken.sol\":3508:3521  _balances[to] */\n      dup2\n      dup2\n      mstore\n      0x20\n      dup2\n      dup2\n      mstore\n      0x40\n      swap2\n      dup3\n      swap1\n      keccak256\n        /* \"contracts/ERC20StandardToken.sol\":3508:3531  _balances[to] += amount */\n      dup1\n      sload\n      dup7\n      add\n      swap1\n      sstore\n        /* \"contracts/ERC20StandardToken.sol\":3558:3584  Transfer(from, to, amount) */\n      swap1\n      mload\n        /* \"#utility.yul\":1342:1367   */\n      dup5\n      dup2\n      mstore\n        /* \"contracts/ERC20StandardToken.sol\":3508:3521  _balances[to] */\n      swap2\n      swap3\n        /* \"contracts/ERC20StandardToken.sol\":3558:3584  Transfer(from, to, amount) */\n      dup7\n      and\n      swap2\n      0x00\n      dup1\n      mload\n      0x20\n      data_ada389e1fc24a8587c776340efb91b36e675792ab631816100d55df0b5cf3cbc\n      dup4\n      codecopy\n      dup2\n      mload\n      swap2\n      mstore\n      swap2\n        /* \"#utility.yul\":1315:1333   */\n      add\n        /* \"contracts/ERC20StandardToken.sol\":3558:3584  Transfer(from, to, amount) */\n      tag_120\n        /* \"#utility.yul\":1196:1373   */\n      jump\n        /* \"#utility.yul\":14:562   */\n    tag_21:\n        /* \"#utility.yul\":126:130   */\n      0x00\n        /* \"#utility.yul\":155:157   */\n      0x20\n        /* \"#utility.yul\":184:186   */\n      dup1\n        /* \"#utility.yul\":173:182   */\n      dup4\n        /* \"#utility.yul\":166:187   */\n      mstore\n        /* \"#utility.yul\":216:222   */\n      dup4\n        /* \"#utility.yul\":210:223   */\n      mload\n        /* \"#utility.yul\":259:265   */\n      dup1\n        /* \"#utility.yul\":254:256   */\n      dup3\n        /* \"#utility.yul\":243:252   */\n      dup6\n        /* \"#utility.yul\":239:257   */\n      add\n        /* \"#utility.yul\":232:266   */\n      mstore\n        /* \"#utility.yul\":284:285   */\n      0x00\n        /* \"#utility.yul\":294:434   */\n    tag_170:\n        /* \"#utility.yul\":308:314   */\n      dup2\n        /* \"#utility.yul\":305:306   */\n      dup2\n        /* \"#utility.yul\":302:315   */\n      lt\n        /* \"#utility.yul\":294:434   */\n      iszero\n      tag_172\n      jumpi\n        /* \"#utility.yul\":403:417   */\n      dup6\n      dup2\n      add\n        /* \"#utility.yul\":399:422   */\n      dup4\n      add\n        /* \"#utility.yul\":393:423   */\n      mload\n        /* \"#utility.yul\":369:386   */\n      dup6\n      dup3\n      add\n        /* \"#utility.yul\":388:390   */\n      0x40\n        /* \"#utility.yul\":365:391   */\n      add\n        /* \"#utility.yul\":358:424   */\n      mstore\n        /* \"#utility.yul\":323:333   */\n      dup3\n      add\n        /* \"#utility.yul\":294:434   */\n      jump(tag_170)\n    tag_172:\n        /* \"#utility.yul\":298:301   */\n      pop\n        /* \"#utility.yul\":483:484   */\n      0x00\n        /* \"#utility.yul\":478:480   */\n      0x40\n        /* \"#utility.yul\":469:475   */\n      dup3\n        /* \"#utility.yul\":458:467   */\n      dup7\n        /* \"#utility.yul\":454:476   */\n      add\n        /* \"#utility.yul\":450:481   */\n      add\n        /* \"#utility.yul\":443:485   */\n      mstore\n        /* \"#utility.yul\":553:555   */\n      0x40\n        /* \"#utility.yul\":546:548   */\n      0x1f\n        /* \"#utility.yul\":542:549   */\n      not\n        /* \"#utility.yul\":537:539   */\n      0x1f\n        /* \"#utility.yul\":529:535   */\n      dup4\n        /* \"#utility.yul\":525:540   */\n      add\n        /* \"#utility.yul\":521:550   */\n      and\n        /* \"#utility.yul\":510:519   */\n      dup6\n        /* \"#utility.yul\":506:551   */\n      add\n        /* \"#utility.yul\":502:556   */\n      add\n        /* \"#utility.yul\":494:556   */\n      swap3\n      pop\n      pop\n      pop\n        /* \"#utility.yul\":14:562   */\n      swap3\n      swap2\n      pop\n      pop\n      jump\t// out\n        /* \"#utility.yul\":567:740   */\n    tag_167:\n        /* \"#utility.yul\":635:655   */\n      dup1\n      calldataload\n      sub(shl(0xa0, 0x01), 0x01)\n        /* \"#utility.yul\":684:715   */\n      dup2\n      and\n        /* \"#utility.yul\":674:716   */\n      dup2\n      eq\n        /* \"#utility.yul\":664:734   */\n      tag_174\n      jumpi\n        /* \"#utility.yul\":730:731   */\n      0x00\n        /* \"#utility.yul\":727:728   */\n      dup1\n        /* \"#utility.yul\":720:732   */\n      revert\n        /* \"#utility.yul\":664:734   */\n    tag_174:\n        /* \"#utility.yul\":567:740   */\n      swap2\n      swap1\n      pop\n      jump\t// out\n        /* \"#utility.yul\":745:999   */\n    tag_24:\n        /* \"#utility.yul\":813:819   */\n      0x00\n        /* \"#utility.yul\":821:827   */\n      dup1\n        /* \"#utility.yul\":874:876   */\n      0x40\n        /* \"#utility.yul\":862:871   */\n      dup4\n        /* \"#utility.yul\":853:860   */\n      dup6\n        /* \"#utility.yul\":849:872   */\n      sub\n        /* \"#utility.yul\":845:877   */\n      slt\n        /* \"#utility.yul\":842:894   */\n      iszero\n      tag_176\n      jumpi\n        /* \"#utility.yul\":890:891   */\n      0x00\n        /* \"#utility.yul\":887:888   */\n      dup1\n        /* \"#utility.yul\":880:892   */\n      revert\n        /* \"#utility.yul\":842:894   */\n    tag_176:\n        /* \"#utility.yul\":913:942   */\n      tag_177\n        /* \"#utility.yul\":932:941   */\n      dup4\n        /* \"#utility.yul\":913:942   */\n      tag_167\n      jump\t// in\n    tag_177:\n        /* \"#utility.yul\":903:942   */\n      swap5\n        /* \"#utility.yul\":989:991   */\n      0x20\n        /* \"#utility.yul\":974:992   */\n      swap4\n      swap1\n      swap4\n      add\n        /* \"#utility.yul\":961:993   */\n      calldataload\n      swap4\n      pop\n      pop\n      pop\n        /* \"#utility.yul\":745:999   */\n      jump\t// out\n        /* \"#utility.yul\":1378:1706   */\n    tag_34:\n        /* \"#utility.yul\":1455:1461   */\n      0x00\n        /* \"#utility.yul\":1463:1469   */\n      dup1\n        /* \"#utility.yul\":1471:1477   */\n      0x00\n        /* \"#utility.yul\":1524:1526   */\n      0x60\n        /* \"#utility.yul\":1512:1521   */\n      dup5\n        /* \"#utility.yul\":1503:1510   */\n      dup7\n        /* \"#utility.yul\":1499:1522   */\n      sub\n        /* \"#utility.yul\":1495:1527   */\n      slt\n        /* \"#utility.yul\":1492:1544   */\n      iszero\n      tag_181\n      jumpi\n        /* \"#utility.yul\":1540:1541   */\n      0x00\n        /* \"#utility.yul\":1537:1538   */\n      dup1\n        /* \"#utility.yul\":1530:1542   */\n      revert\n        /* \"#utility.yul\":1492:1544   */\n    tag_181:\n        /* \"#utility.yul\":1563:1592   */\n      tag_182\n        /* \"#utility.yul\":1582:1591   */\n      dup5\n        /* \"#utility.yul\":1563:1592   */\n      tag_167\n      jump\t// in\n    tag_182:\n        /* \"#utility.yul\":1553:1592   */\n      swap3\n      pop\n        /* \"#utility.yul\":1611:1649   */\n      tag_183\n        /* \"#utility.yul\":1645:1647   */\n      0x20\n        /* \"#utility.yul\":1634:1643   */\n      dup6\n        /* \"#utility.yul\":1630:1648   */\n      add\n        /* \"#utility.yul\":1611:1649   */\n      tag_167\n      jump\t// in\n    tag_183:\n        /* \"#utility.yul\":1601:1649   */\n      swap2\n      pop\n        /* \"#utility.yul\":1696:1698   */\n      0x40\n        /* \"#utility.yul\":1685:1694   */\n      dup5\n        /* \"#utility.yul\":1681:1699   */\n      add\n        /* \"#utility.yul\":1668:1700   */\n      calldataload\n        /* \"#utility.yul\":1658:1700   */\n      swap1\n      pop\n        /* \"#utility.yul\":1378:1706   */\n      swap3\n      pop\n      swap3\n      pop\n      swap3\n      jump\t// out\n        /* \"#utility.yul\":1900:2086   */\n    tag_43:\n        /* \"#utility.yul\":1959:1965   */\n      0x00\n        /* \"#utility.yul\":2012:2014   */\n      0x20\n        /* \"#utility.yul\":2000:2009   */\n      dup3\n        /* \"#utility.yul\":1991:1998   */\n      dup5\n        /* \"#utility.yul\":1987:2010   */\n      sub\n        /* \"#utility.yul\":1983:2015   */\n      slt\n        /* \"#utility.yul\":1980:2032   */\n      iszero\n      tag_186\n      jumpi\n        /* \"#utility.yul\":2028:2029   */\n      0x00\n        /* \"#utility.yul\":2025:2026   */\n      dup1\n        /* \"#utility.yul\":2018:2030   */\n      revert\n        /* \"#utility.yul\":1980:2032   */\n    tag_186:\n        /* \"#utility.yul\":2051:2080   */\n      tag_187\n        /* \"#utility.yul\":2070:2079   */\n      dup3\n        /* \"#utility.yul\":2051:2080   */\n      tag_167\n      jump\t// in\n    tag_187:\n        /* \"#utility.yul\":2041:2080   */\n      swap4\n        /* \"#utility.yul\":1900:2086   */\n      swap3\n      pop\n      pop\n      pop\n      jump\t// out\n        /* \"#utility.yul\":2515:2775   */\n    tag_69:\n        /* \"#utility.yul\":2583:2589   */\n      0x00\n        /* \"#utility.yul\":2591:2597   */\n      dup1\n        /* \"#utility.yul\":2644:2646   */\n      0x40\n        /* \"#utility.yul\":2632:2641   */\n      dup4\n        /* \"#utility.yul\":2623:2630   */\n      dup6\n        /* \"#utility.yul\":2619:2642   */\n      sub\n        /* \"#utility.yul\":2615:2647   */\n      slt\n        /* \"#utility.yul\":2612:2664   */\n      iszero\n      tag_191\n      jumpi\n        /* \"#utility.yul\":2660:2661   */\n      0x00\n        /* \"#utility.yul\":2657:2658   */\n      dup1\n        /* \"#utility.yul\":2650:2662   */\n      revert\n        /* \"#utility.yul\":2612:2664   */\n    tag_191:\n        /* \"#utility.yul\":2683:2712   */\n      tag_192\n        /* \"#utility.yul\":2702:2711   */\n      dup4\n        /* \"#utility.yul\":2683:2712   */\n      tag_167\n      jump\t// in\n    tag_192:\n        /* \"#utility.yul\":2673:2712   */\n      swap2\n      pop\n        /* \"#utility.yul\":2731:2769   */\n      tag_193\n        /* \"#utility.yul\":2765:2767   */\n      0x20\n        /* \"#utility.yul\":2754:2763   */\n      dup5\n        /* \"#utility.yul\":2750:2768   */\n      add\n        /* \"#utility.yul\":2731:2769   */\n      tag_167\n      jump\t// in\n    tag_193:\n        /* \"#utility.yul\":2721:2769   */\n      swap1\n      pop\n        /* \"#utility.yul\":2515:2775   */\n      swap3\n      pop\n      swap3\n      swap1\n      pop\n      jump\t// out\n        /* \"#utility.yul\":2780:3160   */\n    tag_80:\n        /* \"#utility.yul\":2859:2860   */\n      0x01\n        /* \"#utility.yul\":2855:2867   */\n      dup2\n      dup2\n      shr\n      swap1\n        /* \"#utility.yul\":2902:2914   */\n      dup3\n      and\n      dup1\n        /* \"#utility.yul\":2923:2984   */\n      tag_195\n      jumpi\n        /* \"#utility.yul\":2977:2981   */\n      0x7f\n        /* \"#utility.yul\":2969:2975   */\n      dup3\n        /* \"#utility.yul\":2965:2982   */\n      and\n        /* \"#utility.yul\":2955:2982   */\n      swap2\n      pop\n        /* \"#utility.yul\":2923:2984   */\n    tag_195:\n        /* \"#utility.yul\":3030:3032   */\n      0x20\n        /* \"#utility.yul\":3022:3028   */\n      dup3\n        /* \"#utility.yul\":3019:3033   */\n      lt\n        /* \"#utility.yul\":2999:3017   */\n      dup2\n        /* \"#utility.yul\":2996:3034   */\n      sub\n        /* \"#utility.yul\":2993:3154   */\n      tag_196\n      jumpi\n        /* \"#utility.yul\":3076:3086   */\n      0x4e487b71\n        /* \"#utility.yul\":3071:3074   */\n      0xe0\n        /* \"#utility.yul\":3067:3087   */\n      shl\n        /* \"#utility.yul\":3064:3065   */\n      0x00\n        /* \"#utility.yul\":3057:3088   */\n      mstore\n        /* \"#utility.yul\":3111:3115   */\n      0x22\n        /* \"#utility.yul\":3108:3109   */\n      0x04\n        /* \"#utility.yul\":3101:3116   */\n      mstore\n        /* \"#utility.yul\":3139:3143   */\n      0x24\n        /* \"#utility.yul\":3136:3137   */\n      0x00\n        /* \"#utility.yul\":3129:3144   */\n      revert\n        /* \"#utility.yul\":2993:3154   */\n    tag_196:\n      pop\n        /* \"#utility.yul\":2780:3160   */\n      swap2\n      swap1\n      pop\n      jump\t// out\n        /* \"#utility.yul\":3165:3521   */\n    tag_98:\n        /* \"#utility.yul\":3367:3369   */\n      0x20\n        /* \"#utility.yul\":3349:3370   */\n      dup1\n      dup3\n      mstore\n        /* \"#utility.yul\":3386:3404   */\n      dup2\n      dup2\n      add\n        /* \"#utility.yul\":3379:3409   */\n      mstore\n        /* \"#utility.yul\":3445:3479   */\n      0x4f776e61626c653a2063616c6c6572206973206e6f7420746865206f776e6572\n        /* \"#utility.yul\":3440:3442   */\n      0x40\n        /* \"#utility.yul\":3425:3443   */\n      dup3\n      add\n        /* \"#utility.yul\":3418:3480   */\n      mstore\n        /* \"#utility.yul\":3512:3514   */\n      0x60\n        /* \"#utility.yul\":3497:3515   */\n      add\n      swap1\n        /* \"#utility.yul\":3165:3521   */\n      jump\t// out\n        /* \"#utility.yul\":4295:4479   */\n    tag_149:\n        /* \"#utility.yul\":4365:4371   */\n      0x00\n        /* \"#utility.yul\":4418:4420   */\n      0x20\n        /* \"#utility.yul\":4406:4415   */\n      dup3\n        /* \"#utility.yul\":4397:4404   */\n      dup5\n        /* \"#utility.yul\":4393:4416   */\n      sub\n        /* \"#utility.yul\":4389:4421   */\n      slt\n        /* \"#utility.yul\":4386:4438   */\n      iszero\n      tag_202\n      jumpi\n        /* \"#utility.yul\":4434:4435   */\n      0x00\n        /* \"#utility.yul\":4431:4432   */\n      dup1\n        /* \"#utility.yul\":4424:4436   */\n      revert\n        /* \"#utility.yul\":4386:4438   */\n    tag_202:\n      pop\n        /* \"#utility.yul\":4457:4473   */\n      mload\n      swap2\n        /* \"#utility.yul\":4295:4479   */\n      swap1\n      pop\n      jump\t// out\n        /* \"#utility.yul\":4484:4886   */\n    tag_160:\n        /* \"#utility.yul\":4686:4688   */\n      0x20\n        /* \"#utility.yul\":4668:4689   */\n      dup1\n      dup3\n      mstore\n        /* \"#utility.yul\":4725:4727   */\n      0x26\n        /* \"#utility.yul\":4705:4723   */\n      swap1\n      dup3\n      add\n        /* \"#utility.yul\":4698:4728   */\n      mstore\n        /* \"#utility.yul\":4764:4798   */\n      0x45524332303a207472616e7366657220616d6f756e7420657863656564732062\n        /* \"#utility.yul\":4759:4761   */\n      0x40\n        /* \"#utility.yul\":4744:4762   */\n      dup3\n      add\n        /* \"#utility.yul\":4737:4799   */\n      mstore\n      shl(0xd0, 0x616c616e6365)\n        /* \"#utility.yul\":4830:4832   */\n      0x60\n        /* \"#utility.yul\":4815:4833   */\n      dup3\n      add\n        /* \"#utility.yul\":4808:4844   */\n      mstore\n        /* \"#utility.yul\":4876:4879   */\n      0x80\n        /* \"#utility.yul\":4861:4880   */\n      add\n      swap1\n        /* \"#utility.yul\":4484:4886   */\n      jump\t// out\n    stop\n    data_ada389e1fc24a8587c776340efb91b36e675792ab631816100d55df0b5cf3cbc ddf252ad1be2c89b69c2b068fc378daa952ba7f163c4a11628f55a4df523b3ef\n\n    auxdata: 0xa2646970667358221220d688daea906076cca8a35006295b2a76cd99e0f83c60d2bfe432f673d3d2dc5564736f6c63430008140033\n}\n",
				"bytecode": {
					"linkReferences": {},
					"object": "60a060405234801562000010575f80fd5b5060408051808201825260038082526220a1a160e91b60208084018290528451808601909552918452908301529060126c0c9f2c9cd04674edea4000000060026200005c858262000200565b5060036200006b848262000200565b5060ff82166080526200007f33826200009c565b5050600580546001600160a01b0319163317905550620002ee9050565b6001600160a01b038216620000f75760405162461bcd60e51b815260206004820152601f60248201527f45524332303a206d696e7420746f20746865207a65726f206164647265737300604482015260640160405180910390fd5b8060045f8282546200010a9190620002c8565b90915550506001600160a01b0382165f81815260208181526040808320805486019055518481527fddf252ad1be2c89b69c2b068fc378daa952ba7f163c4a11628f55a4df523b3ef910160405180910390a35050565b634e487b7160e01b5f52604160045260245ffd5b600181811c908216806200018957607f821691505b602082108103620001a857634e487b7160e01b5f52602260045260245ffd5b50919050565b601f821115620001fb575f81815260208120601f850160051c81016020861015620001d65750805b601f850160051c820191505b81811015620001f757828155600101620001e2565b5050505b505050565b81516001600160401b038111156200021c576200021c62000160565b62000234816200022d845462000174565b84620001ae565b602080601f8311600181146200026a575f8415620002525750858301515b5f19600386901b1c1916600185901b178555620001f7565b5f85815260208120601f198616915b828110156200029a5788860151825594840194600190910190840162000279565b5085821015620002b857878501515f19600388901b60f8161c191681555b5050505050600190811b01905550565b80820180821115620002e857634e487b7160e01b5f52601160045260245ffd5b92915050565b6080516109ce620003075f395f61013401526109ce5ff3fe608060405234801561000f575f80fd5b50600436106100c3575f3560e01c806306fdde03146100c7578063095ea7b3146100e557806318160ddd1461010857806323b872dd1461011a578063313ce5671461012d57806346bb92711461015e57806370a08231146101735780638da5cb5b1461019b57806395d89b41146101c6578063a64177fb146101ce578063a9059cbb146101e1578063c66780b4146101f4578063dd62ed3e14610207578063ed9a165d1461023f578063f2fde38b14610252575b5f80fd5b6100cf610265565b6040516100dc9190610796565b60405180910390f35b6100f86100f33660046107fc565b6102f5565b60405190151581526020016100dc565b6004545b6040519081526020016100dc565b6100f8610128366004610824565b61030a565b60405160ff7f00000000000000000000000000000000000000000000000000000000000000001681526020016100dc565b61017161016c36600461085d565b61032b565b005b61010c61018136600461085d565b6001600160a01b03165f9081526020819052604090205490565b6005546101ae906001600160a01b031681565b6040516001600160a01b0390911681526020016100dc565b6100cf610380565b6101716101dc36600461085d565b61038f565b6100f86101ef3660046107fc565b6103e3565b6006546101ae906001600160a01b031681565b61010c61021536600461087d565b6001600160a01b039182165f90815260016020908152604080832093909416825291909152205490565b6007546101ae906001600160a01b031681565b61017161026036600461085d565b6103ef565b606060038054610274906108ae565b80601f01602080910402602001604051908101604052809291908181526020018280546102a0906108ae565b80156102eb5780601f106102c2576101008083540402835291602001916102eb565b820191905f5260205f20905b8154815290600101906020018083116102ce57829003601f168201915b5050505050905090565b5f61030133848461043b565b50600192915050565b5f61031684338461049c565b61032184848461052c565b5060019392505050565b6005546001600160a01b0316331461035e5760405162461bcd60e51b8152600401610355906108e6565b60405180910390fd5b600780546001600160a01b0319166001600160a01b0392909216919091179055565b606060028054610274906108ae565b6005546001600160a01b031633146103b95760405162461bcd60e51b8152600401610355906108e6565b600680546001600160a01b0319166001600160a01b0383161790556103e030825f1961043b565b50565b5f61030133848461052c565b6005546001600160a01b031633146104195760405162461bcd60e51b8152600401610355906108e6565b600580546001600160a01b0319166001600160a01b0392909216919091179055565b6001600160a01b038381165f8181526001602090815260408083209487168084529482529182902085905590518481527f8c5be1e5ebec7d5bd14f71427d1e84f3dd0314c0f7b2291e5b200ac8c7c3b92591015b60405180910390a3505050565b6001600160a01b038084165f908152600160209081526040808320938616835292905220545f19811461052657818110156105195760405162461bcd60e51b815260206004820152601d60248201527f45524332303a20696e73756666696369656e7420616c6c6f77616e63650000006044820152606401610355565b610526848484840361043b565b50505050565b6007546001600160a01b03908116908416811480159061055e5750806001600160a01b0316836001600160a01b031614155b1561056e57610526848484610676565b6105788483610701565b6064820461059b8573bf1c5c87b4b0f37443819cbb956215982d9f8a4b83610757565b6105a88561dead83610757565b6006546001600160a01b03166105cd576105c88585836002028603610757565b61066f565b6105d8853083610757565b6105e88585836003028603610757565b6006546040516306e9656b60e51b8152600481018390526001600160a01b0387811660248301529091169063dd2cad60906044016020604051808303815f875af1925050508015610656575060408051601f3d908101601f191682019092526106539181019061091b565b60015b1561066f57805f0361066d5761066d308684610676565b505b5050505050565b6001600160a01b0383165f90815260208190526040902054818110156106ae5760405162461bcd60e51b815260040161035590610932565b6001600160a01b038481165f81815260208181526040808320878703905593871680835291849020805487019055925185815290925f80516020610979833981519152910160405180910390a350505050565b6001600160a01b0382165f90815260208190526040902054818110156107395760405162461bcd60e51b815260040161035590610932565b6001600160a01b039092165f90815260208190526040902091039055565b6001600160a01b038281165f8181526020818152604091829020805486019055905184815291928616915f80516020610979833981519152910161048f565b5f6020808352835180828501525f5b818110156107c1578581018301518582016040015282016107a5565b505f604082860101526040601f19601f8301168501019250505092915050565b80356001600160a01b03811681146107f7575f80fd5b919050565b5f806040838503121561080d575f80fd5b610816836107e1565b946020939093013593505050565b5f805f60608486031215610836575f80fd5b61083f846107e1565b925061084d602085016107e1565b9150604084013590509250925092565b5f6020828403121561086d575f80fd5b610876826107e1565b9392505050565b5f806040838503121561088e575f80fd5b610897836107e1565b91506108a5602084016107e1565b90509250929050565b600181811c908216806108c257607f821691505b6020821081036108e057634e487b7160e01b5f52602260045260245ffd5b50919050565b6020808252818101527f4f776e61626c653a2063616c6c6572206973206e6f7420746865206f776e6572604082015260600190565b5f6020828403121561092b575f80fd5b5051919050565b60208082526026908201527f45524332303a207472616e7366657220616d6f756e7420657863656564732062604082015265616c616e636560d01b60608201526080019056feddf252ad1be2c89b69c2b068fc378daa952ba7f163c4a11628f55a4df523b3efa2646970667358221220d688daea906076cca8a35006295b2a76cd99e0f83c60d2bfe432f673d3d2dc5564736f6c63430008140033",
					"opcodes": "PUSH1 0xA0 PUSH1 0x40 MSTORE CALLVALUE DUP1 ISZERO PUSH3 0x10 JUMPI PUSH0 DUP1 REVERT JUMPDEST POP PUSH1 0x40 DUP1 MLOAD DUP1 DUP3 ADD DUP3 MSTORE PUSH1 0x3 DUP1 DUP3 MSTORE PUSH3 0x20A1A1 PUSH1 0xE9 SHL PUSH1 0x20 DUP1 DUP5 ADD DUP3 SWAP1 MSTORE DUP5 MLOAD DUP1 DUP7 ADD SWAP1 SWAP6 MSTORE SWAP2 DUP5 MSTORE SWAP1 DUP4 ADD MSTORE SWAP1 PUSH1 0x12 PUSH13 0xC9F2C9CD04674EDEA40000000 PUSH1 0x2 PUSH3 0x5C DUP6 DUP3 PUSH3 0x200 JUMP JUMPDEST POP PUSH1 0x3 PUSH3 0x6B DUP5 DUP3 PUSH3 0x200 JUMP JUMPDEST POP PUSH1 0xFF DUP3 AND PUSH1 0x80 MSTORE PUSH3 0x7F CALLER DUP3 PUSH3 0x9C JUMP JUMPDEST POP POP PUSH1 0x5 DUP1 SLOAD PUSH1 0x1 PUSH1 0x1 PUSH1 0xA0 SHL SUB NOT AND CALLER OR SWAP1 SSTORE POP PUSH3 0x2EE SWAP1 POP JUMP JUMPDEST PUSH1 0x1 PUSH1 0x1 PUSH1 0xA0 SHL SUB DUP3 AND PUSH3 0xF7 JUMPI PUSH1 0x40 MLOAD PUSH3 0x461BCD PUSH1 0xE5 SHL DUP2 MSTORE PUSH1 0x20 PUSH1 0x4 DUP3 ADD MSTORE PUSH1 0x1F PUSH1 0x24 DUP3 ADD MSTORE PUSH32 0x45524332303A206D696E7420746F20746865207A65726F206164647265737300 PUSH1 0x44 DUP3 ADD MSTORE PUSH1 0x64 ADD PUSH1 0x40 MLOAD DUP1 SWAP2 SUB SWAP1 REVERT JUMPDEST DUP1 PUSH1 0x4 PUSH0 DUP3 DUP3 SLOAD PUSH3 0x10A SWAP2 SWAP1 PUSH3 0x2C8 JUMP JUMPDEST SWAP1 SWAP2 SSTORE POP POP PUSH1 0x1 PUSH1 0x1 PUSH1 0xA0 SHL SUB DUP3 AND PUSH0 DUP2 DUP2 MSTORE PUSH1 0x20 DUP2 DUP2 MSTORE PUSH1 0x40 DUP1 DUP4 KECCAK256 DUP1 SLOAD DUP7 ADD SWAP1 SSTORE MLOAD DUP5 DUP2 MSTORE PUSH32 0xDDF252AD1BE2C89B69C2B068FC378DAA952BA7F163C4A11628F55A4DF523B3EF SWAP2 ADD PUSH1 0x40 MLOAD DUP1 SWAP2 SUB SWAP1 LOG3 POP POP JUMP JUMPDEST PUSH4 0x4E487B71 PUSH1 0xE0 SHL PUSH0 MSTORE PUSH1 0x41 PUSH1 0x4 MSTORE PUSH1 0x24 PUSH0 REVERT JUMPDEST PUSH1 0x1 DUP2 DUP2 SHR SWAP1 DUP3 AND DUP1 PUSH3 0x189 JUMPI PUSH1 0x7F DUP3 AND SWAP2 POP JUMPDEST PUSH1 0x20 DUP3 LT DUP2 SUB PUSH3 0x1A8 JUMPI PUSH4 0x4E487B71 PUSH1 0xE0 SHL PUSH0 MSTORE PUSH1 0x22 PUSH1 0x4 MSTORE PUSH1 0x24 PUSH0 REVERT JUMPDEST POP SWAP2 SWAP1 POP JUMP JUMPDEST PUSH1 0x1F DUP3 GT ISZERO PUSH3 0x1FB JUMPI PUSH0 DUP2 DUP2 MSTORE PUSH1 0x20 DUP2 KECCAK256 PUSH1 0x1F DUP6 ADD PUSH1 0x5 SHR DUP2 ADD PUSH1 0x20 DUP7 LT ISZERO PUSH3 0x1D6 JUMPI POP DUP1 JUMPDEST PUSH1 0x1F DUP6 ADD PUSH1 0x5 SHR DUP3 ADD SWAP2 POP JUMPDEST DUP2 DUP2 LT ISZERO PUSH3 0x1F7 JUMPI DUP3 DUP2 SSTORE PUSH1 0x1 ADD PUSH3 0x1E2 JUMP JUMPDEST POP POP POP JUMPDEST POP POP POP JUMP JUMPDEST DUP2 MLOAD PUSH1 0x1 PUSH1 0x1 PUSH1 0x40 SHL SUB DUP2 GT ISZERO PUSH3 0x21C JUMPI PUSH3 0x21C PUSH3 0x160 JUMP JUMPDEST PUSH3 0x234 DUP2 PUSH3 0x22D DUP5 SLOAD PUSH3 0x174 JUMP JUMPDEST DUP5 PUSH3 0x1AE JUMP JUMPDEST PUSH1 0x20 DUP1 PUSH1 0x1F DUP4 GT PUSH1 0x1 DUP2 EQ PUSH3 0x26A JUMPI PUSH0 DUP5 ISZERO PUSH3 0x252 JUMPI POP DUP6 DUP4 ADD MLOAD JUMPDEST PUSH0 NOT PUSH1 0x3 DUP7 SWAP1 SHL SHR NOT AND PUSH1 0x1 DUP6 SWAP1 SHL OR DUP6 SSTORE PUSH3 0x1F7 JUMP JUMPDEST PUSH0 DUP6 DUP2 MSTORE PUSH1 0x20 DUP2 KECCAK256 PUSH1 0x1F NOT DUP7 AND SWAP2 JUMPDEST DUP3 DUP2 LT ISZERO PUSH3 0x29A JUMPI DUP9 DUP7 ADD MLOAD DUP3 SSTORE SWAP5 DUP5 ADD SWAP5 PUSH1 0x1 SWAP1 SWAP2 ADD SWAP1 DUP5 ADD PUSH3 0x279 JUMP JUMPDEST POP DUP6 DUP3 LT ISZERO PUSH3 0x2B8 JUMPI DUP8 DUP6 ADD MLOAD PUSH0 NOT PUSH1 0x3 DUP9 SWAP1 SHL PUSH1 0xF8 AND SHR NOT AND DUP2 SSTORE JUMPDEST POP POP POP POP POP PUSH1 0x1 SWAP1 DUP2 SHL ADD SWAP1 SSTORE POP JUMP JUMPDEST DUP1 DUP3 ADD DUP1 DUP3 GT ISZERO PUSH3 0x2E8 JUMPI PUSH4 0x4E487B71 PUSH1 0xE0 SHL PUSH0 MSTORE PUSH1 0x11 PUSH1 0x4 MSTORE PUSH1 0x24 PUSH0 REVERT JUMPDEST SWAP3 SWAP2 POP POP JUMP JUMPDEST PUSH1 0x80 MLOAD PUSH2 0x9CE PUSH3 0x307 PUSH0 CODECOPY PUSH0 PUSH2 0x134 ADD MSTORE PUSH2 0x9CE PUSH0 RETURN INVALID PUSH1 0x80 PUSH1 0x40 MSTORE CALLVALUE DUP1 ISZERO PUSH2 0xF JUMPI PUSH0 DUP1 REVERT JUMPDEST POP PUSH1 0x4 CALLDATASIZE LT PUSH2 0xC3 JUMPI PUSH0 CALLDATALOAD PUSH1 0xE0 SHR DUP1 PUSH4 0x6FDDE03 EQ PUSH2 0xC7 JUMPI DUP1 PUSH4 0x95EA7B3 EQ PUSH2 0xE5 JUMPI DUP1 PUSH4 0x18160DDD EQ PUSH2 0x108 JUMPI DUP1 PUSH4 0x23B872DD EQ PUSH2 0x11A JUMPI DUP1 PUSH4 0x313CE567 EQ PUSH2 0x12D JUMPI DUP1 PUSH4 0x46BB9271 EQ PUSH2 0x15E JUMPI DUP1 PUSH4 0x70A08231 EQ PUSH2 0x173 JUMPI DUP1 PUSH4 0x8DA5CB5B EQ PUSH2 0x19B JUMPI DUP1 PUSH4 0x95D89B41 EQ PUSH2 0x1C6 JUMPI DUP1 PUSH4 0xA64177FB EQ PUSH2 0x1CE JUMPI DUP1 PUSH4 0xA9059CBB EQ PUSH2 0x1E1 JUMPI DUP1 PUSH4 0xC66780B4 EQ PUSH2 0x1F4 JUMPI DUP1 PUSH4 0xDD62ED3E EQ PUSH2 0x207 JUMPI DUP1 PUSH4 0xED9A165D EQ PUSH2 0x23F JUMPI DUP1 PUSH4 0xF2FDE38B EQ PUSH2 0x252 JUMPI JUMPDEST PUSH0 DUP1 REVERT JUMPDEST PUSH2 0xCF PUSH2 0x265 JUMP JUMPDEST PUSH1 0x40 MLOAD PUSH2 0xDC SWAP2 SWAP1 PUSH2 0x796 JUMP JUMPDEST PUSH1 0x40 MLOAD DUP1 SWAP2 SUB SWAP1 RETURN JUMPDEST PUSH2 0xF8 PUSH2 0xF3 CALLDATASIZE PUSH1 0x4 PUSH2 0x7FC JUMP JUMPDEST PUSH2 0x2F5 JUMP JUMPDEST PUSH1 0x40 MLOAD SWAP1 ISZERO ISZERO DUP2 MSTORE PUSH1 0x20 ADD PUSH2 0xDC JUMP JUMPDEST PUSH1 0x4 SLOAD JUMPDEST PUSH1 0x40 MLOAD SWAP1 DUP2 MSTORE PUSH1 0x20 ADD PUSH2 0xDC JUMP JUMPDEST PUSH2 0xF8 PUSH2 0x128 CALLDATASIZE PUSH1 0x4 PUSH2 0x824 JUMP JUMPDEST PUSH2 0x30A JUMP JUMPDEST PUSH1 0x40 MLOAD PUSH1 0xFF PUSH32 0x0 AND DUP2 MSTORE PUSH1 0x20 ADD PUSH2 0xDC JUMP JUMPDEST PUSH2 0x171 PUSH2 0x16C CALLDATASIZE PUSH1 0x4 PUSH2 0x85D JUMP JUMPDEST PUSH2 0x32B JUMP JUMPDEST STOP JUMPDEST PUSH2 0x10C PUSH2 0x181 CALLDATASIZE PUSH1 0x4 PUSH2 0x85D JUMP JUMPDEST PUSH1 0x1 PUSH1 0x1 PUSH1 0xA0 SHL SUB AND PUSH0 SWAP1 DUP2 MSTORE PUSH1 0x20 DUP2 SWAP1 MSTORE PUSH1 0x40 SWAP1 KECCAK256 SLOAD SWAP1 JUMP JUMPDEST PUSH1 0x5 SLOAD PUSH2 0x1AE SWAP1 PUSH1 0x1 PUSH1 0x1 PUSH1 0xA0 SHL SUB AND DUP2 JUMP JUMPDEST PUSH1 0x40 MLOAD PUSH1 0x1 PUSH1 0x1 PUSH1 0xA0 SHL SUB SWAP1 SWAP2 AND DUP2 MSTORE PUSH1 0x20 ADD PUSH2 0xDC JUMP JUMPDEST PUSH2 0xCF PUSH2 0x380 JUMP JUMPDEST PUSH2 0x171 PUSH2 0x1DC CALLDATASIZE PUSH1 0x4 PUSH2 0x85D JUMP JUMPDEST PUSH2 0x38F JUMP JUMPDEST PUSH2 0xF8 PUSH2 0x1EF CALLDATASIZE PUSH1 0x4 PUSH2 0x7FC JUMP JUMPDEST PUSH2 0x3E3 JUMP JUMPDEST PUSH1 0x6 SLOAD PUSH2 0x1AE SWAP1 PUSH1 0x1 PUSH1 0x1 PUSH1 0xA0 SHL SUB AND DUP2 JUMP JUMPDEST PUSH2 0x10C PUSH2 0x215 CALLDATASIZE PUSH1 0x4 PUSH2 0x87D JUMP JUMPDEST PUSH1 0x1 PUSH1 0x1 PUSH1 0xA0 SHL SUB SWAP2 DUP3 AND PUSH0 SWAP1 DUP2 MSTORE PUSH1 0x1 PUSH1 0x20 SWAP1 DUP2 MSTORE PUSH1 0x40 DUP1 DUP4 KECCAK256 SWAP4 SWAP1 SWAP5 AND DUP3 MSTORE SWAP2 SWAP1 SWAP2 MSTORE KECCAK256 SLOAD SWAP1 JUMP JUMPDEST PUSH1 0x7 SLOAD PUSH2 0x1AE SWAP1 PUSH1 0x1 PUSH1 0x1 PUSH1 0xA0 SHL SUB AND DUP2 JUMP JUMPDEST PUSH2 0x171 PUSH2 0x260 CALLDATASIZE PUSH1 0x4 PUSH2 0x85D JUMP JUMPDEST PUSH2 0x3EF JUMP JUMPDEST PUSH1 0x60 PUSH1 0x3 DUP1 SLOAD PUSH2 0x274 SWAP1 PUSH2 0x8AE JUMP JUMPDEST DUP1 PUSH1 0x1F ADD PUSH1 0x20 DUP1 SWAP2 DIV MUL PUSH1 0x20 ADD PUSH1 0x40 MLOAD SWAP1 DUP2 ADD PUSH1 0x40 MSTORE DUP1 SWAP3 SWAP2 SWAP1 DUP2 DUP2 MSTORE PUSH1 0x20 ADD DUP3 DUP1 SLOAD PUSH2 0x2A0 SWAP1 PUSH2 0x8AE JUMP JUMPDEST DUP1 ISZERO PUSH2 0x2EB JUMPI DUP1 PUSH1 0x1F LT PUSH2 0x2C2 JUMPI PUSH2 0x100 DUP1 DUP4 SLOAD DIV MUL DUP4 MSTORE SWAP2 PUSH1 0x20 ADD SWAP2 PUSH2 0x2EB JUMP JUMPDEST DUP3 ADD SWAP2 SWAP1 PUSH0 MSTORE PUSH1 0x20 PUSH0 KECCAK256 SWAP1 JUMPDEST DUP2 SLOAD DUP2 MSTORE SWAP1 PUSH1 0x1 ADD SWAP1 PUSH1 0x20 ADD DUP1 DUP4 GT PUSH2 0x2CE JUMPI DUP3 SWAP1 SUB PUSH1 0x1F AND DUP3 ADD SWAP2 JUMPDEST POP POP POP POP POP SWAP1 POP SWAP1 JUMP JUMPDEST PUSH0 PUSH2 0x301 CALLER DUP5 DUP5 PUSH2 0x43B JUMP JUMPDEST POP PUSH1 0x1 SWAP3 SWAP2 POP POP JUMP JUMPDEST PUSH0 PUSH2 0x316 DUP5 CALLER DUP5 PUSH2 0x49C JUMP JUMPDEST PUSH2 0x321 DUP5 DUP5 DUP5 PUSH2 0x52C JUMP JUMPDEST POP PUSH1 0x1 SWAP4 SWAP3 POP POP POP JUMP JUMPDEST PUSH1 0x5 SLOAD PUSH1 0x1 PUSH1 0x1 PUSH1 0xA0 SHL SUB AND CALLER EQ PUSH2 0x35E JUMPI PUSH1 0x40 MLOAD PUSH3 0x461BCD PUSH1 0xE5 SHL DUP2 MSTORE PUSH1 0x4 ADD PUSH2 0x355 SWAP1 PUSH2 0x8E6 JUMP JUMPDEST PUSH1 0x40 MLOAD DUP1 SWAP2 SUB SWAP1 REVERT JUMPDEST PUSH1 0x7 DUP1 SLOAD PUSH1 0x1 PUSH1 0x1 PUSH1 0xA0 SHL SUB NOT AND PUSH1 0x1 PUSH1 0x1 PUSH1 0xA0 SHL SUB SWAP3 SWAP1 SWAP3 AND SWAP2 SWAP1 SWAP2 OR SWAP1 SSTORE JUMP JUMPDEST PUSH1 0x60 PUSH1 0x2 DUP1 SLOAD PUSH2 0x274 SWAP1 PUSH2 0x8AE JUMP JUMPDEST PUSH1 0x5 SLOAD PUSH1 0x1 PUSH1 0x1 PUSH1 0xA0 SHL SUB AND CALLER EQ PUSH2 0x3B9 JUMPI PUSH1 0x40 MLOAD PUSH3 0x461BCD PUSH1 0xE5 SHL DUP2 MSTORE PUSH1 0x4 ADD PUSH2 0x355 SWAP1 PUSH2 0x8E6 JUMP JUMPDEST PUSH1 0x6 DUP1 SLOAD PUSH1 0x1 PUSH1 0x1 PUSH1 0xA0 SHL SUB NOT AND PUSH1 0x1 PUSH1 0x1 PUSH1 0xA0 SHL SUB DUP4 AND OR SWAP1 SSTORE PUSH2 0x3E0 ADDRESS DUP3 PUSH0 NOT PUSH2 0x43B JUMP JUMPDEST POP JUMP JUMPDEST PUSH0 PUSH2 0x301 CALLER DUP5 DUP5 PUSH2 0x52C JUMP JUMPDEST PUSH1 0x5 SLOAD PUSH1 0x1 PUSH1 0x1 PUSH1 0xA0 SHL SUB AND CALLER EQ PUSH2 0x419 JUMPI PUSH1 0x40 MLOAD PUSH3 0x461BCD PUSH1 0xE5 SHL DUP2 MSTORE PUSH1 0x4 ADD PUSH2 0x355 SWAP1 PUSH2 0x8E6 JUMP JUMPDEST PUSH1 0x5 DUP1 SLOAD PUSH1 0x1 PUSH1 0x1 PUSH1 0xA0 SHL SUB NOT AND PUSH1 0x1 PUSH1 0x1 PUSH1 0xA0 SHL SUB SWAP3 SWAP1 SWAP3 AND SWAP2 SWAP1 SWAP2 OR SWAP1 SSTORE JUMP JUMPDEST PUSH1 0x1 PUSH1 0x1 PUSH1 0xA0 SHL SUB DUP4 DUP2 AND PUSH0 DUP2 DUP2 MSTORE PUSH1 0x1 PUSH1 0x20 SWAP1 DUP2 MSTORE PUSH1 0x40 DUP1 DUP4 KECCAK256 SWAP5 DUP8 AND DUP1 DUP5 MSTORE SWAP5 DUP3 MSTORE SWAP2 DUP3 SWAP1 KECCAK256 DUP6 SWAP1 SSTORE SWAP1 MLOAD DUP5 DUP2 MSTORE PUSH32 0x8C5BE1E5EBEC7D5BD14F71427D1E84F3DD0314C0F7B2291E5B200AC8C7C3B925 SWAP2 ADD JUMPDEST PUSH1 0x40 MLOAD DUP1 SWAP2 SUB SWAP1 LOG3 POP POP POP JUMP JUMPDEST PUSH1 0x1 PUSH1 0x1 PUSH1 0xA0 SHL SUB DUP1 DUP5 AND PUSH0 SWAP1 DUP2 MSTORE PUSH1 0x1 PUSH1 0x20 SWAP1 DUP2 MSTORE PUSH1 0x40 DUP1 DUP4 KECCAK256 SWAP4 DUP7 AND DUP4 MSTORE SWAP3 SWAP1 MSTORE KECCAK256 SLOAD PUSH0 NOT DUP2 EQ PUSH2 0x526 JUMPI DUP2 DUP2 LT ISZERO PUSH2 0x519 JUMPI PUSH1 0x40 MLOAD PUSH3 0x461BCD PUSH1 0xE5 SHL DUP2 MSTORE PUSH1 0x20 PUSH1 0x4 DUP3 ADD MSTORE PUSH1 0x1D PUSH1 0x24 DUP3 ADD MSTORE PUSH32 0x45524332303A20696E73756666696369656E7420616C6C6F77616E6365000000 PUSH1 0x44 DUP3 ADD MSTORE PUSH1 0x64 ADD PUSH2 0x355 JUMP JUMPDEST PUSH2 0x526 DUP5 DUP5 DUP5 DUP5 SUB PUSH2 0x43B JUMP JUMPDEST POP POP POP POP JUMP JUMPDEST PUSH1 0x7 SLOAD PUSH1 0x1 PUSH1 0x1 PUSH1 0xA0 SHL SUB SWAP1 DUP2 AND SWAP1 DUP5 AND DUP2 EQ DUP1 ISZERO SWAP1 PUSH2 0x55E JUMPI POP DUP1 PUSH1 0x1 PUSH1 0x1 PUSH1 0xA0 SHL SUB AND DUP4 PUSH1 0x1 PUSH1 0x1 PUSH1 0xA0 SHL SUB AND EQ ISZERO JUMPDEST ISZERO PUSH2 0x56E JUMPI PUSH2 0x526 DUP5 DUP5 DUP5 PUSH2 0x676 JUMP JUMPDEST PUSH2 0x578 DUP5 DUP4 PUSH2 0x701 JUMP JUMPDEST PUSH1 0x64 DUP3 DIV PUSH2 0x59B DUP6 PUSH20 0xBF1C5C87B4B0F37443819CBB956215982D9F8A4B DUP4 PUSH2 0x757 JUMP JUMPDEST PUSH2 0x5A8 DUP6 PUSH2 0xDEAD DUP4 PUSH2 0x757 JUMP JUMPDEST PUSH1 0x6 SLOAD PUSH1 0x1 PUSH1 0x1 PUSH1 0xA0 SHL SUB AND PUSH2 0x5CD JUMPI PUSH2 0x5C8 DUP6 DUP6 DUP4 PUSH1 0x2 MUL DUP7 SUB PUSH2 0x757 JUMP JUMPDEST PUSH2 0x66F JUMP JUMPDEST PUSH2 0x5D8 DUP6 ADDRESS DUP4 PUSH2 0x757 JUMP JUMPDEST PUSH2 0x5E8 DUP6 DUP6 DUP4 PUSH1 0x3 MUL DUP7 SUB PUSH2 0x757 JUMP JUMPDEST PUSH1 0x6 SLOAD PUSH1 0x40 MLOAD PUSH4 0x6E9656B PUSH1 0xE5 SHL DUP2 MSTORE PUSH1 0x4 DUP2 ADD DUP4 SWAP1 MSTORE PUSH1 0x1 PUSH1 0x1 PUSH1 0xA0 SHL SUB DUP8 DUP2 AND PUSH1 0x24 DUP4 ADD MSTORE SWAP1 SWAP2 AND SWAP1 PUSH4 0xDD2CAD60 SWAP1 PUSH1 0x44 ADD PUSH1 0x20 PUSH1 0x40 MLOAD DUP1 DUP4 SUB DUP2 PUSH0 DUP8 GAS CALL SWAP3 POP POP POP DUP1 ISZERO PUSH2 0x656 JUMPI POP PUSH1 0x40 DUP1 MLOAD PUSH1 0x1F RETURNDATASIZE SWAP1 DUP2 ADD PUSH1 0x1F NOT AND DUP3 ADD SWAP1 SWAP3 MSTORE PUSH2 0x653 SWAP2 DUP2 ADD SWAP1 PUSH2 0x91B JUMP JUMPDEST PUSH1 0x1 JUMPDEST ISZERO PUSH2 0x66F JUMPI DUP1 PUSH0 SUB PUSH2 0x66D JUMPI PUSH2 0x66D ADDRESS DUP7 DUP5 PUSH2 0x676 JUMP JUMPDEST POP JUMPDEST POP POP POP POP POP JUMP JUMPDEST PUSH1 0x1 PUSH1 0x1 PUSH1 0xA0 SHL SUB DUP4 AND PUSH0 SWAP1 DUP2 MSTORE PUSH1 0x20 DUP2 SWAP1 MSTORE PUSH1 0x40 SWAP1 KECCAK256 SLOAD DUP2 DUP2 LT ISZERO PUSH2 0x6AE JUMPI PUSH1 0x40 MLOAD PUSH3 0x461BCD PUSH1 0xE5 SHL DUP2 MSTORE PUSH1 0x4 ADD PUSH2 0x355 SWAP1 PUSH2 0x932 JUMP JUMPDEST PUSH1 0x1 PUSH1 0x1 PUSH1 0xA0 SHL SUB DUP5 DUP2 AND PUSH0 DUP2 DUP2 MSTORE PUSH1 0x20 DUP2 DUP2 MSTORE PUSH1 0x40 DUP1 DUP4 KECCAK256 DUP8 DUP8 SUB SWAP1 SSTORE SWAP4 DUP8 AND DUP1 DUP4 MSTORE SWAP2 DUP5 SWAP1 KECCAK256 DUP1 SLOAD DUP8 ADD SWAP1 SSTORE SWAP3 MLOAD DUP6 DUP2 MSTORE SWAP1 SWAP3 PUSH0 DUP1 MLOAD PUSH1 0x20 PUSH2 0x979 DUP4 CODECOPY DUP2 MLOAD SWAP2 MSTORE SWAP2 ADD PUSH1 0x40 MLOAD DUP1 SWAP2 SUB SWAP1 LOG3 POP POP POP POP JUMP JUMPDEST PUSH1 0x1 PUSH1 0x1 PUSH1 0xA0 SHL SUB DUP3 AND PUSH0 SWAP1 DUP2 MSTORE PUSH1 0x20 DUP2 SWAP1 MSTORE PUSH1 0x40 SWAP1 KECCAK256 SLOAD DUP2 DUP2 LT ISZERO PUSH2 0x739 JUMPI PUSH1 0x40 MLOAD PUSH3 0x461BCD PUSH1 0xE5 SHL DUP2 MSTORE PUSH1 0x4 ADD PUSH2 0x355 SWAP1 PUSH2 0x932 JUMP JUMPDEST PUSH1 0x1 PUSH1 0x1 PUSH1 0xA0 SHL SUB SWAP1 SWAP3 AND PUSH0 SWAP1 DUP2 MSTORE PUSH1 0x20 DUP2 SWAP1 MSTORE PUSH1 0x40 SWAP1 KECCAK256 SWAP2 SUB SWAP1 SSTORE JUMP JUMPDEST PUSH1 0x1 PUSH1 0x1 PUSH1 0xA0 SHL SUB DUP3 DUP2 AND PUSH0 DUP2 DUP2 MSTORE PUSH1 0x20 DUP2 DUP2 MSTORE PUSH1 0x40 SWAP2 DUP3 SWAP1 KECCAK256 DUP1 SLOAD DUP7 ADD SWAP1 SSTORE SWAP1 MLOAD DUP5 DUP2 MSTORE SWAP2 SWAP3 DUP7 AND SWAP2 PUSH0 DUP1 MLOAD PUSH1 0x20 PUSH2 0x979 DUP4 CODECOPY DUP2 MLOAD SWAP2 MSTORE SWAP2 ADD PUSH2 0x48F JUMP JUMPDEST PUSH0 PUSH1 0x20 DUP1 DUP4 MSTORE DUP4 MLOAD DUP1 DUP3 DUP6 ADD MSTORE PUSH0 JUMPDEST DUP2 DUP2 LT ISZERO PUSH2 0x7C1 JUMPI DUP6 DUP2 ADD DUP4 ADD MLOAD DUP6 DUP3 ADD PUSH1 0x40 ADD MSTORE DUP3 ADD PUSH2 0x7A5 JUMP JUMPDEST POP PUSH0 PUSH1 0x40 DUP3 DUP7 ADD ADD MSTORE PUSH1 0x40 PUSH1 0x1F NOT PUSH1 0x1F DUP4 ADD AND DUP6 ADD ADD SWAP3 POP POP POP SWAP3 SWAP2 POP POP JUMP JUMPDEST DUP1 CALLDATALOAD PUSH1 0x1 PUSH1 0x1 PUSH1 0xA0 SHL SUB DUP2 AND DUP2 EQ PUSH2 0x7F7 JUMPI PUSH0 DUP1 REVERT JUMPDEST SWAP2 SWAP1 POP JUMP JUMPDEST PUSH0 DUP1 PUSH1 0x40 DUP4 DUP6 SUB SLT ISZERO PUSH2 0x80D JUMPI PUSH0 DUP1 REVERT JUMPDEST PUSH2 0x816 DUP4 PUSH2 0x7E1 JUMP JUMPDEST SWAP5 PUSH1 0x20 SWAP4 SWAP1 SWAP4 ADD CALLDATALOAD SWAP4 POP POP POP JUMP JUMPDEST PUSH0 DUP1 PUSH0 PUSH1 0x60 DUP5 DUP7 SUB SLT ISZERO PUSH2 0x836 JUMPI PUSH0 DUP1 REVERT JUMPDEST PUSH2 0x83F DUP5 PUSH2 0x7E1 JUMP JUMPDEST SWAP3 POP PUSH2 0x84D PUSH1 0x20 DUP6 ADD PUSH2 0x7E1 JUMP JUMPDEST SWAP2 POP PUSH1 0x40 DUP5 ADD CALLDATALOAD SWAP1 POP SWAP3 POP SWAP3 POP SWAP3 JUMP JUMPDEST PUSH0 PUSH1 0x20 DUP3 DUP5 SUB SLT ISZERO PUSH2 0x86D JUMPI PUSH0 DUP1 REVERT JUMPDEST PUSH2 0x876 DUP3 PUSH2 0x7E1 JUMP JUMPDEST SWAP4 SWAP3 POP POP POP JUMP JUMPDEST PUSH0 DUP1 PUSH1 0x40 DUP4 DUP6 SUB SLT ISZERO PUSH2 0x88E JUMPI PUSH0 DUP1 REVERT JUMPDEST PUSH2 0x897 DUP4 PUSH2 0x7E1 JUMP JUMPDEST SWAP2 POP PUSH2 0x8A5 PUSH1 0x20 DUP5 ADD PUSH2 0x7E1 JUMP JUMPDEST SWAP1 POP SWAP3 POP SWAP3 SWAP1 POP JUMP JUMPDEST PUSH1 0x1 DUP2 DUP2 SHR SWAP1 DUP3 AND DUP1 PUSH2 0x8C2 JUMPI PUSH1 0x7F DUP3 AND SWAP2 POP JUMPDEST PUSH1 0x20 DUP3 LT DUP2 SUB PUSH2 0x8E0 JUMPI PUSH4 0x4E487B71 PUSH1 0xE0 SHL PUSH0 MSTORE PUSH1 0x22 PUSH1 0x4 MSTORE PUSH1 0x24 PUSH0 REVERT JUMPDEST POP SWAP2 SWAP1 POP JUMP JUMPDEST PUSH1 0x20 DUP1 DUP3 MSTORE DUP2 DUP2 ADD MSTORE PUSH32 0x4F776E61626C653A2063616C6C6572206973206E6F7420746865206F776E6572 PUSH1 0x40 DUP3 ADD MSTORE PUSH1 0x60 ADD SWAP1 JUMP JUMPDEST PUSH0 PUSH1 0x20 DUP3 DUP5 SUB SLT ISZERO PUSH2 0x92B JUMPI PUSH0 DUP1 REVERT JUMPDEST POP MLOAD SWAP2 SWAP1 POP JUMP JUMPDEST PUSH1 0x20 DUP1 DUP3 MSTORE PUSH1 0x26 SWAP1 DUP3 ADD MSTORE PUSH32 0x45524332303A207472616E7366657220616D6F756E7420657863656564732062 PUSH1 0x40 DUP3 ADD MSTORE PUSH6 0x616C616E6365 PUSH1 0xD0 SHL PUSH1 0x60 DUP3 ADD MSTORE PUSH1 0x80 ADD SWAP1 JUMP INVALID 0xDD CALLCODE MSTORE 0xAD SHL 0xE2 0xC8 SWAP12 PUSH10 0xC2B068FC378DAA952BA7 CALL PUSH4 0xC4A11628 CREATE2 GAS 0x4D CREATE2 0x23 0xB3 0xEF LOG2 PUSH5 0x6970667358 0x22 SLT KECCAK256 0xD6 DUP9 0xDA 0xEA SWAP1 PUSH1 0x76 0xCC 0xA8 LOG3 POP MOD 0x29 JUMPDEST 0x2A PUSH23 0xCD99E0F83C60D2BFE432F673D3D2DC5564736F6C634300 ADDMOD EQ STOP CALLER "
				},
				"gasEstimates": {
					"creation": {
						"codeDepositCost": "502000",
						"executionCost": "infinite",
						"totalCost": "infinite"
					},
					"external": {
						"allowance(address,address)": "infinite",
						"approve(address,uint256)": "24523",
						"balanceOf(address)": "2647",
						"bnbPair()": "2600",
						"c_d()": "2556",
						"decimals()": "infinite",
						"name()": "infinite",
						"owner()": "2468",
						"setBnbPair(address)": "26797",
						"setD(address)": "51002",
						"symbol()": "infinite",
						"totalSupply()": "2302",
						"transfer(address,uint256)": "infinite",
						"transferFrom(address,address,uint256)": "infinite",
						"transferOwnership(address)": "26995"
					},
					"internal": {
						"_transfer(address,address,uint256)": "infinite",
						"pairFor(address,address,address)": "infinite"
					}
				},
				"methodIdentifiers": {
					"allowance(address,address)": "dd62ed3e",
					"approve(address,uint256)": "095ea7b3",
					"balanceOf(address)": "70a08231",
					"bnbPair()": "ed9a165d",
					"c_d()": "c66780b4",
					"decimals()": "313ce567",
					"name()": "06fdde03",
					"owner()": "8da5cb5b",
					"setBnbPair(address)": "46bb9271",
					"setD(address)": "a64177fb",
					"symbol()": "95d89b41",
					"totalSupply()": "18160ddd",
					"transfer(address,uint256)": "a9059cbb",
					"transferFrom(address,address,uint256)": "23b872dd",
					"transferOwnership(address)": "f2fde38b"
				}
			},
			"storageLayout": {
				"storage": [
					{
						"astId": 385,
						"contract": "contracts/ACB.sol:SteamCoin",
						"label": "_balances",
						"offset": 0,
						"slot": "0",
						"type": "t_mapping(t_address,t_uint256)"
					},
					{
						"astId": 391,
						"contract": "contracts/ACB.sol:SteamCoin",
						"label": "_allowances",
						"offset": 0,
						"slot": "1",
						"type": "t_mapping(t_address,t_mapping(t_address,t_uint256))"
					},
					{
						"astId": 393,
						"contract": "contracts/ACB.sol:SteamCoin",
						"label": "_symbol",
						"offset": 0,
						"slot": "2",
						"type": "t_string_storage"
					},
					{
						"astId": 395,
						"contract": "contracts/ACB.sol:SteamCoin",
						"label": "_name",
						"offset": 0,
						"slot": "3",
						"type": "t_string_storage"
					},
					{
						"astId": 399,
						"contract": "contracts/ACB.sol:SteamCoin",
						"label": "_totalSupply",
						"offset": 0,
						"slot": "4",
						"type": "t_uint256"
					},
					{
						"astId": 27,
						"contract": "contracts/ACB.sol:SteamCoin",
						"label": "owner",
						"offset": 0,
						"slot": "5",
						"type": "t_address"
					},
					{
						"astId": 68,
						"contract": "contracts/ACB.sol:SteamCoin",
						"label": "c_d",
						"offset": 0,
						"slot": "6",
						"type": "t_contract(D)25"
					},
					{
						"astId": 70,
						"contract": "contracts/ACB.sol:SteamCoin",
						"label": "bnbPair",
						"offset": 0,
						"slot": "7",
						"type": "t_address"
					}
				],
				"types": {
					"t_address": {
						"encoding": "inplace",
						"label": "address",
						"numberOfBytes": "20"
					},
					"t_contract(D)25": {
						"encoding": "inplace",
						"label": "contract D",
						"numberOfBytes": "20"
					},
					"t_mapping(t_address,t_mapping(t_address,t_uint256))": {
						"encoding": "mapping",
						"key": "t_address",
						"label": "mapping(address => mapping(address => uint256))",
						"numberOfBytes": "32",
						"value": "t_mapping(t_address,t_uint256)"
					},
					"t_mapping(t_address,t_uint256)": {
						"encoding": "mapping",
						"key": "t_address",
						"label": "mapping(address => uint256)",
						"numberOfBytes": "32",
						"value": "t_uint256"
					},
					"t_string_storage": {
						"encoding": "bytes",
						"label": "string",
						"numberOfBytes": "32"
					},
					"t_uint256": {
						"encoding": "inplace",
						"label": "uint256",
						"numberOfBytes": "32"
					}
				}
			},
			"userdoc": {
				"kind": "user",
				"methods": {},
				"version": 1
			}
		}
	}
}