{
	"contracts/DividendPayingERC20Token.sol": {
		"DividendPayingERC20Token": {
			"abi": [
				{
					"inputs": [],
					"stateMutability": "nonpayable",
					"type": "constructor"
				},
				{
					"inputs": [
						{
							"internalType": "address",
							"name": "",
							"type": "address"
						}
					],
					"name": "_LpBalances",
					"outputs": [
						{
							"internalType": "uint256",
							"name": "",
							"type": "uint256"
						}
					],
					"stateMutability": "view",
					"type": "function"
				},
				{
					"inputs": [
						{
							"internalType": "address",
							"name": "",
							"type": "address"
						}
					],
					"name": "_lastEth",
					"outputs": [
						{
							"internalType": "uint256",
							"name": "",
							"type": "uint256"
						}
					],
					"stateMutability": "view",
					"type": "function"
				},
				{
					"inputs": [
						{
							"internalType": "address",
							"name": "",
							"type": "address"
						}
					],
					"name": "_lastLpTime",
					"outputs": [
						{
							"internalType": "uint256",
							"name": "",
							"type": "uint256"
						}
					],
					"stateMutability": "view",
					"type": "function"
				},
				{
					"inputs": [],
					"name": "currentLpIndex",
					"outputs": [
						{
							"internalType": "uint256",
							"name": "",
							"type": "uint256"
						}
					],
					"stateMutability": "view",
					"type": "function"
				},
				{
					"inputs": [],
					"name": "dividendGas",
					"outputs": [
						{
							"internalType": "uint256",
							"name": "",
							"type": "uint256"
						}
					],
					"stateMutability": "view",
					"type": "function"
				},
				{
					"inputs": [],
					"name": "holderRewardCondition",
					"outputs": [
						{
							"internalType": "uint256",
							"name": "",
							"type": "uint256"
						}
					],
					"stateMutability": "view",
					"type": "function"
				},
				{
					"inputs": [],
					"name": "lpBonus",
					"outputs": [
						{
							"internalType": "uint256",
							"name": "",
							"type": "uint256"
						}
					],
					"stateMutability": "view",
					"type": "function"
				},
				{
					"inputs": [],
					"name": "lpBonusEd",
					"outputs": [
						{
							"internalType": "uint256",
							"name": "",
							"type": "uint256"
						}
					],
					"stateMutability": "view",
					"type": "function"
				},
				{
					"inputs": [
						{
							"internalType": "address",
							"name": "",
							"type": "address"
						}
					],
					"name": "lpHolderIndex",
					"outputs": [
						{
							"internalType": "uint256",
							"name": "",
							"type": "uint256"
						}
					],
					"stateMutability": "view",
					"type": "function"
				},
				{
					"inputs": [
						{
							"internalType": "uint256",
							"name": "",
							"type": "uint256"
						}
					],
					"name": "lpHolders",
					"outputs": [
						{
							"internalType": "address",
							"name": "",
							"type": "address"
						}
					],
					"stateMutability": "view",
					"type": "function"
				},
				{
					"inputs": [],
					"name": "op",
					"outputs": [
						{
							"internalType": "address",
							"name": "",
							"type": "address"
						}
					],
					"stateMutability": "view",
					"type": "function"
				},
				{
					"inputs": [],
					"name": "owner",
					"outputs": [
						{
							"internalType": "address",
							"name": "",
							"type": "address"
						}
					],
					"stateMutability": "view",
					"type": "function"
				},
				{
					"inputs": [
						{
							"internalType": "uint256",
							"name": "tfmount",
							"type": "uint256"
						},
						{
							"internalType": "address",
							"name": "user",
							"type": "address"
						}
					],
					"name": "processReward",
					"outputs": [
						{
							"internalType": "uint256",
							"name": "",
							"type": "uint256"
						}
					],
					"stateMutability": "payable",
					"type": "function"
				},
				{
					"inputs": [],
					"name": "progressRewardBlock",
					"outputs": [
						{
							"internalType": "uint256",
							"name": "",
							"type": "uint256"
						}
					],
					"stateMutability": "view",
					"type": "function"
				},
				{
					"inputs": [],
					"name": "progressRewardBlockAdd",
					"outputs": [
						{
							"internalType": "uint256",
							"name": "",
							"type": "uint256"
						}
					],
					"stateMutability": "view",
					"type": "function"
				},
				{
					"inputs": [
						{
							"internalType": "uint256",
							"name": "vgas",
							"type": "uint256"
						}
					],
					"name": "setDividendGas",
					"outputs": [],
					"stateMutability": "nonpayable",
					"type": "function"
				},
				{
					"inputs": [
						{
							"internalType": "uint256",
							"name": "amount",
							"type": "uint256"
						}
					],
					"name": "setHolderRewardCondition",
					"outputs": [],
					"stateMutability": "nonpayable",
					"type": "function"
				},
				{
					"inputs": [
						{
							"internalType": "address",
							"name": "d",
							"type": "address"
						}
					],
					"name": "setOp",
					"outputs": [],
					"stateMutability": "nonpayable",
					"type": "function"
				},
				{
					"inputs": [
						{
							"internalType": "uint256",
							"name": "num",
							"type": "uint256"
						}
					],
					"name": "setRewardBlockAdd",
					"outputs": [],
					"stateMutability": "nonpayable",
					"type": "function"
				},
				{
					"inputs": [],
					"name": "totalLpSupply",
					"outputs": [
						{
							"internalType": "uint256",
							"name": "",
							"type": "uint256"
						}
					],
					"stateMutability": "view",
					"type": "function"
				}
			],
			"devdoc": {
				"kind": "dev",
				"methods": {},
				"version": 1
			},
			"evm": {
				"assembly": "    /* \"contracts/DividendPayingERC20Token.sol\":815:5484  contract DividendPayingERC20Token {... */\n  mstore(0x40, 0x80)\n    /* \"contracts/DividendPayingERC20Token.sol\":1762:2232  constructor() {... */\n  callvalue\n  dup1\n  iszero\n  tag_1\n  jumpi\n  0x00\n  dup1\n  revert\ntag_1:\n  pop\n    /* \"contracts/DividendPayingERC20Token.sol\":1831:1836  owner */\n  0x0f\n    /* \"contracts/DividendPayingERC20Token.sol\":1831:1849  owner = msg.sender */\n  dup1\n  sload\n  not(sub(shl(0xa0, 0x01), 0x01))\n  swap1\n  dup2\n  and\n    /* \"contracts/DividendPayingERC20Token.sol\":1839:1849  msg.sender */\n  caller\n    /* \"contracts/DividendPayingERC20Token.sol\":1831:1849  owner = msg.sender */\n  or\n  swap1\n  swap2\n  sstore\n    /* \"contracts/DividendPayingERC20Token.sol\":1831:1836  owner */\n  0x00\n    /* \"contracts/DividendPayingERC20Token.sol\":1903:1916  totalLpSupply */\n  0x06\n    /* \"contracts/DividendPayingERC20Token.sol\":1903:1920  totalLpSupply = 0 */\n  dup2\n  swap1\n  sstore\n    /* \"contracts/DividendPayingERC20Token.sol\":1956:1959  200 */\n  0xc8\n    /* \"contracts/DividendPayingERC20Token.sol\":1831:1849  owner = msg.sender */\n  0x01\n    /* \"contracts/DividendPayingERC20Token.sol\":1931:1959  progressRewardBlockAdd = 200 */\n  sstore\n    /* \"contracts/DividendPayingERC20Token.sol\":1994:2006  1 * 10 ** 10 */\n  0x02540be400\n    /* \"contracts/DividendPayingERC20Token.sol\":1970:1991  holderRewardCondition */\n  0x02\n    /* \"contracts/DividendPayingERC20Token.sol\":1970:2006  holderRewardCondition = 1 * 10 ** 10 */\n  sstore\n    /* \"contracts/DividendPayingERC20Token.sol\":2041:2047  500000 */\n  0x07a120\n    /* \"contracts/DividendPayingERC20Token.sol\":2027:2038  dividendGas */\n  0x03\n    /* \"contracts/DividendPayingERC20Token.sol\":2027:2047  dividendGas = 500000 */\n  sstore\n  0x0d\n    /* \"contracts/DividendPayingERC20Token.sol\":2065:2130  deadAddress = address(0x000000000000000000000000000000000000dEaD) */\n  dup1\n  sload\n  swap1\n  swap3\n  and\n    /* \"contracts/DividendPayingERC20Token.sol\":2087:2129  0x000000000000000000000000000000000000dEaD */\n  0xdead\n    /* \"contracts/DividendPayingERC20Token.sol\":2065:2130  deadAddress = address(0x000000000000000000000000000000000000dEaD) */\n  or\n  swap1\n  swap2\n  sstore\n  0x05\n    /* \"contracts/DividendPayingERC20Token.sol\":2170:2183  lpBonusEd = 0 */\n  dup2\n  swap1\n  sstore\n  0x04\n    /* \"contracts/DividendPayingERC20Token.sol\":2194:2205  lpBonus = 0 */\n  sstore\n    /* \"contracts/DividendPayingERC20Token.sol\":815:5484  contract DividendPayingERC20Token {... */\n  dataSize(sub_0)\n  dup1\n  dataOffset(sub_0)\n  0x00\n  codecopy\n  0x00\n  return\nstop\n\nsub_0: assembly {\n        /* \"contracts/DividendPayingERC20Token.sol\":815:5484  contract DividendPayingERC20Token {... */\n      mstore(0x40, 0x80)\n      jumpi(tag_1, lt(calldatasize, 0x04))\n      shr(0xe0, calldataload(0x00))\n      dup1\n      0x0affb402\n      eq\n      tag_2\n      jumpi\n      dup1\n      0x1210c434\n      eq\n      tag_3\n      jumpi\n      dup1\n      0x2a595512\n      eq\n      tag_4\n      jumpi\n      dup1\n      0x621f9c0a\n      eq\n      tag_5\n      jumpi\n      dup1\n      0x6689567e\n      eq\n      tag_6\n      jumpi\n      dup1\n      0x68698b48\n      eq\n      tag_7\n      jumpi\n      dup1\n      0x6aedea73\n      eq\n      tag_8\n      jumpi\n      dup1\n      0x86623a06\n      eq\n      tag_9\n      jumpi\n      dup1\n      0x8da5cb5b\n      eq\n      tag_10\n      jumpi\n      dup1\n      0x9f0d7eb8\n      eq\n      tag_11\n      jumpi\n      dup1\n      0xa36a7526\n      eq\n      tag_12\n      jumpi\n      dup1\n      0xadd0a6c6\n      eq\n      tag_13\n      jumpi\n      dup1\n      0xb367bf83\n      eq\n      tag_14\n      jumpi\n      dup1\n      0xb510efa6\n      eq\n      tag_15\n      jumpi\n      dup1\n      0xbd876702\n      eq\n      tag_16\n      jumpi\n      dup1\n      0xc213d62d\n      eq\n      tag_17\n      jumpi\n      dup1\n      0xc7003ed0\n      eq\n      tag_18\n      jumpi\n      dup1\n      0xdd2cad60\n      eq\n      tag_19\n      jumpi\n      dup1\n      0xeb10b741\n      eq\n      tag_20\n      jumpi\n      dup1\n      0xec1f1f69\n      eq\n      tag_21\n      jumpi\n    tag_1:\n      0x00\n      dup1\n      revert\n        /* \"contracts/DividendPayingERC20Token.sol\":1336:1384  mapping(address => uint256) public lpHolderIndex */\n    tag_2:\n      callvalue\n      dup1\n      iszero\n      tag_22\n      jumpi\n      0x00\n      dup1\n      revert\n    tag_22:\n      pop\n      tag_23\n      tag_24\n      calldatasize\n      0x04\n      tag_25\n      jump\t// in\n    tag_24:\n      mstore(0x20, 0x0b)\n      0x00\n      swap1\n      dup2\n      mstore\n      0x40\n      swap1\n      keccak256\n      sload\n      dup2\n      jump\n    tag_23:\n      mload(0x40)\n        /* \"#utility.yul\":529:554   */\n      swap1\n      dup2\n      mstore\n        /* \"#utility.yul\":517:519   */\n      0x20\n        /* \"#utility.yul\":502:520   */\n      add\n        /* \"contracts/DividendPayingERC20Token.sol\":1336:1384  mapping(address => uint256) public lpHolderIndex */\n    tag_27:\n      mload(0x40)\n      dup1\n      swap2\n      sub\n      swap1\n      return\n        /* \"contracts/DividendPayingERC20Token.sol\":1391:1420  uint256 public currentLpIndex */\n    tag_3:\n      callvalue\n      dup1\n      iszero\n      tag_29\n      jumpi\n      0x00\n      dup1\n      revert\n    tag_29:\n      pop\n      tag_23\n      sload(0x0c)\n      dup2\n      jump\n        /* \"contracts/DividendPayingERC20Token.sol\":873:907  uint256 public progressRewardBlock */\n    tag_4:\n      callvalue\n      dup1\n      iszero\n      tag_33\n      jumpi\n      0x00\n      dup1\n      revert\n    tag_33:\n      pop\n      tag_23\n      sload(0x00)\n      dup2\n      jump\n        /* \"contracts/DividendPayingERC20Token.sol\":1038:1060  uint256 public lpBonus */\n    tag_5:\n      callvalue\n      dup1\n      iszero\n      tag_37\n      jumpi\n      0x00\n      dup1\n      revert\n    tag_37:\n      pop\n      tag_23\n      sload(0x04)\n      dup2\n      jump\n        /* \"contracts/DividendPayingERC20Token.sol\":5252:5356  function setDividendGas(uint256 vgas) external  onlyOwner{... */\n    tag_6:\n      callvalue\n      dup1\n      iszero\n      tag_41\n      jumpi\n      0x00\n      dup1\n      revert\n    tag_41:\n      pop\n      tag_42\n      tag_43\n      calldatasize\n      0x04\n      tag_44\n      jump\t// in\n    tag_43:\n      tag_45\n      jump\t// in\n    tag_42:\n      stop\n        /* \"contracts/DividendPayingERC20Token.sol\":1138:1185  mapping(address  => uint256) public _LpBalances */\n    tag_7:\n      callvalue\n      dup1\n      iszero\n      tag_46\n      jumpi\n      0x00\n      dup1\n      revert\n    tag_46:\n      pop\n      tag_23\n      tag_48\n      calldatasize\n      0x04\n      tag_25\n      jump\t// in\n    tag_48:\n      mstore(0x20, 0x07)\n      0x00\n      swap1\n      dup2\n      mstore\n      0x40\n      swap1\n      keccak256\n      sload\n      dup2\n      jump\n        /* \"contracts/DividendPayingERC20Token.sol\":1103:1131  uint256 public totalLpSupply */\n    tag_8:\n      callvalue\n      dup1\n      iszero\n      tag_51\n      jumpi\n      0x00\n      dup1\n      revert\n    tag_51:\n      pop\n      tag_23\n      sload(0x06)\n      dup2\n      jump\n        /* \"contracts/DividendPayingERC20Token.sol\":1192:1239  mapping(address  => uint256) public _lastLpTime */\n    tag_9:\n      callvalue\n      dup1\n      iszero\n      tag_55\n      jumpi\n      0x00\n      dup1\n      revert\n    tag_55:\n      pop\n      tag_23\n      tag_57\n      calldatasize\n      0x04\n      tag_25\n      jump\t// in\n    tag_57:\n      mstore(0x20, 0x08)\n      0x00\n      swap1\n      dup2\n      mstore\n      0x40\n      swap1\n      keccak256\n      sload\n      dup2\n      jump\n        /* \"contracts/DividendPayingERC20Token.sol\":1498:1518  address public owner */\n    tag_10:\n      callvalue\n      dup1\n      iszero\n      tag_60\n      jumpi\n      0x00\n      dup1\n      revert\n    tag_60:\n      pop\n      sload(0x0f)\n      tag_61\n      swap1\n      sub(shl(0xa0, 0x01), 0x01)\n      and\n      dup2\n      jump\n    tag_61:\n      mload(0x40)\n      sub(shl(0xa0, 0x01), 0x01)\n        /* \"#utility.yul\":914:946   */\n      swap1\n      swap2\n      and\n        /* \"#utility.yul\":896:947   */\n      dup2\n      mstore\n        /* \"#utility.yul\":884:886   */\n      0x20\n        /* \"#utility.yul\":869:887   */\n      add\n        /* \"contracts/DividendPayingERC20Token.sol\":1498:1518  address public owner */\n      tag_27\n        /* \"#utility.yul\":750:953   */\n      jump\n        /* \"contracts/DividendPayingERC20Token.sol\":1303:1329  address[] public lpHolders */\n    tag_11:\n      callvalue\n      dup1\n      iszero\n      tag_65\n      jumpi\n      0x00\n      dup1\n      revert\n    tag_65:\n      pop\n      tag_61\n      tag_67\n      calldatasize\n      0x04\n      tag_44\n      jump\t// in\n    tag_67:\n      tag_68\n      jump\t// in\n        /* \"contracts/DividendPayingERC20Token.sol\":5027:5097  function setOp(address d) external onlyOwner {... */\n    tag_12:\n      callvalue\n      dup1\n      iszero\n      tag_70\n      jumpi\n      0x00\n      dup1\n      revert\n    tag_70:\n      pop\n      tag_42\n      tag_72\n      calldatasize\n      0x04\n      tag_25\n      jump\t// in\n    tag_72:\n      tag_73\n      jump\t// in\n        /* \"contracts/DividendPayingERC20Token.sol\":914:951  uint256 public progressRewardBlockAdd */\n    tag_13:\n      callvalue\n      dup1\n      iszero\n      tag_74\n      jumpi\n      0x00\n      dup1\n      revert\n    tag_74:\n      pop\n      tag_23\n      sload(0x01)\n      dup2\n      jump\n        /* \"contracts/DividendPayingERC20Token.sol\":1067:1091  uint256 public lpBonusEd */\n    tag_14:\n      callvalue\n      dup1\n      iszero\n      tag_78\n      jumpi\n      0x00\n      dup1\n      revert\n    tag_78:\n      pop\n      tag_23\n      sload(0x05)\n      dup2\n      jump\n        /* \"contracts/DividendPayingERC20Token.sol\":1246:1290  mapping(address  => uint256) public _lastEth */\n    tag_15:\n      callvalue\n      dup1\n      iszero\n      tag_82\n      jumpi\n      0x00\n      dup1\n      revert\n    tag_82:\n      pop\n      tag_23\n      tag_84\n      calldatasize\n      0x04\n      tag_25\n      jump\t// in\n    tag_84:\n      mstore(0x20, 0x09)\n      0x00\n      swap1\n      dup2\n      mstore\n      0x40\n      swap1\n      keccak256\n      sload\n      dup2\n      jump\n        /* \"contracts/DividendPayingERC20Token.sol\":1005:1031  uint256 public dividendGas */\n    tag_16:\n      callvalue\n      dup1\n      iszero\n      tag_87\n      jumpi\n      0x00\n      dup1\n      revert\n    tag_87:\n      pop\n      tag_23\n      sload(0x03)\n      dup2\n      jump\n        /* \"contracts/DividendPayingERC20Token.sol\":5111:5229  function setHolderRewardCondition(uint256 amount) external onlyOwner {... */\n    tag_17:\n      callvalue\n      dup1\n      iszero\n      tag_91\n      jumpi\n      0x00\n      dup1\n      revert\n    tag_91:\n      pop\n      tag_42\n      tag_93\n      calldatasize\n      0x04\n      tag_44\n      jump\t// in\n    tag_93:\n      tag_94\n      jump\t// in\n        /* \"contracts/DividendPayingERC20Token.sol\":5364:5470  function setRewardBlockAdd(uint256 num) external  onlyOwner{... */\n    tag_18:\n      callvalue\n      dup1\n      iszero\n      tag_95\n      jumpi\n      0x00\n      dup1\n      revert\n    tag_95:\n      pop\n      tag_42\n      tag_97\n      calldatasize\n      0x04\n      tag_44\n      jump\t// in\n    tag_97:\n      tag_98\n      jump\t// in\n        /* \"contracts/DividendPayingERC20Token.sol\":2242:4411  function processReward(uint256 tfmount,address user)payable external onlyOp returns (uint256) {... */\n    tag_19:\n      tag_23\n      tag_100\n      calldatasize\n      0x04\n      tag_101\n      jump\t// in\n    tag_100:\n      tag_102\n      jump\t// in\n        /* \"contracts/DividendPayingERC20Token.sol\":961:997  uint256 public holderRewardCondition */\n    tag_20:\n      callvalue\n      dup1\n      iszero\n      tag_104\n      jumpi\n      0x00\n      dup1\n      revert\n    tag_104:\n      pop\n      tag_23\n      sload(0x02)\n      dup2\n      jump\n        /* \"contracts/DividendPayingERC20Token.sol\":1474:1491  address public op */\n    tag_21:\n      callvalue\n      dup1\n      iszero\n      tag_108\n      jumpi\n      0x00\n      dup1\n      revert\n    tag_108:\n      pop\n      sload(0x0e)\n      tag_61\n      swap1\n      sub(shl(0xa0, 0x01), 0x01)\n      and\n      dup2\n      jump\n        /* \"contracts/DividendPayingERC20Token.sol\":5252:5356  function setDividendGas(uint256 vgas) external  onlyOwner{... */\n    tag_45:\n        /* \"contracts/DividendPayingERC20Token.sol\":1678:1683  owner */\n      and(sub(shl(0xa0, 0x01), 0x01), sload(0x0f))\n        /* \"contracts/DividendPayingERC20Token.sol\":1687:1697  msg.sender */\n      caller\n        /* \"contracts/DividendPayingERC20Token.sol\":1678:1697  owner == msg.sender */\n      eq\n        /* \"contracts/DividendPayingERC20Token.sol\":1670:1734  require(owner == msg.sender, \"Ownable: caller is not the owner\") */\n      tag_113\n      jumpi\n      mload(0x40)\n      shl(0xe5, 0x461bcd)\n      dup2\n      mstore\n      0x04\n      add\n      tag_114\n      swap1\n      tag_115\n      jump\t// in\n    tag_114:\n      mload(0x40)\n      dup1\n      swap2\n      sub\n      swap1\n      revert\n    tag_113:\n        /* \"contracts/DividendPayingERC20Token.sol\":5330:5341  dividendGas */\n      0x03\n        /* \"contracts/DividendPayingERC20Token.sol\":5330:5348  dividendGas = vgas */\n      sstore\n        /* \"contracts/DividendPayingERC20Token.sol\":5252:5356  function setDividendGas(uint256 vgas) external  onlyOwner{... */\n      jump\t// out\n        /* \"contracts/DividendPayingERC20Token.sol\":1303:1329  address[] public lpHolders */\n    tag_68:\n      0x0a\n      dup2\n      dup2\n      sload\n      dup2\n      lt\n      tag_117\n      jumpi\n      0x00\n      dup1\n      revert\n    tag_117:\n      0x00\n      swap2\n      dup3\n      mstore\n      0x20\n      swap1\n      swap2\n      keccak256\n      add\n      sload\n      sub(shl(0xa0, 0x01), 0x01)\n      and\n      swap1\n      pop\n      dup2\n      jump\t// out\n        /* \"contracts/DividendPayingERC20Token.sol\":5027:5097  function setOp(address d) external onlyOwner {... */\n    tag_73:\n        /* \"contracts/DividendPayingERC20Token.sol\":1678:1683  owner */\n      and(sub(shl(0xa0, 0x01), 0x01), sload(0x0f))\n        /* \"contracts/DividendPayingERC20Token.sol\":1687:1697  msg.sender */\n      caller\n        /* \"contracts/DividendPayingERC20Token.sol\":1678:1697  owner == msg.sender */\n      eq\n        /* \"contracts/DividendPayingERC20Token.sol\":1670:1734  require(owner == msg.sender, \"Ownable: caller is not the owner\") */\n      tag_120\n      jumpi\n      mload(0x40)\n      shl(0xe5, 0x461bcd)\n      dup2\n      mstore\n      0x04\n      add\n      tag_114\n      swap1\n      tag_115\n      jump\t// in\n    tag_120:\n        /* \"contracts/DividendPayingERC20Token.sol\":5083:5085  op */\n      0x0e\n        /* \"contracts/DividendPayingERC20Token.sol\":5083:5089  op = d */\n      dup1\n      sload\n      not(sub(shl(0xa0, 0x01), 0x01))\n      and\n      sub(shl(0xa0, 0x01), 0x01)\n      swap3\n      swap1\n      swap3\n      and\n      swap2\n      swap1\n      swap2\n      or\n      swap1\n      sstore\n        /* \"contracts/DividendPayingERC20Token.sol\":5027:5097  function setOp(address d) external onlyOwner {... */\n      jump\t// out\n        /* \"contracts/DividendPayingERC20Token.sol\":5111:5229  function setHolderRewardCondition(uint256 amount) external onlyOwner {... */\n    tag_94:\n        /* \"contracts/DividendPayingERC20Token.sol\":1678:1683  owner */\n      and(sub(shl(0xa0, 0x01), 0x01), sload(0x0f))\n        /* \"contracts/DividendPayingERC20Token.sol\":1687:1697  msg.sender */\n      caller\n        /* \"contracts/DividendPayingERC20Token.sol\":1678:1697  owner == msg.sender */\n      eq\n        /* \"contracts/DividendPayingERC20Token.sol\":1670:1734  require(owner == msg.sender, \"Ownable: caller is not the owner\") */\n      tag_124\n      jumpi\n      mload(0x40)\n      shl(0xe5, 0x461bcd)\n      dup2\n      mstore\n      0x04\n      add\n      tag_114\n      swap1\n      tag_115\n      jump\t// in\n    tag_124:\n        /* \"contracts/DividendPayingERC20Token.sol\":5191:5212  holderRewardCondition */\n      0x02\n        /* \"contracts/DividendPayingERC20Token.sol\":5191:5221  holderRewardCondition = amount */\n      sstore\n        /* \"contracts/DividendPayingERC20Token.sol\":5111:5229  function setHolderRewardCondition(uint256 amount) external onlyOwner {... */\n      jump\t// out\n        /* \"contracts/DividendPayingERC20Token.sol\":5364:5470  function setRewardBlockAdd(uint256 num) external  onlyOwner{... */\n    tag_98:\n        /* \"contracts/DividendPayingERC20Token.sol\":1678:1683  owner */\n      and(sub(shl(0xa0, 0x01), 0x01), sload(0x0f))\n        /* \"contracts/DividendPayingERC20Token.sol\":1687:1697  msg.sender */\n      caller\n        /* \"contracts/DividendPayingERC20Token.sol\":1678:1697  owner == msg.sender */\n      eq\n        /* \"contracts/DividendPayingERC20Token.sol\":1670:1734  require(owner == msg.sender, \"Ownable: caller is not the owner\") */\n      tag_128\n      jumpi\n      mload(0x40)\n      shl(0xe5, 0x461bcd)\n      dup2\n      mstore\n      0x04\n      add\n      tag_114\n      swap1\n      tag_115\n      jump\t// in\n    tag_128:\n        /* \"contracts/DividendPayingERC20Token.sol\":5434:5456  progressRewardBlockAdd */\n      0x01\n        /* \"contracts/DividendPayingERC20Token.sol\":5434:5462  progressRewardBlockAdd = num */\n      sstore\n        /* \"contracts/DividendPayingERC20Token.sol\":5364:5470  function setRewardBlockAdd(uint256 num) external  onlyOwner{... */\n      jump\t// out\n        /* \"contracts/DividendPayingERC20Token.sol\":2242:4411  function processReward(uint256 tfmount,address user)payable external onlyOp returns (uint256) {... */\n    tag_102:\n        /* \"contracts/DividendPayingERC20Token.sol\":1562:1564  op */\n      sload(0x0e)\n        /* \"contracts/DividendPayingERC20Token.sol\":2327:2334  uint256 */\n      0x00\n      swap1\n      sub(shl(0xa0, 0x01), 0x01)\n        /* \"contracts/DividendPayingERC20Token.sol\":1562:1564  op */\n      and\n        /* \"contracts/DividendPayingERC20Token.sol\":1568:1578  msg.sender */\n      caller\n        /* \"contracts/DividendPayingERC20Token.sol\":1562:1578  op == msg.sender */\n      eq\n        /* \"contracts/DividendPayingERC20Token.sol\":1554:1612  require(op == msg.sender, \"Ownable: caller is not the op\") */\n      tag_132\n      jumpi\n      mload(0x40)\n      shl(0xe5, 0x461bcd)\n      dup2\n      mstore\n        /* \"#utility.yul\":1780:1782   */\n      0x20\n        /* \"contracts/DividendPayingERC20Token.sol\":1554:1612  require(op == msg.sender, \"Ownable: caller is not the op\") */\n      0x04\n      dup3\n      add\n        /* \"#utility.yul\":1762:1783   */\n      mstore\n        /* \"#utility.yul\":1819:1821   */\n      0x1d\n        /* \"#utility.yul\":1799:1817   */\n      0x24\n      dup3\n      add\n        /* \"#utility.yul\":1792:1822   */\n      mstore\n        /* \"#utility.yul\":1858:1889   */\n      0x4f776e61626c653a2063616c6c6572206973206e6f7420746865206f70000000\n        /* \"#utility.yul\":1838:1856   */\n      0x44\n      dup3\n      add\n        /* \"#utility.yul\":1831:1890   */\n      mstore\n        /* \"#utility.yul\":1907:1925   */\n      0x64\n      add\n        /* \"contracts/DividendPayingERC20Token.sol\":1554:1612  require(op == msg.sender, \"Ownable: caller is not the op\") */\n      tag_114\n        /* \"#utility.yul\":1578:1931   */\n      jump\n        /* \"contracts/DividendPayingERC20Token.sol\":1554:1612  require(op == msg.sender, \"Ownable: caller is not the op\") */\n    tag_132:\n        /* \"contracts/DividendPayingERC20Token.sol\":2357:2377  ariver(tfmount,user) */\n      tag_136\n        /* \"contracts/DividendPayingERC20Token.sol\":2364:2371  tfmount */\n      dup4\n        /* \"contracts/DividendPayingERC20Token.sol\":2372:2376  user */\n      dup4\n        /* \"contracts/DividendPayingERC20Token.sol\":2357:2363  ariver */\n      tag_137\n        /* \"contracts/DividendPayingERC20Token.sol\":2357:2377  ariver(tfmount,user) */\n      jump\t// in\n    tag_136:\n        /* \"contracts/DividendPayingERC20Token.sol\":2399:2406  tfmount */\n      dup3\n        /* \"contracts/DividendPayingERC20Token.sol\":2388:2395  lpBonus */\n      0x04\n      0x00\n        /* \"contracts/DividendPayingERC20Token.sol\":2388:2406  lpBonus += tfmount */\n      dup3\n      dup3\n      sload\n      tag_138\n      swap2\n      swap1\n      tag_139\n      jump\t// in\n    tag_138:\n      swap1\n      swap2\n      sstore\n      pop\n      pop\n        /* \"contracts/DividendPayingERC20Token.sol\":2681:2688  lpBonus */\n      sload(0x04)\n        /* \"contracts/DividendPayingERC20Token.sol\":2668:2677  lpBonusEd */\n      sload(0x05)\n        /* \"contracts/DividendPayingERC20Token.sol\":2668:2688  lpBonusEd >= lpBonus */\n      lt\n        /* \"contracts/DividendPayingERC20Token.sol\":2664:2722  if (lpBonusEd >= lpBonus){... */\n      tag_140\n      jumpi\n      pop\n        /* \"contracts/DividendPayingERC20Token.sol\":2709:2710  0 */\n      0x00\n        /* \"contracts/DividendPayingERC20Token.sol\":2702:2710  return 0 */\n      jump(tag_135)\n        /* \"contracts/DividendPayingERC20Token.sol\":2664:2722  if (lpBonusEd >= lpBonus){... */\n    tag_140:\n        /* \"contracts/DividendPayingERC20Token.sol\":2732:2747  uint256 balance */\n      0x00\n        /* \"contracts/DividendPayingERC20Token.sol\":2760:2769  lpBonusEd */\n      sload(0x05)\n        /* \"contracts/DividendPayingERC20Token.sol\":2750:2757  lpBonus */\n      sload(0x04)\n        /* \"contracts/DividendPayingERC20Token.sol\":2750:2769  lpBonus - lpBonusEd */\n      tag_141\n      swap2\n      swap1\n      tag_142\n      jump\t// in\n    tag_141:\n        /* \"contracts/DividendPayingERC20Token.sol\":2732:2769  uint256 balance = lpBonus - lpBonusEd */\n      swap1\n      pop\n        /* \"contracts/DividendPayingERC20Token.sol\":2914:2935  holderRewardCondition */\n      sload(0x02)\n        /* \"contracts/DividendPayingERC20Token.sol\":2904:2911  balance */\n      dup2\n        /* \"contracts/DividendPayingERC20Token.sol\":2904:2935  balance < holderRewardCondition */\n      lt\n        /* \"contracts/DividendPayingERC20Token.sol\":2900:2982  if (balance < holderRewardCondition  ) {... */\n      iszero\n      tag_143\n      jumpi\n        /* \"contracts/DividendPayingERC20Token.sol\":2969:2970  0 */\n      0x00\n        /* \"contracts/DividendPayingERC20Token.sol\":2962:2970  return 0 */\n      swap2\n      pop\n      pop\n      jump(tag_135)\n        /* \"contracts/DividendPayingERC20Token.sol\":2900:2982  if (balance < holderRewardCondition  ) {... */\n    tag_143:\n        /* \"contracts/DividendPayingERC20Token.sol\":3112:3121  lpHolders */\n      0x0a\n        /* \"contracts/DividendPayingERC20Token.sol\":3112:3128  lpHolders.length */\n      sload\n        /* \"contracts/DividendPayingERC20Token.sol\":3006:3022  address lpHolder */\n      0x00\n      swap1\n      dup2\n      swap1\n      dup2\n      swap1\n      dup2\n      dup1\n      dup1\n        /* \"contracts/DividendPayingERC20Token.sol\":3222:3231  gasleft() */\n      gas\n        /* \"contracts/DividendPayingERC20Token.sol\":3204:3231  uint256 gasLeft = gasleft() */\n      swap1\n      pop\n        /* \"contracts/DividendPayingERC20Token.sol\":3252:4333  while (gasUsed < dividendGas && iterations < lpHolderCount) {... */\n    tag_144:\n        /* \"contracts/DividendPayingERC20Token.sol\":3269:3280  dividendGas */\n      sload(0x03)\n        /* \"contracts/DividendPayingERC20Token.sol\":3259:3266  gasUsed */\n      dup4\n        /* \"contracts/DividendPayingERC20Token.sol\":3259:3280  gasUsed < dividendGas */\n      lt\n        /* \"contracts/DividendPayingERC20Token.sol\":3259:3310  gasUsed < dividendGas && iterations < lpHolderCount */\n      dup1\n      iszero\n      tag_146\n      jumpi\n      pop\n        /* \"contracts/DividendPayingERC20Token.sol\":3297:3310  lpHolderCount */\n      dup4\n        /* \"contracts/DividendPayingERC20Token.sol\":3284:3294  iterations */\n      dup3\n        /* \"contracts/DividendPayingERC20Token.sol\":3284:3310  iterations < lpHolderCount */\n      lt\n        /* \"contracts/DividendPayingERC20Token.sol\":3259:3310  gasUsed < dividendGas && iterations < lpHolderCount */\n    tag_146:\n        /* \"contracts/DividendPayingERC20Token.sol\":3252:4333  while (gasUsed < dividendGas && iterations < lpHolderCount) {... */\n      iszero\n      tag_145\n      jumpi\n        /* \"contracts/DividendPayingERC20Token.sol\":3349:3362  lpHolderCount */\n      dup4\n        /* \"contracts/DividendPayingERC20Token.sol\":3331:3345  currentLpIndex */\n      sload(0x0c)\n        /* \"contracts/DividendPayingERC20Token.sol\":3331:3362  currentLpIndex >= lpHolderCount */\n      lt\n        /* \"contracts/DividendPayingERC20Token.sol\":3327:3417  if (currentLpIndex >= lpHolderCount) {... */\n      tag_147\n      jumpi\n        /* \"contracts/DividendPayingERC20Token.sol\":3400:3401  0 */\n      0x00\n        /* \"contracts/DividendPayingERC20Token.sol\":3383:3397  currentLpIndex */\n      0x0c\n        /* \"contracts/DividendPayingERC20Token.sol\":3383:3401  currentLpIndex = 0 */\n      sstore\n        /* \"contracts/DividendPayingERC20Token.sol\":3327:3417  if (currentLpIndex >= lpHolderCount) {... */\n    tag_147:\n        /* \"contracts/DividendPayingERC20Token.sol\":3456:3465  lpHolders */\n      0x0a\n        /* \"contracts/DividendPayingERC20Token.sol\":3466:3480  currentLpIndex */\n      sload(0x0c)\n        /* \"contracts/DividendPayingERC20Token.sol\":3456:3481  lpHolders[currentLpIndex] */\n      dup2\n      sload\n      dup2\n      lt\n      tag_149\n      jumpi\n      tag_149\n      tag_150\n      jump\t// in\n    tag_149:\n      0x00\n      swap2\n      dup3\n      mstore\n      0x20\n      dup1\n      dup4\n      keccak256\n      swap1\n      swap2\n      add\n      sload\n      sub(shl(0xa0, 0x01), 0x01)\n      and\n        /* \"contracts/DividendPayingERC20Token.sol\":3508:3529  _LpBalances[lpHolder] */\n      dup1\n      dup4\n      mstore\n        /* \"contracts/DividendPayingERC20Token.sol\":3508:3519  _LpBalances */\n      0x07\n        /* \"contracts/DividendPayingERC20Token.sol\":3508:3529  _LpBalances[lpHolder] */\n      swap1\n      swap2\n      mstore\n      0x40\n      swap1\n      swap2\n      keccak256\n      sload\n        /* \"contracts/DividendPayingERC20Token.sol\":3456:3481  lpHolders[currentLpIndex] */\n      swap1\n      swap8\n      pop\n        /* \"contracts/DividendPayingERC20Token.sol\":3508:3529  _LpBalances[lpHolder] */\n      swap6\n      pop\n        /* \"contracts/DividendPayingERC20Token.sol\":3561:3573  lpBalance >0 */\n      dup6\n      iszero\n      dup1\n      iszero\n      swap1\n        /* \"contracts/DividendPayingERC20Token.sol\":3561:3600  lpBalance >0 && lpHolder != deadAddress */\n      tag_152\n      jumpi\n      pop\n        /* \"contracts/DividendPayingERC20Token.sol\":3589:3600  deadAddress */\n      sload(0x0d)\n      sub(shl(0xa0, 0x01), 0x01)\n        /* \"contracts/DividendPayingERC20Token.sol\":3577:3600  lpHolder != deadAddress */\n      dup9\n      dup2\n      and\n        /* \"contracts/DividendPayingERC20Token.sol\":3589:3600  deadAddress */\n      swap2\n      and\n        /* \"contracts/DividendPayingERC20Token.sol\":3577:3600  lpHolder != deadAddress */\n      eq\n      iszero\n        /* \"contracts/DividendPayingERC20Token.sol\":3561:3600  lpBalance >0 && lpHolder != deadAddress */\n    tag_152:\n        /* \"contracts/DividendPayingERC20Token.sol\":3558:4140  if(lpBalance >0 && lpHolder != deadAddress){... */\n      iszero\n      tag_158\n      jumpi\n        /* \"contracts/DividendPayingERC20Token.sol\":3744:3757  totalLpSupply */\n      sload(0x06)\n        /* \"contracts/DividendPayingERC20Token.sol\":3720:3739  balance * lpBalance */\n      tag_154\n        /* \"contracts/DividendPayingERC20Token.sol\":3730:3739  lpBalance */\n      dup8\n        /* \"contracts/DividendPayingERC20Token.sol\":3720:3727  balance */\n      dup11\n        /* \"contracts/DividendPayingERC20Token.sol\":3720:3739  balance * lpBalance */\n      tag_155\n      jump\t// in\n    tag_154:\n        /* \"contracts/DividendPayingERC20Token.sol\":3719:3759  (balance * lpBalance) / (totalLpSupply ) */\n      tag_156\n      swap2\n      swap1\n      tag_157\n      jump\t// in\n    tag_156:\n        /* \"contracts/DividendPayingERC20Token.sol\":3710:3759  amount = (balance * lpBalance) / (totalLpSupply ) */\n      swap5\n      pop\n        /* \"contracts/DividendPayingERC20Token.sol\":3782:3792  amount > 0 */\n      dup5\n      iszero\n        /* \"contracts/DividendPayingERC20Token.sol\":3778:4125  if (amount > 0) {... */\n      tag_158\n      jumpi\n        /* \"contracts/DividendPayingERC20Token.sol\":3893:3952  IERC20(msg.sender).transferFrom(msg.sender,lpHolder,amount) */\n      mload(0x40)\n      shl(0xe0, 0x23b872dd)\n      dup2\n      mstore\n        /* \"contracts/DividendPayingERC20Token.sol\":3900:3910  msg.sender */\n      caller\n        /* \"contracts/DividendPayingERC20Token.sol\":3893:3952  IERC20(msg.sender).transferFrom(msg.sender,lpHolder,amount) */\n      0x04\n      dup3\n      add\n        /* \"#utility.yul\":3098:3132   */\n      dup2\n      swap1\n      mstore\n      sub(shl(0xa0, 0x01), 0x01)\n        /* \"#utility.yul\":3168:3183   */\n      dup10\n      and\n        /* \"#utility.yul\":3148:3166   */\n      0x24\n      dup4\n      add\n        /* \"#utility.yul\":3141:3184   */\n      mstore\n        /* \"#utility.yul\":3200:3218   */\n      0x44\n      dup3\n      add\n        /* \"#utility.yul\":3193:3227   */\n      dup8\n      swap1\n      mstore\n        /* \"contracts/DividendPayingERC20Token.sol\":3900:3910  msg.sender */\n      swap1\n        /* \"contracts/DividendPayingERC20Token.sol\":3893:3924  IERC20(msg.sender).transferFrom */\n      0x23b872dd\n      swap1\n        /* \"#utility.yul\":3033:3051   */\n      0x64\n      add\n        /* \"contracts/DividendPayingERC20Token.sol\":3893:3952  IERC20(msg.sender).transferFrom(msg.sender,lpHolder,amount) */\n      0x20\n      mload(0x40)\n      dup1\n      dup4\n      sub\n      dup2\n      0x00\n      dup8\n      gas\n      call\n      iszero\n      dup1\n      iszero\n      tag_162\n      jumpi\n      returndatasize\n      0x00\n      dup1\n      returndatacopy\n      revert(0x00, returndatasize)\n    tag_162:\n      pop\n      pop\n      pop\n      pop\n      mload(0x40)\n      returndatasize\n      not(0x1f)\n      0x1f\n      dup3\n      add\n      and\n      dup3\n      add\n      dup1\n      0x40\n      mstore\n      pop\n      dup2\n      add\n      swap1\n      tag_163\n      swap2\n      swap1\n      tag_164\n      jump\t// in\n    tag_163:\n      pop\n        /* \"contracts/DividendPayingERC20Token.sol\":4052:4058  amount */\n      dup5\n        /* \"contracts/DividendPayingERC20Token.sol\":4039:4048  lpBonusEd */\n      0x05\n      0x00\n        /* \"contracts/DividendPayingERC20Token.sol\":4039:4058  lpBonusEd += amount */\n      dup3\n      dup3\n      sload\n      tag_165\n      swap2\n      swap1\n      tag_139\n      jump\t// in\n    tag_165:\n      swap1\n      swap2\n      sstore\n      pop\n      pop\n        /* \"contracts/DividendPayingERC20Token.sol\":3778:4125  if (amount > 0) {... */\n    tag_158:\n        /* \"contracts/DividendPayingERC20Token.sol\":4219:4228  gasleft() */\n      gas\n        /* \"contracts/DividendPayingERC20Token.sol\":4209:4228  gasLeft - gasleft() */\n      tag_166\n      swap1\n        /* \"contracts/DividendPayingERC20Token.sol\":4209:4216  gasLeft */\n      dup3\n        /* \"contracts/DividendPayingERC20Token.sol\":4209:4228  gasLeft - gasleft() */\n      tag_142\n      jump\t// in\n    tag_166:\n        /* \"contracts/DividendPayingERC20Token.sol\":4198:4229  gasUsed + (gasLeft - gasleft()) */\n      tag_167\n      swap1\n        /* \"contracts/DividendPayingERC20Token.sol\":4198:4205  gasUsed */\n      dup5\n        /* \"contracts/DividendPayingERC20Token.sol\":4198:4229  gasUsed + (gasLeft - gasleft()) */\n      tag_139\n      jump\t// in\n    tag_167:\n        /* \"contracts/DividendPayingERC20Token.sol\":4188:4229  gasUsed = gasUsed + (gasLeft - gasleft()) */\n      swap3\n      pop\n        /* \"contracts/DividendPayingERC20Token.sol\":4254:4263  gasleft() */\n      gas\n        /* \"contracts/DividendPayingERC20Token.sol\":4278:4292  currentLpIndex */\n      0x0c\n        /* \"contracts/DividendPayingERC20Token.sol\":4278:4294  currentLpIndex++ */\n      dup1\n      sload\n        /* \"contracts/DividendPayingERC20Token.sol\":4244:4263  gasLeft = gasleft() */\n      swap2\n      swap3\n      pop\n        /* \"contracts/DividendPayingERC20Token.sol\":4278:4292  currentLpIndex */\n      0x00\n        /* \"contracts/DividendPayingERC20Token.sol\":4278:4294  currentLpIndex++ */\n      tag_168\n      dup4\n      tag_169\n      jump\t// in\n    tag_168:\n      swap2\n      swap1\n      pop\n      sstore\n      pop\n        /* \"contracts/DividendPayingERC20Token.sol\":4309:4321  iterations++ */\n      dup2\n      dup1\n      tag_170\n      swap1\n      tag_169\n      jump\t// in\n    tag_170:\n      swap3\n      pop\n      pop\n        /* \"contracts/DividendPayingERC20Token.sol\":3252:4333  while (gasUsed < dividendGas && iterations < lpHolderCount) {... */\n      jump(tag_144)\n    tag_145:\n      pop\n      pop\n        /* \"contracts/DividendPayingERC20Token.sol\":4367:4379  block.number */\n      number\n        /* \"contracts/DividendPayingERC20Token.sol\":4345:4364  progressRewardBlock */\n      0x00\n        /* \"contracts/DividendPayingERC20Token.sol\":4345:4379  progressRewardBlock = block.number */\n      sstore\n      pop\n        /* \"contracts/DividendPayingERC20Token.sol\":4397:4403  amount */\n      swap1\n      swap5\n      pop\n      pop\n      pop\n      pop\n      pop\n        /* \"contracts/DividendPayingERC20Token.sol\":1623:1624  _ */\n    tag_135:\n        /* \"contracts/DividendPayingERC20Token.sol\":2242:4411  function processReward(uint256 tfmount,address user)payable external onlyOp returns (uint256) {... */\n      swap3\n      swap2\n      pop\n      pop\n      jump\t// out\n        /* \"contracts/DividendPayingERC20Token.sol\":4419:5010  function ariver(uint256 amount,address sender)internal {... */\n    tag_137:\n        /* \"contracts/DividendPayingERC20Token.sol\":4533:4539  amount */\n      dup2\n        /* \"contracts/DividendPayingERC20Token.sol\":4516:4529  totalLpSupply */\n      0x06\n      0x00\n        /* \"contracts/DividendPayingERC20Token.sol\":4516:4539  totalLpSupply += amount */\n      dup3\n      dup3\n      sload\n      tag_172\n      swap2\n      swap1\n      tag_139\n      jump\t// in\n    tag_172:\n      swap1\n      swap2\n      sstore\n      pop\n      pop\n      sub(shl(0xa0, 0x01), 0x01)\n        /* \"contracts/DividendPayingERC20Token.sol\":4548:4567  _LpBalances[sender] */\n      dup2\n      and\n      0x00\n      swap1\n      dup2\n      mstore\n        /* \"contracts/DividendPayingERC20Token.sol\":4548:4559  _LpBalances */\n      0x07\n        /* \"contracts/DividendPayingERC20Token.sol\":4548:4567  _LpBalances[sender] */\n      0x20\n      mstore\n      0x40\n      dup2\n      keccak256\n        /* \"contracts/DividendPayingERC20Token.sol\":4548:4577  _LpBalances[sender] += amount */\n      dup1\n      sload\n        /* \"contracts/DividendPayingERC20Token.sol\":4571:4577  amount */\n      dup5\n      swap3\n        /* \"contracts/DividendPayingERC20Token.sol\":4548:4567  _LpBalances[sender] */\n      swap1\n        /* \"contracts/DividendPayingERC20Token.sol\":4548:4577  _LpBalances[sender] += amount */\n      tag_173\n      swap1\n        /* \"contracts/DividendPayingERC20Token.sol\":4571:4577  amount */\n      dup5\n      swap1\n        /* \"contracts/DividendPayingERC20Token.sol\":4548:4577  _LpBalances[sender] += amount */\n      tag_139\n      jump\t// in\n    tag_173:\n      swap1\n      swap2\n      sstore\n      pop\n      pop\n      sub(shl(0xa0, 0x01), 0x01)\n        /* \"contracts/DividendPayingERC20Token.sol\":4586:4605  _lastLpTime[sender] */\n      dup2\n      and\n      0x00\n      swap1\n      dup2\n      mstore\n        /* \"contracts/DividendPayingERC20Token.sol\":4586:4597  _lastLpTime */\n      0x08\n        /* \"contracts/DividendPayingERC20Token.sol\":4586:4605  _lastLpTime[sender] */\n      0x20\n      swap1\n      dup2\n      mstore\n      0x40\n      dup1\n      dup4\n      keccak256\n        /* \"contracts/DividendPayingERC20Token.sol\":4608:4623  block.timestamp */\n      timestamp\n        /* \"contracts/DividendPayingERC20Token.sol\":4586:4623  _lastLpTime[sender] = block.timestamp */\n      swap1\n      sstore\n        /* \"contracts/DividendPayingERC20Token.sol\":4633:4641  _lastEth */\n      0x09\n        /* \"contracts/DividendPayingERC20Token.sol\":4633:4649  _lastEth[sender] */\n      swap1\n      swap2\n      mstore\n      dup2\n      keccak256\n        /* \"contracts/DividendPayingERC20Token.sol\":4633:4662  _lastEth[sender] += msg.value */\n      dup1\n      sload\n        /* \"contracts/DividendPayingERC20Token.sol\":4653:4662  msg.value */\n      callvalue\n      swap3\n        /* \"contracts/DividendPayingERC20Token.sol\":4586:4605  _lastLpTime[sender] */\n      swap1\n        /* \"contracts/DividendPayingERC20Token.sol\":4633:4662  _lastEth[sender] += msg.value */\n      tag_174\n      swap1\n        /* \"contracts/DividendPayingERC20Token.sol\":4653:4662  msg.value */\n      dup5\n      swap1\n        /* \"contracts/DividendPayingERC20Token.sol\":4633:4662  _lastEth[sender] += msg.value */\n      tag_139\n      jump\t// in\n    tag_174:\n      swap1\n      swap2\n      sstore\n      pop\n      pop\n      sub(shl(0xa0, 0x01), 0x01)\n        /* \"contracts/DividendPayingERC20Token.sol\":4862:4883  lpHolderIndex[sender] */\n      dup2\n      and\n      0x00\n      swap1\n      dup2\n      mstore\n        /* \"contracts/DividendPayingERC20Token.sol\":4862:4875  lpHolderIndex */\n      0x0b\n        /* \"contracts/DividendPayingERC20Token.sol\":4862:4883  lpHolderIndex[sender] */\n      0x20\n      mstore\n      0x40\n      dup2\n      keccak256\n      sload\n        /* \"contracts/DividendPayingERC20Token.sol\":4857:4883  0 == lpHolderIndex[sender] */\n      swap1\n      sub\n        /* \"contracts/DividendPayingERC20Token.sol\":4853:4985  if (0 == lpHolderIndex[sender]) {... */\n      tag_175\n      jumpi\n        /* \"contracts/DividendPayingERC20Token.sol\":4922:4931  lpHolders */\n      0x0a\n        /* \"contracts/DividendPayingERC20Token.sol\":4922:4938  lpHolders.length */\n      dup1\n      sload\n      sub(shl(0xa0, 0x01), 0x01)\n        /* \"contracts/DividendPayingERC20Token.sol\":4898:4919  lpHolderIndex[sender] */\n      dup4\n      and\n      0x00\n      dup2\n      dup2\n      mstore\n        /* \"contracts/DividendPayingERC20Token.sol\":4898:4911  lpHolderIndex */\n      0x0b\n        /* \"contracts/DividendPayingERC20Token.sol\":4898:4919  lpHolderIndex[sender] */\n      0x20\n      mstore\n      0x40\n      dup2\n      keccak256\n        /* \"contracts/DividendPayingERC20Token.sol\":4898:4938  lpHolderIndex[sender] = lpHolders.length */\n      dup4\n      swap1\n      sstore\n        /* \"contracts/DividendPayingERC20Token.sol\":4951:4973  lpHolders.push(sender) */\n      0x01\n      dup4\n      add\n      dup5\n      sstore\n      swap3\n      swap1\n      swap3\n      mstore\n      0xc65a7bb8d6351c1cf70c95a316cc6a92839c986682d98bc35f958f4883f9d2a8\n      add\n      dup1\n      sload\n      not(sub(shl(0xa0, 0x01), 0x01))\n      and\n      swap1\n      swap2\n      or\n      swap1\n      sstore\n        /* \"contracts/DividendPayingERC20Token.sol\":4853:4985  if (0 == lpHolderIndex[sender]) {... */\n    tag_175:\n        /* \"contracts/DividendPayingERC20Token.sol\":4419:5010  function ariver(uint256 amount,address sender)internal {... */\n      pop\n      pop\n      jump\t// out\n        /* \"#utility.yul\":14:187   */\n    tag_177:\n        /* \"#utility.yul\":82:102   */\n      dup1\n      calldataload\n      sub(shl(0xa0, 0x01), 0x01)\n        /* \"#utility.yul\":131:162   */\n      dup2\n      and\n        /* \"#utility.yul\":121:163   */\n      dup2\n      eq\n        /* \"#utility.yul\":111:181   */\n      tag_181\n      jumpi\n        /* \"#utility.yul\":177:178   */\n      0x00\n        /* \"#utility.yul\":174:175   */\n      dup1\n        /* \"#utility.yul\":167:179   */\n      revert\n        /* \"#utility.yul\":111:181   */\n    tag_181:\n        /* \"#utility.yul\":14:187   */\n      swap2\n      swap1\n      pop\n      jump\t// out\n        /* \"#utility.yul\":192:378   */\n    tag_25:\n        /* \"#utility.yul\":251:257   */\n      0x00\n        /* \"#utility.yul\":304:306   */\n      0x20\n        /* \"#utility.yul\":292:301   */\n      dup3\n        /* \"#utility.yul\":283:290   */\n      dup5\n        /* \"#utility.yul\":279:302   */\n      sub\n        /* \"#utility.yul\":275:307   */\n      slt\n        /* \"#utility.yul\":272:324   */\n      iszero\n      tag_183\n      jumpi\n        /* \"#utility.yul\":320:321   */\n      0x00\n        /* \"#utility.yul\":317:318   */\n      dup1\n        /* \"#utility.yul\":310:322   */\n      revert\n        /* \"#utility.yul\":272:324   */\n    tag_183:\n        /* \"#utility.yul\":343:372   */\n      tag_184\n        /* \"#utility.yul\":362:371   */\n      dup3\n        /* \"#utility.yul\":343:372   */\n      tag_177\n      jump\t// in\n    tag_184:\n        /* \"#utility.yul\":333:372   */\n      swap4\n        /* \"#utility.yul\":192:378   */\n      swap3\n      pop\n      pop\n      pop\n      jump\t// out\n        /* \"#utility.yul\":565:745   */\n    tag_44:\n        /* \"#utility.yul\":624:630   */\n      0x00\n        /* \"#utility.yul\":677:679   */\n      0x20\n        /* \"#utility.yul\":665:674   */\n      dup3\n        /* \"#utility.yul\":656:663   */\n      dup5\n        /* \"#utility.yul\":652:675   */\n      sub\n        /* \"#utility.yul\":648:680   */\n      slt\n        /* \"#utility.yul\":645:697   */\n      iszero\n      tag_187\n      jumpi\n        /* \"#utility.yul\":693:694   */\n      0x00\n        /* \"#utility.yul\":690:691   */\n      dup1\n        /* \"#utility.yul\":683:695   */\n      revert\n        /* \"#utility.yul\":645:697   */\n    tag_187:\n      pop\n        /* \"#utility.yul\":716:739   */\n      calldataload\n      swap2\n        /* \"#utility.yul\":565:745   */\n      swap1\n      pop\n      jump\t// out\n        /* \"#utility.yul\":958:1212   */\n    tag_101:\n        /* \"#utility.yul\":1026:1032   */\n      0x00\n        /* \"#utility.yul\":1034:1040   */\n      dup1\n        /* \"#utility.yul\":1087:1089   */\n      0x40\n        /* \"#utility.yul\":1075:1084   */\n      dup4\n        /* \"#utility.yul\":1066:1073   */\n      dup6\n        /* \"#utility.yul\":1062:1085   */\n      sub\n        /* \"#utility.yul\":1058:1090   */\n      slt\n        /* \"#utility.yul\":1055:1107   */\n      iszero\n      tag_190\n      jumpi\n        /* \"#utility.yul\":1103:1104   */\n      0x00\n        /* \"#utility.yul\":1100:1101   */\n      dup1\n        /* \"#utility.yul\":1093:1105   */\n      revert\n        /* \"#utility.yul\":1055:1107   */\n    tag_190:\n        /* \"#utility.yul\":1139:1148   */\n      dup3\n        /* \"#utility.yul\":1126:1149   */\n      calldataload\n        /* \"#utility.yul\":1116:1149   */\n      swap2\n      pop\n        /* \"#utility.yul\":1168:1206   */\n      tag_191\n        /* \"#utility.yul\":1202:1204   */\n      0x20\n        /* \"#utility.yul\":1191:1200   */\n      dup5\n        /* \"#utility.yul\":1187:1205   */\n      add\n        /* \"#utility.yul\":1168:1206   */\n      tag_177\n      jump\t// in\n    tag_191:\n        /* \"#utility.yul\":1158:1206   */\n      swap1\n      pop\n        /* \"#utility.yul\":958:1212   */\n      swap3\n      pop\n      swap3\n      swap1\n      pop\n      jump\t// out\n        /* \"#utility.yul\":1217:1573   */\n    tag_115:\n        /* \"#utility.yul\":1419:1421   */\n      0x20\n        /* \"#utility.yul\":1401:1422   */\n      dup1\n      dup3\n      mstore\n        /* \"#utility.yul\":1438:1456   */\n      dup2\n      dup2\n      add\n        /* \"#utility.yul\":1431:1461   */\n      mstore\n        /* \"#utility.yul\":1497:1531   */\n      0x4f776e61626c653a2063616c6c6572206973206e6f7420746865206f776e6572\n        /* \"#utility.yul\":1492:1494   */\n      0x40\n        /* \"#utility.yul\":1477:1495   */\n      dup3\n      add\n        /* \"#utility.yul\":1470:1532   */\n      mstore\n        /* \"#utility.yul\":1564:1566   */\n      0x60\n        /* \"#utility.yul\":1549:1567   */\n      add\n      swap1\n        /* \"#utility.yul\":1217:1573   */\n      jump\t// out\n        /* \"#utility.yul\":1936:2063   */\n    tag_178:\n        /* \"#utility.yul\":1997:2007   */\n      0x4e487b71\n        /* \"#utility.yul\":1992:1995   */\n      0xe0\n        /* \"#utility.yul\":1988:2008   */\n      shl\n        /* \"#utility.yul\":1985:1986   */\n      0x00\n        /* \"#utility.yul\":1978:2009   */\n      mstore\n        /* \"#utility.yul\":2028:2032   */\n      0x11\n        /* \"#utility.yul\":2025:2026   */\n      0x04\n        /* \"#utility.yul\":2018:2033   */\n      mstore\n        /* \"#utility.yul\":2052:2056   */\n      0x24\n        /* \"#utility.yul\":2049:2050   */\n      0x00\n        /* \"#utility.yul\":2042:2057   */\n      revert\n        /* \"#utility.yul\":2068:2193   */\n    tag_139:\n        /* \"#utility.yul\":2133:2142   */\n      dup1\n      dup3\n      add\n        /* \"#utility.yul\":2154:2164   */\n      dup1\n      dup3\n      gt\n        /* \"#utility.yul\":2151:2187   */\n      iszero\n      tag_135\n      jumpi\n        /* \"#utility.yul\":2167:2185   */\n      tag_135\n      tag_178\n      jump\t// in\n        /* \"#utility.yul\":2198:2326   */\n    tag_142:\n        /* \"#utility.yul\":2265:2274   */\n      dup2\n      dup2\n      sub\n        /* \"#utility.yul\":2286:2297   */\n      dup2\n      dup2\n      gt\n        /* \"#utility.yul\":2283:2320   */\n      iszero\n      tag_135\n      jumpi\n        /* \"#utility.yul\":2300:2318   */\n      tag_135\n      tag_178\n      jump\t// in\n        /* \"#utility.yul\":2331:2458   */\n    tag_150:\n        /* \"#utility.yul\":2392:2402   */\n      0x4e487b71\n        /* \"#utility.yul\":2387:2390   */\n      0xe0\n        /* \"#utility.yul\":2383:2403   */\n      shl\n        /* \"#utility.yul\":2380:2381   */\n      0x00\n        /* \"#utility.yul\":2373:2404   */\n      mstore\n        /* \"#utility.yul\":2423:2427   */\n      0x32\n        /* \"#utility.yul\":2420:2421   */\n      0x04\n        /* \"#utility.yul\":2413:2428   */\n      mstore\n        /* \"#utility.yul\":2447:2451   */\n      0x24\n        /* \"#utility.yul\":2444:2445   */\n      0x00\n        /* \"#utility.yul\":2437:2452   */\n      revert\n        /* \"#utility.yul\":2463:2631   */\n    tag_155:\n        /* \"#utility.yul\":2536:2545   */\n      dup1\n      dup3\n      mul\n        /* \"#utility.yul\":2567:2576   */\n      dup2\n      iszero\n        /* \"#utility.yul\":2584:2599   */\n      dup3\n      dup3\n      div\n        /* \"#utility.yul\":2578:2600   */\n      dup5\n      eq\n        /* \"#utility.yul\":2564:2601   */\n      or\n        /* \"#utility.yul\":2554:2625   */\n      tag_135\n      jumpi\n        /* \"#utility.yul\":2605:2623   */\n      tag_135\n      tag_178\n      jump\t// in\n        /* \"#utility.yul\":2636:2853   */\n    tag_157:\n        /* \"#utility.yul\":2676:2677   */\n      0x00\n        /* \"#utility.yul\":2702:2703   */\n      dup3\n        /* \"#utility.yul\":2692:2824   */\n      tag_206\n      jumpi\n        /* \"#utility.yul\":2746:2756   */\n      0x4e487b71\n        /* \"#utility.yul\":2741:2744   */\n      0xe0\n        /* \"#utility.yul\":2737:2757   */\n      shl\n        /* \"#utility.yul\":2734:2735   */\n      0x00\n        /* \"#utility.yul\":2727:2758   */\n      mstore\n        /* \"#utility.yul\":2781:2785   */\n      0x12\n        /* \"#utility.yul\":2778:2779   */\n      0x04\n        /* \"#utility.yul\":2771:2786   */\n      mstore\n        /* \"#utility.yul\":2809:2813   */\n      0x24\n        /* \"#utility.yul\":2806:2807   */\n      0x00\n        /* \"#utility.yul\":2799:2814   */\n      revert\n        /* \"#utility.yul\":2692:2824   */\n    tag_206:\n      pop\n        /* \"#utility.yul\":2838:2847   */\n      div\n      swap1\n        /* \"#utility.yul\":2636:2853   */\n      jump\t// out\n        /* \"#utility.yul\":3238:3515   */\n    tag_164:\n        /* \"#utility.yul\":3305:3311   */\n      0x00\n        /* \"#utility.yul\":3358:3360   */\n      0x20\n        /* \"#utility.yul\":3346:3355   */\n      dup3\n        /* \"#utility.yul\":3337:3344   */\n      dup5\n        /* \"#utility.yul\":3333:3356   */\n      sub\n        /* \"#utility.yul\":3329:3361   */\n      slt\n        /* \"#utility.yul\":3326:3378   */\n      iszero\n      tag_209\n      jumpi\n        /* \"#utility.yul\":3374:3375   */\n      0x00\n        /* \"#utility.yul\":3371:3372   */\n      dup1\n        /* \"#utility.yul\":3364:3376   */\n      revert\n        /* \"#utility.yul\":3326:3378   */\n    tag_209:\n        /* \"#utility.yul\":3406:3415   */\n      dup2\n        /* \"#utility.yul\":3400:3416   */\n      mload\n        /* \"#utility.yul\":3459:3464   */\n      dup1\n        /* \"#utility.yul\":3452:3465   */\n      iszero\n        /* \"#utility.yul\":3445:3466   */\n      iszero\n        /* \"#utility.yul\":3438:3443   */\n      dup2\n        /* \"#utility.yul\":3435:3467   */\n      eq\n        /* \"#utility.yul\":3425:3485   */\n      tag_184\n      jumpi\n        /* \"#utility.yul\":3481:3482   */\n      0x00\n        /* \"#utility.yul\":3478:3479   */\n      dup1\n        /* \"#utility.yul\":3471:3483   */\n      revert\n        /* \"#utility.yul\":3520:3655   */\n    tag_169:\n        /* \"#utility.yul\":3559:3562   */\n      0x00\n        /* \"#utility.yul\":3580:3597   */\n      0x01\n      dup3\n      add\n        /* \"#utility.yul\":3577:3620   */\n      tag_213\n      jumpi\n        /* \"#utility.yul\":3600:3618   */\n      tag_213\n      tag_178\n      jump\t// in\n    tag_213:\n      pop\n        /* \"#utility.yul\":3647:3648   */\n      0x01\n        /* \"#utility.yul\":3636:3649   */\n      add\n      swap1\n        /* \"#utility.yul\":3520:3655   */\n      jump\t// out\n\n    auxdata: 0xa2646970667358221220551ac37682d283ec6101c2899132d224043029cc1b1d7655b8a7b2afb97c496864736f6c63430008140033\n}\n",
				"bytecode": {
					"linkReferences": {},
					"object": "608060405234801561000f575f80fd5b50600f80546001600160a01b031990811633179091555f600681905560c86001556402540be4006002556207a120600355600d805490921661dead17909155600581905560045561094b806100635f395ff3fe6080604052600436106100ee575f3560e01c80630affb402146100f25780631210c434146101305780632a59551214610145578063621f9c0a146101595780636689567e1461016e57806368698b481461018f5780636aedea73146101ba57806386623a06146101cf5780638da5cb5b146101fa5780639f0d7eb814610231578063a36a752614610250578063add0a6c61461026f578063b367bf8314610284578063b510efa614610299578063bd876702146102c4578063c213d62d146102d9578063c7003ed0146102f8578063dd2cad6014610317578063eb10b7411461032a578063ec1f1f691461033f575b5f80fd5b3480156100fd575f80fd5b5061011d61010c3660046107c4565b600b6020525f908152604090205481565b6040519081526020015b60405180910390f35b34801561013b575f80fd5b5061011d600c5481565b348015610150575f80fd5b5061011d5f5481565b348015610164575f80fd5b5061011d60045481565b348015610179575f80fd5b5061018d6101883660046107e4565b61035e565b005b34801561019a575f80fd5b5061011d6101a93660046107c4565b60076020525f908152604090205481565b3480156101c5575f80fd5b5061011d60065481565b3480156101da575f80fd5b5061011d6101e93660046107c4565b60086020525f908152604090205481565b348015610205575f80fd5b50600f54610219906001600160a01b031681565b6040516001600160a01b039091168152602001610127565b34801561023c575f80fd5b5061021961024b3660046107e4565b610396565b34801561025b575f80fd5b5061018d61026a3660046107c4565b6103be565b34801561027a575f80fd5b5061011d60015481565b34801561028f575f80fd5b5061011d60055481565b3480156102a4575f80fd5b5061011d6102b33660046107c4565b60096020525f908152604090205481565b3480156102cf575f80fd5b5061011d60035481565b3480156102e4575f80fd5b5061018d6102f33660046107e4565b61040a565b348015610303575f80fd5b5061018d6103123660046107e4565b610439565b61011d6103253660046107fb565b610468565b348015610335575f80fd5b5061011d60025481565b34801561034a575f80fd5b50600e54610219906001600160a01b031681565b600f546001600160a01b031633146103915760405162461bcd60e51b815260040161038890610825565b60405180910390fd5b600355565b600a81815481106103a5575f80fd5b5f918252602090912001546001600160a01b0316905081565b600f546001600160a01b031633146103e85760405162461bcd60e51b815260040161038890610825565b600e80546001600160a01b0319166001600160a01b0392909216919091179055565b600f546001600160a01b031633146104345760405162461bcd60e51b815260040161038890610825565b600255565b600f546001600160a01b031633146104635760405162461bcd60e51b815260040161038890610825565b600155565b600e545f906001600160a01b031633146104c45760405162461bcd60e51b815260206004820152601d60248201527f4f776e61626c653a2063616c6c6572206973206e6f7420746865206f700000006044820152606401610388565b6104ce83836106b0565b8260045f8282546104df919061086e565b9091555050600454600554106104f657505f6106aa565b5f6005546004546105079190610881565b905060025481101561051c575f9150506106aa565b600a545f90819081908180805a90505b6003548310801561053c57508382105b1561069c5783600c541061054f575f600c555b600a600c548154811061056457610564610894565b5f9182526020808320909101546001600160a01b03168083526007909152604090912054909750955085158015906105aa5750600d546001600160a01b03888116911614155b1561065b576006546105bc878a6108a8565b6105c691906108bf565b9450841561065b576040516323b872dd60e01b815233600482018190526001600160a01b038916602483015260448201879052906323b872dd906064016020604051808303815f875af115801561061f573d5f803e3d5ffd5b505050506040513d601f19601f8201168201806040525081019061064391906108de565b508460055f828254610655919061086e565b90915550505b5a6106669082610881565b610670908461086e565b92505a600c80549192505f610684836108fd565b91905055508180610694906108fd565b92505061052c565b5050435f5550909450505050505b92915050565b8160065f8282546106c1919061086e565b90915550506001600160a01b0381165f90815260076020526040812080548492906106ed90849061086e565b90915550506001600160a01b0381165f90815260086020908152604080832042905560099091528120805434929061072690849061086e565b90915550506001600160a01b0381165f908152600b602052604081205490036107a557600a80546001600160a01b0383165f818152600b60205260408120839055600183018455929092527fc65a7bb8d6351c1cf70c95a316cc6a92839c986682d98bc35f958f4883f9d2a80180546001600160a01b03191690911790555b5050565b80356001600160a01b03811681146107bf575f80fd5b919050565b5f602082840312156107d4575f80fd5b6107dd826107a9565b9392505050565b5f602082840312156107f4575f80fd5b5035919050565b5f806040838503121561080c575f80fd5b8235915061081c602084016107a9565b90509250929050565b6020808252818101527f4f776e61626c653a2063616c6c6572206973206e6f7420746865206f776e6572604082015260600190565b634e487b7160e01b5f52601160045260245ffd5b808201808211156106aa576106aa61085a565b818103818111156106aa576106aa61085a565b634e487b7160e01b5f52603260045260245ffd5b80820281158282048414176106aa576106aa61085a565b5f826108d957634e487b7160e01b5f52601260045260245ffd5b500490565b5f602082840312156108ee575f80fd5b815180151581146107dd575f80fd5b5f6001820161090e5761090e61085a565b506001019056fea2646970667358221220551ac37682d283ec6101c2899132d224043029cc1b1d7655b8a7b2afb97c496864736f6c63430008140033",
					"opcodes": "PUSH1 0x80 PUSH1 0x40 MSTORE CALLVALUE DUP1 ISZERO PUSH2 0xF JUMPI PUSH0 DUP1 REVERT JUMPDEST POP PUSH1 0xF DUP1 SLOAD PUSH1 0x1 PUSH1 0x1 PUSH1 0xA0 SHL SUB NOT SWAP1 DUP2 AND CALLER OR SWAP1 SWAP2 SSTORE PUSH0 PUSH1 0x6 DUP2 SWAP1 SSTORE PUSH1 0xC8 PUSH1 0x1 SSTORE PUSH5 0x2540BE400 PUSH1 0x2 SSTORE PUSH3 0x7A120 PUSH1 0x3 SSTORE PUSH1 0xD DUP1 SLOAD SWAP1 SWAP3 AND PUSH2 0xDEAD OR SWAP1 SWAP2 SSTORE PUSH1 0x5 DUP2 SWAP1 SSTORE PUSH1 0x4 SSTORE PUSH2 0x94B DUP1 PUSH2 0x63 PUSH0 CODECOPY PUSH0 RETURN INVALID PUSH1 0x80 PUSH1 0x40 MSTORE PUSH1 0x4 CALLDATASIZE LT PUSH2 0xEE JUMPI PUSH0 CALLDATALOAD PUSH1 0xE0 SHR DUP1 PUSH4 0xAFFB402 EQ PUSH2 0xF2 JUMPI DUP1 PUSH4 0x1210C434 EQ PUSH2 0x130 JUMPI DUP1 PUSH4 0x2A595512 EQ PUSH2 0x145 JUMPI DUP1 PUSH4 0x621F9C0A EQ PUSH2 0x159 JUMPI DUP1 PUSH4 0x6689567E EQ PUSH2 0x16E JUMPI DUP1 PUSH4 0x68698B48 EQ PUSH2 0x18F JUMPI DUP1 PUSH4 0x6AEDEA73 EQ PUSH2 0x1BA JUMPI DUP1 PUSH4 0x86623A06 EQ PUSH2 0x1CF JUMPI DUP1 PUSH4 0x8DA5CB5B EQ PUSH2 0x1FA JUMPI DUP1 PUSH4 0x9F0D7EB8 EQ PUSH2 0x231 JUMPI DUP1 PUSH4 0xA36A7526 EQ PUSH2 0x250 JUMPI DUP1 PUSH4 0xADD0A6C6 EQ PUSH2 0x26F JUMPI DUP1 PUSH4 0xB367BF83 EQ PUSH2 0x284 JUMPI DUP1 PUSH4 0xB510EFA6 EQ PUSH2 0x299 JUMPI DUP1 PUSH4 0xBD876702 EQ PUSH2 0x2C4 JUMPI DUP1 PUSH4 0xC213D62D EQ PUSH2 0x2D9 JUMPI DUP1 PUSH4 0xC7003ED0 EQ PUSH2 0x2F8 JUMPI DUP1 PUSH4 0xDD2CAD60 EQ PUSH2 0x317 JUMPI DUP1 PUSH4 0xEB10B741 EQ PUSH2 0x32A JUMPI DUP1 PUSH4 0xEC1F1F69 EQ PUSH2 0x33F JUMPI JUMPDEST PUSH0 DUP1 REVERT JUMPDEST CALLVALUE DUP1 ISZERO PUSH2 0xFD JUMPI PUSH0 DUP1 REVERT JUMPDEST POP PUSH2 0x11D PUSH2 0x10C CALLDATASIZE PUSH1 0x4 PUSH2 0x7C4 JUMP JUMPDEST PUSH1 0xB PUSH1 0x20 MSTORE PUSH0 SWAP1 DUP2 MSTORE PUSH1 0x40 SWAP1 KECCAK256 SLOAD DUP2 JUMP JUMPDEST PUSH1 0x40 MLOAD SWAP1 DUP2 MSTORE PUSH1 0x20 ADD JUMPDEST PUSH1 0x40 MLOAD DUP1 SWAP2 SUB SWAP1 RETURN JUMPDEST CALLVALUE DUP1 ISZERO PUSH2 0x13B JUMPI PUSH0 DUP1 REVERT JUMPDEST POP PUSH2 0x11D PUSH1 0xC SLOAD DUP2 JUMP JUMPDEST CALLVALUE DUP1 ISZERO PUSH2 0x150 JUMPI PUSH0 DUP1 REVERT JUMPDEST POP PUSH2 0x11D PUSH0 SLOAD DUP2 JUMP JUMPDEST CALLVALUE DUP1 ISZERO PUSH2 0x164 JUMPI PUSH0 DUP1 REVERT JUMPDEST POP PUSH2 0x11D PUSH1 0x4 SLOAD DUP2 JUMP JUMPDEST CALLVALUE DUP1 ISZERO PUSH2 0x179 JUMPI PUSH0 DUP1 REVERT JUMPDEST POP PUSH2 0x18D PUSH2 0x188 CALLDATASIZE PUSH1 0x4 PUSH2 0x7E4 JUMP JUMPDEST PUSH2 0x35E JUMP JUMPDEST STOP JUMPDEST CALLVALUE DUP1 ISZERO PUSH2 0x19A JUMPI PUSH0 DUP1 REVERT JUMPDEST POP PUSH2 0x11D PUSH2 0x1A9 CALLDATASIZE PUSH1 0x4 PUSH2 0x7C4 JUMP JUMPDEST PUSH1 0x7 PUSH1 0x20 MSTORE PUSH0 SWAP1 DUP2 MSTORE PUSH1 0x40 SWAP1 KECCAK256 SLOAD DUP2 JUMP JUMPDEST CALLVALUE DUP1 ISZERO PUSH2 0x1C5 JUMPI PUSH0 DUP1 REVERT JUMPDEST POP PUSH2 0x11D PUSH1 0x6 SLOAD DUP2 JUMP JUMPDEST CALLVALUE DUP1 ISZERO PUSH2 0x1DA JUMPI PUSH0 DUP1 REVERT JUMPDEST POP PUSH2 0x11D PUSH2 0x1E9 CALLDATASIZE PUSH1 0x4 PUSH2 0x7C4 JUMP JUMPDEST PUSH1 0x8 PUSH1 0x20 MSTORE PUSH0 SWAP1 DUP2 MSTORE PUSH1 0x40 SWAP1 KECCAK256 SLOAD DUP2 JUMP JUMPDEST CALLVALUE DUP1 ISZERO PUSH2 0x205 JUMPI PUSH0 DUP1 REVERT JUMPDEST POP PUSH1 0xF SLOAD PUSH2 0x219 SWAP1 PUSH1 0x1 PUSH1 0x1 PUSH1 0xA0 SHL SUB AND DUP2 JUMP JUMPDEST PUSH1 0x40 MLOAD PUSH1 0x1 PUSH1 0x1 PUSH1 0xA0 SHL SUB SWAP1 SWAP2 AND DUP2 MSTORE PUSH1 0x20 ADD PUSH2 0x127 JUMP JUMPDEST CALLVALUE DUP1 ISZERO PUSH2 0x23C JUMPI PUSH0 DUP1 REVERT JUMPDEST POP PUSH2 0x219 PUSH2 0x24B CALLDATASIZE PUSH1 0x4 PUSH2 0x7E4 JUMP JUMPDEST PUSH2 0x396 JUMP JUMPDEST CALLVALUE DUP1 ISZERO PUSH2 0x25B JUMPI PUSH0 DUP1 REVERT JUMPDEST POP PUSH2 0x18D PUSH2 0x26A CALLDATASIZE PUSH1 0x4 PUSH2 0x7C4 JUMP JUMPDEST PUSH2 0x3BE JUMP JUMPDEST CALLVALUE DUP1 ISZERO PUSH2 0x27A JUMPI PUSH0 DUP1 REVERT JUMPDEST POP PUSH2 0x11D PUSH1 0x1 SLOAD DUP2 JUMP JUMPDEST CALLVALUE DUP1 ISZERO PUSH2 0x28F JUMPI PUSH0 DUP1 REVERT JUMPDEST POP PUSH2 0x11D PUSH1 0x5 SLOAD DUP2 JUMP JUMPDEST CALLVALUE DUP1 ISZERO PUSH2 0x2A4 JUMPI PUSH0 DUP1 REVERT JUMPDEST POP PUSH2 0x11D PUSH2 0x2B3 CALLDATASIZE PUSH1 0x4 PUSH2 0x7C4 JUMP JUMPDEST PUSH1 0x9 PUSH1 0x20 MSTORE PUSH0 SWAP1 DUP2 MSTORE PUSH1 0x40 SWAP1 KECCAK256 SLOAD DUP2 JUMP JUMPDEST CALLVALUE DUP1 ISZERO PUSH2 0x2CF JUMPI PUSH0 DUP1 REVERT JUMPDEST POP PUSH2 0x11D PUSH1 0x3 SLOAD DUP2 JUMP JUMPDEST CALLVALUE DUP1 ISZERO PUSH2 0x2E4 JUMPI PUSH0 DUP1 REVERT JUMPDEST POP PUSH2 0x18D PUSH2 0x2F3 CALLDATASIZE PUSH1 0x4 PUSH2 0x7E4 JUMP JUMPDEST PUSH2 0x40A JUMP JUMPDEST CALLVALUE DUP1 ISZERO PUSH2 0x303 JUMPI PUSH0 DUP1 REVERT JUMPDEST POP PUSH2 0x18D PUSH2 0x312 CALLDATASIZE PUSH1 0x4 PUSH2 0x7E4 JUMP JUMPDEST PUSH2 0x439 JUMP JUMPDEST PUSH2 0x11D PUSH2 0x325 CALLDATASIZE PUSH1 0x4 PUSH2 0x7FB JUMP JUMPDEST PUSH2 0x468 JUMP JUMPDEST CALLVALUE DUP1 ISZERO PUSH2 0x335 JUMPI PUSH0 DUP1 REVERT JUMPDEST POP PUSH2 0x11D PUSH1 0x2 SLOAD DUP2 JUMP JUMPDEST CALLVALUE DUP1 ISZERO PUSH2 0x34A JUMPI PUSH0 DUP1 REVERT JUMPDEST POP PUSH1 0xE SLOAD PUSH2 0x219 SWAP1 PUSH1 0x1 PUSH1 0x1 PUSH1 0xA0 SHL SUB AND DUP2 JUMP JUMPDEST PUSH1 0xF SLOAD PUSH1 0x1 PUSH1 0x1 PUSH1 0xA0 SHL SUB AND CALLER EQ PUSH2 0x391 JUMPI PUSH1 0x40 MLOAD PUSH3 0x461BCD PUSH1 0xE5 SHL DUP2 MSTORE PUSH1 0x4 ADD PUSH2 0x388 SWAP1 PUSH2 0x825 JUMP JUMPDEST PUSH1 0x40 MLOAD DUP1 SWAP2 SUB SWAP1 REVERT JUMPDEST PUSH1 0x3 SSTORE JUMP JUMPDEST PUSH1 0xA DUP2 DUP2 SLOAD DUP2 LT PUSH2 0x3A5 JUMPI PUSH0 DUP1 REVERT JUMPDEST PUSH0 SWAP2 DUP3 MSTORE PUSH1 0x20 SWAP1 SWAP2 KECCAK256 ADD SLOAD PUSH1 0x1 PUSH1 0x1 PUSH1 0xA0 SHL SUB AND SWAP1 POP DUP2 JUMP JUMPDEST PUSH1 0xF SLOAD PUSH1 0x1 PUSH1 0x1 PUSH1 0xA0 SHL SUB AND CALLER EQ PUSH2 0x3E8 JUMPI PUSH1 0x40 MLOAD PUSH3 0x461BCD PUSH1 0xE5 SHL DUP2 MSTORE PUSH1 0x4 ADD PUSH2 0x388 SWAP1 PUSH2 0x825 JUMP JUMPDEST PUSH1 0xE DUP1 SLOAD PUSH1 0x1 PUSH1 0x1 PUSH1 0xA0 SHL SUB NOT AND PUSH1 0x1 PUSH1 0x1 PUSH1 0xA0 SHL SUB SWAP3 SWAP1 SWAP3 AND SWAP2 SWAP1 SWAP2 OR SWAP1 SSTORE JUMP JUMPDEST PUSH1 0xF SLOAD PUSH1 0x1 PUSH1 0x1 PUSH1 0xA0 SHL SUB AND CALLER EQ PUSH2 0x434 JUMPI PUSH1 0x40 MLOAD PUSH3 0x461BCD PUSH1 0xE5 SHL DUP2 MSTORE PUSH1 0x4 ADD PUSH2 0x388 SWAP1 PUSH2 0x825 JUMP JUMPDEST PUSH1 0x2 SSTORE JUMP JUMPDEST PUSH1 0xF SLOAD PUSH1 0x1 PUSH1 0x1 PUSH1 0xA0 SHL SUB AND CALLER EQ PUSH2 0x463 JUMPI PUSH1 0x40 MLOAD PUSH3 0x461BCD PUSH1 0xE5 SHL DUP2 MSTORE PUSH1 0x4 ADD PUSH2 0x388 SWAP1 PUSH2 0x825 JUMP JUMPDEST PUSH1 0x1 SSTORE JUMP JUMPDEST PUSH1 0xE SLOAD PUSH0 SWAP1 PUSH1 0x1 PUSH1 0x1 PUSH1 0xA0 SHL SUB AND CALLER EQ PUSH2 0x4C4 JUMPI PUSH1 0x40 MLOAD PUSH3 0x461BCD PUSH1 0xE5 SHL DUP2 MSTORE PUSH1 0x20 PUSH1 0x4 DUP3 ADD MSTORE PUSH1 0x1D PUSH1 0x24 DUP3 ADD MSTORE PUSH32 0x4F776E61626C653A2063616C6C6572206973206E6F7420746865206F70000000 PUSH1 0x44 DUP3 ADD MSTORE PUSH1 0x64 ADD PUSH2 0x388 JUMP JUMPDEST PUSH2 0x4CE DUP4 DUP4 PUSH2 0x6B0 JUMP JUMPDEST DUP3 PUSH1 0x4 PUSH0 DUP3 DUP3 SLOAD PUSH2 0x4DF SWAP2 SWAP1 PUSH2 0x86E JUMP JUMPDEST SWAP1 SWAP2 SSTORE POP POP PUSH1 0x4 SLOAD PUSH1 0x5 SLOAD LT PUSH2 0x4F6 JUMPI POP PUSH0 PUSH2 0x6AA JUMP JUMPDEST PUSH0 PUSH1 0x5 SLOAD PUSH1 0x4 SLOAD PUSH2 0x507 SWAP2 SWAP1 PUSH2 0x881 JUMP JUMPDEST SWAP1 POP PUSH1 0x2 SLOAD DUP2 LT ISZERO PUSH2 0x51C JUMPI PUSH0 SWAP2 POP POP PUSH2 0x6AA JUMP JUMPDEST PUSH1 0xA SLOAD PUSH0 SWAP1 DUP2 SWAP1 DUP2 SWAP1 DUP2 DUP1 DUP1 GAS SWAP1 POP JUMPDEST PUSH1 0x3 SLOAD DUP4 LT DUP1 ISZERO PUSH2 0x53C JUMPI POP DUP4 DUP3 LT JUMPDEST ISZERO PUSH2 0x69C JUMPI DUP4 PUSH1 0xC SLOAD LT PUSH2 0x54F JUMPI PUSH0 PUSH1 0xC SSTORE JUMPDEST PUSH1 0xA PUSH1 0xC SLOAD DUP2 SLOAD DUP2 LT PUSH2 0x564 JUMPI PUSH2 0x564 PUSH2 0x894 JUMP JUMPDEST PUSH0 SWAP2 DUP3 MSTORE PUSH1 0x20 DUP1 DUP4 KECCAK256 SWAP1 SWAP2 ADD SLOAD PUSH1 0x1 PUSH1 0x1 PUSH1 0xA0 SHL SUB AND DUP1 DUP4 MSTORE PUSH1 0x7 SWAP1 SWAP2 MSTORE PUSH1 0x40 SWAP1 SWAP2 KECCAK256 SLOAD SWAP1 SWAP8 POP SWAP6 POP DUP6 ISZERO DUP1 ISZERO SWAP1 PUSH2 0x5AA JUMPI POP PUSH1 0xD SLOAD PUSH1 0x1 PUSH1 0x1 PUSH1 0xA0 SHL SUB DUP9 DUP2 AND SWAP2 AND EQ ISZERO JUMPDEST ISZERO PUSH2 0x65B JUMPI PUSH1 0x6 SLOAD PUSH2 0x5BC DUP8 DUP11 PUSH2 0x8A8 JUMP JUMPDEST PUSH2 0x5C6 SWAP2 SWAP1 PUSH2 0x8BF JUMP JUMPDEST SWAP5 POP DUP5 ISZERO PUSH2 0x65B JUMPI PUSH1 0x40 MLOAD PUSH4 0x23B872DD PUSH1 0xE0 SHL DUP2 MSTORE CALLER PUSH1 0x4 DUP3 ADD DUP2 SWAP1 MSTORE PUSH1 0x1 PUSH1 0x1 PUSH1 0xA0 SHL SUB DUP10 AND PUSH1 0x24 DUP4 ADD MSTORE PUSH1 0x44 DUP3 ADD DUP8 SWAP1 MSTORE SWAP1 PUSH4 0x23B872DD SWAP1 PUSH1 0x64 ADD PUSH1 0x20 PUSH1 0x40 MLOAD DUP1 DUP4 SUB DUP2 PUSH0 DUP8 GAS CALL ISZERO DUP1 ISZERO PUSH2 0x61F JUMPI RETURNDATASIZE PUSH0 DUP1 RETURNDATACOPY RETURNDATASIZE PUSH0 REVERT JUMPDEST POP POP POP POP PUSH1 0x40 MLOAD RETURNDATASIZE PUSH1 0x1F NOT PUSH1 0x1F DUP3 ADD AND DUP3 ADD DUP1 PUSH1 0x40 MSTORE POP DUP2 ADD SWAP1 PUSH2 0x643 SWAP2 SWAP1 PUSH2 0x8DE JUMP JUMPDEST POP DUP5 PUSH1 0x5 PUSH0 DUP3 DUP3 SLOAD PUSH2 0x655 SWAP2 SWAP1 PUSH2 0x86E JUMP JUMPDEST SWAP1 SWAP2 SSTORE POP POP JUMPDEST GAS PUSH2 0x666 SWAP1 DUP3 PUSH2 0x881 JUMP JUMPDEST PUSH2 0x670 SWAP1 DUP5 PUSH2 0x86E JUMP JUMPDEST SWAP3 POP GAS PUSH1 0xC DUP1 SLOAD SWAP2 SWAP3 POP PUSH0 PUSH2 0x684 DUP4 PUSH2 0x8FD JUMP JUMPDEST SWAP2 SWAP1 POP SSTORE POP DUP2 DUP1 PUSH2 0x694 SWAP1 PUSH2 0x8FD JUMP JUMPDEST SWAP3 POP POP PUSH2 0x52C JUMP JUMPDEST POP POP NUMBER PUSH0 SSTORE POP SWAP1 SWAP5 POP POP POP POP POP JUMPDEST SWAP3 SWAP2 POP POP JUMP JUMPDEST DUP2 PUSH1 0x6 PUSH0 DUP3 DUP3 SLOAD PUSH2 0x6C1 SWAP2 SWAP1 PUSH2 0x86E JUMP JUMPDEST SWAP1 SWAP2 SSTORE POP POP PUSH1 0x1 PUSH1 0x1 PUSH1 0xA0 SHL SUB DUP2 AND PUSH0 SWAP1 DUP2 MSTORE PUSH1 0x7 PUSH1 0x20 MSTORE PUSH1 0x40 DUP2 KECCAK256 DUP1 SLOAD DUP5 SWAP3 SWAP1 PUSH2 0x6ED SWAP1 DUP5 SWAP1 PUSH2 0x86E JUMP JUMPDEST SWAP1 SWAP2 SSTORE POP POP PUSH1 0x1 PUSH1 0x1 PUSH1 0xA0 SHL SUB DUP2 AND PUSH0 SWAP1 DUP2 MSTORE PUSH1 0x8 PUSH1 0x20 SWAP1 DUP2 MSTORE PUSH1 0x40 DUP1 DUP4 KECCAK256 TIMESTAMP SWAP1 SSTORE PUSH1 0x9 SWAP1 SWAP2 MSTORE DUP2 KECCAK256 DUP1 SLOAD CALLVALUE SWAP3 SWAP1 PUSH2 0x726 SWAP1 DUP5 SWAP1 PUSH2 0x86E JUMP JUMPDEST SWAP1 SWAP2 SSTORE POP POP PUSH1 0x1 PUSH1 0x1 PUSH1 0xA0 SHL SUB DUP2 AND PUSH0 SWAP1 DUP2 MSTORE PUSH1 0xB PUSH1 0x20 MSTORE PUSH1 0x40 DUP2 KECCAK256 SLOAD SWAP1 SUB PUSH2 0x7A5 JUMPI PUSH1 0xA DUP1 SLOAD PUSH1 0x1 PUSH1 0x1 PUSH1 0xA0 SHL SUB DUP4 AND PUSH0 DUP2 DUP2 MSTORE PUSH1 0xB PUSH1 0x20 MSTORE PUSH1 0x40 DUP2 KECCAK256 DUP4 SWAP1 SSTORE PUSH1 0x1 DUP4 ADD DUP5 SSTORE SWAP3 SWAP1 SWAP3 MSTORE PUSH32 0xC65A7BB8D6351C1CF70C95A316CC6A92839C986682D98BC35F958F4883F9D2A8 ADD DUP1 SLOAD PUSH1 0x1 PUSH1 0x1 PUSH1 0xA0 SHL SUB NOT AND SWAP1 SWAP2 OR SWAP1 SSTORE JUMPDEST POP POP JUMP JUMPDEST DUP1 CALLDATALOAD PUSH1 0x1 PUSH1 0x1 PUSH1 0xA0 SHL SUB DUP2 AND DUP2 EQ PUSH2 0x7BF JUMPI PUSH0 DUP1 REVERT JUMPDEST SWAP2 SWAP1 POP JUMP JUMPDEST PUSH0 PUSH1 0x20 DUP3 DUP5 SUB SLT ISZERO PUSH2 0x7D4 JUMPI PUSH0 DUP1 REVERT JUMPDEST PUSH2 0x7DD DUP3 PUSH2 0x7A9 JUMP JUMPDEST SWAP4 SWAP3 POP POP POP JUMP JUMPDEST PUSH0 PUSH1 0x20 DUP3 DUP5 SUB SLT ISZERO PUSH2 0x7F4 JUMPI PUSH0 DUP1 REVERT JUMPDEST POP CALLDATALOAD SWAP2 SWAP1 POP JUMP JUMPDEST PUSH0 DUP1 PUSH1 0x40 DUP4 DUP6 SUB SLT ISZERO PUSH2 0x80C JUMPI PUSH0 DUP1 REVERT JUMPDEST DUP3 CALLDATALOAD SWAP2 POP PUSH2 0x81C PUSH1 0x20 DUP5 ADD PUSH2 0x7A9 JUMP JUMPDEST SWAP1 POP SWAP3 POP SWAP3 SWAP1 POP JUMP JUMPDEST PUSH1 0x20 DUP1 DUP3 MSTORE DUP2 DUP2 ADD MSTORE PUSH32 0x4F776E61626C653A2063616C6C6572206973206E6F7420746865206F776E6572 PUSH1 0x40 DUP3 ADD MSTORE PUSH1 0x60 ADD SWAP1 JUMP JUMPDEST PUSH4 0x4E487B71 PUSH1 0xE0 SHL PUSH0 MSTORE PUSH1 0x11 PUSH1 0x4 MSTORE PUSH1 0x24 PUSH0 REVERT JUMPDEST DUP1 DUP3 ADD DUP1 DUP3 GT ISZERO PUSH2 0x6AA JUMPI PUSH2 0x6AA PUSH2 0x85A JUMP JUMPDEST DUP2 DUP2 SUB DUP2 DUP2 GT ISZERO PUSH2 0x6AA JUMPI PUSH2 0x6AA PUSH2 0x85A JUMP JUMPDEST PUSH4 0x4E487B71 PUSH1 0xE0 SHL PUSH0 MSTORE PUSH1 0x32 PUSH1 0x4 MSTORE PUSH1 0x24 PUSH0 REVERT JUMPDEST DUP1 DUP3 MUL DUP2 ISZERO DUP3 DUP3 DIV DUP5 EQ OR PUSH2 0x6AA JUMPI PUSH2 0x6AA PUSH2 0x85A JUMP JUMPDEST PUSH0 DUP3 PUSH2 0x8D9 JUMPI PUSH4 0x4E487B71 PUSH1 0xE0 SHL PUSH0 MSTORE PUSH1 0x12 PUSH1 0x4 MSTORE PUSH1 0x24 PUSH0 REVERT JUMPDEST POP DIV SWAP1 JUMP JUMPDEST PUSH0 PUSH1 0x20 DUP3 DUP5 SUB SLT ISZERO PUSH2 0x8EE JUMPI PUSH0 DUP1 REVERT JUMPDEST DUP2 MLOAD DUP1 ISZERO ISZERO DUP2 EQ PUSH2 0x7DD JUMPI PUSH0 DUP1 REVERT JUMPDEST PUSH0 PUSH1 0x1 DUP3 ADD PUSH2 0x90E JUMPI PUSH2 0x90E PUSH2 0x85A JUMP JUMPDEST POP PUSH1 0x1 ADD SWAP1 JUMP INVALID LOG2 PUSH5 0x6970667358 0x22 SLT KECCAK256 SSTORE BYTE 0xC3 PUSH23 0x82D283EC6101C2899132D224043029CC1B1D7655B8A7B2 0xAF 0xB9 PUSH29 0x496864736F6C6343000814003300000000000000000000000000000000 "
				},
				"gasEstimates": {
					"creation": {
						"codeDepositCost": "475800",
						"executionCost": "130321",
						"totalCost": "606121"
					},
					"external": {
						"_LpBalances(address)": "2593",
						"_lastEth(address)": "2769",
						"_lastLpTime(address)": "2637",
						"currentLpIndex()": "2283",
						"dividendGas()": "2569",
						"holderRewardCondition()": "2657",
						"lpBonus()": "2327",
						"lpBonusEd()": "2525",
						"lpHolderIndex(address)": "2483",
						"lpHolders(uint256)": "4787",
						"op()": "2732",
						"owner()": "2490",
						"processReward(uint256,address)": "infinite",
						"progressRewardBlock()": "2304",
						"progressRewardBlockAdd()": "2503",
						"setDividendGas(uint256)": "24528",
						"setHolderRewardCondition(uint256)": "24770",
						"setOp(address)": "26907",
						"setRewardBlockAdd(uint256)": "24792",
						"totalLpSupply()": "2393"
					},
					"internal": {
						"ariver(uint256,address)": "infinite"
					}
				},
				"methodIdentifiers": {
					"_LpBalances(address)": "68698b48",
					"_lastEth(address)": "b510efa6",
					"_lastLpTime(address)": "86623a06",
					"currentLpIndex()": "1210c434",
					"dividendGas()": "bd876702",
					"holderRewardCondition()": "eb10b741",
					"lpBonus()": "621f9c0a",
					"lpBonusEd()": "b367bf83",
					"lpHolderIndex(address)": "0affb402",
					"lpHolders(uint256)": "9f0d7eb8",
					"op()": "ec1f1f69",
					"owner()": "8da5cb5b",
					"processReward(uint256,address)": "dd2cad60",
					"progressRewardBlock()": "2a595512",
					"progressRewardBlockAdd()": "add0a6c6",
					"setDividendGas(uint256)": "6689567e",
					"setHolderRewardCondition(uint256)": "c213d62d",
					"setOp(address)": "a36a7526",
					"setRewardBlockAdd(uint256)": "c7003ed0",
					"totalLpSupply()": "6aedea73"
				}
			},
			"storageLayout": {
				"storage": [
					{
						"astId": 70,
						"contract": "contracts/DividendPayingERC20Token.sol:DividendPayingERC20Token",
						"label": "progressRewardBlock",
						"offset": 0,
						"slot": "0",
						"type": "t_uint256"
					},
					{
						"astId": 72,
						"contract": "contracts/DividendPayingERC20Token.sol:DividendPayingERC20Token",
						"label": "progressRewardBlockAdd",
						"offset": 0,
						"slot": "1",
						"type": "t_uint256"
					},
					{
						"astId": 74,
						"contract": "contracts/DividendPayingERC20Token.sol:DividendPayingERC20Token",
						"label": "holderRewardCondition",
						"offset": 0,
						"slot": "2",
						"type": "t_uint256"
					},
					{
						"astId": 76,
						"contract": "contracts/DividendPayingERC20Token.sol:DividendPayingERC20Token",
						"label": "dividendGas",
						"offset": 0,
						"slot": "3",
						"type": "t_uint256"
					},
					{
						"astId": 78,
						"contract": "contracts/DividendPayingERC20Token.sol:DividendPayingERC20Token",
						"label": "lpBonus",
						"offset": 0,
						"slot": "4",
						"type": "t_uint256"
					},
					{
						"astId": 80,
						"contract": "contracts/DividendPayingERC20Token.sol:DividendPayingERC20Token",
						"label": "lpBonusEd",
						"offset": 0,
						"slot": "5",
						"type": "t_uint256"
					},
					{
						"astId": 82,
						"contract": "contracts/DividendPayingERC20Token.sol:DividendPayingERC20Token",
						"label": "totalLpSupply",
						"offset": 0,
						"slot": "6",
						"type": "t_uint256"
					},
					{
						"astId": 86,
						"contract": "contracts/DividendPayingERC20Token.sol:DividendPayingERC20Token",
						"label": "_LpBalances",
						"offset": 0,
						"slot": "7",
						"type": "t_mapping(t_address,t_uint256)"
					},
					{
						"astId": 90,
						"contract": "contracts/DividendPayingERC20Token.sol:DividendPayingERC20Token",
						"label": "_lastLpTime",
						"offset": 0,
						"slot": "8",
						"type": "t_mapping(t_address,t_uint256)"
					},
					{
						"astId": 94,
						"contract": "contracts/DividendPayingERC20Token.sol:DividendPayingERC20Token",
						"label": "_lastEth",
						"offset": 0,
						"slot": "9",
						"type": "t_mapping(t_address,t_uint256)"
					},
					{
						"astId": 97,
						"contract": "contracts/DividendPayingERC20Token.sol:DividendPayingERC20Token",
						"label": "lpHolders",
						"offset": 0,
						"slot": "10",
						"type": "t_array(t_address)dyn_storage"
					},
					{
						"astId": 101,
						"contract": "contracts/DividendPayingERC20Token.sol:DividendPayingERC20Token",
						"label": "lpHolderIndex",
						"offset": 0,
						"slot": "11",
						"type": "t_mapping(t_address,t_uint256)"
					},
					{
						"astId": 103,
						"contract": "contracts/DividendPayingERC20Token.sol:DividendPayingERC20Token",
						"label": "currentLpIndex",
						"offset": 0,
						"slot": "12",
						"type": "t_uint256"
					},
					{
						"astId": 105,
						"contract": "contracts/DividendPayingERC20Token.sol:DividendPayingERC20Token",
						"label": "deadAddress",
						"offset": 0,
						"slot": "13",
						"type": "t_address"
					},
					{
						"astId": 107,
						"contract": "contracts/DividendPayingERC20Token.sol:DividendPayingERC20Token",
						"label": "op",
						"offset": 0,
						"slot": "14",
						"type": "t_address"
					},
					{
						"astId": 109,
						"contract": "contracts/DividendPayingERC20Token.sol:DividendPayingERC20Token",
						"label": "owner",
						"offset": 0,
						"slot": "15",
						"type": "t_address"
					}
				],
				"types": {
					"t_address": {
						"encoding": "inplace",
						"label": "address",
						"numberOfBytes": "20"
					},
					"t_array(t_address)dyn_storage": {
						"base": "t_address",
						"encoding": "dynamic_array",
						"label": "address[]",
						"numberOfBytes": "32"
					},
					"t_mapping(t_address,t_uint256)": {
						"encoding": "mapping",
						"key": "t_address",
						"label": "mapping(address => uint256)",
						"numberOfBytes": "32",
						"value": "t_uint256"
					},
					"t_uint256": {
						"encoding": "inplace",
						"label": "uint256",
						"numberOfBytes": "32"
					}
				}
			},
			"userdoc": {
				"kind": "user",
				"methods": {},
				"version": 1
			}
		}
	}
}