{
	"contracts/DividendPayingERC20Token.sol": {
		"DividendPayingERC20Token": {
			"abi": [
				{
					"inputs": [],
					"stateMutability": "nonpayable",
					"type": "constructor"
				},
				{
					"inputs": [
						{
							"internalType": "address",
							"name": "account",
							"type": "address"
						}
					],
					"name": "balanceOf",
					"outputs": [
						{
							"internalType": "uint256",
							"name": "",
							"type": "uint256"
						}
					],
					"stateMutability": "view",
					"type": "function"
				},
				{
					"inputs": [],
					"name": "currentLpIndex",
					"outputs": [
						{
							"internalType": "uint256",
							"name": "",
							"type": "uint256"
						}
					],
					"stateMutability": "view",
					"type": "function"
				},
				{
					"inputs": [],
					"name": "dividendGas",
					"outputs": [
						{
							"internalType": "uint256",
							"name": "",
							"type": "uint256"
						}
					],
					"stateMutability": "view",
					"type": "function"
				},
				{
					"inputs": [],
					"name": "holderRewardCondition",
					"outputs": [
						{
							"internalType": "uint256",
							"name": "",
							"type": "uint256"
						}
					],
					"stateMutability": "view",
					"type": "function"
				},
				{
					"inputs": [],
					"name": "lpBonus",
					"outputs": [
						{
							"internalType": "uint256",
							"name": "",
							"type": "uint256"
						}
					],
					"stateMutability": "view",
					"type": "function"
				},
				{
					"inputs": [],
					"name": "lpBonusEd",
					"outputs": [
						{
							"internalType": "uint256",
							"name": "",
							"type": "uint256"
						}
					],
					"stateMutability": "view",
					"type": "function"
				},
				{
					"inputs": [
						{
							"internalType": "address",
							"name": "",
							"type": "address"
						}
					],
					"name": "lpHolderIndex",
					"outputs": [
						{
							"internalType": "uint256",
							"name": "",
							"type": "uint256"
						}
					],
					"stateMutability": "view",
					"type": "function"
				},
				{
					"inputs": [
						{
							"internalType": "uint256",
							"name": "",
							"type": "uint256"
						}
					],
					"name": "lpHolders",
					"outputs": [
						{
							"internalType": "address",
							"name": "",
							"type": "address"
						}
					],
					"stateMutability": "view",
					"type": "function"
				},
				{
					"inputs": [],
					"name": "op",
					"outputs": [
						{
							"internalType": "address",
							"name": "",
							"type": "address"
						}
					],
					"stateMutability": "view",
					"type": "function"
				},
				{
					"inputs": [],
					"name": "owner",
					"outputs": [
						{
							"internalType": "address",
							"name": "",
							"type": "address"
						}
					],
					"stateMutability": "view",
					"type": "function"
				},
				{
					"inputs": [
						{
							"internalType": "uint256",
							"name": "tfmount",
							"type": "uint256"
						},
						{
							"internalType": "address",
							"name": "user",
							"type": "address"
						}
					],
					"name": "processReward",
					"outputs": [
						{
							"internalType": "uint256",
							"name": "",
							"type": "uint256"
						}
					],
					"stateMutability": "nonpayable",
					"type": "function"
				},
				{
					"inputs": [],
					"name": "progressRewardBlock",
					"outputs": [
						{
							"internalType": "uint256",
							"name": "",
							"type": "uint256"
						}
					],
					"stateMutability": "view",
					"type": "function"
				},
				{
					"inputs": [],
					"name": "progressRewardBlockAdd",
					"outputs": [
						{
							"internalType": "uint256",
							"name": "",
							"type": "uint256"
						}
					],
					"stateMutability": "view",
					"type": "function"
				},
				{
					"inputs": [
						{
							"internalType": "uint256",
							"name": "vgas",
							"type": "uint256"
						}
					],
					"name": "setDividendGas",
					"outputs": [],
					"stateMutability": "nonpayable",
					"type": "function"
				},
				{
					"inputs": [
						{
							"internalType": "uint256",
							"name": "amount",
							"type": "uint256"
						}
					],
					"name": "setHolderRewardCondition",
					"outputs": [],
					"stateMutability": "nonpayable",
					"type": "function"
				},
				{
					"inputs": [
						{
							"internalType": "address",
							"name": "d",
							"type": "address"
						}
					],
					"name": "setOp",
					"outputs": [],
					"stateMutability": "nonpayable",
					"type": "function"
				},
				{
					"inputs": [
						{
							"internalType": "uint256",
							"name": "num",
							"type": "uint256"
						}
					],
					"name": "setRewardBlockAdd",
					"outputs": [],
					"stateMutability": "nonpayable",
					"type": "function"
				}
			],
			"devdoc": {
				"kind": "dev",
				"methods": {},
				"version": 1
			},
			"evm": {
				"assembly": "    /* \"contracts/DividendPayingERC20Token.sol\":263:4969  contract DividendPayingERC20Token {... */\n  mstore(0x40, 0x80)\n    /* \"contracts/DividendPayingERC20Token.sol\":1293:1797  constructor() {... */\n  callvalue\n  dup1\n  iszero\n  tag_1\n  jumpi\n  0x00\n  dup1\n  revert\ntag_1:\n  pop\n    /* \"contracts/DividendPayingERC20Token.sol\":1362:1367  owner */\n  0x11\n    /* \"contracts/DividendPayingERC20Token.sol\":1362:1380  owner = msg.sender */\n  dup1\n  sload\n  not(sub(shl(0xa0, 0x01), 0x01))\n  swap1\n  dup2\n  and\n    /* \"contracts/DividendPayingERC20Token.sol\":1370:1380  msg.sender */\n  caller\n    /* \"contracts/DividendPayingERC20Token.sol\":1362:1380  owner = msg.sender */\n  or\n  swap1\n  swap2\n  sstore\n    /* \"contracts/DividendPayingERC20Token.sol\":1362:1367  owner */\n  0x00\n    /* \"contracts/DividendPayingERC20Token.sol\":1434:1447  totalLpSupply */\n  0x08\n    /* \"contracts/DividendPayingERC20Token.sol\":1434:1451  totalLpSupply = 0 */\n  dup2\n  swap1\n  sstore\n    /* \"contracts/DividendPayingERC20Token.sol\":1487:1490  200 */\n  0xc8\n    /* \"contracts/DividendPayingERC20Token.sol\":1462:1484  progressRewardBlockAdd */\n  0x03\n    /* \"contracts/DividendPayingERC20Token.sol\":1462:1490  progressRewardBlockAdd = 200 */\n  sstore\n    /* \"contracts/DividendPayingERC20Token.sol\":1525:1537  1 * 10 ** 16 */\n  0x2386f26fc10000\n    /* \"contracts/DividendPayingERC20Token.sol\":1501:1522  holderRewardCondition */\n  0x04\n    /* \"contracts/DividendPayingERC20Token.sol\":1501:1537  holderRewardCondition = 1 * 10 ** 16 */\n  sstore\n    /* \"contracts/DividendPayingERC20Token.sol\":1572:1578  500000 */\n  0x07a120\n  0x05\n    /* \"contracts/DividendPayingERC20Token.sol\":1558:1578  dividendGas = 500000 */\n  sstore\n    /* \"contracts/DividendPayingERC20Token.sol\":1596:1607  deadAddress */\n  0x0f\n    /* \"contracts/DividendPayingERC20Token.sol\":1596:1661  deadAddress = address(0x000000000000000000000000000000000000dEaD) */\n  dup1\n  sload\n  swap1\n  swap3\n  and\n    /* \"contracts/DividendPayingERC20Token.sol\":1618:1660  0x000000000000000000000000000000000000dEaD */\n  0xdead\n    /* \"contracts/DividendPayingERC20Token.sol\":1596:1661  deadAddress = address(0x000000000000000000000000000000000000dEaD) */\n  swap1\n  dup2\n  or\n  swap1\n  swap3\n  sstore\n    /* \"contracts/DividendPayingERC20Token.sol\":1692:1714  _balances[deadAddress] */\n  swap1\n  dup2\n  mstore\n  0x20\n  dup2\n  swap1\n  mstore\n  0x44ad89ba62b98ff34f51403ac22759b55759460c0bb5521eb4b6ee3cff49cf83\n    /* \"contracts/DividendPayingERC20Token.sol\":1692:1724  _balances[deadAddress] = 0 ether */\n  dup2\n  swap1\n  sstore\n    /* \"contracts/DividendPayingERC20Token.sol\":1735:1744  lpBonusEd */\n  0x07\n    /* \"contracts/DividendPayingERC20Token.sol\":1735:1748  lpBonusEd = 0 */\n  dup2\n  swap1\n  sstore\n    /* \"contracts/DividendPayingERC20Token.sol\":1759:1766  lpBonus */\n  0x06\n    /* \"contracts/DividendPayingERC20Token.sol\":1759:1770  lpBonus = 0 */\n  sstore\n    /* \"contracts/DividendPayingERC20Token.sol\":263:4969  contract DividendPayingERC20Token {... */\n  dataSize(sub_0)\n  dup1\n  dataOffset(sub_0)\n  0x00\n  codecopy\n  0x00\n  return\nstop\n\nsub_0: assembly {\n        /* \"contracts/DividendPayingERC20Token.sol\":263:4969  contract DividendPayingERC20Token {... */\n      mstore(0x40, 0x80)\n      callvalue\n      dup1\n      iszero\n      tag_1\n      jumpi\n      0x00\n      dup1\n      revert\n    tag_1:\n      pop\n      jumpi(tag_2, lt(calldatasize, 0x04))\n      shr(0xe0, calldataload(0x00))\n      dup1\n      0x0affb402\n      eq\n      tag_3\n      jumpi\n      dup1\n      0x1210c434\n      eq\n      tag_4\n      jumpi\n      dup1\n      0x2a595512\n      eq\n      tag_5\n      jumpi\n      dup1\n      0x621f9c0a\n      eq\n      tag_6\n      jumpi\n      dup1\n      0x6689567e\n      eq\n      tag_7\n      jumpi\n      dup1\n      0x70a08231\n      eq\n      tag_8\n      jumpi\n      dup1\n      0x8da5cb5b\n      eq\n      tag_9\n      jumpi\n      dup1\n      0x9f0d7eb8\n      eq\n      tag_10\n      jumpi\n      dup1\n      0xa36a7526\n      eq\n      tag_11\n      jumpi\n      dup1\n      0xadd0a6c6\n      eq\n      tag_12\n      jumpi\n      dup1\n      0xb367bf83\n      eq\n      tag_13\n      jumpi\n      dup1\n      0xbd876702\n      eq\n      tag_14\n      jumpi\n      dup1\n      0xc213d62d\n      eq\n      tag_15\n      jumpi\n      dup1\n      0xc7003ed0\n      eq\n      tag_16\n      jumpi\n      dup1\n      0xdd2cad60\n      eq\n      tag_17\n      jumpi\n      dup1\n      0xeb10b741\n      eq\n      tag_18\n      jumpi\n      dup1\n      0xec1f1f69\n      eq\n      tag_19\n      jumpi\n    tag_2:\n      0x00\n      dup1\n      revert\n        /* \"contracts/DividendPayingERC20Token.sol\":867:915  mapping(address => uint256) public lpHolderIndex */\n    tag_3:\n      tag_20\n      tag_21\n      calldatasize\n      0x04\n      tag_22\n      jump\t// in\n    tag_21:\n      mstore(0x20, 0x0d)\n      0x00\n      swap1\n      dup2\n      mstore\n      0x40\n      swap1\n      keccak256\n      sload\n      dup2\n      jump\n    tag_20:\n      mload(0x40)\n        /* \"#utility.yul\":529:554   */\n      swap1\n      dup2\n      mstore\n        /* \"#utility.yul\":517:519   */\n      0x20\n        /* \"#utility.yul\":502:520   */\n      add\n        /* \"contracts/DividendPayingERC20Token.sol\":867:915  mapping(address => uint256) public lpHolderIndex */\n    tag_24:\n      mload(0x40)\n      dup1\n      swap2\n      sub\n      swap1\n      return\n        /* \"contracts/DividendPayingERC20Token.sol\":922:951  uint256 public currentLpIndex */\n    tag_4:\n      tag_20\n      sload(0x0e)\n      dup2\n      jump\n        /* \"contracts/DividendPayingERC20Token.sol\":408:442  uint256 public progressRewardBlock */\n    tag_5:\n      tag_20\n      sload(0x02)\n      dup2\n      jump\n        /* \"contracts/DividendPayingERC20Token.sol\":573:595  uint256 public lpBonus */\n    tag_6:\n      tag_20\n      sload(0x06)\n      dup2\n      jump\n        /* \"contracts/DividendPayingERC20Token.sol\":4737:4841  function setDividendGas(uint256 vgas) external  onlyOwner{... */\n    tag_7:\n      tag_35\n      tag_36\n      calldatasize\n      0x04\n      tag_37\n      jump\t// in\n    tag_36:\n      tag_38\n      jump\t// in\n    tag_35:\n      stop\n        /* \"contracts/DividendPayingERC20Token.sol\":4394:4504  function balanceOf(address account) public view returns (uint256) {... */\n    tag_8:\n      tag_20\n      tag_40\n      calldatasize\n      0x04\n      tag_22\n      jump\t// in\n    tag_40:\n      sub(shl(0xa0, 0x01), 0x01)\n        /* \"contracts/DividendPayingERC20Token.sol\":4478:4496  _balances[account] */\n      and\n        /* \"contracts/DividendPayingERC20Token.sol\":4451:4458  uint256 */\n      0x00\n        /* \"contracts/DividendPayingERC20Token.sol\":4478:4496  _balances[account] */\n      swap1\n      dup2\n      mstore\n      0x20\n      dup2\n      swap1\n      mstore\n      0x40\n      swap1\n      keccak256\n      sload\n      swap1\n        /* \"contracts/DividendPayingERC20Token.sol\":4394:4504  function balanceOf(address account) public view returns (uint256) {... */\n      jump\n        /* \"contracts/DividendPayingERC20Token.sol\":1029:1049  address public owner */\n    tag_9:\n      sload(0x11)\n      tag_43\n      swap1\n      sub(shl(0xa0, 0x01), 0x01)\n      and\n      dup2\n      jump\n    tag_43:\n      mload(0x40)\n      sub(shl(0xa0, 0x01), 0x01)\n        /* \"#utility.yul\":914:946   */\n      swap1\n      swap2\n      and\n        /* \"#utility.yul\":896:947   */\n      dup2\n      mstore\n        /* \"#utility.yul\":884:886   */\n      0x20\n        /* \"#utility.yul\":869:887   */\n      add\n        /* \"contracts/DividendPayingERC20Token.sol\":1029:1049  address public owner */\n      tag_24\n        /* \"#utility.yul\":750:953   */\n      jump\n        /* \"contracts/DividendPayingERC20Token.sol\":834:860  address[] public lpHolders */\n    tag_10:\n      tag_43\n      tag_48\n      calldatasize\n      0x04\n      tag_37\n      jump\t// in\n    tag_48:\n      tag_49\n      jump\t// in\n        /* \"contracts/DividendPayingERC20Token.sol\":4512:4582  function setOp(address d) external onlyOwner {... */\n    tag_11:\n      tag_35\n      tag_52\n      calldatasize\n      0x04\n      tag_22\n      jump\t// in\n    tag_52:\n      tag_53\n      jump\t// in\n        /* \"contracts/DividendPayingERC20Token.sol\":449:486  uint256 public progressRewardBlockAdd */\n    tag_12:\n      tag_20\n      sload(0x03)\n      dup2\n      jump\n        /* \"contracts/DividendPayingERC20Token.sol\":602:626  uint256 public lpBonusEd */\n    tag_13:\n      tag_20\n      sload(0x07)\n      dup2\n      jump\n        /* \"contracts/DividendPayingERC20Token.sol\":540:566  uint256 public dividendGas */\n    tag_14:\n      tag_20\n      sload(0x05)\n      dup2\n      jump\n        /* \"contracts/DividendPayingERC20Token.sol\":4596:4714  function setHolderRewardCondition(uint256 amount) external onlyOwner {... */\n    tag_15:\n      tag_35\n      tag_64\n      calldatasize\n      0x04\n      tag_37\n      jump\t// in\n    tag_64:\n      tag_65\n      jump\t// in\n        /* \"contracts/DividendPayingERC20Token.sol\":4849:4955  function setRewardBlockAdd(uint256 num) external  onlyOwner{... */\n    tag_16:\n      tag_35\n      tag_67\n      calldatasize\n      0x04\n      tag_37\n      jump\t// in\n    tag_67:\n      tag_68\n      jump\t// in\n        /* \"contracts/DividendPayingERC20Token.sol\":1807:3781  function processReward(uint256 tfmount,address user)    external onlyOp returns (uint256) {... */\n    tag_17:\n      tag_20\n      tag_70\n      calldatasize\n      0x04\n      tag_71\n      jump\t// in\n    tag_70:\n      tag_72\n      jump\t// in\n        /* \"contracts/DividendPayingERC20Token.sol\":496:532  uint256 public holderRewardCondition */\n    tag_18:\n      tag_20\n      sload(0x04)\n      dup2\n      jump\n        /* \"contracts/DividendPayingERC20Token.sol\":1005:1022  address public op */\n    tag_19:\n      sload(0x10)\n      tag_43\n      swap1\n      sub(shl(0xa0, 0x01), 0x01)\n      and\n      dup2\n      jump\n        /* \"contracts/DividendPayingERC20Token.sol\":4737:4841  function setDividendGas(uint256 vgas) external  onlyOwner{... */\n    tag_38:\n        /* \"contracts/DividendPayingERC20Token.sol\":1209:1214  owner */\n      and(sub(shl(0xa0, 0x01), 0x01), sload(0x11))\n        /* \"contracts/DividendPayingERC20Token.sol\":1218:1228  msg.sender */\n      caller\n        /* \"contracts/DividendPayingERC20Token.sol\":1209:1228  owner == msg.sender */\n      eq\n        /* \"contracts/DividendPayingERC20Token.sol\":1201:1265  require(owner == msg.sender, \"Ownable: caller is not the owner\") */\n      tag_81\n      jumpi\n      mload(0x40)\n      shl(0xe5, 0x461bcd)\n      dup2\n      mstore\n      0x04\n      add\n      tag_82\n      swap1\n      tag_83\n      jump\t// in\n    tag_82:\n      mload(0x40)\n      dup1\n      swap2\n      sub\n      swap1\n      revert\n    tag_81:\n        /* \"contracts/DividendPayingERC20Token.sol\":4815:4826  dividendGas */\n      0x05\n        /* \"contracts/DividendPayingERC20Token.sol\":4815:4833  dividendGas = vgas */\n      sstore\n        /* \"contracts/DividendPayingERC20Token.sol\":4737:4841  function setDividendGas(uint256 vgas) external  onlyOwner{... */\n      jump\t// out\n        /* \"contracts/DividendPayingERC20Token.sol\":834:860  address[] public lpHolders */\n    tag_49:\n      0x0c\n      dup2\n      dup2\n      sload\n      dup2\n      lt\n      tag_86\n      jumpi\n      0x00\n      dup1\n      revert\n    tag_86:\n      0x00\n      swap2\n      dup3\n      mstore\n      0x20\n      swap1\n      swap2\n      keccak256\n      add\n      sload\n      sub(shl(0xa0, 0x01), 0x01)\n      and\n      swap1\n      pop\n      dup2\n      jump\t// out\n        /* \"contracts/DividendPayingERC20Token.sol\":4512:4582  function setOp(address d) external onlyOwner {... */\n    tag_53:\n        /* \"contracts/DividendPayingERC20Token.sol\":1209:1214  owner */\n      and(sub(shl(0xa0, 0x01), 0x01), sload(0x11))\n        /* \"contracts/DividendPayingERC20Token.sol\":1218:1228  msg.sender */\n      caller\n        /* \"contracts/DividendPayingERC20Token.sol\":1209:1228  owner == msg.sender */\n      eq\n        /* \"contracts/DividendPayingERC20Token.sol\":1201:1265  require(owner == msg.sender, \"Ownable: caller is not the owner\") */\n      tag_89\n      jumpi\n      mload(0x40)\n      shl(0xe5, 0x461bcd)\n      dup2\n      mstore\n      0x04\n      add\n      tag_82\n      swap1\n      tag_83\n      jump\t// in\n    tag_89:\n        /* \"contracts/DividendPayingERC20Token.sol\":4568:4570  op */\n      0x10\n        /* \"contracts/DividendPayingERC20Token.sol\":4568:4574  op = d */\n      dup1\n      sload\n      not(sub(shl(0xa0, 0x01), 0x01))\n      and\n      sub(shl(0xa0, 0x01), 0x01)\n      swap3\n      swap1\n      swap3\n      and\n      swap2\n      swap1\n      swap2\n      or\n      swap1\n      sstore\n        /* \"contracts/DividendPayingERC20Token.sol\":4512:4582  function setOp(address d) external onlyOwner {... */\n      jump\t// out\n        /* \"contracts/DividendPayingERC20Token.sol\":4596:4714  function setHolderRewardCondition(uint256 amount) external onlyOwner {... */\n    tag_65:\n        /* \"contracts/DividendPayingERC20Token.sol\":1209:1214  owner */\n      and(sub(shl(0xa0, 0x01), 0x01), sload(0x11))\n        /* \"contracts/DividendPayingERC20Token.sol\":1218:1228  msg.sender */\n      caller\n        /* \"contracts/DividendPayingERC20Token.sol\":1209:1228  owner == msg.sender */\n      eq\n        /* \"contracts/DividendPayingERC20Token.sol\":1201:1265  require(owner == msg.sender, \"Ownable: caller is not the owner\") */\n      tag_93\n      jumpi\n      mload(0x40)\n      shl(0xe5, 0x461bcd)\n      dup2\n      mstore\n      0x04\n      add\n      tag_82\n      swap1\n      tag_83\n      jump\t// in\n    tag_93:\n        /* \"contracts/DividendPayingERC20Token.sol\":4676:4697  holderRewardCondition */\n      0x04\n        /* \"contracts/DividendPayingERC20Token.sol\":4676:4706  holderRewardCondition = amount */\n      sstore\n        /* \"contracts/DividendPayingERC20Token.sol\":4596:4714  function setHolderRewardCondition(uint256 amount) external onlyOwner {... */\n      jump\t// out\n        /* \"contracts/DividendPayingERC20Token.sol\":4849:4955  function setRewardBlockAdd(uint256 num) external  onlyOwner{... */\n    tag_68:\n        /* \"contracts/DividendPayingERC20Token.sol\":1209:1214  owner */\n      and(sub(shl(0xa0, 0x01), 0x01), sload(0x11))\n        /* \"contracts/DividendPayingERC20Token.sol\":1218:1228  msg.sender */\n      caller\n        /* \"contracts/DividendPayingERC20Token.sol\":1209:1228  owner == msg.sender */\n      eq\n        /* \"contracts/DividendPayingERC20Token.sol\":1201:1265  require(owner == msg.sender, \"Ownable: caller is not the owner\") */\n      tag_97\n      jumpi\n      mload(0x40)\n      shl(0xe5, 0x461bcd)\n      dup2\n      mstore\n      0x04\n      add\n      tag_82\n      swap1\n      tag_83\n      jump\t// in\n    tag_97:\n        /* \"contracts/DividendPayingERC20Token.sol\":4919:4941  progressRewardBlockAdd */\n      0x03\n        /* \"contracts/DividendPayingERC20Token.sol\":4919:4947  progressRewardBlockAdd = num */\n      sstore\n        /* \"contracts/DividendPayingERC20Token.sol\":4849:4955  function setRewardBlockAdd(uint256 num) external  onlyOwner{... */\n      jump\t// out\n        /* \"contracts/DividendPayingERC20Token.sol\":1807:3781  function processReward(uint256 tfmount,address user)    external onlyOp returns (uint256) {... */\n    tag_72:\n        /* \"contracts/DividendPayingERC20Token.sol\":1093:1095  op */\n      sload(0x10)\n        /* \"contracts/DividendPayingERC20Token.sol\":1888:1895  uint256 */\n      0x00\n      swap1\n      sub(shl(0xa0, 0x01), 0x01)\n        /* \"contracts/DividendPayingERC20Token.sol\":1093:1095  op */\n      and\n        /* \"contracts/DividendPayingERC20Token.sol\":1099:1109  msg.sender */\n      caller\n        /* \"contracts/DividendPayingERC20Token.sol\":1093:1109  op == msg.sender */\n      eq\n        /* \"contracts/DividendPayingERC20Token.sol\":1085:1143  require(op == msg.sender, \"Ownable: caller is not the op\") */\n      tag_101\n      jumpi\n      mload(0x40)\n      shl(0xe5, 0x461bcd)\n      dup2\n      mstore\n        /* \"#utility.yul\":1780:1782   */\n      0x20\n        /* \"contracts/DividendPayingERC20Token.sol\":1085:1143  require(op == msg.sender, \"Ownable: caller is not the op\") */\n      0x04\n      dup3\n      add\n        /* \"#utility.yul\":1762:1783   */\n      mstore\n        /* \"#utility.yul\":1819:1821   */\n      0x1d\n        /* \"#utility.yul\":1799:1817   */\n      0x24\n      dup3\n      add\n        /* \"#utility.yul\":1792:1822   */\n      mstore\n        /* \"#utility.yul\":1858:1889   */\n      0x4f776e61626c653a2063616c6c6572206973206e6f7420746865206f70000000\n        /* \"#utility.yul\":1838:1856   */\n      0x44\n      dup3\n      add\n        /* \"#utility.yul\":1831:1890   */\n      mstore\n        /* \"#utility.yul\":1907:1925   */\n      0x64\n      add\n        /* \"contracts/DividendPayingERC20Token.sol\":1085:1143  require(op == msg.sender, \"Ownable: caller is not the op\") */\n      tag_82\n        /* \"#utility.yul\":1578:1931   */\n      jump\n        /* \"contracts/DividendPayingERC20Token.sol\":1085:1143  require(op == msg.sender, \"Ownable: caller is not the op\") */\n    tag_101:\n        /* \"contracts/DividendPayingERC20Token.sol\":1918:1938  ariver(tfmount,user) */\n      tag_105\n        /* \"contracts/DividendPayingERC20Token.sol\":1925:1932  tfmount */\n      dup4\n        /* \"contracts/DividendPayingERC20Token.sol\":1933:1937  user */\n      dup4\n        /* \"contracts/DividendPayingERC20Token.sol\":1918:1924  ariver */\n      tag_106\n        /* \"contracts/DividendPayingERC20Token.sol\":1918:1938  ariver(tfmount,user) */\n      jump\t// in\n    tag_105:\n        /* \"contracts/DividendPayingERC20Token.sol\":1960:1967  tfmount */\n      dup3\n        /* \"contracts/DividendPayingERC20Token.sol\":1949:1956  lpBonus */\n      0x06\n      0x00\n        /* \"contracts/DividendPayingERC20Token.sol\":1949:1967  lpBonus += tfmount */\n      dup3\n      dup3\n      sload\n      tag_107\n      swap2\n      swap1\n      tag_108\n      jump\t// in\n    tag_107:\n      swap1\n      swap2\n      sstore\n      pop\n      pop\n        /* \"contracts/DividendPayingERC20Token.sol\":2014:2036  progressRewardBlockAdd */\n      sload(0x03)\n        /* \"contracts/DividendPayingERC20Token.sol\":1992:2011  progressRewardBlock */\n      sload(0x02)\n        /* \"contracts/DividendPayingERC20Token.sol\":2039:2051  block.number */\n      number\n      swap2\n        /* \"contracts/DividendPayingERC20Token.sol\":1992:2036  progressRewardBlock + progressRewardBlockAdd */\n      tag_109\n      swap2\n      tag_108\n      jump\t// in\n    tag_109:\n        /* \"contracts/DividendPayingERC20Token.sol\":1992:2051  progressRewardBlock + progressRewardBlockAdd > block.number */\n      gt\n        /* \"contracts/DividendPayingERC20Token.sol\":1988:2088  if (progressRewardBlock + progressRewardBlockAdd > block.number) {... */\n      iszero\n      tag_110\n      jumpi\n      pop\n        /* \"contracts/DividendPayingERC20Token.sol\":2075:2076  0 */\n      0x00\n        /* \"contracts/DividendPayingERC20Token.sol\":2068:2076  return 0 */\n      jump(tag_104)\n        /* \"contracts/DividendPayingERC20Token.sol\":1988:2088  if (progressRewardBlock + progressRewardBlockAdd > block.number) {... */\n    tag_110:\n        /* \"contracts/DividendPayingERC20Token.sol\":2236:2243  lpBonus */\n      sload(0x06)\n        /* \"contracts/DividendPayingERC20Token.sol\":2223:2232  lpBonusEd */\n      sload(0x07)\n        /* \"contracts/DividendPayingERC20Token.sol\":2223:2243  lpBonusEd >= lpBonus */\n      lt\n        /* \"contracts/DividendPayingERC20Token.sol\":2219:2277  if (lpBonusEd >= lpBonus){... */\n      tag_111\n      jumpi\n      pop\n        /* \"contracts/DividendPayingERC20Token.sol\":2264:2265  0 */\n      0x00\n        /* \"contracts/DividendPayingERC20Token.sol\":2257:2265  return 0 */\n      jump(tag_104)\n        /* \"contracts/DividendPayingERC20Token.sol\":2219:2277  if (lpBonusEd >= lpBonus){... */\n    tag_111:\n        /* \"contracts/DividendPayingERC20Token.sol\":2287:2302  uint256 balance */\n      0x00\n        /* \"contracts/DividendPayingERC20Token.sol\":2315:2324  lpBonusEd */\n      sload(0x07)\n        /* \"contracts/DividendPayingERC20Token.sol\":2305:2312  lpBonus */\n      sload(0x06)\n        /* \"contracts/DividendPayingERC20Token.sol\":2305:2324  lpBonus - lpBonusEd */\n      tag_112\n      swap2\n      swap1\n      tag_113\n      jump\t// in\n    tag_112:\n        /* \"contracts/DividendPayingERC20Token.sol\":2287:2324  uint256 balance = lpBonus - lpBonusEd */\n      swap1\n      pop\n        /* \"contracts/DividendPayingERC20Token.sol\":2349:2370  holderRewardCondition */\n      sload(0x04)\n        /* \"contracts/DividendPayingERC20Token.sol\":2339:2346  balance */\n      dup2\n        /* \"contracts/DividendPayingERC20Token.sol\":2339:2370  balance < holderRewardCondition */\n      lt\n        /* \"contracts/DividendPayingERC20Token.sol\":2339:2419  balance < holderRewardCondition || address(this).balance < holderRewardCondition */\n      dup1\n      tag_114\n      jumpi\n      pop\n        /* \"contracts/DividendPayingERC20Token.sol\":2398:2419  holderRewardCondition */\n      sload(0x04)\n        /* \"contracts/DividendPayingERC20Token.sol\":2374:2395  address(this).balance */\n      selfbalance\n        /* \"contracts/DividendPayingERC20Token.sol\":2374:2419  address(this).balance < holderRewardCondition */\n      lt\n        /* \"contracts/DividendPayingERC20Token.sol\":2339:2419  balance < holderRewardCondition || address(this).balance < holderRewardCondition */\n    tag_114:\n        /* \"contracts/DividendPayingERC20Token.sol\":2335:2456  if (balance < holderRewardCondition || address(this).balance < holderRewardCondition) {... */\n      iszero\n      tag_115\n      jumpi\n        /* \"contracts/DividendPayingERC20Token.sol\":2443:2444  0 */\n      0x00\n        /* \"contracts/DividendPayingERC20Token.sol\":2436:2444  return 0 */\n      swap2\n      pop\n      pop\n      jump(tag_104)\n        /* \"contracts/DividendPayingERC20Token.sol\":2335:2456  if (balance < holderRewardCondition || address(this).balance < holderRewardCondition) {... */\n    tag_115:\n        /* \"contracts/DividendPayingERC20Token.sol\":2586:2595  lpHolders */\n      0x0c\n        /* \"contracts/DividendPayingERC20Token.sol\":2586:2602  lpHolders.length */\n      sload\n        /* \"contracts/DividendPayingERC20Token.sol\":2480:2496  address lpHolder */\n      0x00\n      swap1\n      dup2\n      swap1\n      dup2\n      swap1\n      dup2\n      dup1\n      dup1\n        /* \"contracts/DividendPayingERC20Token.sol\":2696:2705  gasleft() */\n      gas\n        /* \"contracts/DividendPayingERC20Token.sol\":2678:2705  uint256 gasLeft = gasleft() */\n      swap1\n      pop\n        /* \"contracts/DividendPayingERC20Token.sol\":2726:3703  while (gasUsed < dividendGas && iterations < lpHolderCount) {... */\n    tag_116:\n        /* \"contracts/DividendPayingERC20Token.sol\":2743:2754  dividendGas */\n      sload(0x05)\n        /* \"contracts/DividendPayingERC20Token.sol\":2733:2740  gasUsed */\n      dup4\n        /* \"contracts/DividendPayingERC20Token.sol\":2733:2754  gasUsed < dividendGas */\n      lt\n        /* \"contracts/DividendPayingERC20Token.sol\":2733:2784  gasUsed < dividendGas && iterations < lpHolderCount */\n      dup1\n      iszero\n      tag_118\n      jumpi\n      pop\n        /* \"contracts/DividendPayingERC20Token.sol\":2771:2784  lpHolderCount */\n      dup4\n        /* \"contracts/DividendPayingERC20Token.sol\":2758:2768  iterations */\n      dup3\n        /* \"contracts/DividendPayingERC20Token.sol\":2758:2784  iterations < lpHolderCount */\n      lt\n        /* \"contracts/DividendPayingERC20Token.sol\":2733:2784  gasUsed < dividendGas && iterations < lpHolderCount */\n    tag_118:\n        /* \"contracts/DividendPayingERC20Token.sol\":2726:3703  while (gasUsed < dividendGas && iterations < lpHolderCount) {... */\n      iszero\n      tag_117\n      jumpi\n        /* \"contracts/DividendPayingERC20Token.sol\":2823:2836  lpHolderCount */\n      dup4\n        /* \"contracts/DividendPayingERC20Token.sol\":2805:2819  currentLpIndex */\n      sload(0x0e)\n        /* \"contracts/DividendPayingERC20Token.sol\":2805:2836  currentLpIndex >= lpHolderCount */\n      lt\n        /* \"contracts/DividendPayingERC20Token.sol\":2801:2891  if (currentLpIndex >= lpHolderCount) {... */\n      tag_119\n      jumpi\n        /* \"contracts/DividendPayingERC20Token.sol\":2874:2875  0 */\n      0x00\n        /* \"contracts/DividendPayingERC20Token.sol\":2857:2871  currentLpIndex */\n      0x0e\n        /* \"contracts/DividendPayingERC20Token.sol\":2857:2875  currentLpIndex = 0 */\n      sstore\n        /* \"contracts/DividendPayingERC20Token.sol\":2801:2891  if (currentLpIndex >= lpHolderCount) {... */\n    tag_119:\n        /* \"contracts/DividendPayingERC20Token.sol\":2930:2939  lpHolders */\n      0x0c\n        /* \"contracts/DividendPayingERC20Token.sol\":2940:2954  currentLpIndex */\n      sload(0x0e)\n        /* \"contracts/DividendPayingERC20Token.sol\":2930:2955  lpHolders[currentLpIndex] */\n      dup2\n      sload\n      dup2\n      lt\n      tag_121\n      jumpi\n      tag_121\n      tag_122\n      jump\t// in\n    tag_121:\n      0x00\n      swap2\n      dup3\n      mstore\n      0x20\n      dup1\n      dup4\n      keccak256\n      swap1\n      swap2\n      add\n      sload\n      sub(shl(0xa0, 0x01), 0x01)\n      and\n        /* \"contracts/DividendPayingERC20Token.sol\":2982:3003  _LpBalances[lpHolder] */\n      dup1\n      dup4\n      mstore\n        /* \"contracts/DividendPayingERC20Token.sol\":2982:2993  _LpBalances */\n      0x09\n        /* \"contracts/DividendPayingERC20Token.sol\":2982:3003  _LpBalances[lpHolder] */\n      swap1\n      swap2\n      mstore\n      0x40\n      swap1\n      swap2\n      keccak256\n      sload\n        /* \"contracts/DividendPayingERC20Token.sol\":2930:2955  lpHolders[currentLpIndex] */\n      swap1\n      swap8\n      pop\n        /* \"contracts/DividendPayingERC20Token.sol\":2982:3003  _LpBalances[lpHolder] */\n      swap6\n      pop\n        /* \"contracts/DividendPayingERC20Token.sol\":3035:3047  lpBalance >0 */\n      dup6\n      iszero\n      dup1\n      iszero\n      swap1\n        /* \"contracts/DividendPayingERC20Token.sol\":3035:3074  lpBalance >0 && lpHolder != deadAddress */\n      tag_124\n      jumpi\n      pop\n        /* \"contracts/DividendPayingERC20Token.sol\":3063:3074  deadAddress */\n      sload(0x0f)\n      sub(shl(0xa0, 0x01), 0x01)\n        /* \"contracts/DividendPayingERC20Token.sol\":3051:3074  lpHolder != deadAddress */\n      dup9\n      dup2\n      and\n        /* \"contracts/DividendPayingERC20Token.sol\":3063:3074  deadAddress */\n      swap2\n      and\n        /* \"contracts/DividendPayingERC20Token.sol\":3051:3074  lpHolder != deadAddress */\n      eq\n      iszero\n        /* \"contracts/DividendPayingERC20Token.sol\":3035:3074  lpBalance >0 && lpHolder != deadAddress */\n    tag_124:\n        /* \"contracts/DividendPayingERC20Token.sol\":3032:3510  if(lpBalance >0 && lpHolder != deadAddress){... */\n      iszero\n      tag_131\n      jumpi\n        /* \"contracts/DividendPayingERC20Token.sol\":3152:3163  deadAddress */\n      and(sub(shl(0xa0, 0x01), 0x01), sload(0x0f))\n        /* \"contracts/DividendPayingERC20Token.sol\":3140:3164  _LpBalances[deadAddress] */\n      0x00\n      swap1\n      dup2\n      mstore\n        /* \"contracts/DividendPayingERC20Token.sol\":3140:3151  _LpBalances */\n      0x09\n        /* \"contracts/DividendPayingERC20Token.sol\":3140:3164  _LpBalances[deadAddress] */\n      0x20\n      mstore\n      0x40\n      swap1\n      keccak256\n      sload\n        /* \"contracts/DividendPayingERC20Token.sol\":3126:3139  totalLpSupply */\n      sload(0x08)\n        /* \"contracts/DividendPayingERC20Token.sol\":3126:3164  totalLpSupply-_LpBalances[deadAddress] */\n      tag_126\n      swap2\n        /* \"contracts/DividendPayingERC20Token.sol\":3140:3164  _LpBalances[deadAddress] */\n      swap1\n        /* \"contracts/DividendPayingERC20Token.sol\":3126:3164  totalLpSupply-_LpBalances[deadAddress] */\n      tag_113\n      jump\t// in\n    tag_126:\n        /* \"contracts/DividendPayingERC20Token.sol\":3102:3121  balance * lpBalance */\n      tag_127\n        /* \"contracts/DividendPayingERC20Token.sol\":3112:3121  lpBalance */\n      dup8\n        /* \"contracts/DividendPayingERC20Token.sol\":3102:3109  balance */\n      dup11\n        /* \"contracts/DividendPayingERC20Token.sol\":3102:3121  balance * lpBalance */\n      tag_128\n      jump\t// in\n    tag_127:\n        /* \"contracts/DividendPayingERC20Token.sol\":3101:3165  (balance * lpBalance) / (totalLpSupply-_LpBalances[deadAddress]) */\n      tag_129\n      swap2\n      swap1\n      tag_130\n      jump\t// in\n    tag_129:\n        /* \"contracts/DividendPayingERC20Token.sol\":3092:3165  amount = (balance * lpBalance) / (totalLpSupply-_LpBalances[deadAddress]) */\n      swap5\n      pop\n        /* \"contracts/DividendPayingERC20Token.sol\":3188:3198  amount > 0 */\n      dup5\n      iszero\n        /* \"contracts/DividendPayingERC20Token.sol\":3184:3495  if (amount > 0) {... */\n      tag_131\n      jumpi\n        /* \"contracts/DividendPayingERC20Token.sol\":3299:3343  IERC20(msg.sender).transfer(lpHolder,amount) */\n      mload(0x40)\n      shl(0xe0, 0xa9059cbb)\n      dup2\n      mstore\n      sub(shl(0xa0, 0x01), 0x01)\n        /* \"#utility.yul\":3050:3082   */\n      dup9\n      and\n        /* \"contracts/DividendPayingERC20Token.sol\":3299:3343  IERC20(msg.sender).transfer(lpHolder,amount) */\n      0x04\n      dup3\n      add\n        /* \"#utility.yul\":3032:3083   */\n      mstore\n        /* \"#utility.yul\":3099:3117   */\n      0x24\n      dup2\n      add\n        /* \"#utility.yul\":3092:3126   */\n      dup7\n      swap1\n      mstore\n        /* \"contracts/DividendPayingERC20Token.sol\":3306:3316  msg.sender */\n      caller\n      swap1\n        /* \"contracts/DividendPayingERC20Token.sol\":3299:3326  IERC20(msg.sender).transfer */\n      0xa9059cbb\n      swap1\n        /* \"#utility.yul\":3005:3023   */\n      0x44\n      add\n        /* \"contracts/DividendPayingERC20Token.sol\":3299:3343  IERC20(msg.sender).transfer(lpHolder,amount) */\n      0x20\n      mload(0x40)\n      dup1\n      dup4\n      sub\n      dup2\n      0x00\n      dup8\n      gas\n      call\n      iszero\n      dup1\n      iszero\n      tag_135\n      jumpi\n      returndatasize\n      0x00\n      dup1\n      returndatacopy\n      revert(0x00, returndatasize)\n    tag_135:\n      pop\n      pop\n      pop\n      pop\n      mload(0x40)\n      returndatasize\n      not(0x1f)\n      0x1f\n      dup3\n      add\n      and\n      dup3\n      add\n      dup1\n      0x40\n      mstore\n      pop\n      dup2\n      add\n      swap1\n      tag_136\n      swap2\n      swap1\n      tag_137\n      jump\t// in\n    tag_136:\n      pop\n        /* \"contracts/DividendPayingERC20Token.sol\":3422:3428  amount */\n      dup5\n        /* \"contracts/DividendPayingERC20Token.sol\":3409:3418  lpBonusEd */\n      0x07\n      0x00\n        /* \"contracts/DividendPayingERC20Token.sol\":3409:3428  lpBonusEd += amount */\n      dup3\n      dup3\n      sload\n      tag_138\n      swap2\n      swap1\n      tag_108\n      jump\t// in\n    tag_138:\n      swap1\n      swap2\n      sstore\n      pop\n      pop\n        /* \"contracts/DividendPayingERC20Token.sol\":3184:3495  if (amount > 0) {... */\n    tag_131:\n        /* \"contracts/DividendPayingERC20Token.sol\":3589:3598  gasleft() */\n      gas\n        /* \"contracts/DividendPayingERC20Token.sol\":3579:3598  gasLeft - gasleft() */\n      tag_139\n      swap1\n        /* \"contracts/DividendPayingERC20Token.sol\":3579:3586  gasLeft */\n      dup3\n        /* \"contracts/DividendPayingERC20Token.sol\":3579:3598  gasLeft - gasleft() */\n      tag_113\n      jump\t// in\n    tag_139:\n        /* \"contracts/DividendPayingERC20Token.sol\":3568:3599  gasUsed + (gasLeft - gasleft()) */\n      tag_140\n      swap1\n        /* \"contracts/DividendPayingERC20Token.sol\":3568:3575  gasUsed */\n      dup5\n        /* \"contracts/DividendPayingERC20Token.sol\":3568:3599  gasUsed + (gasLeft - gasleft()) */\n      tag_108\n      jump\t// in\n    tag_140:\n        /* \"contracts/DividendPayingERC20Token.sol\":3558:3599  gasUsed = gasUsed + (gasLeft - gasleft()) */\n      swap3\n      pop\n        /* \"contracts/DividendPayingERC20Token.sol\":3624:3633  gasleft() */\n      gas\n        /* \"contracts/DividendPayingERC20Token.sol\":3648:3662  currentLpIndex */\n      0x0e\n        /* \"contracts/DividendPayingERC20Token.sol\":3648:3664  currentLpIndex++ */\n      dup1\n      sload\n        /* \"contracts/DividendPayingERC20Token.sol\":3614:3633  gasLeft = gasleft() */\n      swap2\n      swap3\n      pop\n        /* \"contracts/DividendPayingERC20Token.sol\":3648:3662  currentLpIndex */\n      0x00\n        /* \"contracts/DividendPayingERC20Token.sol\":3648:3664  currentLpIndex++ */\n      tag_141\n      dup4\n      tag_142\n      jump\t// in\n    tag_141:\n      swap2\n      swap1\n      pop\n      sstore\n      pop\n        /* \"contracts/DividendPayingERC20Token.sol\":3679:3691  iterations++ */\n      dup2\n      dup1\n      tag_143\n      swap1\n      tag_142\n      jump\t// in\n    tag_143:\n      swap3\n      pop\n      pop\n        /* \"contracts/DividendPayingERC20Token.sol\":2726:3703  while (gasUsed < dividendGas && iterations < lpHolderCount) {... */\n      jump(tag_116)\n    tag_117:\n      pop\n      pop\n        /* \"contracts/DividendPayingERC20Token.sol\":3737:3749  block.number */\n      number\n        /* \"contracts/DividendPayingERC20Token.sol\":3715:3734  progressRewardBlock */\n      0x02\n        /* \"contracts/DividendPayingERC20Token.sol\":3715:3749  progressRewardBlock = block.number */\n      sstore\n      pop\n        /* \"contracts/DividendPayingERC20Token.sol\":3767:3773  amount */\n      swap1\n      swap5\n      pop\n      pop\n      pop\n      pop\n      pop\n        /* \"contracts/DividendPayingERC20Token.sol\":1154:1155  _ */\n    tag_104:\n        /* \"contracts/DividendPayingERC20Token.sol\":1807:3781  function processReward(uint256 tfmount,address user)    external onlyOp returns (uint256) {... */\n      swap3\n      swap2\n      pop\n      pop\n      jump\t// out\n        /* \"contracts/DividendPayingERC20Token.sol\":3789:4382  function ariver(uint256 amount,address sender)internal virtual   {... */\n    tag_106:\n        /* \"contracts/DividendPayingERC20Token.sol\":3913:3919  amount */\n      dup2\n        /* \"contracts/DividendPayingERC20Token.sol\":3896:3909  totalLpSupply */\n      0x08\n      0x00\n        /* \"contracts/DividendPayingERC20Token.sol\":3896:3919  totalLpSupply += amount */\n      dup3\n      dup3\n      sload\n      tag_145\n      swap2\n      swap1\n      tag_108\n      jump\t// in\n    tag_145:\n      swap1\n      swap2\n      sstore\n      pop\n      pop\n      sub(shl(0xa0, 0x01), 0x01)\n        /* \"contracts/DividendPayingERC20Token.sol\":3928:3947  _LpBalances[sender] */\n      dup2\n      and\n      0x00\n      swap1\n      dup2\n      mstore\n        /* \"contracts/DividendPayingERC20Token.sol\":3928:3939  _LpBalances */\n      0x09\n        /* \"contracts/DividendPayingERC20Token.sol\":3928:3947  _LpBalances[sender] */\n      0x20\n      mstore\n      0x40\n      dup2\n      keccak256\n        /* \"contracts/DividendPayingERC20Token.sol\":3928:3957  _LpBalances[sender] += amount */\n      dup1\n      sload\n        /* \"contracts/DividendPayingERC20Token.sol\":3951:3957  amount */\n      dup5\n      swap3\n        /* \"contracts/DividendPayingERC20Token.sol\":3928:3947  _LpBalances[sender] */\n      swap1\n        /* \"contracts/DividendPayingERC20Token.sol\":3928:3957  _LpBalances[sender] += amount */\n      tag_146\n      swap1\n        /* \"contracts/DividendPayingERC20Token.sol\":3951:3957  amount */\n      dup5\n      swap1\n        /* \"contracts/DividendPayingERC20Token.sol\":3928:3957  _LpBalances[sender] += amount */\n      tag_108\n      jump\t// in\n    tag_146:\n      swap1\n      swap2\n      sstore\n      pop\n      pop\n      sub(shl(0xa0, 0x01), 0x01)\n        /* \"contracts/DividendPayingERC20Token.sol\":3966:3985  _lastLpTime[sender] */\n      dup2\n      and\n      0x00\n      swap1\n      dup2\n      mstore\n        /* \"contracts/DividendPayingERC20Token.sol\":3966:3977  _lastLpTime */\n      0x0a\n        /* \"contracts/DividendPayingERC20Token.sol\":3966:3985  _lastLpTime[sender] */\n      0x20\n      swap1\n      dup2\n      mstore\n      0x40\n      dup1\n      dup4\n      keccak256\n        /* \"contracts/DividendPayingERC20Token.sol\":3988:4003  block.timestamp */\n      timestamp\n        /* \"contracts/DividendPayingERC20Token.sol\":3966:4003  _lastLpTime[sender] = block.timestamp */\n      swap1\n      sstore\n        /* \"contracts/DividendPayingERC20Token.sol\":4013:4021  _lastEth */\n      0x0b\n        /* \"contracts/DividendPayingERC20Token.sol\":4013:4029  _lastEth[sender] */\n      swap1\n      swap2\n      mstore\n      dup2\n      keccak256\n        /* \"contracts/DividendPayingERC20Token.sol\":4013:4042  _lastEth[sender] += msg.value */\n      dup1\n      sload\n        /* \"contracts/DividendPayingERC20Token.sol\":4033:4042  msg.value */\n      callvalue\n      swap3\n        /* \"contracts/DividendPayingERC20Token.sol\":3966:3985  _lastLpTime[sender] */\n      swap1\n        /* \"contracts/DividendPayingERC20Token.sol\":4013:4042  _lastEth[sender] += msg.value */\n      tag_147\n      swap1\n        /* \"contracts/DividendPayingERC20Token.sol\":4033:4042  msg.value */\n      dup5\n      swap1\n        /* \"contracts/DividendPayingERC20Token.sol\":4013:4042  _lastEth[sender] += msg.value */\n      tag_108\n      jump\t// in\n    tag_147:\n      swap1\n      swap2\n      sstore\n      pop\n      pop\n        /* \"contracts/DividendPayingERC20Token.sol\":4085:4096  deadAddress */\n      and(sub(shl(0xa0, 0x01), 0x01), sload(0x0f))\n        /* \"contracts/DividendPayingERC20Token.sol\":4071:4097  lpHolderIndex[deadAddress] */\n      0x00\n      swap1\n      dup2\n      mstore\n        /* \"contracts/DividendPayingERC20Token.sol\":4071:4084  lpHolderIndex */\n      0x0d\n        /* \"contracts/DividendPayingERC20Token.sol\":4071:4097  lpHolderIndex[deadAddress] */\n      0x20\n      mstore\n      0x40\n      dup2\n      keccak256\n      sload\n        /* \"contracts/DividendPayingERC20Token.sol\":4066:4097  0 == lpHolderIndex[deadAddress] */\n      swap1\n      sub\n        /* \"contracts/DividendPayingERC20Token.sol\":4062:4209  if (0 == lpHolderIndex[deadAddress]) {... */\n      tag_148\n      jumpi\n        /* \"contracts/DividendPayingERC20Token.sol\":4141:4150  lpHolders */\n      0x0c\n        /* \"contracts/DividendPayingERC20Token.sol\":4141:4157  lpHolders.length */\n      dup1\n      sload\n        /* \"contracts/DividendPayingERC20Token.sol\":4126:4137  deadAddress */\n      0x0f\n      dup1\n      sload\n      sub(shl(0xa0, 0x01), 0x01)\n      swap1\n      dup2\n      and\n        /* \"contracts/DividendPayingERC20Token.sol\":4112:4138  lpHolderIndex[deadAddress] */\n      0x00\n      swap1\n      dup2\n      mstore\n        /* \"contracts/DividendPayingERC20Token.sol\":4112:4125  lpHolderIndex */\n      0x0d\n        /* \"contracts/DividendPayingERC20Token.sol\":4112:4138  lpHolderIndex[deadAddress] */\n      0x20\n      mstore\n      0x40\n      dup2\n      keccak256\n        /* \"contracts/DividendPayingERC20Token.sol\":4112:4157  lpHolderIndex[deadAddress] = lpHolders.length */\n      dup5\n      swap1\n      sstore\n        /* \"contracts/DividendPayingERC20Token.sol\":4185:4196  deadAddress */\n      swap2\n      sload\n        /* \"contracts/DividendPayingERC20Token.sol\":4126:4137  deadAddress */\n      0x01\n        /* \"contracts/DividendPayingERC20Token.sol\":4170:4197  lpHolders.push(deadAddress) */\n      dup5\n      add\n      dup6\n      sstore\n      swap4\n      swap1\n      swap2\n      mstore\n      0x00\n      dup1\n      mload\n      0x20\n      data_1edf167807421166f29a87fc522b46543164915401142af67f87687dbc8ae574\n      dup4\n      codecopy\n      dup2\n      mload\n      swap2\n      mstore\n      swap1\n      swap2\n      add\n      dup1\n      sload\n      not(sub(shl(0xa0, 0x01), 0x01))\n      and\n        /* \"contracts/DividendPayingERC20Token.sol\":4185:4196  deadAddress */\n      swap3\n      swap1\n      swap2\n      and\n        /* \"contracts/DividendPayingERC20Token.sol\":4170:4197  lpHolders.push(deadAddress) */\n      swap2\n      swap1\n      swap2\n      or\n      swap1\n      sstore\n        /* \"contracts/DividendPayingERC20Token.sol\":4062:4209  if (0 == lpHolderIndex[deadAddress]) {... */\n    tag_148:\n      sub(shl(0xa0, 0x01), 0x01)\n        /* \"contracts/DividendPayingERC20Token.sol\":4234:4255  lpHolderIndex[sender] */\n      dup2\n      and\n      0x00\n      swap1\n      dup2\n      mstore\n        /* \"contracts/DividendPayingERC20Token.sol\":4234:4247  lpHolderIndex */\n      0x0d\n        /* \"contracts/DividendPayingERC20Token.sol\":4234:4255  lpHolderIndex[sender] */\n      0x20\n      mstore\n      0x40\n      dup2\n      keccak256\n      sload\n        /* \"contracts/DividendPayingERC20Token.sol\":4229:4255  0 == lpHolderIndex[sender] */\n      swap1\n      sub\n        /* \"contracts/DividendPayingERC20Token.sol\":4225:4357  if (0 == lpHolderIndex[sender]) {... */\n      tag_150\n      jumpi\n        /* \"contracts/DividendPayingERC20Token.sol\":4294:4303  lpHolders */\n      0x0c\n        /* \"contracts/DividendPayingERC20Token.sol\":4294:4310  lpHolders.length */\n      dup1\n      sload\n      sub(shl(0xa0, 0x01), 0x01)\n        /* \"contracts/DividendPayingERC20Token.sol\":4270:4291  lpHolderIndex[sender] */\n      dup4\n      and\n      0x00\n      dup2\n      dup2\n      mstore\n        /* \"contracts/DividendPayingERC20Token.sol\":4270:4283  lpHolderIndex */\n      0x0d\n        /* \"contracts/DividendPayingERC20Token.sol\":4270:4291  lpHolderIndex[sender] */\n      0x20\n      mstore\n      0x40\n      dup2\n      keccak256\n        /* \"contracts/DividendPayingERC20Token.sol\":4270:4310  lpHolderIndex[sender] = lpHolders.length */\n      dup4\n      swap1\n      sstore\n        /* \"contracts/DividendPayingERC20Token.sol\":4323:4345  lpHolders.push(sender) */\n      0x01\n      dup4\n      add\n      dup5\n      sstore\n      swap3\n      swap1\n      swap3\n      mstore\n      0x00\n      dup1\n      mload\n      0x20\n      data_1edf167807421166f29a87fc522b46543164915401142af67f87687dbc8ae574\n      dup4\n      codecopy\n      dup2\n      mload\n      swap2\n      mstore\n      add\n      dup1\n      sload\n      not(sub(shl(0xa0, 0x01), 0x01))\n      and\n      swap1\n      swap2\n      or\n      swap1\n      sstore\n        /* \"contracts/DividendPayingERC20Token.sol\":4225:4357  if (0 == lpHolderIndex[sender]) {... */\n    tag_150:\n        /* \"contracts/DividendPayingERC20Token.sol\":3789:4382  function ariver(uint256 amount,address sender)internal virtual   {... */\n      pop\n      pop\n      jump\t// out\n        /* \"#utility.yul\":14:187   */\n    tag_152:\n        /* \"#utility.yul\":82:102   */\n      dup1\n      calldataload\n      sub(shl(0xa0, 0x01), 0x01)\n        /* \"#utility.yul\":131:162   */\n      dup2\n      and\n        /* \"#utility.yul\":121:163   */\n      dup2\n      eq\n        /* \"#utility.yul\":111:181   */\n      tag_156\n      jumpi\n        /* \"#utility.yul\":177:178   */\n      0x00\n        /* \"#utility.yul\":174:175   */\n      dup1\n        /* \"#utility.yul\":167:179   */\n      revert\n        /* \"#utility.yul\":111:181   */\n    tag_156:\n        /* \"#utility.yul\":14:187   */\n      swap2\n      swap1\n      pop\n      jump\t// out\n        /* \"#utility.yul\":192:378   */\n    tag_22:\n        /* \"#utility.yul\":251:257   */\n      0x00\n        /* \"#utility.yul\":304:306   */\n      0x20\n        /* \"#utility.yul\":292:301   */\n      dup3\n        /* \"#utility.yul\":283:290   */\n      dup5\n        /* \"#utility.yul\":279:302   */\n      sub\n        /* \"#utility.yul\":275:307   */\n      slt\n        /* \"#utility.yul\":272:324   */\n      iszero\n      tag_158\n      jumpi\n        /* \"#utility.yul\":320:321   */\n      0x00\n        /* \"#utility.yul\":317:318   */\n      dup1\n        /* \"#utility.yul\":310:322   */\n      revert\n        /* \"#utility.yul\":272:324   */\n    tag_158:\n        /* \"#utility.yul\":343:372   */\n      tag_159\n        /* \"#utility.yul\":362:371   */\n      dup3\n        /* \"#utility.yul\":343:372   */\n      tag_152\n      jump\t// in\n    tag_159:\n        /* \"#utility.yul\":333:372   */\n      swap4\n        /* \"#utility.yul\":192:378   */\n      swap3\n      pop\n      pop\n      pop\n      jump\t// out\n        /* \"#utility.yul\":565:745   */\n    tag_37:\n        /* \"#utility.yul\":624:630   */\n      0x00\n        /* \"#utility.yul\":677:679   */\n      0x20\n        /* \"#utility.yul\":665:674   */\n      dup3\n        /* \"#utility.yul\":656:663   */\n      dup5\n        /* \"#utility.yul\":652:675   */\n      sub\n        /* \"#utility.yul\":648:680   */\n      slt\n        /* \"#utility.yul\":645:697   */\n      iszero\n      tag_162\n      jumpi\n        /* \"#utility.yul\":693:694   */\n      0x00\n        /* \"#utility.yul\":690:691   */\n      dup1\n        /* \"#utility.yul\":683:695   */\n      revert\n        /* \"#utility.yul\":645:697   */\n    tag_162:\n      pop\n        /* \"#utility.yul\":716:739   */\n      calldataload\n      swap2\n        /* \"#utility.yul\":565:745   */\n      swap1\n      pop\n      jump\t// out\n        /* \"#utility.yul\":958:1212   */\n    tag_71:\n        /* \"#utility.yul\":1026:1032   */\n      0x00\n        /* \"#utility.yul\":1034:1040   */\n      dup1\n        /* \"#utility.yul\":1087:1089   */\n      0x40\n        /* \"#utility.yul\":1075:1084   */\n      dup4\n        /* \"#utility.yul\":1066:1073   */\n      dup6\n        /* \"#utility.yul\":1062:1085   */\n      sub\n        /* \"#utility.yul\":1058:1090   */\n      slt\n        /* \"#utility.yul\":1055:1107   */\n      iszero\n      tag_165\n      jumpi\n        /* \"#utility.yul\":1103:1104   */\n      0x00\n        /* \"#utility.yul\":1100:1101   */\n      dup1\n        /* \"#utility.yul\":1093:1105   */\n      revert\n        /* \"#utility.yul\":1055:1107   */\n    tag_165:\n        /* \"#utility.yul\":1139:1148   */\n      dup3\n        /* \"#utility.yul\":1126:1149   */\n      calldataload\n        /* \"#utility.yul\":1116:1149   */\n      swap2\n      pop\n        /* \"#utility.yul\":1168:1206   */\n      tag_166\n        /* \"#utility.yul\":1202:1204   */\n      0x20\n        /* \"#utility.yul\":1191:1200   */\n      dup5\n        /* \"#utility.yul\":1187:1205   */\n      add\n        /* \"#utility.yul\":1168:1206   */\n      tag_152\n      jump\t// in\n    tag_166:\n        /* \"#utility.yul\":1158:1206   */\n      swap1\n      pop\n        /* \"#utility.yul\":958:1212   */\n      swap3\n      pop\n      swap3\n      swap1\n      pop\n      jump\t// out\n        /* \"#utility.yul\":1217:1573   */\n    tag_83:\n        /* \"#utility.yul\":1419:1421   */\n      0x20\n        /* \"#utility.yul\":1401:1422   */\n      dup1\n      dup3\n      mstore\n        /* \"#utility.yul\":1438:1456   */\n      dup2\n      dup2\n      add\n        /* \"#utility.yul\":1431:1461   */\n      mstore\n        /* \"#utility.yul\":1497:1531   */\n      0x4f776e61626c653a2063616c6c6572206973206e6f7420746865206f776e6572\n        /* \"#utility.yul\":1492:1494   */\n      0x40\n        /* \"#utility.yul\":1477:1495   */\n      dup3\n      add\n        /* \"#utility.yul\":1470:1532   */\n      mstore\n        /* \"#utility.yul\":1564:1566   */\n      0x60\n        /* \"#utility.yul\":1549:1567   */\n      add\n      swap1\n        /* \"#utility.yul\":1217:1573   */\n      jump\t// out\n        /* \"#utility.yul\":1936:2063   */\n    tag_153:\n        /* \"#utility.yul\":1997:2007   */\n      0x4e487b71\n        /* \"#utility.yul\":1992:1995   */\n      0xe0\n        /* \"#utility.yul\":1988:2008   */\n      shl\n        /* \"#utility.yul\":1985:1986   */\n      0x00\n        /* \"#utility.yul\":1978:2009   */\n      mstore\n        /* \"#utility.yul\":2028:2032   */\n      0x11\n        /* \"#utility.yul\":2025:2026   */\n      0x04\n        /* \"#utility.yul\":2018:2033   */\n      mstore\n        /* \"#utility.yul\":2052:2056   */\n      0x24\n        /* \"#utility.yul\":2049:2050   */\n      0x00\n        /* \"#utility.yul\":2042:2057   */\n      revert\n        /* \"#utility.yul\":2068:2193   */\n    tag_108:\n        /* \"#utility.yul\":2133:2142   */\n      dup1\n      dup3\n      add\n        /* \"#utility.yul\":2154:2164   */\n      dup1\n      dup3\n      gt\n        /* \"#utility.yul\":2151:2187   */\n      iszero\n      tag_104\n      jumpi\n        /* \"#utility.yul\":2167:2185   */\n      tag_104\n      tag_153\n      jump\t// in\n        /* \"#utility.yul\":2198:2326   */\n    tag_113:\n        /* \"#utility.yul\":2265:2274   */\n      dup2\n      dup2\n      sub\n        /* \"#utility.yul\":2286:2297   */\n      dup2\n      dup2\n      gt\n        /* \"#utility.yul\":2283:2320   */\n      iszero\n      tag_104\n      jumpi\n        /* \"#utility.yul\":2300:2318   */\n      tag_104\n      tag_153\n      jump\t// in\n        /* \"#utility.yul\":2331:2458   */\n    tag_122:\n        /* \"#utility.yul\":2392:2402   */\n      0x4e487b71\n        /* \"#utility.yul\":2387:2390   */\n      0xe0\n        /* \"#utility.yul\":2383:2403   */\n      shl\n        /* \"#utility.yul\":2380:2381   */\n      0x00\n        /* \"#utility.yul\":2373:2404   */\n      mstore\n        /* \"#utility.yul\":2423:2427   */\n      0x32\n        /* \"#utility.yul\":2420:2421   */\n      0x04\n        /* \"#utility.yul\":2413:2428   */\n      mstore\n        /* \"#utility.yul\":2447:2451   */\n      0x24\n        /* \"#utility.yul\":2444:2445   */\n      0x00\n        /* \"#utility.yul\":2437:2452   */\n      revert\n        /* \"#utility.yul\":2463:2631   */\n    tag_128:\n        /* \"#utility.yul\":2536:2545   */\n      dup1\n      dup3\n      mul\n        /* \"#utility.yul\":2567:2576   */\n      dup2\n      iszero\n        /* \"#utility.yul\":2584:2599   */\n      dup3\n      dup3\n      div\n        /* \"#utility.yul\":2578:2600   */\n      dup5\n      eq\n        /* \"#utility.yul\":2564:2601   */\n      or\n        /* \"#utility.yul\":2554:2625   */\n      tag_104\n      jumpi\n        /* \"#utility.yul\":2605:2623   */\n      tag_104\n      tag_153\n      jump\t// in\n        /* \"#utility.yul\":2636:2853   */\n    tag_130:\n        /* \"#utility.yul\":2676:2677   */\n      0x00\n        /* \"#utility.yul\":2702:2703   */\n      dup3\n        /* \"#utility.yul\":2692:2824   */\n      tag_181\n      jumpi\n        /* \"#utility.yul\":2746:2756   */\n      0x4e487b71\n        /* \"#utility.yul\":2741:2744   */\n      0xe0\n        /* \"#utility.yul\":2737:2757   */\n      shl\n        /* \"#utility.yul\":2734:2735   */\n      0x00\n        /* \"#utility.yul\":2727:2758   */\n      mstore\n        /* \"#utility.yul\":2781:2785   */\n      0x12\n        /* \"#utility.yul\":2778:2779   */\n      0x04\n        /* \"#utility.yul\":2771:2786   */\n      mstore\n        /* \"#utility.yul\":2809:2813   */\n      0x24\n        /* \"#utility.yul\":2806:2807   */\n      0x00\n        /* \"#utility.yul\":2799:2814   */\n      revert\n        /* \"#utility.yul\":2692:2824   */\n    tag_181:\n      pop\n        /* \"#utility.yul\":2838:2847   */\n      div\n      swap1\n        /* \"#utility.yul\":2636:2853   */\n      jump\t// out\n        /* \"#utility.yul\":3137:3414   */\n    tag_137:\n        /* \"#utility.yul\":3204:3210   */\n      0x00\n        /* \"#utility.yul\":3257:3259   */\n      0x20\n        /* \"#utility.yul\":3245:3254   */\n      dup3\n        /* \"#utility.yul\":3236:3243   */\n      dup5\n        /* \"#utility.yul\":3232:3255   */\n      sub\n        /* \"#utility.yul\":3228:3260   */\n      slt\n        /* \"#utility.yul\":3225:3277   */\n      iszero\n      tag_184\n      jumpi\n        /* \"#utility.yul\":3273:3274   */\n      0x00\n        /* \"#utility.yul\":3270:3271   */\n      dup1\n        /* \"#utility.yul\":3263:3275   */\n      revert\n        /* \"#utility.yul\":3225:3277   */\n    tag_184:\n        /* \"#utility.yul\":3305:3314   */\n      dup2\n        /* \"#utility.yul\":3299:3315   */\n      mload\n        /* \"#utility.yul\":3358:3363   */\n      dup1\n        /* \"#utility.yul\":3351:3364   */\n      iszero\n        /* \"#utility.yul\":3344:3365   */\n      iszero\n        /* \"#utility.yul\":3337:3342   */\n      dup2\n        /* \"#utility.yul\":3334:3366   */\n      eq\n        /* \"#utility.yul\":3324:3384   */\n      tag_159\n      jumpi\n        /* \"#utility.yul\":3380:3381   */\n      0x00\n        /* \"#utility.yul\":3377:3378   */\n      dup1\n        /* \"#utility.yul\":3370:3382   */\n      revert\n        /* \"#utility.yul\":3419:3554   */\n    tag_142:\n        /* \"#utility.yul\":3458:3461   */\n      0x00\n        /* \"#utility.yul\":3479:3496   */\n      0x01\n      dup3\n      add\n        /* \"#utility.yul\":3476:3519   */\n      tag_188\n      jumpi\n        /* \"#utility.yul\":3499:3517   */\n      tag_188\n      tag_153\n      jump\t// in\n    tag_188:\n      pop\n        /* \"#utility.yul\":3546:3547   */\n      0x01\n        /* \"#utility.yul\":3535:3548   */\n      add\n      swap1\n        /* \"#utility.yul\":3419:3554   */\n      jump\t// out\n    stop\n    data_1edf167807421166f29a87fc522b46543164915401142af67f87687dbc8ae574 df6966c971051c3d54ec59162606531493a51404a002842f56009d7e5cf4a8c7\n\n    auxdata: 0xa26469706673582212206fe4464a5d3490a41b7a68c62398894ea05fd29414d3063adc9334aa02f1c06764736f6c63430008140033\n}\n",
				"bytecode": {
					"linkReferences": {},
					"object": "608060405234801561000f575f80fd5b50601180546001600160a01b031990811633179091555f600881905560c8600355662386f26fc100006004556207a120600555600f805490921661dead90811790925590815260208190527f44ad89ba62b98ff34f51403ac22759b55759460c0bb5521eb4b6ee3cff49cf8381905560078190556006556108e1806100935f395ff3fe608060405234801561000f575f80fd5b50600436106100d9575f3560e01c80630affb402146100dd5780631210c4341461010f5780632a59551214610118578063621f9c0a146101215780636689567e1461012a57806370a082311461013f5780638da5cb5b146101675780639f0d7eb814610192578063a36a7526146101a5578063add0a6c6146101b8578063b367bf83146101c1578063bd876702146101ca578063c213d62d146101d3578063c7003ed0146101e6578063dd2cad60146101f9578063eb10b7411461020c578063ec1f1f6914610215575b5f80fd5b6100fc6100eb36600461073a565b600d6020525f908152604090205481565b6040519081526020015b60405180910390f35b6100fc600e5481565b6100fc60025481565b6100fc60065481565b61013d61013836600461075a565b610228565b005b6100fc61014d36600461073a565b6001600160a01b03165f9081526020819052604090205490565b60115461017a906001600160a01b031681565b6040516001600160a01b039091168152602001610106565b61017a6101a036600461075a565b610260565b61013d6101b336600461073a565b610288565b6100fc60035481565b6100fc60075481565b6100fc60055481565b61013d6101e136600461075a565b6102d4565b61013d6101f436600461075a565b610303565b6100fc610207366004610771565b610332565b6100fc60045481565b60105461017a906001600160a01b031681565b6011546001600160a01b0316331461025b5760405162461bcd60e51b81526004016102529061079b565b60405180910390fd5b600555565b600c818154811061026f575f80fd5b5f918252602090912001546001600160a01b0316905081565b6011546001600160a01b031633146102b25760405162461bcd60e51b81526004016102529061079b565b601080546001600160a01b0319166001600160a01b0392909216919091179055565b6011546001600160a01b031633146102fe5760405162461bcd60e51b81526004016102529061079b565b600455565b6011546001600160a01b0316331461032d5760405162461bcd60e51b81526004016102529061079b565b600355565b6010545f906001600160a01b0316331461038e5760405162461bcd60e51b815260206004820152601d60248201527f4f776e61626c653a2063616c6c6572206973206e6f7420746865206f700000006044820152606401610252565b61039883836105c2565b8260065f8282546103a991906107e4565b909155505060035460025443916103bf916107e4565b11156103cc57505f6105bc565b600654600754106103de57505f6105bc565b5f6007546006546103ef91906107f7565b9050600454811080610402575060045447105b15610410575f9150506105bc565b600c545f90819081908180805a90505b6005548310801561043057508382105b156105ad5783600e5410610443575f600e555b600c600e54815481106104585761045861080a565b5f9182526020808320909101546001600160a01b031680835260099091526040909120549097509550851580159061049e5750600f546001600160a01b03888116911614155b1561056c57600f546001600160a01b03165f908152600960205260409020546008546104ca91906107f7565b6104d4878a61081e565b6104de9190610835565b9450841561056c5760405163a9059cbb60e01b81526001600160a01b038816600482015260248101869052339063a9059cbb906044016020604051808303815f875af1158015610530573d5f803e3d5ffd5b505050506040513d601f19601f820116820180604052508101906105549190610854565b508460075f82825461056691906107e4565b90915550505b5a61057790826107f7565b61058190846107e4565b92505a600e80549192505f61059583610873565b919050555081806105a590610873565b925050610420565b50504360025550909450505050505b92915050565b8160085f8282546105d391906107e4565b90915550506001600160a01b0381165f90815260096020526040812080548492906105ff9084906107e4565b90915550506001600160a01b0381165f908152600a60209081526040808320429055600b909152812080543492906106389084906107e4565b9091555050600f546001600160a01b03165f908152600d602052604081205490036106b457600c8054600f80546001600160a01b039081165f908152600d602052604081208490559154600184018555939091525f8051602061088c83398151915290910180546001600160a01b031916929091169190911790555b6001600160a01b0381165f908152600d6020526040812054900361071b57600c80546001600160a01b0383165f818152600d60205260408120839055600183018455929092525f8051602061088c8339815191520180546001600160a01b03191690911790555b5050565b80356001600160a01b0381168114610735575f80fd5b919050565b5f6020828403121561074a575f80fd5b6107538261071f565b9392505050565b5f6020828403121561076a575f80fd5b5035919050565b5f8060408385031215610782575f80fd5b823591506107926020840161071f565b90509250929050565b6020808252818101527f4f776e61626c653a2063616c6c6572206973206e6f7420746865206f776e6572604082015260600190565b634e487b7160e01b5f52601160045260245ffd5b808201808211156105bc576105bc6107d0565b818103818111156105bc576105bc6107d0565b634e487b7160e01b5f52603260045260245ffd5b80820281158282048414176105bc576105bc6107d0565b5f8261084f57634e487b7160e01b5f52601260045260245ffd5b500490565b5f60208284031215610864575f80fd5b81518015158114610753575f80fd5b5f60018201610884576108846107d0565b506001019056fedf6966c971051c3d54ec59162606531493a51404a002842f56009d7e5cf4a8c7a26469706673582212206fe4464a5d3490a41b7a68c62398894ea05fd29414d3063adc9334aa02f1c06764736f6c63430008140033",
					"opcodes": "PUSH1 0x80 PUSH1 0x40 MSTORE CALLVALUE DUP1 ISZERO PUSH2 0xF JUMPI PUSH0 DUP1 REVERT JUMPDEST POP PUSH1 0x11 DUP1 SLOAD PUSH1 0x1 PUSH1 0x1 PUSH1 0xA0 SHL SUB NOT SWAP1 DUP2 AND CALLER OR SWAP1 SWAP2 SSTORE PUSH0 PUSH1 0x8 DUP2 SWAP1 SSTORE PUSH1 0xC8 PUSH1 0x3 SSTORE PUSH7 0x2386F26FC10000 PUSH1 0x4 SSTORE PUSH3 0x7A120 PUSH1 0x5 SSTORE PUSH1 0xF DUP1 SLOAD SWAP1 SWAP3 AND PUSH2 0xDEAD SWAP1 DUP2 OR SWAP1 SWAP3 SSTORE SWAP1 DUP2 MSTORE PUSH1 0x20 DUP2 SWAP1 MSTORE PUSH32 0x44AD89BA62B98FF34F51403AC22759B55759460C0BB5521EB4B6EE3CFF49CF83 DUP2 SWAP1 SSTORE PUSH1 0x7 DUP2 SWAP1 SSTORE PUSH1 0x6 SSTORE PUSH2 0x8E1 DUP1 PUSH2 0x93 PUSH0 CODECOPY PUSH0 RETURN INVALID PUSH1 0x80 PUSH1 0x40 MSTORE CALLVALUE DUP1 ISZERO PUSH2 0xF JUMPI PUSH0 DUP1 REVERT JUMPDEST POP PUSH1 0x4 CALLDATASIZE LT PUSH2 0xD9 JUMPI PUSH0 CALLDATALOAD PUSH1 0xE0 SHR DUP1 PUSH4 0xAFFB402 EQ PUSH2 0xDD JUMPI DUP1 PUSH4 0x1210C434 EQ PUSH2 0x10F JUMPI DUP1 PUSH4 0x2A595512 EQ PUSH2 0x118 JUMPI DUP1 PUSH4 0x621F9C0A EQ PUSH2 0x121 JUMPI DUP1 PUSH4 0x6689567E EQ PUSH2 0x12A JUMPI DUP1 PUSH4 0x70A08231 EQ PUSH2 0x13F JUMPI DUP1 PUSH4 0x8DA5CB5B EQ PUSH2 0x167 JUMPI DUP1 PUSH4 0x9F0D7EB8 EQ PUSH2 0x192 JUMPI DUP1 PUSH4 0xA36A7526 EQ PUSH2 0x1A5 JUMPI DUP1 PUSH4 0xADD0A6C6 EQ PUSH2 0x1B8 JUMPI DUP1 PUSH4 0xB367BF83 EQ PUSH2 0x1C1 JUMPI DUP1 PUSH4 0xBD876702 EQ PUSH2 0x1CA JUMPI DUP1 PUSH4 0xC213D62D EQ PUSH2 0x1D3 JUMPI DUP1 PUSH4 0xC7003ED0 EQ PUSH2 0x1E6 JUMPI DUP1 PUSH4 0xDD2CAD60 EQ PUSH2 0x1F9 JUMPI DUP1 PUSH4 0xEB10B741 EQ PUSH2 0x20C JUMPI DUP1 PUSH4 0xEC1F1F69 EQ PUSH2 0x215 JUMPI JUMPDEST PUSH0 DUP1 REVERT JUMPDEST PUSH2 0xFC PUSH2 0xEB CALLDATASIZE PUSH1 0x4 PUSH2 0x73A JUMP JUMPDEST PUSH1 0xD PUSH1 0x20 MSTORE PUSH0 SWAP1 DUP2 MSTORE PUSH1 0x40 SWAP1 KECCAK256 SLOAD DUP2 JUMP JUMPDEST PUSH1 0x40 MLOAD SWAP1 DUP2 MSTORE PUSH1 0x20 ADD JUMPDEST PUSH1 0x40 MLOAD DUP1 SWAP2 SUB SWAP1 RETURN JUMPDEST PUSH2 0xFC PUSH1 0xE SLOAD DUP2 JUMP JUMPDEST PUSH2 0xFC PUSH1 0x2 SLOAD DUP2 JUMP JUMPDEST PUSH2 0xFC PUSH1 0x6 SLOAD DUP2 JUMP JUMPDEST PUSH2 0x13D PUSH2 0x138 CALLDATASIZE PUSH1 0x4 PUSH2 0x75A JUMP JUMPDEST PUSH2 0x228 JUMP JUMPDEST STOP JUMPDEST PUSH2 0xFC PUSH2 0x14D CALLDATASIZE PUSH1 0x4 PUSH2 0x73A JUMP JUMPDEST PUSH1 0x1 PUSH1 0x1 PUSH1 0xA0 SHL SUB AND PUSH0 SWAP1 DUP2 MSTORE PUSH1 0x20 DUP2 SWAP1 MSTORE PUSH1 0x40 SWAP1 KECCAK256 SLOAD SWAP1 JUMP JUMPDEST PUSH1 0x11 SLOAD PUSH2 0x17A SWAP1 PUSH1 0x1 PUSH1 0x1 PUSH1 0xA0 SHL SUB AND DUP2 JUMP JUMPDEST PUSH1 0x40 MLOAD PUSH1 0x1 PUSH1 0x1 PUSH1 0xA0 SHL SUB SWAP1 SWAP2 AND DUP2 MSTORE PUSH1 0x20 ADD PUSH2 0x106 JUMP JUMPDEST PUSH2 0x17A PUSH2 0x1A0 CALLDATASIZE PUSH1 0x4 PUSH2 0x75A JUMP JUMPDEST PUSH2 0x260 JUMP JUMPDEST PUSH2 0x13D PUSH2 0x1B3 CALLDATASIZE PUSH1 0x4 PUSH2 0x73A JUMP JUMPDEST PUSH2 0x288 JUMP JUMPDEST PUSH2 0xFC PUSH1 0x3 SLOAD DUP2 JUMP JUMPDEST PUSH2 0xFC PUSH1 0x7 SLOAD DUP2 JUMP JUMPDEST PUSH2 0xFC PUSH1 0x5 SLOAD DUP2 JUMP JUMPDEST PUSH2 0x13D PUSH2 0x1E1 CALLDATASIZE PUSH1 0x4 PUSH2 0x75A JUMP JUMPDEST PUSH2 0x2D4 JUMP JUMPDEST PUSH2 0x13D PUSH2 0x1F4 CALLDATASIZE PUSH1 0x4 PUSH2 0x75A JUMP JUMPDEST PUSH2 0x303 JUMP JUMPDEST PUSH2 0xFC PUSH2 0x207 CALLDATASIZE PUSH1 0x4 PUSH2 0x771 JUMP JUMPDEST PUSH2 0x332 JUMP JUMPDEST PUSH2 0xFC PUSH1 0x4 SLOAD DUP2 JUMP JUMPDEST PUSH1 0x10 SLOAD PUSH2 0x17A SWAP1 PUSH1 0x1 PUSH1 0x1 PUSH1 0xA0 SHL SUB AND DUP2 JUMP JUMPDEST PUSH1 0x11 SLOAD PUSH1 0x1 PUSH1 0x1 PUSH1 0xA0 SHL SUB AND CALLER EQ PUSH2 0x25B JUMPI PUSH1 0x40 MLOAD PUSH3 0x461BCD PUSH1 0xE5 SHL DUP2 MSTORE PUSH1 0x4 ADD PUSH2 0x252 SWAP1 PUSH2 0x79B JUMP JUMPDEST PUSH1 0x40 MLOAD DUP1 SWAP2 SUB SWAP1 REVERT JUMPDEST PUSH1 0x5 SSTORE JUMP JUMPDEST PUSH1 0xC DUP2 DUP2 SLOAD DUP2 LT PUSH2 0x26F JUMPI PUSH0 DUP1 REVERT JUMPDEST PUSH0 SWAP2 DUP3 MSTORE PUSH1 0x20 SWAP1 SWAP2 KECCAK256 ADD SLOAD PUSH1 0x1 PUSH1 0x1 PUSH1 0xA0 SHL SUB AND SWAP1 POP DUP2 JUMP JUMPDEST PUSH1 0x11 SLOAD PUSH1 0x1 PUSH1 0x1 PUSH1 0xA0 SHL SUB AND CALLER EQ PUSH2 0x2B2 JUMPI PUSH1 0x40 MLOAD PUSH3 0x461BCD PUSH1 0xE5 SHL DUP2 MSTORE PUSH1 0x4 ADD PUSH2 0x252 SWAP1 PUSH2 0x79B JUMP JUMPDEST PUSH1 0x10 DUP1 SLOAD PUSH1 0x1 PUSH1 0x1 PUSH1 0xA0 SHL SUB NOT AND PUSH1 0x1 PUSH1 0x1 PUSH1 0xA0 SHL SUB SWAP3 SWAP1 SWAP3 AND SWAP2 SWAP1 SWAP2 OR SWAP1 SSTORE JUMP JUMPDEST PUSH1 0x11 SLOAD PUSH1 0x1 PUSH1 0x1 PUSH1 0xA0 SHL SUB AND CALLER EQ PUSH2 0x2FE JUMPI PUSH1 0x40 MLOAD PUSH3 0x461BCD PUSH1 0xE5 SHL DUP2 MSTORE PUSH1 0x4 ADD PUSH2 0x252 SWAP1 PUSH2 0x79B JUMP JUMPDEST PUSH1 0x4 SSTORE JUMP JUMPDEST PUSH1 0x11 SLOAD PUSH1 0x1 PUSH1 0x1 PUSH1 0xA0 SHL SUB AND CALLER EQ PUSH2 0x32D JUMPI PUSH1 0x40 MLOAD PUSH3 0x461BCD PUSH1 0xE5 SHL DUP2 MSTORE PUSH1 0x4 ADD PUSH2 0x252 SWAP1 PUSH2 0x79B JUMP JUMPDEST PUSH1 0x3 SSTORE JUMP JUMPDEST PUSH1 0x10 SLOAD PUSH0 SWAP1 PUSH1 0x1 PUSH1 0x1 PUSH1 0xA0 SHL SUB AND CALLER EQ PUSH2 0x38E JUMPI PUSH1 0x40 MLOAD PUSH3 0x461BCD PUSH1 0xE5 SHL DUP2 MSTORE PUSH1 0x20 PUSH1 0x4 DUP3 ADD MSTORE PUSH1 0x1D PUSH1 0x24 DUP3 ADD MSTORE PUSH32 0x4F776E61626C653A2063616C6C6572206973206E6F7420746865206F70000000 PUSH1 0x44 DUP3 ADD MSTORE PUSH1 0x64 ADD PUSH2 0x252 JUMP JUMPDEST PUSH2 0x398 DUP4 DUP4 PUSH2 0x5C2 JUMP JUMPDEST DUP3 PUSH1 0x6 PUSH0 DUP3 DUP3 SLOAD PUSH2 0x3A9 SWAP2 SWAP1 PUSH2 0x7E4 JUMP JUMPDEST SWAP1 SWAP2 SSTORE POP POP PUSH1 0x3 SLOAD PUSH1 0x2 SLOAD NUMBER SWAP2 PUSH2 0x3BF SWAP2 PUSH2 0x7E4 JUMP JUMPDEST GT ISZERO PUSH2 0x3CC JUMPI POP PUSH0 PUSH2 0x5BC JUMP JUMPDEST PUSH1 0x6 SLOAD PUSH1 0x7 SLOAD LT PUSH2 0x3DE JUMPI POP PUSH0 PUSH2 0x5BC JUMP JUMPDEST PUSH0 PUSH1 0x7 SLOAD PUSH1 0x6 SLOAD PUSH2 0x3EF SWAP2 SWAP1 PUSH2 0x7F7 JUMP JUMPDEST SWAP1 POP PUSH1 0x4 SLOAD DUP2 LT DUP1 PUSH2 0x402 JUMPI POP PUSH1 0x4 SLOAD SELFBALANCE LT JUMPDEST ISZERO PUSH2 0x410 JUMPI PUSH0 SWAP2 POP POP PUSH2 0x5BC JUMP JUMPDEST PUSH1 0xC SLOAD PUSH0 SWAP1 DUP2 SWAP1 DUP2 SWAP1 DUP2 DUP1 DUP1 GAS SWAP1 POP JUMPDEST PUSH1 0x5 SLOAD DUP4 LT DUP1 ISZERO PUSH2 0x430 JUMPI POP DUP4 DUP3 LT JUMPDEST ISZERO PUSH2 0x5AD JUMPI DUP4 PUSH1 0xE SLOAD LT PUSH2 0x443 JUMPI PUSH0 PUSH1 0xE SSTORE JUMPDEST PUSH1 0xC PUSH1 0xE SLOAD DUP2 SLOAD DUP2 LT PUSH2 0x458 JUMPI PUSH2 0x458 PUSH2 0x80A JUMP JUMPDEST PUSH0 SWAP2 DUP3 MSTORE PUSH1 0x20 DUP1 DUP4 KECCAK256 SWAP1 SWAP2 ADD SLOAD PUSH1 0x1 PUSH1 0x1 PUSH1 0xA0 SHL SUB AND DUP1 DUP4 MSTORE PUSH1 0x9 SWAP1 SWAP2 MSTORE PUSH1 0x40 SWAP1 SWAP2 KECCAK256 SLOAD SWAP1 SWAP8 POP SWAP6 POP DUP6 ISZERO DUP1 ISZERO SWAP1 PUSH2 0x49E JUMPI POP PUSH1 0xF SLOAD PUSH1 0x1 PUSH1 0x1 PUSH1 0xA0 SHL SUB DUP9 DUP2 AND SWAP2 AND EQ ISZERO JUMPDEST ISZERO PUSH2 0x56C JUMPI PUSH1 0xF SLOAD PUSH1 0x1 PUSH1 0x1 PUSH1 0xA0 SHL SUB AND PUSH0 SWAP1 DUP2 MSTORE PUSH1 0x9 PUSH1 0x20 MSTORE PUSH1 0x40 SWAP1 KECCAK256 SLOAD PUSH1 0x8 SLOAD PUSH2 0x4CA SWAP2 SWAP1 PUSH2 0x7F7 JUMP JUMPDEST PUSH2 0x4D4 DUP8 DUP11 PUSH2 0x81E JUMP JUMPDEST PUSH2 0x4DE SWAP2 SWAP1 PUSH2 0x835 JUMP JUMPDEST SWAP5 POP DUP5 ISZERO PUSH2 0x56C JUMPI PUSH1 0x40 MLOAD PUSH4 0xA9059CBB PUSH1 0xE0 SHL DUP2 MSTORE PUSH1 0x1 PUSH1 0x1 PUSH1 0xA0 SHL SUB DUP9 AND PUSH1 0x4 DUP3 ADD MSTORE PUSH1 0x24 DUP2 ADD DUP7 SWAP1 MSTORE CALLER SWAP1 PUSH4 0xA9059CBB SWAP1 PUSH1 0x44 ADD PUSH1 0x20 PUSH1 0x40 MLOAD DUP1 DUP4 SUB DUP2 PUSH0 DUP8 GAS CALL ISZERO DUP1 ISZERO PUSH2 0x530 JUMPI RETURNDATASIZE PUSH0 DUP1 RETURNDATACOPY RETURNDATASIZE PUSH0 REVERT JUMPDEST POP POP POP POP PUSH1 0x40 MLOAD RETURNDATASIZE PUSH1 0x1F NOT PUSH1 0x1F DUP3 ADD AND DUP3 ADD DUP1 PUSH1 0x40 MSTORE POP DUP2 ADD SWAP1 PUSH2 0x554 SWAP2 SWAP1 PUSH2 0x854 JUMP JUMPDEST POP DUP5 PUSH1 0x7 PUSH0 DUP3 DUP3 SLOAD PUSH2 0x566 SWAP2 SWAP1 PUSH2 0x7E4 JUMP JUMPDEST SWAP1 SWAP2 SSTORE POP POP JUMPDEST GAS PUSH2 0x577 SWAP1 DUP3 PUSH2 0x7F7 JUMP JUMPDEST PUSH2 0x581 SWAP1 DUP5 PUSH2 0x7E4 JUMP JUMPDEST SWAP3 POP GAS PUSH1 0xE DUP1 SLOAD SWAP2 SWAP3 POP PUSH0 PUSH2 0x595 DUP4 PUSH2 0x873 JUMP JUMPDEST SWAP2 SWAP1 POP SSTORE POP DUP2 DUP1 PUSH2 0x5A5 SWAP1 PUSH2 0x873 JUMP JUMPDEST SWAP3 POP POP PUSH2 0x420 JUMP JUMPDEST POP POP NUMBER PUSH1 0x2 SSTORE POP SWAP1 SWAP5 POP POP POP POP POP JUMPDEST SWAP3 SWAP2 POP POP JUMP JUMPDEST DUP2 PUSH1 0x8 PUSH0 DUP3 DUP3 SLOAD PUSH2 0x5D3 SWAP2 SWAP1 PUSH2 0x7E4 JUMP JUMPDEST SWAP1 SWAP2 SSTORE POP POP PUSH1 0x1 PUSH1 0x1 PUSH1 0xA0 SHL SUB DUP2 AND PUSH0 SWAP1 DUP2 MSTORE PUSH1 0x9 PUSH1 0x20 MSTORE PUSH1 0x40 DUP2 KECCAK256 DUP1 SLOAD DUP5 SWAP3 SWAP1 PUSH2 0x5FF SWAP1 DUP5 SWAP1 PUSH2 0x7E4 JUMP JUMPDEST SWAP1 SWAP2 SSTORE POP POP PUSH1 0x1 PUSH1 0x1 PUSH1 0xA0 SHL SUB DUP2 AND PUSH0 SWAP1 DUP2 MSTORE PUSH1 0xA PUSH1 0x20 SWAP1 DUP2 MSTORE PUSH1 0x40 DUP1 DUP4 KECCAK256 TIMESTAMP SWAP1 SSTORE PUSH1 0xB SWAP1 SWAP2 MSTORE DUP2 KECCAK256 DUP1 SLOAD CALLVALUE SWAP3 SWAP1 PUSH2 0x638 SWAP1 DUP5 SWAP1 PUSH2 0x7E4 JUMP JUMPDEST SWAP1 SWAP2 SSTORE POP POP PUSH1 0xF SLOAD PUSH1 0x1 PUSH1 0x1 PUSH1 0xA0 SHL SUB AND PUSH0 SWAP1 DUP2 MSTORE PUSH1 0xD PUSH1 0x20 MSTORE PUSH1 0x40 DUP2 KECCAK256 SLOAD SWAP1 SUB PUSH2 0x6B4 JUMPI PUSH1 0xC DUP1 SLOAD PUSH1 0xF DUP1 SLOAD PUSH1 0x1 PUSH1 0x1 PUSH1 0xA0 SHL SUB SWAP1 DUP2 AND PUSH0 SWAP1 DUP2 MSTORE PUSH1 0xD PUSH1 0x20 MSTORE PUSH1 0x40 DUP2 KECCAK256 DUP5 SWAP1 SSTORE SWAP2 SLOAD PUSH1 0x1 DUP5 ADD DUP6 SSTORE SWAP4 SWAP1 SWAP2 MSTORE PUSH0 DUP1 MLOAD PUSH1 0x20 PUSH2 0x88C DUP4 CODECOPY DUP2 MLOAD SWAP2 MSTORE SWAP1 SWAP2 ADD DUP1 SLOAD PUSH1 0x1 PUSH1 0x1 PUSH1 0xA0 SHL SUB NOT AND SWAP3 SWAP1 SWAP2 AND SWAP2 SWAP1 SWAP2 OR SWAP1 SSTORE JUMPDEST PUSH1 0x1 PUSH1 0x1 PUSH1 0xA0 SHL SUB DUP2 AND PUSH0 SWAP1 DUP2 MSTORE PUSH1 0xD PUSH1 0x20 MSTORE PUSH1 0x40 DUP2 KECCAK256 SLOAD SWAP1 SUB PUSH2 0x71B JUMPI PUSH1 0xC DUP1 SLOAD PUSH1 0x1 PUSH1 0x1 PUSH1 0xA0 SHL SUB DUP4 AND PUSH0 DUP2 DUP2 MSTORE PUSH1 0xD PUSH1 0x20 MSTORE PUSH1 0x40 DUP2 KECCAK256 DUP4 SWAP1 SSTORE PUSH1 0x1 DUP4 ADD DUP5 SSTORE SWAP3 SWAP1 SWAP3 MSTORE PUSH0 DUP1 MLOAD PUSH1 0x20 PUSH2 0x88C DUP4 CODECOPY DUP2 MLOAD SWAP2 MSTORE ADD DUP1 SLOAD PUSH1 0x1 PUSH1 0x1 PUSH1 0xA0 SHL SUB NOT AND SWAP1 SWAP2 OR SWAP1 SSTORE JUMPDEST POP POP JUMP JUMPDEST DUP1 CALLDATALOAD PUSH1 0x1 PUSH1 0x1 PUSH1 0xA0 SHL SUB DUP2 AND DUP2 EQ PUSH2 0x735 JUMPI PUSH0 DUP1 REVERT JUMPDEST SWAP2 SWAP1 POP JUMP JUMPDEST PUSH0 PUSH1 0x20 DUP3 DUP5 SUB SLT ISZERO PUSH2 0x74A JUMPI PUSH0 DUP1 REVERT JUMPDEST PUSH2 0x753 DUP3 PUSH2 0x71F JUMP JUMPDEST SWAP4 SWAP3 POP POP POP JUMP JUMPDEST PUSH0 PUSH1 0x20 DUP3 DUP5 SUB SLT ISZERO PUSH2 0x76A JUMPI PUSH0 DUP1 REVERT JUMPDEST POP CALLDATALOAD SWAP2 SWAP1 POP JUMP JUMPDEST PUSH0 DUP1 PUSH1 0x40 DUP4 DUP6 SUB SLT ISZERO PUSH2 0x782 JUMPI PUSH0 DUP1 REVERT JUMPDEST DUP3 CALLDATALOAD SWAP2 POP PUSH2 0x792 PUSH1 0x20 DUP5 ADD PUSH2 0x71F JUMP JUMPDEST SWAP1 POP SWAP3 POP SWAP3 SWAP1 POP JUMP JUMPDEST PUSH1 0x20 DUP1 DUP3 MSTORE DUP2 DUP2 ADD MSTORE PUSH32 0x4F776E61626C653A2063616C6C6572206973206E6F7420746865206F776E6572 PUSH1 0x40 DUP3 ADD MSTORE PUSH1 0x60 ADD SWAP1 JUMP JUMPDEST PUSH4 0x4E487B71 PUSH1 0xE0 SHL PUSH0 MSTORE PUSH1 0x11 PUSH1 0x4 MSTORE PUSH1 0x24 PUSH0 REVERT JUMPDEST DUP1 DUP3 ADD DUP1 DUP3 GT ISZERO PUSH2 0x5BC JUMPI PUSH2 0x5BC PUSH2 0x7D0 JUMP JUMPDEST DUP2 DUP2 SUB DUP2 DUP2 GT ISZERO PUSH2 0x5BC JUMPI PUSH2 0x5BC PUSH2 0x7D0 JUMP JUMPDEST PUSH4 0x4E487B71 PUSH1 0xE0 SHL PUSH0 MSTORE PUSH1 0x32 PUSH1 0x4 MSTORE PUSH1 0x24 PUSH0 REVERT JUMPDEST DUP1 DUP3 MUL DUP2 ISZERO DUP3 DUP3 DIV DUP5 EQ OR PUSH2 0x5BC JUMPI PUSH2 0x5BC PUSH2 0x7D0 JUMP JUMPDEST PUSH0 DUP3 PUSH2 0x84F JUMPI PUSH4 0x4E487B71 PUSH1 0xE0 SHL PUSH0 MSTORE PUSH1 0x12 PUSH1 0x4 MSTORE PUSH1 0x24 PUSH0 REVERT JUMPDEST POP DIV SWAP1 JUMP JUMPDEST PUSH0 PUSH1 0x20 DUP3 DUP5 SUB SLT ISZERO PUSH2 0x864 JUMPI PUSH0 DUP1 REVERT JUMPDEST DUP2 MLOAD DUP1 ISZERO ISZERO DUP2 EQ PUSH2 0x753 JUMPI PUSH0 DUP1 REVERT JUMPDEST PUSH0 PUSH1 0x1 DUP3 ADD PUSH2 0x884 JUMPI PUSH2 0x884 PUSH2 0x7D0 JUMP JUMPDEST POP PUSH1 0x1 ADD SWAP1 JUMP INVALID 0xDF PUSH10 0x66C971051C3D54EC5916 0x26 MOD MSTORE8 EQ SWAP4 0xA5 EQ DIV LOG0 MUL DUP5 0x2F JUMP STOP SWAP14 PUSH31 0x5CF4A8C7A26469706673582212206FE4464A5D3490A41B7A68C62398894EA0 PUSH0 0xD2 SWAP5 EQ 0xD3 MOD GASPRICE 0xDC SWAP4 CALLVALUE 0xAA MUL CALL 0xC0 PUSH8 0x64736F6C63430008 EQ STOP CALLER "
				},
				"gasEstimates": {
					"creation": {
						"codeDepositCost": "454600",
						"executionCost": "135339",
						"totalCost": "589939"
					},
					"external": {
						"balanceOf(address)": "2614",
						"currentLpIndex()": "2283",
						"dividendGas()": "2503",
						"holderRewardCondition()": "2591",
						"lpBonus()": "2327",
						"lpBonusEd()": "2481",
						"lpHolderIndex(address)": "2483",
						"lpHolders(uint256)": "4743",
						"op()": "2666",
						"owner()": "2446",
						"processReward(uint256,address)": "infinite",
						"progressRewardBlock()": "2305",
						"progressRewardBlockAdd()": "2459",
						"setDividendGas(uint256)": "24528",
						"setHolderRewardCondition(uint256)": "24704",
						"setOp(address)": "26863",
						"setRewardBlockAdd(uint256)": "24726"
					},
					"internal": {
						"ariver(uint256,address)": "infinite"
					}
				},
				"methodIdentifiers": {
					"balanceOf(address)": "70a08231",
					"currentLpIndex()": "1210c434",
					"dividendGas()": "bd876702",
					"holderRewardCondition()": "eb10b741",
					"lpBonus()": "621f9c0a",
					"lpBonusEd()": "b367bf83",
					"lpHolderIndex(address)": "0affb402",
					"lpHolders(uint256)": "9f0d7eb8",
					"op()": "ec1f1f69",
					"owner()": "8da5cb5b",
					"processReward(uint256,address)": "dd2cad60",
					"progressRewardBlock()": "2a595512",
					"progressRewardBlockAdd()": "add0a6c6",
					"setDividendGas(uint256)": "6689567e",
					"setHolderRewardCondition(uint256)": "c213d62d",
					"setOp(address)": "a36a7526",
					"setRewardBlockAdd(uint256)": "c7003ed0"
				}
			},
			"storageLayout": {
				"storage": [
					{
						"astId": 15,
						"contract": "contracts/DividendPayingERC20Token.sol:DividendPayingERC20Token",
						"label": "_balances",
						"offset": 0,
						"slot": "0",
						"type": "t_mapping(t_address,t_uint256)"
					},
					{
						"astId": 17,
						"contract": "contracts/DividendPayingERC20Token.sol:DividendPayingERC20Token",
						"label": "_totalSupply",
						"offset": 0,
						"slot": "1",
						"type": "t_uint256"
					},
					{
						"astId": 19,
						"contract": "contracts/DividendPayingERC20Token.sol:DividendPayingERC20Token",
						"label": "progressRewardBlock",
						"offset": 0,
						"slot": "2",
						"type": "t_uint256"
					},
					{
						"astId": 21,
						"contract": "contracts/DividendPayingERC20Token.sol:DividendPayingERC20Token",
						"label": "progressRewardBlockAdd",
						"offset": 0,
						"slot": "3",
						"type": "t_uint256"
					},
					{
						"astId": 23,
						"contract": "contracts/DividendPayingERC20Token.sol:DividendPayingERC20Token",
						"label": "holderRewardCondition",
						"offset": 0,
						"slot": "4",
						"type": "t_uint256"
					},
					{
						"astId": 25,
						"contract": "contracts/DividendPayingERC20Token.sol:DividendPayingERC20Token",
						"label": "dividendGas",
						"offset": 0,
						"slot": "5",
						"type": "t_uint256"
					},
					{
						"astId": 27,
						"contract": "contracts/DividendPayingERC20Token.sol:DividendPayingERC20Token",
						"label": "lpBonus",
						"offset": 0,
						"slot": "6",
						"type": "t_uint256"
					},
					{
						"astId": 29,
						"contract": "contracts/DividendPayingERC20Token.sol:DividendPayingERC20Token",
						"label": "lpBonusEd",
						"offset": 0,
						"slot": "7",
						"type": "t_uint256"
					},
					{
						"astId": 31,
						"contract": "contracts/DividendPayingERC20Token.sol:DividendPayingERC20Token",
						"label": "totalLpSupply",
						"offset": 0,
						"slot": "8",
						"type": "t_uint256"
					},
					{
						"astId": 35,
						"contract": "contracts/DividendPayingERC20Token.sol:DividendPayingERC20Token",
						"label": "_LpBalances",
						"offset": 0,
						"slot": "9",
						"type": "t_mapping(t_address,t_uint256)"
					},
					{
						"astId": 39,
						"contract": "contracts/DividendPayingERC20Token.sol:DividendPayingERC20Token",
						"label": "_lastLpTime",
						"offset": 0,
						"slot": "10",
						"type": "t_mapping(t_address,t_uint256)"
					},
					{
						"astId": 43,
						"contract": "contracts/DividendPayingERC20Token.sol:DividendPayingERC20Token",
						"label": "_lastEth",
						"offset": 0,
						"slot": "11",
						"type": "t_mapping(t_address,t_uint256)"
					},
					{
						"astId": 46,
						"contract": "contracts/DividendPayingERC20Token.sol:DividendPayingERC20Token",
						"label": "lpHolders",
						"offset": 0,
						"slot": "12",
						"type": "t_array(t_address)dyn_storage"
					},
					{
						"astId": 50,
						"contract": "contracts/DividendPayingERC20Token.sol:DividendPayingERC20Token",
						"label": "lpHolderIndex",
						"offset": 0,
						"slot": "13",
						"type": "t_mapping(t_address,t_uint256)"
					},
					{
						"astId": 52,
						"contract": "contracts/DividendPayingERC20Token.sol:DividendPayingERC20Token",
						"label": "currentLpIndex",
						"offset": 0,
						"slot": "14",
						"type": "t_uint256"
					},
					{
						"astId": 54,
						"contract": "contracts/DividendPayingERC20Token.sol:DividendPayingERC20Token",
						"label": "deadAddress",
						"offset": 0,
						"slot": "15",
						"type": "t_address"
					},
					{
						"astId": 56,
						"contract": "contracts/DividendPayingERC20Token.sol:DividendPayingERC20Token",
						"label": "op",
						"offset": 0,
						"slot": "16",
						"type": "t_address"
					},
					{
						"astId": 58,
						"contract": "contracts/DividendPayingERC20Token.sol:DividendPayingERC20Token",
						"label": "owner",
						"offset": 0,
						"slot": "17",
						"type": "t_address"
					}
				],
				"types": {
					"t_address": {
						"encoding": "inplace",
						"label": "address",
						"numberOfBytes": "20"
					},
					"t_array(t_address)dyn_storage": {
						"base": "t_address",
						"encoding": "dynamic_array",
						"label": "address[]",
						"numberOfBytes": "32"
					},
					"t_mapping(t_address,t_uint256)": {
						"encoding": "mapping",
						"key": "t_address",
						"label": "mapping(address => uint256)",
						"numberOfBytes": "32",
						"value": "t_uint256"
					},
					"t_uint256": {
						"encoding": "inplace",
						"label": "uint256",
						"numberOfBytes": "32"
					}
				}
			},
			"userdoc": {
				"kind": "user",
				"methods": {},
				"version": 1
			}
		}
	}
}