{
	"data": {
		"bytecode": {
			"linkReferences": {},
			"object": "60a060405234801562000010575f80fd5b5060408051808201825260038082526220a1a160e91b60208084018290528451808601909552918452908301529060126c0c9f2c9cd04674edea4000000060026200005c858262000229565b5060036200006b848262000229565b5060ff82166080526200007f3382620000c5565b5050600580546001600160a01b0319163317905550505f600f81905560c8600855662386f26fc100006009556207a120600a55600c819055600b819055600e5562000317565b6001600160a01b038216620001205760405162461bcd60e51b815260206004820152601f60248201527f45524332303a206d696e7420746f20746865207a65726f206164647265737300604482015260640160405180910390fd5b8060045f828254620001339190620002f1565b90915550506001600160a01b0382165f81815260208181526040808320805486019055518481527fddf252ad1be2c89b69c2b068fc378daa952ba7f163c4a11628f55a4df523b3ef910160405180910390a35050565b634e487b7160e01b5f52604160045260245ffd5b600181811c90821680620001b257607f821691505b602082108103620001d157634e487b7160e01b5f52602260045260245ffd5b50919050565b601f82111562000224575f81815260208120601f850160051c81016020861015620001ff5750805b601f850160051c820191505b8181101562000220578281556001016200020b565b5050505b505050565b81516001600160401b0381111562000245576200024562000189565b6200025d816200025684546200019d565b84620001d7565b602080601f83116001811462000293575f84156200027b5750858301515b5f19600386901b1c1916600185901b17855562000220565b5f85815260208120601f198616915b82811015620002c357888601518255948401946001909101908401620002a2565b5085821015620002e157878501515f19600388901b60f8161c191681555b5050505050600190811b01905550565b808201808211156200031157634e487b7160e01b5f52601160045260245ffd5b92915050565b608051610f27620003305f395f6102220152610f275ff3fe608060405234801561000f575f80fd5b5060043610610173575f3560e01c806306fdde0314610177578063095ea7b3146101955780630affb402146101b85780631210c434146101e55780631357a1de146101ee57806318160ddd146101f757806323b872dd146101ff5780632a59551214610212578063313ce5671461021b57806346bb92711461024c578063621f9c0a146102615780636689567e1461026a57806368698b481461027d5780636aedea731461029c57806370a08231146102a55780637ef925f7146102cd57806386623a06146102e05780638da5cb5b146102ff57806395d89b411461032a5780639f0d7eb814610332578063a9059cbb14610345578063add0a6c614610358578063b367bf8314610361578063b510efa61461036a578063bd87670214610389578063c213d62d14610392578063c7003ed0146103a5578063dd62ed3e146103b8578063eb10b741146103f0578063ed9a165d146103f9578063f2fde38b1461040c575b5f80fd5b61017f61041f565b60405161018c9190610c53565b60405180910390f35b6101a86101a3366004610cb9565b6104af565b604051901515815260200161018c565b6101d76101c6366004610ce1565b60136020525f908152604090205481565b60405190815260200161018c565b6101d7600d5481565b6101d7600e5481565b6004546101d7565b6101a861020d366004610d01565b6104c5565b6101d760075481565b60405160ff7f000000000000000000000000000000000000000000000000000000000000000016815260200161018c565b61025f61025a366004610ce1565b6104e6565b005b6101d7600b5481565b61025f610278366004610d3a565b61053b565b6101d761028b366004610ce1565b60106020525f908152604090205481565b6101d7600f5481565b6101d76102b3366004610ce1565b6001600160a01b03165f9081526020819052604090205490565b61025f6102db366004610d3a565b61056a565b6101d76102ee366004610ce1565b60116020525f908152604090205481565b600554610312906001600160a01b031681565b6040516001600160a01b03909116815260200161018c565b61017f610599565b610312610340366004610d3a565b6105a8565b6101a8610353366004610cb9565b6105d0565b6101d760085481565b6101d7600c5481565b6101d7610378366004610ce1565b60126020525f908152604090205481565b6101d7600a5481565b61025f6103a0366004610d3a565b6105dc565b61025f6103b3366004610d3a565b61060b565b6101d76103c6366004610d51565b6001600160a01b039182165f90815260016020908152604080832093909416825291909152205490565b6101d760095481565b600654610312906001600160a01b031681565b61025f61041a366004610ce1565b61063a565b60606003805461042e90610d82565b80601f016020809104026020016040519081016040528092919081815260200182805461045a90610d82565b80156104a55780601f1061047c576101008083540402835291602001916104a5565b820191905f5260205f20905b81548152906001019060200180831161048857829003601f168201915b5050505050905090565b5f6104bb338484610686565b5060015b92915050565b5f6104d18433846106e7565b6104dc848484610777565b5060019392505050565b6005546001600160a01b031633146105195760405162461bcd60e51b815260040161051090610dba565b60405180910390fd5b600680546001600160a01b0319166001600160a01b0392909216919091179055565b6005546001600160a01b031633146105655760405162461bcd60e51b815260040161051090610dba565b600a55565b6005546001600160a01b031633146105945760405162461bcd60e51b815260040161051090610dba565b600e55565b60606002805461042e90610d82565b601481815481106105b7575f80fd5b5f918252602090912001546001600160a01b0316905081565b5f6104bb338484610777565b6005546001600160a01b031633146106065760405162461bcd60e51b815260040161051090610dba565b600955565b6005546001600160a01b031633146106355760405162461bcd60e51b815260040161051090610dba565b600855565b6005546001600160a01b031633146106645760405162461bcd60e51b815260040161051090610dba565b600580546001600160a01b0319166001600160a01b0392909216919091179055565b6001600160a01b038381165f8181526001602090815260408083209487168084529482529182902085905590518481527f8c5be1e5ebec7d5bd14f71427d1e84f3dd0314c0f7b2291e5b200ac8c7c3b92591015b60405180910390a3505050565b6001600160a01b038084165f908152600160209081526040808320938616835292905220545f19811461077157818110156107645760405162461bcd60e51b815260206004820152601d60248201527f45524332303a20696e73756666696369656e7420616c6c6f77616e63650000006044820152606401610510565b6107718484848403610686565b50505050565b6006546001600160a01b0316823b80158015906107a65750816001600160a01b0316846001600160a01b031614155b80156107b45750600e546001145b156107c0575050505050565b816001600160a01b0316856001600160a01b0316141580156107f45750816001600160a01b0316846001600160a01b031614155b8061080c57506005546001600160a01b038681169116145b156108235761081c8585856108a2565b5050505050565b61082d858461092d565b5f6103e861083c85600a610e03565b6108469190610e1a565b90506108678673bf1c5c87b4b0f37443819cbb956215982d9f8a4b83610983565b6108748661dead83610983565b61087f863083610983565b61088f8686836003028703610983565b61089981876109c2565b50505050505050565b6001600160a01b0383165f90815260208190526040902054818110156108da5760405162461bcd60e51b815260040161051090610e39565b6001600160a01b038481165f81815260208181526040808320878703905593871680835291849020805487019055925185815290925f80516020610ed2833981519152910160405180910390a350505050565b6001600160a01b0382165f90815260208190526040902054818110156109655760405162461bcd60e51b815260040161051090610e39565b6001600160a01b039092165f90815260208190526040902091039055565b6001600160a01b038281165f8181526020818152604091829020805486019055905184815291928616915f80516020610ed283398151915291016106da565b5f82600b5f8282546109d49190610e7f565b9091555050600b54600c54106109eb57505f6104bf565b5f600c54600b546109fc9190610e92565b9050600954811015610a11575f9150506104bf565b6014545f90819081908180805a90505b600a5483108015610a3157508382105b15610b235783600d5410610a44575f600d555b6014600d5481548110610a5957610a59610ea5565b5f9182526020808320909101546001600160a01b0316808352601090915260409091205490975095508515801590610a9c57506001600160a01b03871661dead14155b15610ae257600f54610aae878a610e03565b610ab89190610e1a565b94508415610ae257610acb3088876108a2565b84600c5f828254610adc9190610e7f565b90915550505b5a610aed9082610e92565b610af79084610e7f565b92505a600d80549192505f610b0b83610eb9565b91905055508180610b1b90610eb9565b925050610a21565b43600755610b318b8b610b40565b50929998505050505050505050565b81600f5f828254610b519190610e7f565b90915550506001600160a01b0381165f90815260136020526040902054158015610b8957506006546001600160a01b03828116911614155b15610c4f576001600160a01b0381165f9081526010602052604081208054849290610bb5908490610e7f565b90915550506001600160a01b0381165f908152601160209081526040808320429055601290915281208054349290610bee908490610e7f565b9091555050601480546001600160a01b0383165f818152601360205260408120839055600183018455929092527fce6d7b5282bd9a3661ae061feed1dbda4e52ab073b1f9285be6e155d9c38d4ec0180546001600160a01b03191690911790555b5050565b5f6020808352835180828501525f5b81811015610c7e57858101830151858201604001528201610c62565b505f604082860101526040601f19601f8301168501019250505092915050565b80356001600160a01b0381168114610cb4575f80fd5b919050565b5f8060408385031215610cca575f80fd5b610cd383610c9e565b946020939093013593505050565b5f60208284031215610cf1575f80fd5b610cfa82610c9e565b9392505050565b5f805f60608486031215610d13575f80fd5b610d1c84610c9e565b9250610d2a60208501610c9e565b9150604084013590509250925092565b5f60208284031215610d4a575f80fd5b5035919050565b5f8060408385031215610d62575f80fd5b610d6b83610c9e565b9150610d7960208401610c9e565b90509250929050565b600181811c90821680610d9657607f821691505b602082108103610db457634e487b7160e01b5f52602260045260245ffd5b50919050565b6020808252818101527f4f776e61626c653a2063616c6c6572206973206e6f7420746865206f776e6572604082015260600190565b634e487b7160e01b5f52601160045260245ffd5b80820281158282048414176104bf576104bf610def565b5f82610e3457634e487b7160e01b5f52601260045260245ffd5b500490565b60208082526026908201527f45524332303a207472616e7366657220616d6f756e7420657863656564732062604082015265616c616e636560d01b606082015260800190565b808201808211156104bf576104bf610def565b818103818111156104bf576104bf610def565b634e487b7160e01b5f52603260045260245ffd5b5f60018201610eca57610eca610def565b506001019056feddf252ad1be2c89b69c2b068fc378daa952ba7f163c4a11628f55a4df523b3efa2646970667358221220743cb37298e1b59c8da641db7469875dbc34e3e5a499b8b32a33e6201386993464736f6c63430008140033",
			"opcodes": "PUSH1 0xA0 PUSH1 0x40 MSTORE CALLVALUE DUP1 ISZERO PUSH3 0x10 JUMPI PUSH0 DUP1 REVERT JUMPDEST POP PUSH1 0x40 DUP1 MLOAD DUP1 DUP3 ADD DUP3 MSTORE PUSH1 0x3 DUP1 DUP3 MSTORE PUSH3 0x20A1A1 PUSH1 0xE9 SHL PUSH1 0x20 DUP1 DUP5 ADD DUP3 SWAP1 MSTORE DUP5 MLOAD DUP1 DUP7 ADD SWAP1 SWAP6 MSTORE SWAP2 DUP5 MSTORE SWAP1 DUP4 ADD MSTORE SWAP1 PUSH1 0x12 PUSH13 0xC9F2C9CD04674EDEA40000000 PUSH1 0x2 PUSH3 0x5C DUP6 DUP3 PUSH3 0x229 JUMP JUMPDEST POP PUSH1 0x3 PUSH3 0x6B DUP5 DUP3 PUSH3 0x229 JUMP JUMPDEST POP PUSH1 0xFF DUP3 AND PUSH1 0x80 MSTORE PUSH3 0x7F CALLER DUP3 PUSH3 0xC5 JUMP JUMPDEST POP POP PUSH1 0x5 DUP1 SLOAD PUSH1 0x1 PUSH1 0x1 PUSH1 0xA0 SHL SUB NOT AND CALLER OR SWAP1 SSTORE POP POP PUSH0 PUSH1 0xF DUP2 SWAP1 SSTORE PUSH1 0xC8 PUSH1 0x8 SSTORE PUSH7 0x2386F26FC10000 PUSH1 0x9 SSTORE PUSH3 0x7A120 PUSH1 0xA SSTORE PUSH1 0xC DUP2 SWAP1 SSTORE PUSH1 0xB DUP2 SWAP1 SSTORE PUSH1 0xE SSTORE PUSH3 0x317 JUMP JUMPDEST PUSH1 0x1 PUSH1 0x1 PUSH1 0xA0 SHL SUB DUP3 AND PUSH3 0x120 JUMPI PUSH1 0x40 MLOAD PUSH3 0x461BCD PUSH1 0xE5 SHL DUP2 MSTORE PUSH1 0x20 PUSH1 0x4 DUP3 ADD MSTORE PUSH1 0x1F PUSH1 0x24 DUP3 ADD MSTORE PUSH32 0x45524332303A206D696E7420746F20746865207A65726F206164647265737300 PUSH1 0x44 DUP3 ADD MSTORE PUSH1 0x64 ADD PUSH1 0x40 MLOAD DUP1 SWAP2 SUB SWAP1 REVERT JUMPDEST DUP1 PUSH1 0x4 PUSH0 DUP3 DUP3 SLOAD PUSH3 0x133 SWAP2 SWAP1 PUSH3 0x2F1 JUMP JUMPDEST SWAP1 SWAP2 SSTORE POP POP PUSH1 0x1 PUSH1 0x1 PUSH1 0xA0 SHL SUB DUP3 AND PUSH0 DUP2 DUP2 MSTORE PUSH1 0x20 DUP2 DUP2 MSTORE PUSH1 0x40 DUP1 DUP4 KECCAK256 DUP1 SLOAD DUP7 ADD SWAP1 SSTORE MLOAD DUP5 DUP2 MSTORE PUSH32 0xDDF252AD1BE2C89B69C2B068FC378DAA952BA7F163C4A11628F55A4DF523B3EF SWAP2 ADD PUSH1 0x40 MLOAD DUP1 SWAP2 SUB SWAP1 LOG3 POP POP JUMP JUMPDEST PUSH4 0x4E487B71 PUSH1 0xE0 SHL PUSH0 MSTORE PUSH1 0x41 PUSH1 0x4 MSTORE PUSH1 0x24 PUSH0 REVERT JUMPDEST PUSH1 0x1 DUP2 DUP2 SHR SWAP1 DUP3 AND DUP1 PUSH3 0x1B2 JUMPI PUSH1 0x7F DUP3 AND SWAP2 POP JUMPDEST PUSH1 0x20 DUP3 LT DUP2 SUB PUSH3 0x1D1 JUMPI PUSH4 0x4E487B71 PUSH1 0xE0 SHL PUSH0 MSTORE PUSH1 0x22 PUSH1 0x4 MSTORE PUSH1 0x24 PUSH0 REVERT JUMPDEST POP SWAP2 SWAP1 POP JUMP JUMPDEST PUSH1 0x1F DUP3 GT ISZERO PUSH3 0x224 JUMPI PUSH0 DUP2 DUP2 MSTORE PUSH1 0x20 DUP2 KECCAK256 PUSH1 0x1F DUP6 ADD PUSH1 0x5 SHR DUP2 ADD PUSH1 0x20 DUP7 LT ISZERO PUSH3 0x1FF JUMPI POP DUP1 JUMPDEST PUSH1 0x1F DUP6 ADD PUSH1 0x5 SHR DUP3 ADD SWAP2 POP JUMPDEST DUP2 DUP2 LT ISZERO PUSH3 0x220 JUMPI DUP3 DUP2 SSTORE PUSH1 0x1 ADD PUSH3 0x20B JUMP JUMPDEST POP POP POP JUMPDEST POP POP POP JUMP JUMPDEST DUP2 MLOAD PUSH1 0x1 PUSH1 0x1 PUSH1 0x40 SHL SUB DUP2 GT ISZERO PUSH3 0x245 JUMPI PUSH3 0x245 PUSH3 0x189 JUMP JUMPDEST PUSH3 0x25D DUP2 PUSH3 0x256 DUP5 SLOAD PUSH3 0x19D JUMP JUMPDEST DUP5 PUSH3 0x1D7 JUMP JUMPDEST PUSH1 0x20 DUP1 PUSH1 0x1F DUP4 GT PUSH1 0x1 DUP2 EQ PUSH3 0x293 JUMPI PUSH0 DUP5 ISZERO PUSH3 0x27B JUMPI POP DUP6 DUP4 ADD MLOAD JUMPDEST PUSH0 NOT PUSH1 0x3 DUP7 SWAP1 SHL SHR NOT AND PUSH1 0x1 DUP6 SWAP1 SHL OR DUP6 SSTORE PUSH3 0x220 JUMP JUMPDEST PUSH0 DUP6 DUP2 MSTORE PUSH1 0x20 DUP2 KECCAK256 PUSH1 0x1F NOT DUP7 AND SWAP2 JUMPDEST DUP3 DUP2 LT ISZERO PUSH3 0x2C3 JUMPI DUP9 DUP7 ADD MLOAD DUP3 SSTORE SWAP5 DUP5 ADD SWAP5 PUSH1 0x1 SWAP1 SWAP2 ADD SWAP1 DUP5 ADD PUSH3 0x2A2 JUMP JUMPDEST POP DUP6 DUP3 LT ISZERO PUSH3 0x2E1 JUMPI DUP8 DUP6 ADD MLOAD PUSH0 NOT PUSH1 0x3 DUP9 SWAP1 SHL PUSH1 0xF8 AND SHR NOT AND DUP2 SSTORE JUMPDEST POP POP POP POP POP PUSH1 0x1 SWAP1 DUP2 SHL ADD SWAP1 SSTORE POP JUMP JUMPDEST DUP1 DUP3 ADD DUP1 DUP3 GT ISZERO PUSH3 0x311 JUMPI PUSH4 0x4E487B71 PUSH1 0xE0 SHL PUSH0 MSTORE PUSH1 0x11 PUSH1 0x4 MSTORE PUSH1 0x24 PUSH0 REVERT JUMPDEST SWAP3 SWAP2 POP POP JUMP JUMPDEST PUSH1 0x80 MLOAD PUSH2 0xF27 PUSH3 0x330 PUSH0 CODECOPY PUSH0 PUSH2 0x222 ADD MSTORE PUSH2 0xF27 PUSH0 RETURN INVALID PUSH1 0x80 PUSH1 0x40 MSTORE CALLVALUE DUP1 ISZERO PUSH2 0xF JUMPI PUSH0 DUP1 REVERT JUMPDEST POP PUSH1 0x4 CALLDATASIZE LT PUSH2 0x173 JUMPI PUSH0 CALLDATALOAD PUSH1 0xE0 SHR DUP1 PUSH4 0x6FDDE03 EQ PUSH2 0x177 JUMPI DUP1 PUSH4 0x95EA7B3 EQ PUSH2 0x195 JUMPI DUP1 PUSH4 0xAFFB402 EQ PUSH2 0x1B8 JUMPI DUP1 PUSH4 0x1210C434 EQ PUSH2 0x1E5 JUMPI DUP1 PUSH4 0x1357A1DE EQ PUSH2 0x1EE JUMPI DUP1 PUSH4 0x18160DDD EQ PUSH2 0x1F7 JUMPI DUP1 PUSH4 0x23B872DD EQ PUSH2 0x1FF JUMPI DUP1 PUSH4 0x2A595512 EQ PUSH2 0x212 JUMPI DUP1 PUSH4 0x313CE567 EQ PUSH2 0x21B JUMPI DUP1 PUSH4 0x46BB9271 EQ PUSH2 0x24C JUMPI DUP1 PUSH4 0x621F9C0A EQ PUSH2 0x261 JUMPI DUP1 PUSH4 0x6689567E EQ PUSH2 0x26A JUMPI DUP1 PUSH4 0x68698B48 EQ PUSH2 0x27D JUMPI DUP1 PUSH4 0x6AEDEA73 EQ PUSH2 0x29C JUMPI DUP1 PUSH4 0x70A08231 EQ PUSH2 0x2A5 JUMPI DUP1 PUSH4 0x7EF925F7 EQ PUSH2 0x2CD JUMPI DUP1 PUSH4 0x86623A06 EQ PUSH2 0x2E0 JUMPI DUP1 PUSH4 0x8DA5CB5B EQ PUSH2 0x2FF JUMPI DUP1 PUSH4 0x95D89B41 EQ PUSH2 0x32A JUMPI DUP1 PUSH4 0x9F0D7EB8 EQ PUSH2 0x332 JUMPI DUP1 PUSH4 0xA9059CBB EQ PUSH2 0x345 JUMPI DUP1 PUSH4 0xADD0A6C6 EQ PUSH2 0x358 JUMPI DUP1 PUSH4 0xB367BF83 EQ PUSH2 0x361 JUMPI DUP1 PUSH4 0xB510EFA6 EQ PUSH2 0x36A JUMPI DUP1 PUSH4 0xBD876702 EQ PUSH2 0x389 JUMPI DUP1 PUSH4 0xC213D62D EQ PUSH2 0x392 JUMPI DUP1 PUSH4 0xC7003ED0 EQ PUSH2 0x3A5 JUMPI DUP1 PUSH4 0xDD62ED3E EQ PUSH2 0x3B8 JUMPI DUP1 PUSH4 0xEB10B741 EQ PUSH2 0x3F0 JUMPI DUP1 PUSH4 0xED9A165D EQ PUSH2 0x3F9 JUMPI DUP1 PUSH4 0xF2FDE38B EQ PUSH2 0x40C JUMPI JUMPDEST PUSH0 DUP1 REVERT JUMPDEST PUSH2 0x17F PUSH2 0x41F JUMP JUMPDEST PUSH1 0x40 MLOAD PUSH2 0x18C SWAP2 SWAP1 PUSH2 0xC53 JUMP JUMPDEST PUSH1 0x40 MLOAD DUP1 SWAP2 SUB SWAP1 RETURN JUMPDEST PUSH2 0x1A8 PUSH2 0x1A3 CALLDATASIZE PUSH1 0x4 PUSH2 0xCB9 JUMP JUMPDEST PUSH2 0x4AF JUMP JUMPDEST PUSH1 0x40 MLOAD SWAP1 ISZERO ISZERO DUP2 MSTORE PUSH1 0x20 ADD PUSH2 0x18C JUMP JUMPDEST PUSH2 0x1D7 PUSH2 0x1C6 CALLDATASIZE PUSH1 0x4 PUSH2 0xCE1 JUMP JUMPDEST PUSH1 0x13 PUSH1 0x20 MSTORE PUSH0 SWAP1 DUP2 MSTORE PUSH1 0x40 SWAP1 KECCAK256 SLOAD DUP2 JUMP JUMPDEST PUSH1 0x40 MLOAD SWAP1 DUP2 MSTORE PUSH1 0x20 ADD PUSH2 0x18C JUMP JUMPDEST PUSH2 0x1D7 PUSH1 0xD SLOAD DUP2 JUMP JUMPDEST PUSH2 0x1D7 PUSH1 0xE SLOAD DUP2 JUMP JUMPDEST PUSH1 0x4 SLOAD PUSH2 0x1D7 JUMP JUMPDEST PUSH2 0x1A8 PUSH2 0x20D CALLDATASIZE PUSH1 0x4 PUSH2 0xD01 JUMP JUMPDEST PUSH2 0x4C5 JUMP JUMPDEST PUSH2 0x1D7 PUSH1 0x7 SLOAD DUP2 JUMP JUMPDEST PUSH1 0x40 MLOAD PUSH1 0xFF PUSH32 0x0 AND DUP2 MSTORE PUSH1 0x20 ADD PUSH2 0x18C JUMP JUMPDEST PUSH2 0x25F PUSH2 0x25A CALLDATASIZE PUSH1 0x4 PUSH2 0xCE1 JUMP JUMPDEST PUSH2 0x4E6 JUMP JUMPDEST STOP JUMPDEST PUSH2 0x1D7 PUSH1 0xB SLOAD DUP2 JUMP JUMPDEST PUSH2 0x25F PUSH2 0x278 CALLDATASIZE PUSH1 0x4 PUSH2 0xD3A JUMP JUMPDEST PUSH2 0x53B JUMP JUMPDEST PUSH2 0x1D7 PUSH2 0x28B CALLDATASIZE PUSH1 0x4 PUSH2 0xCE1 JUMP JUMPDEST PUSH1 0x10 PUSH1 0x20 MSTORE PUSH0 SWAP1 DUP2 MSTORE PUSH1 0x40 SWAP1 KECCAK256 SLOAD DUP2 JUMP JUMPDEST PUSH2 0x1D7 PUSH1 0xF SLOAD DUP2 JUMP JUMPDEST PUSH2 0x1D7 PUSH2 0x2B3 CALLDATASIZE PUSH1 0x4 PUSH2 0xCE1 JUMP JUMPDEST PUSH1 0x1 PUSH1 0x1 PUSH1 0xA0 SHL SUB AND PUSH0 SWAP1 DUP2 MSTORE PUSH1 0x20 DUP2 SWAP1 MSTORE PUSH1 0x40 SWAP1 KECCAK256 SLOAD SWAP1 JUMP JUMPDEST PUSH2 0x25F PUSH2 0x2DB CALLDATASIZE PUSH1 0x4 PUSH2 0xD3A JUMP JUMPDEST PUSH2 0x56A JUMP JUMPDEST PUSH2 0x1D7 PUSH2 0x2EE CALLDATASIZE PUSH1 0x4 PUSH2 0xCE1 JUMP JUMPDEST PUSH1 0x11 PUSH1 0x20 MSTORE PUSH0 SWAP1 DUP2 MSTORE PUSH1 0x40 SWAP1 KECCAK256 SLOAD DUP2 JUMP JUMPDEST PUSH1 0x5 SLOAD PUSH2 0x312 SWAP1 PUSH1 0x1 PUSH1 0x1 PUSH1 0xA0 SHL SUB AND DUP2 JUMP JUMPDEST PUSH1 0x40 MLOAD PUSH1 0x1 PUSH1 0x1 PUSH1 0xA0 SHL SUB SWAP1 SWAP2 AND DUP2 MSTORE PUSH1 0x20 ADD PUSH2 0x18C JUMP JUMPDEST PUSH2 0x17F PUSH2 0x599 JUMP JUMPDEST PUSH2 0x312 PUSH2 0x340 CALLDATASIZE PUSH1 0x4 PUSH2 0xD3A JUMP JUMPDEST PUSH2 0x5A8 JUMP JUMPDEST PUSH2 0x1A8 PUSH2 0x353 CALLDATASIZE PUSH1 0x4 PUSH2 0xCB9 JUMP JUMPDEST PUSH2 0x5D0 JUMP JUMPDEST PUSH2 0x1D7 PUSH1 0x8 SLOAD DUP2 JUMP JUMPDEST PUSH2 0x1D7 PUSH1 0xC SLOAD DUP2 JUMP JUMPDEST PUSH2 0x1D7 PUSH2 0x378 CALLDATASIZE PUSH1 0x4 PUSH2 0xCE1 JUMP JUMPDEST PUSH1 0x12 PUSH1 0x20 MSTORE PUSH0 SWAP1 DUP2 MSTORE PUSH1 0x40 SWAP1 KECCAK256 SLOAD DUP2 JUMP JUMPDEST PUSH2 0x1D7 PUSH1 0xA SLOAD DUP2 JUMP JUMPDEST PUSH2 0x25F PUSH2 0x3A0 CALLDATASIZE PUSH1 0x4 PUSH2 0xD3A JUMP JUMPDEST PUSH2 0x5DC JUMP JUMPDEST PUSH2 0x25F PUSH2 0x3B3 CALLDATASIZE PUSH1 0x4 PUSH2 0xD3A JUMP JUMPDEST PUSH2 0x60B JUMP JUMPDEST PUSH2 0x1D7 PUSH2 0x3C6 CALLDATASIZE PUSH1 0x4 PUSH2 0xD51 JUMP JUMPDEST PUSH1 0x1 PUSH1 0x1 PUSH1 0xA0 SHL SUB SWAP2 DUP3 AND PUSH0 SWAP1 DUP2 MSTORE PUSH1 0x1 PUSH1 0x20 SWAP1 DUP2 MSTORE PUSH1 0x40 DUP1 DUP4 KECCAK256 SWAP4 SWAP1 SWAP5 AND DUP3 MSTORE SWAP2 SWAP1 SWAP2 MSTORE KECCAK256 SLOAD SWAP1 JUMP JUMPDEST PUSH2 0x1D7 PUSH1 0x9 SLOAD DUP2 JUMP JUMPDEST PUSH1 0x6 SLOAD PUSH2 0x312 SWAP1 PUSH1 0x1 PUSH1 0x1 PUSH1 0xA0 SHL SUB AND DUP2 JUMP JUMPDEST PUSH2 0x25F PUSH2 0x41A CALLDATASIZE PUSH1 0x4 PUSH2 0xCE1 JUMP JUMPDEST PUSH2 0x63A JUMP JUMPDEST PUSH1 0x60 PUSH1 0x3 DUP1 SLOAD PUSH2 0x42E SWAP1 PUSH2 0xD82 JUMP JUMPDEST DUP1 PUSH1 0x1F ADD PUSH1 0x20 DUP1 SWAP2 DIV MUL PUSH1 0x20 ADD PUSH1 0x40 MLOAD SWAP1 DUP2 ADD PUSH1 0x40 MSTORE DUP1 SWAP3 SWAP2 SWAP1 DUP2 DUP2 MSTORE PUSH1 0x20 ADD DUP3 DUP1 SLOAD PUSH2 0x45A SWAP1 PUSH2 0xD82 JUMP JUMPDEST DUP1 ISZERO PUSH2 0x4A5 JUMPI DUP1 PUSH1 0x1F LT PUSH2 0x47C JUMPI PUSH2 0x100 DUP1 DUP4 SLOAD DIV MUL DUP4 MSTORE SWAP2 PUSH1 0x20 ADD SWAP2 PUSH2 0x4A5 JUMP JUMPDEST DUP3 ADD SWAP2 SWAP1 PUSH0 MSTORE PUSH1 0x20 PUSH0 KECCAK256 SWAP1 JUMPDEST DUP2 SLOAD DUP2 MSTORE SWAP1 PUSH1 0x1 ADD SWAP1 PUSH1 0x20 ADD DUP1 DUP4 GT PUSH2 0x488 JUMPI DUP3 SWAP1 SUB PUSH1 0x1F AND DUP3 ADD SWAP2 JUMPDEST POP POP POP POP POP SWAP1 POP SWAP1 JUMP JUMPDEST PUSH0 PUSH2 0x4BB CALLER DUP5 DUP5 PUSH2 0x686 JUMP JUMPDEST POP PUSH1 0x1 JUMPDEST SWAP3 SWAP2 POP POP JUMP JUMPDEST PUSH0 PUSH2 0x4D1 DUP5 CALLER DUP5 PUSH2 0x6E7 JUMP JUMPDEST PUSH2 0x4DC DUP5 DUP5 DUP5 PUSH2 0x777 JUMP JUMPDEST POP PUSH1 0x1 SWAP4 SWAP3 POP POP POP JUMP JUMPDEST PUSH1 0x5 SLOAD PUSH1 0x1 PUSH1 0x1 PUSH1 0xA0 SHL SUB AND CALLER EQ PUSH2 0x519 JUMPI PUSH1 0x40 MLOAD PUSH3 0x461BCD PUSH1 0xE5 SHL DUP2 MSTORE PUSH1 0x4 ADD PUSH2 0x510 SWAP1 PUSH2 0xDBA JUMP JUMPDEST PUSH1 0x40 MLOAD DUP1 SWAP2 SUB SWAP1 REVERT JUMPDEST PUSH1 0x6 DUP1 SLOAD PUSH1 0x1 PUSH1 0x1 PUSH1 0xA0 SHL SUB NOT AND PUSH1 0x1 PUSH1 0x1 PUSH1 0xA0 SHL SUB SWAP3 SWAP1 SWAP3 AND SWAP2 SWAP1 SWAP2 OR SWAP1 SSTORE JUMP JUMPDEST PUSH1 0x5 SLOAD PUSH1 0x1 PUSH1 0x1 PUSH1 0xA0 SHL SUB AND CALLER EQ PUSH2 0x565 JUMPI PUSH1 0x40 MLOAD PUSH3 0x461BCD PUSH1 0xE5 SHL DUP2 MSTORE PUSH1 0x4 ADD PUSH2 0x510 SWAP1 PUSH2 0xDBA JUMP JUMPDEST PUSH1 0xA SSTORE JUMP JUMPDEST PUSH1 0x5 SLOAD PUSH1 0x1 PUSH1 0x1 PUSH1 0xA0 SHL SUB AND CALLER EQ PUSH2 0x594 JUMPI PUSH1 0x40 MLOAD PUSH3 0x461BCD PUSH1 0xE5 SHL DUP2 MSTORE PUSH1 0x4 ADD PUSH2 0x510 SWAP1 PUSH2 0xDBA JUMP JUMPDEST PUSH1 0xE SSTORE JUMP JUMPDEST PUSH1 0x60 PUSH1 0x2 DUP1 SLOAD PUSH2 0x42E SWAP1 PUSH2 0xD82 JUMP JUMPDEST PUSH1 0x14 DUP2 DUP2 SLOAD DUP2 LT PUSH2 0x5B7 JUMPI PUSH0 DUP1 REVERT JUMPDEST PUSH0 SWAP2 DUP3 MSTORE PUSH1 0x20 SWAP1 SWAP2 KECCAK256 ADD SLOAD PUSH1 0x1 PUSH1 0x1 PUSH1 0xA0 SHL SUB AND SWAP1 POP DUP2 JUMP JUMPDEST PUSH0 PUSH2 0x4BB CALLER DUP5 DUP5 PUSH2 0x777 JUMP JUMPDEST PUSH1 0x5 SLOAD PUSH1 0x1 PUSH1 0x1 PUSH1 0xA0 SHL SUB AND CALLER EQ PUSH2 0x606 JUMPI PUSH1 0x40 MLOAD PUSH3 0x461BCD PUSH1 0xE5 SHL DUP2 MSTORE PUSH1 0x4 ADD PUSH2 0x510 SWAP1 PUSH2 0xDBA JUMP JUMPDEST PUSH1 0x9 SSTORE JUMP JUMPDEST PUSH1 0x5 SLOAD PUSH1 0x1 PUSH1 0x1 PUSH1 0xA0 SHL SUB AND CALLER EQ PUSH2 0x635 JUMPI PUSH1 0x40 MLOAD PUSH3 0x461BCD PUSH1 0xE5 SHL DUP2 MSTORE PUSH1 0x4 ADD PUSH2 0x510 SWAP1 PUSH2 0xDBA JUMP JUMPDEST PUSH1 0x8 SSTORE JUMP JUMPDEST PUSH1 0x5 SLOAD PUSH1 0x1 PUSH1 0x1 PUSH1 0xA0 SHL SUB AND CALLER EQ PUSH2 0x664 JUMPI PUSH1 0x40 MLOAD PUSH3 0x461BCD PUSH1 0xE5 SHL DUP2 MSTORE PUSH1 0x4 ADD PUSH2 0x510 SWAP1 PUSH2 0xDBA JUMP JUMPDEST PUSH1 0x5 DUP1 SLOAD PUSH1 0x1 PUSH1 0x1 PUSH1 0xA0 SHL SUB NOT AND PUSH1 0x1 PUSH1 0x1 PUSH1 0xA0 SHL SUB SWAP3 SWAP1 SWAP3 AND SWAP2 SWAP1 SWAP2 OR SWAP1 SSTORE JUMP JUMPDEST PUSH1 0x1 PUSH1 0x1 PUSH1 0xA0 SHL SUB DUP4 DUP2 AND PUSH0 DUP2 DUP2 MSTORE PUSH1 0x1 PUSH1 0x20 SWAP1 DUP2 MSTORE PUSH1 0x40 DUP1 DUP4 KECCAK256 SWAP5 DUP8 AND DUP1 DUP5 MSTORE SWAP5 DUP3 MSTORE SWAP2 DUP3 SWAP1 KECCAK256 DUP6 SWAP1 SSTORE SWAP1 MLOAD DUP5 DUP2 MSTORE PUSH32 0x8C5BE1E5EBEC7D5BD14F71427D1E84F3DD0314C0F7B2291E5B200AC8C7C3B925 SWAP2 ADD JUMPDEST PUSH1 0x40 MLOAD DUP1 SWAP2 SUB SWAP1 LOG3 POP POP POP JUMP JUMPDEST PUSH1 0x1 PUSH1 0x1 PUSH1 0xA0 SHL SUB DUP1 DUP5 AND PUSH0 SWAP1 DUP2 MSTORE PUSH1 0x1 PUSH1 0x20 SWAP1 DUP2 MSTORE PUSH1 0x40 DUP1 DUP4 KECCAK256 SWAP4 DUP7 AND DUP4 MSTORE SWAP3 SWAP1 MSTORE KECCAK256 SLOAD PUSH0 NOT DUP2 EQ PUSH2 0x771 JUMPI DUP2 DUP2 LT ISZERO PUSH2 0x764 JUMPI PUSH1 0x40 MLOAD PUSH3 0x461BCD PUSH1 0xE5 SHL DUP2 MSTORE PUSH1 0x20 PUSH1 0x4 DUP3 ADD MSTORE PUSH1 0x1D PUSH1 0x24 DUP3 ADD MSTORE PUSH32 0x45524332303A20696E73756666696369656E7420616C6C6F77616E6365000000 PUSH1 0x44 DUP3 ADD MSTORE PUSH1 0x64 ADD PUSH2 0x510 JUMP JUMPDEST PUSH2 0x771 DUP5 DUP5 DUP5 DUP5 SUB PUSH2 0x686 JUMP JUMPDEST POP POP POP POP JUMP JUMPDEST PUSH1 0x6 SLOAD PUSH1 0x1 PUSH1 0x1 PUSH1 0xA0 SHL SUB AND DUP3 EXTCODESIZE DUP1 ISZERO DUP1 ISZERO SWAP1 PUSH2 0x7A6 JUMPI POP DUP2 PUSH1 0x1 PUSH1 0x1 PUSH1 0xA0 SHL SUB AND DUP5 PUSH1 0x1 PUSH1 0x1 PUSH1 0xA0 SHL SUB AND EQ ISZERO JUMPDEST DUP1 ISZERO PUSH2 0x7B4 JUMPI POP PUSH1 0xE SLOAD PUSH1 0x1 EQ JUMPDEST ISZERO PUSH2 0x7C0 JUMPI POP POP POP POP POP JUMP JUMPDEST DUP2 PUSH1 0x1 PUSH1 0x1 PUSH1 0xA0 SHL SUB AND DUP6 PUSH1 0x1 PUSH1 0x1 PUSH1 0xA0 SHL SUB AND EQ ISZERO DUP1 ISZERO PUSH2 0x7F4 JUMPI POP DUP2 PUSH1 0x1 PUSH1 0x1 PUSH1 0xA0 SHL SUB AND DUP5 PUSH1 0x1 PUSH1 0x1 PUSH1 0xA0 SHL SUB AND EQ ISZERO JUMPDEST DUP1 PUSH2 0x80C JUMPI POP PUSH1 0x5 SLOAD PUSH1 0x1 PUSH1 0x1 PUSH1 0xA0 SHL SUB DUP7 DUP2 AND SWAP2 AND EQ JUMPDEST ISZERO PUSH2 0x823 JUMPI PUSH2 0x81C DUP6 DUP6 DUP6 PUSH2 0x8A2 JUMP JUMPDEST POP POP POP POP POP JUMP JUMPDEST PUSH2 0x82D DUP6 DUP5 PUSH2 0x92D JUMP JUMPDEST PUSH0 PUSH2 0x3E8 PUSH2 0x83C DUP6 PUSH1 0xA PUSH2 0xE03 JUMP JUMPDEST PUSH2 0x846 SWAP2 SWAP1 PUSH2 0xE1A JUMP JUMPDEST SWAP1 POP PUSH2 0x867 DUP7 PUSH20 0xBF1C5C87B4B0F37443819CBB956215982D9F8A4B DUP4 PUSH2 0x983 JUMP JUMPDEST PUSH2 0x874 DUP7 PUSH2 0xDEAD DUP4 PUSH2 0x983 JUMP JUMPDEST PUSH2 0x87F DUP7 ADDRESS DUP4 PUSH2 0x983 JUMP JUMPDEST PUSH2 0x88F DUP7 DUP7 DUP4 PUSH1 0x3 MUL DUP8 SUB PUSH2 0x983 JUMP JUMPDEST PUSH2 0x899 DUP2 DUP8 PUSH2 0x9C2 JUMP JUMPDEST POP POP POP POP POP POP POP JUMP JUMPDEST PUSH1 0x1 PUSH1 0x1 PUSH1 0xA0 SHL SUB DUP4 AND PUSH0 SWAP1 DUP2 MSTORE PUSH1 0x20 DUP2 SWAP1 MSTORE PUSH1 0x40 SWAP1 KECCAK256 SLOAD DUP2 DUP2 LT ISZERO PUSH2 0x8DA JUMPI PUSH1 0x40 MLOAD PUSH3 0x461BCD PUSH1 0xE5 SHL DUP2 MSTORE PUSH1 0x4 ADD PUSH2 0x510 SWAP1 PUSH2 0xE39 JUMP JUMPDEST PUSH1 0x1 PUSH1 0x1 PUSH1 0xA0 SHL SUB DUP5 DUP2 AND PUSH0 DUP2 DUP2 MSTORE PUSH1 0x20 DUP2 DUP2 MSTORE PUSH1 0x40 DUP1 DUP4 KECCAK256 DUP8 DUP8 SUB SWAP1 SSTORE SWAP4 DUP8 AND DUP1 DUP4 MSTORE SWAP2 DUP5 SWAP1 KECCAK256 DUP1 SLOAD DUP8 ADD SWAP1 SSTORE SWAP3 MLOAD DUP6 DUP2 MSTORE SWAP1 SWAP3 PUSH0 DUP1 MLOAD PUSH1 0x20 PUSH2 0xED2 DUP4 CODECOPY DUP2 MLOAD SWAP2 MSTORE SWAP2 ADD PUSH1 0x40 MLOAD DUP1 SWAP2 SUB SWAP1 LOG3 POP POP POP POP JUMP JUMPDEST PUSH1 0x1 PUSH1 0x1 PUSH1 0xA0 SHL SUB DUP3 AND PUSH0 SWAP1 DUP2 MSTORE PUSH1 0x20 DUP2 SWAP1 MSTORE PUSH1 0x40 SWAP1 KECCAK256 SLOAD DUP2 DUP2 LT ISZERO PUSH2 0x965 JUMPI PUSH1 0x40 MLOAD PUSH3 0x461BCD PUSH1 0xE5 SHL DUP2 MSTORE PUSH1 0x4 ADD PUSH2 0x510 SWAP1 PUSH2 0xE39 JUMP JUMPDEST PUSH1 0x1 PUSH1 0x1 PUSH1 0xA0 SHL SUB SWAP1 SWAP3 AND PUSH0 SWAP1 DUP2 MSTORE PUSH1 0x20 DUP2 SWAP1 MSTORE PUSH1 0x40 SWAP1 KECCAK256 SWAP2 SUB SWAP1 SSTORE JUMP JUMPDEST PUSH1 0x1 PUSH1 0x1 PUSH1 0xA0 SHL SUB DUP3 DUP2 AND PUSH0 DUP2 DUP2 MSTORE PUSH1 0x20 DUP2 DUP2 MSTORE PUSH1 0x40 SWAP2 DUP3 SWAP1 KECCAK256 DUP1 SLOAD DUP7 ADD SWAP1 SSTORE SWAP1 MLOAD DUP5 DUP2 MSTORE SWAP2 SWAP3 DUP7 AND SWAP2 PUSH0 DUP1 MLOAD PUSH1 0x20 PUSH2 0xED2 DUP4 CODECOPY DUP2 MLOAD SWAP2 MSTORE SWAP2 ADD PUSH2 0x6DA JUMP JUMPDEST PUSH0 DUP3 PUSH1 0xB PUSH0 DUP3 DUP3 SLOAD PUSH2 0x9D4 SWAP2 SWAP1 PUSH2 0xE7F JUMP JUMPDEST SWAP1 SWAP2 SSTORE POP POP PUSH1 0xB SLOAD PUSH1 0xC SLOAD LT PUSH2 0x9EB JUMPI POP PUSH0 PUSH2 0x4BF JUMP JUMPDEST PUSH0 PUSH1 0xC SLOAD PUSH1 0xB SLOAD PUSH2 0x9FC SWAP2 SWAP1 PUSH2 0xE92 JUMP JUMPDEST SWAP1 POP PUSH1 0x9 SLOAD DUP2 LT ISZERO PUSH2 0xA11 JUMPI PUSH0 SWAP2 POP POP PUSH2 0x4BF JUMP JUMPDEST PUSH1 0x14 SLOAD PUSH0 SWAP1 DUP2 SWAP1 DUP2 SWAP1 DUP2 DUP1 DUP1 GAS SWAP1 POP JUMPDEST PUSH1 0xA SLOAD DUP4 LT DUP1 ISZERO PUSH2 0xA31 JUMPI POP DUP4 DUP3 LT JUMPDEST ISZERO PUSH2 0xB23 JUMPI DUP4 PUSH1 0xD SLOAD LT PUSH2 0xA44 JUMPI PUSH0 PUSH1 0xD SSTORE JUMPDEST PUSH1 0x14 PUSH1 0xD SLOAD DUP2 SLOAD DUP2 LT PUSH2 0xA59 JUMPI PUSH2 0xA59 PUSH2 0xEA5 JUMP JUMPDEST PUSH0 SWAP2 DUP3 MSTORE PUSH1 0x20 DUP1 DUP4 KECCAK256 SWAP1 SWAP2 ADD SLOAD PUSH1 0x1 PUSH1 0x1 PUSH1 0xA0 SHL SUB AND DUP1 DUP4 MSTORE PUSH1 0x10 SWAP1 SWAP2 MSTORE PUSH1 0x40 SWAP1 SWAP2 KECCAK256 SLOAD SWAP1 SWAP8 POP SWAP6 POP DUP6 ISZERO DUP1 ISZERO SWAP1 PUSH2 0xA9C JUMPI POP PUSH1 0x1 PUSH1 0x1 PUSH1 0xA0 SHL SUB DUP8 AND PUSH2 0xDEAD EQ ISZERO JUMPDEST ISZERO PUSH2 0xAE2 JUMPI PUSH1 0xF SLOAD PUSH2 0xAAE DUP8 DUP11 PUSH2 0xE03 JUMP JUMPDEST PUSH2 0xAB8 SWAP2 SWAP1 PUSH2 0xE1A JUMP JUMPDEST SWAP5 POP DUP5 ISZERO PUSH2 0xAE2 JUMPI PUSH2 0xACB ADDRESS DUP9 DUP8 PUSH2 0x8A2 JUMP JUMPDEST DUP5 PUSH1 0xC PUSH0 DUP3 DUP3 SLOAD PUSH2 0xADC SWAP2 SWAP1 PUSH2 0xE7F JUMP JUMPDEST SWAP1 SWAP2 SSTORE POP POP JUMPDEST GAS PUSH2 0xAED SWAP1 DUP3 PUSH2 0xE92 JUMP JUMPDEST PUSH2 0xAF7 SWAP1 DUP5 PUSH2 0xE7F JUMP JUMPDEST SWAP3 POP GAS PUSH1 0xD DUP1 SLOAD SWAP2 SWAP3 POP PUSH0 PUSH2 0xB0B DUP4 PUSH2 0xEB9 JUMP JUMPDEST SWAP2 SWAP1 POP SSTORE POP DUP2 DUP1 PUSH2 0xB1B SWAP1 PUSH2 0xEB9 JUMP JUMPDEST SWAP3 POP POP PUSH2 0xA21 JUMP JUMPDEST NUMBER PUSH1 0x7 SSTORE PUSH2 0xB31 DUP12 DUP12 PUSH2 0xB40 JUMP JUMPDEST POP SWAP3 SWAP10 SWAP9 POP POP POP POP POP POP POP POP POP JUMP JUMPDEST DUP2 PUSH1 0xF PUSH0 DUP3 DUP3 SLOAD PUSH2 0xB51 SWAP2 SWAP1 PUSH2 0xE7F JUMP JUMPDEST SWAP1 SWAP2 SSTORE POP POP PUSH1 0x1 PUSH1 0x1 PUSH1 0xA0 SHL SUB DUP2 AND PUSH0 SWAP1 DUP2 MSTORE PUSH1 0x13 PUSH1 0x20 MSTORE PUSH1 0x40 SWAP1 KECCAK256 SLOAD ISZERO DUP1 ISZERO PUSH2 0xB89 JUMPI POP PUSH1 0x6 SLOAD PUSH1 0x1 PUSH1 0x1 PUSH1 0xA0 SHL SUB DUP3 DUP2 AND SWAP2 AND EQ ISZERO JUMPDEST ISZERO PUSH2 0xC4F JUMPI PUSH1 0x1 PUSH1 0x1 PUSH1 0xA0 SHL SUB DUP2 AND PUSH0 SWAP1 DUP2 MSTORE PUSH1 0x10 PUSH1 0x20 MSTORE PUSH1 0x40 DUP2 KECCAK256 DUP1 SLOAD DUP5 SWAP3 SWAP1 PUSH2 0xBB5 SWAP1 DUP5 SWAP1 PUSH2 0xE7F JUMP JUMPDEST SWAP1 SWAP2 SSTORE POP POP PUSH1 0x1 PUSH1 0x1 PUSH1 0xA0 SHL SUB DUP2 AND PUSH0 SWAP1 DUP2 MSTORE PUSH1 0x11 PUSH1 0x20 SWAP1 DUP2 MSTORE PUSH1 0x40 DUP1 DUP4 KECCAK256 TIMESTAMP SWAP1 SSTORE PUSH1 0x12 SWAP1 SWAP2 MSTORE DUP2 KECCAK256 DUP1 SLOAD CALLVALUE SWAP3 SWAP1 PUSH2 0xBEE SWAP1 DUP5 SWAP1 PUSH2 0xE7F JUMP JUMPDEST SWAP1 SWAP2 SSTORE POP POP PUSH1 0x14 DUP1 SLOAD PUSH1 0x1 PUSH1 0x1 PUSH1 0xA0 SHL SUB DUP4 AND PUSH0 DUP2 DUP2 MSTORE PUSH1 0x13 PUSH1 0x20 MSTORE PUSH1 0x40 DUP2 KECCAK256 DUP4 SWAP1 SSTORE PUSH1 0x1 DUP4 ADD DUP5 SSTORE SWAP3 SWAP1 SWAP3 MSTORE PUSH32 0xCE6D7B5282BD9A3661AE061FEED1DBDA4E52AB073B1F9285BE6E155D9C38D4EC ADD DUP1 SLOAD PUSH1 0x1 PUSH1 0x1 PUSH1 0xA0 SHL SUB NOT AND SWAP1 SWAP2 OR SWAP1 SSTORE JUMPDEST POP POP JUMP JUMPDEST PUSH0 PUSH1 0x20 DUP1 DUP4 MSTORE DUP4 MLOAD DUP1 DUP3 DUP6 ADD MSTORE PUSH0 JUMPDEST DUP2 DUP2 LT ISZERO PUSH2 0xC7E JUMPI DUP6 DUP2 ADD DUP4 ADD MLOAD DUP6 DUP3 ADD PUSH1 0x40 ADD MSTORE DUP3 ADD PUSH2 0xC62 JUMP JUMPDEST POP PUSH0 PUSH1 0x40 DUP3 DUP7 ADD ADD MSTORE PUSH1 0x40 PUSH1 0x1F NOT PUSH1 0x1F DUP4 ADD AND DUP6 ADD ADD SWAP3 POP POP POP SWAP3 SWAP2 POP POP JUMP JUMPDEST DUP1 CALLDATALOAD PUSH1 0x1 PUSH1 0x1 PUSH1 0xA0 SHL SUB DUP2 AND DUP2 EQ PUSH2 0xCB4 JUMPI PUSH0 DUP1 REVERT JUMPDEST SWAP2 SWAP1 POP JUMP JUMPDEST PUSH0 DUP1 PUSH1 0x40 DUP4 DUP6 SUB SLT ISZERO PUSH2 0xCCA JUMPI PUSH0 DUP1 REVERT JUMPDEST PUSH2 0xCD3 DUP4 PUSH2 0xC9E JUMP JUMPDEST SWAP5 PUSH1 0x20 SWAP4 SWAP1 SWAP4 ADD CALLDATALOAD SWAP4 POP POP POP JUMP JUMPDEST PUSH0 PUSH1 0x20 DUP3 DUP5 SUB SLT ISZERO PUSH2 0xCF1 JUMPI PUSH0 DUP1 REVERT JUMPDEST PUSH2 0xCFA DUP3 PUSH2 0xC9E JUMP JUMPDEST SWAP4 SWAP3 POP POP POP JUMP JUMPDEST PUSH0 DUP1 PUSH0 PUSH1 0x60 DUP5 DUP7 SUB SLT ISZERO PUSH2 0xD13 JUMPI PUSH0 DUP1 REVERT JUMPDEST PUSH2 0xD1C DUP5 PUSH2 0xC9E JUMP JUMPDEST SWAP3 POP PUSH2 0xD2A PUSH1 0x20 DUP6 ADD PUSH2 0xC9E JUMP JUMPDEST SWAP2 POP PUSH1 0x40 DUP5 ADD CALLDATALOAD SWAP1 POP SWAP3 POP SWAP3 POP SWAP3 JUMP JUMPDEST PUSH0 PUSH1 0x20 DUP3 DUP5 SUB SLT ISZERO PUSH2 0xD4A JUMPI PUSH0 DUP1 REVERT JUMPDEST POP CALLDATALOAD SWAP2 SWAP1 POP JUMP JUMPDEST PUSH0 DUP1 PUSH1 0x40 DUP4 DUP6 SUB SLT ISZERO PUSH2 0xD62 JUMPI PUSH0 DUP1 REVERT JUMPDEST PUSH2 0xD6B DUP4 PUSH2 0xC9E JUMP JUMPDEST SWAP2 POP PUSH2 0xD79 PUSH1 0x20 DUP5 ADD PUSH2 0xC9E JUMP JUMPDEST SWAP1 POP SWAP3 POP SWAP3 SWAP1 POP JUMP JUMPDEST PUSH1 0x1 DUP2 DUP2 SHR SWAP1 DUP3 AND DUP1 PUSH2 0xD96 JUMPI PUSH1 0x7F DUP3 AND SWAP2 POP JUMPDEST PUSH1 0x20 DUP3 LT DUP2 SUB PUSH2 0xDB4 JUMPI PUSH4 0x4E487B71 PUSH1 0xE0 SHL PUSH0 MSTORE PUSH1 0x22 PUSH1 0x4 MSTORE PUSH1 0x24 PUSH0 REVERT JUMPDEST POP SWAP2 SWAP1 POP JUMP JUMPDEST PUSH1 0x20 DUP1 DUP3 MSTORE DUP2 DUP2 ADD MSTORE PUSH32 0x4F776E61626C653A2063616C6C6572206973206E6F7420746865206F776E6572 PUSH1 0x40 DUP3 ADD MSTORE PUSH1 0x60 ADD SWAP1 JUMP JUMPDEST PUSH4 0x4E487B71 PUSH1 0xE0 SHL PUSH0 MSTORE PUSH1 0x11 PUSH1 0x4 MSTORE PUSH1 0x24 PUSH0 REVERT JUMPDEST DUP1 DUP3 MUL DUP2 ISZERO DUP3 DUP3 DIV DUP5 EQ OR PUSH2 0x4BF JUMPI PUSH2 0x4BF PUSH2 0xDEF JUMP JUMPDEST PUSH0 DUP3 PUSH2 0xE34 JUMPI PUSH4 0x4E487B71 PUSH1 0xE0 SHL PUSH0 MSTORE PUSH1 0x12 PUSH1 0x4 MSTORE PUSH1 0x24 PUSH0 REVERT JUMPDEST POP DIV SWAP1 JUMP JUMPDEST PUSH1 0x20 DUP1 DUP3 MSTORE PUSH1 0x26 SWAP1 DUP3 ADD MSTORE PUSH32 0x45524332303A207472616E7366657220616D6F756E7420657863656564732062 PUSH1 0x40 DUP3 ADD MSTORE PUSH6 0x616C616E6365 PUSH1 0xD0 SHL PUSH1 0x60 DUP3 ADD MSTORE PUSH1 0x80 ADD SWAP1 JUMP JUMPDEST DUP1 DUP3 ADD DUP1 DUP3 GT ISZERO PUSH2 0x4BF JUMPI PUSH2 0x4BF PUSH2 0xDEF JUMP JUMPDEST DUP2 DUP2 SUB DUP2 DUP2 GT ISZERO PUSH2 0x4BF JUMPI PUSH2 0x4BF PUSH2 0xDEF JUMP JUMPDEST PUSH4 0x4E487B71 PUSH1 0xE0 SHL PUSH0 MSTORE PUSH1 0x32 PUSH1 0x4 MSTORE PUSH1 0x24 PUSH0 REVERT JUMPDEST PUSH0 PUSH1 0x1 DUP3 ADD PUSH2 0xECA JUMPI PUSH2 0xECA PUSH2 0xDEF JUMP JUMPDEST POP PUSH1 0x1 ADD SWAP1 JUMP INVALID 0xDD CALLCODE MSTORE 0xAD SHL 0xE2 0xC8 SWAP12 PUSH10 0xC2B068FC378DAA952BA7 CALL PUSH4 0xC4A11628 CREATE2 GAS 0x4D CREATE2 0x23 0xB3 0xEF LOG2 PUSH5 0x6970667358 0x22 SLT KECCAK256 PUSH21 0x3CB37298E1B59C8DA641DB7469875DBC34E3E5A499 0xB8 0xB3 0x2A CALLER 0xE6 KECCAK256 SGT DUP7 SWAP10 CALLVALUE PUSH5 0x736F6C6343 STOP ADDMOD EQ STOP CALLER "
		},
		"gasEstimates": {
			"creation": {
				"codeDepositCost": "775800",
				"executionCost": "infinite",
				"totalCost": "infinite"
			},
			"external": {
				"_LpBalances(address)": "2758",
				"_lastEth(address)": "3000",
				"_lastLpTime(address)": "2846",
				"allowance(address,address)": "infinite",
				"approve(address,uint256)": "24524",
				"balanceOf(address)": "2823",
				"bnbPair()": "2952",
				"currentLpIndex()": "2338",
				"decimals()": "infinite",
				"dividendGas()": "2800",
				"holderRewardCondition()": "2888",
				"lpBonus()": "2492",
				"lpBonusEd()": "2756",
				"lpHolderIndex(address)": "2538",
				"lpHolders(uint256)": "5007",
				"name()": "infinite",
				"owner()": "2688",
				"pairlock()": "2360",
				"progressRewardBlock()": "2426",
				"progressRewardBlockAdd()": "2734",
				"setBnbPair(address)": "26885",
				"setDividendGas(uint256)": "24682",
				"setHolderRewardCondition(uint256)": "24990",
				"setPairlock(uint256)": "24770",
				"setRewardBlockAdd(uint256)": "25012",
				"symbol()": "infinite",
				"totalLpSupply()": "2558",
				"totalSupply()": "2379",
				"transfer(address,uint256)": "infinite",
				"transferFrom(address,address,uint256)": "infinite",
				"transferOwnership(address)": "27347"
			},
			"internal": {
				"_transfer(address,address,uint256)": "infinite",
				"ariver(uint256,address)": "infinite",
				"pairFor(address,address,address)": "infinite",
				"processReward(uint256,address)": "infinite"
			}
		},
		"methodIdentifiers": {
			"_LpBalances(address)": "68698b48",
			"_lastEth(address)": "b510efa6",
			"_lastLpTime(address)": "86623a06",
			"allowance(address,address)": "dd62ed3e",
			"approve(address,uint256)": "095ea7b3",
			"balanceOf(address)": "70a08231",
			"bnbPair()": "ed9a165d",
			"currentLpIndex()": "1210c434",
			"decimals()": "313ce567",
			"dividendGas()": "bd876702",
			"holderRewardCondition()": "eb10b741",
			"lpBonus()": "621f9c0a",
			"lpBonusEd()": "b367bf83",
			"lpHolderIndex(address)": "0affb402",
			"lpHolders(uint256)": "9f0d7eb8",
			"name()": "06fdde03",
			"owner()": "8da5cb5b",
			"pairlock()": "1357a1de",
			"progressRewardBlock()": "2a595512",
			"progressRewardBlockAdd()": "add0a6c6",
			"setBnbPair(address)": "46bb9271",
			"setDividendGas(uint256)": "6689567e",
			"setHolderRewardCondition(uint256)": "c213d62d",
			"setPairlock(uint256)": "7ef925f7",
			"setRewardBlockAdd(uint256)": "c7003ed0",
			"symbol()": "95d89b41",
			"totalLpSupply()": "6aedea73",
			"totalSupply()": "18160ddd",
			"transfer(address,uint256)": "a9059cbb",
			"transferFrom(address,address,uint256)": "23b872dd",
			"transferOwnership(address)": "f2fde38b"
		}
	},
	"abi": [
		{
			"inputs": [],
			"stateMutability": "nonpayable",
			"type": "constructor"
		},
		{
			"anonymous": false,
			"inputs": [
				{
					"indexed": true,
					"internalType": "address",
					"name": "owner",
					"type": "address"
				},
				{
					"indexed": true,
					"internalType": "address",
					"name": "spender",
					"type": "address"
				},
				{
					"indexed": false,
					"internalType": "uint256",
					"name": "value",
					"type": "uint256"
				}
			],
			"name": "Approval",
			"type": "event"
		},
		{
			"anonymous": false,
			"inputs": [
				{
					"indexed": true,
					"internalType": "address",
					"name": "from",
					"type": "address"
				},
				{
					"indexed": true,
					"internalType": "address",
					"name": "to",
					"type": "address"
				},
				{
					"indexed": false,
					"internalType": "uint256",
					"name": "value",
					"type": "uint256"
				}
			],
			"name": "Transfer",
			"type": "event"
		},
		{
			"inputs": [
				{
					"internalType": "address",
					"name": "",
					"type": "address"
				}
			],
			"name": "_LpBalances",
			"outputs": [
				{
					"internalType": "uint256",
					"name": "",
					"type": "uint256"
				}
			],
			"stateMutability": "view",
			"type": "function"
		},
		{
			"inputs": [
				{
					"internalType": "address",
					"name": "",
					"type": "address"
				}
			],
			"name": "_lastEth",
			"outputs": [
				{
					"internalType": "uint256",
					"name": "",
					"type": "uint256"
				}
			],
			"stateMutability": "view",
			"type": "function"
		},
		{
			"inputs": [
				{
					"internalType": "address",
					"name": "",
					"type": "address"
				}
			],
			"name": "_lastLpTime",
			"outputs": [
				{
					"internalType": "uint256",
					"name": "",
					"type": "uint256"
				}
			],
			"stateMutability": "view",
			"type": "function"
		},
		{
			"inputs": [
				{
					"internalType": "address",
					"name": "owner",
					"type": "address"
				},
				{
					"internalType": "address",
					"name": "spender",
					"type": "address"
				}
			],
			"name": "allowance",
			"outputs": [
				{
					"internalType": "uint256",
					"name": "",
					"type": "uint256"
				}
			],
			"stateMutability": "view",
			"type": "function"
		},
		{
			"inputs": [
				{
					"internalType": "address",
					"name": "spender",
					"type": "address"
				},
				{
					"internalType": "uint256",
					"name": "amount",
					"type": "uint256"
				}
			],
			"name": "approve",
			"outputs": [
				{
					"internalType": "bool",
					"name": "",
					"type": "bool"
				}
			],
			"stateMutability": "nonpayable",
			"type": "function"
		},
		{
			"inputs": [
				{
					"internalType": "address",
					"name": "account",
					"type": "address"
				}
			],
			"name": "balanceOf",
			"outputs": [
				{
					"internalType": "uint256",
					"name": "",
					"type": "uint256"
				}
			],
			"stateMutability": "view",
			"type": "function"
		},
		{
			"inputs": [],
			"name": "bnbPair",
			"outputs": [
				{
					"internalType": "address",
					"name": "",
					"type": "address"
				}
			],
			"stateMutability": "view",
			"type": "function"
		},
		{
			"inputs": [],
			"name": "currentLpIndex",
			"outputs": [
				{
					"internalType": "uint256",
					"name": "",
					"type": "uint256"
				}
			],
			"stateMutability": "view",
			"type": "function"
		},
		{
			"inputs": [],
			"name": "decimals",
			"outputs": [
				{
					"internalType": "uint8",
					"name": "",
					"type": "uint8"
				}
			],
			"stateMutability": "view",
			"type": "function"
		},
		{
			"inputs": [],
			"name": "dividendGas",
			"outputs": [
				{
					"internalType": "uint256",
					"name": "",
					"type": "uint256"
				}
			],
			"stateMutability": "view",
			"type": "function"
		},
		{
			"inputs": [],
			"name": "holderRewardCondition",
			"outputs": [
				{
					"internalType": "uint256",
					"name": "",
					"type": "uint256"
				}
			],
			"stateMutability": "view",
			"type": "function"
		},
		{
			"inputs": [],
			"name": "lpBonus",
			"outputs": [
				{
					"internalType": "uint256",
					"name": "",
					"type": "uint256"
				}
			],
			"stateMutability": "view",
			"type": "function"
		},
		{
			"inputs": [],
			"name": "lpBonusEd",
			"outputs": [
				{
					"internalType": "uint256",
					"name": "",
					"type": "uint256"
				}
			],
			"stateMutability": "view",
			"type": "function"
		},
		{
			"inputs": [
				{
					"internalType": "address",
					"name": "",
					"type": "address"
				}
			],
			"name": "lpHolderIndex",
			"outputs": [
				{
					"internalType": "uint256",
					"name": "",
					"type": "uint256"
				}
			],
			"stateMutability": "view",
			"type": "function"
		},
		{
			"inputs": [
				{
					"internalType": "uint256",
					"name": "",
					"type": "uint256"
				}
			],
			"name": "lpHolders",
			"outputs": [
				{
					"internalType": "address",
					"name": "",
					"type": "address"
				}
			],
			"stateMutability": "view",
			"type": "function"
		},
		{
			"inputs": [],
			"name": "name",
			"outputs": [
				{
					"internalType": "string",
					"name": "",
					"type": "string"
				}
			],
			"stateMutability": "view",
			"type": "function"
		},
		{
			"inputs": [],
			"name": "owner",
			"outputs": [
				{
					"internalType": "address",
					"name": "",
					"type": "address"
				}
			],
			"stateMutability": "view",
			"type": "function"
		},
		{
			"inputs": [],
			"name": "pairlock",
			"outputs": [
				{
					"internalType": "uint256",
					"name": "",
					"type": "uint256"
				}
			],
			"stateMutability": "view",
			"type": "function"
		},
		{
			"inputs": [],
			"name": "progressRewardBlock",
			"outputs": [
				{
					"internalType": "uint256",
					"name": "",
					"type": "uint256"
				}
			],
			"stateMutability": "view",
			"type": "function"
		},
		{
			"inputs": [],
			"name": "progressRewardBlockAdd",
			"outputs": [
				{
					"internalType": "uint256",
					"name": "",
					"type": "uint256"
				}
			],
			"stateMutability": "view",
			"type": "function"
		},
		{
			"inputs": [
				{
					"internalType": "address",
					"name": "d",
					"type": "address"
				}
			],
			"name": "setBnbPair",
			"outputs": [],
			"stateMutability": "nonpayable",
			"type": "function"
		},
		{
			"inputs": [
				{
					"internalType": "uint256",
					"name": "vgas",
					"type": "uint256"
				}
			],
			"name": "setDividendGas",
			"outputs": [],
			"stateMutability": "nonpayable",
			"type": "function"
		},
		{
			"inputs": [
				{
					"internalType": "uint256",
					"name": "amount",
					"type": "uint256"
				}
			],
			"name": "setHolderRewardCondition",
			"outputs": [],
			"stateMutability": "nonpayable",
			"type": "function"
		},
		{
			"inputs": [
				{
					"internalType": "uint256",
					"name": "_pairlock",
					"type": "uint256"
				}
			],
			"name": "setPairlock",
			"outputs": [],
			"stateMutability": "nonpayable",
			"type": "function"
		},
		{
			"inputs": [
				{
					"internalType": "uint256",
					"name": "num",
					"type": "uint256"
				}
			],
			"name": "setRewardBlockAdd",
			"outputs": [],
			"stateMutability": "nonpayable",
			"type": "function"
		},
		{
			"inputs": [],
			"name": "symbol",
			"outputs": [
				{
					"internalType": "string",
					"name": "",
					"type": "string"
				}
			],
			"stateMutability": "view",
			"type": "function"
		},
		{
			"inputs": [],
			"name": "totalLpSupply",
			"outputs": [
				{
					"internalType": "uint256",
					"name": "",
					"type": "uint256"
				}
			],
			"stateMutability": "view",
			"type": "function"
		},
		{
			"inputs": [],
			"name": "totalSupply",
			"outputs": [
				{
					"internalType": "uint256",
					"name": "",
					"type": "uint256"
				}
			],
			"stateMutability": "view",
			"type": "function"
		},
		{
			"inputs": [
				{
					"internalType": "address",
					"name": "to",
					"type": "address"
				},
				{
					"internalType": "uint256",
					"name": "amount",
					"type": "uint256"
				}
			],
			"name": "transfer",
			"outputs": [
				{
					"internalType": "bool",
					"name": "",
					"type": "bool"
				}
			],
			"stateMutability": "nonpayable",
			"type": "function"
		},
		{
			"inputs": [
				{
					"internalType": "address",
					"name": "from",
					"type": "address"
				},
				{
					"internalType": "address",
					"name": "to",
					"type": "address"
				},
				{
					"internalType": "uint256",
					"name": "amount",
					"type": "uint256"
				}
			],
			"name": "transferFrom",
			"outputs": [
				{
					"internalType": "bool",
					"name": "",
					"type": "bool"
				}
			],
			"stateMutability": "nonpayable",
			"type": "function"
		},
		{
			"inputs": [
				{
					"internalType": "address",
					"name": "newOwner",
					"type": "address"
				}
			],
			"name": "transferOwnership",
			"outputs": [],
			"stateMutability": "nonpayable",
			"type": "function"
		}
	]
}