{
	"data": {
		"bytecode": {
			"linkReferences": {},
			"object": "60806040526011805460ff1916600117905560146022819055602b553480156200002857600080fd5b5060405162004fb938038062004fb98339810160408190526200004b9162000ee8565b600080546001600160a01b031916339081178255604051909182917f8be0079c531659141344cd1fd0a4f28419497f9722a3daafe3b4186f6b6457e0908290a35083600081518110620000a257620000a26200108c565b602002602001015160059081620000ba919062001131565b5083600181518110620000d157620000d16200108c565b602002602001015160069081620000e9919062001131565b50816000815181106200010057620001006200108c565b6020026020010151600781905550816001815181106200012457620001246200108c565b6020026020010151600d81905550826000815181106200014857620001486200108c565b6020026020010151600360006101000a8154816001600160a01b0302191690836001600160a01b03160217905550826001815181106200018c576200018c6200108c565b6020026020010151600f60006101000a8154816001600160a01b0302191690836001600160a01b0316021790555082600281518110620001d057620001d06200108c565b6020026020010151600e60006101000a8154816001600160a01b0302191690836001600160a01b031602179055506000836003815181106200021657620002166200108c565b60200260200101519050836004815181106200023657620002366200108c565b6020026020010151601d60016101000a8154816001600160a01b0302191690836001600160a01b03160217905550826002815181106200027a576200027a6200108c565b6020026020010151600981905550816000815181106200029e576200029e6200108c565b6020026020010151602060146101000a81548160ff02191690831515021790555081600181518110620002d557620002d56200108c565b6020026020010151602060156101000a81548160ff021916908315150217905550816002815181106200030c576200030c6200108c565b6020026020010151602060166101000a81548160ff021916908315150217905550816003815181106200034357620003436200108c565b6020026020010151602060176101000a81548160ff021916908315150217905550816004815181106200037a576200037a6200108c565b6020026020010151602060186101000a81548160ff02191690831515021790555081600581518110620003b157620003b16200108c565b6020026020010151601d60006101000a81548160ff02191690831515021790555081600681518110620003e857620003e86200108c565b6020908102919091018101518154901515600160c81b0260ff60c81b19909116178155600080546001600160a01b03191632179055604080519182019052600f546001600160a01b031681526200044490602190600162000c7d565b50601d54600f546001600160a01b0390811661010090920416146200060557601d5460ff1615156000036200051757600e54604080516315ab88c960e31b815290516021926001600160a01b03169163ad5c46489160048083019260209291908290030181865afa158015620004be573d6000803e3d6000fd5b505050506040513d601f19601f82011682018060405250810190620004e49190620011fd565b81546001810183556000928352602090922090910180546001600160a01b0319166001600160a01b039092169190911790555b600e60009054906101000a90046001600160a01b03166001600160a01b031663ad5c46486040518163ffffffff1660e01b8152600401602060405180830381865afa1580156200056b573d6000803e3d6000fd5b505050506040513d601f19601f82011682018060405250810190620005919190620011fd565b601d5461010090046001600160a01b039081169116146200060557601d54602180546001810182556000919091527f3a6357012c1a3ae0a17d304c9920310382d968ebcc4b1771f41c6b304205b5700180546101009092046001600160a01b03166001600160a01b03199092169190911790555b600f54600e5460405163095ea7b360e01b81526001600160a01b039182166004820152600019602482015291169063095ea7b390604401600060405180830381600087803b1580156200065757600080fd5b505af11580156200066c573d6000803e3d6000fd5b5050306000908152600260209081526040808320600e80546001600160a01b039081168652918452828520600019905554825163c45a015560e01b8152925194965016935063c45a015592600480830193928290030181865afa158015620006d8573d6000803e3d6000fd5b505050506040513d601f19601f82011682018060405250810190620006fe9190620011fd565b600f546040516364e329cb60e11b81523060048201526001600160a01b03918216602482015291925082169063c9c65396906044016020604051808303816000875af115801562000753573d6000803e3d6000fd5b505050506040513d601f19601f82011682018060405250810190620007799190620011fd565b602080546001600160a01b0319166001600160a01b0392909216918217815560009182526010905260409020805460ff19166001179055835184906003908110620007c857620007c86200108c565b602002602001015160128190555083600481518110620007ec57620007ec6200108c565b6020026020010151601381905550836005815181106200081057620008106200108c565b6020026020010151601481905550836006815181106200083457620008346200108c565b6020026020010151601581905550836007815181106200085857620008586200108c565b6020026020010151601681905550836008815181106200087c576200087c6200108c565b602002602001015160178190555083600981518110620008a057620008a06200108c565b602002602001015160188190555083600a81518110620008c457620008c46200108c565b60200260200101516019819055506109c4601554601454601354601254620008ed919062001238565b620008f9919062001238565b62000905919062001238565b111580156200094557506109c46019546018546017546016546200092a919062001238565b62000936919062001238565b62000942919062001238565b11155b6200094f57600080fd5b83600b815181106200096557620009656200108c565b602002602001015160088190555083600c815181106200098957620009896200108c565b6020026020010151601c819055506005601c541115620009d75760405162461bcd60e51b8152602060048201526005602482015264213c3d203560d81b604482015260640160405180910390fd5b600d546001600160a01b038316600081815260016020908152604080832085905551938452919290917fddf252ad1be2c89b69c2b068fc378daa952ba7f163c4a11628f55a4df523b3ef910160405180910390a3600380546001600160a01b039081166000908152600a602081815260408084208054600160ff1991821681179092558987168087528387208054831684179055308088528488208054841685179055600e80548a16895285892080548516861790553389528589208054851686179055600c87528589208054851686179055995489168852848820805484168517905590875283872080548316841790559754871686528286208054821683179055835487168652828620805482168317905596855281852080548816821790557f45117a726ea4f344045dc210793664a28d2d320b7e03f6bffdae553d24c3586c8054881682179055602783527f552d06d8e69b1fc894b5bb152d5c34ccb2ea2834fd646ff017b1562d77bdb85a805488168217905561dead9094527f5b81ed81fd8c0839a30b67983eab49280895d3199fc1130fb03b7c33e425e0eb8054909616909317909455600f54825163313ce56760e01b81529251919493169263313ce56792600480820193918290030181865afa15801562000bbe573d6000803e3d6000fd5b505050506040513d601f19601f8201168201806040525081019062000be4919062001254565b62000bf190600a6200136b565b62000bfd919062001379565b602955600f546040516001600160a01b039091169062000c1d9062000ce7565b6001600160a01b039091168152602001604051809103906000f08015801562000c4a573d6000803e3d6000fd5b50601160026101000a8154816001600160a01b0302191690836001600160a01b031602179055505050505050506200139c565b82805482825590600052602060002090810192821562000cd5579160200282015b8281111562000cd557825182546001600160a01b0319166001600160a01b0390911617825560209092019160019091019062000c9e565b5062000ce392915062000cf5565b5090565b61010b8062004eae83390190565b5b8082111562000ce3576000815560010162000cf6565b634e487b7160e01b600052604160045260246000fd5b604051601f8201601f191681016001600160401b038111828210171562000d4d5762000d4d62000d0c565b604052919050565b60006001600160401b0382111562000d715762000d7162000d0c565b5060051b60200190565b80516001600160a01b038116811462000d9357600080fd5b919050565b600082601f83011262000daa57600080fd5b8151602062000dc362000dbd8362000d55565b62000d22565b82815260059290921b8401810191818101908684111562000de357600080fd5b8286015b8481101562000e095762000dfb8162000d7b565b835291830191830162000de7565b509695505050505050565b600082601f83011262000e2657600080fd5b8151602062000e3962000dbd8362000d55565b82815260059290921b8401810191818101908684111562000e5957600080fd5b8286015b8481101562000e09578051835291830191830162000e5d565b600082601f83011262000e8857600080fd5b8151602062000e9b62000dbd8362000d55565b82815260059290921b8401810191818101908684111562000ebb57600080fd5b8286015b8481101562000e09578051801515811462000eda5760008081fd5b835291830191830162000ebf565b6000806000806080858703121562000eff57600080fd5b84516001600160401b038082111562000f1757600080fd5b818701915087601f83011262000f2c57600080fd5b8151602062000f3f62000dbd8362000d55565b82815260059290921b8401810191818101908b84111562000f5f57600080fd5b8286015b848110156200100c5780518681111562000f7c57600080fd5b8701603f81018e1362000f8e57600080fd5b848101518781111562000fa55762000fa562000d0c565b62000fb9601f8201601f1916870162000d22565b8181528f604083850101111562000fd05760008081fd5b60005b8281101562000ff15783810160400151828201890152870162000fd3565b50600091810187019190915284525091830191830162000f63565b50918a01519198509093505050808211156200102757600080fd5b620010358883890162000d98565b945060408701519150808211156200104c57600080fd5b6200105a8883890162000e14565b935060608701519150808211156200107157600080fd5b50620010808782880162000e76565b91505092959194509250565b634e487b7160e01b600052603260045260246000fd5b600181811c90821680620010b757607f821691505b602082108103620010d857634e487b7160e01b600052602260045260246000fd5b50919050565b601f8211156200112c57600081815260208120601f850160051c81016020861015620011075750805b601f850160051c820191505b81811015620011285782815560010162001113565b5050505b505050565b81516001600160401b038111156200114d576200114d62000d0c565b62001165816200115e8454620010a2565b84620010de565b602080601f8311600181146200119d5760008415620011845750858301515b600019600386901b1c1916600185901b17855562001128565b600085815260208120601f198616915b82811015620011ce57888601518255948401946001909101908401620011ad565b5085821015620011ed5787850151600019600388901b60f8161c191681555b5050505050600190811b01905550565b6000602082840312156200121057600080fd5b6200121b8262000d7b565b9392505050565b634e487b7160e01b600052601160045260246000fd5b808201808211156200124e576200124e62001222565b92915050565b6000602082840312156200126757600080fd5b5051919050565b600181815b80851115620012af57816000190482111562001293576200129362001222565b80851615620012a157918102915b93841c939080029062001273565b509250929050565b600082620012c8575060016200124e565b81620012d7575060006200124e565b8160018114620012f05760028114620012fb576200131b565b60019150506200124e565b60ff8411156200130f576200130f62001222565b50506001821b6200124e565b5060208310610133831016604e8410600b841016171562001340575081810a6200124e565b6200134c83836200126e565b806000190482111562001363576200136362001222565b029392505050565b60006200121b8383620012b7565b6000826200139757634e487b7160e01b600052601260045260246000fd5b500490565b613b0280620013ac6000396000f3fe6080604052600436106103ad5760003560e01c806370a08231116101e557806370a0823114610898578063715018a6146108b857806379dc880c146108cd5780637db1342c146108ed57806385dc30041461090d578063869175241461092d5780638718b24f146109435780638c2fc7ad146109695780638da5cb5b146109895780638f6cd17d146109a757806395d89b41146109bd578063992db38f146109d25780639cc0e3c7146109e7578063a842486114610a07578063a9059cbb14610a27578063aa4bde2814610a47578063aa582b4214610a5d578063adc7955d14610a7d578063b02d757f14610a93578063b60368fc14610ab4578063b9fbc49d14610ad4578063bab01f4c14610aea578063bba30f8f14610b0a578063bd25bf2914610b2a578063be4fe9a514610b5a578063bfc3137e14610b70578063c213d62d14610b86578063c92d567e14610ba6578063ce0192f914610bc7578063d598643314610bdd578063dd62ed3e14610bfe578063e32759cf14610c44578063e5a6b10f14610c5a578063e5c2b0a614610c7a578063e82bef2914610c9a578063ea10510e14610cba578063eb10b74114610cda578063edb1bcd914610cf0578063ef6e4f1714610d10578063f2fde38b14610d26578063f7c618c114610d4657600080fd5b806301339c21146103b957806301986fad146103d057806303da2b231461041557806305833c2b14610436578063060e304e1461045657806306fdde031461047657806307313d8d1461049857806307c3adf0146104b8578063095ea7b3146104dc5780630f890b86146104fc57806314a432c914610511578063150e4c471461053157806315d07d821461055157806318160ddd1461056b5780631846a5a41461058057806318d12855146105a15780631dbbaebd146105b6578063206c17bb146105d65780632381d95d1461060357806323b872dd14610623578063255412d9146106435780632dab693f14610659578063313ce5671461066f57806335c960891461068457806337d0a1c91461069e5780633b1cd187146106be5780633bb82eb6146106d45780633bfe62ca146106f45780633c11100d1461070a57806340aa81fe1461073a5780634188bf5a1461076a5780634482004e1461078a5780634d5ce038146107a05780634ea6037c146107c0578063553193ca146107e05780635a7ba73c146107f65780636108a3db14610817578063621823e6146108375780636402511e1461084d578063697cfc191461086d5780636b6113681461088257600080fd5b366103b457005b600080fd5b3480156103c557600080fd5b506103ce610d6b565b005b3480156103dc57600080fd5b506104006103eb36600461352d565b600a6020526000908152604090205460ff1681565b60405190151581526020015b60405180910390f35b34801561042157600080fd5b5060205461040090600160b81b900460ff1681565b34801561044257600080fd5b506103ce61045136600461355f565b610ddd565b34801561046257600080fd5b506103ce610471366004613598565b610e32565b34801561048257600080fd5b5061048b610ea2565b60405161040c91906135b1565b3480156104a457600080fd5b506103ce6104b33660046135ff565b610f34565b3480156104c457600080fd5b506104ce60145481565b60405190815260200161040c565b3480156104e857600080fd5b506103ce6104f736600461361c565b610f7c565b34801561050857600080fd5b506103ce610f8b565b34801561051d57600080fd5b506103ce61052c366004613598565b610fc4565b34801561053d57600080fd5b506103ce61054c366004613693565b610ff3565b34801561055d57600080fd5b50601d546104009060ff1681565b34801561057757600080fd5b50600d546104ce565b34801561058c57600080fd5b5060205461040090600160c81b900460ff1681565b3480156105ad57600080fd5b506103ce611094565b3480156105c257600080fd5b506103ce6105d13660046136e9565b6110c5565b3480156105e257600080fd5b50600e546105f6906001600160a01b031681565b60405161040c919061372a565b34801561060f57600080fd5b506004546105f6906001600160a01b031681565b34801561062f57600080fd5b506103ce61063e36600461373e565b6111de565b34801561064f57600080fd5b506104ce60155481565b34801561066557600080fd5b506104ce60085481565b34801561067b57600080fd5b506007546104ce565b34801561069057600080fd5b506011546104009060ff1681565b3480156106aa57600080fd5b506103ce6106b93660046135ff565b61126d565b3480156106ca57600080fd5b506104ce601a5481565b3480156106e057600080fd5b506103ce6106ef366004613598565b6112b5565b34801561070057600080fd5b506104ce60165481565b34801561071657600080fd5b5061040061072536600461352d565b60106020526000908152604090205460ff1681565b34801561074657600080fd5b5061040061075536600461352d565b600c6020526000908152604090205460ff1681565b34801561077657600080fd5b506020546105f6906001600160a01b031681565b34801561079657600080fd5b506104ce601f5481565b3480156107ac57600080fd5b506104ce6107bb36600461352d565b6112e4565b3480156107cc57600080fd5b506103ce6107db36600461352d565b61131a565b3480156107ec57600080fd5b506104ce601e5481565b34801561080257600080fd5b5060205461040090600160a81b900460ff1681565b34801561082357600080fd5b506103ce610832366004613693565b611366565b34801561084357600080fd5b506104ce602b5481565b34801561085957600080fd5b506103ce610868366004613598565b611435565b34801561087957600080fd5b506103ce611464565b34801561088e57600080fd5b506104ce60195481565b3480156108a457600080fd5b506104ce6108b336600461352d565b61149d565b3480156108c457600080fd5b506103ce611546565b3480156108d957600080fd5b506103ce6108e8366004613598565b6115a8565b3480156108f957600080fd5b506103ce610908366004613598565b611612565b34801561091957600080fd5b506103ce61092836600461352d565b611641565b34801561093957600080fd5b506104ce60235481565b34801561094f57600080fd5b506011546105f6906201000090046001600160a01b031681565b34801561097557600080fd5b506103ce61098436600461355f565b6116e9565b34801561099557600080fd5b506000546001600160a01b03166105f6565b3480156109b357600080fd5b506104ce60225481565b3480156109c957600080fd5b5061048b61173e565b3480156109de57600080fd5b506103ce61174d565b3480156109f357600080fd5b506105f6610a02366004613598565b61178a565b348015610a1357600080fd5b506103ce610a2236600461355f565b6117b4565b348015610a3357600080fd5b50610400610a4236600461361c565b611809565b348015610a5357600080fd5b506104ce60095481565b348015610a6957600080fd5b506103ce610a783660046136e9565b611820565b348015610a8957600080fd5b506104ce60175481565b348015610a9f57600080fd5b5060205461040090600160b01b900460ff1681565b348015610ac057600080fd5b506103ce610acf36600461361c565b611a35565b348015610ae057600080fd5b506104ce60135481565b348015610af657600080fd5b506103ce610b0536600461352d565b611b3a565b348015610b1657600080fd5b506103ce610b25366004613598565b611b86565b348015610b3657600080fd5b50610400610b4536600461352d565b600b6020526000908152604090205460ff1681565b348015610b6657600080fd5b506104ce60185481565b348015610b7c57600080fd5b506104ce601b5481565b348015610b9257600080fd5b506103ce610ba1366004613598565b611bf1565b348015610bb257600080fd5b5060205461040090600160a01b900460ff1681565b348015610bd357600080fd5b506104ce60125481565b348015610be957600080fd5b5060205461040090600160c01b900460ff1681565b348015610c0a57600080fd5b506104ce610c1936600461377f565b6001600160a01b03918216600090815260026020908152604080832093909416825291909152205490565b348015610c5057600080fd5b506104ce601c5481565b348015610c6657600080fd5b50600f546105f6906001600160a01b031681565b348015610c8657600080fd5b506103ce610c95366004613598565b611c20565b348015610ca657600080fd5b506003546105f6906001600160a01b031681565b348015610cc657600080fd5b506103ce610cd53660046135ff565b611c88565b348015610ce657600080fd5b506104ce60295481565b348015610cfc57600080fd5b506103ce610d0b36600461352d565b611cc5565b348015610d1c57600080fd5b506104ce60245481565b348015610d3257600080fd5b506103ce610d4136600461352d565b611d17565b348015610d5257600080fd5b50601d546105f69061010090046001600160a01b031681565b6000546001600160a01b03163314610d9e5760405162461bcd60e51b8152600401610d95906137ad565b60405180910390fd5b601e5415610dd75760405162461bcd60e51b81526020600482015260066024820152651bdc195b995960d21b6044820152606401610d95565b43601e55565b6000546001600160a01b03163314610e075760405162461bcd60e51b8152600401610d95906137ad565b6001600160a01b03919091166000908152602760205260409020805460ff1916911515919091179055565b6000546001600160a01b03163314610e5c5760405162461bcd60e51b8152600401610d95906137ad565b80600003610e9d5760405162461bcd60e51b815260206004820152600e60248201526d067726561746572207468616e20360941b6044820152606401610d95565b602255565b606060058054610eb1906137cd565b80601f0160208091040260200160405190810160405280929190818152602001828054610edd906137cd565b8015610f2a5780601f10610eff57610100808354040283529160200191610f2a565b820191906000526020600020905b815481529060010190602001808311610f0d57829003601f168201915b5050505050905090565b6000546001600160a01b03163314610f5e5760405162461bcd60e51b8152600401610d95906137ad565b60208054911515600160c81b0260ff60c81b19909216919091179055565b610f87338383611dcb565b5050565b6000546001600160a01b03163314610fb55760405162461bcd60e51b8152600401610d95906137ad565b6020805460ff60c01b19169055565b6000546001600160a01b03163314610fee5760405162461bcd60e51b8152600401610d95906137ad565b600855565b6000546001600160a01b0316331461101d5760405162461bcd60e51b8152600401610d95906137ad565b60005b8281101561108e5781600a600086868581811061103f5761103f613807565b9050602002016020810190611054919061352d565b6001600160a01b031681526020810191909152604001600020805460ff19169115159190911790558061108681613833565b915050611020565b50505050565b6000546001600160a01b031633146110be5760405162461bcd60e51b8152600401610d95906137ad565b6000601f55565b6000546001600160a01b031633146110ef5760405162461bcd60e51b8152600401610d95906137ad565b60005b818110156111d9576020546000906001600160a01b03166370a0823185858581811061112057611120613807565b9050602002016020810190611135919061352d565b6040518263ffffffff1660e01b8152600401611151919061372a565b602060405180830381865afa15801561116e573d6000803e3d6000fd5b505050506040513d601f19601f82011682018060405250810190611192919061384c565b11156111c7576111c78383838181106111ad576111ad613807565b90506020020160208101906111c2919061352d565b611e2d565b806111d181613833565b9150506110f2565b505050565b6111e9838383611efd565b6001600160a01b0383166000908152600260209081526040808320338452909152902054600019146111d9576001600160a01b0383166000908152600260209081526040808320338452909152902054611244908290613865565b6001600160a01b0384166000908152600260209081526040808320338452909152902055505050565b6000546001600160a01b031633146112975760405162461bcd60e51b8152600401610d95906137ad565b60208054911515600160a01b0260ff60a01b19909216919091179055565b6000546001600160a01b031633146112df5760405162461bcd60e51b8152600401610d95906137ad565b602b55565b6001600160a01b0381166000908152600b602052604081205460ff161561130d57506001919050565b506000919050565b919050565b6000546001600160a01b031633146113445760405162461bcd60e51b8152600401610d95906137ad565b600f80546001600160a01b0319166001600160a01b0392909216919091179055565b6000546001600160a01b031633146113905760405162461bcd60e51b8152600401610d95906137ad565b602054600160b01b900460ff166113b95760405162461bcd60e51b8152600401610d9590613878565b60c982106113c657600080fd5b60005b8281101561108e5781600b60008686858181106113e8576113e8613807565b90506020020160208101906113fd919061352d565b6001600160a01b031681526020810191909152604001600020805460ff191691151591909117905561142e81613833565b90506113c9565b6000546001600160a01b0316331461145f5760405162461bcd60e51b8152600401610d95906137ad565b602355565b6000546001600160a01b0316331461148e5760405162461bcd60e51b8152600401610d95906137ad565b6020805460ff60b81b19169055565b6020546000906001600160a01b0383811691161480156114c757506020546001600160a01b031633145b80156114d5575060115460ff165b1561152a57602080546001600160a01b031660009081526001909152604090205461152a5760405162461bcd60e51b81526020600482015260056024820152642173796e6360d81b6044820152606401610d95565b506001600160a01b031660009081526001602052604090205490565b6000546001600160a01b031633146115705760405162461bcd60e51b8152600401610d95906137ad565b600080546040516001600160a01b0390911690600080516020613a8d833981519152908390a3600080546001600160a01b0319169055565b6000546001600160a01b031633146115d25760405162461bcd60e51b8152600401610d95906137ad565b6109c481111561160d5760405162461bcd60e51b8152600401610d95906020808252600490820152633e32352160e01b604082015260600190565b601a55565b6000546001600160a01b0316331461163c5760405162461bcd60e51b8152600401610d95906137ad565b600955565b6000546001600160a01b0316331461166b5760405162461bcd60e51b8152600401610d95906137ad565b803b63ffffffff16156116af5760405162461bcd60e51b815260206004820152600c60248201526b037379031b7b73a3930b1ba160a51b6044820152606401610d95565b600380546001600160a01b039092166001600160a01b0319909216821790556000908152600a60205260409020805460ff19166001179055565b6000546001600160a01b031633146117135760405162461bcd60e51b8152600401610d95906137ad565b6001600160a01b03919091166000908152600c60205260409020805460ff1916911515919091179055565b606060068054610eb1906137cd565b6000546001600160a01b031633146117775760405162461bcd60e51b8152600401610d95906137ad565b601f541561178457600080fd5b43601f55565b6021818154811061179a57600080fd5b6000918252602090912001546001600160a01b0316905081565b6000546001600160a01b031633146117de5760405162461bcd60e51b8152600401610d95906137ad565b6001600160a01b03919091166000908152601060205260409020805460ff1916911515919091179055565b6000611816338484611efd565b5060015b92915050565b6000546001600160a01b0316331461184a5760405162461bcd60e51b8152600401610d95906137ad565b602054600160c01b900460ff166118735760405162461bcd60e51b8152600401610d9590613878565b8181600081811061188657611886613807565b602002919091013560125550818160018181106118a5576118a5613807565b602002919091013560135550818160028181106118c4576118c4613807565b602002919091013560145550818160038181106118e3576118e3613807565b6020029190910135601555508181600481811061190257611902613807565b6020029190910135601655508181600581811061192157611921613807565b6020029190910135601755508181600681811061194057611940613807565b6020029190910135601855508181600781811061195f5761195f613807565b905060200201356019819055506109c4601554601254601354601454611985919061389a565b61198f919061389a565b611999919061389a565b106119d05760405162461bcd60e51b8152602060048201526007602482015266627579213c323560c81b6044820152606401610d95565b6109c46019546016546017546018546119e9919061389a565b6119f3919061389a565b6119fd919061389a565b10610f875760405162461bcd60e51b815260206004820152600860248201526773656c6c213c323560c01b6044820152606401610d95565b6000546001600160a01b0316331480611a5857506003546001600160a01b031633145b611a8e5760405162461bcd60e51b815260206004820152600760248201526610a33ab73232b960c91b6044820152606401610d95565b6001600160a01b038216611ac957604051339082156108fc029083906000818181858888f193505050501580156111d9573d6000803e3d6000fd5b60405163a9059cbb60e01b81526001600160a01b0383169063a9059cbb90611af790339085906004016138ad565b6020604051808303816000875af1158015611b16573d6000803e3d6000fd5b505050506040513d601f19601f820116820180604052508101906111d991906138c6565b6000546001600160a01b03163314611b645760405162461bcd60e51b8152600401610d95906137ad565b600480546001600160a01b0319166001600160a01b0392909216919091179055565b6000546001600160a01b03163314611bb05760405162461bcd60e51b8152600401610d95906137ad565b612710811115611bec5760405162461bcd60e51b81526020600482015260076024820152663e31303030302160c81b6044820152606401610d95565b601b55565b6000546001600160a01b03163314611c1b5760405162461bcd60e51b8152600401610d95906137ad565b602955565b6000546001600160a01b03163314611c4a5760405162461bcd60e51b8152600401610d95906137ad565b6005811115611c835760405162461bcd60e51b8152602060048201526005602482015264213c3d203560d81b6044820152606401610d95565b601c55565b6000546001600160a01b03163314611cb25760405162461bcd60e51b8152600401610d95906137ad565b6011805460ff1916911515919091179055565b6000546001600160a01b03163314611cef5760405162461bcd60e51b8152600401610d95906137ad565b601d80546001600160a01b0390921661010002610100600160a81b0319909216919091179055565b6000546001600160a01b03163314611d415760405162461bcd60e51b8152600401610d95906137ad565b6001600160a01b038116611d825760405162461bcd60e51b815260206004820152600860248201526706e657720697320360c41b6044820152606401610d95565b600080546040516001600160a01b0380851693921691600080516020613a8d83398151915291a3600080546001600160a01b0319166001600160a01b0392909216919091179055565b6001600160a01b0383811660008181526002602090815260408083209487168084529482529182902085905590518481527f8c5be1e5ebec7d5bd14f71427d1e84f3dd0314c0f7b2291e5b200ac8c7c3b92591015b60405180910390a3505050565b803b8015611e39575050565b6001600160a01b0382166000908152602660205260408120549003610f87576025541580611e985750816001600160a01b03166025600081548110611e8057611e80613807565b6000918252602090912001546001600160a01b031614155b15610f8757602580546001600160a01b0384166000818152602660205260408120839055600183018455929092527f401968ff42a154441da5f6c4c935ac46b8671f0e062baaa62a7545ba53bb6e4c0180546001600160a01b03191690911790555050565b80611f078461149d565b1015611f485760405162461bcd60e51b815260206004820152601060248201526f0c4c2d8c2dcc6ca9cdee88adcdeeaced60831b6044820152606401610d95565b611f51836112e4565b15611f905760405162461bcd60e51b815260206004820152600f60248201526e697352657761726420213d2030202160881b6044820152606401610d95565b6001600160a01b03821660009081526010602052604081205481908190819060ff1615611fc657611fbf612428565b9050611ff2565b6001600160a01b03871660009081526010602052604090205460ff1615611ff257611fef61254d565b91505b601e5415801561200b5750602054600160a01b900460ff165b156120ea576001600160a01b0387166000908152600a602052604090205460ff1615801561205257506001600160a01b0386166000908152600a602052604090205460ff16155b801561207757506001600160a01b03871660009081526010602052604090205460ff16155b801561209c57506001600160a01b03861660009081526010602052604090205460ff16155b156120ea57853b63ffffffff16156120ea5760405162461bcd60e51b8152602060048201526011602482015270063616e7420616464206f74686572206c7607c1b6044820152606401610d95565b6001600160a01b03871660009081526010602052604090205460ff168061212957506001600160a01b03861660009081526010602052604090205460ff165b156123e5576001600160a01b0387166000908152600a602052604090205460ff1615801561217057506001600160a01b0386166000908152600a602052604090205460ff16155b156123bf57602054600160a01b900460ff16156121ad57601e54151580806121a25750601f5460001080156121a25750815b6121ab57600080fd5b505b602054600160a01b900460ff1680156121cf5750602054600160a81b900460ff165b80156121e95750600854601e546121e6919061389a565b43105b801561220e57506001600160a01b03861660009081526010602052604090205460ff16155b15612237576001600160a01b0386166000908152600b60205260409020805460ff191660011790555b602054600160c81b900460ff16801561225257506000601c54115b156122d6576000805b601c548110156122b95760408051602081018390529081018890524260608201526080016040516020818303038152906040528051906020012060001c91506122a689836001612672565b50806122b181613833565b91505061225b565b50601c546122c89060016138e3565b6122d29087613865565b9550505b6001600160a01b03861660009081526010602052604090205460ff16156123a957601154610100900460ff1615801561230d575080155b156123a957600061231d3061149d565b90506023548111156123a7576000601754601854601654601354601454601254612347919061389a565b612351919061389a565b61235b919061389a565b612365919061389a565b61236f919061389a565b9050600060646022548961238391906138e3565b61238d91906138fa565b90508281111561239a5750815b6123a48183612715565b50505b505b801580156123b5575081155b156123bf57600193505b6001600160a01b03861660009081526010602052604090205460ff16156123e557600192505b6123f487878787878688612d57565b6001600160a01b038716301461241f5782156124135761241387611e2d565b61241f6205573061305b565b50505050505050565b60205460408051630240bc6b60e21b815290516000926001600160a01b031691839182918491630902f1ac916004808201926060929091908290030181865afa158015612479573d6000803e3d6000fd5b505050506040513d601f19601f8201168201806040525081019061249d9190613933565b50600f546001600160701b039283169450911691506001600160a01b03166000308210156124cc5750826124cf565b50815b6040516370a0823160e01b81526000906001600160a01b038416906370a08231906124fe90899060040161372a565b602060405180830381865afa15801561251b573d6000803e3d6000fd5b505050506040513d601f19601f8201168201806040525081019061253f919061384c565b919091119695505050505050565b60205460408051630240bc6b60e21b815290516000926001600160a01b031691839182918491630902f1ac916004808201926060929091908290030181865afa15801561259e573d6000803e3d6000fd5b505050506040513d601f19601f820116820180604052508101906125c29190613933565b50600f546001600160701b039283169450911691506001600160a01b03166000308210156125f15750826125f4565b50815b6040516370a0823160e01b81526000906001600160a01b038416906370a082319061262390899060040161372a565b602060405180830381865afa158015612640573d6000803e3d6000fd5b505050506040513d601f19601f82011682018060405250810190612664919061384c565b909110159695505050505050565b6001600160a01b03831660009081526001602052604081208054839190839061269c908490613865565b90915550506001600160a01b038316600090815260016020526040812080548492906126c990849061389a565b92505081905550826001600160a01b0316846001600160a01b0316600080516020613aad8339815191528460405161270391815260200190565b60405180910390a35060019392505050565b6011805461ff00191661010017905580158061272f575081155b612d48576000601354601754612745919061389a565b9050600082600261275684876138e3565b61276091906138fa565b61276a91906138fa565b905060006127796002846138fa565b6127839085613865565b600f546040805160028082526060820183529394506001600160a01b03909216926000929160208301908036833701905050905030816000815181106127cb576127cb613807565b6001600160a01b039283166020918202929092010152600f548251911690829060019081106127fc576127fc613807565b6001600160a01b039283166020918202929092010152600e5416635c11d795612825868a613865565b60115460405160e084901b6001600160e01b0319168152612860929160009187916201000090046001600160a01b0316904290600401613978565b600060405180830381600087803b15801561287a57600080fd5b505af192505050801561288b575060015b6128b25760405160008152600080516020613a6d8339815191529060200160405180910390a15b6011546040516370a0823160e01b81526000916001600160a01b03808616926370a08231926128ec9262010000909104169060040161372a565b602060405180830381865afa158015612909573d6000803e3d6000fd5b505050506040513d601f19601f8201168201806040525081019061292d919061384c565b905080156129a8576011546040516323b872dd60e01b8152620100009091046001600160a01b039081166004830152306024830152604482018390528416906323b872dd90606401600060405180830381600087803b15801561298f57600080fd5b505af11580156129a3573d6000803e3d6000fd5b505050505b60008460026129b789856138e3565b6129c191906138fa565b6129cb91906138fa565b90506000856016546012546129e0919061389a565b6129ea90856138e3565b6129f491906138fa565b90508015612b3657601d5460ff1615612aa557600f54604051632e1a7d4d60e01b8152600481018390526001600160a01b0390911690632e1a7d4d90602401600060405180830381600087803b158015612a4d57600080fd5b505af1158015612a61573d6000803e3d6000fd5b50506003546040516001600160a01b03909116925083156108fc02915083906000818181858888f19350505050158015612a9f573d6000803e3d6000fd5b50612b1e565b60035460405163a9059cbb60e01b81526001600160a01b038781169263a9059cbb92612ad9929091169085906004016138ad565b6020604051808303816000875af1158015612af8573d6000803e3d6000fd5b505050506040513d601f19601f82011682018060405250810190612b1c91906138c6565b505b8060246000828254612b30919061389a565b90915550505b600087118015612b465750600082115b15612c1e57600e54600f5460035460405162e8e33760e81b81523060048201526001600160a01b039283166024820152604481018b90526064810186905260006084820181905260a482015290821660c48201524260e482015291169063e8e3370090610104016060604051808303816000875af1925050508015612be8575060408051601f3d908101601f19168201909252612be5918101906139e9565b60015b612c1a576040517f6c331c730efd7c7d973857825b7c7b2087a7dad2124068053cb23fb17801604990600090a1612c1e565b5050505b601854601454612c2e919061389a565b600003612c42575050505050505050612d48565b602154600114612d3f57600e546040516370a0823160e01b81526001600160a01b0391821691635c11d79591908816906370a0823190612c8690309060040161372a565b602060405180830381865afa158015612ca3573d6000803e3d6000fd5b505050506040513d601f19601f82011682018060405250810190612cc7919061384c565b6000602130426040518663ffffffff1660e01b8152600401612ced959493929190613a17565b600060405180830381600087803b158015612d0757600080fd5b505af1925050508015612d18575060015b612d3f5760405160018152600080516020613a6d8339815191529060200160405180910390a15b50505050505050505b50506011805461ff0019169055565b6001600160a01b038716600090815260016020526040902054612d7b908690613865565b6001600160a01b0388166000908152600160205260408120919091558415612e8b5760008415612dc957601754601854601654612db8919061389a565b612dc2919061389a565b9050612de9565b601454601354601254612ddc919061389a565b612de6919061389a565b90505b6000612710612df8838a6138e3565b612e0291906138fa565b90508015612e2157612e14818461389a565b9250612e218a30836134af565b600086612e4a576127106015548a612e3991906138e3565b612e4391906138fa565b9050612e68565b6127106019548a612e5b91906138e3565b612e6591906138fa565b90505b8015612e8757612e78818561389a565b9350612e878b61dead836134af565b5050505b828015612eb157506001600160a01b0388166000908152600a602052604090205460ff16155b8015612ed657506001600160a01b0387166000908152600a602052604090205460ff16155b15612f19576000612710601a5488612eee91906138e3565b612ef891906138fa565b90508015612f1757612f0a818361389a565b9150612f178930836134af565b505b818015612f3f57506001600160a01b0388166000908152600a602052604090205460ff16155b8015612f6457506001600160a01b0387166000908152600a602052604090205460ff16155b15612fa9576000612710601b5488612f7c91906138e3565b612f8691906138fa565b90508015612fa757612f98818361389a565b9150612fa78961dead836134af565b505b6001600160a01b0387166000908152600c602052604090205460ff16158015612fdb5750602054600160b81b900460ff165b1561303d576009548187612fee8a61149d565b612ff8919061389a565b6130029190613865565b111561303d5760405162461bcd60e51b815260206004820152600a6024820152691bdd995c881b1a5b5a5d60b21b6044820152606401610d95565b613051888861304c848a613865565b6134af565b5050505050505050565b43602b54602a5461306c919061389a565b11156130755750565b601d546040516370a0823160e01b81526101009091046001600160a01b03169060009082906370a08231906130ae90309060040161372a565b602060405180830381865afa1580156130cb573d6000803e3d6000fd5b505050506040513d601f19601f820116820180604052508101906130ef919061384c565b905060295481101561310057505050565b602054600480546040516370a0823160e01b81526001600160a01b039384169360009385936370a082319361313993909116910161372a565b602060405180830381865afa158015613156573d6000803e3d6000fd5b505050506040513d601f19601f8201168201806040525081019061317a919061384c565b826001600160a01b03166318160ddd6040518163ffffffff1660e01b8152600401602060405180830381865afa1580156131b8573d6000803e3d6000fd5b505050506040513d601f19601f820116820180604052508101906131dc919061384c565b6131e69190613865565b602554909150600090819081908180805a6040516370a0823160e01b81529091506001600160a01b038c16906370a082319061322690309060040161372a565b602060405180830381865afa158015613243573d6000803e3d6000fd5b505050506040513d601f19601f82011682018060405250810190613267919061384c565b99505b8b8310801561327857508382105b1561349d57836028541061328c5760006028555b6025602854815481106132a1576132a1613807565b6000918252602090912001546040516370a0823160e01b81526001600160a01b039182169850908a16906370a08231906132df908a9060040161372a565b602060405180830381865afa1580156132fc573d6000803e3d6000fd5b505050506040513d601f19601f82011682018060405250810190613320919061384c565b955060008611801561334b57506001600160a01b03871660009081526027602052604090205460ff16155b1561345b578761335b878c6138e3565b61336591906138fa565b94506000851180156133e357506040516370a0823160e01b815285906001600160a01b038d16906370a08231906133a090309060040161372a565b602060405180830381865afa1580156133bd573d6000803e3d6000fd5b505050506040513d601f19601f820116820180604052508101906133e1919061384c565b115b1561345b5760405163a9059cbb60e01b81526001600160a01b038c169063a9059cbb90613416908a9089906004016138ad565b6020604051808303816000875af1158015613435573d6000803e3d6000fd5b505050506040513d601f19601f8201168201806040525081019061345991906138c6565b505b5a6134669082613865565b613470908461389a565b92505a60288054919250600061348583613833565b9190505550818061349590613833565b92505061326a565b505043602a5550505050505050505050565b6001600160a01b0382166000908152600160205260409020546134d390829061389a565b6001600160a01b038084166000818152600160205260409081902093909355915190851690600080516020613aad83398151915290611e209085815260200190565b6001600160a01b038116811461352a57600080fd5b50565b60006020828403121561353f57600080fd5b813561354a81613515565b9392505050565b801515811461352a57600080fd5b6000806040838503121561357257600080fd5b823561357d81613515565b9150602083013561358d81613551565b809150509250929050565b6000602082840312156135aa57600080fd5b5035919050565b600060208083528351808285015260005b818110156135de578581018301518582016040015282016135c2565b506000604082860101526040601f19601f8301168501019250505092915050565b60006020828403121561361157600080fd5b813561354a81613551565b6000806040838503121561362f57600080fd5b823561363a81613515565b946020939093013593505050565b60008083601f84011261365a57600080fd5b5081356001600160401b0381111561367157600080fd5b6020830191508360208260051b850101111561368c57600080fd5b9250929050565b6000806000604084860312156136a857600080fd5b83356001600160401b038111156136be57600080fd5b6136ca86828701613648565b90945092505060208401356136de81613551565b809150509250925092565b600080602083850312156136fc57600080fd5b82356001600160401b0381111561371257600080fd5b61371e85828601613648565b90969095509350505050565b6001600160a01b0391909116815260200190565b60008060006060848603121561375357600080fd5b833561375e81613515565b9250602084013561376e81613515565b929592945050506040919091013590565b6000806040838503121561379257600080fd5b823561379d81613515565b9150602083013561358d81613515565b60208082526006908201526510b7bbb732b960d11b604082015260600190565b600181811c908216806137e157607f821691505b60208210810361380157634e487b7160e01b600052602260045260246000fd5b50919050565b634e487b7160e01b600052603260045260246000fd5b634e487b7160e01b600052601160045260246000fd5b6000600182016138455761384561381d565b5060010190565b60006020828403121561385e57600080fd5b5051919050565b8181038181111561181a5761181a61381d565b602080825260089082015267191a5cd8589b195960c21b604082015260600190565b8082018082111561181a5761181a61381d565b6001600160a01b03929092168252602082015260400190565b6000602082840312156138d857600080fd5b815161354a81613551565b808202811582820484141761181a5761181a61381d565b60008261391757634e487b7160e01b600052601260045260246000fd5b500490565b80516001600160701b038116811461131557600080fd5b60008060006060848603121561394857600080fd5b6139518461391c565b925061395f6020850161391c565b9150604084015163ffffffff811681146136de57600080fd5b600060a082018783526020878185015260a0604085015281875180845260c086019150828901935060005b818110156139c85784516001600160a01b0316835293830193918301916001016139a3565b50506001600160a01b03969096166060850152505050608001529392505050565b6000806000606084860312156139fe57600080fd5b8351925060208401519150604084015190509250925092565b600060a082018783526020878185015260a0604085015281875480845260c0860191508860005282600020935060005b818110156139c85784546001600160a01b031683526001948501949284019201613a4756fe6c37756e80daba6f4df0d5bfa6cddadfe23601acc1a27dc8d4aa427de91467888be0079c531659141344cd1fd0a4f28419497f9722a3daafe3b4186f6b6457e0ddf252ad1be2c89b69c2b068fc378daa952ba7f163c4a11628f55a4df523b3efa2646970667358221220672b0086775346e28f657a60506b932f4265c573bc35c11fba37c5ed0eadd4a864736f6c634300081400336080604052348015600f57600080fd5b5060405161010b38038061010b833981016040819052602c916090565b60405163095ea7b360e01b815233600482015260001960248201526001600160a01b0382169063095ea7b390604401600060405180830381600087803b158015607457600080fd5b505af11580156087573d6000803e3d6000fd5b505050505060be565b60006020828403121560a157600080fd5b81516001600160a01b038116811460b757600080fd5b9392505050565b603f806100cc6000396000f3fe6080604052600080fdfea26469706673582212209037b6fa8fcdb56a4b619c337c4588cfb90a71bca19bcda813ffff3b6fbdd7c064736f6c63430008140033",
			"opcodes": "PUSH1 0x80 PUSH1 0x40 MSTORE PUSH1 0x11 DUP1 SLOAD PUSH1 0xFF NOT AND PUSH1 0x1 OR SWAP1 SSTORE PUSH1 0x14 PUSH1 0x22 DUP2 SWAP1 SSTORE PUSH1 0x2B SSTORE CALLVALUE DUP1 ISZERO PUSH3 0x28 JUMPI PUSH1 0x0 DUP1 REVERT JUMPDEST POP PUSH1 0x40 MLOAD PUSH3 0x4FB9 CODESIZE SUB DUP1 PUSH3 0x4FB9 DUP4 CODECOPY DUP2 ADD PUSH1 0x40 DUP2 SWAP1 MSTORE PUSH3 0x4B SWAP2 PUSH3 0xEE8 JUMP JUMPDEST PUSH1 0x0 DUP1 SLOAD PUSH1 0x1 PUSH1 0x1 PUSH1 0xA0 SHL SUB NOT AND CALLER SWAP1 DUP2 OR DUP3 SSTORE PUSH1 0x40 MLOAD SWAP1 SWAP2 DUP3 SWAP2 PUSH32 0x8BE0079C531659141344CD1FD0A4F28419497F9722A3DAAFE3B4186F6B6457E0 SWAP1 DUP3 SWAP1 LOG3 POP DUP4 PUSH1 0x0 DUP2 MLOAD DUP2 LT PUSH3 0xA2 JUMPI PUSH3 0xA2 PUSH3 0x108C JUMP JUMPDEST PUSH1 0x20 MUL PUSH1 0x20 ADD ADD MLOAD PUSH1 0x5 SWAP1 DUP2 PUSH3 0xBA SWAP2 SWAP1 PUSH3 0x1131 JUMP JUMPDEST POP DUP4 PUSH1 0x1 DUP2 MLOAD DUP2 LT PUSH3 0xD1 JUMPI PUSH3 0xD1 PUSH3 0x108C JUMP JUMPDEST PUSH1 0x20 MUL PUSH1 0x20 ADD ADD MLOAD PUSH1 0x6 SWAP1 DUP2 PUSH3 0xE9 SWAP2 SWAP1 PUSH3 0x1131 JUMP JUMPDEST POP DUP2 PUSH1 0x0 DUP2 MLOAD DUP2 LT PUSH3 0x100 JUMPI PUSH3 0x100 PUSH3 0x108C JUMP JUMPDEST PUSH1 0x20 MUL PUSH1 0x20 ADD ADD MLOAD PUSH1 0x7 DUP2 SWAP1 SSTORE POP DUP2 PUSH1 0x1 DUP2 MLOAD DUP2 LT PUSH3 0x124 JUMPI PUSH3 0x124 PUSH3 0x108C JUMP JUMPDEST PUSH1 0x20 MUL PUSH1 0x20 ADD ADD MLOAD PUSH1 0xD DUP2 SWAP1 SSTORE POP DUP3 PUSH1 0x0 DUP2 MLOAD DUP2 LT PUSH3 0x148 JUMPI PUSH3 0x148 PUSH3 0x108C JUMP JUMPDEST PUSH1 0x20 MUL PUSH1 0x20 ADD ADD MLOAD PUSH1 0x3 PUSH1 0x0 PUSH2 0x100 EXP DUP2 SLOAD DUP2 PUSH1 0x1 PUSH1 0x1 PUSH1 0xA0 SHL SUB MUL NOT AND SWAP1 DUP4 PUSH1 0x1 PUSH1 0x1 PUSH1 0xA0 SHL SUB AND MUL OR SWAP1 SSTORE POP DUP3 PUSH1 0x1 DUP2 MLOAD DUP2 LT PUSH3 0x18C JUMPI PUSH3 0x18C PUSH3 0x108C JUMP JUMPDEST PUSH1 0x20 MUL PUSH1 0x20 ADD ADD MLOAD PUSH1 0xF PUSH1 0x0 PUSH2 0x100 EXP DUP2 SLOAD DUP2 PUSH1 0x1 PUSH1 0x1 PUSH1 0xA0 SHL SUB MUL NOT AND SWAP1 DUP4 PUSH1 0x1 PUSH1 0x1 PUSH1 0xA0 SHL SUB AND MUL OR SWAP1 SSTORE POP DUP3 PUSH1 0x2 DUP2 MLOAD DUP2 LT PUSH3 0x1D0 JUMPI PUSH3 0x1D0 PUSH3 0x108C JUMP JUMPDEST PUSH1 0x20 MUL PUSH1 0x20 ADD ADD MLOAD PUSH1 0xE PUSH1 0x0 PUSH2 0x100 EXP DUP2 SLOAD DUP2 PUSH1 0x1 PUSH1 0x1 PUSH1 0xA0 SHL SUB MUL NOT AND SWAP1 DUP4 PUSH1 0x1 PUSH1 0x1 PUSH1 0xA0 SHL SUB AND MUL OR SWAP1 SSTORE POP PUSH1 0x0 DUP4 PUSH1 0x3 DUP2 MLOAD DUP2 LT PUSH3 0x216 JUMPI PUSH3 0x216 PUSH3 0x108C JUMP JUMPDEST PUSH1 0x20 MUL PUSH1 0x20 ADD ADD MLOAD SWAP1 POP DUP4 PUSH1 0x4 DUP2 MLOAD DUP2 LT PUSH3 0x236 JUMPI PUSH3 0x236 PUSH3 0x108C JUMP JUMPDEST PUSH1 0x20 MUL PUSH1 0x20 ADD ADD MLOAD PUSH1 0x1D PUSH1 0x1 PUSH2 0x100 EXP DUP2 SLOAD DUP2 PUSH1 0x1 PUSH1 0x1 PUSH1 0xA0 SHL SUB MUL NOT AND SWAP1 DUP4 PUSH1 0x1 PUSH1 0x1 PUSH1 0xA0 SHL SUB AND MUL OR SWAP1 SSTORE POP DUP3 PUSH1 0x2 DUP2 MLOAD DUP2 LT PUSH3 0x27A JUMPI PUSH3 0x27A PUSH3 0x108C JUMP JUMPDEST PUSH1 0x20 MUL PUSH1 0x20 ADD ADD MLOAD PUSH1 0x9 DUP2 SWAP1 SSTORE POP DUP2 PUSH1 0x0 DUP2 MLOAD DUP2 LT PUSH3 0x29E JUMPI PUSH3 0x29E PUSH3 0x108C JUMP JUMPDEST PUSH1 0x20 MUL PUSH1 0x20 ADD ADD MLOAD PUSH1 0x20 PUSH1 0x14 PUSH2 0x100 EXP DUP2 SLOAD DUP2 PUSH1 0xFF MUL NOT AND SWAP1 DUP4 ISZERO ISZERO MUL OR SWAP1 SSTORE POP DUP2 PUSH1 0x1 DUP2 MLOAD DUP2 LT PUSH3 0x2D5 JUMPI PUSH3 0x2D5 PUSH3 0x108C JUMP JUMPDEST PUSH1 0x20 MUL PUSH1 0x20 ADD ADD MLOAD PUSH1 0x20 PUSH1 0x15 PUSH2 0x100 EXP DUP2 SLOAD DUP2 PUSH1 0xFF MUL NOT AND SWAP1 DUP4 ISZERO ISZERO MUL OR SWAP1 SSTORE POP DUP2 PUSH1 0x2 DUP2 MLOAD DUP2 LT PUSH3 0x30C JUMPI PUSH3 0x30C PUSH3 0x108C JUMP JUMPDEST PUSH1 0x20 MUL PUSH1 0x20 ADD ADD MLOAD PUSH1 0x20 PUSH1 0x16 PUSH2 0x100 EXP DUP2 SLOAD DUP2 PUSH1 0xFF MUL NOT AND SWAP1 DUP4 ISZERO ISZERO MUL OR SWAP1 SSTORE POP DUP2 PUSH1 0x3 DUP2 MLOAD DUP2 LT PUSH3 0x343 JUMPI PUSH3 0x343 PUSH3 0x108C JUMP JUMPDEST PUSH1 0x20 MUL PUSH1 0x20 ADD ADD MLOAD PUSH1 0x20 PUSH1 0x17 PUSH2 0x100 EXP DUP2 SLOAD DUP2 PUSH1 0xFF MUL NOT AND SWAP1 DUP4 ISZERO ISZERO MUL OR SWAP1 SSTORE POP DUP2 PUSH1 0x4 DUP2 MLOAD DUP2 LT PUSH3 0x37A JUMPI PUSH3 0x37A PUSH3 0x108C JUMP JUMPDEST PUSH1 0x20 MUL PUSH1 0x20 ADD ADD MLOAD PUSH1 0x20 PUSH1 0x18 PUSH2 0x100 EXP DUP2 SLOAD DUP2 PUSH1 0xFF MUL NOT AND SWAP1 DUP4 ISZERO ISZERO MUL OR SWAP1 SSTORE POP DUP2 PUSH1 0x5 DUP2 MLOAD DUP2 LT PUSH3 0x3B1 JUMPI PUSH3 0x3B1 PUSH3 0x108C JUMP JUMPDEST PUSH1 0x20 MUL PUSH1 0x20 ADD ADD MLOAD PUSH1 0x1D PUSH1 0x0 PUSH2 0x100 EXP DUP2 SLOAD DUP2 PUSH1 0xFF MUL NOT AND SWAP1 DUP4 ISZERO ISZERO MUL OR SWAP1 SSTORE POP DUP2 PUSH1 0x6 DUP2 MLOAD DUP2 LT PUSH3 0x3E8 JUMPI PUSH3 0x3E8 PUSH3 0x108C JUMP JUMPDEST PUSH1 0x20 SWAP1 DUP2 MUL SWAP2 SWAP1 SWAP2 ADD DUP2 ADD MLOAD DUP2 SLOAD SWAP1 ISZERO ISZERO PUSH1 0x1 PUSH1 0xC8 SHL MUL PUSH1 0xFF PUSH1 0xC8 SHL NOT SWAP1 SWAP2 AND OR DUP2 SSTORE PUSH1 0x0 DUP1 SLOAD PUSH1 0x1 PUSH1 0x1 PUSH1 0xA0 SHL SUB NOT AND ORIGIN OR SWAP1 SSTORE PUSH1 0x40 DUP1 MLOAD SWAP2 DUP3 ADD SWAP1 MSTORE PUSH1 0xF SLOAD PUSH1 0x1 PUSH1 0x1 PUSH1 0xA0 SHL SUB AND DUP2 MSTORE PUSH3 0x444 SWAP1 PUSH1 0x21 SWAP1 PUSH1 0x1 PUSH3 0xC7D JUMP JUMPDEST POP PUSH1 0x1D SLOAD PUSH1 0xF SLOAD PUSH1 0x1 PUSH1 0x1 PUSH1 0xA0 SHL SUB SWAP1 DUP2 AND PUSH2 0x100 SWAP1 SWAP3 DIV AND EQ PUSH3 0x605 JUMPI PUSH1 0x1D SLOAD PUSH1 0xFF AND ISZERO ISZERO PUSH1 0x0 SUB PUSH3 0x517 JUMPI PUSH1 0xE SLOAD PUSH1 0x40 DUP1 MLOAD PUSH4 0x15AB88C9 PUSH1 0xE3 SHL DUP2 MSTORE SWAP1 MLOAD PUSH1 0x21 SWAP3 PUSH1 0x1 PUSH1 0x1 PUSH1 0xA0 SHL SUB AND SWAP2 PUSH4 0xAD5C4648 SWAP2 PUSH1 0x4 DUP1 DUP4 ADD SWAP3 PUSH1 0x20 SWAP3 SWAP2 SWAP1 DUP3 SWAP1 SUB ADD DUP2 DUP7 GAS STATICCALL ISZERO DUP1 ISZERO PUSH3 0x4BE JUMPI RETURNDATASIZE PUSH1 0x0 DUP1 RETURNDATACOPY RETURNDATASIZE PUSH1 0x0 REVERT JUMPDEST POP POP POP POP PUSH1 0x40 MLOAD RETURNDATASIZE PUSH1 0x1F NOT PUSH1 0x1F DUP3 ADD AND DUP3 ADD DUP1 PUSH1 0x40 MSTORE POP DUP2 ADD SWAP1 PUSH3 0x4E4 SWAP2 SWAP1 PUSH3 0x11FD JUMP JUMPDEST DUP2 SLOAD PUSH1 0x1 DUP2 ADD DUP4 SSTORE PUSH1 0x0 SWAP3 DUP4 MSTORE PUSH1 0x20 SWAP1 SWAP3 KECCAK256 SWAP1 SWAP2 ADD DUP1 SLOAD PUSH1 0x1 PUSH1 0x1 PUSH1 0xA0 SHL SUB NOT AND PUSH1 0x1 PUSH1 0x1 PUSH1 0xA0 SHL SUB SWAP1 SWAP3 AND SWAP2 SWAP1 SWAP2 OR SWAP1 SSTORE JUMPDEST PUSH1 0xE PUSH1 0x0 SWAP1 SLOAD SWAP1 PUSH2 0x100 EXP SWAP1 DIV PUSH1 0x1 PUSH1 0x1 PUSH1 0xA0 SHL SUB AND PUSH1 0x1 PUSH1 0x1 PUSH1 0xA0 SHL SUB AND PUSH4 0xAD5C4648 PUSH1 0x40 MLOAD DUP2 PUSH4 0xFFFFFFFF AND PUSH1 0xE0 SHL DUP2 MSTORE PUSH1 0x4 ADD PUSH1 0x20 PUSH1 0x40 MLOAD DUP1 DUP4 SUB DUP2 DUP7 GAS STATICCALL ISZERO DUP1 ISZERO PUSH3 0x56B JUMPI RETURNDATASIZE PUSH1 0x0 DUP1 RETURNDATACOPY RETURNDATASIZE PUSH1 0x0 REVERT JUMPDEST POP POP POP POP PUSH1 0x40 MLOAD RETURNDATASIZE PUSH1 0x1F NOT PUSH1 0x1F DUP3 ADD AND DUP3 ADD DUP1 PUSH1 0x40 MSTORE POP DUP2 ADD SWAP1 PUSH3 0x591 SWAP2 SWAP1 PUSH3 0x11FD JUMP JUMPDEST PUSH1 0x1D SLOAD PUSH2 0x100 SWAP1 DIV PUSH1 0x1 PUSH1 0x1 PUSH1 0xA0 SHL SUB SWAP1 DUP2 AND SWAP2 AND EQ PUSH3 0x605 JUMPI PUSH1 0x1D SLOAD PUSH1 0x21 DUP1 SLOAD PUSH1 0x1 DUP2 ADD DUP3 SSTORE PUSH1 0x0 SWAP2 SWAP1 SWAP2 MSTORE PUSH32 0x3A6357012C1A3AE0A17D304C9920310382D968EBCC4B1771F41C6B304205B570 ADD DUP1 SLOAD PUSH2 0x100 SWAP1 SWAP3 DIV PUSH1 0x1 PUSH1 0x1 PUSH1 0xA0 SHL SUB AND PUSH1 0x1 PUSH1 0x1 PUSH1 0xA0 SHL SUB NOT SWAP1 SWAP3 AND SWAP2 SWAP1 SWAP2 OR SWAP1 SSTORE JUMPDEST PUSH1 0xF SLOAD PUSH1 0xE SLOAD PUSH1 0x40 MLOAD PUSH4 0x95EA7B3 PUSH1 0xE0 SHL DUP2 MSTORE PUSH1 0x1 PUSH1 0x1 PUSH1 0xA0 SHL SUB SWAP2 DUP3 AND PUSH1 0x4 DUP3 ADD MSTORE PUSH1 0x0 NOT PUSH1 0x24 DUP3 ADD MSTORE SWAP2 AND SWAP1 PUSH4 0x95EA7B3 SWAP1 PUSH1 0x44 ADD PUSH1 0x0 PUSH1 0x40 MLOAD DUP1 DUP4 SUB DUP2 PUSH1 0x0 DUP8 DUP1 EXTCODESIZE ISZERO DUP1 ISZERO PUSH3 0x657 JUMPI PUSH1 0x0 DUP1 REVERT JUMPDEST POP GAS CALL ISZERO DUP1 ISZERO PUSH3 0x66C JUMPI RETURNDATASIZE PUSH1 0x0 DUP1 RETURNDATACOPY RETURNDATASIZE PUSH1 0x0 REVERT JUMPDEST POP POP ADDRESS PUSH1 0x0 SWAP1 DUP2 MSTORE PUSH1 0x2 PUSH1 0x20 SWAP1 DUP2 MSTORE PUSH1 0x40 DUP1 DUP4 KECCAK256 PUSH1 0xE DUP1 SLOAD PUSH1 0x1 PUSH1 0x1 PUSH1 0xA0 SHL SUB SWAP1 DUP2 AND DUP7 MSTORE SWAP2 DUP5 MSTORE DUP3 DUP6 KECCAK256 PUSH1 0x0 NOT SWAP1 SSTORE SLOAD DUP3 MLOAD PUSH4 0xC45A0155 PUSH1 0xE0 SHL DUP2 MSTORE SWAP3 MLOAD SWAP5 SWAP7 POP AND SWAP4 POP PUSH4 0xC45A0155 SWAP3 PUSH1 0x4 DUP1 DUP4 ADD SWAP4 SWAP3 DUP3 SWAP1 SUB ADD DUP2 DUP7 GAS STATICCALL ISZERO DUP1 ISZERO PUSH3 0x6D8 JUMPI RETURNDATASIZE PUSH1 0x0 DUP1 RETURNDATACOPY RETURNDATASIZE PUSH1 0x0 REVERT JUMPDEST POP POP POP POP PUSH1 0x40 MLOAD RETURNDATASIZE PUSH1 0x1F NOT PUSH1 0x1F DUP3 ADD AND DUP3 ADD DUP1 PUSH1 0x40 MSTORE POP DUP2 ADD SWAP1 PUSH3 0x6FE SWAP2 SWAP1 PUSH3 0x11FD JUMP JUMPDEST PUSH1 0xF SLOAD PUSH1 0x40 MLOAD PUSH4 0x64E329CB PUSH1 0xE1 SHL DUP2 MSTORE ADDRESS PUSH1 0x4 DUP3 ADD MSTORE PUSH1 0x1 PUSH1 0x1 PUSH1 0xA0 SHL SUB SWAP2 DUP3 AND PUSH1 0x24 DUP3 ADD MSTORE SWAP2 SWAP3 POP DUP3 AND SWAP1 PUSH4 0xC9C65396 SWAP1 PUSH1 0x44 ADD PUSH1 0x20 PUSH1 0x40 MLOAD DUP1 DUP4 SUB DUP2 PUSH1 0x0 DUP8 GAS CALL ISZERO DUP1 ISZERO PUSH3 0x753 JUMPI RETURNDATASIZE PUSH1 0x0 DUP1 RETURNDATACOPY RETURNDATASIZE PUSH1 0x0 REVERT JUMPDEST POP POP POP POP PUSH1 0x40 MLOAD RETURNDATASIZE PUSH1 0x1F NOT PUSH1 0x1F DUP3 ADD AND DUP3 ADD DUP1 PUSH1 0x40 MSTORE POP DUP2 ADD SWAP1 PUSH3 0x779 SWAP2 SWAP1 PUSH3 0x11FD JUMP JUMPDEST PUSH1 0x20 DUP1 SLOAD PUSH1 0x1 PUSH1 0x1 PUSH1 0xA0 SHL SUB NOT AND PUSH1 0x1 PUSH1 0x1 PUSH1 0xA0 SHL SUB SWAP3 SWAP1 SWAP3 AND SWAP2 DUP3 OR DUP2 SSTORE PUSH1 0x0 SWAP2 DUP3 MSTORE PUSH1 0x10 SWAP1 MSTORE PUSH1 0x40 SWAP1 KECCAK256 DUP1 SLOAD PUSH1 0xFF NOT AND PUSH1 0x1 OR SWAP1 SSTORE DUP4 MLOAD DUP5 SWAP1 PUSH1 0x3 SWAP1 DUP2 LT PUSH3 0x7C8 JUMPI PUSH3 0x7C8 PUSH3 0x108C JUMP JUMPDEST PUSH1 0x20 MUL PUSH1 0x20 ADD ADD MLOAD PUSH1 0x12 DUP2 SWAP1 SSTORE POP DUP4 PUSH1 0x4 DUP2 MLOAD DUP2 LT PUSH3 0x7EC JUMPI PUSH3 0x7EC PUSH3 0x108C JUMP JUMPDEST PUSH1 0x20 MUL PUSH1 0x20 ADD ADD MLOAD PUSH1 0x13 DUP2 SWAP1 SSTORE POP DUP4 PUSH1 0x5 DUP2 MLOAD DUP2 LT PUSH3 0x810 JUMPI PUSH3 0x810 PUSH3 0x108C JUMP JUMPDEST PUSH1 0x20 MUL PUSH1 0x20 ADD ADD MLOAD PUSH1 0x14 DUP2 SWAP1 SSTORE POP DUP4 PUSH1 0x6 DUP2 MLOAD DUP2 LT PUSH3 0x834 JUMPI PUSH3 0x834 PUSH3 0x108C JUMP JUMPDEST PUSH1 0x20 MUL PUSH1 0x20 ADD ADD MLOAD PUSH1 0x15 DUP2 SWAP1 SSTORE POP DUP4 PUSH1 0x7 DUP2 MLOAD DUP2 LT PUSH3 0x858 JUMPI PUSH3 0x858 PUSH3 0x108C JUMP JUMPDEST PUSH1 0x20 MUL PUSH1 0x20 ADD ADD MLOAD PUSH1 0x16 DUP2 SWAP1 SSTORE POP DUP4 PUSH1 0x8 DUP2 MLOAD DUP2 LT PUSH3 0x87C JUMPI PUSH3 0x87C PUSH3 0x108C JUMP JUMPDEST PUSH1 0x20 MUL PUSH1 0x20 ADD ADD MLOAD PUSH1 0x17 DUP2 SWAP1 SSTORE POP DUP4 PUSH1 0x9 DUP2 MLOAD DUP2 LT PUSH3 0x8A0 JUMPI PUSH3 0x8A0 PUSH3 0x108C JUMP JUMPDEST PUSH1 0x20 MUL PUSH1 0x20 ADD ADD MLOAD PUSH1 0x18 DUP2 SWAP1 SSTORE POP DUP4 PUSH1 0xA DUP2 MLOAD DUP2 LT PUSH3 0x8C4 JUMPI PUSH3 0x8C4 PUSH3 0x108C JUMP JUMPDEST PUSH1 0x20 MUL PUSH1 0x20 ADD ADD MLOAD PUSH1 0x19 DUP2 SWAP1 SSTORE POP PUSH2 0x9C4 PUSH1 0x15 SLOAD PUSH1 0x14 SLOAD PUSH1 0x13 SLOAD PUSH1 0x12 SLOAD PUSH3 0x8ED SWAP2 SWAP1 PUSH3 0x1238 JUMP JUMPDEST PUSH3 0x8F9 SWAP2 SWAP1 PUSH3 0x1238 JUMP JUMPDEST PUSH3 0x905 SWAP2 SWAP1 PUSH3 0x1238 JUMP JUMPDEST GT ISZERO DUP1 ISZERO PUSH3 0x945 JUMPI POP PUSH2 0x9C4 PUSH1 0x19 SLOAD PUSH1 0x18 SLOAD PUSH1 0x17 SLOAD PUSH1 0x16 SLOAD PUSH3 0x92A SWAP2 SWAP1 PUSH3 0x1238 JUMP JUMPDEST PUSH3 0x936 SWAP2 SWAP1 PUSH3 0x1238 JUMP JUMPDEST PUSH3 0x942 SWAP2 SWAP1 PUSH3 0x1238 JUMP JUMPDEST GT ISZERO JUMPDEST PUSH3 0x94F JUMPI PUSH1 0x0 DUP1 REVERT JUMPDEST DUP4 PUSH1 0xB DUP2 MLOAD DUP2 LT PUSH3 0x965 JUMPI PUSH3 0x965 PUSH3 0x108C JUMP JUMPDEST PUSH1 0x20 MUL PUSH1 0x20 ADD ADD MLOAD PUSH1 0x8 DUP2 SWAP1 SSTORE POP DUP4 PUSH1 0xC DUP2 MLOAD DUP2 LT PUSH3 0x989 JUMPI PUSH3 0x989 PUSH3 0x108C JUMP JUMPDEST PUSH1 0x20 MUL PUSH1 0x20 ADD ADD MLOAD PUSH1 0x1C DUP2 SWAP1 SSTORE POP PUSH1 0x5 PUSH1 0x1C SLOAD GT ISZERO PUSH3 0x9D7 JUMPI PUSH1 0x40 MLOAD PUSH3 0x461BCD PUSH1 0xE5 SHL DUP2 MSTORE PUSH1 0x20 PUSH1 0x4 DUP3 ADD MSTORE PUSH1 0x5 PUSH1 0x24 DUP3 ADD MSTORE PUSH5 0x213C3D2035 PUSH1 0xD8 SHL PUSH1 0x44 DUP3 ADD MSTORE PUSH1 0x64 ADD PUSH1 0x40 MLOAD DUP1 SWAP2 SUB SWAP1 REVERT JUMPDEST PUSH1 0xD SLOAD PUSH1 0x1 PUSH1 0x1 PUSH1 0xA0 SHL SUB DUP4 AND PUSH1 0x0 DUP2 DUP2 MSTORE PUSH1 0x1 PUSH1 0x20 SWAP1 DUP2 MSTORE PUSH1 0x40 DUP1 DUP4 KECCAK256 DUP6 SWAP1 SSTORE MLOAD SWAP4 DUP5 MSTORE SWAP2 SWAP3 SWAP1 SWAP2 PUSH32 0xDDF252AD1BE2C89B69C2B068FC378DAA952BA7F163C4A11628F55A4DF523B3EF SWAP2 ADD PUSH1 0x40 MLOAD DUP1 SWAP2 SUB SWAP1 LOG3 PUSH1 0x3 DUP1 SLOAD PUSH1 0x1 PUSH1 0x1 PUSH1 0xA0 SHL SUB SWAP1 DUP2 AND PUSH1 0x0 SWAP1 DUP2 MSTORE PUSH1 0xA PUSH1 0x20 DUP2 DUP2 MSTORE PUSH1 0x40 DUP1 DUP5 KECCAK256 DUP1 SLOAD PUSH1 0x1 PUSH1 0xFF NOT SWAP2 DUP3 AND DUP2 OR SWAP1 SWAP3 SSTORE DUP10 DUP8 AND DUP1 DUP8 MSTORE DUP4 DUP8 KECCAK256 DUP1 SLOAD DUP4 AND DUP5 OR SWAP1 SSTORE ADDRESS DUP1 DUP9 MSTORE DUP5 DUP9 KECCAK256 DUP1 SLOAD DUP5 AND DUP6 OR SWAP1 SSTORE PUSH1 0xE DUP1 SLOAD DUP11 AND DUP10 MSTORE DUP6 DUP10 KECCAK256 DUP1 SLOAD DUP6 AND DUP7 OR SWAP1 SSTORE CALLER DUP10 MSTORE DUP6 DUP10 KECCAK256 DUP1 SLOAD DUP6 AND DUP7 OR SWAP1 SSTORE PUSH1 0xC DUP8 MSTORE DUP6 DUP10 KECCAK256 DUP1 SLOAD DUP6 AND DUP7 OR SWAP1 SSTORE SWAP10 SLOAD DUP10 AND DUP9 MSTORE DUP5 DUP9 KECCAK256 DUP1 SLOAD DUP5 AND DUP6 OR SWAP1 SSTORE SWAP1 DUP8 MSTORE DUP4 DUP8 KECCAK256 DUP1 SLOAD DUP4 AND DUP5 OR SWAP1 SSTORE SWAP8 SLOAD DUP8 AND DUP7 MSTORE DUP3 DUP7 KECCAK256 DUP1 SLOAD DUP3 AND DUP4 OR SWAP1 SSTORE DUP4 SLOAD DUP8 AND DUP7 MSTORE DUP3 DUP7 KECCAK256 DUP1 SLOAD DUP3 AND DUP4 OR SWAP1 SSTORE SWAP7 DUP6 MSTORE DUP2 DUP6 KECCAK256 DUP1 SLOAD DUP9 AND DUP3 OR SWAP1 SSTORE PUSH32 0x45117A726EA4F344045DC210793664A28D2D320B7E03F6BFFDAE553D24C3586C DUP1 SLOAD DUP9 AND DUP3 OR SWAP1 SSTORE PUSH1 0x27 DUP4 MSTORE PUSH32 0x552D06D8E69B1FC894B5BB152D5C34CCB2EA2834FD646FF017B1562D77BDB85A DUP1 SLOAD DUP9 AND DUP3 OR SWAP1 SSTORE PUSH2 0xDEAD SWAP1 SWAP5 MSTORE PUSH32 0x5B81ED81FD8C0839A30B67983EAB49280895D3199FC1130FB03B7C33E425E0EB DUP1 SLOAD SWAP1 SWAP7 AND SWAP1 SWAP4 OR SWAP1 SWAP5 SSTORE PUSH1 0xF SLOAD DUP3 MLOAD PUSH4 0x313CE567 PUSH1 0xE0 SHL DUP2 MSTORE SWAP3 MLOAD SWAP2 SWAP5 SWAP4 AND SWAP3 PUSH4 0x313CE567 SWAP3 PUSH1 0x4 DUP1 DUP3 ADD SWAP4 SWAP2 DUP3 SWAP1 SUB ADD DUP2 DUP7 GAS STATICCALL ISZERO DUP1 ISZERO PUSH3 0xBBE JUMPI RETURNDATASIZE PUSH1 0x0 DUP1 RETURNDATACOPY RETURNDATASIZE PUSH1 0x0 REVERT JUMPDEST POP POP POP POP PUSH1 0x40 MLOAD RETURNDATASIZE PUSH1 0x1F NOT PUSH1 0x1F DUP3 ADD AND DUP3 ADD DUP1 PUSH1 0x40 MSTORE POP DUP2 ADD SWAP1 PUSH3 0xBE4 SWAP2 SWAP1 PUSH3 0x1254 JUMP JUMPDEST PUSH3 0xBF1 SWAP1 PUSH1 0xA PUSH3 0x136B JUMP JUMPDEST PUSH3 0xBFD SWAP2 SWAP1 PUSH3 0x1379 JUMP JUMPDEST PUSH1 0x29 SSTORE PUSH1 0xF SLOAD PUSH1 0x40 MLOAD PUSH1 0x1 PUSH1 0x1 PUSH1 0xA0 SHL SUB SWAP1 SWAP2 AND SWAP1 PUSH3 0xC1D SWAP1 PUSH3 0xCE7 JUMP JUMPDEST PUSH1 0x1 PUSH1 0x1 PUSH1 0xA0 SHL SUB SWAP1 SWAP2 AND DUP2 MSTORE PUSH1 0x20 ADD PUSH1 0x40 MLOAD DUP1 SWAP2 SUB SWAP1 PUSH1 0x0 CREATE DUP1 ISZERO DUP1 ISZERO PUSH3 0xC4A JUMPI RETURNDATASIZE PUSH1 0x0 DUP1 RETURNDATACOPY RETURNDATASIZE PUSH1 0x0 REVERT JUMPDEST POP PUSH1 0x11 PUSH1 0x2 PUSH2 0x100 EXP DUP2 SLOAD DUP2 PUSH1 0x1 PUSH1 0x1 PUSH1 0xA0 SHL SUB MUL NOT AND SWAP1 DUP4 PUSH1 0x1 PUSH1 0x1 PUSH1 0xA0 SHL SUB AND MUL OR SWAP1 SSTORE POP POP POP POP POP POP POP PUSH3 0x139C JUMP JUMPDEST DUP3 DUP1 SLOAD DUP3 DUP3 SSTORE SWAP1 PUSH1 0x0 MSTORE PUSH1 0x20 PUSH1 0x0 KECCAK256 SWAP1 DUP2 ADD SWAP3 DUP3 ISZERO PUSH3 0xCD5 JUMPI SWAP2 PUSH1 0x20 MUL DUP3 ADD JUMPDEST DUP3 DUP2 GT ISZERO PUSH3 0xCD5 JUMPI DUP3 MLOAD DUP3 SLOAD PUSH1 0x1 PUSH1 0x1 PUSH1 0xA0 SHL SUB NOT AND PUSH1 0x1 PUSH1 0x1 PUSH1 0xA0 SHL SUB SWAP1 SWAP2 AND OR DUP3 SSTORE PUSH1 0x20 SWAP1 SWAP3 ADD SWAP2 PUSH1 0x1 SWAP1 SWAP2 ADD SWAP1 PUSH3 0xC9E JUMP JUMPDEST POP PUSH3 0xCE3 SWAP3 SWAP2 POP PUSH3 0xCF5 JUMP JUMPDEST POP SWAP1 JUMP JUMPDEST PUSH2 0x10B DUP1 PUSH3 0x4EAE DUP4 CODECOPY ADD SWAP1 JUMP JUMPDEST JUMPDEST DUP1 DUP3 GT ISZERO PUSH3 0xCE3 JUMPI PUSH1 0x0 DUP2 SSTORE PUSH1 0x1 ADD PUSH3 0xCF6 JUMP JUMPDEST PUSH4 0x4E487B71 PUSH1 0xE0 SHL PUSH1 0x0 MSTORE PUSH1 0x41 PUSH1 0x4 MSTORE PUSH1 0x24 PUSH1 0x0 REVERT JUMPDEST PUSH1 0x40 MLOAD PUSH1 0x1F DUP3 ADD PUSH1 0x1F NOT AND DUP2 ADD PUSH1 0x1 PUSH1 0x1 PUSH1 0x40 SHL SUB DUP2 GT DUP3 DUP3 LT OR ISZERO PUSH3 0xD4D JUMPI PUSH3 0xD4D PUSH3 0xD0C JUMP JUMPDEST PUSH1 0x40 MSTORE SWAP2 SWAP1 POP JUMP JUMPDEST PUSH1 0x0 PUSH1 0x1 PUSH1 0x1 PUSH1 0x40 SHL SUB DUP3 GT ISZERO PUSH3 0xD71 JUMPI PUSH3 0xD71 PUSH3 0xD0C JUMP JUMPDEST POP PUSH1 0x5 SHL PUSH1 0x20 ADD SWAP1 JUMP JUMPDEST DUP1 MLOAD PUSH1 0x1 PUSH1 0x1 PUSH1 0xA0 SHL SUB DUP2 AND DUP2 EQ PUSH3 0xD93 JUMPI PUSH1 0x0 DUP1 REVERT JUMPDEST SWAP2 SWAP1 POP JUMP JUMPDEST PUSH1 0x0 DUP3 PUSH1 0x1F DUP4 ADD SLT PUSH3 0xDAA JUMPI PUSH1 0x0 DUP1 REVERT JUMPDEST DUP2 MLOAD PUSH1 0x20 PUSH3 0xDC3 PUSH3 0xDBD DUP4 PUSH3 0xD55 JUMP JUMPDEST PUSH3 0xD22 JUMP JUMPDEST DUP3 DUP2 MSTORE PUSH1 0x5 SWAP3 SWAP1 SWAP3 SHL DUP5 ADD DUP2 ADD SWAP2 DUP2 DUP2 ADD SWAP1 DUP7 DUP5 GT ISZERO PUSH3 0xDE3 JUMPI PUSH1 0x0 DUP1 REVERT JUMPDEST DUP3 DUP7 ADD JUMPDEST DUP5 DUP2 LT ISZERO PUSH3 0xE09 JUMPI PUSH3 0xDFB DUP2 PUSH3 0xD7B JUMP JUMPDEST DUP4 MSTORE SWAP2 DUP4 ADD SWAP2 DUP4 ADD PUSH3 0xDE7 JUMP JUMPDEST POP SWAP7 SWAP6 POP POP POP POP POP POP JUMP JUMPDEST PUSH1 0x0 DUP3 PUSH1 0x1F DUP4 ADD SLT PUSH3 0xE26 JUMPI PUSH1 0x0 DUP1 REVERT JUMPDEST DUP2 MLOAD PUSH1 0x20 PUSH3 0xE39 PUSH3 0xDBD DUP4 PUSH3 0xD55 JUMP JUMPDEST DUP3 DUP2 MSTORE PUSH1 0x5 SWAP3 SWAP1 SWAP3 SHL DUP5 ADD DUP2 ADD SWAP2 DUP2 DUP2 ADD SWAP1 DUP7 DUP5 GT ISZERO PUSH3 0xE59 JUMPI PUSH1 0x0 DUP1 REVERT JUMPDEST DUP3 DUP7 ADD JUMPDEST DUP5 DUP2 LT ISZERO PUSH3 0xE09 JUMPI DUP1 MLOAD DUP4 MSTORE SWAP2 DUP4 ADD SWAP2 DUP4 ADD PUSH3 0xE5D JUMP JUMPDEST PUSH1 0x0 DUP3 PUSH1 0x1F DUP4 ADD SLT PUSH3 0xE88 JUMPI PUSH1 0x0 DUP1 REVERT JUMPDEST DUP2 MLOAD PUSH1 0x20 PUSH3 0xE9B PUSH3 0xDBD DUP4 PUSH3 0xD55 JUMP JUMPDEST DUP3 DUP2 MSTORE PUSH1 0x5 SWAP3 SWAP1 SWAP3 SHL DUP5 ADD DUP2 ADD SWAP2 DUP2 DUP2 ADD SWAP1 DUP7 DUP5 GT ISZERO PUSH3 0xEBB JUMPI PUSH1 0x0 DUP1 REVERT JUMPDEST DUP3 DUP7 ADD JUMPDEST DUP5 DUP2 LT ISZERO PUSH3 0xE09 JUMPI DUP1 MLOAD DUP1 ISZERO ISZERO DUP2 EQ PUSH3 0xEDA JUMPI PUSH1 0x0 DUP1 DUP2 REVERT JUMPDEST DUP4 MSTORE SWAP2 DUP4 ADD SWAP2 DUP4 ADD PUSH3 0xEBF JUMP JUMPDEST PUSH1 0x0 DUP1 PUSH1 0x0 DUP1 PUSH1 0x80 DUP6 DUP8 SUB SLT ISZERO PUSH3 0xEFF JUMPI PUSH1 0x0 DUP1 REVERT JUMPDEST DUP5 MLOAD PUSH1 0x1 PUSH1 0x1 PUSH1 0x40 SHL SUB DUP1 DUP3 GT ISZERO PUSH3 0xF17 JUMPI PUSH1 0x0 DUP1 REVERT JUMPDEST DUP2 DUP8 ADD SWAP2 POP DUP8 PUSH1 0x1F DUP4 ADD SLT PUSH3 0xF2C JUMPI PUSH1 0x0 DUP1 REVERT JUMPDEST DUP2 MLOAD PUSH1 0x20 PUSH3 0xF3F PUSH3 0xDBD DUP4 PUSH3 0xD55 JUMP JUMPDEST DUP3 DUP2 MSTORE PUSH1 0x5 SWAP3 SWAP1 SWAP3 SHL DUP5 ADD DUP2 ADD SWAP2 DUP2 DUP2 ADD SWAP1 DUP12 DUP5 GT ISZERO PUSH3 0xF5F JUMPI PUSH1 0x0 DUP1 REVERT JUMPDEST DUP3 DUP7 ADD JUMPDEST DUP5 DUP2 LT ISZERO PUSH3 0x100C JUMPI DUP1 MLOAD DUP7 DUP2 GT ISZERO PUSH3 0xF7C JUMPI PUSH1 0x0 DUP1 REVERT JUMPDEST DUP8 ADD PUSH1 0x3F DUP2 ADD DUP15 SGT PUSH3 0xF8E JUMPI PUSH1 0x0 DUP1 REVERT JUMPDEST DUP5 DUP2 ADD MLOAD DUP8 DUP2 GT ISZERO PUSH3 0xFA5 JUMPI PUSH3 0xFA5 PUSH3 0xD0C JUMP JUMPDEST PUSH3 0xFB9 PUSH1 0x1F DUP3 ADD PUSH1 0x1F NOT AND DUP8 ADD PUSH3 0xD22 JUMP JUMPDEST DUP2 DUP2 MSTORE DUP16 PUSH1 0x40 DUP4 DUP6 ADD ADD GT ISZERO PUSH3 0xFD0 JUMPI PUSH1 0x0 DUP1 DUP2 REVERT JUMPDEST PUSH1 0x0 JUMPDEST DUP3 DUP2 LT ISZERO PUSH3 0xFF1 JUMPI DUP4 DUP2 ADD PUSH1 0x40 ADD MLOAD DUP3 DUP3 ADD DUP10 ADD MSTORE DUP8 ADD PUSH3 0xFD3 JUMP JUMPDEST POP PUSH1 0x0 SWAP2 DUP2 ADD DUP8 ADD SWAP2 SWAP1 SWAP2 MSTORE DUP5 MSTORE POP SWAP2 DUP4 ADD SWAP2 DUP4 ADD PUSH3 0xF63 JUMP JUMPDEST POP SWAP2 DUP11 ADD MLOAD SWAP2 SWAP9 POP SWAP1 SWAP4 POP POP POP DUP1 DUP3 GT ISZERO PUSH3 0x1027 JUMPI PUSH1 0x0 DUP1 REVERT JUMPDEST PUSH3 0x1035 DUP9 DUP4 DUP10 ADD PUSH3 0xD98 JUMP JUMPDEST SWAP5 POP PUSH1 0x40 DUP8 ADD MLOAD SWAP2 POP DUP1 DUP3 GT ISZERO PUSH3 0x104C JUMPI PUSH1 0x0 DUP1 REVERT JUMPDEST PUSH3 0x105A DUP9 DUP4 DUP10 ADD PUSH3 0xE14 JUMP JUMPDEST SWAP4 POP PUSH1 0x60 DUP8 ADD MLOAD SWAP2 POP DUP1 DUP3 GT ISZERO PUSH3 0x1071 JUMPI PUSH1 0x0 DUP1 REVERT JUMPDEST POP PUSH3 0x1080 DUP8 DUP3 DUP9 ADD PUSH3 0xE76 JUMP JUMPDEST SWAP2 POP POP SWAP3 SWAP6 SWAP2 SWAP5 POP SWAP3 POP JUMP JUMPDEST PUSH4 0x4E487B71 PUSH1 0xE0 SHL PUSH1 0x0 MSTORE PUSH1 0x32 PUSH1 0x4 MSTORE PUSH1 0x24 PUSH1 0x0 REVERT JUMPDEST PUSH1 0x1 DUP2 DUP2 SHR SWAP1 DUP3 AND DUP1 PUSH3 0x10B7 JUMPI PUSH1 0x7F DUP3 AND SWAP2 POP JUMPDEST PUSH1 0x20 DUP3 LT DUP2 SUB PUSH3 0x10D8 JUMPI PUSH4 0x4E487B71 PUSH1 0xE0 SHL PUSH1 0x0 MSTORE PUSH1 0x22 PUSH1 0x4 MSTORE PUSH1 0x24 PUSH1 0x0 REVERT JUMPDEST POP SWAP2 SWAP1 POP JUMP JUMPDEST PUSH1 0x1F DUP3 GT ISZERO PUSH3 0x112C JUMPI PUSH1 0x0 DUP2 DUP2 MSTORE PUSH1 0x20 DUP2 KECCAK256 PUSH1 0x1F DUP6 ADD PUSH1 0x5 SHR DUP2 ADD PUSH1 0x20 DUP7 LT ISZERO PUSH3 0x1107 JUMPI POP DUP1 JUMPDEST PUSH1 0x1F DUP6 ADD PUSH1 0x5 SHR DUP3 ADD SWAP2 POP JUMPDEST DUP2 DUP2 LT ISZERO PUSH3 0x1128 JUMPI DUP3 DUP2 SSTORE PUSH1 0x1 ADD PUSH3 0x1113 JUMP JUMPDEST POP POP POP JUMPDEST POP POP POP JUMP JUMPDEST DUP2 MLOAD PUSH1 0x1 PUSH1 0x1 PUSH1 0x40 SHL SUB DUP2 GT ISZERO PUSH3 0x114D JUMPI PUSH3 0x114D PUSH3 0xD0C JUMP JUMPDEST PUSH3 0x1165 DUP2 PUSH3 0x115E DUP5 SLOAD PUSH3 0x10A2 JUMP JUMPDEST DUP5 PUSH3 0x10DE JUMP JUMPDEST PUSH1 0x20 DUP1 PUSH1 0x1F DUP4 GT PUSH1 0x1 DUP2 EQ PUSH3 0x119D JUMPI PUSH1 0x0 DUP5 ISZERO PUSH3 0x1184 JUMPI POP DUP6 DUP4 ADD MLOAD JUMPDEST PUSH1 0x0 NOT PUSH1 0x3 DUP7 SWAP1 SHL SHR NOT AND PUSH1 0x1 DUP6 SWAP1 SHL OR DUP6 SSTORE PUSH3 0x1128 JUMP JUMPDEST PUSH1 0x0 DUP6 DUP2 MSTORE PUSH1 0x20 DUP2 KECCAK256 PUSH1 0x1F NOT DUP7 AND SWAP2 JUMPDEST DUP3 DUP2 LT ISZERO PUSH3 0x11CE JUMPI DUP9 DUP7 ADD MLOAD DUP3 SSTORE SWAP5 DUP5 ADD SWAP5 PUSH1 0x1 SWAP1 SWAP2 ADD SWAP1 DUP5 ADD PUSH3 0x11AD JUMP JUMPDEST POP DUP6 DUP3 LT ISZERO PUSH3 0x11ED JUMPI DUP8 DUP6 ADD MLOAD PUSH1 0x0 NOT PUSH1 0x3 DUP9 SWAP1 SHL PUSH1 0xF8 AND SHR NOT AND DUP2 SSTORE JUMPDEST POP POP POP POP POP PUSH1 0x1 SWAP1 DUP2 SHL ADD SWAP1 SSTORE POP JUMP JUMPDEST PUSH1 0x0 PUSH1 0x20 DUP3 DUP5 SUB SLT ISZERO PUSH3 0x1210 JUMPI PUSH1 0x0 DUP1 REVERT JUMPDEST PUSH3 0x121B DUP3 PUSH3 0xD7B JUMP JUMPDEST SWAP4 SWAP3 POP POP POP JUMP JUMPDEST PUSH4 0x4E487B71 PUSH1 0xE0 SHL PUSH1 0x0 MSTORE PUSH1 0x11 PUSH1 0x4 MSTORE PUSH1 0x24 PUSH1 0x0 REVERT JUMPDEST DUP1 DUP3 ADD DUP1 DUP3 GT ISZERO PUSH3 0x124E JUMPI PUSH3 0x124E PUSH3 0x1222 JUMP JUMPDEST SWAP3 SWAP2 POP POP JUMP JUMPDEST PUSH1 0x0 PUSH1 0x20 DUP3 DUP5 SUB SLT ISZERO PUSH3 0x1267 JUMPI PUSH1 0x0 DUP1 REVERT JUMPDEST POP MLOAD SWAP2 SWAP1 POP JUMP JUMPDEST PUSH1 0x1 DUP2 DUP2 JUMPDEST DUP1 DUP6 GT ISZERO PUSH3 0x12AF JUMPI DUP2 PUSH1 0x0 NOT DIV DUP3 GT ISZERO PUSH3 0x1293 JUMPI PUSH3 0x1293 PUSH3 0x1222 JUMP JUMPDEST DUP1 DUP6 AND ISZERO PUSH3 0x12A1 JUMPI SWAP2 DUP2 MUL SWAP2 JUMPDEST SWAP4 DUP5 SHR SWAP4 SWAP1 DUP1 MUL SWAP1 PUSH3 0x1273 JUMP JUMPDEST POP SWAP3 POP SWAP3 SWAP1 POP JUMP JUMPDEST PUSH1 0x0 DUP3 PUSH3 0x12C8 JUMPI POP PUSH1 0x1 PUSH3 0x124E JUMP JUMPDEST DUP2 PUSH3 0x12D7 JUMPI POP PUSH1 0x0 PUSH3 0x124E JUMP JUMPDEST DUP2 PUSH1 0x1 DUP2 EQ PUSH3 0x12F0 JUMPI PUSH1 0x2 DUP2 EQ PUSH3 0x12FB JUMPI PUSH3 0x131B JUMP JUMPDEST PUSH1 0x1 SWAP2 POP POP PUSH3 0x124E JUMP JUMPDEST PUSH1 0xFF DUP5 GT ISZERO PUSH3 0x130F JUMPI PUSH3 0x130F PUSH3 0x1222 JUMP JUMPDEST POP POP PUSH1 0x1 DUP3 SHL PUSH3 0x124E JUMP JUMPDEST POP PUSH1 0x20 DUP4 LT PUSH2 0x133 DUP4 LT AND PUSH1 0x4E DUP5 LT PUSH1 0xB DUP5 LT AND OR ISZERO PUSH3 0x1340 JUMPI POP DUP2 DUP2 EXP PUSH3 0x124E JUMP JUMPDEST PUSH3 0x134C DUP4 DUP4 PUSH3 0x126E JUMP JUMPDEST DUP1 PUSH1 0x0 NOT DIV DUP3 GT ISZERO PUSH3 0x1363 JUMPI PUSH3 0x1363 PUSH3 0x1222 JUMP JUMPDEST MUL SWAP4 SWAP3 POP POP POP JUMP JUMPDEST PUSH1 0x0 PUSH3 0x121B DUP4 DUP4 PUSH3 0x12B7 JUMP JUMPDEST PUSH1 0x0 DUP3 PUSH3 0x1397 JUMPI PUSH4 0x4E487B71 PUSH1 0xE0 SHL PUSH1 0x0 MSTORE PUSH1 0x12 PUSH1 0x4 MSTORE PUSH1 0x24 PUSH1 0x0 REVERT JUMPDEST POP DIV SWAP1 JUMP JUMPDEST PUSH2 0x3B02 DUP1 PUSH3 0x13AC PUSH1 0x0 CODECOPY PUSH1 0x0 RETURN INVALID PUSH1 0x80 PUSH1 0x40 MSTORE PUSH1 0x4 CALLDATASIZE LT PUSH2 0x3AD JUMPI PUSH1 0x0 CALLDATALOAD PUSH1 0xE0 SHR DUP1 PUSH4 0x70A08231 GT PUSH2 0x1E5 JUMPI DUP1 PUSH4 0x70A08231 EQ PUSH2 0x898 JUMPI DUP1 PUSH4 0x715018A6 EQ PUSH2 0x8B8 JUMPI DUP1 PUSH4 0x79DC880C EQ PUSH2 0x8CD JUMPI DUP1 PUSH4 0x7DB1342C EQ PUSH2 0x8ED JUMPI DUP1 PUSH4 0x85DC3004 EQ PUSH2 0x90D JUMPI DUP1 PUSH4 0x86917524 EQ PUSH2 0x92D JUMPI DUP1 PUSH4 0x8718B24F EQ PUSH2 0x943 JUMPI DUP1 PUSH4 0x8C2FC7AD EQ PUSH2 0x969 JUMPI DUP1 PUSH4 0x8DA5CB5B EQ PUSH2 0x989 JUMPI DUP1 PUSH4 0x8F6CD17D EQ PUSH2 0x9A7 JUMPI DUP1 PUSH4 0x95D89B41 EQ PUSH2 0x9BD JUMPI DUP1 PUSH4 0x992DB38F EQ PUSH2 0x9D2 JUMPI DUP1 PUSH4 0x9CC0E3C7 EQ PUSH2 0x9E7 JUMPI DUP1 PUSH4 0xA8424861 EQ PUSH2 0xA07 JUMPI DUP1 PUSH4 0xA9059CBB EQ PUSH2 0xA27 JUMPI DUP1 PUSH4 0xAA4BDE28 EQ PUSH2 0xA47 JUMPI DUP1 PUSH4 0xAA582B42 EQ PUSH2 0xA5D JUMPI DUP1 PUSH4 0xADC7955D EQ PUSH2 0xA7D JUMPI DUP1 PUSH4 0xB02D757F EQ PUSH2 0xA93 JUMPI DUP1 PUSH4 0xB60368FC EQ PUSH2 0xAB4 JUMPI DUP1 PUSH4 0xB9FBC49D EQ PUSH2 0xAD4 JUMPI DUP1 PUSH4 0xBAB01F4C EQ PUSH2 0xAEA JUMPI DUP1 PUSH4 0xBBA30F8F EQ PUSH2 0xB0A JUMPI DUP1 PUSH4 0xBD25BF29 EQ PUSH2 0xB2A JUMPI DUP1 PUSH4 0xBE4FE9A5 EQ PUSH2 0xB5A JUMPI DUP1 PUSH4 0xBFC3137E EQ PUSH2 0xB70 JUMPI DUP1 PUSH4 0xC213D62D EQ PUSH2 0xB86 JUMPI DUP1 PUSH4 0xC92D567E EQ PUSH2 0xBA6 JUMPI DUP1 PUSH4 0xCE0192F9 EQ PUSH2 0xBC7 JUMPI DUP1 PUSH4 0xD5986433 EQ PUSH2 0xBDD JUMPI DUP1 PUSH4 0xDD62ED3E EQ PUSH2 0xBFE JUMPI DUP1 PUSH4 0xE32759CF EQ PUSH2 0xC44 JUMPI DUP1 PUSH4 0xE5A6B10F EQ PUSH2 0xC5A JUMPI DUP1 PUSH4 0xE5C2B0A6 EQ PUSH2 0xC7A JUMPI DUP1 PUSH4 0xE82BEF29 EQ PUSH2 0xC9A JUMPI DUP1 PUSH4 0xEA10510E EQ PUSH2 0xCBA JUMPI DUP1 PUSH4 0xEB10B741 EQ PUSH2 0xCDA JUMPI DUP1 PUSH4 0xEDB1BCD9 EQ PUSH2 0xCF0 JUMPI DUP1 PUSH4 0xEF6E4F17 EQ PUSH2 0xD10 JUMPI DUP1 PUSH4 0xF2FDE38B EQ PUSH2 0xD26 JUMPI DUP1 PUSH4 0xF7C618C1 EQ PUSH2 0xD46 JUMPI PUSH1 0x0 DUP1 REVERT JUMPDEST DUP1 PUSH4 0x1339C21 EQ PUSH2 0x3B9 JUMPI DUP1 PUSH4 0x1986FAD EQ PUSH2 0x3D0 JUMPI DUP1 PUSH4 0x3DA2B23 EQ PUSH2 0x415 JUMPI DUP1 PUSH4 0x5833C2B EQ PUSH2 0x436 JUMPI DUP1 PUSH4 0x60E304E EQ PUSH2 0x456 JUMPI DUP1 PUSH4 0x6FDDE03 EQ PUSH2 0x476 JUMPI DUP1 PUSH4 0x7313D8D EQ PUSH2 0x498 JUMPI DUP1 PUSH4 0x7C3ADF0 EQ PUSH2 0x4B8 JUMPI DUP1 PUSH4 0x95EA7B3 EQ PUSH2 0x4DC JUMPI DUP1 PUSH4 0xF890B86 EQ PUSH2 0x4FC JUMPI DUP1 PUSH4 0x14A432C9 EQ PUSH2 0x511 JUMPI DUP1 PUSH4 0x150E4C47 EQ PUSH2 0x531 JUMPI DUP1 PUSH4 0x15D07D82 EQ PUSH2 0x551 JUMPI DUP1 PUSH4 0x18160DDD EQ PUSH2 0x56B JUMPI DUP1 PUSH4 0x1846A5A4 EQ PUSH2 0x580 JUMPI DUP1 PUSH4 0x18D12855 EQ PUSH2 0x5A1 JUMPI DUP1 PUSH4 0x1DBBAEBD EQ PUSH2 0x5B6 JUMPI DUP1 PUSH4 0x206C17BB EQ PUSH2 0x5D6 JUMPI DUP1 PUSH4 0x2381D95D EQ PUSH2 0x603 JUMPI DUP1 PUSH4 0x23B872DD EQ PUSH2 0x623 JUMPI DUP1 PUSH4 0x255412D9 EQ PUSH2 0x643 JUMPI DUP1 PUSH4 0x2DAB693F EQ PUSH2 0x659 JUMPI DUP1 PUSH4 0x313CE567 EQ PUSH2 0x66F JUMPI DUP1 PUSH4 0x35C96089 EQ PUSH2 0x684 JUMPI DUP1 PUSH4 0x37D0A1C9 EQ PUSH2 0x69E JUMPI DUP1 PUSH4 0x3B1CD187 EQ PUSH2 0x6BE JUMPI DUP1 PUSH4 0x3BB82EB6 EQ PUSH2 0x6D4 JUMPI DUP1 PUSH4 0x3BFE62CA EQ PUSH2 0x6F4 JUMPI DUP1 PUSH4 0x3C11100D EQ PUSH2 0x70A JUMPI DUP1 PUSH4 0x40AA81FE EQ PUSH2 0x73A JUMPI DUP1 PUSH4 0x4188BF5A EQ PUSH2 0x76A JUMPI DUP1 PUSH4 0x4482004E EQ PUSH2 0x78A JUMPI DUP1 PUSH4 0x4D5CE038 EQ PUSH2 0x7A0 JUMPI DUP1 PUSH4 0x4EA6037C EQ PUSH2 0x7C0 JUMPI DUP1 PUSH4 0x553193CA EQ PUSH2 0x7E0 JUMPI DUP1 PUSH4 0x5A7BA73C EQ PUSH2 0x7F6 JUMPI DUP1 PUSH4 0x6108A3DB EQ PUSH2 0x817 JUMPI DUP1 PUSH4 0x621823E6 EQ PUSH2 0x837 JUMPI DUP1 PUSH4 0x6402511E EQ PUSH2 0x84D JUMPI DUP1 PUSH4 0x697CFC19 EQ PUSH2 0x86D JUMPI DUP1 PUSH4 0x6B611368 EQ PUSH2 0x882 JUMPI PUSH1 0x0 DUP1 REVERT JUMPDEST CALLDATASIZE PUSH2 0x3B4 JUMPI STOP JUMPDEST PUSH1 0x0 DUP1 REVERT JUMPDEST CALLVALUE DUP1 ISZERO PUSH2 0x3C5 JUMPI PUSH1 0x0 DUP1 REVERT JUMPDEST POP PUSH2 0x3CE PUSH2 0xD6B JUMP JUMPDEST STOP JUMPDEST CALLVALUE DUP1 ISZERO PUSH2 0x3DC JUMPI PUSH1 0x0 DUP1 REVERT JUMPDEST POP PUSH2 0x400 PUSH2 0x3EB CALLDATASIZE PUSH1 0x4 PUSH2 0x352D JUMP JUMPDEST PUSH1 0xA PUSH1 0x20 MSTORE PUSH1 0x0 SWAP1 DUP2 MSTORE PUSH1 0x40 SWAP1 KECCAK256 SLOAD PUSH1 0xFF AND DUP2 JUMP JUMPDEST PUSH1 0x40 MLOAD SWAP1 ISZERO ISZERO DUP2 MSTORE PUSH1 0x20 ADD JUMPDEST PUSH1 0x40 MLOAD DUP1 SWAP2 SUB SWAP1 RETURN JUMPDEST CALLVALUE DUP1 ISZERO PUSH2 0x421 JUMPI PUSH1 0x0 DUP1 REVERT JUMPDEST POP PUSH1 0x20 SLOAD PUSH2 0x400 SWAP1 PUSH1 0x1 PUSH1 0xB8 SHL SWAP1 DIV PUSH1 0xFF AND DUP2 JUMP JUMPDEST CALLVALUE DUP1 ISZERO PUSH2 0x442 JUMPI PUSH1 0x0 DUP1 REVERT JUMPDEST POP PUSH2 0x3CE PUSH2 0x451 CALLDATASIZE PUSH1 0x4 PUSH2 0x355F JUMP JUMPDEST PUSH2 0xDDD JUMP JUMPDEST CALLVALUE DUP1 ISZERO PUSH2 0x462 JUMPI PUSH1 0x0 DUP1 REVERT JUMPDEST POP PUSH2 0x3CE PUSH2 0x471 CALLDATASIZE PUSH1 0x4 PUSH2 0x3598 JUMP JUMPDEST PUSH2 0xE32 JUMP JUMPDEST CALLVALUE DUP1 ISZERO PUSH2 0x482 JUMPI PUSH1 0x0 DUP1 REVERT JUMPDEST POP PUSH2 0x48B PUSH2 0xEA2 JUMP JUMPDEST PUSH1 0x40 MLOAD PUSH2 0x40C SWAP2 SWAP1 PUSH2 0x35B1 JUMP JUMPDEST CALLVALUE DUP1 ISZERO PUSH2 0x4A4 JUMPI PUSH1 0x0 DUP1 REVERT JUMPDEST POP PUSH2 0x3CE PUSH2 0x4B3 CALLDATASIZE PUSH1 0x4 PUSH2 0x35FF JUMP JUMPDEST PUSH2 0xF34 JUMP JUMPDEST CALLVALUE DUP1 ISZERO PUSH2 0x4C4 JUMPI PUSH1 0x0 DUP1 REVERT JUMPDEST POP PUSH2 0x4CE PUSH1 0x14 SLOAD DUP2 JUMP JUMPDEST PUSH1 0x40 MLOAD SWAP1 DUP2 MSTORE PUSH1 0x20 ADD PUSH2 0x40C JUMP JUMPDEST CALLVALUE DUP1 ISZERO PUSH2 0x4E8 JUMPI PUSH1 0x0 DUP1 REVERT JUMPDEST POP PUSH2 0x3CE PUSH2 0x4F7 CALLDATASIZE PUSH1 0x4 PUSH2 0x361C JUMP JUMPDEST PUSH2 0xF7C JUMP JUMPDEST CALLVALUE DUP1 ISZERO PUSH2 0x508 JUMPI PUSH1 0x0 DUP1 REVERT JUMPDEST POP PUSH2 0x3CE PUSH2 0xF8B JUMP JUMPDEST CALLVALUE DUP1 ISZERO PUSH2 0x51D JUMPI PUSH1 0x0 DUP1 REVERT JUMPDEST POP PUSH2 0x3CE PUSH2 0x52C CALLDATASIZE PUSH1 0x4 PUSH2 0x3598 JUMP JUMPDEST PUSH2 0xFC4 JUMP JUMPDEST CALLVALUE DUP1 ISZERO PUSH2 0x53D JUMPI PUSH1 0x0 DUP1 REVERT JUMPDEST POP PUSH2 0x3CE PUSH2 0x54C CALLDATASIZE PUSH1 0x4 PUSH2 0x3693 JUMP JUMPDEST PUSH2 0xFF3 JUMP JUMPDEST CALLVALUE DUP1 ISZERO PUSH2 0x55D JUMPI PUSH1 0x0 DUP1 REVERT JUMPDEST POP PUSH1 0x1D SLOAD PUSH2 0x400 SWAP1 PUSH1 0xFF AND DUP2 JUMP JUMPDEST CALLVALUE DUP1 ISZERO PUSH2 0x577 JUMPI PUSH1 0x0 DUP1 REVERT JUMPDEST POP PUSH1 0xD SLOAD PUSH2 0x4CE JUMP JUMPDEST CALLVALUE DUP1 ISZERO PUSH2 0x58C JUMPI PUSH1 0x0 DUP1 REVERT JUMPDEST POP PUSH1 0x20 SLOAD PUSH2 0x400 SWAP1 PUSH1 0x1 PUSH1 0xC8 SHL SWAP1 DIV PUSH1 0xFF AND DUP2 JUMP JUMPDEST CALLVALUE DUP1 ISZERO PUSH2 0x5AD JUMPI PUSH1 0x0 DUP1 REVERT JUMPDEST POP PUSH2 0x3CE PUSH2 0x1094 JUMP JUMPDEST CALLVALUE DUP1 ISZERO PUSH2 0x5C2 JUMPI PUSH1 0x0 DUP1 REVERT JUMPDEST POP PUSH2 0x3CE PUSH2 0x5D1 CALLDATASIZE PUSH1 0x4 PUSH2 0x36E9 JUMP JUMPDEST PUSH2 0x10C5 JUMP JUMPDEST CALLVALUE DUP1 ISZERO PUSH2 0x5E2 JUMPI PUSH1 0x0 DUP1 REVERT JUMPDEST POP PUSH1 0xE SLOAD PUSH2 0x5F6 SWAP1 PUSH1 0x1 PUSH1 0x1 PUSH1 0xA0 SHL SUB AND DUP2 JUMP JUMPDEST PUSH1 0x40 MLOAD PUSH2 0x40C SWAP2 SWAP1 PUSH2 0x372A JUMP JUMPDEST CALLVALUE DUP1 ISZERO PUSH2 0x60F JUMPI PUSH1 0x0 DUP1 REVERT JUMPDEST POP PUSH1 0x4 SLOAD PUSH2 0x5F6 SWAP1 PUSH1 0x1 PUSH1 0x1 PUSH1 0xA0 SHL SUB AND DUP2 JUMP JUMPDEST CALLVALUE DUP1 ISZERO PUSH2 0x62F JUMPI PUSH1 0x0 DUP1 REVERT JUMPDEST POP PUSH2 0x3CE PUSH2 0x63E CALLDATASIZE PUSH1 0x4 PUSH2 0x373E JUMP JUMPDEST PUSH2 0x11DE JUMP JUMPDEST CALLVALUE DUP1 ISZERO PUSH2 0x64F JUMPI PUSH1 0x0 DUP1 REVERT JUMPDEST POP PUSH2 0x4CE PUSH1 0x15 SLOAD DUP2 JUMP JUMPDEST CALLVALUE DUP1 ISZERO PUSH2 0x665 JUMPI PUSH1 0x0 DUP1 REVERT JUMPDEST POP PUSH2 0x4CE PUSH1 0x8 SLOAD DUP2 JUMP JUMPDEST CALLVALUE DUP1 ISZERO PUSH2 0x67B JUMPI PUSH1 0x0 DUP1 REVERT JUMPDEST POP PUSH1 0x7 SLOAD PUSH2 0x4CE JUMP JUMPDEST CALLVALUE DUP1 ISZERO PUSH2 0x690 JUMPI PUSH1 0x0 DUP1 REVERT JUMPDEST POP PUSH1 0x11 SLOAD PUSH2 0x400 SWAP1 PUSH1 0xFF AND DUP2 JUMP JUMPDEST CALLVALUE DUP1 ISZERO PUSH2 0x6AA JUMPI PUSH1 0x0 DUP1 REVERT JUMPDEST POP PUSH2 0x3CE PUSH2 0x6B9 CALLDATASIZE PUSH1 0x4 PUSH2 0x35FF JUMP JUMPDEST PUSH2 0x126D JUMP JUMPDEST CALLVALUE DUP1 ISZERO PUSH2 0x6CA JUMPI PUSH1 0x0 DUP1 REVERT JUMPDEST POP PUSH2 0x4CE PUSH1 0x1A SLOAD DUP2 JUMP JUMPDEST CALLVALUE DUP1 ISZERO PUSH2 0x6E0 JUMPI PUSH1 0x0 DUP1 REVERT JUMPDEST POP PUSH2 0x3CE PUSH2 0x6EF CALLDATASIZE PUSH1 0x4 PUSH2 0x3598 JUMP JUMPDEST PUSH2 0x12B5 JUMP JUMPDEST CALLVALUE DUP1 ISZERO PUSH2 0x700 JUMPI PUSH1 0x0 DUP1 REVERT JUMPDEST POP PUSH2 0x4CE PUSH1 0x16 SLOAD DUP2 JUMP JUMPDEST CALLVALUE DUP1 ISZERO PUSH2 0x716 JUMPI PUSH1 0x0 DUP1 REVERT JUMPDEST POP PUSH2 0x400 PUSH2 0x725 CALLDATASIZE PUSH1 0x4 PUSH2 0x352D JUMP JUMPDEST PUSH1 0x10 PUSH1 0x20 MSTORE PUSH1 0x0 SWAP1 DUP2 MSTORE PUSH1 0x40 SWAP1 KECCAK256 SLOAD PUSH1 0xFF AND DUP2 JUMP JUMPDEST CALLVALUE DUP1 ISZERO PUSH2 0x746 JUMPI PUSH1 0x0 DUP1 REVERT JUMPDEST POP PUSH2 0x400 PUSH2 0x755 CALLDATASIZE PUSH1 0x4 PUSH2 0x352D JUMP JUMPDEST PUSH1 0xC PUSH1 0x20 MSTORE PUSH1 0x0 SWAP1 DUP2 MSTORE PUSH1 0x40 SWAP1 KECCAK256 SLOAD PUSH1 0xFF AND DUP2 JUMP JUMPDEST CALLVALUE DUP1 ISZERO PUSH2 0x776 JUMPI PUSH1 0x0 DUP1 REVERT JUMPDEST POP PUSH1 0x20 SLOAD PUSH2 0x5F6 SWAP1 PUSH1 0x1 PUSH1 0x1 PUSH1 0xA0 SHL SUB AND DUP2 JUMP JUMPDEST CALLVALUE DUP1 ISZERO PUSH2 0x796 JUMPI PUSH1 0x0 DUP1 REVERT JUMPDEST POP PUSH2 0x4CE PUSH1 0x1F SLOAD DUP2 JUMP JUMPDEST CALLVALUE DUP1 ISZERO PUSH2 0x7AC JUMPI PUSH1 0x0 DUP1 REVERT JUMPDEST POP PUSH2 0x4CE PUSH2 0x7BB CALLDATASIZE PUSH1 0x4 PUSH2 0x352D JUMP JUMPDEST PUSH2 0x12E4 JUMP JUMPDEST CALLVALUE DUP1 ISZERO PUSH2 0x7CC JUMPI PUSH1 0x0 DUP1 REVERT JUMPDEST POP PUSH2 0x3CE PUSH2 0x7DB CALLDATASIZE PUSH1 0x4 PUSH2 0x352D JUMP JUMPDEST PUSH2 0x131A JUMP JUMPDEST CALLVALUE DUP1 ISZERO PUSH2 0x7EC JUMPI PUSH1 0x0 DUP1 REVERT JUMPDEST POP PUSH2 0x4CE PUSH1 0x1E SLOAD DUP2 JUMP JUMPDEST CALLVALUE DUP1 ISZERO PUSH2 0x802 JUMPI PUSH1 0x0 DUP1 REVERT JUMPDEST POP PUSH1 0x20 SLOAD PUSH2 0x400 SWAP1 PUSH1 0x1 PUSH1 0xA8 SHL SWAP1 DIV PUSH1 0xFF AND DUP2 JUMP JUMPDEST CALLVALUE DUP1 ISZERO PUSH2 0x823 JUMPI PUSH1 0x0 DUP1 REVERT JUMPDEST POP PUSH2 0x3CE PUSH2 0x832 CALLDATASIZE PUSH1 0x4 PUSH2 0x3693 JUMP JUMPDEST PUSH2 0x1366 JUMP JUMPDEST CALLVALUE DUP1 ISZERO PUSH2 0x843 JUMPI PUSH1 0x0 DUP1 REVERT JUMPDEST POP PUSH2 0x4CE PUSH1 0x2B SLOAD DUP2 JUMP JUMPDEST CALLVALUE DUP1 ISZERO PUSH2 0x859 JUMPI PUSH1 0x0 DUP1 REVERT JUMPDEST POP PUSH2 0x3CE PUSH2 0x868 CALLDATASIZE PUSH1 0x4 PUSH2 0x3598 JUMP JUMPDEST PUSH2 0x1435 JUMP JUMPDEST CALLVALUE DUP1 ISZERO PUSH2 0x879 JUMPI PUSH1 0x0 DUP1 REVERT JUMPDEST POP PUSH2 0x3CE PUSH2 0x1464 JUMP JUMPDEST CALLVALUE DUP1 ISZERO PUSH2 0x88E JUMPI PUSH1 0x0 DUP1 REVERT JUMPDEST POP PUSH2 0x4CE PUSH1 0x19 SLOAD DUP2 JUMP JUMPDEST CALLVALUE DUP1 ISZERO PUSH2 0x8A4 JUMPI PUSH1 0x0 DUP1 REVERT JUMPDEST POP PUSH2 0x4CE PUSH2 0x8B3 CALLDATASIZE PUSH1 0x4 PUSH2 0x352D JUMP JUMPDEST PUSH2 0x149D JUMP JUMPDEST CALLVALUE DUP1 ISZERO PUSH2 0x8C4 JUMPI PUSH1 0x0 DUP1 REVERT JUMPDEST POP PUSH2 0x3CE PUSH2 0x1546 JUMP JUMPDEST CALLVALUE DUP1 ISZERO PUSH2 0x8D9 JUMPI PUSH1 0x0 DUP1 REVERT JUMPDEST POP PUSH2 0x3CE PUSH2 0x8E8 CALLDATASIZE PUSH1 0x4 PUSH2 0x3598 JUMP JUMPDEST PUSH2 0x15A8 JUMP JUMPDEST CALLVALUE DUP1 ISZERO PUSH2 0x8F9 JUMPI PUSH1 0x0 DUP1 REVERT JUMPDEST POP PUSH2 0x3CE PUSH2 0x908 CALLDATASIZE PUSH1 0x4 PUSH2 0x3598 JUMP JUMPDEST PUSH2 0x1612 JUMP JUMPDEST CALLVALUE DUP1 ISZERO PUSH2 0x919 JUMPI PUSH1 0x0 DUP1 REVERT JUMPDEST POP PUSH2 0x3CE PUSH2 0x928 CALLDATASIZE PUSH1 0x4 PUSH2 0x352D JUMP JUMPDEST PUSH2 0x1641 JUMP JUMPDEST CALLVALUE DUP1 ISZERO PUSH2 0x939 JUMPI PUSH1 0x0 DUP1 REVERT JUMPDEST POP PUSH2 0x4CE PUSH1 0x23 SLOAD DUP2 JUMP JUMPDEST CALLVALUE DUP1 ISZERO PUSH2 0x94F JUMPI PUSH1 0x0 DUP1 REVERT JUMPDEST POP PUSH1 0x11 SLOAD PUSH2 0x5F6 SWAP1 PUSH3 0x10000 SWAP1 DIV PUSH1 0x1 PUSH1 0x1 PUSH1 0xA0 SHL SUB AND DUP2 JUMP JUMPDEST CALLVALUE DUP1 ISZERO PUSH2 0x975 JUMPI PUSH1 0x0 DUP1 REVERT JUMPDEST POP PUSH2 0x3CE PUSH2 0x984 CALLDATASIZE PUSH1 0x4 PUSH2 0x355F JUMP JUMPDEST PUSH2 0x16E9 JUMP JUMPDEST CALLVALUE DUP1 ISZERO PUSH2 0x995 JUMPI PUSH1 0x0 DUP1 REVERT JUMPDEST POP PUSH1 0x0 SLOAD PUSH1 0x1 PUSH1 0x1 PUSH1 0xA0 SHL SUB AND PUSH2 0x5F6 JUMP JUMPDEST CALLVALUE DUP1 ISZERO PUSH2 0x9B3 JUMPI PUSH1 0x0 DUP1 REVERT JUMPDEST POP PUSH2 0x4CE PUSH1 0x22 SLOAD DUP2 JUMP JUMPDEST CALLVALUE DUP1 ISZERO PUSH2 0x9C9 JUMPI PUSH1 0x0 DUP1 REVERT JUMPDEST POP PUSH2 0x48B PUSH2 0x173E JUMP JUMPDEST CALLVALUE DUP1 ISZERO PUSH2 0x9DE JUMPI PUSH1 0x0 DUP1 REVERT JUMPDEST POP PUSH2 0x3CE PUSH2 0x174D JUMP JUMPDEST CALLVALUE DUP1 ISZERO PUSH2 0x9F3 JUMPI PUSH1 0x0 DUP1 REVERT JUMPDEST POP PUSH2 0x5F6 PUSH2 0xA02 CALLDATASIZE PUSH1 0x4 PUSH2 0x3598 JUMP JUMPDEST PUSH2 0x178A JUMP JUMPDEST CALLVALUE DUP1 ISZERO PUSH2 0xA13 JUMPI PUSH1 0x0 DUP1 REVERT JUMPDEST POP PUSH2 0x3CE PUSH2 0xA22 CALLDATASIZE PUSH1 0x4 PUSH2 0x355F JUMP JUMPDEST PUSH2 0x17B4 JUMP JUMPDEST CALLVALUE DUP1 ISZERO PUSH2 0xA33 JUMPI PUSH1 0x0 DUP1 REVERT JUMPDEST POP PUSH2 0x400 PUSH2 0xA42 CALLDATASIZE PUSH1 0x4 PUSH2 0x361C JUMP JUMPDEST PUSH2 0x1809 JUMP JUMPDEST CALLVALUE DUP1 ISZERO PUSH2 0xA53 JUMPI PUSH1 0x0 DUP1 REVERT JUMPDEST POP PUSH2 0x4CE PUSH1 0x9 SLOAD DUP2 JUMP JUMPDEST CALLVALUE DUP1 ISZERO PUSH2 0xA69 JUMPI PUSH1 0x0 DUP1 REVERT JUMPDEST POP PUSH2 0x3CE PUSH2 0xA78 CALLDATASIZE PUSH1 0x4 PUSH2 0x36E9 JUMP JUMPDEST PUSH2 0x1820 JUMP JUMPDEST CALLVALUE DUP1 ISZERO PUSH2 0xA89 JUMPI PUSH1 0x0 DUP1 REVERT JUMPDEST POP PUSH2 0x4CE PUSH1 0x17 SLOAD DUP2 JUMP JUMPDEST CALLVALUE DUP1 ISZERO PUSH2 0xA9F JUMPI PUSH1 0x0 DUP1 REVERT JUMPDEST POP PUSH1 0x20 SLOAD PUSH2 0x400 SWAP1 PUSH1 0x1 PUSH1 0xB0 SHL SWAP1 DIV PUSH1 0xFF AND DUP2 JUMP JUMPDEST CALLVALUE DUP1 ISZERO PUSH2 0xAC0 JUMPI PUSH1 0x0 DUP1 REVERT JUMPDEST POP PUSH2 0x3CE PUSH2 0xACF CALLDATASIZE PUSH1 0x4 PUSH2 0x361C JUMP JUMPDEST PUSH2 0x1A35 JUMP JUMPDEST CALLVALUE DUP1 ISZERO PUSH2 0xAE0 JUMPI PUSH1 0x0 DUP1 REVERT JUMPDEST POP PUSH2 0x4CE PUSH1 0x13 SLOAD DUP2 JUMP JUMPDEST CALLVALUE DUP1 ISZERO PUSH2 0xAF6 JUMPI PUSH1 0x0 DUP1 REVERT JUMPDEST POP PUSH2 0x3CE PUSH2 0xB05 CALLDATASIZE PUSH1 0x4 PUSH2 0x352D JUMP JUMPDEST PUSH2 0x1B3A JUMP JUMPDEST CALLVALUE DUP1 ISZERO PUSH2 0xB16 JUMPI PUSH1 0x0 DUP1 REVERT JUMPDEST POP PUSH2 0x3CE PUSH2 0xB25 CALLDATASIZE PUSH1 0x4 PUSH2 0x3598 JUMP JUMPDEST PUSH2 0x1B86 JUMP JUMPDEST CALLVALUE DUP1 ISZERO PUSH2 0xB36 JUMPI PUSH1 0x0 DUP1 REVERT JUMPDEST POP PUSH2 0x400 PUSH2 0xB45 CALLDATASIZE PUSH1 0x4 PUSH2 0x352D JUMP JUMPDEST PUSH1 0xB PUSH1 0x20 MSTORE PUSH1 0x0 SWAP1 DUP2 MSTORE PUSH1 0x40 SWAP1 KECCAK256 SLOAD PUSH1 0xFF AND DUP2 JUMP JUMPDEST CALLVALUE DUP1 ISZERO PUSH2 0xB66 JUMPI PUSH1 0x0 DUP1 REVERT JUMPDEST POP PUSH2 0x4CE PUSH1 0x18 SLOAD DUP2 JUMP JUMPDEST CALLVALUE DUP1 ISZERO PUSH2 0xB7C JUMPI PUSH1 0x0 DUP1 REVERT JUMPDEST POP PUSH2 0x4CE PUSH1 0x1B SLOAD DUP2 JUMP JUMPDEST CALLVALUE DUP1 ISZERO PUSH2 0xB92 JUMPI PUSH1 0x0 DUP1 REVERT JUMPDEST POP PUSH2 0x3CE PUSH2 0xBA1 CALLDATASIZE PUSH1 0x4 PUSH2 0x3598 JUMP JUMPDEST PUSH2 0x1BF1 JUMP JUMPDEST CALLVALUE DUP1 ISZERO PUSH2 0xBB2 JUMPI PUSH1 0x0 DUP1 REVERT JUMPDEST POP PUSH1 0x20 SLOAD PUSH2 0x400 SWAP1 PUSH1 0x1 PUSH1 0xA0 SHL SWAP1 DIV PUSH1 0xFF AND DUP2 JUMP JUMPDEST CALLVALUE DUP1 ISZERO PUSH2 0xBD3 JUMPI PUSH1 0x0 DUP1 REVERT JUMPDEST POP PUSH2 0x4CE PUSH1 0x12 SLOAD DUP2 JUMP JUMPDEST CALLVALUE DUP1 ISZERO PUSH2 0xBE9 JUMPI PUSH1 0x0 DUP1 REVERT JUMPDEST POP PUSH1 0x20 SLOAD PUSH2 0x400 SWAP1 PUSH1 0x1 PUSH1 0xC0 SHL SWAP1 DIV PUSH1 0xFF AND DUP2 JUMP JUMPDEST CALLVALUE DUP1 ISZERO PUSH2 0xC0A JUMPI PUSH1 0x0 DUP1 REVERT JUMPDEST POP PUSH2 0x4CE PUSH2 0xC19 CALLDATASIZE PUSH1 0x4 PUSH2 0x377F JUMP JUMPDEST PUSH1 0x1 PUSH1 0x1 PUSH1 0xA0 SHL SUB SWAP2 DUP3 AND PUSH1 0x0 SWAP1 DUP2 MSTORE PUSH1 0x2 PUSH1 0x20 SWAP1 DUP2 MSTORE PUSH1 0x40 DUP1 DUP4 KECCAK256 SWAP4 SWAP1 SWAP5 AND DUP3 MSTORE SWAP2 SWAP1 SWAP2 MSTORE KECCAK256 SLOAD SWAP1 JUMP JUMPDEST CALLVALUE DUP1 ISZERO PUSH2 0xC50 JUMPI PUSH1 0x0 DUP1 REVERT JUMPDEST POP PUSH2 0x4CE PUSH1 0x1C SLOAD DUP2 JUMP JUMPDEST CALLVALUE DUP1 ISZERO PUSH2 0xC66 JUMPI PUSH1 0x0 DUP1 REVERT JUMPDEST POP PUSH1 0xF SLOAD PUSH2 0x5F6 SWAP1 PUSH1 0x1 PUSH1 0x1 PUSH1 0xA0 SHL SUB AND DUP2 JUMP JUMPDEST CALLVALUE DUP1 ISZERO PUSH2 0xC86 JUMPI PUSH1 0x0 DUP1 REVERT JUMPDEST POP PUSH2 0x3CE PUSH2 0xC95 CALLDATASIZE PUSH1 0x4 PUSH2 0x3598 JUMP JUMPDEST PUSH2 0x1C20 JUMP JUMPDEST CALLVALUE DUP1 ISZERO PUSH2 0xCA6 JUMPI PUSH1 0x0 DUP1 REVERT JUMPDEST POP PUSH1 0x3 SLOAD PUSH2 0x5F6 SWAP1 PUSH1 0x1 PUSH1 0x1 PUSH1 0xA0 SHL SUB AND DUP2 JUMP JUMPDEST CALLVALUE DUP1 ISZERO PUSH2 0xCC6 JUMPI PUSH1 0x0 DUP1 REVERT JUMPDEST POP PUSH2 0x3CE PUSH2 0xCD5 CALLDATASIZE PUSH1 0x4 PUSH2 0x35FF JUMP JUMPDEST PUSH2 0x1C88 JUMP JUMPDEST CALLVALUE DUP1 ISZERO PUSH2 0xCE6 JUMPI PUSH1 0x0 DUP1 REVERT JUMPDEST POP PUSH2 0x4CE PUSH1 0x29 SLOAD DUP2 JUMP JUMPDEST CALLVALUE DUP1 ISZERO PUSH2 0xCFC JUMPI PUSH1 0x0 DUP1 REVERT JUMPDEST POP PUSH2 0x3CE PUSH2 0xD0B CALLDATASIZE PUSH1 0x4 PUSH2 0x352D JUMP JUMPDEST PUSH2 0x1CC5 JUMP JUMPDEST CALLVALUE DUP1 ISZERO PUSH2 0xD1C JUMPI PUSH1 0x0 DUP1 REVERT JUMPDEST POP PUSH2 0x4CE PUSH1 0x24 SLOAD DUP2 JUMP JUMPDEST CALLVALUE DUP1 ISZERO PUSH2 0xD32 JUMPI PUSH1 0x0 DUP1 REVERT JUMPDEST POP PUSH2 0x3CE PUSH2 0xD41 CALLDATASIZE PUSH1 0x4 PUSH2 0x352D JUMP JUMPDEST PUSH2 0x1D17 JUMP JUMPDEST CALLVALUE DUP1 ISZERO PUSH2 0xD52 JUMPI PUSH1 0x0 DUP1 REVERT JUMPDEST POP PUSH1 0x1D SLOAD PUSH2 0x5F6 SWAP1 PUSH2 0x100 SWAP1 DIV PUSH1 0x1 PUSH1 0x1 PUSH1 0xA0 SHL SUB AND DUP2 JUMP JUMPDEST PUSH1 0x0 SLOAD PUSH1 0x1 PUSH1 0x1 PUSH1 0xA0 SHL SUB AND CALLER EQ PUSH2 0xD9E JUMPI PUSH1 0x40 MLOAD PUSH3 0x461BCD PUSH1 0xE5 SHL DUP2 MSTORE PUSH1 0x4 ADD PUSH2 0xD95 SWAP1 PUSH2 0x37AD JUMP JUMPDEST PUSH1 0x40 MLOAD DUP1 SWAP2 SUB SWAP1 REVERT JUMPDEST PUSH1 0x1E SLOAD ISZERO PUSH2 0xDD7 JUMPI PUSH1 0x40 MLOAD PUSH3 0x461BCD PUSH1 0xE5 SHL DUP2 MSTORE PUSH1 0x20 PUSH1 0x4 DUP3 ADD MSTORE PUSH1 0x6 PUSH1 0x24 DUP3 ADD MSTORE PUSH6 0x1BDC195B9959 PUSH1 0xD2 SHL PUSH1 0x44 DUP3 ADD MSTORE PUSH1 0x64 ADD PUSH2 0xD95 JUMP JUMPDEST NUMBER PUSH1 0x1E SSTORE JUMP JUMPDEST PUSH1 0x0 SLOAD PUSH1 0x1 PUSH1 0x1 PUSH1 0xA0 SHL SUB AND CALLER EQ PUSH2 0xE07 JUMPI PUSH1 0x40 MLOAD PUSH3 0x461BCD PUSH1 0xE5 SHL DUP2 MSTORE PUSH1 0x4 ADD PUSH2 0xD95 SWAP1 PUSH2 0x37AD JUMP JUMPDEST PUSH1 0x1 PUSH1 0x1 PUSH1 0xA0 SHL SUB SWAP2 SWAP1 SWAP2 AND PUSH1 0x0 SWAP1 DUP2 MSTORE PUSH1 0x27 PUSH1 0x20 MSTORE PUSH1 0x40 SWAP1 KECCAK256 DUP1 SLOAD PUSH1 0xFF NOT AND SWAP2 ISZERO ISZERO SWAP2 SWAP1 SWAP2 OR SWAP1 SSTORE JUMP JUMPDEST PUSH1 0x0 SLOAD PUSH1 0x1 PUSH1 0x1 PUSH1 0xA0 SHL SUB AND CALLER EQ PUSH2 0xE5C JUMPI PUSH1 0x40 MLOAD PUSH3 0x461BCD PUSH1 0xE5 SHL DUP2 MSTORE PUSH1 0x4 ADD PUSH2 0xD95 SWAP1 PUSH2 0x37AD JUMP JUMPDEST DUP1 PUSH1 0x0 SUB PUSH2 0xE9D JUMPI PUSH1 0x40 MLOAD PUSH3 0x461BCD PUSH1 0xE5 SHL DUP2 MSTORE PUSH1 0x20 PUSH1 0x4 DUP3 ADD MSTORE PUSH1 0xE PUSH1 0x24 DUP3 ADD MSTORE PUSH14 0x67726561746572207468616E203 PUSH1 0x94 SHL PUSH1 0x44 DUP3 ADD MSTORE PUSH1 0x64 ADD PUSH2 0xD95 JUMP JUMPDEST PUSH1 0x22 SSTORE JUMP JUMPDEST PUSH1 0x60 PUSH1 0x5 DUP1 SLOAD PUSH2 0xEB1 SWAP1 PUSH2 0x37CD JUMP JUMPDEST DUP1 PUSH1 0x1F ADD PUSH1 0x20 DUP1 SWAP2 DIV MUL PUSH1 0x20 ADD PUSH1 0x40 MLOAD SWAP1 DUP2 ADD PUSH1 0x40 MSTORE DUP1 SWAP3 SWAP2 SWAP1 DUP2 DUP2 MSTORE PUSH1 0x20 ADD DUP3 DUP1 SLOAD PUSH2 0xEDD SWAP1 PUSH2 0x37CD JUMP JUMPDEST DUP1 ISZERO PUSH2 0xF2A JUMPI DUP1 PUSH1 0x1F LT PUSH2 0xEFF JUMPI PUSH2 0x100 DUP1 DUP4 SLOAD DIV MUL DUP4 MSTORE SWAP2 PUSH1 0x20 ADD SWAP2 PUSH2 0xF2A JUMP JUMPDEST DUP3 ADD SWAP2 SWAP1 PUSH1 0x0 MSTORE PUSH1 0x20 PUSH1 0x0 KECCAK256 SWAP1 JUMPDEST DUP2 SLOAD DUP2 MSTORE SWAP1 PUSH1 0x1 ADD SWAP1 PUSH1 0x20 ADD DUP1 DUP4 GT PUSH2 0xF0D JUMPI DUP3 SWAP1 SUB PUSH1 0x1F AND DUP3 ADD SWAP2 JUMPDEST POP POP POP POP POP SWAP1 POP SWAP1 JUMP JUMPDEST PUSH1 0x0 SLOAD PUSH1 0x1 PUSH1 0x1 PUSH1 0xA0 SHL SUB AND CALLER EQ PUSH2 0xF5E JUMPI PUSH1 0x40 MLOAD PUSH3 0x461BCD PUSH1 0xE5 SHL DUP2 MSTORE PUSH1 0x4 ADD PUSH2 0xD95 SWAP1 PUSH2 0x37AD JUMP JUMPDEST PUSH1 0x20 DUP1 SLOAD SWAP2 ISZERO ISZERO PUSH1 0x1 PUSH1 0xC8 SHL MUL PUSH1 0xFF PUSH1 0xC8 SHL NOT SWAP1 SWAP3 AND SWAP2 SWAP1 SWAP2 OR SWAP1 SSTORE JUMP JUMPDEST PUSH2 0xF87 CALLER DUP4 DUP4 PUSH2 0x1DCB JUMP JUMPDEST POP POP JUMP JUMPDEST PUSH1 0x0 SLOAD PUSH1 0x1 PUSH1 0x1 PUSH1 0xA0 SHL SUB AND CALLER EQ PUSH2 0xFB5 JUMPI PUSH1 0x40 MLOAD PUSH3 0x461BCD PUSH1 0xE5 SHL DUP2 MSTORE PUSH1 0x4 ADD PUSH2 0xD95 SWAP1 PUSH2 0x37AD JUMP JUMPDEST PUSH1 0x20 DUP1 SLOAD PUSH1 0xFF PUSH1 0xC0 SHL NOT AND SWAP1 SSTORE JUMP JUMPDEST PUSH1 0x0 SLOAD PUSH1 0x1 PUSH1 0x1 PUSH1 0xA0 SHL SUB AND CALLER EQ PUSH2 0xFEE JUMPI PUSH1 0x40 MLOAD PUSH3 0x461BCD PUSH1 0xE5 SHL DUP2 MSTORE PUSH1 0x4 ADD PUSH2 0xD95 SWAP1 PUSH2 0x37AD JUMP JUMPDEST PUSH1 0x8 SSTORE JUMP JUMPDEST PUSH1 0x0 SLOAD PUSH1 0x1 PUSH1 0x1 PUSH1 0xA0 SHL SUB AND CALLER EQ PUSH2 0x101D JUMPI PUSH1 0x40 MLOAD PUSH3 0x461BCD PUSH1 0xE5 SHL DUP2 MSTORE PUSH1 0x4 ADD PUSH2 0xD95 SWAP1 PUSH2 0x37AD JUMP JUMPDEST PUSH1 0x0 JUMPDEST DUP3 DUP2 LT ISZERO PUSH2 0x108E JUMPI DUP2 PUSH1 0xA PUSH1 0x0 DUP7 DUP7 DUP6 DUP2 DUP2 LT PUSH2 0x103F JUMPI PUSH2 0x103F PUSH2 0x3807 JUMP JUMPDEST SWAP1 POP PUSH1 0x20 MUL ADD PUSH1 0x20 DUP2 ADD SWAP1 PUSH2 0x1054 SWAP2 SWAP1 PUSH2 0x352D JUMP JUMPDEST PUSH1 0x1 PUSH1 0x1 PUSH1 0xA0 SHL SUB AND DUP2 MSTORE PUSH1 0x20 DUP2 ADD SWAP2 SWAP1 SWAP2 MSTORE PUSH1 0x40 ADD PUSH1 0x0 KECCAK256 DUP1 SLOAD PUSH1 0xFF NOT AND SWAP2 ISZERO ISZERO SWAP2 SWAP1 SWAP2 OR SWAP1 SSTORE DUP1 PUSH2 0x1086 DUP2 PUSH2 0x3833 JUMP JUMPDEST SWAP2 POP POP PUSH2 0x1020 JUMP JUMPDEST POP POP POP POP JUMP JUMPDEST PUSH1 0x0 SLOAD PUSH1 0x1 PUSH1 0x1 PUSH1 0xA0 SHL SUB AND CALLER EQ PUSH2 0x10BE JUMPI PUSH1 0x40 MLOAD PUSH3 0x461BCD PUSH1 0xE5 SHL DUP2 MSTORE PUSH1 0x4 ADD PUSH2 0xD95 SWAP1 PUSH2 0x37AD JUMP JUMPDEST PUSH1 0x0 PUSH1 0x1F SSTORE JUMP JUMPDEST PUSH1 0x0 SLOAD PUSH1 0x1 PUSH1 0x1 PUSH1 0xA0 SHL SUB AND CALLER EQ PUSH2 0x10EF JUMPI PUSH1 0x40 MLOAD PUSH3 0x461BCD PUSH1 0xE5 SHL DUP2 MSTORE PUSH1 0x4 ADD PUSH2 0xD95 SWAP1 PUSH2 0x37AD JUMP JUMPDEST PUSH1 0x0 JUMPDEST DUP2 DUP2 LT ISZERO PUSH2 0x11D9 JUMPI PUSH1 0x20 SLOAD PUSH1 0x0 SWAP1 PUSH1 0x1 PUSH1 0x1 PUSH1 0xA0 SHL SUB AND PUSH4 0x70A08231 DUP6 DUP6 DUP6 DUP2 DUP2 LT PUSH2 0x1120 JUMPI PUSH2 0x1120 PUSH2 0x3807 JUMP JUMPDEST SWAP1 POP PUSH1 0x20 MUL ADD PUSH1 0x20 DUP2 ADD SWAP1 PUSH2 0x1135 SWAP2 SWAP1 PUSH2 0x352D JUMP JUMPDEST PUSH1 0x40 MLOAD DUP3 PUSH4 0xFFFFFFFF AND PUSH1 0xE0 SHL DUP2 MSTORE PUSH1 0x4 ADD PUSH2 0x1151 SWAP2 SWAP1 PUSH2 0x372A JUMP JUMPDEST PUSH1 0x20 PUSH1 0x40 MLOAD DUP1 DUP4 SUB DUP2 DUP7 GAS STATICCALL ISZERO DUP1 ISZERO PUSH2 0x116E JUMPI RETURNDATASIZE PUSH1 0x0 DUP1 RETURNDATACOPY RETURNDATASIZE PUSH1 0x0 REVERT JUMPDEST POP POP POP POP PUSH1 0x40 MLOAD RETURNDATASIZE PUSH1 0x1F NOT PUSH1 0x1F DUP3 ADD AND DUP3 ADD DUP1 PUSH1 0x40 MSTORE POP DUP2 ADD SWAP1 PUSH2 0x1192 SWAP2 SWAP1 PUSH2 0x384C JUMP JUMPDEST GT ISZERO PUSH2 0x11C7 JUMPI PUSH2 0x11C7 DUP4 DUP4 DUP4 DUP2 DUP2 LT PUSH2 0x11AD JUMPI PUSH2 0x11AD PUSH2 0x3807 JUMP JUMPDEST SWAP1 POP PUSH1 0x20 MUL ADD PUSH1 0x20 DUP2 ADD SWAP1 PUSH2 0x11C2 SWAP2 SWAP1 PUSH2 0x352D JUMP JUMPDEST PUSH2 0x1E2D JUMP JUMPDEST DUP1 PUSH2 0x11D1 DUP2 PUSH2 0x3833 JUMP JUMPDEST SWAP2 POP POP PUSH2 0x10F2 JUMP JUMPDEST POP POP POP JUMP JUMPDEST PUSH2 0x11E9 DUP4 DUP4 DUP4 PUSH2 0x1EFD JUMP JUMPDEST PUSH1 0x1 PUSH1 0x1 PUSH1 0xA0 SHL SUB DUP4 AND PUSH1 0x0 SWAP1 DUP2 MSTORE PUSH1 0x2 PUSH1 0x20 SWAP1 DUP2 MSTORE PUSH1 0x40 DUP1 DUP4 KECCAK256 CALLER DUP5 MSTORE SWAP1 SWAP2 MSTORE SWAP1 KECCAK256 SLOAD PUSH1 0x0 NOT EQ PUSH2 0x11D9 JUMPI PUSH1 0x1 PUSH1 0x1 PUSH1 0xA0 SHL SUB DUP4 AND PUSH1 0x0 SWAP1 DUP2 MSTORE PUSH1 0x2 PUSH1 0x20 SWAP1 DUP2 MSTORE PUSH1 0x40 DUP1 DUP4 KECCAK256 CALLER DUP5 MSTORE SWAP1 SWAP2 MSTORE SWAP1 KECCAK256 SLOAD PUSH2 0x1244 SWAP1 DUP3 SWAP1 PUSH2 0x3865 JUMP JUMPDEST PUSH1 0x1 PUSH1 0x1 PUSH1 0xA0 SHL SUB DUP5 AND PUSH1 0x0 SWAP1 DUP2 MSTORE PUSH1 0x2 PUSH1 0x20 SWAP1 DUP2 MSTORE PUSH1 0x40 DUP1 DUP4 KECCAK256 CALLER DUP5 MSTORE SWAP1 SWAP2 MSTORE SWAP1 KECCAK256 SSTORE POP POP POP JUMP JUMPDEST PUSH1 0x0 SLOAD PUSH1 0x1 PUSH1 0x1 PUSH1 0xA0 SHL SUB AND CALLER EQ PUSH2 0x1297 JUMPI PUSH1 0x40 MLOAD PUSH3 0x461BCD PUSH1 0xE5 SHL DUP2 MSTORE PUSH1 0x4 ADD PUSH2 0xD95 SWAP1 PUSH2 0x37AD JUMP JUMPDEST PUSH1 0x20 DUP1 SLOAD SWAP2 ISZERO ISZERO PUSH1 0x1 PUSH1 0xA0 SHL MUL PUSH1 0xFF PUSH1 0xA0 SHL NOT SWAP1 SWAP3 AND SWAP2 SWAP1 SWAP2 OR SWAP1 SSTORE JUMP JUMPDEST PUSH1 0x0 SLOAD PUSH1 0x1 PUSH1 0x1 PUSH1 0xA0 SHL SUB AND CALLER EQ PUSH2 0x12DF JUMPI PUSH1 0x40 MLOAD PUSH3 0x461BCD PUSH1 0xE5 SHL DUP2 MSTORE PUSH1 0x4 ADD PUSH2 0xD95 SWAP1 PUSH2 0x37AD JUMP JUMPDEST PUSH1 0x2B SSTORE JUMP JUMPDEST PUSH1 0x1 PUSH1 0x1 PUSH1 0xA0 SHL SUB DUP2 AND PUSH1 0x0 SWAP1 DUP2 MSTORE PUSH1 0xB PUSH1 0x20 MSTORE PUSH1 0x40 DUP2 KECCAK256 SLOAD PUSH1 0xFF AND ISZERO PUSH2 0x130D JUMPI POP PUSH1 0x1 SWAP2 SWAP1 POP JUMP JUMPDEST POP PUSH1 0x0 SWAP2 SWAP1 POP JUMP JUMPDEST SWAP2 SWAP1 POP JUMP JUMPDEST PUSH1 0x0 SLOAD PUSH1 0x1 PUSH1 0x1 PUSH1 0xA0 SHL SUB AND CALLER EQ PUSH2 0x1344 JUMPI PUSH1 0x40 MLOAD PUSH3 0x461BCD PUSH1 0xE5 SHL DUP2 MSTORE PUSH1 0x4 ADD PUSH2 0xD95 SWAP1 PUSH2 0x37AD JUMP JUMPDEST PUSH1 0xF DUP1 SLOAD PUSH1 0x1 PUSH1 0x1 PUSH1 0xA0 SHL SUB NOT AND PUSH1 0x1 PUSH1 0x1 PUSH1 0xA0 SHL SUB SWAP3 SWAP1 SWAP3 AND SWAP2 SWAP1 SWAP2 OR SWAP1 SSTORE JUMP JUMPDEST PUSH1 0x0 SLOAD PUSH1 0x1 PUSH1 0x1 PUSH1 0xA0 SHL SUB AND CALLER EQ PUSH2 0x1390 JUMPI PUSH1 0x40 MLOAD PUSH3 0x461BCD PUSH1 0xE5 SHL DUP2 MSTORE PUSH1 0x4 ADD PUSH2 0xD95 SWAP1 PUSH2 0x37AD JUMP JUMPDEST PUSH1 0x20 SLOAD PUSH1 0x1 PUSH1 0xB0 SHL SWAP1 DIV PUSH1 0xFF AND PUSH2 0x13B9 JUMPI PUSH1 0x40 MLOAD PUSH3 0x461BCD PUSH1 0xE5 SHL DUP2 MSTORE PUSH1 0x4 ADD PUSH2 0xD95 SWAP1 PUSH2 0x3878 JUMP JUMPDEST PUSH1 0xC9 DUP3 LT PUSH2 0x13C6 JUMPI PUSH1 0x0 DUP1 REVERT JUMPDEST PUSH1 0x0 JUMPDEST DUP3 DUP2 LT ISZERO PUSH2 0x108E JUMPI DUP2 PUSH1 0xB PUSH1 0x0 DUP7 DUP7 DUP6 DUP2 DUP2 LT PUSH2 0x13E8 JUMPI PUSH2 0x13E8 PUSH2 0x3807 JUMP JUMPDEST SWAP1 POP PUSH1 0x20 MUL ADD PUSH1 0x20 DUP2 ADD SWAP1 PUSH2 0x13FD SWAP2 SWAP1 PUSH2 0x352D JUMP JUMPDEST PUSH1 0x1 PUSH1 0x1 PUSH1 0xA0 SHL SUB AND DUP2 MSTORE PUSH1 0x20 DUP2 ADD SWAP2 SWAP1 SWAP2 MSTORE PUSH1 0x40 ADD PUSH1 0x0 KECCAK256 DUP1 SLOAD PUSH1 0xFF NOT AND SWAP2 ISZERO ISZERO SWAP2 SWAP1 SWAP2 OR SWAP1 SSTORE PUSH2 0x142E DUP2 PUSH2 0x3833 JUMP JUMPDEST SWAP1 POP PUSH2 0x13C9 JUMP JUMPDEST PUSH1 0x0 SLOAD PUSH1 0x1 PUSH1 0x1 PUSH1 0xA0 SHL SUB AND CALLER EQ PUSH2 0x145F JUMPI PUSH1 0x40 MLOAD PUSH3 0x461BCD PUSH1 0xE5 SHL DUP2 MSTORE PUSH1 0x4 ADD PUSH2 0xD95 SWAP1 PUSH2 0x37AD JUMP JUMPDEST PUSH1 0x23 SSTORE JUMP JUMPDEST PUSH1 0x0 SLOAD PUSH1 0x1 PUSH1 0x1 PUSH1 0xA0 SHL SUB AND CALLER EQ PUSH2 0x148E JUMPI PUSH1 0x40 MLOAD PUSH3 0x461BCD PUSH1 0xE5 SHL DUP2 MSTORE PUSH1 0x4 ADD PUSH2 0xD95 SWAP1 PUSH2 0x37AD JUMP JUMPDEST PUSH1 0x20 DUP1 SLOAD PUSH1 0xFF PUSH1 0xB8 SHL NOT AND SWAP1 SSTORE JUMP JUMPDEST PUSH1 0x20 SLOAD PUSH1 0x0 SWAP1 PUSH1 0x1 PUSH1 0x1 PUSH1 0xA0 SHL SUB DUP4 DUP2 AND SWAP2 AND EQ DUP1 ISZERO PUSH2 0x14C7 JUMPI POP PUSH1 0x20 SLOAD PUSH1 0x1 PUSH1 0x1 PUSH1 0xA0 SHL SUB AND CALLER EQ JUMPDEST DUP1 ISZERO PUSH2 0x14D5 JUMPI POP PUSH1 0x11 SLOAD PUSH1 0xFF AND JUMPDEST ISZERO PUSH2 0x152A JUMPI PUSH1 0x20 DUP1 SLOAD PUSH1 0x1 PUSH1 0x1 PUSH1 0xA0 SHL SUB AND PUSH1 0x0 SWAP1 DUP2 MSTORE PUSH1 0x1 SWAP1 SWAP2 MSTORE PUSH1 0x40 SWAP1 KECCAK256 SLOAD PUSH2 0x152A JUMPI PUSH1 0x40 MLOAD PUSH3 0x461BCD PUSH1 0xE5 SHL DUP2 MSTORE PUSH1 0x20 PUSH1 0x4 DUP3 ADD MSTORE PUSH1 0x5 PUSH1 0x24 DUP3 ADD MSTORE PUSH5 0x2173796E63 PUSH1 0xD8 SHL PUSH1 0x44 DUP3 ADD MSTORE PUSH1 0x64 ADD PUSH2 0xD95 JUMP JUMPDEST POP PUSH1 0x1 PUSH1 0x1 PUSH1 0xA0 SHL SUB AND PUSH1 0x0 SWAP1 DUP2 MSTORE PUSH1 0x1 PUSH1 0x20 MSTORE PUSH1 0x40 SWAP1 KECCAK256 SLOAD SWAP1 JUMP JUMPDEST PUSH1 0x0 SLOAD PUSH1 0x1 PUSH1 0x1 PUSH1 0xA0 SHL SUB AND CALLER EQ PUSH2 0x1570 JUMPI PUSH1 0x40 MLOAD PUSH3 0x461BCD PUSH1 0xE5 SHL DUP2 MSTORE PUSH1 0x4 ADD PUSH2 0xD95 SWAP1 PUSH2 0x37AD JUMP JUMPDEST PUSH1 0x0 DUP1 SLOAD PUSH1 0x40 MLOAD PUSH1 0x1 PUSH1 0x1 PUSH1 0xA0 SHL SUB SWAP1 SWAP2 AND SWAP1 PUSH1 0x0 DUP1 MLOAD PUSH1 0x20 PUSH2 0x3A8D DUP4 CODECOPY DUP2 MLOAD SWAP2 MSTORE SWAP1 DUP4 SWAP1 LOG3 PUSH1 0x0 DUP1 SLOAD PUSH1 0x1 PUSH1 0x1 PUSH1 0xA0 SHL SUB NOT AND SWAP1 SSTORE JUMP JUMPDEST PUSH1 0x0 SLOAD PUSH1 0x1 PUSH1 0x1 PUSH1 0xA0 SHL SUB AND CALLER EQ PUSH2 0x15D2 JUMPI PUSH1 0x40 MLOAD PUSH3 0x461BCD PUSH1 0xE5 SHL DUP2 MSTORE PUSH1 0x4 ADD PUSH2 0xD95 SWAP1 PUSH2 0x37AD JUMP JUMPDEST PUSH2 0x9C4 DUP2 GT ISZERO PUSH2 0x160D JUMPI PUSH1 0x40 MLOAD PUSH3 0x461BCD PUSH1 0xE5 SHL DUP2 MSTORE PUSH1 0x4 ADD PUSH2 0xD95 SWAP1 PUSH1 0x20 DUP1 DUP3 MSTORE PUSH1 0x4 SWAP1 DUP3 ADD MSTORE PUSH4 0x3E323521 PUSH1 0xE0 SHL PUSH1 0x40 DUP3 ADD MSTORE PUSH1 0x60 ADD SWAP1 JUMP JUMPDEST PUSH1 0x1A SSTORE JUMP JUMPDEST PUSH1 0x0 SLOAD PUSH1 0x1 PUSH1 0x1 PUSH1 0xA0 SHL SUB AND CALLER EQ PUSH2 0x163C JUMPI PUSH1 0x40 MLOAD PUSH3 0x461BCD PUSH1 0xE5 SHL DUP2 MSTORE PUSH1 0x4 ADD PUSH2 0xD95 SWAP1 PUSH2 0x37AD JUMP JUMPDEST PUSH1 0x9 SSTORE JUMP JUMPDEST PUSH1 0x0 SLOAD PUSH1 0x1 PUSH1 0x1 PUSH1 0xA0 SHL SUB AND CALLER EQ PUSH2 0x166B JUMPI PUSH1 0x40 MLOAD PUSH3 0x461BCD PUSH1 0xE5 SHL DUP2 MSTORE PUSH1 0x4 ADD PUSH2 0xD95 SWAP1 PUSH2 0x37AD JUMP JUMPDEST DUP1 EXTCODESIZE PUSH4 0xFFFFFFFF AND ISZERO PUSH2 0x16AF JUMPI PUSH1 0x40 MLOAD PUSH3 0x461BCD PUSH1 0xE5 SHL DUP2 MSTORE PUSH1 0x20 PUSH1 0x4 DUP3 ADD MSTORE PUSH1 0xC PUSH1 0x24 DUP3 ADD MSTORE PUSH12 0x37379031B7B73A3930B1BA1 PUSH1 0xA5 SHL PUSH1 0x44 DUP3 ADD MSTORE PUSH1 0x64 ADD PUSH2 0xD95 JUMP JUMPDEST PUSH1 0x3 DUP1 SLOAD PUSH1 0x1 PUSH1 0x1 PUSH1 0xA0 SHL SUB SWAP1 SWAP3 AND PUSH1 0x1 PUSH1 0x1 PUSH1 0xA0 SHL SUB NOT SWAP1 SWAP3 AND DUP3 OR SWAP1 SSTORE PUSH1 0x0 SWAP1 DUP2 MSTORE PUSH1 0xA PUSH1 0x20 MSTORE PUSH1 0x40 SWAP1 KECCAK256 DUP1 SLOAD PUSH1 0xFF NOT AND PUSH1 0x1 OR SWAP1 SSTORE JUMP JUMPDEST PUSH1 0x0 SLOAD PUSH1 0x1 PUSH1 0x1 PUSH1 0xA0 SHL SUB AND CALLER EQ PUSH2 0x1713 JUMPI PUSH1 0x40 MLOAD PUSH3 0x461BCD PUSH1 0xE5 SHL DUP2 MSTORE PUSH1 0x4 ADD PUSH2 0xD95 SWAP1 PUSH2 0x37AD JUMP JUMPDEST PUSH1 0x1 PUSH1 0x1 PUSH1 0xA0 SHL SUB SWAP2 SWAP1 SWAP2 AND PUSH1 0x0 SWAP1 DUP2 MSTORE PUSH1 0xC PUSH1 0x20 MSTORE PUSH1 0x40 SWAP1 KECCAK256 DUP1 SLOAD PUSH1 0xFF NOT AND SWAP2 ISZERO ISZERO SWAP2 SWAP1 SWAP2 OR SWAP1 SSTORE JUMP JUMPDEST PUSH1 0x60 PUSH1 0x6 DUP1 SLOAD PUSH2 0xEB1 SWAP1 PUSH2 0x37CD JUMP JUMPDEST PUSH1 0x0 SLOAD PUSH1 0x1 PUSH1 0x1 PUSH1 0xA0 SHL SUB AND CALLER EQ PUSH2 0x1777 JUMPI PUSH1 0x40 MLOAD PUSH3 0x461BCD PUSH1 0xE5 SHL DUP2 MSTORE PUSH1 0x4 ADD PUSH2 0xD95 SWAP1 PUSH2 0x37AD JUMP JUMPDEST PUSH1 0x1F SLOAD ISZERO PUSH2 0x1784 JUMPI PUSH1 0x0 DUP1 REVERT JUMPDEST NUMBER PUSH1 0x1F SSTORE JUMP JUMPDEST PUSH1 0x21 DUP2 DUP2 SLOAD DUP2 LT PUSH2 0x179A JUMPI PUSH1 0x0 DUP1 REVERT JUMPDEST PUSH1 0x0 SWAP2 DUP3 MSTORE PUSH1 0x20 SWAP1 SWAP2 KECCAK256 ADD SLOAD PUSH1 0x1 PUSH1 0x1 PUSH1 0xA0 SHL SUB AND SWAP1 POP DUP2 JUMP JUMPDEST PUSH1 0x0 SLOAD PUSH1 0x1 PUSH1 0x1 PUSH1 0xA0 SHL SUB AND CALLER EQ PUSH2 0x17DE JUMPI PUSH1 0x40 MLOAD PUSH3 0x461BCD PUSH1 0xE5 SHL DUP2 MSTORE PUSH1 0x4 ADD PUSH2 0xD95 SWAP1 PUSH2 0x37AD JUMP JUMPDEST PUSH1 0x1 PUSH1 0x1 PUSH1 0xA0 SHL SUB SWAP2 SWAP1 SWAP2 AND PUSH1 0x0 SWAP1 DUP2 MSTORE PUSH1 0x10 PUSH1 0x20 MSTORE PUSH1 0x40 SWAP1 KECCAK256 DUP1 SLOAD PUSH1 0xFF NOT AND SWAP2 ISZERO ISZERO SWAP2 SWAP1 SWAP2 OR SWAP1 SSTORE JUMP JUMPDEST PUSH1 0x0 PUSH2 0x1816 CALLER DUP5 DUP5 PUSH2 0x1EFD JUMP JUMPDEST POP PUSH1 0x1 JUMPDEST SWAP3 SWAP2 POP POP JUMP JUMPDEST PUSH1 0x0 SLOAD PUSH1 0x1 PUSH1 0x1 PUSH1 0xA0 SHL SUB AND CALLER EQ PUSH2 0x184A JUMPI PUSH1 0x40 MLOAD PUSH3 0x461BCD PUSH1 0xE5 SHL DUP2 MSTORE PUSH1 0x4 ADD PUSH2 0xD95 SWAP1 PUSH2 0x37AD JUMP JUMPDEST PUSH1 0x20 SLOAD PUSH1 0x1 PUSH1 0xC0 SHL SWAP1 DIV PUSH1 0xFF AND PUSH2 0x1873 JUMPI PUSH1 0x40 MLOAD PUSH3 0x461BCD PUSH1 0xE5 SHL DUP2 MSTORE PUSH1 0x4 ADD PUSH2 0xD95 SWAP1 PUSH2 0x3878 JUMP JUMPDEST DUP2 DUP2 PUSH1 0x0 DUP2 DUP2 LT PUSH2 0x1886 JUMPI PUSH2 0x1886 PUSH2 0x3807 JUMP JUMPDEST PUSH1 0x20 MUL SWAP2 SWAP1 SWAP2 ADD CALLDATALOAD PUSH1 0x12 SSTORE POP DUP2 DUP2 PUSH1 0x1 DUP2 DUP2 LT PUSH2 0x18A5 JUMPI PUSH2 0x18A5 PUSH2 0x3807 JUMP JUMPDEST PUSH1 0x20 MUL SWAP2 SWAP1 SWAP2 ADD CALLDATALOAD PUSH1 0x13 SSTORE POP DUP2 DUP2 PUSH1 0x2 DUP2 DUP2 LT PUSH2 0x18C4 JUMPI PUSH2 0x18C4 PUSH2 0x3807 JUMP JUMPDEST PUSH1 0x20 MUL SWAP2 SWAP1 SWAP2 ADD CALLDATALOAD PUSH1 0x14 SSTORE POP DUP2 DUP2 PUSH1 0x3 DUP2 DUP2 LT PUSH2 0x18E3 JUMPI PUSH2 0x18E3 PUSH2 0x3807 JUMP JUMPDEST PUSH1 0x20 MUL SWAP2 SWAP1 SWAP2 ADD CALLDATALOAD PUSH1 0x15 SSTORE POP DUP2 DUP2 PUSH1 0x4 DUP2 DUP2 LT PUSH2 0x1902 JUMPI PUSH2 0x1902 PUSH2 0x3807 JUMP JUMPDEST PUSH1 0x20 MUL SWAP2 SWAP1 SWAP2 ADD CALLDATALOAD PUSH1 0x16 SSTORE POP DUP2 DUP2 PUSH1 0x5 DUP2 DUP2 LT PUSH2 0x1921 JUMPI PUSH2 0x1921 PUSH2 0x3807 JUMP JUMPDEST PUSH1 0x20 MUL SWAP2 SWAP1 SWAP2 ADD CALLDATALOAD PUSH1 0x17 SSTORE POP DUP2 DUP2 PUSH1 0x6 DUP2 DUP2 LT PUSH2 0x1940 JUMPI PUSH2 0x1940 PUSH2 0x3807 JUMP JUMPDEST PUSH1 0x20 MUL SWAP2 SWAP1 SWAP2 ADD CALLDATALOAD PUSH1 0x18 SSTORE POP DUP2 DUP2 PUSH1 0x7 DUP2 DUP2 LT PUSH2 0x195F JUMPI PUSH2 0x195F PUSH2 0x3807 JUMP JUMPDEST SWAP1 POP PUSH1 0x20 MUL ADD CALLDATALOAD PUSH1 0x19 DUP2 SWAP1 SSTORE POP PUSH2 0x9C4 PUSH1 0x15 SLOAD PUSH1 0x12 SLOAD PUSH1 0x13 SLOAD PUSH1 0x14 SLOAD PUSH2 0x1985 SWAP2 SWAP1 PUSH2 0x389A JUMP JUMPDEST PUSH2 0x198F SWAP2 SWAP1 PUSH2 0x389A JUMP JUMPDEST PUSH2 0x1999 SWAP2 SWAP1 PUSH2 0x389A JUMP JUMPDEST LT PUSH2 0x19D0 JUMPI PUSH1 0x40 MLOAD PUSH3 0x461BCD PUSH1 0xE5 SHL DUP2 MSTORE PUSH1 0x20 PUSH1 0x4 DUP3 ADD MSTORE PUSH1 0x7 PUSH1 0x24 DUP3 ADD MSTORE PUSH7 0x627579213C3235 PUSH1 0xC8 SHL PUSH1 0x44 DUP3 ADD MSTORE PUSH1 0x64 ADD PUSH2 0xD95 JUMP JUMPDEST PUSH2 0x9C4 PUSH1 0x19 SLOAD PUSH1 0x16 SLOAD PUSH1 0x17 SLOAD PUSH1 0x18 SLOAD PUSH2 0x19E9 SWAP2 SWAP1 PUSH2 0x389A JUMP JUMPDEST PUSH2 0x19F3 SWAP2 SWAP1 PUSH2 0x389A JUMP JUMPDEST PUSH2 0x19FD SWAP2 SWAP1 PUSH2 0x389A JUMP JUMPDEST LT PUSH2 0xF87 JUMPI PUSH1 0x40 MLOAD PUSH3 0x461BCD PUSH1 0xE5 SHL DUP2 MSTORE PUSH1 0x20 PUSH1 0x4 DUP3 ADD MSTORE PUSH1 0x8 PUSH1 0x24 DUP3 ADD MSTORE PUSH8 0x73656C6C213C3235 PUSH1 0xC0 SHL PUSH1 0x44 DUP3 ADD MSTORE PUSH1 0x64 ADD PUSH2 0xD95 JUMP JUMPDEST PUSH1 0x0 SLOAD PUSH1 0x1 PUSH1 0x1 PUSH1 0xA0 SHL SUB AND CALLER EQ DUP1 PUSH2 0x1A58 JUMPI POP PUSH1 0x3 SLOAD PUSH1 0x1 PUSH1 0x1 PUSH1 0xA0 SHL SUB AND CALLER EQ JUMPDEST PUSH2 0x1A8E JUMPI PUSH1 0x40 MLOAD PUSH3 0x461BCD PUSH1 0xE5 SHL DUP2 MSTORE PUSH1 0x20 PUSH1 0x4 DUP3 ADD MSTORE PUSH1 0x7 PUSH1 0x24 DUP3 ADD MSTORE PUSH7 0x10A33AB73232B9 PUSH1 0xC9 SHL PUSH1 0x44 DUP3 ADD MSTORE PUSH1 0x64 ADD PUSH2 0xD95 JUMP JUMPDEST PUSH1 0x1 PUSH1 0x1 PUSH1 0xA0 SHL SUB DUP3 AND PUSH2 0x1AC9 JUMPI PUSH1 0x40 MLOAD CALLER SWAP1 DUP3 ISZERO PUSH2 0x8FC MUL SWAP1 DUP4 SWAP1 PUSH1 0x0 DUP2 DUP2 DUP2 DUP6 DUP9 DUP9 CALL SWAP4 POP POP POP POP ISZERO DUP1 ISZERO PUSH2 0x11D9 JUMPI RETURNDATASIZE PUSH1 0x0 DUP1 RETURNDATACOPY RETURNDATASIZE PUSH1 0x0 REVERT JUMPDEST PUSH1 0x40 MLOAD PUSH4 0xA9059CBB PUSH1 0xE0 SHL DUP2 MSTORE PUSH1 0x1 PUSH1 0x1 PUSH1 0xA0 SHL SUB DUP4 AND SWAP1 PUSH4 0xA9059CBB SWAP1 PUSH2 0x1AF7 SWAP1 CALLER SWAP1 DUP6 SWAP1 PUSH1 0x4 ADD PUSH2 0x38AD JUMP JUMPDEST PUSH1 0x20 PUSH1 0x40 MLOAD DUP1 DUP4 SUB DUP2 PUSH1 0x0 DUP8 GAS CALL ISZERO DUP1 ISZERO PUSH2 0x1B16 JUMPI RETURNDATASIZE PUSH1 0x0 DUP1 RETURNDATACOPY RETURNDATASIZE PUSH1 0x0 REVERT JUMPDEST POP POP POP POP PUSH1 0x40 MLOAD RETURNDATASIZE PUSH1 0x1F NOT PUSH1 0x1F DUP3 ADD AND DUP3 ADD DUP1 PUSH1 0x40 MSTORE POP DUP2 ADD SWAP1 PUSH2 0x11D9 SWAP2 SWAP1 PUSH2 0x38C6 JUMP JUMPDEST PUSH1 0x0 SLOAD PUSH1 0x1 PUSH1 0x1 PUSH1 0xA0 SHL SUB AND CALLER EQ PUSH2 0x1B64 JUMPI PUSH1 0x40 MLOAD PUSH3 0x461BCD PUSH1 0xE5 SHL DUP2 MSTORE PUSH1 0x4 ADD PUSH2 0xD95 SWAP1 PUSH2 0x37AD JUMP JUMPDEST PUSH1 0x4 DUP1 SLOAD PUSH1 0x1 PUSH1 0x1 PUSH1 0xA0 SHL SUB NOT AND PUSH1 0x1 PUSH1 0x1 PUSH1 0xA0 SHL SUB SWAP3 SWAP1 SWAP3 AND SWAP2 SWAP1 SWAP2 OR SWAP1 SSTORE JUMP JUMPDEST PUSH1 0x0 SLOAD PUSH1 0x1 PUSH1 0x1 PUSH1 0xA0 SHL SUB AND CALLER EQ PUSH2 0x1BB0 JUMPI PUSH1 0x40 MLOAD PUSH3 0x461BCD PUSH1 0xE5 SHL DUP2 MSTORE PUSH1 0x4 ADD PUSH2 0xD95 SWAP1 PUSH2 0x37AD JUMP JUMPDEST PUSH2 0x2710 DUP2 GT ISZERO PUSH2 0x1BEC JUMPI PUSH1 0x40 MLOAD PUSH3 0x461BCD PUSH1 0xE5 SHL DUP2 MSTORE PUSH1 0x20 PUSH1 0x4 DUP3 ADD MSTORE PUSH1 0x7 PUSH1 0x24 DUP3 ADD MSTORE PUSH7 0x3E313030303021 PUSH1 0xC8 SHL PUSH1 0x44 DUP3 ADD MSTORE PUSH1 0x64 ADD PUSH2 0xD95 JUMP JUMPDEST PUSH1 0x1B SSTORE JUMP JUMPDEST PUSH1 0x0 SLOAD PUSH1 0x1 PUSH1 0x1 PUSH1 0xA0 SHL SUB AND CALLER EQ PUSH2 0x1C1B JUMPI PUSH1 0x40 MLOAD PUSH3 0x461BCD PUSH1 0xE5 SHL DUP2 MSTORE PUSH1 0x4 ADD PUSH2 0xD95 SWAP1 PUSH2 0x37AD JUMP JUMPDEST PUSH1 0x29 SSTORE JUMP JUMPDEST PUSH1 0x0 SLOAD PUSH1 0x1 PUSH1 0x1 PUSH1 0xA0 SHL SUB AND CALLER EQ PUSH2 0x1C4A JUMPI PUSH1 0x40 MLOAD PUSH3 0x461BCD PUSH1 0xE5 SHL DUP2 MSTORE PUSH1 0x4 ADD PUSH2 0xD95 SWAP1 PUSH2 0x37AD JUMP JUMPDEST PUSH1 0x5 DUP2 GT ISZERO PUSH2 0x1C83 JUMPI PUSH1 0x40 MLOAD PUSH3 0x461BCD PUSH1 0xE5 SHL DUP2 MSTORE PUSH1 0x20 PUSH1 0x4 DUP3 ADD MSTORE PUSH1 0x5 PUSH1 0x24 DUP3 ADD MSTORE PUSH5 0x213C3D2035 PUSH1 0xD8 SHL PUSH1 0x44 DUP3 ADD MSTORE PUSH1 0x64 ADD PUSH2 0xD95 JUMP JUMPDEST PUSH1 0x1C SSTORE JUMP JUMPDEST PUSH1 0x0 SLOAD PUSH1 0x1 PUSH1 0x1 PUSH1 0xA0 SHL SUB AND CALLER EQ PUSH2 0x1CB2 JUMPI PUSH1 0x40 MLOAD PUSH3 0x461BCD PUSH1 0xE5 SHL DUP2 MSTORE PUSH1 0x4 ADD PUSH2 0xD95 SWAP1 PUSH2 0x37AD JUMP JUMPDEST PUSH1 0x11 DUP1 SLOAD PUSH1 0xFF NOT AND SWAP2 ISZERO ISZERO SWAP2 SWAP1 SWAP2 OR SWAP1 SSTORE JUMP JUMPDEST PUSH1 0x0 SLOAD PUSH1 0x1 PUSH1 0x1 PUSH1 0xA0 SHL SUB AND CALLER EQ PUSH2 0x1CEF JUMPI PUSH1 0x40 MLOAD PUSH3 0x461BCD PUSH1 0xE5 SHL DUP2 MSTORE PUSH1 0x4 ADD PUSH2 0xD95 SWAP1 PUSH2 0x37AD JUMP JUMPDEST PUSH1 0x1D DUP1 SLOAD PUSH1 0x1 PUSH1 0x1 PUSH1 0xA0 SHL SUB SWAP1 SWAP3 AND PUSH2 0x100 MUL PUSH2 0x100 PUSH1 0x1 PUSH1 0xA8 SHL SUB NOT SWAP1 SWAP3 AND SWAP2 SWAP1 SWAP2 OR SWAP1 SSTORE JUMP JUMPDEST PUSH1 0x0 SLOAD PUSH1 0x1 PUSH1 0x1 PUSH1 0xA0 SHL SUB AND CALLER EQ PUSH2 0x1D41 JUMPI PUSH1 0x40 MLOAD PUSH3 0x461BCD PUSH1 0xE5 SHL DUP2 MSTORE PUSH1 0x4 ADD PUSH2 0xD95 SWAP1 PUSH2 0x37AD JUMP JUMPDEST PUSH1 0x1 PUSH1 0x1 PUSH1 0xA0 SHL SUB DUP2 AND PUSH2 0x1D82 JUMPI PUSH1 0x40 MLOAD PUSH3 0x461BCD PUSH1 0xE5 SHL DUP2 MSTORE PUSH1 0x20 PUSH1 0x4 DUP3 ADD MSTORE PUSH1 0x8 PUSH1 0x24 DUP3 ADD MSTORE PUSH8 0x6E6577206973203 PUSH1 0xC4 SHL PUSH1 0x44 DUP3 ADD MSTORE PUSH1 0x64 ADD PUSH2 0xD95 JUMP JUMPDEST PUSH1 0x0 DUP1 SLOAD PUSH1 0x40 MLOAD PUSH1 0x1 PUSH1 0x1 PUSH1 0xA0 SHL SUB DUP1 DUP6 AND SWAP4 SWAP3 AND SWAP2 PUSH1 0x0 DUP1 MLOAD PUSH1 0x20 PUSH2 0x3A8D DUP4 CODECOPY DUP2 MLOAD SWAP2 MSTORE SWAP2 LOG3 PUSH1 0x0 DUP1 SLOAD PUSH1 0x1 PUSH1 0x1 PUSH1 0xA0 SHL SUB NOT AND PUSH1 0x1 PUSH1 0x1 PUSH1 0xA0 SHL SUB SWAP3 SWAP1 SWAP3 AND SWAP2 SWAP1 SWAP2 OR SWAP1 SSTORE JUMP JUMPDEST PUSH1 0x1 PUSH1 0x1 PUSH1 0xA0 SHL SUB DUP4 DUP2 AND PUSH1 0x0 DUP2 DUP2 MSTORE PUSH1 0x2 PUSH1 0x20 SWAP1 DUP2 MSTORE PUSH1 0x40 DUP1 DUP4 KECCAK256 SWAP5 DUP8 AND DUP1 DUP5 MSTORE SWAP5 DUP3 MSTORE SWAP2 DUP3 SWAP1 KECCAK256 DUP6 SWAP1 SSTORE SWAP1 MLOAD DUP5 DUP2 MSTORE PUSH32 0x8C5BE1E5EBEC7D5BD14F71427D1E84F3DD0314C0F7B2291E5B200AC8C7C3B925 SWAP2 ADD JUMPDEST PUSH1 0x40 MLOAD DUP1 SWAP2 SUB SWAP1 LOG3 POP POP POP JUMP JUMPDEST DUP1 EXTCODESIZE DUP1 ISZERO PUSH2 0x1E39 JUMPI POP POP JUMP JUMPDEST PUSH1 0x1 PUSH1 0x1 PUSH1 0xA0 SHL SUB DUP3 AND PUSH1 0x0 SWAP1 DUP2 MSTORE PUSH1 0x26 PUSH1 0x20 MSTORE PUSH1 0x40 DUP2 KECCAK256 SLOAD SWAP1 SUB PUSH2 0xF87 JUMPI PUSH1 0x25 SLOAD ISZERO DUP1 PUSH2 0x1E98 JUMPI POP DUP2 PUSH1 0x1 PUSH1 0x1 PUSH1 0xA0 SHL SUB AND PUSH1 0x25 PUSH1 0x0 DUP2 SLOAD DUP2 LT PUSH2 0x1E80 JUMPI PUSH2 0x1E80 PUSH2 0x3807 JUMP JUMPDEST PUSH1 0x0 SWAP2 DUP3 MSTORE PUSH1 0x20 SWAP1 SWAP2 KECCAK256 ADD SLOAD PUSH1 0x1 PUSH1 0x1 PUSH1 0xA0 SHL SUB AND EQ ISZERO JUMPDEST ISZERO PUSH2 0xF87 JUMPI PUSH1 0x25 DUP1 SLOAD PUSH1 0x1 PUSH1 0x1 PUSH1 0xA0 SHL SUB DUP5 AND PUSH1 0x0 DUP2 DUP2 MSTORE PUSH1 0x26 PUSH1 0x20 MSTORE PUSH1 0x40 DUP2 KECCAK256 DUP4 SWAP1 SSTORE PUSH1 0x1 DUP4 ADD DUP5 SSTORE SWAP3 SWAP1 SWAP3 MSTORE PUSH32 0x401968FF42A154441DA5F6C4C935AC46B8671F0E062BAAA62A7545BA53BB6E4C ADD DUP1 SLOAD PUSH1 0x1 PUSH1 0x1 PUSH1 0xA0 SHL SUB NOT AND SWAP1 SWAP2 OR SWAP1 SSTORE POP POP JUMP JUMPDEST DUP1 PUSH2 0x1F07 DUP5 PUSH2 0x149D JUMP JUMPDEST LT ISZERO PUSH2 0x1F48 JUMPI PUSH1 0x40 MLOAD PUSH3 0x461BCD PUSH1 0xE5 SHL DUP2 MSTORE PUSH1 0x20 PUSH1 0x4 DUP3 ADD MSTORE PUSH1 0x10 PUSH1 0x24 DUP3 ADD MSTORE PUSH16 0xC4C2D8C2DCC6CA9CDEE88ADCDEEACED PUSH1 0x83 SHL PUSH1 0x44 DUP3 ADD MSTORE PUSH1 0x64 ADD PUSH2 0xD95 JUMP JUMPDEST PUSH2 0x1F51 DUP4 PUSH2 0x12E4 JUMP JUMPDEST ISZERO PUSH2 0x1F90 JUMPI PUSH1 0x40 MLOAD PUSH3 0x461BCD PUSH1 0xE5 SHL DUP2 MSTORE PUSH1 0x20 PUSH1 0x4 DUP3 ADD MSTORE PUSH1 0xF PUSH1 0x24 DUP3 ADD MSTORE PUSH15 0x697352657761726420213D20302021 PUSH1 0x88 SHL PUSH1 0x44 DUP3 ADD MSTORE PUSH1 0x64 ADD PUSH2 0xD95 JUMP JUMPDEST PUSH1 0x1 PUSH1 0x1 PUSH1 0xA0 SHL SUB DUP3 AND PUSH1 0x0 SWAP1 DUP2 MSTORE PUSH1 0x10 PUSH1 0x20 MSTORE PUSH1 0x40 DUP2 KECCAK256 SLOAD DUP2 SWAP1 DUP2 SWAP1 DUP2 SWAP1 PUSH1 0xFF AND ISZERO PUSH2 0x1FC6 JUMPI PUSH2 0x1FBF PUSH2 0x2428 JUMP JUMPDEST SWAP1 POP PUSH2 0x1FF2 JUMP JUMPDEST PUSH1 0x1 PUSH1 0x1 PUSH1 0xA0 SHL SUB DUP8 AND PUSH1 0x0 SWAP1 DUP2 MSTORE PUSH1 0x10 PUSH1 0x20 MSTORE PUSH1 0x40 SWAP1 KECCAK256 SLOAD PUSH1 0xFF AND ISZERO PUSH2 0x1FF2 JUMPI PUSH2 0x1FEF PUSH2 0x254D JUMP JUMPDEST SWAP2 POP JUMPDEST PUSH1 0x1E SLOAD ISZERO DUP1 ISZERO PUSH2 0x200B JUMPI POP PUSH1 0x20 SLOAD PUSH1 0x1 PUSH1 0xA0 SHL SWAP1 DIV PUSH1 0xFF AND JUMPDEST ISZERO PUSH2 0x20EA JUMPI PUSH1 0x1 PUSH1 0x1 PUSH1 0xA0 SHL SUB DUP8 AND PUSH1 0x0 SWAP1 DUP2 MSTORE PUSH1 0xA PUSH1 0x20 MSTORE PUSH1 0x40 SWAP1 KECCAK256 SLOAD PUSH1 0xFF AND ISZERO DUP1 ISZERO PUSH2 0x2052 JUMPI POP PUSH1 0x1 PUSH1 0x1 PUSH1 0xA0 SHL SUB DUP7 AND PUSH1 0x0 SWAP1 DUP2 MSTORE PUSH1 0xA PUSH1 0x20 MSTORE PUSH1 0x40 SWAP1 KECCAK256 SLOAD PUSH1 0xFF AND ISZERO JUMPDEST DUP1 ISZERO PUSH2 0x2077 JUMPI POP PUSH1 0x1 PUSH1 0x1 PUSH1 0xA0 SHL SUB DUP8 AND PUSH1 0x0 SWAP1 DUP2 MSTORE PUSH1 0x10 PUSH1 0x20 MSTORE PUSH1 0x40 SWAP1 KECCAK256 SLOAD PUSH1 0xFF AND ISZERO JUMPDEST DUP1 ISZERO PUSH2 0x209C JUMPI POP PUSH1 0x1 PUSH1 0x1 PUSH1 0xA0 SHL SUB DUP7 AND PUSH1 0x0 SWAP1 DUP2 MSTORE PUSH1 0x10 PUSH1 0x20 MSTORE PUSH1 0x40 SWAP1 KECCAK256 SLOAD PUSH1 0xFF AND ISZERO JUMPDEST ISZERO PUSH2 0x20EA JUMPI DUP6 EXTCODESIZE PUSH4 0xFFFFFFFF AND ISZERO PUSH2 0x20EA JUMPI PUSH1 0x40 MLOAD PUSH3 0x461BCD PUSH1 0xE5 SHL DUP2 MSTORE PUSH1 0x20 PUSH1 0x4 DUP3 ADD MSTORE PUSH1 0x11 PUSH1 0x24 DUP3 ADD MSTORE PUSH17 0x63616E7420616464206F74686572206C7 PUSH1 0x7C SHL PUSH1 0x44 DUP3 ADD MSTORE PUSH1 0x64 ADD PUSH2 0xD95 JUMP JUMPDEST PUSH1 0x1 PUSH1 0x1 PUSH1 0xA0 SHL SUB DUP8 AND PUSH1 0x0 SWAP1 DUP2 MSTORE PUSH1 0x10 PUSH1 0x20 MSTORE PUSH1 0x40 SWAP1 KECCAK256 SLOAD PUSH1 0xFF AND DUP1 PUSH2 0x2129 JUMPI POP PUSH1 0x1 PUSH1 0x1 PUSH1 0xA0 SHL SUB DUP7 AND PUSH1 0x0 SWAP1 DUP2 MSTORE PUSH1 0x10 PUSH1 0x20 MSTORE PUSH1 0x40 SWAP1 KECCAK256 SLOAD PUSH1 0xFF AND JUMPDEST ISZERO PUSH2 0x23E5 JUMPI PUSH1 0x1 PUSH1 0x1 PUSH1 0xA0 SHL SUB DUP8 AND PUSH1 0x0 SWAP1 DUP2 MSTORE PUSH1 0xA PUSH1 0x20 MSTORE PUSH1 0x40 SWAP1 KECCAK256 SLOAD PUSH1 0xFF AND ISZERO DUP1 ISZERO PUSH2 0x2170 JUMPI POP PUSH1 0x1 PUSH1 0x1 PUSH1 0xA0 SHL SUB DUP7 AND PUSH1 0x0 SWAP1 DUP2 MSTORE PUSH1 0xA PUSH1 0x20 MSTORE PUSH1 0x40 SWAP1 KECCAK256 SLOAD PUSH1 0xFF AND ISZERO JUMPDEST ISZERO PUSH2 0x23BF JUMPI PUSH1 0x20 SLOAD PUSH1 0x1 PUSH1 0xA0 SHL SWAP1 DIV PUSH1 0xFF AND ISZERO PUSH2 0x21AD JUMPI PUSH1 0x1E SLOAD ISZERO ISZERO DUP1 DUP1 PUSH2 0x21A2 JUMPI POP PUSH1 0x1F SLOAD PUSH1 0x0 LT DUP1 ISZERO PUSH2 0x21A2 JUMPI POP DUP2 JUMPDEST PUSH2 0x21AB JUMPI PUSH1 0x0 DUP1 REVERT JUMPDEST POP JUMPDEST PUSH1 0x20 SLOAD PUSH1 0x1 PUSH1 0xA0 SHL SWAP1 DIV PUSH1 0xFF AND DUP1 ISZERO PUSH2 0x21CF JUMPI POP PUSH1 0x20 SLOAD PUSH1 0x1 PUSH1 0xA8 SHL SWAP1 DIV PUSH1 0xFF AND JUMPDEST DUP1 ISZERO PUSH2 0x21E9 JUMPI POP PUSH1 0x8 SLOAD PUSH1 0x1E SLOAD PUSH2 0x21E6 SWAP2 SWAP1 PUSH2 0x389A JUMP JUMPDEST NUMBER LT JUMPDEST DUP1 ISZERO PUSH2 0x220E JUMPI POP PUSH1 0x1 PUSH1 0x1 PUSH1 0xA0 SHL SUB DUP7 AND PUSH1 0x0 SWAP1 DUP2 MSTORE PUSH1 0x10 PUSH1 0x20 MSTORE PUSH1 0x40 SWAP1 KECCAK256 SLOAD PUSH1 0xFF AND ISZERO JUMPDEST ISZERO PUSH2 0x2237 JUMPI PUSH1 0x1 PUSH1 0x1 PUSH1 0xA0 SHL SUB DUP7 AND PUSH1 0x0 SWAP1 DUP2 MSTORE PUSH1 0xB PUSH1 0x20 MSTORE PUSH1 0x40 SWAP1 KECCAK256 DUP1 SLOAD PUSH1 0xFF NOT AND PUSH1 0x1 OR SWAP1 SSTORE JUMPDEST PUSH1 0x20 SLOAD PUSH1 0x1 PUSH1 0xC8 SHL SWAP1 DIV PUSH1 0xFF AND DUP1 ISZERO PUSH2 0x2252 JUMPI POP PUSH1 0x0 PUSH1 0x1C SLOAD GT JUMPDEST ISZERO PUSH2 0x22D6 JUMPI PUSH1 0x0 DUP1 JUMPDEST PUSH1 0x1C SLOAD DUP2 LT ISZERO PUSH2 0x22B9 JUMPI PUSH1 0x40 DUP1 MLOAD PUSH1 0x20 DUP2 ADD DUP4 SWAP1 MSTORE SWAP1 DUP2 ADD DUP9 SWAP1 MSTORE TIMESTAMP PUSH1 0x60 DUP3 ADD MSTORE PUSH1 0x80 ADD PUSH1 0x40 MLOAD PUSH1 0x20 DUP2 DUP4 SUB SUB DUP2 MSTORE SWAP1 PUSH1 0x40 MSTORE DUP1 MLOAD SWAP1 PUSH1 0x20 ADD KECCAK256 PUSH1 0x0 SHR SWAP2 POP PUSH2 0x22A6 DUP10 DUP4 PUSH1 0x1 PUSH2 0x2672 JUMP JUMPDEST POP DUP1 PUSH2 0x22B1 DUP2 PUSH2 0x3833 JUMP JUMPDEST SWAP2 POP POP PUSH2 0x225B JUMP JUMPDEST POP PUSH1 0x1C SLOAD PUSH2 0x22C8 SWAP1 PUSH1 0x1 PUSH2 0x38E3 JUMP JUMPDEST PUSH2 0x22D2 SWAP1 DUP8 PUSH2 0x3865 JUMP JUMPDEST SWAP6 POP POP JUMPDEST PUSH1 0x1 PUSH1 0x1 PUSH1 0xA0 SHL SUB DUP7 AND PUSH1 0x0 SWAP1 DUP2 MSTORE PUSH1 0x10 PUSH1 0x20 MSTORE PUSH1 0x40 SWAP1 KECCAK256 SLOAD PUSH1 0xFF AND ISZERO PUSH2 0x23A9 JUMPI PUSH1 0x11 SLOAD PUSH2 0x100 SWAP1 DIV PUSH1 0xFF AND ISZERO DUP1 ISZERO PUSH2 0x230D JUMPI POP DUP1 ISZERO JUMPDEST ISZERO PUSH2 0x23A9 JUMPI PUSH1 0x0 PUSH2 0x231D ADDRESS PUSH2 0x149D JUMP JUMPDEST SWAP1 POP PUSH1 0x23 SLOAD DUP2 GT ISZERO PUSH2 0x23A7 JUMPI PUSH1 0x0 PUSH1 0x17 SLOAD PUSH1 0x18 SLOAD PUSH1 0x16 SLOAD PUSH1 0x13 SLOAD PUSH1 0x14 SLOAD PUSH1 0x12 SLOAD PUSH2 0x2347 SWAP2 SWAP1 PUSH2 0x389A JUMP JUMPDEST PUSH2 0x2351 SWAP2 SWAP1 PUSH2 0x389A JUMP JUMPDEST PUSH2 0x235B SWAP2 SWAP1 PUSH2 0x389A JUMP JUMPDEST PUSH2 0x2365 SWAP2 SWAP1 PUSH2 0x389A JUMP JUMPDEST PUSH2 0x236F SWAP2 SWAP1 PUSH2 0x389A JUMP JUMPDEST SWAP1 POP PUSH1 0x0 PUSH1 0x64 PUSH1 0x22 SLOAD DUP10 PUSH2 0x2383 SWAP2 SWAP1 PUSH2 0x38E3 JUMP JUMPDEST PUSH2 0x238D SWAP2 SWAP1 PUSH2 0x38FA JUMP JUMPDEST SWAP1 POP DUP3 DUP2 GT ISZERO PUSH2 0x239A JUMPI POP DUP2 JUMPDEST PUSH2 0x23A4 DUP2 DUP4 PUSH2 0x2715 JUMP JUMPDEST POP POP JUMPDEST POP JUMPDEST DUP1 ISZERO DUP1 ISZERO PUSH2 0x23B5 JUMPI POP DUP2 ISZERO JUMPDEST ISZERO PUSH2 0x23BF JUMPI PUSH1 0x1 SWAP4 POP JUMPDEST PUSH1 0x1 PUSH1 0x1 PUSH1 0xA0 SHL SUB DUP7 AND PUSH1 0x0 SWAP1 DUP2 MSTORE PUSH1 0x10 PUSH1 0x20 MSTORE PUSH1 0x40 SWAP1 KECCAK256 SLOAD PUSH1 0xFF AND ISZERO PUSH2 0x23E5 JUMPI PUSH1 0x1 SWAP3 POP JUMPDEST PUSH2 0x23F4 DUP8 DUP8 DUP8 DUP8 DUP8 DUP7 DUP9 PUSH2 0x2D57 JUMP JUMPDEST PUSH1 0x1 PUSH1 0x1 PUSH1 0xA0 SHL SUB DUP8 AND ADDRESS EQ PUSH2 0x241F JUMPI DUP3 ISZERO PUSH2 0x2413 JUMPI PUSH2 0x2413 DUP8 PUSH2 0x1E2D JUMP JUMPDEST PUSH2 0x241F PUSH3 0x55730 PUSH2 0x305B JUMP JUMPDEST POP POP POP POP POP POP POP JUMP JUMPDEST PUSH1 0x20 SLOAD PUSH1 0x40 DUP1 MLOAD PUSH4 0x240BC6B PUSH1 0xE2 SHL DUP2 MSTORE SWAP1 MLOAD PUSH1 0x0 SWAP3 PUSH1 0x1 PUSH1 0x1 PUSH1 0xA0 SHL SUB AND SWAP2 DUP4 SWAP2 DUP3 SWAP2 DUP5 SWAP2 PUSH4 0x902F1AC SWAP2 PUSH1 0x4 DUP1 DUP3 ADD SWAP3 PUSH1 0x60 SWAP3 SWAP1 SWAP2 SWAP1 DUP3 SWAP1 SUB ADD DUP2 DUP7 GAS STATICCALL ISZERO DUP1 ISZERO PUSH2 0x2479 JUMPI RETURNDATASIZE PUSH1 0x0 DUP1 RETURNDATACOPY RETURNDATASIZE PUSH1 0x0 REVERT JUMPDEST POP POP POP POP PUSH1 0x40 MLOAD RETURNDATASIZE PUSH1 0x1F NOT PUSH1 0x1F DUP3 ADD AND DUP3 ADD DUP1 PUSH1 0x40 MSTORE POP DUP2 ADD SWAP1 PUSH2 0x249D SWAP2 SWAP1 PUSH2 0x3933 JUMP JUMPDEST POP PUSH1 0xF SLOAD PUSH1 0x1 PUSH1 0x1 PUSH1 0x70 SHL SUB SWAP3 DUP4 AND SWAP5 POP SWAP2 AND SWAP2 POP PUSH1 0x1 PUSH1 0x1 PUSH1 0xA0 SHL SUB AND PUSH1 0x0 ADDRESS DUP3 LT ISZERO PUSH2 0x24CC JUMPI POP DUP3 PUSH2 0x24CF JUMP JUMPDEST POP DUP2 JUMPDEST PUSH1 0x40 MLOAD PUSH4 0x70A08231 PUSH1 0xE0 SHL DUP2 MSTORE PUSH1 0x0 SWAP1 PUSH1 0x1 PUSH1 0x1 PUSH1 0xA0 SHL SUB DUP5 AND SWAP1 PUSH4 0x70A08231 SWAP1 PUSH2 0x24FE SWAP1 DUP10 SWAP1 PUSH1 0x4 ADD PUSH2 0x372A JUMP JUMPDEST PUSH1 0x20 PUSH1 0x40 MLOAD DUP1 DUP4 SUB DUP2 DUP7 GAS STATICCALL ISZERO DUP1 ISZERO PUSH2 0x251B JUMPI RETURNDATASIZE PUSH1 0x0 DUP1 RETURNDATACOPY RETURNDATASIZE PUSH1 0x0 REVERT JUMPDEST POP POP POP POP PUSH1 0x40 MLOAD RETURNDATASIZE PUSH1 0x1F NOT PUSH1 0x1F DUP3 ADD AND DUP3 ADD DUP1 PUSH1 0x40 MSTORE POP DUP2 ADD SWAP1 PUSH2 0x253F SWAP2 SWAP1 PUSH2 0x384C JUMP JUMPDEST SWAP2 SWAP1 SWAP2 GT SWAP7 SWAP6 POP POP POP POP POP POP JUMP JUMPDEST PUSH1 0x20 SLOAD PUSH1 0x40 DUP1 MLOAD PUSH4 0x240BC6B PUSH1 0xE2 SHL DUP2 MSTORE SWAP1 MLOAD PUSH1 0x0 SWAP3 PUSH1 0x1 PUSH1 0x1 PUSH1 0xA0 SHL SUB AND SWAP2 DUP4 SWAP2 DUP3 SWAP2 DUP5 SWAP2 PUSH4 0x902F1AC SWAP2 PUSH1 0x4 DUP1 DUP3 ADD SWAP3 PUSH1 0x60 SWAP3 SWAP1 SWAP2 SWAP1 DUP3 SWAP1 SUB ADD DUP2 DUP7 GAS STATICCALL ISZERO DUP1 ISZERO PUSH2 0x259E JUMPI RETURNDATASIZE PUSH1 0x0 DUP1 RETURNDATACOPY RETURNDATASIZE PUSH1 0x0 REVERT JUMPDEST POP POP POP POP PUSH1 0x40 MLOAD RETURNDATASIZE PUSH1 0x1F NOT PUSH1 0x1F DUP3 ADD AND DUP3 ADD DUP1 PUSH1 0x40 MSTORE POP DUP2 ADD SWAP1 PUSH2 0x25C2 SWAP2 SWAP1 PUSH2 0x3933 JUMP JUMPDEST POP PUSH1 0xF SLOAD PUSH1 0x1 PUSH1 0x1 PUSH1 0x70 SHL SUB SWAP3 DUP4 AND SWAP5 POP SWAP2 AND SWAP2 POP PUSH1 0x1 PUSH1 0x1 PUSH1 0xA0 SHL SUB AND PUSH1 0x0 ADDRESS DUP3 LT ISZERO PUSH2 0x25F1 JUMPI POP DUP3 PUSH2 0x25F4 JUMP JUMPDEST POP DUP2 JUMPDEST PUSH1 0x40 MLOAD PUSH4 0x70A08231 PUSH1 0xE0 SHL DUP2 MSTORE PUSH1 0x0 SWAP1 PUSH1 0x1 PUSH1 0x1 PUSH1 0xA0 SHL SUB DUP5 AND SWAP1 PUSH4 0x70A08231 SWAP1 PUSH2 0x2623 SWAP1 DUP10 SWAP1 PUSH1 0x4 ADD PUSH2 0x372A JUMP JUMPDEST PUSH1 0x20 PUSH1 0x40 MLOAD DUP1 DUP4 SUB DUP2 DUP7 GAS STATICCALL ISZERO DUP1 ISZERO PUSH2 0x2640 JUMPI RETURNDATASIZE PUSH1 0x0 DUP1 RETURNDATACOPY RETURNDATASIZE PUSH1 0x0 REVERT JUMPDEST POP POP POP POP PUSH1 0x40 MLOAD RETURNDATASIZE PUSH1 0x1F NOT PUSH1 0x1F DUP3 ADD AND DUP3 ADD DUP1 PUSH1 0x40 MSTORE POP DUP2 ADD SWAP1 PUSH2 0x2664 SWAP2 SWAP1 PUSH2 0x384C JUMP JUMPDEST SWAP1 SWAP2 LT ISZERO SWAP7 SWAP6 POP POP POP POP POP POP JUMP JUMPDEST PUSH1 0x1 PUSH1 0x1 PUSH1 0xA0 SHL SUB DUP4 AND PUSH1 0x0 SWAP1 DUP2 MSTORE PUSH1 0x1 PUSH1 0x20 MSTORE PUSH1 0x40 DUP2 KECCAK256 DUP1 SLOAD DUP4 SWAP2 SWAP1 DUP4 SWAP1 PUSH2 0x269C SWAP1 DUP5 SWAP1 PUSH2 0x3865 JUMP JUMPDEST SWAP1 SWAP2 SSTORE POP POP PUSH1 0x1 PUSH1 0x1 PUSH1 0xA0 SHL SUB DUP4 AND PUSH1 0x0 SWAP1 DUP2 MSTORE PUSH1 0x1 PUSH1 0x20 MSTORE PUSH1 0x40 DUP2 KECCAK256 DUP1 SLOAD DUP5 SWAP3 SWAP1 PUSH2 0x26C9 SWAP1 DUP5 SWAP1 PUSH2 0x389A JUMP JUMPDEST SWAP3 POP POP DUP2 SWAP1 SSTORE POP DUP3 PUSH1 0x1 PUSH1 0x1 PUSH1 0xA0 SHL SUB AND DUP5 PUSH1 0x1 PUSH1 0x1 PUSH1 0xA0 SHL SUB AND PUSH1 0x0 DUP1 MLOAD PUSH1 0x20 PUSH2 0x3AAD DUP4 CODECOPY DUP2 MLOAD SWAP2 MSTORE DUP5 PUSH1 0x40 MLOAD PUSH2 0x2703 SWAP2 DUP2 MSTORE PUSH1 0x20 ADD SWAP1 JUMP JUMPDEST PUSH1 0x40 MLOAD DUP1 SWAP2 SUB SWAP1 LOG3 POP PUSH1 0x1 SWAP4 SWAP3 POP POP POP JUMP JUMPDEST PUSH1 0x11 DUP1 SLOAD PUSH2 0xFF00 NOT AND PUSH2 0x100 OR SWAP1 SSTORE DUP1 ISZERO DUP1 PUSH2 0x272F JUMPI POP DUP2 ISZERO JUMPDEST PUSH2 0x2D48 JUMPI PUSH1 0x0 PUSH1 0x13 SLOAD PUSH1 0x17 SLOAD PUSH2 0x2745 SWAP2 SWAP1 PUSH2 0x389A JUMP JUMPDEST SWAP1 POP PUSH1 0x0 DUP3 PUSH1 0x2 PUSH2 0x2756 DUP5 DUP8 PUSH2 0x38E3 JUMP JUMPDEST PUSH2 0x2760 SWAP2 SWAP1 PUSH2 0x38FA JUMP JUMPDEST PUSH2 0x276A SWAP2 SWAP1 PUSH2 0x38FA JUMP JUMPDEST SWAP1 POP PUSH1 0x0 PUSH2 0x2779 PUSH1 0x2 DUP5 PUSH2 0x38FA JUMP JUMPDEST PUSH2 0x2783 SWAP1 DUP6 PUSH2 0x3865 JUMP JUMPDEST PUSH1 0xF SLOAD PUSH1 0x40 DUP1 MLOAD PUSH1 0x2 DUP1 DUP3 MSTORE PUSH1 0x60 DUP3 ADD DUP4 MSTORE SWAP4 SWAP5 POP PUSH1 0x1 PUSH1 0x1 PUSH1 0xA0 SHL SUB SWAP1 SWAP3 AND SWAP3 PUSH1 0x0 SWAP3 SWAP2 PUSH1 0x20 DUP4 ADD SWAP1 DUP1 CALLDATASIZE DUP4 CALLDATACOPY ADD SWAP1 POP POP SWAP1 POP ADDRESS DUP2 PUSH1 0x0 DUP2 MLOAD DUP2 LT PUSH2 0x27CB JUMPI PUSH2 0x27CB PUSH2 0x3807 JUMP JUMPDEST PUSH1 0x1 PUSH1 0x1 PUSH1 0xA0 SHL SUB SWAP3 DUP4 AND PUSH1 0x20 SWAP2 DUP3 MUL SWAP3 SWAP1 SWAP3 ADD ADD MSTORE PUSH1 0xF SLOAD DUP3 MLOAD SWAP2 AND SWAP1 DUP3 SWAP1 PUSH1 0x1 SWAP1 DUP2 LT PUSH2 0x27FC JUMPI PUSH2 0x27FC PUSH2 0x3807 JUMP JUMPDEST PUSH1 0x1 PUSH1 0x1 PUSH1 0xA0 SHL SUB SWAP3 DUP4 AND PUSH1 0x20 SWAP2 DUP3 MUL SWAP3 SWAP1 SWAP3 ADD ADD MSTORE PUSH1 0xE SLOAD AND PUSH4 0x5C11D795 PUSH2 0x2825 DUP7 DUP11 PUSH2 0x3865 JUMP JUMPDEST PUSH1 0x11 SLOAD PUSH1 0x40 MLOAD PUSH1 0xE0 DUP5 SWAP1 SHL PUSH1 0x1 PUSH1 0x1 PUSH1 0xE0 SHL SUB NOT AND DUP2 MSTORE PUSH2 0x2860 SWAP3 SWAP2 PUSH1 0x0 SWAP2 DUP8 SWAP2 PUSH3 0x10000 SWAP1 DIV PUSH1 0x1 PUSH1 0x1 PUSH1 0xA0 SHL SUB AND SWAP1 TIMESTAMP SWAP1 PUSH1 0x4 ADD PUSH2 0x3978 JUMP JUMPDEST PUSH1 0x0 PUSH1 0x40 MLOAD DUP1 DUP4 SUB DUP2 PUSH1 0x0 DUP8 DUP1 EXTCODESIZE ISZERO DUP1 ISZERO PUSH2 0x287A JUMPI PUSH1 0x0 DUP1 REVERT JUMPDEST POP GAS CALL SWAP3 POP POP POP DUP1 ISZERO PUSH2 0x288B JUMPI POP PUSH1 0x1 JUMPDEST PUSH2 0x28B2 JUMPI PUSH1 0x40 MLOAD PUSH1 0x0 DUP2 MSTORE PUSH1 0x0 DUP1 MLOAD PUSH1 0x20 PUSH2 0x3A6D DUP4 CODECOPY DUP2 MLOAD SWAP2 MSTORE SWAP1 PUSH1 0x20 ADD PUSH1 0x40 MLOAD DUP1 SWAP2 SUB SWAP1 LOG1 JUMPDEST PUSH1 0x11 SLOAD PUSH1 0x40 MLOAD PUSH4 0x70A08231 PUSH1 0xE0 SHL DUP2 MSTORE PUSH1 0x0 SWAP2 PUSH1 0x1 PUSH1 0x1 PUSH1 0xA0 SHL SUB DUP1 DUP7 AND SWAP3 PUSH4 0x70A08231 SWAP3 PUSH2 0x28EC SWAP3 PUSH3 0x10000 SWAP1 SWAP2 DIV AND SWAP1 PUSH1 0x4 ADD PUSH2 0x372A JUMP JUMPDEST PUSH1 0x20 PUSH1 0x40 MLOAD DUP1 DUP4 SUB DUP2 DUP7 GAS STATICCALL ISZERO DUP1 ISZERO PUSH2 0x2909 JUMPI RETURNDATASIZE PUSH1 0x0 DUP1 RETURNDATACOPY RETURNDATASIZE PUSH1 0x0 REVERT JUMPDEST POP POP POP POP PUSH1 0x40 MLOAD RETURNDATASIZE PUSH1 0x1F NOT PUSH1 0x1F DUP3 ADD AND DUP3 ADD DUP1 PUSH1 0x40 MSTORE POP DUP2 ADD SWAP1 PUSH2 0x292D SWAP2 SWAP1 PUSH2 0x384C JUMP JUMPDEST SWAP1 POP DUP1 ISZERO PUSH2 0x29A8 JUMPI PUSH1 0x11 SLOAD PUSH1 0x40 MLOAD PUSH4 0x23B872DD PUSH1 0xE0 SHL DUP2 MSTORE PUSH3 0x10000 SWAP1 SWAP2 DIV PUSH1 0x1 PUSH1 0x1 PUSH1 0xA0 SHL SUB SWAP1 DUP2 AND PUSH1 0x4 DUP4 ADD MSTORE ADDRESS PUSH1 0x24 DUP4 ADD MSTORE PUSH1 0x44 DUP3 ADD DUP4 SWAP1 MSTORE DUP5 AND SWAP1 PUSH4 0x23B872DD SWAP1 PUSH1 0x64 ADD PUSH1 0x0 PUSH1 0x40 MLOAD DUP1 DUP4 SUB DUP2 PUSH1 0x0 DUP8 DUP1 EXTCODESIZE ISZERO DUP1 ISZERO PUSH2 0x298F JUMPI PUSH1 0x0 DUP1 REVERT JUMPDEST POP GAS CALL ISZERO DUP1 ISZERO PUSH2 0x29A3 JUMPI RETURNDATASIZE PUSH1 0x0 DUP1 RETURNDATACOPY RETURNDATASIZE PUSH1 0x0 REVERT JUMPDEST POP POP POP POP JUMPDEST PUSH1 0x0 DUP5 PUSH1 0x2 PUSH2 0x29B7 DUP10 DUP6 PUSH2 0x38E3 JUMP JUMPDEST PUSH2 0x29C1 SWAP2 SWAP1 PUSH2 0x38FA JUMP JUMPDEST PUSH2 0x29CB SWAP2 SWAP1 PUSH2 0x38FA JUMP JUMPDEST SWAP1 POP PUSH1 0x0 DUP6 PUSH1 0x16 SLOAD PUSH1 0x12 SLOAD PUSH2 0x29E0 SWAP2 SWAP1 PUSH2 0x389A JUMP JUMPDEST PUSH2 0x29EA SWAP1 DUP6 PUSH2 0x38E3 JUMP JUMPDEST PUSH2 0x29F4 SWAP2 SWAP1 PUSH2 0x38FA JUMP JUMPDEST SWAP1 POP DUP1 ISZERO PUSH2 0x2B36 JUMPI PUSH1 0x1D SLOAD PUSH1 0xFF AND ISZERO PUSH2 0x2AA5 JUMPI PUSH1 0xF SLOAD PUSH1 0x40 MLOAD PUSH4 0x2E1A7D4D PUSH1 0xE0 SHL DUP2 MSTORE PUSH1 0x4 DUP2 ADD DUP4 SWAP1 MSTORE PUSH1 0x1 PUSH1 0x1 PUSH1 0xA0 SHL SUB SWAP1 SWAP2 AND SWAP1 PUSH4 0x2E1A7D4D SWAP1 PUSH1 0x24 ADD PUSH1 0x0 PUSH1 0x40 MLOAD DUP1 DUP4 SUB DUP2 PUSH1 0x0 DUP8 DUP1 EXTCODESIZE ISZERO DUP1 ISZERO PUSH2 0x2A4D JUMPI PUSH1 0x0 DUP1 REVERT JUMPDEST POP GAS CALL ISZERO DUP1 ISZERO PUSH2 0x2A61 JUMPI RETURNDATASIZE PUSH1 0x0 DUP1 RETURNDATACOPY RETURNDATASIZE PUSH1 0x0 REVERT JUMPDEST POP POP PUSH1 0x3 SLOAD PUSH1 0x40 MLOAD PUSH1 0x1 PUSH1 0x1 PUSH1 0xA0 SHL SUB SWAP1 SWAP2 AND SWAP3 POP DUP4 ISZERO PUSH2 0x8FC MUL SWAP2 POP DUP4 SWAP1 PUSH1 0x0 DUP2 DUP2 DUP2 DUP6 DUP9 DUP9 CALL SWAP4 POP POP POP POP ISZERO DUP1 ISZERO PUSH2 0x2A9F JUMPI RETURNDATASIZE PUSH1 0x0 DUP1 RETURNDATACOPY RETURNDATASIZE PUSH1 0x0 REVERT JUMPDEST POP PUSH2 0x2B1E JUMP JUMPDEST PUSH1 0x3 SLOAD PUSH1 0x40 MLOAD PUSH4 0xA9059CBB PUSH1 0xE0 SHL DUP2 MSTORE PUSH1 0x1 PUSH1 0x1 PUSH1 0xA0 SHL SUB DUP8 DUP2 AND SWAP3 PUSH4 0xA9059CBB SWAP3 PUSH2 0x2AD9 SWAP3 SWAP1 SWAP2 AND SWAP1 DUP6 SWAP1 PUSH1 0x4 ADD PUSH2 0x38AD JUMP JUMPDEST PUSH1 0x20 PUSH1 0x40 MLOAD DUP1 DUP4 SUB DUP2 PUSH1 0x0 DUP8 GAS CALL ISZERO DUP1 ISZERO PUSH2 0x2AF8 JUMPI RETURNDATASIZE PUSH1 0x0 DUP1 RETURNDATACOPY RETURNDATASIZE PUSH1 0x0 REVERT JUMPDEST POP POP POP POP PUSH1 0x40 MLOAD RETURNDATASIZE PUSH1 0x1F NOT PUSH1 0x1F DUP3 ADD AND DUP3 ADD DUP1 PUSH1 0x40 MSTORE POP DUP2 ADD SWAP1 PUSH2 0x2B1C SWAP2 SWAP1 PUSH2 0x38C6 JUMP JUMPDEST POP JUMPDEST DUP1 PUSH1 0x24 PUSH1 0x0 DUP3 DUP3 SLOAD PUSH2 0x2B30 SWAP2 SWAP1 PUSH2 0x389A JUMP JUMPDEST SWAP1 SWAP2 SSTORE POP POP JUMPDEST PUSH1 0x0 DUP8 GT DUP1 ISZERO PUSH2 0x2B46 JUMPI POP PUSH1 0x0 DUP3 GT JUMPDEST ISZERO PUSH2 0x2C1E JUMPI PUSH1 0xE SLOAD PUSH1 0xF SLOAD PUSH1 0x3 SLOAD PUSH1 0x40 MLOAD PUSH3 0xE8E337 PUSH1 0xE8 SHL DUP2 MSTORE ADDRESS PUSH1 0x4 DUP3 ADD MSTORE PUSH1 0x1 PUSH1 0x1 PUSH1 0xA0 SHL SUB SWAP3 DUP4 AND PUSH1 0x24 DUP3 ADD MSTORE PUSH1 0x44 DUP2 ADD DUP12 SWAP1 MSTORE PUSH1 0x64 DUP2 ADD DUP7 SWAP1 MSTORE PUSH1 0x0 PUSH1 0x84 DUP3 ADD DUP2 SWAP1 MSTORE PUSH1 0xA4 DUP3 ADD MSTORE SWAP1 DUP3 AND PUSH1 0xC4 DUP3 ADD MSTORE TIMESTAMP PUSH1 0xE4 DUP3 ADD MSTORE SWAP2 AND SWAP1 PUSH4 0xE8E33700 SWAP1 PUSH2 0x104 ADD PUSH1 0x60 PUSH1 0x40 MLOAD DUP1 DUP4 SUB DUP2 PUSH1 0x0 DUP8 GAS CALL SWAP3 POP POP POP DUP1 ISZERO PUSH2 0x2BE8 JUMPI POP PUSH1 0x40 DUP1 MLOAD PUSH1 0x1F RETURNDATASIZE SWAP1 DUP2 ADD PUSH1 0x1F NOT AND DUP3 ADD SWAP1 SWAP3 MSTORE PUSH2 0x2BE5 SWAP2 DUP2 ADD SWAP1 PUSH2 0x39E9 JUMP JUMPDEST PUSH1 0x1 JUMPDEST PUSH2 0x2C1A JUMPI PUSH1 0x40 MLOAD PUSH32 0x6C331C730EFD7C7D973857825B7C7B2087A7DAD2124068053CB23FB178016049 SWAP1 PUSH1 0x0 SWAP1 LOG1 PUSH2 0x2C1E JUMP JUMPDEST POP POP POP JUMPDEST PUSH1 0x18 SLOAD PUSH1 0x14 SLOAD PUSH2 0x2C2E SWAP2 SWAP1 PUSH2 0x389A JUMP JUMPDEST PUSH1 0x0 SUB PUSH2 0x2C42 JUMPI POP POP POP POP POP POP POP POP PUSH2 0x2D48 JUMP JUMPDEST PUSH1 0x21 SLOAD PUSH1 0x1 EQ PUSH2 0x2D3F JUMPI PUSH1 0xE SLOAD PUSH1 0x40 MLOAD PUSH4 0x70A08231 PUSH1 0xE0 SHL DUP2 MSTORE PUSH1 0x1 PUSH1 0x1 PUSH1 0xA0 SHL SUB SWAP2 DUP3 AND SWAP2 PUSH4 0x5C11D795 SWAP2 SWAP1 DUP9 AND SWAP1 PUSH4 0x70A08231 SWAP1 PUSH2 0x2C86 SWAP1 ADDRESS SWAP1 PUSH1 0x4 ADD PUSH2 0x372A JUMP JUMPDEST PUSH1 0x20 PUSH1 0x40 MLOAD DUP1 DUP4 SUB DUP2 DUP7 GAS STATICCALL ISZERO DUP1 ISZERO PUSH2 0x2CA3 JUMPI RETURNDATASIZE PUSH1 0x0 DUP1 RETURNDATACOPY RETURNDATASIZE PUSH1 0x0 REVERT JUMPDEST POP POP POP POP PUSH1 0x40 MLOAD RETURNDATASIZE PUSH1 0x1F NOT PUSH1 0x1F DUP3 ADD AND DUP3 ADD DUP1 PUSH1 0x40 MSTORE POP DUP2 ADD SWAP1 PUSH2 0x2CC7 SWAP2 SWAP1 PUSH2 0x384C JUMP JUMPDEST PUSH1 0x0 PUSH1 0x21 ADDRESS TIMESTAMP PUSH1 0x40 MLOAD DUP7 PUSH4 0xFFFFFFFF AND PUSH1 0xE0 SHL DUP2 MSTORE PUSH1 0x4 ADD PUSH2 0x2CED SWAP6 SWAP5 SWAP4 SWAP3 SWAP2 SWAP1 PUSH2 0x3A17 JUMP JUMPDEST PUSH1 0x0 PUSH1 0x40 MLOAD DUP1 DUP4 SUB DUP2 PUSH1 0x0 DUP8 DUP1 EXTCODESIZE ISZERO DUP1 ISZERO PUSH2 0x2D07 JUMPI PUSH1 0x0 DUP1 REVERT JUMPDEST POP GAS CALL SWAP3 POP POP POP DUP1 ISZERO PUSH2 0x2D18 JUMPI POP PUSH1 0x1 JUMPDEST PUSH2 0x2D3F JUMPI PUSH1 0x40 MLOAD PUSH1 0x1 DUP2 MSTORE PUSH1 0x0 DUP1 MLOAD PUSH1 0x20 PUSH2 0x3A6D DUP4 CODECOPY DUP2 MLOAD SWAP2 MSTORE SWAP1 PUSH1 0x20 ADD PUSH1 0x40 MLOAD DUP1 SWAP2 SUB SWAP1 LOG1 JUMPDEST POP POP POP POP POP POP POP POP JUMPDEST POP POP PUSH1 0x11 DUP1 SLOAD PUSH2 0xFF00 NOT AND SWAP1 SSTORE JUMP JUMPDEST PUSH1 0x1 PUSH1 0x1 PUSH1 0xA0 SHL SUB DUP8 AND PUSH1 0x0 SWAP1 DUP2 MSTORE PUSH1 0x1 PUSH1 0x20 MSTORE PUSH1 0x40 SWAP1 KECCAK256 SLOAD PUSH2 0x2D7B SWAP1 DUP7 SWAP1 PUSH2 0x3865 JUMP JUMPDEST PUSH1 0x1 PUSH1 0x1 PUSH1 0xA0 SHL SUB DUP9 AND PUSH1 0x0 SWAP1 DUP2 MSTORE PUSH1 0x1 PUSH1 0x20 MSTORE PUSH1 0x40 DUP2 KECCAK256 SWAP2 SWAP1 SWAP2 SSTORE DUP5 ISZERO PUSH2 0x2E8B JUMPI PUSH1 0x0 DUP5 ISZERO PUSH2 0x2DC9 JUMPI PUSH1 0x17 SLOAD PUSH1 0x18 SLOAD PUSH1 0x16 SLOAD PUSH2 0x2DB8 SWAP2 SWAP1 PUSH2 0x389A JUMP JUMPDEST PUSH2 0x2DC2 SWAP2 SWAP1 PUSH2 0x389A JUMP JUMPDEST SWAP1 POP PUSH2 0x2DE9 JUMP JUMPDEST PUSH1 0x14 SLOAD PUSH1 0x13 SLOAD PUSH1 0x12 SLOAD PUSH2 0x2DDC SWAP2 SWAP1 PUSH2 0x389A JUMP JUMPDEST PUSH2 0x2DE6 SWAP2 SWAP1 PUSH2 0x389A JUMP JUMPDEST SWAP1 POP JUMPDEST PUSH1 0x0 PUSH2 0x2710 PUSH2 0x2DF8 DUP4 DUP11 PUSH2 0x38E3 JUMP JUMPDEST PUSH2 0x2E02 SWAP2 SWAP1 PUSH2 0x38FA JUMP JUMPDEST SWAP1 POP DUP1 ISZERO PUSH2 0x2E21 JUMPI PUSH2 0x2E14 DUP2 DUP5 PUSH2 0x389A JUMP JUMPDEST SWAP3 POP PUSH2 0x2E21 DUP11 ADDRESS DUP4 PUSH2 0x34AF JUMP JUMPDEST PUSH1 0x0 DUP7 PUSH2 0x2E4A JUMPI PUSH2 0x2710 PUSH1 0x15 SLOAD DUP11 PUSH2 0x2E39 SWAP2 SWAP1 PUSH2 0x38E3 JUMP JUMPDEST PUSH2 0x2E43 SWAP2 SWAP1 PUSH2 0x38FA JUMP JUMPDEST SWAP1 POP PUSH2 0x2E68 JUMP JUMPDEST PUSH2 0x2710 PUSH1 0x19 SLOAD DUP11 PUSH2 0x2E5B SWAP2 SWAP1 PUSH2 0x38E3 JUMP JUMPDEST PUSH2 0x2E65 SWAP2 SWAP1 PUSH2 0x38FA JUMP JUMPDEST SWAP1 POP JUMPDEST DUP1 ISZERO PUSH2 0x2E87 JUMPI PUSH2 0x2E78 DUP2 DUP6 PUSH2 0x389A JUMP JUMPDEST SWAP4 POP PUSH2 0x2E87 DUP12 PUSH2 0xDEAD DUP4 PUSH2 0x34AF JUMP JUMPDEST POP POP POP JUMPDEST DUP3 DUP1 ISZERO PUSH2 0x2EB1 JUMPI POP PUSH1 0x1 PUSH1 0x1 PUSH1 0xA0 SHL SUB DUP9 AND PUSH1 0x0 SWAP1 DUP2 MSTORE PUSH1 0xA PUSH1 0x20 MSTORE PUSH1 0x40 SWAP1 KECCAK256 SLOAD PUSH1 0xFF AND ISZERO JUMPDEST DUP1 ISZERO PUSH2 0x2ED6 JUMPI POP PUSH1 0x1 PUSH1 0x1 PUSH1 0xA0 SHL SUB DUP8 AND PUSH1 0x0 SWAP1 DUP2 MSTORE PUSH1 0xA PUSH1 0x20 MSTORE PUSH1 0x40 SWAP1 KECCAK256 SLOAD PUSH1 0xFF AND ISZERO JUMPDEST ISZERO PUSH2 0x2F19 JUMPI PUSH1 0x0 PUSH2 0x2710 PUSH1 0x1A SLOAD DUP9 PUSH2 0x2EEE SWAP2 SWAP1 PUSH2 0x38E3 JUMP JUMPDEST PUSH2 0x2EF8 SWAP2 SWAP1 PUSH2 0x38FA JUMP JUMPDEST SWAP1 POP DUP1 ISZERO PUSH2 0x2F17 JUMPI PUSH2 0x2F0A DUP2 DUP4 PUSH2 0x389A JUMP JUMPDEST SWAP2 POP PUSH2 0x2F17 DUP10 ADDRESS DUP4 PUSH2 0x34AF JUMP JUMPDEST POP JUMPDEST DUP2 DUP1 ISZERO PUSH2 0x2F3F JUMPI POP PUSH1 0x1 PUSH1 0x1 PUSH1 0xA0 SHL SUB DUP9 AND PUSH1 0x0 SWAP1 DUP2 MSTORE PUSH1 0xA PUSH1 0x20 MSTORE PUSH1 0x40 SWAP1 KECCAK256 SLOAD PUSH1 0xFF AND ISZERO JUMPDEST DUP1 ISZERO PUSH2 0x2F64 JUMPI POP PUSH1 0x1 PUSH1 0x1 PUSH1 0xA0 SHL SUB DUP8 AND PUSH1 0x0 SWAP1 DUP2 MSTORE PUSH1 0xA PUSH1 0x20 MSTORE PUSH1 0x40 SWAP1 KECCAK256 SLOAD PUSH1 0xFF AND ISZERO JUMPDEST ISZERO PUSH2 0x2FA9 JUMPI PUSH1 0x0 PUSH2 0x2710 PUSH1 0x1B SLOAD DUP9 PUSH2 0x2F7C SWAP2 SWAP1 PUSH2 0x38E3 JUMP JUMPDEST PUSH2 0x2F86 SWAP2 SWAP1 PUSH2 0x38FA JUMP JUMPDEST SWAP1 POP DUP1 ISZERO PUSH2 0x2FA7 JUMPI PUSH2 0x2F98 DUP2 DUP4 PUSH2 0x389A JUMP JUMPDEST SWAP2 POP PUSH2 0x2FA7 DUP10 PUSH2 0xDEAD DUP4 PUSH2 0x34AF JUMP JUMPDEST POP JUMPDEST PUSH1 0x1 PUSH1 0x1 PUSH1 0xA0 SHL SUB DUP8 AND PUSH1 0x0 SWAP1 DUP2 MSTORE PUSH1 0xC PUSH1 0x20 MSTORE PUSH1 0x40 SWAP1 KECCAK256 SLOAD PUSH1 0xFF AND ISZERO DUP1 ISZERO PUSH2 0x2FDB JUMPI POP PUSH1 0x20 SLOAD PUSH1 0x1 PUSH1 0xB8 SHL SWAP1 DIV PUSH1 0xFF AND JUMPDEST ISZERO PUSH2 0x303D JUMPI PUSH1 0x9 SLOAD DUP2 DUP8 PUSH2 0x2FEE DUP11 PUSH2 0x149D JUMP JUMPDEST PUSH2 0x2FF8 SWAP2 SWAP1 PUSH2 0x389A JUMP JUMPDEST PUSH2 0x3002 SWAP2 SWAP1 PUSH2 0x3865 JUMP JUMPDEST GT ISZERO PUSH2 0x303D JUMPI PUSH1 0x40 MLOAD PUSH3 0x461BCD PUSH1 0xE5 SHL DUP2 MSTORE PUSH1 0x20 PUSH1 0x4 DUP3 ADD MSTORE PUSH1 0xA PUSH1 0x24 DUP3 ADD MSTORE PUSH10 0x1BDD995C881B1A5B5A5D PUSH1 0xB2 SHL PUSH1 0x44 DUP3 ADD MSTORE PUSH1 0x64 ADD PUSH2 0xD95 JUMP JUMPDEST PUSH2 0x3051 DUP9 DUP9 PUSH2 0x304C DUP5 DUP11 PUSH2 0x3865 JUMP JUMPDEST PUSH2 0x34AF JUMP JUMPDEST POP POP POP POP POP POP POP POP JUMP JUMPDEST NUMBER PUSH1 0x2B SLOAD PUSH1 0x2A SLOAD PUSH2 0x306C SWAP2 SWAP1 PUSH2 0x389A JUMP JUMPDEST GT ISZERO PUSH2 0x3075 JUMPI POP JUMP JUMPDEST PUSH1 0x1D SLOAD PUSH1 0x40 MLOAD PUSH4 0x70A08231 PUSH1 0xE0 SHL DUP2 MSTORE PUSH2 0x100 SWAP1 SWAP2 DIV PUSH1 0x1 PUSH1 0x1 PUSH1 0xA0 SHL SUB AND SWAP1 PUSH1 0x0 SWAP1 DUP3 SWAP1 PUSH4 0x70A08231 SWAP1 PUSH2 0x30AE SWAP1 ADDRESS SWAP1 PUSH1 0x4 ADD PUSH2 0x372A JUMP JUMPDEST PUSH1 0x20 PUSH1 0x40 MLOAD DUP1 DUP4 SUB DUP2 DUP7 GAS STATICCALL ISZERO DUP1 ISZERO PUSH2 0x30CB JUMPI RETURNDATASIZE PUSH1 0x0 DUP1 RETURNDATACOPY RETURNDATASIZE PUSH1 0x0 REVERT JUMPDEST POP POP POP POP PUSH1 0x40 MLOAD RETURNDATASIZE PUSH1 0x1F NOT PUSH1 0x1F DUP3 ADD AND DUP3 ADD DUP1 PUSH1 0x40 MSTORE POP DUP2 ADD SWAP1 PUSH2 0x30EF SWAP2 SWAP1 PUSH2 0x384C JUMP JUMPDEST SWAP1 POP PUSH1 0x29 SLOAD DUP2 LT ISZERO PUSH2 0x3100 JUMPI POP POP POP JUMP JUMPDEST PUSH1 0x20 SLOAD PUSH1 0x4 DUP1 SLOAD PUSH1 0x40 MLOAD PUSH4 0x70A08231 PUSH1 0xE0 SHL DUP2 MSTORE PUSH1 0x1 PUSH1 0x1 PUSH1 0xA0 SHL SUB SWAP4 DUP5 AND SWAP4 PUSH1 0x0 SWAP4 DUP6 SWAP4 PUSH4 0x70A08231 SWAP4 PUSH2 0x3139 SWAP4 SWAP1 SWAP2 AND SWAP2 ADD PUSH2 0x372A JUMP JUMPDEST PUSH1 0x20 PUSH1 0x40 MLOAD DUP1 DUP4 SUB DUP2 DUP7 GAS STATICCALL ISZERO DUP1 ISZERO PUSH2 0x3156 JUMPI RETURNDATASIZE PUSH1 0x0 DUP1 RETURNDATACOPY RETURNDATASIZE PUSH1 0x0 REVERT JUMPDEST POP POP POP POP PUSH1 0x40 MLOAD RETURNDATASIZE PUSH1 0x1F NOT PUSH1 0x1F DUP3 ADD AND DUP3 ADD DUP1 PUSH1 0x40 MSTORE POP DUP2 ADD SWAP1 PUSH2 0x317A SWAP2 SWAP1 PUSH2 0x384C JUMP JUMPDEST DUP3 PUSH1 0x1 PUSH1 0x1 PUSH1 0xA0 SHL SUB AND PUSH4 0x18160DDD PUSH1 0x40 MLOAD DUP2 PUSH4 0xFFFFFFFF AND PUSH1 0xE0 SHL DUP2 MSTORE PUSH1 0x4 ADD PUSH1 0x20 PUSH1 0x40 MLOAD DUP1 DUP4 SUB DUP2 DUP7 GAS STATICCALL ISZERO DUP1 ISZERO PUSH2 0x31B8 JUMPI RETURNDATASIZE PUSH1 0x0 DUP1 RETURNDATACOPY RETURNDATASIZE PUSH1 0x0 REVERT JUMPDEST POP POP POP POP PUSH1 0x40 MLOAD RETURNDATASIZE PUSH1 0x1F NOT PUSH1 0x1F DUP3 ADD AND DUP3 ADD DUP1 PUSH1 0x40 MSTORE POP DUP2 ADD SWAP1 PUSH2 0x31DC SWAP2 SWAP1 PUSH2 0x384C JUMP JUMPDEST PUSH2 0x31E6 SWAP2 SWAP1 PUSH2 0x3865 JUMP JUMPDEST PUSH1 0x25 SLOAD SWAP1 SWAP2 POP PUSH1 0x0 SWAP1 DUP2 SWAP1 DUP2 SWAP1 DUP2 DUP1 DUP1 GAS PUSH1 0x40 MLOAD PUSH4 0x70A08231 PUSH1 0xE0 SHL DUP2 MSTORE SWAP1 SWAP2 POP PUSH1 0x1 PUSH1 0x1 PUSH1 0xA0 SHL SUB DUP13 AND SWAP1 PUSH4 0x70A08231 SWAP1 PUSH2 0x3226 SWAP1 ADDRESS SWAP1 PUSH1 0x4 ADD PUSH2 0x372A JUMP JUMPDEST PUSH1 0x20 PUSH1 0x40 MLOAD DUP1 DUP4 SUB DUP2 DUP7 GAS STATICCALL ISZERO DUP1 ISZERO PUSH2 0x3243 JUMPI RETURNDATASIZE PUSH1 0x0 DUP1 RETURNDATACOPY RETURNDATASIZE PUSH1 0x0 REVERT JUMPDEST POP POP POP POP PUSH1 0x40 MLOAD RETURNDATASIZE PUSH1 0x1F NOT PUSH1 0x1F DUP3 ADD AND DUP3 ADD DUP1 PUSH1 0x40 MSTORE POP DUP2 ADD SWAP1 PUSH2 0x3267 SWAP2 SWAP1 PUSH2 0x384C JUMP JUMPDEST SWAP10 POP JUMPDEST DUP12 DUP4 LT DUP1 ISZERO PUSH2 0x3278 JUMPI POP DUP4 DUP3 LT JUMPDEST ISZERO PUSH2 0x349D JUMPI DUP4 PUSH1 0x28 SLOAD LT PUSH2 0x328C JUMPI PUSH1 0x0 PUSH1 0x28 SSTORE JUMPDEST PUSH1 0x25 PUSH1 0x28 SLOAD DUP2 SLOAD DUP2 LT PUSH2 0x32A1 JUMPI PUSH2 0x32A1 PUSH2 0x3807 JUMP JUMPDEST PUSH1 0x0 SWAP2 DUP3 MSTORE PUSH1 0x20 SWAP1 SWAP2 KECCAK256 ADD SLOAD PUSH1 0x40 MLOAD PUSH4 0x70A08231 PUSH1 0xE0 SHL DUP2 MSTORE PUSH1 0x1 PUSH1 0x1 PUSH1 0xA0 SHL SUB SWAP2 DUP3 AND SWAP9 POP SWAP1 DUP11 AND SWAP1 PUSH4 0x70A08231 SWAP1 PUSH2 0x32DF SWAP1 DUP11 SWAP1 PUSH1 0x4 ADD PUSH2 0x372A JUMP JUMPDEST PUSH1 0x20 PUSH1 0x40 MLOAD DUP1 DUP4 SUB DUP2 DUP7 GAS STATICCALL ISZERO DUP1 ISZERO PUSH2 0x32FC JUMPI RETURNDATASIZE PUSH1 0x0 DUP1 RETURNDATACOPY RETURNDATASIZE PUSH1 0x0 REVERT JUMPDEST POP POP POP POP PUSH1 0x40 MLOAD RETURNDATASIZE PUSH1 0x1F NOT PUSH1 0x1F DUP3 ADD AND DUP3 ADD DUP1 PUSH1 0x40 MSTORE POP DUP2 ADD SWAP1 PUSH2 0x3320 SWAP2 SWAP1 PUSH2 0x384C JUMP JUMPDEST SWAP6 POP PUSH1 0x0 DUP7 GT DUP1 ISZERO PUSH2 0x334B JUMPI POP PUSH1 0x1 PUSH1 0x1 PUSH1 0xA0 SHL SUB DUP8 AND PUSH1 0x0 SWAP1 DUP2 MSTORE PUSH1 0x27 PUSH1 0x20 MSTORE PUSH1 0x40 SWAP1 KECCAK256 SLOAD PUSH1 0xFF AND ISZERO JUMPDEST ISZERO PUSH2 0x345B JUMPI DUP8 PUSH2 0x335B DUP8 DUP13 PUSH2 0x38E3 JUMP JUMPDEST PUSH2 0x3365 SWAP2 SWAP1 PUSH2 0x38FA JUMP JUMPDEST SWAP5 POP PUSH1 0x0 DUP6 GT DUP1 ISZERO PUSH2 0x33E3 JUMPI POP PUSH1 0x40 MLOAD PUSH4 0x70A08231 PUSH1 0xE0 SHL DUP2 MSTORE DUP6 SWAP1 PUSH1 0x1 PUSH1 0x1 PUSH1 0xA0 SHL SUB DUP14 AND SWAP1 PUSH4 0x70A08231 SWAP1 PUSH2 0x33A0 SWAP1 ADDRESS SWAP1 PUSH1 0x4 ADD PUSH2 0x372A JUMP JUMPDEST PUSH1 0x20 PUSH1 0x40 MLOAD DUP1 DUP4 SUB DUP2 DUP7 GAS STATICCALL ISZERO DUP1 ISZERO PUSH2 0x33BD JUMPI RETURNDATASIZE PUSH1 0x0 DUP1 RETURNDATACOPY RETURNDATASIZE PUSH1 0x0 REVERT JUMPDEST POP POP POP POP PUSH1 0x40 MLOAD RETURNDATASIZE PUSH1 0x1F NOT PUSH1 0x1F DUP3 ADD AND DUP3 ADD DUP1 PUSH1 0x40 MSTORE POP DUP2 ADD SWAP1 PUSH2 0x33E1 SWAP2 SWAP1 PUSH2 0x384C JUMP JUMPDEST GT JUMPDEST ISZERO PUSH2 0x345B JUMPI PUSH1 0x40 MLOAD PUSH4 0xA9059CBB PUSH1 0xE0 SHL DUP2 MSTORE PUSH1 0x1 PUSH1 0x1 PUSH1 0xA0 SHL SUB DUP13 AND SWAP1 PUSH4 0xA9059CBB SWAP1 PUSH2 0x3416 SWAP1 DUP11 SWAP1 DUP10 SWAP1 PUSH1 0x4 ADD PUSH2 0x38AD JUMP JUMPDEST PUSH1 0x20 PUSH1 0x40 MLOAD DUP1 DUP4 SUB DUP2 PUSH1 0x0 DUP8 GAS CALL ISZERO DUP1 ISZERO PUSH2 0x3435 JUMPI RETURNDATASIZE PUSH1 0x0 DUP1 RETURNDATACOPY RETURNDATASIZE PUSH1 0x0 REVERT JUMPDEST POP POP POP POP PUSH1 0x40 MLOAD RETURNDATASIZE PUSH1 0x1F NOT PUSH1 0x1F DUP3 ADD AND DUP3 ADD DUP1 PUSH1 0x40 MSTORE POP DUP2 ADD SWAP1 PUSH2 0x3459 SWAP2 SWAP1 PUSH2 0x38C6 JUMP JUMPDEST POP JUMPDEST GAS PUSH2 0x3466 SWAP1 DUP3 PUSH2 0x3865 JUMP JUMPDEST PUSH2 0x3470 SWAP1 DUP5 PUSH2 0x389A JUMP JUMPDEST SWAP3 POP GAS PUSH1 0x28 DUP1 SLOAD SWAP2 SWAP3 POP PUSH1 0x0 PUSH2 0x3485 DUP4 PUSH2 0x3833 JUMP JUMPDEST SWAP2 SWAP1 POP SSTORE POP DUP2 DUP1 PUSH2 0x3495 SWAP1 PUSH2 0x3833 JUMP JUMPDEST SWAP3 POP POP PUSH2 0x326A JUMP JUMPDEST POP POP NUMBER PUSH1 0x2A SSTORE POP POP POP POP POP POP POP POP POP POP JUMP JUMPDEST PUSH1 0x1 PUSH1 0x1 PUSH1 0xA0 SHL SUB DUP3 AND PUSH1 0x0 SWAP1 DUP2 MSTORE PUSH1 0x1 PUSH1 0x20 MSTORE PUSH1 0x40 SWAP1 KECCAK256 SLOAD PUSH2 0x34D3 SWAP1 DUP3 SWAP1 PUSH2 0x389A JUMP JUMPDEST PUSH1 0x1 PUSH1 0x1 PUSH1 0xA0 SHL SUB DUP1 DUP5 AND PUSH1 0x0 DUP2 DUP2 MSTORE PUSH1 0x1 PUSH1 0x20 MSTORE PUSH1 0x40 SWAP1 DUP2 SWAP1 KECCAK256 SWAP4 SWAP1 SWAP4 SSTORE SWAP2 MLOAD SWAP1 DUP6 AND SWAP1 PUSH1 0x0 DUP1 MLOAD PUSH1 0x20 PUSH2 0x3AAD DUP4 CODECOPY DUP2 MLOAD SWAP2 MSTORE SWAP1 PUSH2 0x1E20 SWAP1 DUP6 DUP2 MSTORE PUSH1 0x20 ADD SWAP1 JUMP JUMPDEST PUSH1 0x1 PUSH1 0x1 PUSH1 0xA0 SHL SUB DUP2 AND DUP2 EQ PUSH2 0x352A JUMPI PUSH1 0x0 DUP1 REVERT JUMPDEST POP JUMP JUMPDEST PUSH1 0x0 PUSH1 0x20 DUP3 DUP5 SUB SLT ISZERO PUSH2 0x353F JUMPI PUSH1 0x0 DUP1 REVERT JUMPDEST DUP2 CALLDATALOAD PUSH2 0x354A DUP2 PUSH2 0x3515 JUMP JUMPDEST SWAP4 SWAP3 POP POP POP JUMP JUMPDEST DUP1 ISZERO ISZERO DUP2 EQ PUSH2 0x352A JUMPI PUSH1 0x0 DUP1 REVERT JUMPDEST PUSH1 0x0 DUP1 PUSH1 0x40 DUP4 DUP6 SUB SLT ISZERO PUSH2 0x3572 JUMPI PUSH1 0x0 DUP1 REVERT JUMPDEST DUP3 CALLDATALOAD PUSH2 0x357D DUP2 PUSH2 0x3515 JUMP JUMPDEST SWAP2 POP PUSH1 0x20 DUP4 ADD CALLDATALOAD PUSH2 0x358D DUP2 PUSH2 0x3551 JUMP JUMPDEST DUP1 SWAP2 POP POP SWAP3 POP SWAP3 SWAP1 POP JUMP JUMPDEST PUSH1 0x0 PUSH1 0x20 DUP3 DUP5 SUB SLT ISZERO PUSH2 0x35AA JUMPI PUSH1 0x0 DUP1 REVERT JUMPDEST POP CALLDATALOAD SWAP2 SWAP1 POP JUMP JUMPDEST PUSH1 0x0 PUSH1 0x20 DUP1 DUP4 MSTORE DUP4 MLOAD DUP1 DUP3 DUP6 ADD MSTORE PUSH1 0x0 JUMPDEST DUP2 DUP2 LT ISZERO PUSH2 0x35DE JUMPI DUP6 DUP2 ADD DUP4 ADD MLOAD DUP6 DUP3 ADD PUSH1 0x40 ADD MSTORE DUP3 ADD PUSH2 0x35C2 JUMP JUMPDEST POP PUSH1 0x0 PUSH1 0x40 DUP3 DUP7 ADD ADD MSTORE PUSH1 0x40 PUSH1 0x1F NOT PUSH1 0x1F DUP4 ADD AND DUP6 ADD ADD SWAP3 POP POP POP SWAP3 SWAP2 POP POP JUMP JUMPDEST PUSH1 0x0 PUSH1 0x20 DUP3 DUP5 SUB SLT ISZERO PUSH2 0x3611 JUMPI PUSH1 0x0 DUP1 REVERT JUMPDEST DUP2 CALLDATALOAD PUSH2 0x354A DUP2 PUSH2 0x3551 JUMP JUMPDEST PUSH1 0x0 DUP1 PUSH1 0x40 DUP4 DUP6 SUB SLT ISZERO PUSH2 0x362F JUMPI PUSH1 0x0 DUP1 REVERT JUMPDEST DUP3 CALLDATALOAD PUSH2 0x363A DUP2 PUSH2 0x3515 JUMP JUMPDEST SWAP5 PUSH1 0x20 SWAP4 SWAP1 SWAP4 ADD CALLDATALOAD SWAP4 POP POP POP JUMP JUMPDEST PUSH1 0x0 DUP1 DUP4 PUSH1 0x1F DUP5 ADD SLT PUSH2 0x365A JUMPI PUSH1 0x0 DUP1 REVERT JUMPDEST POP DUP2 CALLDATALOAD PUSH1 0x1 PUSH1 0x1 PUSH1 0x40 SHL SUB DUP2 GT ISZERO PUSH2 0x3671 JUMPI PUSH1 0x0 DUP1 REVERT JUMPDEST PUSH1 0x20 DUP4 ADD SWAP2 POP DUP4 PUSH1 0x20 DUP3 PUSH1 0x5 SHL DUP6 ADD ADD GT ISZERO PUSH2 0x368C JUMPI PUSH1 0x0 DUP1 REVERT JUMPDEST SWAP3 POP SWAP3 SWAP1 POP JUMP JUMPDEST PUSH1 0x0 DUP1 PUSH1 0x0 PUSH1 0x40 DUP5 DUP7 SUB SLT ISZERO PUSH2 0x36A8 JUMPI PUSH1 0x0 DUP1 REVERT JUMPDEST DUP4 CALLDATALOAD PUSH1 0x1 PUSH1 0x1 PUSH1 0x40 SHL SUB DUP2 GT ISZERO PUSH2 0x36BE JUMPI PUSH1 0x0 DUP1 REVERT JUMPDEST PUSH2 0x36CA DUP7 DUP3 DUP8 ADD PUSH2 0x3648 JUMP JUMPDEST SWAP1 SWAP5 POP SWAP3 POP POP PUSH1 0x20 DUP5 ADD CALLDATALOAD PUSH2 0x36DE DUP2 PUSH2 0x3551 JUMP JUMPDEST DUP1 SWAP2 POP POP SWAP3 POP SWAP3 POP SWAP3 JUMP JUMPDEST PUSH1 0x0 DUP1 PUSH1 0x20 DUP4 DUP6 SUB SLT ISZERO PUSH2 0x36FC JUMPI PUSH1 0x0 DUP1 REVERT JUMPDEST DUP3 CALLDATALOAD PUSH1 0x1 PUSH1 0x1 PUSH1 0x40 SHL SUB DUP2 GT ISZERO PUSH2 0x3712 JUMPI PUSH1 0x0 DUP1 REVERT JUMPDEST PUSH2 0x371E DUP6 DUP3 DUP7 ADD PUSH2 0x3648 JUMP JUMPDEST SWAP1 SWAP7 SWAP1 SWAP6 POP SWAP4 POP POP POP POP JUMP JUMPDEST PUSH1 0x1 PUSH1 0x1 PUSH1 0xA0 SHL SUB SWAP2 SWAP1 SWAP2 AND DUP2 MSTORE PUSH1 0x20 ADD SWAP1 JUMP JUMPDEST PUSH1 0x0 DUP1 PUSH1 0x0 PUSH1 0x60 DUP5 DUP7 SUB SLT ISZERO PUSH2 0x3753 JUMPI PUSH1 0x0 DUP1 REVERT JUMPDEST DUP4 CALLDATALOAD PUSH2 0x375E DUP2 PUSH2 0x3515 JUMP JUMPDEST SWAP3 POP PUSH1 0x20 DUP5 ADD CALLDATALOAD PUSH2 0x376E DUP2 PUSH2 0x3515 JUMP JUMPDEST SWAP3 SWAP6 SWAP3 SWAP5 POP POP POP PUSH1 0x40 SWAP2 SWAP1 SWAP2 ADD CALLDATALOAD SWAP1 JUMP JUMPDEST PUSH1 0x0 DUP1 PUSH1 0x40 DUP4 DUP6 SUB SLT ISZERO PUSH2 0x3792 JUMPI PUSH1 0x0 DUP1 REVERT JUMPDEST DUP3 CALLDATALOAD PUSH2 0x379D DUP2 PUSH2 0x3515 JUMP JUMPDEST SWAP2 POP PUSH1 0x20 DUP4 ADD CALLDATALOAD PUSH2 0x358D DUP2 PUSH2 0x3515 JUMP JUMPDEST PUSH1 0x20 DUP1 DUP3 MSTORE PUSH1 0x6 SWAP1 DUP3 ADD MSTORE PUSH6 0x10B7BBB732B9 PUSH1 0xD1 SHL PUSH1 0x40 DUP3 ADD MSTORE PUSH1 0x60 ADD SWAP1 JUMP JUMPDEST PUSH1 0x1 DUP2 DUP2 SHR SWAP1 DUP3 AND DUP1 PUSH2 0x37E1 JUMPI PUSH1 0x7F DUP3 AND SWAP2 POP JUMPDEST PUSH1 0x20 DUP3 LT DUP2 SUB PUSH2 0x3801 JUMPI PUSH4 0x4E487B71 PUSH1 0xE0 SHL PUSH1 0x0 MSTORE PUSH1 0x22 PUSH1 0x4 MSTORE PUSH1 0x24 PUSH1 0x0 REVERT JUMPDEST POP SWAP2 SWAP1 POP JUMP JUMPDEST PUSH4 0x4E487B71 PUSH1 0xE0 SHL PUSH1 0x0 MSTORE PUSH1 0x32 PUSH1 0x4 MSTORE PUSH1 0x24 PUSH1 0x0 REVERT JUMPDEST PUSH4 0x4E487B71 PUSH1 0xE0 SHL PUSH1 0x0 MSTORE PUSH1 0x11 PUSH1 0x4 MSTORE PUSH1 0x24 PUSH1 0x0 REVERT JUMPDEST PUSH1 0x0 PUSH1 0x1 DUP3 ADD PUSH2 0x3845 JUMPI PUSH2 0x3845 PUSH2 0x381D JUMP JUMPDEST POP PUSH1 0x1 ADD SWAP1 JUMP JUMPDEST PUSH1 0x0 PUSH1 0x20 DUP3 DUP5 SUB SLT ISZERO PUSH2 0x385E JUMPI PUSH1 0x0 DUP1 REVERT JUMPDEST POP MLOAD SWAP2 SWAP1 POP JUMP JUMPDEST DUP2 DUP2 SUB DUP2 DUP2 GT ISZERO PUSH2 0x181A JUMPI PUSH2 0x181A PUSH2 0x381D JUMP JUMPDEST PUSH1 0x20 DUP1 DUP3 MSTORE PUSH1 0x8 SWAP1 DUP3 ADD MSTORE PUSH8 0x191A5CD8589B1959 PUSH1 0xC2 SHL PUSH1 0x40 DUP3 ADD MSTORE PUSH1 0x60 ADD SWAP1 JUMP JUMPDEST DUP1 DUP3 ADD DUP1 DUP3 GT ISZERO PUSH2 0x181A JUMPI PUSH2 0x181A PUSH2 0x381D JUMP JUMPDEST PUSH1 0x1 PUSH1 0x1 PUSH1 0xA0 SHL SUB SWAP3 SWAP1 SWAP3 AND DUP3 MSTORE PUSH1 0x20 DUP3 ADD MSTORE PUSH1 0x40 ADD SWAP1 JUMP JUMPDEST PUSH1 0x0 PUSH1 0x20 DUP3 DUP5 SUB SLT ISZERO PUSH2 0x38D8 JUMPI PUSH1 0x0 DUP1 REVERT JUMPDEST DUP2 MLOAD PUSH2 0x354A DUP2 PUSH2 0x3551 JUMP JUMPDEST DUP1 DUP3 MUL DUP2 ISZERO DUP3 DUP3 DIV DUP5 EQ OR PUSH2 0x181A JUMPI PUSH2 0x181A PUSH2 0x381D JUMP JUMPDEST PUSH1 0x0 DUP3 PUSH2 0x3917 JUMPI PUSH4 0x4E487B71 PUSH1 0xE0 SHL PUSH1 0x0 MSTORE PUSH1 0x12 PUSH1 0x4 MSTORE PUSH1 0x24 PUSH1 0x0 REVERT JUMPDEST POP DIV SWAP1 JUMP JUMPDEST DUP1 MLOAD PUSH1 0x1 PUSH1 0x1 PUSH1 0x70 SHL SUB DUP2 AND DUP2 EQ PUSH2 0x1315 JUMPI PUSH1 0x0 DUP1 REVERT JUMPDEST PUSH1 0x0 DUP1 PUSH1 0x0 PUSH1 0x60 DUP5 DUP7 SUB SLT ISZERO PUSH2 0x3948 JUMPI PUSH1 0x0 DUP1 REVERT JUMPDEST PUSH2 0x3951 DUP5 PUSH2 0x391C JUMP JUMPDEST SWAP3 POP PUSH2 0x395F PUSH1 0x20 DUP6 ADD PUSH2 0x391C JUMP JUMPDEST SWAP2 POP PUSH1 0x40 DUP5 ADD MLOAD PUSH4 0xFFFFFFFF DUP2 AND DUP2 EQ PUSH2 0x36DE JUMPI PUSH1 0x0 DUP1 REVERT JUMPDEST PUSH1 0x0 PUSH1 0xA0 DUP3 ADD DUP8 DUP4 MSTORE PUSH1 0x20 DUP8 DUP2 DUP6 ADD MSTORE PUSH1 0xA0 PUSH1 0x40 DUP6 ADD MSTORE DUP2 DUP8 MLOAD DUP1 DUP5 MSTORE PUSH1 0xC0 DUP7 ADD SWAP2 POP DUP3 DUP10 ADD SWAP4 POP PUSH1 0x0 JUMPDEST DUP2 DUP2 LT ISZERO PUSH2 0x39C8 JUMPI DUP5 MLOAD PUSH1 0x1 PUSH1 0x1 PUSH1 0xA0 SHL SUB AND DUP4 MSTORE SWAP4 DUP4 ADD SWAP4 SWAP2 DUP4 ADD SWAP2 PUSH1 0x1 ADD PUSH2 0x39A3 JUMP JUMPDEST POP POP PUSH1 0x1 PUSH1 0x1 PUSH1 0xA0 SHL SUB SWAP7 SWAP1 SWAP7 AND PUSH1 0x60 DUP6 ADD MSTORE POP POP POP PUSH1 0x80 ADD MSTORE SWAP4 SWAP3 POP POP POP JUMP JUMPDEST PUSH1 0x0 DUP1 PUSH1 0x0 PUSH1 0x60 DUP5 DUP7 SUB SLT ISZERO PUSH2 0x39FE JUMPI PUSH1 0x0 DUP1 REVERT JUMPDEST DUP4 MLOAD SWAP3 POP PUSH1 0x20 DUP5 ADD MLOAD SWAP2 POP PUSH1 0x40 DUP5 ADD MLOAD SWAP1 POP SWAP3 POP SWAP3 POP SWAP3 JUMP JUMPDEST PUSH1 0x0 PUSH1 0xA0 DUP3 ADD DUP8 DUP4 MSTORE PUSH1 0x20 DUP8 DUP2 DUP6 ADD MSTORE PUSH1 0xA0 PUSH1 0x40 DUP6 ADD MSTORE DUP2 DUP8 SLOAD DUP1 DUP5 MSTORE PUSH1 0xC0 DUP7 ADD SWAP2 POP DUP9 PUSH1 0x0 MSTORE DUP3 PUSH1 0x0 KECCAK256 SWAP4 POP PUSH1 0x0 JUMPDEST DUP2 DUP2 LT ISZERO PUSH2 0x39C8 JUMPI DUP5 SLOAD PUSH1 0x1 PUSH1 0x1 PUSH1 0xA0 SHL SUB AND DUP4 MSTORE PUSH1 0x1 SWAP5 DUP6 ADD SWAP5 SWAP3 DUP5 ADD SWAP3 ADD PUSH2 0x3A47 JUMP INVALID PUSH13 0x37756E80DABA6F4DF0D5BFA6CD 0xDA 0xDF 0xE2 CALLDATASIZE ADD 0xAC 0xC1 LOG2 PUSH30 0xC8D4AA427DE91467888BE0079C531659141344CD1FD0A4F28419497F9722 LOG3 0xDA 0xAF 0xE3 0xB4 XOR PUSH16 0x6B6457E0DDF252AD1BE2C89B69C2B068 0xFC CALLDATACOPY DUP14 0xAA SWAP6 0x2B 0xA7 CALL PUSH4 0xC4A11628 CREATE2 GAS 0x4D CREATE2 0x23 0xB3 0xEF LOG2 PUSH5 0x6970667358 0x22 SLT KECCAK256 PUSH8 0x2B0086775346E28F PUSH6 0x7A60506B932F TIMESTAMP PUSH6 0xC573BC35C11F 0xBA CALLDATACOPY 0xC5 0xED 0xE 0xAD 0xD4 0xA8 PUSH5 0x736F6C6343 STOP ADDMOD EQ STOP CALLER PUSH1 0x80 PUSH1 0x40 MSTORE CALLVALUE DUP1 ISZERO PUSH1 0xF JUMPI PUSH1 0x0 DUP1 REVERT JUMPDEST POP PUSH1 0x40 MLOAD PUSH2 0x10B CODESIZE SUB DUP1 PUSH2 0x10B DUP4 CODECOPY DUP2 ADD PUSH1 0x40 DUP2 SWAP1 MSTORE PUSH1 0x2C SWAP2 PUSH1 0x90 JUMP JUMPDEST PUSH1 0x40 MLOAD PUSH4 0x95EA7B3 PUSH1 0xE0 SHL DUP2 MSTORE CALLER PUSH1 0x4 DUP3 ADD MSTORE PUSH1 0x0 NOT PUSH1 0x24 DUP3 ADD MSTORE PUSH1 0x1 PUSH1 0x1 PUSH1 0xA0 SHL SUB DUP3 AND SWAP1 PUSH4 0x95EA7B3 SWAP1 PUSH1 0x44 ADD PUSH1 0x0 PUSH1 0x40 MLOAD DUP1 DUP4 SUB DUP2 PUSH1 0x0 DUP8 DUP1 EXTCODESIZE ISZERO DUP1 ISZERO PUSH1 0x74 JUMPI PUSH1 0x0 DUP1 REVERT JUMPDEST POP GAS CALL ISZERO DUP1 ISZERO PUSH1 0x87 JUMPI RETURNDATASIZE PUSH1 0x0 DUP1 RETURNDATACOPY RETURNDATASIZE PUSH1 0x0 REVERT JUMPDEST POP POP POP POP POP PUSH1 0xBE JUMP JUMPDEST PUSH1 0x0 PUSH1 0x20 DUP3 DUP5 SUB SLT ISZERO PUSH1 0xA1 JUMPI PUSH1 0x0 DUP1 REVERT JUMPDEST DUP2 MLOAD PUSH1 0x1 PUSH1 0x1 PUSH1 0xA0 SHL SUB DUP2 AND DUP2 EQ PUSH1 0xB7 JUMPI PUSH1 0x0 DUP1 REVERT JUMPDEST SWAP4 SWAP3 POP POP POP JUMP JUMPDEST PUSH1 0x3F DUP1 PUSH2 0xCC PUSH1 0x0 CODECOPY PUSH1 0x0 RETURN INVALID PUSH1 0x80 PUSH1 0x40 MSTORE PUSH1 0x0 DUP1 REVERT INVALID LOG2 PUSH5 0x6970667358 0x22 SLT KECCAK256 SWAP1 CALLDATACOPY 0xB6 STATICCALL DUP16 0xCD 0xB5 PUSH11 0x4B619C337C4588CFB90A71 0xBC LOG1 SWAP12 0xCD 0xA8 SGT SELFDESTRUCT SELFDESTRUCT EXTCODESIZE PUSH16 0xBDD7C064736F6C634300081400330000 "
		},
		"gasEstimates": {
			"creation": {
				"codeDepositCost": "3021200",
				"executionCost": "infinite",
				"totalCost": "infinite"
			},
			"external": {
				"_buyFundFee()": "1611",
				"_buyLPFee()": "1435",
				"_buyRewardFee()": "1150",
				"_feeWhiteList(address)": "1237",
				"_mainPair()": "1722",
				"_rewardList(address)": "1720",
				"_sellFundFee()": "1590",
				"_sellLPFee()": "1369",
				"_sellRewardFee()": "1523",
				"_swapPairList(address)": "1831",
				"_swapRouter()": "1436",
				"_tokenDistributor()": "1204",
				"addLiquidityFee()": "1546",
				"airdropEnable()": "1325",
				"airdropNumbs()": "1677",
				"allowance(address,address)": "infinite",
				"antiSYNC()": "1506",
				"approve(address,uint256)": "22527",
				"balanceOf(address)": "5492",
				"buy_burnFee()": "1436",
				"changeWalletLimit(uint256)": "21130",
				"completeCustoms(uint256[])": "infinite",
				"currency()": "1765",
				"currencyIsEth()": "1264",
				"decimals()": "1477",
				"disableChangeTax()": "22007",
				"disableWalletLimit()": "22667",
				"enableChangeTax()": "1654",
				"enableKillBlock()": "1787",
				"enableOffTrade()": "1610",
				"enableRewardList()": "1412",
				"enableWalletLimit()": "1061",
				"fundAddress()": "1809",
				"holderRewardCondition()": "1787",
				"initlpadress()": "1458",
				"isMaxEatExempt(address)": "1853",
				"isReward(address)": "1984",
				"kb()": "1458",
				"launch()": "21810",
				"maxWalletAmount()": "1325",
				"multiAddHolder(address[])": "infinite",
				"multi_bclist(address[],bool)": "infinite",
				"name()": "infinite",
				"numTokensSellRate()": "1193",
				"owner()": "1231",
				"processRewardWaitBlock()": "1810",
				"removeLiquidityFee()": "1545",
				"renounceOwnership()": "24220",
				"rewardPath(uint256)": "2302",
				"rewardToken()": "1952",
				"sell_burnFee()": "1876",
				"setAddLiquidityFee(uint256)": "21134",
				"setAirDropEnable(bool)": "22122",
				"setAirdropNumbs(uint256)": "21816",
				"setAntiSYNCEnable(bool)": "22733",
				"setClaims(address,uint256)": "infinite",
				"setEnableOffTrade(bool)": "22518",
				"setExcludeHolder(address,bool)": "infinite",
				"setFeeWhiteList(address[],bool)": "infinite",
				"setFundAddress(address)": "43706",
				"setHolderRewardCondition(uint256)": "21636",
				"setInitlpadress(address)": "22467",
				"setNumTokensSellRate(uint256)": "21176",
				"setProcessRewardWaitBlock(uint256)": "21637",
				"setRemoveLiquidityFee(uint256)": "21574",
				"setSwapAtAmount(uint256)": "21901",
				"setSwapPairList(address,bool)": "infinite",
				"setisMaxEatExempt(address,bool)": "infinite",
				"setkb(uint256)": "21285",
				"setrcurrency(address)": "22732",
				"setrewardToken(address)": "22830",
				"startLP()": "22051",
				"startLPBlock()": "1678",
				"startTradeBlock()": "1744",
				"stopLP()": "6321",
				"swapAtAmount()": "1105",
				"symbol()": "infinite",
				"totalFundAmountReceive()": "1831",
				"totalSupply()": "1279",
				"transfer(address,uint256)": "infinite",
				"transferFrom(address,address,uint256)": "infinite",
				"transferOwnership(address)": "25285"
			},
			"internal": {
				"_approve(address,address,uint256)": "infinite",
				"_basicTransfer(address,address,uint256)": "infinite",
				"_isAddLiquidity()": "infinite",
				"_isRemoveLiquidity()": "infinite",
				"_takeTransfer(address,address,uint256)": "infinite",
				"_tokenTransfer(address,address,uint256,bool,bool,bool,bool)": "infinite",
				"_transfer(address,address,uint256)": "infinite",
				"addHolder(address)": "65994",
				"isContract(address)": "infinite",
				"processReward(uint256)": "infinite",
				"swapTokenForFund(uint256,uint256)": "infinite"
			}
		},
		"methodIdentifiers": {
			"_buyFundFee()": "ce0192f9",
			"_buyLPFee()": "b9fbc49d",
			"_buyRewardFee()": "07c3adf0",
			"_feeWhiteList(address)": "01986fad",
			"_mainPair()": "4188bf5a",
			"_rewardList(address)": "bd25bf29",
			"_sellFundFee()": "3bfe62ca",
			"_sellLPFee()": "adc7955d",
			"_sellRewardFee()": "be4fe9a5",
			"_swapPairList(address)": "3c11100d",
			"_swapRouter()": "206c17bb",
			"_tokenDistributor()": "8718b24f",
			"addLiquidityFee()": "3b1cd187",
			"airdropEnable()": "1846a5a4",
			"airdropNumbs()": "e32759cf",
			"allowance(address,address)": "dd62ed3e",
			"antiSYNC()": "35c96089",
			"approve(address,uint256)": "095ea7b3",
			"balanceOf(address)": "70a08231",
			"buy_burnFee()": "255412d9",
			"changeWalletLimit(uint256)": "7db1342c",
			"completeCustoms(uint256[])": "aa582b42",
			"currency()": "e5a6b10f",
			"currencyIsEth()": "15d07d82",
			"decimals()": "313ce567",
			"disableChangeTax()": "0f890b86",
			"disableWalletLimit()": "697cfc19",
			"enableChangeTax()": "d5986433",
			"enableKillBlock()": "5a7ba73c",
			"enableOffTrade()": "c92d567e",
			"enableRewardList()": "b02d757f",
			"enableWalletLimit()": "03da2b23",
			"fundAddress()": "e82bef29",
			"holderRewardCondition()": "eb10b741",
			"initlpadress()": "2381d95d",
			"isMaxEatExempt(address)": "40aa81fe",
			"isReward(address)": "4d5ce038",
			"kb()": "2dab693f",
			"launch()": "01339c21",
			"maxWalletAmount()": "aa4bde28",
			"multiAddHolder(address[])": "1dbbaebd",
			"multi_bclist(address[],bool)": "6108a3db",
			"name()": "06fdde03",
			"numTokensSellRate()": "8f6cd17d",
			"owner()": "8da5cb5b",
			"processRewardWaitBlock()": "621823e6",
			"removeLiquidityFee()": "bfc3137e",
			"renounceOwnership()": "715018a6",
			"rewardPath(uint256)": "9cc0e3c7",
			"rewardToken()": "f7c618c1",
			"sell_burnFee()": "6b611368",
			"setAddLiquidityFee(uint256)": "79dc880c",
			"setAirDropEnable(bool)": "07313d8d",
			"setAirdropNumbs(uint256)": "e5c2b0a6",
			"setAntiSYNCEnable(bool)": "ea10510e",
			"setClaims(address,uint256)": "b60368fc",
			"setEnableOffTrade(bool)": "37d0a1c9",
			"setExcludeHolder(address,bool)": "05833c2b",
			"setFeeWhiteList(address[],bool)": "150e4c47",
			"setFundAddress(address)": "85dc3004",
			"setHolderRewardCondition(uint256)": "c213d62d",
			"setInitlpadress(address)": "bab01f4c",
			"setNumTokensSellRate(uint256)": "060e304e",
			"setProcessRewardWaitBlock(uint256)": "3bb82eb6",
			"setRemoveLiquidityFee(uint256)": "bba30f8f",
			"setSwapAtAmount(uint256)": "6402511e",
			"setSwapPairList(address,bool)": "a8424861",
			"setisMaxEatExempt(address,bool)": "8c2fc7ad",
			"setkb(uint256)": "14a432c9",
			"setrcurrency(address)": "4ea6037c",
			"setrewardToken(address)": "edb1bcd9",
			"startLP()": "992db38f",
			"startLPBlock()": "4482004e",
			"startTradeBlock()": "553193ca",
			"stopLP()": "18d12855",
			"swapAtAmount()": "86917524",
			"symbol()": "95d89b41",
			"totalFundAmountReceive()": "ef6e4f17",
			"totalSupply()": "18160ddd",
			"transfer(address,uint256)": "a9059cbb",
			"transferFrom(address,address,uint256)": "23b872dd",
			"transferOwnership(address)": "f2fde38b"
		}
	},
	"abi": [
		{
			"inputs": [
				{
					"internalType": "string[]",
					"name": "stringParams",
					"type": "string[]"
				},
				{
					"internalType": "address[]",
					"name": "addressParams",
					"type": "address[]"
				},
				{
					"internalType": "uint256[]",
					"name": "numberParams",
					"type": "uint256[]"
				},
				{
					"internalType": "bool[]",
					"name": "boolParams",
					"type": "bool[]"
				}
			],
			"stateMutability": "nonpayable",
			"type": "constructor"
		},
		{
			"anonymous": false,
			"inputs": [
				{
					"indexed": true,
					"internalType": "address",
					"name": "owner",
					"type": "address"
				},
				{
					"indexed": true,
					"internalType": "address",
					"name": "spender",
					"type": "address"
				},
				{
					"indexed": false,
					"internalType": "uint256",
					"name": "value",
					"type": "uint256"
				}
			],
			"name": "Approval",
			"type": "event"
		},
		{
			"anonymous": false,
			"inputs": [],
			"name": "Failed_addLiquidity",
			"type": "event"
		},
		{
			"anonymous": false,
			"inputs": [
				{
					"indexed": false,
					"internalType": "uint256",
					"name": "value",
					"type": "uint256"
				}
			],
			"name": "Failed_swapExactTokensForTokensSupportingFeeOnTransferTokens",
			"type": "event"
		},
		{
			"anonymous": false,
			"inputs": [
				{
					"indexed": true,
					"internalType": "address",
					"name": "previousOwner",
					"type": "address"
				},
				{
					"indexed": true,
					"internalType": "address",
					"name": "newOwner",
					"type": "address"
				}
			],
			"name": "OwnershipTransferred",
			"type": "event"
		},
		{
			"anonymous": false,
			"inputs": [
				{
					"indexed": true,
					"internalType": "address",
					"name": "from",
					"type": "address"
				},
				{
					"indexed": true,
					"internalType": "address",
					"name": "to",
					"type": "address"
				},
				{
					"indexed": false,
					"internalType": "uint256",
					"name": "value",
					"type": "uint256"
				}
			],
			"name": "Transfer",
			"type": "event"
		},
		{
			"inputs": [],
			"name": "_buyFundFee",
			"outputs": [
				{
					"internalType": "uint256",
					"name": "",
					"type": "uint256"
				}
			],
			"stateMutability": "view",
			"type": "function"
		},
		{
			"inputs": [],
			"name": "_buyLPFee",
			"outputs": [
				{
					"internalType": "uint256",
					"name": "",
					"type": "uint256"
				}
			],
			"stateMutability": "view",
			"type": "function"
		},
		{
			"inputs": [],
			"name": "_buyRewardFee",
			"outputs": [
				{
					"internalType": "uint256",
					"name": "",
					"type": "uint256"
				}
			],
			"stateMutability": "view",
			"type": "function"
		},
		{
			"inputs": [
				{
					"internalType": "address",
					"name": "",
					"type": "address"
				}
			],
			"name": "_feeWhiteList",
			"outputs": [
				{
					"internalType": "bool",
					"name": "",
					"type": "bool"
				}
			],
			"stateMutability": "view",
			"type": "function"
		},
		{
			"inputs": [],
			"name": "_mainPair",
			"outputs": [
				{
					"internalType": "address",
					"name": "",
					"type": "address"
				}
			],
			"stateMutability": "view",
			"type": "function"
		},
		{
			"inputs": [
				{
					"internalType": "address",
					"name": "",
					"type": "address"
				}
			],
			"name": "_rewardList",
			"outputs": [
				{
					"internalType": "bool",
					"name": "",
					"type": "bool"
				}
			],
			"stateMutability": "view",
			"type": "function"
		},
		{
			"inputs": [],
			"name": "_sellFundFee",
			"outputs": [
				{
					"internalType": "uint256",
					"name": "",
					"type": "uint256"
				}
			],
			"stateMutability": "view",
			"type": "function"
		},
		{
			"inputs": [],
			"name": "_sellLPFee",
			"outputs": [
				{
					"internalType": "uint256",
					"name": "",
					"type": "uint256"
				}
			],
			"stateMutability": "view",
			"type": "function"
		},
		{
			"inputs": [],
			"name": "_sellRewardFee",
			"outputs": [
				{
					"internalType": "uint256",
					"name": "",
					"type": "uint256"
				}
			],
			"stateMutability": "view",
			"type": "function"
		},
		{
			"inputs": [
				{
					"internalType": "address",
					"name": "",
					"type": "address"
				}
			],
			"name": "_swapPairList",
			"outputs": [
				{
					"internalType": "bool",
					"name": "",
					"type": "bool"
				}
			],
			"stateMutability": "view",
			"type": "function"
		},
		{
			"inputs": [],
			"name": "_swapRouter",
			"outputs": [
				{
					"internalType": "contract ISwapRouter",
					"name": "",
					"type": "address"
				}
			],
			"stateMutability": "view",
			"type": "function"
		},
		{
			"inputs": [],
			"name": "_tokenDistributor",
			"outputs": [
				{
					"internalType": "contract TokenDistributor",
					"name": "",
					"type": "address"
				}
			],
			"stateMutability": "view",
			"type": "function"
		},
		{
			"inputs": [],
			"name": "addLiquidityFee",
			"outputs": [
				{
					"internalType": "uint256",
					"name": "",
					"type": "uint256"
				}
			],
			"stateMutability": "view",
			"type": "function"
		},
		{
			"inputs": [],
			"name": "airdropEnable",
			"outputs": [
				{
					"internalType": "bool",
					"name": "",
					"type": "bool"
				}
			],
			"stateMutability": "view",
			"type": "function"
		},
		{
			"inputs": [],
			"name": "airdropNumbs",
			"outputs": [
				{
					"internalType": "uint256",
					"name": "",
					"type": "uint256"
				}
			],
			"stateMutability": "view",
			"type": "function"
		},
		{
			"inputs": [
				{
					"internalType": "address",
					"name": "owner",
					"type": "address"
				},
				{
					"internalType": "address",
					"name": "spender",
					"type": "address"
				}
			],
			"name": "allowance",
			"outputs": [
				{
					"internalType": "uint256",
					"name": "",
					"type": "uint256"
				}
			],
			"stateMutability": "view",
			"type": "function"
		},
		{
			"inputs": [],
			"name": "antiSYNC",
			"outputs": [
				{
					"internalType": "bool",
					"name": "",
					"type": "bool"
				}
			],
			"stateMutability": "view",
			"type": "function"
		},
		{
			"inputs": [
				{
					"internalType": "address",
					"name": "spender",
					"type": "address"
				},
				{
					"internalType": "uint256",
					"name": "amount",
					"type": "uint256"
				}
			],
			"name": "approve",
			"outputs": [],
			"stateMutability": "nonpayable",
			"type": "function"
		},
		{
			"inputs": [
				{
					"internalType": "address",
					"name": "account",
					"type": "address"
				}
			],
			"name": "balanceOf",
			"outputs": [
				{
					"internalType": "uint256",
					"name": "",
					"type": "uint256"
				}
			],
			"stateMutability": "view",
			"type": "function"
		},
		{
			"inputs": [],
			"name": "buy_burnFee",
			"outputs": [
				{
					"internalType": "uint256",
					"name": "",
					"type": "uint256"
				}
			],
			"stateMutability": "view",
			"type": "function"
		},
		{
			"inputs": [
				{
					"internalType": "uint256",
					"name": "_amount",
					"type": "uint256"
				}
			],
			"name": "changeWalletLimit",
			"outputs": [],
			"stateMutability": "nonpayable",
			"type": "function"
		},
		{
			"inputs": [
				{
					"internalType": "uint256[]",
					"name": "customs",
					"type": "uint256[]"
				}
			],
			"name": "completeCustoms",
			"outputs": [],
			"stateMutability": "nonpayable",
			"type": "function"
		},
		{
			"inputs": [],
			"name": "currency",
			"outputs": [
				{
					"internalType": "address",
					"name": "",
					"type": "address"
				}
			],
			"stateMutability": "view",
			"type": "function"
		},
		{
			"inputs": [],
			"name": "currencyIsEth",
			"outputs": [
				{
					"internalType": "bool",
					"name": "",
					"type": "bool"
				}
			],
			"stateMutability": "view",
			"type": "function"
		},
		{
			"inputs": [],
			"name": "decimals",
			"outputs": [
				{
					"internalType": "uint256",
					"name": "",
					"type": "uint256"
				}
			],
			"stateMutability": "view",
			"type": "function"
		},
		{
			"inputs": [],
			"name": "disableChangeTax",
			"outputs": [],
			"stateMutability": "nonpayable",
			"type": "function"
		},
		{
			"inputs": [],
			"name": "disableWalletLimit",
			"outputs": [],
			"stateMutability": "nonpayable",
			"type": "function"
		},
		{
			"inputs": [],
			"name": "enableChangeTax",
			"outputs": [
				{
					"internalType": "bool",
					"name": "",
					"type": "bool"
				}
			],
			"stateMutability": "view",
			"type": "function"
		},
		{
			"inputs": [],
			"name": "enableKillBlock",
			"outputs": [
				{
					"internalType": "bool",
					"name": "",
					"type": "bool"
				}
			],
			"stateMutability": "view",
			"type": "function"
		},
		{
			"inputs": [],
			"name": "enableOffTrade",
			"outputs": [
				{
					"internalType": "bool",
					"name": "",
					"type": "bool"
				}
			],
			"stateMutability": "view",
			"type": "function"
		},
		{
			"inputs": [],
			"name": "enableRewardList",
			"outputs": [
				{
					"internalType": "bool",
					"name": "",
					"type": "bool"
				}
			],
			"stateMutability": "view",
			"type": "function"
		},
		{
			"inputs": [],
			"name": "enableWalletLimit",
			"outputs": [
				{
					"internalType": "bool",
					"name": "",
					"type": "bool"
				}
			],
			"stateMutability": "view",
			"type": "function"
		},
		{
			"inputs": [],
			"name": "fundAddress",
			"outputs": [
				{
					"internalType": "address payable",
					"name": "",
					"type": "address"
				}
			],
			"stateMutability": "view",
			"type": "function"
		},
		{
			"inputs": [],
			"name": "holderRewardCondition",
			"outputs": [
				{
					"internalType": "uint256",
					"name": "",
					"type": "uint256"
				}
			],
			"stateMutability": "view",
			"type": "function"
		},
		{
			"inputs": [],
			"name": "initlpadress",
			"outputs": [
				{
					"internalType": "address",
					"name": "",
					"type": "address"
				}
			],
			"stateMutability": "view",
			"type": "function"
		},
		{
			"inputs": [
				{
					"internalType": "address",
					"name": "",
					"type": "address"
				}
			],
			"name": "isMaxEatExempt",
			"outputs": [
				{
					"internalType": "bool",
					"name": "",
					"type": "bool"
				}
			],
			"stateMutability": "view",
			"type": "function"
		},
		{
			"inputs": [
				{
					"internalType": "address",
					"name": "account",
					"type": "address"
				}
			],
			"name": "isReward",
			"outputs": [
				{
					"internalType": "uint256",
					"name": "",
					"type": "uint256"
				}
			],
			"stateMutability": "view",
			"type": "function"
		},
		{
			"inputs": [],
			"name": "kb",
			"outputs": [
				{
					"internalType": "uint256",
					"name": "",
					"type": "uint256"
				}
			],
			"stateMutability": "view",
			"type": "function"
		},
		{
			"inputs": [],
			"name": "launch",
			"outputs": [],
			"stateMutability": "nonpayable",
			"type": "function"
		},
		{
			"inputs": [],
			"name": "maxWalletAmount",
			"outputs": [
				{
					"internalType": "uint256",
					"name": "",
					"type": "uint256"
				}
			],
			"stateMutability": "view",
			"type": "function"
		},
		{
			"inputs": [
				{
					"internalType": "address[]",
					"name": "accounts",
					"type": "address[]"
				}
			],
			"name": "multiAddHolder",
			"outputs": [],
			"stateMutability": "nonpayable",
			"type": "function"
		},
		{
			"inputs": [
				{
					"internalType": "address[]",
					"name": "addresses",
					"type": "address[]"
				},
				{
					"internalType": "bool",
					"name": "value",
					"type": "bool"
				}
			],
			"name": "multi_bclist",
			"outputs": [],
			"stateMutability": "nonpayable",
			"type": "function"
		},
		{
			"inputs": [],
			"name": "name",
			"outputs": [
				{
					"internalType": "string",
					"name": "",
					"type": "string"
				}
			],
			"stateMutability": "view",
			"type": "function"
		},
		{
			"inputs": [],
			"name": "numTokensSellRate",
			"outputs": [
				{
					"internalType": "uint256",
					"name": "",
					"type": "uint256"
				}
			],
			"stateMutability": "view",
			"type": "function"
		},
		{
			"inputs": [],
			"name": "owner",
			"outputs": [
				{
					"internalType": "address",
					"name": "",
					"type": "address"
				}
			],
			"stateMutability": "view",
			"type": "function"
		},
		{
			"inputs": [],
			"name": "processRewardWaitBlock",
			"outputs": [
				{
					"internalType": "uint256",
					"name": "",
					"type": "uint256"
				}
			],
			"stateMutability": "view",
			"type": "function"
		},
		{
			"inputs": [],
			"name": "removeLiquidityFee",
			"outputs": [
				{
					"internalType": "uint256",
					"name": "",
					"type": "uint256"
				}
			],
			"stateMutability": "view",
			"type": "function"
		},
		{
			"inputs": [],
			"name": "renounceOwnership",
			"outputs": [],
			"stateMutability": "nonpayable",
			"type": "function"
		},
		{
			"inputs": [
				{
					"internalType": "uint256",
					"name": "",
					"type": "uint256"
				}
			],
			"name": "rewardPath",
			"outputs": [
				{
					"internalType": "address",
					"name": "",
					"type": "address"
				}
			],
			"stateMutability": "view",
			"type": "function"
		},
		{
			"inputs": [],
			"name": "rewardToken",
			"outputs": [
				{
					"internalType": "address",
					"name": "",
					"type": "address"
				}
			],
			"stateMutability": "view",
			"type": "function"
		},
		{
			"inputs": [],
			"name": "sell_burnFee",
			"outputs": [
				{
					"internalType": "uint256",
					"name": "",
					"type": "uint256"
				}
			],
			"stateMutability": "view",
			"type": "function"
		},
		{
			"inputs": [
				{
					"internalType": "uint256",
					"name": "newValue",
					"type": "uint256"
				}
			],
			"name": "setAddLiquidityFee",
			"outputs": [],
			"stateMutability": "nonpayable",
			"type": "function"
		},
		{
			"inputs": [
				{
					"internalType": "bool",
					"name": "status",
					"type": "bool"
				}
			],
			"name": "setAirDropEnable",
			"outputs": [],
			"stateMutability": "nonpayable",
			"type": "function"
		},
		{
			"inputs": [
				{
					"internalType": "uint256",
					"name": "newValue",
					"type": "uint256"
				}
			],
			"name": "setAirdropNumbs",
			"outputs": [],
			"stateMutability": "nonpayable",
			"type": "function"
		},
		{
			"inputs": [
				{
					"internalType": "bool",
					"name": "s",
					"type": "bool"
				}
			],
			"name": "setAntiSYNCEnable",
			"outputs": [],
			"stateMutability": "nonpayable",
			"type": "function"
		},
		{
			"inputs": [
				{
					"internalType": "address",
					"name": "token",
					"type": "address"
				},
				{
					"internalType": "uint256",
					"name": "amount",
					"type": "uint256"
				}
			],
			"name": "setClaims",
			"outputs": [],
			"stateMutability": "nonpayable",
			"type": "function"
		},
		{
			"inputs": [
				{
					"internalType": "bool",
					"name": "val",
					"type": "bool"
				}
			],
			"name": "setEnableOffTrade",
			"outputs": [],
			"stateMutability": "nonpayable",
			"type": "function"
		},
		{
			"inputs": [
				{
					"internalType": "address",
					"name": "addr",
					"type": "address"
				},
				{
					"internalType": "bool",
					"name": "enable",
					"type": "bool"
				}
			],
			"name": "setExcludeHolder",
			"outputs": [],
			"stateMutability": "nonpayable",
			"type": "function"
		},
		{
			"inputs": [
				{
					"internalType": "address[]",
					"name": "addr",
					"type": "address[]"
				},
				{
					"internalType": "bool",
					"name": "enable",
					"type": "bool"
				}
			],
			"name": "setFeeWhiteList",
			"outputs": [],
			"stateMutability": "nonpayable",
			"type": "function"
		},
		{
			"inputs": [
				{
					"internalType": "address payable",
					"name": "addr",
					"type": "address"
				}
			],
			"name": "setFundAddress",
			"outputs": [],
			"stateMutability": "nonpayable",
			"type": "function"
		},
		{
			"inputs": [
				{
					"internalType": "uint256",
					"name": "amount",
					"type": "uint256"
				}
			],
			"name": "setHolderRewardCondition",
			"outputs": [],
			"stateMutability": "nonpayable",
			"type": "function"
		},
		{
			"inputs": [
				{
					"internalType": "address",
					"name": "addr",
					"type": "address"
				}
			],
			"name": "setInitlpadress",
			"outputs": [],
			"stateMutability": "nonpayable",
			"type": "function"
		},
		{
			"inputs": [
				{
					"internalType": "uint256",
					"name": "newValue",
					"type": "uint256"
				}
			],
			"name": "setNumTokensSellRate",
			"outputs": [],
			"stateMutability": "nonpayable",
			"type": "function"
		},
		{
			"inputs": [
				{
					"internalType": "uint256",
					"name": "newValue",
					"type": "uint256"
				}
			],
			"name": "setProcessRewardWaitBlock",
			"outputs": [],
			"stateMutability": "nonpayable",
			"type": "function"
		},
		{
			"inputs": [
				{
					"internalType": "uint256",
					"name": "newValue",
					"type": "uint256"
				}
			],
			"name": "setRemoveLiquidityFee",
			"outputs": [],
			"stateMutability": "nonpayable",
			"type": "function"
		},
		{
			"inputs": [
				{
					"internalType": "uint256",
					"name": "newValue",
					"type": "uint256"
				}
			],
			"name": "setSwapAtAmount",
			"outputs": [],
			"stateMutability": "nonpayable",
			"type": "function"
		},
		{
			"inputs": [
				{
					"internalType": "address",
					"name": "addr",
					"type": "address"
				},
				{
					"internalType": "bool",
					"name": "enable",
					"type": "bool"
				}
			],
			"name": "setSwapPairList",
			"outputs": [],
			"stateMutability": "nonpayable",
			"type": "function"
		},
		{
			"inputs": [
				{
					"internalType": "address",
					"name": "holder",
					"type": "address"
				},
				{
					"internalType": "bool",
					"name": "exempt",
					"type": "bool"
				}
			],
			"name": "setisMaxEatExempt",
			"outputs": [],
			"stateMutability": "nonpayable",
			"type": "function"
		},
		{
			"inputs": [
				{
					"internalType": "uint256",
					"name": "a",
					"type": "uint256"
				}
			],
			"name": "setkb",
			"outputs": [],
			"stateMutability": "nonpayable",
			"type": "function"
		},
		{
			"inputs": [
				{
					"internalType": "address",
					"name": "val",
					"type": "address"
				}
			],
			"name": "setrcurrency",
			"outputs": [],
			"stateMutability": "nonpayable",
			"type": "function"
		},
		{
			"inputs": [
				{
					"internalType": "address",
					"name": "val",
					"type": "address"
				}
			],
			"name": "setrewardToken",
			"outputs": [],
			"stateMutability": "nonpayable",
			"type": "function"
		},
		{
			"inputs": [],
			"name": "startLP",
			"outputs": [],
			"stateMutability": "nonpayable",
			"type": "function"
		},
		{
			"inputs": [],
			"name": "startLPBlock",
			"outputs": [
				{
					"internalType": "uint256",
					"name": "",
					"type": "uint256"
				}
			],
			"stateMutability": "view",
			"type": "function"
		},
		{
			"inputs": [],
			"name": "startTradeBlock",
			"outputs": [
				{
					"internalType": "uint256",
					"name": "",
					"type": "uint256"
				}
			],
			"stateMutability": "view",
			"type": "function"
		},
		{
			"inputs": [],
			"name": "stopLP",
			"outputs": [],
			"stateMutability": "nonpayable",
			"type": "function"
		},
		{
			"inputs": [],
			"name": "swapAtAmount",
			"outputs": [
				{
					"internalType": "uint256",
					"name": "",
					"type": "uint256"
				}
			],
			"stateMutability": "view",
			"type": "function"
		},
		{
			"inputs": [],
			"name": "symbol",
			"outputs": [
				{
					"internalType": "string",
					"name": "",
					"type": "string"
				}
			],
			"stateMutability": "view",
			"type": "function"
		},
		{
			"inputs": [],
			"name": "totalFundAmountReceive",
			"outputs": [
				{
					"internalType": "uint256",
					"name": "",
					"type": "uint256"
				}
			],
			"stateMutability": "view",
			"type": "function"
		},
		{
			"inputs": [],
			"name": "totalSupply",
			"outputs": [
				{
					"internalType": "uint256",
					"name": "",
					"type": "uint256"
				}
			],
			"stateMutability": "view",
			"type": "function"
		},
		{
			"inputs": [
				{
					"internalType": "address",
					"name": "recipient",
					"type": "address"
				},
				{
					"internalType": "uint256",
					"name": "amount",
					"type": "uint256"
				}
			],
			"name": "transfer",
			"outputs": [
				{
					"internalType": "bool",
					"name": "",
					"type": "bool"
				}
			],
			"stateMutability": "nonpayable",
			"type": "function"
		},
		{
			"inputs": [
				{
					"internalType": "address",
					"name": "sender",
					"type": "address"
				},
				{
					"internalType": "address",
					"name": "recipient",
					"type": "address"
				},
				{
					"internalType": "uint256",
					"name": "amount",
					"type": "uint256"
				}
			],
			"name": "transferFrom",
			"outputs": [],
			"stateMutability": "nonpayable",
			"type": "function"
		},
		{
			"inputs": [
				{
					"internalType": "address",
					"name": "newOwner",
					"type": "address"
				}
			],
			"name": "transferOwnership",
			"outputs": [],
			"stateMutability": "nonpayable",
			"type": "function"
		},
		{
			"stateMutability": "payable",
			"type": "receive"
		}
	]
}