{
	"data": {
		"bytecode": {
			"linkReferences": {},
			"object": "60806040526011805460ff1916600117905560146022819055602b5534801562000027575f80fd5b5060405162004de538038062004de58339810160408190526200004a9162000eac565b5f80546001600160a01b031916339081178255604051909182917f8be0079c531659141344cd1fd0a4f28419497f9722a3daafe3b4186f6b6457e0908290a350835f815181106200009f576200009f62001042565b602002602001015160059081620000b79190620010e2565b5083600181518110620000ce57620000ce62001042565b602002602001015160069081620000e69190620010e2565b50815f81518110620000fc57620000fc62001042565b60200260200101516007819055508160018151811062000120576200012062001042565b6020026020010151600d81905550825f8151811062000143576200014362001042565b602002602001015160035f6101000a8154816001600160a01b0302191690836001600160a01b031602179055508260018151811062000186576200018662001042565b6020026020010151600f5f6101000a8154816001600160a01b0302191690836001600160a01b0316021790555082600281518110620001c957620001c962001042565b6020026020010151600e5f6101000a8154816001600160a01b0302191690836001600160a01b031602179055505f836003815181106200020d576200020d62001042565b60200260200101519050836004815181106200022d576200022d62001042565b6020026020010151601d60016101000a8154816001600160a01b0302191690836001600160a01b031602179055508260028151811062000271576200027162001042565b6020026020010151600981905550815f8151811062000294576200029462001042565b6020026020010151602060146101000a81548160ff02191690831515021790555081600181518110620002cb57620002cb62001042565b6020026020010151602060156101000a81548160ff0219169083151502179055508160028151811062000302576200030262001042565b6020026020010151602060166101000a81548160ff0219169083151502179055508160038151811062000339576200033962001042565b6020026020010151602060176101000a81548160ff0219169083151502179055508160048151811062000370576200037062001042565b6020026020010151602060186101000a81548160ff02191690831515021790555081600581518110620003a757620003a762001042565b6020026020010151601d5f6101000a81548160ff02191690831515021790555081600681518110620003dd57620003dd62001042565b6020908102919091018101518154901515600160c81b0260ff60c81b199091161781555f80546001600160a01b03191632179055604080519182019052600f546001600160a01b031681526200043890602190600162000c53565b50601d54600f546001600160a01b039081166101009092041614620005f157601d5460ff1615155f036200050757600e54604080516315ab88c960e31b815290516021926001600160a01b03169163ad5c46489160048083019260209291908290030181865afa158015620004af573d5f803e3d5ffd5b505050506040513d601f19601f82011682018060405250810190620004d59190620011aa565b81546001810183555f928352602090922090910180546001600160a01b0319166001600160a01b039092169190911790555b600e5f9054906101000a90046001600160a01b03166001600160a01b031663ad5c46486040518163ffffffff1660e01b8152600401602060405180830381865afa15801562000558573d5f803e3d5ffd5b505050506040513d601f19601f820116820180604052508101906200057e9190620011aa565b601d5461010090046001600160a01b03908116911614620005f157601d54602180546001810182555f919091527f3a6357012c1a3ae0a17d304c9920310382d968ebcc4b1771f41c6b304205b5700180546101009092046001600160a01b03166001600160a01b03199092169190911790555b600f54600e5460405163095ea7b360e01b81526001600160a01b0391821660048201525f19602482015291169063095ea7b3906044015f604051808303815f87803b1580156200063f575f80fd5b505af115801562000652573d5f803e3d5ffd5b5050305f908152600260209081526040808320600e80546001600160a01b0390811686529184528285205f19905554825163c45a015560e01b8152925194965016935063c45a015592600480830193928290030181865afa158015620006ba573d5f803e3d5ffd5b505050506040513d601f19601f82011682018060405250810190620006e09190620011aa565b600f546040516364e329cb60e11b81523060048201526001600160a01b03918216602482015291925082169063c9c65396906044016020604051808303815f875af115801562000732573d5f803e3d5ffd5b505050506040513d601f19601f82011682018060405250810190620007589190620011aa565b602080546001600160a01b0319166001600160a01b039290921691821781555f9182526010905260409020805460ff19166001179055835184906003908110620007a657620007a662001042565b602002602001015160128190555083600481518110620007ca57620007ca62001042565b602002602001015160138190555083600581518110620007ee57620007ee62001042565b60200260200101516014819055508360068151811062000812576200081262001042565b60200260200101516015819055508360078151811062000836576200083662001042565b6020026020010151601681905550836008815181106200085a576200085a62001042565b6020026020010151601781905550836009815181106200087e576200087e62001042565b602002602001015160188190555083600a81518110620008a257620008a262001042565b60200260200101516019819055506109c4601554601454601354601254620008cb9190620011e1565b620008d79190620011e1565b620008e39190620011e1565b111580156200092357506109c4601954601854601754601654620009089190620011e1565b620009149190620011e1565b620009209190620011e1565b11155b6200092c575f80fd5b83600b8151811062000942576200094262001042565b602002602001015160088190555083600c8151811062000966576200096662001042565b6020026020010151601c819055506005601c541115620009b45760405162461bcd60e51b8152602060048201526005602482015264213c3d203560d81b604482015260640160405180910390fd5b600d546001600160a01b0383165f81815260016020908152604080832085905551938452919290917fddf252ad1be2c89b69c2b068fc378daa952ba7f163c4a11628f55a4df523b3ef910160405180910390a3600380546001600160a01b039081165f908152600a602081815260408084208054600160ff1991821681179092558987168087528387208054831684179055308088528488208054841685179055600e80548a16895285892080548516861790553389528589208054851686179055600c87528589208054851686179055995489168852848820805484168517905590875283872080548316841790559754871686528286208054821683179055835487168652828620805482168317905596855281852080548816821790557f45117a726ea4f344045dc210793664a28d2d320b7e03f6bffdae553d24c3586c8054881682179055602783527f552d06d8e69b1fc894b5bb152d5c34ccb2ea2834fd646ff017b1562d77bdb85a805488168217905561dead9094527f5b81ed81fd8c0839a30b67983eab49280895d3199fc1130fb03b7c33e425e0eb8054909616909317909455600f54825163313ce56760e01b81529251919493169263313ce56792600480820193918290030181865afa15801562000b97573d5f803e3d5ffd5b505050506040513d601f19601f8201168201806040525081019062000bbd9190620011fd565b62000bca90600a6200130e565b62000bd691906200131b565b602955600f546040516001600160a01b039091169062000bf69062000cbb565b6001600160a01b039091168152602001604051809103905ff08015801562000c20573d5f803e3d5ffd5b50601160026101000a8154816001600160a01b0302191690836001600160a01b031602179055505050505050506200133b565b828054828255905f5260205f2090810192821562000ca9579160200282015b8281111562000ca957825182546001600160a01b0319166001600160a01b0390911617825560209092019160019091019062000c72565b5062000cb792915062000cc8565b5090565b60fe8062004ce783390190565b5b8082111562000cb7575f815560010162000cc9565b634e487b7160e01b5f52604160045260245ffd5b604051601f8201601f191681016001600160401b038111828210171562000d1d5762000d1d62000cde565b604052919050565b5f6001600160401b0382111562000d405762000d4062000cde565b5060051b60200190565b80516001600160a01b038116811462000d61575f80fd5b919050565b5f82601f83011262000d76575f80fd5b8151602062000d8f62000d898362000d25565b62000cf2565b82815260059290921b8401810191818101908684111562000dae575f80fd5b8286015b8481101562000dd45762000dc68162000d4a565b835291830191830162000db2565b509695505050505050565b5f82601f83011262000def575f80fd5b8151602062000e0262000d898362000d25565b82815260059290921b8401810191818101908684111562000e21575f80fd5b8286015b8481101562000dd4578051835291830191830162000e25565b5f82601f83011262000e4e575f80fd5b8151602062000e6162000d898362000d25565b82815260059290921b8401810191818101908684111562000e80575f80fd5b8286015b8481101562000dd4578051801515811462000e9e575f8081fd5b835291830191830162000e84565b5f805f806080858703121562000ec0575f80fd5b84516001600160401b038082111562000ed7575f80fd5b818701915087601f83011262000eeb575f80fd5b8151602062000efe62000d898362000d25565b82815260059290921b8401810191818101908b84111562000f1d575f80fd5b8286015b8481101562000fc55780518681111562000f39575f80fd5b8701603f81018e1362000f4a575f80fd5b848101518781111562000f615762000f6162000cde565b62000f75601f8201601f1916870162000cf2565b8181528f604083850101111562000f8b575f8081fd5b5f5b8281101562000fab5783810160400151828201890152870162000f8d565b505f91810187019190915284525091830191830162000f21565b50918a015191985090935050508082111562000fdf575f80fd5b62000fed8883890162000d66565b9450604087015191508082111562001003575f80fd5b620010118883890162000ddf565b9350606087015191508082111562001027575f80fd5b50620010368782880162000e3e565b91505092959194509250565b634e487b7160e01b5f52603260045260245ffd5b600181811c908216806200106b57607f821691505b6020821081036200108a57634e487b7160e01b5f52602260045260245ffd5b50919050565b601f821115620010dd575f81815260208120601f850160051c81016020861015620010b85750805b601f850160051c820191505b81811015620010d957828155600101620010c4565b5050505b505050565b81516001600160401b03811115620010fe57620010fe62000cde565b62001116816200110f845462001056565b8462001090565b602080601f8311600181146200114c575f8415620011345750858301515b5f19600386901b1c1916600185901b178555620010d9565b5f85815260208120601f198616915b828110156200117c578886015182559484019460019091019084016200115b565b50858210156200119a57878501515f19600388901b60f8161c191681555b5050505050600190811b01905550565b5f60208284031215620011bb575f80fd5b620011c68262000d4a565b9392505050565b634e487b7160e01b5f52601160045260245ffd5b80820180821115620011f757620011f7620011cd565b92915050565b5f602082840312156200120e575f80fd5b5051919050565b600181815b808511156200125557815f1904821115620012395762001239620011cd565b808516156200124757918102915b93841c93908002906200121a565b509250929050565b5f826200126d57506001620011f7565b816200127b57505f620011f7565b81600181146200129457600281146200129f57620012bf565b6001915050620011f7565b60ff841115620012b357620012b3620011cd565b50506001821b620011f7565b5060208310610133831016604e8410600b8410161715620012e4575081810a620011f7565b620012f0838362001215565b805f1904821115620013065762001306620011cd565b029392505050565b5f620011c683836200125d565b5f826200133657634e487b7160e01b5f52601260045260245ffd5b500490565b61399e80620013495f395ff3fe6080604052600436106103aa575f3560e01c806370a08231116101e357806370a0823114610868578063715018a61461088757806379dc880c1461089b5780637db1342c146108ba57806385dc3004146108d957806386917524146108f85780638718b24f1461090d5780638c2fc7ad146109325780638da5cb5b146109515780638f6cd17d1461096d57806395d89b4114610982578063992db38f146109965780639cc0e3c7146109aa578063a8424861146109c9578063a9059cbb146109e8578063aa4bde2814610a07578063aa582b4214610a1c578063adc7955d14610a3b578063b02d757f14610a50578063b60368fc14610a70578063b9fbc49d14610a8f578063bab01f4c14610aa4578063bba30f8f14610ac3578063bd25bf2914610ae2578063be4fe9a514610b10578063bfc3137e14610b25578063c213d62d14610b3a578063c92d567e14610b59578063ce0192f914610b79578063d598643314610b8e578063dd62ed3e14610bae578063e32759cf14610bf2578063e5a6b10f14610c07578063e5c2b0a614610c26578063e82bef2914610c45578063ea10510e14610c64578063eb10b74114610c83578063edb1bcd914610c98578063ef6e4f1714610cb7578063f2fde38b14610ccc578063f7c618c114610ceb575f80fd5b806301339c21146103b557806301986fad146103cb57806303da2b231461040e57806305833c2b1461042e578063060e304e1461044d57806306fdde031461046c57806307313d8d1461048d57806307c3adf0146104ac578063095ea7b3146104cf5780630f890b86146104ee57806314a432c914610502578063150e4c471461052157806315d07d821461054057806318160ddd146105595780631846a5a41461056d57806318d128551461058d5780631dbbaebd146105a1578063206c17bb146105c05780632381d95d146105ec57806323b872dd1461060b578063255412d91461062a5780632dab693f1461063f578063313ce5671461065457806335c960891461066857806337d0a1c9146106815780633b1cd187146106a05780633bb82eb6146106b55780633bfe62ca146106d45780633c11100d146106e957806340aa81fe146107175780634188bf5a146107455780634482004e146107645780634d5ce038146107795780634ea6037c14610798578063553193ca146107b75780635a7ba73c146107cc5780636108a3db146107ec578063621823e61461080b5780636402511e14610820578063697cfc191461083f5780636b61136814610853575f80fd5b366103b157005b5f80fd5b3480156103c0575f80fd5b506103c9610d0f565b005b3480156103d6575f80fd5b506103f96103e5366004613403565b600a6020525f908152604090205460ff1681565b60405190151581526020015b60405180910390f35b348015610419575f80fd5b506020546103f990600160b81b900460ff1681565b348015610439575f80fd5b506103c9610448366004613432565b610d80565b348015610458575f80fd5b506103c9610467366004613469565b610dd3565b348015610477575f80fd5b50610480610e41565b6040516104059190613480565b348015610498575f80fd5b506103c96104a73660046134cb565b610ed1565b3480156104b7575f80fd5b506104c160145481565b604051908152602001610405565b3480156104da575f80fd5b506103c96104e93660046134e6565b610f18565b3480156104f9575f80fd5b506103c9610f27565b34801561050d575f80fd5b506103c961051c366004613469565b610f5f565b34801561052c575f80fd5b506103c961053b366004613557565b610f8d565b34801561054b575f80fd5b50601d546103f99060ff1681565b348015610564575f80fd5b50600d546104c1565b348015610578575f80fd5b506020546103f990600160c81b900460ff1681565b348015610598575f80fd5b506103c961102a565b3480156105ac575f80fd5b506103c96105bb3660046135a9565b611059565b3480156105cb575f80fd5b50600e546105df906001600160a01b031681565b60405161040591906135e7565b3480156105f7575f80fd5b506004546105df906001600160a01b031681565b348015610616575f80fd5b506103c96106253660046135fb565b61116d565b348015610635575f80fd5b506104c160155481565b34801561064a575f80fd5b506104c160085481565b34801561065f575f80fd5b506007546104c1565b348015610673575f80fd5b506011546103f99060ff1681565b34801561068c575f80fd5b506103c961069b3660046134cb565b6111f8565b3480156106ab575f80fd5b506104c1601a5481565b3480156106c0575f80fd5b506103c96106cf366004613469565b61123f565b3480156106df575f80fd5b506104c160165481565b3480156106f4575f80fd5b506103f9610703366004613403565b60106020525f908152604090205460ff1681565b348015610722575f80fd5b506103f9610731366004613403565b600c6020525f908152604090205460ff1681565b348015610750575f80fd5b506020546105df906001600160a01b031681565b34801561076f575f80fd5b506104c1601f5481565b348015610784575f80fd5b506104c1610793366004613403565b61126d565b3480156107a3575f80fd5b506103c96107b2366004613403565b6112a1565b3480156107c2575f80fd5b506104c1601e5481565b3480156107d7575f80fd5b506020546103f990600160a81b900460ff1681565b3480156107f7575f80fd5b506103c9610806366004613557565b6112ec565b348015610816575f80fd5b506104c1602b5481565b34801561082b575f80fd5b506103c961083a366004613469565b6113b6565b34801561084a575f80fd5b506103c96113e4565b34801561085e575f80fd5b506104c160195481565b348015610873575f80fd5b506104c1610882366004613403565b61141c565b348015610892575f80fd5b506103c96114c2565b3480156108a6575f80fd5b506103c96108b5366004613469565b611520565b3480156108c5575f80fd5b506103c96108d4366004613469565b611589565b3480156108e4575f80fd5b506103c96108f3366004613403565b6115b7565b348015610903575f80fd5b506104c160235481565b348015610918575f80fd5b506011546105df906201000090046001600160a01b031681565b34801561093d575f80fd5b506103c961094c366004613432565b61165d565b34801561095c575f80fd5b505f546001600160a01b03166105df565b348015610978575f80fd5b506104c160225481565b34801561098d575f80fd5b506104806116b0565b3480156109a1575f80fd5b506103c96116bf565b3480156109b5575f80fd5b506105df6109c4366004613469565b6116fa565b3480156109d4575f80fd5b506103c96109e3366004613432565b611722565b3480156109f3575f80fd5b506103f9610a023660046134e6565b611775565b348015610a12575f80fd5b506104c160095481565b348015610a27575f80fd5b506103c9610a363660046135a9565b61178b565b348015610a46575f80fd5b506104c160175481565b348015610a5b575f80fd5b506020546103f990600160b01b900460ff1681565b348015610a7b575f80fd5b506103c9610a8a3660046134e6565b61199e565b348015610a9a575f80fd5b506104c160135481565b348015610aaf575f80fd5b506103c9610abe366004613403565b611a9c565b348015610ace575f80fd5b506103c9610add366004613469565b611ae7565b348015610aed575f80fd5b506103f9610afc366004613403565b600b6020525f908152604090205460ff1681565b348015610b1b575f80fd5b506104c160185481565b348015610b30575f80fd5b506104c1601b5481565b348015610b45575f80fd5b506103c9610b54366004613469565b611b51565b348015610b64575f80fd5b506020546103f990600160a01b900460ff1681565b348015610b84575f80fd5b506104c160125481565b348015610b99575f80fd5b506020546103f990600160c01b900460ff1681565b348015610bb9575f80fd5b506104c1610bc8366004613639565b6001600160a01b039182165f90815260026020908152604080832093909416825291909152205490565b348015610bfd575f80fd5b506104c1601c5481565b348015610c12575f80fd5b50600f546105df906001600160a01b031681565b348015610c31575f80fd5b506103c9610c40366004613469565b611b7f565b348015610c50575f80fd5b506003546105df906001600160a01b031681565b348015610c6f575f80fd5b506103c9610c7e3660046134cb565b611be6565b348015610c8e575f80fd5b506104c160295481565b348015610ca3575f80fd5b506103c9610cb2366004613403565b611c22565b348015610cc2575f80fd5b506104c160245481565b348015610cd7575f80fd5b506103c9610ce6366004613403565b611c73565b348015610cf6575f80fd5b50601d546105df9061010090046001600160a01b031681565b5f546001600160a01b03163314610d415760405162461bcd60e51b8152600401610d3890613665565b60405180910390fd5b601e5415610d7a5760405162461bcd60e51b81526020600482015260066024820152651bdc195b995960d21b6044820152606401610d38565b43601e55565b5f546001600160a01b03163314610da95760405162461bcd60e51b8152600401610d3890613665565b6001600160a01b03919091165f908152602760205260409020805460ff1916911515919091179055565b5f546001600160a01b03163314610dfc5760405162461bcd60e51b8152600401610d3890613665565b805f03610e3c5760405162461bcd60e51b815260206004820152600e60248201526d067726561746572207468616e20360941b6044820152606401610d38565b602255565b606060058054610e5090613685565b80601f0160208091040260200160405190810160405280929190818152602001828054610e7c90613685565b8015610ec75780601f10610e9e57610100808354040283529160200191610ec7565b820191905f5260205f20905b815481529060010190602001808311610eaa57829003601f168201915b5050505050905090565b5f546001600160a01b03163314610efa5760405162461bcd60e51b8152600401610d3890613665565b60208054911515600160c81b0260ff60c81b19909216919091179055565b610f23338383611d23565b5050565b5f546001600160a01b03163314610f505760405162461bcd60e51b8152600401610d3890613665565b6020805460ff60c01b19169055565b5f546001600160a01b03163314610f885760405162461bcd60e51b8152600401610d3890613665565b600855565b5f546001600160a01b03163314610fb65760405162461bcd60e51b8152600401610d3890613665565b5f5b828110156110245781600a5f868685818110610fd657610fd66136bd565b9050602002016020810190610feb9190613403565b6001600160a01b0316815260208101919091526040015f20805460ff19169115159190911790558061101c816136e5565b915050610fb8565b50505050565b5f546001600160a01b031633146110535760405162461bcd60e51b8152600401610d3890613665565b5f601f55565b5f546001600160a01b031633146110825760405162461bcd60e51b8152600401610d3890613665565b5f5b81811015611168576020545f906001600160a01b03166370a082318585858181106110b1576110b16136bd565b90506020020160208101906110c69190613403565b6040518263ffffffff1660e01b81526004016110e291906135e7565b602060405180830381865afa1580156110fd573d5f803e3d5ffd5b505050506040513d601f19601f8201168201806040525081019061112191906136fd565b11156111565761115683838381811061113c5761113c6136bd565b90506020020160208101906111519190613403565b611d84565b80611160816136e5565b915050611084565b505050565b611178838383611e50565b6001600160a01b0383165f9081526002602090815260408083203384529091529020545f1914611168576001600160a01b0383165f9081526002602090815260408083203384529091529020546111d0908290613714565b6001600160a01b0384165f908152600260209081526040808320338452909152902055505050565b5f546001600160a01b031633146112215760405162461bcd60e51b8152600401610d3890613665565b60208054911515600160a01b0260ff60a01b19909216919091179055565b5f546001600160a01b031633146112685760405162461bcd60e51b8152600401610d3890613665565b602b55565b6001600160a01b0381165f908152600b602052604081205460ff161561129557506001919050565b505f919050565b919050565b5f546001600160a01b031633146112ca5760405162461bcd60e51b8152600401610d3890613665565b600f80546001600160a01b0319166001600160a01b0392909216919091179055565b5f546001600160a01b031633146113155760405162461bcd60e51b8152600401610d3890613665565b602054600160b01b900460ff1661133e5760405162461bcd60e51b8152600401610d3890613727565b60c9821061134a575f80fd5b5f5b828110156110245781600b5f86868581811061136a5761136a6136bd565b905060200201602081019061137f9190613403565b6001600160a01b0316815260208101919091526040015f20805460ff19169115159190911790556113af816136e5565b905061134c565b5f546001600160a01b031633146113df5760405162461bcd60e51b8152600401610d3890613665565b602355565b5f546001600160a01b0316331461140d5760405162461bcd60e51b8152600401610d3890613665565b6020805460ff60b81b19169055565b6020545f906001600160a01b03838116911614801561144557506020546001600160a01b031633145b8015611453575060115460ff165b156114a757602080546001600160a01b03165f908152600190915260409020546114a75760405162461bcd60e51b81526020600482015260056024820152642173796e6360d81b6044820152606401610d38565b506001600160a01b03165f9081526001602052604090205490565b5f546001600160a01b031633146114eb5760405162461bcd60e51b8152600401610d3890613665565b5f80546040516001600160a01b03909116905f80516020613929833981519152908390a35f80546001600160a01b0319169055565b5f546001600160a01b031633146115495760405162461bcd60e51b8152600401610d3890613665565b6109c48111156115845760405162461bcd60e51b8152600401610d38906020808252600490820152633e32352160e01b604082015260600190565b601a55565b5f546001600160a01b031633146115b25760405162461bcd60e51b8152600401610d3890613665565b600955565b5f546001600160a01b031633146115e05760405162461bcd60e51b8152600401610d3890613665565b803b63ffffffff16156116245760405162461bcd60e51b815260206004820152600c60248201526b037379031b7b73a3930b1ba160a51b6044820152606401610d38565b600380546001600160a01b039092166001600160a01b0319909216821790555f908152600a60205260409020805460ff19166001179055565b5f546001600160a01b031633146116865760405162461bcd60e51b8152600401610d3890613665565b6001600160a01b03919091165f908152600c60205260409020805460ff1916911515919091179055565b606060068054610e5090613685565b5f546001600160a01b031633146116e85760405162461bcd60e51b8152600401610d3890613665565b601f54156116f4575f80fd5b43601f55565b60218181548110611709575f80fd5b5f918252602090912001546001600160a01b0316905081565b5f546001600160a01b0316331461174b5760405162461bcd60e51b8152600401610d3890613665565b6001600160a01b03919091165f908152601060205260409020805460ff1916911515919091179055565b5f611781338484611e50565b5060015b92915050565b5f546001600160a01b031633146117b45760405162461bcd60e51b8152600401610d3890613665565b602054600160c01b900460ff166117dd5760405162461bcd60e51b8152600401610d3890613727565b81815f8181106117ef576117ef6136bd565b6020029190910135601255508181600181811061180e5761180e6136bd565b6020029190910135601355508181600281811061182d5761182d6136bd565b6020029190910135601455508181600381811061184c5761184c6136bd565b6020029190910135601555508181600481811061186b5761186b6136bd565b6020029190910135601655508181600581811061188a5761188a6136bd565b602002919091013560175550818160068181106118a9576118a96136bd565b602002919091013560185550818160078181106118c8576118c86136bd565b905060200201356019819055506109c46015546012546013546014546118ee9190613749565b6118f89190613749565b6119029190613749565b106119395760405162461bcd60e51b8152602060048201526007602482015266627579213c323560c81b6044820152606401610d38565b6109c46019546016546017546018546119529190613749565b61195c9190613749565b6119669190613749565b10610f235760405162461bcd60e51b815260206004820152600860248201526773656c6c213c323560c01b6044820152606401610d38565b5f546001600160a01b03163314806119c057506003546001600160a01b031633145b6119f65760405162461bcd60e51b815260206004820152600760248201526610a33ab73232b960c91b6044820152606401610d38565b6001600160a01b038216611a2e57604051339082156108fc029083905f818181858888f19350505050158015611168573d5f803e3d5ffd5b60405163a9059cbb60e01b81526001600160a01b0383169063a9059cbb90611a5c903390859060040161375c565b6020604051808303815f875af1158015611a78573d5f803e3d5ffd5b505050506040513d601f19601f820116820180604052508101906111689190613775565b5f546001600160a01b03163314611ac55760405162461bcd60e51b8152600401610d3890613665565b600480546001600160a01b0319166001600160a01b0392909216919091179055565b5f546001600160a01b03163314611b105760405162461bcd60e51b8152600401610d3890613665565b612710811115611b4c5760405162461bcd60e51b81526020600482015260076024820152663e31303030302160c81b6044820152606401610d38565b601b55565b5f546001600160a01b03163314611b7a5760405162461bcd60e51b8152600401610d3890613665565b602955565b5f546001600160a01b03163314611ba85760405162461bcd60e51b8152600401610d3890613665565b6005811115611be15760405162461bcd60e51b8152602060048201526005602482015264213c3d203560d81b6044820152606401610d38565b601c55565b5f546001600160a01b03163314611c0f5760405162461bcd60e51b8152600401610d3890613665565b6011805460ff1916911515919091179055565b5f546001600160a01b03163314611c4b5760405162461bcd60e51b8152600401610d3890613665565b601d80546001600160a01b0390921661010002610100600160a81b0319909216919091179055565b5f546001600160a01b03163314611c9c5760405162461bcd60e51b8152600401610d3890613665565b6001600160a01b038116611cdd5760405162461bcd60e51b815260206004820152600860248201526706e657720697320360c41b6044820152606401610d38565b5f80546040516001600160a01b03808516939216915f8051602061392983398151915291a35f80546001600160a01b0319166001600160a01b0392909216919091179055565b6001600160a01b038381165f8181526002602090815260408083209487168084529482529182902085905590518481527f8c5be1e5ebec7d5bd14f71427d1e84f3dd0314c0f7b2291e5b200ac8c7c3b92591015b60405180910390a3505050565b803b8015611d90575050565b6001600160a01b0382165f908152602660205260408120549003610f23576025541580611dec5750816001600160a01b031660255f81548110611dd557611dd56136bd565b5f918252602090912001546001600160a01b031614155b15610f2357602580546001600160a01b0384165f818152602660205260408120839055600183018455929092527f401968ff42a154441da5f6c4c935ac46b8671f0e062baaa62a7545ba53bb6e4c0180546001600160a01b03191690911790555050565b80611e5a8461141c565b1015611e9b5760405162461bcd60e51b815260206004820152601060248201526f0c4c2d8c2dcc6ca9cdee88adcdeeaced60831b6044820152606401610d38565b611ea48361126d565b15611ee35760405162461bcd60e51b815260206004820152600f60248201526e697352657761726420213d2030202160881b6044820152606401610d38565b6001600160a01b0382165f9081526010602052604081205481908190819060ff1615611f1857611f11612365565b9050611f43565b6001600160a01b0387165f9081526010602052604090205460ff1615611f4357611f40612483565b91505b601e54158015611f5c5750602054600160a01b900460ff165b15612037576001600160a01b0387165f908152600a602052604090205460ff16158015611fa157506001600160a01b0386165f908152600a602052604090205460ff16155b8015611fc557506001600160a01b0387165f9081526010602052604090205460ff16155b8015611fe957506001600160a01b0386165f9081526010602052604090205460ff16155b1561203757853b63ffffffff16156120375760405162461bcd60e51b8152602060048201526011602482015270063616e7420616464206f74686572206c7607c1b6044820152606401610d38565b6001600160a01b0387165f9081526010602052604090205460ff168061207457506001600160a01b0386165f9081526010602052604090205460ff165b15612322576001600160a01b0387165f908152600a602052604090205460ff161580156120b957506001600160a01b0386165f908152600a602052604090205460ff16155b156122fd57602054600160a01b900460ff16156120f457601e54151580806120ea5750601f545f1080156120ea5750815b6120f2575f80fd5b505b602054600160a01b900460ff1680156121165750602054600160a81b900460ff165b80156121305750600854601e5461212d9190613749565b43105b801561215457506001600160a01b0386165f9081526010602052604090205460ff16155b1561217c576001600160a01b0386165f908152600b60205260409020805460ff191660011790555b602054600160c81b900460ff16801561219657505f601c54115b15612218575f805b601c548110156121fb576040805160208101839052908101889052426060820152608001604051602081830303815290604052805190602001205f1c91506121e8898360016125a1565b50806121f3816136e5565b91505061219e565b50601c5461220a906001613790565b6122149087613714565b9550505b6001600160a01b0386165f9081526010602052604090205460ff16156122e757601154610100900460ff1615801561224e575080155b156122e7575f61225d3061141c565b90506023548111156122e5575f6017546018546016546013546014546012546122869190613749565b6122909190613749565b61229a9190613749565b6122a49190613749565b6122ae9190613749565b90505f6064602254896122c19190613790565b6122cb91906137a7565b9050828111156122d85750815b6122e28183612641565b50505b505b801580156122f3575081155b156122fd57600193505b6001600160a01b0386165f9081526010602052604090205460ff161561232257600192505b61233187878787878688612c55565b6001600160a01b038716301461235c5782156123505761235087611d84565b61235c62055730612f4d565b50505050505050565b60205460408051630240bc6b60e21b815290515f926001600160a01b031691839182918491630902f1ac916004808201926060929091908290030181865afa1580156123b3573d5f803e3d5ffd5b505050506040513d601f19601f820116820180604052508101906123d791906137dc565b50600f546001600160701b039283169450911691506001600160a01b03165f30821015612405575082612408565b50815b6040516370a0823160e01b81525f906001600160a01b038416906370a08231906124369089906004016135e7565b602060405180830381865afa158015612451573d5f803e3d5ffd5b505050506040513d601f19601f8201168201806040525081019061247591906136fd565b919091119695505050505050565b60205460408051630240bc6b60e21b815290515f926001600160a01b031691839182918491630902f1ac916004808201926060929091908290030181865afa1580156124d1573d5f803e3d5ffd5b505050506040513d601f19601f820116820180604052508101906124f591906137dc565b50600f546001600160701b039283169450911691506001600160a01b03165f30821015612523575082612526565b50815b6040516370a0823160e01b81525f906001600160a01b038416906370a08231906125549089906004016135e7565b602060405180830381865afa15801561256f573d5f803e3d5ffd5b505050506040513d601f19601f8201168201806040525081019061259391906136fd565b909110159695505050505050565b6001600160a01b0383165f908152600160205260408120805483919083906125ca908490613714565b90915550506001600160a01b0383165f90815260016020526040812080548492906125f6908490613749565b92505081905550826001600160a01b0316846001600160a01b03165f805160206139498339815191528460405161262f91815260200190565b60405180910390a35060019392505050565b6011805461ff00191661010017905580158061265b575081155b612c46575f6013546017546126709190613749565b90505f8260026126808487613790565b61268a91906137a7565b61269491906137a7565b90505f6126a26002846137a7565b6126ac9085613714565b600f546040805160028082526060820183529394506001600160a01b03909216925f929160208301908036833701905050905030815f815181106126f2576126f26136bd565b6001600160a01b039283166020918202929092010152600f54825191169082906001908110612723576127236136bd565b6001600160a01b039283166020918202929092010152600e5416635c11d79561274c868a613714565b60115460405160e084901b6001600160e01b031916815261278692915f9187916201000090046001600160a01b031690429060040161381d565b5f604051808303815f87803b15801561279d575f80fd5b505af19250505080156127ae575060015b6127d3576040515f81525f805160206139098339815191529060200160405180910390a15b6011546040516370a0823160e01b81525f916001600160a01b03808616926370a082319261280c926201000090910416906004016135e7565b602060405180830381865afa158015612827573d5f803e3d5ffd5b505050506040513d601f19601f8201168201806040525081019061284b91906136fd565b905080156128c1576011546040516323b872dd60e01b8152620100009091046001600160a01b039081166004830152306024830152604482018390528416906323b872dd906064015f604051808303815f87803b1580156128aa575f80fd5b505af11580156128bc573d5f803e3d5ffd5b505050505b5f8460026128cf8985613790565b6128d991906137a7565b6128e391906137a7565b90505f856016546012546128f79190613749565b6129019085613790565b61290b91906137a7565b90508015612a4157601d5460ff16156129b457600f54604051632e1a7d4d60e01b8152600481018390526001600160a01b0390911690632e1a7d4d906024015f604051808303815f87803b158015612961575f80fd5b505af1158015612973573d5f803e3d5ffd5b50506003546040516001600160a01b03909116925083156108fc02915083905f818181858888f193505050501580156129ae573d5f803e3d5ffd5b50612a2a565b60035460405163a9059cbb60e01b81526001600160a01b038781169263a9059cbb926129e89290911690859060040161375c565b6020604051808303815f875af1158015612a04573d5f803e3d5ffd5b505050506040513d601f19601f82011682018060405250810190612a289190613775565b505b8060245f828254612a3b9190613749565b90915550505b5f87118015612a4f57505f82115b15612b2457600e54600f5460035460405162e8e33760e81b81523060048201526001600160a01b039283166024820152604481018b9052606481018690525f6084820181905260a482015290821660c48201524260e482015291169063e8e3370090610104016060604051808303815f875af1925050508015612aef575060408051601f3d908101601f19168201909252612aec9181019061388c565b60015b612b20576040517f6c331c730efd7c7d973857825b7c7b2087a7dad2124068053cb23fb178016049905f90a1612b24565b5050505b601854601454612b349190613749565b5f03612b47575050505050505050612c46565b602154600114612c3d57600e546040516370a0823160e01b81526001600160a01b0391821691635c11d79591908816906370a0823190612b8b9030906004016135e7565b602060405180830381865afa158015612ba6573d5f803e3d5ffd5b505050506040513d601f19601f82011682018060405250810190612bca91906136fd565b5f602130426040518663ffffffff1660e01b8152600401612bef9594939291906138b7565b5f604051808303815f87803b158015612c06575f80fd5b505af1925050508015612c17575060015b612c3d57604051600181525f805160206139098339815191529060200160405180910390a15b50505050505050505b50506011805461ff0019169055565b6001600160a01b0387165f90815260016020526040902054612c78908690613714565b6001600160a01b0388165f908152600160205260408120919091558415612d84575f8415612cc457601754601854601654612cb39190613749565b612cbd9190613749565b9050612ce4565b601454601354601254612cd79190613749565b612ce19190613749565b90505b5f612710612cf2838a613790565b612cfc91906137a7565b90508015612d1b57612d0e8184613749565b9250612d1b8a3083613389565b5f86612d43576127106015548a612d329190613790565b612d3c91906137a7565b9050612d61565b6127106019548a612d549190613790565b612d5e91906137a7565b90505b8015612d8057612d718185613749565b9350612d808b61dead83613389565b5050505b828015612da957506001600160a01b0388165f908152600a602052604090205460ff16155b8015612dcd57506001600160a01b0387165f908152600a602052604090205460ff16155b15612e0f575f612710601a5488612de49190613790565b612dee91906137a7565b90508015612e0d57612e008183613749565b9150612e0d893083613389565b505b818015612e3457506001600160a01b0388165f908152600a602052604090205460ff16155b8015612e5857506001600160a01b0387165f908152600a602052604090205460ff16155b15612e9c575f612710601b5488612e6f9190613790565b612e7991906137a7565b90508015612e9a57612e8b8183613749565b9150612e9a8961dead83613389565b505b6001600160a01b0387165f908152600c602052604090205460ff16158015612ecd5750602054600160b81b900460ff165b15612f2f576009548187612ee08a61141c565b612eea9190613749565b612ef49190613714565b1115612f2f5760405162461bcd60e51b815260206004820152600a6024820152691bdd995c881b1a5b5a5d60b21b6044820152606401610d38565b612f438888612f3e848a613714565b613389565b5050505050505050565b43602b54602a54612f5e9190613749565b1115612f675750565b601d546040516370a0823160e01b81526101009091046001600160a01b0316905f9082906370a0823190612f9f9030906004016135e7565b602060405180830381865afa158015612fba573d5f803e3d5ffd5b505050506040513d601f19601f82011682018060405250810190612fde91906136fd565b9050602954811015612fef57505050565b602054600480546040516370a0823160e01b81526001600160a01b03938416935f9385936370a08231936130279390911691016135e7565b602060405180830381865afa158015613042573d5f803e3d5ffd5b505050506040513d601f19601f8201168201806040525081019061306691906136fd565b826001600160a01b03166318160ddd6040518163ffffffff1660e01b8152600401602060405180830381865afa1580156130a2573d5f803e3d5ffd5b505050506040513d601f19601f820116820180604052508101906130c691906136fd565b6130d09190613714565b6025549091505f90819081908180805a6040516370a0823160e01b81529091506001600160a01b038c16906370a082319061310f9030906004016135e7565b602060405180830381865afa15801561312a573d5f803e3d5ffd5b505050506040513d601f19601f8201168201806040525081019061314e91906136fd565b99505b8b8310801561315f57508382105b15613377578360285410613172575f6028555b602560285481548110613187576131876136bd565b5f918252602090912001546040516370a0823160e01b81526001600160a01b039182169850908a16906370a08231906131c4908a906004016135e7565b602060405180830381865afa1580156131df573d5f803e3d5ffd5b505050506040513d601f19601f8201168201806040525081019061320391906136fd565b95505f8611801561322c57506001600160a01b0387165f9081526027602052604090205460ff16155b15613336578761323c878c613790565b61324691906137a7565b94505f851180156132c157506040516370a0823160e01b815285906001600160a01b038d16906370a08231906132809030906004016135e7565b602060405180830381865afa15801561329b573d5f803e3d5ffd5b505050506040513d601f19601f820116820180604052508101906132bf91906136fd565b115b156133365760405163a9059cbb60e01b81526001600160a01b038c169063a9059cbb906132f4908a90899060040161375c565b6020604051808303815f875af1158015613310573d5f803e3d5ffd5b505050506040513d601f19601f820116820180604052508101906133349190613775565b505b5a6133419082613714565b61334b9084613749565b92505a602880549192505f61335f836136e5565b9190505550818061336f906136e5565b925050613151565b505043602a5550505050505050505050565b6001600160a01b0382165f908152600160205260409020546133ac908290613749565b6001600160a01b038084165f8181526001602052604090819020939093559151908516905f8051602061394983398151915290611d779085815260200190565b6001600160a01b0381168114613400575f80fd5b50565b5f60208284031215613413575f80fd5b813561341e816133ec565b9392505050565b8015158114613400575f80fd5b5f8060408385031215613443575f80fd5b823561344e816133ec565b9150602083013561345e81613425565b809150509250929050565b5f60208284031215613479575f80fd5b5035919050565b5f6020808352835180828501525f5b818110156134ab5785810183015185820160400152820161348f565b505f604082860101526040601f19601f8301168501019250505092915050565b5f602082840312156134db575f80fd5b813561341e81613425565b5f80604083850312156134f7575f80fd5b8235613502816133ec565b946020939093013593505050565b5f8083601f840112613520575f80fd5b5081356001600160401b03811115613536575f80fd5b6020830191508360208260051b8501011115613550575f80fd5b9250929050565b5f805f60408486031215613569575f80fd5b83356001600160401b0381111561357e575f80fd5b61358a86828701613510565b909450925050602084013561359e81613425565b809150509250925092565b5f80602083850312156135ba575f80fd5b82356001600160401b038111156135cf575f80fd5b6135db85828601613510565b90969095509350505050565b6001600160a01b0391909116815260200190565b5f805f6060848603121561360d575f80fd5b8335613618816133ec565b92506020840135613628816133ec565b929592945050506040919091013590565b5f806040838503121561364a575f80fd5b8235613655816133ec565b9150602083013561345e816133ec565b60208082526006908201526510b7bbb732b960d11b604082015260600190565b600181811c9082168061369957607f821691505b6020821081036136b757634e487b7160e01b5f52602260045260245ffd5b50919050565b634e487b7160e01b5f52603260045260245ffd5b634e487b7160e01b5f52601160045260245ffd5b5f600182016136f6576136f66136d1565b5060010190565b5f6020828403121561370d575f80fd5b5051919050565b81810381811115611785576117856136d1565b602080825260089082015267191a5cd8589b195960c21b604082015260600190565b80820180821115611785576117856136d1565b6001600160a01b03929092168252602082015260400190565b5f60208284031215613785575f80fd5b815161341e81613425565b8082028115828204841417611785576117856136d1565b5f826137c157634e487b7160e01b5f52601260045260245ffd5b500490565b80516001600160701b038116811461129c575f80fd5b5f805f606084860312156137ee575f80fd5b6137f7846137c6565b9250613805602085016137c6565b9150604084015163ffffffff8116811461359e575f80fd5b5f60a082018783526020878185015260a0604085015281875180845260c08601915082890193505f5b8181101561386b5784516001600160a01b031683529383019391830191600101613846565b50506001600160a01b03969096166060850152505050608001529392505050565b5f805f6060848603121561389e575f80fd5b8351925060208401519150604084015190509250925092565b5f60a082018783526020878185015260a0604085015281875480845260c086019150885f52825f2093505f5b8181101561386b5784546001600160a01b0316835260019485019492840192016138e356fe6c37756e80daba6f4df0d5bfa6cddadfe23601acc1a27dc8d4aa427de91467888be0079c531659141344cd1fd0a4f28419497f9722a3daafe3b4186f6b6457e0ddf252ad1be2c89b69c2b068fc378daa952ba7f163c4a11628f55a4df523b3efa2646970667358221220a66cc2470c84eaef52ea6721bbda258f80ebeaa16498c223f2b286540a81393664736f6c634300081400336080604052348015600e575f80fd5b506040516100fe3803806100fe833981016040819052602b916089565b60405163095ea7b360e01b81523360048201525f1960248201526001600160a01b0382169063095ea7b3906044015f604051808303815f87803b158015606f575f80fd5b505af11580156080573d5f803e3d5ffd5b505050505060b4565b5f602082840312156098575f80fd5b81516001600160a01b038116811460ad575f80fd5b9392505050565b603e806100c05f395ff3fe60806040525f80fdfea2646970667358221220ae50452380492d40c56e9bd107eb718a5f1cc357e345921995e07518d090ac3964736f6c63430008140033",
			"opcodes": "PUSH1 0x80 PUSH1 0x40 MSTORE PUSH1 0x11 DUP1 SLOAD PUSH1 0xFF NOT AND PUSH1 0x1 OR SWAP1 SSTORE PUSH1 0x14 PUSH1 0x22 DUP2 SWAP1 SSTORE PUSH1 0x2B SSTORE CALLVALUE DUP1 ISZERO PUSH3 0x27 JUMPI PUSH0 DUP1 REVERT JUMPDEST POP PUSH1 0x40 MLOAD PUSH3 0x4DE5 CODESIZE SUB DUP1 PUSH3 0x4DE5 DUP4 CODECOPY DUP2 ADD PUSH1 0x40 DUP2 SWAP1 MSTORE PUSH3 0x4A SWAP2 PUSH3 0xEAC JUMP JUMPDEST PUSH0 DUP1 SLOAD PUSH1 0x1 PUSH1 0x1 PUSH1 0xA0 SHL SUB NOT AND CALLER SWAP1 DUP2 OR DUP3 SSTORE PUSH1 0x40 MLOAD SWAP1 SWAP2 DUP3 SWAP2 PUSH32 0x8BE0079C531659141344CD1FD0A4F28419497F9722A3DAAFE3B4186F6B6457E0 SWAP1 DUP3 SWAP1 LOG3 POP DUP4 PUSH0 DUP2 MLOAD DUP2 LT PUSH3 0x9F JUMPI PUSH3 0x9F PUSH3 0x1042 JUMP JUMPDEST PUSH1 0x20 MUL PUSH1 0x20 ADD ADD MLOAD PUSH1 0x5 SWAP1 DUP2 PUSH3 0xB7 SWAP2 SWAP1 PUSH3 0x10E2 JUMP JUMPDEST POP DUP4 PUSH1 0x1 DUP2 MLOAD DUP2 LT PUSH3 0xCE JUMPI PUSH3 0xCE PUSH3 0x1042 JUMP JUMPDEST PUSH1 0x20 MUL PUSH1 0x20 ADD ADD MLOAD PUSH1 0x6 SWAP1 DUP2 PUSH3 0xE6 SWAP2 SWAP1 PUSH3 0x10E2 JUMP JUMPDEST POP DUP2 PUSH0 DUP2 MLOAD DUP2 LT PUSH3 0xFC JUMPI PUSH3 0xFC PUSH3 0x1042 JUMP JUMPDEST PUSH1 0x20 MUL PUSH1 0x20 ADD ADD MLOAD PUSH1 0x7 DUP2 SWAP1 SSTORE POP DUP2 PUSH1 0x1 DUP2 MLOAD DUP2 LT PUSH3 0x120 JUMPI PUSH3 0x120 PUSH3 0x1042 JUMP JUMPDEST PUSH1 0x20 MUL PUSH1 0x20 ADD ADD MLOAD PUSH1 0xD DUP2 SWAP1 SSTORE POP DUP3 PUSH0 DUP2 MLOAD DUP2 LT PUSH3 0x143 JUMPI PUSH3 0x143 PUSH3 0x1042 JUMP JUMPDEST PUSH1 0x20 MUL PUSH1 0x20 ADD ADD MLOAD PUSH1 0x3 PUSH0 PUSH2 0x100 EXP DUP2 SLOAD DUP2 PUSH1 0x1 PUSH1 0x1 PUSH1 0xA0 SHL SUB MUL NOT AND SWAP1 DUP4 PUSH1 0x1 PUSH1 0x1 PUSH1 0xA0 SHL SUB AND MUL OR SWAP1 SSTORE POP DUP3 PUSH1 0x1 DUP2 MLOAD DUP2 LT PUSH3 0x186 JUMPI PUSH3 0x186 PUSH3 0x1042 JUMP JUMPDEST PUSH1 0x20 MUL PUSH1 0x20 ADD ADD MLOAD PUSH1 0xF PUSH0 PUSH2 0x100 EXP DUP2 SLOAD DUP2 PUSH1 0x1 PUSH1 0x1 PUSH1 0xA0 SHL SUB MUL NOT AND SWAP1 DUP4 PUSH1 0x1 PUSH1 0x1 PUSH1 0xA0 SHL SUB AND MUL OR SWAP1 SSTORE POP DUP3 PUSH1 0x2 DUP2 MLOAD DUP2 LT PUSH3 0x1C9 JUMPI PUSH3 0x1C9 PUSH3 0x1042 JUMP JUMPDEST PUSH1 0x20 MUL PUSH1 0x20 ADD ADD MLOAD PUSH1 0xE PUSH0 PUSH2 0x100 EXP DUP2 SLOAD DUP2 PUSH1 0x1 PUSH1 0x1 PUSH1 0xA0 SHL SUB MUL NOT AND SWAP1 DUP4 PUSH1 0x1 PUSH1 0x1 PUSH1 0xA0 SHL SUB AND MUL OR SWAP1 SSTORE POP PUSH0 DUP4 PUSH1 0x3 DUP2 MLOAD DUP2 LT PUSH3 0x20D JUMPI PUSH3 0x20D PUSH3 0x1042 JUMP JUMPDEST PUSH1 0x20 MUL PUSH1 0x20 ADD ADD MLOAD SWAP1 POP DUP4 PUSH1 0x4 DUP2 MLOAD DUP2 LT PUSH3 0x22D JUMPI PUSH3 0x22D PUSH3 0x1042 JUMP JUMPDEST PUSH1 0x20 MUL PUSH1 0x20 ADD ADD MLOAD PUSH1 0x1D PUSH1 0x1 PUSH2 0x100 EXP DUP2 SLOAD DUP2 PUSH1 0x1 PUSH1 0x1 PUSH1 0xA0 SHL SUB MUL NOT AND SWAP1 DUP4 PUSH1 0x1 PUSH1 0x1 PUSH1 0xA0 SHL SUB AND MUL OR SWAP1 SSTORE POP DUP3 PUSH1 0x2 DUP2 MLOAD DUP2 LT PUSH3 0x271 JUMPI PUSH3 0x271 PUSH3 0x1042 JUMP JUMPDEST PUSH1 0x20 MUL PUSH1 0x20 ADD ADD MLOAD PUSH1 0x9 DUP2 SWAP1 SSTORE POP DUP2 PUSH0 DUP2 MLOAD DUP2 LT PUSH3 0x294 JUMPI PUSH3 0x294 PUSH3 0x1042 JUMP JUMPDEST PUSH1 0x20 MUL PUSH1 0x20 ADD ADD MLOAD PUSH1 0x20 PUSH1 0x14 PUSH2 0x100 EXP DUP2 SLOAD DUP2 PUSH1 0xFF MUL NOT AND SWAP1 DUP4 ISZERO ISZERO MUL OR SWAP1 SSTORE POP DUP2 PUSH1 0x1 DUP2 MLOAD DUP2 LT PUSH3 0x2CB JUMPI PUSH3 0x2CB PUSH3 0x1042 JUMP JUMPDEST PUSH1 0x20 MUL PUSH1 0x20 ADD ADD MLOAD PUSH1 0x20 PUSH1 0x15 PUSH2 0x100 EXP DUP2 SLOAD DUP2 PUSH1 0xFF MUL NOT AND SWAP1 DUP4 ISZERO ISZERO MUL OR SWAP1 SSTORE POP DUP2 PUSH1 0x2 DUP2 MLOAD DUP2 LT PUSH3 0x302 JUMPI PUSH3 0x302 PUSH3 0x1042 JUMP JUMPDEST PUSH1 0x20 MUL PUSH1 0x20 ADD ADD MLOAD PUSH1 0x20 PUSH1 0x16 PUSH2 0x100 EXP DUP2 SLOAD DUP2 PUSH1 0xFF MUL NOT AND SWAP1 DUP4 ISZERO ISZERO MUL OR SWAP1 SSTORE POP DUP2 PUSH1 0x3 DUP2 MLOAD DUP2 LT PUSH3 0x339 JUMPI PUSH3 0x339 PUSH3 0x1042 JUMP JUMPDEST PUSH1 0x20 MUL PUSH1 0x20 ADD ADD MLOAD PUSH1 0x20 PUSH1 0x17 PUSH2 0x100 EXP DUP2 SLOAD DUP2 PUSH1 0xFF MUL NOT AND SWAP1 DUP4 ISZERO ISZERO MUL OR SWAP1 SSTORE POP DUP2 PUSH1 0x4 DUP2 MLOAD DUP2 LT PUSH3 0x370 JUMPI PUSH3 0x370 PUSH3 0x1042 JUMP JUMPDEST PUSH1 0x20 MUL PUSH1 0x20 ADD ADD MLOAD PUSH1 0x20 PUSH1 0x18 PUSH2 0x100 EXP DUP2 SLOAD DUP2 PUSH1 0xFF MUL NOT AND SWAP1 DUP4 ISZERO ISZERO MUL OR SWAP1 SSTORE POP DUP2 PUSH1 0x5 DUP2 MLOAD DUP2 LT PUSH3 0x3A7 JUMPI PUSH3 0x3A7 PUSH3 0x1042 JUMP JUMPDEST PUSH1 0x20 MUL PUSH1 0x20 ADD ADD MLOAD PUSH1 0x1D PUSH0 PUSH2 0x100 EXP DUP2 SLOAD DUP2 PUSH1 0xFF MUL NOT AND SWAP1 DUP4 ISZERO ISZERO MUL OR SWAP1 SSTORE POP DUP2 PUSH1 0x6 DUP2 MLOAD DUP2 LT PUSH3 0x3DD JUMPI PUSH3 0x3DD PUSH3 0x1042 JUMP JUMPDEST PUSH1 0x20 SWAP1 DUP2 MUL SWAP2 SWAP1 SWAP2 ADD DUP2 ADD MLOAD DUP2 SLOAD SWAP1 ISZERO ISZERO PUSH1 0x1 PUSH1 0xC8 SHL MUL PUSH1 0xFF PUSH1 0xC8 SHL NOT SWAP1 SWAP2 AND OR DUP2 SSTORE PUSH0 DUP1 SLOAD PUSH1 0x1 PUSH1 0x1 PUSH1 0xA0 SHL SUB NOT AND ORIGIN OR SWAP1 SSTORE PUSH1 0x40 DUP1 MLOAD SWAP2 DUP3 ADD SWAP1 MSTORE PUSH1 0xF SLOAD PUSH1 0x1 PUSH1 0x1 PUSH1 0xA0 SHL SUB AND DUP2 MSTORE PUSH3 0x438 SWAP1 PUSH1 0x21 SWAP1 PUSH1 0x1 PUSH3 0xC53 JUMP JUMPDEST POP PUSH1 0x1D SLOAD PUSH1 0xF SLOAD PUSH1 0x1 PUSH1 0x1 PUSH1 0xA0 SHL SUB SWAP1 DUP2 AND PUSH2 0x100 SWAP1 SWAP3 DIV AND EQ PUSH3 0x5F1 JUMPI PUSH1 0x1D SLOAD PUSH1 0xFF AND ISZERO ISZERO PUSH0 SUB PUSH3 0x507 JUMPI PUSH1 0xE SLOAD PUSH1 0x40 DUP1 MLOAD PUSH4 0x15AB88C9 PUSH1 0xE3 SHL DUP2 MSTORE SWAP1 MLOAD PUSH1 0x21 SWAP3 PUSH1 0x1 PUSH1 0x1 PUSH1 0xA0 SHL SUB AND SWAP2 PUSH4 0xAD5C4648 SWAP2 PUSH1 0x4 DUP1 DUP4 ADD SWAP3 PUSH1 0x20 SWAP3 SWAP2 SWAP1 DUP3 SWAP1 SUB ADD DUP2 DUP7 GAS STATICCALL ISZERO DUP1 ISZERO PUSH3 0x4AF JUMPI RETURNDATASIZE PUSH0 DUP1 RETURNDATACOPY RETURNDATASIZE PUSH0 REVERT JUMPDEST POP POP POP POP PUSH1 0x40 MLOAD RETURNDATASIZE PUSH1 0x1F NOT PUSH1 0x1F DUP3 ADD AND DUP3 ADD DUP1 PUSH1 0x40 MSTORE POP DUP2 ADD SWAP1 PUSH3 0x4D5 SWAP2 SWAP1 PUSH3 0x11AA JUMP JUMPDEST DUP2 SLOAD PUSH1 0x1 DUP2 ADD DUP4 SSTORE PUSH0 SWAP3 DUP4 MSTORE PUSH1 0x20 SWAP1 SWAP3 KECCAK256 SWAP1 SWAP2 ADD DUP1 SLOAD PUSH1 0x1 PUSH1 0x1 PUSH1 0xA0 SHL SUB NOT AND PUSH1 0x1 PUSH1 0x1 PUSH1 0xA0 SHL SUB SWAP1 SWAP3 AND SWAP2 SWAP1 SWAP2 OR SWAP1 SSTORE JUMPDEST PUSH1 0xE PUSH0 SWAP1 SLOAD SWAP1 PUSH2 0x100 EXP SWAP1 DIV PUSH1 0x1 PUSH1 0x1 PUSH1 0xA0 SHL SUB AND PUSH1 0x1 PUSH1 0x1 PUSH1 0xA0 SHL SUB AND PUSH4 0xAD5C4648 PUSH1 0x40 MLOAD DUP2 PUSH4 0xFFFFFFFF AND PUSH1 0xE0 SHL DUP2 MSTORE PUSH1 0x4 ADD PUSH1 0x20 PUSH1 0x40 MLOAD DUP1 DUP4 SUB DUP2 DUP7 GAS STATICCALL ISZERO DUP1 ISZERO PUSH3 0x558 JUMPI RETURNDATASIZE PUSH0 DUP1 RETURNDATACOPY RETURNDATASIZE PUSH0 REVERT JUMPDEST POP POP POP POP PUSH1 0x40 MLOAD RETURNDATASIZE PUSH1 0x1F NOT PUSH1 0x1F DUP3 ADD AND DUP3 ADD DUP1 PUSH1 0x40 MSTORE POP DUP2 ADD SWAP1 PUSH3 0x57E SWAP2 SWAP1 PUSH3 0x11AA JUMP JUMPDEST PUSH1 0x1D SLOAD PUSH2 0x100 SWAP1 DIV PUSH1 0x1 PUSH1 0x1 PUSH1 0xA0 SHL SUB SWAP1 DUP2 AND SWAP2 AND EQ PUSH3 0x5F1 JUMPI PUSH1 0x1D SLOAD PUSH1 0x21 DUP1 SLOAD PUSH1 0x1 DUP2 ADD DUP3 SSTORE PUSH0 SWAP2 SWAP1 SWAP2 MSTORE PUSH32 0x3A6357012C1A3AE0A17D304C9920310382D968EBCC4B1771F41C6B304205B570 ADD DUP1 SLOAD PUSH2 0x100 SWAP1 SWAP3 DIV PUSH1 0x1 PUSH1 0x1 PUSH1 0xA0 SHL SUB AND PUSH1 0x1 PUSH1 0x1 PUSH1 0xA0 SHL SUB NOT SWAP1 SWAP3 AND SWAP2 SWAP1 SWAP2 OR SWAP1 SSTORE JUMPDEST PUSH1 0xF SLOAD PUSH1 0xE SLOAD PUSH1 0x40 MLOAD PUSH4 0x95EA7B3 PUSH1 0xE0 SHL DUP2 MSTORE PUSH1 0x1 PUSH1 0x1 PUSH1 0xA0 SHL SUB SWAP2 DUP3 AND PUSH1 0x4 DUP3 ADD MSTORE PUSH0 NOT PUSH1 0x24 DUP3 ADD MSTORE SWAP2 AND SWAP1 PUSH4 0x95EA7B3 SWAP1 PUSH1 0x44 ADD PUSH0 PUSH1 0x40 MLOAD DUP1 DUP4 SUB DUP2 PUSH0 DUP8 DUP1 EXTCODESIZE ISZERO DUP1 ISZERO PUSH3 0x63F JUMPI PUSH0 DUP1 REVERT JUMPDEST POP GAS CALL ISZERO DUP1 ISZERO PUSH3 0x652 JUMPI RETURNDATASIZE PUSH0 DUP1 RETURNDATACOPY RETURNDATASIZE PUSH0 REVERT JUMPDEST POP POP ADDRESS PUSH0 SWAP1 DUP2 MSTORE PUSH1 0x2 PUSH1 0x20 SWAP1 DUP2 MSTORE PUSH1 0x40 DUP1 DUP4 KECCAK256 PUSH1 0xE DUP1 SLOAD PUSH1 0x1 PUSH1 0x1 PUSH1 0xA0 SHL SUB SWAP1 DUP2 AND DUP7 MSTORE SWAP2 DUP5 MSTORE DUP3 DUP6 KECCAK256 PUSH0 NOT SWAP1 SSTORE SLOAD DUP3 MLOAD PUSH4 0xC45A0155 PUSH1 0xE0 SHL DUP2 MSTORE SWAP3 MLOAD SWAP5 SWAP7 POP AND SWAP4 POP PUSH4 0xC45A0155 SWAP3 PUSH1 0x4 DUP1 DUP4 ADD SWAP4 SWAP3 DUP3 SWAP1 SUB ADD DUP2 DUP7 GAS STATICCALL ISZERO DUP1 ISZERO PUSH3 0x6BA JUMPI RETURNDATASIZE PUSH0 DUP1 RETURNDATACOPY RETURNDATASIZE PUSH0 REVERT JUMPDEST POP POP POP POP PUSH1 0x40 MLOAD RETURNDATASIZE PUSH1 0x1F NOT PUSH1 0x1F DUP3 ADD AND DUP3 ADD DUP1 PUSH1 0x40 MSTORE POP DUP2 ADD SWAP1 PUSH3 0x6E0 SWAP2 SWAP1 PUSH3 0x11AA JUMP JUMPDEST PUSH1 0xF SLOAD PUSH1 0x40 MLOAD PUSH4 0x64E329CB PUSH1 0xE1 SHL DUP2 MSTORE ADDRESS PUSH1 0x4 DUP3 ADD MSTORE PUSH1 0x1 PUSH1 0x1 PUSH1 0xA0 SHL SUB SWAP2 DUP3 AND PUSH1 0x24 DUP3 ADD MSTORE SWAP2 SWAP3 POP DUP3 AND SWAP1 PUSH4 0xC9C65396 SWAP1 PUSH1 0x44 ADD PUSH1 0x20 PUSH1 0x40 MLOAD DUP1 DUP4 SUB DUP2 PUSH0 DUP8 GAS CALL ISZERO DUP1 ISZERO PUSH3 0x732 JUMPI RETURNDATASIZE PUSH0 DUP1 RETURNDATACOPY RETURNDATASIZE PUSH0 REVERT JUMPDEST POP POP POP POP PUSH1 0x40 MLOAD RETURNDATASIZE PUSH1 0x1F NOT PUSH1 0x1F DUP3 ADD AND DUP3 ADD DUP1 PUSH1 0x40 MSTORE POP DUP2 ADD SWAP1 PUSH3 0x758 SWAP2 SWAP1 PUSH3 0x11AA JUMP JUMPDEST PUSH1 0x20 DUP1 SLOAD PUSH1 0x1 PUSH1 0x1 PUSH1 0xA0 SHL SUB NOT AND PUSH1 0x1 PUSH1 0x1 PUSH1 0xA0 SHL SUB SWAP3 SWAP1 SWAP3 AND SWAP2 DUP3 OR DUP2 SSTORE PUSH0 SWAP2 DUP3 MSTORE PUSH1 0x10 SWAP1 MSTORE PUSH1 0x40 SWAP1 KECCAK256 DUP1 SLOAD PUSH1 0xFF NOT AND PUSH1 0x1 OR SWAP1 SSTORE DUP4 MLOAD DUP5 SWAP1 PUSH1 0x3 SWAP1 DUP2 LT PUSH3 0x7A6 JUMPI PUSH3 0x7A6 PUSH3 0x1042 JUMP JUMPDEST PUSH1 0x20 MUL PUSH1 0x20 ADD ADD MLOAD PUSH1 0x12 DUP2 SWAP1 SSTORE POP DUP4 PUSH1 0x4 DUP2 MLOAD DUP2 LT PUSH3 0x7CA JUMPI PUSH3 0x7CA PUSH3 0x1042 JUMP JUMPDEST PUSH1 0x20 MUL PUSH1 0x20 ADD ADD MLOAD PUSH1 0x13 DUP2 SWAP1 SSTORE POP DUP4 PUSH1 0x5 DUP2 MLOAD DUP2 LT PUSH3 0x7EE JUMPI PUSH3 0x7EE PUSH3 0x1042 JUMP JUMPDEST PUSH1 0x20 MUL PUSH1 0x20 ADD ADD MLOAD PUSH1 0x14 DUP2 SWAP1 SSTORE POP DUP4 PUSH1 0x6 DUP2 MLOAD DUP2 LT PUSH3 0x812 JUMPI PUSH3 0x812 PUSH3 0x1042 JUMP JUMPDEST PUSH1 0x20 MUL PUSH1 0x20 ADD ADD MLOAD PUSH1 0x15 DUP2 SWAP1 SSTORE POP DUP4 PUSH1 0x7 DUP2 MLOAD DUP2 LT PUSH3 0x836 JUMPI PUSH3 0x836 PUSH3 0x1042 JUMP JUMPDEST PUSH1 0x20 MUL PUSH1 0x20 ADD ADD MLOAD PUSH1 0x16 DUP2 SWAP1 SSTORE POP DUP4 PUSH1 0x8 DUP2 MLOAD DUP2 LT PUSH3 0x85A JUMPI PUSH3 0x85A PUSH3 0x1042 JUMP JUMPDEST PUSH1 0x20 MUL PUSH1 0x20 ADD ADD MLOAD PUSH1 0x17 DUP2 SWAP1 SSTORE POP DUP4 PUSH1 0x9 DUP2 MLOAD DUP2 LT PUSH3 0x87E JUMPI PUSH3 0x87E PUSH3 0x1042 JUMP JUMPDEST PUSH1 0x20 MUL PUSH1 0x20 ADD ADD MLOAD PUSH1 0x18 DUP2 SWAP1 SSTORE POP DUP4 PUSH1 0xA DUP2 MLOAD DUP2 LT PUSH3 0x8A2 JUMPI PUSH3 0x8A2 PUSH3 0x1042 JUMP JUMPDEST PUSH1 0x20 MUL PUSH1 0x20 ADD ADD MLOAD PUSH1 0x19 DUP2 SWAP1 SSTORE POP PUSH2 0x9C4 PUSH1 0x15 SLOAD PUSH1 0x14 SLOAD PUSH1 0x13 SLOAD PUSH1 0x12 SLOAD PUSH3 0x8CB SWAP2 SWAP1 PUSH3 0x11E1 JUMP JUMPDEST PUSH3 0x8D7 SWAP2 SWAP1 PUSH3 0x11E1 JUMP JUMPDEST PUSH3 0x8E3 SWAP2 SWAP1 PUSH3 0x11E1 JUMP JUMPDEST GT ISZERO DUP1 ISZERO PUSH3 0x923 JUMPI POP PUSH2 0x9C4 PUSH1 0x19 SLOAD PUSH1 0x18 SLOAD PUSH1 0x17 SLOAD PUSH1 0x16 SLOAD PUSH3 0x908 SWAP2 SWAP1 PUSH3 0x11E1 JUMP JUMPDEST PUSH3 0x914 SWAP2 SWAP1 PUSH3 0x11E1 JUMP JUMPDEST PUSH3 0x920 SWAP2 SWAP1 PUSH3 0x11E1 JUMP JUMPDEST GT ISZERO JUMPDEST PUSH3 0x92C JUMPI PUSH0 DUP1 REVERT JUMPDEST DUP4 PUSH1 0xB DUP2 MLOAD DUP2 LT PUSH3 0x942 JUMPI PUSH3 0x942 PUSH3 0x1042 JUMP JUMPDEST PUSH1 0x20 MUL PUSH1 0x20 ADD ADD MLOAD PUSH1 0x8 DUP2 SWAP1 SSTORE POP DUP4 PUSH1 0xC DUP2 MLOAD DUP2 LT PUSH3 0x966 JUMPI PUSH3 0x966 PUSH3 0x1042 JUMP JUMPDEST PUSH1 0x20 MUL PUSH1 0x20 ADD ADD MLOAD PUSH1 0x1C DUP2 SWAP1 SSTORE POP PUSH1 0x5 PUSH1 0x1C SLOAD GT ISZERO PUSH3 0x9B4 JUMPI PUSH1 0x40 MLOAD PUSH3 0x461BCD PUSH1 0xE5 SHL DUP2 MSTORE PUSH1 0x20 PUSH1 0x4 DUP3 ADD MSTORE PUSH1 0x5 PUSH1 0x24 DUP3 ADD MSTORE PUSH5 0x213C3D2035 PUSH1 0xD8 SHL PUSH1 0x44 DUP3 ADD MSTORE PUSH1 0x64 ADD PUSH1 0x40 MLOAD DUP1 SWAP2 SUB SWAP1 REVERT JUMPDEST PUSH1 0xD SLOAD PUSH1 0x1 PUSH1 0x1 PUSH1 0xA0 SHL SUB DUP4 AND PUSH0 DUP2 DUP2 MSTORE PUSH1 0x1 PUSH1 0x20 SWAP1 DUP2 MSTORE PUSH1 0x40 DUP1 DUP4 KECCAK256 DUP6 SWAP1 SSTORE MLOAD SWAP4 DUP5 MSTORE SWAP2 SWAP3 SWAP1 SWAP2 PUSH32 0xDDF252AD1BE2C89B69C2B068FC378DAA952BA7F163C4A11628F55A4DF523B3EF SWAP2 ADD PUSH1 0x40 MLOAD DUP1 SWAP2 SUB SWAP1 LOG3 PUSH1 0x3 DUP1 SLOAD PUSH1 0x1 PUSH1 0x1 PUSH1 0xA0 SHL SUB SWAP1 DUP2 AND PUSH0 SWAP1 DUP2 MSTORE PUSH1 0xA PUSH1 0x20 DUP2 DUP2 MSTORE PUSH1 0x40 DUP1 DUP5 KECCAK256 DUP1 SLOAD PUSH1 0x1 PUSH1 0xFF NOT SWAP2 DUP3 AND DUP2 OR SWAP1 SWAP3 SSTORE DUP10 DUP8 AND DUP1 DUP8 MSTORE DUP4 DUP8 KECCAK256 DUP1 SLOAD DUP4 AND DUP5 OR SWAP1 SSTORE ADDRESS DUP1 DUP9 MSTORE DUP5 DUP9 KECCAK256 DUP1 SLOAD DUP5 AND DUP6 OR SWAP1 SSTORE PUSH1 0xE DUP1 SLOAD DUP11 AND DUP10 MSTORE DUP6 DUP10 KECCAK256 DUP1 SLOAD DUP6 AND DUP7 OR SWAP1 SSTORE CALLER DUP10 MSTORE DUP6 DUP10 KECCAK256 DUP1 SLOAD DUP6 AND DUP7 OR SWAP1 SSTORE PUSH1 0xC DUP8 MSTORE DUP6 DUP10 KECCAK256 DUP1 SLOAD DUP6 AND DUP7 OR SWAP1 SSTORE SWAP10 SLOAD DUP10 AND DUP9 MSTORE DUP5 DUP9 KECCAK256 DUP1 SLOAD DUP5 AND DUP6 OR SWAP1 SSTORE SWAP1 DUP8 MSTORE DUP4 DUP8 KECCAK256 DUP1 SLOAD DUP4 AND DUP5 OR SWAP1 SSTORE SWAP8 SLOAD DUP8 AND DUP7 MSTORE DUP3 DUP7 KECCAK256 DUP1 SLOAD DUP3 AND DUP4 OR SWAP1 SSTORE DUP4 SLOAD DUP8 AND DUP7 MSTORE DUP3 DUP7 KECCAK256 DUP1 SLOAD DUP3 AND DUP4 OR SWAP1 SSTORE SWAP7 DUP6 MSTORE DUP2 DUP6 KECCAK256 DUP1 SLOAD DUP9 AND DUP3 OR SWAP1 SSTORE PUSH32 0x45117A726EA4F344045DC210793664A28D2D320B7E03F6BFFDAE553D24C3586C DUP1 SLOAD DUP9 AND DUP3 OR SWAP1 SSTORE PUSH1 0x27 DUP4 MSTORE PUSH32 0x552D06D8E69B1FC894B5BB152D5C34CCB2EA2834FD646FF017B1562D77BDB85A DUP1 SLOAD DUP9 AND DUP3 OR SWAP1 SSTORE PUSH2 0xDEAD SWAP1 SWAP5 MSTORE PUSH32 0x5B81ED81FD8C0839A30B67983EAB49280895D3199FC1130FB03B7C33E425E0EB DUP1 SLOAD SWAP1 SWAP7 AND SWAP1 SWAP4 OR SWAP1 SWAP5 SSTORE PUSH1 0xF SLOAD DUP3 MLOAD PUSH4 0x313CE567 PUSH1 0xE0 SHL DUP2 MSTORE SWAP3 MLOAD SWAP2 SWAP5 SWAP4 AND SWAP3 PUSH4 0x313CE567 SWAP3 PUSH1 0x4 DUP1 DUP3 ADD SWAP4 SWAP2 DUP3 SWAP1 SUB ADD DUP2 DUP7 GAS STATICCALL ISZERO DUP1 ISZERO PUSH3 0xB97 JUMPI RETURNDATASIZE PUSH0 DUP1 RETURNDATACOPY RETURNDATASIZE PUSH0 REVERT JUMPDEST POP POP POP POP PUSH1 0x40 MLOAD RETURNDATASIZE PUSH1 0x1F NOT PUSH1 0x1F DUP3 ADD AND DUP3 ADD DUP1 PUSH1 0x40 MSTORE POP DUP2 ADD SWAP1 PUSH3 0xBBD SWAP2 SWAP1 PUSH3 0x11FD JUMP JUMPDEST PUSH3 0xBCA SWAP1 PUSH1 0xA PUSH3 0x130E JUMP JUMPDEST PUSH3 0xBD6 SWAP2 SWAP1 PUSH3 0x131B JUMP JUMPDEST PUSH1 0x29 SSTORE PUSH1 0xF SLOAD PUSH1 0x40 MLOAD PUSH1 0x1 PUSH1 0x1 PUSH1 0xA0 SHL SUB SWAP1 SWAP2 AND SWAP1 PUSH3 0xBF6 SWAP1 PUSH3 0xCBB JUMP JUMPDEST PUSH1 0x1 PUSH1 0x1 PUSH1 0xA0 SHL SUB SWAP1 SWAP2 AND DUP2 MSTORE PUSH1 0x20 ADD PUSH1 0x40 MLOAD DUP1 SWAP2 SUB SWAP1 PUSH0 CREATE DUP1 ISZERO DUP1 ISZERO PUSH3 0xC20 JUMPI RETURNDATASIZE PUSH0 DUP1 RETURNDATACOPY RETURNDATASIZE PUSH0 REVERT JUMPDEST POP PUSH1 0x11 PUSH1 0x2 PUSH2 0x100 EXP DUP2 SLOAD DUP2 PUSH1 0x1 PUSH1 0x1 PUSH1 0xA0 SHL SUB MUL NOT AND SWAP1 DUP4 PUSH1 0x1 PUSH1 0x1 PUSH1 0xA0 SHL SUB AND MUL OR SWAP1 SSTORE POP POP POP POP POP POP POP PUSH3 0x133B JUMP JUMPDEST DUP3 DUP1 SLOAD DUP3 DUP3 SSTORE SWAP1 PUSH0 MSTORE PUSH1 0x20 PUSH0 KECCAK256 SWAP1 DUP2 ADD SWAP3 DUP3 ISZERO PUSH3 0xCA9 JUMPI SWAP2 PUSH1 0x20 MUL DUP3 ADD JUMPDEST DUP3 DUP2 GT ISZERO PUSH3 0xCA9 JUMPI DUP3 MLOAD DUP3 SLOAD PUSH1 0x1 PUSH1 0x1 PUSH1 0xA0 SHL SUB NOT AND PUSH1 0x1 PUSH1 0x1 PUSH1 0xA0 SHL SUB SWAP1 SWAP2 AND OR DUP3 SSTORE PUSH1 0x20 SWAP1 SWAP3 ADD SWAP2 PUSH1 0x1 SWAP1 SWAP2 ADD SWAP1 PUSH3 0xC72 JUMP JUMPDEST POP PUSH3 0xCB7 SWAP3 SWAP2 POP PUSH3 0xCC8 JUMP JUMPDEST POP SWAP1 JUMP JUMPDEST PUSH1 0xFE DUP1 PUSH3 0x4CE7 DUP4 CODECOPY ADD SWAP1 JUMP JUMPDEST JUMPDEST DUP1 DUP3 GT ISZERO PUSH3 0xCB7 JUMPI PUSH0 DUP2 SSTORE PUSH1 0x1 ADD PUSH3 0xCC9 JUMP JUMPDEST PUSH4 0x4E487B71 PUSH1 0xE0 SHL PUSH0 MSTORE PUSH1 0x41 PUSH1 0x4 MSTORE PUSH1 0x24 PUSH0 REVERT JUMPDEST PUSH1 0x40 MLOAD PUSH1 0x1F DUP3 ADD PUSH1 0x1F NOT AND DUP2 ADD PUSH1 0x1 PUSH1 0x1 PUSH1 0x40 SHL SUB DUP2 GT DUP3 DUP3 LT OR ISZERO PUSH3 0xD1D JUMPI PUSH3 0xD1D PUSH3 0xCDE JUMP JUMPDEST PUSH1 0x40 MSTORE SWAP2 SWAP1 POP JUMP JUMPDEST PUSH0 PUSH1 0x1 PUSH1 0x1 PUSH1 0x40 SHL SUB DUP3 GT ISZERO PUSH3 0xD40 JUMPI PUSH3 0xD40 PUSH3 0xCDE JUMP JUMPDEST POP PUSH1 0x5 SHL PUSH1 0x20 ADD SWAP1 JUMP JUMPDEST DUP1 MLOAD PUSH1 0x1 PUSH1 0x1 PUSH1 0xA0 SHL SUB DUP2 AND DUP2 EQ PUSH3 0xD61 JUMPI PUSH0 DUP1 REVERT JUMPDEST SWAP2 SWAP1 POP JUMP JUMPDEST PUSH0 DUP3 PUSH1 0x1F DUP4 ADD SLT PUSH3 0xD76 JUMPI PUSH0 DUP1 REVERT JUMPDEST DUP2 MLOAD PUSH1 0x20 PUSH3 0xD8F PUSH3 0xD89 DUP4 PUSH3 0xD25 JUMP JUMPDEST PUSH3 0xCF2 JUMP JUMPDEST DUP3 DUP2 MSTORE PUSH1 0x5 SWAP3 SWAP1 SWAP3 SHL DUP5 ADD DUP2 ADD SWAP2 DUP2 DUP2 ADD SWAP1 DUP7 DUP5 GT ISZERO PUSH3 0xDAE JUMPI PUSH0 DUP1 REVERT JUMPDEST DUP3 DUP7 ADD JUMPDEST DUP5 DUP2 LT ISZERO PUSH3 0xDD4 JUMPI PUSH3 0xDC6 DUP2 PUSH3 0xD4A JUMP JUMPDEST DUP4 MSTORE SWAP2 DUP4 ADD SWAP2 DUP4 ADD PUSH3 0xDB2 JUMP JUMPDEST POP SWAP7 SWAP6 POP POP POP POP POP POP JUMP JUMPDEST PUSH0 DUP3 PUSH1 0x1F DUP4 ADD SLT PUSH3 0xDEF JUMPI PUSH0 DUP1 REVERT JUMPDEST DUP2 MLOAD PUSH1 0x20 PUSH3 0xE02 PUSH3 0xD89 DUP4 PUSH3 0xD25 JUMP JUMPDEST DUP3 DUP2 MSTORE PUSH1 0x5 SWAP3 SWAP1 SWAP3 SHL DUP5 ADD DUP2 ADD SWAP2 DUP2 DUP2 ADD SWAP1 DUP7 DUP5 GT ISZERO PUSH3 0xE21 JUMPI PUSH0 DUP1 REVERT JUMPDEST DUP3 DUP7 ADD JUMPDEST DUP5 DUP2 LT ISZERO PUSH3 0xDD4 JUMPI DUP1 MLOAD DUP4 MSTORE SWAP2 DUP4 ADD SWAP2 DUP4 ADD PUSH3 0xE25 JUMP JUMPDEST PUSH0 DUP3 PUSH1 0x1F DUP4 ADD SLT PUSH3 0xE4E JUMPI PUSH0 DUP1 REVERT JUMPDEST DUP2 MLOAD PUSH1 0x20 PUSH3 0xE61 PUSH3 0xD89 DUP4 PUSH3 0xD25 JUMP JUMPDEST DUP3 DUP2 MSTORE PUSH1 0x5 SWAP3 SWAP1 SWAP3 SHL DUP5 ADD DUP2 ADD SWAP2 DUP2 DUP2 ADD SWAP1 DUP7 DUP5 GT ISZERO PUSH3 0xE80 JUMPI PUSH0 DUP1 REVERT JUMPDEST DUP3 DUP7 ADD JUMPDEST DUP5 DUP2 LT ISZERO PUSH3 0xDD4 JUMPI DUP1 MLOAD DUP1 ISZERO ISZERO DUP2 EQ PUSH3 0xE9E JUMPI PUSH0 DUP1 DUP2 REVERT JUMPDEST DUP4 MSTORE SWAP2 DUP4 ADD SWAP2 DUP4 ADD PUSH3 0xE84 JUMP JUMPDEST PUSH0 DUP1 PUSH0 DUP1 PUSH1 0x80 DUP6 DUP8 SUB SLT ISZERO PUSH3 0xEC0 JUMPI PUSH0 DUP1 REVERT JUMPDEST DUP5 MLOAD PUSH1 0x1 PUSH1 0x1 PUSH1 0x40 SHL SUB DUP1 DUP3 GT ISZERO PUSH3 0xED7 JUMPI PUSH0 DUP1 REVERT JUMPDEST DUP2 DUP8 ADD SWAP2 POP DUP8 PUSH1 0x1F DUP4 ADD SLT PUSH3 0xEEB JUMPI PUSH0 DUP1 REVERT JUMPDEST DUP2 MLOAD PUSH1 0x20 PUSH3 0xEFE PUSH3 0xD89 DUP4 PUSH3 0xD25 JUMP JUMPDEST DUP3 DUP2 MSTORE PUSH1 0x5 SWAP3 SWAP1 SWAP3 SHL DUP5 ADD DUP2 ADD SWAP2 DUP2 DUP2 ADD SWAP1 DUP12 DUP5 GT ISZERO PUSH3 0xF1D JUMPI PUSH0 DUP1 REVERT JUMPDEST DUP3 DUP7 ADD JUMPDEST DUP5 DUP2 LT ISZERO PUSH3 0xFC5 JUMPI DUP1 MLOAD DUP7 DUP2 GT ISZERO PUSH3 0xF39 JUMPI PUSH0 DUP1 REVERT JUMPDEST DUP8 ADD PUSH1 0x3F DUP2 ADD DUP15 SGT PUSH3 0xF4A JUMPI PUSH0 DUP1 REVERT JUMPDEST DUP5 DUP2 ADD MLOAD DUP8 DUP2 GT ISZERO PUSH3 0xF61 JUMPI PUSH3 0xF61 PUSH3 0xCDE JUMP JUMPDEST PUSH3 0xF75 PUSH1 0x1F DUP3 ADD PUSH1 0x1F NOT AND DUP8 ADD PUSH3 0xCF2 JUMP JUMPDEST DUP2 DUP2 MSTORE DUP16 PUSH1 0x40 DUP4 DUP6 ADD ADD GT ISZERO PUSH3 0xF8B JUMPI PUSH0 DUP1 DUP2 REVERT JUMPDEST PUSH0 JUMPDEST DUP3 DUP2 LT ISZERO PUSH3 0xFAB JUMPI DUP4 DUP2 ADD PUSH1 0x40 ADD MLOAD DUP3 DUP3 ADD DUP10 ADD MSTORE DUP8 ADD PUSH3 0xF8D JUMP JUMPDEST POP PUSH0 SWAP2 DUP2 ADD DUP8 ADD SWAP2 SWAP1 SWAP2 MSTORE DUP5 MSTORE POP SWAP2 DUP4 ADD SWAP2 DUP4 ADD PUSH3 0xF21 JUMP JUMPDEST POP SWAP2 DUP11 ADD MLOAD SWAP2 SWAP9 POP SWAP1 SWAP4 POP POP POP DUP1 DUP3 GT ISZERO PUSH3 0xFDF JUMPI PUSH0 DUP1 REVERT JUMPDEST PUSH3 0xFED DUP9 DUP4 DUP10 ADD PUSH3 0xD66 JUMP JUMPDEST SWAP5 POP PUSH1 0x40 DUP8 ADD MLOAD SWAP2 POP DUP1 DUP3 GT ISZERO PUSH3 0x1003 JUMPI PUSH0 DUP1 REVERT JUMPDEST PUSH3 0x1011 DUP9 DUP4 DUP10 ADD PUSH3 0xDDF JUMP JUMPDEST SWAP4 POP PUSH1 0x60 DUP8 ADD MLOAD SWAP2 POP DUP1 DUP3 GT ISZERO PUSH3 0x1027 JUMPI PUSH0 DUP1 REVERT JUMPDEST POP PUSH3 0x1036 DUP8 DUP3 DUP9 ADD PUSH3 0xE3E JUMP JUMPDEST SWAP2 POP POP SWAP3 SWAP6 SWAP2 SWAP5 POP SWAP3 POP JUMP JUMPDEST PUSH4 0x4E487B71 PUSH1 0xE0 SHL PUSH0 MSTORE PUSH1 0x32 PUSH1 0x4 MSTORE PUSH1 0x24 PUSH0 REVERT JUMPDEST PUSH1 0x1 DUP2 DUP2 SHR SWAP1 DUP3 AND DUP1 PUSH3 0x106B JUMPI PUSH1 0x7F DUP3 AND SWAP2 POP JUMPDEST PUSH1 0x20 DUP3 LT DUP2 SUB PUSH3 0x108A JUMPI PUSH4 0x4E487B71 PUSH1 0xE0 SHL PUSH0 MSTORE PUSH1 0x22 PUSH1 0x4 MSTORE PUSH1 0x24 PUSH0 REVERT JUMPDEST POP SWAP2 SWAP1 POP JUMP JUMPDEST PUSH1 0x1F DUP3 GT ISZERO PUSH3 0x10DD JUMPI PUSH0 DUP2 DUP2 MSTORE PUSH1 0x20 DUP2 KECCAK256 PUSH1 0x1F DUP6 ADD PUSH1 0x5 SHR DUP2 ADD PUSH1 0x20 DUP7 LT ISZERO PUSH3 0x10B8 JUMPI POP DUP1 JUMPDEST PUSH1 0x1F DUP6 ADD PUSH1 0x5 SHR DUP3 ADD SWAP2 POP JUMPDEST DUP2 DUP2 LT ISZERO PUSH3 0x10D9 JUMPI DUP3 DUP2 SSTORE PUSH1 0x1 ADD PUSH3 0x10C4 JUMP JUMPDEST POP POP POP JUMPDEST POP POP POP JUMP JUMPDEST DUP2 MLOAD PUSH1 0x1 PUSH1 0x1 PUSH1 0x40 SHL SUB DUP2 GT ISZERO PUSH3 0x10FE JUMPI PUSH3 0x10FE PUSH3 0xCDE JUMP JUMPDEST PUSH3 0x1116 DUP2 PUSH3 0x110F DUP5 SLOAD PUSH3 0x1056 JUMP JUMPDEST DUP5 PUSH3 0x1090 JUMP JUMPDEST PUSH1 0x20 DUP1 PUSH1 0x1F DUP4 GT PUSH1 0x1 DUP2 EQ PUSH3 0x114C JUMPI PUSH0 DUP5 ISZERO PUSH3 0x1134 JUMPI POP DUP6 DUP4 ADD MLOAD JUMPDEST PUSH0 NOT PUSH1 0x3 DUP7 SWAP1 SHL SHR NOT AND PUSH1 0x1 DUP6 SWAP1 SHL OR DUP6 SSTORE PUSH3 0x10D9 JUMP JUMPDEST PUSH0 DUP6 DUP2 MSTORE PUSH1 0x20 DUP2 KECCAK256 PUSH1 0x1F NOT DUP7 AND SWAP2 JUMPDEST DUP3 DUP2 LT ISZERO PUSH3 0x117C JUMPI DUP9 DUP7 ADD MLOAD DUP3 SSTORE SWAP5 DUP5 ADD SWAP5 PUSH1 0x1 SWAP1 SWAP2 ADD SWAP1 DUP5 ADD PUSH3 0x115B JUMP JUMPDEST POP DUP6 DUP3 LT ISZERO PUSH3 0x119A JUMPI DUP8 DUP6 ADD MLOAD PUSH0 NOT PUSH1 0x3 DUP9 SWAP1 SHL PUSH1 0xF8 AND SHR NOT AND DUP2 SSTORE JUMPDEST POP POP POP POP POP PUSH1 0x1 SWAP1 DUP2 SHL ADD SWAP1 SSTORE POP JUMP JUMPDEST PUSH0 PUSH1 0x20 DUP3 DUP5 SUB SLT ISZERO PUSH3 0x11BB JUMPI PUSH0 DUP1 REVERT JUMPDEST PUSH3 0x11C6 DUP3 PUSH3 0xD4A JUMP JUMPDEST SWAP4 SWAP3 POP POP POP JUMP JUMPDEST PUSH4 0x4E487B71 PUSH1 0xE0 SHL PUSH0 MSTORE PUSH1 0x11 PUSH1 0x4 MSTORE PUSH1 0x24 PUSH0 REVERT JUMPDEST DUP1 DUP3 ADD DUP1 DUP3 GT ISZERO PUSH3 0x11F7 JUMPI PUSH3 0x11F7 PUSH3 0x11CD JUMP JUMPDEST SWAP3 SWAP2 POP POP JUMP JUMPDEST PUSH0 PUSH1 0x20 DUP3 DUP5 SUB SLT ISZERO PUSH3 0x120E JUMPI PUSH0 DUP1 REVERT JUMPDEST POP MLOAD SWAP2 SWAP1 POP JUMP JUMPDEST PUSH1 0x1 DUP2 DUP2 JUMPDEST DUP1 DUP6 GT ISZERO PUSH3 0x1255 JUMPI DUP2 PUSH0 NOT DIV DUP3 GT ISZERO PUSH3 0x1239 JUMPI PUSH3 0x1239 PUSH3 0x11CD JUMP JUMPDEST DUP1 DUP6 AND ISZERO PUSH3 0x1247 JUMPI SWAP2 DUP2 MUL SWAP2 JUMPDEST SWAP4 DUP5 SHR SWAP4 SWAP1 DUP1 MUL SWAP1 PUSH3 0x121A JUMP JUMPDEST POP SWAP3 POP SWAP3 SWAP1 POP JUMP JUMPDEST PUSH0 DUP3 PUSH3 0x126D JUMPI POP PUSH1 0x1 PUSH3 0x11F7 JUMP JUMPDEST DUP2 PUSH3 0x127B JUMPI POP PUSH0 PUSH3 0x11F7 JUMP JUMPDEST DUP2 PUSH1 0x1 DUP2 EQ PUSH3 0x1294 JUMPI PUSH1 0x2 DUP2 EQ PUSH3 0x129F JUMPI PUSH3 0x12BF JUMP JUMPDEST PUSH1 0x1 SWAP2 POP POP PUSH3 0x11F7 JUMP JUMPDEST PUSH1 0xFF DUP5 GT ISZERO PUSH3 0x12B3 JUMPI PUSH3 0x12B3 PUSH3 0x11CD JUMP JUMPDEST POP POP PUSH1 0x1 DUP3 SHL PUSH3 0x11F7 JUMP JUMPDEST POP PUSH1 0x20 DUP4 LT PUSH2 0x133 DUP4 LT AND PUSH1 0x4E DUP5 LT PUSH1 0xB DUP5 LT AND OR ISZERO PUSH3 0x12E4 JUMPI POP DUP2 DUP2 EXP PUSH3 0x11F7 JUMP JUMPDEST PUSH3 0x12F0 DUP4 DUP4 PUSH3 0x1215 JUMP JUMPDEST DUP1 PUSH0 NOT DIV DUP3 GT ISZERO PUSH3 0x1306 JUMPI PUSH3 0x1306 PUSH3 0x11CD JUMP JUMPDEST MUL SWAP4 SWAP3 POP POP POP JUMP JUMPDEST PUSH0 PUSH3 0x11C6 DUP4 DUP4 PUSH3 0x125D JUMP JUMPDEST PUSH0 DUP3 PUSH3 0x1336 JUMPI PUSH4 0x4E487B71 PUSH1 0xE0 SHL PUSH0 MSTORE PUSH1 0x12 PUSH1 0x4 MSTORE PUSH1 0x24 PUSH0 REVERT JUMPDEST POP DIV SWAP1 JUMP JUMPDEST PUSH2 0x399E DUP1 PUSH3 0x1349 PUSH0 CODECOPY PUSH0 RETURN INVALID PUSH1 0x80 PUSH1 0x40 MSTORE PUSH1 0x4 CALLDATASIZE LT PUSH2 0x3AA JUMPI PUSH0 CALLDATALOAD PUSH1 0xE0 SHR DUP1 PUSH4 0x70A08231 GT PUSH2 0x1E3 JUMPI DUP1 PUSH4 0x70A08231 EQ PUSH2 0x868 JUMPI DUP1 PUSH4 0x715018A6 EQ PUSH2 0x887 JUMPI DUP1 PUSH4 0x79DC880C EQ PUSH2 0x89B JUMPI DUP1 PUSH4 0x7DB1342C EQ PUSH2 0x8BA JUMPI DUP1 PUSH4 0x85DC3004 EQ PUSH2 0x8D9 JUMPI DUP1 PUSH4 0x86917524 EQ PUSH2 0x8F8 JUMPI DUP1 PUSH4 0x8718B24F EQ PUSH2 0x90D JUMPI DUP1 PUSH4 0x8C2FC7AD EQ PUSH2 0x932 JUMPI DUP1 PUSH4 0x8DA5CB5B EQ PUSH2 0x951 JUMPI DUP1 PUSH4 0x8F6CD17D EQ PUSH2 0x96D JUMPI DUP1 PUSH4 0x95D89B41 EQ PUSH2 0x982 JUMPI DUP1 PUSH4 0x992DB38F EQ PUSH2 0x996 JUMPI DUP1 PUSH4 0x9CC0E3C7 EQ PUSH2 0x9AA JUMPI DUP1 PUSH4 0xA8424861 EQ PUSH2 0x9C9 JUMPI DUP1 PUSH4 0xA9059CBB EQ PUSH2 0x9E8 JUMPI DUP1 PUSH4 0xAA4BDE28 EQ PUSH2 0xA07 JUMPI DUP1 PUSH4 0xAA582B42 EQ PUSH2 0xA1C JUMPI DUP1 PUSH4 0xADC7955D EQ PUSH2 0xA3B JUMPI DUP1 PUSH4 0xB02D757F EQ PUSH2 0xA50 JUMPI DUP1 PUSH4 0xB60368FC EQ PUSH2 0xA70 JUMPI DUP1 PUSH4 0xB9FBC49D EQ PUSH2 0xA8F JUMPI DUP1 PUSH4 0xBAB01F4C EQ PUSH2 0xAA4 JUMPI DUP1 PUSH4 0xBBA30F8F EQ PUSH2 0xAC3 JUMPI DUP1 PUSH4 0xBD25BF29 EQ PUSH2 0xAE2 JUMPI DUP1 PUSH4 0xBE4FE9A5 EQ PUSH2 0xB10 JUMPI DUP1 PUSH4 0xBFC3137E EQ PUSH2 0xB25 JUMPI DUP1 PUSH4 0xC213D62D EQ PUSH2 0xB3A JUMPI DUP1 PUSH4 0xC92D567E EQ PUSH2 0xB59 JUMPI DUP1 PUSH4 0xCE0192F9 EQ PUSH2 0xB79 JUMPI DUP1 PUSH4 0xD5986433 EQ PUSH2 0xB8E JUMPI DUP1 PUSH4 0xDD62ED3E EQ PUSH2 0xBAE JUMPI DUP1 PUSH4 0xE32759CF EQ PUSH2 0xBF2 JUMPI DUP1 PUSH4 0xE5A6B10F EQ PUSH2 0xC07 JUMPI DUP1 PUSH4 0xE5C2B0A6 EQ PUSH2 0xC26 JUMPI DUP1 PUSH4 0xE82BEF29 EQ PUSH2 0xC45 JUMPI DUP1 PUSH4 0xEA10510E EQ PUSH2 0xC64 JUMPI DUP1 PUSH4 0xEB10B741 EQ PUSH2 0xC83 JUMPI DUP1 PUSH4 0xEDB1BCD9 EQ PUSH2 0xC98 JUMPI DUP1 PUSH4 0xEF6E4F17 EQ PUSH2 0xCB7 JUMPI DUP1 PUSH4 0xF2FDE38B EQ PUSH2 0xCCC JUMPI DUP1 PUSH4 0xF7C618C1 EQ PUSH2 0xCEB JUMPI PUSH0 DUP1 REVERT JUMPDEST DUP1 PUSH4 0x1339C21 EQ PUSH2 0x3B5 JUMPI DUP1 PUSH4 0x1986FAD EQ PUSH2 0x3CB JUMPI DUP1 PUSH4 0x3DA2B23 EQ PUSH2 0x40E JUMPI DUP1 PUSH4 0x5833C2B EQ PUSH2 0x42E JUMPI DUP1 PUSH4 0x60E304E EQ PUSH2 0x44D JUMPI DUP1 PUSH4 0x6FDDE03 EQ PUSH2 0x46C JUMPI DUP1 PUSH4 0x7313D8D EQ PUSH2 0x48D JUMPI DUP1 PUSH4 0x7C3ADF0 EQ PUSH2 0x4AC JUMPI DUP1 PUSH4 0x95EA7B3 EQ PUSH2 0x4CF JUMPI DUP1 PUSH4 0xF890B86 EQ PUSH2 0x4EE JUMPI DUP1 PUSH4 0x14A432C9 EQ PUSH2 0x502 JUMPI DUP1 PUSH4 0x150E4C47 EQ PUSH2 0x521 JUMPI DUP1 PUSH4 0x15D07D82 EQ PUSH2 0x540 JUMPI DUP1 PUSH4 0x18160DDD EQ PUSH2 0x559 JUMPI DUP1 PUSH4 0x1846A5A4 EQ PUSH2 0x56D JUMPI DUP1 PUSH4 0x18D12855 EQ PUSH2 0x58D JUMPI DUP1 PUSH4 0x1DBBAEBD EQ PUSH2 0x5A1 JUMPI DUP1 PUSH4 0x206C17BB EQ PUSH2 0x5C0 JUMPI DUP1 PUSH4 0x2381D95D EQ PUSH2 0x5EC JUMPI DUP1 PUSH4 0x23B872DD EQ PUSH2 0x60B JUMPI DUP1 PUSH4 0x255412D9 EQ PUSH2 0x62A JUMPI DUP1 PUSH4 0x2DAB693F EQ PUSH2 0x63F JUMPI DUP1 PUSH4 0x313CE567 EQ PUSH2 0x654 JUMPI DUP1 PUSH4 0x35C96089 EQ PUSH2 0x668 JUMPI DUP1 PUSH4 0x37D0A1C9 EQ PUSH2 0x681 JUMPI DUP1 PUSH4 0x3B1CD187 EQ PUSH2 0x6A0 JUMPI DUP1 PUSH4 0x3BB82EB6 EQ PUSH2 0x6B5 JUMPI DUP1 PUSH4 0x3BFE62CA EQ PUSH2 0x6D4 JUMPI DUP1 PUSH4 0x3C11100D EQ PUSH2 0x6E9 JUMPI DUP1 PUSH4 0x40AA81FE EQ PUSH2 0x717 JUMPI DUP1 PUSH4 0x4188BF5A EQ PUSH2 0x745 JUMPI DUP1 PUSH4 0x4482004E EQ PUSH2 0x764 JUMPI DUP1 PUSH4 0x4D5CE038 EQ PUSH2 0x779 JUMPI DUP1 PUSH4 0x4EA6037C EQ PUSH2 0x798 JUMPI DUP1 PUSH4 0x553193CA EQ PUSH2 0x7B7 JUMPI DUP1 PUSH4 0x5A7BA73C EQ PUSH2 0x7CC JUMPI DUP1 PUSH4 0x6108A3DB EQ PUSH2 0x7EC JUMPI DUP1 PUSH4 0x621823E6 EQ PUSH2 0x80B JUMPI DUP1 PUSH4 0x6402511E EQ PUSH2 0x820 JUMPI DUP1 PUSH4 0x697CFC19 EQ PUSH2 0x83F JUMPI DUP1 PUSH4 0x6B611368 EQ PUSH2 0x853 JUMPI PUSH0 DUP1 REVERT JUMPDEST CALLDATASIZE PUSH2 0x3B1 JUMPI STOP JUMPDEST PUSH0 DUP1 REVERT JUMPDEST CALLVALUE DUP1 ISZERO PUSH2 0x3C0 JUMPI PUSH0 DUP1 REVERT JUMPDEST POP PUSH2 0x3C9 PUSH2 0xD0F JUMP JUMPDEST STOP JUMPDEST CALLVALUE DUP1 ISZERO PUSH2 0x3D6 JUMPI PUSH0 DUP1 REVERT JUMPDEST POP PUSH2 0x3F9 PUSH2 0x3E5 CALLDATASIZE PUSH1 0x4 PUSH2 0x3403 JUMP JUMPDEST PUSH1 0xA PUSH1 0x20 MSTORE PUSH0 SWAP1 DUP2 MSTORE PUSH1 0x40 SWAP1 KECCAK256 SLOAD PUSH1 0xFF AND DUP2 JUMP JUMPDEST PUSH1 0x40 MLOAD SWAP1 ISZERO ISZERO DUP2 MSTORE PUSH1 0x20 ADD JUMPDEST PUSH1 0x40 MLOAD DUP1 SWAP2 SUB SWAP1 RETURN JUMPDEST CALLVALUE DUP1 ISZERO PUSH2 0x419 JUMPI PUSH0 DUP1 REVERT JUMPDEST POP PUSH1 0x20 SLOAD PUSH2 0x3F9 SWAP1 PUSH1 0x1 PUSH1 0xB8 SHL SWAP1 DIV PUSH1 0xFF AND DUP2 JUMP JUMPDEST CALLVALUE DUP1 ISZERO PUSH2 0x439 JUMPI PUSH0 DUP1 REVERT JUMPDEST POP PUSH2 0x3C9 PUSH2 0x448 CALLDATASIZE PUSH1 0x4 PUSH2 0x3432 JUMP JUMPDEST PUSH2 0xD80 JUMP JUMPDEST CALLVALUE DUP1 ISZERO PUSH2 0x458 JUMPI PUSH0 DUP1 REVERT JUMPDEST POP PUSH2 0x3C9 PUSH2 0x467 CALLDATASIZE PUSH1 0x4 PUSH2 0x3469 JUMP JUMPDEST PUSH2 0xDD3 JUMP JUMPDEST CALLVALUE DUP1 ISZERO PUSH2 0x477 JUMPI PUSH0 DUP1 REVERT JUMPDEST POP PUSH2 0x480 PUSH2 0xE41 JUMP JUMPDEST PUSH1 0x40 MLOAD PUSH2 0x405 SWAP2 SWAP1 PUSH2 0x3480 JUMP JUMPDEST CALLVALUE DUP1 ISZERO PUSH2 0x498 JUMPI PUSH0 DUP1 REVERT JUMPDEST POP PUSH2 0x3C9 PUSH2 0x4A7 CALLDATASIZE PUSH1 0x4 PUSH2 0x34CB JUMP JUMPDEST PUSH2 0xED1 JUMP JUMPDEST CALLVALUE DUP1 ISZERO PUSH2 0x4B7 JUMPI PUSH0 DUP1 REVERT JUMPDEST POP PUSH2 0x4C1 PUSH1 0x14 SLOAD DUP2 JUMP JUMPDEST PUSH1 0x40 MLOAD SWAP1 DUP2 MSTORE PUSH1 0x20 ADD PUSH2 0x405 JUMP JUMPDEST CALLVALUE DUP1 ISZERO PUSH2 0x4DA JUMPI PUSH0 DUP1 REVERT JUMPDEST POP PUSH2 0x3C9 PUSH2 0x4E9 CALLDATASIZE PUSH1 0x4 PUSH2 0x34E6 JUMP JUMPDEST PUSH2 0xF18 JUMP JUMPDEST CALLVALUE DUP1 ISZERO PUSH2 0x4F9 JUMPI PUSH0 DUP1 REVERT JUMPDEST POP PUSH2 0x3C9 PUSH2 0xF27 JUMP JUMPDEST CALLVALUE DUP1 ISZERO PUSH2 0x50D JUMPI PUSH0 DUP1 REVERT JUMPDEST POP PUSH2 0x3C9 PUSH2 0x51C CALLDATASIZE PUSH1 0x4 PUSH2 0x3469 JUMP JUMPDEST PUSH2 0xF5F JUMP JUMPDEST CALLVALUE DUP1 ISZERO PUSH2 0x52C JUMPI PUSH0 DUP1 REVERT JUMPDEST POP PUSH2 0x3C9 PUSH2 0x53B CALLDATASIZE PUSH1 0x4 PUSH2 0x3557 JUMP JUMPDEST PUSH2 0xF8D JUMP JUMPDEST CALLVALUE DUP1 ISZERO PUSH2 0x54B JUMPI PUSH0 DUP1 REVERT JUMPDEST POP PUSH1 0x1D SLOAD PUSH2 0x3F9 SWAP1 PUSH1 0xFF AND DUP2 JUMP JUMPDEST CALLVALUE DUP1 ISZERO PUSH2 0x564 JUMPI PUSH0 DUP1 REVERT JUMPDEST POP PUSH1 0xD SLOAD PUSH2 0x4C1 JUMP JUMPDEST CALLVALUE DUP1 ISZERO PUSH2 0x578 JUMPI PUSH0 DUP1 REVERT JUMPDEST POP PUSH1 0x20 SLOAD PUSH2 0x3F9 SWAP1 PUSH1 0x1 PUSH1 0xC8 SHL SWAP1 DIV PUSH1 0xFF AND DUP2 JUMP JUMPDEST CALLVALUE DUP1 ISZERO PUSH2 0x598 JUMPI PUSH0 DUP1 REVERT JUMPDEST POP PUSH2 0x3C9 PUSH2 0x102A JUMP JUMPDEST CALLVALUE DUP1 ISZERO PUSH2 0x5AC JUMPI PUSH0 DUP1 REVERT JUMPDEST POP PUSH2 0x3C9 PUSH2 0x5BB CALLDATASIZE PUSH1 0x4 PUSH2 0x35A9 JUMP JUMPDEST PUSH2 0x1059 JUMP JUMPDEST CALLVALUE DUP1 ISZERO PUSH2 0x5CB JUMPI PUSH0 DUP1 REVERT JUMPDEST POP PUSH1 0xE SLOAD PUSH2 0x5DF SWAP1 PUSH1 0x1 PUSH1 0x1 PUSH1 0xA0 SHL SUB AND DUP2 JUMP JUMPDEST PUSH1 0x40 MLOAD PUSH2 0x405 SWAP2 SWAP1 PUSH2 0x35E7 JUMP JUMPDEST CALLVALUE DUP1 ISZERO PUSH2 0x5F7 JUMPI PUSH0 DUP1 REVERT JUMPDEST POP PUSH1 0x4 SLOAD PUSH2 0x5DF SWAP1 PUSH1 0x1 PUSH1 0x1 PUSH1 0xA0 SHL SUB AND DUP2 JUMP JUMPDEST CALLVALUE DUP1 ISZERO PUSH2 0x616 JUMPI PUSH0 DUP1 REVERT JUMPDEST POP PUSH2 0x3C9 PUSH2 0x625 CALLDATASIZE PUSH1 0x4 PUSH2 0x35FB JUMP JUMPDEST PUSH2 0x116D JUMP JUMPDEST CALLVALUE DUP1 ISZERO PUSH2 0x635 JUMPI PUSH0 DUP1 REVERT JUMPDEST POP PUSH2 0x4C1 PUSH1 0x15 SLOAD DUP2 JUMP JUMPDEST CALLVALUE DUP1 ISZERO PUSH2 0x64A JUMPI PUSH0 DUP1 REVERT JUMPDEST POP PUSH2 0x4C1 PUSH1 0x8 SLOAD DUP2 JUMP JUMPDEST CALLVALUE DUP1 ISZERO PUSH2 0x65F JUMPI PUSH0 DUP1 REVERT JUMPDEST POP PUSH1 0x7 SLOAD PUSH2 0x4C1 JUMP JUMPDEST CALLVALUE DUP1 ISZERO PUSH2 0x673 JUMPI PUSH0 DUP1 REVERT JUMPDEST POP PUSH1 0x11 SLOAD PUSH2 0x3F9 SWAP1 PUSH1 0xFF AND DUP2 JUMP JUMPDEST CALLVALUE DUP1 ISZERO PUSH2 0x68C JUMPI PUSH0 DUP1 REVERT JUMPDEST POP PUSH2 0x3C9 PUSH2 0x69B CALLDATASIZE PUSH1 0x4 PUSH2 0x34CB JUMP JUMPDEST PUSH2 0x11F8 JUMP JUMPDEST CALLVALUE DUP1 ISZERO PUSH2 0x6AB JUMPI PUSH0 DUP1 REVERT JUMPDEST POP PUSH2 0x4C1 PUSH1 0x1A SLOAD DUP2 JUMP JUMPDEST CALLVALUE DUP1 ISZERO PUSH2 0x6C0 JUMPI PUSH0 DUP1 REVERT JUMPDEST POP PUSH2 0x3C9 PUSH2 0x6CF CALLDATASIZE PUSH1 0x4 PUSH2 0x3469 JUMP JUMPDEST PUSH2 0x123F JUMP JUMPDEST CALLVALUE DUP1 ISZERO PUSH2 0x6DF JUMPI PUSH0 DUP1 REVERT JUMPDEST POP PUSH2 0x4C1 PUSH1 0x16 SLOAD DUP2 JUMP JUMPDEST CALLVALUE DUP1 ISZERO PUSH2 0x6F4 JUMPI PUSH0 DUP1 REVERT JUMPDEST POP PUSH2 0x3F9 PUSH2 0x703 CALLDATASIZE PUSH1 0x4 PUSH2 0x3403 JUMP JUMPDEST PUSH1 0x10 PUSH1 0x20 MSTORE PUSH0 SWAP1 DUP2 MSTORE PUSH1 0x40 SWAP1 KECCAK256 SLOAD PUSH1 0xFF AND DUP2 JUMP JUMPDEST CALLVALUE DUP1 ISZERO PUSH2 0x722 JUMPI PUSH0 DUP1 REVERT JUMPDEST POP PUSH2 0x3F9 PUSH2 0x731 CALLDATASIZE PUSH1 0x4 PUSH2 0x3403 JUMP JUMPDEST PUSH1 0xC PUSH1 0x20 MSTORE PUSH0 SWAP1 DUP2 MSTORE PUSH1 0x40 SWAP1 KECCAK256 SLOAD PUSH1 0xFF AND DUP2 JUMP JUMPDEST CALLVALUE DUP1 ISZERO PUSH2 0x750 JUMPI PUSH0 DUP1 REVERT JUMPDEST POP PUSH1 0x20 SLOAD PUSH2 0x5DF SWAP1 PUSH1 0x1 PUSH1 0x1 PUSH1 0xA0 SHL SUB AND DUP2 JUMP JUMPDEST CALLVALUE DUP1 ISZERO PUSH2 0x76F JUMPI PUSH0 DUP1 REVERT JUMPDEST POP PUSH2 0x4C1 PUSH1 0x1F SLOAD DUP2 JUMP JUMPDEST CALLVALUE DUP1 ISZERO PUSH2 0x784 JUMPI PUSH0 DUP1 REVERT JUMPDEST POP PUSH2 0x4C1 PUSH2 0x793 CALLDATASIZE PUSH1 0x4 PUSH2 0x3403 JUMP JUMPDEST PUSH2 0x126D JUMP JUMPDEST CALLVALUE DUP1 ISZERO PUSH2 0x7A3 JUMPI PUSH0 DUP1 REVERT JUMPDEST POP PUSH2 0x3C9 PUSH2 0x7B2 CALLDATASIZE PUSH1 0x4 PUSH2 0x3403 JUMP JUMPDEST PUSH2 0x12A1 JUMP JUMPDEST CALLVALUE DUP1 ISZERO PUSH2 0x7C2 JUMPI PUSH0 DUP1 REVERT JUMPDEST POP PUSH2 0x4C1 PUSH1 0x1E SLOAD DUP2 JUMP JUMPDEST CALLVALUE DUP1 ISZERO PUSH2 0x7D7 JUMPI PUSH0 DUP1 REVERT JUMPDEST POP PUSH1 0x20 SLOAD PUSH2 0x3F9 SWAP1 PUSH1 0x1 PUSH1 0xA8 SHL SWAP1 DIV PUSH1 0xFF AND DUP2 JUMP JUMPDEST CALLVALUE DUP1 ISZERO PUSH2 0x7F7 JUMPI PUSH0 DUP1 REVERT JUMPDEST POP PUSH2 0x3C9 PUSH2 0x806 CALLDATASIZE PUSH1 0x4 PUSH2 0x3557 JUMP JUMPDEST PUSH2 0x12EC JUMP JUMPDEST CALLVALUE DUP1 ISZERO PUSH2 0x816 JUMPI PUSH0 DUP1 REVERT JUMPDEST POP PUSH2 0x4C1 PUSH1 0x2B SLOAD DUP2 JUMP JUMPDEST CALLVALUE DUP1 ISZERO PUSH2 0x82B JUMPI PUSH0 DUP1 REVERT JUMPDEST POP PUSH2 0x3C9 PUSH2 0x83A CALLDATASIZE PUSH1 0x4 PUSH2 0x3469 JUMP JUMPDEST PUSH2 0x13B6 JUMP JUMPDEST CALLVALUE DUP1 ISZERO PUSH2 0x84A JUMPI PUSH0 DUP1 REVERT JUMPDEST POP PUSH2 0x3C9 PUSH2 0x13E4 JUMP JUMPDEST CALLVALUE DUP1 ISZERO PUSH2 0x85E JUMPI PUSH0 DUP1 REVERT JUMPDEST POP PUSH2 0x4C1 PUSH1 0x19 SLOAD DUP2 JUMP JUMPDEST CALLVALUE DUP1 ISZERO PUSH2 0x873 JUMPI PUSH0 DUP1 REVERT JUMPDEST POP PUSH2 0x4C1 PUSH2 0x882 CALLDATASIZE PUSH1 0x4 PUSH2 0x3403 JUMP JUMPDEST PUSH2 0x141C JUMP JUMPDEST CALLVALUE DUP1 ISZERO PUSH2 0x892 JUMPI PUSH0 DUP1 REVERT JUMPDEST POP PUSH2 0x3C9 PUSH2 0x14C2 JUMP JUMPDEST CALLVALUE DUP1 ISZERO PUSH2 0x8A6 JUMPI PUSH0 DUP1 REVERT JUMPDEST POP PUSH2 0x3C9 PUSH2 0x8B5 CALLDATASIZE PUSH1 0x4 PUSH2 0x3469 JUMP JUMPDEST PUSH2 0x1520 JUMP JUMPDEST CALLVALUE DUP1 ISZERO PUSH2 0x8C5 JUMPI PUSH0 DUP1 REVERT JUMPDEST POP PUSH2 0x3C9 PUSH2 0x8D4 CALLDATASIZE PUSH1 0x4 PUSH2 0x3469 JUMP JUMPDEST PUSH2 0x1589 JUMP JUMPDEST CALLVALUE DUP1 ISZERO PUSH2 0x8E4 JUMPI PUSH0 DUP1 REVERT JUMPDEST POP PUSH2 0x3C9 PUSH2 0x8F3 CALLDATASIZE PUSH1 0x4 PUSH2 0x3403 JUMP JUMPDEST PUSH2 0x15B7 JUMP JUMPDEST CALLVALUE DUP1 ISZERO PUSH2 0x903 JUMPI PUSH0 DUP1 REVERT JUMPDEST POP PUSH2 0x4C1 PUSH1 0x23 SLOAD DUP2 JUMP JUMPDEST CALLVALUE DUP1 ISZERO PUSH2 0x918 JUMPI PUSH0 DUP1 REVERT JUMPDEST POP PUSH1 0x11 SLOAD PUSH2 0x5DF SWAP1 PUSH3 0x10000 SWAP1 DIV PUSH1 0x1 PUSH1 0x1 PUSH1 0xA0 SHL SUB AND DUP2 JUMP JUMPDEST CALLVALUE DUP1 ISZERO PUSH2 0x93D JUMPI PUSH0 DUP1 REVERT JUMPDEST POP PUSH2 0x3C9 PUSH2 0x94C CALLDATASIZE PUSH1 0x4 PUSH2 0x3432 JUMP JUMPDEST PUSH2 0x165D JUMP JUMPDEST CALLVALUE DUP1 ISZERO PUSH2 0x95C JUMPI PUSH0 DUP1 REVERT JUMPDEST POP PUSH0 SLOAD PUSH1 0x1 PUSH1 0x1 PUSH1 0xA0 SHL SUB AND PUSH2 0x5DF JUMP JUMPDEST CALLVALUE DUP1 ISZERO PUSH2 0x978 JUMPI PUSH0 DUP1 REVERT JUMPDEST POP PUSH2 0x4C1 PUSH1 0x22 SLOAD DUP2 JUMP JUMPDEST CALLVALUE DUP1 ISZERO PUSH2 0x98D JUMPI PUSH0 DUP1 REVERT JUMPDEST POP PUSH2 0x480 PUSH2 0x16B0 JUMP JUMPDEST CALLVALUE DUP1 ISZERO PUSH2 0x9A1 JUMPI PUSH0 DUP1 REVERT JUMPDEST POP PUSH2 0x3C9 PUSH2 0x16BF JUMP JUMPDEST CALLVALUE DUP1 ISZERO PUSH2 0x9B5 JUMPI PUSH0 DUP1 REVERT JUMPDEST POP PUSH2 0x5DF PUSH2 0x9C4 CALLDATASIZE PUSH1 0x4 PUSH2 0x3469 JUMP JUMPDEST PUSH2 0x16FA JUMP JUMPDEST CALLVALUE DUP1 ISZERO PUSH2 0x9D4 JUMPI PUSH0 DUP1 REVERT JUMPDEST POP PUSH2 0x3C9 PUSH2 0x9E3 CALLDATASIZE PUSH1 0x4 PUSH2 0x3432 JUMP JUMPDEST PUSH2 0x1722 JUMP JUMPDEST CALLVALUE DUP1 ISZERO PUSH2 0x9F3 JUMPI PUSH0 DUP1 REVERT JUMPDEST POP PUSH2 0x3F9 PUSH2 0xA02 CALLDATASIZE PUSH1 0x4 PUSH2 0x34E6 JUMP JUMPDEST PUSH2 0x1775 JUMP JUMPDEST CALLVALUE DUP1 ISZERO PUSH2 0xA12 JUMPI PUSH0 DUP1 REVERT JUMPDEST POP PUSH2 0x4C1 PUSH1 0x9 SLOAD DUP2 JUMP JUMPDEST CALLVALUE DUP1 ISZERO PUSH2 0xA27 JUMPI PUSH0 DUP1 REVERT JUMPDEST POP PUSH2 0x3C9 PUSH2 0xA36 CALLDATASIZE PUSH1 0x4 PUSH2 0x35A9 JUMP JUMPDEST PUSH2 0x178B JUMP JUMPDEST CALLVALUE DUP1 ISZERO PUSH2 0xA46 JUMPI PUSH0 DUP1 REVERT JUMPDEST POP PUSH2 0x4C1 PUSH1 0x17 SLOAD DUP2 JUMP JUMPDEST CALLVALUE DUP1 ISZERO PUSH2 0xA5B JUMPI PUSH0 DUP1 REVERT JUMPDEST POP PUSH1 0x20 SLOAD PUSH2 0x3F9 SWAP1 PUSH1 0x1 PUSH1 0xB0 SHL SWAP1 DIV PUSH1 0xFF AND DUP2 JUMP JUMPDEST CALLVALUE DUP1 ISZERO PUSH2 0xA7B JUMPI PUSH0 DUP1 REVERT JUMPDEST POP PUSH2 0x3C9 PUSH2 0xA8A CALLDATASIZE PUSH1 0x4 PUSH2 0x34E6 JUMP JUMPDEST PUSH2 0x199E JUMP JUMPDEST CALLVALUE DUP1 ISZERO PUSH2 0xA9A JUMPI PUSH0 DUP1 REVERT JUMPDEST POP PUSH2 0x4C1 PUSH1 0x13 SLOAD DUP2 JUMP JUMPDEST CALLVALUE DUP1 ISZERO PUSH2 0xAAF JUMPI PUSH0 DUP1 REVERT JUMPDEST POP PUSH2 0x3C9 PUSH2 0xABE CALLDATASIZE PUSH1 0x4 PUSH2 0x3403 JUMP JUMPDEST PUSH2 0x1A9C JUMP JUMPDEST CALLVALUE DUP1 ISZERO PUSH2 0xACE JUMPI PUSH0 DUP1 REVERT JUMPDEST POP PUSH2 0x3C9 PUSH2 0xADD CALLDATASIZE PUSH1 0x4 PUSH2 0x3469 JUMP JUMPDEST PUSH2 0x1AE7 JUMP JUMPDEST CALLVALUE DUP1 ISZERO PUSH2 0xAED JUMPI PUSH0 DUP1 REVERT JUMPDEST POP PUSH2 0x3F9 PUSH2 0xAFC CALLDATASIZE PUSH1 0x4 PUSH2 0x3403 JUMP JUMPDEST PUSH1 0xB PUSH1 0x20 MSTORE PUSH0 SWAP1 DUP2 MSTORE PUSH1 0x40 SWAP1 KECCAK256 SLOAD PUSH1 0xFF AND DUP2 JUMP JUMPDEST CALLVALUE DUP1 ISZERO PUSH2 0xB1B JUMPI PUSH0 DUP1 REVERT JUMPDEST POP PUSH2 0x4C1 PUSH1 0x18 SLOAD DUP2 JUMP JUMPDEST CALLVALUE DUP1 ISZERO PUSH2 0xB30 JUMPI PUSH0 DUP1 REVERT JUMPDEST POP PUSH2 0x4C1 PUSH1 0x1B SLOAD DUP2 JUMP JUMPDEST CALLVALUE DUP1 ISZERO PUSH2 0xB45 JUMPI PUSH0 DUP1 REVERT JUMPDEST POP PUSH2 0x3C9 PUSH2 0xB54 CALLDATASIZE PUSH1 0x4 PUSH2 0x3469 JUMP JUMPDEST PUSH2 0x1B51 JUMP JUMPDEST CALLVALUE DUP1 ISZERO PUSH2 0xB64 JUMPI PUSH0 DUP1 REVERT JUMPDEST POP PUSH1 0x20 SLOAD PUSH2 0x3F9 SWAP1 PUSH1 0x1 PUSH1 0xA0 SHL SWAP1 DIV PUSH1 0xFF AND DUP2 JUMP JUMPDEST CALLVALUE DUP1 ISZERO PUSH2 0xB84 JUMPI PUSH0 DUP1 REVERT JUMPDEST POP PUSH2 0x4C1 PUSH1 0x12 SLOAD DUP2 JUMP JUMPDEST CALLVALUE DUP1 ISZERO PUSH2 0xB99 JUMPI PUSH0 DUP1 REVERT JUMPDEST POP PUSH1 0x20 SLOAD PUSH2 0x3F9 SWAP1 PUSH1 0x1 PUSH1 0xC0 SHL SWAP1 DIV PUSH1 0xFF AND DUP2 JUMP JUMPDEST CALLVALUE DUP1 ISZERO PUSH2 0xBB9 JUMPI PUSH0 DUP1 REVERT JUMPDEST POP PUSH2 0x4C1 PUSH2 0xBC8 CALLDATASIZE PUSH1 0x4 PUSH2 0x3639 JUMP JUMPDEST PUSH1 0x1 PUSH1 0x1 PUSH1 0xA0 SHL SUB SWAP2 DUP3 AND PUSH0 SWAP1 DUP2 MSTORE PUSH1 0x2 PUSH1 0x20 SWAP1 DUP2 MSTORE PUSH1 0x40 DUP1 DUP4 KECCAK256 SWAP4 SWAP1 SWAP5 AND DUP3 MSTORE SWAP2 SWAP1 SWAP2 MSTORE KECCAK256 SLOAD SWAP1 JUMP JUMPDEST CALLVALUE DUP1 ISZERO PUSH2 0xBFD JUMPI PUSH0 DUP1 REVERT JUMPDEST POP PUSH2 0x4C1 PUSH1 0x1C SLOAD DUP2 JUMP JUMPDEST CALLVALUE DUP1 ISZERO PUSH2 0xC12 JUMPI PUSH0 DUP1 REVERT JUMPDEST POP PUSH1 0xF SLOAD PUSH2 0x5DF SWAP1 PUSH1 0x1 PUSH1 0x1 PUSH1 0xA0 SHL SUB AND DUP2 JUMP JUMPDEST CALLVALUE DUP1 ISZERO PUSH2 0xC31 JUMPI PUSH0 DUP1 REVERT JUMPDEST POP PUSH2 0x3C9 PUSH2 0xC40 CALLDATASIZE PUSH1 0x4 PUSH2 0x3469 JUMP JUMPDEST PUSH2 0x1B7F JUMP JUMPDEST CALLVALUE DUP1 ISZERO PUSH2 0xC50 JUMPI PUSH0 DUP1 REVERT JUMPDEST POP PUSH1 0x3 SLOAD PUSH2 0x5DF SWAP1 PUSH1 0x1 PUSH1 0x1 PUSH1 0xA0 SHL SUB AND DUP2 JUMP JUMPDEST CALLVALUE DUP1 ISZERO PUSH2 0xC6F JUMPI PUSH0 DUP1 REVERT JUMPDEST POP PUSH2 0x3C9 PUSH2 0xC7E CALLDATASIZE PUSH1 0x4 PUSH2 0x34CB JUMP JUMPDEST PUSH2 0x1BE6 JUMP JUMPDEST CALLVALUE DUP1 ISZERO PUSH2 0xC8E JUMPI PUSH0 DUP1 REVERT JUMPDEST POP PUSH2 0x4C1 PUSH1 0x29 SLOAD DUP2 JUMP JUMPDEST CALLVALUE DUP1 ISZERO PUSH2 0xCA3 JUMPI PUSH0 DUP1 REVERT JUMPDEST POP PUSH2 0x3C9 PUSH2 0xCB2 CALLDATASIZE PUSH1 0x4 PUSH2 0x3403 JUMP JUMPDEST PUSH2 0x1C22 JUMP JUMPDEST CALLVALUE DUP1 ISZERO PUSH2 0xCC2 JUMPI PUSH0 DUP1 REVERT JUMPDEST POP PUSH2 0x4C1 PUSH1 0x24 SLOAD DUP2 JUMP JUMPDEST CALLVALUE DUP1 ISZERO PUSH2 0xCD7 JUMPI PUSH0 DUP1 REVERT JUMPDEST POP PUSH2 0x3C9 PUSH2 0xCE6 CALLDATASIZE PUSH1 0x4 PUSH2 0x3403 JUMP JUMPDEST PUSH2 0x1C73 JUMP JUMPDEST CALLVALUE DUP1 ISZERO PUSH2 0xCF6 JUMPI PUSH0 DUP1 REVERT JUMPDEST POP PUSH1 0x1D SLOAD PUSH2 0x5DF SWAP1 PUSH2 0x100 SWAP1 DIV PUSH1 0x1 PUSH1 0x1 PUSH1 0xA0 SHL SUB AND DUP2 JUMP JUMPDEST PUSH0 SLOAD PUSH1 0x1 PUSH1 0x1 PUSH1 0xA0 SHL SUB AND CALLER EQ PUSH2 0xD41 JUMPI PUSH1 0x40 MLOAD PUSH3 0x461BCD PUSH1 0xE5 SHL DUP2 MSTORE PUSH1 0x4 ADD PUSH2 0xD38 SWAP1 PUSH2 0x3665 JUMP JUMPDEST PUSH1 0x40 MLOAD DUP1 SWAP2 SUB SWAP1 REVERT JUMPDEST PUSH1 0x1E SLOAD ISZERO PUSH2 0xD7A JUMPI PUSH1 0x40 MLOAD PUSH3 0x461BCD PUSH1 0xE5 SHL DUP2 MSTORE PUSH1 0x20 PUSH1 0x4 DUP3 ADD MSTORE PUSH1 0x6 PUSH1 0x24 DUP3 ADD MSTORE PUSH6 0x1BDC195B9959 PUSH1 0xD2 SHL PUSH1 0x44 DUP3 ADD MSTORE PUSH1 0x64 ADD PUSH2 0xD38 JUMP JUMPDEST NUMBER PUSH1 0x1E SSTORE JUMP JUMPDEST PUSH0 SLOAD PUSH1 0x1 PUSH1 0x1 PUSH1 0xA0 SHL SUB AND CALLER EQ PUSH2 0xDA9 JUMPI PUSH1 0x40 MLOAD PUSH3 0x461BCD PUSH1 0xE5 SHL DUP2 MSTORE PUSH1 0x4 ADD PUSH2 0xD38 SWAP1 PUSH2 0x3665 JUMP JUMPDEST PUSH1 0x1 PUSH1 0x1 PUSH1 0xA0 SHL SUB SWAP2 SWAP1 SWAP2 AND PUSH0 SWAP1 DUP2 MSTORE PUSH1 0x27 PUSH1 0x20 MSTORE PUSH1 0x40 SWAP1 KECCAK256 DUP1 SLOAD PUSH1 0xFF NOT AND SWAP2 ISZERO ISZERO SWAP2 SWAP1 SWAP2 OR SWAP1 SSTORE JUMP JUMPDEST PUSH0 SLOAD PUSH1 0x1 PUSH1 0x1 PUSH1 0xA0 SHL SUB AND CALLER EQ PUSH2 0xDFC JUMPI PUSH1 0x40 MLOAD PUSH3 0x461BCD PUSH1 0xE5 SHL DUP2 MSTORE PUSH1 0x4 ADD PUSH2 0xD38 SWAP1 PUSH2 0x3665 JUMP JUMPDEST DUP1 PUSH0 SUB PUSH2 0xE3C JUMPI PUSH1 0x40 MLOAD PUSH3 0x461BCD PUSH1 0xE5 SHL DUP2 MSTORE PUSH1 0x20 PUSH1 0x4 DUP3 ADD MSTORE PUSH1 0xE PUSH1 0x24 DUP3 ADD MSTORE PUSH14 0x67726561746572207468616E203 PUSH1 0x94 SHL PUSH1 0x44 DUP3 ADD MSTORE PUSH1 0x64 ADD PUSH2 0xD38 JUMP JUMPDEST PUSH1 0x22 SSTORE JUMP JUMPDEST PUSH1 0x60 PUSH1 0x5 DUP1 SLOAD PUSH2 0xE50 SWAP1 PUSH2 0x3685 JUMP JUMPDEST DUP1 PUSH1 0x1F ADD PUSH1 0x20 DUP1 SWAP2 DIV MUL PUSH1 0x20 ADD PUSH1 0x40 MLOAD SWAP1 DUP2 ADD PUSH1 0x40 MSTORE DUP1 SWAP3 SWAP2 SWAP1 DUP2 DUP2 MSTORE PUSH1 0x20 ADD DUP3 DUP1 SLOAD PUSH2 0xE7C SWAP1 PUSH2 0x3685 JUMP JUMPDEST DUP1 ISZERO PUSH2 0xEC7 JUMPI DUP1 PUSH1 0x1F LT PUSH2 0xE9E JUMPI PUSH2 0x100 DUP1 DUP4 SLOAD DIV MUL DUP4 MSTORE SWAP2 PUSH1 0x20 ADD SWAP2 PUSH2 0xEC7 JUMP JUMPDEST DUP3 ADD SWAP2 SWAP1 PUSH0 MSTORE PUSH1 0x20 PUSH0 KECCAK256 SWAP1 JUMPDEST DUP2 SLOAD DUP2 MSTORE SWAP1 PUSH1 0x1 ADD SWAP1 PUSH1 0x20 ADD DUP1 DUP4 GT PUSH2 0xEAA JUMPI DUP3 SWAP1 SUB PUSH1 0x1F AND DUP3 ADD SWAP2 JUMPDEST POP POP POP POP POP SWAP1 POP SWAP1 JUMP JUMPDEST PUSH0 SLOAD PUSH1 0x1 PUSH1 0x1 PUSH1 0xA0 SHL SUB AND CALLER EQ PUSH2 0xEFA JUMPI PUSH1 0x40 MLOAD PUSH3 0x461BCD PUSH1 0xE5 SHL DUP2 MSTORE PUSH1 0x4 ADD PUSH2 0xD38 SWAP1 PUSH2 0x3665 JUMP JUMPDEST PUSH1 0x20 DUP1 SLOAD SWAP2 ISZERO ISZERO PUSH1 0x1 PUSH1 0xC8 SHL MUL PUSH1 0xFF PUSH1 0xC8 SHL NOT SWAP1 SWAP3 AND SWAP2 SWAP1 SWAP2 OR SWAP1 SSTORE JUMP JUMPDEST PUSH2 0xF23 CALLER DUP4 DUP4 PUSH2 0x1D23 JUMP JUMPDEST POP POP JUMP JUMPDEST PUSH0 SLOAD PUSH1 0x1 PUSH1 0x1 PUSH1 0xA0 SHL SUB AND CALLER EQ PUSH2 0xF50 JUMPI PUSH1 0x40 MLOAD PUSH3 0x461BCD PUSH1 0xE5 SHL DUP2 MSTORE PUSH1 0x4 ADD PUSH2 0xD38 SWAP1 PUSH2 0x3665 JUMP JUMPDEST PUSH1 0x20 DUP1 SLOAD PUSH1 0xFF PUSH1 0xC0 SHL NOT AND SWAP1 SSTORE JUMP JUMPDEST PUSH0 SLOAD PUSH1 0x1 PUSH1 0x1 PUSH1 0xA0 SHL SUB AND CALLER EQ PUSH2 0xF88 JUMPI PUSH1 0x40 MLOAD PUSH3 0x461BCD PUSH1 0xE5 SHL DUP2 MSTORE PUSH1 0x4 ADD PUSH2 0xD38 SWAP1 PUSH2 0x3665 JUMP JUMPDEST PUSH1 0x8 SSTORE JUMP JUMPDEST PUSH0 SLOAD PUSH1 0x1 PUSH1 0x1 PUSH1 0xA0 SHL SUB AND CALLER EQ PUSH2 0xFB6 JUMPI PUSH1 0x40 MLOAD PUSH3 0x461BCD PUSH1 0xE5 SHL DUP2 MSTORE PUSH1 0x4 ADD PUSH2 0xD38 SWAP1 PUSH2 0x3665 JUMP JUMPDEST PUSH0 JUMPDEST DUP3 DUP2 LT ISZERO PUSH2 0x1024 JUMPI DUP2 PUSH1 0xA PUSH0 DUP7 DUP7 DUP6 DUP2 DUP2 LT PUSH2 0xFD6 JUMPI PUSH2 0xFD6 PUSH2 0x36BD JUMP JUMPDEST SWAP1 POP PUSH1 0x20 MUL ADD PUSH1 0x20 DUP2 ADD SWAP1 PUSH2 0xFEB SWAP2 SWAP1 PUSH2 0x3403 JUMP JUMPDEST PUSH1 0x1 PUSH1 0x1 PUSH1 0xA0 SHL SUB AND DUP2 MSTORE PUSH1 0x20 DUP2 ADD SWAP2 SWAP1 SWAP2 MSTORE PUSH1 0x40 ADD PUSH0 KECCAK256 DUP1 SLOAD PUSH1 0xFF NOT AND SWAP2 ISZERO ISZERO SWAP2 SWAP1 SWAP2 OR SWAP1 SSTORE DUP1 PUSH2 0x101C DUP2 PUSH2 0x36E5 JUMP JUMPDEST SWAP2 POP POP PUSH2 0xFB8 JUMP JUMPDEST POP POP POP POP JUMP JUMPDEST PUSH0 SLOAD PUSH1 0x1 PUSH1 0x1 PUSH1 0xA0 SHL SUB AND CALLER EQ PUSH2 0x1053 JUMPI PUSH1 0x40 MLOAD PUSH3 0x461BCD PUSH1 0xE5 SHL DUP2 MSTORE PUSH1 0x4 ADD PUSH2 0xD38 SWAP1 PUSH2 0x3665 JUMP JUMPDEST PUSH0 PUSH1 0x1F SSTORE JUMP JUMPDEST PUSH0 SLOAD PUSH1 0x1 PUSH1 0x1 PUSH1 0xA0 SHL SUB AND CALLER EQ PUSH2 0x1082 JUMPI PUSH1 0x40 MLOAD PUSH3 0x461BCD PUSH1 0xE5 SHL DUP2 MSTORE PUSH1 0x4 ADD PUSH2 0xD38 SWAP1 PUSH2 0x3665 JUMP JUMPDEST PUSH0 JUMPDEST DUP2 DUP2 LT ISZERO PUSH2 0x1168 JUMPI PUSH1 0x20 SLOAD PUSH0 SWAP1 PUSH1 0x1 PUSH1 0x1 PUSH1 0xA0 SHL SUB AND PUSH4 0x70A08231 DUP6 DUP6 DUP6 DUP2 DUP2 LT PUSH2 0x10B1 JUMPI PUSH2 0x10B1 PUSH2 0x36BD JUMP JUMPDEST SWAP1 POP PUSH1 0x20 MUL ADD PUSH1 0x20 DUP2 ADD SWAP1 PUSH2 0x10C6 SWAP2 SWAP1 PUSH2 0x3403 JUMP JUMPDEST PUSH1 0x40 MLOAD DUP3 PUSH4 0xFFFFFFFF AND PUSH1 0xE0 SHL DUP2 MSTORE PUSH1 0x4 ADD PUSH2 0x10E2 SWAP2 SWAP1 PUSH2 0x35E7 JUMP JUMPDEST PUSH1 0x20 PUSH1 0x40 MLOAD DUP1 DUP4 SUB DUP2 DUP7 GAS STATICCALL ISZERO DUP1 ISZERO PUSH2 0x10FD JUMPI RETURNDATASIZE PUSH0 DUP1 RETURNDATACOPY RETURNDATASIZE PUSH0 REVERT JUMPDEST POP POP POP POP PUSH1 0x40 MLOAD RETURNDATASIZE PUSH1 0x1F NOT PUSH1 0x1F DUP3 ADD AND DUP3 ADD DUP1 PUSH1 0x40 MSTORE POP DUP2 ADD SWAP1 PUSH2 0x1121 SWAP2 SWAP1 PUSH2 0x36FD JUMP JUMPDEST GT ISZERO PUSH2 0x1156 JUMPI PUSH2 0x1156 DUP4 DUP4 DUP4 DUP2 DUP2 LT PUSH2 0x113C JUMPI PUSH2 0x113C PUSH2 0x36BD JUMP JUMPDEST SWAP1 POP PUSH1 0x20 MUL ADD PUSH1 0x20 DUP2 ADD SWAP1 PUSH2 0x1151 SWAP2 SWAP1 PUSH2 0x3403 JUMP JUMPDEST PUSH2 0x1D84 JUMP JUMPDEST DUP1 PUSH2 0x1160 DUP2 PUSH2 0x36E5 JUMP JUMPDEST SWAP2 POP POP PUSH2 0x1084 JUMP JUMPDEST POP POP POP JUMP JUMPDEST PUSH2 0x1178 DUP4 DUP4 DUP4 PUSH2 0x1E50 JUMP JUMPDEST PUSH1 0x1 PUSH1 0x1 PUSH1 0xA0 SHL SUB DUP4 AND PUSH0 SWAP1 DUP2 MSTORE PUSH1 0x2 PUSH1 0x20 SWAP1 DUP2 MSTORE PUSH1 0x40 DUP1 DUP4 KECCAK256 CALLER DUP5 MSTORE SWAP1 SWAP2 MSTORE SWAP1 KECCAK256 SLOAD PUSH0 NOT EQ PUSH2 0x1168 JUMPI PUSH1 0x1 PUSH1 0x1 PUSH1 0xA0 SHL SUB DUP4 AND PUSH0 SWAP1 DUP2 MSTORE PUSH1 0x2 PUSH1 0x20 SWAP1 DUP2 MSTORE PUSH1 0x40 DUP1 DUP4 KECCAK256 CALLER DUP5 MSTORE SWAP1 SWAP2 MSTORE SWAP1 KECCAK256 SLOAD PUSH2 0x11D0 SWAP1 DUP3 SWAP1 PUSH2 0x3714 JUMP JUMPDEST PUSH1 0x1 PUSH1 0x1 PUSH1 0xA0 SHL SUB DUP5 AND PUSH0 SWAP1 DUP2 MSTORE PUSH1 0x2 PUSH1 0x20 SWAP1 DUP2 MSTORE PUSH1 0x40 DUP1 DUP4 KECCAK256 CALLER DUP5 MSTORE SWAP1 SWAP2 MSTORE SWAP1 KECCAK256 SSTORE POP POP POP JUMP JUMPDEST PUSH0 SLOAD PUSH1 0x1 PUSH1 0x1 PUSH1 0xA0 SHL SUB AND CALLER EQ PUSH2 0x1221 JUMPI PUSH1 0x40 MLOAD PUSH3 0x461BCD PUSH1 0xE5 SHL DUP2 MSTORE PUSH1 0x4 ADD PUSH2 0xD38 SWAP1 PUSH2 0x3665 JUMP JUMPDEST PUSH1 0x20 DUP1 SLOAD SWAP2 ISZERO ISZERO PUSH1 0x1 PUSH1 0xA0 SHL MUL PUSH1 0xFF PUSH1 0xA0 SHL NOT SWAP1 SWAP3 AND SWAP2 SWAP1 SWAP2 OR SWAP1 SSTORE JUMP JUMPDEST PUSH0 SLOAD PUSH1 0x1 PUSH1 0x1 PUSH1 0xA0 SHL SUB AND CALLER EQ PUSH2 0x1268 JUMPI PUSH1 0x40 MLOAD PUSH3 0x461BCD PUSH1 0xE5 SHL DUP2 MSTORE PUSH1 0x4 ADD PUSH2 0xD38 SWAP1 PUSH2 0x3665 JUMP JUMPDEST PUSH1 0x2B SSTORE JUMP JUMPDEST PUSH1 0x1 PUSH1 0x1 PUSH1 0xA0 SHL SUB DUP2 AND PUSH0 SWAP1 DUP2 MSTORE PUSH1 0xB PUSH1 0x20 MSTORE PUSH1 0x40 DUP2 KECCAK256 SLOAD PUSH1 0xFF AND ISZERO PUSH2 0x1295 JUMPI POP PUSH1 0x1 SWAP2 SWAP1 POP JUMP JUMPDEST POP PUSH0 SWAP2 SWAP1 POP JUMP JUMPDEST SWAP2 SWAP1 POP JUMP JUMPDEST PUSH0 SLOAD PUSH1 0x1 PUSH1 0x1 PUSH1 0xA0 SHL SUB AND CALLER EQ PUSH2 0x12CA JUMPI PUSH1 0x40 MLOAD PUSH3 0x461BCD PUSH1 0xE5 SHL DUP2 MSTORE PUSH1 0x4 ADD PUSH2 0xD38 SWAP1 PUSH2 0x3665 JUMP JUMPDEST PUSH1 0xF DUP1 SLOAD PUSH1 0x1 PUSH1 0x1 PUSH1 0xA0 SHL SUB NOT AND PUSH1 0x1 PUSH1 0x1 PUSH1 0xA0 SHL SUB SWAP3 SWAP1 SWAP3 AND SWAP2 SWAP1 SWAP2 OR SWAP1 SSTORE JUMP JUMPDEST PUSH0 SLOAD PUSH1 0x1 PUSH1 0x1 PUSH1 0xA0 SHL SUB AND CALLER EQ PUSH2 0x1315 JUMPI PUSH1 0x40 MLOAD PUSH3 0x461BCD PUSH1 0xE5 SHL DUP2 MSTORE PUSH1 0x4 ADD PUSH2 0xD38 SWAP1 PUSH2 0x3665 JUMP JUMPDEST PUSH1 0x20 SLOAD PUSH1 0x1 PUSH1 0xB0 SHL SWAP1 DIV PUSH1 0xFF AND PUSH2 0x133E JUMPI PUSH1 0x40 MLOAD PUSH3 0x461BCD PUSH1 0xE5 SHL DUP2 MSTORE PUSH1 0x4 ADD PUSH2 0xD38 SWAP1 PUSH2 0x3727 JUMP JUMPDEST PUSH1 0xC9 DUP3 LT PUSH2 0x134A JUMPI PUSH0 DUP1 REVERT JUMPDEST PUSH0 JUMPDEST DUP3 DUP2 LT ISZERO PUSH2 0x1024 JUMPI DUP2 PUSH1 0xB PUSH0 DUP7 DUP7 DUP6 DUP2 DUP2 LT PUSH2 0x136A JUMPI PUSH2 0x136A PUSH2 0x36BD JUMP JUMPDEST SWAP1 POP PUSH1 0x20 MUL ADD PUSH1 0x20 DUP2 ADD SWAP1 PUSH2 0x137F SWAP2 SWAP1 PUSH2 0x3403 JUMP JUMPDEST PUSH1 0x1 PUSH1 0x1 PUSH1 0xA0 SHL SUB AND DUP2 MSTORE PUSH1 0x20 DUP2 ADD SWAP2 SWAP1 SWAP2 MSTORE PUSH1 0x40 ADD PUSH0 KECCAK256 DUP1 SLOAD PUSH1 0xFF NOT AND SWAP2 ISZERO ISZERO SWAP2 SWAP1 SWAP2 OR SWAP1 SSTORE PUSH2 0x13AF DUP2 PUSH2 0x36E5 JUMP JUMPDEST SWAP1 POP PUSH2 0x134C JUMP JUMPDEST PUSH0 SLOAD PUSH1 0x1 PUSH1 0x1 PUSH1 0xA0 SHL SUB AND CALLER EQ PUSH2 0x13DF JUMPI PUSH1 0x40 MLOAD PUSH3 0x461BCD PUSH1 0xE5 SHL DUP2 MSTORE PUSH1 0x4 ADD PUSH2 0xD38 SWAP1 PUSH2 0x3665 JUMP JUMPDEST PUSH1 0x23 SSTORE JUMP JUMPDEST PUSH0 SLOAD PUSH1 0x1 PUSH1 0x1 PUSH1 0xA0 SHL SUB AND CALLER EQ PUSH2 0x140D JUMPI PUSH1 0x40 MLOAD PUSH3 0x461BCD PUSH1 0xE5 SHL DUP2 MSTORE PUSH1 0x4 ADD PUSH2 0xD38 SWAP1 PUSH2 0x3665 JUMP JUMPDEST PUSH1 0x20 DUP1 SLOAD PUSH1 0xFF PUSH1 0xB8 SHL NOT AND SWAP1 SSTORE JUMP JUMPDEST PUSH1 0x20 SLOAD PUSH0 SWAP1 PUSH1 0x1 PUSH1 0x1 PUSH1 0xA0 SHL SUB DUP4 DUP2 AND SWAP2 AND EQ DUP1 ISZERO PUSH2 0x1445 JUMPI POP PUSH1 0x20 SLOAD PUSH1 0x1 PUSH1 0x1 PUSH1 0xA0 SHL SUB AND CALLER EQ JUMPDEST DUP1 ISZERO PUSH2 0x1453 JUMPI POP PUSH1 0x11 SLOAD PUSH1 0xFF AND JUMPDEST ISZERO PUSH2 0x14A7 JUMPI PUSH1 0x20 DUP1 SLOAD PUSH1 0x1 PUSH1 0x1 PUSH1 0xA0 SHL SUB AND PUSH0 SWAP1 DUP2 MSTORE PUSH1 0x1 SWAP1 SWAP2 MSTORE PUSH1 0x40 SWAP1 KECCAK256 SLOAD PUSH2 0x14A7 JUMPI PUSH1 0x40 MLOAD PUSH3 0x461BCD PUSH1 0xE5 SHL DUP2 MSTORE PUSH1 0x20 PUSH1 0x4 DUP3 ADD MSTORE PUSH1 0x5 PUSH1 0x24 DUP3 ADD MSTORE PUSH5 0x2173796E63 PUSH1 0xD8 SHL PUSH1 0x44 DUP3 ADD MSTORE PUSH1 0x64 ADD PUSH2 0xD38 JUMP JUMPDEST POP PUSH1 0x1 PUSH1 0x1 PUSH1 0xA0 SHL SUB AND PUSH0 SWAP1 DUP2 MSTORE PUSH1 0x1 PUSH1 0x20 MSTORE PUSH1 0x40 SWAP1 KECCAK256 SLOAD SWAP1 JUMP JUMPDEST PUSH0 SLOAD PUSH1 0x1 PUSH1 0x1 PUSH1 0xA0 SHL SUB AND CALLER EQ PUSH2 0x14EB JUMPI PUSH1 0x40 MLOAD PUSH3 0x461BCD PUSH1 0xE5 SHL DUP2 MSTORE PUSH1 0x4 ADD PUSH2 0xD38 SWAP1 PUSH2 0x3665 JUMP JUMPDEST PUSH0 DUP1 SLOAD PUSH1 0x40 MLOAD PUSH1 0x1 PUSH1 0x1 PUSH1 0xA0 SHL SUB SWAP1 SWAP2 AND SWAP1 PUSH0 DUP1 MLOAD PUSH1 0x20 PUSH2 0x3929 DUP4 CODECOPY DUP2 MLOAD SWAP2 MSTORE SWAP1 DUP4 SWAP1 LOG3 PUSH0 DUP1 SLOAD PUSH1 0x1 PUSH1 0x1 PUSH1 0xA0 SHL SUB NOT AND SWAP1 SSTORE JUMP JUMPDEST PUSH0 SLOAD PUSH1 0x1 PUSH1 0x1 PUSH1 0xA0 SHL SUB AND CALLER EQ PUSH2 0x1549 JUMPI PUSH1 0x40 MLOAD PUSH3 0x461BCD PUSH1 0xE5 SHL DUP2 MSTORE PUSH1 0x4 ADD PUSH2 0xD38 SWAP1 PUSH2 0x3665 JUMP JUMPDEST PUSH2 0x9C4 DUP2 GT ISZERO PUSH2 0x1584 JUMPI PUSH1 0x40 MLOAD PUSH3 0x461BCD PUSH1 0xE5 SHL DUP2 MSTORE PUSH1 0x4 ADD PUSH2 0xD38 SWAP1 PUSH1 0x20 DUP1 DUP3 MSTORE PUSH1 0x4 SWAP1 DUP3 ADD MSTORE PUSH4 0x3E323521 PUSH1 0xE0 SHL PUSH1 0x40 DUP3 ADD MSTORE PUSH1 0x60 ADD SWAP1 JUMP JUMPDEST PUSH1 0x1A SSTORE JUMP JUMPDEST PUSH0 SLOAD PUSH1 0x1 PUSH1 0x1 PUSH1 0xA0 SHL SUB AND CALLER EQ PUSH2 0x15B2 JUMPI PUSH1 0x40 MLOAD PUSH3 0x461BCD PUSH1 0xE5 SHL DUP2 MSTORE PUSH1 0x4 ADD PUSH2 0xD38 SWAP1 PUSH2 0x3665 JUMP JUMPDEST PUSH1 0x9 SSTORE JUMP JUMPDEST PUSH0 SLOAD PUSH1 0x1 PUSH1 0x1 PUSH1 0xA0 SHL SUB AND CALLER EQ PUSH2 0x15E0 JUMPI PUSH1 0x40 MLOAD PUSH3 0x461BCD PUSH1 0xE5 SHL DUP2 MSTORE PUSH1 0x4 ADD PUSH2 0xD38 SWAP1 PUSH2 0x3665 JUMP JUMPDEST DUP1 EXTCODESIZE PUSH4 0xFFFFFFFF AND ISZERO PUSH2 0x1624 JUMPI PUSH1 0x40 MLOAD PUSH3 0x461BCD PUSH1 0xE5 SHL DUP2 MSTORE PUSH1 0x20 PUSH1 0x4 DUP3 ADD MSTORE PUSH1 0xC PUSH1 0x24 DUP3 ADD MSTORE PUSH12 0x37379031B7B73A3930B1BA1 PUSH1 0xA5 SHL PUSH1 0x44 DUP3 ADD MSTORE PUSH1 0x64 ADD PUSH2 0xD38 JUMP JUMPDEST PUSH1 0x3 DUP1 SLOAD PUSH1 0x1 PUSH1 0x1 PUSH1 0xA0 SHL SUB SWAP1 SWAP3 AND PUSH1 0x1 PUSH1 0x1 PUSH1 0xA0 SHL SUB NOT SWAP1 SWAP3 AND DUP3 OR SWAP1 SSTORE PUSH0 SWAP1 DUP2 MSTORE PUSH1 0xA PUSH1 0x20 MSTORE PUSH1 0x40 SWAP1 KECCAK256 DUP1 SLOAD PUSH1 0xFF NOT AND PUSH1 0x1 OR SWAP1 SSTORE JUMP JUMPDEST PUSH0 SLOAD PUSH1 0x1 PUSH1 0x1 PUSH1 0xA0 SHL SUB AND CALLER EQ PUSH2 0x1686 JUMPI PUSH1 0x40 MLOAD PUSH3 0x461BCD PUSH1 0xE5 SHL DUP2 MSTORE PUSH1 0x4 ADD PUSH2 0xD38 SWAP1 PUSH2 0x3665 JUMP JUMPDEST PUSH1 0x1 PUSH1 0x1 PUSH1 0xA0 SHL SUB SWAP2 SWAP1 SWAP2 AND PUSH0 SWAP1 DUP2 MSTORE PUSH1 0xC PUSH1 0x20 MSTORE PUSH1 0x40 SWAP1 KECCAK256 DUP1 SLOAD PUSH1 0xFF NOT AND SWAP2 ISZERO ISZERO SWAP2 SWAP1 SWAP2 OR SWAP1 SSTORE JUMP JUMPDEST PUSH1 0x60 PUSH1 0x6 DUP1 SLOAD PUSH2 0xE50 SWAP1 PUSH2 0x3685 JUMP JUMPDEST PUSH0 SLOAD PUSH1 0x1 PUSH1 0x1 PUSH1 0xA0 SHL SUB AND CALLER EQ PUSH2 0x16E8 JUMPI PUSH1 0x40 MLOAD PUSH3 0x461BCD PUSH1 0xE5 SHL DUP2 MSTORE PUSH1 0x4 ADD PUSH2 0xD38 SWAP1 PUSH2 0x3665 JUMP JUMPDEST PUSH1 0x1F SLOAD ISZERO PUSH2 0x16F4 JUMPI PUSH0 DUP1 REVERT JUMPDEST NUMBER PUSH1 0x1F SSTORE JUMP JUMPDEST PUSH1 0x21 DUP2 DUP2 SLOAD DUP2 LT PUSH2 0x1709 JUMPI PUSH0 DUP1 REVERT JUMPDEST PUSH0 SWAP2 DUP3 MSTORE PUSH1 0x20 SWAP1 SWAP2 KECCAK256 ADD SLOAD PUSH1 0x1 PUSH1 0x1 PUSH1 0xA0 SHL SUB AND SWAP1 POP DUP2 JUMP JUMPDEST PUSH0 SLOAD PUSH1 0x1 PUSH1 0x1 PUSH1 0xA0 SHL SUB AND CALLER EQ PUSH2 0x174B JUMPI PUSH1 0x40 MLOAD PUSH3 0x461BCD PUSH1 0xE5 SHL DUP2 MSTORE PUSH1 0x4 ADD PUSH2 0xD38 SWAP1 PUSH2 0x3665 JUMP JUMPDEST PUSH1 0x1 PUSH1 0x1 PUSH1 0xA0 SHL SUB SWAP2 SWAP1 SWAP2 AND PUSH0 SWAP1 DUP2 MSTORE PUSH1 0x10 PUSH1 0x20 MSTORE PUSH1 0x40 SWAP1 KECCAK256 DUP1 SLOAD PUSH1 0xFF NOT AND SWAP2 ISZERO ISZERO SWAP2 SWAP1 SWAP2 OR SWAP1 SSTORE JUMP JUMPDEST PUSH0 PUSH2 0x1781 CALLER DUP5 DUP5 PUSH2 0x1E50 JUMP JUMPDEST POP PUSH1 0x1 JUMPDEST SWAP3 SWAP2 POP POP JUMP JUMPDEST PUSH0 SLOAD PUSH1 0x1 PUSH1 0x1 PUSH1 0xA0 SHL SUB AND CALLER EQ PUSH2 0x17B4 JUMPI PUSH1 0x40 MLOAD PUSH3 0x461BCD PUSH1 0xE5 SHL DUP2 MSTORE PUSH1 0x4 ADD PUSH2 0xD38 SWAP1 PUSH2 0x3665 JUMP JUMPDEST PUSH1 0x20 SLOAD PUSH1 0x1 PUSH1 0xC0 SHL SWAP1 DIV PUSH1 0xFF AND PUSH2 0x17DD JUMPI PUSH1 0x40 MLOAD PUSH3 0x461BCD PUSH1 0xE5 SHL DUP2 MSTORE PUSH1 0x4 ADD PUSH2 0xD38 SWAP1 PUSH2 0x3727 JUMP JUMPDEST DUP2 DUP2 PUSH0 DUP2 DUP2 LT PUSH2 0x17EF JUMPI PUSH2 0x17EF PUSH2 0x36BD JUMP JUMPDEST PUSH1 0x20 MUL SWAP2 SWAP1 SWAP2 ADD CALLDATALOAD PUSH1 0x12 SSTORE POP DUP2 DUP2 PUSH1 0x1 DUP2 DUP2 LT PUSH2 0x180E JUMPI PUSH2 0x180E PUSH2 0x36BD JUMP JUMPDEST PUSH1 0x20 MUL SWAP2 SWAP1 SWAP2 ADD CALLDATALOAD PUSH1 0x13 SSTORE POP DUP2 DUP2 PUSH1 0x2 DUP2 DUP2 LT PUSH2 0x182D JUMPI PUSH2 0x182D PUSH2 0x36BD JUMP JUMPDEST PUSH1 0x20 MUL SWAP2 SWAP1 SWAP2 ADD CALLDATALOAD PUSH1 0x14 SSTORE POP DUP2 DUP2 PUSH1 0x3 DUP2 DUP2 LT PUSH2 0x184C JUMPI PUSH2 0x184C PUSH2 0x36BD JUMP JUMPDEST PUSH1 0x20 MUL SWAP2 SWAP1 SWAP2 ADD CALLDATALOAD PUSH1 0x15 SSTORE POP DUP2 DUP2 PUSH1 0x4 DUP2 DUP2 LT PUSH2 0x186B JUMPI PUSH2 0x186B PUSH2 0x36BD JUMP JUMPDEST PUSH1 0x20 MUL SWAP2 SWAP1 SWAP2 ADD CALLDATALOAD PUSH1 0x16 SSTORE POP DUP2 DUP2 PUSH1 0x5 DUP2 DUP2 LT PUSH2 0x188A JUMPI PUSH2 0x188A PUSH2 0x36BD JUMP JUMPDEST PUSH1 0x20 MUL SWAP2 SWAP1 SWAP2 ADD CALLDATALOAD PUSH1 0x17 SSTORE POP DUP2 DUP2 PUSH1 0x6 DUP2 DUP2 LT PUSH2 0x18A9 JUMPI PUSH2 0x18A9 PUSH2 0x36BD JUMP JUMPDEST PUSH1 0x20 MUL SWAP2 SWAP1 SWAP2 ADD CALLDATALOAD PUSH1 0x18 SSTORE POP DUP2 DUP2 PUSH1 0x7 DUP2 DUP2 LT PUSH2 0x18C8 JUMPI PUSH2 0x18C8 PUSH2 0x36BD JUMP JUMPDEST SWAP1 POP PUSH1 0x20 MUL ADD CALLDATALOAD PUSH1 0x19 DUP2 SWAP1 SSTORE POP PUSH2 0x9C4 PUSH1 0x15 SLOAD PUSH1 0x12 SLOAD PUSH1 0x13 SLOAD PUSH1 0x14 SLOAD PUSH2 0x18EE SWAP2 SWAP1 PUSH2 0x3749 JUMP JUMPDEST PUSH2 0x18F8 SWAP2 SWAP1 PUSH2 0x3749 JUMP JUMPDEST PUSH2 0x1902 SWAP2 SWAP1 PUSH2 0x3749 JUMP JUMPDEST LT PUSH2 0x1939 JUMPI PUSH1 0x40 MLOAD PUSH3 0x461BCD PUSH1 0xE5 SHL DUP2 MSTORE PUSH1 0x20 PUSH1 0x4 DUP3 ADD MSTORE PUSH1 0x7 PUSH1 0x24 DUP3 ADD MSTORE PUSH7 0x627579213C3235 PUSH1 0xC8 SHL PUSH1 0x44 DUP3 ADD MSTORE PUSH1 0x64 ADD PUSH2 0xD38 JUMP JUMPDEST PUSH2 0x9C4 PUSH1 0x19 SLOAD PUSH1 0x16 SLOAD PUSH1 0x17 SLOAD PUSH1 0x18 SLOAD PUSH2 0x1952 SWAP2 SWAP1 PUSH2 0x3749 JUMP JUMPDEST PUSH2 0x195C SWAP2 SWAP1 PUSH2 0x3749 JUMP JUMPDEST PUSH2 0x1966 SWAP2 SWAP1 PUSH2 0x3749 JUMP JUMPDEST LT PUSH2 0xF23 JUMPI PUSH1 0x40 MLOAD PUSH3 0x461BCD PUSH1 0xE5 SHL DUP2 MSTORE PUSH1 0x20 PUSH1 0x4 DUP3 ADD MSTORE PUSH1 0x8 PUSH1 0x24 DUP3 ADD MSTORE PUSH8 0x73656C6C213C3235 PUSH1 0xC0 SHL PUSH1 0x44 DUP3 ADD MSTORE PUSH1 0x64 ADD PUSH2 0xD38 JUMP JUMPDEST PUSH0 SLOAD PUSH1 0x1 PUSH1 0x1 PUSH1 0xA0 SHL SUB AND CALLER EQ DUP1 PUSH2 0x19C0 JUMPI POP PUSH1 0x3 SLOAD PUSH1 0x1 PUSH1 0x1 PUSH1 0xA0 SHL SUB AND CALLER EQ JUMPDEST PUSH2 0x19F6 JUMPI PUSH1 0x40 MLOAD PUSH3 0x461BCD PUSH1 0xE5 SHL DUP2 MSTORE PUSH1 0x20 PUSH1 0x4 DUP3 ADD MSTORE PUSH1 0x7 PUSH1 0x24 DUP3 ADD MSTORE PUSH7 0x10A33AB73232B9 PUSH1 0xC9 SHL PUSH1 0x44 DUP3 ADD MSTORE PUSH1 0x64 ADD PUSH2 0xD38 JUMP JUMPDEST PUSH1 0x1 PUSH1 0x1 PUSH1 0xA0 SHL SUB DUP3 AND PUSH2 0x1A2E JUMPI PUSH1 0x40 MLOAD CALLER SWAP1 DUP3 ISZERO PUSH2 0x8FC MUL SWAP1 DUP4 SWAP1 PUSH0 DUP2 DUP2 DUP2 DUP6 DUP9 DUP9 CALL SWAP4 POP POP POP POP ISZERO DUP1 ISZERO PUSH2 0x1168 JUMPI RETURNDATASIZE PUSH0 DUP1 RETURNDATACOPY RETURNDATASIZE PUSH0 REVERT JUMPDEST PUSH1 0x40 MLOAD PUSH4 0xA9059CBB PUSH1 0xE0 SHL DUP2 MSTORE PUSH1 0x1 PUSH1 0x1 PUSH1 0xA0 SHL SUB DUP4 AND SWAP1 PUSH4 0xA9059CBB SWAP1 PUSH2 0x1A5C SWAP1 CALLER SWAP1 DUP6 SWAP1 PUSH1 0x4 ADD PUSH2 0x375C JUMP JUMPDEST PUSH1 0x20 PUSH1 0x40 MLOAD DUP1 DUP4 SUB DUP2 PUSH0 DUP8 GAS CALL ISZERO DUP1 ISZERO PUSH2 0x1A78 JUMPI RETURNDATASIZE PUSH0 DUP1 RETURNDATACOPY RETURNDATASIZE PUSH0 REVERT JUMPDEST POP POP POP POP PUSH1 0x40 MLOAD RETURNDATASIZE PUSH1 0x1F NOT PUSH1 0x1F DUP3 ADD AND DUP3 ADD DUP1 PUSH1 0x40 MSTORE POP DUP2 ADD SWAP1 PUSH2 0x1168 SWAP2 SWAP1 PUSH2 0x3775 JUMP JUMPDEST PUSH0 SLOAD PUSH1 0x1 PUSH1 0x1 PUSH1 0xA0 SHL SUB AND CALLER EQ PUSH2 0x1AC5 JUMPI PUSH1 0x40 MLOAD PUSH3 0x461BCD PUSH1 0xE5 SHL DUP2 MSTORE PUSH1 0x4 ADD PUSH2 0xD38 SWAP1 PUSH2 0x3665 JUMP JUMPDEST PUSH1 0x4 DUP1 SLOAD PUSH1 0x1 PUSH1 0x1 PUSH1 0xA0 SHL SUB NOT AND PUSH1 0x1 PUSH1 0x1 PUSH1 0xA0 SHL SUB SWAP3 SWAP1 SWAP3 AND SWAP2 SWAP1 SWAP2 OR SWAP1 SSTORE JUMP JUMPDEST PUSH0 SLOAD PUSH1 0x1 PUSH1 0x1 PUSH1 0xA0 SHL SUB AND CALLER EQ PUSH2 0x1B10 JUMPI PUSH1 0x40 MLOAD PUSH3 0x461BCD PUSH1 0xE5 SHL DUP2 MSTORE PUSH1 0x4 ADD PUSH2 0xD38 SWAP1 PUSH2 0x3665 JUMP JUMPDEST PUSH2 0x2710 DUP2 GT ISZERO PUSH2 0x1B4C JUMPI PUSH1 0x40 MLOAD PUSH3 0x461BCD PUSH1 0xE5 SHL DUP2 MSTORE PUSH1 0x20 PUSH1 0x4 DUP3 ADD MSTORE PUSH1 0x7 PUSH1 0x24 DUP3 ADD MSTORE PUSH7 0x3E313030303021 PUSH1 0xC8 SHL PUSH1 0x44 DUP3 ADD MSTORE PUSH1 0x64 ADD PUSH2 0xD38 JUMP JUMPDEST PUSH1 0x1B SSTORE JUMP JUMPDEST PUSH0 SLOAD PUSH1 0x1 PUSH1 0x1 PUSH1 0xA0 SHL SUB AND CALLER EQ PUSH2 0x1B7A JUMPI PUSH1 0x40 MLOAD PUSH3 0x461BCD PUSH1 0xE5 SHL DUP2 MSTORE PUSH1 0x4 ADD PUSH2 0xD38 SWAP1 PUSH2 0x3665 JUMP JUMPDEST PUSH1 0x29 SSTORE JUMP JUMPDEST PUSH0 SLOAD PUSH1 0x1 PUSH1 0x1 PUSH1 0xA0 SHL SUB AND CALLER EQ PUSH2 0x1BA8 JUMPI PUSH1 0x40 MLOAD PUSH3 0x461BCD PUSH1 0xE5 SHL DUP2 MSTORE PUSH1 0x4 ADD PUSH2 0xD38 SWAP1 PUSH2 0x3665 JUMP JUMPDEST PUSH1 0x5 DUP2 GT ISZERO PUSH2 0x1BE1 JUMPI PUSH1 0x40 MLOAD PUSH3 0x461BCD PUSH1 0xE5 SHL DUP2 MSTORE PUSH1 0x20 PUSH1 0x4 DUP3 ADD MSTORE PUSH1 0x5 PUSH1 0x24 DUP3 ADD MSTORE PUSH5 0x213C3D2035 PUSH1 0xD8 SHL PUSH1 0x44 DUP3 ADD MSTORE PUSH1 0x64 ADD PUSH2 0xD38 JUMP JUMPDEST PUSH1 0x1C SSTORE JUMP JUMPDEST PUSH0 SLOAD PUSH1 0x1 PUSH1 0x1 PUSH1 0xA0 SHL SUB AND CALLER EQ PUSH2 0x1C0F JUMPI PUSH1 0x40 MLOAD PUSH3 0x461BCD PUSH1 0xE5 SHL DUP2 MSTORE PUSH1 0x4 ADD PUSH2 0xD38 SWAP1 PUSH2 0x3665 JUMP JUMPDEST PUSH1 0x11 DUP1 SLOAD PUSH1 0xFF NOT AND SWAP2 ISZERO ISZERO SWAP2 SWAP1 SWAP2 OR SWAP1 SSTORE JUMP JUMPDEST PUSH0 SLOAD PUSH1 0x1 PUSH1 0x1 PUSH1 0xA0 SHL SUB AND CALLER EQ PUSH2 0x1C4B JUMPI PUSH1 0x40 MLOAD PUSH3 0x461BCD PUSH1 0xE5 SHL DUP2 MSTORE PUSH1 0x4 ADD PUSH2 0xD38 SWAP1 PUSH2 0x3665 JUMP JUMPDEST PUSH1 0x1D DUP1 SLOAD PUSH1 0x1 PUSH1 0x1 PUSH1 0xA0 SHL SUB SWAP1 SWAP3 AND PUSH2 0x100 MUL PUSH2 0x100 PUSH1 0x1 PUSH1 0xA8 SHL SUB NOT SWAP1 SWAP3 AND SWAP2 SWAP1 SWAP2 OR SWAP1 SSTORE JUMP JUMPDEST PUSH0 SLOAD PUSH1 0x1 PUSH1 0x1 PUSH1 0xA0 SHL SUB AND CALLER EQ PUSH2 0x1C9C JUMPI PUSH1 0x40 MLOAD PUSH3 0x461BCD PUSH1 0xE5 SHL DUP2 MSTORE PUSH1 0x4 ADD PUSH2 0xD38 SWAP1 PUSH2 0x3665 JUMP JUMPDEST PUSH1 0x1 PUSH1 0x1 PUSH1 0xA0 SHL SUB DUP2 AND PUSH2 0x1CDD JUMPI PUSH1 0x40 MLOAD PUSH3 0x461BCD PUSH1 0xE5 SHL DUP2 MSTORE PUSH1 0x20 PUSH1 0x4 DUP3 ADD MSTORE PUSH1 0x8 PUSH1 0x24 DUP3 ADD MSTORE PUSH8 0x6E6577206973203 PUSH1 0xC4 SHL PUSH1 0x44 DUP3 ADD MSTORE PUSH1 0x64 ADD PUSH2 0xD38 JUMP JUMPDEST PUSH0 DUP1 SLOAD PUSH1 0x40 MLOAD PUSH1 0x1 PUSH1 0x1 PUSH1 0xA0 SHL SUB DUP1 DUP6 AND SWAP4 SWAP3 AND SWAP2 PUSH0 DUP1 MLOAD PUSH1 0x20 PUSH2 0x3929 DUP4 CODECOPY DUP2 MLOAD SWAP2 MSTORE SWAP2 LOG3 PUSH0 DUP1 SLOAD PUSH1 0x1 PUSH1 0x1 PUSH1 0xA0 SHL SUB NOT AND PUSH1 0x1 PUSH1 0x1 PUSH1 0xA0 SHL SUB SWAP3 SWAP1 SWAP3 AND SWAP2 SWAP1 SWAP2 OR SWAP1 SSTORE JUMP JUMPDEST PUSH1 0x1 PUSH1 0x1 PUSH1 0xA0 SHL SUB DUP4 DUP2 AND PUSH0 DUP2 DUP2 MSTORE PUSH1 0x2 PUSH1 0x20 SWAP1 DUP2 MSTORE PUSH1 0x40 DUP1 DUP4 KECCAK256 SWAP5 DUP8 AND DUP1 DUP5 MSTORE SWAP5 DUP3 MSTORE SWAP2 DUP3 SWAP1 KECCAK256 DUP6 SWAP1 SSTORE SWAP1 MLOAD DUP5 DUP2 MSTORE PUSH32 0x8C5BE1E5EBEC7D5BD14F71427D1E84F3DD0314C0F7B2291E5B200AC8C7C3B925 SWAP2 ADD JUMPDEST PUSH1 0x40 MLOAD DUP1 SWAP2 SUB SWAP1 LOG3 POP POP POP JUMP JUMPDEST DUP1 EXTCODESIZE DUP1 ISZERO PUSH2 0x1D90 JUMPI POP POP JUMP JUMPDEST PUSH1 0x1 PUSH1 0x1 PUSH1 0xA0 SHL SUB DUP3 AND PUSH0 SWAP1 DUP2 MSTORE PUSH1 0x26 PUSH1 0x20 MSTORE PUSH1 0x40 DUP2 KECCAK256 SLOAD SWAP1 SUB PUSH2 0xF23 JUMPI PUSH1 0x25 SLOAD ISZERO DUP1 PUSH2 0x1DEC JUMPI POP DUP2 PUSH1 0x1 PUSH1 0x1 PUSH1 0xA0 SHL SUB AND PUSH1 0x25 PUSH0 DUP2 SLOAD DUP2 LT PUSH2 0x1DD5 JUMPI PUSH2 0x1DD5 PUSH2 0x36BD JUMP JUMPDEST PUSH0 SWAP2 DUP3 MSTORE PUSH1 0x20 SWAP1 SWAP2 KECCAK256 ADD SLOAD PUSH1 0x1 PUSH1 0x1 PUSH1 0xA0 SHL SUB AND EQ ISZERO JUMPDEST ISZERO PUSH2 0xF23 JUMPI PUSH1 0x25 DUP1 SLOAD PUSH1 0x1 PUSH1 0x1 PUSH1 0xA0 SHL SUB DUP5 AND PUSH0 DUP2 DUP2 MSTORE PUSH1 0x26 PUSH1 0x20 MSTORE PUSH1 0x40 DUP2 KECCAK256 DUP4 SWAP1 SSTORE PUSH1 0x1 DUP4 ADD DUP5 SSTORE SWAP3 SWAP1 SWAP3 MSTORE PUSH32 0x401968FF42A154441DA5F6C4C935AC46B8671F0E062BAAA62A7545BA53BB6E4C ADD DUP1 SLOAD PUSH1 0x1 PUSH1 0x1 PUSH1 0xA0 SHL SUB NOT AND SWAP1 SWAP2 OR SWAP1 SSTORE POP POP JUMP JUMPDEST DUP1 PUSH2 0x1E5A DUP5 PUSH2 0x141C JUMP JUMPDEST LT ISZERO PUSH2 0x1E9B JUMPI PUSH1 0x40 MLOAD PUSH3 0x461BCD PUSH1 0xE5 SHL DUP2 MSTORE PUSH1 0x20 PUSH1 0x4 DUP3 ADD MSTORE PUSH1 0x10 PUSH1 0x24 DUP3 ADD MSTORE PUSH16 0xC4C2D8C2DCC6CA9CDEE88ADCDEEACED PUSH1 0x83 SHL PUSH1 0x44 DUP3 ADD MSTORE PUSH1 0x64 ADD PUSH2 0xD38 JUMP JUMPDEST PUSH2 0x1EA4 DUP4 PUSH2 0x126D JUMP JUMPDEST ISZERO PUSH2 0x1EE3 JUMPI PUSH1 0x40 MLOAD PUSH3 0x461BCD PUSH1 0xE5 SHL DUP2 MSTORE PUSH1 0x20 PUSH1 0x4 DUP3 ADD MSTORE PUSH1 0xF PUSH1 0x24 DUP3 ADD MSTORE PUSH15 0x697352657761726420213D20302021 PUSH1 0x88 SHL PUSH1 0x44 DUP3 ADD MSTORE PUSH1 0x64 ADD PUSH2 0xD38 JUMP JUMPDEST PUSH1 0x1 PUSH1 0x1 PUSH1 0xA0 SHL SUB DUP3 AND PUSH0 SWAP1 DUP2 MSTORE PUSH1 0x10 PUSH1 0x20 MSTORE PUSH1 0x40 DUP2 KECCAK256 SLOAD DUP2 SWAP1 DUP2 SWAP1 DUP2 SWAP1 PUSH1 0xFF AND ISZERO PUSH2 0x1F18 JUMPI PUSH2 0x1F11 PUSH2 0x2365 JUMP JUMPDEST SWAP1 POP PUSH2 0x1F43 JUMP JUMPDEST PUSH1 0x1 PUSH1 0x1 PUSH1 0xA0 SHL SUB DUP8 AND PUSH0 SWAP1 DUP2 MSTORE PUSH1 0x10 PUSH1 0x20 MSTORE PUSH1 0x40 SWAP1 KECCAK256 SLOAD PUSH1 0xFF AND ISZERO PUSH2 0x1F43 JUMPI PUSH2 0x1F40 PUSH2 0x2483 JUMP JUMPDEST SWAP2 POP JUMPDEST PUSH1 0x1E SLOAD ISZERO DUP1 ISZERO PUSH2 0x1F5C JUMPI POP PUSH1 0x20 SLOAD PUSH1 0x1 PUSH1 0xA0 SHL SWAP1 DIV PUSH1 0xFF AND JUMPDEST ISZERO PUSH2 0x2037 JUMPI PUSH1 0x1 PUSH1 0x1 PUSH1 0xA0 SHL SUB DUP8 AND PUSH0 SWAP1 DUP2 MSTORE PUSH1 0xA PUSH1 0x20 MSTORE PUSH1 0x40 SWAP1 KECCAK256 SLOAD PUSH1 0xFF AND ISZERO DUP1 ISZERO PUSH2 0x1FA1 JUMPI POP PUSH1 0x1 PUSH1 0x1 PUSH1 0xA0 SHL SUB DUP7 AND PUSH0 SWAP1 DUP2 MSTORE PUSH1 0xA PUSH1 0x20 MSTORE PUSH1 0x40 SWAP1 KECCAK256 SLOAD PUSH1 0xFF AND ISZERO JUMPDEST DUP1 ISZERO PUSH2 0x1FC5 JUMPI POP PUSH1 0x1 PUSH1 0x1 PUSH1 0xA0 SHL SUB DUP8 AND PUSH0 SWAP1 DUP2 MSTORE PUSH1 0x10 PUSH1 0x20 MSTORE PUSH1 0x40 SWAP1 KECCAK256 SLOAD PUSH1 0xFF AND ISZERO JUMPDEST DUP1 ISZERO PUSH2 0x1FE9 JUMPI POP PUSH1 0x1 PUSH1 0x1 PUSH1 0xA0 SHL SUB DUP7 AND PUSH0 SWAP1 DUP2 MSTORE PUSH1 0x10 PUSH1 0x20 MSTORE PUSH1 0x40 SWAP1 KECCAK256 SLOAD PUSH1 0xFF AND ISZERO JUMPDEST ISZERO PUSH2 0x2037 JUMPI DUP6 EXTCODESIZE PUSH4 0xFFFFFFFF AND ISZERO PUSH2 0x2037 JUMPI PUSH1 0x40 MLOAD PUSH3 0x461BCD PUSH1 0xE5 SHL DUP2 MSTORE PUSH1 0x20 PUSH1 0x4 DUP3 ADD MSTORE PUSH1 0x11 PUSH1 0x24 DUP3 ADD MSTORE PUSH17 0x63616E7420616464206F74686572206C7 PUSH1 0x7C SHL PUSH1 0x44 DUP3 ADD MSTORE PUSH1 0x64 ADD PUSH2 0xD38 JUMP JUMPDEST PUSH1 0x1 PUSH1 0x1 PUSH1 0xA0 SHL SUB DUP8 AND PUSH0 SWAP1 DUP2 MSTORE PUSH1 0x10 PUSH1 0x20 MSTORE PUSH1 0x40 SWAP1 KECCAK256 SLOAD PUSH1 0xFF AND DUP1 PUSH2 0x2074 JUMPI POP PUSH1 0x1 PUSH1 0x1 PUSH1 0xA0 SHL SUB DUP7 AND PUSH0 SWAP1 DUP2 MSTORE PUSH1 0x10 PUSH1 0x20 MSTORE PUSH1 0x40 SWAP1 KECCAK256 SLOAD PUSH1 0xFF AND JUMPDEST ISZERO PUSH2 0x2322 JUMPI PUSH1 0x1 PUSH1 0x1 PUSH1 0xA0 SHL SUB DUP8 AND PUSH0 SWAP1 DUP2 MSTORE PUSH1 0xA PUSH1 0x20 MSTORE PUSH1 0x40 SWAP1 KECCAK256 SLOAD PUSH1 0xFF AND ISZERO DUP1 ISZERO PUSH2 0x20B9 JUMPI POP PUSH1 0x1 PUSH1 0x1 PUSH1 0xA0 SHL SUB DUP7 AND PUSH0 SWAP1 DUP2 MSTORE PUSH1 0xA PUSH1 0x20 MSTORE PUSH1 0x40 SWAP1 KECCAK256 SLOAD PUSH1 0xFF AND ISZERO JUMPDEST ISZERO PUSH2 0x22FD JUMPI PUSH1 0x20 SLOAD PUSH1 0x1 PUSH1 0xA0 SHL SWAP1 DIV PUSH1 0xFF AND ISZERO PUSH2 0x20F4 JUMPI PUSH1 0x1E SLOAD ISZERO ISZERO DUP1 DUP1 PUSH2 0x20EA JUMPI POP PUSH1 0x1F SLOAD PUSH0 LT DUP1 ISZERO PUSH2 0x20EA JUMPI POP DUP2 JUMPDEST PUSH2 0x20F2 JUMPI PUSH0 DUP1 REVERT JUMPDEST POP JUMPDEST PUSH1 0x20 SLOAD PUSH1 0x1 PUSH1 0xA0 SHL SWAP1 DIV PUSH1 0xFF AND DUP1 ISZERO PUSH2 0x2116 JUMPI POP PUSH1 0x20 SLOAD PUSH1 0x1 PUSH1 0xA8 SHL SWAP1 DIV PUSH1 0xFF AND JUMPDEST DUP1 ISZERO PUSH2 0x2130 JUMPI POP PUSH1 0x8 SLOAD PUSH1 0x1E SLOAD PUSH2 0x212D SWAP2 SWAP1 PUSH2 0x3749 JUMP JUMPDEST NUMBER LT JUMPDEST DUP1 ISZERO PUSH2 0x2154 JUMPI POP PUSH1 0x1 PUSH1 0x1 PUSH1 0xA0 SHL SUB DUP7 AND PUSH0 SWAP1 DUP2 MSTORE PUSH1 0x10 PUSH1 0x20 MSTORE PUSH1 0x40 SWAP1 KECCAK256 SLOAD PUSH1 0xFF AND ISZERO JUMPDEST ISZERO PUSH2 0x217C JUMPI PUSH1 0x1 PUSH1 0x1 PUSH1 0xA0 SHL SUB DUP7 AND PUSH0 SWAP1 DUP2 MSTORE PUSH1 0xB PUSH1 0x20 MSTORE PUSH1 0x40 SWAP1 KECCAK256 DUP1 SLOAD PUSH1 0xFF NOT AND PUSH1 0x1 OR SWAP1 SSTORE JUMPDEST PUSH1 0x20 SLOAD PUSH1 0x1 PUSH1 0xC8 SHL SWAP1 DIV PUSH1 0xFF AND DUP1 ISZERO PUSH2 0x2196 JUMPI POP PUSH0 PUSH1 0x1C SLOAD GT JUMPDEST ISZERO PUSH2 0x2218 JUMPI PUSH0 DUP1 JUMPDEST PUSH1 0x1C SLOAD DUP2 LT ISZERO PUSH2 0x21FB JUMPI PUSH1 0x40 DUP1 MLOAD PUSH1 0x20 DUP2 ADD DUP4 SWAP1 MSTORE SWAP1 DUP2 ADD DUP9 SWAP1 MSTORE TIMESTAMP PUSH1 0x60 DUP3 ADD MSTORE PUSH1 0x80 ADD PUSH1 0x40 MLOAD PUSH1 0x20 DUP2 DUP4 SUB SUB DUP2 MSTORE SWAP1 PUSH1 0x40 MSTORE DUP1 MLOAD SWAP1 PUSH1 0x20 ADD KECCAK256 PUSH0 SHR SWAP2 POP PUSH2 0x21E8 DUP10 DUP4 PUSH1 0x1 PUSH2 0x25A1 JUMP JUMPDEST POP DUP1 PUSH2 0x21F3 DUP2 PUSH2 0x36E5 JUMP JUMPDEST SWAP2 POP POP PUSH2 0x219E JUMP JUMPDEST POP PUSH1 0x1C SLOAD PUSH2 0x220A SWAP1 PUSH1 0x1 PUSH2 0x3790 JUMP JUMPDEST PUSH2 0x2214 SWAP1 DUP8 PUSH2 0x3714 JUMP JUMPDEST SWAP6 POP POP JUMPDEST PUSH1 0x1 PUSH1 0x1 PUSH1 0xA0 SHL SUB DUP7 AND PUSH0 SWAP1 DUP2 MSTORE PUSH1 0x10 PUSH1 0x20 MSTORE PUSH1 0x40 SWAP1 KECCAK256 SLOAD PUSH1 0xFF AND ISZERO PUSH2 0x22E7 JUMPI PUSH1 0x11 SLOAD PUSH2 0x100 SWAP1 DIV PUSH1 0xFF AND ISZERO DUP1 ISZERO PUSH2 0x224E JUMPI POP DUP1 ISZERO JUMPDEST ISZERO PUSH2 0x22E7 JUMPI PUSH0 PUSH2 0x225D ADDRESS PUSH2 0x141C JUMP JUMPDEST SWAP1 POP PUSH1 0x23 SLOAD DUP2 GT ISZERO PUSH2 0x22E5 JUMPI PUSH0 PUSH1 0x17 SLOAD PUSH1 0x18 SLOAD PUSH1 0x16 SLOAD PUSH1 0x13 SLOAD PUSH1 0x14 SLOAD PUSH1 0x12 SLOAD PUSH2 0x2286 SWAP2 SWAP1 PUSH2 0x3749 JUMP JUMPDEST PUSH2 0x2290 SWAP2 SWAP1 PUSH2 0x3749 JUMP JUMPDEST PUSH2 0x229A SWAP2 SWAP1 PUSH2 0x3749 JUMP JUMPDEST PUSH2 0x22A4 SWAP2 SWAP1 PUSH2 0x3749 JUMP JUMPDEST PUSH2 0x22AE SWAP2 SWAP1 PUSH2 0x3749 JUMP JUMPDEST SWAP1 POP PUSH0 PUSH1 0x64 PUSH1 0x22 SLOAD DUP10 PUSH2 0x22C1 SWAP2 SWAP1 PUSH2 0x3790 JUMP JUMPDEST PUSH2 0x22CB SWAP2 SWAP1 PUSH2 0x37A7 JUMP JUMPDEST SWAP1 POP DUP3 DUP2 GT ISZERO PUSH2 0x22D8 JUMPI POP DUP2 JUMPDEST PUSH2 0x22E2 DUP2 DUP4 PUSH2 0x2641 JUMP JUMPDEST POP POP JUMPDEST POP JUMPDEST DUP1 ISZERO DUP1 ISZERO PUSH2 0x22F3 JUMPI POP DUP2 ISZERO JUMPDEST ISZERO PUSH2 0x22FD JUMPI PUSH1 0x1 SWAP4 POP JUMPDEST PUSH1 0x1 PUSH1 0x1 PUSH1 0xA0 SHL SUB DUP7 AND PUSH0 SWAP1 DUP2 MSTORE PUSH1 0x10 PUSH1 0x20 MSTORE PUSH1 0x40 SWAP1 KECCAK256 SLOAD PUSH1 0xFF AND ISZERO PUSH2 0x2322 JUMPI PUSH1 0x1 SWAP3 POP JUMPDEST PUSH2 0x2331 DUP8 DUP8 DUP8 DUP8 DUP8 DUP7 DUP9 PUSH2 0x2C55 JUMP JUMPDEST PUSH1 0x1 PUSH1 0x1 PUSH1 0xA0 SHL SUB DUP8 AND ADDRESS EQ PUSH2 0x235C JUMPI DUP3 ISZERO PUSH2 0x2350 JUMPI PUSH2 0x2350 DUP8 PUSH2 0x1D84 JUMP JUMPDEST PUSH2 0x235C PUSH3 0x55730 PUSH2 0x2F4D JUMP JUMPDEST POP POP POP POP POP POP POP JUMP JUMPDEST PUSH1 0x20 SLOAD PUSH1 0x40 DUP1 MLOAD PUSH4 0x240BC6B PUSH1 0xE2 SHL DUP2 MSTORE SWAP1 MLOAD PUSH0 SWAP3 PUSH1 0x1 PUSH1 0x1 PUSH1 0xA0 SHL SUB AND SWAP2 DUP4 SWAP2 DUP3 SWAP2 DUP5 SWAP2 PUSH4 0x902F1AC SWAP2 PUSH1 0x4 DUP1 DUP3 ADD SWAP3 PUSH1 0x60 SWAP3 SWAP1 SWAP2 SWAP1 DUP3 SWAP1 SUB ADD DUP2 DUP7 GAS STATICCALL ISZERO DUP1 ISZERO PUSH2 0x23B3 JUMPI RETURNDATASIZE PUSH0 DUP1 RETURNDATACOPY RETURNDATASIZE PUSH0 REVERT JUMPDEST POP POP POP POP PUSH1 0x40 MLOAD RETURNDATASIZE PUSH1 0x1F NOT PUSH1 0x1F DUP3 ADD AND DUP3 ADD DUP1 PUSH1 0x40 MSTORE POP DUP2 ADD SWAP1 PUSH2 0x23D7 SWAP2 SWAP1 PUSH2 0x37DC JUMP JUMPDEST POP PUSH1 0xF SLOAD PUSH1 0x1 PUSH1 0x1 PUSH1 0x70 SHL SUB SWAP3 DUP4 AND SWAP5 POP SWAP2 AND SWAP2 POP PUSH1 0x1 PUSH1 0x1 PUSH1 0xA0 SHL SUB AND PUSH0 ADDRESS DUP3 LT ISZERO PUSH2 0x2405 JUMPI POP DUP3 PUSH2 0x2408 JUMP JUMPDEST POP DUP2 JUMPDEST PUSH1 0x40 MLOAD PUSH4 0x70A08231 PUSH1 0xE0 SHL DUP2 MSTORE PUSH0 SWAP1 PUSH1 0x1 PUSH1 0x1 PUSH1 0xA0 SHL SUB DUP5 AND SWAP1 PUSH4 0x70A08231 SWAP1 PUSH2 0x2436 SWAP1 DUP10 SWAP1 PUSH1 0x4 ADD PUSH2 0x35E7 JUMP JUMPDEST PUSH1 0x20 PUSH1 0x40 MLOAD DUP1 DUP4 SUB DUP2 DUP7 GAS STATICCALL ISZERO DUP1 ISZERO PUSH2 0x2451 JUMPI RETURNDATASIZE PUSH0 DUP1 RETURNDATACOPY RETURNDATASIZE PUSH0 REVERT JUMPDEST POP POP POP POP PUSH1 0x40 MLOAD RETURNDATASIZE PUSH1 0x1F NOT PUSH1 0x1F DUP3 ADD AND DUP3 ADD DUP1 PUSH1 0x40 MSTORE POP DUP2 ADD SWAP1 PUSH2 0x2475 SWAP2 SWAP1 PUSH2 0x36FD JUMP JUMPDEST SWAP2 SWAP1 SWAP2 GT SWAP7 SWAP6 POP POP POP POP POP POP JUMP JUMPDEST PUSH1 0x20 SLOAD PUSH1 0x40 DUP1 MLOAD PUSH4 0x240BC6B PUSH1 0xE2 SHL DUP2 MSTORE SWAP1 MLOAD PUSH0 SWAP3 PUSH1 0x1 PUSH1 0x1 PUSH1 0xA0 SHL SUB AND SWAP2 DUP4 SWAP2 DUP3 SWAP2 DUP5 SWAP2 PUSH4 0x902F1AC SWAP2 PUSH1 0x4 DUP1 DUP3 ADD SWAP3 PUSH1 0x60 SWAP3 SWAP1 SWAP2 SWAP1 DUP3 SWAP1 SUB ADD DUP2 DUP7 GAS STATICCALL ISZERO DUP1 ISZERO PUSH2 0x24D1 JUMPI RETURNDATASIZE PUSH0 DUP1 RETURNDATACOPY RETURNDATASIZE PUSH0 REVERT JUMPDEST POP POP POP POP PUSH1 0x40 MLOAD RETURNDATASIZE PUSH1 0x1F NOT PUSH1 0x1F DUP3 ADD AND DUP3 ADD DUP1 PUSH1 0x40 MSTORE POP DUP2 ADD SWAP1 PUSH2 0x24F5 SWAP2 SWAP1 PUSH2 0x37DC JUMP JUMPDEST POP PUSH1 0xF SLOAD PUSH1 0x1 PUSH1 0x1 PUSH1 0x70 SHL SUB SWAP3 DUP4 AND SWAP5 POP SWAP2 AND SWAP2 POP PUSH1 0x1 PUSH1 0x1 PUSH1 0xA0 SHL SUB AND PUSH0 ADDRESS DUP3 LT ISZERO PUSH2 0x2523 JUMPI POP DUP3 PUSH2 0x2526 JUMP JUMPDEST POP DUP2 JUMPDEST PUSH1 0x40 MLOAD PUSH4 0x70A08231 PUSH1 0xE0 SHL DUP2 MSTORE PUSH0 SWAP1 PUSH1 0x1 PUSH1 0x1 PUSH1 0xA0 SHL SUB DUP5 AND SWAP1 PUSH4 0x70A08231 SWAP1 PUSH2 0x2554 SWAP1 DUP10 SWAP1 PUSH1 0x4 ADD PUSH2 0x35E7 JUMP JUMPDEST PUSH1 0x20 PUSH1 0x40 MLOAD DUP1 DUP4 SUB DUP2 DUP7 GAS STATICCALL ISZERO DUP1 ISZERO PUSH2 0x256F JUMPI RETURNDATASIZE PUSH0 DUP1 RETURNDATACOPY RETURNDATASIZE PUSH0 REVERT JUMPDEST POP POP POP POP PUSH1 0x40 MLOAD RETURNDATASIZE PUSH1 0x1F NOT PUSH1 0x1F DUP3 ADD AND DUP3 ADD DUP1 PUSH1 0x40 MSTORE POP DUP2 ADD SWAP1 PUSH2 0x2593 SWAP2 SWAP1 PUSH2 0x36FD JUMP JUMPDEST SWAP1 SWAP2 LT ISZERO SWAP7 SWAP6 POP POP POP POP POP POP JUMP JUMPDEST PUSH1 0x1 PUSH1 0x1 PUSH1 0xA0 SHL SUB DUP4 AND PUSH0 SWAP1 DUP2 MSTORE PUSH1 0x1 PUSH1 0x20 MSTORE PUSH1 0x40 DUP2 KECCAK256 DUP1 SLOAD DUP4 SWAP2 SWAP1 DUP4 SWAP1 PUSH2 0x25CA SWAP1 DUP5 SWAP1 PUSH2 0x3714 JUMP JUMPDEST SWAP1 SWAP2 SSTORE POP POP PUSH1 0x1 PUSH1 0x1 PUSH1 0xA0 SHL SUB DUP4 AND PUSH0 SWAP1 DUP2 MSTORE PUSH1 0x1 PUSH1 0x20 MSTORE PUSH1 0x40 DUP2 KECCAK256 DUP1 SLOAD DUP5 SWAP3 SWAP1 PUSH2 0x25F6 SWAP1 DUP5 SWAP1 PUSH2 0x3749 JUMP JUMPDEST SWAP3 POP POP DUP2 SWAP1 SSTORE POP DUP3 PUSH1 0x1 PUSH1 0x1 PUSH1 0xA0 SHL SUB AND DUP5 PUSH1 0x1 PUSH1 0x1 PUSH1 0xA0 SHL SUB AND PUSH0 DUP1 MLOAD PUSH1 0x20 PUSH2 0x3949 DUP4 CODECOPY DUP2 MLOAD SWAP2 MSTORE DUP5 PUSH1 0x40 MLOAD PUSH2 0x262F SWAP2 DUP2 MSTORE PUSH1 0x20 ADD SWAP1 JUMP JUMPDEST PUSH1 0x40 MLOAD DUP1 SWAP2 SUB SWAP1 LOG3 POP PUSH1 0x1 SWAP4 SWAP3 POP POP POP JUMP JUMPDEST PUSH1 0x11 DUP1 SLOAD PUSH2 0xFF00 NOT AND PUSH2 0x100 OR SWAP1 SSTORE DUP1 ISZERO DUP1 PUSH2 0x265B JUMPI POP DUP2 ISZERO JUMPDEST PUSH2 0x2C46 JUMPI PUSH0 PUSH1 0x13 SLOAD PUSH1 0x17 SLOAD PUSH2 0x2670 SWAP2 SWAP1 PUSH2 0x3749 JUMP JUMPDEST SWAP1 POP PUSH0 DUP3 PUSH1 0x2 PUSH2 0x2680 DUP5 DUP8 PUSH2 0x3790 JUMP JUMPDEST PUSH2 0x268A SWAP2 SWAP1 PUSH2 0x37A7 JUMP JUMPDEST PUSH2 0x2694 SWAP2 SWAP1 PUSH2 0x37A7 JUMP JUMPDEST SWAP1 POP PUSH0 PUSH2 0x26A2 PUSH1 0x2 DUP5 PUSH2 0x37A7 JUMP JUMPDEST PUSH2 0x26AC SWAP1 DUP6 PUSH2 0x3714 JUMP JUMPDEST PUSH1 0xF SLOAD PUSH1 0x40 DUP1 MLOAD PUSH1 0x2 DUP1 DUP3 MSTORE PUSH1 0x60 DUP3 ADD DUP4 MSTORE SWAP4 SWAP5 POP PUSH1 0x1 PUSH1 0x1 PUSH1 0xA0 SHL SUB SWAP1 SWAP3 AND SWAP3 PUSH0 SWAP3 SWAP2 PUSH1 0x20 DUP4 ADD SWAP1 DUP1 CALLDATASIZE DUP4 CALLDATACOPY ADD SWAP1 POP POP SWAP1 POP ADDRESS DUP2 PUSH0 DUP2 MLOAD DUP2 LT PUSH2 0x26F2 JUMPI PUSH2 0x26F2 PUSH2 0x36BD JUMP JUMPDEST PUSH1 0x1 PUSH1 0x1 PUSH1 0xA0 SHL SUB SWAP3 DUP4 AND PUSH1 0x20 SWAP2 DUP3 MUL SWAP3 SWAP1 SWAP3 ADD ADD MSTORE PUSH1 0xF SLOAD DUP3 MLOAD SWAP2 AND SWAP1 DUP3 SWAP1 PUSH1 0x1 SWAP1 DUP2 LT PUSH2 0x2723 JUMPI PUSH2 0x2723 PUSH2 0x36BD JUMP JUMPDEST PUSH1 0x1 PUSH1 0x1 PUSH1 0xA0 SHL SUB SWAP3 DUP4 AND PUSH1 0x20 SWAP2 DUP3 MUL SWAP3 SWAP1 SWAP3 ADD ADD MSTORE PUSH1 0xE SLOAD AND PUSH4 0x5C11D795 PUSH2 0x274C DUP7 DUP11 PUSH2 0x3714 JUMP JUMPDEST PUSH1 0x11 SLOAD PUSH1 0x40 MLOAD PUSH1 0xE0 DUP5 SWAP1 SHL PUSH1 0x1 PUSH1 0x1 PUSH1 0xE0 SHL SUB NOT AND DUP2 MSTORE PUSH2 0x2786 SWAP3 SWAP2 PUSH0 SWAP2 DUP8 SWAP2 PUSH3 0x10000 SWAP1 DIV PUSH1 0x1 PUSH1 0x1 PUSH1 0xA0 SHL SUB AND SWAP1 TIMESTAMP SWAP1 PUSH1 0x4 ADD PUSH2 0x381D JUMP JUMPDEST PUSH0 PUSH1 0x40 MLOAD DUP1 DUP4 SUB DUP2 PUSH0 DUP8 DUP1 EXTCODESIZE ISZERO DUP1 ISZERO PUSH2 0x279D JUMPI PUSH0 DUP1 REVERT JUMPDEST POP GAS CALL SWAP3 POP POP POP DUP1 ISZERO PUSH2 0x27AE JUMPI POP PUSH1 0x1 JUMPDEST PUSH2 0x27D3 JUMPI PUSH1 0x40 MLOAD PUSH0 DUP2 MSTORE PUSH0 DUP1 MLOAD PUSH1 0x20 PUSH2 0x3909 DUP4 CODECOPY DUP2 MLOAD SWAP2 MSTORE SWAP1 PUSH1 0x20 ADD PUSH1 0x40 MLOAD DUP1 SWAP2 SUB SWAP1 LOG1 JUMPDEST PUSH1 0x11 SLOAD PUSH1 0x40 MLOAD PUSH4 0x70A08231 PUSH1 0xE0 SHL DUP2 MSTORE PUSH0 SWAP2 PUSH1 0x1 PUSH1 0x1 PUSH1 0xA0 SHL SUB DUP1 DUP7 AND SWAP3 PUSH4 0x70A08231 SWAP3 PUSH2 0x280C SWAP3 PUSH3 0x10000 SWAP1 SWAP2 DIV AND SWAP1 PUSH1 0x4 ADD PUSH2 0x35E7 JUMP JUMPDEST PUSH1 0x20 PUSH1 0x40 MLOAD DUP1 DUP4 SUB DUP2 DUP7 GAS STATICCALL ISZERO DUP1 ISZERO PUSH2 0x2827 JUMPI RETURNDATASIZE PUSH0 DUP1 RETURNDATACOPY RETURNDATASIZE PUSH0 REVERT JUMPDEST POP POP POP POP PUSH1 0x40 MLOAD RETURNDATASIZE PUSH1 0x1F NOT PUSH1 0x1F DUP3 ADD AND DUP3 ADD DUP1 PUSH1 0x40 MSTORE POP DUP2 ADD SWAP1 PUSH2 0x284B SWAP2 SWAP1 PUSH2 0x36FD JUMP JUMPDEST SWAP1 POP DUP1 ISZERO PUSH2 0x28C1 JUMPI PUSH1 0x11 SLOAD PUSH1 0x40 MLOAD PUSH4 0x23B872DD PUSH1 0xE0 SHL DUP2 MSTORE PUSH3 0x10000 SWAP1 SWAP2 DIV PUSH1 0x1 PUSH1 0x1 PUSH1 0xA0 SHL SUB SWAP1 DUP2 AND PUSH1 0x4 DUP4 ADD MSTORE ADDRESS PUSH1 0x24 DUP4 ADD MSTORE PUSH1 0x44 DUP3 ADD DUP4 SWAP1 MSTORE DUP5 AND SWAP1 PUSH4 0x23B872DD SWAP1 PUSH1 0x64 ADD PUSH0 PUSH1 0x40 MLOAD DUP1 DUP4 SUB DUP2 PUSH0 DUP8 DUP1 EXTCODESIZE ISZERO DUP1 ISZERO PUSH2 0x28AA JUMPI PUSH0 DUP1 REVERT JUMPDEST POP GAS CALL ISZERO DUP1 ISZERO PUSH2 0x28BC JUMPI RETURNDATASIZE PUSH0 DUP1 RETURNDATACOPY RETURNDATASIZE PUSH0 REVERT JUMPDEST POP POP POP POP JUMPDEST PUSH0 DUP5 PUSH1 0x2 PUSH2 0x28CF DUP10 DUP6 PUSH2 0x3790 JUMP JUMPDEST PUSH2 0x28D9 SWAP2 SWAP1 PUSH2 0x37A7 JUMP JUMPDEST PUSH2 0x28E3 SWAP2 SWAP1 PUSH2 0x37A7 JUMP JUMPDEST SWAP1 POP PUSH0 DUP6 PUSH1 0x16 SLOAD PUSH1 0x12 SLOAD PUSH2 0x28F7 SWAP2 SWAP1 PUSH2 0x3749 JUMP JUMPDEST PUSH2 0x2901 SWAP1 DUP6 PUSH2 0x3790 JUMP JUMPDEST PUSH2 0x290B SWAP2 SWAP1 PUSH2 0x37A7 JUMP JUMPDEST SWAP1 POP DUP1 ISZERO PUSH2 0x2A41 JUMPI PUSH1 0x1D SLOAD PUSH1 0xFF AND ISZERO PUSH2 0x29B4 JUMPI PUSH1 0xF SLOAD PUSH1 0x40 MLOAD PUSH4 0x2E1A7D4D PUSH1 0xE0 SHL DUP2 MSTORE PUSH1 0x4 DUP2 ADD DUP4 SWAP1 MSTORE PUSH1 0x1 PUSH1 0x1 PUSH1 0xA0 SHL SUB SWAP1 SWAP2 AND SWAP1 PUSH4 0x2E1A7D4D SWAP1 PUSH1 0x24 ADD PUSH0 PUSH1 0x40 MLOAD DUP1 DUP4 SUB DUP2 PUSH0 DUP8 DUP1 EXTCODESIZE ISZERO DUP1 ISZERO PUSH2 0x2961 JUMPI PUSH0 DUP1 REVERT JUMPDEST POP GAS CALL ISZERO DUP1 ISZERO PUSH2 0x2973 JUMPI RETURNDATASIZE PUSH0 DUP1 RETURNDATACOPY RETURNDATASIZE PUSH0 REVERT JUMPDEST POP POP PUSH1 0x3 SLOAD PUSH1 0x40 MLOAD PUSH1 0x1 PUSH1 0x1 PUSH1 0xA0 SHL SUB SWAP1 SWAP2 AND SWAP3 POP DUP4 ISZERO PUSH2 0x8FC MUL SWAP2 POP DUP4 SWAP1 PUSH0 DUP2 DUP2 DUP2 DUP6 DUP9 DUP9 CALL SWAP4 POP POP POP POP ISZERO DUP1 ISZERO PUSH2 0x29AE JUMPI RETURNDATASIZE PUSH0 DUP1 RETURNDATACOPY RETURNDATASIZE PUSH0 REVERT JUMPDEST POP PUSH2 0x2A2A JUMP JUMPDEST PUSH1 0x3 SLOAD PUSH1 0x40 MLOAD PUSH4 0xA9059CBB PUSH1 0xE0 SHL DUP2 MSTORE PUSH1 0x1 PUSH1 0x1 PUSH1 0xA0 SHL SUB DUP8 DUP2 AND SWAP3 PUSH4 0xA9059CBB SWAP3 PUSH2 0x29E8 SWAP3 SWAP1 SWAP2 AND SWAP1 DUP6 SWAP1 PUSH1 0x4 ADD PUSH2 0x375C JUMP JUMPDEST PUSH1 0x20 PUSH1 0x40 MLOAD DUP1 DUP4 SUB DUP2 PUSH0 DUP8 GAS CALL ISZERO DUP1 ISZERO PUSH2 0x2A04 JUMPI RETURNDATASIZE PUSH0 DUP1 RETURNDATACOPY RETURNDATASIZE PUSH0 REVERT JUMPDEST POP POP POP POP PUSH1 0x40 MLOAD RETURNDATASIZE PUSH1 0x1F NOT PUSH1 0x1F DUP3 ADD AND DUP3 ADD DUP1 PUSH1 0x40 MSTORE POP DUP2 ADD SWAP1 PUSH2 0x2A28 SWAP2 SWAP1 PUSH2 0x3775 JUMP JUMPDEST POP JUMPDEST DUP1 PUSH1 0x24 PUSH0 DUP3 DUP3 SLOAD PUSH2 0x2A3B SWAP2 SWAP1 PUSH2 0x3749 JUMP JUMPDEST SWAP1 SWAP2 SSTORE POP POP JUMPDEST PUSH0 DUP8 GT DUP1 ISZERO PUSH2 0x2A4F JUMPI POP PUSH0 DUP3 GT JUMPDEST ISZERO PUSH2 0x2B24 JUMPI PUSH1 0xE SLOAD PUSH1 0xF SLOAD PUSH1 0x3 SLOAD PUSH1 0x40 MLOAD PUSH3 0xE8E337 PUSH1 0xE8 SHL DUP2 MSTORE ADDRESS PUSH1 0x4 DUP3 ADD MSTORE PUSH1 0x1 PUSH1 0x1 PUSH1 0xA0 SHL SUB SWAP3 DUP4 AND PUSH1 0x24 DUP3 ADD MSTORE PUSH1 0x44 DUP2 ADD DUP12 SWAP1 MSTORE PUSH1 0x64 DUP2 ADD DUP7 SWAP1 MSTORE PUSH0 PUSH1 0x84 DUP3 ADD DUP2 SWAP1 MSTORE PUSH1 0xA4 DUP3 ADD MSTORE SWAP1 DUP3 AND PUSH1 0xC4 DUP3 ADD MSTORE TIMESTAMP PUSH1 0xE4 DUP3 ADD MSTORE SWAP2 AND SWAP1 PUSH4 0xE8E33700 SWAP1 PUSH2 0x104 ADD PUSH1 0x60 PUSH1 0x40 MLOAD DUP1 DUP4 SUB DUP2 PUSH0 DUP8 GAS CALL SWAP3 POP POP POP DUP1 ISZERO PUSH2 0x2AEF JUMPI POP PUSH1 0x40 DUP1 MLOAD PUSH1 0x1F RETURNDATASIZE SWAP1 DUP2 ADD PUSH1 0x1F NOT AND DUP3 ADD SWAP1 SWAP3 MSTORE PUSH2 0x2AEC SWAP2 DUP2 ADD SWAP1 PUSH2 0x388C JUMP JUMPDEST PUSH1 0x1 JUMPDEST PUSH2 0x2B20 JUMPI PUSH1 0x40 MLOAD PUSH32 0x6C331C730EFD7C7D973857825B7C7B2087A7DAD2124068053CB23FB178016049 SWAP1 PUSH0 SWAP1 LOG1 PUSH2 0x2B24 JUMP JUMPDEST POP POP POP JUMPDEST PUSH1 0x18 SLOAD PUSH1 0x14 SLOAD PUSH2 0x2B34 SWAP2 SWAP1 PUSH2 0x3749 JUMP JUMPDEST PUSH0 SUB PUSH2 0x2B47 JUMPI POP POP POP POP POP POP POP POP PUSH2 0x2C46 JUMP JUMPDEST PUSH1 0x21 SLOAD PUSH1 0x1 EQ PUSH2 0x2C3D JUMPI PUSH1 0xE SLOAD PUSH1 0x40 MLOAD PUSH4 0x70A08231 PUSH1 0xE0 SHL DUP2 MSTORE PUSH1 0x1 PUSH1 0x1 PUSH1 0xA0 SHL SUB SWAP2 DUP3 AND SWAP2 PUSH4 0x5C11D795 SWAP2 SWAP1 DUP9 AND SWAP1 PUSH4 0x70A08231 SWAP1 PUSH2 0x2B8B SWAP1 ADDRESS SWAP1 PUSH1 0x4 ADD PUSH2 0x35E7 JUMP JUMPDEST PUSH1 0x20 PUSH1 0x40 MLOAD DUP1 DUP4 SUB DUP2 DUP7 GAS STATICCALL ISZERO DUP1 ISZERO PUSH2 0x2BA6 JUMPI RETURNDATASIZE PUSH0 DUP1 RETURNDATACOPY RETURNDATASIZE PUSH0 REVERT JUMPDEST POP POP POP POP PUSH1 0x40 MLOAD RETURNDATASIZE PUSH1 0x1F NOT PUSH1 0x1F DUP3 ADD AND DUP3 ADD DUP1 PUSH1 0x40 MSTORE POP DUP2 ADD SWAP1 PUSH2 0x2BCA SWAP2 SWAP1 PUSH2 0x36FD JUMP JUMPDEST PUSH0 PUSH1 0x21 ADDRESS TIMESTAMP PUSH1 0x40 MLOAD DUP7 PUSH4 0xFFFFFFFF AND PUSH1 0xE0 SHL DUP2 MSTORE PUSH1 0x4 ADD PUSH2 0x2BEF SWAP6 SWAP5 SWAP4 SWAP3 SWAP2 SWAP1 PUSH2 0x38B7 JUMP JUMPDEST PUSH0 PUSH1 0x40 MLOAD DUP1 DUP4 SUB DUP2 PUSH0 DUP8 DUP1 EXTCODESIZE ISZERO DUP1 ISZERO PUSH2 0x2C06 JUMPI PUSH0 DUP1 REVERT JUMPDEST POP GAS CALL SWAP3 POP POP POP DUP1 ISZERO PUSH2 0x2C17 JUMPI POP PUSH1 0x1 JUMPDEST PUSH2 0x2C3D JUMPI PUSH1 0x40 MLOAD PUSH1 0x1 DUP2 MSTORE PUSH0 DUP1 MLOAD PUSH1 0x20 PUSH2 0x3909 DUP4 CODECOPY DUP2 MLOAD SWAP2 MSTORE SWAP1 PUSH1 0x20 ADD PUSH1 0x40 MLOAD DUP1 SWAP2 SUB SWAP1 LOG1 JUMPDEST POP POP POP POP POP POP POP POP JUMPDEST POP POP PUSH1 0x11 DUP1 SLOAD PUSH2 0xFF00 NOT AND SWAP1 SSTORE JUMP JUMPDEST PUSH1 0x1 PUSH1 0x1 PUSH1 0xA0 SHL SUB DUP8 AND PUSH0 SWAP1 DUP2 MSTORE PUSH1 0x1 PUSH1 0x20 MSTORE PUSH1 0x40 SWAP1 KECCAK256 SLOAD PUSH2 0x2C78 SWAP1 DUP7 SWAP1 PUSH2 0x3714 JUMP JUMPDEST PUSH1 0x1 PUSH1 0x1 PUSH1 0xA0 SHL SUB DUP9 AND PUSH0 SWAP1 DUP2 MSTORE PUSH1 0x1 PUSH1 0x20 MSTORE PUSH1 0x40 DUP2 KECCAK256 SWAP2 SWAP1 SWAP2 SSTORE DUP5 ISZERO PUSH2 0x2D84 JUMPI PUSH0 DUP5 ISZERO PUSH2 0x2CC4 JUMPI PUSH1 0x17 SLOAD PUSH1 0x18 SLOAD PUSH1 0x16 SLOAD PUSH2 0x2CB3 SWAP2 SWAP1 PUSH2 0x3749 JUMP JUMPDEST PUSH2 0x2CBD SWAP2 SWAP1 PUSH2 0x3749 JUMP JUMPDEST SWAP1 POP PUSH2 0x2CE4 JUMP JUMPDEST PUSH1 0x14 SLOAD PUSH1 0x13 SLOAD PUSH1 0x12 SLOAD PUSH2 0x2CD7 SWAP2 SWAP1 PUSH2 0x3749 JUMP JUMPDEST PUSH2 0x2CE1 SWAP2 SWAP1 PUSH2 0x3749 JUMP JUMPDEST SWAP1 POP JUMPDEST PUSH0 PUSH2 0x2710 PUSH2 0x2CF2 DUP4 DUP11 PUSH2 0x3790 JUMP JUMPDEST PUSH2 0x2CFC SWAP2 SWAP1 PUSH2 0x37A7 JUMP JUMPDEST SWAP1 POP DUP1 ISZERO PUSH2 0x2D1B JUMPI PUSH2 0x2D0E DUP2 DUP5 PUSH2 0x3749 JUMP JUMPDEST SWAP3 POP PUSH2 0x2D1B DUP11 ADDRESS DUP4 PUSH2 0x3389 JUMP JUMPDEST PUSH0 DUP7 PUSH2 0x2D43 JUMPI PUSH2 0x2710 PUSH1 0x15 SLOAD DUP11 PUSH2 0x2D32 SWAP2 SWAP1 PUSH2 0x3790 JUMP JUMPDEST PUSH2 0x2D3C SWAP2 SWAP1 PUSH2 0x37A7 JUMP JUMPDEST SWAP1 POP PUSH2 0x2D61 JUMP JUMPDEST PUSH2 0x2710 PUSH1 0x19 SLOAD DUP11 PUSH2 0x2D54 SWAP2 SWAP1 PUSH2 0x3790 JUMP JUMPDEST PUSH2 0x2D5E SWAP2 SWAP1 PUSH2 0x37A7 JUMP JUMPDEST SWAP1 POP JUMPDEST DUP1 ISZERO PUSH2 0x2D80 JUMPI PUSH2 0x2D71 DUP2 DUP6 PUSH2 0x3749 JUMP JUMPDEST SWAP4 POP PUSH2 0x2D80 DUP12 PUSH2 0xDEAD DUP4 PUSH2 0x3389 JUMP JUMPDEST POP POP POP JUMPDEST DUP3 DUP1 ISZERO PUSH2 0x2DA9 JUMPI POP PUSH1 0x1 PUSH1 0x1 PUSH1 0xA0 SHL SUB DUP9 AND PUSH0 SWAP1 DUP2 MSTORE PUSH1 0xA PUSH1 0x20 MSTORE PUSH1 0x40 SWAP1 KECCAK256 SLOAD PUSH1 0xFF AND ISZERO JUMPDEST DUP1 ISZERO PUSH2 0x2DCD JUMPI POP PUSH1 0x1 PUSH1 0x1 PUSH1 0xA0 SHL SUB DUP8 AND PUSH0 SWAP1 DUP2 MSTORE PUSH1 0xA PUSH1 0x20 MSTORE PUSH1 0x40 SWAP1 KECCAK256 SLOAD PUSH1 0xFF AND ISZERO JUMPDEST ISZERO PUSH2 0x2E0F JUMPI PUSH0 PUSH2 0x2710 PUSH1 0x1A SLOAD DUP9 PUSH2 0x2DE4 SWAP2 SWAP1 PUSH2 0x3790 JUMP JUMPDEST PUSH2 0x2DEE SWAP2 SWAP1 PUSH2 0x37A7 JUMP JUMPDEST SWAP1 POP DUP1 ISZERO PUSH2 0x2E0D JUMPI PUSH2 0x2E00 DUP2 DUP4 PUSH2 0x3749 JUMP JUMPDEST SWAP2 POP PUSH2 0x2E0D DUP10 ADDRESS DUP4 PUSH2 0x3389 JUMP JUMPDEST POP JUMPDEST DUP2 DUP1 ISZERO PUSH2 0x2E34 JUMPI POP PUSH1 0x1 PUSH1 0x1 PUSH1 0xA0 SHL SUB DUP9 AND PUSH0 SWAP1 DUP2 MSTORE PUSH1 0xA PUSH1 0x20 MSTORE PUSH1 0x40 SWAP1 KECCAK256 SLOAD PUSH1 0xFF AND ISZERO JUMPDEST DUP1 ISZERO PUSH2 0x2E58 JUMPI POP PUSH1 0x1 PUSH1 0x1 PUSH1 0xA0 SHL SUB DUP8 AND PUSH0 SWAP1 DUP2 MSTORE PUSH1 0xA PUSH1 0x20 MSTORE PUSH1 0x40 SWAP1 KECCAK256 SLOAD PUSH1 0xFF AND ISZERO JUMPDEST ISZERO PUSH2 0x2E9C JUMPI PUSH0 PUSH2 0x2710 PUSH1 0x1B SLOAD DUP9 PUSH2 0x2E6F SWAP2 SWAP1 PUSH2 0x3790 JUMP JUMPDEST PUSH2 0x2E79 SWAP2 SWAP1 PUSH2 0x37A7 JUMP JUMPDEST SWAP1 POP DUP1 ISZERO PUSH2 0x2E9A JUMPI PUSH2 0x2E8B DUP2 DUP4 PUSH2 0x3749 JUMP JUMPDEST SWAP2 POP PUSH2 0x2E9A DUP10 PUSH2 0xDEAD DUP4 PUSH2 0x3389 JUMP JUMPDEST POP JUMPDEST PUSH1 0x1 PUSH1 0x1 PUSH1 0xA0 SHL SUB DUP8 AND PUSH0 SWAP1 DUP2 MSTORE PUSH1 0xC PUSH1 0x20 MSTORE PUSH1 0x40 SWAP1 KECCAK256 SLOAD PUSH1 0xFF AND ISZERO DUP1 ISZERO PUSH2 0x2ECD JUMPI POP PUSH1 0x20 SLOAD PUSH1 0x1 PUSH1 0xB8 SHL SWAP1 DIV PUSH1 0xFF AND JUMPDEST ISZERO PUSH2 0x2F2F JUMPI PUSH1 0x9 SLOAD DUP2 DUP8 PUSH2 0x2EE0 DUP11 PUSH2 0x141C JUMP JUMPDEST PUSH2 0x2EEA SWAP2 SWAP1 PUSH2 0x3749 JUMP JUMPDEST PUSH2 0x2EF4 SWAP2 SWAP1 PUSH2 0x3714 JUMP JUMPDEST GT ISZERO PUSH2 0x2F2F JUMPI PUSH1 0x40 MLOAD PUSH3 0x461BCD PUSH1 0xE5 SHL DUP2 MSTORE PUSH1 0x20 PUSH1 0x4 DUP3 ADD MSTORE PUSH1 0xA PUSH1 0x24 DUP3 ADD MSTORE PUSH10 0x1BDD995C881B1A5B5A5D PUSH1 0xB2 SHL PUSH1 0x44 DUP3 ADD MSTORE PUSH1 0x64 ADD PUSH2 0xD38 JUMP JUMPDEST PUSH2 0x2F43 DUP9 DUP9 PUSH2 0x2F3E DUP5 DUP11 PUSH2 0x3714 JUMP JUMPDEST PUSH2 0x3389 JUMP JUMPDEST POP POP POP POP POP POP POP POP JUMP JUMPDEST NUMBER PUSH1 0x2B SLOAD PUSH1 0x2A SLOAD PUSH2 0x2F5E SWAP2 SWAP1 PUSH2 0x3749 JUMP JUMPDEST GT ISZERO PUSH2 0x2F67 JUMPI POP JUMP JUMPDEST PUSH1 0x1D SLOAD PUSH1 0x40 MLOAD PUSH4 0x70A08231 PUSH1 0xE0 SHL DUP2 MSTORE PUSH2 0x100 SWAP1 SWAP2 DIV PUSH1 0x1 PUSH1 0x1 PUSH1 0xA0 SHL SUB AND SWAP1 PUSH0 SWAP1 DUP3 SWAP1 PUSH4 0x70A08231 SWAP1 PUSH2 0x2F9F SWAP1 ADDRESS SWAP1 PUSH1 0x4 ADD PUSH2 0x35E7 JUMP JUMPDEST PUSH1 0x20 PUSH1 0x40 MLOAD DUP1 DUP4 SUB DUP2 DUP7 GAS STATICCALL ISZERO DUP1 ISZERO PUSH2 0x2FBA JUMPI RETURNDATASIZE PUSH0 DUP1 RETURNDATACOPY RETURNDATASIZE PUSH0 REVERT JUMPDEST POP POP POP POP PUSH1 0x40 MLOAD RETURNDATASIZE PUSH1 0x1F NOT PUSH1 0x1F DUP3 ADD AND DUP3 ADD DUP1 PUSH1 0x40 MSTORE POP DUP2 ADD SWAP1 PUSH2 0x2FDE SWAP2 SWAP1 PUSH2 0x36FD JUMP JUMPDEST SWAP1 POP PUSH1 0x29 SLOAD DUP2 LT ISZERO PUSH2 0x2FEF JUMPI POP POP POP JUMP JUMPDEST PUSH1 0x20 SLOAD PUSH1 0x4 DUP1 SLOAD PUSH1 0x40 MLOAD PUSH4 0x70A08231 PUSH1 0xE0 SHL DUP2 MSTORE PUSH1 0x1 PUSH1 0x1 PUSH1 0xA0 SHL SUB SWAP4 DUP5 AND SWAP4 PUSH0 SWAP4 DUP6 SWAP4 PUSH4 0x70A08231 SWAP4 PUSH2 0x3027 SWAP4 SWAP1 SWAP2 AND SWAP2 ADD PUSH2 0x35E7 JUMP JUMPDEST PUSH1 0x20 PUSH1 0x40 MLOAD DUP1 DUP4 SUB DUP2 DUP7 GAS STATICCALL ISZERO DUP1 ISZERO PUSH2 0x3042 JUMPI RETURNDATASIZE PUSH0 DUP1 RETURNDATACOPY RETURNDATASIZE PUSH0 REVERT JUMPDEST POP POP POP POP PUSH1 0x40 MLOAD RETURNDATASIZE PUSH1 0x1F NOT PUSH1 0x1F DUP3 ADD AND DUP3 ADD DUP1 PUSH1 0x40 MSTORE POP DUP2 ADD SWAP1 PUSH2 0x3066 SWAP2 SWAP1 PUSH2 0x36FD JUMP JUMPDEST DUP3 PUSH1 0x1 PUSH1 0x1 PUSH1 0xA0 SHL SUB AND PUSH4 0x18160DDD PUSH1 0x40 MLOAD DUP2 PUSH4 0xFFFFFFFF AND PUSH1 0xE0 SHL DUP2 MSTORE PUSH1 0x4 ADD PUSH1 0x20 PUSH1 0x40 MLOAD DUP1 DUP4 SUB DUP2 DUP7 GAS STATICCALL ISZERO DUP1 ISZERO PUSH2 0x30A2 JUMPI RETURNDATASIZE PUSH0 DUP1 RETURNDATACOPY RETURNDATASIZE PUSH0 REVERT JUMPDEST POP POP POP POP PUSH1 0x40 MLOAD RETURNDATASIZE PUSH1 0x1F NOT PUSH1 0x1F DUP3 ADD AND DUP3 ADD DUP1 PUSH1 0x40 MSTORE POP DUP2 ADD SWAP1 PUSH2 0x30C6 SWAP2 SWAP1 PUSH2 0x36FD JUMP JUMPDEST PUSH2 0x30D0 SWAP2 SWAP1 PUSH2 0x3714 JUMP JUMPDEST PUSH1 0x25 SLOAD SWAP1 SWAP2 POP PUSH0 SWAP1 DUP2 SWAP1 DUP2 SWAP1 DUP2 DUP1 DUP1 GAS PUSH1 0x40 MLOAD PUSH4 0x70A08231 PUSH1 0xE0 SHL DUP2 MSTORE SWAP1 SWAP2 POP PUSH1 0x1 PUSH1 0x1 PUSH1 0xA0 SHL SUB DUP13 AND SWAP1 PUSH4 0x70A08231 SWAP1 PUSH2 0x310F SWAP1 ADDRESS SWAP1 PUSH1 0x4 ADD PUSH2 0x35E7 JUMP JUMPDEST PUSH1 0x20 PUSH1 0x40 MLOAD DUP1 DUP4 SUB DUP2 DUP7 GAS STATICCALL ISZERO DUP1 ISZERO PUSH2 0x312A JUMPI RETURNDATASIZE PUSH0 DUP1 RETURNDATACOPY RETURNDATASIZE PUSH0 REVERT JUMPDEST POP POP POP POP PUSH1 0x40 MLOAD RETURNDATASIZE PUSH1 0x1F NOT PUSH1 0x1F DUP3 ADD AND DUP3 ADD DUP1 PUSH1 0x40 MSTORE POP DUP2 ADD SWAP1 PUSH2 0x314E SWAP2 SWAP1 PUSH2 0x36FD JUMP JUMPDEST SWAP10 POP JUMPDEST DUP12 DUP4 LT DUP1 ISZERO PUSH2 0x315F JUMPI POP DUP4 DUP3 LT JUMPDEST ISZERO PUSH2 0x3377 JUMPI DUP4 PUSH1 0x28 SLOAD LT PUSH2 0x3172 JUMPI PUSH0 PUSH1 0x28 SSTORE JUMPDEST PUSH1 0x25 PUSH1 0x28 SLOAD DUP2 SLOAD DUP2 LT PUSH2 0x3187 JUMPI PUSH2 0x3187 PUSH2 0x36BD JUMP JUMPDEST PUSH0 SWAP2 DUP3 MSTORE PUSH1 0x20 SWAP1 SWAP2 KECCAK256 ADD SLOAD PUSH1 0x40 MLOAD PUSH4 0x70A08231 PUSH1 0xE0 SHL DUP2 MSTORE PUSH1 0x1 PUSH1 0x1 PUSH1 0xA0 SHL SUB SWAP2 DUP3 AND SWAP9 POP SWAP1 DUP11 AND SWAP1 PUSH4 0x70A08231 SWAP1 PUSH2 0x31C4 SWAP1 DUP11 SWAP1 PUSH1 0x4 ADD PUSH2 0x35E7 JUMP JUMPDEST PUSH1 0x20 PUSH1 0x40 MLOAD DUP1 DUP4 SUB DUP2 DUP7 GAS STATICCALL ISZERO DUP1 ISZERO PUSH2 0x31DF JUMPI RETURNDATASIZE PUSH0 DUP1 RETURNDATACOPY RETURNDATASIZE PUSH0 REVERT JUMPDEST POP POP POP POP PUSH1 0x40 MLOAD RETURNDATASIZE PUSH1 0x1F NOT PUSH1 0x1F DUP3 ADD AND DUP3 ADD DUP1 PUSH1 0x40 MSTORE POP DUP2 ADD SWAP1 PUSH2 0x3203 SWAP2 SWAP1 PUSH2 0x36FD JUMP JUMPDEST SWAP6 POP PUSH0 DUP7 GT DUP1 ISZERO PUSH2 0x322C JUMPI POP PUSH1 0x1 PUSH1 0x1 PUSH1 0xA0 SHL SUB DUP8 AND PUSH0 SWAP1 DUP2 MSTORE PUSH1 0x27 PUSH1 0x20 MSTORE PUSH1 0x40 SWAP1 KECCAK256 SLOAD PUSH1 0xFF AND ISZERO JUMPDEST ISZERO PUSH2 0x3336 JUMPI DUP8 PUSH2 0x323C DUP8 DUP13 PUSH2 0x3790 JUMP JUMPDEST PUSH2 0x3246 SWAP2 SWAP1 PUSH2 0x37A7 JUMP JUMPDEST SWAP5 POP PUSH0 DUP6 GT DUP1 ISZERO PUSH2 0x32C1 JUMPI POP PUSH1 0x40 MLOAD PUSH4 0x70A08231 PUSH1 0xE0 SHL DUP2 MSTORE DUP6 SWAP1 PUSH1 0x1 PUSH1 0x1 PUSH1 0xA0 SHL SUB DUP14 AND SWAP1 PUSH4 0x70A08231 SWAP1 PUSH2 0x3280 SWAP1 ADDRESS SWAP1 PUSH1 0x4 ADD PUSH2 0x35E7 JUMP JUMPDEST PUSH1 0x20 PUSH1 0x40 MLOAD DUP1 DUP4 SUB DUP2 DUP7 GAS STATICCALL ISZERO DUP1 ISZERO PUSH2 0x329B JUMPI RETURNDATASIZE PUSH0 DUP1 RETURNDATACOPY RETURNDATASIZE PUSH0 REVERT JUMPDEST POP POP POP POP PUSH1 0x40 MLOAD RETURNDATASIZE PUSH1 0x1F NOT PUSH1 0x1F DUP3 ADD AND DUP3 ADD DUP1 PUSH1 0x40 MSTORE POP DUP2 ADD SWAP1 PUSH2 0x32BF SWAP2 SWAP1 PUSH2 0x36FD JUMP JUMPDEST GT JUMPDEST ISZERO PUSH2 0x3336 JUMPI PUSH1 0x40 MLOAD PUSH4 0xA9059CBB PUSH1 0xE0 SHL DUP2 MSTORE PUSH1 0x1 PUSH1 0x1 PUSH1 0xA0 SHL SUB DUP13 AND SWAP1 PUSH4 0xA9059CBB SWAP1 PUSH2 0x32F4 SWAP1 DUP11 SWAP1 DUP10 SWAP1 PUSH1 0x4 ADD PUSH2 0x375C JUMP JUMPDEST PUSH1 0x20 PUSH1 0x40 MLOAD DUP1 DUP4 SUB DUP2 PUSH0 DUP8 GAS CALL ISZERO DUP1 ISZERO PUSH2 0x3310 JUMPI RETURNDATASIZE PUSH0 DUP1 RETURNDATACOPY RETURNDATASIZE PUSH0 REVERT JUMPDEST POP POP POP POP PUSH1 0x40 MLOAD RETURNDATASIZE PUSH1 0x1F NOT PUSH1 0x1F DUP3 ADD AND DUP3 ADD DUP1 PUSH1 0x40 MSTORE POP DUP2 ADD SWAP1 PUSH2 0x3334 SWAP2 SWAP1 PUSH2 0x3775 JUMP JUMPDEST POP JUMPDEST GAS PUSH2 0x3341 SWAP1 DUP3 PUSH2 0x3714 JUMP JUMPDEST PUSH2 0x334B SWAP1 DUP5 PUSH2 0x3749 JUMP JUMPDEST SWAP3 POP GAS PUSH1 0x28 DUP1 SLOAD SWAP2 SWAP3 POP PUSH0 PUSH2 0x335F DUP4 PUSH2 0x36E5 JUMP JUMPDEST SWAP2 SWAP1 POP SSTORE POP DUP2 DUP1 PUSH2 0x336F SWAP1 PUSH2 0x36E5 JUMP JUMPDEST SWAP3 POP POP PUSH2 0x3151 JUMP JUMPDEST POP POP NUMBER PUSH1 0x2A SSTORE POP POP POP POP POP POP POP POP POP POP JUMP JUMPDEST PUSH1 0x1 PUSH1 0x1 PUSH1 0xA0 SHL SUB DUP3 AND PUSH0 SWAP1 DUP2 MSTORE PUSH1 0x1 PUSH1 0x20 MSTORE PUSH1 0x40 SWAP1 KECCAK256 SLOAD PUSH2 0x33AC SWAP1 DUP3 SWAP1 PUSH2 0x3749 JUMP JUMPDEST PUSH1 0x1 PUSH1 0x1 PUSH1 0xA0 SHL SUB DUP1 DUP5 AND PUSH0 DUP2 DUP2 MSTORE PUSH1 0x1 PUSH1 0x20 MSTORE PUSH1 0x40 SWAP1 DUP2 SWAP1 KECCAK256 SWAP4 SWAP1 SWAP4 SSTORE SWAP2 MLOAD SWAP1 DUP6 AND SWAP1 PUSH0 DUP1 MLOAD PUSH1 0x20 PUSH2 0x3949 DUP4 CODECOPY DUP2 MLOAD SWAP2 MSTORE SWAP1 PUSH2 0x1D77 SWAP1 DUP6 DUP2 MSTORE PUSH1 0x20 ADD SWAP1 JUMP JUMPDEST PUSH1 0x1 PUSH1 0x1 PUSH1 0xA0 SHL SUB DUP2 AND DUP2 EQ PUSH2 0x3400 JUMPI PUSH0 DUP1 REVERT JUMPDEST POP JUMP JUMPDEST PUSH0 PUSH1 0x20 DUP3 DUP5 SUB SLT ISZERO PUSH2 0x3413 JUMPI PUSH0 DUP1 REVERT JUMPDEST DUP2 CALLDATALOAD PUSH2 0x341E DUP2 PUSH2 0x33EC JUMP JUMPDEST SWAP4 SWAP3 POP POP POP JUMP JUMPDEST DUP1 ISZERO ISZERO DUP2 EQ PUSH2 0x3400 JUMPI PUSH0 DUP1 REVERT JUMPDEST PUSH0 DUP1 PUSH1 0x40 DUP4 DUP6 SUB SLT ISZERO PUSH2 0x3443 JUMPI PUSH0 DUP1 REVERT JUMPDEST DUP3 CALLDATALOAD PUSH2 0x344E DUP2 PUSH2 0x33EC JUMP JUMPDEST SWAP2 POP PUSH1 0x20 DUP4 ADD CALLDATALOAD PUSH2 0x345E DUP2 PUSH2 0x3425 JUMP JUMPDEST DUP1 SWAP2 POP POP SWAP3 POP SWAP3 SWAP1 POP JUMP JUMPDEST PUSH0 PUSH1 0x20 DUP3 DUP5 SUB SLT ISZERO PUSH2 0x3479 JUMPI PUSH0 DUP1 REVERT JUMPDEST POP CALLDATALOAD SWAP2 SWAP1 POP JUMP JUMPDEST PUSH0 PUSH1 0x20 DUP1 DUP4 MSTORE DUP4 MLOAD DUP1 DUP3 DUP6 ADD MSTORE PUSH0 JUMPDEST DUP2 DUP2 LT ISZERO PUSH2 0x34AB JUMPI DUP6 DUP2 ADD DUP4 ADD MLOAD DUP6 DUP3 ADD PUSH1 0x40 ADD MSTORE DUP3 ADD PUSH2 0x348F JUMP JUMPDEST POP PUSH0 PUSH1 0x40 DUP3 DUP7 ADD ADD MSTORE PUSH1 0x40 PUSH1 0x1F NOT PUSH1 0x1F DUP4 ADD AND DUP6 ADD ADD SWAP3 POP POP POP SWAP3 SWAP2 POP POP JUMP JUMPDEST PUSH0 PUSH1 0x20 DUP3 DUP5 SUB SLT ISZERO PUSH2 0x34DB JUMPI PUSH0 DUP1 REVERT JUMPDEST DUP2 CALLDATALOAD PUSH2 0x341E DUP2 PUSH2 0x3425 JUMP JUMPDEST PUSH0 DUP1 PUSH1 0x40 DUP4 DUP6 SUB SLT ISZERO PUSH2 0x34F7 JUMPI PUSH0 DUP1 REVERT JUMPDEST DUP3 CALLDATALOAD PUSH2 0x3502 DUP2 PUSH2 0x33EC JUMP JUMPDEST SWAP5 PUSH1 0x20 SWAP4 SWAP1 SWAP4 ADD CALLDATALOAD SWAP4 POP POP POP JUMP JUMPDEST PUSH0 DUP1 DUP4 PUSH1 0x1F DUP5 ADD SLT PUSH2 0x3520 JUMPI PUSH0 DUP1 REVERT JUMPDEST POP DUP2 CALLDATALOAD PUSH1 0x1 PUSH1 0x1 PUSH1 0x40 SHL SUB DUP2 GT ISZERO PUSH2 0x3536 JUMPI PUSH0 DUP1 REVERT JUMPDEST PUSH1 0x20 DUP4 ADD SWAP2 POP DUP4 PUSH1 0x20 DUP3 PUSH1 0x5 SHL DUP6 ADD ADD GT ISZERO PUSH2 0x3550 JUMPI PUSH0 DUP1 REVERT JUMPDEST SWAP3 POP SWAP3 SWAP1 POP JUMP JUMPDEST PUSH0 DUP1 PUSH0 PUSH1 0x40 DUP5 DUP7 SUB SLT ISZERO PUSH2 0x3569 JUMPI PUSH0 DUP1 REVERT JUMPDEST DUP4 CALLDATALOAD PUSH1 0x1 PUSH1 0x1 PUSH1 0x40 SHL SUB DUP2 GT ISZERO PUSH2 0x357E JUMPI PUSH0 DUP1 REVERT JUMPDEST PUSH2 0x358A DUP7 DUP3 DUP8 ADD PUSH2 0x3510 JUMP JUMPDEST SWAP1 SWAP5 POP SWAP3 POP POP PUSH1 0x20 DUP5 ADD CALLDATALOAD PUSH2 0x359E DUP2 PUSH2 0x3425 JUMP JUMPDEST DUP1 SWAP2 POP POP SWAP3 POP SWAP3 POP SWAP3 JUMP JUMPDEST PUSH0 DUP1 PUSH1 0x20 DUP4 DUP6 SUB SLT ISZERO PUSH2 0x35BA JUMPI PUSH0 DUP1 REVERT JUMPDEST DUP3 CALLDATALOAD PUSH1 0x1 PUSH1 0x1 PUSH1 0x40 SHL SUB DUP2 GT ISZERO PUSH2 0x35CF JUMPI PUSH0 DUP1 REVERT JUMPDEST PUSH2 0x35DB DUP6 DUP3 DUP7 ADD PUSH2 0x3510 JUMP JUMPDEST SWAP1 SWAP7 SWAP1 SWAP6 POP SWAP4 POP POP POP POP JUMP JUMPDEST PUSH1 0x1 PUSH1 0x1 PUSH1 0xA0 SHL SUB SWAP2 SWAP1 SWAP2 AND DUP2 MSTORE PUSH1 0x20 ADD SWAP1 JUMP JUMPDEST PUSH0 DUP1 PUSH0 PUSH1 0x60 DUP5 DUP7 SUB SLT ISZERO PUSH2 0x360D JUMPI PUSH0 DUP1 REVERT JUMPDEST DUP4 CALLDATALOAD PUSH2 0x3618 DUP2 PUSH2 0x33EC JUMP JUMPDEST SWAP3 POP PUSH1 0x20 DUP5 ADD CALLDATALOAD PUSH2 0x3628 DUP2 PUSH2 0x33EC JUMP JUMPDEST SWAP3 SWAP6 SWAP3 SWAP5 POP POP POP PUSH1 0x40 SWAP2 SWAP1 SWAP2 ADD CALLDATALOAD SWAP1 JUMP JUMPDEST PUSH0 DUP1 PUSH1 0x40 DUP4 DUP6 SUB SLT ISZERO PUSH2 0x364A JUMPI PUSH0 DUP1 REVERT JUMPDEST DUP3 CALLDATALOAD PUSH2 0x3655 DUP2 PUSH2 0x33EC JUMP JUMPDEST SWAP2 POP PUSH1 0x20 DUP4 ADD CALLDATALOAD PUSH2 0x345E DUP2 PUSH2 0x33EC JUMP JUMPDEST PUSH1 0x20 DUP1 DUP3 MSTORE PUSH1 0x6 SWAP1 DUP3 ADD MSTORE PUSH6 0x10B7BBB732B9 PUSH1 0xD1 SHL PUSH1 0x40 DUP3 ADD MSTORE PUSH1 0x60 ADD SWAP1 JUMP JUMPDEST PUSH1 0x1 DUP2 DUP2 SHR SWAP1 DUP3 AND DUP1 PUSH2 0x3699 JUMPI PUSH1 0x7F DUP3 AND SWAP2 POP JUMPDEST PUSH1 0x20 DUP3 LT DUP2 SUB PUSH2 0x36B7 JUMPI PUSH4 0x4E487B71 PUSH1 0xE0 SHL PUSH0 MSTORE PUSH1 0x22 PUSH1 0x4 MSTORE PUSH1 0x24 PUSH0 REVERT JUMPDEST POP SWAP2 SWAP1 POP JUMP JUMPDEST PUSH4 0x4E487B71 PUSH1 0xE0 SHL PUSH0 MSTORE PUSH1 0x32 PUSH1 0x4 MSTORE PUSH1 0x24 PUSH0 REVERT JUMPDEST PUSH4 0x4E487B71 PUSH1 0xE0 SHL PUSH0 MSTORE PUSH1 0x11 PUSH1 0x4 MSTORE PUSH1 0x24 PUSH0 REVERT JUMPDEST PUSH0 PUSH1 0x1 DUP3 ADD PUSH2 0x36F6 JUMPI PUSH2 0x36F6 PUSH2 0x36D1 JUMP JUMPDEST POP PUSH1 0x1 ADD SWAP1 JUMP JUMPDEST PUSH0 PUSH1 0x20 DUP3 DUP5 SUB SLT ISZERO PUSH2 0x370D JUMPI PUSH0 DUP1 REVERT JUMPDEST POP MLOAD SWAP2 SWAP1 POP JUMP JUMPDEST DUP2 DUP2 SUB DUP2 DUP2 GT ISZERO PUSH2 0x1785 JUMPI PUSH2 0x1785 PUSH2 0x36D1 JUMP JUMPDEST PUSH1 0x20 DUP1 DUP3 MSTORE PUSH1 0x8 SWAP1 DUP3 ADD MSTORE PUSH8 0x191A5CD8589B1959 PUSH1 0xC2 SHL PUSH1 0x40 DUP3 ADD MSTORE PUSH1 0x60 ADD SWAP1 JUMP JUMPDEST DUP1 DUP3 ADD DUP1 DUP3 GT ISZERO PUSH2 0x1785 JUMPI PUSH2 0x1785 PUSH2 0x36D1 JUMP JUMPDEST PUSH1 0x1 PUSH1 0x1 PUSH1 0xA0 SHL SUB SWAP3 SWAP1 SWAP3 AND DUP3 MSTORE PUSH1 0x20 DUP3 ADD MSTORE PUSH1 0x40 ADD SWAP1 JUMP JUMPDEST PUSH0 PUSH1 0x20 DUP3 DUP5 SUB SLT ISZERO PUSH2 0x3785 JUMPI PUSH0 DUP1 REVERT JUMPDEST DUP2 MLOAD PUSH2 0x341E DUP2 PUSH2 0x3425 JUMP JUMPDEST DUP1 DUP3 MUL DUP2 ISZERO DUP3 DUP3 DIV DUP5 EQ OR PUSH2 0x1785 JUMPI PUSH2 0x1785 PUSH2 0x36D1 JUMP JUMPDEST PUSH0 DUP3 PUSH2 0x37C1 JUMPI PUSH4 0x4E487B71 PUSH1 0xE0 SHL PUSH0 MSTORE PUSH1 0x12 PUSH1 0x4 MSTORE PUSH1 0x24 PUSH0 REVERT JUMPDEST POP DIV SWAP1 JUMP JUMPDEST DUP1 MLOAD PUSH1 0x1 PUSH1 0x1 PUSH1 0x70 SHL SUB DUP2 AND DUP2 EQ PUSH2 0x129C JUMPI PUSH0 DUP1 REVERT JUMPDEST PUSH0 DUP1 PUSH0 PUSH1 0x60 DUP5 DUP7 SUB SLT ISZERO PUSH2 0x37EE JUMPI PUSH0 DUP1 REVERT JUMPDEST PUSH2 0x37F7 DUP5 PUSH2 0x37C6 JUMP JUMPDEST SWAP3 POP PUSH2 0x3805 PUSH1 0x20 DUP6 ADD PUSH2 0x37C6 JUMP JUMPDEST SWAP2 POP PUSH1 0x40 DUP5 ADD MLOAD PUSH4 0xFFFFFFFF DUP2 AND DUP2 EQ PUSH2 0x359E JUMPI PUSH0 DUP1 REVERT JUMPDEST PUSH0 PUSH1 0xA0 DUP3 ADD DUP8 DUP4 MSTORE PUSH1 0x20 DUP8 DUP2 DUP6 ADD MSTORE PUSH1 0xA0 PUSH1 0x40 DUP6 ADD MSTORE DUP2 DUP8 MLOAD DUP1 DUP5 MSTORE PUSH1 0xC0 DUP7 ADD SWAP2 POP DUP3 DUP10 ADD SWAP4 POP PUSH0 JUMPDEST DUP2 DUP2 LT ISZERO PUSH2 0x386B JUMPI DUP5 MLOAD PUSH1 0x1 PUSH1 0x1 PUSH1 0xA0 SHL SUB AND DUP4 MSTORE SWAP4 DUP4 ADD SWAP4 SWAP2 DUP4 ADD SWAP2 PUSH1 0x1 ADD PUSH2 0x3846 JUMP JUMPDEST POP POP PUSH1 0x1 PUSH1 0x1 PUSH1 0xA0 SHL SUB SWAP7 SWAP1 SWAP7 AND PUSH1 0x60 DUP6 ADD MSTORE POP POP POP PUSH1 0x80 ADD MSTORE SWAP4 SWAP3 POP POP POP JUMP JUMPDEST PUSH0 DUP1 PUSH0 PUSH1 0x60 DUP5 DUP7 SUB SLT ISZERO PUSH2 0x389E JUMPI PUSH0 DUP1 REVERT JUMPDEST DUP4 MLOAD SWAP3 POP PUSH1 0x20 DUP5 ADD MLOAD SWAP2 POP PUSH1 0x40 DUP5 ADD MLOAD SWAP1 POP SWAP3 POP SWAP3 POP SWAP3 JUMP JUMPDEST PUSH0 PUSH1 0xA0 DUP3 ADD DUP8 DUP4 MSTORE PUSH1 0x20 DUP8 DUP2 DUP6 ADD MSTORE PUSH1 0xA0 PUSH1 0x40 DUP6 ADD MSTORE DUP2 DUP8 SLOAD DUP1 DUP5 MSTORE PUSH1 0xC0 DUP7 ADD SWAP2 POP DUP9 PUSH0 MSTORE DUP3 PUSH0 KECCAK256 SWAP4 POP PUSH0 JUMPDEST DUP2 DUP2 LT ISZERO PUSH2 0x386B JUMPI DUP5 SLOAD PUSH1 0x1 PUSH1 0x1 PUSH1 0xA0 SHL SUB AND DUP4 MSTORE PUSH1 0x1 SWAP5 DUP6 ADD SWAP5 SWAP3 DUP5 ADD SWAP3 ADD PUSH2 0x38E3 JUMP INVALID PUSH13 0x37756E80DABA6F4DF0D5BFA6CD 0xDA 0xDF 0xE2 CALLDATASIZE ADD 0xAC 0xC1 LOG2 PUSH30 0xC8D4AA427DE91467888BE0079C531659141344CD1FD0A4F28419497F9722 LOG3 0xDA 0xAF 0xE3 0xB4 XOR PUSH16 0x6B6457E0DDF252AD1BE2C89B69C2B068 0xFC CALLDATACOPY DUP14 0xAA SWAP6 0x2B 0xA7 CALL PUSH4 0xC4A11628 CREATE2 GAS 0x4D CREATE2 0x23 0xB3 0xEF LOG2 PUSH5 0x6970667358 0x22 SLT KECCAK256 0xA6 PUSH13 0xC2470C84EAEF52EA6721BBDA25 DUP16 DUP1 0xEB 0xEA LOG1 PUSH5 0x98C223F2B2 DUP7 SLOAD EXP DUP2 CODECOPY CALLDATASIZE PUSH5 0x736F6C6343 STOP ADDMOD EQ STOP CALLER PUSH1 0x80 PUSH1 0x40 MSTORE CALLVALUE DUP1 ISZERO PUSH1 0xE JUMPI PUSH0 DUP1 REVERT JUMPDEST POP PUSH1 0x40 MLOAD PUSH2 0xFE CODESIZE SUB DUP1 PUSH2 0xFE DUP4 CODECOPY DUP2 ADD PUSH1 0x40 DUP2 SWAP1 MSTORE PUSH1 0x2B SWAP2 PUSH1 0x89 JUMP JUMPDEST PUSH1 0x40 MLOAD PUSH4 0x95EA7B3 PUSH1 0xE0 SHL DUP2 MSTORE CALLER PUSH1 0x4 DUP3 ADD MSTORE PUSH0 NOT PUSH1 0x24 DUP3 ADD MSTORE PUSH1 0x1 PUSH1 0x1 PUSH1 0xA0 SHL SUB DUP3 AND SWAP1 PUSH4 0x95EA7B3 SWAP1 PUSH1 0x44 ADD PUSH0 PUSH1 0x40 MLOAD DUP1 DUP4 SUB DUP2 PUSH0 DUP8 DUP1 EXTCODESIZE ISZERO DUP1 ISZERO PUSH1 0x6F JUMPI PUSH0 DUP1 REVERT JUMPDEST POP GAS CALL ISZERO DUP1 ISZERO PUSH1 0x80 JUMPI RETURNDATASIZE PUSH0 DUP1 RETURNDATACOPY RETURNDATASIZE PUSH0 REVERT JUMPDEST POP POP POP POP POP PUSH1 0xB4 JUMP JUMPDEST PUSH0 PUSH1 0x20 DUP3 DUP5 SUB SLT ISZERO PUSH1 0x98 JUMPI PUSH0 DUP1 REVERT JUMPDEST DUP2 MLOAD PUSH1 0x1 PUSH1 0x1 PUSH1 0xA0 SHL SUB DUP2 AND DUP2 EQ PUSH1 0xAD JUMPI PUSH0 DUP1 REVERT JUMPDEST SWAP4 SWAP3 POP POP POP JUMP JUMPDEST PUSH1 0x3E DUP1 PUSH2 0xC0 PUSH0 CODECOPY PUSH0 RETURN INVALID PUSH1 0x80 PUSH1 0x40 MSTORE PUSH0 DUP1 REVERT INVALID LOG2 PUSH5 0x6970667358 0x22 SLT KECCAK256 0xAE POP GASLIMIT 0x23 DUP1 0x49 0x2D BLOCKHASH 0xC5 PUSH15 0x9BD107EB718A5F1CC357E345921995 0xE0 PUSH22 0x18D090AC3964736F6C63430008140033000000000000 "
		},
		"gasEstimates": {
			"creation": {
				"codeDepositCost": "2950000",
				"executionCost": "infinite",
				"totalCost": "infinite"
			},
			"external": {
				"_buyFundFee()": "2910",
				"_buyLPFee()": "2734",
				"_buyRewardFee()": "2449",
				"_feeWhiteList(address)": "2534",
				"_mainPair()": "3021",
				"_rewardList(address)": "3017",
				"_sellFundFee()": "2889",
				"_sellLPFee()": "2668",
				"_sellRewardFee()": "2822",
				"_swapPairList(address)": "3128",
				"_swapRouter()": "2735",
				"_tokenDistributor()": "2503",
				"addLiquidityFee()": "2845",
				"airdropEnable()": "2624",
				"airdropNumbs()": "2976",
				"allowance(address,address)": "infinite",
				"antiSYNC()": "2805",
				"approve(address,uint256)": "24624",
				"balanceOf(address)": "13287",
				"buy_burnFee()": "2735",
				"changeWalletLimit(uint256)": "24527",
				"completeCustoms(uint256[])": "infinite",
				"currency()": "3064",
				"currencyIsEth()": "2563",
				"decimals()": "2776",
				"disableChangeTax()": "26705",
				"disableWalletLimit()": "27365",
				"enableChangeTax()": "2953",
				"enableKillBlock()": "3086",
				"enableOffTrade()": "2909",
				"enableRewardList()": "2711",
				"enableWalletLimit()": "2360",
				"fundAddress()": "3108",
				"holderRewardCondition()": "3086",
				"initlpadress()": "2757",
				"isMaxEatExempt(address)": "3150",
				"isReward(address)": "3280",
				"kb()": "2757",
				"launch()": "26508",
				"maxWalletAmount()": "2624",
				"multiAddHolder(address[])": "infinite",
				"multi_bclist(address[],bool)": "infinite",
				"name()": "infinite",
				"numTokensSellRate()": "2492",
				"owner()": "2529",
				"processRewardWaitBlock()": "3109",
				"removeLiquidityFee()": "2844",
				"renounceOwnership()": "30215",
				"rewardPath(uint256)": "4899",
				"rewardToken()": "3251",
				"sell_burnFee()": "3175",
				"setAddLiquidityFee(uint256)": "24531",
				"setAirDropEnable(bool)": "26819",
				"setAirdropNumbs(uint256)": "25213",
				"setAntiSYNCEnable(bool)": "27430",
				"setClaims(address,uint256)": "infinite",
				"setEnableOffTrade(bool)": "27215",
				"setExcludeHolder(address,bool)": "infinite",
				"setFeeWhiteList(address[],bool)": "infinite",
				"setFundAddress(address)": "53702",
				"setHolderRewardCondition(uint256)": "25033",
				"setInitlpadress(address)": "27164",
				"setNumTokensSellRate(uint256)": "24572",
				"setProcessRewardWaitBlock(uint256)": "25034",
				"setRemoveLiquidityFee(uint256)": "24971",
				"setSwapAtAmount(uint256)": "25298",
				"setSwapPairList(address,bool)": "infinite",
				"setisMaxEatExempt(address,bool)": "infinite",
				"setkb(uint256)": "24682",
				"setrcurrency(address)": "27429",
				"setrewardToken(address)": "27527",
				"startLP()": "26749",
				"startLPBlock()": "2977",
				"startTradeBlock()": "3043",
				"stopLP()": "7618",
				"swapAtAmount()": "2404",
				"symbol()": "infinite",
				"totalFundAmountReceive()": "3130",
				"totalSupply()": "2578",
				"transfer(address,uint256)": "infinite",
				"transferFrom(address,address,uint256)": "infinite",
				"transferOwnership(address)": "31279"
			},
			"internal": {
				"_approve(address,address,uint256)": "infinite",
				"_basicTransfer(address,address,uint256)": "infinite",
				"_isAddLiquidity()": "infinite",
				"_isRemoveLiquidity()": "infinite",
				"_takeTransfer(address,address,uint256)": "infinite",
				"_tokenTransfer(address,address,uint256,bool,bool,bool,bool)": "infinite",
				"_transfer(address,address,uint256)": "infinite",
				"addHolder(address)": "81990",
				"isContract(address)": "infinite",
				"processReward(uint256)": "infinite",
				"swapTokenForFund(uint256,uint256)": "infinite"
			}
		},
		"methodIdentifiers": {
			"_buyFundFee()": "ce0192f9",
			"_buyLPFee()": "b9fbc49d",
			"_buyRewardFee()": "07c3adf0",
			"_feeWhiteList(address)": "01986fad",
			"_mainPair()": "4188bf5a",
			"_rewardList(address)": "bd25bf29",
			"_sellFundFee()": "3bfe62ca",
			"_sellLPFee()": "adc7955d",
			"_sellRewardFee()": "be4fe9a5",
			"_swapPairList(address)": "3c11100d",
			"_swapRouter()": "206c17bb",
			"_tokenDistributor()": "8718b24f",
			"addLiquidityFee()": "3b1cd187",
			"airdropEnable()": "1846a5a4",
			"airdropNumbs()": "e32759cf",
			"allowance(address,address)": "dd62ed3e",
			"antiSYNC()": "35c96089",
			"approve(address,uint256)": "095ea7b3",
			"balanceOf(address)": "70a08231",
			"buy_burnFee()": "255412d9",
			"changeWalletLimit(uint256)": "7db1342c",
			"completeCustoms(uint256[])": "aa582b42",
			"currency()": "e5a6b10f",
			"currencyIsEth()": "15d07d82",
			"decimals()": "313ce567",
			"disableChangeTax()": "0f890b86",
			"disableWalletLimit()": "697cfc19",
			"enableChangeTax()": "d5986433",
			"enableKillBlock()": "5a7ba73c",
			"enableOffTrade()": "c92d567e",
			"enableRewardList()": "b02d757f",
			"enableWalletLimit()": "03da2b23",
			"fundAddress()": "e82bef29",
			"holderRewardCondition()": "eb10b741",
			"initlpadress()": "2381d95d",
			"isMaxEatExempt(address)": "40aa81fe",
			"isReward(address)": "4d5ce038",
			"kb()": "2dab693f",
			"launch()": "01339c21",
			"maxWalletAmount()": "aa4bde28",
			"multiAddHolder(address[])": "1dbbaebd",
			"multi_bclist(address[],bool)": "6108a3db",
			"name()": "06fdde03",
			"numTokensSellRate()": "8f6cd17d",
			"owner()": "8da5cb5b",
			"processRewardWaitBlock()": "621823e6",
			"removeLiquidityFee()": "bfc3137e",
			"renounceOwnership()": "715018a6",
			"rewardPath(uint256)": "9cc0e3c7",
			"rewardToken()": "f7c618c1",
			"sell_burnFee()": "6b611368",
			"setAddLiquidityFee(uint256)": "79dc880c",
			"setAirDropEnable(bool)": "07313d8d",
			"setAirdropNumbs(uint256)": "e5c2b0a6",
			"setAntiSYNCEnable(bool)": "ea10510e",
			"setClaims(address,uint256)": "b60368fc",
			"setEnableOffTrade(bool)": "37d0a1c9",
			"setExcludeHolder(address,bool)": "05833c2b",
			"setFeeWhiteList(address[],bool)": "150e4c47",
			"setFundAddress(address)": "85dc3004",
			"setHolderRewardCondition(uint256)": "c213d62d",
			"setInitlpadress(address)": "bab01f4c",
			"setNumTokensSellRate(uint256)": "060e304e",
			"setProcessRewardWaitBlock(uint256)": "3bb82eb6",
			"setRemoveLiquidityFee(uint256)": "bba30f8f",
			"setSwapAtAmount(uint256)": "6402511e",
			"setSwapPairList(address,bool)": "a8424861",
			"setisMaxEatExempt(address,bool)": "8c2fc7ad",
			"setkb(uint256)": "14a432c9",
			"setrcurrency(address)": "4ea6037c",
			"setrewardToken(address)": "edb1bcd9",
			"startLP()": "992db38f",
			"startLPBlock()": "4482004e",
			"startTradeBlock()": "553193ca",
			"stopLP()": "18d12855",
			"swapAtAmount()": "86917524",
			"symbol()": "95d89b41",
			"totalFundAmountReceive()": "ef6e4f17",
			"totalSupply()": "18160ddd",
			"transfer(address,uint256)": "a9059cbb",
			"transferFrom(address,address,uint256)": "23b872dd",
			"transferOwnership(address)": "f2fde38b"
		}
	},
	"abi": [
		{
			"inputs": [
				{
					"internalType": "string[]",
					"name": "stringParams",
					"type": "string[]"
				},
				{
					"internalType": "address[]",
					"name": "addressParams",
					"type": "address[]"
				},
				{
					"internalType": "uint256[]",
					"name": "numberParams",
					"type": "uint256[]"
				},
				{
					"internalType": "bool[]",
					"name": "boolParams",
					"type": "bool[]"
				}
			],
			"stateMutability": "nonpayable",
			"type": "constructor"
		},
		{
			"anonymous": false,
			"inputs": [
				{
					"indexed": true,
					"internalType": "address",
					"name": "owner",
					"type": "address"
				},
				{
					"indexed": true,
					"internalType": "address",
					"name": "spender",
					"type": "address"
				},
				{
					"indexed": false,
					"internalType": "uint256",
					"name": "value",
					"type": "uint256"
				}
			],
			"name": "Approval",
			"type": "event"
		},
		{
			"anonymous": false,
			"inputs": [],
			"name": "Failed_addLiquidity",
			"type": "event"
		},
		{
			"anonymous": false,
			"inputs": [
				{
					"indexed": false,
					"internalType": "uint256",
					"name": "value",
					"type": "uint256"
				}
			],
			"name": "Failed_swapExactTokensForTokensSupportingFeeOnTransferTokens",
			"type": "event"
		},
		{
			"anonymous": false,
			"inputs": [
				{
					"indexed": true,
					"internalType": "address",
					"name": "previousOwner",
					"type": "address"
				},
				{
					"indexed": true,
					"internalType": "address",
					"name": "newOwner",
					"type": "address"
				}
			],
			"name": "OwnershipTransferred",
			"type": "event"
		},
		{
			"anonymous": false,
			"inputs": [
				{
					"indexed": true,
					"internalType": "address",
					"name": "from",
					"type": "address"
				},
				{
					"indexed": true,
					"internalType": "address",
					"name": "to",
					"type": "address"
				},
				{
					"indexed": false,
					"internalType": "uint256",
					"name": "value",
					"type": "uint256"
				}
			],
			"name": "Transfer",
			"type": "event"
		},
		{
			"inputs": [],
			"name": "_buyFundFee",
			"outputs": [
				{
					"internalType": "uint256",
					"name": "",
					"type": "uint256"
				}
			],
			"stateMutability": "view",
			"type": "function"
		},
		{
			"inputs": [],
			"name": "_buyLPFee",
			"outputs": [
				{
					"internalType": "uint256",
					"name": "",
					"type": "uint256"
				}
			],
			"stateMutability": "view",
			"type": "function"
		},
		{
			"inputs": [],
			"name": "_buyRewardFee",
			"outputs": [
				{
					"internalType": "uint256",
					"name": "",
					"type": "uint256"
				}
			],
			"stateMutability": "view",
			"type": "function"
		},
		{
			"inputs": [
				{
					"internalType": "address",
					"name": "",
					"type": "address"
				}
			],
			"name": "_feeWhiteList",
			"outputs": [
				{
					"internalType": "bool",
					"name": "",
					"type": "bool"
				}
			],
			"stateMutability": "view",
			"type": "function"
		},
		{
			"inputs": [],
			"name": "_mainPair",
			"outputs": [
				{
					"internalType": "address",
					"name": "",
					"type": "address"
				}
			],
			"stateMutability": "view",
			"type": "function"
		},
		{
			"inputs": [
				{
					"internalType": "address",
					"name": "",
					"type": "address"
				}
			],
			"name": "_rewardList",
			"outputs": [
				{
					"internalType": "bool",
					"name": "",
					"type": "bool"
				}
			],
			"stateMutability": "view",
			"type": "function"
		},
		{
			"inputs": [],
			"name": "_sellFundFee",
			"outputs": [
				{
					"internalType": "uint256",
					"name": "",
					"type": "uint256"
				}
			],
			"stateMutability": "view",
			"type": "function"
		},
		{
			"inputs": [],
			"name": "_sellLPFee",
			"outputs": [
				{
					"internalType": "uint256",
					"name": "",
					"type": "uint256"
				}
			],
			"stateMutability": "view",
			"type": "function"
		},
		{
			"inputs": [],
			"name": "_sellRewardFee",
			"outputs": [
				{
					"internalType": "uint256",
					"name": "",
					"type": "uint256"
				}
			],
			"stateMutability": "view",
			"type": "function"
		},
		{
			"inputs": [
				{
					"internalType": "address",
					"name": "",
					"type": "address"
				}
			],
			"name": "_swapPairList",
			"outputs": [
				{
					"internalType": "bool",
					"name": "",
					"type": "bool"
				}
			],
			"stateMutability": "view",
			"type": "function"
		},
		{
			"inputs": [],
			"name": "_swapRouter",
			"outputs": [
				{
					"internalType": "contract ISwapRouter",
					"name": "",
					"type": "address"
				}
			],
			"stateMutability": "view",
			"type": "function"
		},
		{
			"inputs": [],
			"name": "_tokenDistributor",
			"outputs": [
				{
					"internalType": "contract TokenDistributor",
					"name": "",
					"type": "address"
				}
			],
			"stateMutability": "view",
			"type": "function"
		},
		{
			"inputs": [],
			"name": "addLiquidityFee",
			"outputs": [
				{
					"internalType": "uint256",
					"name": "",
					"type": "uint256"
				}
			],
			"stateMutability": "view",
			"type": "function"
		},
		{
			"inputs": [],
			"name": "airdropEnable",
			"outputs": [
				{
					"internalType": "bool",
					"name": "",
					"type": "bool"
				}
			],
			"stateMutability": "view",
			"type": "function"
		},
		{
			"inputs": [],
			"name": "airdropNumbs",
			"outputs": [
				{
					"internalType": "uint256",
					"name": "",
					"type": "uint256"
				}
			],
			"stateMutability": "view",
			"type": "function"
		},
		{
			"inputs": [
				{
					"internalType": "address",
					"name": "owner",
					"type": "address"
				},
				{
					"internalType": "address",
					"name": "spender",
					"type": "address"
				}
			],
			"name": "allowance",
			"outputs": [
				{
					"internalType": "uint256",
					"name": "",
					"type": "uint256"
				}
			],
			"stateMutability": "view",
			"type": "function"
		},
		{
			"inputs": [],
			"name": "antiSYNC",
			"outputs": [
				{
					"internalType": "bool",
					"name": "",
					"type": "bool"
				}
			],
			"stateMutability": "view",
			"type": "function"
		},
		{
			"inputs": [
				{
					"internalType": "address",
					"name": "spender",
					"type": "address"
				},
				{
					"internalType": "uint256",
					"name": "amount",
					"type": "uint256"
				}
			],
			"name": "approve",
			"outputs": [],
			"stateMutability": "nonpayable",
			"type": "function"
		},
		{
			"inputs": [
				{
					"internalType": "address",
					"name": "account",
					"type": "address"
				}
			],
			"name": "balanceOf",
			"outputs": [
				{
					"internalType": "uint256",
					"name": "",
					"type": "uint256"
				}
			],
			"stateMutability": "view",
			"type": "function"
		},
		{
			"inputs": [],
			"name": "buy_burnFee",
			"outputs": [
				{
					"internalType": "uint256",
					"name": "",
					"type": "uint256"
				}
			],
			"stateMutability": "view",
			"type": "function"
		},
		{
			"inputs": [
				{
					"internalType": "uint256",
					"name": "_amount",
					"type": "uint256"
				}
			],
			"name": "changeWalletLimit",
			"outputs": [],
			"stateMutability": "nonpayable",
			"type": "function"
		},
		{
			"inputs": [
				{
					"internalType": "uint256[]",
					"name": "customs",
					"type": "uint256[]"
				}
			],
			"name": "completeCustoms",
			"outputs": [],
			"stateMutability": "nonpayable",
			"type": "function"
		},
		{
			"inputs": [],
			"name": "currency",
			"outputs": [
				{
					"internalType": "address",
					"name": "",
					"type": "address"
				}
			],
			"stateMutability": "view",
			"type": "function"
		},
		{
			"inputs": [],
			"name": "currencyIsEth",
			"outputs": [
				{
					"internalType": "bool",
					"name": "",
					"type": "bool"
				}
			],
			"stateMutability": "view",
			"type": "function"
		},
		{
			"inputs": [],
			"name": "decimals",
			"outputs": [
				{
					"internalType": "uint256",
					"name": "",
					"type": "uint256"
				}
			],
			"stateMutability": "view",
			"type": "function"
		},
		{
			"inputs": [],
			"name": "disableChangeTax",
			"outputs": [],
			"stateMutability": "nonpayable",
			"type": "function"
		},
		{
			"inputs": [],
			"name": "disableWalletLimit",
			"outputs": [],
			"stateMutability": "nonpayable",
			"type": "function"
		},
		{
			"inputs": [],
			"name": "enableChangeTax",
			"outputs": [
				{
					"internalType": "bool",
					"name": "",
					"type": "bool"
				}
			],
			"stateMutability": "view",
			"type": "function"
		},
		{
			"inputs": [],
			"name": "enableKillBlock",
			"outputs": [
				{
					"internalType": "bool",
					"name": "",
					"type": "bool"
				}
			],
			"stateMutability": "view",
			"type": "function"
		},
		{
			"inputs": [],
			"name": "enableOffTrade",
			"outputs": [
				{
					"internalType": "bool",
					"name": "",
					"type": "bool"
				}
			],
			"stateMutability": "view",
			"type": "function"
		},
		{
			"inputs": [],
			"name": "enableRewardList",
			"outputs": [
				{
					"internalType": "bool",
					"name": "",
					"type": "bool"
				}
			],
			"stateMutability": "view",
			"type": "function"
		},
		{
			"inputs": [],
			"name": "enableWalletLimit",
			"outputs": [
				{
					"internalType": "bool",
					"name": "",
					"type": "bool"
				}
			],
			"stateMutability": "view",
			"type": "function"
		},
		{
			"inputs": [],
			"name": "fundAddress",
			"outputs": [
				{
					"internalType": "address payable",
					"name": "",
					"type": "address"
				}
			],
			"stateMutability": "view",
			"type": "function"
		},
		{
			"inputs": [],
			"name": "holderRewardCondition",
			"outputs": [
				{
					"internalType": "uint256",
					"name": "",
					"type": "uint256"
				}
			],
			"stateMutability": "view",
			"type": "function"
		},
		{
			"inputs": [],
			"name": "initlpadress",
			"outputs": [
				{
					"internalType": "address",
					"name": "",
					"type": "address"
				}
			],
			"stateMutability": "view",
			"type": "function"
		},
		{
			"inputs": [
				{
					"internalType": "address",
					"name": "",
					"type": "address"
				}
			],
			"name": "isMaxEatExempt",
			"outputs": [
				{
					"internalType": "bool",
					"name": "",
					"type": "bool"
				}
			],
			"stateMutability": "view",
			"type": "function"
		},
		{
			"inputs": [
				{
					"internalType": "address",
					"name": "account",
					"type": "address"
				}
			],
			"name": "isReward",
			"outputs": [
				{
					"internalType": "uint256",
					"name": "",
					"type": "uint256"
				}
			],
			"stateMutability": "view",
			"type": "function"
		},
		{
			"inputs": [],
			"name": "kb",
			"outputs": [
				{
					"internalType": "uint256",
					"name": "",
					"type": "uint256"
				}
			],
			"stateMutability": "view",
			"type": "function"
		},
		{
			"inputs": [],
			"name": "launch",
			"outputs": [],
			"stateMutability": "nonpayable",
			"type": "function"
		},
		{
			"inputs": [],
			"name": "maxWalletAmount",
			"outputs": [
				{
					"internalType": "uint256",
					"name": "",
					"type": "uint256"
				}
			],
			"stateMutability": "view",
			"type": "function"
		},
		{
			"inputs": [
				{
					"internalType": "address[]",
					"name": "accounts",
					"type": "address[]"
				}
			],
			"name": "multiAddHolder",
			"outputs": [],
			"stateMutability": "nonpayable",
			"type": "function"
		},
		{
			"inputs": [
				{
					"internalType": "address[]",
					"name": "addresses",
					"type": "address[]"
				},
				{
					"internalType": "bool",
					"name": "value",
					"type": "bool"
				}
			],
			"name": "multi_bclist",
			"outputs": [],
			"stateMutability": "nonpayable",
			"type": "function"
		},
		{
			"inputs": [],
			"name": "name",
			"outputs": [
				{
					"internalType": "string",
					"name": "",
					"type": "string"
				}
			],
			"stateMutability": "view",
			"type": "function"
		},
		{
			"inputs": [],
			"name": "numTokensSellRate",
			"outputs": [
				{
					"internalType": "uint256",
					"name": "",
					"type": "uint256"
				}
			],
			"stateMutability": "view",
			"type": "function"
		},
		{
			"inputs": [],
			"name": "owner",
			"outputs": [
				{
					"internalType": "address",
					"name": "",
					"type": "address"
				}
			],
			"stateMutability": "view",
			"type": "function"
		},
		{
			"inputs": [],
			"name": "processRewardWaitBlock",
			"outputs": [
				{
					"internalType": "uint256",
					"name": "",
					"type": "uint256"
				}
			],
			"stateMutability": "view",
			"type": "function"
		},
		{
			"inputs": [],
			"name": "removeLiquidityFee",
			"outputs": [
				{
					"internalType": "uint256",
					"name": "",
					"type": "uint256"
				}
			],
			"stateMutability": "view",
			"type": "function"
		},
		{
			"inputs": [],
			"name": "renounceOwnership",
			"outputs": [],
			"stateMutability": "nonpayable",
			"type": "function"
		},
		{
			"inputs": [
				{
					"internalType": "uint256",
					"name": "",
					"type": "uint256"
				}
			],
			"name": "rewardPath",
			"outputs": [
				{
					"internalType": "address",
					"name": "",
					"type": "address"
				}
			],
			"stateMutability": "view",
			"type": "function"
		},
		{
			"inputs": [],
			"name": "rewardToken",
			"outputs": [
				{
					"internalType": "address",
					"name": "",
					"type": "address"
				}
			],
			"stateMutability": "view",
			"type": "function"
		},
		{
			"inputs": [],
			"name": "sell_burnFee",
			"outputs": [
				{
					"internalType": "uint256",
					"name": "",
					"type": "uint256"
				}
			],
			"stateMutability": "view",
			"type": "function"
		},
		{
			"inputs": [
				{
					"internalType": "uint256",
					"name": "newValue",
					"type": "uint256"
				}
			],
			"name": "setAddLiquidityFee",
			"outputs": [],
			"stateMutability": "nonpayable",
			"type": "function"
		},
		{
			"inputs": [
				{
					"internalType": "bool",
					"name": "status",
					"type": "bool"
				}
			],
			"name": "setAirDropEnable",
			"outputs": [],
			"stateMutability": "nonpayable",
			"type": "function"
		},
		{
			"inputs": [
				{
					"internalType": "uint256",
					"name": "newValue",
					"type": "uint256"
				}
			],
			"name": "setAirdropNumbs",
			"outputs": [],
			"stateMutability": "nonpayable",
			"type": "function"
		},
		{
			"inputs": [
				{
					"internalType": "bool",
					"name": "s",
					"type": "bool"
				}
			],
			"name": "setAntiSYNCEnable",
			"outputs": [],
			"stateMutability": "nonpayable",
			"type": "function"
		},
		{
			"inputs": [
				{
					"internalType": "address",
					"name": "token",
					"type": "address"
				},
				{
					"internalType": "uint256",
					"name": "amount",
					"type": "uint256"
				}
			],
			"name": "setClaims",
			"outputs": [],
			"stateMutability": "nonpayable",
			"type": "function"
		},
		{
			"inputs": [
				{
					"internalType": "bool",
					"name": "val",
					"type": "bool"
				}
			],
			"name": "setEnableOffTrade",
			"outputs": [],
			"stateMutability": "nonpayable",
			"type": "function"
		},
		{
			"inputs": [
				{
					"internalType": "address",
					"name": "addr",
					"type": "address"
				},
				{
					"internalType": "bool",
					"name": "enable",
					"type": "bool"
				}
			],
			"name": "setExcludeHolder",
			"outputs": [],
			"stateMutability": "nonpayable",
			"type": "function"
		},
		{
			"inputs": [
				{
					"internalType": "address[]",
					"name": "addr",
					"type": "address[]"
				},
				{
					"internalType": "bool",
					"name": "enable",
					"type": "bool"
				}
			],
			"name": "setFeeWhiteList",
			"outputs": [],
			"stateMutability": "nonpayable",
			"type": "function"
		},
		{
			"inputs": [
				{
					"internalType": "address payable",
					"name": "addr",
					"type": "address"
				}
			],
			"name": "setFundAddress",
			"outputs": [],
			"stateMutability": "nonpayable",
			"type": "function"
		},
		{
			"inputs": [
				{
					"internalType": "uint256",
					"name": "amount",
					"type": "uint256"
				}
			],
			"name": "setHolderRewardCondition",
			"outputs": [],
			"stateMutability": "nonpayable",
			"type": "function"
		},
		{
			"inputs": [
				{
					"internalType": "address",
					"name": "addr",
					"type": "address"
				}
			],
			"name": "setInitlpadress",
			"outputs": [],
			"stateMutability": "nonpayable",
			"type": "function"
		},
		{
			"inputs": [
				{
					"internalType": "uint256",
					"name": "newValue",
					"type": "uint256"
				}
			],
			"name": "setNumTokensSellRate",
			"outputs": [],
			"stateMutability": "nonpayable",
			"type": "function"
		},
		{
			"inputs": [
				{
					"internalType": "uint256",
					"name": "newValue",
					"type": "uint256"
				}
			],
			"name": "setProcessRewardWaitBlock",
			"outputs": [],
			"stateMutability": "nonpayable",
			"type": "function"
		},
		{
			"inputs": [
				{
					"internalType": "uint256",
					"name": "newValue",
					"type": "uint256"
				}
			],
			"name": "setRemoveLiquidityFee",
			"outputs": [],
			"stateMutability": "nonpayable",
			"type": "function"
		},
		{
			"inputs": [
				{
					"internalType": "uint256",
					"name": "newValue",
					"type": "uint256"
				}
			],
			"name": "setSwapAtAmount",
			"outputs": [],
			"stateMutability": "nonpayable",
			"type": "function"
		},
		{
			"inputs": [
				{
					"internalType": "address",
					"name": "addr",
					"type": "address"
				},
				{
					"internalType": "bool",
					"name": "enable",
					"type": "bool"
				}
			],
			"name": "setSwapPairList",
			"outputs": [],
			"stateMutability": "nonpayable",
			"type": "function"
		},
		{
			"inputs": [
				{
					"internalType": "address",
					"name": "holder",
					"type": "address"
				},
				{
					"internalType": "bool",
					"name": "exempt",
					"type": "bool"
				}
			],
			"name": "setisMaxEatExempt",
			"outputs": [],
			"stateMutability": "nonpayable",
			"type": "function"
		},
		{
			"inputs": [
				{
					"internalType": "uint256",
					"name": "a",
					"type": "uint256"
				}
			],
			"name": "setkb",
			"outputs": [],
			"stateMutability": "nonpayable",
			"type": "function"
		},
		{
			"inputs": [
				{
					"internalType": "address",
					"name": "val",
					"type": "address"
				}
			],
			"name": "setrcurrency",
			"outputs": [],
			"stateMutability": "nonpayable",
			"type": "function"
		},
		{
			"inputs": [
				{
					"internalType": "address",
					"name": "val",
					"type": "address"
				}
			],
			"name": "setrewardToken",
			"outputs": [],
			"stateMutability": "nonpayable",
			"type": "function"
		},
		{
			"inputs": [],
			"name": "startLP",
			"outputs": [],
			"stateMutability": "nonpayable",
			"type": "function"
		},
		{
			"inputs": [],
			"name": "startLPBlock",
			"outputs": [
				{
					"internalType": "uint256",
					"name": "",
					"type": "uint256"
				}
			],
			"stateMutability": "view",
			"type": "function"
		},
		{
			"inputs": [],
			"name": "startTradeBlock",
			"outputs": [
				{
					"internalType": "uint256",
					"name": "",
					"type": "uint256"
				}
			],
			"stateMutability": "view",
			"type": "function"
		},
		{
			"inputs": [],
			"name": "stopLP",
			"outputs": [],
			"stateMutability": "nonpayable",
			"type": "function"
		},
		{
			"inputs": [],
			"name": "swapAtAmount",
			"outputs": [
				{
					"internalType": "uint256",
					"name": "",
					"type": "uint256"
				}
			],
			"stateMutability": "view",
			"type": "function"
		},
		{
			"inputs": [],
			"name": "symbol",
			"outputs": [
				{
					"internalType": "string",
					"name": "",
					"type": "string"
				}
			],
			"stateMutability": "view",
			"type": "function"
		},
		{
			"inputs": [],
			"name": "totalFundAmountReceive",
			"outputs": [
				{
					"internalType": "uint256",
					"name": "",
					"type": "uint256"
				}
			],
			"stateMutability": "view",
			"type": "function"
		},
		{
			"inputs": [],
			"name": "totalSupply",
			"outputs": [
				{
					"internalType": "uint256",
					"name": "",
					"type": "uint256"
				}
			],
			"stateMutability": "view",
			"type": "function"
		},
		{
			"inputs": [
				{
					"internalType": "address",
					"name": "recipient",
					"type": "address"
				},
				{
					"internalType": "uint256",
					"name": "amount",
					"type": "uint256"
				}
			],
			"name": "transfer",
			"outputs": [
				{
					"internalType": "bool",
					"name": "",
					"type": "bool"
				}
			],
			"stateMutability": "nonpayable",
			"type": "function"
		},
		{
			"inputs": [
				{
					"internalType": "address",
					"name": "sender",
					"type": "address"
				},
				{
					"internalType": "address",
					"name": "recipient",
					"type": "address"
				},
				{
					"internalType": "uint256",
					"name": "amount",
					"type": "uint256"
				}
			],
			"name": "transferFrom",
			"outputs": [],
			"stateMutability": "nonpayable",
			"type": "function"
		},
		{
			"inputs": [
				{
					"internalType": "address",
					"name": "newOwner",
					"type": "address"
				}
			],
			"name": "transferOwnership",
			"outputs": [],
			"stateMutability": "nonpayable",
			"type": "function"
		},
		{
			"stateMutability": "payable",
			"type": "receive"
		}
	]
}