{
	"data": {
		"bytecode": {
			"linkReferences": {},
			"object": "608060405234801561000f575f80fd5b50601180546001600160a01b031990811633179091555f600881905560c8600355662386f26fc100006004556207a120600555600f805490921661dead90811790925590815260208190527f44ad89ba62b98ff34f51403ac22759b55759460c0bb5521eb4b6ee3cff49cf8381905560078190556006556108e1806100935f395ff3fe608060405234801561000f575f80fd5b50600436106100d9575f3560e01c80630affb402146100dd5780631210c4341461010f5780632a59551214610118578063621f9c0a146101215780636689567e1461012a57806370a082311461013f5780638da5cb5b146101675780639f0d7eb814610192578063a36a7526146101a5578063add0a6c6146101b8578063b367bf83146101c1578063bd876702146101ca578063c213d62d146101d3578063c7003ed0146101e6578063dd2cad60146101f9578063eb10b7411461020c578063ec1f1f6914610215575b5f80fd5b6100fc6100eb36600461073a565b600d6020525f908152604090205481565b6040519081526020015b60405180910390f35b6100fc600e5481565b6100fc60025481565b6100fc60065481565b61013d61013836600461075a565b610228565b005b6100fc61014d36600461073a565b6001600160a01b03165f9081526020819052604090205490565b60115461017a906001600160a01b031681565b6040516001600160a01b039091168152602001610106565b61017a6101a036600461075a565b610260565b61013d6101b336600461073a565b610288565b6100fc60035481565b6100fc60075481565b6100fc60055481565b61013d6101e136600461075a565b6102d4565b61013d6101f436600461075a565b610303565b6100fc610207366004610771565b610332565b6100fc60045481565b60105461017a906001600160a01b031681565b6011546001600160a01b0316331461025b5760405162461bcd60e51b81526004016102529061079b565b60405180910390fd5b600555565b600c818154811061026f575f80fd5b5f918252602090912001546001600160a01b0316905081565b6011546001600160a01b031633146102b25760405162461bcd60e51b81526004016102529061079b565b601080546001600160a01b0319166001600160a01b0392909216919091179055565b6011546001600160a01b031633146102fe5760405162461bcd60e51b81526004016102529061079b565b600455565b6011546001600160a01b0316331461032d5760405162461bcd60e51b81526004016102529061079b565b600355565b6010545f906001600160a01b0316331461038e5760405162461bcd60e51b815260206004820152601d60248201527f4f776e61626c653a2063616c6c6572206973206e6f7420746865206f700000006044820152606401610252565b61039883836105c2565b8260065f8282546103a991906107e4565b909155505060035460025443916103bf916107e4565b11156103cc57505f6105bc565b600654600754106103de57505f6105bc565b5f6007546006546103ef91906107f7565b9050600454811080610402575060045447105b15610410575f9150506105bc565b600c545f90819081908180805a90505b6005548310801561043057508382105b156105ad5783600e5410610443575f600e555b600c600e54815481106104585761045861080a565b5f9182526020808320909101546001600160a01b031680835260099091526040909120549097509550851580159061049e5750600f546001600160a01b03888116911614155b1561056c57600f546001600160a01b03165f908152600960205260409020546008546104ca91906107f7565b6104d4878a61081e565b6104de9190610835565b9450841561056c5760405163a9059cbb60e01b81526001600160a01b038816600482015260248101869052339063a9059cbb906044016020604051808303815f875af1158015610530573d5f803e3d5ffd5b505050506040513d601f19601f820116820180604052508101906105549190610854565b508460075f82825461056691906107e4565b90915550505b5a61057790826107f7565b61058190846107e4565b92505a600e80549192505f61059583610873565b919050555081806105a590610873565b925050610420565b50504360025550909450505050505b92915050565b8160085f8282546105d391906107e4565b90915550506001600160a01b0381165f90815260096020526040812080548492906105ff9084906107e4565b90915550506001600160a01b0381165f908152600a60209081526040808320429055600b909152812080543492906106389084906107e4565b9091555050600f546001600160a01b03165f908152600d602052604081205490036106b457600c8054600f80546001600160a01b039081165f908152600d602052604081208490559154600184018555939091525f8051602061088c83398151915290910180546001600160a01b031916929091169190911790555b6001600160a01b0381165f908152600d6020526040812054900361071b57600c80546001600160a01b0383165f818152600d60205260408120839055600183018455929092525f8051602061088c8339815191520180546001600160a01b03191690911790555b5050565b80356001600160a01b0381168114610735575f80fd5b919050565b5f6020828403121561074a575f80fd5b6107538261071f565b9392505050565b5f6020828403121561076a575f80fd5b5035919050565b5f8060408385031215610782575f80fd5b823591506107926020840161071f565b90509250929050565b6020808252818101527f4f776e61626c653a2063616c6c6572206973206e6f7420746865206f776e6572604082015260600190565b634e487b7160e01b5f52601160045260245ffd5b808201808211156105bc576105bc6107d0565b818103818111156105bc576105bc6107d0565b634e487b7160e01b5f52603260045260245ffd5b80820281158282048414176105bc576105bc6107d0565b5f8261084f57634e487b7160e01b5f52601260045260245ffd5b500490565b5f60208284031215610864575f80fd5b81518015158114610753575f80fd5b5f60018201610884576108846107d0565b506001019056fedf6966c971051c3d54ec59162606531493a51404a002842f56009d7e5cf4a8c7a26469706673582212206fe4464a5d3490a41b7a68c62398894ea05fd29414d3063adc9334aa02f1c06764736f6c63430008140033",
			"opcodes": "PUSH1 0x80 PUSH1 0x40 MSTORE CALLVALUE DUP1 ISZERO PUSH2 0xF JUMPI PUSH0 DUP1 REVERT JUMPDEST POP PUSH1 0x11 DUP1 SLOAD PUSH1 0x1 PUSH1 0x1 PUSH1 0xA0 SHL SUB NOT SWAP1 DUP2 AND CALLER OR SWAP1 SWAP2 SSTORE PUSH0 PUSH1 0x8 DUP2 SWAP1 SSTORE PUSH1 0xC8 PUSH1 0x3 SSTORE PUSH7 0x2386F26FC10000 PUSH1 0x4 SSTORE PUSH3 0x7A120 PUSH1 0x5 SSTORE PUSH1 0xF DUP1 SLOAD SWAP1 SWAP3 AND PUSH2 0xDEAD SWAP1 DUP2 OR SWAP1 SWAP3 SSTORE SWAP1 DUP2 MSTORE PUSH1 0x20 DUP2 SWAP1 MSTORE PUSH32 0x44AD89BA62B98FF34F51403AC22759B55759460C0BB5521EB4B6EE3CFF49CF83 DUP2 SWAP1 SSTORE PUSH1 0x7 DUP2 SWAP1 SSTORE PUSH1 0x6 SSTORE PUSH2 0x8E1 DUP1 PUSH2 0x93 PUSH0 CODECOPY PUSH0 RETURN INVALID PUSH1 0x80 PUSH1 0x40 MSTORE CALLVALUE DUP1 ISZERO PUSH2 0xF JUMPI PUSH0 DUP1 REVERT JUMPDEST POP PUSH1 0x4 CALLDATASIZE LT PUSH2 0xD9 JUMPI PUSH0 CALLDATALOAD PUSH1 0xE0 SHR DUP1 PUSH4 0xAFFB402 EQ PUSH2 0xDD JUMPI DUP1 PUSH4 0x1210C434 EQ PUSH2 0x10F JUMPI DUP1 PUSH4 0x2A595512 EQ PUSH2 0x118 JUMPI DUP1 PUSH4 0x621F9C0A EQ PUSH2 0x121 JUMPI DUP1 PUSH4 0x6689567E EQ PUSH2 0x12A JUMPI DUP1 PUSH4 0x70A08231 EQ PUSH2 0x13F JUMPI DUP1 PUSH4 0x8DA5CB5B EQ PUSH2 0x167 JUMPI DUP1 PUSH4 0x9F0D7EB8 EQ PUSH2 0x192 JUMPI DUP1 PUSH4 0xA36A7526 EQ PUSH2 0x1A5 JUMPI DUP1 PUSH4 0xADD0A6C6 EQ PUSH2 0x1B8 JUMPI DUP1 PUSH4 0xB367BF83 EQ PUSH2 0x1C1 JUMPI DUP1 PUSH4 0xBD876702 EQ PUSH2 0x1CA JUMPI DUP1 PUSH4 0xC213D62D EQ PUSH2 0x1D3 JUMPI DUP1 PUSH4 0xC7003ED0 EQ PUSH2 0x1E6 JUMPI DUP1 PUSH4 0xDD2CAD60 EQ PUSH2 0x1F9 JUMPI DUP1 PUSH4 0xEB10B741 EQ PUSH2 0x20C JUMPI DUP1 PUSH4 0xEC1F1F69 EQ PUSH2 0x215 JUMPI JUMPDEST PUSH0 DUP1 REVERT JUMPDEST PUSH2 0xFC PUSH2 0xEB CALLDATASIZE PUSH1 0x4 PUSH2 0x73A JUMP JUMPDEST PUSH1 0xD PUSH1 0x20 MSTORE PUSH0 SWAP1 DUP2 MSTORE PUSH1 0x40 SWAP1 KECCAK256 SLOAD DUP2 JUMP JUMPDEST PUSH1 0x40 MLOAD SWAP1 DUP2 MSTORE PUSH1 0x20 ADD JUMPDEST PUSH1 0x40 MLOAD DUP1 SWAP2 SUB SWAP1 RETURN JUMPDEST PUSH2 0xFC PUSH1 0xE SLOAD DUP2 JUMP JUMPDEST PUSH2 0xFC PUSH1 0x2 SLOAD DUP2 JUMP JUMPDEST PUSH2 0xFC PUSH1 0x6 SLOAD DUP2 JUMP JUMPDEST PUSH2 0x13D PUSH2 0x138 CALLDATASIZE PUSH1 0x4 PUSH2 0x75A JUMP JUMPDEST PUSH2 0x228 JUMP JUMPDEST STOP JUMPDEST PUSH2 0xFC PUSH2 0x14D CALLDATASIZE PUSH1 0x4 PUSH2 0x73A JUMP JUMPDEST PUSH1 0x1 PUSH1 0x1 PUSH1 0xA0 SHL SUB AND PUSH0 SWAP1 DUP2 MSTORE PUSH1 0x20 DUP2 SWAP1 MSTORE PUSH1 0x40 SWAP1 KECCAK256 SLOAD SWAP1 JUMP JUMPDEST PUSH1 0x11 SLOAD PUSH2 0x17A SWAP1 PUSH1 0x1 PUSH1 0x1 PUSH1 0xA0 SHL SUB AND DUP2 JUMP JUMPDEST PUSH1 0x40 MLOAD PUSH1 0x1 PUSH1 0x1 PUSH1 0xA0 SHL SUB SWAP1 SWAP2 AND DUP2 MSTORE PUSH1 0x20 ADD PUSH2 0x106 JUMP JUMPDEST PUSH2 0x17A PUSH2 0x1A0 CALLDATASIZE PUSH1 0x4 PUSH2 0x75A JUMP JUMPDEST PUSH2 0x260 JUMP JUMPDEST PUSH2 0x13D PUSH2 0x1B3 CALLDATASIZE PUSH1 0x4 PUSH2 0x73A JUMP JUMPDEST PUSH2 0x288 JUMP JUMPDEST PUSH2 0xFC PUSH1 0x3 SLOAD DUP2 JUMP JUMPDEST PUSH2 0xFC PUSH1 0x7 SLOAD DUP2 JUMP JUMPDEST PUSH2 0xFC PUSH1 0x5 SLOAD DUP2 JUMP JUMPDEST PUSH2 0x13D PUSH2 0x1E1 CALLDATASIZE PUSH1 0x4 PUSH2 0x75A JUMP JUMPDEST PUSH2 0x2D4 JUMP JUMPDEST PUSH2 0x13D PUSH2 0x1F4 CALLDATASIZE PUSH1 0x4 PUSH2 0x75A JUMP JUMPDEST PUSH2 0x303 JUMP JUMPDEST PUSH2 0xFC PUSH2 0x207 CALLDATASIZE PUSH1 0x4 PUSH2 0x771 JUMP JUMPDEST PUSH2 0x332 JUMP JUMPDEST PUSH2 0xFC PUSH1 0x4 SLOAD DUP2 JUMP JUMPDEST PUSH1 0x10 SLOAD PUSH2 0x17A SWAP1 PUSH1 0x1 PUSH1 0x1 PUSH1 0xA0 SHL SUB AND DUP2 JUMP JUMPDEST PUSH1 0x11 SLOAD PUSH1 0x1 PUSH1 0x1 PUSH1 0xA0 SHL SUB AND CALLER EQ PUSH2 0x25B JUMPI PUSH1 0x40 MLOAD PUSH3 0x461BCD PUSH1 0xE5 SHL DUP2 MSTORE PUSH1 0x4 ADD PUSH2 0x252 SWAP1 PUSH2 0x79B JUMP JUMPDEST PUSH1 0x40 MLOAD DUP1 SWAP2 SUB SWAP1 REVERT JUMPDEST PUSH1 0x5 SSTORE JUMP JUMPDEST PUSH1 0xC DUP2 DUP2 SLOAD DUP2 LT PUSH2 0x26F JUMPI PUSH0 DUP1 REVERT JUMPDEST PUSH0 SWAP2 DUP3 MSTORE PUSH1 0x20 SWAP1 SWAP2 KECCAK256 ADD SLOAD PUSH1 0x1 PUSH1 0x1 PUSH1 0xA0 SHL SUB AND SWAP1 POP DUP2 JUMP JUMPDEST PUSH1 0x11 SLOAD PUSH1 0x1 PUSH1 0x1 PUSH1 0xA0 SHL SUB AND CALLER EQ PUSH2 0x2B2 JUMPI PUSH1 0x40 MLOAD PUSH3 0x461BCD PUSH1 0xE5 SHL DUP2 MSTORE PUSH1 0x4 ADD PUSH2 0x252 SWAP1 PUSH2 0x79B JUMP JUMPDEST PUSH1 0x10 DUP1 SLOAD PUSH1 0x1 PUSH1 0x1 PUSH1 0xA0 SHL SUB NOT AND PUSH1 0x1 PUSH1 0x1 PUSH1 0xA0 SHL SUB SWAP3 SWAP1 SWAP3 AND SWAP2 SWAP1 SWAP2 OR SWAP1 SSTORE JUMP JUMPDEST PUSH1 0x11 SLOAD PUSH1 0x1 PUSH1 0x1 PUSH1 0xA0 SHL SUB AND CALLER EQ PUSH2 0x2FE JUMPI PUSH1 0x40 MLOAD PUSH3 0x461BCD PUSH1 0xE5 SHL DUP2 MSTORE PUSH1 0x4 ADD PUSH2 0x252 SWAP1 PUSH2 0x79B JUMP JUMPDEST PUSH1 0x4 SSTORE JUMP JUMPDEST PUSH1 0x11 SLOAD PUSH1 0x1 PUSH1 0x1 PUSH1 0xA0 SHL SUB AND CALLER EQ PUSH2 0x32D JUMPI PUSH1 0x40 MLOAD PUSH3 0x461BCD PUSH1 0xE5 SHL DUP2 MSTORE PUSH1 0x4 ADD PUSH2 0x252 SWAP1 PUSH2 0x79B JUMP JUMPDEST PUSH1 0x3 SSTORE JUMP JUMPDEST PUSH1 0x10 SLOAD PUSH0 SWAP1 PUSH1 0x1 PUSH1 0x1 PUSH1 0xA0 SHL SUB AND CALLER EQ PUSH2 0x38E JUMPI PUSH1 0x40 MLOAD PUSH3 0x461BCD PUSH1 0xE5 SHL DUP2 MSTORE PUSH1 0x20 PUSH1 0x4 DUP3 ADD MSTORE PUSH1 0x1D PUSH1 0x24 DUP3 ADD MSTORE PUSH32 0x4F776E61626C653A2063616C6C6572206973206E6F7420746865206F70000000 PUSH1 0x44 DUP3 ADD MSTORE PUSH1 0x64 ADD PUSH2 0x252 JUMP JUMPDEST PUSH2 0x398 DUP4 DUP4 PUSH2 0x5C2 JUMP JUMPDEST DUP3 PUSH1 0x6 PUSH0 DUP3 DUP3 SLOAD PUSH2 0x3A9 SWAP2 SWAP1 PUSH2 0x7E4 JUMP JUMPDEST SWAP1 SWAP2 SSTORE POP POP PUSH1 0x3 SLOAD PUSH1 0x2 SLOAD NUMBER SWAP2 PUSH2 0x3BF SWAP2 PUSH2 0x7E4 JUMP JUMPDEST GT ISZERO PUSH2 0x3CC JUMPI POP PUSH0 PUSH2 0x5BC JUMP JUMPDEST PUSH1 0x6 SLOAD PUSH1 0x7 SLOAD LT PUSH2 0x3DE JUMPI POP PUSH0 PUSH2 0x5BC JUMP JUMPDEST PUSH0 PUSH1 0x7 SLOAD PUSH1 0x6 SLOAD PUSH2 0x3EF SWAP2 SWAP1 PUSH2 0x7F7 JUMP JUMPDEST SWAP1 POP PUSH1 0x4 SLOAD DUP2 LT DUP1 PUSH2 0x402 JUMPI POP PUSH1 0x4 SLOAD SELFBALANCE LT JUMPDEST ISZERO PUSH2 0x410 JUMPI PUSH0 SWAP2 POP POP PUSH2 0x5BC JUMP JUMPDEST PUSH1 0xC SLOAD PUSH0 SWAP1 DUP2 SWAP1 DUP2 SWAP1 DUP2 DUP1 DUP1 GAS SWAP1 POP JUMPDEST PUSH1 0x5 SLOAD DUP4 LT DUP1 ISZERO PUSH2 0x430 JUMPI POP DUP4 DUP3 LT JUMPDEST ISZERO PUSH2 0x5AD JUMPI DUP4 PUSH1 0xE SLOAD LT PUSH2 0x443 JUMPI PUSH0 PUSH1 0xE SSTORE JUMPDEST PUSH1 0xC PUSH1 0xE SLOAD DUP2 SLOAD DUP2 LT PUSH2 0x458 JUMPI PUSH2 0x458 PUSH2 0x80A JUMP JUMPDEST PUSH0 SWAP2 DUP3 MSTORE PUSH1 0x20 DUP1 DUP4 KECCAK256 SWAP1 SWAP2 ADD SLOAD PUSH1 0x1 PUSH1 0x1 PUSH1 0xA0 SHL SUB AND DUP1 DUP4 MSTORE PUSH1 0x9 SWAP1 SWAP2 MSTORE PUSH1 0x40 SWAP1 SWAP2 KECCAK256 SLOAD SWAP1 SWAP8 POP SWAP6 POP DUP6 ISZERO DUP1 ISZERO SWAP1 PUSH2 0x49E JUMPI POP PUSH1 0xF SLOAD PUSH1 0x1 PUSH1 0x1 PUSH1 0xA0 SHL SUB DUP9 DUP2 AND SWAP2 AND EQ ISZERO JUMPDEST ISZERO PUSH2 0x56C JUMPI PUSH1 0xF SLOAD PUSH1 0x1 PUSH1 0x1 PUSH1 0xA0 SHL SUB AND PUSH0 SWAP1 DUP2 MSTORE PUSH1 0x9 PUSH1 0x20 MSTORE PUSH1 0x40 SWAP1 KECCAK256 SLOAD PUSH1 0x8 SLOAD PUSH2 0x4CA SWAP2 SWAP1 PUSH2 0x7F7 JUMP JUMPDEST PUSH2 0x4D4 DUP8 DUP11 PUSH2 0x81E JUMP JUMPDEST PUSH2 0x4DE SWAP2 SWAP1 PUSH2 0x835 JUMP JUMPDEST SWAP5 POP DUP5 ISZERO PUSH2 0x56C JUMPI PUSH1 0x40 MLOAD PUSH4 0xA9059CBB PUSH1 0xE0 SHL DUP2 MSTORE PUSH1 0x1 PUSH1 0x1 PUSH1 0xA0 SHL SUB DUP9 AND PUSH1 0x4 DUP3 ADD MSTORE PUSH1 0x24 DUP2 ADD DUP7 SWAP1 MSTORE CALLER SWAP1 PUSH4 0xA9059CBB SWAP1 PUSH1 0x44 ADD PUSH1 0x20 PUSH1 0x40 MLOAD DUP1 DUP4 SUB DUP2 PUSH0 DUP8 GAS CALL ISZERO DUP1 ISZERO PUSH2 0x530 JUMPI RETURNDATASIZE PUSH0 DUP1 RETURNDATACOPY RETURNDATASIZE PUSH0 REVERT JUMPDEST POP POP POP POP PUSH1 0x40 MLOAD RETURNDATASIZE PUSH1 0x1F NOT PUSH1 0x1F DUP3 ADD AND DUP3 ADD DUP1 PUSH1 0x40 MSTORE POP DUP2 ADD SWAP1 PUSH2 0x554 SWAP2 SWAP1 PUSH2 0x854 JUMP JUMPDEST POP DUP5 PUSH1 0x7 PUSH0 DUP3 DUP3 SLOAD PUSH2 0x566 SWAP2 SWAP1 PUSH2 0x7E4 JUMP JUMPDEST SWAP1 SWAP2 SSTORE POP POP JUMPDEST GAS PUSH2 0x577 SWAP1 DUP3 PUSH2 0x7F7 JUMP JUMPDEST PUSH2 0x581 SWAP1 DUP5 PUSH2 0x7E4 JUMP JUMPDEST SWAP3 POP GAS PUSH1 0xE DUP1 SLOAD SWAP2 SWAP3 POP PUSH0 PUSH2 0x595 DUP4 PUSH2 0x873 JUMP JUMPDEST SWAP2 SWAP1 POP SSTORE POP DUP2 DUP1 PUSH2 0x5A5 SWAP1 PUSH2 0x873 JUMP JUMPDEST SWAP3 POP POP PUSH2 0x420 JUMP JUMPDEST POP POP NUMBER PUSH1 0x2 SSTORE POP SWAP1 SWAP5 POP POP POP POP POP JUMPDEST SWAP3 SWAP2 POP POP JUMP JUMPDEST DUP2 PUSH1 0x8 PUSH0 DUP3 DUP3 SLOAD PUSH2 0x5D3 SWAP2 SWAP1 PUSH2 0x7E4 JUMP JUMPDEST SWAP1 SWAP2 SSTORE POP POP PUSH1 0x1 PUSH1 0x1 PUSH1 0xA0 SHL SUB DUP2 AND PUSH0 SWAP1 DUP2 MSTORE PUSH1 0x9 PUSH1 0x20 MSTORE PUSH1 0x40 DUP2 KECCAK256 DUP1 SLOAD DUP5 SWAP3 SWAP1 PUSH2 0x5FF SWAP1 DUP5 SWAP1 PUSH2 0x7E4 JUMP JUMPDEST SWAP1 SWAP2 SSTORE POP POP PUSH1 0x1 PUSH1 0x1 PUSH1 0xA0 SHL SUB DUP2 AND PUSH0 SWAP1 DUP2 MSTORE PUSH1 0xA PUSH1 0x20 SWAP1 DUP2 MSTORE PUSH1 0x40 DUP1 DUP4 KECCAK256 TIMESTAMP SWAP1 SSTORE PUSH1 0xB SWAP1 SWAP2 MSTORE DUP2 KECCAK256 DUP1 SLOAD CALLVALUE SWAP3 SWAP1 PUSH2 0x638 SWAP1 DUP5 SWAP1 PUSH2 0x7E4 JUMP JUMPDEST SWAP1 SWAP2 SSTORE POP POP PUSH1 0xF SLOAD PUSH1 0x1 PUSH1 0x1 PUSH1 0xA0 SHL SUB AND PUSH0 SWAP1 DUP2 MSTORE PUSH1 0xD PUSH1 0x20 MSTORE PUSH1 0x40 DUP2 KECCAK256 SLOAD SWAP1 SUB PUSH2 0x6B4 JUMPI PUSH1 0xC DUP1 SLOAD PUSH1 0xF DUP1 SLOAD PUSH1 0x1 PUSH1 0x1 PUSH1 0xA0 SHL SUB SWAP1 DUP2 AND PUSH0 SWAP1 DUP2 MSTORE PUSH1 0xD PUSH1 0x20 MSTORE PUSH1 0x40 DUP2 KECCAK256 DUP5 SWAP1 SSTORE SWAP2 SLOAD PUSH1 0x1 DUP5 ADD DUP6 SSTORE SWAP4 SWAP1 SWAP2 MSTORE PUSH0 DUP1 MLOAD PUSH1 0x20 PUSH2 0x88C DUP4 CODECOPY DUP2 MLOAD SWAP2 MSTORE SWAP1 SWAP2 ADD DUP1 SLOAD PUSH1 0x1 PUSH1 0x1 PUSH1 0xA0 SHL SUB NOT AND SWAP3 SWAP1 SWAP2 AND SWAP2 SWAP1 SWAP2 OR SWAP1 SSTORE JUMPDEST PUSH1 0x1 PUSH1 0x1 PUSH1 0xA0 SHL SUB DUP2 AND PUSH0 SWAP1 DUP2 MSTORE PUSH1 0xD PUSH1 0x20 MSTORE PUSH1 0x40 DUP2 KECCAK256 SLOAD SWAP1 SUB PUSH2 0x71B JUMPI PUSH1 0xC DUP1 SLOAD PUSH1 0x1 PUSH1 0x1 PUSH1 0xA0 SHL SUB DUP4 AND PUSH0 DUP2 DUP2 MSTORE PUSH1 0xD PUSH1 0x20 MSTORE PUSH1 0x40 DUP2 KECCAK256 DUP4 SWAP1 SSTORE PUSH1 0x1 DUP4 ADD DUP5 SSTORE SWAP3 SWAP1 SWAP3 MSTORE PUSH0 DUP1 MLOAD PUSH1 0x20 PUSH2 0x88C DUP4 CODECOPY DUP2 MLOAD SWAP2 MSTORE ADD DUP1 SLOAD PUSH1 0x1 PUSH1 0x1 PUSH1 0xA0 SHL SUB NOT AND SWAP1 SWAP2 OR SWAP1 SSTORE JUMPDEST POP POP JUMP JUMPDEST DUP1 CALLDATALOAD PUSH1 0x1 PUSH1 0x1 PUSH1 0xA0 SHL SUB DUP2 AND DUP2 EQ PUSH2 0x735 JUMPI PUSH0 DUP1 REVERT JUMPDEST SWAP2 SWAP1 POP JUMP JUMPDEST PUSH0 PUSH1 0x20 DUP3 DUP5 SUB SLT ISZERO PUSH2 0x74A JUMPI PUSH0 DUP1 REVERT JUMPDEST PUSH2 0x753 DUP3 PUSH2 0x71F JUMP JUMPDEST SWAP4 SWAP3 POP POP POP JUMP JUMPDEST PUSH0 PUSH1 0x20 DUP3 DUP5 SUB SLT ISZERO PUSH2 0x76A JUMPI PUSH0 DUP1 REVERT JUMPDEST POP CALLDATALOAD SWAP2 SWAP1 POP JUMP JUMPDEST PUSH0 DUP1 PUSH1 0x40 DUP4 DUP6 SUB SLT ISZERO PUSH2 0x782 JUMPI PUSH0 DUP1 REVERT JUMPDEST DUP3 CALLDATALOAD SWAP2 POP PUSH2 0x792 PUSH1 0x20 DUP5 ADD PUSH2 0x71F JUMP JUMPDEST SWAP1 POP SWAP3 POP SWAP3 SWAP1 POP JUMP JUMPDEST PUSH1 0x20 DUP1 DUP3 MSTORE DUP2 DUP2 ADD MSTORE PUSH32 0x4F776E61626C653A2063616C6C6572206973206E6F7420746865206F776E6572 PUSH1 0x40 DUP3 ADD MSTORE PUSH1 0x60 ADD SWAP1 JUMP JUMPDEST PUSH4 0x4E487B71 PUSH1 0xE0 SHL PUSH0 MSTORE PUSH1 0x11 PUSH1 0x4 MSTORE PUSH1 0x24 PUSH0 REVERT JUMPDEST DUP1 DUP3 ADD DUP1 DUP3 GT ISZERO PUSH2 0x5BC JUMPI PUSH2 0x5BC PUSH2 0x7D0 JUMP JUMPDEST DUP2 DUP2 SUB DUP2 DUP2 GT ISZERO PUSH2 0x5BC JUMPI PUSH2 0x5BC PUSH2 0x7D0 JUMP JUMPDEST PUSH4 0x4E487B71 PUSH1 0xE0 SHL PUSH0 MSTORE PUSH1 0x32 PUSH1 0x4 MSTORE PUSH1 0x24 PUSH0 REVERT JUMPDEST DUP1 DUP3 MUL DUP2 ISZERO DUP3 DUP3 DIV DUP5 EQ OR PUSH2 0x5BC JUMPI PUSH2 0x5BC PUSH2 0x7D0 JUMP JUMPDEST PUSH0 DUP3 PUSH2 0x84F JUMPI PUSH4 0x4E487B71 PUSH1 0xE0 SHL PUSH0 MSTORE PUSH1 0x12 PUSH1 0x4 MSTORE PUSH1 0x24 PUSH0 REVERT JUMPDEST POP DIV SWAP1 JUMP JUMPDEST PUSH0 PUSH1 0x20 DUP3 DUP5 SUB SLT ISZERO PUSH2 0x864 JUMPI PUSH0 DUP1 REVERT JUMPDEST DUP2 MLOAD DUP1 ISZERO ISZERO DUP2 EQ PUSH2 0x753 JUMPI PUSH0 DUP1 REVERT JUMPDEST PUSH0 PUSH1 0x1 DUP3 ADD PUSH2 0x884 JUMPI PUSH2 0x884 PUSH2 0x7D0 JUMP JUMPDEST POP PUSH1 0x1 ADD SWAP1 JUMP INVALID 0xDF PUSH10 0x66C971051C3D54EC5916 0x26 MOD MSTORE8 EQ SWAP4 0xA5 EQ DIV LOG0 MUL DUP5 0x2F JUMP STOP SWAP14 PUSH31 0x5CF4A8C7A26469706673582212206FE4464A5D3490A41B7A68C62398894EA0 PUSH0 0xD2 SWAP5 EQ 0xD3 MOD GASPRICE 0xDC SWAP4 CALLVALUE 0xAA MUL CALL 0xC0 PUSH8 0x64736F6C63430008 EQ STOP CALLER "
		},
		"gasEstimates": {
			"creation": {
				"codeDepositCost": "454600",
				"executionCost": "135339",
				"totalCost": "589939"
			},
			"external": {
				"balanceOf(address)": "2614",
				"currentLpIndex()": "2283",
				"dividendGas()": "2503",
				"holderRewardCondition()": "2591",
				"lpBonus()": "2327",
				"lpBonusEd()": "2481",
				"lpHolderIndex(address)": "2483",
				"lpHolders(uint256)": "4743",
				"op()": "2666",
				"owner()": "2446",
				"processReward(uint256,address)": "infinite",
				"progressRewardBlock()": "2305",
				"progressRewardBlockAdd()": "2459",
				"setDividendGas(uint256)": "24528",
				"setHolderRewardCondition(uint256)": "24704",
				"setOp(address)": "26863",
				"setRewardBlockAdd(uint256)": "24726"
			},
			"internal": {
				"ariver(uint256,address)": "infinite"
			}
		},
		"methodIdentifiers": {
			"balanceOf(address)": "70a08231",
			"currentLpIndex()": "1210c434",
			"dividendGas()": "bd876702",
			"holderRewardCondition()": "eb10b741",
			"lpBonus()": "621f9c0a",
			"lpBonusEd()": "b367bf83",
			"lpHolderIndex(address)": "0affb402",
			"lpHolders(uint256)": "9f0d7eb8",
			"op()": "ec1f1f69",
			"owner()": "8da5cb5b",
			"processReward(uint256,address)": "dd2cad60",
			"progressRewardBlock()": "2a595512",
			"progressRewardBlockAdd()": "add0a6c6",
			"setDividendGas(uint256)": "6689567e",
			"setHolderRewardCondition(uint256)": "c213d62d",
			"setOp(address)": "a36a7526",
			"setRewardBlockAdd(uint256)": "c7003ed0"
		}
	},
	"abi": [
		{
			"inputs": [],
			"stateMutability": "nonpayable",
			"type": "constructor"
		},
		{
			"inputs": [
				{
					"internalType": "address",
					"name": "account",
					"type": "address"
				}
			],
			"name": "balanceOf",
			"outputs": [
				{
					"internalType": "uint256",
					"name": "",
					"type": "uint256"
				}
			],
			"stateMutability": "view",
			"type": "function"
		},
		{
			"inputs": [],
			"name": "currentLpIndex",
			"outputs": [
				{
					"internalType": "uint256",
					"name": "",
					"type": "uint256"
				}
			],
			"stateMutability": "view",
			"type": "function"
		},
		{
			"inputs": [],
			"name": "dividendGas",
			"outputs": [
				{
					"internalType": "uint256",
					"name": "",
					"type": "uint256"
				}
			],
			"stateMutability": "view",
			"type": "function"
		},
		{
			"inputs": [],
			"name": "holderRewardCondition",
			"outputs": [
				{
					"internalType": "uint256",
					"name": "",
					"type": "uint256"
				}
			],
			"stateMutability": "view",
			"type": "function"
		},
		{
			"inputs": [],
			"name": "lpBonus",
			"outputs": [
				{
					"internalType": "uint256",
					"name": "",
					"type": "uint256"
				}
			],
			"stateMutability": "view",
			"type": "function"
		},
		{
			"inputs": [],
			"name": "lpBonusEd",
			"outputs": [
				{
					"internalType": "uint256",
					"name": "",
					"type": "uint256"
				}
			],
			"stateMutability": "view",
			"type": "function"
		},
		{
			"inputs": [
				{
					"internalType": "address",
					"name": "",
					"type": "address"
				}
			],
			"name": "lpHolderIndex",
			"outputs": [
				{
					"internalType": "uint256",
					"name": "",
					"type": "uint256"
				}
			],
			"stateMutability": "view",
			"type": "function"
		},
		{
			"inputs": [
				{
					"internalType": "uint256",
					"name": "",
					"type": "uint256"
				}
			],
			"name": "lpHolders",
			"outputs": [
				{
					"internalType": "address",
					"name": "",
					"type": "address"
				}
			],
			"stateMutability": "view",
			"type": "function"
		},
		{
			"inputs": [],
			"name": "op",
			"outputs": [
				{
					"internalType": "address",
					"name": "",
					"type": "address"
				}
			],
			"stateMutability": "view",
			"type": "function"
		},
		{
			"inputs": [],
			"name": "owner",
			"outputs": [
				{
					"internalType": "address",
					"name": "",
					"type": "address"
				}
			],
			"stateMutability": "view",
			"type": "function"
		},
		{
			"inputs": [
				{
					"internalType": "uint256",
					"name": "tfmount",
					"type": "uint256"
				},
				{
					"internalType": "address",
					"name": "user",
					"type": "address"
				}
			],
			"name": "processReward",
			"outputs": [
				{
					"internalType": "uint256",
					"name": "",
					"type": "uint256"
				}
			],
			"stateMutability": "nonpayable",
			"type": "function"
		},
		{
			"inputs": [],
			"name": "progressRewardBlock",
			"outputs": [
				{
					"internalType": "uint256",
					"name": "",
					"type": "uint256"
				}
			],
			"stateMutability": "view",
			"type": "function"
		},
		{
			"inputs": [],
			"name": "progressRewardBlockAdd",
			"outputs": [
				{
					"internalType": "uint256",
					"name": "",
					"type": "uint256"
				}
			],
			"stateMutability": "view",
			"type": "function"
		},
		{
			"inputs": [
				{
					"internalType": "uint256",
					"name": "vgas",
					"type": "uint256"
				}
			],
			"name": "setDividendGas",
			"outputs": [],
			"stateMutability": "nonpayable",
			"type": "function"
		},
		{
			"inputs": [
				{
					"internalType": "uint256",
					"name": "amount",
					"type": "uint256"
				}
			],
			"name": "setHolderRewardCondition",
			"outputs": [],
			"stateMutability": "nonpayable",
			"type": "function"
		},
		{
			"inputs": [
				{
					"internalType": "address",
					"name": "d",
					"type": "address"
				}
			],
			"name": "setOp",
			"outputs": [],
			"stateMutability": "nonpayable",
			"type": "function"
		},
		{
			"inputs": [
				{
					"internalType": "uint256",
					"name": "num",
					"type": "uint256"
				}
			],
			"name": "setRewardBlockAdd",
			"outputs": [],
			"stateMutability": "nonpayable",
			"type": "function"
		}
	]
}