{
	"data": {
		"bytecode": {
			"linkReferences": {},
			"object": "608060405234801561000f575f80fd5b50601780546001600160a01b0319908116331790915560c8600755662386f26fc1000060095569010f0cf064dd592000006008556207a120600a556015805490911661dead9081179091555f90815260208190527f44ad89ba62b98ff34f51403ac22759b55759460c0bb5521eb4b6ee3cff49cf8355610889806100925f395ff3fe608060405234801561000f575f80fd5b50600436106100e4575f3560e01c80630affb402146100e85780631210c4341461011a57806315c43aaf146101235780632a5955121461013e5780633a7960e0146101475780633fe9f9f714610150578063621f9c0a1461015957806370a08231146101625780638da5cb5b1461018a57806397a06724146101b55780639f0d7eb8146101d4578063a36a7526146101e7578063add0a6c6146101fc578063b367bf8314610205578063bd8767021461020e578063dd2cad6014610217578063eb10b7411461022a578063ec1f1f6914610233575b5f80fd5b6101076100f6366004610717565b60136020525f908152604090205481565b6040519081526020015b60405180910390f35b61010760145481565b60015460025460408051928352602083019190915201610111565b61010760065481565b61010760055481565b61010760085481565b610107600b5481565b610107610170366004610717565b6001600160a01b03165f9081526020819052604090205490565b60175461019d906001600160a01b031681565b6040516001600160a01b039091168152602001610111565b6101076101c3366004610717565b60036020525f908152604090205481565b61019d6101e2366004610737565b610246565b6101fa6101f5366004610717565b61026e565b005b61010760075481565b610107600c5481565b610107600a5481565b61010761022536600461074e565b6102ef565b61010760095481565b60165461019d906001600160a01b031681565b60128181548110610255575f80fd5b5f918252602090912001546001600160a01b0316905081565b6017546001600160a01b031633146102cd5760405162461bcd60e51b815260206004820181905260248201527f4f776e61626c653a2063616c6c6572206973206e6f7420746865206f776e657260448201526064015b60405180910390fd5b601680546001600160a01b0319166001600160a01b0392909216919091179055565b6016545f906001600160a01b0316331461034b5760405162461bcd60e51b815260206004820152601d60248201527f4f776e61626c653a2063616c6c6572206973206e6f7420746865206f7000000060448201526064016102c4565b610355838361059f565b43600754600654610366919061078c565b111561037357505f610599565b600d54158061039d57506015546001600160a01b03165f908152600e6020526040902054600d5411155b156103a957505f610599565b600b54600c54106103bb57505f610599565b5f600c54600b546103cc919061079f565b90506009548110806103df575060095447105b156103ed575f915050610599565b6012545f90819081908180805a90505b600a548310801561040d57508382105b1561058a578360145410610420575f6014555b601260145481548110610435576104356107b2565b5f9182526020808320909101546001600160a01b0316808352600e9091526040909120549097509550851580159061047b57506015546001600160a01b03888116911614155b15610549576015546001600160a01b03165f908152600e6020526040902054600d546104a7919061079f565b6104b1878a6107c6565b6104bb91906107dd565b945084156105495760405163a9059cbb60e01b81526001600160a01b038816600482015260248101869052339063a9059cbb906044016020604051808303815f875af115801561050d573d5f803e3d5ffd5b505050506040513d601f19601f8201168201806040525081019061053191906107fc565b5084600c5f828254610543919061078c565b90915550505b5a610554908261079f565b61055e908461078c565b92505a601480549192505f6105728361081b565b919050555081806105829061081b565b9250506103fd565b50504360065550909450505050505b92915050565b81600d5f8282546105b0919061078c565b90915550506001600160a01b0381165f908152600e6020526040812080548492906105dc90849061078c565b90915550506001600160a01b0381165f908152600f6020908152604080832042905560109091528120805434929061061590849061078c565b90915550506015546001600160a01b03165f9081526013602052604081205490036106915760128054601580546001600160a01b039081165f9081526013602052604081208490559154600184018555939091525f8051602061083483398151915290910180546001600160a01b031916929091169190911790555b6001600160a01b0381165f9081526013602052604081205490036106f857601280546001600160a01b0383165f818152601360205260408120839055600183018455929092525f805160206108348339815191520180546001600160a01b03191690911790555b5050565b80356001600160a01b0381168114610712575f80fd5b919050565b5f60208284031215610727575f80fd5b610730826106fc565b9392505050565b5f60208284031215610747575f80fd5b5035919050565b5f806040838503121561075f575f80fd5b8235915061076f602084016106fc565b90509250929050565b634e487b7160e01b5f52601160045260245ffd5b8082018082111561059957610599610778565b8181038181111561059957610599610778565b634e487b7160e01b5f52603260045260245ffd5b808202811582820484141761059957610599610778565b5f826107f757634e487b7160e01b5f52601260045260245ffd5b500490565b5f6020828403121561080c575f80fd5b81518015158114610730575f80fd5b5f6001820161082c5761082c610778565b506001019056febb8a6a4669ba250d26cd7a459eca9d215f8307e33aebe50379bc5a3617ec3444a2646970667358221220627fd2be6fdf50c2f950902765a954562daa58332ddfa84b3dee1463227171da64736f6c63430008140033",
			"opcodes": "PUSH1 0x80 PUSH1 0x40 MSTORE CALLVALUE DUP1 ISZERO PUSH2 0xF JUMPI PUSH0 DUP1 REVERT JUMPDEST POP PUSH1 0x17 DUP1 SLOAD PUSH1 0x1 PUSH1 0x1 PUSH1 0xA0 SHL SUB NOT SWAP1 DUP2 AND CALLER OR SWAP1 SWAP2 SSTORE PUSH1 0xC8 PUSH1 0x7 SSTORE PUSH7 0x2386F26FC10000 PUSH1 0x9 SSTORE PUSH10 0x10F0CF064DD59200000 PUSH1 0x8 SSTORE PUSH3 0x7A120 PUSH1 0xA SSTORE PUSH1 0x15 DUP1 SLOAD SWAP1 SWAP2 AND PUSH2 0xDEAD SWAP1 DUP2 OR SWAP1 SWAP2 SSTORE PUSH0 SWAP1 DUP2 MSTORE PUSH1 0x20 DUP2 SWAP1 MSTORE PUSH32 0x44AD89BA62B98FF34F51403AC22759B55759460C0BB5521EB4B6EE3CFF49CF83 SSTORE PUSH2 0x889 DUP1 PUSH2 0x92 PUSH0 CODECOPY PUSH0 RETURN INVALID PUSH1 0x80 PUSH1 0x40 MSTORE CALLVALUE DUP1 ISZERO PUSH2 0xF JUMPI PUSH0 DUP1 REVERT JUMPDEST POP PUSH1 0x4 CALLDATASIZE LT PUSH2 0xE4 JUMPI PUSH0 CALLDATALOAD PUSH1 0xE0 SHR DUP1 PUSH4 0xAFFB402 EQ PUSH2 0xE8 JUMPI DUP1 PUSH4 0x1210C434 EQ PUSH2 0x11A JUMPI DUP1 PUSH4 0x15C43AAF EQ PUSH2 0x123 JUMPI DUP1 PUSH4 0x2A595512 EQ PUSH2 0x13E JUMPI DUP1 PUSH4 0x3A7960E0 EQ PUSH2 0x147 JUMPI DUP1 PUSH4 0x3FE9F9F7 EQ PUSH2 0x150 JUMPI DUP1 PUSH4 0x621F9C0A EQ PUSH2 0x159 JUMPI DUP1 PUSH4 0x70A08231 EQ PUSH2 0x162 JUMPI DUP1 PUSH4 0x8DA5CB5B EQ PUSH2 0x18A JUMPI DUP1 PUSH4 0x97A06724 EQ PUSH2 0x1B5 JUMPI DUP1 PUSH4 0x9F0D7EB8 EQ PUSH2 0x1D4 JUMPI DUP1 PUSH4 0xA36A7526 EQ PUSH2 0x1E7 JUMPI DUP1 PUSH4 0xADD0A6C6 EQ PUSH2 0x1FC JUMPI DUP1 PUSH4 0xB367BF83 EQ PUSH2 0x205 JUMPI DUP1 PUSH4 0xBD876702 EQ PUSH2 0x20E JUMPI DUP1 PUSH4 0xDD2CAD60 EQ PUSH2 0x217 JUMPI DUP1 PUSH4 0xEB10B741 EQ PUSH2 0x22A JUMPI DUP1 PUSH4 0xEC1F1F69 EQ PUSH2 0x233 JUMPI JUMPDEST PUSH0 DUP1 REVERT JUMPDEST PUSH2 0x107 PUSH2 0xF6 CALLDATASIZE PUSH1 0x4 PUSH2 0x717 JUMP JUMPDEST PUSH1 0x13 PUSH1 0x20 MSTORE PUSH0 SWAP1 DUP2 MSTORE PUSH1 0x40 SWAP1 KECCAK256 SLOAD DUP2 JUMP JUMPDEST PUSH1 0x40 MLOAD SWAP1 DUP2 MSTORE PUSH1 0x20 ADD JUMPDEST PUSH1 0x40 MLOAD DUP1 SWAP2 SUB SWAP1 RETURN JUMPDEST PUSH2 0x107 PUSH1 0x14 SLOAD DUP2 JUMP JUMPDEST PUSH1 0x1 SLOAD PUSH1 0x2 SLOAD PUSH1 0x40 DUP1 MLOAD SWAP3 DUP4 MSTORE PUSH1 0x20 DUP4 ADD SWAP2 SWAP1 SWAP2 MSTORE ADD PUSH2 0x111 JUMP JUMPDEST PUSH2 0x107 PUSH1 0x6 SLOAD DUP2 JUMP JUMPDEST PUSH2 0x107 PUSH1 0x5 SLOAD DUP2 JUMP JUMPDEST PUSH2 0x107 PUSH1 0x8 SLOAD DUP2 JUMP JUMPDEST PUSH2 0x107 PUSH1 0xB SLOAD DUP2 JUMP JUMPDEST PUSH2 0x107 PUSH2 0x170 CALLDATASIZE PUSH1 0x4 PUSH2 0x717 JUMP JUMPDEST PUSH1 0x1 PUSH1 0x1 PUSH1 0xA0 SHL SUB AND PUSH0 SWAP1 DUP2 MSTORE PUSH1 0x20 DUP2 SWAP1 MSTORE PUSH1 0x40 SWAP1 KECCAK256 SLOAD SWAP1 JUMP JUMPDEST PUSH1 0x17 SLOAD PUSH2 0x19D SWAP1 PUSH1 0x1 PUSH1 0x1 PUSH1 0xA0 SHL SUB AND DUP2 JUMP JUMPDEST PUSH1 0x40 MLOAD PUSH1 0x1 PUSH1 0x1 PUSH1 0xA0 SHL SUB SWAP1 SWAP2 AND DUP2 MSTORE PUSH1 0x20 ADD PUSH2 0x111 JUMP JUMPDEST PUSH2 0x107 PUSH2 0x1C3 CALLDATASIZE PUSH1 0x4 PUSH2 0x717 JUMP JUMPDEST PUSH1 0x3 PUSH1 0x20 MSTORE PUSH0 SWAP1 DUP2 MSTORE PUSH1 0x40 SWAP1 KECCAK256 SLOAD DUP2 JUMP JUMPDEST PUSH2 0x19D PUSH2 0x1E2 CALLDATASIZE PUSH1 0x4 PUSH2 0x737 JUMP JUMPDEST PUSH2 0x246 JUMP JUMPDEST PUSH2 0x1FA PUSH2 0x1F5 CALLDATASIZE PUSH1 0x4 PUSH2 0x717 JUMP JUMPDEST PUSH2 0x26E JUMP JUMPDEST STOP JUMPDEST PUSH2 0x107 PUSH1 0x7 SLOAD DUP2 JUMP JUMPDEST PUSH2 0x107 PUSH1 0xC SLOAD DUP2 JUMP JUMPDEST PUSH2 0x107 PUSH1 0xA SLOAD DUP2 JUMP JUMPDEST PUSH2 0x107 PUSH2 0x225 CALLDATASIZE PUSH1 0x4 PUSH2 0x74E JUMP JUMPDEST PUSH2 0x2EF JUMP JUMPDEST PUSH2 0x107 PUSH1 0x9 SLOAD DUP2 JUMP JUMPDEST PUSH1 0x16 SLOAD PUSH2 0x19D SWAP1 PUSH1 0x1 PUSH1 0x1 PUSH1 0xA0 SHL SUB AND DUP2 JUMP JUMPDEST PUSH1 0x12 DUP2 DUP2 SLOAD DUP2 LT PUSH2 0x255 JUMPI PUSH0 DUP1 REVERT JUMPDEST PUSH0 SWAP2 DUP3 MSTORE PUSH1 0x20 SWAP1 SWAP2 KECCAK256 ADD SLOAD PUSH1 0x1 PUSH1 0x1 PUSH1 0xA0 SHL SUB AND SWAP1 POP DUP2 JUMP JUMPDEST PUSH1 0x17 SLOAD PUSH1 0x1 PUSH1 0x1 PUSH1 0xA0 SHL SUB AND CALLER EQ PUSH2 0x2CD JUMPI PUSH1 0x40 MLOAD PUSH3 0x461BCD PUSH1 0xE5 SHL DUP2 MSTORE PUSH1 0x20 PUSH1 0x4 DUP3 ADD DUP2 SWAP1 MSTORE PUSH1 0x24 DUP3 ADD MSTORE PUSH32 0x4F776E61626C653A2063616C6C6572206973206E6F7420746865206F776E6572 PUSH1 0x44 DUP3 ADD MSTORE PUSH1 0x64 ADD JUMPDEST PUSH1 0x40 MLOAD DUP1 SWAP2 SUB SWAP1 REVERT JUMPDEST PUSH1 0x16 DUP1 SLOAD PUSH1 0x1 PUSH1 0x1 PUSH1 0xA0 SHL SUB NOT AND PUSH1 0x1 PUSH1 0x1 PUSH1 0xA0 SHL SUB SWAP3 SWAP1 SWAP3 AND SWAP2 SWAP1 SWAP2 OR SWAP1 SSTORE JUMP JUMPDEST PUSH1 0x16 SLOAD PUSH0 SWAP1 PUSH1 0x1 PUSH1 0x1 PUSH1 0xA0 SHL SUB AND CALLER EQ PUSH2 0x34B JUMPI PUSH1 0x40 MLOAD PUSH3 0x461BCD PUSH1 0xE5 SHL DUP2 MSTORE PUSH1 0x20 PUSH1 0x4 DUP3 ADD MSTORE PUSH1 0x1D PUSH1 0x24 DUP3 ADD MSTORE PUSH32 0x4F776E61626C653A2063616C6C6572206973206E6F7420746865206F70000000 PUSH1 0x44 DUP3 ADD MSTORE PUSH1 0x64 ADD PUSH2 0x2C4 JUMP JUMPDEST PUSH2 0x355 DUP4 DUP4 PUSH2 0x59F JUMP JUMPDEST NUMBER PUSH1 0x7 SLOAD PUSH1 0x6 SLOAD PUSH2 0x366 SWAP2 SWAP1 PUSH2 0x78C JUMP JUMPDEST GT ISZERO PUSH2 0x373 JUMPI POP PUSH0 PUSH2 0x599 JUMP JUMPDEST PUSH1 0xD SLOAD ISZERO DUP1 PUSH2 0x39D JUMPI POP PUSH1 0x15 SLOAD PUSH1 0x1 PUSH1 0x1 PUSH1 0xA0 SHL SUB AND PUSH0 SWAP1 DUP2 MSTORE PUSH1 0xE PUSH1 0x20 MSTORE PUSH1 0x40 SWAP1 KECCAK256 SLOAD PUSH1 0xD SLOAD GT ISZERO JUMPDEST ISZERO PUSH2 0x3A9 JUMPI POP PUSH0 PUSH2 0x599 JUMP JUMPDEST PUSH1 0xB SLOAD PUSH1 0xC SLOAD LT PUSH2 0x3BB JUMPI POP PUSH0 PUSH2 0x599 JUMP JUMPDEST PUSH0 PUSH1 0xC SLOAD PUSH1 0xB SLOAD PUSH2 0x3CC SWAP2 SWAP1 PUSH2 0x79F JUMP JUMPDEST SWAP1 POP PUSH1 0x9 SLOAD DUP2 LT DUP1 PUSH2 0x3DF JUMPI POP PUSH1 0x9 SLOAD SELFBALANCE LT JUMPDEST ISZERO PUSH2 0x3ED JUMPI PUSH0 SWAP2 POP POP PUSH2 0x599 JUMP JUMPDEST PUSH1 0x12 SLOAD PUSH0 SWAP1 DUP2 SWAP1 DUP2 SWAP1 DUP2 DUP1 DUP1 GAS SWAP1 POP JUMPDEST PUSH1 0xA SLOAD DUP4 LT DUP1 ISZERO PUSH2 0x40D JUMPI POP DUP4 DUP3 LT JUMPDEST ISZERO PUSH2 0x58A JUMPI DUP4 PUSH1 0x14 SLOAD LT PUSH2 0x420 JUMPI PUSH0 PUSH1 0x14 SSTORE JUMPDEST PUSH1 0x12 PUSH1 0x14 SLOAD DUP2 SLOAD DUP2 LT PUSH2 0x435 JUMPI PUSH2 0x435 PUSH2 0x7B2 JUMP JUMPDEST PUSH0 SWAP2 DUP3 MSTORE PUSH1 0x20 DUP1 DUP4 KECCAK256 SWAP1 SWAP2 ADD SLOAD PUSH1 0x1 PUSH1 0x1 PUSH1 0xA0 SHL SUB AND DUP1 DUP4 MSTORE PUSH1 0xE SWAP1 SWAP2 MSTORE PUSH1 0x40 SWAP1 SWAP2 KECCAK256 SLOAD SWAP1 SWAP8 POP SWAP6 POP DUP6 ISZERO DUP1 ISZERO SWAP1 PUSH2 0x47B JUMPI POP PUSH1 0x15 SLOAD PUSH1 0x1 PUSH1 0x1 PUSH1 0xA0 SHL SUB DUP9 DUP2 AND SWAP2 AND EQ ISZERO JUMPDEST ISZERO PUSH2 0x549 JUMPI PUSH1 0x15 SLOAD PUSH1 0x1 PUSH1 0x1 PUSH1 0xA0 SHL SUB AND PUSH0 SWAP1 DUP2 MSTORE PUSH1 0xE PUSH1 0x20 MSTORE PUSH1 0x40 SWAP1 KECCAK256 SLOAD PUSH1 0xD SLOAD PUSH2 0x4A7 SWAP2 SWAP1 PUSH2 0x79F JUMP JUMPDEST PUSH2 0x4B1 DUP8 DUP11 PUSH2 0x7C6 JUMP JUMPDEST PUSH2 0x4BB SWAP2 SWAP1 PUSH2 0x7DD JUMP JUMPDEST SWAP5 POP DUP5 ISZERO PUSH2 0x549 JUMPI PUSH1 0x40 MLOAD PUSH4 0xA9059CBB PUSH1 0xE0 SHL DUP2 MSTORE PUSH1 0x1 PUSH1 0x1 PUSH1 0xA0 SHL SUB DUP9 AND PUSH1 0x4 DUP3 ADD MSTORE PUSH1 0x24 DUP2 ADD DUP7 SWAP1 MSTORE CALLER SWAP1 PUSH4 0xA9059CBB SWAP1 PUSH1 0x44 ADD PUSH1 0x20 PUSH1 0x40 MLOAD DUP1 DUP4 SUB DUP2 PUSH0 DUP8 GAS CALL ISZERO DUP1 ISZERO PUSH2 0x50D JUMPI RETURNDATASIZE PUSH0 DUP1 RETURNDATACOPY RETURNDATASIZE PUSH0 REVERT JUMPDEST POP POP POP POP PUSH1 0x40 MLOAD RETURNDATASIZE PUSH1 0x1F NOT PUSH1 0x1F DUP3 ADD AND DUP3 ADD DUP1 PUSH1 0x40 MSTORE POP DUP2 ADD SWAP1 PUSH2 0x531 SWAP2 SWAP1 PUSH2 0x7FC JUMP JUMPDEST POP DUP5 PUSH1 0xC PUSH0 DUP3 DUP3 SLOAD PUSH2 0x543 SWAP2 SWAP1 PUSH2 0x78C JUMP JUMPDEST SWAP1 SWAP2 SSTORE POP POP JUMPDEST GAS PUSH2 0x554 SWAP1 DUP3 PUSH2 0x79F JUMP JUMPDEST PUSH2 0x55E SWAP1 DUP5 PUSH2 0x78C JUMP JUMPDEST SWAP3 POP GAS PUSH1 0x14 DUP1 SLOAD SWAP2 SWAP3 POP PUSH0 PUSH2 0x572 DUP4 PUSH2 0x81B JUMP JUMPDEST SWAP2 SWAP1 POP SSTORE POP DUP2 DUP1 PUSH2 0x582 SWAP1 PUSH2 0x81B JUMP JUMPDEST SWAP3 POP POP PUSH2 0x3FD JUMP JUMPDEST POP POP NUMBER PUSH1 0x6 SSTORE POP SWAP1 SWAP5 POP POP POP POP POP JUMPDEST SWAP3 SWAP2 POP POP JUMP JUMPDEST DUP2 PUSH1 0xD PUSH0 DUP3 DUP3 SLOAD PUSH2 0x5B0 SWAP2 SWAP1 PUSH2 0x78C JUMP JUMPDEST SWAP1 SWAP2 SSTORE POP POP PUSH1 0x1 PUSH1 0x1 PUSH1 0xA0 SHL SUB DUP2 AND PUSH0 SWAP1 DUP2 MSTORE PUSH1 0xE PUSH1 0x20 MSTORE PUSH1 0x40 DUP2 KECCAK256 DUP1 SLOAD DUP5 SWAP3 SWAP1 PUSH2 0x5DC SWAP1 DUP5 SWAP1 PUSH2 0x78C JUMP JUMPDEST SWAP1 SWAP2 SSTORE POP POP PUSH1 0x1 PUSH1 0x1 PUSH1 0xA0 SHL SUB DUP2 AND PUSH0 SWAP1 DUP2 MSTORE PUSH1 0xF PUSH1 0x20 SWAP1 DUP2 MSTORE PUSH1 0x40 DUP1 DUP4 KECCAK256 TIMESTAMP SWAP1 SSTORE PUSH1 0x10 SWAP1 SWAP2 MSTORE DUP2 KECCAK256 DUP1 SLOAD CALLVALUE SWAP3 SWAP1 PUSH2 0x615 SWAP1 DUP5 SWAP1 PUSH2 0x78C JUMP JUMPDEST SWAP1 SWAP2 SSTORE POP POP PUSH1 0x15 SLOAD PUSH1 0x1 PUSH1 0x1 PUSH1 0xA0 SHL SUB AND PUSH0 SWAP1 DUP2 MSTORE PUSH1 0x13 PUSH1 0x20 MSTORE PUSH1 0x40 DUP2 KECCAK256 SLOAD SWAP1 SUB PUSH2 0x691 JUMPI PUSH1 0x12 DUP1 SLOAD PUSH1 0x15 DUP1 SLOAD PUSH1 0x1 PUSH1 0x1 PUSH1 0xA0 SHL SUB SWAP1 DUP2 AND PUSH0 SWAP1 DUP2 MSTORE PUSH1 0x13 PUSH1 0x20 MSTORE PUSH1 0x40 DUP2 KECCAK256 DUP5 SWAP1 SSTORE SWAP2 SLOAD PUSH1 0x1 DUP5 ADD DUP6 SSTORE SWAP4 SWAP1 SWAP2 MSTORE PUSH0 DUP1 MLOAD PUSH1 0x20 PUSH2 0x834 DUP4 CODECOPY DUP2 MLOAD SWAP2 MSTORE SWAP1 SWAP2 ADD DUP1 SLOAD PUSH1 0x1 PUSH1 0x1 PUSH1 0xA0 SHL SUB NOT AND SWAP3 SWAP1 SWAP2 AND SWAP2 SWAP1 SWAP2 OR SWAP1 SSTORE JUMPDEST PUSH1 0x1 PUSH1 0x1 PUSH1 0xA0 SHL SUB DUP2 AND PUSH0 SWAP1 DUP2 MSTORE PUSH1 0x13 PUSH1 0x20 MSTORE PUSH1 0x40 DUP2 KECCAK256 SLOAD SWAP1 SUB PUSH2 0x6F8 JUMPI PUSH1 0x12 DUP1 SLOAD PUSH1 0x1 PUSH1 0x1 PUSH1 0xA0 SHL SUB DUP4 AND PUSH0 DUP2 DUP2 MSTORE PUSH1 0x13 PUSH1 0x20 MSTORE PUSH1 0x40 DUP2 KECCAK256 DUP4 SWAP1 SSTORE PUSH1 0x1 DUP4 ADD DUP5 SSTORE SWAP3 SWAP1 SWAP3 MSTORE PUSH0 DUP1 MLOAD PUSH1 0x20 PUSH2 0x834 DUP4 CODECOPY DUP2 MLOAD SWAP2 MSTORE ADD DUP1 SLOAD PUSH1 0x1 PUSH1 0x1 PUSH1 0xA0 SHL SUB NOT AND SWAP1 SWAP2 OR SWAP1 SSTORE JUMPDEST POP POP JUMP JUMPDEST DUP1 CALLDATALOAD PUSH1 0x1 PUSH1 0x1 PUSH1 0xA0 SHL SUB DUP2 AND DUP2 EQ PUSH2 0x712 JUMPI PUSH0 DUP1 REVERT JUMPDEST SWAP2 SWAP1 POP JUMP JUMPDEST PUSH0 PUSH1 0x20 DUP3 DUP5 SUB SLT ISZERO PUSH2 0x727 JUMPI PUSH0 DUP1 REVERT JUMPDEST PUSH2 0x730 DUP3 PUSH2 0x6FC JUMP JUMPDEST SWAP4 SWAP3 POP POP POP JUMP JUMPDEST PUSH0 PUSH1 0x20 DUP3 DUP5 SUB SLT ISZERO PUSH2 0x747 JUMPI PUSH0 DUP1 REVERT JUMPDEST POP CALLDATALOAD SWAP2 SWAP1 POP JUMP JUMPDEST PUSH0 DUP1 PUSH1 0x40 DUP4 DUP6 SUB SLT ISZERO PUSH2 0x75F JUMPI PUSH0 DUP1 REVERT JUMPDEST DUP3 CALLDATALOAD SWAP2 POP PUSH2 0x76F PUSH1 0x20 DUP5 ADD PUSH2 0x6FC JUMP JUMPDEST SWAP1 POP SWAP3 POP SWAP3 SWAP1 POP JUMP JUMPDEST PUSH4 0x4E487B71 PUSH1 0xE0 SHL PUSH0 MSTORE PUSH1 0x11 PUSH1 0x4 MSTORE PUSH1 0x24 PUSH0 REVERT JUMPDEST DUP1 DUP3 ADD DUP1 DUP3 GT ISZERO PUSH2 0x599 JUMPI PUSH2 0x599 PUSH2 0x778 JUMP JUMPDEST DUP2 DUP2 SUB DUP2 DUP2 GT ISZERO PUSH2 0x599 JUMPI PUSH2 0x599 PUSH2 0x778 JUMP JUMPDEST PUSH4 0x4E487B71 PUSH1 0xE0 SHL PUSH0 MSTORE PUSH1 0x32 PUSH1 0x4 MSTORE PUSH1 0x24 PUSH0 REVERT JUMPDEST DUP1 DUP3 MUL DUP2 ISZERO DUP3 DUP3 DIV DUP5 EQ OR PUSH2 0x599 JUMPI PUSH2 0x599 PUSH2 0x778 JUMP JUMPDEST PUSH0 DUP3 PUSH2 0x7F7 JUMPI PUSH4 0x4E487B71 PUSH1 0xE0 SHL PUSH0 MSTORE PUSH1 0x12 PUSH1 0x4 MSTORE PUSH1 0x24 PUSH0 REVERT JUMPDEST POP DIV SWAP1 JUMP JUMPDEST PUSH0 PUSH1 0x20 DUP3 DUP5 SUB SLT ISZERO PUSH2 0x80C JUMPI PUSH0 DUP1 REVERT JUMPDEST DUP2 MLOAD DUP1 ISZERO ISZERO DUP2 EQ PUSH2 0x730 JUMPI PUSH0 DUP1 REVERT JUMPDEST PUSH0 PUSH1 0x1 DUP3 ADD PUSH2 0x82C JUMPI PUSH2 0x82C PUSH2 0x778 JUMP JUMPDEST POP PUSH1 0x1 ADD SWAP1 JUMP INVALID 0xBB DUP11 PUSH11 0x4669BA250D26CD7A459ECA SWAP14 0x21 PUSH0 DUP4 SMOD 0xE3 GASPRICE 0xEB 0xE5 SUB PUSH26 0xBC5A3617EC3444A2646970667358221220627FD2BE6FDF50C2F9 POP SWAP1 0x27 PUSH6 0xA954562DAA58 CALLER 0x2D 0xDF 0xA8 0x4B RETURNDATASIZE 0xEE EQ PUSH4 0x227171DA PUSH5 0x736F6C6343 STOP ADDMOD EQ STOP CALLER "
		},
		"gasEstimates": {
			"creation": {
				"codeDepositCost": "437000",
				"executionCost": "142399",
				"totalCost": "579399"
			},
			"external": {
				"balanceOf(address)": "2658",
				"contractInfo()": "4428",
				"currentLpIndex()": "2283",
				"dividendGas()": "2569",
				"holderCondition()": "2371",
				"holderRewardCondition()": "2613",
				"lpBonus()": "2393",
				"lpBonusEd()": "2547",
				"lpHolderIndex(address)": "2483",
				"lpHolders(uint256)": "4809",
				"magnifiedDividendCorrections(address)": "2681",
				"magnifiedDividendPerShare()": "2349",
				"op()": "2688",
				"owner()": "2490",
				"processReward(uint256,address)": "infinite",
				"progressRewardBlock()": "2327",
				"progressRewardBlockAdd()": "2525",
				"setOp(address)": "26929"
			},
			"internal": {
				"ariver(uint256,address)": "infinite"
			}
		},
		"methodIdentifiers": {
			"balanceOf(address)": "70a08231",
			"contractInfo()": "15c43aaf",
			"currentLpIndex()": "1210c434",
			"dividendGas()": "bd876702",
			"holderCondition()": "3fe9f9f7",
			"holderRewardCondition()": "eb10b741",
			"lpBonus()": "621f9c0a",
			"lpBonusEd()": "b367bf83",
			"lpHolderIndex(address)": "0affb402",
			"lpHolders(uint256)": "9f0d7eb8",
			"magnifiedDividendCorrections(address)": "97a06724",
			"magnifiedDividendPerShare()": "3a7960e0",
			"op()": "ec1f1f69",
			"owner()": "8da5cb5b",
			"processReward(uint256,address)": "dd2cad60",
			"progressRewardBlock()": "2a595512",
			"progressRewardBlockAdd()": "add0a6c6",
			"setOp(address)": "a36a7526"
		}
	},
	"abi": [
		{
			"inputs": [],
			"stateMutability": "nonpayable",
			"type": "constructor"
		},
		{
			"inputs": [
				{
					"internalType": "address",
					"name": "account",
					"type": "address"
				}
			],
			"name": "balanceOf",
			"outputs": [
				{
					"internalType": "uint256",
					"name": "",
					"type": "uint256"
				}
			],
			"stateMutability": "view",
			"type": "function"
		},
		{
			"inputs": [],
			"name": "contractInfo",
			"outputs": [
				{
					"internalType": "uint256",
					"name": "",
					"type": "uint256"
				},
				{
					"internalType": "uint256",
					"name": "",
					"type": "uint256"
				}
			],
			"stateMutability": "view",
			"type": "function"
		},
		{
			"inputs": [],
			"name": "currentLpIndex",
			"outputs": [
				{
					"internalType": "uint256",
					"name": "",
					"type": "uint256"
				}
			],
			"stateMutability": "view",
			"type": "function"
		},
		{
			"inputs": [],
			"name": "dividendGas",
			"outputs": [
				{
					"internalType": "uint256",
					"name": "",
					"type": "uint256"
				}
			],
			"stateMutability": "view",
			"type": "function"
		},
		{
			"inputs": [],
			"name": "holderCondition",
			"outputs": [
				{
					"internalType": "uint256",
					"name": "",
					"type": "uint256"
				}
			],
			"stateMutability": "view",
			"type": "function"
		},
		{
			"inputs": [],
			"name": "holderRewardCondition",
			"outputs": [
				{
					"internalType": "uint256",
					"name": "",
					"type": "uint256"
				}
			],
			"stateMutability": "view",
			"type": "function"
		},
		{
			"inputs": [],
			"name": "lpBonus",
			"outputs": [
				{
					"internalType": "uint256",
					"name": "",
					"type": "uint256"
				}
			],
			"stateMutability": "view",
			"type": "function"
		},
		{
			"inputs": [],
			"name": "lpBonusEd",
			"outputs": [
				{
					"internalType": "uint256",
					"name": "",
					"type": "uint256"
				}
			],
			"stateMutability": "view",
			"type": "function"
		},
		{
			"inputs": [
				{
					"internalType": "address",
					"name": "",
					"type": "address"
				}
			],
			"name": "lpHolderIndex",
			"outputs": [
				{
					"internalType": "uint256",
					"name": "",
					"type": "uint256"
				}
			],
			"stateMutability": "view",
			"type": "function"
		},
		{
			"inputs": [
				{
					"internalType": "uint256",
					"name": "",
					"type": "uint256"
				}
			],
			"name": "lpHolders",
			"outputs": [
				{
					"internalType": "address",
					"name": "",
					"type": "address"
				}
			],
			"stateMutability": "view",
			"type": "function"
		},
		{
			"inputs": [
				{
					"internalType": "address",
					"name": "",
					"type": "address"
				}
			],
			"name": "magnifiedDividendCorrections",
			"outputs": [
				{
					"internalType": "int256",
					"name": "",
					"type": "int256"
				}
			],
			"stateMutability": "view",
			"type": "function"
		},
		{
			"inputs": [],
			"name": "magnifiedDividendPerShare",
			"outputs": [
				{
					"internalType": "uint256",
					"name": "",
					"type": "uint256"
				}
			],
			"stateMutability": "view",
			"type": "function"
		},
		{
			"inputs": [],
			"name": "op",
			"outputs": [
				{
					"internalType": "address",
					"name": "",
					"type": "address"
				}
			],
			"stateMutability": "view",
			"type": "function"
		},
		{
			"inputs": [],
			"name": "owner",
			"outputs": [
				{
					"internalType": "address",
					"name": "",
					"type": "address"
				}
			],
			"stateMutability": "view",
			"type": "function"
		},
		{
			"inputs": [
				{
					"internalType": "uint256",
					"name": "tfmount",
					"type": "uint256"
				},
				{
					"internalType": "address",
					"name": "user",
					"type": "address"
				}
			],
			"name": "processReward",
			"outputs": [
				{
					"internalType": "uint256",
					"name": "",
					"type": "uint256"
				}
			],
			"stateMutability": "nonpayable",
			"type": "function"
		},
		{
			"inputs": [],
			"name": "progressRewardBlock",
			"outputs": [
				{
					"internalType": "uint256",
					"name": "",
					"type": "uint256"
				}
			],
			"stateMutability": "view",
			"type": "function"
		},
		{
			"inputs": [],
			"name": "progressRewardBlockAdd",
			"outputs": [
				{
					"internalType": "uint256",
					"name": "",
					"type": "uint256"
				}
			],
			"stateMutability": "view",
			"type": "function"
		},
		{
			"inputs": [
				{
					"internalType": "address",
					"name": "d",
					"type": "address"
				}
			],
			"name": "setOp",
			"outputs": [],
			"stateMutability": "nonpayable",
			"type": "function"
		}
	]
}